{
  "contracts/XSynExchange.sol": {
    "XSynExchange": {
      "abi": [
        {
          "inputs": [],
          "stateMutability": "nonpayable",
          "type": "constructor"
        },
        {
          "anonymous": false,
          "inputs": [
            {
              "indexed": false,
              "internalType": "bytes32",
              "name": "name",
              "type": "bytes32"
            },
            {
              "indexed": false,
              "internalType": "address",
              "name": "destination",
              "type": "address"
            }
          ],
          "name": "CacheUpdated",
          "type": "event"
        },
        {
          "anonymous": false,
          "inputs": [
            {
              "indexed": false,
              "internalType": "uint256",
              "name": "amount",
              "type": "uint256"
            }
          ],
          "name": "MinimumDepositAmountUpdated",
          "type": "event"
        },
        {
          "anonymous": false,
          "inputs": [
            {
              "indexed": false,
              "internalType": "address",
              "name": "_user",
              "type": "address"
            },
            {
              "indexed": false,
              "internalType": "uint256",
              "name": "_xdusdAmt",
              "type": "uint256"
            },
            {
              "indexed": false,
              "internalType": "uint256",
              "name": "_synthsToMint",
              "type": "uint256"
            },
            {
              "indexed": false,
              "internalType": "string",
              "name": "_wprefixSynth",
              "type": "string"
            }
          ],
          "name": "updatedebt",
          "type": "event"
        },
        {
          "inputs": [],
          "name": "CONTRACTNAME",
          "outputs": [
            {
              "internalType": "string",
              "name": "",
              "type": "string"
            }
          ],
          "stateMutability": "view",
          "type": "function"
        },
        {
          "inputs": [],
          "name": "CONTRACT_NAME",
          "outputs": [
            {
              "internalType": "string",
              "name": "",
              "type": "string"
            }
          ],
          "stateMutability": "view",
          "type": "function"
        },
        {
          "inputs": [],
          "name": "_owner",
          "outputs": [
            {
              "internalType": "address",
              "name": "",
              "type": "address"
            }
          ],
          "stateMutability": "view",
          "type": "function"
        },
        {
          "inputs": [
            {
              "internalType": "bytes32",
              "name": "",
              "type": "bytes32"
            }
          ],
          "name": "addressCache",
          "outputs": [
            {
              "internalType": "address",
              "name": "",
              "type": "address"
            }
          ],
          "stateMutability": "view",
          "type": "function"
        },
        {
          "inputs": [
            {
              "internalType": "uint256",
              "name": "_units",
              "type": "uint256"
            },
            {
              "internalType": "string",
              "name": "_symbol",
              "type": "string"
            }
          ],
          "name": "calculateUnits",
          "outputs": [
            {
              "internalType": "uint256",
              "name": "",
              "type": "uint256"
            }
          ],
          "stateMutability": "view",
          "type": "function"
        },
        {
          "inputs": [],
          "name": "contractOwner",
          "outputs": [
            {
              "internalType": "address",
              "name": "",
              "type": "address"
            }
          ],
          "stateMutability": "view",
          "type": "function"
        },
        {
          "inputs": [
            {
              "internalType": "uint256",
              "name": "_amount",
              "type": "uint256"
            },
            {
              "internalType": "address",
              "name": "_preferredSynthAddress",
              "type": "address"
            },
            {
              "internalType": "string",
              "name": "_woprefixSynth",
              "type": "string"
            },
            {
              "internalType": "string",
              "name": "_wprefixSynth",
              "type": "string"
            }
          ],
          "name": "exchangeXDUSDForSynths",
          "outputs": [
            {
              "internalType": "uint256",
              "name": "",
              "type": "uint256"
            }
          ],
          "stateMutability": "nonpayable",
          "type": "function"
        },
        {
          "inputs": [
            {
              "internalType": "address",
              "name": "",
              "type": "address"
            },
            {
              "internalType": "string",
              "name": "",
              "type": "string"
            }
          ],
          "name": "exchanges",
          "outputs": [
            {
              "internalType": "address",
              "name": "user",
              "type": "address"
            },
            {
              "internalType": "uint256",
              "name": "xdUsdDeposit",
              "type": "uint256"
            },
            {
              "internalType": "uint256",
              "name": "synthsExchanged",
              "type": "uint256"
            },
            {
              "internalType": "address",
              "name": "currencyAddress",
              "type": "address"
            },
            {
              "internalType": "uint256",
              "name": "exchangedOn",
              "type": "uint256"
            }
          ],
          "stateMutability": "view",
          "type": "function"
        },
        {
          "inputs": [
            {
              "internalType": "bytes32",
              "name": "_name",
              "type": "bytes32"
            }
          ],
          "name": "fetchAddress",
          "outputs": [
            {
              "internalType": "address",
              "name": "",
              "type": "address"
            }
          ],
          "stateMutability": "view",
          "type": "function"
        },
        {
          "inputs": [],
          "name": "fetchPrices",
          "outputs": [
            {
              "components": [
                {
                  "internalType": "uint256",
                  "name": "_tokenId",
                  "type": "uint256"
                },
                {
                  "internalType": "string",
                  "name": "Symbol",
                  "type": "string"
                },
                {
                  "internalType": "string",
                  "name": "woPrefix",
                  "type": "string"
                },
                {
                  "internalType": "uint256",
                  "name": "currentprice",
                  "type": "uint256"
                },
                {
                  "internalType": "address",
                  "name": "TokenAddress",
                  "type": "address"
                }
              ],
              "internalType": "struct XSynExchange.SupportTokens[]",
              "name": "",
              "type": "tuple[]"
            }
          ],
          "stateMutability": "view",
          "type": "function"
        },
        {
          "inputs": [],
          "name": "minimumXDUSDDepositAmount",
          "outputs": [
            {
              "internalType": "uint256",
              "name": "",
              "type": "uint256"
            }
          ],
          "stateMutability": "view",
          "type": "function"
        },
        {
          "inputs": [
            {
              "internalType": "address",
              "name": "",
              "type": "address"
            }
          ],
          "name": "mintr",
          "outputs": [
            {
              "internalType": "uint256",
              "name": "",
              "type": "uint256"
            }
          ],
          "stateMutability": "view",
          "type": "function"
        },
        {
          "inputs": [
            {
              "internalType": "bytes32",
              "name": "_name",
              "type": "bytes32"
            }
          ],
          "name": "requireAndGetAddress",
          "outputs": [
            {
              "internalType": "address",
              "name": "",
              "type": "address"
            }
          ],
          "stateMutability": "view",
          "type": "function"
        },
        {
          "inputs": [
            {
              "internalType": "uint256",
              "name": "_minDeposit",
              "type": "uint256"
            }
          ],
          "name": "setMinDepositForXDUSD",
          "outputs": [],
          "stateMutability": "nonpayable",
          "type": "function"
        },
        {
          "inputs": [
            {
              "internalType": "string",
              "name": "_symbol",
              "type": "string"
            }
          ],
          "name": "showBalances",
          "outputs": [
            {
              "internalType": "uint256",
              "name": "",
              "type": "uint256"
            }
          ],
          "stateMutability": "view",
          "type": "function"
        },
        {
          "inputs": [
            {
              "internalType": "string",
              "name": "",
              "type": "string"
            }
          ],
          "name": "supportedAddress",
          "outputs": [
            {
              "internalType": "address",
              "name": "",
              "type": "address"
            }
          ],
          "stateMutability": "view",
          "type": "function"
        },
        {
          "inputs": [
            {
              "internalType": "bytes32",
              "name": "_name",
              "type": "bytes32"
            },
            {
              "internalType": "address",
              "name": "_destination",
              "type": "address"
            }
          ],
          "name": "updateCache",
          "outputs": [],
          "stateMutability": "nonpayable",
          "type": "function"
        },
        {
          "inputs": [
            {
              "internalType": "string",
              "name": "_name",
              "type": "string"
            },
            {
              "internalType": "string",
              "name": "_woPrefix",
              "type": "string"
            },
            {
              "internalType": "address",
              "name": "_destination",
              "type": "address"
            }
          ],
          "name": "updateSupportedTokens",
          "outputs": [],
          "stateMutability": "nonpayable",
          "type": "function"
        }
      ],
      "evm": {
        "bytecode": {
          "linkReferences": {},
          "object": "6080604052670de0b6b3a764000060055534801561001c57600080fd5b5060018054336001600160a01b031991821681179092556004805490911690911790556100546002610059602090811b610c6117901c565b610062565b80546001019055565b611a2f806100716000396000f3fe608060405234801561001057600080fd5b50600436106101165760003560e01c8063b2bdfa7b116100a2578063ce606ee011610071578063ce606ee0146102f7578063d6ea7b3b1461030a578063dc675a651461032a578063f187574414610353578063f1efc5d91461037e57600080fd5b8063b2bdfa7b1461029b578063b7eeefd7146102ae578063c2e7df21146101e9578063c5460d84146102e257600080fd5b8063614d08f8116100e9578063614d08f814610214578063888e31131461024f57806388a842eb146102625780639671e28014610275578063aeb5ff371461028857600080fd5b80630307e5f31461011b57806326df0540146101375780632ebb547f1461014c57806346bcb49d146101e9575b600080fd5b61012460055481565b6040519081526020015b60405180910390f35b61014a61014536600461156e565b610391565b005b6101b261015a366004611484565b60086020908152600092835260409092208151808301840180519281529084019290930191909120915280546001820154600283015460038401546004909401546001600160a01b0393841694929391929091169085565b604080516001600160a01b03968716815260208101959095528401929092529092166060820152608081019190915260a00161012e565b6101fc6101f73660046114f0565b6104cf565b6040516001600160a01b03909116815260200161012e565b6102426040518060400160405280600f81526020016e20b2323932b9b9a932b9b7b63b32b960891b81525081565b60405161012e91906117c3565b61012461025d366004611533565b610549565b61014a6102703660046114f0565b6105d3565b6101246102833660046115f7565b610638565b610124610296366004611672565b6107bf565b6001546101fc906001600160a01b031681565b6101fc6102bc366004611533565b80516020818301810180516006825292820191909301209152546001600160a01b031681565b6102ea610863565b60405161012e9190611716565b6004546101fc906001600160a01b031681565b61012461031836600461146a565b60036020526000908152604090205481565b6101fc6103383660046114f0565b6000602081905290815260409020546001600160a01b031681565b6102426040518060400160405280600c81526020016b5853796e45786368616e676560a01b81525081565b61014a61038c366004611508565b610bab565b6004546001600160a01b031633146103c45760405162461bcd60e51b81526004016103bb9061187c565b60405180910390fd5b60006103cf60025490565b90506103df600280546001019055565b6040805160a08101825282815260208082018781528284018790526000606084018190526001600160a01b038716608085015285815260078352939093208251815592518051929392610438926001850192019061132e565b506040820151805161045491600284019160209091019061132e565b5060608201516003820155608090910151600490910180546001600160a01b0319166001600160a01b03909216919091179055604051829060069061049a9087906116cd565b90815260405190819003602001902080546001600160a01b03929092166001600160a01b031990921691909117905550505050565b60008181526020818152604080832054905170026b4b9b9b4b7339030b2323932b9b99d1607d1b92810192909252603182018490526001600160a01b03169081151590605101604051602081830303815290604052906105425760405162461bcd60e51b81526004016103bb91906117c3565b5092915050565b600061055482610c6a565b6040516370a0823160e01b81523360048201526001600160a01b0391909116906370a082319060240160206040518083038186803b15801561059557600080fd5b505afa1580156105a9573d6000803e3d6000fd5b505050506040513d601f19601f820116820180604052508101906105cd91906115df565b92915050565b6004546001600160a01b031633146105fd5760405162461bcd60e51b81526004016103bb9061187c565b60058190556040518181527fa39eacd162ee82c70b2b030a1bc8fe89adcccc61122fad4821a8772dbcc542679060200160405180910390a150565b60006005548510156106ab5760405162461bcd60e51b815260206004820152603660248201527f584455534420616d6f756e742053686f756c64206265206d696e696d756d58446044820152751554d111195c1bdcda5d105b5bdd5b9d081b1a5b5a5d60521b60648201526084016103bb565b6106fb3360066040518060400160405280600581526020016416111554d160da1b8152506040516106dc91906116cd565b908152604051908190036020019020546001600160a01b031687610c9b565b61074b3360066040518060400160405280600581526020016416111554d160da1b81525060405161072c91906116cd565b908152604051908190036020019020546001600160a01b031687610d7e565b600061075786856107bf565b90506107a88660066040518060400160405280600581526020016416111554d160da1b81525060405161078a91906116cd565b908152604051908190036020019020546001600160a01b0316610e5c565b6107b58187878688610ee2565b9695505050505050565b6000806107ca611109565b6001600160a01b031663a40b18c2846040518263ffffffff1660e01b81526004016107f591906117c3565b60206040518083038186803b15801561080d57600080fd5b505afa158015610821573d6000803e3d6000fd5b505050506040513d601f19601f8201168201806040525081019061084591906115df565b90506000610853858361115d565b905060006107b5826127106111a6565b6060600061087b600161087560025490565b90611225565b90506000808267ffffffffffffffff8111156108a757634e487b7160e01b600052604160045260246000fd5b60405190808252806020026020018201604052801561091357816020015b6109006040518060a001604052806000815260200160608152602001606081526020016000815260200160006001600160a01b031681525090565b8152602001906001900390816108c55790505b50905060005b83811015610ba357600061092e8260016118d9565b90506000600760008381526020019081526020016000209050806040518060a00160405290816000820154815260200160018201805461096d90611977565b80601f016020809104026020016040519081016040528092919081815260200182805461099990611977565b80156109e65780601f106109bb576101008083540402835291602001916109e6565b820191906000526020600020905b8154815290600101906020018083116109c957829003601f168201915b505050505081526020016002820180546109ff90611977565b80601f0160208091040260200160405190810160405280929190818152602001828054610a2b90611977565b8015610a785780601f10610a4d57610100808354040283529160200191610a78565b820191906000526020600020905b815481529060010190602001808311610a5b57829003601f168201915b5050509183525050600382015460208201526004909101546001600160a01b03166040909101528451859087908110610ac157634e487b7160e01b600052603260045260246000fd5b6020026020010181905250610ad4611109565b6001600160a01b031663a40b18c2826002016040518263ffffffff1660e01b8152600401610b0291906117d6565b60206040518083038186803b158015610b1a57600080fd5b505afa158015610b2e573d6000803e3d6000fd5b505050506040513d601f19601f82011682018060405250810190610b5291906115df565b848681518110610b7257634e487b7160e01b600052603260045260246000fd5b602090810291909101015160600152610b8c6001866118d9565b945050508080610b9b906119b2565b915050610919565b509392505050565b6001546001600160a01b03163314610bfd5760405162461bcd60e51b81526020600482015260156024820152746f6e6c79206f776e65722063616e2075706461746560581b60448201526064016103bb565b6000828152602081815260409182902080546001600160a01b0319166001600160a01b0385169081179091558251858152918201527f88a93678a3692f6789d9546fc621bf7234b101ddb7d4fe479455112831b8aa68910160405180910390a15050565b80546001019055565b6000600682604051610c7c91906116cd565b908152604051908190036020019020546001600160a01b031692915050565b6040516370a0823160e01b81526001600160a01b0384811660048301528291908416906370a082319060240160206040518083038186803b158015610cdf57600080fd5b505afa158015610cf3573d6000803e3d6000fd5b505050506040513d601f19601f82011682018060405250810190610d1791906115df565b1015610d795760405162461bcd60e51b815260206004820152602b60248201527f5852433230476174657761793a20696e73756666696369656e7420637572726560448201526a6e63792062616c616e636560a81b60648201526084016103bb565b505050565b604051636eb1769f60e11b81526001600160a01b03848116600483015230602483015282919084169063dd62ed3e9060440160206040518083038186803b158015610dc857600080fd5b505afa158015610ddc573d6000803e3d6000fd5b505050506040513d601f19601f82011682018060405250810190610e0091906115df565b1015610d795760405162461bcd60e51b815260206004820152602560248201527f5852433230476174657761793a20696e73756666696369656e7420616c6c6f7760448201526430b731b29760d91b60648201526084016103bb565b6040516323b872dd60e01b8152336004820152306024820152604481018390526001600160a01b038216906323b872dd90606401602060405180830381600087803b158015610eaa57600080fd5b505af1158015610ebe573d6000803e3d6000fd5b505050506040513d601f19601f82011682018060405250810190610d7991906114d0565b336000908152600860205260408082209051829190610f029086906116cd565b908152604080516020928190038301812060a08201835280546001600160a01b03908116835260018201549483018590526002820154938301939093526003810154909216606082015260049091015460808201529150600090610f669088611267565b90506000610f8189846040015161126790919063ffffffff16565b6040805160a0810182523380825260208083018790528284018590526001600160a01b038c166060840152426080840152600091825260089052829020915192935091610fcf9089906116cd565b9081526040805160209281900383019020835181546001600160a01b03199081166001600160a01b03928316178355938501516001830155918401516002820155606084015160038201805490941692169190911790915560809091015160049091015561103c86610c6a565b6040516340c10f1960e01b8152336004820152602481018b90526001600160a01b0391909116906340c10f1990604401602060405180830381600087803b15801561108657600080fd5b505af115801561109a573d6000803e3d6000fd5b505050506040513d601f19601f820116820180604052508101906110be91906114d0565b507f47100f00640ae8015934184e269ba71e299d3b1202b74f06cb441584803cbd6d33898b886040516110f494939291906116e9565b60405180910390a15096979650505050505050565b600060066040518060400160405280600c81526020016b45584348414e47455241544560a01b81525060405161113f91906116cd565b908152604051908190036020019020546001600160a01b0316919050565b600061119f83836040518060400160405280601a81526020017f536166654d6174683a206469766973696f6e206279207a65726f0000000000008152506112c6565b9392505050565b6000826111b5575060006105cd565b60006111c18385611911565b9050826111ce85836118f1565b1461119f5760405162461bcd60e51b815260206004820152602160248201527f536166654d6174683a206d756c7469706c69636174696f6e206f766572666c6f6044820152607760f81b60648201526084016103bb565b600061119f83836040518060400160405280601e81526020017f536166654d6174683a207375627472616374696f6e206f766572666c6f7700008152506112fd565b60008061127483856118d9565b90508381101561119f5760405162461bcd60e51b815260206004820152601b60248201527f536166654d6174683a206164646974696f6e206f766572666c6f77000000000060448201526064016103bb565b600081836112e75760405162461bcd60e51b81526004016103bb91906117c3565b5060006112f484866118f1565b95945050505050565b600081848411156113215760405162461bcd60e51b81526004016103bb91906117c3565b5060006112f48486611930565b82805461133a90611977565b90600052602060002090601f01602090048101928261135c57600085556113a2565b82601f1061137557805160ff19168380011785556113a2565b828001600101855582156113a2579182015b828111156113a2578251825591602001919060010190611387565b506113ae9291506113b2565b5090565b5b808211156113ae57600081556001016113b3565b80356001600160a01b03811681146113de57600080fd5b919050565b600082601f8301126113f3578081fd5b813567ffffffffffffffff8082111561140e5761140e6119e3565b604051601f8301601f19908116603f01168101908282118183101715611436576114366119e3565b8160405283815286602085880101111561144e578485fd5b8360208701602083013792830160200193909352509392505050565b60006020828403121561147b578081fd5b61119f826113c7565b60008060408385031215611496578081fd5b61149f836113c7565b9150602083013567ffffffffffffffff8111156114ba578182fd5b6114c6858286016113e3565b9150509250929050565b6000602082840312156114e1578081fd5b8151801515811461119f578182fd5b600060208284031215611501578081fd5b5035919050565b6000806040838503121561151a578182fd5b8235915061152a602084016113c7565b90509250929050565b600060208284031215611544578081fd5b813567ffffffffffffffff81111561155a578182fd5b611566848285016113e3565b949350505050565b600080600060608486031215611582578081fd5b833567ffffffffffffffff80821115611599578283fd5b6115a5878388016113e3565b945060208601359150808211156115ba578283fd5b506115c7868287016113e3565b9250506115d6604085016113c7565b90509250925092565b6000602082840312156115f0578081fd5b5051919050565b6000806000806080858703121561160c578081fd5b8435935061161c602086016113c7565b9250604085013567ffffffffffffffff80821115611638578283fd5b611644888389016113e3565b93506060870135915080821115611659578283fd5b50611666878288016113e3565b91505092959194509250565b60008060408385031215611684578182fd5b82359150602083013567ffffffffffffffff8111156114ba578182fd5b600081518084526116b9816020860160208601611947565b601f01601f19169290920160200192915050565b600082516116df818460208701611947565b9190910192915050565b60018060a01b03851681528360208201528260408201526080606082015260006107b560808301846116a1565b60006020808301818452808551808352604092508286019150828160051b870101848801865b838110156117b557603f19898403018552815160a08151855288820151818a87015261176a828701826116a1565b915050878201518582038987015261178282826116a1565b606084810151908801526080938401516001600160a01b031693909601929092525050938601939086019060010161173c565b509098975050505050505050565b60208152600061119f60208301846116a1565b6000602080835281845483600182811c9150808316806117f757607f831692505b85831081141561181557634e487b7160e01b87526022600452602487fd5b87860183815260200181801561183257600181146118435761186d565b60ff1986168252878201965061186d565b60008b815260209020895b868110156118675781548482015290850190890161184e565b83019750505b50949998505050505050505050565b6020808252603e908201527f5853796e45786368616e67653a204f6e6c7920417574686f72697a656420576160408201527f6c6c65742063616e20706572666f722074686973206f7065726174696f6e0000606082015260800190565b600082198211156118ec576118ec6119cd565b500190565b60008261190c57634e487b7160e01b81526012600452602481fd5b500490565b600081600019048311821515161561192b5761192b6119cd565b500290565b600082821015611942576119426119cd565b500390565b60005b8381101561196257818101518382015260200161194a565b83811115611971576000848401525b50505050565b600181811c9082168061198b57607f821691505b602082108114156119ac57634e487b7160e01b600052602260045260246000fd5b50919050565b60006000198214156119c6576119c66119cd565b5060010190565b634e487b7160e01b600052601160045260246000fd5b634e487b7160e01b600052604160045260246000fdfea264697066735822122067dd95431876d92514a0808ded5733440271bcfc7ac9176d5c5ae570fad22c2864736f6c63430008040033",
          "opcodes": "PUSH1 0x80 PUSH1 0x40 MSTORE PUSH8 0xDE0B6B3A7640000 PUSH1 0x5 SSTORE CALLVALUE DUP1 ISZERO PUSH2 0x1C JUMPI PUSH1 0x0 DUP1 REVERT JUMPDEST POP PUSH1 0x1 DUP1 SLOAD CALLER PUSH1 0x1 PUSH1 0x1 PUSH1 0xA0 SHL SUB NOT SWAP2 DUP3 AND DUP2 OR SWAP1 SWAP3 SSTORE PUSH1 0x4 DUP1 SLOAD SWAP1 SWAP2 AND SWAP1 SWAP2 OR SWAP1 SSTORE PUSH2 0x54 PUSH1 0x2 PUSH2 0x59 PUSH1 0x20 SWAP1 DUP2 SHL PUSH2 0xC61 OR SWAP1 SHR JUMP JUMPDEST PUSH2 0x62 JUMP JUMPDEST DUP1 SLOAD PUSH1 0x1 ADD SWAP1 SSTORE JUMP JUMPDEST PUSH2 0x1A2F DUP1 PUSH2 0x71 PUSH1 0x0 CODECOPY PUSH1 0x0 RETURN INVALID PUSH1 0x80 PUSH1 0x40 MSTORE CALLVALUE DUP1 ISZERO PUSH2 0x10 JUMPI PUSH1 0x0 DUP1 REVERT JUMPDEST POP PUSH1 0x4 CALLDATASIZE LT PUSH2 0x116 JUMPI PUSH1 0x0 CALLDATALOAD PUSH1 0xE0 SHR DUP1 PUSH4 0xB2BDFA7B GT PUSH2 0xA2 JUMPI DUP1 PUSH4 0xCE606EE0 GT PUSH2 0x71 JUMPI DUP1 PUSH4 0xCE606EE0 EQ PUSH2 0x2F7 JUMPI DUP1 PUSH4 0xD6EA7B3B EQ PUSH2 0x30A JUMPI DUP1 PUSH4 0xDC675A65 EQ PUSH2 0x32A JUMPI DUP1 PUSH4 0xF1875744 EQ PUSH2 0x353 JUMPI DUP1 PUSH4 0xF1EFC5D9 EQ PUSH2 0x37E JUMPI PUSH1 0x0 DUP1 REVERT JUMPDEST DUP1 PUSH4 0xB2BDFA7B EQ PUSH2 0x29B JUMPI DUP1 PUSH4 0xB7EEEFD7 EQ PUSH2 0x2AE JUMPI DUP1 PUSH4 0xC2E7DF21 EQ PUSH2 0x1E9 JUMPI DUP1 PUSH4 0xC5460D84 EQ PUSH2 0x2E2 JUMPI PUSH1 0x0 DUP1 REVERT JUMPDEST DUP1 PUSH4 0x614D08F8 GT PUSH2 0xE9 JUMPI DUP1 PUSH4 0x614D08F8 EQ PUSH2 0x214 JUMPI DUP1 PUSH4 0x888E3113 EQ PUSH2 0x24F JUMPI DUP1 PUSH4 0x88A842EB EQ PUSH2 0x262 JUMPI DUP1 PUSH4 0x9671E280 EQ PUSH2 0x275 JUMPI DUP1 PUSH4 0xAEB5FF37 EQ PUSH2 0x288 JUMPI PUSH1 0x0 DUP1 REVERT JUMPDEST DUP1 PUSH4 0x307E5F3 EQ PUSH2 0x11B JUMPI DUP1 PUSH4 0x26DF0540 EQ PUSH2 0x137 JUMPI DUP1 PUSH4 0x2EBB547F EQ PUSH2 0x14C JUMPI DUP1 PUSH4 0x46BCB49D EQ PUSH2 0x1E9 JUMPI JUMPDEST PUSH1 0x0 DUP1 REVERT JUMPDEST PUSH2 0x124 PUSH1 0x5 SLOAD DUP2 JUMP JUMPDEST PUSH1 0x40 MLOAD SWAP1 DUP2 MSTORE PUSH1 0x20 ADD JUMPDEST PUSH1 0x40 MLOAD DUP1 SWAP2 SUB SWAP1 RETURN JUMPDEST PUSH2 0x14A PUSH2 0x145 CALLDATASIZE PUSH1 0x4 PUSH2 0x156E JUMP JUMPDEST PUSH2 0x391 JUMP JUMPDEST STOP JUMPDEST PUSH2 0x1B2 PUSH2 0x15A CALLDATASIZE PUSH1 0x4 PUSH2 0x1484 JUMP JUMPDEST PUSH1 0x8 PUSH1 0x20 SWAP1 DUP2 MSTORE PUSH1 0x0 SWAP3 DUP4 MSTORE PUSH1 0x40 SWAP1 SWAP3 KECCAK256 DUP2 MLOAD DUP1 DUP4 ADD DUP5 ADD DUP1 MLOAD SWAP3 DUP2 MSTORE SWAP1 DUP5 ADD SWAP3 SWAP1 SWAP4 ADD SWAP2 SWAP1 SWAP2 KECCAK256 SWAP2 MSTORE DUP1 SLOAD PUSH1 0x1 DUP3 ADD SLOAD PUSH1 0x2 DUP4 ADD SLOAD PUSH1 0x3 DUP5 ADD SLOAD PUSH1 0x4 SWAP1 SWAP5 ADD SLOAD PUSH1 0x1 PUSH1 0x1 PUSH1 0xA0 SHL SUB SWAP4 DUP5 AND SWAP5 SWAP3 SWAP4 SWAP2 SWAP3 SWAP1 SWAP2 AND SWAP1 DUP6 JUMP JUMPDEST PUSH1 0x40 DUP1 MLOAD PUSH1 0x1 PUSH1 0x1 PUSH1 0xA0 SHL SUB SWAP7 DUP8 AND DUP2 MSTORE PUSH1 0x20 DUP2 ADD SWAP6 SWAP1 SWAP6 MSTORE DUP5 ADD SWAP3 SWAP1 SWAP3 MSTORE SWAP1 SWAP3 AND PUSH1 0x60 DUP3 ADD MSTORE PUSH1 0x80 DUP2 ADD SWAP2 SWAP1 SWAP2 MSTORE PUSH1 0xA0 ADD PUSH2 0x12E JUMP JUMPDEST PUSH2 0x1FC PUSH2 0x1F7 CALLDATASIZE PUSH1 0x4 PUSH2 0x14F0 JUMP JUMPDEST PUSH2 0x4CF JUMP JUMPDEST PUSH1 0x40 MLOAD PUSH1 0x1 PUSH1 0x1 PUSH1 0xA0 SHL SUB SWAP1 SWAP2 AND DUP2 MSTORE PUSH1 0x20 ADD PUSH2 0x12E JUMP JUMPDEST PUSH2 0x242 PUSH1 0x40 MLOAD DUP1 PUSH1 0x40 ADD PUSH1 0x40 MSTORE DUP1 PUSH1 0xF DUP2 MSTORE PUSH1 0x20 ADD PUSH15 0x20B2323932B9B9A932B9B7B63B32B9 PUSH1 0x89 SHL DUP2 MSTORE POP DUP2 JUMP JUMPDEST PUSH1 0x40 MLOAD PUSH2 0x12E SWAP2 SWAP1 PUSH2 0x17C3 JUMP JUMPDEST PUSH2 0x124 PUSH2 0x25D CALLDATASIZE PUSH1 0x4 PUSH2 0x1533 JUMP JUMPDEST PUSH2 0x549 JUMP JUMPDEST PUSH2 0x14A PUSH2 0x270 CALLDATASIZE PUSH1 0x4 PUSH2 0x14F0 JUMP JUMPDEST PUSH2 0x5D3 JUMP JUMPDEST PUSH2 0x124 PUSH2 0x283 CALLDATASIZE PUSH1 0x4 PUSH2 0x15F7 JUMP JUMPDEST PUSH2 0x638 JUMP JUMPDEST PUSH2 0x124 PUSH2 0x296 CALLDATASIZE PUSH1 0x4 PUSH2 0x1672 JUMP JUMPDEST PUSH2 0x7BF JUMP JUMPDEST PUSH1 0x1 SLOAD PUSH2 0x1FC SWAP1 PUSH1 0x1 PUSH1 0x1 PUSH1 0xA0 SHL SUB AND DUP2 JUMP JUMPDEST PUSH2 0x1FC PUSH2 0x2BC CALLDATASIZE PUSH1 0x4 PUSH2 0x1533 JUMP JUMPDEST DUP1 MLOAD PUSH1 0x20 DUP2 DUP4 ADD DUP2 ADD DUP1 MLOAD PUSH1 0x6 DUP3 MSTORE SWAP3 DUP3 ADD SWAP2 SWAP1 SWAP4 ADD KECCAK256 SWAP2 MSTORE SLOAD PUSH1 0x1 PUSH1 0x1 PUSH1 0xA0 SHL SUB AND DUP2 JUMP JUMPDEST PUSH2 0x2EA PUSH2 0x863 JUMP JUMPDEST PUSH1 0x40 MLOAD PUSH2 0x12E SWAP2 SWAP1 PUSH2 0x1716 JUMP JUMPDEST PUSH1 0x4 SLOAD PUSH2 0x1FC SWAP1 PUSH1 0x1 PUSH1 0x1 PUSH1 0xA0 SHL SUB AND DUP2 JUMP JUMPDEST PUSH2 0x124 PUSH2 0x318 CALLDATASIZE PUSH1 0x4 PUSH2 0x146A JUMP JUMPDEST PUSH1 0x3 PUSH1 0x20 MSTORE PUSH1 0x0 SWAP1 DUP2 MSTORE PUSH1 0x40 SWAP1 KECCAK256 SLOAD DUP2 JUMP JUMPDEST PUSH2 0x1FC PUSH2 0x338 CALLDATASIZE PUSH1 0x4 PUSH2 0x14F0 JUMP JUMPDEST PUSH1 0x0 PUSH1 0x20 DUP2 SWAP1 MSTORE SWAP1 DUP2 MSTORE PUSH1 0x40 SWAP1 KECCAK256 SLOAD PUSH1 0x1 PUSH1 0x1 PUSH1 0xA0 SHL SUB AND DUP2 JUMP JUMPDEST PUSH2 0x242 PUSH1 0x40 MLOAD DUP1 PUSH1 0x40 ADD PUSH1 0x40 MSTORE DUP1 PUSH1 0xC DUP2 MSTORE PUSH1 0x20 ADD PUSH12 0x5853796E45786368616E6765 PUSH1 0xA0 SHL DUP2 MSTORE POP DUP2 JUMP JUMPDEST PUSH2 0x14A PUSH2 0x38C CALLDATASIZE PUSH1 0x4 PUSH2 0x1508 JUMP JUMPDEST PUSH2 0xBAB JUMP JUMPDEST PUSH1 0x4 SLOAD PUSH1 0x1 PUSH1 0x1 PUSH1 0xA0 SHL SUB AND CALLER EQ PUSH2 0x3C4 JUMPI PUSH1 0x40 MLOAD PUSH3 0x461BCD PUSH1 0xE5 SHL DUP2 MSTORE PUSH1 0x4 ADD PUSH2 0x3BB SWAP1 PUSH2 0x187C JUMP JUMPDEST PUSH1 0x40 MLOAD DUP1 SWAP2 SUB SWAP1 REVERT JUMPDEST PUSH1 0x0 PUSH2 0x3CF PUSH1 0x2 SLOAD SWAP1 JUMP JUMPDEST SWAP1 POP PUSH2 0x3DF PUSH1 0x2 DUP1 SLOAD PUSH1 0x1 ADD SWAP1 SSTORE JUMP JUMPDEST PUSH1 0x40 DUP1 MLOAD PUSH1 0xA0 DUP2 ADD DUP3 MSTORE DUP3 DUP2 MSTORE PUSH1 0x20 DUP1 DUP3 ADD DUP8 DUP2 MSTORE DUP3 DUP5 ADD DUP8 SWAP1 MSTORE PUSH1 0x0 PUSH1 0x60 DUP5 ADD DUP2 SWAP1 MSTORE PUSH1 0x1 PUSH1 0x1 PUSH1 0xA0 SHL SUB DUP8 AND PUSH1 0x80 DUP6 ADD MSTORE DUP6 DUP2 MSTORE PUSH1 0x7 DUP4 MSTORE SWAP4 SWAP1 SWAP4 KECCAK256 DUP3 MLOAD DUP2 SSTORE SWAP3 MLOAD DUP1 MLOAD SWAP3 SWAP4 SWAP3 PUSH2 0x438 SWAP3 PUSH1 0x1 DUP6 ADD SWAP3 ADD SWAP1 PUSH2 0x132E JUMP JUMPDEST POP PUSH1 0x40 DUP3 ADD MLOAD DUP1 MLOAD PUSH2 0x454 SWAP2 PUSH1 0x2 DUP5 ADD SWAP2 PUSH1 0x20 SWAP1 SWAP2 ADD SWAP1 PUSH2 0x132E JUMP JUMPDEST POP PUSH1 0x60 DUP3 ADD MLOAD PUSH1 0x3 DUP3 ADD SSTORE PUSH1 0x80 SWAP1 SWAP2 ADD MLOAD PUSH1 0x4 SWAP1 SWAP2 ADD DUP1 SLOAD PUSH1 0x1 PUSH1 0x1 PUSH1 0xA0 SHL SUB NOT AND PUSH1 0x1 PUSH1 0x1 PUSH1 0xA0 SHL SUB SWAP1 SWAP3 AND SWAP2 SWAP1 SWAP2 OR SWAP1 SSTORE PUSH1 0x40 MLOAD DUP3 SWAP1 PUSH1 0x6 SWAP1 PUSH2 0x49A SWAP1 DUP8 SWAP1 PUSH2 0x16CD JUMP JUMPDEST SWAP1 DUP2 MSTORE PUSH1 0x40 MLOAD SWAP1 DUP2 SWAP1 SUB PUSH1 0x20 ADD SWAP1 KECCAK256 DUP1 SLOAD PUSH1 0x1 PUSH1 0x1 PUSH1 0xA0 SHL SUB SWAP3 SWAP1 SWAP3 AND PUSH1 0x1 PUSH1 0x1 PUSH1 0xA0 SHL SUB NOT SWAP1 SWAP3 AND SWAP2 SWAP1 SWAP2 OR SWAP1 SSTORE POP POP POP POP JUMP JUMPDEST PUSH1 0x0 DUP2 DUP2 MSTORE PUSH1 0x20 DUP2 DUP2 MSTORE PUSH1 0x40 DUP1 DUP4 KECCAK256 SLOAD SWAP1 MLOAD PUSH17 0x26B4B9B9B4B7339030B2323932B9B99D1 PUSH1 0x7D SHL SWAP3 DUP2 ADD SWAP3 SWAP1 SWAP3 MSTORE PUSH1 0x31 DUP3 ADD DUP5 SWAP1 MSTORE PUSH1 0x1 PUSH1 0x1 PUSH1 0xA0 SHL SUB AND SWAP1 DUP2 ISZERO ISZERO SWAP1 PUSH1 0x51 ADD PUSH1 0x40 MLOAD PUSH1 0x20 DUP2 DUP4 SUB SUB DUP2 MSTORE SWAP1 PUSH1 0x40 MSTORE SWAP1 PUSH2 0x542 JUMPI PUSH1 0x40 MLOAD PUSH3 0x461BCD PUSH1 0xE5 SHL DUP2 MSTORE PUSH1 0x4 ADD PUSH2 0x3BB SWAP2 SWAP1 PUSH2 0x17C3 JUMP JUMPDEST POP SWAP3 SWAP2 POP POP JUMP JUMPDEST PUSH1 0x0 PUSH2 0x554 DUP3 PUSH2 0xC6A JUMP JUMPDEST PUSH1 0x40 MLOAD PUSH4 0x70A08231 PUSH1 0xE0 SHL DUP2 MSTORE CALLER PUSH1 0x4 DUP3 ADD MSTORE PUSH1 0x1 PUSH1 0x1 PUSH1 0xA0 SHL SUB SWAP2 SWAP1 SWAP2 AND SWAP1 PUSH4 0x70A08231 SWAP1 PUSH1 0x24 ADD PUSH1 0x20 PUSH1 0x40 MLOAD DUP1 DUP4 SUB DUP2 DUP7 DUP1 EXTCODESIZE ISZERO DUP1 ISZERO PUSH2 0x595 JUMPI PUSH1 0x0 DUP1 REVERT JUMPDEST POP GAS STATICCALL ISZERO DUP1 ISZERO PUSH2 0x5A9 JUMPI RETURNDATASIZE PUSH1 0x0 DUP1 RETURNDATACOPY RETURNDATASIZE PUSH1 0x0 REVERT JUMPDEST POP POP POP POP PUSH1 0x40 MLOAD RETURNDATASIZE PUSH1 0x1F NOT PUSH1 0x1F DUP3 ADD AND DUP3 ADD DUP1 PUSH1 0x40 MSTORE POP DUP2 ADD SWAP1 PUSH2 0x5CD SWAP2 SWAP1 PUSH2 0x15DF JUMP JUMPDEST SWAP3 SWAP2 POP POP JUMP JUMPDEST PUSH1 0x4 SLOAD PUSH1 0x1 PUSH1 0x1 PUSH1 0xA0 SHL SUB AND CALLER EQ PUSH2 0x5FD JUMPI PUSH1 0x40 MLOAD PUSH3 0x461BCD PUSH1 0xE5 SHL DUP2 MSTORE PUSH1 0x4 ADD PUSH2 0x3BB SWAP1 PUSH2 0x187C JUMP JUMPDEST PUSH1 0x5 DUP2 SWAP1 SSTORE PUSH1 0x40 MLOAD DUP2 DUP2 MSTORE PUSH32 0xA39EACD162EE82C70B2B030A1BC8FE89ADCCCC61122FAD4821A8772DBCC54267 SWAP1 PUSH1 0x20 ADD PUSH1 0x40 MLOAD DUP1 SWAP2 SUB SWAP1 LOG1 POP JUMP JUMPDEST PUSH1 0x0 PUSH1 0x5 SLOAD DUP6 LT ISZERO PUSH2 0x6AB JUMPI PUSH1 0x40 MLOAD PUSH3 0x461BCD PUSH1 0xE5 SHL DUP2 MSTORE PUSH1 0x20 PUSH1 0x4 DUP3 ADD MSTORE PUSH1 0x36 PUSH1 0x24 DUP3 ADD MSTORE PUSH32 0x584455534420616D6F756E742053686F756C64206265206D696E696D756D5844 PUSH1 0x44 DUP3 ADD MSTORE PUSH22 0x1554D111195C1BDCDA5D105B5BDD5B9D081B1A5B5A5D PUSH1 0x52 SHL PUSH1 0x64 DUP3 ADD MSTORE PUSH1 0x84 ADD PUSH2 0x3BB JUMP JUMPDEST PUSH2 0x6FB CALLER PUSH1 0x6 PUSH1 0x40 MLOAD DUP1 PUSH1 0x40 ADD PUSH1 0x40 MSTORE DUP1 PUSH1 0x5 DUP2 MSTORE PUSH1 0x20 ADD PUSH5 0x16111554D1 PUSH1 0xDA SHL DUP2 MSTORE POP PUSH1 0x40 MLOAD PUSH2 0x6DC SWAP2 SWAP1 PUSH2 0x16CD JUMP JUMPDEST SWAP1 DUP2 MSTORE PUSH1 0x40 MLOAD SWAP1 DUP2 SWAP1 SUB PUSH1 0x20 ADD SWAP1 KECCAK256 SLOAD PUSH1 0x1 PUSH1 0x1 PUSH1 0xA0 SHL SUB AND DUP8 PUSH2 0xC9B JUMP JUMPDEST PUSH2 0x74B CALLER PUSH1 0x6 PUSH1 0x40 MLOAD DUP1 PUSH1 0x40 ADD PUSH1 0x40 MSTORE DUP1 PUSH1 0x5 DUP2 MSTORE PUSH1 0x20 ADD PUSH5 0x16111554D1 PUSH1 0xDA SHL DUP2 MSTORE POP PUSH1 0x40 MLOAD PUSH2 0x72C SWAP2 SWAP1 PUSH2 0x16CD JUMP JUMPDEST SWAP1 DUP2 MSTORE PUSH1 0x40 MLOAD SWAP1 DUP2 SWAP1 SUB PUSH1 0x20 ADD SWAP1 KECCAK256 SLOAD PUSH1 0x1 PUSH1 0x1 PUSH1 0xA0 SHL SUB AND DUP8 PUSH2 0xD7E JUMP JUMPDEST PUSH1 0x0 PUSH2 0x757 DUP7 DUP6 PUSH2 0x7BF JUMP JUMPDEST SWAP1 POP PUSH2 0x7A8 DUP7 PUSH1 0x6 PUSH1 0x40 MLOAD DUP1 PUSH1 0x40 ADD PUSH1 0x40 MSTORE DUP1 PUSH1 0x5 DUP2 MSTORE PUSH1 0x20 ADD PUSH5 0x16111554D1 PUSH1 0xDA SHL DUP2 MSTORE POP PUSH1 0x40 MLOAD PUSH2 0x78A SWAP2 SWAP1 PUSH2 0x16CD JUMP JUMPDEST SWAP1 DUP2 MSTORE PUSH1 0x40 MLOAD SWAP1 DUP2 SWAP1 SUB PUSH1 0x20 ADD SWAP1 KECCAK256 SLOAD PUSH1 0x1 PUSH1 0x1 PUSH1 0xA0 SHL SUB AND PUSH2 0xE5C JUMP JUMPDEST PUSH2 0x7B5 DUP2 DUP8 DUP8 DUP7 DUP9 PUSH2 0xEE2 JUMP JUMPDEST SWAP7 SWAP6 POP POP POP POP POP POP JUMP JUMPDEST PUSH1 0x0 DUP1 PUSH2 0x7CA PUSH2 0x1109 JUMP JUMPDEST PUSH1 0x1 PUSH1 0x1 PUSH1 0xA0 SHL SUB AND PUSH4 0xA40B18C2 DUP5 PUSH1 0x40 MLOAD DUP3 PUSH4 0xFFFFFFFF AND PUSH1 0xE0 SHL DUP2 MSTORE PUSH1 0x4 ADD PUSH2 0x7F5 SWAP2 SWAP1 PUSH2 0x17C3 JUMP JUMPDEST PUSH1 0x20 PUSH1 0x40 MLOAD DUP1 DUP4 SUB DUP2 DUP7 DUP1 EXTCODESIZE ISZERO DUP1 ISZERO PUSH2 0x80D JUMPI PUSH1 0x0 DUP1 REVERT JUMPDEST POP GAS STATICCALL ISZERO DUP1 ISZERO PUSH2 0x821 JUMPI RETURNDATASIZE PUSH1 0x0 DUP1 RETURNDATACOPY RETURNDATASIZE PUSH1 0x0 REVERT JUMPDEST POP POP POP POP PUSH1 0x40 MLOAD RETURNDATASIZE PUSH1 0x1F NOT PUSH1 0x1F DUP3 ADD AND DUP3 ADD DUP1 PUSH1 0x40 MSTORE POP DUP2 ADD SWAP1 PUSH2 0x845 SWAP2 SWAP1 PUSH2 0x15DF JUMP JUMPDEST SWAP1 POP PUSH1 0x0 PUSH2 0x853 DUP6 DUP4 PUSH2 0x115D JUMP JUMPDEST SWAP1 POP PUSH1 0x0 PUSH2 0x7B5 DUP3 PUSH2 0x2710 PUSH2 0x11A6 JUMP JUMPDEST PUSH1 0x60 PUSH1 0x0 PUSH2 0x87B PUSH1 0x1 PUSH2 0x875 PUSH1 0x2 SLOAD SWAP1 JUMP JUMPDEST SWAP1 PUSH2 0x1225 JUMP JUMPDEST SWAP1 POP PUSH1 0x0 DUP1 DUP3 PUSH8 0xFFFFFFFFFFFFFFFF DUP2 GT ISZERO PUSH2 0x8A7 JUMPI PUSH4 0x4E487B71 PUSH1 0xE0 SHL PUSH1 0x0 MSTORE PUSH1 0x41 PUSH1 0x4 MSTORE PUSH1 0x24 PUSH1 0x0 REVERT JUMPDEST PUSH1 0x40 MLOAD SWAP1 DUP1 DUP3 MSTORE DUP1 PUSH1 0x20 MUL PUSH1 0x20 ADD DUP3 ADD PUSH1 0x40 MSTORE DUP1 ISZERO PUSH2 0x913 JUMPI DUP2 PUSH1 0x20 ADD JUMPDEST PUSH2 0x900 PUSH1 0x40 MLOAD DUP1 PUSH1 0xA0 ADD PUSH1 0x40 MSTORE DUP1 PUSH1 0x0 DUP2 MSTORE PUSH1 0x20 ADD PUSH1 0x60 DUP2 MSTORE PUSH1 0x20 ADD PUSH1 0x60 DUP2 MSTORE PUSH1 0x20 ADD PUSH1 0x0 DUP2 MSTORE PUSH1 0x20 ADD PUSH1 0x0 PUSH1 0x1 PUSH1 0x1 PUSH1 0xA0 SHL SUB AND DUP2 MSTORE POP SWAP1 JUMP JUMPDEST DUP2 MSTORE PUSH1 0x20 ADD SWAP1 PUSH1 0x1 SWAP1 SUB SWAP1 DUP2 PUSH2 0x8C5 JUMPI SWAP1 POP JUMPDEST POP SWAP1 POP PUSH1 0x0 JUMPDEST DUP4 DUP2 LT ISZERO PUSH2 0xBA3 JUMPI PUSH1 0x0 PUSH2 0x92E DUP3 PUSH1 0x1 PUSH2 0x18D9 JUMP JUMPDEST SWAP1 POP PUSH1 0x0 PUSH1 0x7 PUSH1 0x0 DUP4 DUP2 MSTORE PUSH1 0x20 ADD SWAP1 DUP2 MSTORE PUSH1 0x20 ADD PUSH1 0x0 KECCAK256 SWAP1 POP DUP1 PUSH1 0x40 MLOAD DUP1 PUSH1 0xA0 ADD PUSH1 0x40 MSTORE SWAP1 DUP2 PUSH1 0x0 DUP3 ADD SLOAD DUP2 MSTORE PUSH1 0x20 ADD PUSH1 0x1 DUP3 ADD DUP1 SLOAD PUSH2 0x96D SWAP1 PUSH2 0x1977 JUMP JUMPDEST DUP1 PUSH1 0x1F ADD PUSH1 0x20 DUP1 SWAP2 DIV MUL PUSH1 0x20 ADD PUSH1 0x40 MLOAD SWAP1 DUP2 ADD PUSH1 0x40 MSTORE DUP1 SWAP3 SWAP2 SWAP1 DUP2 DUP2 MSTORE PUSH1 0x20 ADD DUP3 DUP1 SLOAD PUSH2 0x999 SWAP1 PUSH2 0x1977 JUMP JUMPDEST DUP1 ISZERO PUSH2 0x9E6 JUMPI DUP1 PUSH1 0x1F LT PUSH2 0x9BB JUMPI PUSH2 0x100 DUP1 DUP4 SLOAD DIV MUL DUP4 MSTORE SWAP2 PUSH1 0x20 ADD SWAP2 PUSH2 0x9E6 JUMP JUMPDEST DUP3 ADD SWAP2 SWAP1 PUSH1 0x0 MSTORE PUSH1 0x20 PUSH1 0x0 KECCAK256 SWAP1 JUMPDEST DUP2 SLOAD DUP2 MSTORE SWAP1 PUSH1 0x1 ADD SWAP1 PUSH1 0x20 ADD DUP1 DUP4 GT PUSH2 0x9C9 JUMPI DUP3 SWAP1 SUB PUSH1 0x1F AND DUP3 ADD SWAP2 JUMPDEST POP POP POP POP POP DUP2 MSTORE PUSH1 0x20 ADD PUSH1 0x2 DUP3 ADD DUP1 SLOAD PUSH2 0x9FF SWAP1 PUSH2 0x1977 JUMP JUMPDEST DUP1 PUSH1 0x1F ADD PUSH1 0x20 DUP1 SWAP2 DIV MUL PUSH1 0x20 ADD PUSH1 0x40 MLOAD SWAP1 DUP2 ADD PUSH1 0x40 MSTORE DUP1 SWAP3 SWAP2 SWAP1 DUP2 DUP2 MSTORE PUSH1 0x20 ADD DUP3 DUP1 SLOAD PUSH2 0xA2B SWAP1 PUSH2 0x1977 JUMP JUMPDEST DUP1 ISZERO PUSH2 0xA78 JUMPI DUP1 PUSH1 0x1F LT PUSH2 0xA4D JUMPI PUSH2 0x100 DUP1 DUP4 SLOAD DIV MUL DUP4 MSTORE SWAP2 PUSH1 0x20 ADD SWAP2 PUSH2 0xA78 JUMP JUMPDEST DUP3 ADD SWAP2 SWAP1 PUSH1 0x0 MSTORE PUSH1 0x20 PUSH1 0x0 KECCAK256 SWAP1 JUMPDEST DUP2 SLOAD DUP2 MSTORE SWAP1 PUSH1 0x1 ADD SWAP1 PUSH1 0x20 ADD DUP1 DUP4 GT PUSH2 0xA5B JUMPI DUP3 SWAP1 SUB PUSH1 0x1F AND DUP3 ADD SWAP2 JUMPDEST POP POP POP SWAP2 DUP4 MSTORE POP POP PUSH1 0x3 DUP3 ADD SLOAD PUSH1 0x20 DUP3 ADD MSTORE PUSH1 0x4 SWAP1 SWAP2 ADD SLOAD PUSH1 0x1 PUSH1 0x1 PUSH1 0xA0 SHL SUB AND PUSH1 0x40 SWAP1 SWAP2 ADD MSTORE DUP5 MLOAD DUP6 SWAP1 DUP8 SWAP1 DUP2 LT PUSH2 0xAC1 JUMPI PUSH4 0x4E487B71 PUSH1 0xE0 SHL PUSH1 0x0 MSTORE PUSH1 0x32 PUSH1 0x4 MSTORE PUSH1 0x24 PUSH1 0x0 REVERT JUMPDEST PUSH1 0x20 MUL PUSH1 0x20 ADD ADD DUP2 SWAP1 MSTORE POP PUSH2 0xAD4 PUSH2 0x1109 JUMP JUMPDEST PUSH1 0x1 PUSH1 0x1 PUSH1 0xA0 SHL SUB AND PUSH4 0xA40B18C2 DUP3 PUSH1 0x2 ADD PUSH1 0x40 MLOAD DUP3 PUSH4 0xFFFFFFFF AND PUSH1 0xE0 SHL DUP2 MSTORE PUSH1 0x4 ADD PUSH2 0xB02 SWAP2 SWAP1 PUSH2 0x17D6 JUMP JUMPDEST PUSH1 0x20 PUSH1 0x40 MLOAD DUP1 DUP4 SUB DUP2 DUP7 DUP1 EXTCODESIZE ISZERO DUP1 ISZERO PUSH2 0xB1A JUMPI PUSH1 0x0 DUP1 REVERT JUMPDEST POP GAS STATICCALL ISZERO DUP1 ISZERO PUSH2 0xB2E JUMPI RETURNDATASIZE PUSH1 0x0 DUP1 RETURNDATACOPY RETURNDATASIZE PUSH1 0x0 REVERT JUMPDEST POP POP POP POP PUSH1 0x40 MLOAD RETURNDATASIZE PUSH1 0x1F NOT PUSH1 0x1F DUP3 ADD AND DUP3 ADD DUP1 PUSH1 0x40 MSTORE POP DUP2 ADD SWAP1 PUSH2 0xB52 SWAP2 SWAP1 PUSH2 0x15DF JUMP JUMPDEST DUP5 DUP7 DUP2 MLOAD DUP2 LT PUSH2 0xB72 JUMPI PUSH4 0x4E487B71 PUSH1 0xE0 SHL PUSH1 0x0 MSTORE PUSH1 0x32 PUSH1 0x4 MSTORE PUSH1 0x24 PUSH1 0x0 REVERT JUMPDEST PUSH1 0x20 SWAP1 DUP2 MUL SWAP2 SWAP1 SWAP2 ADD ADD MLOAD PUSH1 0x60 ADD MSTORE PUSH2 0xB8C PUSH1 0x1 DUP7 PUSH2 0x18D9 JUMP JUMPDEST SWAP5 POP POP POP DUP1 DUP1 PUSH2 0xB9B SWAP1 PUSH2 0x19B2 JUMP JUMPDEST SWAP2 POP POP PUSH2 0x919 JUMP JUMPDEST POP SWAP4 SWAP3 POP POP POP JUMP JUMPDEST PUSH1 0x1 SLOAD PUSH1 0x1 PUSH1 0x1 PUSH1 0xA0 SHL SUB AND CALLER EQ PUSH2 0xBFD JUMPI PUSH1 0x40 MLOAD PUSH3 0x461BCD PUSH1 0xE5 SHL DUP2 MSTORE PUSH1 0x20 PUSH1 0x4 DUP3 ADD MSTORE PUSH1 0x15 PUSH1 0x24 DUP3 ADD MSTORE PUSH21 0x6F6E6C79206F776E65722063616E20757064617465 PUSH1 0x58 SHL PUSH1 0x44 DUP3 ADD MSTORE PUSH1 0x64 ADD PUSH2 0x3BB JUMP JUMPDEST PUSH1 0x0 DUP3 DUP2 MSTORE PUSH1 0x20 DUP2 DUP2 MSTORE PUSH1 0x40 SWAP2 DUP3 SWAP1 KECCAK256 DUP1 SLOAD PUSH1 0x1 PUSH1 0x1 PUSH1 0xA0 SHL SUB NOT AND PUSH1 0x1 PUSH1 0x1 PUSH1 0xA0 SHL SUB DUP6 AND SWAP1 DUP2 OR SWAP1 SWAP2 SSTORE DUP3 MLOAD DUP6 DUP2 MSTORE SWAP2 DUP3 ADD MSTORE PUSH32 0x88A93678A3692F6789D9546FC621BF7234B101DDB7D4FE479455112831B8AA68 SWAP2 ADD PUSH1 0x40 MLOAD DUP1 SWAP2 SUB SWAP1 LOG1 POP POP JUMP JUMPDEST DUP1 SLOAD PUSH1 0x1 ADD SWAP1 SSTORE JUMP JUMPDEST PUSH1 0x0 PUSH1 0x6 DUP3 PUSH1 0x40 MLOAD PUSH2 0xC7C SWAP2 SWAP1 PUSH2 0x16CD JUMP JUMPDEST SWAP1 DUP2 MSTORE PUSH1 0x40 MLOAD SWAP1 DUP2 SWAP1 SUB PUSH1 0x20 ADD SWAP1 KECCAK256 SLOAD PUSH1 0x1 PUSH1 0x1 PUSH1 0xA0 SHL SUB AND SWAP3 SWAP2 POP POP JUMP JUMPDEST PUSH1 0x40 MLOAD PUSH4 0x70A08231 PUSH1 0xE0 SHL DUP2 MSTORE PUSH1 0x1 PUSH1 0x1 PUSH1 0xA0 SHL SUB DUP5 DUP2 AND PUSH1 0x4 DUP4 ADD MSTORE DUP3 SWAP2 SWAP1 DUP5 AND SWAP1 PUSH4 0x70A08231 SWAP1 PUSH1 0x24 ADD PUSH1 0x20 PUSH1 0x40 MLOAD DUP1 DUP4 SUB DUP2 DUP7 DUP1 EXTCODESIZE ISZERO DUP1 ISZERO PUSH2 0xCDF JUMPI PUSH1 0x0 DUP1 REVERT JUMPDEST POP GAS STATICCALL ISZERO DUP1 ISZERO PUSH2 0xCF3 JUMPI RETURNDATASIZE PUSH1 0x0 DUP1 RETURNDATACOPY RETURNDATASIZE PUSH1 0x0 REVERT JUMPDEST POP POP POP POP PUSH1 0x40 MLOAD RETURNDATASIZE PUSH1 0x1F NOT PUSH1 0x1F DUP3 ADD AND DUP3 ADD DUP1 PUSH1 0x40 MSTORE POP DUP2 ADD SWAP1 PUSH2 0xD17 SWAP2 SWAP1 PUSH2 0x15DF JUMP JUMPDEST LT ISZERO PUSH2 0xD79 JUMPI PUSH1 0x40 MLOAD PUSH3 0x461BCD PUSH1 0xE5 SHL DUP2 MSTORE PUSH1 0x20 PUSH1 0x4 DUP3 ADD MSTORE PUSH1 0x2B PUSH1 0x24 DUP3 ADD MSTORE PUSH32 0x5852433230476174657761793A20696E73756666696369656E74206375727265 PUSH1 0x44 DUP3 ADD MSTORE PUSH11 0x6E63792062616C616E6365 PUSH1 0xA8 SHL PUSH1 0x64 DUP3 ADD MSTORE PUSH1 0x84 ADD PUSH2 0x3BB JUMP JUMPDEST POP POP POP JUMP JUMPDEST PUSH1 0x40 MLOAD PUSH4 0x6EB1769F PUSH1 0xE1 SHL DUP2 MSTORE PUSH1 0x1 PUSH1 0x1 PUSH1 0xA0 SHL SUB DUP5 DUP2 AND PUSH1 0x4 DUP4 ADD MSTORE ADDRESS PUSH1 0x24 DUP4 ADD MSTORE DUP3 SWAP2 SWAP1 DUP5 AND SWAP1 PUSH4 0xDD62ED3E SWAP1 PUSH1 0x44 ADD PUSH1 0x20 PUSH1 0x40 MLOAD DUP1 DUP4 SUB DUP2 DUP7 DUP1 EXTCODESIZE ISZERO DUP1 ISZERO PUSH2 0xDC8 JUMPI PUSH1 0x0 DUP1 REVERT JUMPDEST POP GAS STATICCALL ISZERO DUP1 ISZERO PUSH2 0xDDC JUMPI RETURNDATASIZE PUSH1 0x0 DUP1 RETURNDATACOPY RETURNDATASIZE PUSH1 0x0 REVERT JUMPDEST POP POP POP POP PUSH1 0x40 MLOAD RETURNDATASIZE PUSH1 0x1F NOT PUSH1 0x1F DUP3 ADD AND DUP3 ADD DUP1 PUSH1 0x40 MSTORE POP DUP2 ADD SWAP1 PUSH2 0xE00 SWAP2 SWAP1 PUSH2 0x15DF JUMP JUMPDEST LT ISZERO PUSH2 0xD79 JUMPI PUSH1 0x40 MLOAD PUSH3 0x461BCD PUSH1 0xE5 SHL DUP2 MSTORE PUSH1 0x20 PUSH1 0x4 DUP3 ADD MSTORE PUSH1 0x25 PUSH1 0x24 DUP3 ADD MSTORE PUSH32 0x5852433230476174657761793A20696E73756666696369656E7420616C6C6F77 PUSH1 0x44 DUP3 ADD MSTORE PUSH5 0x30B731B297 PUSH1 0xD9 SHL PUSH1 0x64 DUP3 ADD MSTORE PUSH1 0x84 ADD PUSH2 0x3BB JUMP JUMPDEST PUSH1 0x40 MLOAD PUSH4 0x23B872DD PUSH1 0xE0 SHL DUP2 MSTORE CALLER PUSH1 0x4 DUP3 ADD MSTORE ADDRESS PUSH1 0x24 DUP3 ADD MSTORE PUSH1 0x44 DUP2 ADD DUP4 SWAP1 MSTORE PUSH1 0x1 PUSH1 0x1 PUSH1 0xA0 SHL SUB DUP3 AND SWAP1 PUSH4 0x23B872DD SWAP1 PUSH1 0x64 ADD PUSH1 0x20 PUSH1 0x40 MLOAD DUP1 DUP4 SUB DUP2 PUSH1 0x0 DUP8 DUP1 EXTCODESIZE ISZERO DUP1 ISZERO PUSH2 0xEAA JUMPI PUSH1 0x0 DUP1 REVERT JUMPDEST POP GAS CALL ISZERO DUP1 ISZERO PUSH2 0xEBE JUMPI RETURNDATASIZE PUSH1 0x0 DUP1 RETURNDATACOPY RETURNDATASIZE PUSH1 0x0 REVERT JUMPDEST POP POP POP POP PUSH1 0x40 MLOAD RETURNDATASIZE PUSH1 0x1F NOT PUSH1 0x1F DUP3 ADD AND DUP3 ADD DUP1 PUSH1 0x40 MSTORE POP DUP2 ADD SWAP1 PUSH2 0xD79 SWAP2 SWAP1 PUSH2 0x14D0 JUMP JUMPDEST CALLER PUSH1 0x0 SWAP1 DUP2 MSTORE PUSH1 0x8 PUSH1 0x20 MSTORE PUSH1 0x40 DUP1 DUP3 KECCAK256 SWAP1 MLOAD DUP3 SWAP2 SWAP1 PUSH2 0xF02 SWAP1 DUP7 SWAP1 PUSH2 0x16CD JUMP JUMPDEST SWAP1 DUP2 MSTORE PUSH1 0x40 DUP1 MLOAD PUSH1 0x20 SWAP3 DUP2 SWAP1 SUB DUP4 ADD DUP2 KECCAK256 PUSH1 0xA0 DUP3 ADD DUP4 MSTORE DUP1 SLOAD PUSH1 0x1 PUSH1 0x1 PUSH1 0xA0 SHL SUB SWAP1 DUP2 AND DUP4 MSTORE PUSH1 0x1 DUP3 ADD SLOAD SWAP5 DUP4 ADD DUP6 SWAP1 MSTORE PUSH1 0x2 DUP3 ADD SLOAD SWAP4 DUP4 ADD SWAP4 SWAP1 SWAP4 MSTORE PUSH1 0x3 DUP2 ADD SLOAD SWAP1 SWAP3 AND PUSH1 0x60 DUP3 ADD MSTORE PUSH1 0x4 SWAP1 SWAP2 ADD SLOAD PUSH1 0x80 DUP3 ADD MSTORE SWAP2 POP PUSH1 0x0 SWAP1 PUSH2 0xF66 SWAP1 DUP9 PUSH2 0x1267 JUMP JUMPDEST SWAP1 POP PUSH1 0x0 PUSH2 0xF81 DUP10 DUP5 PUSH1 0x40 ADD MLOAD PUSH2 0x1267 SWAP1 SWAP2 SWAP1 PUSH4 0xFFFFFFFF AND JUMP JUMPDEST PUSH1 0x40 DUP1 MLOAD PUSH1 0xA0 DUP2 ADD DUP3 MSTORE CALLER DUP1 DUP3 MSTORE PUSH1 0x20 DUP1 DUP4 ADD DUP8 SWAP1 MSTORE DUP3 DUP5 ADD DUP6 SWAP1 MSTORE PUSH1 0x1 PUSH1 0x1 PUSH1 0xA0 SHL SUB DUP13 AND PUSH1 0x60 DUP5 ADD MSTORE TIMESTAMP PUSH1 0x80 DUP5 ADD MSTORE PUSH1 0x0 SWAP2 DUP3 MSTORE PUSH1 0x8 SWAP1 MSTORE DUP3 SWAP1 KECCAK256 SWAP2 MLOAD SWAP3 SWAP4 POP SWAP2 PUSH2 0xFCF SWAP1 DUP10 SWAP1 PUSH2 0x16CD JUMP JUMPDEST SWAP1 DUP2 MSTORE PUSH1 0x40 DUP1 MLOAD PUSH1 0x20 SWAP3 DUP2 SWAP1 SUB DUP4 ADD SWAP1 KECCAK256 DUP4 MLOAD DUP2 SLOAD PUSH1 0x1 PUSH1 0x1 PUSH1 0xA0 SHL SUB NOT SWAP1 DUP2 AND PUSH1 0x1 PUSH1 0x1 PUSH1 0xA0 SHL SUB SWAP3 DUP4 AND OR DUP4 SSTORE SWAP4 DUP6 ADD MLOAD PUSH1 0x1 DUP4 ADD SSTORE SWAP2 DUP5 ADD MLOAD PUSH1 0x2 DUP3 ADD SSTORE PUSH1 0x60 DUP5 ADD MLOAD PUSH1 0x3 DUP3 ADD DUP1 SLOAD SWAP1 SWAP5 AND SWAP3 AND SWAP2 SWAP1 SWAP2 OR SWAP1 SWAP2 SSTORE PUSH1 0x80 SWAP1 SWAP2 ADD MLOAD PUSH1 0x4 SWAP1 SWAP2 ADD SSTORE PUSH2 0x103C DUP7 PUSH2 0xC6A JUMP JUMPDEST PUSH1 0x40 MLOAD PUSH4 0x40C10F19 PUSH1 0xE0 SHL DUP2 MSTORE CALLER PUSH1 0x4 DUP3 ADD MSTORE PUSH1 0x24 DUP2 ADD DUP12 SWAP1 MSTORE PUSH1 0x1 PUSH1 0x1 PUSH1 0xA0 SHL SUB SWAP2 SWAP1 SWAP2 AND SWAP1 PUSH4 0x40C10F19 SWAP1 PUSH1 0x44 ADD PUSH1 0x20 PUSH1 0x40 MLOAD DUP1 DUP4 SUB DUP2 PUSH1 0x0 DUP8 DUP1 EXTCODESIZE ISZERO DUP1 ISZERO PUSH2 0x1086 JUMPI PUSH1 0x0 DUP1 REVERT JUMPDEST POP GAS CALL ISZERO DUP1 ISZERO PUSH2 0x109A JUMPI RETURNDATASIZE PUSH1 0x0 DUP1 RETURNDATACOPY RETURNDATASIZE PUSH1 0x0 REVERT JUMPDEST POP POP POP POP PUSH1 0x40 MLOAD RETURNDATASIZE PUSH1 0x1F NOT PUSH1 0x1F DUP3 ADD AND DUP3 ADD DUP1 PUSH1 0x40 MSTORE POP DUP2 ADD SWAP1 PUSH2 0x10BE SWAP2 SWAP1 PUSH2 0x14D0 JUMP JUMPDEST POP PUSH32 0x47100F00640AE8015934184E269BA71E299D3B1202B74F06CB441584803CBD6D CALLER DUP10 DUP12 DUP9 PUSH1 0x40 MLOAD PUSH2 0x10F4 SWAP5 SWAP4 SWAP3 SWAP2 SWAP1 PUSH2 0x16E9 JUMP JUMPDEST PUSH1 0x40 MLOAD DUP1 SWAP2 SUB SWAP1 LOG1 POP SWAP7 SWAP8 SWAP7 POP POP POP POP POP POP POP JUMP JUMPDEST PUSH1 0x0 PUSH1 0x6 PUSH1 0x40 MLOAD DUP1 PUSH1 0x40 ADD PUSH1 0x40 MSTORE DUP1 PUSH1 0xC DUP2 MSTORE PUSH1 0x20 ADD PUSH12 0x45584348414E474552415445 PUSH1 0xA0 SHL DUP2 MSTORE POP PUSH1 0x40 MLOAD PUSH2 0x113F SWAP2 SWAP1 PUSH2 0x16CD JUMP JUMPDEST SWAP1 DUP2 MSTORE PUSH1 0x40 MLOAD SWAP1 DUP2 SWAP1 SUB PUSH1 0x20 ADD SWAP1 KECCAK256 SLOAD PUSH1 0x1 PUSH1 0x1 PUSH1 0xA0 SHL SUB AND SWAP2 SWAP1 POP JUMP JUMPDEST PUSH1 0x0 PUSH2 0x119F DUP4 DUP4 PUSH1 0x40 MLOAD DUP1 PUSH1 0x40 ADD PUSH1 0x40 MSTORE DUP1 PUSH1 0x1A DUP2 MSTORE PUSH1 0x20 ADD PUSH32 0x536166654D6174683A206469766973696F6E206279207A65726F000000000000 DUP2 MSTORE POP PUSH2 0x12C6 JUMP JUMPDEST SWAP4 SWAP3 POP POP POP JUMP JUMPDEST PUSH1 0x0 DUP3 PUSH2 0x11B5 JUMPI POP PUSH1 0x0 PUSH2 0x5CD JUMP JUMPDEST PUSH1 0x0 PUSH2 0x11C1 DUP4 DUP6 PUSH2 0x1911 JUMP JUMPDEST SWAP1 POP DUP3 PUSH2 0x11CE DUP6 DUP4 PUSH2 0x18F1 JUMP JUMPDEST EQ PUSH2 0x119F JUMPI PUSH1 0x40 MLOAD PUSH3 0x461BCD PUSH1 0xE5 SHL DUP2 MSTORE PUSH1 0x20 PUSH1 0x4 DUP3 ADD MSTORE PUSH1 0x21 PUSH1 0x24 DUP3 ADD MSTORE PUSH32 0x536166654D6174683A206D756C7469706C69636174696F6E206F766572666C6F PUSH1 0x44 DUP3 ADD MSTORE PUSH1 0x77 PUSH1 0xF8 SHL PUSH1 0x64 DUP3 ADD MSTORE PUSH1 0x84 ADD PUSH2 0x3BB JUMP JUMPDEST PUSH1 0x0 PUSH2 0x119F DUP4 DUP4 PUSH1 0x40 MLOAD DUP1 PUSH1 0x40 ADD PUSH1 0x40 MSTORE DUP1 PUSH1 0x1E DUP2 MSTORE PUSH1 0x20 ADD PUSH32 0x536166654D6174683A207375627472616374696F6E206F766572666C6F770000 DUP2 MSTORE POP PUSH2 0x12FD JUMP JUMPDEST PUSH1 0x0 DUP1 PUSH2 0x1274 DUP4 DUP6 PUSH2 0x18D9 JUMP JUMPDEST SWAP1 POP DUP4 DUP2 LT ISZERO PUSH2 0x119F JUMPI PUSH1 0x40 MLOAD PUSH3 0x461BCD PUSH1 0xE5 SHL DUP2 MSTORE PUSH1 0x20 PUSH1 0x4 DUP3 ADD MSTORE PUSH1 0x1B PUSH1 0x24 DUP3 ADD MSTORE PUSH32 0x536166654D6174683A206164646974696F6E206F766572666C6F770000000000 PUSH1 0x44 DUP3 ADD MSTORE PUSH1 0x64 ADD PUSH2 0x3BB JUMP JUMPDEST PUSH1 0x0 DUP2 DUP4 PUSH2 0x12E7 JUMPI PUSH1 0x40 MLOAD PUSH3 0x461BCD PUSH1 0xE5 SHL DUP2 MSTORE PUSH1 0x4 ADD PUSH2 0x3BB SWAP2 SWAP1 PUSH2 0x17C3 JUMP JUMPDEST POP PUSH1 0x0 PUSH2 0x12F4 DUP5 DUP7 PUSH2 0x18F1 JUMP JUMPDEST SWAP6 SWAP5 POP POP POP POP POP JUMP JUMPDEST PUSH1 0x0 DUP2 DUP5 DUP5 GT ISZERO PUSH2 0x1321 JUMPI PUSH1 0x40 MLOAD PUSH3 0x461BCD PUSH1 0xE5 SHL DUP2 MSTORE PUSH1 0x4 ADD PUSH2 0x3BB SWAP2 SWAP1 PUSH2 0x17C3 JUMP JUMPDEST POP PUSH1 0x0 PUSH2 0x12F4 DUP5 DUP7 PUSH2 0x1930 JUMP JUMPDEST DUP3 DUP1 SLOAD PUSH2 0x133A SWAP1 PUSH2 0x1977 JUMP JUMPDEST SWAP1 PUSH1 0x0 MSTORE PUSH1 0x20 PUSH1 0x0 KECCAK256 SWAP1 PUSH1 0x1F ADD PUSH1 0x20 SWAP1 DIV DUP2 ADD SWAP3 DUP3 PUSH2 0x135C JUMPI PUSH1 0x0 DUP6 SSTORE PUSH2 0x13A2 JUMP JUMPDEST DUP3 PUSH1 0x1F LT PUSH2 0x1375 JUMPI DUP1 MLOAD PUSH1 0xFF NOT AND DUP4 DUP1 ADD OR DUP6 SSTORE PUSH2 0x13A2 JUMP JUMPDEST DUP3 DUP1 ADD PUSH1 0x1 ADD DUP6 SSTORE DUP3 ISZERO PUSH2 0x13A2 JUMPI SWAP2 DUP3 ADD JUMPDEST DUP3 DUP2 GT ISZERO PUSH2 0x13A2 JUMPI DUP3 MLOAD DUP3 SSTORE SWAP2 PUSH1 0x20 ADD SWAP2 SWAP1 PUSH1 0x1 ADD SWAP1 PUSH2 0x1387 JUMP JUMPDEST POP PUSH2 0x13AE SWAP3 SWAP2 POP PUSH2 0x13B2 JUMP JUMPDEST POP SWAP1 JUMP JUMPDEST JUMPDEST DUP1 DUP3 GT ISZERO PUSH2 0x13AE JUMPI PUSH1 0x0 DUP2 SSTORE PUSH1 0x1 ADD PUSH2 0x13B3 JUMP JUMPDEST DUP1 CALLDATALOAD PUSH1 0x1 PUSH1 0x1 PUSH1 0xA0 SHL SUB DUP2 AND DUP2 EQ PUSH2 0x13DE JUMPI PUSH1 0x0 DUP1 REVERT JUMPDEST SWAP2 SWAP1 POP JUMP JUMPDEST PUSH1 0x0 DUP3 PUSH1 0x1F DUP4 ADD SLT PUSH2 0x13F3 JUMPI DUP1 DUP2 REVERT JUMPDEST DUP2 CALLDATALOAD PUSH8 0xFFFFFFFFFFFFFFFF DUP1 DUP3 GT ISZERO PUSH2 0x140E JUMPI PUSH2 0x140E PUSH2 0x19E3 JUMP JUMPDEST PUSH1 0x40 MLOAD PUSH1 0x1F DUP4 ADD PUSH1 0x1F NOT SWAP1 DUP2 AND PUSH1 0x3F ADD AND DUP2 ADD SWAP1 DUP3 DUP3 GT DUP2 DUP4 LT OR ISZERO PUSH2 0x1436 JUMPI PUSH2 0x1436 PUSH2 0x19E3 JUMP JUMPDEST DUP2 PUSH1 0x40 MSTORE DUP4 DUP2 MSTORE DUP7 PUSH1 0x20 DUP6 DUP9 ADD ADD GT ISZERO PUSH2 0x144E JUMPI DUP5 DUP6 REVERT JUMPDEST DUP4 PUSH1 0x20 DUP8 ADD PUSH1 0x20 DUP4 ADD CALLDATACOPY SWAP3 DUP4 ADD PUSH1 0x20 ADD SWAP4 SWAP1 SWAP4 MSTORE POP SWAP4 SWAP3 POP POP POP JUMP JUMPDEST PUSH1 0x0 PUSH1 0x20 DUP3 DUP5 SUB SLT ISZERO PUSH2 0x147B JUMPI DUP1 DUP2 REVERT JUMPDEST PUSH2 0x119F DUP3 PUSH2 0x13C7 JUMP JUMPDEST PUSH1 0x0 DUP1 PUSH1 0x40 DUP4 DUP6 SUB SLT ISZERO PUSH2 0x1496 JUMPI DUP1 DUP2 REVERT JUMPDEST PUSH2 0x149F DUP4 PUSH2 0x13C7 JUMP JUMPDEST SWAP2 POP PUSH1 0x20 DUP4 ADD CALLDATALOAD PUSH8 0xFFFFFFFFFFFFFFFF DUP2 GT ISZERO PUSH2 0x14BA JUMPI DUP2 DUP3 REVERT JUMPDEST PUSH2 0x14C6 DUP6 DUP3 DUP7 ADD PUSH2 0x13E3 JUMP JUMPDEST SWAP2 POP POP SWAP3 POP SWAP3 SWAP1 POP JUMP JUMPDEST PUSH1 0x0 PUSH1 0x20 DUP3 DUP5 SUB SLT ISZERO PUSH2 0x14E1 JUMPI DUP1 DUP2 REVERT JUMPDEST DUP2 MLOAD DUP1 ISZERO ISZERO DUP2 EQ PUSH2 0x119F JUMPI DUP2 DUP3 REVERT JUMPDEST PUSH1 0x0 PUSH1 0x20 DUP3 DUP5 SUB SLT ISZERO PUSH2 0x1501 JUMPI DUP1 DUP2 REVERT JUMPDEST POP CALLDATALOAD SWAP2 SWAP1 POP JUMP JUMPDEST PUSH1 0x0 DUP1 PUSH1 0x40 DUP4 DUP6 SUB SLT ISZERO PUSH2 0x151A JUMPI DUP2 DUP3 REVERT JUMPDEST DUP3 CALLDATALOAD SWAP2 POP PUSH2 0x152A PUSH1 0x20 DUP5 ADD PUSH2 0x13C7 JUMP JUMPDEST SWAP1 POP SWAP3 POP SWAP3 SWAP1 POP JUMP JUMPDEST PUSH1 0x0 PUSH1 0x20 DUP3 DUP5 SUB SLT ISZERO PUSH2 0x1544 JUMPI DUP1 DUP2 REVERT JUMPDEST DUP2 CALLDATALOAD PUSH8 0xFFFFFFFFFFFFFFFF DUP2 GT ISZERO PUSH2 0x155A JUMPI DUP2 DUP3 REVERT JUMPDEST PUSH2 0x1566 DUP5 DUP3 DUP6 ADD PUSH2 0x13E3 JUMP JUMPDEST SWAP5 SWAP4 POP POP POP POP JUMP JUMPDEST PUSH1 0x0 DUP1 PUSH1 0x0 PUSH1 0x60 DUP5 DUP7 SUB SLT ISZERO PUSH2 0x1582 JUMPI DUP1 DUP2 REVERT JUMPDEST DUP4 CALLDATALOAD PUSH8 0xFFFFFFFFFFFFFFFF DUP1 DUP3 GT ISZERO PUSH2 0x1599 JUMPI DUP3 DUP4 REVERT JUMPDEST PUSH2 0x15A5 DUP8 DUP4 DUP9 ADD PUSH2 0x13E3 JUMP JUMPDEST SWAP5 POP PUSH1 0x20 DUP7 ADD CALLDATALOAD SWAP2 POP DUP1 DUP3 GT ISZERO PUSH2 0x15BA JUMPI DUP3 DUP4 REVERT JUMPDEST POP PUSH2 0x15C7 DUP7 DUP3 DUP8 ADD PUSH2 0x13E3 JUMP JUMPDEST SWAP3 POP POP PUSH2 0x15D6 PUSH1 0x40 DUP6 ADD PUSH2 0x13C7 JUMP JUMPDEST SWAP1 POP SWAP3 POP SWAP3 POP SWAP3 JUMP JUMPDEST PUSH1 0x0 PUSH1 0x20 DUP3 DUP5 SUB SLT ISZERO PUSH2 0x15F0 JUMPI DUP1 DUP2 REVERT JUMPDEST POP MLOAD SWAP2 SWAP1 POP JUMP JUMPDEST PUSH1 0x0 DUP1 PUSH1 0x0 DUP1 PUSH1 0x80 DUP6 DUP8 SUB SLT ISZERO PUSH2 0x160C JUMPI DUP1 DUP2 REVERT JUMPDEST DUP5 CALLDATALOAD SWAP4 POP PUSH2 0x161C PUSH1 0x20 DUP7 ADD PUSH2 0x13C7 JUMP JUMPDEST SWAP3 POP PUSH1 0x40 DUP6 ADD CALLDATALOAD PUSH8 0xFFFFFFFFFFFFFFFF DUP1 DUP3 GT ISZERO PUSH2 0x1638 JUMPI DUP3 DUP4 REVERT JUMPDEST PUSH2 0x1644 DUP9 DUP4 DUP10 ADD PUSH2 0x13E3 JUMP JUMPDEST SWAP4 POP PUSH1 0x60 DUP8 ADD CALLDATALOAD SWAP2 POP DUP1 DUP3 GT ISZERO PUSH2 0x1659 JUMPI DUP3 DUP4 REVERT JUMPDEST POP PUSH2 0x1666 DUP8 DUP3 DUP9 ADD PUSH2 0x13E3 JUMP JUMPDEST SWAP2 POP POP SWAP3 SWAP6 SWAP2 SWAP5 POP SWAP3 POP JUMP JUMPDEST PUSH1 0x0 DUP1 PUSH1 0x40 DUP4 DUP6 SUB SLT ISZERO PUSH2 0x1684 JUMPI DUP2 DUP3 REVERT JUMPDEST DUP3 CALLDATALOAD SWAP2 POP PUSH1 0x20 DUP4 ADD CALLDATALOAD PUSH8 0xFFFFFFFFFFFFFFFF DUP2 GT ISZERO PUSH2 0x14BA JUMPI DUP2 DUP3 REVERT JUMPDEST PUSH1 0x0 DUP2 MLOAD DUP1 DUP5 MSTORE PUSH2 0x16B9 DUP2 PUSH1 0x20 DUP7 ADD PUSH1 0x20 DUP7 ADD PUSH2 0x1947 JUMP JUMPDEST PUSH1 0x1F ADD PUSH1 0x1F NOT AND SWAP3 SWAP1 SWAP3 ADD PUSH1 0x20 ADD SWAP3 SWAP2 POP POP JUMP JUMPDEST PUSH1 0x0 DUP3 MLOAD PUSH2 0x16DF DUP2 DUP5 PUSH1 0x20 DUP8 ADD PUSH2 0x1947 JUMP JUMPDEST SWAP2 SWAP1 SWAP2 ADD SWAP3 SWAP2 POP POP JUMP JUMPDEST PUSH1 0x1 DUP1 PUSH1 0xA0 SHL SUB DUP6 AND DUP2 MSTORE DUP4 PUSH1 0x20 DUP3 ADD MSTORE DUP3 PUSH1 0x40 DUP3 ADD MSTORE PUSH1 0x80 PUSH1 0x60 DUP3 ADD MSTORE PUSH1 0x0 PUSH2 0x7B5 PUSH1 0x80 DUP4 ADD DUP5 PUSH2 0x16A1 JUMP JUMPDEST PUSH1 0x0 PUSH1 0x20 DUP1 DUP4 ADD DUP2 DUP5 MSTORE DUP1 DUP6 MLOAD DUP1 DUP4 MSTORE PUSH1 0x40 SWAP3 POP DUP3 DUP7 ADD SWAP2 POP DUP3 DUP2 PUSH1 0x5 SHL DUP8 ADD ADD DUP5 DUP9 ADD DUP7 JUMPDEST DUP4 DUP2 LT ISZERO PUSH2 0x17B5 JUMPI PUSH1 0x3F NOT DUP10 DUP5 SUB ADD DUP6 MSTORE DUP2 MLOAD PUSH1 0xA0 DUP2 MLOAD DUP6 MSTORE DUP9 DUP3 ADD MLOAD DUP2 DUP11 DUP8 ADD MSTORE PUSH2 0x176A DUP3 DUP8 ADD DUP3 PUSH2 0x16A1 JUMP JUMPDEST SWAP2 POP POP DUP8 DUP3 ADD MLOAD DUP6 DUP3 SUB DUP10 DUP8 ADD MSTORE PUSH2 0x1782 DUP3 DUP3 PUSH2 0x16A1 JUMP JUMPDEST PUSH1 0x60 DUP5 DUP2 ADD MLOAD SWAP1 DUP9 ADD MSTORE PUSH1 0x80 SWAP4 DUP5 ADD MLOAD PUSH1 0x1 PUSH1 0x1 PUSH1 0xA0 SHL SUB AND SWAP4 SWAP1 SWAP7 ADD SWAP3 SWAP1 SWAP3 MSTORE POP POP SWAP4 DUP7 ADD SWAP4 SWAP1 DUP7 ADD SWAP1 PUSH1 0x1 ADD PUSH2 0x173C JUMP JUMPDEST POP SWAP1 SWAP9 SWAP8 POP POP POP POP POP POP POP POP JUMP JUMPDEST PUSH1 0x20 DUP2 MSTORE PUSH1 0x0 PUSH2 0x119F PUSH1 0x20 DUP4 ADD DUP5 PUSH2 0x16A1 JUMP JUMPDEST PUSH1 0x0 PUSH1 0x20 DUP1 DUP4 MSTORE DUP2 DUP5 SLOAD DUP4 PUSH1 0x1 DUP3 DUP2 SHR SWAP2 POP DUP1 DUP4 AND DUP1 PUSH2 0x17F7 JUMPI PUSH1 0x7F DUP4 AND SWAP3 POP JUMPDEST DUP6 DUP4 LT DUP2 EQ ISZERO PUSH2 0x1815 JUMPI PUSH4 0x4E487B71 PUSH1 0xE0 SHL DUP8 MSTORE PUSH1 0x22 PUSH1 0x4 MSTORE PUSH1 0x24 DUP8 REVERT JUMPDEST DUP8 DUP7 ADD DUP4 DUP2 MSTORE PUSH1 0x20 ADD DUP2 DUP1 ISZERO PUSH2 0x1832 JUMPI PUSH1 0x1 DUP2 EQ PUSH2 0x1843 JUMPI PUSH2 0x186D JUMP JUMPDEST PUSH1 0xFF NOT DUP7 AND DUP3 MSTORE DUP8 DUP3 ADD SWAP7 POP PUSH2 0x186D JUMP JUMPDEST PUSH1 0x0 DUP12 DUP2 MSTORE PUSH1 0x20 SWAP1 KECCAK256 DUP10 JUMPDEST DUP7 DUP2 LT ISZERO PUSH2 0x1867 JUMPI DUP2 SLOAD DUP5 DUP3 ADD MSTORE SWAP1 DUP6 ADD SWAP1 DUP10 ADD PUSH2 0x184E JUMP JUMPDEST DUP4 ADD SWAP8 POP POP JUMPDEST POP SWAP5 SWAP10 SWAP9 POP POP POP POP POP POP POP POP POP JUMP JUMPDEST PUSH1 0x20 DUP1 DUP3 MSTORE PUSH1 0x3E SWAP1 DUP3 ADD MSTORE PUSH32 0x5853796E45786368616E67653A204F6E6C7920417574686F72697A6564205761 PUSH1 0x40 DUP3 ADD MSTORE PUSH32 0x6C6C65742063616E20706572666F722074686973206F7065726174696F6E0000 PUSH1 0x60 DUP3 ADD MSTORE PUSH1 0x80 ADD SWAP1 JUMP JUMPDEST PUSH1 0x0 DUP3 NOT DUP3 GT ISZERO PUSH2 0x18EC JUMPI PUSH2 0x18EC PUSH2 0x19CD JUMP JUMPDEST POP ADD SWAP1 JUMP JUMPDEST PUSH1 0x0 DUP3 PUSH2 0x190C JUMPI PUSH4 0x4E487B71 PUSH1 0xE0 SHL DUP2 MSTORE PUSH1 0x12 PUSH1 0x4 MSTORE PUSH1 0x24 DUP2 REVERT JUMPDEST POP DIV SWAP1 JUMP JUMPDEST PUSH1 0x0 DUP2 PUSH1 0x0 NOT DIV DUP4 GT DUP3 ISZERO ISZERO AND ISZERO PUSH2 0x192B JUMPI PUSH2 0x192B PUSH2 0x19CD JUMP JUMPDEST POP MUL SWAP1 JUMP JUMPDEST PUSH1 0x0 DUP3 DUP3 LT ISZERO PUSH2 0x1942 JUMPI PUSH2 0x1942 PUSH2 0x19CD JUMP JUMPDEST POP SUB SWAP1 JUMP JUMPDEST PUSH1 0x0 JUMPDEST DUP4 DUP2 LT ISZERO PUSH2 0x1962 JUMPI DUP2 DUP2 ADD MLOAD DUP4 DUP3 ADD MSTORE PUSH1 0x20 ADD PUSH2 0x194A JUMP JUMPDEST DUP4 DUP2 GT ISZERO PUSH2 0x1971 JUMPI PUSH1 0x0 DUP5 DUP5 ADD MSTORE JUMPDEST POP POP POP POP JUMP JUMPDEST PUSH1 0x1 DUP2 DUP2 SHR SWAP1 DUP3 AND DUP1 PUSH2 0x198B JUMPI PUSH1 0x7F DUP3 AND SWAP2 POP JUMPDEST PUSH1 0x20 DUP3 LT DUP2 EQ ISZERO PUSH2 0x19AC JUMPI PUSH4 0x4E487B71 PUSH1 0xE0 SHL PUSH1 0x0 MSTORE PUSH1 0x22 PUSH1 0x4 MSTORE PUSH1 0x24 PUSH1 0x0 REVERT JUMPDEST POP SWAP2 SWAP1 POP JUMP JUMPDEST PUSH1 0x0 PUSH1 0x0 NOT DUP3 EQ ISZERO PUSH2 0x19C6 JUMPI PUSH2 0x19C6 PUSH2 0x19CD JUMP JUMPDEST POP PUSH1 0x1 ADD SWAP1 JUMP JUMPDEST PUSH4 0x4E487B71 PUSH1 0xE0 SHL PUSH1 0x0 MSTORE PUSH1 0x11 PUSH1 0x4 MSTORE PUSH1 0x24 PUSH1 0x0 REVERT JUMPDEST PUSH4 0x4E487B71 PUSH1 0xE0 SHL PUSH1 0x0 MSTORE PUSH1 0x41 PUSH1 0x4 MSTORE PUSH1 0x24 PUSH1 0x0 REVERT INVALID LOG2 PUSH5 0x6970667358 0x22 SLT KECCAK256 PUSH8 0xDD95431876D92514 LOG0 DUP1 DUP14 0xED JUMPI CALLER DIFFICULTY MUL PUSH18 0xBCFC7AC9176D5C5AE570FAD22C2864736F6C PUSH4 0x43000804 STOP CALLER "
        },
        "methodIdentifiers": {
          "CONTRACTNAME()": "f1875744",
          "CONTRACT_NAME()": "614d08f8",
          "_owner()": "b2bdfa7b",
          "addressCache(bytes32)": "dc675a65",
          "calculateUnits(uint256,string)": "aeb5ff37",
          "contractOwner()": "ce606ee0",
          "exchangeXDUSDForSynths(uint256,address,string,string)": "9671e280",
          "exchanges(address,string)": "2ebb547f",
          "fetchAddress(bytes32)": "c2e7df21",
          "fetchPrices()": "c5460d84",
          "minimumXDUSDDepositAmount()": "0307e5f3",
          "mintr(address)": "d6ea7b3b",
          "requireAndGetAddress(bytes32)": "46bcb49d",
          "setMinDepositForXDUSD(uint256)": "88a842eb",
          "showBalances(string)": "888e3113",
          "supportedAddress(string)": "b7eeefd7",
          "updateCache(bytes32,address)": "f1efc5d9",
          "updateSupportedTokens(string,string,address)": "26df0540"
        }
      }
    }
  }
}