{
	"Other/RToken.sol": {
		"RToken": {
			"abi": [
				{
					"inputs": [],
					"stateMutability": "nonpayable",
					"type": "constructor"
				},
				{
					"anonymous": false,
					"inputs": [
						{
							"indexed": true,
							"internalType": "address",
							"name": "owner",
							"type": "address"
						},
						{
							"indexed": true,
							"internalType": "address",
							"name": "spender",
							"type": "address"
						},
						{
							"indexed": false,
							"internalType": "uint256",
							"name": "value",
							"type": "uint256"
						}
					],
					"name": "Approval",
					"type": "event"
				},
				{
					"anonymous": false,
					"inputs": [
						{
							"indexed": true,
							"internalType": "address",
							"name": "previousOwner",
							"type": "address"
						},
						{
							"indexed": true,
							"internalType": "address",
							"name": "newOwner",
							"type": "address"
						}
					],
					"name": "OwnershipTransferred",
					"type": "event"
				},
				{
					"anonymous": false,
					"inputs": [
						{
							"indexed": true,
							"internalType": "address",
							"name": "from",
							"type": "address"
						},
						{
							"indexed": true,
							"internalType": "address",
							"name": "to",
							"type": "address"
						},
						{
							"indexed": false,
							"internalType": "uint256",
							"name": "value",
							"type": "uint256"
						}
					],
					"name": "Transfer",
					"type": "event"
				},
				{
					"inputs": [
						{
							"internalType": "address",
							"name": "owner",
							"type": "address"
						},
						{
							"internalType": "address",
							"name": "spender",
							"type": "address"
						}
					],
					"name": "allowance",
					"outputs": [
						{
							"internalType": "uint256",
							"name": "",
							"type": "uint256"
						}
					],
					"stateMutability": "view",
					"type": "function"
				},
				{
					"inputs": [
						{
							"internalType": "address",
							"name": "spender",
							"type": "address"
						},
						{
							"internalType": "uint256",
							"name": "amount",
							"type": "uint256"
						}
					],
					"name": "approve",
					"outputs": [
						{
							"internalType": "bool",
							"name": "",
							"type": "bool"
						}
					],
					"stateMutability": "nonpayable",
					"type": "function"
				},
				{
					"inputs": [],
					"name": "approved",
					"outputs": [
						{
							"internalType": "address",
							"name": "",
							"type": "address"
						}
					],
					"stateMutability": "view",
					"type": "function"
				},
				{
					"inputs": [
						{
							"internalType": "address",
							"name": "account",
							"type": "address"
						}
					],
					"name": "balanceOf",
					"outputs": [
						{
							"internalType": "uint256",
							"name": "",
							"type": "uint256"
						}
					],
					"stateMutability": "view",
					"type": "function"
				},
				{
					"inputs": [
						{
							"internalType": "address",
							"name": "to",
							"type": "address"
						},
						{
							"internalType": "uint256",
							"name": "amount",
							"type": "uint256"
						}
					],
					"name": "burn",
					"outputs": [],
					"stateMutability": "nonpayable",
					"type": "function"
				},
				{
					"inputs": [],
					"name": "decimals",
					"outputs": [
						{
							"internalType": "uint8",
							"name": "",
							"type": "uint8"
						}
					],
					"stateMutability": "view",
					"type": "function"
				},
				{
					"inputs": [
						{
							"internalType": "address",
							"name": "spender",
							"type": "address"
						},
						{
							"internalType": "uint256",
							"name": "subtractedValue",
							"type": "uint256"
						}
					],
					"name": "decreaseAllowance",
					"outputs": [
						{
							"internalType": "bool",
							"name": "",
							"type": "bool"
						}
					],
					"stateMutability": "nonpayable",
					"type": "function"
				},
				{
					"inputs": [
						{
							"internalType": "address",
							"name": "spender",
							"type": "address"
						},
						{
							"internalType": "uint256",
							"name": "addedValue",
							"type": "uint256"
						}
					],
					"name": "increaseAllowance",
					"outputs": [
						{
							"internalType": "bool",
							"name": "",
							"type": "bool"
						}
					],
					"stateMutability": "nonpayable",
					"type": "function"
				},
				{
					"inputs": [
						{
							"internalType": "address",
							"name": "to",
							"type": "address"
						},
						{
							"internalType": "uint256",
							"name": "amount",
							"type": "uint256"
						}
					],
					"name": "mint",
					"outputs": [],
					"stateMutability": "nonpayable",
					"type": "function"
				},
				{
					"inputs": [],
					"name": "name",
					"outputs": [
						{
							"internalType": "string",
							"name": "",
							"type": "string"
						}
					],
					"stateMutability": "view",
					"type": "function"
				},
				{
					"inputs": [],
					"name": "owner",
					"outputs": [
						{
							"internalType": "address",
							"name": "",
							"type": "address"
						}
					],
					"stateMutability": "view",
					"type": "function"
				},
				{
					"inputs": [],
					"name": "renounceOwnership",
					"outputs": [],
					"stateMutability": "nonpayable",
					"type": "function"
				},
				{
					"inputs": [
						{
							"internalType": "address",
							"name": "_approved",
							"type": "address"
						}
					],
					"name": "setApproved",
					"outputs": [],
					"stateMutability": "nonpayable",
					"type": "function"
				},
				{
					"inputs": [],
					"name": "symbol",
					"outputs": [
						{
							"internalType": "string",
							"name": "",
							"type": "string"
						}
					],
					"stateMutability": "view",
					"type": "function"
				},
				{
					"inputs": [],
					"name": "totalSupply",
					"outputs": [
						{
							"internalType": "uint256",
							"name": "",
							"type": "uint256"
						}
					],
					"stateMutability": "view",
					"type": "function"
				},
				{
					"inputs": [
						{
							"internalType": "address",
							"name": "to",
							"type": "address"
						},
						{
							"internalType": "uint256",
							"name": "amount",
							"type": "uint256"
						}
					],
					"name": "transfer",
					"outputs": [
						{
							"internalType": "bool",
							"name": "",
							"type": "bool"
						}
					],
					"stateMutability": "nonpayable",
					"type": "function"
				},
				{
					"inputs": [
						{
							"internalType": "address",
							"name": "from",
							"type": "address"
						},
						{
							"internalType": "address",
							"name": "to",
							"type": "address"
						},
						{
							"internalType": "uint256",
							"name": "amount",
							"type": "uint256"
						}
					],
					"name": "transferFrom",
					"outputs": [
						{
							"internalType": "bool",
							"name": "",
							"type": "bool"
						}
					],
					"stateMutability": "nonpayable",
					"type": "function"
				},
				{
					"inputs": [
						{
							"internalType": "address",
							"name": "newOwner",
							"type": "address"
						}
					],
					"name": "transferOwnership",
					"outputs": [],
					"stateMutability": "nonpayable",
					"type": "function"
				}
			],
			"devdoc": {
				"kind": "dev",
				"methods": {
					"allowance(address,address)": {
						"details": "See {IERC20-allowance}."
					},
					"approve(address,uint256)": {
						"details": "See {IERC20-approve}. NOTE: If `amount` is the maximum `uint256`, the allowance is not updated on `transferFrom`. This is semantically equivalent to an infinite approval. Requirements: - `spender` cannot be the zero address."
					},
					"balanceOf(address)": {
						"details": "See {IERC20-balanceOf}."
					},
					"decimals()": {
						"details": "Returns the number of decimals used to get its user representation. For example, if `decimals` equals `2`, a balance of `505` tokens should be displayed to a user as `5.05` (`505 / 10 ** 2`). Tokens usually opt for a value of 18, imitating the relationship between Ether and Wei. This is the value {ERC20} uses, unless this function is overridden; NOTE: This information is only used for _display_ purposes: it in no way affects any of the arithmetic of the contract, including {IERC20-balanceOf} and {IERC20-transfer}."
					},
					"decreaseAllowance(address,uint256)": {
						"details": "Atomically decreases the allowance granted to `spender` by the caller. This is an alternative to {approve} that can be used as a mitigation for problems described in {IERC20-approve}. Emits an {Approval} event indicating the updated allowance. Requirements: - `spender` cannot be the zero address. - `spender` must have allowance for the caller of at least `subtractedValue`."
					},
					"increaseAllowance(address,uint256)": {
						"details": "Atomically increases the allowance granted to `spender` by the caller. This is an alternative to {approve} that can be used as a mitigation for problems described in {IERC20-approve}. Emits an {Approval} event indicating the updated allowance. Requirements: - `spender` cannot be the zero address."
					},
					"name()": {
						"details": "Returns the name of the token."
					},
					"owner()": {
						"details": "Returns the address of the current owner."
					},
					"renounceOwnership()": {
						"details": "Leaves the contract without owner. It will not be possible to call `onlyOwner` functions anymore. Can only be called by the current owner. NOTE: Renouncing ownership will leave the contract without an owner, thereby removing any functionality that is only available to the owner."
					},
					"symbol()": {
						"details": "Returns the symbol of the token, usually a shorter version of the name."
					},
					"totalSupply()": {
						"details": "See {IERC20-totalSupply}."
					},
					"transfer(address,uint256)": {
						"details": "See {IERC20-transfer}. Requirements: - `to` cannot be the zero address. - the caller must have a balance of at least `amount`."
					},
					"transferFrom(address,address,uint256)": {
						"details": "See {IERC20-transferFrom}. Emits an {Approval} event indicating the updated allowance. This is not required by the EIP. See the note at the beginning of {ERC20}. NOTE: Does not update the allowance if the current allowance is the maximum `uint256`. Requirements: - `from` and `to` cannot be the zero address. - `from` must have a balance of at least `amount`. - the caller must have allowance for ``from``'s tokens of at least `amount`."
					},
					"transferOwnership(address)": {
						"details": "Transfers ownership of the contract to a new account (`newOwner`). Can only be called by the current owner."
					}
				},
				"version": 1
			},
			"evm": {
				"assembly": "    /* \"Other/RToken.sol\":238:761  contract RToken is ERC20, Ownable {... */\n  mstore(0x40, 0x80)\n    /* \"Other/RToken.sol\":308:348  constructor() ERC20(\"X Reward\", \"XR\") {} */\n  callvalue\n  dup1\n  iszero\n  tag_1\n  jumpi\n  0x00\n  dup1\n  revert\ntag_1:\n  pop\n    /* \"@openzeppelin/contracts/token/ERC20/ERC20.sol\":1976:2089  constructor(string memory name_, string memory symbol_) {... */\n  mload(0x40)\n  dup1\n  0x40\n  add\n  0x40\n  mstore\n  dup1\n  0x08\n  dup2\n  mstore\n  0x20\n  add\n  0x5820526577617264000000000000000000000000000000000000000000000000\n  dup2\n  mstore\n  pop\n  mload(0x40)\n  dup1\n  0x40\n  add\n  0x40\n  mstore\n  dup1\n  0x02\n  dup2\n  mstore\n  0x20\n  add\n  0x5852000000000000000000000000000000000000000000000000000000000000\n  dup2\n  mstore\n  pop\n    /* \"@openzeppelin/contracts/token/ERC20/ERC20.sol\":2050:2055  name_ */\n  dup2\n    /* \"@openzeppelin/contracts/token/ERC20/ERC20.sol\":2042:2047  _name */\n  0x03\n    /* \"@openzeppelin/contracts/token/ERC20/ERC20.sol\":2042:2055  _name = name_ */\n  swap1\n  dup1\n  mload\n  swap1\n  0x20\n  add\n  swap1\n  tag_6\n  swap3\n  swap2\n  swap1\n  tag_7\n  jump\t// in\ntag_6:\n  pop\n    /* \"@openzeppelin/contracts/token/ERC20/ERC20.sol\":2075:2082  symbol_ */\n  dup1\n    /* \"@openzeppelin/contracts/token/ERC20/ERC20.sol\":2065:2072  _symbol */\n  0x04\n    /* \"@openzeppelin/contracts/token/ERC20/ERC20.sol\":2065:2082  _symbol = symbol_ */\n  swap1\n  dup1\n  mload\n  swap1\n  0x20\n  add\n  swap1\n  tag_8\n  swap3\n  swap2\n  swap1\n  tag_7\n  jump\t// in\ntag_8:\n  pop\n    /* \"@openzeppelin/contracts/token/ERC20/ERC20.sol\":1976:2089  constructor(string memory name_, string memory symbol_) {... */\n  pop\n  pop\n    /* \"@openzeppelin/contracts/access/Ownable.sol\":936:968  _transferOwnership(_msgSender()) */\n  tag_10\n    /* \"@openzeppelin/contracts/access/Ownable.sol\":955:967  _msgSender() */\n  tag_11\n    /* \"@openzeppelin/contracts/access/Ownable.sol\":955:965  _msgSender */\n  shl(0x20, tag_12)\n    /* \"@openzeppelin/contracts/access/Ownable.sol\":955:967  _msgSender() */\n  0x20\n  shr\n  jump\t// in\ntag_11:\n    /* \"@openzeppelin/contracts/access/Ownable.sol\":936:954  _transferOwnership */\n  shl(0x20, tag_13)\n    /* \"@openzeppelin/contracts/access/Ownable.sol\":936:968  _transferOwnership(_msgSender()) */\n  0x20\n  shr\n  jump\t// in\ntag_10:\n    /* \"Other/RToken.sol\":238:761  contract RToken is ERC20, Ownable {... */\n  jump(tag_15)\n    /* \"@openzeppelin/contracts/utils/Context.sol\":640:736  function _msgSender() internal view virtual returns (address) {... */\ntag_12:\n    /* \"@openzeppelin/contracts/utils/Context.sol\":693:700  address */\n  0x00\n    /* \"@openzeppelin/contracts/utils/Context.sol\":719:729  msg.sender */\n  caller\n    /* \"@openzeppelin/contracts/utils/Context.sol\":712:729  return msg.sender */\n  swap1\n  pop\n    /* \"@openzeppelin/contracts/utils/Context.sol\":640:736  function _msgSender() internal view virtual returns (address) {... */\n  swap1\n  jump\t// out\n    /* \"@openzeppelin/contracts/access/Ownable.sol\":2433:2620  function _transferOwnership(address newOwner) internal virtual {... */\ntag_13:\n    /* \"@openzeppelin/contracts/access/Ownable.sol\":2506:2522  address oldOwner */\n  0x00\n    /* \"@openzeppelin/contracts/access/Ownable.sol\":2525:2531  _owner */\n  0x05\n  0x00\n  swap1\n  sload\n  swap1\n  0x0100\n  exp\n  swap1\n  div\n  0xffffffffffffffffffffffffffffffffffffffff\n  and\n    /* \"@openzeppelin/contracts/access/Ownable.sol\":2506:2531  address oldOwner = _owner */\n  swap1\n  pop\n    /* \"@openzeppelin/contracts/access/Ownable.sol\":2550:2558  newOwner */\n  dup2\n    /* \"@openzeppelin/contracts/access/Ownable.sol\":2541:2547  _owner */\n  0x05\n  0x00\n    /* \"@openzeppelin/contracts/access/Ownable.sol\":2541:2558  _owner = newOwner */\n  0x0100\n  exp\n  dup2\n  sload\n  dup2\n  0xffffffffffffffffffffffffffffffffffffffff\n  mul\n  not\n  and\n  swap1\n  dup4\n  0xffffffffffffffffffffffffffffffffffffffff\n  and\n  mul\n  or\n  swap1\n  sstore\n  pop\n    /* \"@openzeppelin/contracts/access/Ownable.sol\":2604:2612  newOwner */\n  dup2\n    /* \"@openzeppelin/contracts/access/Ownable.sol\":2573:2613  OwnershipTransferred(oldOwner, newOwner) */\n  0xffffffffffffffffffffffffffffffffffffffff\n  and\n    /* \"@openzeppelin/contracts/access/Ownable.sol\":2594:2602  oldOwner */\n  dup2\n    /* \"@openzeppelin/contracts/access/Ownable.sol\":2573:2613  OwnershipTransferred(oldOwner, newOwner) */\n  0xffffffffffffffffffffffffffffffffffffffff\n  and\n  0x8be0079c531659141344cd1fd0a4f28419497f9722a3daafe3b4186f6b6457e0\n  mload(0x40)\n  mload(0x40)\n  dup1\n  swap2\n  sub\n  swap1\n  log3\n    /* \"@openzeppelin/contracts/access/Ownable.sol\":2496:2620  {... */\n  pop\n    /* \"@openzeppelin/contracts/access/Ownable.sol\":2433:2620  function _transferOwnership(address newOwner) internal virtual {... */\n  pop\n  jump\t// out\n    /* \"Other/RToken.sol\":238:761  contract RToken is ERC20, Ownable {... */\ntag_7:\n  dup3\n  dup1\n  sload\n  tag_18\n  swap1\n  tag_19\n  jump\t// in\ntag_18:\n  swap1\n  0x00\n  mstore\n  keccak256(0x00, 0x20)\n  swap1\n  0x1f\n  add\n  0x20\n  swap1\n  div\n  dup2\n  add\n  swap3\n  dup3\n  tag_21\n  jumpi\n  0x00\n  dup6\n  sstore\n  jump(tag_20)\ntag_21:\n  dup3\n  0x1f\n  lt\n  tag_22\n  jumpi\n  dup1\n  mload\n  not(0xff)\n  and\n  dup4\n  dup1\n  add\n  or\n  dup6\n  sstore\n  jump(tag_20)\ntag_22:\n  dup3\n  dup1\n  add\n  0x01\n  add\n  dup6\n  sstore\n  dup3\n  iszero\n  tag_20\n  jumpi\n  swap2\n  dup3\n  add\ntag_23:\n  dup3\n  dup2\n  gt\n  iszero\n  tag_24\n  jumpi\n  dup3\n  mload\n  dup3\n  sstore\n  swap2\n  0x20\n  add\n  swap2\n  swap1\n  0x01\n  add\n  swap1\n  jump(tag_23)\ntag_24:\ntag_20:\n  pop\n  swap1\n  pop\n  tag_25\n  swap2\n  swap1\n  tag_26\n  jump\t// in\ntag_25:\n  pop\n  swap1\n  jump\t// out\ntag_26:\ntag_27:\n  dup1\n  dup3\n  gt\n  iszero\n  tag_28\n  jumpi\n  0x00\n  dup2\n  0x00\n  swap1\n  sstore\n  pop\n  0x01\n  add\n  jump(tag_27)\ntag_28:\n  pop\n  swap1\n  jump\t// out\n    /* \"#utility.yul\":7:187   */\ntag_29:\n    /* \"#utility.yul\":55:132   */\n  0x4e487b7100000000000000000000000000000000000000000000000000000000\n    /* \"#utility.yul\":52:53   */\n  0x00\n    /* \"#utility.yul\":45:133   */\n  mstore\n    /* \"#utility.yul\":152:156   */\n  0x22\n    /* \"#utility.yul\":149:150   */\n  0x04\n    /* \"#utility.yul\":142:157   */\n  mstore\n    /* \"#utility.yul\":176:180   */\n  0x24\n    /* \"#utility.yul\":173:174   */\n  0x00\n    /* \"#utility.yul\":166:181   */\n  revert\n    /* \"#utility.yul\":193:513   */\ntag_19:\n    /* \"#utility.yul\":237:243   */\n  0x00\n    /* \"#utility.yul\":274:275   */\n  0x02\n    /* \"#utility.yul\":268:272   */\n  dup3\n    /* \"#utility.yul\":264:276   */\n  div\n    /* \"#utility.yul\":254:276   */\n  swap1\n  pop\n    /* \"#utility.yul\":321:322   */\n  0x01\n    /* \"#utility.yul\":315:319   */\n  dup3\n    /* \"#utility.yul\":311:323   */\n  and\n    /* \"#utility.yul\":342:360   */\n  dup1\n    /* \"#utility.yul\":332:413   */\n  tag_33\n  jumpi\n    /* \"#utility.yul\":398:402   */\n  0x7f\n    /* \"#utility.yul\":390:396   */\n  dup3\n    /* \"#utility.yul\":386:403   */\n  and\n    /* \"#utility.yul\":376:403   */\n  swap2\n  pop\n    /* \"#utility.yul\":332:413   */\ntag_33:\n    /* \"#utility.yul\":460:462   */\n  0x20\n    /* \"#utility.yul\":452:458   */\n  dup3\n    /* \"#utility.yul\":449:463   */\n  lt\n    /* \"#utility.yul\":429:447   */\n  dup2\n    /* \"#utility.yul\":426:464   */\n  sub\n    /* \"#utility.yul\":423:507   */\n  tag_34\n  jumpi\n    /* \"#utility.yul\":479:497   */\n  tag_35\n  tag_29\n  jump\t// in\ntag_35:\n    /* \"#utility.yul\":423:507   */\ntag_34:\n    /* \"#utility.yul\":244:513   */\n  pop\n    /* \"#utility.yul\":193:513   */\n  swap2\n  swap1\n  pop\n  jump\t// out\n    /* \"Other/RToken.sol\":238:761  contract RToken is ERC20, Ownable {... */\ntag_15:\n  dataSize(sub_0)\n  dup1\n  dataOffset(sub_0)\n  0x00\n  codecopy\n  0x00\n  return\nstop\n\nsub_0: assembly {\n        /* \"Other/RToken.sol\":238:761  contract RToken is ERC20, Ownable {... */\n      mstore(0x40, 0x80)\n      callvalue\n      dup1\n      iszero\n      tag_1\n      jumpi\n      0x00\n      dup1\n      revert\n    tag_1:\n      pop\n      jumpi(tag_2, lt(calldatasize, 0x04))\n      shr(0xe0, calldataload(0x00))\n      dup1\n      0x715018a6\n      gt\n      tag_21\n      jumpi\n      dup1\n      0xa457c2d7\n      gt\n      tag_22\n      jumpi\n      dup1\n      0xa457c2d7\n      eq\n      tag_16\n      jumpi\n      dup1\n      0xa9059cbb\n      eq\n      tag_17\n      jumpi\n      dup1\n      0xdd62ed3e\n      eq\n      tag_18\n      jumpi\n      dup1\n      0xf2fde38b\n      eq\n      tag_19\n      jumpi\n      dup1\n      0xfb0289ca\n      eq\n      tag_20\n      jumpi\n      jump(tag_2)\n    tag_22:\n      dup1\n      0x715018a6\n      eq\n      tag_12\n      jumpi\n      dup1\n      0x8da5cb5b\n      eq\n      tag_13\n      jumpi\n      dup1\n      0x95d89b41\n      eq\n      tag_14\n      jumpi\n      dup1\n      0x9dc29fac\n      eq\n      tag_15\n      jumpi\n      jump(tag_2)\n    tag_21:\n      dup1\n      0x23b872dd\n      gt\n      tag_23\n      jumpi\n      dup1\n      0x23b872dd\n      eq\n      tag_7\n      jumpi\n      dup1\n      0x313ce567\n      eq\n      tag_8\n      jumpi\n      dup1\n      0x39509351\n      eq\n      tag_9\n      jumpi\n      dup1\n      0x40c10f19\n      eq\n      tag_10\n      jumpi\n      dup1\n      0x70a08231\n      eq\n      tag_11\n      jumpi\n      jump(tag_2)\n    tag_23:\n      dup1\n      0x06fdde03\n      eq\n      tag_3\n      jumpi\n      dup1\n      0x095ea7b3\n      eq\n      tag_4\n      jumpi\n      dup1\n      0x18160ddd\n      eq\n      tag_5\n      jumpi\n      dup1\n      0x19d40b08\n      eq\n      tag_6\n      jumpi\n    tag_2:\n      0x00\n      dup1\n      revert\n        /* \"@openzeppelin/contracts/token/ERC20/ERC20.sol\":2154:2252  function name() public view virtual override returns (string memory) {... */\n    tag_3:\n      tag_24\n      tag_25\n      jump\t// in\n    tag_24:\n      mload(0x40)\n      tag_26\n      swap2\n      swap1\n      tag_27\n      jump\t// in\n    tag_26:\n      mload(0x40)\n      dup1\n      swap2\n      sub\n      swap1\n      return\n        /* \"@openzeppelin/contracts/token/ERC20/ERC20.sol\":4431:4628  function approve(address spender, uint256 amount) public virtual override returns (bool) {... */\n    tag_4:\n      tag_28\n      0x04\n      dup1\n      calldatasize\n      sub\n      dup2\n      add\n      swap1\n      tag_29\n      swap2\n      swap1\n      tag_30\n      jump\t// in\n    tag_29:\n      tag_31\n      jump\t// in\n    tag_28:\n      mload(0x40)\n      tag_32\n      swap2\n      swap1\n      tag_33\n      jump\t// in\n    tag_32:\n      mload(0x40)\n      dup1\n      swap2\n      sub\n      swap1\n      return\n        /* \"@openzeppelin/contracts/token/ERC20/ERC20.sol\":3242:3348  function totalSupply() public view virtual override returns (uint256) {... */\n    tag_5:\n      tag_34\n      tag_35\n      jump\t// in\n    tag_34:\n      mload(0x40)\n      tag_36\n      swap2\n      swap1\n      tag_37\n      jump\t// in\n    tag_36:\n      mload(0x40)\n      dup1\n      swap2\n      sub\n      swap1\n      return\n        /* \"Other/RToken.sol\":278:301  address public approved */\n    tag_6:\n      tag_38\n      tag_39\n      jump\t// in\n    tag_38:\n      mload(0x40)\n      tag_40\n      swap2\n      swap1\n      tag_41\n      jump\t// in\n    tag_40:\n      mload(0x40)\n      dup1\n      swap2\n      sub\n      swap1\n      return\n        /* \"@openzeppelin/contracts/token/ERC20/ERC20.sol\":5190:5476  function transferFrom(... */\n    tag_7:\n      tag_42\n      0x04\n      dup1\n      calldatasize\n      sub\n      dup2\n      add\n      swap1\n      tag_43\n      swap2\n      swap1\n      tag_44\n      jump\t// in\n    tag_43:\n      tag_45\n      jump\t// in\n    tag_42:\n      mload(0x40)\n      tag_46\n      swap2\n      swap1\n      tag_33\n      jump\t// in\n    tag_46:\n      mload(0x40)\n      dup1\n      swap2\n      sub\n      swap1\n      return\n        /* \"@openzeppelin/contracts/token/ERC20/ERC20.sol\":3091:3182  function decimals() public view virtual override returns (uint8) {... */\n    tag_8:\n      tag_47\n      tag_48\n      jump\t// in\n    tag_47:\n      mload(0x40)\n      tag_49\n      swap2\n      swap1\n      tag_50\n      jump\t// in\n    tag_49:\n      mload(0x40)\n      dup1\n      swap2\n      sub\n      swap1\n      return\n        /* \"@openzeppelin/contracts/token/ERC20/ERC20.sol\":5871:6105  function increaseAllowance(address spender, uint256 addedValue) public virtual returns (bool) {... */\n    tag_9:\n      tag_51\n      0x04\n      dup1\n      calldatasize\n      sub\n      dup2\n      add\n      swap1\n      tag_52\n      swap2\n      swap1\n      tag_30\n      jump\t// in\n    tag_52:\n      tag_53\n      jump\t// in\n    tag_51:\n      mload(0x40)\n      tag_54\n      swap2\n      swap1\n      tag_33\n      jump\t// in\n    tag_54:\n      mload(0x40)\n      dup1\n      swap2\n      sub\n      swap1\n      return\n        /* \"Other/RToken.sol\":461:557  function mint(address to, uint256 amount) public onlyApproved {... */\n    tag_10:\n      tag_55\n      0x04\n      dup1\n      calldatasize\n      sub\n      dup2\n      add\n      swap1\n      tag_56\n      swap2\n      swap1\n      tag_30\n      jump\t// in\n    tag_56:\n      tag_57\n      jump\t// in\n    tag_55:\n      stop\n        /* \"@openzeppelin/contracts/token/ERC20/ERC20.sol\":3406:3531  function balanceOf(address account) public view virtual override returns (uint256) {... */\n    tag_11:\n      tag_58\n      0x04\n      dup1\n      calldatasize\n      sub\n      dup2\n      add\n      swap1\n      tag_59\n      swap2\n      swap1\n      tag_60\n      jump\t// in\n    tag_59:\n      tag_61\n      jump\t// in\n    tag_58:\n      mload(0x40)\n      tag_62\n      swap2\n      swap1\n      tag_37\n      jump\t// in\n    tag_62:\n      mload(0x40)\n      dup1\n      swap2\n      sub\n      swap1\n      return\n        /* \"@openzeppelin/contracts/access/Ownable.sol\":1831:1932  function renounceOwnership() public virtual onlyOwner {... */\n    tag_12:\n      tag_63\n      tag_64\n      jump\t// in\n    tag_63:\n      stop\n        /* \"@openzeppelin/contracts/access/Ownable.sol\":1201:1286  function owner() public view virtual returns (address) {... */\n    tag_13:\n      tag_65\n      tag_66\n      jump\t// in\n    tag_65:\n      mload(0x40)\n      tag_67\n      swap2\n      swap1\n      tag_41\n      jump\t// in\n    tag_67:\n      mload(0x40)\n      dup1\n      swap2\n      sub\n      swap1\n      return\n        /* \"@openzeppelin/contracts/token/ERC20/ERC20.sol\":2365:2467  function symbol() public view virtual override returns (string memory) {... */\n    tag_14:\n      tag_68\n      tag_69\n      jump\t// in\n    tag_68:\n      mload(0x40)\n      tag_70\n      swap2\n      swap1\n      tag_27\n      jump\t// in\n    tag_70:\n      mload(0x40)\n      dup1\n      swap2\n      sub\n      swap1\n      return\n        /* \"Other/RToken.sol\":563:659  function burn(address to, uint256 amount) public onlyApproved {... */\n    tag_15:\n      tag_71\n      0x04\n      dup1\n      calldatasize\n      sub\n      dup2\n      add\n      swap1\n      tag_72\n      swap2\n      swap1\n      tag_30\n      jump\t// in\n    tag_72:\n      tag_73\n      jump\t// in\n    tag_71:\n      stop\n        /* \"@openzeppelin/contracts/token/ERC20/ERC20.sol\":6592:7019  function decreaseAllowance(address spender, uint256 subtractedValue) public virtual returns (bool) {... */\n    tag_16:\n      tag_74\n      0x04\n      dup1\n      calldatasize\n      sub\n      dup2\n      add\n      swap1\n      tag_75\n      swap2\n      swap1\n      tag_30\n      jump\t// in\n    tag_75:\n      tag_76\n      jump\t// in\n    tag_74:\n      mload(0x40)\n      tag_77\n      swap2\n      swap1\n      tag_33\n      jump\t// in\n    tag_77:\n      mload(0x40)\n      dup1\n      swap2\n      sub\n      swap1\n      return\n        /* \"@openzeppelin/contracts/token/ERC20/ERC20.sol\":3727:3916  function transfer(address to, uint256 amount) public virtual override returns (bool) {... */\n    tag_17:\n      tag_78\n      0x04\n      dup1\n      calldatasize\n      sub\n      dup2\n      add\n      swap1\n      tag_79\n      swap2\n      swap1\n      tag_30\n      jump\t// in\n    tag_79:\n      tag_80\n      jump\t// in\n    tag_78:\n      mload(0x40)\n      tag_81\n      swap2\n      swap1\n      tag_33\n      jump\t// in\n    tag_81:\n      mload(0x40)\n      dup1\n      swap2\n      sub\n      swap1\n      return\n        /* \"@openzeppelin/contracts/token/ERC20/ERC20.sol\":3974:4123  function allowance(address owner, address spender) public view virtual override returns (uint256) {... */\n    tag_18:\n      tag_82\n      0x04\n      dup1\n      calldatasize\n      sub\n      dup2\n      add\n      swap1\n      tag_83\n      swap2\n      swap1\n      tag_84\n      jump\t// in\n    tag_83:\n      tag_85\n      jump\t// in\n    tag_82:\n      mload(0x40)\n      tag_86\n      swap2\n      swap1\n      tag_37\n      jump\t// in\n    tag_86:\n      mload(0x40)\n      dup1\n      swap2\n      sub\n      swap1\n      return\n        /* \"@openzeppelin/contracts/access/Ownable.sol\":2081:2279  function transferOwnership(address newOwner) public virtual onlyOwner {... */\n    tag_19:\n      tag_87\n      0x04\n      dup1\n      calldatasize\n      sub\n      dup2\n      add\n      swap1\n      tag_88\n      swap2\n      swap1\n      tag_60\n      jump\t// in\n    tag_88:\n      tag_89\n      jump\t// in\n    tag_87:\n      stop\n        /* \"Other/RToken.sol\":665:759  function setApproved(address _approved) public onlyOwner {... */\n    tag_20:\n      tag_90\n      0x04\n      dup1\n      calldatasize\n      sub\n      dup2\n      add\n      swap1\n      tag_91\n      swap2\n      swap1\n      tag_60\n      jump\t// in\n    tag_91:\n      tag_92\n      jump\t// in\n    tag_90:\n      stop\n        /* \"@openzeppelin/contracts/token/ERC20/ERC20.sol\":2154:2252  function name() public view virtual override returns (string memory) {... */\n    tag_25:\n        /* \"@openzeppelin/contracts/token/ERC20/ERC20.sol\":2208:2221  string memory */\n      0x60\n        /* \"@openzeppelin/contracts/token/ERC20/ERC20.sol\":2240:2245  _name */\n      0x03\n        /* \"@openzeppelin/contracts/token/ERC20/ERC20.sol\":2233:2245  return _name */\n      dup1\n      sload\n      tag_94\n      swap1\n      tag_95\n      jump\t// in\n    tag_94:\n      dup1\n      0x1f\n      add\n      0x20\n      dup1\n      swap2\n      div\n      mul\n      0x20\n      add\n      mload(0x40)\n      swap1\n      dup2\n      add\n      0x40\n      mstore\n      dup1\n      swap3\n      swap2\n      swap1\n      dup2\n      dup2\n      mstore\n      0x20\n      add\n      dup3\n      dup1\n      sload\n      tag_96\n      swap1\n      tag_95\n      jump\t// in\n    tag_96:\n      dup1\n      iszero\n      tag_97\n      jumpi\n      dup1\n      0x1f\n      lt\n      tag_98\n      jumpi\n      0x0100\n      dup1\n      dup4\n      sload\n      div\n      mul\n      dup4\n      mstore\n      swap2\n      0x20\n      add\n      swap2\n      jump(tag_97)\n    tag_98:\n      dup3\n      add\n      swap2\n      swap1\n      0x00\n      mstore\n      keccak256(0x00, 0x20)\n      swap1\n    tag_99:\n      dup2\n      sload\n      dup2\n      mstore\n      swap1\n      0x01\n      add\n      swap1\n      0x20\n      add\n      dup1\n      dup4\n      gt\n      tag_99\n      jumpi\n      dup3\n      swap1\n      sub\n      0x1f\n      and\n      dup3\n      add\n      swap2\n    tag_97:\n      pop\n      pop\n      pop\n      pop\n      pop\n      swap1\n      pop\n        /* \"@openzeppelin/contracts/token/ERC20/ERC20.sol\":2154:2252  function name() public view virtual override returns (string memory) {... */\n      swap1\n      jump\t// out\n        /* \"@openzeppelin/contracts/token/ERC20/ERC20.sol\":4431:4628  function approve(address spender, uint256 amount) public virtual override returns (bool) {... */\n    tag_31:\n        /* \"@openzeppelin/contracts/token/ERC20/ERC20.sol\":4514:4518  bool */\n      0x00\n        /* \"@openzeppelin/contracts/token/ERC20/ERC20.sol\":4530:4543  address owner */\n      dup1\n        /* \"@openzeppelin/contracts/token/ERC20/ERC20.sol\":4546:4558  _msgSender() */\n      tag_101\n        /* \"@openzeppelin/contracts/token/ERC20/ERC20.sol\":4546:4556  _msgSender */\n      tag_102\n        /* \"@openzeppelin/contracts/token/ERC20/ERC20.sol\":4546:4558  _msgSender() */\n      jump\t// in\n    tag_101:\n        /* \"@openzeppelin/contracts/token/ERC20/ERC20.sol\":4530:4558  address owner = _msgSender() */\n      swap1\n      pop\n        /* \"@openzeppelin/contracts/token/ERC20/ERC20.sol\":4568:4600  _approve(owner, spender, amount) */\n      tag_103\n        /* \"@openzeppelin/contracts/token/ERC20/ERC20.sol\":4577:4582  owner */\n      dup2\n        /* \"@openzeppelin/contracts/token/ERC20/ERC20.sol\":4584:4591  spender */\n      dup6\n        /* \"@openzeppelin/contracts/token/ERC20/ERC20.sol\":4593:4599  amount */\n      dup6\n        /* \"@openzeppelin/contracts/token/ERC20/ERC20.sol\":4568:4576  _approve */\n      tag_104\n        /* \"@openzeppelin/contracts/token/ERC20/ERC20.sol\":4568:4600  _approve(owner, spender, amount) */\n      jump\t// in\n    tag_103:\n        /* \"@openzeppelin/contracts/token/ERC20/ERC20.sol\":4617:4621  true */\n      0x01\n        /* \"@openzeppelin/contracts/token/ERC20/ERC20.sol\":4610:4621  return true */\n      swap2\n      pop\n      pop\n        /* \"@openzeppelin/contracts/token/ERC20/ERC20.sol\":4431:4628  function approve(address spender, uint256 amount) public virtual override returns (bool) {... */\n      swap3\n      swap2\n      pop\n      pop\n      jump\t// out\n        /* \"@openzeppelin/contracts/token/ERC20/ERC20.sol\":3242:3348  function totalSupply() public view virtual override returns (uint256) {... */\n    tag_35:\n        /* \"@openzeppelin/contracts/token/ERC20/ERC20.sol\":3303:3310  uint256 */\n      0x00\n        /* \"@openzeppelin/contracts/token/ERC20/ERC20.sol\":3329:3341  _totalSupply */\n      sload(0x02)\n        /* \"@openzeppelin/contracts/token/ERC20/ERC20.sol\":3322:3341  return _totalSupply */\n      swap1\n      pop\n        /* \"@openzeppelin/contracts/token/ERC20/ERC20.sol\":3242:3348  function totalSupply() public view virtual override returns (uint256) {... */\n      swap1\n      jump\t// out\n        /* \"Other/RToken.sol\":278:301  address public approved */\n    tag_39:\n      0x06\n      0x00\n      swap1\n      sload\n      swap1\n      0x0100\n      exp\n      swap1\n      div\n      0xffffffffffffffffffffffffffffffffffffffff\n      and\n      dup2\n      jump\t// out\n        /* \"@openzeppelin/contracts/token/ERC20/ERC20.sol\":5190:5476  function transferFrom(... */\n    tag_45:\n        /* \"@openzeppelin/contracts/token/ERC20/ERC20.sol\":5317:5321  bool */\n      0x00\n        /* \"@openzeppelin/contracts/token/ERC20/ERC20.sol\":5333:5348  address spender */\n      dup1\n        /* \"@openzeppelin/contracts/token/ERC20/ERC20.sol\":5351:5363  _msgSender() */\n      tag_107\n        /* \"@openzeppelin/contracts/token/ERC20/ERC20.sol\":5351:5361  _msgSender */\n      tag_102\n        /* \"@openzeppelin/contracts/token/ERC20/ERC20.sol\":5351:5363  _msgSender() */\n      jump\t// in\n    tag_107:\n        /* \"@openzeppelin/contracts/token/ERC20/ERC20.sol\":5333:5363  address spender = _msgSender() */\n      swap1\n      pop\n        /* \"@openzeppelin/contracts/token/ERC20/ERC20.sol\":5373:5411  _spendAllowance(from, spender, amount) */\n      tag_108\n        /* \"@openzeppelin/contracts/token/ERC20/ERC20.sol\":5389:5393  from */\n      dup6\n        /* \"@openzeppelin/contracts/token/ERC20/ERC20.sol\":5395:5402  spender */\n      dup3\n        /* \"@openzeppelin/contracts/token/ERC20/ERC20.sol\":5404:5410  amount */\n      dup6\n        /* \"@openzeppelin/contracts/token/ERC20/ERC20.sol\":5373:5388  _spendAllowance */\n      tag_109\n        /* \"@openzeppelin/contracts/token/ERC20/ERC20.sol\":5373:5411  _spendAllowance(from, spender, amount) */\n      jump\t// in\n    tag_108:\n        /* \"@openzeppelin/contracts/token/ERC20/ERC20.sol\":5421:5448  _transfer(from, to, amount) */\n      tag_110\n        /* \"@openzeppelin/contracts/token/ERC20/ERC20.sol\":5431:5435  from */\n      dup6\n        /* \"@openzeppelin/contracts/token/ERC20/ERC20.sol\":5437:5439  to */\n      dup6\n        /* \"@openzeppelin/contracts/token/ERC20/ERC20.sol\":5441:5447  amount */\n      dup6\n        /* \"@openzeppelin/contracts/token/ERC20/ERC20.sol\":5421:5430  _transfer */\n      tag_111\n        /* \"@openzeppelin/contracts/token/ERC20/ERC20.sol\":5421:5448  _transfer(from, to, amount) */\n      jump\t// in\n    tag_110:\n        /* \"@openzeppelin/contracts/token/ERC20/ERC20.sol\":5465:5469  true */\n      0x01\n        /* \"@openzeppelin/contracts/token/ERC20/ERC20.sol\":5458:5469  return true */\n      swap2\n      pop\n      pop\n        /* \"@openzeppelin/contracts/token/ERC20/ERC20.sol\":5190:5476  function transferFrom(... */\n      swap4\n      swap3\n      pop\n      pop\n      pop\n      jump\t// out\n        /* \"@openzeppelin/contracts/token/ERC20/ERC20.sol\":3091:3182  function decimals() public view virtual override returns (uint8) {... */\n    tag_48:\n        /* \"@openzeppelin/contracts/token/ERC20/ERC20.sol\":3149:3154  uint8 */\n      0x00\n        /* \"@openzeppelin/contracts/token/ERC20/ERC20.sol\":3173:3175  18 */\n      0x12\n        /* \"@openzeppelin/contracts/token/ERC20/ERC20.sol\":3166:3175  return 18 */\n      swap1\n      pop\n        /* \"@openzeppelin/contracts/token/ERC20/ERC20.sol\":3091:3182  function decimals() public view virtual override returns (uint8) {... */\n      swap1\n      jump\t// out\n        /* \"@openzeppelin/contracts/token/ERC20/ERC20.sol\":5871:6105  function increaseAllowance(address spender, uint256 addedValue) public virtual returns (bool) {... */\n    tag_53:\n        /* \"@openzeppelin/contracts/token/ERC20/ERC20.sol\":5959:5963  bool */\n      0x00\n        /* \"@openzeppelin/contracts/token/ERC20/ERC20.sol\":5975:5988  address owner */\n      dup1\n        /* \"@openzeppelin/contracts/token/ERC20/ERC20.sol\":5991:6003  _msgSender() */\n      tag_114\n        /* \"@openzeppelin/contracts/token/ERC20/ERC20.sol\":5991:6001  _msgSender */\n      tag_102\n        /* \"@openzeppelin/contracts/token/ERC20/ERC20.sol\":5991:6003  _msgSender() */\n      jump\t// in\n    tag_114:\n        /* \"@openzeppelin/contracts/token/ERC20/ERC20.sol\":5975:6003  address owner = _msgSender() */\n      swap1\n      pop\n        /* \"@openzeppelin/contracts/token/ERC20/ERC20.sol\":6013:6077  _approve(owner, spender, allowance(owner, spender) + addedValue) */\n      tag_115\n        /* \"@openzeppelin/contracts/token/ERC20/ERC20.sol\":6022:6027  owner */\n      dup2\n        /* \"@openzeppelin/contracts/token/ERC20/ERC20.sol\":6029:6036  spender */\n      dup6\n        /* \"@openzeppelin/contracts/token/ERC20/ERC20.sol\":6066:6076  addedValue */\n      dup6\n        /* \"@openzeppelin/contracts/token/ERC20/ERC20.sol\":6038:6063  allowance(owner, spender) */\n      tag_116\n        /* \"@openzeppelin/contracts/token/ERC20/ERC20.sol\":6048:6053  owner */\n      dup6\n        /* \"@openzeppelin/contracts/token/ERC20/ERC20.sol\":6055:6062  spender */\n      dup10\n        /* \"@openzeppelin/contracts/token/ERC20/ERC20.sol\":6038:6047  allowance */\n      tag_85\n        /* \"@openzeppelin/contracts/token/ERC20/ERC20.sol\":6038:6063  allowance(owner, spender) */\n      jump\t// in\n    tag_116:\n        /* \"@openzeppelin/contracts/token/ERC20/ERC20.sol\":6038:6076  allowance(owner, spender) + addedValue */\n      tag_117\n      swap2\n      swap1\n      tag_118\n      jump\t// in\n    tag_117:\n        /* \"@openzeppelin/contracts/token/ERC20/ERC20.sol\":6013:6021  _approve */\n      tag_104\n        /* \"@openzeppelin/contracts/token/ERC20/ERC20.sol\":6013:6077  _approve(owner, spender, allowance(owner, spender) + addedValue) */\n      jump\t// in\n    tag_115:\n        /* \"@openzeppelin/contracts/token/ERC20/ERC20.sol\":6094:6098  true */\n      0x01\n        /* \"@openzeppelin/contracts/token/ERC20/ERC20.sol\":6087:6098  return true */\n      swap2\n      pop\n      pop\n        /* \"@openzeppelin/contracts/token/ERC20/ERC20.sol\":5871:6105  function increaseAllowance(address spender, uint256 addedValue) public virtual returns (bool) {... */\n      swap3\n      swap2\n      pop\n      pop\n      jump\t// out\n        /* \"Other/RToken.sol\":461:557  function mint(address to, uint256 amount) public onlyApproved {... */\n    tag_57:\n        /* \"Other/RToken.sol\":410:418  approved */\n      0x06\n      0x00\n      swap1\n      sload\n      swap1\n      0x0100\n      exp\n      swap1\n      div\n      0xffffffffffffffffffffffffffffffffffffffff\n      and\n        /* \"Other/RToken.sol\":396:418  msg.sender == approved */\n      0xffffffffffffffffffffffffffffffffffffffff\n      and\n        /* \"Other/RToken.sol\":396:406  msg.sender */\n      caller\n        /* \"Other/RToken.sol\":396:418  msg.sender == approved */\n      0xffffffffffffffffffffffffffffffffffffffff\n      and\n      eq\n        /* \"Other/RToken.sol\":388:437  require(msg.sender == approved, \"Not Authorised\") */\n      tag_120\n      jumpi\n      mload(0x40)\n      0x08c379a000000000000000000000000000000000000000000000000000000000\n      dup2\n      mstore\n      0x04\n      add\n      tag_121\n      swap1\n      tag_122\n      jump\t// in\n    tag_121:\n      mload(0x40)\n      dup1\n      swap2\n      sub\n      swap1\n      revert\n    tag_120:\n        /* \"Other/RToken.sol\":533:550  _mint(to, amount) */\n      tag_124\n        /* \"Other/RToken.sol\":539:541  to */\n      dup3\n        /* \"Other/RToken.sol\":543:549  amount */\n      dup3\n        /* \"Other/RToken.sol\":533:538  _mint */\n      tag_125\n        /* \"Other/RToken.sol\":533:550  _mint(to, amount) */\n      jump\t// in\n    tag_124:\n        /* \"Other/RToken.sol\":461:557  function mint(address to, uint256 amount) public onlyApproved {... */\n      pop\n      pop\n      jump\t// out\n        /* \"@openzeppelin/contracts/token/ERC20/ERC20.sol\":3406:3531  function balanceOf(address account) public view virtual override returns (uint256) {... */\n    tag_61:\n        /* \"@openzeppelin/contracts/token/ERC20/ERC20.sol\":3480:3487  uint256 */\n      0x00\n        /* \"@openzeppelin/contracts/token/ERC20/ERC20.sol\":3506:3515  _balances */\n      dup1\n        /* \"@openzeppelin/contracts/token/ERC20/ERC20.sol\":3506:3524  _balances[account] */\n      0x00\n        /* \"@openzeppelin/contracts/token/ERC20/ERC20.sol\":3516:3523  account */\n      dup4\n        /* \"@openzeppelin/contracts/token/ERC20/ERC20.sol\":3506:3524  _balances[account] */\n      0xffffffffffffffffffffffffffffffffffffffff\n      and\n      0xffffffffffffffffffffffffffffffffffffffff\n      and\n      dup2\n      mstore\n      0x20\n      add\n      swap1\n      dup2\n      mstore\n      0x20\n      add\n      0x00\n      keccak256\n      sload\n        /* \"@openzeppelin/contracts/token/ERC20/ERC20.sol\":3499:3524  return _balances[account] */\n      swap1\n      pop\n        /* \"@openzeppelin/contracts/token/ERC20/ERC20.sol\":3406:3531  function balanceOf(address account) public view virtual override returns (uint256) {... */\n      swap2\n      swap1\n      pop\n      jump\t// out\n        /* \"@openzeppelin/contracts/access/Ownable.sol\":1831:1932  function renounceOwnership() public virtual onlyOwner {... */\n    tag_64:\n        /* \"@openzeppelin/contracts/access/Ownable.sol\":1094:1107  _checkOwner() */\n      tag_128\n        /* \"@openzeppelin/contracts/access/Ownable.sol\":1094:1105  _checkOwner */\n      tag_129\n        /* \"@openzeppelin/contracts/access/Ownable.sol\":1094:1107  _checkOwner() */\n      jump\t// in\n    tag_128:\n        /* \"@openzeppelin/contracts/access/Ownable.sol\":1895:1925  _transferOwnership(address(0)) */\n      tag_131\n        /* \"@openzeppelin/contracts/access/Ownable.sol\":1922:1923  0 */\n      0x00\n        /* \"@openzeppelin/contracts/access/Ownable.sol\":1895:1913  _transferOwnership */\n      tag_132\n        /* \"@openzeppelin/contracts/access/Ownable.sol\":1895:1925  _transferOwnership(address(0)) */\n      jump\t// in\n    tag_131:\n        /* \"@openzeppelin/contracts/access/Ownable.sol\":1831:1932  function renounceOwnership() public virtual onlyOwner {... */\n      jump\t// out\n        /* \"@openzeppelin/contracts/access/Ownable.sol\":1201:1286  function owner() public view virtual returns (address) {... */\n    tag_66:\n        /* \"@openzeppelin/contracts/access/Ownable.sol\":1247:1254  address */\n      0x00\n        /* \"@openzeppelin/contracts/access/Ownable.sol\":1273:1279  _owner */\n      0x05\n      0x00\n      swap1\n      sload\n      swap1\n      0x0100\n      exp\n      swap1\n      div\n      0xffffffffffffffffffffffffffffffffffffffff\n      and\n        /* \"@openzeppelin/contracts/access/Ownable.sol\":1266:1279  return _owner */\n      swap1\n      pop\n        /* \"@openzeppelin/contracts/access/Ownable.sol\":1201:1286  function owner() public view virtual returns (address) {... */\n      swap1\n      jump\t// out\n        /* \"@openzeppelin/contracts/token/ERC20/ERC20.sol\":2365:2467  function symbol() public view virtual override returns (string memory) {... */\n    tag_69:\n        /* \"@openzeppelin/contracts/token/ERC20/ERC20.sol\":2421:2434  string memory */\n      0x60\n        /* \"@openzeppelin/contracts/token/ERC20/ERC20.sol\":2453:2460  _symbol */\n      0x04\n        /* \"@openzeppelin/contracts/token/ERC20/ERC20.sol\":2446:2460  return _symbol */\n      dup1\n      sload\n      tag_135\n      swap1\n      tag_95\n      jump\t// in\n    tag_135:\n      dup1\n      0x1f\n      add\n      0x20\n      dup1\n      swap2\n      div\n      mul\n      0x20\n      add\n      mload(0x40)\n      swap1\n      dup2\n      add\n      0x40\n      mstore\n      dup1\n      swap3\n      swap2\n      swap1\n      dup2\n      dup2\n      mstore\n      0x20\n      add\n      dup3\n      dup1\n      sload\n      tag_136\n      swap1\n      tag_95\n      jump\t// in\n    tag_136:\n      dup1\n      iszero\n      tag_137\n      jumpi\n      dup1\n      0x1f\n      lt\n      tag_138\n      jumpi\n      0x0100\n      dup1\n      dup4\n      sload\n      div\n      mul\n      dup4\n      mstore\n      swap2\n      0x20\n      add\n      swap2\n      jump(tag_137)\n    tag_138:\n      dup3\n      add\n      swap2\n      swap1\n      0x00\n      mstore\n      keccak256(0x00, 0x20)\n      swap1\n    tag_139:\n      dup2\n      sload\n      dup2\n      mstore\n      swap1\n      0x01\n      add\n      swap1\n      0x20\n      add\n      dup1\n      dup4\n      gt\n      tag_139\n      jumpi\n      dup3\n      swap1\n      sub\n      0x1f\n      and\n      dup3\n      add\n      swap2\n    tag_137:\n      pop\n      pop\n      pop\n      pop\n      pop\n      swap1\n      pop\n        /* \"@openzeppelin/contracts/token/ERC20/ERC20.sol\":2365:2467  function symbol() public view virtual override returns (string memory) {... */\n      swap1\n      jump\t// out\n        /* \"Other/RToken.sol\":563:659  function burn(address to, uint256 amount) public onlyApproved {... */\n    tag_73:\n        /* \"Other/RToken.sol\":410:418  approved */\n      0x06\n      0x00\n      swap1\n      sload\n      swap1\n      0x0100\n      exp\n      swap1\n      div\n      0xffffffffffffffffffffffffffffffffffffffff\n      and\n        /* \"Other/RToken.sol\":396:418  msg.sender == approved */\n      0xffffffffffffffffffffffffffffffffffffffff\n      and\n        /* \"Other/RToken.sol\":396:406  msg.sender */\n      caller\n        /* \"Other/RToken.sol\":396:418  msg.sender == approved */\n      0xffffffffffffffffffffffffffffffffffffffff\n      and\n      eq\n        /* \"Other/RToken.sol\":388:437  require(msg.sender == approved, \"Not Authorised\") */\n      tag_141\n      jumpi\n      mload(0x40)\n      0x08c379a000000000000000000000000000000000000000000000000000000000\n      dup2\n      mstore\n      0x04\n      add\n      tag_142\n      swap1\n      tag_122\n      jump\t// in\n    tag_142:\n      mload(0x40)\n      dup1\n      swap2\n      sub\n      swap1\n      revert\n    tag_141:\n        /* \"Other/RToken.sol\":635:652  _burn(to, amount) */\n      tag_144\n        /* \"Other/RToken.sol\":641:643  to */\n      dup3\n        /* \"Other/RToken.sol\":645:651  amount */\n      dup3\n        /* \"Other/RToken.sol\":635:640  _burn */\n      tag_145\n        /* \"Other/RToken.sol\":635:652  _burn(to, amount) */\n      jump\t// in\n    tag_144:\n        /* \"Other/RToken.sol\":563:659  function burn(address to, uint256 amount) public onlyApproved {... */\n      pop\n      pop\n      jump\t// out\n        /* \"@openzeppelin/contracts/token/ERC20/ERC20.sol\":6592:7019  function decreaseAllowance(address spender, uint256 subtractedValue) public virtual returns (bool) {... */\n    tag_76:\n        /* \"@openzeppelin/contracts/token/ERC20/ERC20.sol\":6685:6689  bool */\n      0x00\n        /* \"@openzeppelin/contracts/token/ERC20/ERC20.sol\":6701:6714  address owner */\n      dup1\n        /* \"@openzeppelin/contracts/token/ERC20/ERC20.sol\":6717:6729  _msgSender() */\n      tag_147\n        /* \"@openzeppelin/contracts/token/ERC20/ERC20.sol\":6717:6727  _msgSender */\n      tag_102\n        /* \"@openzeppelin/contracts/token/ERC20/ERC20.sol\":6717:6729  _msgSender() */\n      jump\t// in\n    tag_147:\n        /* \"@openzeppelin/contracts/token/ERC20/ERC20.sol\":6701:6729  address owner = _msgSender() */\n      swap1\n      pop\n        /* \"@openzeppelin/contracts/token/ERC20/ERC20.sol\":6739:6763  uint256 currentAllowance */\n      0x00\n        /* \"@openzeppelin/contracts/token/ERC20/ERC20.sol\":6766:6791  allowance(owner, spender) */\n      tag_148\n        /* \"@openzeppelin/contracts/token/ERC20/ERC20.sol\":6776:6781  owner */\n      dup3\n        /* \"@openzeppelin/contracts/token/ERC20/ERC20.sol\":6783:6790  spender */\n      dup7\n        /* \"@openzeppelin/contracts/token/ERC20/ERC20.sol\":6766:6775  allowance */\n      tag_85\n        /* \"@openzeppelin/contracts/token/ERC20/ERC20.sol\":6766:6791  allowance(owner, spender) */\n      jump\t// in\n    tag_148:\n        /* \"@openzeppelin/contracts/token/ERC20/ERC20.sol\":6739:6791  uint256 currentAllowance = allowance(owner, spender) */\n      swap1\n      pop\n        /* \"@openzeppelin/contracts/token/ERC20/ERC20.sol\":6829:6844  subtractedValue */\n      dup4\n        /* \"@openzeppelin/contracts/token/ERC20/ERC20.sol\":6809:6825  currentAllowance */\n      dup2\n        /* \"@openzeppelin/contracts/token/ERC20/ERC20.sol\":6809:6844  currentAllowance >= subtractedValue */\n      lt\n      iszero\n        /* \"@openzeppelin/contracts/token/ERC20/ERC20.sol\":6801:6886  require(currentAllowance >= subtractedValue, \"ERC20: decreased allowance below zero\") */\n      tag_149\n      jumpi\n      mload(0x40)\n      0x08c379a000000000000000000000000000000000000000000000000000000000\n      dup2\n      mstore\n      0x04\n      add\n      tag_150\n      swap1\n      tag_151\n      jump\t// in\n    tag_150:\n      mload(0x40)\n      dup1\n      swap2\n      sub\n      swap1\n      revert\n    tag_149:\n        /* \"@openzeppelin/contracts/token/ERC20/ERC20.sol\":6920:6980  _approve(owner, spender, currentAllowance - subtractedValue) */\n      tag_152\n        /* \"@openzeppelin/contracts/token/ERC20/ERC20.sol\":6929:6934  owner */\n      dup3\n        /* \"@openzeppelin/contracts/token/ERC20/ERC20.sol\":6936:6943  spender */\n      dup7\n        /* \"@openzeppelin/contracts/token/ERC20/ERC20.sol\":6964:6979  subtractedValue */\n      dup7\n        /* \"@openzeppelin/contracts/token/ERC20/ERC20.sol\":6945:6961  currentAllowance */\n      dup5\n        /* \"@openzeppelin/contracts/token/ERC20/ERC20.sol\":6945:6979  currentAllowance - subtractedValue */\n      sub\n        /* \"@openzeppelin/contracts/token/ERC20/ERC20.sol\":6920:6928  _approve */\n      tag_104\n        /* \"@openzeppelin/contracts/token/ERC20/ERC20.sol\":6920:6980  _approve(owner, spender, currentAllowance - subtractedValue) */\n      jump\t// in\n    tag_152:\n        /* \"@openzeppelin/contracts/token/ERC20/ERC20.sol\":7008:7012  true */\n      0x01\n        /* \"@openzeppelin/contracts/token/ERC20/ERC20.sol\":7001:7012  return true */\n      swap3\n      pop\n      pop\n      pop\n        /* \"@openzeppelin/contracts/token/ERC20/ERC20.sol\":6592:7019  function decreaseAllowance(address spender, uint256 subtractedValue) public virtual returns (bool) {... */\n      swap3\n      swap2\n      pop\n      pop\n      jump\t// out\n        /* \"@openzeppelin/contracts/token/ERC20/ERC20.sol\":3727:3916  function transfer(address to, uint256 amount) public virtual override returns (bool) {... */\n    tag_80:\n        /* \"@openzeppelin/contracts/token/ERC20/ERC20.sol\":3806:3810  bool */\n      0x00\n        /* \"@openzeppelin/contracts/token/ERC20/ERC20.sol\":3822:3835  address owner */\n      dup1\n        /* \"@openzeppelin/contracts/token/ERC20/ERC20.sol\":3838:3850  _msgSender() */\n      tag_154\n        /* \"@openzeppelin/contracts/token/ERC20/ERC20.sol\":3838:3848  _msgSender */\n      tag_102\n        /* \"@openzeppelin/contracts/token/ERC20/ERC20.sol\":3838:3850  _msgSender() */\n      jump\t// in\n    tag_154:\n        /* \"@openzeppelin/contracts/token/ERC20/ERC20.sol\":3822:3850  address owner = _msgSender() */\n      swap1\n      pop\n        /* \"@openzeppelin/contracts/token/ERC20/ERC20.sol\":3860:3888  _transfer(owner, to, amount) */\n      tag_155\n        /* \"@openzeppelin/contracts/token/ERC20/ERC20.sol\":3870:3875  owner */\n      dup2\n        /* \"@openzeppelin/contracts/token/ERC20/ERC20.sol\":3877:3879  to */\n      dup6\n        /* \"@openzeppelin/contracts/token/ERC20/ERC20.sol\":3881:3887  amount */\n      dup6\n        /* \"@openzeppelin/contracts/token/ERC20/ERC20.sol\":3860:3869  _transfer */\n      tag_111\n        /* \"@openzeppelin/contracts/token/ERC20/ERC20.sol\":3860:3888  _transfer(owner, to, amount) */\n      jump\t// in\n    tag_155:\n        /* \"@openzeppelin/contracts/token/ERC20/ERC20.sol\":3905:3909  true */\n      0x01\n        /* \"@openzeppelin/contracts/token/ERC20/ERC20.sol\":3898:3909  return true */\n      swap2\n      pop\n      pop\n        /* \"@openzeppelin/contracts/token/ERC20/ERC20.sol\":3727:3916  function transfer(address to, uint256 amount) public virtual override returns (bool) {... */\n      swap3\n      swap2\n      pop\n      pop\n      jump\t// out\n        /* \"@openzeppelin/contracts/token/ERC20/ERC20.sol\":3974:4123  function allowance(address owner, address spender) public view virtual override returns (uint256) {... */\n    tag_85:\n        /* \"@openzeppelin/contracts/token/ERC20/ERC20.sol\":4063:4070  uint256 */\n      0x00\n        /* \"@openzeppelin/contracts/token/ERC20/ERC20.sol\":4089:4100  _allowances */\n      0x01\n        /* \"@openzeppelin/contracts/token/ERC20/ERC20.sol\":4089:4107  _allowances[owner] */\n      0x00\n        /* \"@openzeppelin/contracts/token/ERC20/ERC20.sol\":4101:4106  owner */\n      dup5\n        /* \"@openzeppelin/contracts/token/ERC20/ERC20.sol\":4089:4107  _allowances[owner] */\n      0xffffffffffffffffffffffffffffffffffffffff\n      and\n      0xffffffffffffffffffffffffffffffffffffffff\n      and\n      dup2\n      mstore\n      0x20\n      add\n      swap1\n      dup2\n      mstore\n      0x20\n      add\n      0x00\n      keccak256\n        /* \"@openzeppelin/contracts/token/ERC20/ERC20.sol\":4089:4116  _allowances[owner][spender] */\n      0x00\n        /* \"@openzeppelin/contracts/token/ERC20/ERC20.sol\":4108:4115  spender */\n      dup4\n        /* \"@openzeppelin/contracts/token/ERC20/ERC20.sol\":4089:4116  _allowances[owner][spender] */\n      0xffffffffffffffffffffffffffffffffffffffff\n      and\n      0xffffffffffffffffffffffffffffffffffffffff\n      and\n      dup2\n      mstore\n      0x20\n      add\n      swap1\n      dup2\n      mstore\n      0x20\n      add\n      0x00\n      keccak256\n      sload\n        /* \"@openzeppelin/contracts/token/ERC20/ERC20.sol\":4082:4116  return _allowances[owner][spender] */\n      swap1\n      pop\n        /* \"@openzeppelin/contracts/token/ERC20/ERC20.sol\":3974:4123  function allowance(address owner, address spender) public view virtual override returns (uint256) {... */\n      swap3\n      swap2\n      pop\n      pop\n      jump\t// out\n        /* \"@openzeppelin/contracts/access/Ownable.sol\":2081:2279  function transferOwnership(address newOwner) public virtual onlyOwner {... */\n    tag_89:\n        /* \"@openzeppelin/contracts/access/Ownable.sol\":1094:1107  _checkOwner() */\n      tag_158\n        /* \"@openzeppelin/contracts/access/Ownable.sol\":1094:1105  _checkOwner */\n      tag_129\n        /* \"@openzeppelin/contracts/access/Ownable.sol\":1094:1107  _checkOwner() */\n      jump\t// in\n    tag_158:\n        /* \"@openzeppelin/contracts/access/Ownable.sol\":2189:2190  0 */\n      0x00\n        /* \"@openzeppelin/contracts/access/Ownable.sol\":2169:2191  newOwner != address(0) */\n      0xffffffffffffffffffffffffffffffffffffffff\n      and\n        /* \"@openzeppelin/contracts/access/Ownable.sol\":2169:2177  newOwner */\n      dup2\n        /* \"@openzeppelin/contracts/access/Ownable.sol\":2169:2191  newOwner != address(0) */\n      0xffffffffffffffffffffffffffffffffffffffff\n      and\n      sub\n        /* \"@openzeppelin/contracts/access/Ownable.sol\":2161:2234  require(newOwner != address(0), \"Ownable: new owner is the zero address\") */\n      tag_160\n      jumpi\n      mload(0x40)\n      0x08c379a000000000000000000000000000000000000000000000000000000000\n      dup2\n      mstore\n      0x04\n      add\n      tag_161\n      swap1\n      tag_162\n      jump\t// in\n    tag_161:\n      mload(0x40)\n      dup1\n      swap2\n      sub\n      swap1\n      revert\n    tag_160:\n        /* \"@openzeppelin/contracts/access/Ownable.sol\":2244:2272  _transferOwnership(newOwner) */\n      tag_163\n        /* \"@openzeppelin/contracts/access/Ownable.sol\":2263:2271  newOwner */\n      dup2\n        /* \"@openzeppelin/contracts/access/Ownable.sol\":2244:2262  _transferOwnership */\n      tag_132\n        /* \"@openzeppelin/contracts/access/Ownable.sol\":2244:2272  _transferOwnership(newOwner) */\n      jump\t// in\n    tag_163:\n        /* \"@openzeppelin/contracts/access/Ownable.sol\":2081:2279  function transferOwnership(address newOwner) public virtual onlyOwner {... */\n      pop\n      jump\t// out\n        /* \"Other/RToken.sol\":665:759  function setApproved(address _approved) public onlyOwner {... */\n    tag_92:\n        /* \"@openzeppelin/contracts/access/Ownable.sol\":1094:1107  _checkOwner() */\n      tag_165\n        /* \"@openzeppelin/contracts/access/Ownable.sol\":1094:1105  _checkOwner */\n      tag_129\n        /* \"@openzeppelin/contracts/access/Ownable.sol\":1094:1107  _checkOwner() */\n      jump\t// in\n    tag_165:\n        /* \"Other/RToken.sol\":743:752  _approved */\n      dup1\n        /* \"Other/RToken.sol\":732:740  approved */\n      0x06\n      0x00\n        /* \"Other/RToken.sol\":732:752  approved = _approved */\n      0x0100\n      exp\n      dup2\n      sload\n      dup2\n      0xffffffffffffffffffffffffffffffffffffffff\n      mul\n      not\n      and\n      swap1\n      dup4\n      0xffffffffffffffffffffffffffffffffffffffff\n      and\n      mul\n      or\n      swap1\n      sstore\n      pop\n        /* \"Other/RToken.sol\":665:759  function setApproved(address _approved) public onlyOwner {... */\n      pop\n      jump\t// out\n        /* \"@openzeppelin/contracts/utils/Context.sol\":640:736  function _msgSender() internal view virtual returns (address) {... */\n    tag_102:\n        /* \"@openzeppelin/contracts/utils/Context.sol\":693:700  address */\n      0x00\n        /* \"@openzeppelin/contracts/utils/Context.sol\":719:729  msg.sender */\n      caller\n        /* \"@openzeppelin/contracts/utils/Context.sol\":712:729  return msg.sender */\n      swap1\n      pop\n        /* \"@openzeppelin/contracts/utils/Context.sol\":640:736  function _msgSender() internal view virtual returns (address) {... */\n      swap1\n      jump\t// out\n        /* \"@openzeppelin/contracts/token/ERC20/ERC20.sol\":10504:10874  function _approve(... */\n    tag_104:\n        /* \"@openzeppelin/contracts/token/ERC20/ERC20.sol\":10652:10653  0 */\n      0x00\n        /* \"@openzeppelin/contracts/token/ERC20/ERC20.sol\":10635:10654  owner != address(0) */\n      0xffffffffffffffffffffffffffffffffffffffff\n      and\n        /* \"@openzeppelin/contracts/token/ERC20/ERC20.sol\":10635:10640  owner */\n      dup4\n        /* \"@openzeppelin/contracts/token/ERC20/ERC20.sol\":10635:10654  owner != address(0) */\n      0xffffffffffffffffffffffffffffffffffffffff\n      and\n      sub\n        /* \"@openzeppelin/contracts/token/ERC20/ERC20.sol\":10627:10695  require(owner != address(0), \"ERC20: approve from the zero address\") */\n      tag_169\n      jumpi\n      mload(0x40)\n      0x08c379a000000000000000000000000000000000000000000000000000000000\n      dup2\n      mstore\n      0x04\n      add\n      tag_170\n      swap1\n      tag_171\n      jump\t// in\n    tag_170:\n      mload(0x40)\n      dup1\n      swap2\n      sub\n      swap1\n      revert\n    tag_169:\n        /* \"@openzeppelin/contracts/token/ERC20/ERC20.sol\":10732:10733  0 */\n      0x00\n        /* \"@openzeppelin/contracts/token/ERC20/ERC20.sol\":10713:10734  spender != address(0) */\n      0xffffffffffffffffffffffffffffffffffffffff\n      and\n        /* \"@openzeppelin/contracts/token/ERC20/ERC20.sol\":10713:10720  spender */\n      dup3\n        /* \"@openzeppelin/contracts/token/ERC20/ERC20.sol\":10713:10734  spender != address(0) */\n      0xffffffffffffffffffffffffffffffffffffffff\n      and\n      sub\n        /* \"@openzeppelin/contracts/token/ERC20/ERC20.sol\":10705:10773  require(spender != address(0), \"ERC20: approve to the zero address\") */\n      tag_172\n      jumpi\n      mload(0x40)\n      0x08c379a000000000000000000000000000000000000000000000000000000000\n      dup2\n      mstore\n      0x04\n      add\n      tag_173\n      swap1\n      tag_174\n      jump\t// in\n    tag_173:\n      mload(0x40)\n      dup1\n      swap2\n      sub\n      swap1\n      revert\n    tag_172:\n        /* \"@openzeppelin/contracts/token/ERC20/ERC20.sol\":10814:10820  amount */\n      dup1\n        /* \"@openzeppelin/contracts/token/ERC20/ERC20.sol\":10784:10795  _allowances */\n      0x01\n        /* \"@openzeppelin/contracts/token/ERC20/ERC20.sol\":10784:10802  _allowances[owner] */\n      0x00\n        /* \"@openzeppelin/contracts/token/ERC20/ERC20.sol\":10796:10801  owner */\n      dup6\n        /* \"@openzeppelin/contracts/token/ERC20/ERC20.sol\":10784:10802  _allowances[owner] */\n      0xffffffffffffffffffffffffffffffffffffffff\n      and\n      0xffffffffffffffffffffffffffffffffffffffff\n      and\n      dup2\n      mstore\n      0x20\n      add\n      swap1\n      dup2\n      mstore\n      0x20\n      add\n      0x00\n      keccak256\n        /* \"@openzeppelin/contracts/token/ERC20/ERC20.sol\":10784:10811  _allowances[owner][spender] */\n      0x00\n        /* \"@openzeppelin/contracts/token/ERC20/ERC20.sol\":10803:10810  spender */\n      dup5\n        /* \"@openzeppelin/contracts/token/ERC20/ERC20.sol\":10784:10811  _allowances[owner][spender] */\n      0xffffffffffffffffffffffffffffffffffffffff\n      and\n      0xffffffffffffffffffffffffffffffffffffffff\n      and\n      dup2\n      mstore\n      0x20\n      add\n      swap1\n      dup2\n      mstore\n      0x20\n      add\n      0x00\n      keccak256\n        /* \"@openzeppelin/contracts/token/ERC20/ERC20.sol\":10784:10820  _allowances[owner][spender] = amount */\n      dup2\n      swap1\n      sstore\n      pop\n        /* \"@openzeppelin/contracts/token/ERC20/ERC20.sol\":10851:10858  spender */\n      dup2\n        /* \"@openzeppelin/contracts/token/ERC20/ERC20.sol\":10835:10867  Approval(owner, spender, amount) */\n      0xffffffffffffffffffffffffffffffffffffffff\n      and\n        /* \"@openzeppelin/contracts/token/ERC20/ERC20.sol\":10844:10849  owner */\n      dup4\n        /* \"@openzeppelin/contracts/token/ERC20/ERC20.sol\":10835:10867  Approval(owner, spender, amount) */\n      0xffffffffffffffffffffffffffffffffffffffff\n      and\n      0x8c5be1e5ebec7d5bd14f71427d1e84f3dd0314c0f7b2291e5b200ac8c7c3b925\n        /* \"@openzeppelin/contracts/token/ERC20/ERC20.sol\":10860:10866  amount */\n      dup4\n        /* \"@openzeppelin/contracts/token/ERC20/ERC20.sol\":10835:10867  Approval(owner, spender, amount) */\n      mload(0x40)\n      tag_175\n      swap2\n      swap1\n      tag_37\n      jump\t// in\n    tag_175:\n      mload(0x40)\n      dup1\n      swap2\n      sub\n      swap1\n      log3\n        /* \"@openzeppelin/contracts/token/ERC20/ERC20.sol\":10504:10874  function _approve(... */\n      pop\n      pop\n      pop\n      jump\t// out\n        /* \"@openzeppelin/contracts/token/ERC20/ERC20.sol\":11155:11596  function _spendAllowance(... */\n    tag_109:\n        /* \"@openzeppelin/contracts/token/ERC20/ERC20.sol\":11285:11309  uint256 currentAllowance */\n      0x00\n        /* \"@openzeppelin/contracts/token/ERC20/ERC20.sol\":11312:11337  allowance(owner, spender) */\n      tag_177\n        /* \"@openzeppelin/contracts/token/ERC20/ERC20.sol\":11322:11327  owner */\n      dup5\n        /* \"@openzeppelin/contracts/token/ERC20/ERC20.sol\":11329:11336  spender */\n      dup5\n        /* \"@openzeppelin/contracts/token/ERC20/ERC20.sol\":11312:11321  allowance */\n      tag_85\n        /* \"@openzeppelin/contracts/token/ERC20/ERC20.sol\":11312:11337  allowance(owner, spender) */\n      jump\t// in\n    tag_177:\n        /* \"@openzeppelin/contracts/token/ERC20/ERC20.sol\":11285:11337  uint256 currentAllowance = allowance(owner, spender) */\n      swap1\n      pop\n        /* \"@openzeppelin/contracts/token/ERC20/ERC20.sol\":11371:11388  type(uint256).max */\n      0xffffffffffffffffffffffffffffffffffffffffffffffffffffffffffffffff\n        /* \"@openzeppelin/contracts/token/ERC20/ERC20.sol\":11351:11367  currentAllowance */\n      dup2\n        /* \"@openzeppelin/contracts/token/ERC20/ERC20.sol\":11351:11388  currentAllowance != type(uint256).max */\n      eq\n        /* \"@openzeppelin/contracts/token/ERC20/ERC20.sol\":11347:11590  if (currentAllowance != type(uint256).max) {... */\n      tag_178\n      jumpi\n        /* \"@openzeppelin/contracts/token/ERC20/ERC20.sol\":11432:11438  amount */\n      dup2\n        /* \"@openzeppelin/contracts/token/ERC20/ERC20.sol\":11412:11428  currentAllowance */\n      dup2\n        /* \"@openzeppelin/contracts/token/ERC20/ERC20.sol\":11412:11438  currentAllowance >= amount */\n      lt\n      iszero\n        /* \"@openzeppelin/contracts/token/ERC20/ERC20.sol\":11404:11472  require(currentAllowance >= amount, \"ERC20: insufficient allowance\") */\n      tag_179\n      jumpi\n      mload(0x40)\n      0x08c379a000000000000000000000000000000000000000000000000000000000\n      dup2\n      mstore\n      0x04\n      add\n      tag_180\n      swap1\n      tag_181\n      jump\t// in\n    tag_180:\n      mload(0x40)\n      dup1\n      swap2\n      sub\n      swap1\n      revert\n    tag_179:\n        /* \"@openzeppelin/contracts/token/ERC20/ERC20.sol\":11514:11565  _approve(owner, spender, currentAllowance - amount) */\n      tag_182\n        /* \"@openzeppelin/contracts/token/ERC20/ERC20.sol\":11523:11528  owner */\n      dup5\n        /* \"@openzeppelin/contracts/token/ERC20/ERC20.sol\":11530:11537  spender */\n      dup5\n        /* \"@openzeppelin/contracts/token/ERC20/ERC20.sol\":11558:11564  amount */\n      dup5\n        /* \"@openzeppelin/contracts/token/ERC20/ERC20.sol\":11539:11555  currentAllowance */\n      dup5\n        /* \"@openzeppelin/contracts/token/ERC20/ERC20.sol\":11539:11564  currentAllowance - amount */\n      sub\n        /* \"@openzeppelin/contracts/token/ERC20/ERC20.sol\":11514:11522  _approve */\n      tag_104\n        /* \"@openzeppelin/contracts/token/ERC20/ERC20.sol\":11514:11565  _approve(owner, spender, currentAllowance - amount) */\n      jump\t// in\n    tag_182:\n        /* \"@openzeppelin/contracts/token/ERC20/ERC20.sol\":11347:11590  if (currentAllowance != type(uint256).max) {... */\n    tag_178:\n        /* \"@openzeppelin/contracts/token/ERC20/ERC20.sol\":11275:11596  {... */\n      pop\n        /* \"@openzeppelin/contracts/token/ERC20/ERC20.sol\":11155:11596  function _spendAllowance(... */\n      pop\n      pop\n      pop\n      jump\t// out\n        /* \"@openzeppelin/contracts/token/ERC20/ERC20.sol\":7473:8291  function _transfer(... */\n    tag_111:\n        /* \"@openzeppelin/contracts/token/ERC20/ERC20.sol\":7615:7616  0 */\n      0x00\n        /* \"@openzeppelin/contracts/token/ERC20/ERC20.sol\":7599:7617  from != address(0) */\n      0xffffffffffffffffffffffffffffffffffffffff\n      and\n        /* \"@openzeppelin/contracts/token/ERC20/ERC20.sol\":7599:7603  from */\n      dup4\n        /* \"@openzeppelin/contracts/token/ERC20/ERC20.sol\":7599:7617  from != address(0) */\n      0xffffffffffffffffffffffffffffffffffffffff\n      and\n      sub\n        /* \"@openzeppelin/contracts/token/ERC20/ERC20.sol\":7591:7659  require(from != address(0), \"ERC20: transfer from the zero address\") */\n      tag_184\n      jumpi\n      mload(0x40)\n      0x08c379a000000000000000000000000000000000000000000000000000000000\n      dup2\n      mstore\n      0x04\n      add\n      tag_185\n      swap1\n      tag_186\n      jump\t// in\n    tag_185:\n      mload(0x40)\n      dup1\n      swap2\n      sub\n      swap1\n      revert\n    tag_184:\n        /* \"@openzeppelin/contracts/token/ERC20/ERC20.sol\":7691:7692  0 */\n      0x00\n        /* \"@openzeppelin/contracts/token/ERC20/ERC20.sol\":7677:7693  to != address(0) */\n      0xffffffffffffffffffffffffffffffffffffffff\n      and\n        /* \"@openzeppelin/contracts/token/ERC20/ERC20.sol\":7677:7679  to */\n      dup3\n        /* \"@openzeppelin/contracts/token/ERC20/ERC20.sol\":7677:7693  to != address(0) */\n      0xffffffffffffffffffffffffffffffffffffffff\n      and\n      sub\n        /* \"@openzeppelin/contracts/token/ERC20/ERC20.sol\":7669:7733  require(to != address(0), \"ERC20: transfer to the zero address\") */\n      tag_187\n      jumpi\n      mload(0x40)\n      0x08c379a000000000000000000000000000000000000000000000000000000000\n      dup2\n      mstore\n      0x04\n      add\n      tag_188\n      swap1\n      tag_189\n      jump\t// in\n    tag_188:\n      mload(0x40)\n      dup1\n      swap2\n      sub\n      swap1\n      revert\n    tag_187:\n        /* \"@openzeppelin/contracts/token/ERC20/ERC20.sol\":7744:7782  _beforeTokenTransfer(from, to, amount) */\n      tag_190\n        /* \"@openzeppelin/contracts/token/ERC20/ERC20.sol\":7765:7769  from */\n      dup4\n        /* \"@openzeppelin/contracts/token/ERC20/ERC20.sol\":7771:7773  to */\n      dup4\n        /* \"@openzeppelin/contracts/token/ERC20/ERC20.sol\":7775:7781  amount */\n      dup4\n        /* \"@openzeppelin/contracts/token/ERC20/ERC20.sol\":7744:7764  _beforeTokenTransfer */\n      tag_191\n        /* \"@openzeppelin/contracts/token/ERC20/ERC20.sol\":7744:7782  _beforeTokenTransfer(from, to, amount) */\n      jump\t// in\n    tag_190:\n        /* \"@openzeppelin/contracts/token/ERC20/ERC20.sol\":7793:7812  uint256 fromBalance */\n      0x00\n        /* \"@openzeppelin/contracts/token/ERC20/ERC20.sol\":7815:7824  _balances */\n      dup1\n        /* \"@openzeppelin/contracts/token/ERC20/ERC20.sol\":7815:7830  _balances[from] */\n      0x00\n        /* \"@openzeppelin/contracts/token/ERC20/ERC20.sol\":7825:7829  from */\n      dup6\n        /* \"@openzeppelin/contracts/token/ERC20/ERC20.sol\":7815:7830  _balances[from] */\n      0xffffffffffffffffffffffffffffffffffffffff\n      and\n      0xffffffffffffffffffffffffffffffffffffffff\n      and\n      dup2\n      mstore\n      0x20\n      add\n      swap1\n      dup2\n      mstore\n      0x20\n      add\n      0x00\n      keccak256\n      sload\n        /* \"@openzeppelin/contracts/token/ERC20/ERC20.sol\":7793:7830  uint256 fromBalance = _balances[from] */\n      swap1\n      pop\n        /* \"@openzeppelin/contracts/token/ERC20/ERC20.sol\":7863:7869  amount */\n      dup2\n        /* \"@openzeppelin/contracts/token/ERC20/ERC20.sol\":7848:7859  fromBalance */\n      dup2\n        /* \"@openzeppelin/contracts/token/ERC20/ERC20.sol\":7848:7869  fromBalance >= amount */\n      lt\n      iszero\n        /* \"@openzeppelin/contracts/token/ERC20/ERC20.sol\":7840:7912  require(fromBalance >= amount, \"ERC20: transfer amount exceeds balance\") */\n      tag_192\n      jumpi\n      mload(0x40)\n      0x08c379a000000000000000000000000000000000000000000000000000000000\n      dup2\n      mstore\n      0x04\n      add\n      tag_193\n      swap1\n      tag_194\n      jump\t// in\n    tag_193:\n      mload(0x40)\n      dup1\n      swap2\n      sub\n      swap1\n      revert\n    tag_192:\n        /* \"@openzeppelin/contracts/token/ERC20/ERC20.sol\":7978:7984  amount */\n      dup2\n        /* \"@openzeppelin/contracts/token/ERC20/ERC20.sol\":7964:7975  fromBalance */\n      dup2\n        /* \"@openzeppelin/contracts/token/ERC20/ERC20.sol\":7964:7984  fromBalance - amount */\n      sub\n        /* \"@openzeppelin/contracts/token/ERC20/ERC20.sol\":7946:7955  _balances */\n      0x00\n        /* \"@openzeppelin/contracts/token/ERC20/ERC20.sol\":7946:7961  _balances[from] */\n      dup1\n        /* \"@openzeppelin/contracts/token/ERC20/ERC20.sol\":7956:7960  from */\n      dup7\n        /* \"@openzeppelin/contracts/token/ERC20/ERC20.sol\":7946:7961  _balances[from] */\n      0xffffffffffffffffffffffffffffffffffffffff\n      and\n      0xffffffffffffffffffffffffffffffffffffffff\n      and\n      dup2\n      mstore\n      0x20\n      add\n      swap1\n      dup2\n      mstore\n      0x20\n      add\n      0x00\n      keccak256\n        /* \"@openzeppelin/contracts/token/ERC20/ERC20.sol\":7946:7984  _balances[from] = fromBalance - amount */\n      dup2\n      swap1\n      sstore\n      pop\n        /* \"@openzeppelin/contracts/token/ERC20/ERC20.sol\":8178:8184  amount */\n      dup2\n        /* \"@openzeppelin/contracts/token/ERC20/ERC20.sol\":8161:8170  _balances */\n      0x00\n        /* \"@openzeppelin/contracts/token/ERC20/ERC20.sol\":8161:8174  _balances[to] */\n      dup1\n        /* \"@openzeppelin/contracts/token/ERC20/ERC20.sol\":8171:8173  to */\n      dup6\n        /* \"@openzeppelin/contracts/token/ERC20/ERC20.sol\":8161:8174  _balances[to] */\n      0xffffffffffffffffffffffffffffffffffffffff\n      and\n      0xffffffffffffffffffffffffffffffffffffffff\n      and\n      dup2\n      mstore\n      0x20\n      add\n      swap1\n      dup2\n      mstore\n      0x20\n      add\n      0x00\n      keccak256\n      0x00\n        /* \"@openzeppelin/contracts/token/ERC20/ERC20.sol\":8161:8184  _balances[to] += amount */\n      dup3\n      dup3\n      sload\n      add\n      swap3\n      pop\n      pop\n      dup2\n      swap1\n      sstore\n      pop\n        /* \"@openzeppelin/contracts/token/ERC20/ERC20.sol\":8225:8227  to */\n      dup3\n        /* \"@openzeppelin/contracts/token/ERC20/ERC20.sol\":8210:8236  Transfer(from, to, amount) */\n      0xffffffffffffffffffffffffffffffffffffffff\n      and\n        /* \"@openzeppelin/contracts/token/ERC20/ERC20.sol\":8219:8223  from */\n      dup5\n        /* \"@openzeppelin/contracts/token/ERC20/ERC20.sol\":8210:8236  Transfer(from, to, amount) */\n      0xffffffffffffffffffffffffffffffffffffffff\n      and\n      0xddf252ad1be2c89b69c2b068fc378daa952ba7f163c4a11628f55a4df523b3ef\n        /* \"@openzeppelin/contracts/token/ERC20/ERC20.sol\":8229:8235  amount */\n      dup5\n        /* \"@openzeppelin/contracts/token/ERC20/ERC20.sol\":8210:8236  Transfer(from, to, amount) */\n      mload(0x40)\n      tag_195\n      swap2\n      swap1\n      tag_37\n      jump\t// in\n    tag_195:\n      mload(0x40)\n      dup1\n      swap2\n      sub\n      swap1\n      log3\n        /* \"@openzeppelin/contracts/token/ERC20/ERC20.sol\":8247:8284  _afterTokenTransfer(from, to, amount) */\n      tag_196\n        /* \"@openzeppelin/contracts/token/ERC20/ERC20.sol\":8267:8271  from */\n      dup5\n        /* \"@openzeppelin/contracts/token/ERC20/ERC20.sol\":8273:8275  to */\n      dup5\n        /* \"@openzeppelin/contracts/token/ERC20/ERC20.sol\":8277:8283  amount */\n      dup5\n        /* \"@openzeppelin/contracts/token/ERC20/ERC20.sol\":8247:8266  _afterTokenTransfer */\n      tag_197\n        /* \"@openzeppelin/contracts/token/ERC20/ERC20.sol\":8247:8284  _afterTokenTransfer(from, to, amount) */\n      jump\t// in\n    tag_196:\n        /* \"@openzeppelin/contracts/token/ERC20/ERC20.sol\":7581:8291  {... */\n      pop\n        /* \"@openzeppelin/contracts/token/ERC20/ERC20.sol\":7473:8291  function _transfer(... */\n      pop\n      pop\n      pop\n      jump\t// out\n        /* \"@openzeppelin/contracts/token/ERC20/ERC20.sol\":8567:9102  function _mint(address account, uint256 amount) internal virtual {... */\n    tag_125:\n        /* \"@openzeppelin/contracts/token/ERC20/ERC20.sol\":8669:8670  0 */\n      0x00\n        /* \"@openzeppelin/contracts/token/ERC20/ERC20.sol\":8650:8671  account != address(0) */\n      0xffffffffffffffffffffffffffffffffffffffff\n      and\n        /* \"@openzeppelin/contracts/token/ERC20/ERC20.sol\":8650:8657  account */\n      dup3\n        /* \"@openzeppelin/contracts/token/ERC20/ERC20.sol\":8650:8671  account != address(0) */\n      0xffffffffffffffffffffffffffffffffffffffff\n      and\n      sub\n        /* \"@openzeppelin/contracts/token/ERC20/ERC20.sol\":8642:8707  require(account != address(0), \"ERC20: mint to the zero address\") */\n      tag_199\n      jumpi\n      mload(0x40)\n      0x08c379a000000000000000000000000000000000000000000000000000000000\n      dup2\n      mstore\n      0x04\n      add\n      tag_200\n      swap1\n      tag_201\n      jump\t// in\n    tag_200:\n      mload(0x40)\n      dup1\n      swap2\n      sub\n      swap1\n      revert\n    tag_199:\n        /* \"@openzeppelin/contracts/token/ERC20/ERC20.sol\":8718:8767  _beforeTokenTransfer(address(0), account, amount) */\n      tag_202\n        /* \"@openzeppelin/contracts/token/ERC20/ERC20.sol\":8747:8748  0 */\n      0x00\n        /* \"@openzeppelin/contracts/token/ERC20/ERC20.sol\":8751:8758  account */\n      dup4\n        /* \"@openzeppelin/contracts/token/ERC20/ERC20.sol\":8760:8766  amount */\n      dup4\n        /* \"@openzeppelin/contracts/token/ERC20/ERC20.sol\":8718:8738  _beforeTokenTransfer */\n      tag_191\n        /* \"@openzeppelin/contracts/token/ERC20/ERC20.sol\":8718:8767  _beforeTokenTransfer(address(0), account, amount) */\n      jump\t// in\n    tag_202:\n        /* \"@openzeppelin/contracts/token/ERC20/ERC20.sol\":8794:8800  amount */\n      dup1\n        /* \"@openzeppelin/contracts/token/ERC20/ERC20.sol\":8778:8790  _totalSupply */\n      0x02\n      0x00\n        /* \"@openzeppelin/contracts/token/ERC20/ERC20.sol\":8778:8800  _totalSupply += amount */\n      dup3\n      dup3\n      sload\n      tag_203\n      swap2\n      swap1\n      tag_118\n      jump\t// in\n    tag_203:\n      swap3\n      pop\n      pop\n      dup2\n      swap1\n      sstore\n      pop\n        /* \"@openzeppelin/contracts/token/ERC20/ERC20.sol\":8968:8974  amount */\n      dup1\n        /* \"@openzeppelin/contracts/token/ERC20/ERC20.sol\":8946:8955  _balances */\n      0x00\n        /* \"@openzeppelin/contracts/token/ERC20/ERC20.sol\":8946:8964  _balances[account] */\n      dup1\n        /* \"@openzeppelin/contracts/token/ERC20/ERC20.sol\":8956:8963  account */\n      dup5\n        /* \"@openzeppelin/contracts/token/ERC20/ERC20.sol\":8946:8964  _balances[account] */\n      0xffffffffffffffffffffffffffffffffffffffff\n      and\n      0xffffffffffffffffffffffffffffffffffffffff\n      and\n      dup2\n      mstore\n      0x20\n      add\n      swap1\n      dup2\n      mstore\n      0x20\n      add\n      0x00\n      keccak256\n      0x00\n        /* \"@openzeppelin/contracts/token/ERC20/ERC20.sol\":8946:8974  _balances[account] += amount */\n      dup3\n      dup3\n      sload\n      add\n      swap3\n      pop\n      pop\n      dup2\n      swap1\n      sstore\n      pop\n        /* \"@openzeppelin/contracts/token/ERC20/ERC20.sol\":9020:9027  account */\n      dup2\n        /* \"@openzeppelin/contracts/token/ERC20/ERC20.sol\":8999:9036  Transfer(address(0), account, amount) */\n      0xffffffffffffffffffffffffffffffffffffffff\n      and\n        /* \"@openzeppelin/contracts/token/ERC20/ERC20.sol\":9016:9017  0 */\n      0x00\n        /* \"@openzeppelin/contracts/token/ERC20/ERC20.sol\":8999:9036  Transfer(address(0), account, amount) */\n      0xffffffffffffffffffffffffffffffffffffffff\n      and\n      0xddf252ad1be2c89b69c2b068fc378daa952ba7f163c4a11628f55a4df523b3ef\n        /* \"@openzeppelin/contracts/token/ERC20/ERC20.sol\":9029:9035  amount */\n      dup4\n        /* \"@openzeppelin/contracts/token/ERC20/ERC20.sol\":8999:9036  Transfer(address(0), account, amount) */\n      mload(0x40)\n      tag_204\n      swap2\n      swap1\n      tag_37\n      jump\t// in\n    tag_204:\n      mload(0x40)\n      dup1\n      swap2\n      sub\n      swap1\n      log3\n        /* \"@openzeppelin/contracts/token/ERC20/ERC20.sol\":9047:9095  _afterTokenTransfer(address(0), account, amount) */\n      tag_205\n        /* \"@openzeppelin/contracts/token/ERC20/ERC20.sol\":9075:9076  0 */\n      0x00\n        /* \"@openzeppelin/contracts/token/ERC20/ERC20.sol\":9079:9086  account */\n      dup4\n        /* \"@openzeppelin/contracts/token/ERC20/ERC20.sol\":9088:9094  amount */\n      dup4\n        /* \"@openzeppelin/contracts/token/ERC20/ERC20.sol\":9047:9066  _afterTokenTransfer */\n      tag_197\n        /* \"@openzeppelin/contracts/token/ERC20/ERC20.sol\":9047:9095  _afterTokenTransfer(address(0), account, amount) */\n      jump\t// in\n    tag_205:\n        /* \"@openzeppelin/contracts/token/ERC20/ERC20.sol\":8567:9102  function _mint(address account, uint256 amount) internal virtual {... */\n      pop\n      pop\n      jump\t// out\n        /* \"@openzeppelin/contracts/access/Ownable.sol\":1359:1489  function _checkOwner() internal view virtual {... */\n    tag_129:\n        /* \"@openzeppelin/contracts/access/Ownable.sol\":1433:1445  _msgSender() */\n      tag_207\n        /* \"@openzeppelin/contracts/access/Ownable.sol\":1433:1443  _msgSender */\n      tag_102\n        /* \"@openzeppelin/contracts/access/Ownable.sol\":1433:1445  _msgSender() */\n      jump\t// in\n    tag_207:\n        /* \"@openzeppelin/contracts/access/Ownable.sol\":1422:1445  owner() == _msgSender() */\n      0xffffffffffffffffffffffffffffffffffffffff\n      and\n        /* \"@openzeppelin/contracts/access/Ownable.sol\":1422:1429  owner() */\n      tag_208\n        /* \"@openzeppelin/contracts/access/Ownable.sol\":1422:1427  owner */\n      tag_66\n        /* \"@openzeppelin/contracts/access/Ownable.sol\":1422:1429  owner() */\n      jump\t// in\n    tag_208:\n        /* \"@openzeppelin/contracts/access/Ownable.sol\":1422:1445  owner() == _msgSender() */\n      0xffffffffffffffffffffffffffffffffffffffff\n      and\n      eq\n        /* \"@openzeppelin/contracts/access/Ownable.sol\":1414:1482  require(owner() == _msgSender(), \"Ownable: caller is not the owner\") */\n      tag_209\n      jumpi\n      mload(0x40)\n      0x08c379a000000000000000000000000000000000000000000000000000000000\n      dup2\n      mstore\n      0x04\n      add\n      tag_210\n      swap1\n      tag_211\n      jump\t// in\n    tag_210:\n      mload(0x40)\n      dup1\n      swap2\n      sub\n      swap1\n      revert\n    tag_209:\n        /* \"@openzeppelin/contracts/access/Ownable.sol\":1359:1489  function _checkOwner() internal view virtual {... */\n      jump\t// out\n        /* \"@openzeppelin/contracts/access/Ownable.sol\":2433:2620  function _transferOwnership(address newOwner) internal virtual {... */\n    tag_132:\n        /* \"@openzeppelin/contracts/access/Ownable.sol\":2506:2522  address oldOwner */\n      0x00\n        /* \"@openzeppelin/contracts/access/Ownable.sol\":2525:2531  _owner */\n      0x05\n      0x00\n      swap1\n      sload\n      swap1\n      0x0100\n      exp\n      swap1\n      div\n      0xffffffffffffffffffffffffffffffffffffffff\n      and\n        /* \"@openzeppelin/contracts/access/Ownable.sol\":2506:2531  address oldOwner = _owner */\n      swap1\n      pop\n        /* \"@openzeppelin/contracts/access/Ownable.sol\":2550:2558  newOwner */\n      dup2\n        /* \"@openzeppelin/contracts/access/Ownable.sol\":2541:2547  _owner */\n      0x05\n      0x00\n        /* \"@openzeppelin/contracts/access/Ownable.sol\":2541:2558  _owner = newOwner */\n      0x0100\n      exp\n      dup2\n      sload\n      dup2\n      0xffffffffffffffffffffffffffffffffffffffff\n      mul\n      not\n      and\n      swap1\n      dup4\n      0xffffffffffffffffffffffffffffffffffffffff\n      and\n      mul\n      or\n      swap1\n      sstore\n      pop\n        /* \"@openzeppelin/contracts/access/Ownable.sol\":2604:2612  newOwner */\n      dup2\n        /* \"@openzeppelin/contracts/access/Ownable.sol\":2573:2613  OwnershipTransferred(oldOwner, newOwner) */\n      0xffffffffffffffffffffffffffffffffffffffff\n      and\n        /* \"@openzeppelin/contracts/access/Ownable.sol\":2594:2602  oldOwner */\n      dup2\n        /* \"@openzeppelin/contracts/access/Ownable.sol\":2573:2613  OwnershipTransferred(oldOwner, newOwner) */\n      0xffffffffffffffffffffffffffffffffffffffff\n      and\n      0x8be0079c531659141344cd1fd0a4f28419497f9722a3daafe3b4186f6b6457e0\n      mload(0x40)\n      mload(0x40)\n      dup1\n      swap2\n      sub\n      swap1\n      log3\n        /* \"@openzeppelin/contracts/access/Ownable.sol\":2496:2620  {... */\n      pop\n        /* \"@openzeppelin/contracts/access/Ownable.sol\":2433:2620  function _transferOwnership(address newOwner) internal virtual {... */\n      pop\n      jump\t// out\n        /* \"@openzeppelin/contracts/token/ERC20/ERC20.sol\":9422:10081  function _burn(address account, uint256 amount) internal virtual {... */\n    tag_145:\n        /* \"@openzeppelin/contracts/token/ERC20/ERC20.sol\":9524:9525  0 */\n      0x00\n        /* \"@openzeppelin/contracts/token/ERC20/ERC20.sol\":9505:9526  account != address(0) */\n      0xffffffffffffffffffffffffffffffffffffffff\n      and\n        /* \"@openzeppelin/contracts/token/ERC20/ERC20.sol\":9505:9512  account */\n      dup3\n        /* \"@openzeppelin/contracts/token/ERC20/ERC20.sol\":9505:9526  account != address(0) */\n      0xffffffffffffffffffffffffffffffffffffffff\n      and\n      sub\n        /* \"@openzeppelin/contracts/token/ERC20/ERC20.sol\":9497:9564  require(account != address(0), \"ERC20: burn from the zero address\") */\n      tag_214\n      jumpi\n      mload(0x40)\n      0x08c379a000000000000000000000000000000000000000000000000000000000\n      dup2\n      mstore\n      0x04\n      add\n      tag_215\n      swap1\n      tag_216\n      jump\t// in\n    tag_215:\n      mload(0x40)\n      dup1\n      swap2\n      sub\n      swap1\n      revert\n    tag_214:\n        /* \"@openzeppelin/contracts/token/ERC20/ERC20.sol\":9575:9624  _beforeTokenTransfer(account, address(0), amount) */\n      tag_217\n        /* \"@openzeppelin/contracts/token/ERC20/ERC20.sol\":9596:9603  account */\n      dup3\n        /* \"@openzeppelin/contracts/token/ERC20/ERC20.sol\":9613:9614  0 */\n      0x00\n        /* \"@openzeppelin/contracts/token/ERC20/ERC20.sol\":9617:9623  amount */\n      dup4\n        /* \"@openzeppelin/contracts/token/ERC20/ERC20.sol\":9575:9595  _beforeTokenTransfer */\n      tag_191\n        /* \"@openzeppelin/contracts/token/ERC20/ERC20.sol\":9575:9624  _beforeTokenTransfer(account, address(0), amount) */\n      jump\t// in\n    tag_217:\n        /* \"@openzeppelin/contracts/token/ERC20/ERC20.sol\":9635:9657  uint256 accountBalance */\n      0x00\n        /* \"@openzeppelin/contracts/token/ERC20/ERC20.sol\":9660:9669  _balances */\n      dup1\n        /* \"@openzeppelin/contracts/token/ERC20/ERC20.sol\":9660:9678  _balances[account] */\n      0x00\n        /* \"@openzeppelin/contracts/token/ERC20/ERC20.sol\":9670:9677  account */\n      dup5\n        /* \"@openzeppelin/contracts/token/ERC20/ERC20.sol\":9660:9678  _balances[account] */\n      0xffffffffffffffffffffffffffffffffffffffff\n      and\n      0xffffffffffffffffffffffffffffffffffffffff\n      and\n      dup2\n      mstore\n      0x20\n      add\n      swap1\n      dup2\n      mstore\n      0x20\n      add\n      0x00\n      keccak256\n      sload\n        /* \"@openzeppelin/contracts/token/ERC20/ERC20.sol\":9635:9678  uint256 accountBalance = _balances[account] */\n      swap1\n      pop\n        /* \"@openzeppelin/contracts/token/ERC20/ERC20.sol\":9714:9720  amount */\n      dup2\n        /* \"@openzeppelin/contracts/token/ERC20/ERC20.sol\":9696:9710  accountBalance */\n      dup2\n        /* \"@openzeppelin/contracts/token/ERC20/ERC20.sol\":9696:9720  accountBalance >= amount */\n      lt\n      iszero\n        /* \"@openzeppelin/contracts/token/ERC20/ERC20.sol\":9688:9759  require(accountBalance >= amount, \"ERC20: burn amount exceeds balance\") */\n      tag_218\n      jumpi\n      mload(0x40)\n      0x08c379a000000000000000000000000000000000000000000000000000000000\n      dup2\n      mstore\n      0x04\n      add\n      tag_219\n      swap1\n      tag_220\n      jump\t// in\n    tag_219:\n      mload(0x40)\n      dup1\n      swap2\n      sub\n      swap1\n      revert\n    tag_218:\n        /* \"@openzeppelin/contracts/token/ERC20/ERC20.sol\":9831:9837  amount */\n      dup2\n        /* \"@openzeppelin/contracts/token/ERC20/ERC20.sol\":9814:9828  accountBalance */\n      dup2\n        /* \"@openzeppelin/contracts/token/ERC20/ERC20.sol\":9814:9837  accountBalance - amount */\n      sub\n        /* \"@openzeppelin/contracts/token/ERC20/ERC20.sol\":9793:9802  _balances */\n      0x00\n        /* \"@openzeppelin/contracts/token/ERC20/ERC20.sol\":9793:9811  _balances[account] */\n      dup1\n        /* \"@openzeppelin/contracts/token/ERC20/ERC20.sol\":9803:9810  account */\n      dup6\n        /* \"@openzeppelin/contracts/token/ERC20/ERC20.sol\":9793:9811  _balances[account] */\n      0xffffffffffffffffffffffffffffffffffffffff\n      and\n      0xffffffffffffffffffffffffffffffffffffffff\n      and\n      dup2\n      mstore\n      0x20\n      add\n      swap1\n      dup2\n      mstore\n      0x20\n      add\n      0x00\n      keccak256\n        /* \"@openzeppelin/contracts/token/ERC20/ERC20.sol\":9793:9837  _balances[account] = accountBalance - amount */\n      dup2\n      swap1\n      sstore\n      pop\n        /* \"@openzeppelin/contracts/token/ERC20/ERC20.sol\":9946:9952  amount */\n      dup2\n        /* \"@openzeppelin/contracts/token/ERC20/ERC20.sol\":9930:9942  _totalSupply */\n      0x02\n      0x00\n        /* \"@openzeppelin/contracts/token/ERC20/ERC20.sol\":9930:9952  _totalSupply -= amount */\n      dup3\n      dup3\n      sload\n      sub\n      swap3\n      pop\n      pop\n      dup2\n      swap1\n      sstore\n      pop\n        /* \"@openzeppelin/contracts/token/ERC20/ERC20.sol\":10004:10005  0 */\n      0x00\n        /* \"@openzeppelin/contracts/token/ERC20/ERC20.sol\":9978:10015  Transfer(account, address(0), amount) */\n      0xffffffffffffffffffffffffffffffffffffffff\n      and\n        /* \"@openzeppelin/contracts/token/ERC20/ERC20.sol\":9987:9994  account */\n      dup4\n        /* \"@openzeppelin/contracts/token/ERC20/ERC20.sol\":9978:10015  Transfer(account, address(0), amount) */\n      0xffffffffffffffffffffffffffffffffffffffff\n      and\n      0xddf252ad1be2c89b69c2b068fc378daa952ba7f163c4a11628f55a4df523b3ef\n        /* \"@openzeppelin/contracts/token/ERC20/ERC20.sol\":10008:10014  amount */\n      dup5\n        /* \"@openzeppelin/contracts/token/ERC20/ERC20.sol\":9978:10015  Transfer(account, address(0), amount) */\n      mload(0x40)\n      tag_221\n      swap2\n      swap1\n      tag_37\n      jump\t// in\n    tag_221:\n      mload(0x40)\n      dup1\n      swap2\n      sub\n      swap1\n      log3\n        /* \"@openzeppelin/contracts/token/ERC20/ERC20.sol\":10026:10074  _afterTokenTransfer(account, address(0), amount) */\n      tag_222\n        /* \"@openzeppelin/contracts/token/ERC20/ERC20.sol\":10046:10053  account */\n      dup4\n        /* \"@openzeppelin/contracts/token/ERC20/ERC20.sol\":10063:10064  0 */\n      0x00\n        /* \"@openzeppelin/contracts/token/ERC20/ERC20.sol\":10067:10073  amount */\n      dup5\n        /* \"@openzeppelin/contracts/token/ERC20/ERC20.sol\":10026:10045  _afterTokenTransfer */\n      tag_197\n        /* \"@openzeppelin/contracts/token/ERC20/ERC20.sol\":10026:10074  _afterTokenTransfer(account, address(0), amount) */\n      jump\t// in\n    tag_222:\n        /* \"@openzeppelin/contracts/token/ERC20/ERC20.sol\":9487:10081  {... */\n      pop\n        /* \"@openzeppelin/contracts/token/ERC20/ERC20.sol\":9422:10081  function _burn(address account, uint256 amount) internal virtual {... */\n      pop\n      pop\n      jump\t// out\n        /* \"@openzeppelin/contracts/token/ERC20/ERC20.sol\":12180:12301  function _beforeTokenTransfer(... */\n    tag_191:\n      pop\n      pop\n      pop\n      jump\t// out\n        /* \"@openzeppelin/contracts/token/ERC20/ERC20.sol\":12889:13009  function _afterTokenTransfer(... */\n    tag_197:\n      pop\n      pop\n      pop\n      jump\t// out\n        /* \"#utility.yul\":7:106   */\n    tag_225:\n        /* \"#utility.yul\":59:65   */\n      0x00\n        /* \"#utility.yul\":93:98   */\n      dup2\n        /* \"#utility.yul\":87:99   */\n      mload\n        /* \"#utility.yul\":77:99   */\n      swap1\n      pop\n        /* \"#utility.yul\":7:106   */\n      swap2\n      swap1\n      pop\n      jump\t// out\n        /* \"#utility.yul\":112:281   */\n    tag_226:\n        /* \"#utility.yul\":196:207   */\n      0x00\n        /* \"#utility.yul\":230:236   */\n      dup3\n        /* \"#utility.yul\":225:228   */\n      dup3\n        /* \"#utility.yul\":218:237   */\n      mstore\n        /* \"#utility.yul\":270:274   */\n      0x20\n        /* \"#utility.yul\":265:268   */\n      dup3\n        /* \"#utility.yul\":261:275   */\n      add\n        /* \"#utility.yul\":246:275   */\n      swap1\n      pop\n        /* \"#utility.yul\":112:281   */\n      swap3\n      swap2\n      pop\n      pop\n      jump\t// out\n        /* \"#utility.yul\":287:594   */\n    tag_227:\n        /* \"#utility.yul\":355:356   */\n      0x00\n        /* \"#utility.yul\":365:478   */\n    tag_278:\n        /* \"#utility.yul\":379:385   */\n      dup4\n        /* \"#utility.yul\":376:377   */\n      dup2\n        /* \"#utility.yul\":373:386   */\n      lt\n        /* \"#utility.yul\":365:478   */\n      iszero\n      tag_280\n      jumpi\n        /* \"#utility.yul\":464:465   */\n      dup1\n        /* \"#utility.yul\":459:462   */\n      dup3\n        /* \"#utility.yul\":455:466   */\n      add\n        /* \"#utility.yul\":449:467   */\n      mload\n        /* \"#utility.yul\":445:446   */\n      dup2\n        /* \"#utility.yul\":440:443   */\n      dup5\n        /* \"#utility.yul\":436:447   */\n      add\n        /* \"#utility.yul\":429:468   */\n      mstore\n        /* \"#utility.yul\":401:403   */\n      0x20\n        /* \"#utility.yul\":398:399   */\n      dup2\n        /* \"#utility.yul\":394:404   */\n      add\n        /* \"#utility.yul\":389:404   */\n      swap1\n      pop\n        /* \"#utility.yul\":365:478   */\n      jump(tag_278)\n    tag_280:\n        /* \"#utility.yul\":496:502   */\n      dup4\n        /* \"#utility.yul\":493:494   */\n      dup2\n        /* \"#utility.yul\":490:503   */\n      gt\n        /* \"#utility.yul\":487:588   */\n      iszero\n      tag_281\n      jumpi\n        /* \"#utility.yul\":576:577   */\n      0x00\n        /* \"#utility.yul\":567:573   */\n      dup5\n        /* \"#utility.yul\":562:565   */\n      dup5\n        /* \"#utility.yul\":558:574   */\n      add\n        /* \"#utility.yul\":551:578   */\n      mstore\n        /* \"#utility.yul\":487:588   */\n    tag_281:\n        /* \"#utility.yul\":336:594   */\n      pop\n        /* \"#utility.yul\":287:594   */\n      pop\n      pop\n      pop\n      jump\t// out\n        /* \"#utility.yul\":600:702   */\n    tag_228:\n        /* \"#utility.yul\":641:647   */\n      0x00\n        /* \"#utility.yul\":692:694   */\n      0x1f\n        /* \"#utility.yul\":688:695   */\n      not\n        /* \"#utility.yul\":683:685   */\n      0x1f\n        /* \"#utility.yul\":676:681   */\n      dup4\n        /* \"#utility.yul\":672:686   */\n      add\n        /* \"#utility.yul\":668:696   */\n      and\n        /* \"#utility.yul\":658:696   */\n      swap1\n      pop\n        /* \"#utility.yul\":600:702   */\n      swap2\n      swap1\n      pop\n      jump\t// out\n        /* \"#utility.yul\":708:1072   */\n    tag_229:\n        /* \"#utility.yul\":796:799   */\n      0x00\n        /* \"#utility.yul\":824:863   */\n      tag_284\n        /* \"#utility.yul\":857:862   */\n      dup3\n        /* \"#utility.yul\":824:863   */\n      tag_225\n      jump\t// in\n    tag_284:\n        /* \"#utility.yul\":879:950   */\n      tag_285\n        /* \"#utility.yul\":943:949   */\n      dup2\n        /* \"#utility.yul\":938:941   */\n      dup6\n        /* \"#utility.yul\":879:950   */\n      tag_226\n      jump\t// in\n    tag_285:\n        /* \"#utility.yul\":872:950   */\n      swap4\n      pop\n        /* \"#utility.yul\":959:1011   */\n      tag_286\n        /* \"#utility.yul\":1004:1010   */\n      dup2\n        /* \"#utility.yul\":999:1002   */\n      dup6\n        /* \"#utility.yul\":992:996   */\n      0x20\n        /* \"#utility.yul\":985:990   */\n      dup7\n        /* \"#utility.yul\":981:997   */\n      add\n        /* \"#utility.yul\":959:1011   */\n      tag_227\n      jump\t// in\n    tag_286:\n        /* \"#utility.yul\":1036:1065   */\n      tag_287\n        /* \"#utility.yul\":1058:1064   */\n      dup2\n        /* \"#utility.yul\":1036:1065   */\n      tag_228\n      jump\t// in\n    tag_287:\n        /* \"#utility.yul\":1031:1034   */\n      dup5\n        /* \"#utility.yul\":1027:1066   */\n      add\n        /* \"#utility.yul\":1020:1066   */\n      swap2\n      pop\n        /* \"#utility.yul\":800:1072   */\n      pop\n        /* \"#utility.yul\":708:1072   */\n      swap3\n      swap2\n      pop\n      pop\n      jump\t// out\n        /* \"#utility.yul\":1078:1391   */\n    tag_27:\n        /* \"#utility.yul\":1191:1195   */\n      0x00\n        /* \"#utility.yul\":1229:1231   */\n      0x20\n        /* \"#utility.yul\":1218:1227   */\n      dup3\n        /* \"#utility.yul\":1214:1232   */\n      add\n        /* \"#utility.yul\":1206:1232   */\n      swap1\n      pop\n        /* \"#utility.yul\":1278:1287   */\n      dup2\n        /* \"#utility.yul\":1272:1276   */\n      dup2\n        /* \"#utility.yul\":1268:1288   */\n      sub\n        /* \"#utility.yul\":1264:1265   */\n      0x00\n        /* \"#utility.yul\":1253:1262   */\n      dup4\n        /* \"#utility.yul\":1249:1266   */\n      add\n        /* \"#utility.yul\":1242:1289   */\n      mstore\n        /* \"#utility.yul\":1306:1384   */\n      tag_289\n        /* \"#utility.yul\":1379:1383   */\n      dup2\n        /* \"#utility.yul\":1370:1376   */\n      dup5\n        /* \"#utility.yul\":1306:1384   */\n      tag_229\n      jump\t// in\n    tag_289:\n        /* \"#utility.yul\":1298:1384   */\n      swap1\n      pop\n        /* \"#utility.yul\":1078:1391   */\n      swap3\n      swap2\n      pop\n      pop\n      jump\t// out\n        /* \"#utility.yul\":1478:1595   */\n    tag_231:\n        /* \"#utility.yul\":1587:1588   */\n      0x00\n        /* \"#utility.yul\":1584:1585   */\n      dup1\n        /* \"#utility.yul\":1577:1589   */\n      revert\n        /* \"#utility.yul\":1724:1850   */\n    tag_233:\n        /* \"#utility.yul\":1761:1768   */\n      0x00\n        /* \"#utility.yul\":1801:1843   */\n      0xffffffffffffffffffffffffffffffffffffffff\n        /* \"#utility.yul\":1794:1799   */\n      dup3\n        /* \"#utility.yul\":1790:1844   */\n      and\n        /* \"#utility.yul\":1779:1844   */\n      swap1\n      pop\n        /* \"#utility.yul\":1724:1850   */\n      swap2\n      swap1\n      pop\n      jump\t// out\n        /* \"#utility.yul\":1856:1952   */\n    tag_234:\n        /* \"#utility.yul\":1893:1900   */\n      0x00\n        /* \"#utility.yul\":1922:1946   */\n      tag_295\n        /* \"#utility.yul\":1940:1945   */\n      dup3\n        /* \"#utility.yul\":1922:1946   */\n      tag_233\n      jump\t// in\n    tag_295:\n        /* \"#utility.yul\":1911:1946   */\n      swap1\n      pop\n        /* \"#utility.yul\":1856:1952   */\n      swap2\n      swap1\n      pop\n      jump\t// out\n        /* \"#utility.yul\":1958:2080   */\n    tag_235:\n        /* \"#utility.yul\":2031:2055   */\n      tag_297\n        /* \"#utility.yul\":2049:2054   */\n      dup2\n        /* \"#utility.yul\":2031:2055   */\n      tag_234\n      jump\t// in\n    tag_297:\n        /* \"#utility.yul\":2024:2029   */\n      dup2\n        /* \"#utility.yul\":2021:2056   */\n      eq\n        /* \"#utility.yul\":2011:2074   */\n      tag_298\n      jumpi\n        /* \"#utility.yul\":2070:2071   */\n      0x00\n        /* \"#utility.yul\":2067:2068   */\n      dup1\n        /* \"#utility.yul\":2060:2072   */\n      revert\n        /* \"#utility.yul\":2011:2074   */\n    tag_298:\n        /* \"#utility.yul\":1958:2080   */\n      pop\n      jump\t// out\n        /* \"#utility.yul\":2086:2225   */\n    tag_236:\n        /* \"#utility.yul\":2132:2137   */\n      0x00\n        /* \"#utility.yul\":2170:2176   */\n      dup2\n        /* \"#utility.yul\":2157:2177   */\n      calldataload\n        /* \"#utility.yul\":2148:2177   */\n      swap1\n      pop\n        /* \"#utility.yul\":2186:2219   */\n      tag_300\n        /* \"#utility.yul\":2213:2218   */\n      dup2\n        /* \"#utility.yul\":2186:2219   */\n      tag_235\n      jump\t// in\n    tag_300:\n        /* \"#utility.yul\":2086:2225   */\n      swap3\n      swap2\n      pop\n      pop\n      jump\t// out\n        /* \"#utility.yul\":2231:2308   */\n    tag_237:\n        /* \"#utility.yul\":2268:2275   */\n      0x00\n        /* \"#utility.yul\":2297:2302   */\n      dup2\n        /* \"#utility.yul\":2286:2302   */\n      swap1\n      pop\n        /* \"#utility.yul\":2231:2308   */\n      swap2\n      swap1\n      pop\n      jump\t// out\n        /* \"#utility.yul\":2314:2436   */\n    tag_238:\n        /* \"#utility.yul\":2387:2411   */\n      tag_303\n        /* \"#utility.yul\":2405:2410   */\n      dup2\n        /* \"#utility.yul\":2387:2411   */\n      tag_237\n      jump\t// in\n    tag_303:\n        /* \"#utility.yul\":2380:2385   */\n      dup2\n        /* \"#utility.yul\":2377:2412   */\n      eq\n        /* \"#utility.yul\":2367:2430   */\n      tag_304\n      jumpi\n        /* \"#utility.yul\":2426:2427   */\n      0x00\n        /* \"#utility.yul\":2423:2424   */\n      dup1\n        /* \"#utility.yul\":2416:2428   */\n      revert\n        /* \"#utility.yul\":2367:2430   */\n    tag_304:\n        /* \"#utility.yul\":2314:2436   */\n      pop\n      jump\t// out\n        /* \"#utility.yul\":2442:2581   */\n    tag_239:\n        /* \"#utility.yul\":2488:2493   */\n      0x00\n        /* \"#utility.yul\":2526:2532   */\n      dup2\n        /* \"#utility.yul\":2513:2533   */\n      calldataload\n        /* \"#utility.yul\":2504:2533   */\n      swap1\n      pop\n        /* \"#utility.yul\":2542:2575   */\n      tag_306\n        /* \"#utility.yul\":2569:2574   */\n      dup2\n        /* \"#utility.yul\":2542:2575   */\n      tag_238\n      jump\t// in\n    tag_306:\n        /* \"#utility.yul\":2442:2581   */\n      swap3\n      swap2\n      pop\n      pop\n      jump\t// out\n        /* \"#utility.yul\":2587:3061   */\n    tag_30:\n        /* \"#utility.yul\":2655:2661   */\n      0x00\n        /* \"#utility.yul\":2663:2669   */\n      dup1\n        /* \"#utility.yul\":2712:2714   */\n      0x40\n        /* \"#utility.yul\":2700:2709   */\n      dup4\n        /* \"#utility.yul\":2691:2698   */\n      dup6\n        /* \"#utility.yul\":2687:2710   */\n      sub\n        /* \"#utility.yul\":2683:2715   */\n      slt\n        /* \"#utility.yul\":2680:2799   */\n      iszero\n      tag_308\n      jumpi\n        /* \"#utility.yul\":2718:2797   */\n      tag_309\n      tag_231\n      jump\t// in\n    tag_309:\n        /* \"#utility.yul\":2680:2799   */\n    tag_308:\n        /* \"#utility.yul\":2838:2839   */\n      0x00\n        /* \"#utility.yul\":2863:2916   */\n      tag_310\n        /* \"#utility.yul\":2908:2915   */\n      dup6\n        /* \"#utility.yul\":2899:2905   */\n      dup3\n        /* \"#utility.yul\":2888:2897   */\n      dup7\n        /* \"#utility.yul\":2884:2906   */\n      add\n        /* \"#utility.yul\":2863:2916   */\n      tag_236\n      jump\t// in\n    tag_310:\n        /* \"#utility.yul\":2853:2916   */\n      swap3\n      pop\n        /* \"#utility.yul\":2809:2926   */\n      pop\n        /* \"#utility.yul\":2965:2967   */\n      0x20\n        /* \"#utility.yul\":2991:3044   */\n      tag_311\n        /* \"#utility.yul\":3036:3043   */\n      dup6\n        /* \"#utility.yul\":3027:3033   */\n      dup3\n        /* \"#utility.yul\":3016:3025   */\n      dup7\n        /* \"#utility.yul\":3012:3034   */\n      add\n        /* \"#utility.yul\":2991:3044   */\n      tag_239\n      jump\t// in\n    tag_311:\n        /* \"#utility.yul\":2981:3044   */\n      swap2\n      pop\n        /* \"#utility.yul\":2936:3054   */\n      pop\n        /* \"#utility.yul\":2587:3061   */\n      swap3\n      pop\n      swap3\n      swap1\n      pop\n      jump\t// out\n        /* \"#utility.yul\":3067:3157   */\n    tag_240:\n        /* \"#utility.yul\":3101:3108   */\n      0x00\n        /* \"#utility.yul\":3144:3149   */\n      dup2\n        /* \"#utility.yul\":3137:3150   */\n      iszero\n        /* \"#utility.yul\":3130:3151   */\n      iszero\n        /* \"#utility.yul\":3119:3151   */\n      swap1\n      pop\n        /* \"#utility.yul\":3067:3157   */\n      swap2\n      swap1\n      pop\n      jump\t// out\n        /* \"#utility.yul\":3163:3272   */\n    tag_241:\n        /* \"#utility.yul\":3244:3265   */\n      tag_314\n        /* \"#utility.yul\":3259:3264   */\n      dup2\n        /* \"#utility.yul\":3244:3265   */\n      tag_240\n      jump\t// in\n    tag_314:\n        /* \"#utility.yul\":3239:3242   */\n      dup3\n        /* \"#utility.yul\":3232:3266   */\n      mstore\n        /* \"#utility.yul\":3163:3272   */\n      pop\n      pop\n      jump\t// out\n        /* \"#utility.yul\":3278:3488   */\n    tag_33:\n        /* \"#utility.yul\":3365:3369   */\n      0x00\n        /* \"#utility.yul\":3403:3405   */\n      0x20\n        /* \"#utility.yul\":3392:3401   */\n      dup3\n        /* \"#utility.yul\":3388:3406   */\n      add\n        /* \"#utility.yul\":3380:3406   */\n      swap1\n      pop\n        /* \"#utility.yul\":3416:3481   */\n      tag_316\n        /* \"#utility.yul\":3478:3479   */\n      0x00\n        /* \"#utility.yul\":3467:3476   */\n      dup4\n        /* \"#utility.yul\":3463:3480   */\n      add\n        /* \"#utility.yul\":3454:3460   */\n      dup5\n        /* \"#utility.yul\":3416:3481   */\n      tag_241\n      jump\t// in\n    tag_316:\n        /* \"#utility.yul\":3278:3488   */\n      swap3\n      swap2\n      pop\n      pop\n      jump\t// out\n        /* \"#utility.yul\":3494:3612   */\n    tag_242:\n        /* \"#utility.yul\":3581:3605   */\n      tag_318\n        /* \"#utility.yul\":3599:3604   */\n      dup2\n        /* \"#utility.yul\":3581:3605   */\n      tag_237\n      jump\t// in\n    tag_318:\n        /* \"#utility.yul\":3576:3579   */\n      dup3\n        /* \"#utility.yul\":3569:3606   */\n      mstore\n        /* \"#utility.yul\":3494:3612   */\n      pop\n      pop\n      jump\t// out\n        /* \"#utility.yul\":3618:3840   */\n    tag_37:\n        /* \"#utility.yul\":3711:3715   */\n      0x00\n        /* \"#utility.yul\":3749:3751   */\n      0x20\n        /* \"#utility.yul\":3738:3747   */\n      dup3\n        /* \"#utility.yul\":3734:3752   */\n      add\n        /* \"#utility.yul\":3726:3752   */\n      swap1\n      pop\n        /* \"#utility.yul\":3762:3833   */\n      tag_320\n        /* \"#utility.yul\":3830:3831   */\n      0x00\n        /* \"#utility.yul\":3819:3828   */\n      dup4\n        /* \"#utility.yul\":3815:3832   */\n      add\n        /* \"#utility.yul\":3806:3812   */\n      dup5\n        /* \"#utility.yul\":3762:3833   */\n      tag_242\n      jump\t// in\n    tag_320:\n        /* \"#utility.yul\":3618:3840   */\n      swap3\n      swap2\n      pop\n      pop\n      jump\t// out\n        /* \"#utility.yul\":3846:3964   */\n    tag_243:\n        /* \"#utility.yul\":3933:3957   */\n      tag_322\n        /* \"#utility.yul\":3951:3956   */\n      dup2\n        /* \"#utility.yul\":3933:3957   */\n      tag_234\n      jump\t// in\n    tag_322:\n        /* \"#utility.yul\":3928:3931   */\n      dup3\n        /* \"#utility.yul\":3921:3958   */\n      mstore\n        /* \"#utility.yul\":3846:3964   */\n      pop\n      pop\n      jump\t// out\n        /* \"#utility.yul\":3970:4192   */\n    tag_41:\n        /* \"#utility.yul\":4063:4067   */\n      0x00\n        /* \"#utility.yul\":4101:4103   */\n      0x20\n        /* \"#utility.yul\":4090:4099   */\n      dup3\n        /* \"#utility.yul\":4086:4104   */\n      add\n        /* \"#utility.yul\":4078:4104   */\n      swap1\n      pop\n        /* \"#utility.yul\":4114:4185   */\n      tag_324\n        /* \"#utility.yul\":4182:4183   */\n      0x00\n        /* \"#utility.yul\":4171:4180   */\n      dup4\n        /* \"#utility.yul\":4167:4184   */\n      add\n        /* \"#utility.yul\":4158:4164   */\n      dup5\n        /* \"#utility.yul\":4114:4185   */\n      tag_243\n      jump\t// in\n    tag_324:\n        /* \"#utility.yul\":3970:4192   */\n      swap3\n      swap2\n      pop\n      pop\n      jump\t// out\n        /* \"#utility.yul\":4198:4817   */\n    tag_44:\n        /* \"#utility.yul\":4275:4281   */\n      0x00\n        /* \"#utility.yul\":4283:4289   */\n      dup1\n        /* \"#utility.yul\":4291:4297   */\n      0x00\n        /* \"#utility.yul\":4340:4342   */\n      0x60\n        /* \"#utility.yul\":4328:4337   */\n      dup5\n        /* \"#utility.yul\":4319:4326   */\n      dup7\n        /* \"#utility.yul\":4315:4338   */\n      sub\n        /* \"#utility.yul\":4311:4343   */\n      slt\n        /* \"#utility.yul\":4308:4427   */\n      iszero\n      tag_326\n      jumpi\n        /* \"#utility.yul\":4346:4425   */\n      tag_327\n      tag_231\n      jump\t// in\n    tag_327:\n        /* \"#utility.yul\":4308:4427   */\n    tag_326:\n        /* \"#utility.yul\":4466:4467   */\n      0x00\n        /* \"#utility.yul\":4491:4544   */\n      tag_328\n        /* \"#utility.yul\":4536:4543   */\n      dup7\n        /* \"#utility.yul\":4527:4533   */\n      dup3\n        /* \"#utility.yul\":4516:4525   */\n      dup8\n        /* \"#utility.yul\":4512:4534   */\n      add\n        /* \"#utility.yul\":4491:4544   */\n      tag_236\n      jump\t// in\n    tag_328:\n        /* \"#utility.yul\":4481:4544   */\n      swap4\n      pop\n        /* \"#utility.yul\":4437:4554   */\n      pop\n        /* \"#utility.yul\":4593:4595   */\n      0x20\n        /* \"#utility.yul\":4619:4672   */\n      tag_329\n        /* \"#utility.yul\":4664:4671   */\n      dup7\n        /* \"#utility.yul\":4655:4661   */\n      dup3\n        /* \"#utility.yul\":4644:4653   */\n      dup8\n        /* \"#utility.yul\":4640:4662   */\n      add\n        /* \"#utility.yul\":4619:4672   */\n      tag_236\n      jump\t// in\n    tag_329:\n        /* \"#utility.yul\":4609:4672   */\n      swap3\n      pop\n        /* \"#utility.yul\":4564:4682   */\n      pop\n        /* \"#utility.yul\":4721:4723   */\n      0x40\n        /* \"#utility.yul\":4747:4800   */\n      tag_330\n        /* \"#utility.yul\":4792:4799   */\n      dup7\n        /* \"#utility.yul\":4783:4789   */\n      dup3\n        /* \"#utility.yul\":4772:4781   */\n      dup8\n        /* \"#utility.yul\":4768:4790   */\n      add\n        /* \"#utility.yul\":4747:4800   */\n      tag_239\n      jump\t// in\n    tag_330:\n        /* \"#utility.yul\":4737:4800   */\n      swap2\n      pop\n        /* \"#utility.yul\":4692:4810   */\n      pop\n        /* \"#utility.yul\":4198:4817   */\n      swap3\n      pop\n      swap3\n      pop\n      swap3\n      jump\t// out\n        /* \"#utility.yul\":4823:4909   */\n    tag_244:\n        /* \"#utility.yul\":4858:4865   */\n      0x00\n        /* \"#utility.yul\":4898:4902   */\n      0xff\n        /* \"#utility.yul\":4891:4896   */\n      dup3\n        /* \"#utility.yul\":4887:4903   */\n      and\n        /* \"#utility.yul\":4876:4903   */\n      swap1\n      pop\n        /* \"#utility.yul\":4823:4909   */\n      swap2\n      swap1\n      pop\n      jump\t// out\n        /* \"#utility.yul\":4915:5027   */\n    tag_245:\n        /* \"#utility.yul\":4998:5020   */\n      tag_333\n        /* \"#utility.yul\":5014:5019   */\n      dup2\n        /* \"#utility.yul\":4998:5020   */\n      tag_244\n      jump\t// in\n    tag_333:\n        /* \"#utility.yul\":4993:4996   */\n      dup3\n        /* \"#utility.yul\":4986:5021   */\n      mstore\n        /* \"#utility.yul\":4915:5027   */\n      pop\n      pop\n      jump\t// out\n        /* \"#utility.yul\":5033:5247   */\n    tag_50:\n        /* \"#utility.yul\":5122:5126   */\n      0x00\n        /* \"#utility.yul\":5160:5162   */\n      0x20\n        /* \"#utility.yul\":5149:5158   */\n      dup3\n        /* \"#utility.yul\":5145:5163   */\n      add\n        /* \"#utility.yul\":5137:5163   */\n      swap1\n      pop\n        /* \"#utility.yul\":5173:5240   */\n      tag_335\n        /* \"#utility.yul\":5237:5238   */\n      0x00\n        /* \"#utility.yul\":5226:5235   */\n      dup4\n        /* \"#utility.yul\":5222:5239   */\n      add\n        /* \"#utility.yul\":5213:5219   */\n      dup5\n        /* \"#utility.yul\":5173:5240   */\n      tag_245\n      jump\t// in\n    tag_335:\n        /* \"#utility.yul\":5033:5247   */\n      swap3\n      swap2\n      pop\n      pop\n      jump\t// out\n        /* \"#utility.yul\":5253:5582   */\n    tag_60:\n        /* \"#utility.yul\":5312:5318   */\n      0x00\n        /* \"#utility.yul\":5361:5363   */\n      0x20\n        /* \"#utility.yul\":5349:5358   */\n      dup3\n        /* \"#utility.yul\":5340:5347   */\n      dup5\n        /* \"#utility.yul\":5336:5359   */\n      sub\n        /* \"#utility.yul\":5332:5364   */\n      slt\n        /* \"#utility.yul\":5329:5448   */\n      iszero\n      tag_337\n      jumpi\n        /* \"#utility.yul\":5367:5446   */\n      tag_338\n      tag_231\n      jump\t// in\n    tag_338:\n        /* \"#utility.yul\":5329:5448   */\n    tag_337:\n        /* \"#utility.yul\":5487:5488   */\n      0x00\n        /* \"#utility.yul\":5512:5565   */\n      tag_339\n        /* \"#utility.yul\":5557:5564   */\n      dup5\n        /* \"#utility.yul\":5548:5554   */\n      dup3\n        /* \"#utility.yul\":5537:5546   */\n      dup6\n        /* \"#utility.yul\":5533:5555   */\n      add\n        /* \"#utility.yul\":5512:5565   */\n      tag_236\n      jump\t// in\n    tag_339:\n        /* \"#utility.yul\":5502:5565   */\n      swap2\n      pop\n        /* \"#utility.yul\":5458:5575   */\n      pop\n        /* \"#utility.yul\":5253:5582   */\n      swap3\n      swap2\n      pop\n      pop\n      jump\t// out\n        /* \"#utility.yul\":5588:6062   */\n    tag_84:\n        /* \"#utility.yul\":5656:5662   */\n      0x00\n        /* \"#utility.yul\":5664:5670   */\n      dup1\n        /* \"#utility.yul\":5713:5715   */\n      0x40\n        /* \"#utility.yul\":5701:5710   */\n      dup4\n        /* \"#utility.yul\":5692:5699   */\n      dup6\n        /* \"#utility.yul\":5688:5711   */\n      sub\n        /* \"#utility.yul\":5684:5716   */\n      slt\n        /* \"#utility.yul\":5681:5800   */\n      iszero\n      tag_341\n      jumpi\n        /* \"#utility.yul\":5719:5798   */\n      tag_342\n      tag_231\n      jump\t// in\n    tag_342:\n        /* \"#utility.yul\":5681:5800   */\n    tag_341:\n        /* \"#utility.yul\":5839:5840   */\n      0x00\n        /* \"#utility.yul\":5864:5917   */\n      tag_343\n        /* \"#utility.yul\":5909:5916   */\n      dup6\n        /* \"#utility.yul\":5900:5906   */\n      dup3\n        /* \"#utility.yul\":5889:5898   */\n      dup7\n        /* \"#utility.yul\":5885:5907   */\n      add\n        /* \"#utility.yul\":5864:5917   */\n      tag_236\n      jump\t// in\n    tag_343:\n        /* \"#utility.yul\":5854:5917   */\n      swap3\n      pop\n        /* \"#utility.yul\":5810:5927   */\n      pop\n        /* \"#utility.yul\":5966:5968   */\n      0x20\n        /* \"#utility.yul\":5992:6045   */\n      tag_344\n        /* \"#utility.yul\":6037:6044   */\n      dup6\n        /* \"#utility.yul\":6028:6034   */\n      dup3\n        /* \"#utility.yul\":6017:6026   */\n      dup7\n        /* \"#utility.yul\":6013:6035   */\n      add\n        /* \"#utility.yul\":5992:6045   */\n      tag_236\n      jump\t// in\n    tag_344:\n        /* \"#utility.yul\":5982:6045   */\n      swap2\n      pop\n        /* \"#utility.yul\":5937:6055   */\n      pop\n        /* \"#utility.yul\":5588:6062   */\n      swap3\n      pop\n      swap3\n      swap1\n      pop\n      jump\t// out\n        /* \"#utility.yul\":6068:6248   */\n    tag_246:\n        /* \"#utility.yul\":6116:6193   */\n      0x4e487b7100000000000000000000000000000000000000000000000000000000\n        /* \"#utility.yul\":6113:6114   */\n      0x00\n        /* \"#utility.yul\":6106:6194   */\n      mstore\n        /* \"#utility.yul\":6213:6217   */\n      0x22\n        /* \"#utility.yul\":6210:6211   */\n      0x04\n        /* \"#utility.yul\":6203:6218   */\n      mstore\n        /* \"#utility.yul\":6237:6241   */\n      0x24\n        /* \"#utility.yul\":6234:6235   */\n      0x00\n        /* \"#utility.yul\":6227:6242   */\n      revert\n        /* \"#utility.yul\":6254:6574   */\n    tag_95:\n        /* \"#utility.yul\":6298:6304   */\n      0x00\n        /* \"#utility.yul\":6335:6336   */\n      0x02\n        /* \"#utility.yul\":6329:6333   */\n      dup3\n        /* \"#utility.yul\":6325:6337   */\n      div\n        /* \"#utility.yul\":6315:6337   */\n      swap1\n      pop\n        /* \"#utility.yul\":6382:6383   */\n      0x01\n        /* \"#utility.yul\":6376:6380   */\n      dup3\n        /* \"#utility.yul\":6372:6384   */\n      and\n        /* \"#utility.yul\":6403:6421   */\n      dup1\n        /* \"#utility.yul\":6393:6474   */\n      tag_347\n      jumpi\n        /* \"#utility.yul\":6459:6463   */\n      0x7f\n        /* \"#utility.yul\":6451:6457   */\n      dup3\n        /* \"#utility.yul\":6447:6464   */\n      and\n        /* \"#utility.yul\":6437:6464   */\n      swap2\n      pop\n        /* \"#utility.yul\":6393:6474   */\n    tag_347:\n        /* \"#utility.yul\":6521:6523   */\n      0x20\n        /* \"#utility.yul\":6513:6519   */\n      dup3\n        /* \"#utility.yul\":6510:6524   */\n      lt\n        /* \"#utility.yul\":6490:6508   */\n      dup2\n        /* \"#utility.yul\":6487:6525   */\n      sub\n        /* \"#utility.yul\":6484:6568   */\n      tag_348\n      jumpi\n        /* \"#utility.yul\":6540:6558   */\n      tag_349\n      tag_246\n      jump\t// in\n    tag_349:\n        /* \"#utility.yul\":6484:6568   */\n    tag_348:\n        /* \"#utility.yul\":6305:6574   */\n      pop\n        /* \"#utility.yul\":6254:6574   */\n      swap2\n      swap1\n      pop\n      jump\t// out\n        /* \"#utility.yul\":6580:6760   */\n    tag_247:\n        /* \"#utility.yul\":6628:6705   */\n      0x4e487b7100000000000000000000000000000000000000000000000000000000\n        /* \"#utility.yul\":6625:6626   */\n      0x00\n        /* \"#utility.yul\":6618:6706   */\n      mstore\n        /* \"#utility.yul\":6725:6729   */\n      0x11\n        /* \"#utility.yul\":6722:6723   */\n      0x04\n        /* \"#utility.yul\":6715:6730   */\n      mstore\n        /* \"#utility.yul\":6749:6753   */\n      0x24\n        /* \"#utility.yul\":6746:6747   */\n      0x00\n        /* \"#utility.yul\":6739:6754   */\n      revert\n        /* \"#utility.yul\":6766:7071   */\n    tag_118:\n        /* \"#utility.yul\":6806:6809   */\n      0x00\n        /* \"#utility.yul\":6825:6845   */\n      tag_352\n        /* \"#utility.yul\":6843:6844   */\n      dup3\n        /* \"#utility.yul\":6825:6845   */\n      tag_237\n      jump\t// in\n    tag_352:\n        /* \"#utility.yul\":6820:6845   */\n      swap2\n      pop\n        /* \"#utility.yul\":6859:6879   */\n      tag_353\n        /* \"#utility.yul\":6877:6878   */\n      dup4\n        /* \"#utility.yul\":6859:6879   */\n      tag_237\n      jump\t// in\n    tag_353:\n        /* \"#utility.yul\":6854:6879   */\n      swap3\n      pop\n        /* \"#utility.yul\":7013:7014   */\n      dup3\n        /* \"#utility.yul\":6945:7011   */\n      0xffffffffffffffffffffffffffffffffffffffffffffffffffffffffffffffff\n        /* \"#utility.yul\":6941:7015   */\n      sub\n        /* \"#utility.yul\":6938:6939   */\n      dup3\n        /* \"#utility.yul\":6935:7016   */\n      gt\n        /* \"#utility.yul\":6932:7039   */\n      iszero\n      tag_354\n      jumpi\n        /* \"#utility.yul\":7019:7037   */\n      tag_355\n      tag_247\n      jump\t// in\n    tag_355:\n        /* \"#utility.yul\":6932:7039   */\n    tag_354:\n        /* \"#utility.yul\":7063:7064   */\n      dup3\n        /* \"#utility.yul\":7060:7061   */\n      dup3\n        /* \"#utility.yul\":7056:7065   */\n      add\n        /* \"#utility.yul\":7049:7065   */\n      swap1\n      pop\n        /* \"#utility.yul\":6766:7071   */\n      swap3\n      swap2\n      pop\n      pop\n      jump\t// out\n        /* \"#utility.yul\":7077:7241   */\n    tag_248:\n        /* \"#utility.yul\":7217:7233   */\n      0x4e6f7420417574686f7269736564000000000000000000000000000000000000\n        /* \"#utility.yul\":7213:7214   */\n      0x00\n        /* \"#utility.yul\":7205:7211   */\n      dup3\n        /* \"#utility.yul\":7201:7215   */\n      add\n        /* \"#utility.yul\":7194:7234   */\n      mstore\n        /* \"#utility.yul\":7077:7241   */\n      pop\n      jump\t// out\n        /* \"#utility.yul\":7247:7613   */\n    tag_249:\n        /* \"#utility.yul\":7389:7392   */\n      0x00\n        /* \"#utility.yul\":7410:7477   */\n      tag_358\n        /* \"#utility.yul\":7474:7476   */\n      0x0e\n        /* \"#utility.yul\":7469:7472   */\n      dup4\n        /* \"#utility.yul\":7410:7477   */\n      tag_226\n      jump\t// in\n    tag_358:\n        /* \"#utility.yul\":7403:7477   */\n      swap2\n      pop\n        /* \"#utility.yul\":7486:7579   */\n      tag_359\n        /* \"#utility.yul\":7575:7578   */\n      dup3\n        /* \"#utility.yul\":7486:7579   */\n      tag_248\n      jump\t// in\n    tag_359:\n        /* \"#utility.yul\":7604:7606   */\n      0x20\n        /* \"#utility.yul\":7599:7602   */\n      dup3\n        /* \"#utility.yul\":7595:7607   */\n      add\n        /* \"#utility.yul\":7588:7607   */\n      swap1\n      pop\n        /* \"#utility.yul\":7247:7613   */\n      swap2\n      swap1\n      pop\n      jump\t// out\n        /* \"#utility.yul\":7619:8038   */\n    tag_122:\n        /* \"#utility.yul\":7785:7789   */\n      0x00\n        /* \"#utility.yul\":7823:7825   */\n      0x20\n        /* \"#utility.yul\":7812:7821   */\n      dup3\n        /* \"#utility.yul\":7808:7826   */\n      add\n        /* \"#utility.yul\":7800:7826   */\n      swap1\n      pop\n        /* \"#utility.yul\":7872:7881   */\n      dup2\n        /* \"#utility.yul\":7866:7870   */\n      dup2\n        /* \"#utility.yul\":7862:7882   */\n      sub\n        /* \"#utility.yul\":7858:7859   */\n      0x00\n        /* \"#utility.yul\":7847:7856   */\n      dup4\n        /* \"#utility.yul\":7843:7860   */\n      add\n        /* \"#utility.yul\":7836:7883   */\n      mstore\n        /* \"#utility.yul\":7900:8031   */\n      tag_361\n        /* \"#utility.yul\":8026:8030   */\n      dup2\n        /* \"#utility.yul\":7900:8031   */\n      tag_249\n      jump\t// in\n    tag_361:\n        /* \"#utility.yul\":7892:8031   */\n      swap1\n      pop\n        /* \"#utility.yul\":7619:8038   */\n      swap2\n      swap1\n      pop\n      jump\t// out\n        /* \"#utility.yul\":8044:8268   */\n    tag_250:\n        /* \"#utility.yul\":8184:8218   */\n      0x45524332303a2064656372656173656420616c6c6f77616e63652062656c6f77\n        /* \"#utility.yul\":8180:8181   */\n      0x00\n        /* \"#utility.yul\":8172:8178   */\n      dup3\n        /* \"#utility.yul\":8168:8182   */\n      add\n        /* \"#utility.yul\":8161:8219   */\n      mstore\n        /* \"#utility.yul\":8253:8260   */\n      0x207a65726f000000000000000000000000000000000000000000000000000000\n        /* \"#utility.yul\":8248:8250   */\n      0x20\n        /* \"#utility.yul\":8240:8246   */\n      dup3\n        /* \"#utility.yul\":8236:8251   */\n      add\n        /* \"#utility.yul\":8229:8261   */\n      mstore\n        /* \"#utility.yul\":8044:8268   */\n      pop\n      jump\t// out\n        /* \"#utility.yul\":8274:8640   */\n    tag_251:\n        /* \"#utility.yul\":8416:8419   */\n      0x00\n        /* \"#utility.yul\":8437:8504   */\n      tag_364\n        /* \"#utility.yul\":8501:8503   */\n      0x25\n        /* \"#utility.yul\":8496:8499   */\n      dup4\n        /* \"#utility.yul\":8437:8504   */\n      tag_226\n      jump\t// in\n    tag_364:\n        /* \"#utility.yul\":8430:8504   */\n      swap2\n      pop\n        /* \"#utility.yul\":8513:8606   */\n      tag_365\n        /* \"#utility.yul\":8602:8605   */\n      dup3\n        /* \"#utility.yul\":8513:8606   */\n      tag_250\n      jump\t// in\n    tag_365:\n        /* \"#utility.yul\":8631:8633   */\n      0x40\n        /* \"#utility.yul\":8626:8629   */\n      dup3\n        /* \"#utility.yul\":8622:8634   */\n      add\n        /* \"#utility.yul\":8615:8634   */\n      swap1\n      pop\n        /* \"#utility.yul\":8274:8640   */\n      swap2\n      swap1\n      pop\n      jump\t// out\n        /* \"#utility.yul\":8646:9065   */\n    tag_151:\n        /* \"#utility.yul\":8812:8816   */\n      0x00\n        /* \"#utility.yul\":8850:8852   */\n      0x20\n        /* \"#utility.yul\":8839:8848   */\n      dup3\n        /* \"#utility.yul\":8835:8853   */\n      add\n        /* \"#utility.yul\":8827:8853   */\n      swap1\n      pop\n        /* \"#utility.yul\":8899:8908   */\n      dup2\n        /* \"#utility.yul\":8893:8897   */\n      dup2\n        /* \"#utility.yul\":8889:8909   */\n      sub\n        /* \"#utility.yul\":8885:8886   */\n      0x00\n        /* \"#utility.yul\":8874:8883   */\n      dup4\n        /* \"#utility.yul\":8870:8887   */\n      add\n        /* \"#utility.yul\":8863:8910   */\n      mstore\n        /* \"#utility.yul\":8927:9058   */\n      tag_367\n        /* \"#utility.yul\":9053:9057   */\n      dup2\n        /* \"#utility.yul\":8927:9058   */\n      tag_251\n      jump\t// in\n    tag_367:\n        /* \"#utility.yul\":8919:9058   */\n      swap1\n      pop\n        /* \"#utility.yul\":8646:9065   */\n      swap2\n      swap1\n      pop\n      jump\t// out\n        /* \"#utility.yul\":9071:9296   */\n    tag_252:\n        /* \"#utility.yul\":9211:9245   */\n      0x4f776e61626c653a206e6577206f776e657220697320746865207a65726f2061\n        /* \"#utility.yul\":9207:9208   */\n      0x00\n        /* \"#utility.yul\":9199:9205   */\n      dup3\n        /* \"#utility.yul\":9195:9209   */\n      add\n        /* \"#utility.yul\":9188:9246   */\n      mstore\n        /* \"#utility.yul\":9280:9288   */\n      0x6464726573730000000000000000000000000000000000000000000000000000\n        /* \"#utility.yul\":9275:9277   */\n      0x20\n        /* \"#utility.yul\":9267:9273   */\n      dup3\n        /* \"#utility.yul\":9263:9278   */\n      add\n        /* \"#utility.yul\":9256:9289   */\n      mstore\n        /* \"#utility.yul\":9071:9296   */\n      pop\n      jump\t// out\n        /* \"#utility.yul\":9302:9668   */\n    tag_253:\n        /* \"#utility.yul\":9444:9447   */\n      0x00\n        /* \"#utility.yul\":9465:9532   */\n      tag_370\n        /* \"#utility.yul\":9529:9531   */\n      0x26\n        /* \"#utility.yul\":9524:9527   */\n      dup4\n        /* \"#utility.yul\":9465:9532   */\n      tag_226\n      jump\t// in\n    tag_370:\n        /* \"#utility.yul\":9458:9532   */\n      swap2\n      pop\n        /* \"#utility.yul\":9541:9634   */\n      tag_371\n        /* \"#utility.yul\":9630:9633   */\n      dup3\n        /* \"#utility.yul\":9541:9634   */\n      tag_252\n      jump\t// in\n    tag_371:\n        /* \"#utility.yul\":9659:9661   */\n      0x40\n        /* \"#utility.yul\":9654:9657   */\n      dup3\n        /* \"#utility.yul\":9650:9662   */\n      add\n        /* \"#utility.yul\":9643:9662   */\n      swap1\n      pop\n        /* \"#utility.yul\":9302:9668   */\n      swap2\n      swap1\n      pop\n      jump\t// out\n        /* \"#utility.yul\":9674:10093   */\n    tag_162:\n        /* \"#utility.yul\":9840:9844   */\n      0x00\n        /* \"#utility.yul\":9878:9880   */\n      0x20\n        /* \"#utility.yul\":9867:9876   */\n      dup3\n        /* \"#utility.yul\":9863:9881   */\n      add\n        /* \"#utility.yul\":9855:9881   */\n      swap1\n      pop\n        /* \"#utility.yul\":9927:9936   */\n      dup2\n        /* \"#utility.yul\":9921:9925   */\n      dup2\n        /* \"#utility.yul\":9917:9937   */\n      sub\n        /* \"#utility.yul\":9913:9914   */\n      0x00\n        /* \"#utility.yul\":9902:9911   */\n      dup4\n        /* \"#utility.yul\":9898:9915   */\n      add\n        /* \"#utility.yul\":9891:9938   */\n      mstore\n        /* \"#utility.yul\":9955:10086   */\n      tag_373\n        /* \"#utility.yul\":10081:10085   */\n      dup2\n        /* \"#utility.yul\":9955:10086   */\n      tag_253\n      jump\t// in\n    tag_373:\n        /* \"#utility.yul\":9947:10086   */\n      swap1\n      pop\n        /* \"#utility.yul\":9674:10093   */\n      swap2\n      swap1\n      pop\n      jump\t// out\n        /* \"#utility.yul\":10099:10322   */\n    tag_254:\n        /* \"#utility.yul\":10239:10273   */\n      0x45524332303a20617070726f76652066726f6d20746865207a65726f20616464\n        /* \"#utility.yul\":10235:10236   */\n      0x00\n        /* \"#utility.yul\":10227:10233   */\n      dup3\n        /* \"#utility.yul\":10223:10237   */\n      add\n        /* \"#utility.yul\":10216:10274   */\n      mstore\n        /* \"#utility.yul\":10308:10314   */\n      0x7265737300000000000000000000000000000000000000000000000000000000\n        /* \"#utility.yul\":10303:10305   */\n      0x20\n        /* \"#utility.yul\":10295:10301   */\n      dup3\n        /* \"#utility.yul\":10291:10306   */\n      add\n        /* \"#utility.yul\":10284:10315   */\n      mstore\n        /* \"#utility.yul\":10099:10322   */\n      pop\n      jump\t// out\n        /* \"#utility.yul\":10328:10694   */\n    tag_255:\n        /* \"#utility.yul\":10470:10473   */\n      0x00\n        /* \"#utility.yul\":10491:10558   */\n      tag_376\n        /* \"#utility.yul\":10555:10557   */\n      0x24\n        /* \"#utility.yul\":10550:10553   */\n      dup4\n        /* \"#utility.yul\":10491:10558   */\n      tag_226\n      jump\t// in\n    tag_376:\n        /* \"#utility.yul\":10484:10558   */\n      swap2\n      pop\n        /* \"#utility.yul\":10567:10660   */\n      tag_377\n        /* \"#utility.yul\":10656:10659   */\n      dup3\n        /* \"#utility.yul\":10567:10660   */\n      tag_254\n      jump\t// in\n    tag_377:\n        /* \"#utility.yul\":10685:10687   */\n      0x40\n        /* \"#utility.yul\":10680:10683   */\n      dup3\n        /* \"#utility.yul\":10676:10688   */\n      add\n        /* \"#utility.yul\":10669:10688   */\n      swap1\n      pop\n        /* \"#utility.yul\":10328:10694   */\n      swap2\n      swap1\n      pop\n      jump\t// out\n        /* \"#utility.yul\":10700:11119   */\n    tag_171:\n        /* \"#utility.yul\":10866:10870   */\n      0x00\n        /* \"#utility.yul\":10904:10906   */\n      0x20\n        /* \"#utility.yul\":10893:10902   */\n      dup3\n        /* \"#utility.yul\":10889:10907   */\n      add\n        /* \"#utility.yul\":10881:10907   */\n      swap1\n      pop\n        /* \"#utility.yul\":10953:10962   */\n      dup2\n        /* \"#utility.yul\":10947:10951   */\n      dup2\n        /* \"#utility.yul\":10943:10963   */\n      sub\n        /* \"#utility.yul\":10939:10940   */\n      0x00\n        /* \"#utility.yul\":10928:10937   */\n      dup4\n        /* \"#utility.yul\":10924:10941   */\n      add\n        /* \"#utility.yul\":10917:10964   */\n      mstore\n        /* \"#utility.yul\":10981:11112   */\n      tag_379\n        /* \"#utility.yul\":11107:11111   */\n      dup2\n        /* \"#utility.yul\":10981:11112   */\n      tag_255\n      jump\t// in\n    tag_379:\n        /* \"#utility.yul\":10973:11112   */\n      swap1\n      pop\n        /* \"#utility.yul\":10700:11119   */\n      swap2\n      swap1\n      pop\n      jump\t// out\n        /* \"#utility.yul\":11125:11346   */\n    tag_256:\n        /* \"#utility.yul\":11265:11299   */\n      0x45524332303a20617070726f766520746f20746865207a65726f206164647265\n        /* \"#utility.yul\":11261:11262   */\n      0x00\n        /* \"#utility.yul\":11253:11259   */\n      dup3\n        /* \"#utility.yul\":11249:11263   */\n      add\n        /* \"#utility.yul\":11242:11300   */\n      mstore\n        /* \"#utility.yul\":11334:11338   */\n      0x7373000000000000000000000000000000000000000000000000000000000000\n        /* \"#utility.yul\":11329:11331   */\n      0x20\n        /* \"#utility.yul\":11321:11327   */\n      dup3\n        /* \"#utility.yul\":11317:11332   */\n      add\n        /* \"#utility.yul\":11310:11339   */\n      mstore\n        /* \"#utility.yul\":11125:11346   */\n      pop\n      jump\t// out\n        /* \"#utility.yul\":11352:11718   */\n    tag_257:\n        /* \"#utility.yul\":11494:11497   */\n      0x00\n        /* \"#utility.yul\":11515:11582   */\n      tag_382\n        /* \"#utility.yul\":11579:11581   */\n      0x22\n        /* \"#utility.yul\":11574:11577   */\n      dup4\n        /* \"#utility.yul\":11515:11582   */\n      tag_226\n      jump\t// in\n    tag_382:\n        /* \"#utility.yul\":11508:11582   */\n      swap2\n      pop\n        /* \"#utility.yul\":11591:11684   */\n      tag_383\n        /* \"#utility.yul\":11680:11683   */\n      dup3\n        /* \"#utility.yul\":11591:11684   */\n      tag_256\n      jump\t// in\n    tag_383:\n        /* \"#utility.yul\":11709:11711   */\n      0x40\n        /* \"#utility.yul\":11704:11707   */\n      dup3\n        /* \"#utility.yul\":11700:11712   */\n      add\n        /* \"#utility.yul\":11693:11712   */\n      swap1\n      pop\n        /* \"#utility.yul\":11352:11718   */\n      swap2\n      swap1\n      pop\n      jump\t// out\n        /* \"#utility.yul\":11724:12143   */\n    tag_174:\n        /* \"#utility.yul\":11890:11894   */\n      0x00\n        /* \"#utility.yul\":11928:11930   */\n      0x20\n        /* \"#utility.yul\":11917:11926   */\n      dup3\n        /* \"#utility.yul\":11913:11931   */\n      add\n        /* \"#utility.yul\":11905:11931   */\n      swap1\n      pop\n        /* \"#utility.yul\":11977:11986   */\n      dup2\n        /* \"#utility.yul\":11971:11975   */\n      dup2\n        /* \"#utility.yul\":11967:11987   */\n      sub\n        /* \"#utility.yul\":11963:11964   */\n      0x00\n        /* \"#utility.yul\":11952:11961   */\n      dup4\n        /* \"#utility.yul\":11948:11965   */\n      add\n        /* \"#utility.yul\":11941:11988   */\n      mstore\n        /* \"#utility.yul\":12005:12136   */\n      tag_385\n        /* \"#utility.yul\":12131:12135   */\n      dup2\n        /* \"#utility.yul\":12005:12136   */\n      tag_257\n      jump\t// in\n    tag_385:\n        /* \"#utility.yul\":11997:12136   */\n      swap1\n      pop\n        /* \"#utility.yul\":11724:12143   */\n      swap2\n      swap1\n      pop\n      jump\t// out\n        /* \"#utility.yul\":12149:12328   */\n    tag_258:\n        /* \"#utility.yul\":12289:12320   */\n      0x45524332303a20696e73756666696369656e7420616c6c6f77616e6365000000\n        /* \"#utility.yul\":12285:12286   */\n      0x00\n        /* \"#utility.yul\":12277:12283   */\n      dup3\n        /* \"#utility.yul\":12273:12287   */\n      add\n        /* \"#utility.yul\":12266:12321   */\n      mstore\n        /* \"#utility.yul\":12149:12328   */\n      pop\n      jump\t// out\n        /* \"#utility.yul\":12334:12700   */\n    tag_259:\n        /* \"#utility.yul\":12476:12479   */\n      0x00\n        /* \"#utility.yul\":12497:12564   */\n      tag_388\n        /* \"#utility.yul\":12561:12563   */\n      0x1d\n        /* \"#utility.yul\":12556:12559   */\n      dup4\n        /* \"#utility.yul\":12497:12564   */\n      tag_226\n      jump\t// in\n    tag_388:\n        /* \"#utility.yul\":12490:12564   */\n      swap2\n      pop\n        /* \"#utility.yul\":12573:12666   */\n      tag_389\n        /* \"#utility.yul\":12662:12665   */\n      dup3\n        /* \"#utility.yul\":12573:12666   */\n      tag_258\n      jump\t// in\n    tag_389:\n        /* \"#utility.yul\":12691:12693   */\n      0x20\n        /* \"#utility.yul\":12686:12689   */\n      dup3\n        /* \"#utility.yul\":12682:12694   */\n      add\n        /* \"#utility.yul\":12675:12694   */\n      swap1\n      pop\n        /* \"#utility.yul\":12334:12700   */\n      swap2\n      swap1\n      pop\n      jump\t// out\n        /* \"#utility.yul\":12706:13125   */\n    tag_181:\n        /* \"#utility.yul\":12872:12876   */\n      0x00\n        /* \"#utility.yul\":12910:12912   */\n      0x20\n        /* \"#utility.yul\":12899:12908   */\n      dup3\n        /* \"#utility.yul\":12895:12913   */\n      add\n        /* \"#utility.yul\":12887:12913   */\n      swap1\n      pop\n        /* \"#utility.yul\":12959:12968   */\n      dup2\n        /* \"#utility.yul\":12953:12957   */\n      dup2\n        /* \"#utility.yul\":12949:12969   */\n      sub\n        /* \"#utility.yul\":12945:12946   */\n      0x00\n        /* \"#utility.yul\":12934:12943   */\n      dup4\n        /* \"#utility.yul\":12930:12947   */\n      add\n        /* \"#utility.yul\":12923:12970   */\n      mstore\n        /* \"#utility.yul\":12987:13118   */\n      tag_391\n        /* \"#utility.yul\":13113:13117   */\n      dup2\n        /* \"#utility.yul\":12987:13118   */\n      tag_259\n      jump\t// in\n    tag_391:\n        /* \"#utility.yul\":12979:13118   */\n      swap1\n      pop\n        /* \"#utility.yul\":12706:13125   */\n      swap2\n      swap1\n      pop\n      jump\t// out\n        /* \"#utility.yul\":13131:13355   */\n    tag_260:\n        /* \"#utility.yul\":13271:13305   */\n      0x45524332303a207472616e736665722066726f6d20746865207a65726f206164\n        /* \"#utility.yul\":13267:13268   */\n      0x00\n        /* \"#utility.yul\":13259:13265   */\n      dup3\n        /* \"#utility.yul\":13255:13269   */\n      add\n        /* \"#utility.yul\":13248:13306   */\n      mstore\n        /* \"#utility.yul\":13340:13347   */\n      0x6472657373000000000000000000000000000000000000000000000000000000\n        /* \"#utility.yul\":13335:13337   */\n      0x20\n        /* \"#utility.yul\":13327:13333   */\n      dup3\n        /* \"#utility.yul\":13323:13338   */\n      add\n        /* \"#utility.yul\":13316:13348   */\n      mstore\n        /* \"#utility.yul\":13131:13355   */\n      pop\n      jump\t// out\n        /* \"#utility.yul\":13361:13727   */\n    tag_261:\n        /* \"#utility.yul\":13503:13506   */\n      0x00\n        /* \"#utility.yul\":13524:13591   */\n      tag_394\n        /* \"#utility.yul\":13588:13590   */\n      0x25\n        /* \"#utility.yul\":13583:13586   */\n      dup4\n        /* \"#utility.yul\":13524:13591   */\n      tag_226\n      jump\t// in\n    tag_394:\n        /* \"#utility.yul\":13517:13591   */\n      swap2\n      pop\n        /* \"#utility.yul\":13600:13693   */\n      tag_395\n        /* \"#utility.yul\":13689:13692   */\n      dup3\n        /* \"#utility.yul\":13600:13693   */\n      tag_260\n      jump\t// in\n    tag_395:\n        /* \"#utility.yul\":13718:13720   */\n      0x40\n        /* \"#utility.yul\":13713:13716   */\n      dup3\n        /* \"#utility.yul\":13709:13721   */\n      add\n        /* \"#utility.yul\":13702:13721   */\n      swap1\n      pop\n        /* \"#utility.yul\":13361:13727   */\n      swap2\n      swap1\n      pop\n      jump\t// out\n        /* \"#utility.yul\":13733:14152   */\n    tag_186:\n        /* \"#utility.yul\":13899:13903   */\n      0x00\n        /* \"#utility.yul\":13937:13939   */\n      0x20\n        /* \"#utility.yul\":13926:13935   */\n      dup3\n        /* \"#utility.yul\":13922:13940   */\n      add\n        /* \"#utility.yul\":13914:13940   */\n      swap1\n      pop\n        /* \"#utility.yul\":13986:13995   */\n      dup2\n        /* \"#utility.yul\":13980:13984   */\n      dup2\n        /* \"#utility.yul\":13976:13996   */\n      sub\n        /* \"#utility.yul\":13972:13973   */\n      0x00\n        /* \"#utility.yul\":13961:13970   */\n      dup4\n        /* \"#utility.yul\":13957:13974   */\n      add\n        /* \"#utility.yul\":13950:13997   */\n      mstore\n        /* \"#utility.yul\":14014:14145   */\n      tag_397\n        /* \"#utility.yul\":14140:14144   */\n      dup2\n        /* \"#utility.yul\":14014:14145   */\n      tag_261\n      jump\t// in\n    tag_397:\n        /* \"#utility.yul\":14006:14145   */\n      swap1\n      pop\n        /* \"#utility.yul\":13733:14152   */\n      swap2\n      swap1\n      pop\n      jump\t// out\n        /* \"#utility.yul\":14158:14380   */\n    tag_262:\n        /* \"#utility.yul\":14298:14332   */\n      0x45524332303a207472616e7366657220746f20746865207a65726f2061646472\n        /* \"#utility.yul\":14294:14295   */\n      0x00\n        /* \"#utility.yul\":14286:14292   */\n      dup3\n        /* \"#utility.yul\":14282:14296   */\n      add\n        /* \"#utility.yul\":14275:14333   */\n      mstore\n        /* \"#utility.yul\":14367:14372   */\n      0x6573730000000000000000000000000000000000000000000000000000000000\n        /* \"#utility.yul\":14362:14364   */\n      0x20\n        /* \"#utility.yul\":14354:14360   */\n      dup3\n        /* \"#utility.yul\":14350:14365   */\n      add\n        /* \"#utility.yul\":14343:14373   */\n      mstore\n        /* \"#utility.yul\":14158:14380   */\n      pop\n      jump\t// out\n        /* \"#utility.yul\":14386:14752   */\n    tag_263:\n        /* \"#utility.yul\":14528:14531   */\n      0x00\n        /* \"#utility.yul\":14549:14616   */\n      tag_400\n        /* \"#utility.yul\":14613:14615   */\n      0x23\n        /* \"#utility.yul\":14608:14611   */\n      dup4\n        /* \"#utility.yul\":14549:14616   */\n      tag_226\n      jump\t// in\n    tag_400:\n        /* \"#utility.yul\":14542:14616   */\n      swap2\n      pop\n        /* \"#utility.yul\":14625:14718   */\n      tag_401\n        /* \"#utility.yul\":14714:14717   */\n      dup3\n        /* \"#utility.yul\":14625:14718   */\n      tag_262\n      jump\t// in\n    tag_401:\n        /* \"#utility.yul\":14743:14745   */\n      0x40\n        /* \"#utility.yul\":14738:14741   */\n      dup3\n        /* \"#utility.yul\":14734:14746   */\n      add\n        /* \"#utility.yul\":14727:14746   */\n      swap1\n      pop\n        /* \"#utility.yul\":14386:14752   */\n      swap2\n      swap1\n      pop\n      jump\t// out\n        /* \"#utility.yul\":14758:15177   */\n    tag_189:\n        /* \"#utility.yul\":14924:14928   */\n      0x00\n        /* \"#utility.yul\":14962:14964   */\n      0x20\n        /* \"#utility.yul\":14951:14960   */\n      dup3\n        /* \"#utility.yul\":14947:14965   */\n      add\n        /* \"#utility.yul\":14939:14965   */\n      swap1\n      pop\n        /* \"#utility.yul\":15011:15020   */\n      dup2\n        /* \"#utility.yul\":15005:15009   */\n      dup2\n        /* \"#utility.yul\":15001:15021   */\n      sub\n        /* \"#utility.yul\":14997:14998   */\n      0x00\n        /* \"#utility.yul\":14986:14995   */\n      dup4\n        /* \"#utility.yul\":14982:14999   */\n      add\n        /* \"#utility.yul\":14975:15022   */\n      mstore\n        /* \"#utility.yul\":15039:15170   */\n      tag_403\n        /* \"#utility.yul\":15165:15169   */\n      dup2\n        /* \"#utility.yul\":15039:15170   */\n      tag_263\n      jump\t// in\n    tag_403:\n        /* \"#utility.yul\":15031:15170   */\n      swap1\n      pop\n        /* \"#utility.yul\":14758:15177   */\n      swap2\n      swap1\n      pop\n      jump\t// out\n        /* \"#utility.yul\":15183:15408   */\n    tag_264:\n        /* \"#utility.yul\":15323:15357   */\n      0x45524332303a207472616e7366657220616d6f756e7420657863656564732062\n        /* \"#utility.yul\":15319:15320   */\n      0x00\n        /* \"#utility.yul\":15311:15317   */\n      dup3\n        /* \"#utility.yul\":15307:15321   */\n      add\n        /* \"#utility.yul\":15300:15358   */\n      mstore\n        /* \"#utility.yul\":15392:15400   */\n      0x616c616e63650000000000000000000000000000000000000000000000000000\n        /* \"#utility.yul\":15387:15389   */\n      0x20\n        /* \"#utility.yul\":15379:15385   */\n      dup3\n        /* \"#utility.yul\":15375:15390   */\n      add\n        /* \"#utility.yul\":15368:15401   */\n      mstore\n        /* \"#utility.yul\":15183:15408   */\n      pop\n      jump\t// out\n        /* \"#utility.yul\":15414:15780   */\n    tag_265:\n        /* \"#utility.yul\":15556:15559   */\n      0x00\n        /* \"#utility.yul\":15577:15644   */\n      tag_406\n        /* \"#utility.yul\":15641:15643   */\n      0x26\n        /* \"#utility.yul\":15636:15639   */\n      dup4\n        /* \"#utility.yul\":15577:15644   */\n      tag_226\n      jump\t// in\n    tag_406:\n        /* \"#utility.yul\":15570:15644   */\n      swap2\n      pop\n        /* \"#utility.yul\":15653:15746   */\n      tag_407\n        /* \"#utility.yul\":15742:15745   */\n      dup3\n        /* \"#utility.yul\":15653:15746   */\n      tag_264\n      jump\t// in\n    tag_407:\n        /* \"#utility.yul\":15771:15773   */\n      0x40\n        /* \"#utility.yul\":15766:15769   */\n      dup3\n        /* \"#utility.yul\":15762:15774   */\n      add\n        /* \"#utility.yul\":15755:15774   */\n      swap1\n      pop\n        /* \"#utility.yul\":15414:15780   */\n      swap2\n      swap1\n      pop\n      jump\t// out\n        /* \"#utility.yul\":15786:16205   */\n    tag_194:\n        /* \"#utility.yul\":15952:15956   */\n      0x00\n        /* \"#utility.yul\":15990:15992   */\n      0x20\n        /* \"#utility.yul\":15979:15988   */\n      dup3\n        /* \"#utility.yul\":15975:15993   */\n      add\n        /* \"#utility.yul\":15967:15993   */\n      swap1\n      pop\n        /* \"#utility.yul\":16039:16048   */\n      dup2\n        /* \"#utility.yul\":16033:16037   */\n      dup2\n        /* \"#utility.yul\":16029:16049   */\n      sub\n        /* \"#utility.yul\":16025:16026   */\n      0x00\n        /* \"#utility.yul\":16014:16023   */\n      dup4\n        /* \"#utility.yul\":16010:16027   */\n      add\n        /* \"#utility.yul\":16003:16050   */\n      mstore\n        /* \"#utility.yul\":16067:16198   */\n      tag_409\n        /* \"#utility.yul\":16193:16197   */\n      dup2\n        /* \"#utility.yul\":16067:16198   */\n      tag_265\n      jump\t// in\n    tag_409:\n        /* \"#utility.yul\":16059:16198   */\n      swap1\n      pop\n        /* \"#utility.yul\":15786:16205   */\n      swap2\n      swap1\n      pop\n      jump\t// out\n        /* \"#utility.yul\":16211:16392   */\n    tag_266:\n        /* \"#utility.yul\":16351:16384   */\n      0x45524332303a206d696e7420746f20746865207a65726f206164647265737300\n        /* \"#utility.yul\":16347:16348   */\n      0x00\n        /* \"#utility.yul\":16339:16345   */\n      dup3\n        /* \"#utility.yul\":16335:16349   */\n      add\n        /* \"#utility.yul\":16328:16385   */\n      mstore\n        /* \"#utility.yul\":16211:16392   */\n      pop\n      jump\t// out\n        /* \"#utility.yul\":16398:16764   */\n    tag_267:\n        /* \"#utility.yul\":16540:16543   */\n      0x00\n        /* \"#utility.yul\":16561:16628   */\n      tag_412\n        /* \"#utility.yul\":16625:16627   */\n      0x1f\n        /* \"#utility.yul\":16620:16623   */\n      dup4\n        /* \"#utility.yul\":16561:16628   */\n      tag_226\n      jump\t// in\n    tag_412:\n        /* \"#utility.yul\":16554:16628   */\n      swap2\n      pop\n        /* \"#utility.yul\":16637:16730   */\n      tag_413\n        /* \"#utility.yul\":16726:16729   */\n      dup3\n        /* \"#utility.yul\":16637:16730   */\n      tag_266\n      jump\t// in\n    tag_413:\n        /* \"#utility.yul\":16755:16757   */\n      0x20\n        /* \"#utility.yul\":16750:16753   */\n      dup3\n        /* \"#utility.yul\":16746:16758   */\n      add\n        /* \"#utility.yul\":16739:16758   */\n      swap1\n      pop\n        /* \"#utility.yul\":16398:16764   */\n      swap2\n      swap1\n      pop\n      jump\t// out\n        /* \"#utility.yul\":16770:17189   */\n    tag_201:\n        /* \"#utility.yul\":16936:16940   */\n      0x00\n        /* \"#utility.yul\":16974:16976   */\n      0x20\n        /* \"#utility.yul\":16963:16972   */\n      dup3\n        /* \"#utility.yul\":16959:16977   */\n      add\n        /* \"#utility.yul\":16951:16977   */\n      swap1\n      pop\n        /* \"#utility.yul\":17023:17032   */\n      dup2\n        /* \"#utility.yul\":17017:17021   */\n      dup2\n        /* \"#utility.yul\":17013:17033   */\n      sub\n        /* \"#utility.yul\":17009:17010   */\n      0x00\n        /* \"#utility.yul\":16998:17007   */\n      dup4\n        /* \"#utility.yul\":16994:17011   */\n      add\n        /* \"#utility.yul\":16987:17034   */\n      mstore\n        /* \"#utility.yul\":17051:17182   */\n      tag_415\n        /* \"#utility.yul\":17177:17181   */\n      dup2\n        /* \"#utility.yul\":17051:17182   */\n      tag_267\n      jump\t// in\n    tag_415:\n        /* \"#utility.yul\":17043:17182   */\n      swap1\n      pop\n        /* \"#utility.yul\":16770:17189   */\n      swap2\n      swap1\n      pop\n      jump\t// out\n        /* \"#utility.yul\":17195:17377   */\n    tag_268:\n        /* \"#utility.yul\":17335:17369   */\n      0x4f776e61626c653a2063616c6c6572206973206e6f7420746865206f776e6572\n        /* \"#utility.yul\":17331:17332   */\n      0x00\n        /* \"#utility.yul\":17323:17329   */\n      dup3\n        /* \"#utility.yul\":17319:17333   */\n      add\n        /* \"#utility.yul\":17312:17370   */\n      mstore\n        /* \"#utility.yul\":17195:17377   */\n      pop\n      jump\t// out\n        /* \"#utility.yul\":17383:17749   */\n    tag_269:\n        /* \"#utility.yul\":17525:17528   */\n      0x00\n        /* \"#utility.yul\":17546:17613   */\n      tag_418\n        /* \"#utility.yul\":17610:17612   */\n      0x20\n        /* \"#utility.yul\":17605:17608   */\n      dup4\n        /* \"#utility.yul\":17546:17613   */\n      tag_226\n      jump\t// in\n    tag_418:\n        /* \"#utility.yul\":17539:17613   */\n      swap2\n      pop\n        /* \"#utility.yul\":17622:17715   */\n      tag_419\n        /* \"#utility.yul\":17711:17714   */\n      dup3\n        /* \"#utility.yul\":17622:17715   */\n      tag_268\n      jump\t// in\n    tag_419:\n        /* \"#utility.yul\":17740:17742   */\n      0x20\n        /* \"#utility.yul\":17735:17738   */\n      dup3\n        /* \"#utility.yul\":17731:17743   */\n      add\n        /* \"#utility.yul\":17724:17743   */\n      swap1\n      pop\n        /* \"#utility.yul\":17383:17749   */\n      swap2\n      swap1\n      pop\n      jump\t// out\n        /* \"#utility.yul\":17755:18174   */\n    tag_211:\n        /* \"#utility.yul\":17921:17925   */\n      0x00\n        /* \"#utility.yul\":17959:17961   */\n      0x20\n        /* \"#utility.yul\":17948:17957   */\n      dup3\n        /* \"#utility.yul\":17944:17962   */\n      add\n        /* \"#utility.yul\":17936:17962   */\n      swap1\n      pop\n        /* \"#utility.yul\":18008:18017   */\n      dup2\n        /* \"#utility.yul\":18002:18006   */\n      dup2\n        /* \"#utility.yul\":17998:18018   */\n      sub\n        /* \"#utility.yul\":17994:17995   */\n      0x00\n        /* \"#utility.yul\":17983:17992   */\n      dup4\n        /* \"#utility.yul\":17979:17996   */\n      add\n        /* \"#utility.yul\":17972:18019   */\n      mstore\n        /* \"#utility.yul\":18036:18167   */\n      tag_421\n        /* \"#utility.yul\":18162:18166   */\n      dup2\n        /* \"#utility.yul\":18036:18167   */\n      tag_269\n      jump\t// in\n    tag_421:\n        /* \"#utility.yul\":18028:18167   */\n      swap1\n      pop\n        /* \"#utility.yul\":17755:18174   */\n      swap2\n      swap1\n      pop\n      jump\t// out\n        /* \"#utility.yul\":18180:18400   */\n    tag_270:\n        /* \"#utility.yul\":18320:18354   */\n      0x45524332303a206275726e2066726f6d20746865207a65726f20616464726573\n        /* \"#utility.yul\":18316:18317   */\n      0x00\n        /* \"#utility.yul\":18308:18314   */\n      dup3\n        /* \"#utility.yul\":18304:18318   */\n      add\n        /* \"#utility.yul\":18297:18355   */\n      mstore\n        /* \"#utility.yul\":18389:18392   */\n      0x7300000000000000000000000000000000000000000000000000000000000000\n        /* \"#utility.yul\":18384:18386   */\n      0x20\n        /* \"#utility.yul\":18376:18382   */\n      dup3\n        /* \"#utility.yul\":18372:18387   */\n      add\n        /* \"#utility.yul\":18365:18393   */\n      mstore\n        /* \"#utility.yul\":18180:18400   */\n      pop\n      jump\t// out\n        /* \"#utility.yul\":18406:18772   */\n    tag_271:\n        /* \"#utility.yul\":18548:18551   */\n      0x00\n        /* \"#utility.yul\":18569:18636   */\n      tag_424\n        /* \"#utility.yul\":18633:18635   */\n      0x21\n        /* \"#utility.yul\":18628:18631   */\n      dup4\n        /* \"#utility.yul\":18569:18636   */\n      tag_226\n      jump\t// in\n    tag_424:\n        /* \"#utility.yul\":18562:18636   */\n      swap2\n      pop\n        /* \"#utility.yul\":18645:18738   */\n      tag_425\n        /* \"#utility.yul\":18734:18737   */\n      dup3\n        /* \"#utility.yul\":18645:18738   */\n      tag_270\n      jump\t// in\n    tag_425:\n        /* \"#utility.yul\":18763:18765   */\n      0x40\n        /* \"#utility.yul\":18758:18761   */\n      dup3\n        /* \"#utility.yul\":18754:18766   */\n      add\n        /* \"#utility.yul\":18747:18766   */\n      swap1\n      pop\n        /* \"#utility.yul\":18406:18772   */\n      swap2\n      swap1\n      pop\n      jump\t// out\n        /* \"#utility.yul\":18778:19197   */\n    tag_216:\n        /* \"#utility.yul\":18944:18948   */\n      0x00\n        /* \"#utility.yul\":18982:18984   */\n      0x20\n        /* \"#utility.yul\":18971:18980   */\n      dup3\n        /* \"#utility.yul\":18967:18985   */\n      add\n        /* \"#utility.yul\":18959:18985   */\n      swap1\n      pop\n        /* \"#utility.yul\":19031:19040   */\n      dup2\n        /* \"#utility.yul\":19025:19029   */\n      dup2\n        /* \"#utility.yul\":19021:19041   */\n      sub\n        /* \"#utility.yul\":19017:19018   */\n      0x00\n        /* \"#utility.yul\":19006:19015   */\n      dup4\n        /* \"#utility.yul\":19002:19019   */\n      add\n        /* \"#utility.yul\":18995:19042   */\n      mstore\n        /* \"#utility.yul\":19059:19190   */\n      tag_427\n        /* \"#utility.yul\":19185:19189   */\n      dup2\n        /* \"#utility.yul\":19059:19190   */\n      tag_271\n      jump\t// in\n    tag_427:\n        /* \"#utility.yul\":19051:19190   */\n      swap1\n      pop\n        /* \"#utility.yul\":18778:19197   */\n      swap2\n      swap1\n      pop\n      jump\t// out\n        /* \"#utility.yul\":19203:19424   */\n    tag_272:\n        /* \"#utility.yul\":19343:19377   */\n      0x45524332303a206275726e20616d6f756e7420657863656564732062616c616e\n        /* \"#utility.yul\":19339:19340   */\n      0x00\n        /* \"#utility.yul\":19331:19337   */\n      dup3\n        /* \"#utility.yul\":19327:19341   */\n      add\n        /* \"#utility.yul\":19320:19378   */\n      mstore\n        /* \"#utility.yul\":19412:19416   */\n      0x6365000000000000000000000000000000000000000000000000000000000000\n        /* \"#utility.yul\":19407:19409   */\n      0x20\n        /* \"#utility.yul\":19399:19405   */\n      dup3\n        /* \"#utility.yul\":19395:19410   */\n      add\n        /* \"#utility.yul\":19388:19417   */\n      mstore\n        /* \"#utility.yul\":19203:19424   */\n      pop\n      jump\t// out\n        /* \"#utility.yul\":19430:19796   */\n    tag_273:\n        /* \"#utility.yul\":19572:19575   */\n      0x00\n        /* \"#utility.yul\":19593:19660   */\n      tag_430\n        /* \"#utility.yul\":19657:19659   */\n      0x22\n        /* \"#utility.yul\":19652:19655   */\n      dup4\n        /* \"#utility.yul\":19593:19660   */\n      tag_226\n      jump\t// in\n    tag_430:\n        /* \"#utility.yul\":19586:19660   */\n      swap2\n      pop\n        /* \"#utility.yul\":19669:19762   */\n      tag_431\n        /* \"#utility.yul\":19758:19761   */\n      dup3\n        /* \"#utility.yul\":19669:19762   */\n      tag_272\n      jump\t// in\n    tag_431:\n        /* \"#utility.yul\":19787:19789   */\n      0x40\n        /* \"#utility.yul\":19782:19785   */\n      dup3\n        /* \"#utility.yul\":19778:19790   */\n      add\n        /* \"#utility.yul\":19771:19790   */\n      swap1\n      pop\n        /* \"#utility.yul\":19430:19796   */\n      swap2\n      swap1\n      pop\n      jump\t// out\n        /* \"#utility.yul\":19802:20221   */\n    tag_220:\n        /* \"#utility.yul\":19968:19972   */\n      0x00\n        /* \"#utility.yul\":20006:20008   */\n      0x20\n        /* \"#utility.yul\":19995:20004   */\n      dup3\n        /* \"#utility.yul\":19991:20009   */\n      add\n        /* \"#utility.yul\":19983:20009   */\n      swap1\n      pop\n        /* \"#utility.yul\":20055:20064   */\n      dup2\n        /* \"#utility.yul\":20049:20053   */\n      dup2\n        /* \"#utility.yul\":20045:20065   */\n      sub\n        /* \"#utility.yul\":20041:20042   */\n      0x00\n        /* \"#utility.yul\":20030:20039   */\n      dup4\n        /* \"#utility.yul\":20026:20043   */\n      add\n        /* \"#utility.yul\":20019:20066   */\n      mstore\n        /* \"#utility.yul\":20083:20214   */\n      tag_433\n        /* \"#utility.yul\":20209:20213   */\n      dup2\n        /* \"#utility.yul\":20083:20214   */\n      tag_273\n      jump\t// in\n    tag_433:\n        /* \"#utility.yul\":20075:20214   */\n      swap1\n      pop\n        /* \"#utility.yul\":19802:20221   */\n      swap2\n      swap1\n      pop\n      jump\t// out\n\n    auxdata: 0xa26469706673582212208c764b14352ccf2d3c16c1fc86adb57c6c28af3ee8171b6a66ad28055d52d2f264736f6c634300080e0033\n}\n",
				"bytecode": {
					"linkReferences": {},
					"object": "60806040523480156200001157600080fd5b506040518060400160405280600881526020017f58205265776172640000000000000000000000000000000000000000000000008152506040518060400160405280600281526020017f5852000000000000000000000000000000000000000000000000000000000000815250816003908051906020019062000096929190620001a6565b508060049080519060200190620000af929190620001a6565b505050620000d2620000c6620000d860201b60201c565b620000e060201b60201c565b620002ba565b600033905090565b6000600560009054906101000a900473ffffffffffffffffffffffffffffffffffffffff16905081600560006101000a81548173ffffffffffffffffffffffffffffffffffffffff021916908373ffffffffffffffffffffffffffffffffffffffff1602179055508173ffffffffffffffffffffffffffffffffffffffff168173ffffffffffffffffffffffffffffffffffffffff167f8be0079c531659141344cd1fd0a4f28419497f9722a3daafe3b4186f6b6457e060405160405180910390a35050565b828054620001b49062000285565b90600052602060002090601f016020900481019282620001d8576000855562000224565b82601f10620001f357805160ff191683800117855562000224565b8280016001018555821562000224579182015b828111156200022357825182559160200191906001019062000206565b5b50905062000233919062000237565b5090565b5b808211156200025257600081600090555060010162000238565b5090565b7f4e487b7100000000000000000000000000000000000000000000000000000000600052602260045260246000fd5b600060028204905060018216806200029e57607f821691505b602082108103620002b457620002b362000256565b5b50919050565b611d7780620002ca6000396000f3fe608060405234801561001057600080fd5b50600436106101165760003560e01c8063715018a6116100a2578063a457c2d711610071578063a457c2d7146102d1578063a9059cbb14610301578063dd62ed3e14610331578063f2fde38b14610361578063fb0289ca1461037d57610116565b8063715018a61461026f5780638da5cb5b1461027957806395d89b41146102975780639dc29fac146102b557610116565b806323b872dd116100e957806323b872dd146101a5578063313ce567146101d557806339509351146101f357806340c10f191461022357806370a082311461023f57610116565b806306fdde031461011b578063095ea7b31461013957806318160ddd1461016957806319d40b0814610187575b600080fd5b610123610399565b604051610130919061130e565b60405180910390f35b610153600480360381019061014e91906113c9565b61042b565b6040516101609190611424565b60405180910390f35b61017161044e565b60405161017e919061144e565b60405180910390f35b61018f610458565b60405161019c9190611478565b60405180910390f35b6101bf60048036038101906101ba9190611493565b61047e565b6040516101cc9190611424565b60405180910390f35b6101dd6104ad565b6040516101ea9190611502565b60405180910390f35b61020d600480360381019061020891906113c9565b6104b6565b60405161021a9190611424565b60405180910390f35b61023d600480360381019061023891906113c9565b6104ed565b005b6102596004803603810190610254919061151d565b61058b565b604051610266919061144e565b60405180910390f35b6102776105d3565b005b6102816105e7565b60405161028e9190611478565b60405180910390f35b61029f610611565b6040516102ac919061130e565b60405180910390f35b6102cf60048036038101906102ca91906113c9565b6106a3565b005b6102eb60048036038101906102e691906113c9565b610741565b6040516102f89190611424565b60405180910390f35b61031b600480360381019061031691906113c9565b6107b8565b6040516103289190611424565b60405180910390f35b61034b6004803603810190610346919061154a565b6107db565b604051610358919061144e565b60405180910390f35b61037b6004803603810190610376919061151d565b610862565b005b6103976004803603810190610392919061151d565b6108e5565b005b6060600380546103a8906115b9565b80601f01602080910402602001604051908101604052809291908181526020018280546103d4906115b9565b80156104215780601f106103f657610100808354040283529160200191610421565b820191906000526020600020905b81548152906001019060200180831161040457829003601f168201915b5050505050905090565b600080610436610931565b9050610443818585610939565b600191505092915050565b6000600254905090565b600660009054906101000a900473ffffffffffffffffffffffffffffffffffffffff1681565b600080610489610931565b9050610496858285610b02565b6104a1858585610b8e565b60019150509392505050565b60006012905090565b6000806104c1610931565b90506104e28185856104d385896107db565b6104dd9190611619565b610939565b600191505092915050565b600660009054906101000a900473ffffffffffffffffffffffffffffffffffffffff1673ffffffffffffffffffffffffffffffffffffffff163373ffffffffffffffffffffffffffffffffffffffff161461057d576040517f08c379a0000000000000000000000000000000000000000000000000000000008152600401610574906116bb565b60405180910390fd5b6105878282610e04565b5050565b60008060008373ffffffffffffffffffffffffffffffffffffffff1673ffffffffffffffffffffffffffffffffffffffff168152602001908152602001600020549050919050565b6105db610f5a565b6105e56000610fd8565b565b6000600560009054906101000a900473ffffffffffffffffffffffffffffffffffffffff16905090565b606060048054610620906115b9565b80601f016020809104026020016040519081016040528092919081815260200182805461064c906115b9565b80156106995780601f1061066e57610100808354040283529160200191610699565b820191906000526020600020905b81548152906001019060200180831161067c57829003601f168201915b5050505050905090565b600660009054906101000a900473ffffffffffffffffffffffffffffffffffffffff1673ffffffffffffffffffffffffffffffffffffffff163373ffffffffffffffffffffffffffffffffffffffff1614610733576040517f08c379a000000000000000000000000000000000000000000000000000000000815260040161072a906116bb565b60405180910390fd5b61073d828261109e565b5050565b60008061074c610931565b9050600061075a82866107db565b90508381101561079f576040517f08c379a00000000000000000000000000000000000000000000000000000000081526004016107969061174d565b60405180910390fd5b6107ac8286868403610939565b60019250505092915050565b6000806107c3610931565b90506107d0818585610b8e565b600191505092915050565b6000600160008473ffffffffffffffffffffffffffffffffffffffff1673ffffffffffffffffffffffffffffffffffffffff16815260200190815260200160002060008373ffffffffffffffffffffffffffffffffffffffff1673ffffffffffffffffffffffffffffffffffffffff16815260200190815260200160002054905092915050565b61086a610f5a565b600073ffffffffffffffffffffffffffffffffffffffff168173ffffffffffffffffffffffffffffffffffffffff16036108d9576040517f08c379a00000000000000000000000000000000000000000000000000000000081526004016108d0906117df565b60405180910390fd5b6108e281610fd8565b50565b6108ed610f5a565b80600660006101000a81548173ffffffffffffffffffffffffffffffffffffffff021916908373ffffffffffffffffffffffffffffffffffffffff16021790555050565b600033905090565b600073ffffffffffffffffffffffffffffffffffffffff168373ffffffffffffffffffffffffffffffffffffffff16036109a8576040517f08c379a000000000000000000000000000000000000000000000000000000000815260040161099f90611871565b60405180910390fd5b600073ffffffffffffffffffffffffffffffffffffffff168273ffffffffffffffffffffffffffffffffffffffff1603610a17576040517f08c379a0000000000000000000000000000000000000000000000000000000008152600401610a0e90611903565b60405180910390fd5b80600160008573ffffffffffffffffffffffffffffffffffffffff1673ffffffffffffffffffffffffffffffffffffffff16815260200190815260200160002060008473ffffffffffffffffffffffffffffffffffffffff1673ffffffffffffffffffffffffffffffffffffffff168152602001908152602001600020819055508173ffffffffffffffffffffffffffffffffffffffff168373ffffffffffffffffffffffffffffffffffffffff167f8c5be1e5ebec7d5bd14f71427d1e84f3dd0314c0f7b2291e5b200ac8c7c3b92583604051610af5919061144e565b60405180910390a3505050565b6000610b0e84846107db565b90507fffffffffffffffffffffffffffffffffffffffffffffffffffffffffffffffff8114610b885781811015610b7a576040517f08c379a0000000000000000000000000000000000000000000000000000000008152600401610b719061196f565b60405180910390fd5b610b878484848403610939565b5b50505050565b600073ffffffffffffffffffffffffffffffffffffffff168373ffffffffffffffffffffffffffffffffffffffff1603610bfd576040517f08c379a0000000000000000000000000000000000000000000000000000000008152600401610bf490611a01565b60405180910390fd5b600073ffffffffffffffffffffffffffffffffffffffff168273ffffffffffffffffffffffffffffffffffffffff1603610c6c576040517f08c379a0000000000000000000000000000000000000000000000000000000008152600401610c6390611a93565b60405180910390fd5b610c7783838361126b565b60008060008573ffffffffffffffffffffffffffffffffffffffff1673ffffffffffffffffffffffffffffffffffffffff16815260200190815260200160002054905081811015610cfd576040517f08c379a0000000000000000000000000000000000000000000000000000000008152600401610cf490611b25565b60405180910390fd5b8181036000808673ffffffffffffffffffffffffffffffffffffffff1673ffffffffffffffffffffffffffffffffffffffff16815260200190815260200160002081905550816000808573ffffffffffffffffffffffffffffffffffffffff1673ffffffffffffffffffffffffffffffffffffffff168152602001908152602001600020600082825401925050819055508273ffffffffffffffffffffffffffffffffffffffff168473ffffffffffffffffffffffffffffffffffffffff167fddf252ad1be2c89b69c2b068fc378daa952ba7f163c4a11628f55a4df523b3ef84604051610deb919061144e565b60405180910390a3610dfe848484611270565b50505050565b600073ffffffffffffffffffffffffffffffffffffffff168273ffffffffffffffffffffffffffffffffffffffff1603610e73576040517f08c379a0000000000000000000000000000000000000000000000000000000008152600401610e6a90611b91565b60405180910390fd5b610e7f6000838361126b565b8060026000828254610e919190611619565b92505081905550806000808473ffffffffffffffffffffffffffffffffffffffff1673ffffffffffffffffffffffffffffffffffffffff168152602001908152602001600020600082825401925050819055508173ffffffffffffffffffffffffffffffffffffffff16600073ffffffffffffffffffffffffffffffffffffffff167fddf252ad1be2c89b69c2b068fc378daa952ba7f163c4a11628f55a4df523b3ef83604051610f42919061144e565b60405180910390a3610f5660008383611270565b5050565b610f62610931565b73ffffffffffffffffffffffffffffffffffffffff16610f806105e7565b73ffffffffffffffffffffffffffffffffffffffff1614610fd6576040517f08c379a0000000000000000000000000000000000000000000000000000000008152600401610fcd90611bfd565b60405180910390fd5b565b6000600560009054906101000a900473ffffffffffffffffffffffffffffffffffffffff16905081600560006101000a81548173ffffffffffffffffffffffffffffffffffffffff021916908373ffffffffffffffffffffffffffffffffffffffff1602179055508173ffffffffffffffffffffffffffffffffffffffff168173ffffffffffffffffffffffffffffffffffffffff167f8be0079c531659141344cd1fd0a4f28419497f9722a3daafe3b4186f6b6457e060405160405180910390a35050565b600073ffffffffffffffffffffffffffffffffffffffff168273ffffffffffffffffffffffffffffffffffffffff160361110d576040517f08c379a000000000000000000000000000000000000000000000000000000000815260040161110490611c8f565b60405180910390fd5b6111198260008361126b565b60008060008473ffffffffffffffffffffffffffffffffffffffff1673ffffffffffffffffffffffffffffffffffffffff1681526020019081526020016000205490508181101561119f576040517f08c379a000000000000000000000000000000000000000000000000000000000815260040161119690611d21565b60405180910390fd5b8181036000808573ffffffffffffffffffffffffffffffffffffffff1673ffffffffffffffffffffffffffffffffffffffff1681526020019081526020016000208190555081600260008282540392505081905550600073ffffffffffffffffffffffffffffffffffffffff168373ffffffffffffffffffffffffffffffffffffffff167fddf252ad1be2c89b69c2b068fc378daa952ba7f163c4a11628f55a4df523b3ef84604051611252919061144e565b60405180910390a361126683600084611270565b505050565b505050565b505050565b600081519050919050565b600082825260208201905092915050565b60005b838110156112af578082015181840152602081019050611294565b838111156112be576000848401525b50505050565b6000601f19601f8301169050919050565b60006112e082611275565b6112ea8185611280565b93506112fa818560208601611291565b611303816112c4565b840191505092915050565b6000602082019050818103600083015261132881846112d5565b905092915050565b600080fd5b600073ffffffffffffffffffffffffffffffffffffffff82169050919050565b600061136082611335565b9050919050565b61137081611355565b811461137b57600080fd5b50565b60008135905061138d81611367565b92915050565b6000819050919050565b6113a681611393565b81146113b157600080fd5b50565b6000813590506113c38161139d565b92915050565b600080604083850312156113e0576113df611330565b5b60006113ee8582860161137e565b92505060206113ff858286016113b4565b9150509250929050565b60008115159050919050565b61141e81611409565b82525050565b60006020820190506114396000830184611415565b92915050565b61144881611393565b82525050565b6000602082019050611463600083018461143f565b92915050565b61147281611355565b82525050565b600060208201905061148d6000830184611469565b92915050565b6000806000606084860312156114ac576114ab611330565b5b60006114ba8682870161137e565b93505060206114cb8682870161137e565b92505060406114dc868287016113b4565b9150509250925092565b600060ff82169050919050565b6114fc816114e6565b82525050565b600060208201905061151760008301846114f3565b92915050565b60006020828403121561153357611532611330565b5b60006115418482850161137e565b91505092915050565b6000806040838503121561156157611560611330565b5b600061156f8582860161137e565b92505060206115808582860161137e565b9150509250929050565b7f4e487b7100000000000000000000000000000000000000000000000000000000600052602260045260246000fd5b600060028204905060018216806115d157607f821691505b6020821081036115e4576115e361158a565b5b50919050565b7f4e487b7100000000000000000000000000000000000000000000000000000000600052601160045260246000fd5b600061162482611393565b915061162f83611393565b9250827fffffffffffffffffffffffffffffffffffffffffffffffffffffffffffffffff03821115611664576116636115ea565b5b828201905092915050565b7f4e6f7420417574686f7269736564000000000000000000000000000000000000600082015250565b60006116a5600e83611280565b91506116b08261166f565b602082019050919050565b600060208201905081810360008301526116d481611698565b9050919050565b7f45524332303a2064656372656173656420616c6c6f77616e63652062656c6f7760008201527f207a65726f000000000000000000000000000000000000000000000000000000602082015250565b6000611737602583611280565b9150611742826116db565b604082019050919050565b600060208201905081810360008301526117668161172a565b9050919050565b7f4f776e61626c653a206e6577206f776e657220697320746865207a65726f206160008201527f6464726573730000000000000000000000000000000000000000000000000000602082015250565b60006117c9602683611280565b91506117d48261176d565b604082019050919050565b600060208201905081810360008301526117f8816117bc565b9050919050565b7f45524332303a20617070726f76652066726f6d20746865207a65726f2061646460008201527f7265737300000000000000000000000000000000000000000000000000000000602082015250565b600061185b602483611280565b9150611866826117ff565b604082019050919050565b6000602082019050818103600083015261188a8161184e565b9050919050565b7f45524332303a20617070726f766520746f20746865207a65726f20616464726560008201527f7373000000000000000000000000000000000000000000000000000000000000602082015250565b60006118ed602283611280565b91506118f882611891565b604082019050919050565b6000602082019050818103600083015261191c816118e0565b9050919050565b7f45524332303a20696e73756666696369656e7420616c6c6f77616e6365000000600082015250565b6000611959601d83611280565b915061196482611923565b602082019050919050565b600060208201905081810360008301526119888161194c565b9050919050565b7f45524332303a207472616e736665722066726f6d20746865207a65726f20616460008201527f6472657373000000000000000000000000000000000000000000000000000000602082015250565b60006119eb602583611280565b91506119f68261198f565b604082019050919050565b60006020820190508181036000830152611a1a816119de565b9050919050565b7f45524332303a207472616e7366657220746f20746865207a65726f206164647260008201527f6573730000000000000000000000000000000000000000000000000000000000602082015250565b6000611a7d602383611280565b9150611a8882611a21565b604082019050919050565b60006020820190508181036000830152611aac81611a70565b9050919050565b7f45524332303a207472616e7366657220616d6f756e742065786365656473206260008201527f616c616e63650000000000000000000000000000000000000000000000000000602082015250565b6000611b0f602683611280565b9150611b1a82611ab3565b604082019050919050565b60006020820190508181036000830152611b3e81611b02565b9050919050565b7f45524332303a206d696e7420746f20746865207a65726f206164647265737300600082015250565b6000611b7b601f83611280565b9150611b8682611b45565b602082019050919050565b60006020820190508181036000830152611baa81611b6e565b9050919050565b7f4f776e61626c653a2063616c6c6572206973206e6f7420746865206f776e6572600082015250565b6000611be7602083611280565b9150611bf282611bb1565b602082019050919050565b60006020820190508181036000830152611c1681611bda565b9050919050565b7f45524332303a206275726e2066726f6d20746865207a65726f2061646472657360008201527f7300000000000000000000000000000000000000000000000000000000000000602082015250565b6000611c79602183611280565b9150611c8482611c1d565b604082019050919050565b60006020820190508181036000830152611ca881611c6c565b9050919050565b7f45524332303a206275726e20616d6f756e7420657863656564732062616c616e60008201527f6365000000000000000000000000000000000000000000000000000000000000602082015250565b6000611d0b602283611280565b9150611d1682611caf565b604082019050919050565b60006020820190508181036000830152611d3a81611cfe565b905091905056fea26469706673582212208c764b14352ccf2d3c16c1fc86adb57c6c28af3ee8171b6a66ad28055d52d2f264736f6c634300080e0033",
					"opcodes": "PUSH1 0x80 PUSH1 0x40 MSTORE CALLVALUE DUP1 ISZERO PUSH3 0x11 JUMPI PUSH1 0x0 DUP1 REVERT JUMPDEST POP PUSH1 0x40 MLOAD DUP1 PUSH1 0x40 ADD PUSH1 0x40 MSTORE DUP1 PUSH1 0x8 DUP2 MSTORE PUSH1 0x20 ADD PUSH32 0x5820526577617264000000000000000000000000000000000000000000000000 DUP2 MSTORE POP PUSH1 0x40 MLOAD DUP1 PUSH1 0x40 ADD PUSH1 0x40 MSTORE DUP1 PUSH1 0x2 DUP2 MSTORE PUSH1 0x20 ADD PUSH32 0x5852000000000000000000000000000000000000000000000000000000000000 DUP2 MSTORE POP DUP2 PUSH1 0x3 SWAP1 DUP1 MLOAD SWAP1 PUSH1 0x20 ADD SWAP1 PUSH3 0x96 SWAP3 SWAP2 SWAP1 PUSH3 0x1A6 JUMP JUMPDEST POP DUP1 PUSH1 0x4 SWAP1 DUP1 MLOAD SWAP1 PUSH1 0x20 ADD SWAP1 PUSH3 0xAF SWAP3 SWAP2 SWAP1 PUSH3 0x1A6 JUMP JUMPDEST POP POP POP PUSH3 0xD2 PUSH3 0xC6 PUSH3 0xD8 PUSH1 0x20 SHL PUSH1 0x20 SHR JUMP JUMPDEST PUSH3 0xE0 PUSH1 0x20 SHL PUSH1 0x20 SHR JUMP JUMPDEST PUSH3 0x2BA JUMP JUMPDEST PUSH1 0x0 CALLER SWAP1 POP SWAP1 JUMP JUMPDEST PUSH1 0x0 PUSH1 0x5 PUSH1 0x0 SWAP1 SLOAD SWAP1 PUSH2 0x100 EXP SWAP1 DIV PUSH20 0xFFFFFFFFFFFFFFFFFFFFFFFFFFFFFFFFFFFFFFFF AND SWAP1 POP DUP2 PUSH1 0x5 PUSH1 0x0 PUSH2 0x100 EXP DUP2 SLOAD DUP2 PUSH20 0xFFFFFFFFFFFFFFFFFFFFFFFFFFFFFFFFFFFFFFFF MUL NOT AND SWAP1 DUP4 PUSH20 0xFFFFFFFFFFFFFFFFFFFFFFFFFFFFFFFFFFFFFFFF AND MUL OR SWAP1 SSTORE POP DUP2 PUSH20 0xFFFFFFFFFFFFFFFFFFFFFFFFFFFFFFFFFFFFFFFF AND DUP2 PUSH20 0xFFFFFFFFFFFFFFFFFFFFFFFFFFFFFFFFFFFFFFFF AND PUSH32 0x8BE0079C531659141344CD1FD0A4F28419497F9722A3DAAFE3B4186F6B6457E0 PUSH1 0x40 MLOAD PUSH1 0x40 MLOAD DUP1 SWAP2 SUB SWAP1 LOG3 POP POP JUMP JUMPDEST DUP3 DUP1 SLOAD PUSH3 0x1B4 SWAP1 PUSH3 0x285 JUMP JUMPDEST SWAP1 PUSH1 0x0 MSTORE PUSH1 0x20 PUSH1 0x0 KECCAK256 SWAP1 PUSH1 0x1F ADD PUSH1 0x20 SWAP1 DIV DUP2 ADD SWAP3 DUP3 PUSH3 0x1D8 JUMPI PUSH1 0x0 DUP6 SSTORE PUSH3 0x224 JUMP JUMPDEST DUP3 PUSH1 0x1F LT PUSH3 0x1F3 JUMPI DUP1 MLOAD PUSH1 0xFF NOT AND DUP4 DUP1 ADD OR DUP6 SSTORE PUSH3 0x224 JUMP JUMPDEST DUP3 DUP1 ADD PUSH1 0x1 ADD DUP6 SSTORE DUP3 ISZERO PUSH3 0x224 JUMPI SWAP2 DUP3 ADD JUMPDEST DUP3 DUP2 GT ISZERO PUSH3 0x223 JUMPI DUP3 MLOAD DUP3 SSTORE SWAP2 PUSH1 0x20 ADD SWAP2 SWAP1 PUSH1 0x1 ADD SWAP1 PUSH3 0x206 JUMP JUMPDEST JUMPDEST POP SWAP1 POP PUSH3 0x233 SWAP2 SWAP1 PUSH3 0x237 JUMP JUMPDEST POP SWAP1 JUMP JUMPDEST JUMPDEST DUP1 DUP3 GT ISZERO PUSH3 0x252 JUMPI PUSH1 0x0 DUP2 PUSH1 0x0 SWAP1 SSTORE POP PUSH1 0x1 ADD PUSH3 0x238 JUMP JUMPDEST POP SWAP1 JUMP JUMPDEST PUSH32 0x4E487B7100000000000000000000000000000000000000000000000000000000 PUSH1 0x0 MSTORE PUSH1 0x22 PUSH1 0x4 MSTORE PUSH1 0x24 PUSH1 0x0 REVERT JUMPDEST PUSH1 0x0 PUSH1 0x2 DUP3 DIV SWAP1 POP PUSH1 0x1 DUP3 AND DUP1 PUSH3 0x29E JUMPI PUSH1 0x7F DUP3 AND SWAP2 POP JUMPDEST PUSH1 0x20 DUP3 LT DUP2 SUB PUSH3 0x2B4 JUMPI PUSH3 0x2B3 PUSH3 0x256 JUMP JUMPDEST JUMPDEST POP SWAP2 SWAP1 POP JUMP JUMPDEST PUSH2 0x1D77 DUP1 PUSH3 0x2CA PUSH1 0x0 CODECOPY PUSH1 0x0 RETURN INVALID PUSH1 0x80 PUSH1 0x40 MSTORE CALLVALUE DUP1 ISZERO PUSH2 0x10 JUMPI PUSH1 0x0 DUP1 REVERT JUMPDEST POP PUSH1 0x4 CALLDATASIZE LT PUSH2 0x116 JUMPI PUSH1 0x0 CALLDATALOAD PUSH1 0xE0 SHR DUP1 PUSH4 0x715018A6 GT PUSH2 0xA2 JUMPI DUP1 PUSH4 0xA457C2D7 GT PUSH2 0x71 JUMPI DUP1 PUSH4 0xA457C2D7 EQ PUSH2 0x2D1 JUMPI DUP1 PUSH4 0xA9059CBB EQ PUSH2 0x301 JUMPI DUP1 PUSH4 0xDD62ED3E EQ PUSH2 0x331 JUMPI DUP1 PUSH4 0xF2FDE38B EQ PUSH2 0x361 JUMPI DUP1 PUSH4 0xFB0289CA EQ PUSH2 0x37D JUMPI PUSH2 0x116 JUMP JUMPDEST DUP1 PUSH4 0x715018A6 EQ PUSH2 0x26F JUMPI DUP1 PUSH4 0x8DA5CB5B EQ PUSH2 0x279 JUMPI DUP1 PUSH4 0x95D89B41 EQ PUSH2 0x297 JUMPI DUP1 PUSH4 0x9DC29FAC EQ PUSH2 0x2B5 JUMPI PUSH2 0x116 JUMP JUMPDEST DUP1 PUSH4 0x23B872DD GT PUSH2 0xE9 JUMPI DUP1 PUSH4 0x23B872DD EQ PUSH2 0x1A5 JUMPI DUP1 PUSH4 0x313CE567 EQ PUSH2 0x1D5 JUMPI DUP1 PUSH4 0x39509351 EQ PUSH2 0x1F3 JUMPI DUP1 PUSH4 0x40C10F19 EQ PUSH2 0x223 JUMPI DUP1 PUSH4 0x70A08231 EQ PUSH2 0x23F JUMPI PUSH2 0x116 JUMP JUMPDEST DUP1 PUSH4 0x6FDDE03 EQ PUSH2 0x11B JUMPI DUP1 PUSH4 0x95EA7B3 EQ PUSH2 0x139 JUMPI DUP1 PUSH4 0x18160DDD EQ PUSH2 0x169 JUMPI DUP1 PUSH4 0x19D40B08 EQ PUSH2 0x187 JUMPI JUMPDEST PUSH1 0x0 DUP1 REVERT JUMPDEST PUSH2 0x123 PUSH2 0x399 JUMP JUMPDEST PUSH1 0x40 MLOAD PUSH2 0x130 SWAP2 SWAP1 PUSH2 0x130E JUMP JUMPDEST PUSH1 0x40 MLOAD DUP1 SWAP2 SUB SWAP1 RETURN JUMPDEST PUSH2 0x153 PUSH1 0x4 DUP1 CALLDATASIZE SUB DUP2 ADD SWAP1 PUSH2 0x14E SWAP2 SWAP1 PUSH2 0x13C9 JUMP JUMPDEST PUSH2 0x42B JUMP JUMPDEST PUSH1 0x40 MLOAD PUSH2 0x160 SWAP2 SWAP1 PUSH2 0x1424 JUMP JUMPDEST PUSH1 0x40 MLOAD DUP1 SWAP2 SUB SWAP1 RETURN JUMPDEST PUSH2 0x171 PUSH2 0x44E JUMP JUMPDEST PUSH1 0x40 MLOAD PUSH2 0x17E SWAP2 SWAP1 PUSH2 0x144E JUMP JUMPDEST PUSH1 0x40 MLOAD DUP1 SWAP2 SUB SWAP1 RETURN JUMPDEST PUSH2 0x18F PUSH2 0x458 JUMP JUMPDEST PUSH1 0x40 MLOAD PUSH2 0x19C SWAP2 SWAP1 PUSH2 0x1478 JUMP JUMPDEST PUSH1 0x40 MLOAD DUP1 SWAP2 SUB SWAP1 RETURN JUMPDEST PUSH2 0x1BF PUSH1 0x4 DUP1 CALLDATASIZE SUB DUP2 ADD SWAP1 PUSH2 0x1BA SWAP2 SWAP1 PUSH2 0x1493 JUMP JUMPDEST PUSH2 0x47E JUMP JUMPDEST PUSH1 0x40 MLOAD PUSH2 0x1CC SWAP2 SWAP1 PUSH2 0x1424 JUMP JUMPDEST PUSH1 0x40 MLOAD DUP1 SWAP2 SUB SWAP1 RETURN JUMPDEST PUSH2 0x1DD PUSH2 0x4AD JUMP JUMPDEST PUSH1 0x40 MLOAD PUSH2 0x1EA SWAP2 SWAP1 PUSH2 0x1502 JUMP JUMPDEST PUSH1 0x40 MLOAD DUP1 SWAP2 SUB SWAP1 RETURN JUMPDEST PUSH2 0x20D PUSH1 0x4 DUP1 CALLDATASIZE SUB DUP2 ADD SWAP1 PUSH2 0x208 SWAP2 SWAP1 PUSH2 0x13C9 JUMP JUMPDEST PUSH2 0x4B6 JUMP JUMPDEST PUSH1 0x40 MLOAD PUSH2 0x21A SWAP2 SWAP1 PUSH2 0x1424 JUMP JUMPDEST PUSH1 0x40 MLOAD DUP1 SWAP2 SUB SWAP1 RETURN JUMPDEST PUSH2 0x23D PUSH1 0x4 DUP1 CALLDATASIZE SUB DUP2 ADD SWAP1 PUSH2 0x238 SWAP2 SWAP1 PUSH2 0x13C9 JUMP JUMPDEST PUSH2 0x4ED JUMP JUMPDEST STOP JUMPDEST PUSH2 0x259 PUSH1 0x4 DUP1 CALLDATASIZE SUB DUP2 ADD SWAP1 PUSH2 0x254 SWAP2 SWAP1 PUSH2 0x151D JUMP JUMPDEST PUSH2 0x58B JUMP JUMPDEST PUSH1 0x40 MLOAD PUSH2 0x266 SWAP2 SWAP1 PUSH2 0x144E JUMP JUMPDEST PUSH1 0x40 MLOAD DUP1 SWAP2 SUB SWAP1 RETURN JUMPDEST PUSH2 0x277 PUSH2 0x5D3 JUMP JUMPDEST STOP JUMPDEST PUSH2 0x281 PUSH2 0x5E7 JUMP JUMPDEST PUSH1 0x40 MLOAD PUSH2 0x28E SWAP2 SWAP1 PUSH2 0x1478 JUMP JUMPDEST PUSH1 0x40 MLOAD DUP1 SWAP2 SUB SWAP1 RETURN JUMPDEST PUSH2 0x29F PUSH2 0x611 JUMP JUMPDEST PUSH1 0x40 MLOAD PUSH2 0x2AC SWAP2 SWAP1 PUSH2 0x130E JUMP JUMPDEST PUSH1 0x40 MLOAD DUP1 SWAP2 SUB SWAP1 RETURN JUMPDEST PUSH2 0x2CF PUSH1 0x4 DUP1 CALLDATASIZE SUB DUP2 ADD SWAP1 PUSH2 0x2CA SWAP2 SWAP1 PUSH2 0x13C9 JUMP JUMPDEST PUSH2 0x6A3 JUMP JUMPDEST STOP JUMPDEST PUSH2 0x2EB PUSH1 0x4 DUP1 CALLDATASIZE SUB DUP2 ADD SWAP1 PUSH2 0x2E6 SWAP2 SWAP1 PUSH2 0x13C9 JUMP JUMPDEST PUSH2 0x741 JUMP JUMPDEST PUSH1 0x40 MLOAD PUSH2 0x2F8 SWAP2 SWAP1 PUSH2 0x1424 JUMP JUMPDEST PUSH1 0x40 MLOAD DUP1 SWAP2 SUB SWAP1 RETURN JUMPDEST PUSH2 0x31B PUSH1 0x4 DUP1 CALLDATASIZE SUB DUP2 ADD SWAP1 PUSH2 0x316 SWAP2 SWAP1 PUSH2 0x13C9 JUMP JUMPDEST PUSH2 0x7B8 JUMP JUMPDEST PUSH1 0x40 MLOAD PUSH2 0x328 SWAP2 SWAP1 PUSH2 0x1424 JUMP JUMPDEST PUSH1 0x40 MLOAD DUP1 SWAP2 SUB SWAP1 RETURN JUMPDEST PUSH2 0x34B PUSH1 0x4 DUP1 CALLDATASIZE SUB DUP2 ADD SWAP1 PUSH2 0x346 SWAP2 SWAP1 PUSH2 0x154A JUMP JUMPDEST PUSH2 0x7DB JUMP JUMPDEST PUSH1 0x40 MLOAD PUSH2 0x358 SWAP2 SWAP1 PUSH2 0x144E JUMP JUMPDEST PUSH1 0x40 MLOAD DUP1 SWAP2 SUB SWAP1 RETURN JUMPDEST PUSH2 0x37B PUSH1 0x4 DUP1 CALLDATASIZE SUB DUP2 ADD SWAP1 PUSH2 0x376 SWAP2 SWAP1 PUSH2 0x151D JUMP JUMPDEST PUSH2 0x862 JUMP JUMPDEST STOP JUMPDEST PUSH2 0x397 PUSH1 0x4 DUP1 CALLDATASIZE SUB DUP2 ADD SWAP1 PUSH2 0x392 SWAP2 SWAP1 PUSH2 0x151D JUMP JUMPDEST PUSH2 0x8E5 JUMP JUMPDEST STOP JUMPDEST PUSH1 0x60 PUSH1 0x3 DUP1 SLOAD PUSH2 0x3A8 SWAP1 PUSH2 0x15B9 JUMP JUMPDEST DUP1 PUSH1 0x1F ADD PUSH1 0x20 DUP1 SWAP2 DIV MUL PUSH1 0x20 ADD PUSH1 0x40 MLOAD SWAP1 DUP2 ADD PUSH1 0x40 MSTORE DUP1 SWAP3 SWAP2 SWAP1 DUP2 DUP2 MSTORE PUSH1 0x20 ADD DUP3 DUP1 SLOAD PUSH2 0x3D4 SWAP1 PUSH2 0x15B9 JUMP JUMPDEST DUP1 ISZERO PUSH2 0x421 JUMPI DUP1 PUSH1 0x1F LT PUSH2 0x3F6 JUMPI PUSH2 0x100 DUP1 DUP4 SLOAD DIV MUL DUP4 MSTORE SWAP2 PUSH1 0x20 ADD SWAP2 PUSH2 0x421 JUMP JUMPDEST DUP3 ADD SWAP2 SWAP1 PUSH1 0x0 MSTORE PUSH1 0x20 PUSH1 0x0 KECCAK256 SWAP1 JUMPDEST DUP2 SLOAD DUP2 MSTORE SWAP1 PUSH1 0x1 ADD SWAP1 PUSH1 0x20 ADD DUP1 DUP4 GT PUSH2 0x404 JUMPI DUP3 SWAP1 SUB PUSH1 0x1F AND DUP3 ADD SWAP2 JUMPDEST POP POP POP POP POP SWAP1 POP SWAP1 JUMP JUMPDEST PUSH1 0x0 DUP1 PUSH2 0x436 PUSH2 0x931 JUMP JUMPDEST SWAP1 POP PUSH2 0x443 DUP2 DUP6 DUP6 PUSH2 0x939 JUMP JUMPDEST PUSH1 0x1 SWAP2 POP POP SWAP3 SWAP2 POP POP JUMP JUMPDEST PUSH1 0x0 PUSH1 0x2 SLOAD SWAP1 POP SWAP1 JUMP JUMPDEST PUSH1 0x6 PUSH1 0x0 SWAP1 SLOAD SWAP1 PUSH2 0x100 EXP SWAP1 DIV PUSH20 0xFFFFFFFFFFFFFFFFFFFFFFFFFFFFFFFFFFFFFFFF AND DUP2 JUMP JUMPDEST PUSH1 0x0 DUP1 PUSH2 0x489 PUSH2 0x931 JUMP JUMPDEST SWAP1 POP PUSH2 0x496 DUP6 DUP3 DUP6 PUSH2 0xB02 JUMP JUMPDEST PUSH2 0x4A1 DUP6 DUP6 DUP6 PUSH2 0xB8E JUMP JUMPDEST PUSH1 0x1 SWAP2 POP POP SWAP4 SWAP3 POP POP POP JUMP JUMPDEST PUSH1 0x0 PUSH1 0x12 SWAP1 POP SWAP1 JUMP JUMPDEST PUSH1 0x0 DUP1 PUSH2 0x4C1 PUSH2 0x931 JUMP JUMPDEST SWAP1 POP PUSH2 0x4E2 DUP2 DUP6 DUP6 PUSH2 0x4D3 DUP6 DUP10 PUSH2 0x7DB JUMP JUMPDEST PUSH2 0x4DD SWAP2 SWAP1 PUSH2 0x1619 JUMP JUMPDEST PUSH2 0x939 JUMP JUMPDEST PUSH1 0x1 SWAP2 POP POP SWAP3 SWAP2 POP POP JUMP JUMPDEST PUSH1 0x6 PUSH1 0x0 SWAP1 SLOAD SWAP1 PUSH2 0x100 EXP SWAP1 DIV PUSH20 0xFFFFFFFFFFFFFFFFFFFFFFFFFFFFFFFFFFFFFFFF AND PUSH20 0xFFFFFFFFFFFFFFFFFFFFFFFFFFFFFFFFFFFFFFFF AND CALLER PUSH20 0xFFFFFFFFFFFFFFFFFFFFFFFFFFFFFFFFFFFFFFFF AND EQ PUSH2 0x57D JUMPI PUSH1 0x40 MLOAD PUSH32 0x8C379A000000000000000000000000000000000000000000000000000000000 DUP2 MSTORE PUSH1 0x4 ADD PUSH2 0x574 SWAP1 PUSH2 0x16BB JUMP JUMPDEST PUSH1 0x40 MLOAD DUP1 SWAP2 SUB SWAP1 REVERT JUMPDEST PUSH2 0x587 DUP3 DUP3 PUSH2 0xE04 JUMP JUMPDEST POP POP JUMP JUMPDEST PUSH1 0x0 DUP1 PUSH1 0x0 DUP4 PUSH20 0xFFFFFFFFFFFFFFFFFFFFFFFFFFFFFFFFFFFFFFFF AND PUSH20 0xFFFFFFFFFFFFFFFFFFFFFFFFFFFFFFFFFFFFFFFF AND DUP2 MSTORE PUSH1 0x20 ADD SWAP1 DUP2 MSTORE PUSH1 0x20 ADD PUSH1 0x0 KECCAK256 SLOAD SWAP1 POP SWAP2 SWAP1 POP JUMP JUMPDEST PUSH2 0x5DB PUSH2 0xF5A JUMP JUMPDEST PUSH2 0x5E5 PUSH1 0x0 PUSH2 0xFD8 JUMP JUMPDEST JUMP JUMPDEST PUSH1 0x0 PUSH1 0x5 PUSH1 0x0 SWAP1 SLOAD SWAP1 PUSH2 0x100 EXP SWAP1 DIV PUSH20 0xFFFFFFFFFFFFFFFFFFFFFFFFFFFFFFFFFFFFFFFF AND SWAP1 POP SWAP1 JUMP JUMPDEST PUSH1 0x60 PUSH1 0x4 DUP1 SLOAD PUSH2 0x620 SWAP1 PUSH2 0x15B9 JUMP JUMPDEST DUP1 PUSH1 0x1F ADD PUSH1 0x20 DUP1 SWAP2 DIV MUL PUSH1 0x20 ADD PUSH1 0x40 MLOAD SWAP1 DUP2 ADD PUSH1 0x40 MSTORE DUP1 SWAP3 SWAP2 SWAP1 DUP2 DUP2 MSTORE PUSH1 0x20 ADD DUP3 DUP1 SLOAD PUSH2 0x64C SWAP1 PUSH2 0x15B9 JUMP JUMPDEST DUP1 ISZERO PUSH2 0x699 JUMPI DUP1 PUSH1 0x1F LT PUSH2 0x66E JUMPI PUSH2 0x100 DUP1 DUP4 SLOAD DIV MUL DUP4 MSTORE SWAP2 PUSH1 0x20 ADD SWAP2 PUSH2 0x699 JUMP JUMPDEST DUP3 ADD SWAP2 SWAP1 PUSH1 0x0 MSTORE PUSH1 0x20 PUSH1 0x0 KECCAK256 SWAP1 JUMPDEST DUP2 SLOAD DUP2 MSTORE SWAP1 PUSH1 0x1 ADD SWAP1 PUSH1 0x20 ADD DUP1 DUP4 GT PUSH2 0x67C JUMPI DUP3 SWAP1 SUB PUSH1 0x1F AND DUP3 ADD SWAP2 JUMPDEST POP POP POP POP POP SWAP1 POP SWAP1 JUMP JUMPDEST PUSH1 0x6 PUSH1 0x0 SWAP1 SLOAD SWAP1 PUSH2 0x100 EXP SWAP1 DIV PUSH20 0xFFFFFFFFFFFFFFFFFFFFFFFFFFFFFFFFFFFFFFFF AND PUSH20 0xFFFFFFFFFFFFFFFFFFFFFFFFFFFFFFFFFFFFFFFF AND CALLER PUSH20 0xFFFFFFFFFFFFFFFFFFFFFFFFFFFFFFFFFFFFFFFF AND EQ PUSH2 0x733 JUMPI PUSH1 0x40 MLOAD PUSH32 0x8C379A000000000000000000000000000000000000000000000000000000000 DUP2 MSTORE PUSH1 0x4 ADD PUSH2 0x72A SWAP1 PUSH2 0x16BB JUMP JUMPDEST PUSH1 0x40 MLOAD DUP1 SWAP2 SUB SWAP1 REVERT JUMPDEST PUSH2 0x73D DUP3 DUP3 PUSH2 0x109E JUMP JUMPDEST POP POP JUMP JUMPDEST PUSH1 0x0 DUP1 PUSH2 0x74C PUSH2 0x931 JUMP JUMPDEST SWAP1 POP PUSH1 0x0 PUSH2 0x75A DUP3 DUP7 PUSH2 0x7DB JUMP JUMPDEST SWAP1 POP DUP4 DUP2 LT ISZERO PUSH2 0x79F JUMPI PUSH1 0x40 MLOAD PUSH32 0x8C379A000000000000000000000000000000000000000000000000000000000 DUP2 MSTORE PUSH1 0x4 ADD PUSH2 0x796 SWAP1 PUSH2 0x174D JUMP JUMPDEST PUSH1 0x40 MLOAD DUP1 SWAP2 SUB SWAP1 REVERT JUMPDEST PUSH2 0x7AC DUP3 DUP7 DUP7 DUP5 SUB PUSH2 0x939 JUMP JUMPDEST PUSH1 0x1 SWAP3 POP POP POP SWAP3 SWAP2 POP POP JUMP JUMPDEST PUSH1 0x0 DUP1 PUSH2 0x7C3 PUSH2 0x931 JUMP JUMPDEST SWAP1 POP PUSH2 0x7D0 DUP2 DUP6 DUP6 PUSH2 0xB8E JUMP JUMPDEST PUSH1 0x1 SWAP2 POP POP SWAP3 SWAP2 POP POP JUMP JUMPDEST PUSH1 0x0 PUSH1 0x1 PUSH1 0x0 DUP5 PUSH20 0xFFFFFFFFFFFFFFFFFFFFFFFFFFFFFFFFFFFFFFFF AND PUSH20 0xFFFFFFFFFFFFFFFFFFFFFFFFFFFFFFFFFFFFFFFF AND DUP2 MSTORE PUSH1 0x20 ADD SWAP1 DUP2 MSTORE PUSH1 0x20 ADD PUSH1 0x0 KECCAK256 PUSH1 0x0 DUP4 PUSH20 0xFFFFFFFFFFFFFFFFFFFFFFFFFFFFFFFFFFFFFFFF AND PUSH20 0xFFFFFFFFFFFFFFFFFFFFFFFFFFFFFFFFFFFFFFFF AND DUP2 MSTORE PUSH1 0x20 ADD SWAP1 DUP2 MSTORE PUSH1 0x20 ADD PUSH1 0x0 KECCAK256 SLOAD SWAP1 POP SWAP3 SWAP2 POP POP JUMP JUMPDEST PUSH2 0x86A PUSH2 0xF5A JUMP JUMPDEST PUSH1 0x0 PUSH20 0xFFFFFFFFFFFFFFFFFFFFFFFFFFFFFFFFFFFFFFFF AND DUP2 PUSH20 0xFFFFFFFFFFFFFFFFFFFFFFFFFFFFFFFFFFFFFFFF AND SUB PUSH2 0x8D9 JUMPI PUSH1 0x40 MLOAD PUSH32 0x8C379A000000000000000000000000000000000000000000000000000000000 DUP2 MSTORE PUSH1 0x4 ADD PUSH2 0x8D0 SWAP1 PUSH2 0x17DF JUMP JUMPDEST PUSH1 0x40 MLOAD DUP1 SWAP2 SUB SWAP1 REVERT JUMPDEST PUSH2 0x8E2 DUP2 PUSH2 0xFD8 JUMP JUMPDEST POP JUMP JUMPDEST PUSH2 0x8ED PUSH2 0xF5A JUMP JUMPDEST DUP1 PUSH1 0x6 PUSH1 0x0 PUSH2 0x100 EXP DUP2 SLOAD DUP2 PUSH20 0xFFFFFFFFFFFFFFFFFFFFFFFFFFFFFFFFFFFFFFFF MUL NOT AND SWAP1 DUP4 PUSH20 0xFFFFFFFFFFFFFFFFFFFFFFFFFFFFFFFFFFFFFFFF AND MUL OR SWAP1 SSTORE POP POP JUMP JUMPDEST PUSH1 0x0 CALLER SWAP1 POP SWAP1 JUMP JUMPDEST PUSH1 0x0 PUSH20 0xFFFFFFFFFFFFFFFFFFFFFFFFFFFFFFFFFFFFFFFF AND DUP4 PUSH20 0xFFFFFFFFFFFFFFFFFFFFFFFFFFFFFFFFFFFFFFFF AND SUB PUSH2 0x9A8 JUMPI PUSH1 0x40 MLOAD PUSH32 0x8C379A000000000000000000000000000000000000000000000000000000000 DUP2 MSTORE PUSH1 0x4 ADD PUSH2 0x99F SWAP1 PUSH2 0x1871 JUMP JUMPDEST PUSH1 0x40 MLOAD DUP1 SWAP2 SUB SWAP1 REVERT JUMPDEST PUSH1 0x0 PUSH20 0xFFFFFFFFFFFFFFFFFFFFFFFFFFFFFFFFFFFFFFFF AND DUP3 PUSH20 0xFFFFFFFFFFFFFFFFFFFFFFFFFFFFFFFFFFFFFFFF AND SUB PUSH2 0xA17 JUMPI PUSH1 0x40 MLOAD PUSH32 0x8C379A000000000000000000000000000000000000000000000000000000000 DUP2 MSTORE PUSH1 0x4 ADD PUSH2 0xA0E SWAP1 PUSH2 0x1903 JUMP JUMPDEST PUSH1 0x40 MLOAD DUP1 SWAP2 SUB SWAP1 REVERT JUMPDEST DUP1 PUSH1 0x1 PUSH1 0x0 DUP6 PUSH20 0xFFFFFFFFFFFFFFFFFFFFFFFFFFFFFFFFFFFFFFFF AND PUSH20 0xFFFFFFFFFFFFFFFFFFFFFFFFFFFFFFFFFFFFFFFF AND DUP2 MSTORE PUSH1 0x20 ADD SWAP1 DUP2 MSTORE PUSH1 0x20 ADD PUSH1 0x0 KECCAK256 PUSH1 0x0 DUP5 PUSH20 0xFFFFFFFFFFFFFFFFFFFFFFFFFFFFFFFFFFFFFFFF AND PUSH20 0xFFFFFFFFFFFFFFFFFFFFFFFFFFFFFFFFFFFFFFFF AND DUP2 MSTORE PUSH1 0x20 ADD SWAP1 DUP2 MSTORE PUSH1 0x20 ADD PUSH1 0x0 KECCAK256 DUP2 SWAP1 SSTORE POP DUP2 PUSH20 0xFFFFFFFFFFFFFFFFFFFFFFFFFFFFFFFFFFFFFFFF AND DUP4 PUSH20 0xFFFFFFFFFFFFFFFFFFFFFFFFFFFFFFFFFFFFFFFF AND PUSH32 0x8C5BE1E5EBEC7D5BD14F71427D1E84F3DD0314C0F7B2291E5B200AC8C7C3B925 DUP4 PUSH1 0x40 MLOAD PUSH2 0xAF5 SWAP2 SWAP1 PUSH2 0x144E JUMP JUMPDEST PUSH1 0x40 MLOAD DUP1 SWAP2 SUB SWAP1 LOG3 POP POP POP JUMP JUMPDEST PUSH1 0x0 PUSH2 0xB0E DUP5 DUP5 PUSH2 0x7DB JUMP JUMPDEST SWAP1 POP PUSH32 0xFFFFFFFFFFFFFFFFFFFFFFFFFFFFFFFFFFFFFFFFFFFFFFFFFFFFFFFFFFFFFFFF DUP2 EQ PUSH2 0xB88 JUMPI DUP2 DUP2 LT ISZERO PUSH2 0xB7A JUMPI PUSH1 0x40 MLOAD PUSH32 0x8C379A000000000000000000000000000000000000000000000000000000000 DUP2 MSTORE PUSH1 0x4 ADD PUSH2 0xB71 SWAP1 PUSH2 0x196F JUMP JUMPDEST PUSH1 0x40 MLOAD DUP1 SWAP2 SUB SWAP1 REVERT JUMPDEST PUSH2 0xB87 DUP5 DUP5 DUP5 DUP5 SUB PUSH2 0x939 JUMP JUMPDEST JUMPDEST POP POP POP POP JUMP JUMPDEST PUSH1 0x0 PUSH20 0xFFFFFFFFFFFFFFFFFFFFFFFFFFFFFFFFFFFFFFFF AND DUP4 PUSH20 0xFFFFFFFFFFFFFFFFFFFFFFFFFFFFFFFFFFFFFFFF AND SUB PUSH2 0xBFD JUMPI PUSH1 0x40 MLOAD PUSH32 0x8C379A000000000000000000000000000000000000000000000000000000000 DUP2 MSTORE PUSH1 0x4 ADD PUSH2 0xBF4 SWAP1 PUSH2 0x1A01 JUMP JUMPDEST PUSH1 0x40 MLOAD DUP1 SWAP2 SUB SWAP1 REVERT JUMPDEST PUSH1 0x0 PUSH20 0xFFFFFFFFFFFFFFFFFFFFFFFFFFFFFFFFFFFFFFFF AND DUP3 PUSH20 0xFFFFFFFFFFFFFFFFFFFFFFFFFFFFFFFFFFFFFFFF AND SUB PUSH2 0xC6C JUMPI PUSH1 0x40 MLOAD PUSH32 0x8C379A000000000000000000000000000000000000000000000000000000000 DUP2 MSTORE PUSH1 0x4 ADD PUSH2 0xC63 SWAP1 PUSH2 0x1A93 JUMP JUMPDEST PUSH1 0x40 MLOAD DUP1 SWAP2 SUB SWAP1 REVERT JUMPDEST PUSH2 0xC77 DUP4 DUP4 DUP4 PUSH2 0x126B JUMP JUMPDEST PUSH1 0x0 DUP1 PUSH1 0x0 DUP6 PUSH20 0xFFFFFFFFFFFFFFFFFFFFFFFFFFFFFFFFFFFFFFFF AND PUSH20 0xFFFFFFFFFFFFFFFFFFFFFFFFFFFFFFFFFFFFFFFF AND DUP2 MSTORE PUSH1 0x20 ADD SWAP1 DUP2 MSTORE PUSH1 0x20 ADD PUSH1 0x0 KECCAK256 SLOAD SWAP1 POP DUP2 DUP2 LT ISZERO PUSH2 0xCFD JUMPI PUSH1 0x40 MLOAD PUSH32 0x8C379A000000000000000000000000000000000000000000000000000000000 DUP2 MSTORE PUSH1 0x4 ADD PUSH2 0xCF4 SWAP1 PUSH2 0x1B25 JUMP JUMPDEST PUSH1 0x40 MLOAD DUP1 SWAP2 SUB SWAP1 REVERT JUMPDEST DUP2 DUP2 SUB PUSH1 0x0 DUP1 DUP7 PUSH20 0xFFFFFFFFFFFFFFFFFFFFFFFFFFFFFFFFFFFFFFFF AND PUSH20 0xFFFFFFFFFFFFFFFFFFFFFFFFFFFFFFFFFFFFFFFF AND DUP2 MSTORE PUSH1 0x20 ADD SWAP1 DUP2 MSTORE PUSH1 0x20 ADD PUSH1 0x0 KECCAK256 DUP2 SWAP1 SSTORE POP DUP2 PUSH1 0x0 DUP1 DUP6 PUSH20 0xFFFFFFFFFFFFFFFFFFFFFFFFFFFFFFFFFFFFFFFF AND PUSH20 0xFFFFFFFFFFFFFFFFFFFFFFFFFFFFFFFFFFFFFFFF AND DUP2 MSTORE PUSH1 0x20 ADD SWAP1 DUP2 MSTORE PUSH1 0x20 ADD PUSH1 0x0 KECCAK256 PUSH1 0x0 DUP3 DUP3 SLOAD ADD SWAP3 POP POP DUP2 SWAP1 SSTORE POP DUP3 PUSH20 0xFFFFFFFFFFFFFFFFFFFFFFFFFFFFFFFFFFFFFFFF AND DUP5 PUSH20 0xFFFFFFFFFFFFFFFFFFFFFFFFFFFFFFFFFFFFFFFF AND PUSH32 0xDDF252AD1BE2C89B69C2B068FC378DAA952BA7F163C4A11628F55A4DF523B3EF DUP5 PUSH1 0x40 MLOAD PUSH2 0xDEB SWAP2 SWAP1 PUSH2 0x144E JUMP JUMPDEST PUSH1 0x40 MLOAD DUP1 SWAP2 SUB SWAP1 LOG3 PUSH2 0xDFE DUP5 DUP5 DUP5 PUSH2 0x1270 JUMP JUMPDEST POP POP POP POP JUMP JUMPDEST PUSH1 0x0 PUSH20 0xFFFFFFFFFFFFFFFFFFFFFFFFFFFFFFFFFFFFFFFF AND DUP3 PUSH20 0xFFFFFFFFFFFFFFFFFFFFFFFFFFFFFFFFFFFFFFFF AND SUB PUSH2 0xE73 JUMPI PUSH1 0x40 MLOAD PUSH32 0x8C379A000000000000000000000000000000000000000000000000000000000 DUP2 MSTORE PUSH1 0x4 ADD PUSH2 0xE6A SWAP1 PUSH2 0x1B91 JUMP JUMPDEST PUSH1 0x40 MLOAD DUP1 SWAP2 SUB SWAP1 REVERT JUMPDEST PUSH2 0xE7F PUSH1 0x0 DUP4 DUP4 PUSH2 0x126B JUMP JUMPDEST DUP1 PUSH1 0x2 PUSH1 0x0 DUP3 DUP3 SLOAD PUSH2 0xE91 SWAP2 SWAP1 PUSH2 0x1619 JUMP JUMPDEST SWAP3 POP POP DUP2 SWAP1 SSTORE POP DUP1 PUSH1 0x0 DUP1 DUP5 PUSH20 0xFFFFFFFFFFFFFFFFFFFFFFFFFFFFFFFFFFFFFFFF AND PUSH20 0xFFFFFFFFFFFFFFFFFFFFFFFFFFFFFFFFFFFFFFFF AND DUP2 MSTORE PUSH1 0x20 ADD SWAP1 DUP2 MSTORE PUSH1 0x20 ADD PUSH1 0x0 KECCAK256 PUSH1 0x0 DUP3 DUP3 SLOAD ADD SWAP3 POP POP DUP2 SWAP1 SSTORE POP DUP2 PUSH20 0xFFFFFFFFFFFFFFFFFFFFFFFFFFFFFFFFFFFFFFFF AND PUSH1 0x0 PUSH20 0xFFFFFFFFFFFFFFFFFFFFFFFFFFFFFFFFFFFFFFFF AND PUSH32 0xDDF252AD1BE2C89B69C2B068FC378DAA952BA7F163C4A11628F55A4DF523B3EF DUP4 PUSH1 0x40 MLOAD PUSH2 0xF42 SWAP2 SWAP1 PUSH2 0x144E JUMP JUMPDEST PUSH1 0x40 MLOAD DUP1 SWAP2 SUB SWAP1 LOG3 PUSH2 0xF56 PUSH1 0x0 DUP4 DUP4 PUSH2 0x1270 JUMP JUMPDEST POP POP JUMP JUMPDEST PUSH2 0xF62 PUSH2 0x931 JUMP JUMPDEST PUSH20 0xFFFFFFFFFFFFFFFFFFFFFFFFFFFFFFFFFFFFFFFF AND PUSH2 0xF80 PUSH2 0x5E7 JUMP JUMPDEST PUSH20 0xFFFFFFFFFFFFFFFFFFFFFFFFFFFFFFFFFFFFFFFF AND EQ PUSH2 0xFD6 JUMPI PUSH1 0x40 MLOAD PUSH32 0x8C379A000000000000000000000000000000000000000000000000000000000 DUP2 MSTORE PUSH1 0x4 ADD PUSH2 0xFCD SWAP1 PUSH2 0x1BFD JUMP JUMPDEST PUSH1 0x40 MLOAD DUP1 SWAP2 SUB SWAP1 REVERT JUMPDEST JUMP JUMPDEST PUSH1 0x0 PUSH1 0x5 PUSH1 0x0 SWAP1 SLOAD SWAP1 PUSH2 0x100 EXP SWAP1 DIV PUSH20 0xFFFFFFFFFFFFFFFFFFFFFFFFFFFFFFFFFFFFFFFF AND SWAP1 POP DUP2 PUSH1 0x5 PUSH1 0x0 PUSH2 0x100 EXP DUP2 SLOAD DUP2 PUSH20 0xFFFFFFFFFFFFFFFFFFFFFFFFFFFFFFFFFFFFFFFF MUL NOT AND SWAP1 DUP4 PUSH20 0xFFFFFFFFFFFFFFFFFFFFFFFFFFFFFFFFFFFFFFFF AND MUL OR SWAP1 SSTORE POP DUP2 PUSH20 0xFFFFFFFFFFFFFFFFFFFFFFFFFFFFFFFFFFFFFFFF AND DUP2 PUSH20 0xFFFFFFFFFFFFFFFFFFFFFFFFFFFFFFFFFFFFFFFF AND PUSH32 0x8BE0079C531659141344CD1FD0A4F28419497F9722A3DAAFE3B4186F6B6457E0 PUSH1 0x40 MLOAD PUSH1 0x40 MLOAD DUP1 SWAP2 SUB SWAP1 LOG3 POP POP JUMP JUMPDEST PUSH1 0x0 PUSH20 0xFFFFFFFFFFFFFFFFFFFFFFFFFFFFFFFFFFFFFFFF AND DUP3 PUSH20 0xFFFFFFFFFFFFFFFFFFFFFFFFFFFFFFFFFFFFFFFF AND SUB PUSH2 0x110D JUMPI PUSH1 0x40 MLOAD PUSH32 0x8C379A000000000000000000000000000000000000000000000000000000000 DUP2 MSTORE PUSH1 0x4 ADD PUSH2 0x1104 SWAP1 PUSH2 0x1C8F JUMP JUMPDEST PUSH1 0x40 MLOAD DUP1 SWAP2 SUB SWAP1 REVERT JUMPDEST PUSH2 0x1119 DUP3 PUSH1 0x0 DUP4 PUSH2 0x126B JUMP JUMPDEST PUSH1 0x0 DUP1 PUSH1 0x0 DUP5 PUSH20 0xFFFFFFFFFFFFFFFFFFFFFFFFFFFFFFFFFFFFFFFF AND PUSH20 0xFFFFFFFFFFFFFFFFFFFFFFFFFFFFFFFFFFFFFFFF AND DUP2 MSTORE PUSH1 0x20 ADD SWAP1 DUP2 MSTORE PUSH1 0x20 ADD PUSH1 0x0 KECCAK256 SLOAD SWAP1 POP DUP2 DUP2 LT ISZERO PUSH2 0x119F JUMPI PUSH1 0x40 MLOAD PUSH32 0x8C379A000000000000000000000000000000000000000000000000000000000 DUP2 MSTORE PUSH1 0x4 ADD PUSH2 0x1196 SWAP1 PUSH2 0x1D21 JUMP JUMPDEST PUSH1 0x40 MLOAD DUP1 SWAP2 SUB SWAP1 REVERT JUMPDEST DUP2 DUP2 SUB PUSH1 0x0 DUP1 DUP6 PUSH20 0xFFFFFFFFFFFFFFFFFFFFFFFFFFFFFFFFFFFFFFFF AND PUSH20 0xFFFFFFFFFFFFFFFFFFFFFFFFFFFFFFFFFFFFFFFF AND DUP2 MSTORE PUSH1 0x20 ADD SWAP1 DUP2 MSTORE PUSH1 0x20 ADD PUSH1 0x0 KECCAK256 DUP2 SWAP1 SSTORE POP DUP2 PUSH1 0x2 PUSH1 0x0 DUP3 DUP3 SLOAD SUB SWAP3 POP POP DUP2 SWAP1 SSTORE POP PUSH1 0x0 PUSH20 0xFFFFFFFFFFFFFFFFFFFFFFFFFFFFFFFFFFFFFFFF AND DUP4 PUSH20 0xFFFFFFFFFFFFFFFFFFFFFFFFFFFFFFFFFFFFFFFF AND PUSH32 0xDDF252AD1BE2C89B69C2B068FC378DAA952BA7F163C4A11628F55A4DF523B3EF DUP5 PUSH1 0x40 MLOAD PUSH2 0x1252 SWAP2 SWAP1 PUSH2 0x144E JUMP JUMPDEST PUSH1 0x40 MLOAD DUP1 SWAP2 SUB SWAP1 LOG3 PUSH2 0x1266 DUP4 PUSH1 0x0 DUP5 PUSH2 0x1270 JUMP JUMPDEST POP POP POP JUMP JUMPDEST POP POP POP JUMP JUMPDEST POP POP POP JUMP JUMPDEST PUSH1 0x0 DUP2 MLOAD SWAP1 POP SWAP2 SWAP1 POP JUMP JUMPDEST PUSH1 0x0 DUP3 DUP3 MSTORE PUSH1 0x20 DUP3 ADD SWAP1 POP SWAP3 SWAP2 POP POP JUMP JUMPDEST PUSH1 0x0 JUMPDEST DUP4 DUP2 LT ISZERO PUSH2 0x12AF JUMPI DUP1 DUP3 ADD MLOAD DUP2 DUP5 ADD MSTORE PUSH1 0x20 DUP2 ADD SWAP1 POP PUSH2 0x1294 JUMP JUMPDEST DUP4 DUP2 GT ISZERO PUSH2 0x12BE JUMPI PUSH1 0x0 DUP5 DUP5 ADD MSTORE JUMPDEST POP POP POP POP JUMP JUMPDEST PUSH1 0x0 PUSH1 0x1F NOT PUSH1 0x1F DUP4 ADD AND SWAP1 POP SWAP2 SWAP1 POP JUMP JUMPDEST PUSH1 0x0 PUSH2 0x12E0 DUP3 PUSH2 0x1275 JUMP JUMPDEST PUSH2 0x12EA DUP2 DUP6 PUSH2 0x1280 JUMP JUMPDEST SWAP4 POP PUSH2 0x12FA DUP2 DUP6 PUSH1 0x20 DUP7 ADD PUSH2 0x1291 JUMP JUMPDEST PUSH2 0x1303 DUP2 PUSH2 0x12C4 JUMP JUMPDEST DUP5 ADD SWAP2 POP POP SWAP3 SWAP2 POP POP JUMP JUMPDEST PUSH1 0x0 PUSH1 0x20 DUP3 ADD SWAP1 POP DUP2 DUP2 SUB PUSH1 0x0 DUP4 ADD MSTORE PUSH2 0x1328 DUP2 DUP5 PUSH2 0x12D5 JUMP JUMPDEST SWAP1 POP SWAP3 SWAP2 POP POP JUMP JUMPDEST PUSH1 0x0 DUP1 REVERT JUMPDEST PUSH1 0x0 PUSH20 0xFFFFFFFFFFFFFFFFFFFFFFFFFFFFFFFFFFFFFFFF DUP3 AND SWAP1 POP SWAP2 SWAP1 POP JUMP JUMPDEST PUSH1 0x0 PUSH2 0x1360 DUP3 PUSH2 0x1335 JUMP JUMPDEST SWAP1 POP SWAP2 SWAP1 POP JUMP JUMPDEST PUSH2 0x1370 DUP2 PUSH2 0x1355 JUMP JUMPDEST DUP2 EQ PUSH2 0x137B JUMPI PUSH1 0x0 DUP1 REVERT JUMPDEST POP JUMP JUMPDEST PUSH1 0x0 DUP2 CALLDATALOAD SWAP1 POP PUSH2 0x138D DUP2 PUSH2 0x1367 JUMP JUMPDEST SWAP3 SWAP2 POP POP JUMP JUMPDEST PUSH1 0x0 DUP2 SWAP1 POP SWAP2 SWAP1 POP JUMP JUMPDEST PUSH2 0x13A6 DUP2 PUSH2 0x1393 JUMP JUMPDEST DUP2 EQ PUSH2 0x13B1 JUMPI PUSH1 0x0 DUP1 REVERT JUMPDEST POP JUMP JUMPDEST PUSH1 0x0 DUP2 CALLDATALOAD SWAP1 POP PUSH2 0x13C3 DUP2 PUSH2 0x139D JUMP JUMPDEST SWAP3 SWAP2 POP POP JUMP JUMPDEST PUSH1 0x0 DUP1 PUSH1 0x40 DUP4 DUP6 SUB SLT ISZERO PUSH2 0x13E0 JUMPI PUSH2 0x13DF PUSH2 0x1330 JUMP JUMPDEST JUMPDEST PUSH1 0x0 PUSH2 0x13EE DUP6 DUP3 DUP7 ADD PUSH2 0x137E JUMP JUMPDEST SWAP3 POP POP PUSH1 0x20 PUSH2 0x13FF DUP6 DUP3 DUP7 ADD PUSH2 0x13B4 JUMP JUMPDEST SWAP2 POP POP SWAP3 POP SWAP3 SWAP1 POP JUMP JUMPDEST PUSH1 0x0 DUP2 ISZERO ISZERO SWAP1 POP SWAP2 SWAP1 POP JUMP JUMPDEST PUSH2 0x141E DUP2 PUSH2 0x1409 JUMP JUMPDEST DUP3 MSTORE POP POP JUMP JUMPDEST PUSH1 0x0 PUSH1 0x20 DUP3 ADD SWAP1 POP PUSH2 0x1439 PUSH1 0x0 DUP4 ADD DUP5 PUSH2 0x1415 JUMP JUMPDEST SWAP3 SWAP2 POP POP JUMP JUMPDEST PUSH2 0x1448 DUP2 PUSH2 0x1393 JUMP JUMPDEST DUP3 MSTORE POP POP JUMP JUMPDEST PUSH1 0x0 PUSH1 0x20 DUP3 ADD SWAP1 POP PUSH2 0x1463 PUSH1 0x0 DUP4 ADD DUP5 PUSH2 0x143F JUMP JUMPDEST SWAP3 SWAP2 POP POP JUMP JUMPDEST PUSH2 0x1472 DUP2 PUSH2 0x1355 JUMP JUMPDEST DUP3 MSTORE POP POP JUMP JUMPDEST PUSH1 0x0 PUSH1 0x20 DUP3 ADD SWAP1 POP PUSH2 0x148D PUSH1 0x0 DUP4 ADD DUP5 PUSH2 0x1469 JUMP JUMPDEST SWAP3 SWAP2 POP POP JUMP JUMPDEST PUSH1 0x0 DUP1 PUSH1 0x0 PUSH1 0x60 DUP5 DUP7 SUB SLT ISZERO PUSH2 0x14AC JUMPI PUSH2 0x14AB PUSH2 0x1330 JUMP JUMPDEST JUMPDEST PUSH1 0x0 PUSH2 0x14BA DUP7 DUP3 DUP8 ADD PUSH2 0x137E JUMP JUMPDEST SWAP4 POP POP PUSH1 0x20 PUSH2 0x14CB DUP7 DUP3 DUP8 ADD PUSH2 0x137E JUMP JUMPDEST SWAP3 POP POP PUSH1 0x40 PUSH2 0x14DC DUP7 DUP3 DUP8 ADD PUSH2 0x13B4 JUMP JUMPDEST SWAP2 POP POP SWAP3 POP SWAP3 POP SWAP3 JUMP JUMPDEST PUSH1 0x0 PUSH1 0xFF DUP3 AND SWAP1 POP SWAP2 SWAP1 POP JUMP JUMPDEST PUSH2 0x14FC DUP2 PUSH2 0x14E6 JUMP JUMPDEST DUP3 MSTORE POP POP JUMP JUMPDEST PUSH1 0x0 PUSH1 0x20 DUP3 ADD SWAP1 POP PUSH2 0x1517 PUSH1 0x0 DUP4 ADD DUP5 PUSH2 0x14F3 JUMP JUMPDEST SWAP3 SWAP2 POP POP JUMP JUMPDEST PUSH1 0x0 PUSH1 0x20 DUP3 DUP5 SUB SLT ISZERO PUSH2 0x1533 JUMPI PUSH2 0x1532 PUSH2 0x1330 JUMP JUMPDEST JUMPDEST PUSH1 0x0 PUSH2 0x1541 DUP5 DUP3 DUP6 ADD PUSH2 0x137E JUMP JUMPDEST SWAP2 POP POP SWAP3 SWAP2 POP POP JUMP JUMPDEST PUSH1 0x0 DUP1 PUSH1 0x40 DUP4 DUP6 SUB SLT ISZERO PUSH2 0x1561 JUMPI PUSH2 0x1560 PUSH2 0x1330 JUMP JUMPDEST JUMPDEST PUSH1 0x0 PUSH2 0x156F DUP6 DUP3 DUP7 ADD PUSH2 0x137E JUMP JUMPDEST SWAP3 POP POP PUSH1 0x20 PUSH2 0x1580 DUP6 DUP3 DUP7 ADD PUSH2 0x137E JUMP JUMPDEST SWAP2 POP POP SWAP3 POP SWAP3 SWAP1 POP JUMP JUMPDEST PUSH32 0x4E487B7100000000000000000000000000000000000000000000000000000000 PUSH1 0x0 MSTORE PUSH1 0x22 PUSH1 0x4 MSTORE PUSH1 0x24 PUSH1 0x0 REVERT JUMPDEST PUSH1 0x0 PUSH1 0x2 DUP3 DIV SWAP1 POP PUSH1 0x1 DUP3 AND DUP1 PUSH2 0x15D1 JUMPI PUSH1 0x7F DUP3 AND SWAP2 POP JUMPDEST PUSH1 0x20 DUP3 LT DUP2 SUB PUSH2 0x15E4 JUMPI PUSH2 0x15E3 PUSH2 0x158A JUMP JUMPDEST JUMPDEST POP SWAP2 SWAP1 POP JUMP JUMPDEST PUSH32 0x4E487B7100000000000000000000000000000000000000000000000000000000 PUSH1 0x0 MSTORE PUSH1 0x11 PUSH1 0x4 MSTORE PUSH1 0x24 PUSH1 0x0 REVERT JUMPDEST PUSH1 0x0 PUSH2 0x1624 DUP3 PUSH2 0x1393 JUMP JUMPDEST SWAP2 POP PUSH2 0x162F DUP4 PUSH2 0x1393 JUMP JUMPDEST SWAP3 POP DUP3 PUSH32 0xFFFFFFFFFFFFFFFFFFFFFFFFFFFFFFFFFFFFFFFFFFFFFFFFFFFFFFFFFFFFFFFF SUB DUP3 GT ISZERO PUSH2 0x1664 JUMPI PUSH2 0x1663 PUSH2 0x15EA JUMP JUMPDEST JUMPDEST DUP3 DUP3 ADD SWAP1 POP SWAP3 SWAP2 POP POP JUMP JUMPDEST PUSH32 0x4E6F7420417574686F7269736564000000000000000000000000000000000000 PUSH1 0x0 DUP3 ADD MSTORE POP JUMP JUMPDEST PUSH1 0x0 PUSH2 0x16A5 PUSH1 0xE DUP4 PUSH2 0x1280 JUMP JUMPDEST SWAP2 POP PUSH2 0x16B0 DUP3 PUSH2 0x166F JUMP JUMPDEST PUSH1 0x20 DUP3 ADD SWAP1 POP SWAP2 SWAP1 POP JUMP JUMPDEST PUSH1 0x0 PUSH1 0x20 DUP3 ADD SWAP1 POP DUP2 DUP2 SUB PUSH1 0x0 DUP4 ADD MSTORE PUSH2 0x16D4 DUP2 PUSH2 0x1698 JUMP JUMPDEST SWAP1 POP SWAP2 SWAP1 POP JUMP JUMPDEST PUSH32 0x45524332303A2064656372656173656420616C6C6F77616E63652062656C6F77 PUSH1 0x0 DUP3 ADD MSTORE PUSH32 0x207A65726F000000000000000000000000000000000000000000000000000000 PUSH1 0x20 DUP3 ADD MSTORE POP JUMP JUMPDEST PUSH1 0x0 PUSH2 0x1737 PUSH1 0x25 DUP4 PUSH2 0x1280 JUMP JUMPDEST SWAP2 POP PUSH2 0x1742 DUP3 PUSH2 0x16DB JUMP JUMPDEST PUSH1 0x40 DUP3 ADD SWAP1 POP SWAP2 SWAP1 POP JUMP JUMPDEST PUSH1 0x0 PUSH1 0x20 DUP3 ADD SWAP1 POP DUP2 DUP2 SUB PUSH1 0x0 DUP4 ADD MSTORE PUSH2 0x1766 DUP2 PUSH2 0x172A JUMP JUMPDEST SWAP1 POP SWAP2 SWAP1 POP JUMP JUMPDEST PUSH32 0x4F776E61626C653A206E6577206F776E657220697320746865207A65726F2061 PUSH1 0x0 DUP3 ADD MSTORE PUSH32 0x6464726573730000000000000000000000000000000000000000000000000000 PUSH1 0x20 DUP3 ADD MSTORE POP JUMP JUMPDEST PUSH1 0x0 PUSH2 0x17C9 PUSH1 0x26 DUP4 PUSH2 0x1280 JUMP JUMPDEST SWAP2 POP PUSH2 0x17D4 DUP3 PUSH2 0x176D JUMP JUMPDEST PUSH1 0x40 DUP3 ADD SWAP1 POP SWAP2 SWAP1 POP JUMP JUMPDEST PUSH1 0x0 PUSH1 0x20 DUP3 ADD SWAP1 POP DUP2 DUP2 SUB PUSH1 0x0 DUP4 ADD MSTORE PUSH2 0x17F8 DUP2 PUSH2 0x17BC JUMP JUMPDEST SWAP1 POP SWAP2 SWAP1 POP JUMP JUMPDEST PUSH32 0x45524332303A20617070726F76652066726F6D20746865207A65726F20616464 PUSH1 0x0 DUP3 ADD MSTORE PUSH32 0x7265737300000000000000000000000000000000000000000000000000000000 PUSH1 0x20 DUP3 ADD MSTORE POP JUMP JUMPDEST PUSH1 0x0 PUSH2 0x185B PUSH1 0x24 DUP4 PUSH2 0x1280 JUMP JUMPDEST SWAP2 POP PUSH2 0x1866 DUP3 PUSH2 0x17FF JUMP JUMPDEST PUSH1 0x40 DUP3 ADD SWAP1 POP SWAP2 SWAP1 POP JUMP JUMPDEST PUSH1 0x0 PUSH1 0x20 DUP3 ADD SWAP1 POP DUP2 DUP2 SUB PUSH1 0x0 DUP4 ADD MSTORE PUSH2 0x188A DUP2 PUSH2 0x184E JUMP JUMPDEST SWAP1 POP SWAP2 SWAP1 POP JUMP JUMPDEST PUSH32 0x45524332303A20617070726F766520746F20746865207A65726F206164647265 PUSH1 0x0 DUP3 ADD MSTORE PUSH32 0x7373000000000000000000000000000000000000000000000000000000000000 PUSH1 0x20 DUP3 ADD MSTORE POP JUMP JUMPDEST PUSH1 0x0 PUSH2 0x18ED PUSH1 0x22 DUP4 PUSH2 0x1280 JUMP JUMPDEST SWAP2 POP PUSH2 0x18F8 DUP3 PUSH2 0x1891 JUMP JUMPDEST PUSH1 0x40 DUP3 ADD SWAP1 POP SWAP2 SWAP1 POP JUMP JUMPDEST PUSH1 0x0 PUSH1 0x20 DUP3 ADD SWAP1 POP DUP2 DUP2 SUB PUSH1 0x0 DUP4 ADD MSTORE PUSH2 0x191C DUP2 PUSH2 0x18E0 JUMP JUMPDEST SWAP1 POP SWAP2 SWAP1 POP JUMP JUMPDEST PUSH32 0x45524332303A20696E73756666696369656E7420616C6C6F77616E6365000000 PUSH1 0x0 DUP3 ADD MSTORE POP JUMP JUMPDEST PUSH1 0x0 PUSH2 0x1959 PUSH1 0x1D DUP4 PUSH2 0x1280 JUMP JUMPDEST SWAP2 POP PUSH2 0x1964 DUP3 PUSH2 0x1923 JUMP JUMPDEST PUSH1 0x20 DUP3 ADD SWAP1 POP SWAP2 SWAP1 POP JUMP JUMPDEST PUSH1 0x0 PUSH1 0x20 DUP3 ADD SWAP1 POP DUP2 DUP2 SUB PUSH1 0x0 DUP4 ADD MSTORE PUSH2 0x1988 DUP2 PUSH2 0x194C JUMP JUMPDEST SWAP1 POP SWAP2 SWAP1 POP JUMP JUMPDEST PUSH32 0x45524332303A207472616E736665722066726F6D20746865207A65726F206164 PUSH1 0x0 DUP3 ADD MSTORE PUSH32 0x6472657373000000000000000000000000000000000000000000000000000000 PUSH1 0x20 DUP3 ADD MSTORE POP JUMP JUMPDEST PUSH1 0x0 PUSH2 0x19EB PUSH1 0x25 DUP4 PUSH2 0x1280 JUMP JUMPDEST SWAP2 POP PUSH2 0x19F6 DUP3 PUSH2 0x198F JUMP JUMPDEST PUSH1 0x40 DUP3 ADD SWAP1 POP SWAP2 SWAP1 POP JUMP JUMPDEST PUSH1 0x0 PUSH1 0x20 DUP3 ADD SWAP1 POP DUP2 DUP2 SUB PUSH1 0x0 DUP4 ADD MSTORE PUSH2 0x1A1A DUP2 PUSH2 0x19DE JUMP JUMPDEST SWAP1 POP SWAP2 SWAP1 POP JUMP JUMPDEST PUSH32 0x45524332303A207472616E7366657220746F20746865207A65726F2061646472 PUSH1 0x0 DUP3 ADD MSTORE PUSH32 0x6573730000000000000000000000000000000000000000000000000000000000 PUSH1 0x20 DUP3 ADD MSTORE POP JUMP JUMPDEST PUSH1 0x0 PUSH2 0x1A7D PUSH1 0x23 DUP4 PUSH2 0x1280 JUMP JUMPDEST SWAP2 POP PUSH2 0x1A88 DUP3 PUSH2 0x1A21 JUMP JUMPDEST PUSH1 0x40 DUP3 ADD SWAP1 POP SWAP2 SWAP1 POP JUMP JUMPDEST PUSH1 0x0 PUSH1 0x20 DUP3 ADD SWAP1 POP DUP2 DUP2 SUB PUSH1 0x0 DUP4 ADD MSTORE PUSH2 0x1AAC DUP2 PUSH2 0x1A70 JUMP JUMPDEST SWAP1 POP SWAP2 SWAP1 POP JUMP JUMPDEST PUSH32 0x45524332303A207472616E7366657220616D6F756E7420657863656564732062 PUSH1 0x0 DUP3 ADD MSTORE PUSH32 0x616C616E63650000000000000000000000000000000000000000000000000000 PUSH1 0x20 DUP3 ADD MSTORE POP JUMP JUMPDEST PUSH1 0x0 PUSH2 0x1B0F PUSH1 0x26 DUP4 PUSH2 0x1280 JUMP JUMPDEST SWAP2 POP PUSH2 0x1B1A DUP3 PUSH2 0x1AB3 JUMP JUMPDEST PUSH1 0x40 DUP3 ADD SWAP1 POP SWAP2 SWAP1 POP JUMP JUMPDEST PUSH1 0x0 PUSH1 0x20 DUP3 ADD SWAP1 POP DUP2 DUP2 SUB PUSH1 0x0 DUP4 ADD MSTORE PUSH2 0x1B3E DUP2 PUSH2 0x1B02 JUMP JUMPDEST SWAP1 POP SWAP2 SWAP1 POP JUMP JUMPDEST PUSH32 0x45524332303A206D696E7420746F20746865207A65726F206164647265737300 PUSH1 0x0 DUP3 ADD MSTORE POP JUMP JUMPDEST PUSH1 0x0 PUSH2 0x1B7B PUSH1 0x1F DUP4 PUSH2 0x1280 JUMP JUMPDEST SWAP2 POP PUSH2 0x1B86 DUP3 PUSH2 0x1B45 JUMP JUMPDEST PUSH1 0x20 DUP3 ADD SWAP1 POP SWAP2 SWAP1 POP JUMP JUMPDEST PUSH1 0x0 PUSH1 0x20 DUP3 ADD SWAP1 POP DUP2 DUP2 SUB PUSH1 0x0 DUP4 ADD MSTORE PUSH2 0x1BAA DUP2 PUSH2 0x1B6E JUMP JUMPDEST SWAP1 POP SWAP2 SWAP1 POP JUMP JUMPDEST PUSH32 0x4F776E61626C653A2063616C6C6572206973206E6F7420746865206F776E6572 PUSH1 0x0 DUP3 ADD MSTORE POP JUMP JUMPDEST PUSH1 0x0 PUSH2 0x1BE7 PUSH1 0x20 DUP4 PUSH2 0x1280 JUMP JUMPDEST SWAP2 POP PUSH2 0x1BF2 DUP3 PUSH2 0x1BB1 JUMP JUMPDEST PUSH1 0x20 DUP3 ADD SWAP1 POP SWAP2 SWAP1 POP JUMP JUMPDEST PUSH1 0x0 PUSH1 0x20 DUP3 ADD SWAP1 POP DUP2 DUP2 SUB PUSH1 0x0 DUP4 ADD MSTORE PUSH2 0x1C16 DUP2 PUSH2 0x1BDA JUMP JUMPDEST SWAP1 POP SWAP2 SWAP1 POP JUMP JUMPDEST PUSH32 0x45524332303A206275726E2066726F6D20746865207A65726F20616464726573 PUSH1 0x0 DUP3 ADD MSTORE PUSH32 0x7300000000000000000000000000000000000000000000000000000000000000 PUSH1 0x20 DUP3 ADD MSTORE POP JUMP JUMPDEST PUSH1 0x0 PUSH2 0x1C79 PUSH1 0x21 DUP4 PUSH2 0x1280 JUMP JUMPDEST SWAP2 POP PUSH2 0x1C84 DUP3 PUSH2 0x1C1D JUMP JUMPDEST PUSH1 0x40 DUP3 ADD SWAP1 POP SWAP2 SWAP1 POP JUMP JUMPDEST PUSH1 0x0 PUSH1 0x20 DUP3 ADD SWAP1 POP DUP2 DUP2 SUB PUSH1 0x0 DUP4 ADD MSTORE PUSH2 0x1CA8 DUP2 PUSH2 0x1C6C JUMP JUMPDEST SWAP1 POP SWAP2 SWAP1 POP JUMP JUMPDEST PUSH32 0x45524332303A206275726E20616D6F756E7420657863656564732062616C616E PUSH1 0x0 DUP3 ADD MSTORE PUSH32 0x6365000000000000000000000000000000000000000000000000000000000000 PUSH1 0x20 DUP3 ADD MSTORE POP JUMP JUMPDEST PUSH1 0x0 PUSH2 0x1D0B PUSH1 0x22 DUP4 PUSH2 0x1280 JUMP JUMPDEST SWAP2 POP PUSH2 0x1D16 DUP3 PUSH2 0x1CAF JUMP JUMPDEST PUSH1 0x40 DUP3 ADD SWAP1 POP SWAP2 SWAP1 POP JUMP JUMPDEST PUSH1 0x0 PUSH1 0x20 DUP3 ADD SWAP1 POP DUP2 DUP2 SUB PUSH1 0x0 DUP4 ADD MSTORE PUSH2 0x1D3A DUP2 PUSH2 0x1CFE JUMP JUMPDEST SWAP1 POP SWAP2 SWAP1 POP JUMP INVALID LOG2 PUSH5 0x6970667358 0x22 SLT KECCAK256 DUP13 PUSH23 0x4B14352CCF2D3C16C1FC86ADB57C6C28AF3EE8171B6A66 0xAD 0x28 SDIV 0x5D MSTORE 0xD2 CALLCODE PUSH5 0x736F6C6343 STOP ADDMOD 0xE STOP CALLER "
				},
				"gasEstimates": {
					"creation": {
						"codeDepositCost": "1508600",
						"executionCost": "infinite",
						"totalCost": "infinite"
					},
					"external": {
						"allowance(address,address)": "infinite",
						"approve(address,uint256)": "infinite",
						"approved()": "2604",
						"balanceOf(address)": "2952",
						"burn(address,uint256)": "infinite",
						"decimals()": "388",
						"decreaseAllowance(address,uint256)": "infinite",
						"increaseAllowance(address,uint256)": "infinite",
						"mint(address,uint256)": "infinite",
						"name()": "infinite",
						"owner()": "2567",
						"renounceOwnership()": "30421",
						"setApproved(address)": "27096",
						"symbol()": "infinite",
						"totalSupply()": "2505",
						"transfer(address,uint256)": "infinite",
						"transferFrom(address,address,uint256)": "infinite",
						"transferOwnership(address)": "30832"
					}
				},
				"methodIdentifiers": {
					"allowance(address,address)": "dd62ed3e",
					"approve(address,uint256)": "095ea7b3",
					"approved()": "19d40b08",
					"balanceOf(address)": "70a08231",
					"burn(address,uint256)": "9dc29fac",
					"decimals()": "313ce567",
					"decreaseAllowance(address,uint256)": "a457c2d7",
					"increaseAllowance(address,uint256)": "39509351",
					"mint(address,uint256)": "40c10f19",
					"name()": "06fdde03",
					"owner()": "8da5cb5b",
					"renounceOwnership()": "715018a6",
					"setApproved(address)": "fb0289ca",
					"symbol()": "95d89b41",
					"totalSupply()": "18160ddd",
					"transfer(address,uint256)": "a9059cbb",
					"transferFrom(address,address,uint256)": "23b872dd",
					"transferOwnership(address)": "f2fde38b"
				}
			},
			"storageLayout": {
				"storage": [
					{
						"astId": 128,
						"contract": "Other/RToken.sol:RToken",
						"label": "_balances",
						"offset": 0,
						"slot": "0",
						"type": "t_mapping(t_address,t_uint256)"
					},
					{
						"astId": 134,
						"contract": "Other/RToken.sol:RToken",
						"label": "_allowances",
						"offset": 0,
						"slot": "1",
						"type": "t_mapping(t_address,t_mapping(t_address,t_uint256))"
					},
					{
						"astId": 136,
						"contract": "Other/RToken.sol:RToken",
						"label": "_totalSupply",
						"offset": 0,
						"slot": "2",
						"type": "t_uint256"
					},
					{
						"astId": 138,
						"contract": "Other/RToken.sol:RToken",
						"label": "_name",
						"offset": 0,
						"slot": "3",
						"type": "t_string_storage"
					},
					{
						"astId": 140,
						"contract": "Other/RToken.sol:RToken",
						"label": "_symbol",
						"offset": 0,
						"slot": "4",
						"type": "t_string_storage"
					},
					{
						"astId": 7,
						"contract": "Other/RToken.sol:RToken",
						"label": "_owner",
						"offset": 0,
						"slot": "5",
						"type": "t_address"
					},
					{
						"astId": 835,
						"contract": "Other/RToken.sol:RToken",
						"label": "approved",
						"offset": 0,
						"slot": "6",
						"type": "t_address"
					}
				],
				"types": {
					"t_address": {
						"encoding": "inplace",
						"label": "address",
						"numberOfBytes": "20"
					},
					"t_mapping(t_address,t_mapping(t_address,t_uint256))": {
						"encoding": "mapping",
						"key": "t_address",
						"label": "mapping(address => mapping(address => uint256))",
						"numberOfBytes": "32",
						"value": "t_mapping(t_address,t_uint256)"
					},
					"t_mapping(t_address,t_uint256)": {
						"encoding": "mapping",
						"key": "t_address",
						"label": "mapping(address => uint256)",
						"numberOfBytes": "32",
						"value": "t_uint256"
					},
					"t_string_storage": {
						"encoding": "bytes",
						"label": "string",
						"numberOfBytes": "32"
					},
					"t_uint256": {
						"encoding": "inplace",
						"label": "uint256",
						"numberOfBytes": "32"
					}
				}
			},
			"userdoc": {
				"kind": "user",
				"methods": {},
				"notice": "The Staking contract is allowed only to mint and burn the Tokens",
				"version": 1
			}
		}
	}
}