{
  "_format": "hh-sol-artifact-1",
  "contractName": "AtomX",
  "sourceName": "contracts/AtomX.sol",
  "abi": [
    {
      "anonymous": false,
      "inputs": [
        {
          "indexed": false,
          "internalType": "uint256",
          "name": "_swapID",
          "type": "uint256"
        },
        {
          "indexed": false,
          "internalType": "bytes32",
          "name": "_secretKey",
          "type": "bytes32"
        }
      ],
      "name": "LogClose",
      "type": "event"
    },
    {
      "anonymous": false,
      "inputs": [
        {
          "indexed": false,
          "internalType": "uint256",
          "name": "_swapID",
          "type": "uint256"
        }
      ],
      "name": "LogExpire",
      "type": "event"
    },
    {
      "anonymous": false,
      "inputs": [
        {
          "indexed": false,
          "internalType": "uint256",
          "name": "_swapID",
          "type": "uint256"
        },
        {
          "indexed": false,
          "internalType": "address",
          "name": "_spender",
          "type": "address"
        },
        {
          "indexed": false,
          "internalType": "bytes32",
          "name": "_secretLock",
          "type": "bytes32"
        }
      ],
      "name": "LogOpen",
      "type": "event"
    },
    {
      "anonymous": false,
      "inputs": [
        {
          "indexed": true,
          "internalType": "address",
          "name": "previousOwner",
          "type": "address"
        },
        {
          "indexed": true,
          "internalType": "address",
          "name": "newOwner",
          "type": "address"
        }
      ],
      "name": "OwnershipTransferred",
      "type": "event"
    },
    {
      "anonymous": false,
      "inputs": [
        {
          "indexed": false,
          "internalType": "uint256",
          "name": "_oldFee",
          "type": "uint256"
        },
        {
          "indexed": false,
          "internalType": "uint256",
          "name": "_newFee",
          "type": "uint256"
        }
      ],
      "name": "UpdateFee",
      "type": "event"
    },
    {
      "inputs": [
        {
          "internalType": "address",
          "name": "",
          "type": "address"
        }
      ],
      "name": "activeSwap",
      "outputs": [
        {
          "internalType": "uint256",
          "name": "",
          "type": "uint256"
        }
      ],
      "stateMutability": "view",
      "type": "function"
    },
    {
      "inputs": [
        {
          "internalType": "uint256",
          "name": "_swapID",
          "type": "uint256"
        }
      ],
      "name": "audit",
      "outputs": [
        {
          "internalType": "address",
          "name": "tokenAddress",
          "type": "address"
        },
        {
          "internalType": "uint256",
          "name": "timelock",
          "type": "uint256"
        },
        {
          "internalType": "uint256",
          "name": "value",
          "type": "uint256"
        },
        {
          "internalType": "address",
          "name": "to",
          "type": "address"
        },
        {
          "internalType": "address",
          "name": "from",
          "type": "address"
        },
        {
          "internalType": "bytes32",
          "name": "secretLock",
          "type": "bytes32"
        },
        {
          "internalType": "bytes32",
          "name": "secretKey",
          "type": "bytes32"
        },
        {
          "internalType": "bool",
          "name": "isInitial",
          "type": "bool"
        }
      ],
      "stateMutability": "view",
      "type": "function"
    },
    {
      "inputs": [
        {
          "internalType": "uint256",
          "name": "_swapID",
          "type": "uint256"
        }
      ],
      "name": "auditSecret",
      "outputs": [
        {
          "internalType": "bytes32",
          "name": "secretKey",
          "type": "bytes32"
        }
      ],
      "stateMutability": "view",
      "type": "function"
    },
    {
      "inputs": [
        {
          "internalType": "uint256",
          "name": "_amount",
          "type": "uint256"
        }
      ],
      "name": "claimFee",
      "outputs": [],
      "stateMutability": "nonpayable",
      "type": "function"
    },
    {
      "inputs": [],
      "name": "feeValue",
      "outputs": [
        {
          "internalType": "uint256",
          "name": "",
          "type": "uint256"
        }
      ],
      "stateMutability": "view",
      "type": "function"
    },
    {
      "inputs": [
        {
          "internalType": "address",
          "name": "_tokenAddress",
          "type": "address"
        },
        {
          "internalType": "address payable",
          "name": "_spender",
          "type": "address"
        },
        {
          "internalType": "bytes32",
          "name": "_secretLock",
          "type": "bytes32"
        },
        {
          "internalType": "uint256",
          "name": "_timelock",
          "type": "uint256"
        },
        {
          "internalType": "uint256",
          "name": "_value",
          "type": "uint256"
        },
        {
          "internalType": "bool",
          "name": "_isInitial",
          "type": "bool"
        }
      ],
      "name": "initiateSwap",
      "outputs": [],
      "stateMutability": "payable",
      "type": "function"
    },
    {
      "inputs": [
        {
          "internalType": "address",
          "name": "",
          "type": "address"
        }
      ],
      "name": "lastSwap",
      "outputs": [
        {
          "internalType": "uint256",
          "name": "",
          "type": "uint256"
        }
      ],
      "stateMutability": "view",
      "type": "function"
    },
    {
      "inputs": [],
      "name": "owner",
      "outputs": [
        {
          "internalType": "address",
          "name": "",
          "type": "address"
        }
      ],
      "stateMutability": "view",
      "type": "function"
    },
    {
      "inputs": [
        {
          "internalType": "uint256",
          "name": "_swapID",
          "type": "uint256"
        },
        {
          "internalType": "address payable",
          "name": "_receiver",
          "type": "address"
        },
        {
          "internalType": "bytes32",
          "name": "_secretKey",
          "type": "bytes32"
        }
      ],
      "name": "redeem",
      "outputs": [],
      "stateMutability": "nonpayable",
      "type": "function"
    },
    {
      "inputs": [
        {
          "internalType": "uint256",
          "name": "_swapID",
          "type": "uint256"
        }
      ],
      "name": "redeemable",
      "outputs": [
        {
          "internalType": "bool",
          "name": "",
          "type": "bool"
        }
      ],
      "stateMutability": "view",
      "type": "function"
    },
    {
      "inputs": [
        {
          "internalType": "uint256",
          "name": "_swapID",
          "type": "uint256"
        }
      ],
      "name": "redeemedAt",
      "outputs": [
        {
          "internalType": "uint256",
          "name": "",
          "type": "uint256"
        }
      ],
      "stateMutability": "view",
      "type": "function"
    },
    {
      "inputs": [
        {
          "internalType": "uint256",
          "name": "_swapID",
          "type": "uint256"
        }
      ],
      "name": "refund",
      "outputs": [],
      "stateMutability": "nonpayable",
      "type": "function"
    },
    {
      "inputs": [
        {
          "internalType": "uint256",
          "name": "_swapID",
          "type": "uint256"
        }
      ],
      "name": "refundable",
      "outputs": [
        {
          "internalType": "bool",
          "name": "",
          "type": "bool"
        }
      ],
      "stateMutability": "view",
      "type": "function"
    },
    {
      "inputs": [],
      "name": "renounceOwnership",
      "outputs": [],
      "stateMutability": "nonpayable",
      "type": "function"
    },
    {
      "inputs": [],
      "name": "swapID",
      "outputs": [
        {
          "internalType": "uint256",
          "name": "",
          "type": "uint256"
        }
      ],
      "stateMutability": "view",
      "type": "function"
    },
    {
      "inputs": [],
      "name": "totalFee",
      "outputs": [
        {
          "internalType": "uint256",
          "name": "",
          "type": "uint256"
        }
      ],
      "stateMutability": "view",
      "type": "function"
    },
    {
      "inputs": [
        {
          "internalType": "address",
          "name": "newOwner",
          "type": "address"
        }
      ],
      "name": "transferOwnership",
      "outputs": [],
      "stateMutability": "nonpayable",
      "type": "function"
    },
    {
      "inputs": [
        {
          "internalType": "uint256",
          "name": "_newFee",
          "type": "uint256"
        }
      ],
      "name": "updateFee",
      "outputs": [],
      "stateMutability": "nonpayable",
      "type": "function"
    }
  ],
  "bytecode": "0x608060405234801561001057600080fd5b5061001a3361001f565b610071565b600680546001600160a01b038381166001600160a01b0319831681179093556040519116919082907f8be0079c531659141344cd1fd0a4f28419497f9722a3daafe3b4186f6b6457e090600090a35050565b611586806100806000396000f3fe6080604052600436106100d95760003560e01c8063108a527c146100de5780631df4ccfc1461011e578063278ecde1146101345780632bbcc2d4146101565780635006d241146101765780635917fd2a146101a3578063715018a6146101b6578063825a926f146101cb5780638da5cb5b146101fb5780639012c4a81461022857806390445a6c146102485780639fddaa9314610268578063aaa4391c1461027e578063b173e5701461029e578063dfa0d84f1461039f578063f2fde38b146103b5578063f667526a146103d5578063f8491353146103f5575b600080fd5b3480156100ea57600080fd5b5061010b6100f93660046113a0565b60009081526003602052604090205490565b6040519081526020015b60405180910390f35b34801561012a57600080fd5b5061010b60085481565b34801561014057600080fd5b5061015461014f3660046113a0565b610422565b005b34801561016257600080fd5b5061010b6101713660046113a0565b6105a0565b34801561018257600080fd5b5061010b6101913660046112e3565b60056020526000908152604090205481565b6101546101b1366004611306565b61062e565b3480156101c257600080fd5b506101546107bb565b3480156101d757600080fd5b506101eb6101e63660046113a0565b6107f6565b6040519015158152602001610115565b34801561020757600080fd5b50610210610833565b6040516001600160a01b039091168152602001610115565b34801561023457600080fd5b506101546102433660046113a0565b610842565b34801561025457600080fd5b506101eb6102633660046113a0565b6108b2565b34801561027457600080fd5b5061010b60075481565b34801561028a57600080fd5b506101546102993660046113b8565b6108db565b3480156102aa57600080fd5b506103506102b93660046113a0565b60009081526001602081815260409283902083516101008101855281546001600160a01b039081168083529483015493820184905260028301549582018690526003830154606083018190526004840154608084018190526005850154831660a0850181905260069095015492831660c08501819052600160a01b90930460ff16151560e090940184905295979496959194909290565b604080516001600160a01b03998a168152602081019890985287019590955292861660608601529416608084015260a083019390935260c082019290925290151560e082015261010001610115565b3480156103ab57600080fd5b5061010b60005481565b3480156103c157600080fd5b506101546103d03660046112e3565b610a4d565b3480156103e157600080fd5b506101546103f03660046113a0565b610aed565b34801561040157600080fd5b5061010b6104103660046112e3565b60046020526000908152604090205481565b61042b81610baa565b60008181526001602081815260409283902083516101008101855281546001600160a01b039081168083529483015493820193909352600282015494810185905260038201546060820152600482015460808201526005820154831660a0820181905260069092015492831660c0820152600160a01b90920460ff16151560e08301529092909190816104f4576040516001600160a01b0384169082156108fc029083906000818181858888f193505050501580156104ee573d6000803e3d6000fd5b50610599565b60405163a9059cbb60e01b81526001600160a01b0383169063a9059cbb906105229086908590600401611428565b602060405180830381600087803b15801561053c57600080fd5b505af1158015610550573d6000803e3d6000fd5b505050506040513d601f19601f82011682018060405250810190610574919061136c565b6105995760405162461bcd60e51b815260040161059090611441565b60405180910390fd5b5050505050565b600081600260008281526002602052604090205460ff1660038111156105d657634e487b7160e01b600052602160045260246000fd5b146106175760405162461bcd60e51b81526020600482015260116024820152701cddd85c081b9bdd081c995919595b5959607a1b6044820152606401610590565b505060009081526001602052604090206004015490565b346001600160a01b03871661069f5760075461064a90846114cd565b34101561068e5760405162461bcd60e51b8152602060048201526012602482015271496e73756666696369656e742076616c756560701b6044820152606401610590565b61069883826114e5565b905061078c565b6007543410156106ea5760405162461bcd60e51b8152602060048201526016602482015275496e73756666696369656e74206665652076616c756560501b6044820152606401610590565b6040516323b872dd60e01b8152336004820152306024820152604481018490526001600160a01b038816906323b872dd90606401602060405180830381600087803b15801561073857600080fd5b505af115801561074c573d6000803e3d6000fd5b505050506040513d601f19601f82011682018060405250810190610770919061136c565b61078c5760405162461bcd60e51b815260040161059090611441565b806008600082825461079e91906114cd565b909155506107b29050878787878787610cae565b50505050505050565b336107c4610833565b6001600160a01b0316146107ea5760405162461bcd60e51b815260040161059090611498565b6107f46000610fee565b565b600060015b60008381526002602052604090205460ff16600381111561082c57634e487b7160e01b600052602160045260246000fd5b1492915050565b6006546001600160a01b031690565b3361084b610833565b6001600160a01b0316146108715760405162461bcd60e51b815260040161059090611498565b60075460408051918252602082018390527f8987e6f43a6c6bf408c8c427dceb2f98377f859348939ef4ab7b770b510a395a910160405180910390a1600755565b60008181526001602081905260408220015442108015906108d5575060016107fb565b92915050565b6108e6838383611040565b60008381526001602081815260409283902083516101008101855281546001600160a01b039081168083529483015493820193909352600282015494810185905260038201546060820152600482015460808201526005820154831660a082015260069091015491821660c0820152600160a01b90910460ff16151560e082015291816109a9576040516001600160a01b0386169082156108fc029083906000818181858888f193505050501580156109a3573d6000803e3d6000fd5b50610a45565b60405163a9059cbb60e01b81526001600160a01b0383169063a9059cbb906109d79088908590600401611428565b602060405180830381600087803b1580156109f157600080fd5b505af1158015610a05573d6000803e3d6000fd5b505050506040513d601f19601f82011682018060405250810190610a29919061136c565b610a455760405162461bcd60e51b815260040161059090611441565b505050505050565b33610a56610833565b6001600160a01b031614610a7c5760405162461bcd60e51b815260040161059090611498565b6001600160a01b038116610ae15760405162461bcd60e51b815260206004820152602660248201527f4f776e61626c653a206e6577206f776e657220697320746865207a65726f206160448201526564647265737360d01b6064820152608401610590565b610aea81610fee565b50565b33610af6610833565b6001600160a01b031614610b1c5760405162461bcd60e51b815260040161059090611498565b806008541015610b625760405162461bcd60e51b815260206004820152601160248201527008ccaca40d2e640dcdee840cadcdeeaced607b1b6044820152606401610590565b8060086000828254610b7491906114e5565b9091555050604051339082156108fc029083906000818181858888f19350505050158015610ba6573d6000803e3d6000fd5b5050565b80600160008281526002602052604090205460ff166003811115610bde57634e487b7160e01b600052602160045260246000fd5b14610bfb5760405162461bcd60e51b815260040161059090611471565b600082815260016020819052604090912001548290421015610c545760405162461bcd60e51b815260206004820152601260248201527173776170206e6f7420657870697261626c6560701b6044820152606401610590565b6000838152600260205260409020805460ff19166003179055610c76836112a7565b6040518381527f4d142c3cab365e2375076de4df8350f27a01a3fcf0b9e147da889d8df83807589060200160405180910390a1505050565b33600081815260046020526040902054869015610d015760405162461bcd60e51b8152602060048201526011602482015270046756e64657220697320696e207377617607c1b6044820152606401610590565b6001600160a01b03811660009081526004602052604090205415610d5c5760405162461bcd60e51b815260206004820152601260248201527105370656e64657220697320696e20737761760741b6044820152606401610590565b428511610d9e5760405162461bcd60e51b815260206004820152601060248201526f496e76616c69642074696d656c6f636b60801b6044820152606401610590565b60008060008154610dae906114fc565b91905081905590508060046000336001600160a01b03166001600160a01b031681526020019081526020016000208190555080600460008a6001600160a01b03166001600160a01b031681526020019081526020016000208190555060006040518061010001604052808b6001600160a01b031681526020018881526020018781526020018981526020016000801b8152602001336001600160a01b031681526020018a6001600160a01b031681526020018615158152509050806001600084815260200190815260200160002060008201518160000160006101000a8154816001600160a01b0302191690836001600160a01b031602179055506020820151816001015560408201518160020155606082015181600301556080820151816004015560a08201518160050160006101000a8154816001600160a01b0302191690836001600160a01b0316021790555060c08201518160060160006101000a8154816001600160a01b0302191690836001600160a01b0316021790555060e08201518160060160146101000a81548160ff02191690831515021790555090505060016002600084815260200190815260200160002060006101000a81548160ff02191690836003811115610f9257634e487b7160e01b600052602160045260246000fd5b0217905550600054604080519182526001600160a01b038b16602083015281018990527f9c8b0d6c586d53ce73cdd1d09172b2145a8e0fdd2d16c3dd224ce9013d7004d29060600160405180910390a150505050505050505050565b600680546001600160a01b038381166001600160a01b0319831681179093556040519116919082907f8be0079c531659141344cd1fd0a4f28419497f9722a3daafe3b4186f6b6457e090600090a35050565b82600160008281526002602052604090205460ff16600381111561107457634e487b7160e01b600052602160045260246000fd5b146110915760405162461bcd60e51b815260040161059090611471565b83826002816040516020016110a891815260200190565b60408051601f19818403018152908290526110c2916113ef565b602060405180830381855afa1580156110df573d6000803e3d6000fd5b5050506040513d601f19601f820116820180604052508101906111029190611388565b600083815260016020526040902060030154146111525760405162461bcd60e51b815260206004820152600e60248201526d1a5b9d985b1a59081cd958dc995d60921b6044820152606401610590565b600086815260016020526040902060060154869033906001600160a01b031681146111b65760405162461bcd60e51b81526020600482015260146024820152733ab730baba3437b934bd32b21039b832b73232b960611b6044820152606401610590565b6001600160a01b0387166111ff5760405162461bcd60e51b815260206004820152601060248201526f34b73b30b634b2103932b1b2b4bb32b960811b6044820152606401610590565b60008881526001602090815260408083206005908101546001600160a01b031684529091529020889055611232886112a7565b60008881526001602090815260408083206004018990556002808352818420805460ff19169091179055600382529182902042905581518a81529081018890527f2fd908dec911588d995135dbfe9257f33b2da24f12e8ddec0feabdfa3d372b80910160405180910390a15050505050505050565b600090815260016020908152604080832060058101546001600160a01b0390811685526004909352818420849055600601549091168252812055565b6000602082840312156112f4578081fd5b81356112ff8161152d565b9392505050565b60008060008060008060c0878903121561131e578182fd5b86356113298161152d565b955060208701356113398161152d565b945060408701359350606087013592506080870135915060a087013561135e81611542565b809150509295509295509295565b60006020828403121561137d578081fd5b81516112ff81611542565b600060208284031215611399578081fd5b5051919050565b6000602082840312156113b1578081fd5b5035919050565b6000806000606084860312156113cc578283fd5b8335925060208401356113de8161152d565b929592945050506040919091013590565b60008251815b8181101561140f57602081860181015185830152016113f5565b8181111561141d5782828501525b509190910192915050565b6001600160a01b03929092168252602082015260400190565b6020808252601690820152752330b4b61037b7103a37b5b2b7103a3930b739b332b960511b604082015260600190565b6020808252600d908201526c39bbb0b8103737ba1037b832b760991b604082015260600190565b6020808252818101527f4f776e61626c653a2063616c6c6572206973206e6f7420746865206f776e6572604082015260600190565b600082198211156114e0576114e0611517565b500190565b6000828210156114f7576114f7611517565b500390565b600060001982141561151057611510611517565b5060010190565b634e487b7160e01b600052601160045260246000fd5b6001600160a01b0381168114610aea57600080fd5b8015158114610aea57600080fdfea2646970667358221220b2aec074a2ca21787333de66eaa9623d7d29d9aad32198fedb4ee15d7317552464736f6c63430008040033",
  "linkReferences": {},
  "deployedLinkReferences": {}
}