{
  "_format": "hh-sol-artifact-1",
  "contractName": "AtomX",
  "sourceName": "contracts/AtomX.sol",
  "abi": [
    {
      "anonymous": false,
      "inputs": [
        {
          "indexed": false,
          "internalType": "uint256",
          "name": "_swapID",
          "type": "uint256"
        },
        {
          "indexed": false,
          "internalType": "bytes32",
          "name": "_secretKey",
          "type": "bytes32"
        }
      ],
      "name": "LogClose",
      "type": "event"
    },
    {
      "anonymous": false,
      "inputs": [
        {
          "indexed": false,
          "internalType": "uint256",
          "name": "_swapID",
          "type": "uint256"
        }
      ],
      "name": "LogExpire",
      "type": "event"
    },
    {
      "anonymous": false,
      "inputs": [
        {
          "indexed": false,
          "internalType": "uint256",
          "name": "_swapID",
          "type": "uint256"
        },
        {
          "indexed": false,
          "internalType": "address",
          "name": "_spender",
          "type": "address"
        },
        {
          "indexed": false,
          "internalType": "bytes32",
          "name": "_secretLock",
          "type": "bytes32"
        }
      ],
      "name": "LogOpen",
      "type": "event"
    },
    {
      "anonymous": false,
      "inputs": [
        {
          "indexed": true,
          "internalType": "address",
          "name": "previousOwner",
          "type": "address"
        },
        {
          "indexed": true,
          "internalType": "address",
          "name": "newOwner",
          "type": "address"
        }
      ],
      "name": "OwnershipTransferred",
      "type": "event"
    },
    {
      "anonymous": false,
      "inputs": [
        {
          "indexed": false,
          "internalType": "uint256",
          "name": "_oldFee",
          "type": "uint256"
        },
        {
          "indexed": false,
          "internalType": "uint256",
          "name": "_newFee",
          "type": "uint256"
        }
      ],
      "name": "UpdateFee",
      "type": "event"
    },
    {
      "inputs": [
        {
          "internalType": "address",
          "name": "",
          "type": "address"
        }
      ],
      "name": "activeSwap",
      "outputs": [
        {
          "internalType": "uint256",
          "name": "",
          "type": "uint256"
        }
      ],
      "stateMutability": "view",
      "type": "function"
    },
    {
      "inputs": [
        {
          "internalType": "uint256",
          "name": "_swapID",
          "type": "uint256"
        }
      ],
      "name": "audit",
      "outputs": [
        {
          "internalType": "address",
          "name": "tokenAddress",
          "type": "address"
        },
        {
          "internalType": "uint256",
          "name": "timelock",
          "type": "uint256"
        },
        {
          "internalType": "uint256",
          "name": "value",
          "type": "uint256"
        },
        {
          "internalType": "address",
          "name": "to",
          "type": "address"
        },
        {
          "internalType": "address",
          "name": "from",
          "type": "address"
        },
        {
          "internalType": "bytes32",
          "name": "secretLock",
          "type": "bytes32"
        },
        {
          "internalType": "bytes32",
          "name": "secretKey",
          "type": "bytes32"
        }
      ],
      "stateMutability": "view",
      "type": "function"
    },
    {
      "inputs": [
        {
          "internalType": "uint256",
          "name": "_swapID",
          "type": "uint256"
        }
      ],
      "name": "auditSecret",
      "outputs": [
        {
          "internalType": "bytes32",
          "name": "secretKey",
          "type": "bytes32"
        }
      ],
      "stateMutability": "view",
      "type": "function"
    },
    {
      "inputs": [
        {
          "internalType": "uint256",
          "name": "_amount",
          "type": "uint256"
        }
      ],
      "name": "claimFee",
      "outputs": [],
      "stateMutability": "nonpayable",
      "type": "function"
    },
    {
      "inputs": [],
      "name": "feeValue",
      "outputs": [
        {
          "internalType": "uint256",
          "name": "",
          "type": "uint256"
        }
      ],
      "stateMutability": "view",
      "type": "function"
    },
    {
      "inputs": [
        {
          "internalType": "address",
          "name": "_tokenAddress",
          "type": "address"
        },
        {
          "internalType": "address payable",
          "name": "_spender",
          "type": "address"
        },
        {
          "internalType": "bytes32",
          "name": "_secretLock",
          "type": "bytes32"
        },
        {
          "internalType": "uint256",
          "name": "_timelock",
          "type": "uint256"
        },
        {
          "internalType": "uint256",
          "name": "_value",
          "type": "uint256"
        }
      ],
      "name": "initiateSwap",
      "outputs": [],
      "stateMutability": "payable",
      "type": "function"
    },
    {
      "inputs": [
        {
          "internalType": "address",
          "name": "",
          "type": "address"
        }
      ],
      "name": "lastSwap",
      "outputs": [
        {
          "internalType": "uint256",
          "name": "",
          "type": "uint256"
        }
      ],
      "stateMutability": "view",
      "type": "function"
    },
    {
      "inputs": [],
      "name": "owner",
      "outputs": [
        {
          "internalType": "address",
          "name": "",
          "type": "address"
        }
      ],
      "stateMutability": "view",
      "type": "function"
    },
    {
      "inputs": [
        {
          "internalType": "uint256",
          "name": "_swapID",
          "type": "uint256"
        },
        {
          "internalType": "address payable",
          "name": "_receiver",
          "type": "address"
        },
        {
          "internalType": "bytes32",
          "name": "_secretKey",
          "type": "bytes32"
        }
      ],
      "name": "redeem",
      "outputs": [],
      "stateMutability": "nonpayable",
      "type": "function"
    },
    {
      "inputs": [
        {
          "internalType": "uint256",
          "name": "_swapID",
          "type": "uint256"
        }
      ],
      "name": "redeemable",
      "outputs": [
        {
          "internalType": "bool",
          "name": "",
          "type": "bool"
        }
      ],
      "stateMutability": "view",
      "type": "function"
    },
    {
      "inputs": [
        {
          "internalType": "uint256",
          "name": "_swapID",
          "type": "uint256"
        }
      ],
      "name": "redeemedAt",
      "outputs": [
        {
          "internalType": "uint256",
          "name": "",
          "type": "uint256"
        }
      ],
      "stateMutability": "view",
      "type": "function"
    },
    {
      "inputs": [
        {
          "internalType": "uint256",
          "name": "_swapID",
          "type": "uint256"
        }
      ],
      "name": "refund",
      "outputs": [],
      "stateMutability": "nonpayable",
      "type": "function"
    },
    {
      "inputs": [
        {
          "internalType": "uint256",
          "name": "_swapID",
          "type": "uint256"
        }
      ],
      "name": "refundable",
      "outputs": [
        {
          "internalType": "bool",
          "name": "",
          "type": "bool"
        }
      ],
      "stateMutability": "view",
      "type": "function"
    },
    {
      "inputs": [],
      "name": "renounceOwnership",
      "outputs": [],
      "stateMutability": "nonpayable",
      "type": "function"
    },
    {
      "inputs": [],
      "name": "swapID",
      "outputs": [
        {
          "internalType": "uint256",
          "name": "",
          "type": "uint256"
        }
      ],
      "stateMutability": "view",
      "type": "function"
    },
    {
      "inputs": [],
      "name": "totalFee",
      "outputs": [
        {
          "internalType": "uint256",
          "name": "",
          "type": "uint256"
        }
      ],
      "stateMutability": "view",
      "type": "function"
    },
    {
      "inputs": [
        {
          "internalType": "address",
          "name": "newOwner",
          "type": "address"
        }
      ],
      "name": "transferOwnership",
      "outputs": [],
      "stateMutability": "nonpayable",
      "type": "function"
    },
    {
      "inputs": [
        {
          "internalType": "uint256",
          "name": "_newFee",
          "type": "uint256"
        }
      ],
      "name": "updateFee",
      "outputs": [],
      "stateMutability": "nonpayable",
      "type": "function"
    }
  ],
  "bytecode": "0x608060405234801561001057600080fd5b5061001a3361001f565b610071565b600680546001600160a01b038381166001600160a01b0319831681179093556040519116919082907f8be0079c531659141344cd1fd0a4f28419497f9722a3daafe3b4186f6b6457e090600090a35050565b6114e2806100806000396000f3fe6080604052600436106100d95760003560e01c8063108a527c146100de5780631df4ccfc1461011e578063278ecde1146101345780632bbcc2d4146101565780635006d24114610176578063715018a6146101a3578063825a926f146101b85780638da5cb5b146101e85780639012c4a81461021557806390445a6c146102355780639fddaa9314610255578063aaa4391c1461026b578063b173e5701461028b578063da32d03f1461036c578063dfa0d84f1461037f578063f2fde38b14610395578063f667526a146103b5578063f8491353146103d5575b600080fd5b3480156100ea57600080fd5b5061010b6100f936600461130a565b60009081526003602052604090205490565b6040519081526020015b60405180910390f35b34801561012a57600080fd5b5061010b60085481565b34801561014057600080fd5b5061015461014f36600461130a565b610402565b005b34801561016257600080fd5b5061010b61017136600461130a565b61056d565b34801561018257600080fd5b5061010b61019136600461125f565b60056020526000908152604090205481565b3480156101af57600080fd5b506101546105fb565b3480156101c457600080fd5b506101d86101d336600461130a565b610636565b6040519015158152602001610115565b3480156101f457600080fd5b506101fd610673565b6040516001600160a01b039091168152602001610115565b34801561022157600080fd5b5061015461023036600461130a565b610682565b34801561024157600080fd5b506101d861025036600461130a565b6106f2565b34801561026157600080fd5b5061010b60075481565b34801561027757600080fd5b50610154610286366004611322565b61071b565b34801561029757600080fd5b506103256102a636600461130a565b600090815260016020818152604092839020835160e08101855281546001600160a01b039081168083529483015493820184905260028301549582018690526003830154606083018190526004840154608084018190526005850154831660a0850181905260069095015490921660c090930183905294969395949193565b604080516001600160a01b03988916815260208101979097528601949094529185166060850152909316608083015260a082019290925260c081019190915260e001610115565b61015461037a366004611282565b61087a565b34801561038b57600080fd5b5061010b60005481565b3480156103a157600080fd5b506101546103b036600461125f565b6109fd565b3480156103c157600080fd5b506101546103d036600461130a565b610a9d565b3480156103e157600080fd5b5061010b6103f036600461125f565b60046020526000908152604090205481565b61040b81610b5a565b600081815260016020818152604092839020835160e08101855281546001600160a01b039081168083529483015493820193909352600282015494810185905260038201546060820152600482015460808201526005820154831660a0820181905260069092015490921660c08301529092909190816104c1576040516001600160a01b0384169082156108fc029083906000818181858888f193505050501580156104bb573d6000803e3d6000fd5b50610566565b60405163a9059cbb60e01b81526001600160a01b0383169063a9059cbb906104ef9086908590600401611392565b602060405180830381600087803b15801561050957600080fd5b505af115801561051d573d6000803e3d6000fd5b505050506040513d601f19601f8201168201806040525081019061054191906112d2565b6105665760405162461bcd60e51b815260040161055d906113ab565b60405180910390fd5b5050505050565b600081600260008281526002602052604090205460ff1660038111156105a357634e487b7160e01b600052602160045260246000fd5b146105e45760405162461bcd60e51b81526020600482015260116024820152701cddd85c081b9bdd081c995919595b5959607a1b604482015260640161055d565b505060009081526001602052604090206004015490565b33610604610673565b6001600160a01b03161461062a5760405162461bcd60e51b815260040161055d90611402565b6106346000610c5e565b565b600060015b60008381526002602052604090205460ff16600381111561066c57634e487b7160e01b600052602160045260246000fd5b1492915050565b6006546001600160a01b031690565b3361068b610673565b6001600160a01b0316146106b15760405162461bcd60e51b815260040161055d90611402565b60075460408051918252602082018390527f8987e6f43a6c6bf408c8c427dceb2f98377f859348939ef4ab7b770b510a395a910160405180910390a1600755565b60008181526001602081905260408220015442108015906107155750600161063b565b92915050565b610726838383610cb0565b600083815260016020818152604092839020835160e08101855281546001600160a01b039081168083529483015493820193909352600282015494810185905260038201546060820152600482015460808201526005820154831660a082015260069091015490911660c082015291816107d6576040516001600160a01b0386169082156108fc029083906000818181858888f193505050501580156107d0573d6000803e3d6000fd5b50610872565b60405163a9059cbb60e01b81526001600160a01b0383169063a9059cbb906108049088908590600401611392565b602060405180830381600087803b15801561081e57600080fd5b505af1158015610832573d6000803e3d6000fd5b505050506040513d601f19601f8201168201806040525081019061085691906112d2565b6108725760405162461bcd60e51b815260040161055d906113ab565b505050505050565b346001600160a01b0386166108eb576007546108969083611437565b3410156108da5760405162461bcd60e51b8152602060048201526012602482015271496e73756666696369656e742076616c756560701b604482015260640161055d565b6108e4828261144f565b90506109d8565b6007543410156109365760405162461bcd60e51b8152602060048201526016602482015275496e73756666696369656e74206665652076616c756560501b604482015260640161055d565b6040516323b872dd60e01b8152336004820152306024820152604481018390526001600160a01b038716906323b872dd90606401602060405180830381600087803b15801561098457600080fd5b505af1158015610998573d6000803e3d6000fd5b505050506040513d601f19601f820116820180604052508101906109bc91906112d2565b6109d85760405162461bcd60e51b815260040161055d906113ab565b80600860008282546109ea9190611437565b9091555061087290508686868686610eed565b33610a06610673565b6001600160a01b031614610a2c5760405162461bcd60e51b815260040161055d90611402565b6001600160a01b038116610a915760405162461bcd60e51b815260206004820152602660248201527f4f776e61626c653a206e6577206f776e657220697320746865207a65726f206160448201526564647265737360d01b606482015260840161055d565b610a9a81610c5e565b50565b33610aa6610673565b6001600160a01b031614610acc5760405162461bcd60e51b815260040161055d90611402565b806008541015610b125760405162461bcd60e51b815260206004820152601160248201527008ccaca40d2e640dcdee840cadcdeeaced607b1b604482015260640161055d565b8060086000828254610b24919061144f565b9091555050604051339082156108fc029083906000818181858888f19350505050158015610b56573d6000803e3d6000fd5b5050565b80600160008281526002602052604090205460ff166003811115610b8e57634e487b7160e01b600052602160045260246000fd5b14610bab5760405162461bcd60e51b815260040161055d906113db565b600082815260016020819052604090912001548290421015610c045760405162461bcd60e51b815260206004820152601260248201527173776170206e6f7420657870697261626c6560701b604482015260640161055d565b6000838152600260205260409020805460ff19166003179055610c2683611203565b6040518381527f4d142c3cab365e2375076de4df8350f27a01a3fcf0b9e147da889d8df83807589060200160405180910390a1505050565b600680546001600160a01b038381166001600160a01b0319831681179093556040519116919082907f8be0079c531659141344cd1fd0a4f28419497f9722a3daafe3b4186f6b6457e090600090a35050565b82600160008281526002602052604090205460ff166003811115610ce457634e487b7160e01b600052602160045260246000fd5b14610d015760405162461bcd60e51b815260040161055d906113db565b8382600281604051602001610d1891815260200190565b60408051601f1981840301815290829052610d3291611359565b602060405180830381855afa158015610d4f573d6000803e3d6000fd5b5050506040513d601f19601f82011682018060405250810190610d7291906112f2565b60008381526001602052604090206003015414610dc25760405162461bcd60e51b815260206004820152600e60248201526d1a5b9d985b1a59081cd958dc995d60921b604482015260640161055d565b600086815260016020526040902060060154869033906001600160a01b03168114610e265760405162461bcd60e51b81526020600482015260146024820152733ab730baba3437b934bd32b21039b832b73232b960611b604482015260640161055d565b6001600160a01b038716610e6f5760405162461bcd60e51b815260206004820152601060248201526f34b73b30b634b2103932b1b2b4bb32b960811b604482015260640161055d565b610e7888611203565b60008881526001602090815260408083206004018990556002808352818420805460ff19169091179055600382529182902042905581518a81529081018890527f2fd908dec911588d995135dbfe9257f33b2da24f12e8ddec0feabdfa3d372b80910160405180910390a15050505050505050565b33600081815260046020526040902054859015610f405760405162461bcd60e51b8152602060048201526011602482015270046756e64657220697320696e207377617607c1b604482015260640161055d565b6001600160a01b03811660009081526004602052604090205415610f9b5760405162461bcd60e51b815260206004820152601260248201527105370656e64657220697320696e20737761760741b604482015260640161055d565b428411610fdd5760405162461bcd60e51b815260206004820152601060248201526f496e76616c69642074696d656c6f636b60801b604482015260640161055d565b60008060008154610fed90611466565b91905081905590508060046000336001600160a01b03166001600160a01b03168152602001908152602001600020819055508060046000896001600160a01b03166001600160a01b031681526020019081526020016000208190555060006040518060e001604052808a6001600160a01b031681526020018781526020018681526020018881526020016000801b8152602001336001600160a01b03168152602001896001600160a01b03168152509050806001600084815260200190815260200160002060008201518160000160006101000a8154816001600160a01b0302191690836001600160a01b031602179055506020820151816001015560408201518160020155606082015181600301556080820151816004015560a08201518160050160006101000a8154816001600160a01b0302191690836001600160a01b0316021790555060c08201518160060160006101000a8154816001600160a01b0302191690836001600160a01b0316021790555090505060016002600084815260200190815260200160002060006101000a81548160ff021916908360038111156111a857634e487b7160e01b600052602160045260246000fd5b0217905550600054604080519182526001600160a01b038a16602083015281018890527f9c8b0d6c586d53ce73cdd1d09172b2145a8e0fdd2d16c3dd224ce9013d7004d29060600160405180910390a1505050505050505050565b6000818152600160209081526040808320600580820180546001600160a01b0390811687529185528386208790556006909201805482168652838620969096559054811684526004909252808320839055925416815290812055565b600060208284031215611270578081fd5b813561127b81611497565b9392505050565b600080600080600060a08688031215611299578081fd5b85356112a481611497565b945060208601356112b481611497565b94979496505050506040830135926060810135926080909101359150565b6000602082840312156112e3578081fd5b8151801515811461127b578182fd5b600060208284031215611303578081fd5b5051919050565b60006020828403121561131b578081fd5b5035919050565b600080600060608486031215611336578283fd5b83359250602084013561134881611497565b929592945050506040919091013590565b60008251815b81811015611379576020818601810151858301520161135f565b818111156113875782828501525b509190910192915050565b6001600160a01b03929092168252602082015260400190565b6020808252601690820152752330b4b61037b7103a37b5b2b7103a3930b739b332b960511b604082015260600190565b6020808252600d908201526c39bbb0b8103737ba1037b832b760991b604082015260600190565b6020808252818101527f4f776e61626c653a2063616c6c6572206973206e6f7420746865206f776e6572604082015260600190565b6000821982111561144a5761144a611481565b500190565b60008282101561146157611461611481565b500390565b600060001982141561147a5761147a611481565b5060010190565b634e487b7160e01b600052601160045260246000fd5b6001600160a01b0381168114610a9a57600080fdfea264697066735822122087b635e6ed8833038cca7e3138abb8de824a06a42bdfb1e65af34ec26a9a441764736f6c63430008040033",
  "linkReferences": {},
  "deployedLinkReferences": {}
}