{
	"Periphery/LendingPoolRouter.sol": {
		"LendingPoolRouter": {
			"abi": [
				{
					"inputs": [
						{
							"internalType": "address",
							"name": "_factory",
							"type": "address"
						},
						{
							"internalType": "address",
							"name": "xdcWrapper",
							"type": "address"
						}
					],
					"stateMutability": "nonpayable",
					"type": "constructor"
				},
				{
					"inputs": [],
					"name": "WEXDC",
					"outputs": [
						{
							"internalType": "address",
							"name": "",
							"type": "address"
						}
					],
					"stateMutability": "view",
					"type": "function"
				},
				{
					"inputs": [
						{
							"internalType": "uint256",
							"name": "amount",
							"type": "uint256"
						}
					],
					"name": "borrowETH",
					"outputs": [],
					"stateMutability": "nonpayable",
					"type": "function"
				},
				{
					"inputs": [
						{
							"internalType": "address",
							"name": "token",
							"type": "address"
						},
						{
							"internalType": "uint256",
							"name": "amount",
							"type": "uint256"
						}
					],
					"name": "borrowToken",
					"outputs": [],
					"stateMutability": "nonpayable",
					"type": "function"
				},
				{
					"inputs": [
						{
							"internalType": "address",
							"name": "token",
							"type": "address"
						}
					],
					"name": "createPool",
					"outputs": [],
					"stateMutability": "nonpayable",
					"type": "function"
				},
				{
					"inputs": [
						{
							"internalType": "uint256",
							"name": "amount",
							"type": "uint256"
						}
					],
					"name": "depositETH",
					"outputs": [],
					"stateMutability": "payable",
					"type": "function"
				},
				{
					"inputs": [
						{
							"internalType": "address",
							"name": "token",
							"type": "address"
						},
						{
							"internalType": "uint256",
							"name": "amount",
							"type": "uint256"
						}
					],
					"name": "depositToken",
					"outputs": [],
					"stateMutability": "nonpayable",
					"type": "function"
				},
				{
					"inputs": [],
					"name": "factory",
					"outputs": [
						{
							"internalType": "address",
							"name": "",
							"type": "address"
						}
					],
					"stateMutability": "view",
					"type": "function"
				},
				{
					"inputs": [
						{
							"internalType": "address",
							"name": "token",
							"type": "address"
						}
					],
					"name": "getBalance",
					"outputs": [
						{
							"internalType": "uint256",
							"name": "balance",
							"type": "uint256"
						}
					],
					"stateMutability": "view",
					"type": "function"
				},
				{
					"inputs": [
						{
							"internalType": "address",
							"name": "token",
							"type": "address"
						},
						{
							"internalType": "address",
							"name": "user",
							"type": "address"
						}
					],
					"name": "getBorrowAmount",
					"outputs": [
						{
							"internalType": "uint256",
							"name": "amount",
							"type": "uint256"
						}
					],
					"stateMutability": "view",
					"type": "function"
				},
				{
					"inputs": [
						{
							"internalType": "address",
							"name": "token",
							"type": "address"
						},
						{
							"internalType": "address",
							"name": "user",
							"type": "address"
						}
					],
					"name": "getLendAmount",
					"outputs": [
						{
							"internalType": "uint256",
							"name": "amount",
							"type": "uint256"
						}
					],
					"stateMutability": "view",
					"type": "function"
				},
				{
					"inputs": [
						{
							"internalType": "address",
							"name": "token",
							"type": "address"
						}
					],
					"name": "getPoolAddress",
					"outputs": [
						{
							"internalType": "address",
							"name": "pool",
							"type": "address"
						}
					],
					"stateMutability": "view",
					"type": "function"
				},
				{
					"inputs": [],
					"name": "repayETH",
					"outputs": [],
					"stateMutability": "payable",
					"type": "function"
				},
				{
					"inputs": [
						{
							"internalType": "address",
							"name": "token",
							"type": "address"
						}
					],
					"name": "repayToken",
					"outputs": [],
					"stateMutability": "nonpayable",
					"type": "function"
				},
				{
					"inputs": [],
					"name": "withdrawETH",
					"outputs": [],
					"stateMutability": "nonpayable",
					"type": "function"
				},
				{
					"inputs": [
						{
							"internalType": "address",
							"name": "token",
							"type": "address"
						}
					],
					"name": "withdrawToken",
					"outputs": [],
					"stateMutability": "nonpayable",
					"type": "function"
				}
			],
			"devdoc": {
				"kind": "dev",
				"methods": {},
				"version": 1
			},
			"evm": {
				"assembly": "    /* \"Periphery/LendingPoolRouter.sol\":402:5190  contract LendingPoolRouter {... */\n  mstore(0x40, 0xc0)\n    /* \"Periphery/LendingPoolRouter.sol\":510:623  constructor(address _factory, address xdcWrapper) {... */\n  callvalue\n  dup1\n  iszero\n  tag_1\n  jumpi\n  0x00\n  dup1\n  revert\ntag_1:\n  pop\n  mload(0x40)\n  sub(codesize, bytecodeSize)\n  dup1\n  bytecodeSize\n  dup4\n  codecopy\n  dup2\n  dup2\n  add\n  0x40\n  mstore\n  dup2\n  add\n  swap1\n  tag_2\n  swap2\n  swap1\n  tag_3\n  jump\t// in\ntag_2:\n    /* \"Periphery/LendingPoolRouter.sol\":580:588  _factory */\n  dup2\n    /* \"Periphery/LendingPoolRouter.sol\":570:588  factory = _factory */\n  0xffffffffffffffffffffffffffffffffffffffff\n  and\n  0x80\n  dup2\n  0xffffffffffffffffffffffffffffffffffffffff\n  and\n  dup2\n  mstore\n  pop\n  pop\n    /* \"Periphery/LendingPoolRouter.sol\":606:616  xdcWrapper */\n  dup1\n    /* \"Periphery/LendingPoolRouter.sol\":598:616  WEXDC = xdcWrapper */\n  0xffffffffffffffffffffffffffffffffffffffff\n  and\n  0xa0\n  dup2\n  0xffffffffffffffffffffffffffffffffffffffff\n  and\n  dup2\n  mstore\n  pop\n  pop\n    /* \"Periphery/LendingPoolRouter.sol\":510:623  constructor(address _factory, address xdcWrapper) {... */\n  pop\n  pop\n    /* \"Periphery/LendingPoolRouter.sol\":402:5190  contract LendingPoolRouter {... */\n  jump(tag_6)\n    /* \"#utility.yul\":88:205   */\ntag_8:\n    /* \"#utility.yul\":197:198   */\n  0x00\n    /* \"#utility.yul\":194:195   */\n  dup1\n    /* \"#utility.yul\":187:199   */\n  revert\n    /* \"#utility.yul\":334:460   */\ntag_10:\n    /* \"#utility.yul\":371:378   */\n  0x00\n    /* \"#utility.yul\":411:453   */\n  0xffffffffffffffffffffffffffffffffffffffff\n    /* \"#utility.yul\":404:409   */\n  dup3\n    /* \"#utility.yul\":400:454   */\n  and\n    /* \"#utility.yul\":389:454   */\n  swap1\n  pop\n    /* \"#utility.yul\":334:460   */\n  swap2\n  swap1\n  pop\n  jump\t// out\n    /* \"#utility.yul\":466:562   */\ntag_11:\n    /* \"#utility.yul\":503:510   */\n  0x00\n    /* \"#utility.yul\":532:556   */\n  tag_20\n    /* \"#utility.yul\":550:555   */\n  dup3\n    /* \"#utility.yul\":532:556   */\n  tag_10\n  jump\t// in\ntag_20:\n    /* \"#utility.yul\":521:556   */\n  swap1\n  pop\n    /* \"#utility.yul\":466:562   */\n  swap2\n  swap1\n  pop\n  jump\t// out\n    /* \"#utility.yul\":568:690   */\ntag_12:\n    /* \"#utility.yul\":641:665   */\n  tag_22\n    /* \"#utility.yul\":659:664   */\n  dup2\n    /* \"#utility.yul\":641:665   */\n  tag_11\n  jump\t// in\ntag_22:\n    /* \"#utility.yul\":634:639   */\n  dup2\n    /* \"#utility.yul\":631:666   */\n  eq\n    /* \"#utility.yul\":621:684   */\n  tag_23\n  jumpi\n    /* \"#utility.yul\":680:681   */\n  0x00\n    /* \"#utility.yul\":677:678   */\n  dup1\n    /* \"#utility.yul\":670:682   */\n  revert\n    /* \"#utility.yul\":621:684   */\ntag_23:\n    /* \"#utility.yul\":568:690   */\n  pop\n  jump\t// out\n    /* \"#utility.yul\":696:839   */\ntag_13:\n    /* \"#utility.yul\":753:758   */\n  0x00\n    /* \"#utility.yul\":784:790   */\n  dup2\n    /* \"#utility.yul\":778:791   */\n  mload\n    /* \"#utility.yul\":769:791   */\n  swap1\n  pop\n    /* \"#utility.yul\":800:833   */\n  tag_25\n    /* \"#utility.yul\":827:832   */\n  dup2\n    /* \"#utility.yul\":800:833   */\n  tag_12\n  jump\t// in\ntag_25:\n    /* \"#utility.yul\":696:839   */\n  swap3\n  swap2\n  pop\n  pop\n  jump\t// out\n    /* \"#utility.yul\":845:1352   */\ntag_3:\n    /* \"#utility.yul\":924:930   */\n  0x00\n    /* \"#utility.yul\":932:938   */\n  dup1\n    /* \"#utility.yul\":981:983   */\n  0x40\n    /* \"#utility.yul\":969:978   */\n  dup4\n    /* \"#utility.yul\":960:967   */\n  dup6\n    /* \"#utility.yul\":956:979   */\n  sub\n    /* \"#utility.yul\":952:984   */\n  slt\n    /* \"#utility.yul\":949:1068   */\n  iszero\n  tag_27\n  jumpi\n    /* \"#utility.yul\":987:1066   */\n  tag_28\n  tag_8\n  jump\t// in\ntag_28:\n    /* \"#utility.yul\":949:1068   */\ntag_27:\n    /* \"#utility.yul\":1107:1108   */\n  0x00\n    /* \"#utility.yul\":1132:1196   */\n  tag_29\n    /* \"#utility.yul\":1188:1195   */\n  dup6\n    /* \"#utility.yul\":1179:1185   */\n  dup3\n    /* \"#utility.yul\":1168:1177   */\n  dup7\n    /* \"#utility.yul\":1164:1186   */\n  add\n    /* \"#utility.yul\":1132:1196   */\n  tag_13\n  jump\t// in\ntag_29:\n    /* \"#utility.yul\":1122:1196   */\n  swap3\n  pop\n    /* \"#utility.yul\":1078:1206   */\n  pop\n    /* \"#utility.yul\":1245:1247   */\n  0x20\n    /* \"#utility.yul\":1271:1335   */\n  tag_30\n    /* \"#utility.yul\":1327:1334   */\n  dup6\n    /* \"#utility.yul\":1318:1324   */\n  dup3\n    /* \"#utility.yul\":1307:1316   */\n  dup7\n    /* \"#utility.yul\":1303:1325   */\n  add\n    /* \"#utility.yul\":1271:1335   */\n  tag_13\n  jump\t// in\ntag_30:\n    /* \"#utility.yul\":1261:1335   */\n  swap2\n  pop\n    /* \"#utility.yul\":1216:1345   */\n  pop\n    /* \"#utility.yul\":845:1352   */\n  swap3\n  pop\n  swap3\n  swap1\n  pop\n  jump\t// out\n    /* \"Periphery/LendingPoolRouter.sol\":402:5190  contract LendingPoolRouter {... */\ntag_6:\n  mload(0x80)\n  mload(0xa0)\n  codecopy(0x00, dataOffset(sub_0), dataSize(sub_0))\n  0x00\n  assignImmutable(\"0x4f07d7aea7a8a16d4b795a9a9aabd4a50f93236b39d48ad640505cdc3dbb3bbc\")\n  0x00\n  assignImmutable(\"0x0d283e5f5b5d2526f34a5a92a1188385f6cf1a43607f82a114e6c2e937222ad5\")\n  return(0x00, dataSize(sub_0))\nstop\n\nsub_0: assembly {\n        /* \"Periphery/LendingPoolRouter.sol\":402:5190  contract LendingPoolRouter {... */\n      mstore(0x40, 0x80)\n      jumpi(tag_1, lt(calldatasize, 0x04))\n      shr(0xe0, calldataload(0x00))\n      dup1\n      0x9049f9d2\n      gt\n      tag_17\n      jumpi\n      dup1\n      0xe086e5ec\n      gt\n      tag_18\n      jumpi\n      dup1\n      0xe086e5ec\n      eq\n      tag_13\n      jumpi\n      dup1\n      0xeecbcda0\n      eq\n      tag_14\n      jumpi\n      dup1\n      0xf8b2cb4f\n      eq\n      tag_15\n      jumpi\n      dup1\n      0xfd08c30c\n      eq\n      tag_16\n      jumpi\n      jump(tag_1)\n    tag_18:\n      dup1\n      0x9049f9d2\n      eq\n      tag_9\n      jumpi\n      dup1\n      0x987242e9\n      eq\n      tag_10\n      jumpi\n      dup1\n      0xbbfb286b\n      eq\n      tag_11\n      jumpi\n      dup1\n      0xc45a0155\n      eq\n      tag_12\n      jumpi\n      jump(tag_1)\n    tag_17:\n      dup1\n      0x5358fbda\n      gt\n      tag_19\n      jumpi\n      dup1\n      0x5358fbda\n      eq\n      tag_5\n      jumpi\n      dup1\n      0x5a91b39c\n      eq\n      tag_6\n      jumpi\n      dup1\n      0x7b2af625\n      eq\n      tag_7\n      jumpi\n      dup1\n      0x89476069\n      eq\n      tag_8\n      jumpi\n      jump(tag_1)\n    tag_19:\n      dup1\n      0x1228cbee\n      eq\n      tag_2\n      jumpi\n      dup1\n      0x338b5dea\n      eq\n      tag_3\n      jumpi\n      dup1\n      0x38bad5e5\n      eq\n      tag_4\n      jumpi\n    tag_1:\n      0x00\n      dup1\n      revert\n        /* \"Periphery/LendingPoolRouter.sol\":629:770  function getPoolAddress(address token) public view returns (address pool) {... */\n    tag_2:\n      callvalue\n      dup1\n      iszero\n      tag_20\n      jumpi\n      0x00\n      dup1\n      revert\n    tag_20:\n      pop\n      tag_21\n      0x04\n      dup1\n      calldatasize\n      sub\n      dup2\n      add\n      swap1\n      tag_22\n      swap2\n      swap1\n      tag_23\n      jump\t// in\n    tag_22:\n      tag_24\n      jump\t// in\n    tag_21:\n      mload(0x40)\n      tag_25\n      swap2\n      swap1\n      tag_26\n      jump\t// in\n    tag_25:\n      mload(0x40)\n      dup1\n      swap2\n      sub\n      swap1\n      return\n        /* \"Periphery/LendingPoolRouter.sol\":1109:1555  function depositToken(address token, uint256 amount) public {... */\n    tag_3:\n      callvalue\n      dup1\n      iszero\n      tag_27\n      jumpi\n      0x00\n      dup1\n      revert\n    tag_27:\n      pop\n      tag_28\n      0x04\n      dup1\n      calldatasize\n      sub\n      dup2\n      add\n      swap1\n      tag_29\n      swap2\n      swap1\n      tag_30\n      jump\t// in\n    tag_29:\n      tag_31\n      jump\t// in\n    tag_28:\n      stop\n        /* \"Periphery/LendingPoolRouter.sol\":4891:5188  function getBorrowAmount(address token, address user)... */\n    tag_4:\n      callvalue\n      dup1\n      iszero\n      tag_32\n      jumpi\n      0x00\n      dup1\n      revert\n    tag_32:\n      pop\n      tag_33\n      0x04\n      dup1\n      calldatasize\n      sub\n      dup2\n      add\n      swap1\n      tag_34\n      swap2\n      swap1\n      tag_35\n      jump\t// in\n    tag_34:\n      tag_36\n      jump\t// in\n    tag_33:\n      mload(0x40)\n      tag_37\n      swap2\n      swap1\n      tag_38\n      jump\t// in\n    tag_37:\n      mload(0x40)\n      dup1\n      swap2\n      sub\n      swap1\n      return\n        /* \"Periphery/LendingPoolRouter.sol\":2560:3219  function depositETH(uint256 amount) public payable {... */\n    tag_5:\n      tag_39\n      0x04\n      dup1\n      calldatasize\n      sub\n      dup2\n      add\n      swap1\n      tag_40\n      swap2\n      swap1\n      tag_41\n      jump\t// in\n    tag_40:\n      tag_42\n      jump\t// in\n    tag_39:\n      stop\n        /* \"Periphery/LendingPoolRouter.sol\":1896:2113  function borrowToken(address token, uint256 amount) public {... */\n    tag_6:\n      callvalue\n      dup1\n      iszero\n      tag_43\n      jumpi\n      0x00\n      dup1\n      revert\n    tag_43:\n      pop\n      tag_44\n      0x04\n      dup1\n      calldatasize\n      sub\n      dup2\n      add\n      swap1\n      tag_45\n      swap2\n      swap1\n      tag_30\n      jump\t// in\n    tag_45:\n      tag_46\n      jump\t// in\n    tag_44:\n      stop\n        /* \"Periphery/LendingPoolRouter.sol\":3714:4084  function borrowETH(uint256 amount) public {... */\n    tag_7:\n      callvalue\n      dup1\n      iszero\n      tag_47\n      jumpi\n      0x00\n      dup1\n      revert\n    tag_47:\n      pop\n      tag_48\n      0x04\n      dup1\n      calldatasize\n      sub\n      dup2\n      add\n      swap1\n      tag_49\n      swap2\n      swap1\n      tag_41\n      jump\t// in\n    tag_49:\n      tag_50\n      jump\t// in\n    tag_48:\n      stop\n        /* \"Periphery/LendingPoolRouter.sol\":1561:1890  function withdrawToken(address token) public {... */\n    tag_8:\n      callvalue\n      dup1\n      iszero\n      tag_51\n      jumpi\n      0x00\n      dup1\n      revert\n    tag_51:\n      pop\n      tag_52\n      0x04\n      dup1\n      calldatasize\n      sub\n      dup2\n      add\n      swap1\n      tag_53\n      swap2\n      swap1\n      tag_23\n      jump\t// in\n    tag_53:\n      tag_54\n      jump\t// in\n    tag_52:\n      stop\n        /* \"Periphery/LendingPoolRouter.sol\":917:1022  function createPool(address token) public {... */\n    tag_9:\n      callvalue\n      dup1\n      iszero\n      tag_55\n      jumpi\n      0x00\n      dup1\n      revert\n    tag_55:\n      pop\n      tag_56\n      0x04\n      dup1\n      calldatasize\n      sub\n      dup2\n      add\n      swap1\n      tag_57\n      swap2\n      swap1\n      tag_23\n      jump\t// in\n    tag_57:\n      tag_58\n      jump\t// in\n    tag_56:\n      stop\n        /* \"Periphery/LendingPoolRouter.sol\":4592:4885  function getLendAmount(address token, address user)... */\n    tag_10:\n      callvalue\n      dup1\n      iszero\n      tag_59\n      jumpi\n      0x00\n      dup1\n      revert\n    tag_59:\n      pop\n      tag_60\n      0x04\n      dup1\n      calldatasize\n      sub\n      dup2\n      add\n      swap1\n      tag_61\n      swap2\n      swap1\n      tag_35\n      jump\t// in\n    tag_61:\n      tag_62\n      jump\t// in\n    tag_60:\n      mload(0x40)\n      tag_63\n      swap2\n      swap1\n      tag_38\n      jump\t// in\n    tag_63:\n      mload(0x40)\n      dup1\n      swap2\n      sub\n      swap1\n      return\n        /* \"Periphery/LendingPoolRouter.sol\":2119:2554  function repayToken(address token) public {... */\n    tag_11:\n      callvalue\n      dup1\n      iszero\n      tag_64\n      jumpi\n      0x00\n      dup1\n      revert\n    tag_64:\n      pop\n      tag_65\n      0x04\n      dup1\n      calldatasize\n      sub\n      dup2\n      add\n      swap1\n      tag_66\n      swap2\n      swap1\n      tag_23\n      jump\t// in\n    tag_66:\n      tag_67\n      jump\t// in\n    tag_65:\n      stop\n        /* \"Periphery/LendingPoolRouter.sol\":435:467  address public immutable factory */\n    tag_12:\n      callvalue\n      dup1\n      iszero\n      tag_68\n      jumpi\n      0x00\n      dup1\n      revert\n    tag_68:\n      pop\n      tag_69\n      tag_70\n      jump\t// in\n    tag_69:\n      mload(0x40)\n      tag_71\n      swap2\n      swap1\n      tag_26\n      jump\t// in\n    tag_71:\n      mload(0x40)\n      dup1\n      swap2\n      sub\n      swap1\n      return\n        /* \"Periphery/LendingPoolRouter.sol\":3225:3708  function withdrawETH() public {... */\n    tag_13:\n      callvalue\n      dup1\n      iszero\n      tag_72\n      jumpi\n      0x00\n      dup1\n      revert\n    tag_72:\n      pop\n      tag_73\n      tag_74\n      jump\t// in\n    tag_73:\n      stop\n        /* \"Periphery/LendingPoolRouter.sol\":4090:4586  function repayETH() public payable {... */\n    tag_14:\n      tag_75\n      tag_76\n      jump\t// in\n    tag_75:\n      stop\n        /* \"Periphery/LendingPoolRouter.sol\":776:911  function getBalance(address token) public view returns (uint256 balance) {... */\n    tag_15:\n      callvalue\n      dup1\n      iszero\n      tag_77\n      jumpi\n      0x00\n      dup1\n      revert\n    tag_77:\n      pop\n      tag_78\n      0x04\n      dup1\n      calldatasize\n      sub\n      dup2\n      add\n      swap1\n      tag_79\n      swap2\n      swap1\n      tag_23\n      jump\t// in\n    tag_79:\n      tag_80\n      jump\t// in\n    tag_78:\n      mload(0x40)\n      tag_81\n      swap2\n      swap1\n      tag_38\n      jump\t// in\n    tag_81:\n      mload(0x40)\n      dup1\n      swap2\n      sub\n      swap1\n      return\n        /* \"Periphery/LendingPoolRouter.sol\":473:503  address public immutable WEXDC */\n    tag_16:\n      callvalue\n      dup1\n      iszero\n      tag_82\n      jumpi\n      0x00\n      dup1\n      revert\n    tag_82:\n      pop\n      tag_83\n      tag_84\n      jump\t// in\n    tag_83:\n      mload(0x40)\n      tag_85\n      swap2\n      swap1\n      tag_26\n      jump\t// in\n    tag_85:\n      mload(0x40)\n      dup1\n      swap2\n      sub\n      swap1\n      return\n        /* \"Periphery/LendingPoolRouter.sol\":629:770  function getPoolAddress(address token) public view returns (address pool) {... */\n    tag_24:\n        /* \"Periphery/LendingPoolRouter.sol\":689:701  address pool */\n      0x00\n        /* \"Periphery/LendingPoolRouter.sol\":740:747  factory */\n      immutable(\"0x0d283e5f5b5d2526f34a5a92a1188385f6cf1a43607f82a114e6c2e937222ad5\")\n        /* \"Periphery/LendingPoolRouter.sol\":720:756  ILendingPoolFactory(factory).getPool */\n      0xffffffffffffffffffffffffffffffffffffffff\n      and\n      0xbbe4f6db\n        /* \"Periphery/LendingPoolRouter.sol\":757:762  token */\n      dup4\n        /* \"Periphery/LendingPoolRouter.sol\":720:763  ILendingPoolFactory(factory).getPool(token) */\n      mload(0x40)\n      dup3\n      0xffffffff\n      and\n      0xe0\n      shl\n      dup2\n      mstore\n      0x04\n      add\n      tag_87\n      swap2\n      swap1\n      tag_26\n      jump\t// in\n    tag_87:\n      0x20\n      mload(0x40)\n      dup1\n      dup4\n      sub\n      dup2\n      dup7\n      gas\n      staticcall\n      iszero\n      dup1\n      iszero\n      tag_89\n      jumpi\n      returndatasize\n      0x00\n      dup1\n      returndatacopy\n      revert(0x00, returndatasize)\n    tag_89:\n      pop\n      pop\n      pop\n      pop\n      mload(0x40)\n      returndatasize\n      not(0x1f)\n      0x1f\n      dup3\n      add\n      and\n      dup3\n      add\n      dup1\n      0x40\n      mstore\n      pop\n      dup2\n      add\n      swap1\n      tag_90\n      swap2\n      swap1\n      tag_91\n      jump\t// in\n    tag_90:\n        /* \"Periphery/LendingPoolRouter.sol\":713:763  pool = ILendingPoolFactory(factory).getPool(token) */\n      swap1\n      pop\n        /* \"Periphery/LendingPoolRouter.sol\":629:770  function getPoolAddress(address token) public view returns (address pool) {... */\n      swap2\n      swap1\n      pop\n      jump\t// out\n        /* \"Periphery/LendingPoolRouter.sol\":1109:1555  function depositToken(address token, uint256 amount) public {... */\n    tag_31:\n        /* \"Periphery/LendingPoolRouter.sol\":1179:1191  address pool */\n      0x00\n        /* \"Periphery/LendingPoolRouter.sol\":1194:1215  getPoolAddress(token) */\n      tag_93\n        /* \"Periphery/LendingPoolRouter.sol\":1209:1214  token */\n      dup4\n        /* \"Periphery/LendingPoolRouter.sol\":1194:1208  getPoolAddress */\n      tag_24\n        /* \"Periphery/LendingPoolRouter.sol\":1194:1215  getPoolAddress(token) */\n      jump\t// in\n    tag_93:\n        /* \"Periphery/LendingPoolRouter.sol\":1179:1215  address pool = getPoolAddress(token) */\n      swap1\n      pop\n        /* \"Periphery/LendingPoolRouter.sol\":1246:1247  0 */\n      0x00\n        /* \"Periphery/LendingPoolRouter.sol\":1230:1248  pool != address(0) */\n      0xffffffffffffffffffffffffffffffffffffffff\n      and\n        /* \"Periphery/LendingPoolRouter.sol\":1230:1234  pool */\n      dup2\n        /* \"Periphery/LendingPoolRouter.sol\":1230:1248  pool != address(0) */\n      0xffffffffffffffffffffffffffffffffffffffff\n      and\n      eq\n        /* \"Periphery/LendingPoolRouter.sol\":1226:1549  if (pool != address(0)) {... */\n      tag_94\n      jumpi\n        /* \"Periphery/LendingPoolRouter.sol\":1379:1383  pool */\n      dup1\n        /* \"Periphery/LendingPoolRouter.sol\":1366:1392  ILendingPool(pool).deposit */\n      0xffffffffffffffffffffffffffffffffffffffff\n      and\n      0xb6b55f25\n        /* \"Periphery/LendingPoolRouter.sol\":1393:1399  amount */\n      dup4\n        /* \"Periphery/LendingPoolRouter.sol\":1366:1400  ILendingPool(pool).deposit(amount) */\n      mload(0x40)\n      dup3\n      0xffffffff\n      and\n      0xe0\n      shl\n      dup2\n      mstore\n      0x04\n      add\n      tag_95\n      swap2\n      swap1\n      tag_38\n      jump\t// in\n    tag_95:\n      0x00\n      mload(0x40)\n      dup1\n      dup4\n      sub\n      dup2\n      0x00\n      dup8\n      dup1\n      extcodesize\n      iszero\n      dup1\n      iszero\n      tag_96\n      jumpi\n      0x00\n      dup1\n      revert\n    tag_96:\n      pop\n      gas\n      call\n      iszero\n      dup1\n      iszero\n      tag_98\n      jumpi\n      returndatasize\n      0x00\n      dup1\n      returndatacopy\n      revert(0x00, returndatasize)\n    tag_98:\n      pop\n      pop\n      pop\n      pop\n        /* \"Periphery/LendingPoolRouter.sol\":1226:1549  if (pool != address(0)) {... */\n      jump(tag_99)\n    tag_94:\n        /* \"Periphery/LendingPoolRouter.sol\":1431:1448  createPool(token) */\n      tag_100\n        /* \"Periphery/LendingPoolRouter.sol\":1442:1447  token */\n      dup4\n        /* \"Periphery/LendingPoolRouter.sol\":1431:1441  createPool */\n      tag_58\n        /* \"Periphery/LendingPoolRouter.sol\":1431:1448  createPool(token) */\n      jump\t// in\n    tag_100:\n        /* \"Periphery/LendingPoolRouter.sol\":1469:1490  getPoolAddress(token) */\n      tag_101\n        /* \"Periphery/LendingPoolRouter.sol\":1484:1489  token */\n      dup4\n        /* \"Periphery/LendingPoolRouter.sol\":1469:1483  getPoolAddress */\n      tag_24\n        /* \"Periphery/LendingPoolRouter.sol\":1469:1490  getPoolAddress(token) */\n      jump\t// in\n    tag_101:\n        /* \"Periphery/LendingPoolRouter.sol\":1462:1490  pool = getPoolAddress(token) */\n      swap1\n      pop\n        /* \"Periphery/LendingPoolRouter.sol\":1517:1521  pool */\n      dup1\n        /* \"Periphery/LendingPoolRouter.sol\":1504:1530  ILendingPool(pool).deposit */\n      0xffffffffffffffffffffffffffffffffffffffff\n      and\n      0xb6b55f25\n        /* \"Periphery/LendingPoolRouter.sol\":1531:1537  amount */\n      dup4\n        /* \"Periphery/LendingPoolRouter.sol\":1504:1538  ILendingPool(pool).deposit(amount) */\n      mload(0x40)\n      dup3\n      0xffffffff\n      and\n      0xe0\n      shl\n      dup2\n      mstore\n      0x04\n      add\n      tag_102\n      swap2\n      swap1\n      tag_38\n      jump\t// in\n    tag_102:\n      0x00\n      mload(0x40)\n      dup1\n      dup4\n      sub\n      dup2\n      0x00\n      dup8\n      dup1\n      extcodesize\n      iszero\n      dup1\n      iszero\n      tag_103\n      jumpi\n      0x00\n      dup1\n      revert\n    tag_103:\n      pop\n      gas\n      call\n      iszero\n      dup1\n      iszero\n      tag_105\n      jumpi\n      returndatasize\n      0x00\n      dup1\n      returndatacopy\n      revert(0x00, returndatasize)\n    tag_105:\n      pop\n      pop\n      pop\n      pop\n        /* \"Periphery/LendingPoolRouter.sol\":1226:1549  if (pool != address(0)) {... */\n    tag_99:\n        /* \"Periphery/LendingPoolRouter.sol\":1169:1555  {... */\n      pop\n        /* \"Periphery/LendingPoolRouter.sol\":1109:1555  function depositToken(address token, uint256 amount) public {... */\n      pop\n      pop\n      jump\t// out\n        /* \"Periphery/LendingPoolRouter.sol\":4891:5188  function getBorrowAmount(address token, address user)... */\n    tag_36:\n        /* \"Periphery/LendingPoolRouter.sol\":4990:5004  uint256 amount */\n      0x00\n        /* \"Periphery/LendingPoolRouter.sol\":5020:5032  address pool */\n      dup1\n        /* \"Periphery/LendingPoolRouter.sol\":5035:5056  getPoolAddress(token) */\n      tag_107\n        /* \"Periphery/LendingPoolRouter.sol\":5050:5055  token */\n      dup5\n        /* \"Periphery/LendingPoolRouter.sol\":5035:5049  getPoolAddress */\n      tag_24\n        /* \"Periphery/LendingPoolRouter.sol\":5035:5056  getPoolAddress(token) */\n      jump\t// in\n    tag_107:\n        /* \"Periphery/LendingPoolRouter.sol\":5020:5056  address pool = getPoolAddress(token) */\n      swap1\n      pop\n        /* \"Periphery/LendingPoolRouter.sol\":5090:5091  0 */\n      0x00\n        /* \"Periphery/LendingPoolRouter.sol\":5074:5092  pool != address(0) */\n      0xffffffffffffffffffffffffffffffffffffffff\n      and\n        /* \"Periphery/LendingPoolRouter.sol\":5074:5078  pool */\n      dup2\n        /* \"Periphery/LendingPoolRouter.sol\":5074:5092  pool != address(0) */\n      0xffffffffffffffffffffffffffffffffffffffff\n      and\n      sub\n        /* \"Periphery/LendingPoolRouter.sol\":5066:5117  require(pool != address(0), \"Pool Does not exists\") */\n      tag_108\n      jumpi\n      mload(0x40)\n      0x08c379a000000000000000000000000000000000000000000000000000000000\n      dup2\n      mstore\n      0x04\n      add\n      tag_109\n      swap1\n      tag_110\n      jump\t// in\n    tag_109:\n      mload(0x40)\n      dup1\n      swap2\n      sub\n      swap1\n      revert\n    tag_108:\n        /* \"Periphery/LendingPoolRouter.sol\":5150:5154  pool */\n      dup1\n        /* \"Periphery/LendingPoolRouter.sol\":5137:5168  ILendingPool(pool).borrowAmount */\n      0xffffffffffffffffffffffffffffffffffffffff\n      and\n      0x8d113a7f\n        /* \"Periphery/LendingPoolRouter.sol\":5169:5173  user */\n      dup5\n        /* \"Periphery/LendingPoolRouter.sol\":5137:5174  ILendingPool(pool).borrowAmount(user) */\n      mload(0x40)\n      dup3\n      0xffffffff\n      and\n      0xe0\n      shl\n      dup2\n      mstore\n      0x04\n      add\n      tag_111\n      swap2\n      swap1\n      tag_26\n      jump\t// in\n    tag_111:\n      0x40\n      dup1\n      mload\n      dup1\n      dup4\n      sub\n      dup2\n      dup7\n      gas\n      staticcall\n      iszero\n      dup1\n      iszero\n      tag_113\n      jumpi\n      returndatasize\n      0x00\n      dup1\n      returndatacopy\n      revert(0x00, returndatasize)\n    tag_113:\n      pop\n      pop\n      pop\n      pop\n      mload(0x40)\n      returndatasize\n      not(0x1f)\n      0x1f\n      dup3\n      add\n      and\n      dup3\n      add\n      dup1\n      0x40\n      mstore\n      pop\n      dup2\n      add\n      swap1\n      tag_114\n      swap2\n      swap1\n      tag_115\n      jump\t// in\n    tag_114:\n        /* \"Periphery/LendingPoolRouter.sol\":5137:5181  ILendingPool(pool).borrowAmount(user).amount */\n      0x00\n      add\n      mload\n        /* \"Periphery/LendingPoolRouter.sol\":5128:5181  amount = ILendingPool(pool).borrowAmount(user).amount */\n      swap2\n      pop\n        /* \"Periphery/LendingPoolRouter.sol\":5010:5188  {... */\n      pop\n        /* \"Periphery/LendingPoolRouter.sol\":4891:5188  function getBorrowAmount(address token, address user)... */\n      swap3\n      swap2\n      pop\n      pop\n      jump\t// out\n        /* \"Periphery/LendingPoolRouter.sol\":2560:3219  function depositETH(uint256 amount) public payable {... */\n    tag_42:\n        /* \"Periphery/LendingPoolRouter.sol\":2639:2648  msg.value */\n      callvalue\n        /* \"Periphery/LendingPoolRouter.sol\":2629:2635  amount */\n      dup2\n        /* \"Periphery/LendingPoolRouter.sol\":2629:2648  amount == msg.value */\n      eq\n        /* \"Periphery/LendingPoolRouter.sol\":2621:2669  require(amount == msg.value, \"Incorrect Amount\") */\n      tag_117\n      jumpi\n      mload(0x40)\n      0x08c379a000000000000000000000000000000000000000000000000000000000\n      dup2\n      mstore\n      0x04\n      add\n      tag_118\n      swap1\n      tag_119\n      jump\t// in\n    tag_118:\n      mload(0x40)\n      dup1\n      swap2\n      sub\n      swap1\n      revert\n    tag_117:\n        /* \"Periphery/LendingPoolRouter.sol\":2680:2692  address pool */\n      0x00\n        /* \"Periphery/LendingPoolRouter.sol\":2695:2716  getPoolAddress(WEXDC) */\n      tag_120\n        /* \"Periphery/LendingPoolRouter.sol\":2710:2715  WEXDC */\n      immutable(\"0x4f07d7aea7a8a16d4b795a9a9aabd4a50f93236b39d48ad640505cdc3dbb3bbc\")\n        /* \"Periphery/LendingPoolRouter.sol\":2695:2709  getPoolAddress */\n      tag_24\n        /* \"Periphery/LendingPoolRouter.sol\":2695:2716  getPoolAddress(WEXDC) */\n      jump\t// in\n    tag_120:\n        /* \"Periphery/LendingPoolRouter.sol\":2680:2716  address pool = getPoolAddress(WEXDC) */\n      swap1\n      pop\n        /* \"Periphery/LendingPoolRouter.sol\":2778:2783  WEXDC */\n      immutable(\"0x4f07d7aea7a8a16d4b795a9a9aabd4a50f93236b39d48ad640505cdc3dbb3bbc\")\n        /* \"Periphery/LendingPoolRouter.sol\":2773:2792  IXDC(WEXDC).deposit */\n      0xffffffffffffffffffffffffffffffffffffffff\n      and\n      0xd0e30db0\n        /* \"Periphery/LendingPoolRouter.sol\":2800:2809  msg.value */\n      callvalue\n        /* \"Periphery/LendingPoolRouter.sol\":2773:2812  IXDC(WEXDC).deposit{value: msg.value}() */\n      mload(0x40)\n      dup3\n      0xffffffff\n      and\n      0xe0\n      shl\n      dup2\n      mstore\n      0x04\n      add\n      0x00\n      mload(0x40)\n      dup1\n      dup4\n      sub\n      dup2\n      dup6\n      dup9\n      dup1\n      extcodesize\n      iszero\n      dup1\n      iszero\n      tag_121\n      jumpi\n      0x00\n      dup1\n      revert\n    tag_121:\n      pop\n      gas\n      call\n      iszero\n      dup1\n      iszero\n      tag_123\n      jumpi\n      returndatasize\n      0x00\n      dup1\n      returndatacopy\n      revert(0x00, returndatasize)\n    tag_123:\n      pop\n      pop\n      pop\n      pop\n      pop\n        /* \"Periphery/LendingPoolRouter.sol\":2822:2879  TransferHelper.safeTransfer(WEXDC, msg.sender, msg.value) */\n      tag_124\n        /* \"Periphery/LendingPoolRouter.sol\":2850:2855  WEXDC */\n      immutable(\"0x4f07d7aea7a8a16d4b795a9a9aabd4a50f93236b39d48ad640505cdc3dbb3bbc\")\n        /* \"Periphery/LendingPoolRouter.sol\":2857:2867  msg.sender */\n      caller\n        /* \"Periphery/LendingPoolRouter.sol\":2869:2878  msg.value */\n      callvalue\n        /* \"Periphery/LendingPoolRouter.sol\":2822:2849  TransferHelper.safeTransfer */\n      tag_125\n        /* \"Periphery/LendingPoolRouter.sol\":2822:2879  TransferHelper.safeTransfer(WEXDC, msg.sender, msg.value) */\n      jump\t// in\n    tag_124:\n        /* \"Periphery/LendingPoolRouter.sol\":2910:2911  0 */\n      0x00\n        /* \"Periphery/LendingPoolRouter.sol\":2894:2912  pool != address(0) */\n      0xffffffffffffffffffffffffffffffffffffffff\n      and\n        /* \"Periphery/LendingPoolRouter.sol\":2894:2898  pool */\n      dup2\n        /* \"Periphery/LendingPoolRouter.sol\":2894:2912  pool != address(0) */\n      0xffffffffffffffffffffffffffffffffffffffff\n      and\n      eq\n        /* \"Periphery/LendingPoolRouter.sol\":2890:3213  if (pool != address(0)) {... */\n      tag_126\n      jumpi\n        /* \"Periphery/LendingPoolRouter.sol\":3043:3047  pool */\n      dup1\n        /* \"Periphery/LendingPoolRouter.sol\":3030:3056  ILendingPool(pool).deposit */\n      0xffffffffffffffffffffffffffffffffffffffff\n      and\n      0xb6b55f25\n        /* \"Periphery/LendingPoolRouter.sol\":3057:3063  amount */\n      dup4\n        /* \"Periphery/LendingPoolRouter.sol\":3030:3064  ILendingPool(pool).deposit(amount) */\n      mload(0x40)\n      dup3\n      0xffffffff\n      and\n      0xe0\n      shl\n      dup2\n      mstore\n      0x04\n      add\n      tag_127\n      swap2\n      swap1\n      tag_38\n      jump\t// in\n    tag_127:\n      0x00\n      mload(0x40)\n      dup1\n      dup4\n      sub\n      dup2\n      0x00\n      dup8\n      dup1\n      extcodesize\n      iszero\n      dup1\n      iszero\n      tag_128\n      jumpi\n      0x00\n      dup1\n      revert\n    tag_128:\n      pop\n      gas\n      call\n      iszero\n      dup1\n      iszero\n      tag_130\n      jumpi\n      returndatasize\n      0x00\n      dup1\n      returndatacopy\n      revert(0x00, returndatasize)\n    tag_130:\n      pop\n      pop\n      pop\n      pop\n        /* \"Periphery/LendingPoolRouter.sol\":2890:3213  if (pool != address(0)) {... */\n      jump(tag_131)\n    tag_126:\n        /* \"Periphery/LendingPoolRouter.sol\":3095:3112  createPool(WEXDC) */\n      tag_132\n        /* \"Periphery/LendingPoolRouter.sol\":3106:3111  WEXDC */\n      immutable(\"0x4f07d7aea7a8a16d4b795a9a9aabd4a50f93236b39d48ad640505cdc3dbb3bbc\")\n        /* \"Periphery/LendingPoolRouter.sol\":3095:3105  createPool */\n      tag_58\n        /* \"Periphery/LendingPoolRouter.sol\":3095:3112  createPool(WEXDC) */\n      jump\t// in\n    tag_132:\n        /* \"Periphery/LendingPoolRouter.sol\":3133:3154  getPoolAddress(WEXDC) */\n      tag_133\n        /* \"Periphery/LendingPoolRouter.sol\":3148:3153  WEXDC */\n      immutable(\"0x4f07d7aea7a8a16d4b795a9a9aabd4a50f93236b39d48ad640505cdc3dbb3bbc\")\n        /* \"Periphery/LendingPoolRouter.sol\":3133:3147  getPoolAddress */\n      tag_24\n        /* \"Periphery/LendingPoolRouter.sol\":3133:3154  getPoolAddress(WEXDC) */\n      jump\t// in\n    tag_133:\n        /* \"Periphery/LendingPoolRouter.sol\":3126:3154  pool = getPoolAddress(WEXDC) */\n      swap1\n      pop\n        /* \"Periphery/LendingPoolRouter.sol\":3181:3185  pool */\n      dup1\n        /* \"Periphery/LendingPoolRouter.sol\":3168:3194  ILendingPool(pool).deposit */\n      0xffffffffffffffffffffffffffffffffffffffff\n      and\n      0xb6b55f25\n        /* \"Periphery/LendingPoolRouter.sol\":3195:3201  amount */\n      dup4\n        /* \"Periphery/LendingPoolRouter.sol\":3168:3202  ILendingPool(pool).deposit(amount) */\n      mload(0x40)\n      dup3\n      0xffffffff\n      and\n      0xe0\n      shl\n      dup2\n      mstore\n      0x04\n      add\n      tag_134\n      swap2\n      swap1\n      tag_38\n      jump\t// in\n    tag_134:\n      0x00\n      mload(0x40)\n      dup1\n      dup4\n      sub\n      dup2\n      0x00\n      dup8\n      dup1\n      extcodesize\n      iszero\n      dup1\n      iszero\n      tag_135\n      jumpi\n      0x00\n      dup1\n      revert\n    tag_135:\n      pop\n      gas\n      call\n      iszero\n      dup1\n      iszero\n      tag_137\n      jumpi\n      returndatasize\n      0x00\n      dup1\n      returndatacopy\n      revert(0x00, returndatasize)\n    tag_137:\n      pop\n      pop\n      pop\n      pop\n        /* \"Periphery/LendingPoolRouter.sol\":2890:3213  if (pool != address(0)) {... */\n    tag_131:\n        /* \"Periphery/LendingPoolRouter.sol\":2611:3219  {... */\n      pop\n        /* \"Periphery/LendingPoolRouter.sol\":2560:3219  function depositETH(uint256 amount) public payable {... */\n      pop\n      jump\t// out\n        /* \"Periphery/LendingPoolRouter.sol\":1896:2113  function borrowToken(address token, uint256 amount) public {... */\n    tag_46:\n        /* \"Periphery/LendingPoolRouter.sol\":1965:1977  address pool */\n      0x00\n        /* \"Periphery/LendingPoolRouter.sol\":1980:2001  getPoolAddress(token) */\n      tag_139\n        /* \"Periphery/LendingPoolRouter.sol\":1995:2000  token */\n      dup4\n        /* \"Periphery/LendingPoolRouter.sol\":1980:1994  getPoolAddress */\n      tag_24\n        /* \"Periphery/LendingPoolRouter.sol\":1980:2001  getPoolAddress(token) */\n      jump\t// in\n    tag_139:\n        /* \"Periphery/LendingPoolRouter.sol\":1965:2001  address pool = getPoolAddress(token) */\n      swap1\n      pop\n        /* \"Periphery/LendingPoolRouter.sol\":2035:2036  0 */\n      0x00\n        /* \"Periphery/LendingPoolRouter.sol\":2019:2037  pool != address(0) */\n      0xffffffffffffffffffffffffffffffffffffffff\n      and\n        /* \"Periphery/LendingPoolRouter.sol\":2019:2023  pool */\n      dup2\n        /* \"Periphery/LendingPoolRouter.sol\":2019:2037  pool != address(0) */\n      0xffffffffffffffffffffffffffffffffffffffff\n      and\n      sub\n        /* \"Periphery/LendingPoolRouter.sol\":2011:2062  require(pool != address(0), \"Pool Does not exists\") */\n      tag_140\n      jumpi\n      mload(0x40)\n      0x08c379a000000000000000000000000000000000000000000000000000000000\n      dup2\n      mstore\n      0x04\n      add\n      tag_141\n      swap1\n      tag_110\n      jump\t// in\n    tag_141:\n      mload(0x40)\n      dup1\n      swap2\n      sub\n      swap1\n      revert\n    tag_140:\n        /* \"Periphery/LendingPoolRouter.sol\":2086:2090  pool */\n      dup1\n        /* \"Periphery/LendingPoolRouter.sol\":2073:2098  ILendingPool(pool).borrow */\n      0xffffffffffffffffffffffffffffffffffffffff\n      and\n      0xc5ebeaec\n        /* \"Periphery/LendingPoolRouter.sol\":2099:2105  amount */\n      dup4\n        /* \"Periphery/LendingPoolRouter.sol\":2073:2106  ILendingPool(pool).borrow(amount) */\n      mload(0x40)\n      dup3\n      0xffffffff\n      and\n      0xe0\n      shl\n      dup2\n      mstore\n      0x04\n      add\n      tag_142\n      swap2\n      swap1\n      tag_38\n      jump\t// in\n    tag_142:\n      0x00\n      mload(0x40)\n      dup1\n      dup4\n      sub\n      dup2\n      0x00\n      dup8\n      dup1\n      extcodesize\n      iszero\n      dup1\n      iszero\n      tag_143\n      jumpi\n      0x00\n      dup1\n      revert\n    tag_143:\n      pop\n      gas\n      call\n      iszero\n      dup1\n      iszero\n      tag_145\n      jumpi\n      returndatasize\n      0x00\n      dup1\n      returndatacopy\n      revert(0x00, returndatasize)\n    tag_145:\n      pop\n      pop\n      pop\n      pop\n        /* \"Periphery/LendingPoolRouter.sol\":1955:2113  {... */\n      pop\n        /* \"Periphery/LendingPoolRouter.sol\":1896:2113  function borrowToken(address token, uint256 amount) public {... */\n      pop\n      pop\n      jump\t// out\n        /* \"Periphery/LendingPoolRouter.sol\":3714:4084  function borrowETH(uint256 amount) public {... */\n    tag_50:\n        /* \"Periphery/LendingPoolRouter.sol\":3766:3778  address pool */\n      0x00\n        /* \"Periphery/LendingPoolRouter.sol\":3781:3802  getPoolAddress(WEXDC) */\n      tag_147\n        /* \"Periphery/LendingPoolRouter.sol\":3796:3801  WEXDC */\n      immutable(\"0x4f07d7aea7a8a16d4b795a9a9aabd4a50f93236b39d48ad640505cdc3dbb3bbc\")\n        /* \"Periphery/LendingPoolRouter.sol\":3781:3795  getPoolAddress */\n      tag_24\n        /* \"Periphery/LendingPoolRouter.sol\":3781:3802  getPoolAddress(WEXDC) */\n      jump\t// in\n    tag_147:\n        /* \"Periphery/LendingPoolRouter.sol\":3766:3802  address pool = getPoolAddress(WEXDC) */\n      swap1\n      pop\n        /* \"Periphery/LendingPoolRouter.sol\":3836:3837  0 */\n      0x00\n        /* \"Periphery/LendingPoolRouter.sol\":3820:3838  pool != address(0) */\n      0xffffffffffffffffffffffffffffffffffffffff\n      and\n        /* \"Periphery/LendingPoolRouter.sol\":3820:3824  pool */\n      dup2\n        /* \"Periphery/LendingPoolRouter.sol\":3820:3838  pool != address(0) */\n      0xffffffffffffffffffffffffffffffffffffffff\n      and\n      sub\n        /* \"Periphery/LendingPoolRouter.sol\":3812:3863  require(pool != address(0), \"Pool Does not exists\") */\n      tag_148\n      jumpi\n      mload(0x40)\n      0x08c379a000000000000000000000000000000000000000000000000000000000\n      dup2\n      mstore\n      0x04\n      add\n      tag_149\n      swap1\n      tag_110\n      jump\t// in\n    tag_149:\n      mload(0x40)\n      dup1\n      swap2\n      sub\n      swap1\n      revert\n    tag_148:\n        /* \"Periphery/LendingPoolRouter.sol\":3887:3891  pool */\n      dup1\n        /* \"Periphery/LendingPoolRouter.sol\":3874:3899  ILendingPool(pool).borrow */\n      0xffffffffffffffffffffffffffffffffffffffff\n      and\n      0xc5ebeaec\n        /* \"Periphery/LendingPoolRouter.sol\":3900:3906  amount */\n      dup4\n        /* \"Periphery/LendingPoolRouter.sol\":3874:3907  ILendingPool(pool).borrow(amount) */\n      mload(0x40)\n      dup3\n      0xffffffff\n      and\n      0xe0\n      shl\n      dup2\n      mstore\n      0x04\n      add\n      tag_150\n      swap2\n      swap1\n      tag_38\n      jump\t// in\n    tag_150:\n      0x00\n      mload(0x40)\n      dup1\n      dup4\n      sub\n      dup2\n      0x00\n      dup8\n      dup1\n      extcodesize\n      iszero\n      dup1\n      iszero\n      tag_151\n      jumpi\n      0x00\n      dup1\n      revert\n    tag_151:\n      pop\n      gas\n      call\n      iszero\n      dup1\n      iszero\n      tag_153\n      jumpi\n      returndatasize\n      0x00\n      dup1\n      returndatacopy\n      revert(0x00, returndatasize)\n    tag_153:\n      pop\n      pop\n      pop\n      pop\n        /* \"Periphery/LendingPoolRouter.sol\":3923:3928  WEXDC */\n      immutable(\"0x4f07d7aea7a8a16d4b795a9a9aabd4a50f93236b39d48ad640505cdc3dbb3bbc\")\n        /* \"Periphery/LendingPoolRouter.sol\":3918:3942  IXDC(WEXDC).transferFrom */\n      0xffffffffffffffffffffffffffffffffffffffff\n      and\n      0x23b872dd\n        /* \"Periphery/LendingPoolRouter.sol\":3943:3953  msg.sender */\n      caller\n        /* \"Periphery/LendingPoolRouter.sol\":3963:3967  this */\n      address\n        /* \"Periphery/LendingPoolRouter.sol\":3970:3976  amount */\n      dup6\n        /* \"Periphery/LendingPoolRouter.sol\":3918:3977  IXDC(WEXDC).transferFrom(msg.sender, address(this), amount) */\n      mload(0x40)\n      dup5\n      0xffffffff\n      and\n      0xe0\n      shl\n      dup2\n      mstore\n      0x04\n      add\n      tag_154\n      swap4\n      swap3\n      swap2\n      swap1\n      tag_155\n      jump\t// in\n    tag_154:\n      0x20\n      mload(0x40)\n      dup1\n      dup4\n      sub\n      dup2\n      0x00\n      dup8\n      gas\n      call\n      iszero\n      dup1\n      iszero\n      tag_157\n      jumpi\n      returndatasize\n      0x00\n      dup1\n      returndatacopy\n      revert(0x00, returndatasize)\n    tag_157:\n      pop\n      pop\n      pop\n      pop\n      mload(0x40)\n      returndatasize\n      not(0x1f)\n      0x1f\n      dup3\n      add\n      and\n      dup3\n      add\n      dup1\n      0x40\n      mstore\n      pop\n      dup2\n      add\n      swap1\n      tag_158\n      swap2\n      swap1\n      tag_159\n      jump\t// in\n    tag_158:\n      pop\n        /* \"Periphery/LendingPoolRouter.sol\":3993:3998  WEXDC */\n      immutable(\"0x4f07d7aea7a8a16d4b795a9a9aabd4a50f93236b39d48ad640505cdc3dbb3bbc\")\n        /* \"Periphery/LendingPoolRouter.sol\":3988:4008  IXDC(WEXDC).withdraw */\n      0xffffffffffffffffffffffffffffffffffffffff\n      and\n      0x2e1a7d4d\n        /* \"Periphery/LendingPoolRouter.sol\":4009:4015  amount */\n      dup4\n        /* \"Periphery/LendingPoolRouter.sol\":3988:4016  IXDC(WEXDC).withdraw(amount) */\n      mload(0x40)\n      dup3\n      0xffffffff\n      and\n      0xe0\n      shl\n      dup2\n      mstore\n      0x04\n      add\n      tag_160\n      swap2\n      swap1\n      tag_38\n      jump\t// in\n    tag_160:\n      0x00\n      mload(0x40)\n      dup1\n      dup4\n      sub\n      dup2\n      0x00\n      dup8\n      dup1\n      extcodesize\n      iszero\n      dup1\n      iszero\n      tag_161\n      jumpi\n      0x00\n      dup1\n      revert\n    tag_161:\n      pop\n      gas\n      call\n      iszero\n      dup1\n      iszero\n      tag_163\n      jumpi\n      returndatasize\n      0x00\n      dup1\n      returndatacopy\n      revert(0x00, returndatasize)\n    tag_163:\n      pop\n      pop\n      pop\n      pop\n        /* \"Periphery/LendingPoolRouter.sol\":4027:4077  TransferHelper.safeTransferETH(msg.sender, amount) */\n      tag_164\n        /* \"Periphery/LendingPoolRouter.sol\":4058:4068  msg.sender */\n      caller\n        /* \"Periphery/LendingPoolRouter.sol\":4070:4076  amount */\n      dup4\n        /* \"Periphery/LendingPoolRouter.sol\":4027:4057  TransferHelper.safeTransferETH */\n      tag_165\n        /* \"Periphery/LendingPoolRouter.sol\":4027:4077  TransferHelper.safeTransferETH(msg.sender, amount) */\n      jump\t// in\n    tag_164:\n        /* \"Periphery/LendingPoolRouter.sol\":3756:4084  {... */\n      pop\n        /* \"Periphery/LendingPoolRouter.sol\":3714:4084  function borrowETH(uint256 amount) public {... */\n      pop\n      jump\t// out\n        /* \"Periphery/LendingPoolRouter.sol\":1561:1890  function withdrawToken(address token) public {... */\n    tag_54:\n        /* \"Periphery/LendingPoolRouter.sol\":1616:1628  address pool */\n      0x00\n        /* \"Periphery/LendingPoolRouter.sol\":1631:1652  getPoolAddress(token) */\n      tag_167\n        /* \"Periphery/LendingPoolRouter.sol\":1646:1651  token */\n      dup3\n        /* \"Periphery/LendingPoolRouter.sol\":1631:1645  getPoolAddress */\n      tag_24\n        /* \"Periphery/LendingPoolRouter.sol\":1631:1652  getPoolAddress(token) */\n      jump\t// in\n    tag_167:\n        /* \"Periphery/LendingPoolRouter.sol\":1616:1652  address pool = getPoolAddress(token) */\n      swap1\n      pop\n        /* \"Periphery/LendingPoolRouter.sol\":1686:1687  0 */\n      0x00\n        /* \"Periphery/LendingPoolRouter.sol\":1670:1688  pool != address(0) */\n      0xffffffffffffffffffffffffffffffffffffffff\n      and\n        /* \"Periphery/LendingPoolRouter.sol\":1670:1674  pool */\n      dup2\n        /* \"Periphery/LendingPoolRouter.sol\":1670:1688  pool != address(0) */\n      0xffffffffffffffffffffffffffffffffffffffff\n      and\n      sub\n        /* \"Periphery/LendingPoolRouter.sol\":1662:1713  require(pool != address(0), \"Pool Does not exists\") */\n      tag_168\n      jumpi\n      mload(0x40)\n      0x08c379a000000000000000000000000000000000000000000000000000000000\n      dup2\n      mstore\n      0x04\n      add\n      tag_169\n      swap1\n      tag_110\n      jump\t// in\n    tag_169:\n      mload(0x40)\n      dup1\n      swap2\n      sub\n      swap1\n      revert\n    tag_168:\n        /* \"Periphery/LendingPoolRouter.sol\":1796:1797  0 */\n      0x00\n        /* \"Periphery/LendingPoolRouter.sol\":1758:1762  pool */\n      dup2\n        /* \"Periphery/LendingPoolRouter.sol\":1745:1774  ILendingPool(pool).lendAmount */\n      0xffffffffffffffffffffffffffffffffffffffff\n      and\n      0x1c78da26\n        /* \"Periphery/LendingPoolRouter.sol\":1775:1785  msg.sender */\n      caller\n        /* \"Periphery/LendingPoolRouter.sol\":1745:1786  ILendingPool(pool).lendAmount(msg.sender) */\n      mload(0x40)\n      dup3\n      0xffffffff\n      and\n      0xe0\n      shl\n      dup2\n      mstore\n      0x04\n      add\n      tag_170\n      swap2\n      swap1\n      tag_26\n      jump\t// in\n    tag_170:\n      0x40\n      dup1\n      mload\n      dup1\n      dup4\n      sub\n      dup2\n      dup7\n      gas\n      staticcall\n      iszero\n      dup1\n      iszero\n      tag_172\n      jumpi\n      returndatasize\n      0x00\n      dup1\n      returndatacopy\n      revert(0x00, returndatasize)\n    tag_172:\n      pop\n      pop\n      pop\n      pop\n      mload(0x40)\n      returndatasize\n      not(0x1f)\n      0x1f\n      dup3\n      add\n      and\n      dup3\n      add\n      dup1\n      0x40\n      mstore\n      pop\n      dup2\n      add\n      swap1\n      tag_173\n      swap2\n      swap1\n      tag_115\n      jump\t// in\n    tag_173:\n        /* \"Periphery/LendingPoolRouter.sol\":1745:1793  ILendingPool(pool).lendAmount(msg.sender).amount */\n      0x00\n      add\n      mload\n        /* \"Periphery/LendingPoolRouter.sol\":1745:1797  ILendingPool(pool).lendAmount(msg.sender).amount > 0 */\n      gt\n        /* \"Periphery/LendingPoolRouter.sol\":1724:1844  require(... */\n      tag_174\n      jumpi\n      mload(0x40)\n      0x08c379a000000000000000000000000000000000000000000000000000000000\n      dup2\n      mstore\n      0x04\n      add\n      tag_175\n      swap1\n      tag_176\n      jump\t// in\n    tag_175:\n      mload(0x40)\n      dup1\n      swap2\n      sub\n      swap1\n      revert\n    tag_174:\n        /* \"Periphery/LendingPoolRouter.sol\":1867:1871  pool */\n      dup1\n        /* \"Periphery/LendingPoolRouter.sol\":1854:1881  ILendingPool(pool).withdraw */\n      0xffffffffffffffffffffffffffffffffffffffff\n      and\n      0x3ccfd60b\n        /* \"Periphery/LendingPoolRouter.sol\":1854:1883  ILendingPool(pool).withdraw() */\n      mload(0x40)\n      dup2\n      0xffffffff\n      and\n      0xe0\n      shl\n      dup2\n      mstore\n      0x04\n      add\n      0x00\n      mload(0x40)\n      dup1\n      dup4\n      sub\n      dup2\n      0x00\n      dup8\n      dup1\n      extcodesize\n      iszero\n      dup1\n      iszero\n      tag_177\n      jumpi\n      0x00\n      dup1\n      revert\n    tag_177:\n      pop\n      gas\n      call\n      iszero\n      dup1\n      iszero\n      tag_179\n      jumpi\n      returndatasize\n      0x00\n      dup1\n      returndatacopy\n      revert(0x00, returndatasize)\n    tag_179:\n      pop\n      pop\n      pop\n      pop\n        /* \"Periphery/LendingPoolRouter.sol\":1606:1890  {... */\n      pop\n        /* \"Periphery/LendingPoolRouter.sol\":1561:1890  function withdrawToken(address token) public {... */\n      pop\n      jump\t// out\n        /* \"Periphery/LendingPoolRouter.sol\":917:1022  function createPool(address token) public {... */\n    tag_58:\n        /* \"Periphery/LendingPoolRouter.sol\":989:996  factory */\n      immutable(\"0x0d283e5f5b5d2526f34a5a92a1188385f6cf1a43607f82a114e6c2e937222ad5\")\n        /* \"Periphery/LendingPoolRouter.sol\":969:1008  ILendingPoolFactory(factory).createPool */\n      0xffffffffffffffffffffffffffffffffffffffff\n      and\n      0x9049f9d2\n        /* \"Periphery/LendingPoolRouter.sol\":1009:1014  token */\n      dup3\n        /* \"Periphery/LendingPoolRouter.sol\":969:1015  ILendingPoolFactory(factory).createPool(token) */\n      mload(0x40)\n      dup3\n      0xffffffff\n      and\n      0xe0\n      shl\n      dup2\n      mstore\n      0x04\n      add\n      tag_181\n      swap2\n      swap1\n      tag_26\n      jump\t// in\n    tag_181:\n      0x20\n      mload(0x40)\n      dup1\n      dup4\n      sub\n      dup2\n      0x00\n      dup8\n      gas\n      call\n      iszero\n      dup1\n      iszero\n      tag_183\n      jumpi\n      returndatasize\n      0x00\n      dup1\n      returndatacopy\n      revert(0x00, returndatasize)\n    tag_183:\n      pop\n      pop\n      pop\n      pop\n      mload(0x40)\n      returndatasize\n      not(0x1f)\n      0x1f\n      dup3\n      add\n      and\n      dup3\n      add\n      dup1\n      0x40\n      mstore\n      pop\n      dup2\n      add\n      swap1\n      tag_184\n      swap2\n      swap1\n      tag_91\n      jump\t// in\n    tag_184:\n      pop\n        /* \"Periphery/LendingPoolRouter.sol\":917:1022  function createPool(address token) public {... */\n      pop\n      jump\t// out\n        /* \"Periphery/LendingPoolRouter.sol\":4592:4885  function getLendAmount(address token, address user)... */\n    tag_62:\n        /* \"Periphery/LendingPoolRouter.sol\":4689:4703  uint256 amount */\n      0x00\n        /* \"Periphery/LendingPoolRouter.sol\":4719:4731  address pool */\n      dup1\n        /* \"Periphery/LendingPoolRouter.sol\":4734:4755  getPoolAddress(token) */\n      tag_186\n        /* \"Periphery/LendingPoolRouter.sol\":4749:4754  token */\n      dup5\n        /* \"Periphery/LendingPoolRouter.sol\":4734:4748  getPoolAddress */\n      tag_24\n        /* \"Periphery/LendingPoolRouter.sol\":4734:4755  getPoolAddress(token) */\n      jump\t// in\n    tag_186:\n        /* \"Periphery/LendingPoolRouter.sol\":4719:4755  address pool = getPoolAddress(token) */\n      swap1\n      pop\n        /* \"Periphery/LendingPoolRouter.sol\":4789:4790  0 */\n      0x00\n        /* \"Periphery/LendingPoolRouter.sol\":4773:4791  pool != address(0) */\n      0xffffffffffffffffffffffffffffffffffffffff\n      and\n        /* \"Periphery/LendingPoolRouter.sol\":4773:4777  pool */\n      dup2\n        /* \"Periphery/LendingPoolRouter.sol\":4773:4791  pool != address(0) */\n      0xffffffffffffffffffffffffffffffffffffffff\n      and\n      sub\n        /* \"Periphery/LendingPoolRouter.sol\":4765:4816  require(pool != address(0), \"Pool Does not exists\") */\n      tag_187\n      jumpi\n      mload(0x40)\n      0x08c379a000000000000000000000000000000000000000000000000000000000\n      dup2\n      mstore\n      0x04\n      add\n      tag_188\n      swap1\n      tag_110\n      jump\t// in\n    tag_188:\n      mload(0x40)\n      dup1\n      swap2\n      sub\n      swap1\n      revert\n    tag_187:\n        /* \"Periphery/LendingPoolRouter.sol\":4849:4853  pool */\n      dup1\n        /* \"Periphery/LendingPoolRouter.sol\":4836:4865  ILendingPool(pool).lendAmount */\n      0xffffffffffffffffffffffffffffffffffffffff\n      and\n      0x1c78da26\n        /* \"Periphery/LendingPoolRouter.sol\":4866:4870  user */\n      dup5\n        /* \"Periphery/LendingPoolRouter.sol\":4836:4871  ILendingPool(pool).lendAmount(user) */\n      mload(0x40)\n      dup3\n      0xffffffff\n      and\n      0xe0\n      shl\n      dup2\n      mstore\n      0x04\n      add\n      tag_189\n      swap2\n      swap1\n      tag_26\n      jump\t// in\n    tag_189:\n      0x40\n      dup1\n      mload\n      dup1\n      dup4\n      sub\n      dup2\n      dup7\n      gas\n      staticcall\n      iszero\n      dup1\n      iszero\n      tag_191\n      jumpi\n      returndatasize\n      0x00\n      dup1\n      returndatacopy\n      revert(0x00, returndatasize)\n    tag_191:\n      pop\n      pop\n      pop\n      pop\n      mload(0x40)\n      returndatasize\n      not(0x1f)\n      0x1f\n      dup3\n      add\n      and\n      dup3\n      add\n      dup1\n      0x40\n      mstore\n      pop\n      dup2\n      add\n      swap1\n      tag_192\n      swap2\n      swap1\n      tag_115\n      jump\t// in\n    tag_192:\n        /* \"Periphery/LendingPoolRouter.sol\":4836:4878  ILendingPool(pool).lendAmount(user).amount */\n      0x00\n      add\n      mload\n        /* \"Periphery/LendingPoolRouter.sol\":4827:4878  amount = ILendingPool(pool).lendAmount(user).amount */\n      swap2\n      pop\n        /* \"Periphery/LendingPoolRouter.sol\":4709:4885  {... */\n      pop\n        /* \"Periphery/LendingPoolRouter.sol\":4592:4885  function getLendAmount(address token, address user)... */\n      swap3\n      swap2\n      pop\n      pop\n      jump\t// out\n        /* \"Periphery/LendingPoolRouter.sol\":2119:2554  function repayToken(address token) public {... */\n    tag_67:\n        /* \"Periphery/LendingPoolRouter.sol\":2171:2183  address pool */\n      0x00\n        /* \"Periphery/LendingPoolRouter.sol\":2186:2207  getPoolAddress(token) */\n      tag_194\n        /* \"Periphery/LendingPoolRouter.sol\":2201:2206  token */\n      dup3\n        /* \"Periphery/LendingPoolRouter.sol\":2186:2200  getPoolAddress */\n      tag_24\n        /* \"Periphery/LendingPoolRouter.sol\":2186:2207  getPoolAddress(token) */\n      jump\t// in\n    tag_194:\n        /* \"Periphery/LendingPoolRouter.sol\":2171:2207  address pool = getPoolAddress(token) */\n      swap1\n      pop\n        /* \"Periphery/LendingPoolRouter.sol\":2241:2242  0 */\n      0x00\n        /* \"Periphery/LendingPoolRouter.sol\":2225:2243  pool != address(0) */\n      0xffffffffffffffffffffffffffffffffffffffff\n      and\n        /* \"Periphery/LendingPoolRouter.sol\":2225:2229  pool */\n      dup2\n        /* \"Periphery/LendingPoolRouter.sol\":2225:2243  pool != address(0) */\n      0xffffffffffffffffffffffffffffffffffffffff\n      and\n      sub\n        /* \"Periphery/LendingPoolRouter.sol\":2217:2268  require(pool != address(0), \"Pool Does not exists\") */\n      tag_195\n      jumpi\n      mload(0x40)\n      0x08c379a000000000000000000000000000000000000000000000000000000000\n      dup2\n      mstore\n      0x04\n      add\n      tag_196\n      swap1\n      tag_110\n      jump\t// in\n    tag_196:\n      mload(0x40)\n      dup1\n      swap2\n      sub\n      swap1\n      revert\n    tag_195:\n        /* \"Periphery/LendingPoolRouter.sol\":2327:2341  uint256 amount */\n      0x00\n        /* \"Periphery/LendingPoolRouter.sol\":2357:2361  pool */\n      dup2\n        /* \"Periphery/LendingPoolRouter.sol\":2344:2375  ILendingPool(pool).borrowAmount */\n      0xffffffffffffffffffffffffffffffffffffffff\n      and\n      0x8d113a7f\n        /* \"Periphery/LendingPoolRouter.sol\":2376:2386  msg.sender */\n      caller\n        /* \"Periphery/LendingPoolRouter.sol\":2344:2387  ILendingPool(pool).borrowAmount(msg.sender) */\n      mload(0x40)\n      dup3\n      0xffffffff\n      and\n      0xe0\n      shl\n      dup2\n      mstore\n      0x04\n      add\n      tag_197\n      swap2\n      swap1\n      tag_26\n      jump\t// in\n    tag_197:\n      0x40\n      dup1\n      mload\n      dup1\n      dup4\n      sub\n      dup2\n      dup7\n      gas\n      staticcall\n      iszero\n      dup1\n      iszero\n      tag_199\n      jumpi\n      returndatasize\n      0x00\n      dup1\n      returndatacopy\n      revert(0x00, returndatasize)\n    tag_199:\n      pop\n      pop\n      pop\n      pop\n      mload(0x40)\n      returndatasize\n      not(0x1f)\n      0x1f\n      dup3\n      add\n      and\n      dup3\n      add\n      dup1\n      0x40\n      mstore\n      pop\n      dup2\n      add\n      swap1\n      tag_200\n      swap2\n      swap1\n      tag_115\n      jump\t// in\n    tag_200:\n        /* \"Periphery/LendingPoolRouter.sol\":2344:2394  ILendingPool(pool).borrowAmount(msg.sender).amount */\n      0x00\n      add\n      mload\n        /* \"Periphery/LendingPoolRouter.sol\":2327:2394  uint256 amount = ILendingPool(pool).borrowAmount(msg.sender).amount */\n      swap1\n      pop\n        /* \"Periphery/LendingPoolRouter.sol\":2422:2423  0 */\n      0x00\n        /* \"Periphery/LendingPoolRouter.sol\":2413:2419  amount */\n      dup2\n        /* \"Periphery/LendingPoolRouter.sol\":2413:2423  amount > 0 */\n      gt\n        /* \"Periphery/LendingPoolRouter.sol\":2405:2446  require(amount > 0, \"No Amount to repay\") */\n      tag_201\n      jumpi\n      mload(0x40)\n      0x08c379a000000000000000000000000000000000000000000000000000000000\n      dup2\n      mstore\n      0x04\n      add\n      tag_202\n      swap1\n      tag_203\n      jump\t// in\n    tag_202:\n      mload(0x40)\n      dup1\n      swap2\n      sub\n      swap1\n      revert\n    tag_201:\n        /* \"Periphery/LendingPoolRouter.sol\":2534:2538  pool */\n      dup2\n        /* \"Periphery/LendingPoolRouter.sol\":2521:2545  ILendingPool(pool).repay */\n      0xffffffffffffffffffffffffffffffffffffffff\n      and\n      0x402d8883\n        /* \"Periphery/LendingPoolRouter.sol\":2521:2547  ILendingPool(pool).repay() */\n      mload(0x40)\n      dup2\n      0xffffffff\n      and\n      0xe0\n      shl\n      dup2\n      mstore\n      0x04\n      add\n      0x00\n      mload(0x40)\n      dup1\n      dup4\n      sub\n      dup2\n      0x00\n      dup8\n      dup1\n      extcodesize\n      iszero\n      dup1\n      iszero\n      tag_204\n      jumpi\n      0x00\n      dup1\n      revert\n    tag_204:\n      pop\n      gas\n      call\n      iszero\n      dup1\n      iszero\n      tag_206\n      jumpi\n      returndatasize\n      0x00\n      dup1\n      returndatacopy\n      revert(0x00, returndatasize)\n    tag_206:\n      pop\n      pop\n      pop\n      pop\n        /* \"Periphery/LendingPoolRouter.sol\":2161:2554  {... */\n      pop\n      pop\n        /* \"Periphery/LendingPoolRouter.sol\":2119:2554  function repayToken(address token) public {... */\n      pop\n      jump\t// out\n        /* \"Periphery/LendingPoolRouter.sol\":435:467  address public immutable factory */\n    tag_70:\n      immutable(\"0x0d283e5f5b5d2526f34a5a92a1188385f6cf1a43607f82a114e6c2e937222ad5\")\n      dup2\n      jump\t// out\n        /* \"Periphery/LendingPoolRouter.sol\":3225:3708  function withdrawETH() public {... */\n    tag_74:\n        /* \"Periphery/LendingPoolRouter.sol\":3265:3277  address pool */\n      0x00\n        /* \"Periphery/LendingPoolRouter.sol\":3280:3301  getPoolAddress(WEXDC) */\n      tag_208\n        /* \"Periphery/LendingPoolRouter.sol\":3295:3300  WEXDC */\n      immutable(\"0x4f07d7aea7a8a16d4b795a9a9aabd4a50f93236b39d48ad640505cdc3dbb3bbc\")\n        /* \"Periphery/LendingPoolRouter.sol\":3280:3294  getPoolAddress */\n      tag_24\n        /* \"Periphery/LendingPoolRouter.sol\":3280:3301  getPoolAddress(WEXDC) */\n      jump\t// in\n    tag_208:\n        /* \"Periphery/LendingPoolRouter.sol\":3265:3301  address pool = getPoolAddress(WEXDC) */\n      swap1\n      pop\n        /* \"Periphery/LendingPoolRouter.sol\":3335:3336  0 */\n      0x00\n        /* \"Periphery/LendingPoolRouter.sol\":3319:3337  pool != address(0) */\n      0xffffffffffffffffffffffffffffffffffffffff\n      and\n        /* \"Periphery/LendingPoolRouter.sol\":3319:3323  pool */\n      dup2\n        /* \"Periphery/LendingPoolRouter.sol\":3319:3337  pool != address(0) */\n      0xffffffffffffffffffffffffffffffffffffffff\n      and\n      sub\n        /* \"Periphery/LendingPoolRouter.sol\":3311:3362  require(pool != address(0), \"Pool Does not exists\") */\n      tag_209\n      jumpi\n      mload(0x40)\n      0x08c379a000000000000000000000000000000000000000000000000000000000\n      dup2\n      mstore\n      0x04\n      add\n      tag_210\n      swap1\n      tag_110\n      jump\t// in\n    tag_210:\n      mload(0x40)\n      dup1\n      swap2\n      sub\n      swap1\n      revert\n    tag_209:\n        /* \"Periphery/LendingPoolRouter.sol\":3372:3386  uint256 amount */\n      0x00\n        /* \"Periphery/LendingPoolRouter.sol\":3402:3406  pool */\n      dup2\n        /* \"Periphery/LendingPoolRouter.sol\":3389:3418  ILendingPool(pool).lendAmount */\n      0xffffffffffffffffffffffffffffffffffffffff\n      and\n      0x1c78da26\n        /* \"Periphery/LendingPoolRouter.sol\":3419:3429  msg.sender */\n      caller\n        /* \"Periphery/LendingPoolRouter.sol\":3389:3430  ILendingPool(pool).lendAmount(msg.sender) */\n      mload(0x40)\n      dup3\n      0xffffffff\n      and\n      0xe0\n      shl\n      dup2\n      mstore\n      0x04\n      add\n      tag_211\n      swap2\n      swap1\n      tag_26\n      jump\t// in\n    tag_211:\n      0x40\n      dup1\n      mload\n      dup1\n      dup4\n      sub\n      dup2\n      dup7\n      gas\n      staticcall\n      iszero\n      dup1\n      iszero\n      tag_213\n      jumpi\n      returndatasize\n      0x00\n      dup1\n      returndatacopy\n      revert(0x00, returndatasize)\n    tag_213:\n      pop\n      pop\n      pop\n      pop\n      mload(0x40)\n      returndatasize\n      not(0x1f)\n      0x1f\n      dup3\n      add\n      and\n      dup3\n      add\n      dup1\n      0x40\n      mstore\n      pop\n      dup2\n      add\n      swap1\n      tag_214\n      swap2\n      swap1\n      tag_115\n      jump\t// in\n    tag_214:\n        /* \"Periphery/LendingPoolRouter.sol\":3389:3437  ILendingPool(pool).lendAmount(msg.sender).amount */\n      0x00\n      add\n      mload\n        /* \"Periphery/LendingPoolRouter.sol\":3372:3437  uint256 amount = ILendingPool(pool).lendAmount(msg.sender).amount */\n      swap1\n      pop\n        /* \"Periphery/LendingPoolRouter.sol\":3465:3466  0 */\n      0x00\n        /* \"Periphery/LendingPoolRouter.sol\":3456:3462  amount */\n      dup2\n        /* \"Periphery/LendingPoolRouter.sol\":3456:3466  amount > 0 */\n      gt\n        /* \"Periphery/LendingPoolRouter.sol\":3448:3492  require(amount > 0, \"No amount to withdraw\") */\n      tag_215\n      jumpi\n      mload(0x40)\n      0x08c379a000000000000000000000000000000000000000000000000000000000\n      dup2\n      mstore\n      0x04\n      add\n      tag_216\n      swap1\n      tag_176\n      jump\t// in\n    tag_216:\n      mload(0x40)\n      dup1\n      swap2\n      sub\n      swap1\n      revert\n    tag_215:\n        /* \"Periphery/LendingPoolRouter.sol\":3516:3520  pool */\n      dup2\n        /* \"Periphery/LendingPoolRouter.sol\":3503:3530  ILendingPool(pool).withdraw */\n      0xffffffffffffffffffffffffffffffffffffffff\n      and\n      0x3ccfd60b\n        /* \"Periphery/LendingPoolRouter.sol\":3503:3532  ILendingPool(pool).withdraw() */\n      mload(0x40)\n      dup2\n      0xffffffff\n      and\n      0xe0\n      shl\n      dup2\n      mstore\n      0x04\n      add\n      0x00\n      mload(0x40)\n      dup1\n      dup4\n      sub\n      dup2\n      0x00\n      dup8\n      dup1\n      extcodesize\n      iszero\n      dup1\n      iszero\n      tag_217\n      jumpi\n      0x00\n      dup1\n      revert\n    tag_217:\n      pop\n      gas\n      call\n      iszero\n      dup1\n      iszero\n      tag_219\n      jumpi\n      returndatasize\n      0x00\n      dup1\n      returndatacopy\n      revert(0x00, returndatasize)\n    tag_219:\n      pop\n      pop\n      pop\n      pop\n        /* \"Periphery/LendingPoolRouter.sol\":3547:3552  WEXDC */\n      immutable(\"0x4f07d7aea7a8a16d4b795a9a9aabd4a50f93236b39d48ad640505cdc3dbb3bbc\")\n        /* \"Periphery/LendingPoolRouter.sol\":3542:3566  IXDC(WEXDC).transferFrom */\n      0xffffffffffffffffffffffffffffffffffffffff\n      and\n      0x23b872dd\n        /* \"Periphery/LendingPoolRouter.sol\":3567:3577  msg.sender */\n      caller\n        /* \"Periphery/LendingPoolRouter.sol\":3587:3591  this */\n      address\n        /* \"Periphery/LendingPoolRouter.sol\":3594:3600  amount */\n      dup5\n        /* \"Periphery/LendingPoolRouter.sol\":3542:3601  IXDC(WEXDC).transferFrom(msg.sender, address(this), amount) */\n      mload(0x40)\n      dup5\n      0xffffffff\n      and\n      0xe0\n      shl\n      dup2\n      mstore\n      0x04\n      add\n      tag_220\n      swap4\n      swap3\n      swap2\n      swap1\n      tag_155\n      jump\t// in\n    tag_220:\n      0x20\n      mload(0x40)\n      dup1\n      dup4\n      sub\n      dup2\n      0x00\n      dup8\n      gas\n      call\n      iszero\n      dup1\n      iszero\n      tag_222\n      jumpi\n      returndatasize\n      0x00\n      dup1\n      returndatacopy\n      revert(0x00, returndatasize)\n    tag_222:\n      pop\n      pop\n      pop\n      pop\n      mload(0x40)\n      returndatasize\n      not(0x1f)\n      0x1f\n      dup3\n      add\n      and\n      dup3\n      add\n      dup1\n      0x40\n      mstore\n      pop\n      dup2\n      add\n      swap1\n      tag_223\n      swap2\n      swap1\n      tag_159\n      jump\t// in\n    tag_223:\n      pop\n        /* \"Periphery/LendingPoolRouter.sol\":3617:3622  WEXDC */\n      immutable(\"0x4f07d7aea7a8a16d4b795a9a9aabd4a50f93236b39d48ad640505cdc3dbb3bbc\")\n        /* \"Periphery/LendingPoolRouter.sol\":3612:3632  IXDC(WEXDC).withdraw */\n      0xffffffffffffffffffffffffffffffffffffffff\n      and\n      0x2e1a7d4d\n        /* \"Periphery/LendingPoolRouter.sol\":3633:3639  amount */\n      dup3\n        /* \"Periphery/LendingPoolRouter.sol\":3612:3640  IXDC(WEXDC).withdraw(amount) */\n      mload(0x40)\n      dup3\n      0xffffffff\n      and\n      0xe0\n      shl\n      dup2\n      mstore\n      0x04\n      add\n      tag_224\n      swap2\n      swap1\n      tag_38\n      jump\t// in\n    tag_224:\n      0x00\n      mload(0x40)\n      dup1\n      dup4\n      sub\n      dup2\n      0x00\n      dup8\n      dup1\n      extcodesize\n      iszero\n      dup1\n      iszero\n      tag_225\n      jumpi\n      0x00\n      dup1\n      revert\n    tag_225:\n      pop\n      gas\n      call\n      iszero\n      dup1\n      iszero\n      tag_227\n      jumpi\n      returndatasize\n      0x00\n      dup1\n      returndatacopy\n      revert(0x00, returndatasize)\n    tag_227:\n      pop\n      pop\n      pop\n      pop\n        /* \"Periphery/LendingPoolRouter.sol\":3651:3701  TransferHelper.safeTransferETH(msg.sender, amount) */\n      tag_228\n        /* \"Periphery/LendingPoolRouter.sol\":3682:3692  msg.sender */\n      caller\n        /* \"Periphery/LendingPoolRouter.sol\":3694:3700  amount */\n      dup3\n        /* \"Periphery/LendingPoolRouter.sol\":3651:3681  TransferHelper.safeTransferETH */\n      tag_165\n        /* \"Periphery/LendingPoolRouter.sol\":3651:3701  TransferHelper.safeTransferETH(msg.sender, amount) */\n      jump\t// in\n    tag_228:\n        /* \"Periphery/LendingPoolRouter.sol\":3255:3708  {... */\n      pop\n      pop\n        /* \"Periphery/LendingPoolRouter.sol\":3225:3708  function withdrawETH() public {... */\n      jump\t// out\n        /* \"Periphery/LendingPoolRouter.sol\":4090:4586  function repayETH() public payable {... */\n    tag_76:\n        /* \"Periphery/LendingPoolRouter.sol\":4135:4147  address pool */\n      0x00\n        /* \"Periphery/LendingPoolRouter.sol\":4150:4171  getPoolAddress(WEXDC) */\n      tag_230\n        /* \"Periphery/LendingPoolRouter.sol\":4165:4170  WEXDC */\n      immutable(\"0x4f07d7aea7a8a16d4b795a9a9aabd4a50f93236b39d48ad640505cdc3dbb3bbc\")\n        /* \"Periphery/LendingPoolRouter.sol\":4150:4164  getPoolAddress */\n      tag_24\n        /* \"Periphery/LendingPoolRouter.sol\":4150:4171  getPoolAddress(WEXDC) */\n      jump\t// in\n    tag_230:\n        /* \"Periphery/LendingPoolRouter.sol\":4135:4171  address pool = getPoolAddress(WEXDC) */\n      swap1\n      pop\n        /* \"Periphery/LendingPoolRouter.sol\":4205:4206  0 */\n      0x00\n        /* \"Periphery/LendingPoolRouter.sol\":4189:4207  pool != address(0) */\n      0xffffffffffffffffffffffffffffffffffffffff\n      and\n        /* \"Periphery/LendingPoolRouter.sol\":4189:4193  pool */\n      dup2\n        /* \"Periphery/LendingPoolRouter.sol\":4189:4207  pool != address(0) */\n      0xffffffffffffffffffffffffffffffffffffffff\n      and\n      sub\n        /* \"Periphery/LendingPoolRouter.sol\":4181:4232  require(pool != address(0), \"Pool Does not exists\") */\n      tag_231\n      jumpi\n      mload(0x40)\n      0x08c379a000000000000000000000000000000000000000000000000000000000\n      dup2\n      mstore\n      0x04\n      add\n      tag_232\n      swap1\n      tag_110\n      jump\t// in\n    tag_232:\n      mload(0x40)\n      dup1\n      swap2\n      sub\n      swap1\n      revert\n    tag_231:\n        /* \"Periphery/LendingPoolRouter.sol\":4242:4256  uint256 amount */\n      0x00\n        /* \"Periphery/LendingPoolRouter.sol\":4272:4276  pool */\n      dup2\n        /* \"Periphery/LendingPoolRouter.sol\":4259:4290  ILendingPool(pool).borrowAmount */\n      0xffffffffffffffffffffffffffffffffffffffff\n      and\n      0x8d113a7f\n        /* \"Periphery/LendingPoolRouter.sol\":4291:4301  msg.sender */\n      caller\n        /* \"Periphery/LendingPoolRouter.sol\":4259:4302  ILendingPool(pool).borrowAmount(msg.sender) */\n      mload(0x40)\n      dup3\n      0xffffffff\n      and\n      0xe0\n      shl\n      dup2\n      mstore\n      0x04\n      add\n      tag_233\n      swap2\n      swap1\n      tag_26\n      jump\t// in\n    tag_233:\n      0x40\n      dup1\n      mload\n      dup1\n      dup4\n      sub\n      dup2\n      dup7\n      gas\n      staticcall\n      iszero\n      dup1\n      iszero\n      tag_235\n      jumpi\n      returndatasize\n      0x00\n      dup1\n      returndatacopy\n      revert(0x00, returndatasize)\n    tag_235:\n      pop\n      pop\n      pop\n      pop\n      mload(0x40)\n      returndatasize\n      not(0x1f)\n      0x1f\n      dup3\n      add\n      and\n      dup3\n      add\n      dup1\n      0x40\n      mstore\n      pop\n      dup2\n      add\n      swap1\n      tag_236\n      swap2\n      swap1\n      tag_115\n      jump\t// in\n    tag_236:\n        /* \"Periphery/LendingPoolRouter.sol\":4259:4309  ILendingPool(pool).borrowAmount(msg.sender).amount */\n      0x00\n      add\n      mload\n        /* \"Periphery/LendingPoolRouter.sol\":4242:4309  uint256 amount = ILendingPool(pool).borrowAmount(msg.sender).amount */\n      swap1\n      pop\n        /* \"Periphery/LendingPoolRouter.sol\":4337:4338  0 */\n      0x00\n        /* \"Periphery/LendingPoolRouter.sol\":4328:4334  amount */\n      dup2\n        /* \"Periphery/LendingPoolRouter.sol\":4328:4338  amount > 0 */\n      gt\n        /* \"Periphery/LendingPoolRouter.sol\":4320:4361  require(amount > 0, \"No Amount to repay\") */\n      tag_237\n      jumpi\n      mload(0x40)\n      0x08c379a000000000000000000000000000000000000000000000000000000000\n      dup2\n      mstore\n      0x04\n      add\n      tag_238\n      swap1\n      tag_203\n      jump\t// in\n    tag_238:\n      mload(0x40)\n      dup1\n      swap2\n      sub\n      swap1\n      revert\n    tag_237:\n        /* \"Periphery/LendingPoolRouter.sol\":4393:4399  amount */\n      dup1\n        /* \"Periphery/LendingPoolRouter.sol\":4380:4389  msg.value */\n      callvalue\n        /* \"Periphery/LendingPoolRouter.sol\":4380:4399  msg.value == amount */\n      eq\n        /* \"Periphery/LendingPoolRouter.sol\":4372:4425  require(msg.value == amount, \"Incorrect amount sent\") */\n      tag_239\n      jumpi\n      mload(0x40)\n      0x08c379a000000000000000000000000000000000000000000000000000000000\n      dup2\n      mstore\n      0x04\n      add\n      tag_240\n      swap1\n      tag_241\n      jump\t// in\n    tag_240:\n      mload(0x40)\n      dup1\n      swap2\n      sub\n      swap1\n      revert\n    tag_239:\n        /* \"Periphery/LendingPoolRouter.sol\":4441:4446  WEXDC */\n      immutable(\"0x4f07d7aea7a8a16d4b795a9a9aabd4a50f93236b39d48ad640505cdc3dbb3bbc\")\n        /* \"Periphery/LendingPoolRouter.sol\":4436:4455  IXDC(WEXDC).deposit */\n      0xffffffffffffffffffffffffffffffffffffffff\n      and\n      0xd0e30db0\n        /* \"Periphery/LendingPoolRouter.sol\":4463:4472  msg.value */\n      callvalue\n        /* \"Periphery/LendingPoolRouter.sol\":4436:4475  IXDC(WEXDC).deposit{value: msg.value}() */\n      mload(0x40)\n      dup3\n      0xffffffff\n      and\n      0xe0\n      shl\n      dup2\n      mstore\n      0x04\n      add\n      0x00\n      mload(0x40)\n      dup1\n      dup4\n      sub\n      dup2\n      dup6\n      dup9\n      dup1\n      extcodesize\n      iszero\n      dup1\n      iszero\n      tag_242\n      jumpi\n      0x00\n      dup1\n      revert\n    tag_242:\n      pop\n      gas\n      call\n      iszero\n      dup1\n      iszero\n      tag_244\n      jumpi\n      returndatasize\n      0x00\n      dup1\n      returndatacopy\n      revert(0x00, returndatasize)\n    tag_244:\n      pop\n      pop\n      pop\n      pop\n      pop\n        /* \"Periphery/LendingPoolRouter.sol\":4485:4542  TransferHelper.safeTransfer(WEXDC, msg.sender, msg.value) */\n      tag_245\n        /* \"Periphery/LendingPoolRouter.sol\":4513:4518  WEXDC */\n      immutable(\"0x4f07d7aea7a8a16d4b795a9a9aabd4a50f93236b39d48ad640505cdc3dbb3bbc\")\n        /* \"Periphery/LendingPoolRouter.sol\":4520:4530  msg.sender */\n      caller\n        /* \"Periphery/LendingPoolRouter.sol\":4532:4541  msg.value */\n      callvalue\n        /* \"Periphery/LendingPoolRouter.sol\":4485:4512  TransferHelper.safeTransfer */\n      tag_125\n        /* \"Periphery/LendingPoolRouter.sol\":4485:4542  TransferHelper.safeTransfer(WEXDC, msg.sender, msg.value) */\n      jump\t// in\n    tag_245:\n        /* \"Periphery/LendingPoolRouter.sol\":4566:4570  pool */\n      dup2\n        /* \"Periphery/LendingPoolRouter.sol\":4553:4577  ILendingPool(pool).repay */\n      0xffffffffffffffffffffffffffffffffffffffff\n      and\n      0x402d8883\n        /* \"Periphery/LendingPoolRouter.sol\":4553:4579  ILendingPool(pool).repay() */\n      mload(0x40)\n      dup2\n      0xffffffff\n      and\n      0xe0\n      shl\n      dup2\n      mstore\n      0x04\n      add\n      0x00\n      mload(0x40)\n      dup1\n      dup4\n      sub\n      dup2\n      0x00\n      dup8\n      dup1\n      extcodesize\n      iszero\n      dup1\n      iszero\n      tag_246\n      jumpi\n      0x00\n      dup1\n      revert\n    tag_246:\n      pop\n      gas\n      call\n      iszero\n      dup1\n      iszero\n      tag_248\n      jumpi\n      returndatasize\n      0x00\n      dup1\n      returndatacopy\n      revert(0x00, returndatasize)\n    tag_248:\n      pop\n      pop\n      pop\n      pop\n        /* \"Periphery/LendingPoolRouter.sol\":4125:4586  {... */\n      pop\n      pop\n        /* \"Periphery/LendingPoolRouter.sol\":4090:4586  function repayETH() public payable {... */\n      jump\t// out\n        /* \"Periphery/LendingPoolRouter.sol\":776:911  function getBalance(address token) public view returns (uint256 balance) {... */\n    tag_80:\n        /* \"Periphery/LendingPoolRouter.sol\":832:847  uint256 balance */\n      0x00\n        /* \"Periphery/LendingPoolRouter.sol\":876:881  token */\n      dup2\n        /* \"Periphery/LendingPoolRouter.sol\":869:892  IERC20(token).balanceOf */\n      0xffffffffffffffffffffffffffffffffffffffff\n      and\n      0x70a08231\n        /* \"Periphery/LendingPoolRouter.sol\":893:903  msg.sender */\n      caller\n        /* \"Periphery/LendingPoolRouter.sol\":869:904  IERC20(token).balanceOf(msg.sender) */\n      mload(0x40)\n      dup3\n      0xffffffff\n      and\n      0xe0\n      shl\n      dup2\n      mstore\n      0x04\n      add\n      tag_250\n      swap2\n      swap1\n      tag_26\n      jump\t// in\n    tag_250:\n      0x20\n      mload(0x40)\n      dup1\n      dup4\n      sub\n      dup2\n      dup7\n      gas\n      staticcall\n      iszero\n      dup1\n      iszero\n      tag_252\n      jumpi\n      returndatasize\n      0x00\n      dup1\n      returndatacopy\n      revert(0x00, returndatasize)\n    tag_252:\n      pop\n      pop\n      pop\n      pop\n      mload(0x40)\n      returndatasize\n      not(0x1f)\n      0x1f\n      dup3\n      add\n      and\n      dup3\n      add\n      dup1\n      0x40\n      mstore\n      pop\n      dup2\n      add\n      swap1\n      tag_253\n      swap2\n      swap1\n      tag_254\n      jump\t// in\n    tag_253:\n        /* \"Periphery/LendingPoolRouter.sol\":859:904  balance = IERC20(token).balanceOf(msg.sender) */\n      swap1\n      pop\n        /* \"Periphery/LendingPoolRouter.sol\":776:911  function getBalance(address token) public view returns (uint256 balance) {... */\n      swap2\n      swap1\n      pop\n      jump\t// out\n        /* \"Periphery/LendingPoolRouter.sol\":473:503  address public immutable WEXDC */\n    tag_84:\n      immutable(\"0x4f07d7aea7a8a16d4b795a9a9aabd4a50f93236b39d48ad640505cdc3dbb3bbc\")\n      dup2\n      jump\t// out\n        /* \"Periphery/libraries/TransferHelper.sol\":660:1120  function safeTransfer(... */\n    tag_125:\n        /* \"Periphery/libraries/TransferHelper.sol\":840:852  bool success */\n      0x00\n        /* \"Periphery/libraries/TransferHelper.sol\":854:871  bytes memory data */\n      dup1\n        /* \"Periphery/libraries/TransferHelper.sol\":875:880  token */\n      dup5\n        /* \"Periphery/libraries/TransferHelper.sol\":875:885  token.call */\n      0xffffffffffffffffffffffffffffffffffffffff\n      and\n        /* \"Periphery/libraries/TransferHelper.sol\":922:932  0xa9059cbb */\n      0xa9059cbb\n        /* \"Periphery/libraries/TransferHelper.sol\":934:936  to */\n      dup6\n        /* \"Periphery/libraries/TransferHelper.sol\":938:943  value */\n      dup6\n        /* \"Periphery/libraries/TransferHelper.sol\":899:944  abi.encodeWithSelector(0xa9059cbb, to, value) */\n      add(0x24, mload(0x40))\n      tag_256\n      swap3\n      swap2\n      swap1\n      tag_257\n      jump\t// in\n    tag_256:\n      mload(0x40)\n      0x20\n      dup2\n      dup4\n      sub\n      sub\n      dup2\n      mstore\n      swap1\n      0x40\n      mstore\n      swap1\n      0xe0\n      shl\n      0x20\n      dup3\n      add\n      dup1\n      mload\n      0xffffffffffffffffffffffffffffffffffffffffffffffffffffffff\n      dup4\n      dup2\n      dup4\n      and\n      or\n      dup4\n      mstore\n      pop\n      pop\n      pop\n      pop\n        /* \"Periphery/libraries/TransferHelper.sol\":875:954  token.call(... */\n      mload(0x40)\n      tag_258\n      swap2\n      swap1\n      tag_259\n      jump\t// in\n    tag_258:\n      0x00\n      mload(0x40)\n      dup1\n      dup4\n      sub\n      dup2\n      0x00\n      dup7\n      gas\n      call\n      swap2\n      pop\n      pop\n      returndatasize\n      dup1\n      0x00\n      dup2\n      eq\n      tag_262\n      jumpi\n      mload(0x40)\n      swap2\n      pop\n      and(add(returndatasize, 0x3f), not(0x1f))\n      dup3\n      add\n      0x40\n      mstore\n      returndatasize\n      dup3\n      mstore\n      returndatasize\n      0x00\n      0x20\n      dup5\n      add\n      returndatacopy\n      jump(tag_261)\n    tag_262:\n      0x60\n      swap2\n      pop\n    tag_261:\n      pop\n        /* \"Periphery/libraries/TransferHelper.sol\":839:954  (bool success, bytes memory data) = token.call(... */\n      swap2\n      pop\n      swap2\n      pop\n        /* \"Periphery/libraries/TransferHelper.sol\":985:992  success */\n      dup2\n        /* \"Periphery/libraries/TransferHelper.sol\":985:1042  success && (data.length == 0 || abi.decode(data, (bool))) */\n      dup1\n      iszero\n      tag_263\n      jumpi\n      pop\n        /* \"Periphery/libraries/TransferHelper.sol\":1012:1013  0 */\n      0x00\n        /* \"Periphery/libraries/TransferHelper.sol\":997:1001  data */\n      dup2\n        /* \"Periphery/libraries/TransferHelper.sol\":997:1008  data.length */\n      mload\n        /* \"Periphery/libraries/TransferHelper.sol\":997:1013  data.length == 0 */\n      eq\n        /* \"Periphery/libraries/TransferHelper.sol\":997:1041  data.length == 0 || abi.decode(data, (bool)) */\n      dup1\n      tag_264\n      jumpi\n      pop\n        /* \"Periphery/libraries/TransferHelper.sol\":1028:1032  data */\n      dup1\n        /* \"Periphery/libraries/TransferHelper.sol\":1017:1041  abi.decode(data, (bool)) */\n      dup1\n      0x20\n      add\n      swap1\n      mload\n      dup2\n      add\n      swap1\n      tag_265\n      swap2\n      swap1\n      tag_159\n      jump\t// in\n    tag_265:\n        /* \"Periphery/libraries/TransferHelper.sol\":997:1041  data.length == 0 || abi.decode(data, (bool)) */\n    tag_264:\n        /* \"Periphery/libraries/TransferHelper.sol\":985:1042  success && (data.length == 0 || abi.decode(data, (bool))) */\n    tag_263:\n        /* \"Periphery/libraries/TransferHelper.sol\":964:1113  require(... */\n      tag_266\n      jumpi\n      mload(0x40)\n      0x08c379a000000000000000000000000000000000000000000000000000000000\n      dup2\n      mstore\n      0x04\n      add\n      tag_267\n      swap1\n      tag_268\n      jump\t// in\n    tag_267:\n      mload(0x40)\n      dup1\n      swap2\n      sub\n      swap1\n      revert\n    tag_266:\n        /* \"Periphery/libraries/TransferHelper.sol\":763:1120  {... */\n      pop\n      pop\n        /* \"Periphery/libraries/TransferHelper.sol\":660:1120  function safeTransfer(... */\n      pop\n      pop\n      pop\n      jump\t// out\n        /* \"Periphery/libraries/TransferHelper.sol\":1640:1888  function safeTransferETH(address to, uint256 value) internal {... */\n    tag_165:\n        /* \"Periphery/libraries/TransferHelper.sol\":1712:1724  bool success */\n      0x00\n        /* \"Periphery/libraries/TransferHelper.sol\":1730:1732  to */\n      dup3\n        /* \"Periphery/libraries/TransferHelper.sol\":1730:1737  to.call */\n      0xffffffffffffffffffffffffffffffffffffffff\n      and\n        /* \"Periphery/libraries/TransferHelper.sol\":1745:1750  value */\n      dup3\n        /* \"Periphery/libraries/TransferHelper.sol\":1762:1763  0 */\n      0x00\n        /* \"Periphery/libraries/TransferHelper.sol\":1752:1764  new bytes(0) */\n      0xffffffffffffffff\n      dup2\n      gt\n      iszero\n      tag_270\n      jumpi\n      tag_271\n      tag_272\n      jump\t// in\n    tag_271:\n    tag_270:\n      mload(0x40)\n      swap1\n      dup1\n      dup3\n      mstore\n      dup1\n      0x1f\n      add\n      not(0x1f)\n      and\n      0x20\n      add\n      dup3\n      add\n      0x40\n      mstore\n      dup1\n      iszero\n      tag_273\n      jumpi\n      dup2\n      0x20\n      add\n      0x01\n      dup3\n      mul\n      dup1\n      calldatasize\n      dup4\n      calldatacopy\n      dup1\n      dup3\n      add\n      swap2\n      pop\n      pop\n      swap1\n      pop\n    tag_273:\n      pop\n        /* \"Periphery/libraries/TransferHelper.sol\":1730:1765  to.call{value: value}(new bytes(0)) */\n      mload(0x40)\n      tag_274\n      swap2\n      swap1\n      tag_259\n      jump\t// in\n    tag_274:\n      0x00\n      mload(0x40)\n      dup1\n      dup4\n      sub\n      dup2\n      dup6\n      dup8\n      gas\n      call\n      swap3\n      pop\n      pop\n      pop\n      returndatasize\n      dup1\n      0x00\n      dup2\n      eq\n      tag_277\n      jumpi\n      mload(0x40)\n      swap2\n      pop\n      and(add(returndatasize, 0x3f), not(0x1f))\n      dup3\n      add\n      0x40\n      mstore\n      returndatasize\n      dup3\n      mstore\n      returndatasize\n      0x00\n      0x20\n      dup5\n      add\n      returndatacopy\n      jump(tag_276)\n    tag_277:\n      0x60\n      swap2\n      pop\n    tag_276:\n      pop\n        /* \"Periphery/libraries/TransferHelper.sol\":1711:1765  (bool success, ) = to.call{value: value}(new bytes(0)) */\n      pop\n      swap1\n      pop\n        /* \"Periphery/libraries/TransferHelper.sol\":1796:1803  success */\n      dup1\n        /* \"Periphery/libraries/TransferHelper.sol\":1775:1881  require(... */\n      tag_278\n      jumpi\n      mload(0x40)\n      0x08c379a000000000000000000000000000000000000000000000000000000000\n      dup2\n      mstore\n      0x04\n      add\n      tag_279\n      swap1\n      tag_280\n      jump\t// in\n    tag_279:\n      mload(0x40)\n      dup1\n      swap2\n      sub\n      swap1\n      revert\n    tag_278:\n        /* \"Periphery/libraries/TransferHelper.sol\":1701:1888  {... */\n      pop\n        /* \"Periphery/libraries/TransferHelper.sol\":1640:1888  function safeTransferETH(address to, uint256 value) internal {... */\n      pop\n      pop\n      jump\t// out\n        /* \"#utility.yul\":7:82   */\n    tag_281:\n        /* \"#utility.yul\":40:46   */\n      0x00\n        /* \"#utility.yul\":73:75   */\n      0x40\n        /* \"#utility.yul\":67:76   */\n      mload\n        /* \"#utility.yul\":57:76   */\n      swap1\n      pop\n        /* \"#utility.yul\":7:82   */\n      swap1\n      jump\t// out\n        /* \"#utility.yul\":88:205   */\n    tag_282:\n        /* \"#utility.yul\":197:198   */\n      0x00\n        /* \"#utility.yul\":194:195   */\n      dup1\n        /* \"#utility.yul\":187:199   */\n      revert\n        /* \"#utility.yul\":334:460   */\n    tag_284:\n        /* \"#utility.yul\":371:378   */\n      0x00\n        /* \"#utility.yul\":411:453   */\n      0xffffffffffffffffffffffffffffffffffffffff\n        /* \"#utility.yul\":404:409   */\n      dup3\n        /* \"#utility.yul\":400:454   */\n      and\n        /* \"#utility.yul\":389:454   */\n      swap1\n      pop\n        /* \"#utility.yul\":334:460   */\n      swap2\n      swap1\n      pop\n      jump\t// out\n        /* \"#utility.yul\":466:562   */\n    tag_285:\n        /* \"#utility.yul\":503:510   */\n      0x00\n        /* \"#utility.yul\":532:556   */\n      tag_329\n        /* \"#utility.yul\":550:555   */\n      dup3\n        /* \"#utility.yul\":532:556   */\n      tag_284\n      jump\t// in\n    tag_329:\n        /* \"#utility.yul\":521:556   */\n      swap1\n      pop\n        /* \"#utility.yul\":466:562   */\n      swap2\n      swap1\n      pop\n      jump\t// out\n        /* \"#utility.yul\":568:690   */\n    tag_286:\n        /* \"#utility.yul\":641:665   */\n      tag_331\n        /* \"#utility.yul\":659:664   */\n      dup2\n        /* \"#utility.yul\":641:665   */\n      tag_285\n      jump\t// in\n    tag_331:\n        /* \"#utility.yul\":634:639   */\n      dup2\n        /* \"#utility.yul\":631:666   */\n      eq\n        /* \"#utility.yul\":621:684   */\n      tag_332\n      jumpi\n        /* \"#utility.yul\":680:681   */\n      0x00\n        /* \"#utility.yul\":677:678   */\n      dup1\n        /* \"#utility.yul\":670:682   */\n      revert\n        /* \"#utility.yul\":621:684   */\n    tag_332:\n        /* \"#utility.yul\":568:690   */\n      pop\n      jump\t// out\n        /* \"#utility.yul\":696:835   */\n    tag_287:\n        /* \"#utility.yul\":742:747   */\n      0x00\n        /* \"#utility.yul\":780:786   */\n      dup2\n        /* \"#utility.yul\":767:787   */\n      calldataload\n        /* \"#utility.yul\":758:787   */\n      swap1\n      pop\n        /* \"#utility.yul\":796:829   */\n      tag_334\n        /* \"#utility.yul\":823:828   */\n      dup2\n        /* \"#utility.yul\":796:829   */\n      tag_286\n      jump\t// in\n    tag_334:\n        /* \"#utility.yul\":696:835   */\n      swap3\n      swap2\n      pop\n      pop\n      jump\t// out\n        /* \"#utility.yul\":841:1170   */\n    tag_23:\n        /* \"#utility.yul\":900:906   */\n      0x00\n        /* \"#utility.yul\":949:951   */\n      0x20\n        /* \"#utility.yul\":937:946   */\n      dup3\n        /* \"#utility.yul\":928:935   */\n      dup5\n        /* \"#utility.yul\":924:947   */\n      sub\n        /* \"#utility.yul\":920:952   */\n      slt\n        /* \"#utility.yul\":917:1036   */\n      iszero\n      tag_336\n      jumpi\n        /* \"#utility.yul\":955:1034   */\n      tag_337\n      tag_282\n      jump\t// in\n    tag_337:\n        /* \"#utility.yul\":917:1036   */\n    tag_336:\n        /* \"#utility.yul\":1075:1076   */\n      0x00\n        /* \"#utility.yul\":1100:1153   */\n      tag_338\n        /* \"#utility.yul\":1145:1152   */\n      dup5\n        /* \"#utility.yul\":1136:1142   */\n      dup3\n        /* \"#utility.yul\":1125:1134   */\n      dup6\n        /* \"#utility.yul\":1121:1143   */\n      add\n        /* \"#utility.yul\":1100:1153   */\n      tag_287\n      jump\t// in\n    tag_338:\n        /* \"#utility.yul\":1090:1153   */\n      swap2\n      pop\n        /* \"#utility.yul\":1046:1163   */\n      pop\n        /* \"#utility.yul\":841:1170   */\n      swap3\n      swap2\n      pop\n      pop\n      jump\t// out\n        /* \"#utility.yul\":1176:1294   */\n    tag_288:\n        /* \"#utility.yul\":1263:1287   */\n      tag_340\n        /* \"#utility.yul\":1281:1286   */\n      dup2\n        /* \"#utility.yul\":1263:1287   */\n      tag_285\n      jump\t// in\n    tag_340:\n        /* \"#utility.yul\":1258:1261   */\n      dup3\n        /* \"#utility.yul\":1251:1288   */\n      mstore\n        /* \"#utility.yul\":1176:1294   */\n      pop\n      pop\n      jump\t// out\n        /* \"#utility.yul\":1300:1522   */\n    tag_26:\n        /* \"#utility.yul\":1393:1397   */\n      0x00\n        /* \"#utility.yul\":1431:1433   */\n      0x20\n        /* \"#utility.yul\":1420:1429   */\n      dup3\n        /* \"#utility.yul\":1416:1434   */\n      add\n        /* \"#utility.yul\":1408:1434   */\n      swap1\n      pop\n        /* \"#utility.yul\":1444:1515   */\n      tag_342\n        /* \"#utility.yul\":1512:1513   */\n      0x00\n        /* \"#utility.yul\":1501:1510   */\n      dup4\n        /* \"#utility.yul\":1497:1514   */\n      add\n        /* \"#utility.yul\":1488:1494   */\n      dup5\n        /* \"#utility.yul\":1444:1515   */\n      tag_288\n      jump\t// in\n    tag_342:\n        /* \"#utility.yul\":1300:1522   */\n      swap3\n      swap2\n      pop\n      pop\n      jump\t// out\n        /* \"#utility.yul\":1528:1605   */\n    tag_289:\n        /* \"#utility.yul\":1565:1572   */\n      0x00\n        /* \"#utility.yul\":1594:1599   */\n      dup2\n        /* \"#utility.yul\":1583:1599   */\n      swap1\n      pop\n        /* \"#utility.yul\":1528:1605   */\n      swap2\n      swap1\n      pop\n      jump\t// out\n        /* \"#utility.yul\":1611:1733   */\n    tag_290:\n        /* \"#utility.yul\":1684:1708   */\n      tag_345\n        /* \"#utility.yul\":1702:1707   */\n      dup2\n        /* \"#utility.yul\":1684:1708   */\n      tag_289\n      jump\t// in\n    tag_345:\n        /* \"#utility.yul\":1677:1682   */\n      dup2\n        /* \"#utility.yul\":1674:1709   */\n      eq\n        /* \"#utility.yul\":1664:1727   */\n      tag_346\n      jumpi\n        /* \"#utility.yul\":1723:1724   */\n      0x00\n        /* \"#utility.yul\":1720:1721   */\n      dup1\n        /* \"#utility.yul\":1713:1725   */\n      revert\n        /* \"#utility.yul\":1664:1727   */\n    tag_346:\n        /* \"#utility.yul\":1611:1733   */\n      pop\n      jump\t// out\n        /* \"#utility.yul\":1739:1878   */\n    tag_291:\n        /* \"#utility.yul\":1785:1790   */\n      0x00\n        /* \"#utility.yul\":1823:1829   */\n      dup2\n        /* \"#utility.yul\":1810:1830   */\n      calldataload\n        /* \"#utility.yul\":1801:1830   */\n      swap1\n      pop\n        /* \"#utility.yul\":1839:1872   */\n      tag_348\n        /* \"#utility.yul\":1866:1871   */\n      dup2\n        /* \"#utility.yul\":1839:1872   */\n      tag_290\n      jump\t// in\n    tag_348:\n        /* \"#utility.yul\":1739:1878   */\n      swap3\n      swap2\n      pop\n      pop\n      jump\t// out\n        /* \"#utility.yul\":1884:2358   */\n    tag_30:\n        /* \"#utility.yul\":1952:1958   */\n      0x00\n        /* \"#utility.yul\":1960:1966   */\n      dup1\n        /* \"#utility.yul\":2009:2011   */\n      0x40\n        /* \"#utility.yul\":1997:2006   */\n      dup4\n        /* \"#utility.yul\":1988:1995   */\n      dup6\n        /* \"#utility.yul\":1984:2007   */\n      sub\n        /* \"#utility.yul\":1980:2012   */\n      slt\n        /* \"#utility.yul\":1977:2096   */\n      iszero\n      tag_350\n      jumpi\n        /* \"#utility.yul\":2015:2094   */\n      tag_351\n      tag_282\n      jump\t// in\n    tag_351:\n        /* \"#utility.yul\":1977:2096   */\n    tag_350:\n        /* \"#utility.yul\":2135:2136   */\n      0x00\n        /* \"#utility.yul\":2160:2213   */\n      tag_352\n        /* \"#utility.yul\":2205:2212   */\n      dup6\n        /* \"#utility.yul\":2196:2202   */\n      dup3\n        /* \"#utility.yul\":2185:2194   */\n      dup7\n        /* \"#utility.yul\":2181:2203   */\n      add\n        /* \"#utility.yul\":2160:2213   */\n      tag_287\n      jump\t// in\n    tag_352:\n        /* \"#utility.yul\":2150:2213   */\n      swap3\n      pop\n        /* \"#utility.yul\":2106:2223   */\n      pop\n        /* \"#utility.yul\":2262:2264   */\n      0x20\n        /* \"#utility.yul\":2288:2341   */\n      tag_353\n        /* \"#utility.yul\":2333:2340   */\n      dup6\n        /* \"#utility.yul\":2324:2330   */\n      dup3\n        /* \"#utility.yul\":2313:2322   */\n      dup7\n        /* \"#utility.yul\":2309:2331   */\n      add\n        /* \"#utility.yul\":2288:2341   */\n      tag_291\n      jump\t// in\n    tag_353:\n        /* \"#utility.yul\":2278:2341   */\n      swap2\n      pop\n        /* \"#utility.yul\":2233:2351   */\n      pop\n        /* \"#utility.yul\":1884:2358   */\n      swap3\n      pop\n      swap3\n      swap1\n      pop\n      jump\t// out\n        /* \"#utility.yul\":2364:2838   */\n    tag_35:\n        /* \"#utility.yul\":2432:2438   */\n      0x00\n        /* \"#utility.yul\":2440:2446   */\n      dup1\n        /* \"#utility.yul\":2489:2491   */\n      0x40\n        /* \"#utility.yul\":2477:2486   */\n      dup4\n        /* \"#utility.yul\":2468:2475   */\n      dup6\n        /* \"#utility.yul\":2464:2487   */\n      sub\n        /* \"#utility.yul\":2460:2492   */\n      slt\n        /* \"#utility.yul\":2457:2576   */\n      iszero\n      tag_355\n      jumpi\n        /* \"#utility.yul\":2495:2574   */\n      tag_356\n      tag_282\n      jump\t// in\n    tag_356:\n        /* \"#utility.yul\":2457:2576   */\n    tag_355:\n        /* \"#utility.yul\":2615:2616   */\n      0x00\n        /* \"#utility.yul\":2640:2693   */\n      tag_357\n        /* \"#utility.yul\":2685:2692   */\n      dup6\n        /* \"#utility.yul\":2676:2682   */\n      dup3\n        /* \"#utility.yul\":2665:2674   */\n      dup7\n        /* \"#utility.yul\":2661:2683   */\n      add\n        /* \"#utility.yul\":2640:2693   */\n      tag_287\n      jump\t// in\n    tag_357:\n        /* \"#utility.yul\":2630:2693   */\n      swap3\n      pop\n        /* \"#utility.yul\":2586:2703   */\n      pop\n        /* \"#utility.yul\":2742:2744   */\n      0x20\n        /* \"#utility.yul\":2768:2821   */\n      tag_358\n        /* \"#utility.yul\":2813:2820   */\n      dup6\n        /* \"#utility.yul\":2804:2810   */\n      dup3\n        /* \"#utility.yul\":2793:2802   */\n      dup7\n        /* \"#utility.yul\":2789:2811   */\n      add\n        /* \"#utility.yul\":2768:2821   */\n      tag_287\n      jump\t// in\n    tag_358:\n        /* \"#utility.yul\":2758:2821   */\n      swap2\n      pop\n        /* \"#utility.yul\":2713:2831   */\n      pop\n        /* \"#utility.yul\":2364:2838   */\n      swap3\n      pop\n      swap3\n      swap1\n      pop\n      jump\t// out\n        /* \"#utility.yul\":2844:2962   */\n    tag_292:\n        /* \"#utility.yul\":2931:2955   */\n      tag_360\n        /* \"#utility.yul\":2949:2954   */\n      dup2\n        /* \"#utility.yul\":2931:2955   */\n      tag_289\n      jump\t// in\n    tag_360:\n        /* \"#utility.yul\":2926:2929   */\n      dup3\n        /* \"#utility.yul\":2919:2956   */\n      mstore\n        /* \"#utility.yul\":2844:2962   */\n      pop\n      pop\n      jump\t// out\n        /* \"#utility.yul\":2968:3190   */\n    tag_38:\n        /* \"#utility.yul\":3061:3065   */\n      0x00\n        /* \"#utility.yul\":3099:3101   */\n      0x20\n        /* \"#utility.yul\":3088:3097   */\n      dup3\n        /* \"#utility.yul\":3084:3102   */\n      add\n        /* \"#utility.yul\":3076:3102   */\n      swap1\n      pop\n        /* \"#utility.yul\":3112:3183   */\n      tag_362\n        /* \"#utility.yul\":3180:3181   */\n      0x00\n        /* \"#utility.yul\":3169:3178   */\n      dup4\n        /* \"#utility.yul\":3165:3182   */\n      add\n        /* \"#utility.yul\":3156:3162   */\n      dup5\n        /* \"#utility.yul\":3112:3183   */\n      tag_292\n      jump\t// in\n    tag_362:\n        /* \"#utility.yul\":2968:3190   */\n      swap3\n      swap2\n      pop\n      pop\n      jump\t// out\n        /* \"#utility.yul\":3196:3525   */\n    tag_41:\n        /* \"#utility.yul\":3255:3261   */\n      0x00\n        /* \"#utility.yul\":3304:3306   */\n      0x20\n        /* \"#utility.yul\":3292:3301   */\n      dup3\n        /* \"#utility.yul\":3283:3290   */\n      dup5\n        /* \"#utility.yul\":3279:3302   */\n      sub\n        /* \"#utility.yul\":3275:3307   */\n      slt\n        /* \"#utility.yul\":3272:3391   */\n      iszero\n      tag_364\n      jumpi\n        /* \"#utility.yul\":3310:3389   */\n      tag_365\n      tag_282\n      jump\t// in\n    tag_365:\n        /* \"#utility.yul\":3272:3391   */\n    tag_364:\n        /* \"#utility.yul\":3430:3431   */\n      0x00\n        /* \"#utility.yul\":3455:3508   */\n      tag_366\n        /* \"#utility.yul\":3500:3507   */\n      dup5\n        /* \"#utility.yul\":3491:3497   */\n      dup3\n        /* \"#utility.yul\":3480:3489   */\n      dup6\n        /* \"#utility.yul\":3476:3498   */\n      add\n        /* \"#utility.yul\":3455:3508   */\n      tag_291\n      jump\t// in\n    tag_366:\n        /* \"#utility.yul\":3445:3508   */\n      swap2\n      pop\n        /* \"#utility.yul\":3401:3518   */\n      pop\n        /* \"#utility.yul\":3196:3525   */\n      swap3\n      swap2\n      pop\n      pop\n      jump\t// out\n        /* \"#utility.yul\":3531:3674   */\n    tag_293:\n        /* \"#utility.yul\":3588:3593   */\n      0x00\n        /* \"#utility.yul\":3619:3625   */\n      dup2\n        /* \"#utility.yul\":3613:3626   */\n      mload\n        /* \"#utility.yul\":3604:3626   */\n      swap1\n      pop\n        /* \"#utility.yul\":3635:3668   */\n      tag_368\n        /* \"#utility.yul\":3662:3667   */\n      dup2\n        /* \"#utility.yul\":3635:3668   */\n      tag_286\n      jump\t// in\n    tag_368:\n        /* \"#utility.yul\":3531:3674   */\n      swap3\n      swap2\n      pop\n      pop\n      jump\t// out\n        /* \"#utility.yul\":3680:4031   */\n    tag_91:\n        /* \"#utility.yul\":3750:3756   */\n      0x00\n        /* \"#utility.yul\":3799:3801   */\n      0x20\n        /* \"#utility.yul\":3787:3796   */\n      dup3\n        /* \"#utility.yul\":3778:3785   */\n      dup5\n        /* \"#utility.yul\":3774:3797   */\n      sub\n        /* \"#utility.yul\":3770:3802   */\n      slt\n        /* \"#utility.yul\":3767:3886   */\n      iszero\n      tag_370\n      jumpi\n        /* \"#utility.yul\":3805:3884   */\n      tag_371\n      tag_282\n      jump\t// in\n    tag_371:\n        /* \"#utility.yul\":3767:3886   */\n    tag_370:\n        /* \"#utility.yul\":3925:3926   */\n      0x00\n        /* \"#utility.yul\":3950:4014   */\n      tag_372\n        /* \"#utility.yul\":4006:4013   */\n      dup5\n        /* \"#utility.yul\":3997:4003   */\n      dup3\n        /* \"#utility.yul\":3986:3995   */\n      dup6\n        /* \"#utility.yul\":3982:4004   */\n      add\n        /* \"#utility.yul\":3950:4014   */\n      tag_293\n      jump\t// in\n    tag_372:\n        /* \"#utility.yul\":3940:4014   */\n      swap2\n      pop\n        /* \"#utility.yul\":3896:4024   */\n      pop\n        /* \"#utility.yul\":3680:4031   */\n      swap3\n      swap2\n      pop\n      pop\n      jump\t// out\n        /* \"#utility.yul\":4037:4206   */\n    tag_294:\n        /* \"#utility.yul\":4121:4132   */\n      0x00\n        /* \"#utility.yul\":4155:4161   */\n      dup3\n        /* \"#utility.yul\":4150:4153   */\n      dup3\n        /* \"#utility.yul\":4143:4162   */\n      mstore\n        /* \"#utility.yul\":4195:4199   */\n      0x20\n        /* \"#utility.yul\":4190:4193   */\n      dup3\n        /* \"#utility.yul\":4186:4200   */\n      add\n        /* \"#utility.yul\":4171:4200   */\n      swap1\n      pop\n        /* \"#utility.yul\":4037:4206   */\n      swap3\n      swap2\n      pop\n      pop\n      jump\t// out\n        /* \"#utility.yul\":4212:4382   */\n    tag_295:\n        /* \"#utility.yul\":4352:4374   */\n      0x506f6f6c20446f6573206e6f7420657869737473000000000000000000000000\n        /* \"#utility.yul\":4348:4349   */\n      0x00\n        /* \"#utility.yul\":4340:4346   */\n      dup3\n        /* \"#utility.yul\":4336:4350   */\n      add\n        /* \"#utility.yul\":4329:4375   */\n      mstore\n        /* \"#utility.yul\":4212:4382   */\n      pop\n      jump\t// out\n        /* \"#utility.yul\":4388:4754   */\n    tag_296:\n        /* \"#utility.yul\":4530:4533   */\n      0x00\n        /* \"#utility.yul\":4551:4618   */\n      tag_376\n        /* \"#utility.yul\":4615:4617   */\n      0x14\n        /* \"#utility.yul\":4610:4613   */\n      dup4\n        /* \"#utility.yul\":4551:4618   */\n      tag_294\n      jump\t// in\n    tag_376:\n        /* \"#utility.yul\":4544:4618   */\n      swap2\n      pop\n        /* \"#utility.yul\":4627:4720   */\n      tag_377\n        /* \"#utility.yul\":4716:4719   */\n      dup3\n        /* \"#utility.yul\":4627:4720   */\n      tag_295\n      jump\t// in\n    tag_377:\n        /* \"#utility.yul\":4745:4747   */\n      0x20\n        /* \"#utility.yul\":4740:4743   */\n      dup3\n        /* \"#utility.yul\":4736:4748   */\n      add\n        /* \"#utility.yul\":4729:4748   */\n      swap1\n      pop\n        /* \"#utility.yul\":4388:4754   */\n      swap2\n      swap1\n      pop\n      jump\t// out\n        /* \"#utility.yul\":4760:5179   */\n    tag_110:\n        /* \"#utility.yul\":4926:4930   */\n      0x00\n        /* \"#utility.yul\":4964:4966   */\n      0x20\n        /* \"#utility.yul\":4953:4962   */\n      dup3\n        /* \"#utility.yul\":4949:4967   */\n      add\n        /* \"#utility.yul\":4941:4967   */\n      swap1\n      pop\n        /* \"#utility.yul\":5013:5022   */\n      dup2\n        /* \"#utility.yul\":5007:5011   */\n      dup2\n        /* \"#utility.yul\":5003:5023   */\n      sub\n        /* \"#utility.yul\":4999:5000   */\n      0x00\n        /* \"#utility.yul\":4988:4997   */\n      dup4\n        /* \"#utility.yul\":4984:5001   */\n      add\n        /* \"#utility.yul\":4977:5024   */\n      mstore\n        /* \"#utility.yul\":5041:5172   */\n      tag_379\n        /* \"#utility.yul\":5167:5171   */\n      dup2\n        /* \"#utility.yul\":5041:5172   */\n      tag_296\n      jump\t// in\n    tag_379:\n        /* \"#utility.yul\":5033:5172   */\n      swap1\n      pop\n        /* \"#utility.yul\":4760:5179   */\n      swap2\n      swap1\n      pop\n      jump\t// out\n        /* \"#utility.yul\":5185:5302   */\n    tag_297:\n        /* \"#utility.yul\":5294:5295   */\n      0x00\n        /* \"#utility.yul\":5291:5292   */\n      dup1\n        /* \"#utility.yul\":5284:5296   */\n      revert\n        /* \"#utility.yul\":5308:5410   */\n    tag_298:\n        /* \"#utility.yul\":5349:5355   */\n      0x00\n        /* \"#utility.yul\":5400:5402   */\n      0x1f\n        /* \"#utility.yul\":5396:5403   */\n      not\n        /* \"#utility.yul\":5391:5393   */\n      0x1f\n        /* \"#utility.yul\":5384:5389   */\n      dup4\n        /* \"#utility.yul\":5380:5394   */\n      add\n        /* \"#utility.yul\":5376:5404   */\n      and\n        /* \"#utility.yul\":5366:5404   */\n      swap1\n      pop\n        /* \"#utility.yul\":5308:5410   */\n      swap2\n      swap1\n      pop\n      jump\t// out\n        /* \"#utility.yul\":5416:5596   */\n    tag_272:\n        /* \"#utility.yul\":5464:5541   */\n      0x4e487b7100000000000000000000000000000000000000000000000000000000\n        /* \"#utility.yul\":5461:5462   */\n      0x00\n        /* \"#utility.yul\":5454:5542   */\n      mstore\n        /* \"#utility.yul\":5561:5565   */\n      0x41\n        /* \"#utility.yul\":5558:5559   */\n      0x04\n        /* \"#utility.yul\":5551:5566   */\n      mstore\n        /* \"#utility.yul\":5585:5589   */\n      0x24\n        /* \"#utility.yul\":5582:5583   */\n      0x00\n        /* \"#utility.yul\":5575:5590   */\n      revert\n        /* \"#utility.yul\":5602:5883   */\n    tag_299:\n        /* \"#utility.yul\":5685:5712   */\n      tag_384\n        /* \"#utility.yul\":5707:5711   */\n      dup3\n        /* \"#utility.yul\":5685:5712   */\n      tag_298\n      jump\t// in\n    tag_384:\n        /* \"#utility.yul\":5677:5683   */\n      dup2\n        /* \"#utility.yul\":5673:5713   */\n      add\n        /* \"#utility.yul\":5815:5821   */\n      dup2\n        /* \"#utility.yul\":5803:5813   */\n      dup2\n        /* \"#utility.yul\":5800:5822   */\n      lt\n        /* \"#utility.yul\":5779:5797   */\n      0xffffffffffffffff\n        /* \"#utility.yul\":5767:5777   */\n      dup3\n        /* \"#utility.yul\":5764:5798   */\n      gt\n        /* \"#utility.yul\":5761:5823   */\n      or\n        /* \"#utility.yul\":5758:5846   */\n      iszero\n      tag_385\n      jumpi\n        /* \"#utility.yul\":5826:5844   */\n      tag_386\n      tag_272\n      jump\t// in\n    tag_386:\n        /* \"#utility.yul\":5758:5846   */\n    tag_385:\n        /* \"#utility.yul\":5866:5876   */\n      dup1\n        /* \"#utility.yul\":5862:5864   */\n      0x40\n        /* \"#utility.yul\":5855:5877   */\n      mstore\n        /* \"#utility.yul\":5645:5883   */\n      pop\n        /* \"#utility.yul\":5602:5883   */\n      pop\n      pop\n      jump\t// out\n        /* \"#utility.yul\":5889:6018   */\n    tag_300:\n        /* \"#utility.yul\":5923:5929   */\n      0x00\n        /* \"#utility.yul\":5950:5970   */\n      tag_388\n      tag_281\n      jump\t// in\n    tag_388:\n        /* \"#utility.yul\":5940:5970   */\n      swap1\n      pop\n        /* \"#utility.yul\":5979:6012   */\n      tag_389\n        /* \"#utility.yul\":6007:6011   */\n      dup3\n        /* \"#utility.yul\":5999:6005   */\n      dup3\n        /* \"#utility.yul\":5979:6012   */\n      tag_299\n      jump\t// in\n    tag_389:\n        /* \"#utility.yul\":5889:6018   */\n      swap2\n      swap1\n      pop\n      jump\t// out\n        /* \"#utility.yul\":6147:6290   */\n    tag_302:\n        /* \"#utility.yul\":6204:6209   */\n      0x00\n        /* \"#utility.yul\":6235:6241   */\n      dup2\n        /* \"#utility.yul\":6229:6242   */\n      mload\n        /* \"#utility.yul\":6220:6242   */\n      swap1\n      pop\n        /* \"#utility.yul\":6251:6284   */\n      tag_392\n        /* \"#utility.yul\":6278:6283   */\n      dup2\n        /* \"#utility.yul\":6251:6284   */\n      tag_290\n      jump\t// in\n    tag_392:\n        /* \"#utility.yul\":6147:6290   */\n      swap3\n      swap2\n      pop\n      pop\n      jump\t// out\n        /* \"#utility.yul\":6330:6936   */\n    tag_303:\n        /* \"#utility.yul\":6411:6416   */\n      0x00\n        /* \"#utility.yul\":6455:6459   */\n      0x40\n        /* \"#utility.yul\":6443:6452   */\n      dup3\n        /* \"#utility.yul\":6438:6441   */\n      dup5\n        /* \"#utility.yul\":6434:6453   */\n      sub\n        /* \"#utility.yul\":6430:6460   */\n      slt\n        /* \"#utility.yul\":6427:6544   */\n      iszero\n      tag_394\n      jumpi\n        /* \"#utility.yul\":6463:6542   */\n      tag_395\n      tag_297\n      jump\t// in\n    tag_395:\n        /* \"#utility.yul\":6427:6544   */\n    tag_394:\n        /* \"#utility.yul\":6562:6583   */\n      tag_396\n        /* \"#utility.yul\":6578:6582   */\n      0x40\n        /* \"#utility.yul\":6562:6583   */\n      tag_300\n      jump\t// in\n    tag_396:\n        /* \"#utility.yul\":6553:6583   */\n      swap1\n      pop\n        /* \"#utility.yul\":6644:6645   */\n      0x00\n        /* \"#utility.yul\":6684:6744   */\n      tag_397\n        /* \"#utility.yul\":6740:6743   */\n      dup5\n        /* \"#utility.yul\":6731:6737   */\n      dup3\n        /* \"#utility.yul\":6720:6729   */\n      dup6\n        /* \"#utility.yul\":6716:6738   */\n      add\n        /* \"#utility.yul\":6684:6744   */\n      tag_302\n      jump\t// in\n    tag_397:\n        /* \"#utility.yul\":6677:6681   */\n      0x00\n        /* \"#utility.yul\":6670:6675   */\n      dup4\n        /* \"#utility.yul\":6666:6682   */\n      add\n        /* \"#utility.yul\":6659:6745   */\n      mstore\n        /* \"#utility.yul\":6593:6756   */\n      pop\n        /* \"#utility.yul\":6816:6818   */\n      0x20\n        /* \"#utility.yul\":6857:6917   */\n      tag_398\n        /* \"#utility.yul\":6913:6916   */\n      dup5\n        /* \"#utility.yul\":6904:6910   */\n      dup3\n        /* \"#utility.yul\":6893:6902   */\n      dup6\n        /* \"#utility.yul\":6889:6911   */\n      add\n        /* \"#utility.yul\":6857:6917   */\n      tag_302\n      jump\t// in\n    tag_398:\n        /* \"#utility.yul\":6850:6854   */\n      0x20\n        /* \"#utility.yul\":6843:6848   */\n      dup4\n        /* \"#utility.yul\":6839:6855   */\n      add\n        /* \"#utility.yul\":6832:6918   */\n      mstore\n        /* \"#utility.yul\":6766:6929   */\n      pop\n        /* \"#utility.yul\":6330:6936   */\n      swap3\n      swap2\n      pop\n      pop\n      jump\t// out\n        /* \"#utility.yul\":6942:7335   */\n    tag_115:\n        /* \"#utility.yul\":7033:7039   */\n      0x00\n        /* \"#utility.yul\":7082:7084   */\n      0x40\n        /* \"#utility.yul\":7070:7079   */\n      dup3\n        /* \"#utility.yul\":7061:7068   */\n      dup5\n        /* \"#utility.yul\":7057:7080   */\n      sub\n        /* \"#utility.yul\":7053:7085   */\n      slt\n        /* \"#utility.yul\":7050:7169   */\n      iszero\n      tag_400\n      jumpi\n        /* \"#utility.yul\":7088:7167   */\n      tag_401\n      tag_282\n      jump\t// in\n    tag_401:\n        /* \"#utility.yul\":7050:7169   */\n    tag_400:\n        /* \"#utility.yul\":7208:7209   */\n      0x00\n        /* \"#utility.yul\":7233:7318   */\n      tag_402\n        /* \"#utility.yul\":7310:7317   */\n      dup5\n        /* \"#utility.yul\":7301:7307   */\n      dup3\n        /* \"#utility.yul\":7290:7299   */\n      dup6\n        /* \"#utility.yul\":7286:7308   */\n      add\n        /* \"#utility.yul\":7233:7318   */\n      tag_303\n      jump\t// in\n    tag_402:\n        /* \"#utility.yul\":7223:7318   */\n      swap2\n      pop\n        /* \"#utility.yul\":7179:7328   */\n      pop\n        /* \"#utility.yul\":6942:7335   */\n      swap3\n      swap2\n      pop\n      pop\n      jump\t// out\n        /* \"#utility.yul\":7341:7507   */\n    tag_304:\n        /* \"#utility.yul\":7481:7499   */\n      0x496e636f727265637420416d6f756e7400000000000000000000000000000000\n        /* \"#utility.yul\":7477:7478   */\n      0x00\n        /* \"#utility.yul\":7469:7475   */\n      dup3\n        /* \"#utility.yul\":7465:7479   */\n      add\n        /* \"#utility.yul\":7458:7500   */\n      mstore\n        /* \"#utility.yul\":7341:7507   */\n      pop\n      jump\t// out\n        /* \"#utility.yul\":7513:7879   */\n    tag_305:\n        /* \"#utility.yul\":7655:7658   */\n      0x00\n        /* \"#utility.yul\":7676:7743   */\n      tag_405\n        /* \"#utility.yul\":7740:7742   */\n      0x10\n        /* \"#utility.yul\":7735:7738   */\n      dup4\n        /* \"#utility.yul\":7676:7743   */\n      tag_294\n      jump\t// in\n    tag_405:\n        /* \"#utility.yul\":7669:7743   */\n      swap2\n      pop\n        /* \"#utility.yul\":7752:7845   */\n      tag_406\n        /* \"#utility.yul\":7841:7844   */\n      dup3\n        /* \"#utility.yul\":7752:7845   */\n      tag_304\n      jump\t// in\n    tag_406:\n        /* \"#utility.yul\":7870:7872   */\n      0x20\n        /* \"#utility.yul\":7865:7868   */\n      dup3\n        /* \"#utility.yul\":7861:7873   */\n      add\n        /* \"#utility.yul\":7854:7873   */\n      swap1\n      pop\n        /* \"#utility.yul\":7513:7879   */\n      swap2\n      swap1\n      pop\n      jump\t// out\n        /* \"#utility.yul\":7885:8304   */\n    tag_119:\n        /* \"#utility.yul\":8051:8055   */\n      0x00\n        /* \"#utility.yul\":8089:8091   */\n      0x20\n        /* \"#utility.yul\":8078:8087   */\n      dup3\n        /* \"#utility.yul\":8074:8092   */\n      add\n        /* \"#utility.yul\":8066:8092   */\n      swap1\n      pop\n        /* \"#utility.yul\":8138:8147   */\n      dup2\n        /* \"#utility.yul\":8132:8136   */\n      dup2\n        /* \"#utility.yul\":8128:8148   */\n      sub\n        /* \"#utility.yul\":8124:8125   */\n      0x00\n        /* \"#utility.yul\":8113:8122   */\n      dup4\n        /* \"#utility.yul\":8109:8126   */\n      add\n        /* \"#utility.yul\":8102:8149   */\n      mstore\n        /* \"#utility.yul\":8166:8297   */\n      tag_408\n        /* \"#utility.yul\":8292:8296   */\n      dup2\n        /* \"#utility.yul\":8166:8297   */\n      tag_305\n      jump\t// in\n    tag_408:\n        /* \"#utility.yul\":8158:8297   */\n      swap1\n      pop\n        /* \"#utility.yul\":7885:8304   */\n      swap2\n      swap1\n      pop\n      jump\t// out\n        /* \"#utility.yul\":8310:8752   */\n    tag_155:\n        /* \"#utility.yul\":8459:8463   */\n      0x00\n        /* \"#utility.yul\":8497:8499   */\n      0x60\n        /* \"#utility.yul\":8486:8495   */\n      dup3\n        /* \"#utility.yul\":8482:8500   */\n      add\n        /* \"#utility.yul\":8474:8500   */\n      swap1\n      pop\n        /* \"#utility.yul\":8510:8581   */\n      tag_410\n        /* \"#utility.yul\":8578:8579   */\n      0x00\n        /* \"#utility.yul\":8567:8576   */\n      dup4\n        /* \"#utility.yul\":8563:8580   */\n      add\n        /* \"#utility.yul\":8554:8560   */\n      dup7\n        /* \"#utility.yul\":8510:8581   */\n      tag_288\n      jump\t// in\n    tag_410:\n        /* \"#utility.yul\":8591:8663   */\n      tag_411\n        /* \"#utility.yul\":8659:8661   */\n      0x20\n        /* \"#utility.yul\":8648:8657   */\n      dup4\n        /* \"#utility.yul\":8644:8662   */\n      add\n        /* \"#utility.yul\":8635:8641   */\n      dup6\n        /* \"#utility.yul\":8591:8663   */\n      tag_288\n      jump\t// in\n    tag_411:\n        /* \"#utility.yul\":8673:8745   */\n      tag_412\n        /* \"#utility.yul\":8741:8743   */\n      0x40\n        /* \"#utility.yul\":8730:8739   */\n      dup4\n        /* \"#utility.yul\":8726:8744   */\n      add\n        /* \"#utility.yul\":8717:8723   */\n      dup5\n        /* \"#utility.yul\":8673:8745   */\n      tag_292\n      jump\t// in\n    tag_412:\n        /* \"#utility.yul\":8310:8752   */\n      swap5\n      swap4\n      pop\n      pop\n      pop\n      pop\n      jump\t// out\n        /* \"#utility.yul\":8758:8848   */\n    tag_306:\n        /* \"#utility.yul\":8792:8799   */\n      0x00\n        /* \"#utility.yul\":8835:8840   */\n      dup2\n        /* \"#utility.yul\":8828:8841   */\n      iszero\n        /* \"#utility.yul\":8821:8842   */\n      iszero\n        /* \"#utility.yul\":8810:8842   */\n      swap1\n      pop\n        /* \"#utility.yul\":8758:8848   */\n      swap2\n      swap1\n      pop\n      jump\t// out\n        /* \"#utility.yul\":8854:8970   */\n    tag_307:\n        /* \"#utility.yul\":8924:8945   */\n      tag_415\n        /* \"#utility.yul\":8939:8944   */\n      dup2\n        /* \"#utility.yul\":8924:8945   */\n      tag_306\n      jump\t// in\n    tag_415:\n        /* \"#utility.yul\":8917:8922   */\n      dup2\n        /* \"#utility.yul\":8914:8946   */\n      eq\n        /* \"#utility.yul\":8904:8964   */\n      tag_416\n      jumpi\n        /* \"#utility.yul\":8960:8961   */\n      0x00\n        /* \"#utility.yul\":8957:8958   */\n      dup1\n        /* \"#utility.yul\":8950:8962   */\n      revert\n        /* \"#utility.yul\":8904:8964   */\n    tag_416:\n        /* \"#utility.yul\":8854:8970   */\n      pop\n      jump\t// out\n        /* \"#utility.yul\":8976:9113   */\n    tag_308:\n        /* \"#utility.yul\":9030:9035   */\n      0x00\n        /* \"#utility.yul\":9061:9067   */\n      dup2\n        /* \"#utility.yul\":9055:9068   */\n      mload\n        /* \"#utility.yul\":9046:9068   */\n      swap1\n      pop\n        /* \"#utility.yul\":9077:9107   */\n      tag_418\n        /* \"#utility.yul\":9101:9106   */\n      dup2\n        /* \"#utility.yul\":9077:9107   */\n      tag_307\n      jump\t// in\n    tag_418:\n        /* \"#utility.yul\":8976:9113   */\n      swap3\n      swap2\n      pop\n      pop\n      jump\t// out\n        /* \"#utility.yul\":9119:9464   */\n    tag_159:\n        /* \"#utility.yul\":9186:9192   */\n      0x00\n        /* \"#utility.yul\":9235:9237   */\n      0x20\n        /* \"#utility.yul\":9223:9232   */\n      dup3\n        /* \"#utility.yul\":9214:9221   */\n      dup5\n        /* \"#utility.yul\":9210:9233   */\n      sub\n        /* \"#utility.yul\":9206:9238   */\n      slt\n        /* \"#utility.yul\":9203:9322   */\n      iszero\n      tag_420\n      jumpi\n        /* \"#utility.yul\":9241:9320   */\n      tag_421\n      tag_282\n      jump\t// in\n    tag_421:\n        /* \"#utility.yul\":9203:9322   */\n    tag_420:\n        /* \"#utility.yul\":9361:9362   */\n      0x00\n        /* \"#utility.yul\":9386:9447   */\n      tag_422\n        /* \"#utility.yul\":9439:9446   */\n      dup5\n        /* \"#utility.yul\":9430:9436   */\n      dup3\n        /* \"#utility.yul\":9419:9428   */\n      dup6\n        /* \"#utility.yul\":9415:9437   */\n      add\n        /* \"#utility.yul\":9386:9447   */\n      tag_308\n      jump\t// in\n    tag_422:\n        /* \"#utility.yul\":9376:9447   */\n      swap2\n      pop\n        /* \"#utility.yul\":9332:9457   */\n      pop\n        /* \"#utility.yul\":9119:9464   */\n      swap3\n      swap2\n      pop\n      pop\n      jump\t// out\n        /* \"#utility.yul\":9470:9641   */\n    tag_309:\n        /* \"#utility.yul\":9610:9633   */\n      0x4e6f20616d6f756e7420746f2077697468647261770000000000000000000000\n        /* \"#utility.yul\":9606:9607   */\n      0x00\n        /* \"#utility.yul\":9598:9604   */\n      dup3\n        /* \"#utility.yul\":9594:9608   */\n      add\n        /* \"#utility.yul\":9587:9634   */\n      mstore\n        /* \"#utility.yul\":9470:9641   */\n      pop\n      jump\t// out\n        /* \"#utility.yul\":9647:10013   */\n    tag_310:\n        /* \"#utility.yul\":9789:9792   */\n      0x00\n        /* \"#utility.yul\":9810:9877   */\n      tag_425\n        /* \"#utility.yul\":9874:9876   */\n      0x15\n        /* \"#utility.yul\":9869:9872   */\n      dup4\n        /* \"#utility.yul\":9810:9877   */\n      tag_294\n      jump\t// in\n    tag_425:\n        /* \"#utility.yul\":9803:9877   */\n      swap2\n      pop\n        /* \"#utility.yul\":9886:9979   */\n      tag_426\n        /* \"#utility.yul\":9975:9978   */\n      dup3\n        /* \"#utility.yul\":9886:9979   */\n      tag_309\n      jump\t// in\n    tag_426:\n        /* \"#utility.yul\":10004:10006   */\n      0x20\n        /* \"#utility.yul\":9999:10002   */\n      dup3\n        /* \"#utility.yul\":9995:10007   */\n      add\n        /* \"#utility.yul\":9988:10007   */\n      swap1\n      pop\n        /* \"#utility.yul\":9647:10013   */\n      swap2\n      swap1\n      pop\n      jump\t// out\n        /* \"#utility.yul\":10019:10438   */\n    tag_176:\n        /* \"#utility.yul\":10185:10189   */\n      0x00\n        /* \"#utility.yul\":10223:10225   */\n      0x20\n        /* \"#utility.yul\":10212:10221   */\n      dup3\n        /* \"#utility.yul\":10208:10226   */\n      add\n        /* \"#utility.yul\":10200:10226   */\n      swap1\n      pop\n        /* \"#utility.yul\":10272:10281   */\n      dup2\n        /* \"#utility.yul\":10266:10270   */\n      dup2\n        /* \"#utility.yul\":10262:10282   */\n      sub\n        /* \"#utility.yul\":10258:10259   */\n      0x00\n        /* \"#utility.yul\":10247:10256   */\n      dup4\n        /* \"#utility.yul\":10243:10260   */\n      add\n        /* \"#utility.yul\":10236:10283   */\n      mstore\n        /* \"#utility.yul\":10300:10431   */\n      tag_428\n        /* \"#utility.yul\":10426:10430   */\n      dup2\n        /* \"#utility.yul\":10300:10431   */\n      tag_310\n      jump\t// in\n    tag_428:\n        /* \"#utility.yul\":10292:10431   */\n      swap1\n      pop\n        /* \"#utility.yul\":10019:10438   */\n      swap2\n      swap1\n      pop\n      jump\t// out\n        /* \"#utility.yul\":10444:10612   */\n    tag_311:\n        /* \"#utility.yul\":10584:10604   */\n      0x4e6f20416d6f756e7420746f2072657061790000000000000000000000000000\n        /* \"#utility.yul\":10580:10581   */\n      0x00\n        /* \"#utility.yul\":10572:10578   */\n      dup3\n        /* \"#utility.yul\":10568:10582   */\n      add\n        /* \"#utility.yul\":10561:10605   */\n      mstore\n        /* \"#utility.yul\":10444:10612   */\n      pop\n      jump\t// out\n        /* \"#utility.yul\":10618:10984   */\n    tag_312:\n        /* \"#utility.yul\":10760:10763   */\n      0x00\n        /* \"#utility.yul\":10781:10848   */\n      tag_431\n        /* \"#utility.yul\":10845:10847   */\n      0x12\n        /* \"#utility.yul\":10840:10843   */\n      dup4\n        /* \"#utility.yul\":10781:10848   */\n      tag_294\n      jump\t// in\n    tag_431:\n        /* \"#utility.yul\":10774:10848   */\n      swap2\n      pop\n        /* \"#utility.yul\":10857:10950   */\n      tag_432\n        /* \"#utility.yul\":10946:10949   */\n      dup3\n        /* \"#utility.yul\":10857:10950   */\n      tag_311\n      jump\t// in\n    tag_432:\n        /* \"#utility.yul\":10975:10977   */\n      0x20\n        /* \"#utility.yul\":10970:10973   */\n      dup3\n        /* \"#utility.yul\":10966:10978   */\n      add\n        /* \"#utility.yul\":10959:10978   */\n      swap1\n      pop\n        /* \"#utility.yul\":10618:10984   */\n      swap2\n      swap1\n      pop\n      jump\t// out\n        /* \"#utility.yul\":10990:11409   */\n    tag_203:\n        /* \"#utility.yul\":11156:11160   */\n      0x00\n        /* \"#utility.yul\":11194:11196   */\n      0x20\n        /* \"#utility.yul\":11183:11192   */\n      dup3\n        /* \"#utility.yul\":11179:11197   */\n      add\n        /* \"#utility.yul\":11171:11197   */\n      swap1\n      pop\n        /* \"#utility.yul\":11243:11252   */\n      dup2\n        /* \"#utility.yul\":11237:11241   */\n      dup2\n        /* \"#utility.yul\":11233:11253   */\n      sub\n        /* \"#utility.yul\":11229:11230   */\n      0x00\n        /* \"#utility.yul\":11218:11227   */\n      dup4\n        /* \"#utility.yul\":11214:11231   */\n      add\n        /* \"#utility.yul\":11207:11254   */\n      mstore\n        /* \"#utility.yul\":11271:11402   */\n      tag_434\n        /* \"#utility.yul\":11397:11401   */\n      dup2\n        /* \"#utility.yul\":11271:11402   */\n      tag_312\n      jump\t// in\n    tag_434:\n        /* \"#utility.yul\":11263:11402   */\n      swap1\n      pop\n        /* \"#utility.yul\":10990:11409   */\n      swap2\n      swap1\n      pop\n      jump\t// out\n        /* \"#utility.yul\":11415:11586   */\n    tag_313:\n        /* \"#utility.yul\":11555:11578   */\n      0x496e636f727265637420616d6f756e742073656e740000000000000000000000\n        /* \"#utility.yul\":11551:11552   */\n      0x00\n        /* \"#utility.yul\":11543:11549   */\n      dup3\n        /* \"#utility.yul\":11539:11553   */\n      add\n        /* \"#utility.yul\":11532:11579   */\n      mstore\n        /* \"#utility.yul\":11415:11586   */\n      pop\n      jump\t// out\n        /* \"#utility.yul\":11592:11958   */\n    tag_314:\n        /* \"#utility.yul\":11734:11737   */\n      0x00\n        /* \"#utility.yul\":11755:11822   */\n      tag_437\n        /* \"#utility.yul\":11819:11821   */\n      0x15\n        /* \"#utility.yul\":11814:11817   */\n      dup4\n        /* \"#utility.yul\":11755:11822   */\n      tag_294\n      jump\t// in\n    tag_437:\n        /* \"#utility.yul\":11748:11822   */\n      swap2\n      pop\n        /* \"#utility.yul\":11831:11924   */\n      tag_438\n        /* \"#utility.yul\":11920:11923   */\n      dup3\n        /* \"#utility.yul\":11831:11924   */\n      tag_313\n      jump\t// in\n    tag_438:\n        /* \"#utility.yul\":11949:11951   */\n      0x20\n        /* \"#utility.yul\":11944:11947   */\n      dup3\n        /* \"#utility.yul\":11940:11952   */\n      add\n        /* \"#utility.yul\":11933:11952   */\n      swap1\n      pop\n        /* \"#utility.yul\":11592:11958   */\n      swap2\n      swap1\n      pop\n      jump\t// out\n        /* \"#utility.yul\":11964:12383   */\n    tag_241:\n        /* \"#utility.yul\":12130:12134   */\n      0x00\n        /* \"#utility.yul\":12168:12170   */\n      0x20\n        /* \"#utility.yul\":12157:12166   */\n      dup3\n        /* \"#utility.yul\":12153:12171   */\n      add\n        /* \"#utility.yul\":12145:12171   */\n      swap1\n      pop\n        /* \"#utility.yul\":12217:12226   */\n      dup2\n        /* \"#utility.yul\":12211:12215   */\n      dup2\n        /* \"#utility.yul\":12207:12227   */\n      sub\n        /* \"#utility.yul\":12203:12204   */\n      0x00\n        /* \"#utility.yul\":12192:12201   */\n      dup4\n        /* \"#utility.yul\":12188:12205   */\n      add\n        /* \"#utility.yul\":12181:12228   */\n      mstore\n        /* \"#utility.yul\":12245:12376   */\n      tag_440\n        /* \"#utility.yul\":12371:12375   */\n      dup2\n        /* \"#utility.yul\":12245:12376   */\n      tag_314\n      jump\t// in\n    tag_440:\n        /* \"#utility.yul\":12237:12376   */\n      swap1\n      pop\n        /* \"#utility.yul\":11964:12383   */\n      swap2\n      swap1\n      pop\n      jump\t// out\n        /* \"#utility.yul\":12389:12740   */\n    tag_254:\n        /* \"#utility.yul\":12459:12465   */\n      0x00\n        /* \"#utility.yul\":12508:12510   */\n      0x20\n        /* \"#utility.yul\":12496:12505   */\n      dup3\n        /* \"#utility.yul\":12487:12494   */\n      dup5\n        /* \"#utility.yul\":12483:12506   */\n      sub\n        /* \"#utility.yul\":12479:12511   */\n      slt\n        /* \"#utility.yul\":12476:12595   */\n      iszero\n      tag_442\n      jumpi\n        /* \"#utility.yul\":12514:12593   */\n      tag_443\n      tag_282\n      jump\t// in\n    tag_443:\n        /* \"#utility.yul\":12476:12595   */\n    tag_442:\n        /* \"#utility.yul\":12634:12635   */\n      0x00\n        /* \"#utility.yul\":12659:12723   */\n      tag_444\n        /* \"#utility.yul\":12715:12722   */\n      dup5\n        /* \"#utility.yul\":12706:12712   */\n      dup3\n        /* \"#utility.yul\":12695:12704   */\n      dup6\n        /* \"#utility.yul\":12691:12713   */\n      add\n        /* \"#utility.yul\":12659:12723   */\n      tag_302\n      jump\t// in\n    tag_444:\n        /* \"#utility.yul\":12649:12723   */\n      swap2\n      pop\n        /* \"#utility.yul\":12605:12733   */\n      pop\n        /* \"#utility.yul\":12389:12740   */\n      swap3\n      swap2\n      pop\n      pop\n      jump\t// out\n        /* \"#utility.yul\":12746:13078   */\n    tag_257:\n        /* \"#utility.yul\":12867:12871   */\n      0x00\n        /* \"#utility.yul\":12905:12907   */\n      0x40\n        /* \"#utility.yul\":12894:12903   */\n      dup3\n        /* \"#utility.yul\":12890:12908   */\n      add\n        /* \"#utility.yul\":12882:12908   */\n      swap1\n      pop\n        /* \"#utility.yul\":12918:12989   */\n      tag_446\n        /* \"#utility.yul\":12986:12987   */\n      0x00\n        /* \"#utility.yul\":12975:12984   */\n      dup4\n        /* \"#utility.yul\":12971:12988   */\n      add\n        /* \"#utility.yul\":12962:12968   */\n      dup6\n        /* \"#utility.yul\":12918:12989   */\n      tag_288\n      jump\t// in\n    tag_446:\n        /* \"#utility.yul\":12999:13071   */\n      tag_447\n        /* \"#utility.yul\":13067:13069   */\n      0x20\n        /* \"#utility.yul\":13056:13065   */\n      dup4\n        /* \"#utility.yul\":13052:13070   */\n      add\n        /* \"#utility.yul\":13043:13049   */\n      dup5\n        /* \"#utility.yul\":12999:13071   */\n      tag_292\n      jump\t// in\n    tag_447:\n        /* \"#utility.yul\":12746:13078   */\n      swap4\n      swap3\n      pop\n      pop\n      pop\n      jump\t// out\n        /* \"#utility.yul\":13084:13182   */\n    tag_315:\n        /* \"#utility.yul\":13135:13141   */\n      0x00\n        /* \"#utility.yul\":13169:13174   */\n      dup2\n        /* \"#utility.yul\":13163:13175   */\n      mload\n        /* \"#utility.yul\":13153:13175   */\n      swap1\n      pop\n        /* \"#utility.yul\":13084:13182   */\n      swap2\n      swap1\n      pop\n      jump\t// out\n        /* \"#utility.yul\":13188:13335   */\n    tag_316:\n        /* \"#utility.yul\":13289:13300   */\n      0x00\n        /* \"#utility.yul\":13326:13329   */\n      dup2\n        /* \"#utility.yul\":13311:13329   */\n      swap1\n      pop\n        /* \"#utility.yul\":13188:13335   */\n      swap3\n      swap2\n      pop\n      pop\n      jump\t// out\n        /* \"#utility.yul\":13341:13648   */\n    tag_317:\n        /* \"#utility.yul\":13409:13410   */\n      0x00\n        /* \"#utility.yul\":13419:13532   */\n    tag_451:\n        /* \"#utility.yul\":13433:13439   */\n      dup4\n        /* \"#utility.yul\":13430:13431   */\n      dup2\n        /* \"#utility.yul\":13427:13440   */\n      lt\n        /* \"#utility.yul\":13419:13532   */\n      iszero\n      tag_453\n      jumpi\n        /* \"#utility.yul\":13518:13519   */\n      dup1\n        /* \"#utility.yul\":13513:13516   */\n      dup3\n        /* \"#utility.yul\":13509:13520   */\n      add\n        /* \"#utility.yul\":13503:13521   */\n      mload\n        /* \"#utility.yul\":13499:13500   */\n      dup2\n        /* \"#utility.yul\":13494:13497   */\n      dup5\n        /* \"#utility.yul\":13490:13501   */\n      add\n        /* \"#utility.yul\":13483:13522   */\n      mstore\n        /* \"#utility.yul\":13455:13457   */\n      0x20\n        /* \"#utility.yul\":13452:13453   */\n      dup2\n        /* \"#utility.yul\":13448:13458   */\n      add\n        /* \"#utility.yul\":13443:13458   */\n      swap1\n      pop\n        /* \"#utility.yul\":13419:13532   */\n      jump(tag_451)\n    tag_453:\n        /* \"#utility.yul\":13550:13556   */\n      dup4\n        /* \"#utility.yul\":13547:13548   */\n      dup2\n        /* \"#utility.yul\":13544:13557   */\n      gt\n        /* \"#utility.yul\":13541:13642   */\n      iszero\n      tag_454\n      jumpi\n        /* \"#utility.yul\":13630:13631   */\n      0x00\n        /* \"#utility.yul\":13621:13627   */\n      dup5\n        /* \"#utility.yul\":13616:13619   */\n      dup5\n        /* \"#utility.yul\":13612:13628   */\n      add\n        /* \"#utility.yul\":13605:13632   */\n      mstore\n        /* \"#utility.yul\":13541:13642   */\n    tag_454:\n        /* \"#utility.yul\":13390:13648   */\n      pop\n        /* \"#utility.yul\":13341:13648   */\n      pop\n      pop\n      pop\n      jump\t// out\n        /* \"#utility.yul\":13654:14027   */\n    tag_318:\n        /* \"#utility.yul\":13758:13761   */\n      0x00\n        /* \"#utility.yul\":13786:13824   */\n      tag_456\n        /* \"#utility.yul\":13818:13823   */\n      dup3\n        /* \"#utility.yul\":13786:13824   */\n      tag_315\n      jump\t// in\n    tag_456:\n        /* \"#utility.yul\":13840:13928   */\n      tag_457\n        /* \"#utility.yul\":13921:13927   */\n      dup2\n        /* \"#utility.yul\":13916:13919   */\n      dup6\n        /* \"#utility.yul\":13840:13928   */\n      tag_316\n      jump\t// in\n    tag_457:\n        /* \"#utility.yul\":13833:13928   */\n      swap4\n      pop\n        /* \"#utility.yul\":13937:13989   */\n      tag_458\n        /* \"#utility.yul\":13982:13988   */\n      dup2\n        /* \"#utility.yul\":13977:13980   */\n      dup6\n        /* \"#utility.yul\":13970:13974   */\n      0x20\n        /* \"#utility.yul\":13963:13968   */\n      dup7\n        /* \"#utility.yul\":13959:13975   */\n      add\n        /* \"#utility.yul\":13937:13989   */\n      tag_317\n      jump\t// in\n    tag_458:\n        /* \"#utility.yul\":14014:14020   */\n      dup1\n        /* \"#utility.yul\":14009:14012   */\n      dup5\n        /* \"#utility.yul\":14005:14021   */\n      add\n        /* \"#utility.yul\":13998:14021   */\n      swap2\n      pop\n        /* \"#utility.yul\":13762:14027   */\n      pop\n        /* \"#utility.yul\":13654:14027   */\n      swap3\n      swap2\n      pop\n      pop\n      jump\t// out\n        /* \"#utility.yul\":14033:14304   */\n    tag_259:\n        /* \"#utility.yul\":14163:14166   */\n      0x00\n        /* \"#utility.yul\":14185:14278   */\n      tag_460\n        /* \"#utility.yul\":14274:14277   */\n      dup3\n        /* \"#utility.yul\":14265:14271   */\n      dup5\n        /* \"#utility.yul\":14185:14278   */\n      tag_318\n      jump\t// in\n    tag_460:\n        /* \"#utility.yul\":14178:14278   */\n      swap2\n      pop\n        /* \"#utility.yul\":14295:14298   */\n      dup2\n        /* \"#utility.yul\":14288:14298   */\n      swap1\n      pop\n        /* \"#utility.yul\":14033:14304   */\n      swap3\n      swap2\n      pop\n      pop\n      jump\t// out\n        /* \"#utility.yul\":14310:14542   */\n    tag_319:\n        /* \"#utility.yul\":14450:14484   */\n      0x5472616e7366657248656c7065723a3a736166655472616e736665723a207472\n        /* \"#utility.yul\":14446:14447   */\n      0x00\n        /* \"#utility.yul\":14438:14444   */\n      dup3\n        /* \"#utility.yul\":14434:14448   */\n      add\n        /* \"#utility.yul\":14427:14485   */\n      mstore\n        /* \"#utility.yul\":14519:14534   */\n      0x616e73666572206661696c656400000000000000000000000000000000000000\n        /* \"#utility.yul\":14514:14516   */\n      0x20\n        /* \"#utility.yul\":14506:14512   */\n      dup3\n        /* \"#utility.yul\":14502:14517   */\n      add\n        /* \"#utility.yul\":14495:14535   */\n      mstore\n        /* \"#utility.yul\":14310:14542   */\n      pop\n      jump\t// out\n        /* \"#utility.yul\":14548:14914   */\n    tag_320:\n        /* \"#utility.yul\":14690:14693   */\n      0x00\n        /* \"#utility.yul\":14711:14778   */\n      tag_463\n        /* \"#utility.yul\":14775:14777   */\n      0x2d\n        /* \"#utility.yul\":14770:14773   */\n      dup4\n        /* \"#utility.yul\":14711:14778   */\n      tag_294\n      jump\t// in\n    tag_463:\n        /* \"#utility.yul\":14704:14778   */\n      swap2\n      pop\n        /* \"#utility.yul\":14787:14880   */\n      tag_464\n        /* \"#utility.yul\":14876:14879   */\n      dup3\n        /* \"#utility.yul\":14787:14880   */\n      tag_319\n      jump\t// in\n    tag_464:\n        /* \"#utility.yul\":14905:14907   */\n      0x40\n        /* \"#utility.yul\":14900:14903   */\n      dup3\n        /* \"#utility.yul\":14896:14908   */\n      add\n        /* \"#utility.yul\":14889:14908   */\n      swap1\n      pop\n        /* \"#utility.yul\":14548:14914   */\n      swap2\n      swap1\n      pop\n      jump\t// out\n        /* \"#utility.yul\":14920:15339   */\n    tag_268:\n        /* \"#utility.yul\":15086:15090   */\n      0x00\n        /* \"#utility.yul\":15124:15126   */\n      0x20\n        /* \"#utility.yul\":15113:15122   */\n      dup3\n        /* \"#utility.yul\":15109:15127   */\n      add\n        /* \"#utility.yul\":15101:15127   */\n      swap1\n      pop\n        /* \"#utility.yul\":15173:15182   */\n      dup2\n        /* \"#utility.yul\":15167:15171   */\n      dup2\n        /* \"#utility.yul\":15163:15183   */\n      sub\n        /* \"#utility.yul\":15159:15160   */\n      0x00\n        /* \"#utility.yul\":15148:15157   */\n      dup4\n        /* \"#utility.yul\":15144:15161   */\n      add\n        /* \"#utility.yul\":15137:15184   */\n      mstore\n        /* \"#utility.yul\":15201:15332   */\n      tag_466\n        /* \"#utility.yul\":15327:15331   */\n      dup2\n        /* \"#utility.yul\":15201:15332   */\n      tag_320\n      jump\t// in\n    tag_466:\n        /* \"#utility.yul\":15193:15332   */\n      swap1\n      pop\n        /* \"#utility.yul\":14920:15339   */\n      swap2\n      swap1\n      pop\n      jump\t// out\n        /* \"#utility.yul\":15345:15584   */\n    tag_321:\n        /* \"#utility.yul\":15485:15519   */\n      0x5472616e7366657248656c7065723a3a736166655472616e736665724554483a\n        /* \"#utility.yul\":15481:15482   */\n      0x00\n        /* \"#utility.yul\":15473:15479   */\n      dup3\n        /* \"#utility.yul\":15469:15483   */\n      add\n        /* \"#utility.yul\":15462:15520   */\n      mstore\n        /* \"#utility.yul\":15554:15576   */\n      0x20455448207472616e73666572206661696c6564000000000000000000000000\n        /* \"#utility.yul\":15549:15551   */\n      0x20\n        /* \"#utility.yul\":15541:15547   */\n      dup3\n        /* \"#utility.yul\":15537:15552   */\n      add\n        /* \"#utility.yul\":15530:15577   */\n      mstore\n        /* \"#utility.yul\":15345:15584   */\n      pop\n      jump\t// out\n        /* \"#utility.yul\":15590:15956   */\n    tag_322:\n        /* \"#utility.yul\":15732:15735   */\n      0x00\n        /* \"#utility.yul\":15753:15820   */\n      tag_469\n        /* \"#utility.yul\":15817:15819   */\n      0x34\n        /* \"#utility.yul\":15812:15815   */\n      dup4\n        /* \"#utility.yul\":15753:15820   */\n      tag_294\n      jump\t// in\n    tag_469:\n        /* \"#utility.yul\":15746:15820   */\n      swap2\n      pop\n        /* \"#utility.yul\":15829:15922   */\n      tag_470\n        /* \"#utility.yul\":15918:15921   */\n      dup3\n        /* \"#utility.yul\":15829:15922   */\n      tag_321\n      jump\t// in\n    tag_470:\n        /* \"#utility.yul\":15947:15949   */\n      0x40\n        /* \"#utility.yul\":15942:15945   */\n      dup3\n        /* \"#utility.yul\":15938:15950   */\n      add\n        /* \"#utility.yul\":15931:15950   */\n      swap1\n      pop\n        /* \"#utility.yul\":15590:15956   */\n      swap2\n      swap1\n      pop\n      jump\t// out\n        /* \"#utility.yul\":15962:16381   */\n    tag_280:\n        /* \"#utility.yul\":16128:16132   */\n      0x00\n        /* \"#utility.yul\":16166:16168   */\n      0x20\n        /* \"#utility.yul\":16155:16164   */\n      dup3\n        /* \"#utility.yul\":16151:16169   */\n      add\n        /* \"#utility.yul\":16143:16169   */\n      swap1\n      pop\n        /* \"#utility.yul\":16215:16224   */\n      dup2\n        /* \"#utility.yul\":16209:16213   */\n      dup2\n        /* \"#utility.yul\":16205:16225   */\n      sub\n        /* \"#utility.yul\":16201:16202   */\n      0x00\n        /* \"#utility.yul\":16190:16199   */\n      dup4\n        /* \"#utility.yul\":16186:16203   */\n      add\n        /* \"#utility.yul\":16179:16226   */\n      mstore\n        /* \"#utility.yul\":16243:16374   */\n      tag_472\n        /* \"#utility.yul\":16369:16373   */\n      dup2\n        /* \"#utility.yul\":16243:16374   */\n      tag_322\n      jump\t// in\n    tag_472:\n        /* \"#utility.yul\":16235:16374   */\n      swap1\n      pop\n        /* \"#utility.yul\":15962:16381   */\n      swap2\n      swap1\n      pop\n      jump\t// out\n\n    auxdata: 0xa2646970667358221220d02e222a4e21196fbaf55a61d0aa475653511bdc2cdd1a16ae42708a795af15664736f6c634300080e0033\n}\n",
				"bytecode": {
					"linkReferences": {},
					"object": "60c06040523480156200001157600080fd5b50604051620023b8380380620023b8833981810160405281019062000037919062000111565b8173ffffffffffffffffffffffffffffffffffffffff1660808173ffffffffffffffffffffffffffffffffffffffff16815250508073ffffffffffffffffffffffffffffffffffffffff1660a08173ffffffffffffffffffffffffffffffffffffffff1681525050505062000158565b600080fd5b600073ffffffffffffffffffffffffffffffffffffffff82169050919050565b6000620000d982620000ac565b9050919050565b620000eb81620000cc565b8114620000f757600080fd5b50565b6000815190506200010b81620000e0565b92915050565b600080604083850312156200012b576200012a620000a7565b5b60006200013b85828601620000fa565b92505060206200014e85828601620000fa565b9150509250929050565b60805160a0516121ca620001ee6000396000818161068f015281816106b70152818161073b0152818161080a01528181610833015281816109bc01528181610abe01528181610b5f01528181611108015281816112c301528181611364015281816114020152818161159f01528181611623015261173201526000818161036e01528181610d9701526110df01526121ca6000f3fe6080604052600436106100e85760003560e01c80639049f9d21161008a578063e086e5ec11610059578063e086e5ec146102e1578063eecbcda0146102f8578063f8b2cb4f14610302578063fd08c30c1461033f576100e8565b80639049f9d214610227578063987242e914610250578063bbfb286b1461028d578063c45a0155146102b6576100e8565b80635358fbda116100c65780635358fbda146101905780635a91b39c146101ac5780637b2af625146101d557806389476069146101fe576100e8565b80631228cbee146100ed578063338b5dea1461012a57806338bad5e514610153575b600080fd5b3480156100f957600080fd5b50610114600480360381019061010f91906119f7565b61036a565b6040516101219190611a33565b60405180910390f35b34801561013657600080fd5b50610151600480360381019061014c9190611a84565b61040d565b005b34801561015f57600080fd5b5061017a60048036038101906101759190611ac4565b610543565b6040516101879190611b13565b60405180910390f35b6101aa60048036038101906101a59190611b2e565b610646565b005b3480156101b857600080fd5b506101d360048036038101906101ce9190611a84565b6108c9565b005b3480156101e157600080fd5b506101fc60048036038101906101f79190611b2e565b6109b5565b005b34801561020a57600080fd5b50610225600480360381019061022091906119f7565b610bf6565b005b34801561023357600080fd5b5061024e600480360381019061024991906119f7565b610d95565b005b34801561025c57600080fd5b5061027760048036038101906102729190611ac4565b610e35565b6040516102849190611b13565b60405180910390f35b34801561029957600080fd5b506102b460048036038101906102af91906119f7565b610f38565b005b3480156102c257600080fd5b506102cb6110dd565b6040516102d89190611a33565b60405180910390f35b3480156102ed57600080fd5b506102f6611101565b005b6103006113fb565b005b34801561030e57600080fd5b50610329600480360381019061032491906119f7565b6116ad565b6040516103369190611b13565b60405180910390f35b34801561034b57600080fd5b50610354611730565b6040516103619190611a33565b60405180910390f35b60007f000000000000000000000000000000000000000000000000000000000000000073ffffffffffffffffffffffffffffffffffffffff1663bbe4f6db836040518263ffffffff1660e01b81526004016103c59190611a33565b602060405180830381865afa1580156103e2573d6000803e3d6000fd5b505050506040513d601f19601f820116820180604052508101906104069190611b70565b9050919050565b60006104188361036a565b9050600073ffffffffffffffffffffffffffffffffffffffff168173ffffffffffffffffffffffffffffffffffffffff16146104be578073ffffffffffffffffffffffffffffffffffffffff1663b6b55f25836040518263ffffffff1660e01b81526004016104879190611b13565b600060405180830381600087803b1580156104a157600080fd5b505af11580156104b5573d6000803e3d6000fd5b5050505061053e565b6104c783610d95565b6104d08361036a565b90508073ffffffffffffffffffffffffffffffffffffffff1663b6b55f25836040518263ffffffff1660e01b815260040161050b9190611b13565b600060405180830381600087803b15801561052557600080fd5b505af1158015610539573d6000803e3d6000fd5b505050505b505050565b60008061054f8461036a565b9050600073ffffffffffffffffffffffffffffffffffffffff168173ffffffffffffffffffffffffffffffffffffffff16036105c0576040517f08c379a00000000000000000000000000000000000000000000000000000000081526004016105b790611bfa565b60405180910390fd5b8073ffffffffffffffffffffffffffffffffffffffff16638d113a7f846040518263ffffffff1660e01b81526004016105f99190611a33565b6040805180830381865afa158015610615573d6000803e3d6000fd5b505050506040513d601f19601f820116820180604052508101906106399190611d10565b6000015191505092915050565b348114610688576040517f08c379a000000000000000000000000000000000000000000000000000000000815260040161067f90611d89565b60405180910390fd5b60006106b37f000000000000000000000000000000000000000000000000000000000000000061036a565b90507f000000000000000000000000000000000000000000000000000000000000000073ffffffffffffffffffffffffffffffffffffffff1663d0e30db0346040518263ffffffff1660e01b81526004016000604051808303818588803b15801561071d57600080fd5b505af1158015610731573d6000803e3d6000fd5b50505050506107617f00000000000000000000000000000000000000000000000000000000000000003334611754565b600073ffffffffffffffffffffffffffffffffffffffff168173ffffffffffffffffffffffffffffffffffffffff1614610805578073ffffffffffffffffffffffffffffffffffffffff1663b6b55f25836040518263ffffffff1660e01b81526004016107ce9190611b13565b600060405180830381600087803b1580156107e857600080fd5b505af11580156107fc573d6000803e3d6000fd5b505050506108c5565b61082e7f0000000000000000000000000000000000000000000000000000000000000000610d95565b6108577f000000000000000000000000000000000000000000000000000000000000000061036a565b90508073ffffffffffffffffffffffffffffffffffffffff1663b6b55f25836040518263ffffffff1660e01b81526004016108929190611b13565b600060405180830381600087803b1580156108ac57600080fd5b505af11580156108c0573d6000803e3d6000fd5b505050505b5050565b60006108d48361036a565b9050600073ffffffffffffffffffffffffffffffffffffffff168173ffffffffffffffffffffffffffffffffffffffff1603610945576040517f08c379a000000000000000000000000000000000000000000000000000000000815260040161093c90611bfa565b60405180910390fd5b8073ffffffffffffffffffffffffffffffffffffffff1663c5ebeaec836040518263ffffffff1660e01b815260040161097e9190611b13565b600060405180830381600087803b15801561099857600080fd5b505af11580156109ac573d6000803e3d6000fd5b50505050505050565b60006109e07f000000000000000000000000000000000000000000000000000000000000000061036a565b9050600073ffffffffffffffffffffffffffffffffffffffff168173ffffffffffffffffffffffffffffffffffffffff1603610a51576040517f08c379a0000000000000000000000000000000000000000000000000000000008152600401610a4890611bfa565b60405180910390fd5b8073ffffffffffffffffffffffffffffffffffffffff1663c5ebeaec836040518263ffffffff1660e01b8152600401610a8a9190611b13565b600060405180830381600087803b158015610aa457600080fd5b505af1158015610ab8573d6000803e3d6000fd5b505050507f000000000000000000000000000000000000000000000000000000000000000073ffffffffffffffffffffffffffffffffffffffff166323b872dd3330856040518463ffffffff1660e01b8152600401610b1993929190611da9565b6020604051808303816000875af1158015610b38573d6000803e3d6000fd5b505050506040513d601f19601f82011682018060405250810190610b5c9190611e18565b507f000000000000000000000000000000000000000000000000000000000000000073ffffffffffffffffffffffffffffffffffffffff16632e1a7d4d836040518263ffffffff1660e01b8152600401610bb69190611b13565b600060405180830381600087803b158015610bd057600080fd5b505af1158015610be4573d6000803e3d6000fd5b50505050610bf2338361188a565b5050565b6000610c018261036a565b9050600073ffffffffffffffffffffffffffffffffffffffff168173ffffffffffffffffffffffffffffffffffffffff1603610c72576040517f08c379a0000000000000000000000000000000000000000000000000000000008152600401610c6990611bfa565b60405180910390fd5b60008173ffffffffffffffffffffffffffffffffffffffff16631c78da26336040518263ffffffff1660e01b8152600401610cad9190611a33565b6040805180830381865afa158015610cc9573d6000803e3d6000fd5b505050506040513d601f19601f82011682018060405250810190610ced9190611d10565b6000015111610d31576040517f08c379a0000000000000000000000000000000000000000000000000000000008152600401610d2890611e91565b60405180910390fd5b8073ffffffffffffffffffffffffffffffffffffffff16633ccfd60b6040518163ffffffff1660e01b8152600401600060405180830381600087803b158015610d7957600080fd5b505af1158015610d8d573d6000803e3d6000fd5b505050505050565b7f000000000000000000000000000000000000000000000000000000000000000073ffffffffffffffffffffffffffffffffffffffff16639049f9d2826040518263ffffffff1660e01b8152600401610dee9190611a33565b6020604051808303816000875af1158015610e0d573d6000803e3d6000fd5b505050506040513d601f19601f82011682018060405250810190610e319190611b70565b5050565b600080610e418461036a565b9050600073ffffffffffffffffffffffffffffffffffffffff168173ffffffffffffffffffffffffffffffffffffffff1603610eb2576040517f08c379a0000000000000000000000000000000000000000000000000000000008152600401610ea990611bfa565b60405180910390fd5b8073ffffffffffffffffffffffffffffffffffffffff16631c78da26846040518263ffffffff1660e01b8152600401610eeb9190611a33565b6040805180830381865afa158015610f07573d6000803e3d6000fd5b505050506040513d601f19601f82011682018060405250810190610f2b9190611d10565b6000015191505092915050565b6000610f438261036a565b9050600073ffffffffffffffffffffffffffffffffffffffff168173ffffffffffffffffffffffffffffffffffffffff1603610fb4576040517f08c379a0000000000000000000000000000000000000000000000000000000008152600401610fab90611bfa565b60405180910390fd5b60008173ffffffffffffffffffffffffffffffffffffffff16638d113a7f336040518263ffffffff1660e01b8152600401610fef9190611a33565b6040805180830381865afa15801561100b573d6000803e3d6000fd5b505050506040513d601f19601f8201168201806040525081019061102f9190611d10565b60000151905060008111611078576040517f08c379a000000000000000000000000000000000000000000000000000000000815260040161106f90611efd565b60405180910390fd5b8173ffffffffffffffffffffffffffffffffffffffff1663402d88836040518163ffffffff1660e01b8152600401600060405180830381600087803b1580156110c057600080fd5b505af11580156110d4573d6000803e3d6000fd5b50505050505050565b7f000000000000000000000000000000000000000000000000000000000000000081565b600061112c7f000000000000000000000000000000000000000000000000000000000000000061036a565b9050600073ffffffffffffffffffffffffffffffffffffffff168173ffffffffffffffffffffffffffffffffffffffff160361119d576040517f08c379a000000000000000000000000000000000000000000000000000000000815260040161119490611bfa565b60405180910390fd5b60008173ffffffffffffffffffffffffffffffffffffffff16631c78da26336040518263ffffffff1660e01b81526004016111d89190611a33565b6040805180830381865afa1580156111f4573d6000803e3d6000fd5b505050506040513d601f19601f820116820180604052508101906112189190611d10565b60000151905060008111611261576040517f08c379a000000000000000000000000000000000000000000000000000000000815260040161125890611e91565b60405180910390fd5b8173ffffffffffffffffffffffffffffffffffffffff16633ccfd60b6040518163ffffffff1660e01b8152600401600060405180830381600087803b1580156112a957600080fd5b505af11580156112bd573d6000803e3d6000fd5b505050507f000000000000000000000000000000000000000000000000000000000000000073ffffffffffffffffffffffffffffffffffffffff166323b872dd3330846040518463ffffffff1660e01b815260040161131e93929190611da9565b6020604051808303816000875af115801561133d573d6000803e3d6000fd5b505050506040513d601f19601f820116820180604052508101906113619190611e18565b507f000000000000000000000000000000000000000000000000000000000000000073ffffffffffffffffffffffffffffffffffffffff16632e1a7d4d826040518263ffffffff1660e01b81526004016113bb9190611b13565b600060405180830381600087803b1580156113d557600080fd5b505af11580156113e9573d6000803e3d6000fd5b505050506113f7338261188a565b5050565b60006114267f000000000000000000000000000000000000000000000000000000000000000061036a565b9050600073ffffffffffffffffffffffffffffffffffffffff168173ffffffffffffffffffffffffffffffffffffffff1603611497576040517f08c379a000000000000000000000000000000000000000000000000000000000815260040161148e90611bfa565b60405180910390fd5b60008173ffffffffffffffffffffffffffffffffffffffff16638d113a7f336040518263ffffffff1660e01b81526004016114d29190611a33565b6040805180830381865afa1580156114ee573d6000803e3d6000fd5b505050506040513d601f19601f820116820180604052508101906115129190611d10565b6000015190506000811161155b576040517f08c379a000000000000000000000000000000000000000000000000000000000815260040161155290611efd565b60405180910390fd5b80341461159d576040517f08c379a000000000000000000000000000000000000000000000000000000000815260040161159490611f69565b60405180910390fd5b7f000000000000000000000000000000000000000000000000000000000000000073ffffffffffffffffffffffffffffffffffffffff1663d0e30db0346040518263ffffffff1660e01b81526004016000604051808303818588803b15801561160557600080fd5b505af1158015611619573d6000803e3d6000fd5b50505050506116497f00000000000000000000000000000000000000000000000000000000000000003334611754565b8173ffffffffffffffffffffffffffffffffffffffff1663402d88836040518163ffffffff1660e01b8152600401600060405180830381600087803b15801561169157600080fd5b505af11580156116a5573d6000803e3d6000fd5b505050505050565b60008173ffffffffffffffffffffffffffffffffffffffff166370a08231336040518263ffffffff1660e01b81526004016116e89190611a33565b602060405180830381865afa158015611705573d6000803e3d6000fd5b505050506040513d601f19601f820116820180604052508101906117299190611f89565b9050919050565b7f000000000000000000000000000000000000000000000000000000000000000081565b6000808473ffffffffffffffffffffffffffffffffffffffff1663a9059cbb8585604051602401611786929190611fb6565b6040516020818303038152906040529060e01b6020820180517bffffffffffffffffffffffffffffffffffffffffffffffffffffffff83818316178352505050506040516117d49190612059565b6000604051808303816000865af19150503d8060008114611811576040519150601f19603f3d011682016040523d82523d6000602084013e611816565b606091505b509150915081801561184457506000815114806118435750808060200190518101906118429190611e18565b5b5b611883576040517f08c379a000000000000000000000000000000000000000000000000000000000815260040161187a906120e2565b60405180910390fd5b5050505050565b60008273ffffffffffffffffffffffffffffffffffffffff1682600067ffffffffffffffff8111156118bf576118be611c30565b5b6040519080825280601f01601f1916602001820160405280156118f15781602001600182028036833780820191505090505b506040516118ff9190612059565b60006040518083038185875af1925050503d806000811461193c576040519150601f19603f3d011682016040523d82523d6000602084013e611941565b606091505b5050905080611985576040517f08c379a000000000000000000000000000000000000000000000000000000000815260040161197c90612174565b60405180910390fd5b505050565b6000604051905090565b600080fd5b600073ffffffffffffffffffffffffffffffffffffffff82169050919050565b60006119c482611999565b9050919050565b6119d4816119b9565b81146119df57600080fd5b50565b6000813590506119f1816119cb565b92915050565b600060208284031215611a0d57611a0c611994565b5b6000611a1b848285016119e2565b91505092915050565b611a2d816119b9565b82525050565b6000602082019050611a486000830184611a24565b92915050565b6000819050919050565b611a6181611a4e565b8114611a6c57600080fd5b50565b600081359050611a7e81611a58565b92915050565b60008060408385031215611a9b57611a9a611994565b5b6000611aa9858286016119e2565b9250506020611aba85828601611a6f565b9150509250929050565b60008060408385031215611adb57611ada611994565b5b6000611ae9858286016119e2565b9250506020611afa858286016119e2565b9150509250929050565b611b0d81611a4e565b82525050565b6000602082019050611b286000830184611b04565b92915050565b600060208284031215611b4457611b43611994565b5b6000611b5284828501611a6f565b91505092915050565b600081519050611b6a816119cb565b92915050565b600060208284031215611b8657611b85611994565b5b6000611b9484828501611b5b565b91505092915050565b600082825260208201905092915050565b7f506f6f6c20446f6573206e6f7420657869737473000000000000000000000000600082015250565b6000611be4601483611b9d565b9150611bef82611bae565b602082019050919050565b60006020820190508181036000830152611c1381611bd7565b9050919050565b600080fd5b6000601f19601f8301169050919050565b7f4e487b7100000000000000000000000000000000000000000000000000000000600052604160045260246000fd5b611c6882611c1f565b810181811067ffffffffffffffff82111715611c8757611c86611c30565b5b80604052505050565b6000611c9a61198a565b9050611ca68282611c5f565b919050565b600081519050611cba81611a58565b92915050565b600060408284031215611cd657611cd5611c1a565b5b611ce06040611c90565b90506000611cf084828501611cab565b6000830152506020611d0484828501611cab565b60208301525092915050565b600060408284031215611d2657611d25611994565b5b6000611d3484828501611cc0565b91505092915050565b7f496e636f727265637420416d6f756e7400000000000000000000000000000000600082015250565b6000611d73601083611b9d565b9150611d7e82611d3d565b602082019050919050565b60006020820190508181036000830152611da281611d66565b9050919050565b6000606082019050611dbe6000830186611a24565b611dcb6020830185611a24565b611dd86040830184611b04565b949350505050565b60008115159050919050565b611df581611de0565b8114611e0057600080fd5b50565b600081519050611e1281611dec565b92915050565b600060208284031215611e2e57611e2d611994565b5b6000611e3c84828501611e03565b91505092915050565b7f4e6f20616d6f756e7420746f2077697468647261770000000000000000000000600082015250565b6000611e7b601583611b9d565b9150611e8682611e45565b602082019050919050565b60006020820190508181036000830152611eaa81611e6e565b9050919050565b7f4e6f20416d6f756e7420746f2072657061790000000000000000000000000000600082015250565b6000611ee7601283611b9d565b9150611ef282611eb1565b602082019050919050565b60006020820190508181036000830152611f1681611eda565b9050919050565b7f496e636f727265637420616d6f756e742073656e740000000000000000000000600082015250565b6000611f53601583611b9d565b9150611f5e82611f1d565b602082019050919050565b60006020820190508181036000830152611f8281611f46565b9050919050565b600060208284031215611f9f57611f9e611994565b5b6000611fad84828501611cab565b91505092915050565b6000604082019050611fcb6000830185611a24565b611fd86020830184611b04565b9392505050565b600081519050919050565b600081905092915050565b60005b83811015612013578082015181840152602081019050611ff8565b83811115612022576000848401525b50505050565b600061203382611fdf565b61203d8185611fea565b935061204d818560208601611ff5565b80840191505092915050565b60006120658284612028565b915081905092915050565b7f5472616e7366657248656c7065723a3a736166655472616e736665723a20747260008201527f616e73666572206661696c656400000000000000000000000000000000000000602082015250565b60006120cc602d83611b9d565b91506120d782612070565b604082019050919050565b600060208201905081810360008301526120fb816120bf565b9050919050565b7f5472616e7366657248656c7065723a3a736166655472616e736665724554483a60008201527f20455448207472616e73666572206661696c6564000000000000000000000000602082015250565b600061215e603483611b9d565b915061216982612102565b604082019050919050565b6000602082019050818103600083015261218d81612151565b905091905056fea2646970667358221220d02e222a4e21196fbaf55a61d0aa475653511bdc2cdd1a16ae42708a795af15664736f6c634300080e0033",
					"opcodes": "PUSH1 0xC0 PUSH1 0x40 MSTORE CALLVALUE DUP1 ISZERO PUSH3 0x11 JUMPI PUSH1 0x0 DUP1 REVERT JUMPDEST POP PUSH1 0x40 MLOAD PUSH3 0x23B8 CODESIZE SUB DUP1 PUSH3 0x23B8 DUP4 CODECOPY DUP2 DUP2 ADD PUSH1 0x40 MSTORE DUP2 ADD SWAP1 PUSH3 0x37 SWAP2 SWAP1 PUSH3 0x111 JUMP JUMPDEST DUP2 PUSH20 0xFFFFFFFFFFFFFFFFFFFFFFFFFFFFFFFFFFFFFFFF AND PUSH1 0x80 DUP2 PUSH20 0xFFFFFFFFFFFFFFFFFFFFFFFFFFFFFFFFFFFFFFFF AND DUP2 MSTORE POP POP DUP1 PUSH20 0xFFFFFFFFFFFFFFFFFFFFFFFFFFFFFFFFFFFFFFFF AND PUSH1 0xA0 DUP2 PUSH20 0xFFFFFFFFFFFFFFFFFFFFFFFFFFFFFFFFFFFFFFFF AND DUP2 MSTORE POP POP POP POP PUSH3 0x158 JUMP JUMPDEST PUSH1 0x0 DUP1 REVERT JUMPDEST PUSH1 0x0 PUSH20 0xFFFFFFFFFFFFFFFFFFFFFFFFFFFFFFFFFFFFFFFF DUP3 AND SWAP1 POP SWAP2 SWAP1 POP JUMP JUMPDEST PUSH1 0x0 PUSH3 0xD9 DUP3 PUSH3 0xAC JUMP JUMPDEST SWAP1 POP SWAP2 SWAP1 POP JUMP JUMPDEST PUSH3 0xEB DUP2 PUSH3 0xCC JUMP JUMPDEST DUP2 EQ PUSH3 0xF7 JUMPI PUSH1 0x0 DUP1 REVERT JUMPDEST POP JUMP JUMPDEST PUSH1 0x0 DUP2 MLOAD SWAP1 POP PUSH3 0x10B DUP2 PUSH3 0xE0 JUMP JUMPDEST SWAP3 SWAP2 POP POP JUMP JUMPDEST PUSH1 0x0 DUP1 PUSH1 0x40 DUP4 DUP6 SUB SLT ISZERO PUSH3 0x12B JUMPI PUSH3 0x12A PUSH3 0xA7 JUMP JUMPDEST JUMPDEST PUSH1 0x0 PUSH3 0x13B DUP6 DUP3 DUP7 ADD PUSH3 0xFA JUMP JUMPDEST SWAP3 POP POP PUSH1 0x20 PUSH3 0x14E DUP6 DUP3 DUP7 ADD PUSH3 0xFA JUMP JUMPDEST SWAP2 POP POP SWAP3 POP SWAP3 SWAP1 POP JUMP JUMPDEST PUSH1 0x80 MLOAD PUSH1 0xA0 MLOAD PUSH2 0x21CA PUSH3 0x1EE PUSH1 0x0 CODECOPY PUSH1 0x0 DUP2 DUP2 PUSH2 0x68F ADD MSTORE DUP2 DUP2 PUSH2 0x6B7 ADD MSTORE DUP2 DUP2 PUSH2 0x73B ADD MSTORE DUP2 DUP2 PUSH2 0x80A ADD MSTORE DUP2 DUP2 PUSH2 0x833 ADD MSTORE DUP2 DUP2 PUSH2 0x9BC ADD MSTORE DUP2 DUP2 PUSH2 0xABE ADD MSTORE DUP2 DUP2 PUSH2 0xB5F ADD MSTORE DUP2 DUP2 PUSH2 0x1108 ADD MSTORE DUP2 DUP2 PUSH2 0x12C3 ADD MSTORE DUP2 DUP2 PUSH2 0x1364 ADD MSTORE DUP2 DUP2 PUSH2 0x1402 ADD MSTORE DUP2 DUP2 PUSH2 0x159F ADD MSTORE DUP2 DUP2 PUSH2 0x1623 ADD MSTORE PUSH2 0x1732 ADD MSTORE PUSH1 0x0 DUP2 DUP2 PUSH2 0x36E ADD MSTORE DUP2 DUP2 PUSH2 0xD97 ADD MSTORE PUSH2 0x10DF ADD MSTORE PUSH2 0x21CA PUSH1 0x0 RETURN INVALID PUSH1 0x80 PUSH1 0x40 MSTORE PUSH1 0x4 CALLDATASIZE LT PUSH2 0xE8 JUMPI PUSH1 0x0 CALLDATALOAD PUSH1 0xE0 SHR DUP1 PUSH4 0x9049F9D2 GT PUSH2 0x8A JUMPI DUP1 PUSH4 0xE086E5EC GT PUSH2 0x59 JUMPI DUP1 PUSH4 0xE086E5EC EQ PUSH2 0x2E1 JUMPI DUP1 PUSH4 0xEECBCDA0 EQ PUSH2 0x2F8 JUMPI DUP1 PUSH4 0xF8B2CB4F EQ PUSH2 0x302 JUMPI DUP1 PUSH4 0xFD08C30C EQ PUSH2 0x33F JUMPI PUSH2 0xE8 JUMP JUMPDEST DUP1 PUSH4 0x9049F9D2 EQ PUSH2 0x227 JUMPI DUP1 PUSH4 0x987242E9 EQ PUSH2 0x250 JUMPI DUP1 PUSH4 0xBBFB286B EQ PUSH2 0x28D JUMPI DUP1 PUSH4 0xC45A0155 EQ PUSH2 0x2B6 JUMPI PUSH2 0xE8 JUMP JUMPDEST DUP1 PUSH4 0x5358FBDA GT PUSH2 0xC6 JUMPI DUP1 PUSH4 0x5358FBDA EQ PUSH2 0x190 JUMPI DUP1 PUSH4 0x5A91B39C EQ PUSH2 0x1AC JUMPI DUP1 PUSH4 0x7B2AF625 EQ PUSH2 0x1D5 JUMPI DUP1 PUSH4 0x89476069 EQ PUSH2 0x1FE JUMPI PUSH2 0xE8 JUMP JUMPDEST DUP1 PUSH4 0x1228CBEE EQ PUSH2 0xED JUMPI DUP1 PUSH4 0x338B5DEA EQ PUSH2 0x12A JUMPI DUP1 PUSH4 0x38BAD5E5 EQ PUSH2 0x153 JUMPI JUMPDEST PUSH1 0x0 DUP1 REVERT JUMPDEST CALLVALUE DUP1 ISZERO PUSH2 0xF9 JUMPI PUSH1 0x0 DUP1 REVERT JUMPDEST POP PUSH2 0x114 PUSH1 0x4 DUP1 CALLDATASIZE SUB DUP2 ADD SWAP1 PUSH2 0x10F SWAP2 SWAP1 PUSH2 0x19F7 JUMP JUMPDEST PUSH2 0x36A JUMP JUMPDEST PUSH1 0x40 MLOAD PUSH2 0x121 SWAP2 SWAP1 PUSH2 0x1A33 JUMP JUMPDEST PUSH1 0x40 MLOAD DUP1 SWAP2 SUB SWAP1 RETURN JUMPDEST CALLVALUE DUP1 ISZERO PUSH2 0x136 JUMPI PUSH1 0x0 DUP1 REVERT JUMPDEST POP PUSH2 0x151 PUSH1 0x4 DUP1 CALLDATASIZE SUB DUP2 ADD SWAP1 PUSH2 0x14C SWAP2 SWAP1 PUSH2 0x1A84 JUMP JUMPDEST PUSH2 0x40D JUMP JUMPDEST STOP JUMPDEST CALLVALUE DUP1 ISZERO PUSH2 0x15F JUMPI PUSH1 0x0 DUP1 REVERT JUMPDEST POP PUSH2 0x17A PUSH1 0x4 DUP1 CALLDATASIZE SUB DUP2 ADD SWAP1 PUSH2 0x175 SWAP2 SWAP1 PUSH2 0x1AC4 JUMP JUMPDEST PUSH2 0x543 JUMP JUMPDEST PUSH1 0x40 MLOAD PUSH2 0x187 SWAP2 SWAP1 PUSH2 0x1B13 JUMP JUMPDEST PUSH1 0x40 MLOAD DUP1 SWAP2 SUB SWAP1 RETURN JUMPDEST PUSH2 0x1AA PUSH1 0x4 DUP1 CALLDATASIZE SUB DUP2 ADD SWAP1 PUSH2 0x1A5 SWAP2 SWAP1 PUSH2 0x1B2E JUMP JUMPDEST PUSH2 0x646 JUMP JUMPDEST STOP JUMPDEST CALLVALUE DUP1 ISZERO PUSH2 0x1B8 JUMPI PUSH1 0x0 DUP1 REVERT JUMPDEST POP PUSH2 0x1D3 PUSH1 0x4 DUP1 CALLDATASIZE SUB DUP2 ADD SWAP1 PUSH2 0x1CE SWAP2 SWAP1 PUSH2 0x1A84 JUMP JUMPDEST PUSH2 0x8C9 JUMP JUMPDEST STOP JUMPDEST CALLVALUE DUP1 ISZERO PUSH2 0x1E1 JUMPI PUSH1 0x0 DUP1 REVERT JUMPDEST POP PUSH2 0x1FC PUSH1 0x4 DUP1 CALLDATASIZE SUB DUP2 ADD SWAP1 PUSH2 0x1F7 SWAP2 SWAP1 PUSH2 0x1B2E JUMP JUMPDEST PUSH2 0x9B5 JUMP JUMPDEST STOP JUMPDEST CALLVALUE DUP1 ISZERO PUSH2 0x20A JUMPI PUSH1 0x0 DUP1 REVERT JUMPDEST POP PUSH2 0x225 PUSH1 0x4 DUP1 CALLDATASIZE SUB DUP2 ADD SWAP1 PUSH2 0x220 SWAP2 SWAP1 PUSH2 0x19F7 JUMP JUMPDEST PUSH2 0xBF6 JUMP JUMPDEST STOP JUMPDEST CALLVALUE DUP1 ISZERO PUSH2 0x233 JUMPI PUSH1 0x0 DUP1 REVERT JUMPDEST POP PUSH2 0x24E PUSH1 0x4 DUP1 CALLDATASIZE SUB DUP2 ADD SWAP1 PUSH2 0x249 SWAP2 SWAP1 PUSH2 0x19F7 JUMP JUMPDEST PUSH2 0xD95 JUMP JUMPDEST STOP JUMPDEST CALLVALUE DUP1 ISZERO PUSH2 0x25C JUMPI PUSH1 0x0 DUP1 REVERT JUMPDEST POP PUSH2 0x277 PUSH1 0x4 DUP1 CALLDATASIZE SUB DUP2 ADD SWAP1 PUSH2 0x272 SWAP2 SWAP1 PUSH2 0x1AC4 JUMP JUMPDEST PUSH2 0xE35 JUMP JUMPDEST PUSH1 0x40 MLOAD PUSH2 0x284 SWAP2 SWAP1 PUSH2 0x1B13 JUMP JUMPDEST PUSH1 0x40 MLOAD DUP1 SWAP2 SUB SWAP1 RETURN JUMPDEST CALLVALUE DUP1 ISZERO PUSH2 0x299 JUMPI PUSH1 0x0 DUP1 REVERT JUMPDEST POP PUSH2 0x2B4 PUSH1 0x4 DUP1 CALLDATASIZE SUB DUP2 ADD SWAP1 PUSH2 0x2AF SWAP2 SWAP1 PUSH2 0x19F7 JUMP JUMPDEST PUSH2 0xF38 JUMP JUMPDEST STOP JUMPDEST CALLVALUE DUP1 ISZERO PUSH2 0x2C2 JUMPI PUSH1 0x0 DUP1 REVERT JUMPDEST POP PUSH2 0x2CB PUSH2 0x10DD JUMP JUMPDEST PUSH1 0x40 MLOAD PUSH2 0x2D8 SWAP2 SWAP1 PUSH2 0x1A33 JUMP JUMPDEST PUSH1 0x40 MLOAD DUP1 SWAP2 SUB SWAP1 RETURN JUMPDEST CALLVALUE DUP1 ISZERO PUSH2 0x2ED JUMPI PUSH1 0x0 DUP1 REVERT JUMPDEST POP PUSH2 0x2F6 PUSH2 0x1101 JUMP JUMPDEST STOP JUMPDEST PUSH2 0x300 PUSH2 0x13FB JUMP JUMPDEST STOP JUMPDEST CALLVALUE DUP1 ISZERO PUSH2 0x30E JUMPI PUSH1 0x0 DUP1 REVERT JUMPDEST POP PUSH2 0x329 PUSH1 0x4 DUP1 CALLDATASIZE SUB DUP2 ADD SWAP1 PUSH2 0x324 SWAP2 SWAP1 PUSH2 0x19F7 JUMP JUMPDEST PUSH2 0x16AD JUMP JUMPDEST PUSH1 0x40 MLOAD PUSH2 0x336 SWAP2 SWAP1 PUSH2 0x1B13 JUMP JUMPDEST PUSH1 0x40 MLOAD DUP1 SWAP2 SUB SWAP1 RETURN JUMPDEST CALLVALUE DUP1 ISZERO PUSH2 0x34B JUMPI PUSH1 0x0 DUP1 REVERT JUMPDEST POP PUSH2 0x354 PUSH2 0x1730 JUMP JUMPDEST PUSH1 0x40 MLOAD PUSH2 0x361 SWAP2 SWAP1 PUSH2 0x1A33 JUMP JUMPDEST PUSH1 0x40 MLOAD DUP1 SWAP2 SUB SWAP1 RETURN JUMPDEST PUSH1 0x0 PUSH32 0x0 PUSH20 0xFFFFFFFFFFFFFFFFFFFFFFFFFFFFFFFFFFFFFFFF AND PUSH4 0xBBE4F6DB DUP4 PUSH1 0x40 MLOAD DUP3 PUSH4 0xFFFFFFFF AND PUSH1 0xE0 SHL DUP2 MSTORE PUSH1 0x4 ADD PUSH2 0x3C5 SWAP2 SWAP1 PUSH2 0x1A33 JUMP JUMPDEST PUSH1 0x20 PUSH1 0x40 MLOAD DUP1 DUP4 SUB DUP2 DUP7 GAS STATICCALL ISZERO DUP1 ISZERO PUSH2 0x3E2 JUMPI RETURNDATASIZE PUSH1 0x0 DUP1 RETURNDATACOPY RETURNDATASIZE PUSH1 0x0 REVERT JUMPDEST POP POP POP POP PUSH1 0x40 MLOAD RETURNDATASIZE PUSH1 0x1F NOT PUSH1 0x1F DUP3 ADD AND DUP3 ADD DUP1 PUSH1 0x40 MSTORE POP DUP2 ADD SWAP1 PUSH2 0x406 SWAP2 SWAP1 PUSH2 0x1B70 JUMP JUMPDEST SWAP1 POP SWAP2 SWAP1 POP JUMP JUMPDEST PUSH1 0x0 PUSH2 0x418 DUP4 PUSH2 0x36A JUMP JUMPDEST SWAP1 POP PUSH1 0x0 PUSH20 0xFFFFFFFFFFFFFFFFFFFFFFFFFFFFFFFFFFFFFFFF AND DUP2 PUSH20 0xFFFFFFFFFFFFFFFFFFFFFFFFFFFFFFFFFFFFFFFF AND EQ PUSH2 0x4BE JUMPI DUP1 PUSH20 0xFFFFFFFFFFFFFFFFFFFFFFFFFFFFFFFFFFFFFFFF AND PUSH4 0xB6B55F25 DUP4 PUSH1 0x40 MLOAD DUP3 PUSH4 0xFFFFFFFF AND PUSH1 0xE0 SHL DUP2 MSTORE PUSH1 0x4 ADD PUSH2 0x487 SWAP2 SWAP1 PUSH2 0x1B13 JUMP JUMPDEST PUSH1 0x0 PUSH1 0x40 MLOAD DUP1 DUP4 SUB DUP2 PUSH1 0x0 DUP8 DUP1 EXTCODESIZE ISZERO DUP1 ISZERO PUSH2 0x4A1 JUMPI PUSH1 0x0 DUP1 REVERT JUMPDEST POP GAS CALL ISZERO DUP1 ISZERO PUSH2 0x4B5 JUMPI RETURNDATASIZE PUSH1 0x0 DUP1 RETURNDATACOPY RETURNDATASIZE PUSH1 0x0 REVERT JUMPDEST POP POP POP POP PUSH2 0x53E JUMP JUMPDEST PUSH2 0x4C7 DUP4 PUSH2 0xD95 JUMP JUMPDEST PUSH2 0x4D0 DUP4 PUSH2 0x36A JUMP JUMPDEST SWAP1 POP DUP1 PUSH20 0xFFFFFFFFFFFFFFFFFFFFFFFFFFFFFFFFFFFFFFFF AND PUSH4 0xB6B55F25 DUP4 PUSH1 0x40 MLOAD DUP3 PUSH4 0xFFFFFFFF AND PUSH1 0xE0 SHL DUP2 MSTORE PUSH1 0x4 ADD PUSH2 0x50B SWAP2 SWAP1 PUSH2 0x1B13 JUMP JUMPDEST PUSH1 0x0 PUSH1 0x40 MLOAD DUP1 DUP4 SUB DUP2 PUSH1 0x0 DUP8 DUP1 EXTCODESIZE ISZERO DUP1 ISZERO PUSH2 0x525 JUMPI PUSH1 0x0 DUP1 REVERT JUMPDEST POP GAS CALL ISZERO DUP1 ISZERO PUSH2 0x539 JUMPI RETURNDATASIZE PUSH1 0x0 DUP1 RETURNDATACOPY RETURNDATASIZE PUSH1 0x0 REVERT JUMPDEST POP POP POP POP JUMPDEST POP POP POP JUMP JUMPDEST PUSH1 0x0 DUP1 PUSH2 0x54F DUP5 PUSH2 0x36A JUMP JUMPDEST SWAP1 POP PUSH1 0x0 PUSH20 0xFFFFFFFFFFFFFFFFFFFFFFFFFFFFFFFFFFFFFFFF AND DUP2 PUSH20 0xFFFFFFFFFFFFFFFFFFFFFFFFFFFFFFFFFFFFFFFF AND SUB PUSH2 0x5C0 JUMPI PUSH1 0x40 MLOAD PUSH32 0x8C379A000000000000000000000000000000000000000000000000000000000 DUP2 MSTORE PUSH1 0x4 ADD PUSH2 0x5B7 SWAP1 PUSH2 0x1BFA JUMP JUMPDEST PUSH1 0x40 MLOAD DUP1 SWAP2 SUB SWAP1 REVERT JUMPDEST DUP1 PUSH20 0xFFFFFFFFFFFFFFFFFFFFFFFFFFFFFFFFFFFFFFFF AND PUSH4 0x8D113A7F DUP5 PUSH1 0x40 MLOAD DUP3 PUSH4 0xFFFFFFFF AND PUSH1 0xE0 SHL DUP2 MSTORE PUSH1 0x4 ADD PUSH2 0x5F9 SWAP2 SWAP1 PUSH2 0x1A33 JUMP JUMPDEST PUSH1 0x40 DUP1 MLOAD DUP1 DUP4 SUB DUP2 DUP7 GAS STATICCALL ISZERO DUP1 ISZERO PUSH2 0x615 JUMPI RETURNDATASIZE PUSH1 0x0 DUP1 RETURNDATACOPY RETURNDATASIZE PUSH1 0x0 REVERT JUMPDEST POP POP POP POP PUSH1 0x40 MLOAD RETURNDATASIZE PUSH1 0x1F NOT PUSH1 0x1F DUP3 ADD AND DUP3 ADD DUP1 PUSH1 0x40 MSTORE POP DUP2 ADD SWAP1 PUSH2 0x639 SWAP2 SWAP1 PUSH2 0x1D10 JUMP JUMPDEST PUSH1 0x0 ADD MLOAD SWAP2 POP POP SWAP3 SWAP2 POP POP JUMP JUMPDEST CALLVALUE DUP2 EQ PUSH2 0x688 JUMPI PUSH1 0x40 MLOAD PUSH32 0x8C379A000000000000000000000000000000000000000000000000000000000 DUP2 MSTORE PUSH1 0x4 ADD PUSH2 0x67F SWAP1 PUSH2 0x1D89 JUMP JUMPDEST PUSH1 0x40 MLOAD DUP1 SWAP2 SUB SWAP1 REVERT JUMPDEST PUSH1 0x0 PUSH2 0x6B3 PUSH32 0x0 PUSH2 0x36A JUMP JUMPDEST SWAP1 POP PUSH32 0x0 PUSH20 0xFFFFFFFFFFFFFFFFFFFFFFFFFFFFFFFFFFFFFFFF AND PUSH4 0xD0E30DB0 CALLVALUE PUSH1 0x40 MLOAD DUP3 PUSH4 0xFFFFFFFF AND PUSH1 0xE0 SHL DUP2 MSTORE PUSH1 0x4 ADD PUSH1 0x0 PUSH1 0x40 MLOAD DUP1 DUP4 SUB DUP2 DUP6 DUP9 DUP1 EXTCODESIZE ISZERO DUP1 ISZERO PUSH2 0x71D JUMPI PUSH1 0x0 DUP1 REVERT JUMPDEST POP GAS CALL ISZERO DUP1 ISZERO PUSH2 0x731 JUMPI RETURNDATASIZE PUSH1 0x0 DUP1 RETURNDATACOPY RETURNDATASIZE PUSH1 0x0 REVERT JUMPDEST POP POP POP POP POP PUSH2 0x761 PUSH32 0x0 CALLER CALLVALUE PUSH2 0x1754 JUMP JUMPDEST PUSH1 0x0 PUSH20 0xFFFFFFFFFFFFFFFFFFFFFFFFFFFFFFFFFFFFFFFF AND DUP2 PUSH20 0xFFFFFFFFFFFFFFFFFFFFFFFFFFFFFFFFFFFFFFFF AND EQ PUSH2 0x805 JUMPI DUP1 PUSH20 0xFFFFFFFFFFFFFFFFFFFFFFFFFFFFFFFFFFFFFFFF AND PUSH4 0xB6B55F25 DUP4 PUSH1 0x40 MLOAD DUP3 PUSH4 0xFFFFFFFF AND PUSH1 0xE0 SHL DUP2 MSTORE PUSH1 0x4 ADD PUSH2 0x7CE SWAP2 SWAP1 PUSH2 0x1B13 JUMP JUMPDEST PUSH1 0x0 PUSH1 0x40 MLOAD DUP1 DUP4 SUB DUP2 PUSH1 0x0 DUP8 DUP1 EXTCODESIZE ISZERO DUP1 ISZERO PUSH2 0x7E8 JUMPI PUSH1 0x0 DUP1 REVERT JUMPDEST POP GAS CALL ISZERO DUP1 ISZERO PUSH2 0x7FC JUMPI RETURNDATASIZE PUSH1 0x0 DUP1 RETURNDATACOPY RETURNDATASIZE PUSH1 0x0 REVERT JUMPDEST POP POP POP POP PUSH2 0x8C5 JUMP JUMPDEST PUSH2 0x82E PUSH32 0x0 PUSH2 0xD95 JUMP JUMPDEST PUSH2 0x857 PUSH32 0x0 PUSH2 0x36A JUMP JUMPDEST SWAP1 POP DUP1 PUSH20 0xFFFFFFFFFFFFFFFFFFFFFFFFFFFFFFFFFFFFFFFF AND PUSH4 0xB6B55F25 DUP4 PUSH1 0x40 MLOAD DUP3 PUSH4 0xFFFFFFFF AND PUSH1 0xE0 SHL DUP2 MSTORE PUSH1 0x4 ADD PUSH2 0x892 SWAP2 SWAP1 PUSH2 0x1B13 JUMP JUMPDEST PUSH1 0x0 PUSH1 0x40 MLOAD DUP1 DUP4 SUB DUP2 PUSH1 0x0 DUP8 DUP1 EXTCODESIZE ISZERO DUP1 ISZERO PUSH2 0x8AC JUMPI PUSH1 0x0 DUP1 REVERT JUMPDEST POP GAS CALL ISZERO DUP1 ISZERO PUSH2 0x8C0 JUMPI RETURNDATASIZE PUSH1 0x0 DUP1 RETURNDATACOPY RETURNDATASIZE PUSH1 0x0 REVERT JUMPDEST POP POP POP POP JUMPDEST POP POP JUMP JUMPDEST PUSH1 0x0 PUSH2 0x8D4 DUP4 PUSH2 0x36A JUMP JUMPDEST SWAP1 POP PUSH1 0x0 PUSH20 0xFFFFFFFFFFFFFFFFFFFFFFFFFFFFFFFFFFFFFFFF AND DUP2 PUSH20 0xFFFFFFFFFFFFFFFFFFFFFFFFFFFFFFFFFFFFFFFF AND SUB PUSH2 0x945 JUMPI PUSH1 0x40 MLOAD PUSH32 0x8C379A000000000000000000000000000000000000000000000000000000000 DUP2 MSTORE PUSH1 0x4 ADD PUSH2 0x93C SWAP1 PUSH2 0x1BFA JUMP JUMPDEST PUSH1 0x40 MLOAD DUP1 SWAP2 SUB SWAP1 REVERT JUMPDEST DUP1 PUSH20 0xFFFFFFFFFFFFFFFFFFFFFFFFFFFFFFFFFFFFFFFF AND PUSH4 0xC5EBEAEC DUP4 PUSH1 0x40 MLOAD DUP3 PUSH4 0xFFFFFFFF AND PUSH1 0xE0 SHL DUP2 MSTORE PUSH1 0x4 ADD PUSH2 0x97E SWAP2 SWAP1 PUSH2 0x1B13 JUMP JUMPDEST PUSH1 0x0 PUSH1 0x40 MLOAD DUP1 DUP4 SUB DUP2 PUSH1 0x0 DUP8 DUP1 EXTCODESIZE ISZERO DUP1 ISZERO PUSH2 0x998 JUMPI PUSH1 0x0 DUP1 REVERT JUMPDEST POP GAS CALL ISZERO DUP1 ISZERO PUSH2 0x9AC JUMPI RETURNDATASIZE PUSH1 0x0 DUP1 RETURNDATACOPY RETURNDATASIZE PUSH1 0x0 REVERT JUMPDEST POP POP POP POP POP POP POP JUMP JUMPDEST PUSH1 0x0 PUSH2 0x9E0 PUSH32 0x0 PUSH2 0x36A JUMP JUMPDEST SWAP1 POP PUSH1 0x0 PUSH20 0xFFFFFFFFFFFFFFFFFFFFFFFFFFFFFFFFFFFFFFFF AND DUP2 PUSH20 0xFFFFFFFFFFFFFFFFFFFFFFFFFFFFFFFFFFFFFFFF AND SUB PUSH2 0xA51 JUMPI PUSH1 0x40 MLOAD PUSH32 0x8C379A000000000000000000000000000000000000000000000000000000000 DUP2 MSTORE PUSH1 0x4 ADD PUSH2 0xA48 SWAP1 PUSH2 0x1BFA JUMP JUMPDEST PUSH1 0x40 MLOAD DUP1 SWAP2 SUB SWAP1 REVERT JUMPDEST DUP1 PUSH20 0xFFFFFFFFFFFFFFFFFFFFFFFFFFFFFFFFFFFFFFFF AND PUSH4 0xC5EBEAEC DUP4 PUSH1 0x40 MLOAD DUP3 PUSH4 0xFFFFFFFF AND PUSH1 0xE0 SHL DUP2 MSTORE PUSH1 0x4 ADD PUSH2 0xA8A SWAP2 SWAP1 PUSH2 0x1B13 JUMP JUMPDEST PUSH1 0x0 PUSH1 0x40 MLOAD DUP1 DUP4 SUB DUP2 PUSH1 0x0 DUP8 DUP1 EXTCODESIZE ISZERO DUP1 ISZERO PUSH2 0xAA4 JUMPI PUSH1 0x0 DUP1 REVERT JUMPDEST POP GAS CALL ISZERO DUP1 ISZERO PUSH2 0xAB8 JUMPI RETURNDATASIZE PUSH1 0x0 DUP1 RETURNDATACOPY RETURNDATASIZE PUSH1 0x0 REVERT JUMPDEST POP POP POP POP PUSH32 0x0 PUSH20 0xFFFFFFFFFFFFFFFFFFFFFFFFFFFFFFFFFFFFFFFF AND PUSH4 0x23B872DD CALLER ADDRESS DUP6 PUSH1 0x40 MLOAD DUP5 PUSH4 0xFFFFFFFF AND PUSH1 0xE0 SHL DUP2 MSTORE PUSH1 0x4 ADD PUSH2 0xB19 SWAP4 SWAP3 SWAP2 SWAP1 PUSH2 0x1DA9 JUMP JUMPDEST PUSH1 0x20 PUSH1 0x40 MLOAD DUP1 DUP4 SUB DUP2 PUSH1 0x0 DUP8 GAS CALL ISZERO DUP1 ISZERO PUSH2 0xB38 JUMPI RETURNDATASIZE PUSH1 0x0 DUP1 RETURNDATACOPY RETURNDATASIZE PUSH1 0x0 REVERT JUMPDEST POP POP POP POP PUSH1 0x40 MLOAD RETURNDATASIZE PUSH1 0x1F NOT PUSH1 0x1F DUP3 ADD AND DUP3 ADD DUP1 PUSH1 0x40 MSTORE POP DUP2 ADD SWAP1 PUSH2 0xB5C SWAP2 SWAP1 PUSH2 0x1E18 JUMP JUMPDEST POP PUSH32 0x0 PUSH20 0xFFFFFFFFFFFFFFFFFFFFFFFFFFFFFFFFFFFFFFFF AND PUSH4 0x2E1A7D4D DUP4 PUSH1 0x40 MLOAD DUP3 PUSH4 0xFFFFFFFF AND PUSH1 0xE0 SHL DUP2 MSTORE PUSH1 0x4 ADD PUSH2 0xBB6 SWAP2 SWAP1 PUSH2 0x1B13 JUMP JUMPDEST PUSH1 0x0 PUSH1 0x40 MLOAD DUP1 DUP4 SUB DUP2 PUSH1 0x0 DUP8 DUP1 EXTCODESIZE ISZERO DUP1 ISZERO PUSH2 0xBD0 JUMPI PUSH1 0x0 DUP1 REVERT JUMPDEST POP GAS CALL ISZERO DUP1 ISZERO PUSH2 0xBE4 JUMPI RETURNDATASIZE PUSH1 0x0 DUP1 RETURNDATACOPY RETURNDATASIZE PUSH1 0x0 REVERT JUMPDEST POP POP POP POP PUSH2 0xBF2 CALLER DUP4 PUSH2 0x188A JUMP JUMPDEST POP POP JUMP JUMPDEST PUSH1 0x0 PUSH2 0xC01 DUP3 PUSH2 0x36A JUMP JUMPDEST SWAP1 POP PUSH1 0x0 PUSH20 0xFFFFFFFFFFFFFFFFFFFFFFFFFFFFFFFFFFFFFFFF AND DUP2 PUSH20 0xFFFFFFFFFFFFFFFFFFFFFFFFFFFFFFFFFFFFFFFF AND SUB PUSH2 0xC72 JUMPI PUSH1 0x40 MLOAD PUSH32 0x8C379A000000000000000000000000000000000000000000000000000000000 DUP2 MSTORE PUSH1 0x4 ADD PUSH2 0xC69 SWAP1 PUSH2 0x1BFA JUMP JUMPDEST PUSH1 0x40 MLOAD DUP1 SWAP2 SUB SWAP1 REVERT JUMPDEST PUSH1 0x0 DUP2 PUSH20 0xFFFFFFFFFFFFFFFFFFFFFFFFFFFFFFFFFFFFFFFF AND PUSH4 0x1C78DA26 CALLER PUSH1 0x40 MLOAD DUP3 PUSH4 0xFFFFFFFF AND PUSH1 0xE0 SHL DUP2 MSTORE PUSH1 0x4 ADD PUSH2 0xCAD SWAP2 SWAP1 PUSH2 0x1A33 JUMP JUMPDEST PUSH1 0x40 DUP1 MLOAD DUP1 DUP4 SUB DUP2 DUP7 GAS STATICCALL ISZERO DUP1 ISZERO PUSH2 0xCC9 JUMPI RETURNDATASIZE PUSH1 0x0 DUP1 RETURNDATACOPY RETURNDATASIZE PUSH1 0x0 REVERT JUMPDEST POP POP POP POP PUSH1 0x40 MLOAD RETURNDATASIZE PUSH1 0x1F NOT PUSH1 0x1F DUP3 ADD AND DUP3 ADD DUP1 PUSH1 0x40 MSTORE POP DUP2 ADD SWAP1 PUSH2 0xCED SWAP2 SWAP1 PUSH2 0x1D10 JUMP JUMPDEST PUSH1 0x0 ADD MLOAD GT PUSH2 0xD31 JUMPI PUSH1 0x40 MLOAD PUSH32 0x8C379A000000000000000000000000000000000000000000000000000000000 DUP2 MSTORE PUSH1 0x4 ADD PUSH2 0xD28 SWAP1 PUSH2 0x1E91 JUMP JUMPDEST PUSH1 0x40 MLOAD DUP1 SWAP2 SUB SWAP1 REVERT JUMPDEST DUP1 PUSH20 0xFFFFFFFFFFFFFFFFFFFFFFFFFFFFFFFFFFFFFFFF AND PUSH4 0x3CCFD60B PUSH1 0x40 MLOAD DUP2 PUSH4 0xFFFFFFFF AND PUSH1 0xE0 SHL DUP2 MSTORE PUSH1 0x4 ADD PUSH1 0x0 PUSH1 0x40 MLOAD DUP1 DUP4 SUB DUP2 PUSH1 0x0 DUP8 DUP1 EXTCODESIZE ISZERO DUP1 ISZERO PUSH2 0xD79 JUMPI PUSH1 0x0 DUP1 REVERT JUMPDEST POP GAS CALL ISZERO DUP1 ISZERO PUSH2 0xD8D JUMPI RETURNDATASIZE PUSH1 0x0 DUP1 RETURNDATACOPY RETURNDATASIZE PUSH1 0x0 REVERT JUMPDEST POP POP POP POP POP POP JUMP JUMPDEST PUSH32 0x0 PUSH20 0xFFFFFFFFFFFFFFFFFFFFFFFFFFFFFFFFFFFFFFFF AND PUSH4 0x9049F9D2 DUP3 PUSH1 0x40 MLOAD DUP3 PUSH4 0xFFFFFFFF AND PUSH1 0xE0 SHL DUP2 MSTORE PUSH1 0x4 ADD PUSH2 0xDEE SWAP2 SWAP1 PUSH2 0x1A33 JUMP JUMPDEST PUSH1 0x20 PUSH1 0x40 MLOAD DUP1 DUP4 SUB DUP2 PUSH1 0x0 DUP8 GAS CALL ISZERO DUP1 ISZERO PUSH2 0xE0D JUMPI RETURNDATASIZE PUSH1 0x0 DUP1 RETURNDATACOPY RETURNDATASIZE PUSH1 0x0 REVERT JUMPDEST POP POP POP POP PUSH1 0x40 MLOAD RETURNDATASIZE PUSH1 0x1F NOT PUSH1 0x1F DUP3 ADD AND DUP3 ADD DUP1 PUSH1 0x40 MSTORE POP DUP2 ADD SWAP1 PUSH2 0xE31 SWAP2 SWAP1 PUSH2 0x1B70 JUMP JUMPDEST POP POP JUMP JUMPDEST PUSH1 0x0 DUP1 PUSH2 0xE41 DUP5 PUSH2 0x36A JUMP JUMPDEST SWAP1 POP PUSH1 0x0 PUSH20 0xFFFFFFFFFFFFFFFFFFFFFFFFFFFFFFFFFFFFFFFF AND DUP2 PUSH20 0xFFFFFFFFFFFFFFFFFFFFFFFFFFFFFFFFFFFFFFFF AND SUB PUSH2 0xEB2 JUMPI PUSH1 0x40 MLOAD PUSH32 0x8C379A000000000000000000000000000000000000000000000000000000000 DUP2 MSTORE PUSH1 0x4 ADD PUSH2 0xEA9 SWAP1 PUSH2 0x1BFA JUMP JUMPDEST PUSH1 0x40 MLOAD DUP1 SWAP2 SUB SWAP1 REVERT JUMPDEST DUP1 PUSH20 0xFFFFFFFFFFFFFFFFFFFFFFFFFFFFFFFFFFFFFFFF AND PUSH4 0x1C78DA26 DUP5 PUSH1 0x40 MLOAD DUP3 PUSH4 0xFFFFFFFF AND PUSH1 0xE0 SHL DUP2 MSTORE PUSH1 0x4 ADD PUSH2 0xEEB SWAP2 SWAP1 PUSH2 0x1A33 JUMP JUMPDEST PUSH1 0x40 DUP1 MLOAD DUP1 DUP4 SUB DUP2 DUP7 GAS STATICCALL ISZERO DUP1 ISZERO PUSH2 0xF07 JUMPI RETURNDATASIZE PUSH1 0x0 DUP1 RETURNDATACOPY RETURNDATASIZE PUSH1 0x0 REVERT JUMPDEST POP POP POP POP PUSH1 0x40 MLOAD RETURNDATASIZE PUSH1 0x1F NOT PUSH1 0x1F DUP3 ADD AND DUP3 ADD DUP1 PUSH1 0x40 MSTORE POP DUP2 ADD SWAP1 PUSH2 0xF2B SWAP2 SWAP1 PUSH2 0x1D10 JUMP JUMPDEST PUSH1 0x0 ADD MLOAD SWAP2 POP POP SWAP3 SWAP2 POP POP JUMP JUMPDEST PUSH1 0x0 PUSH2 0xF43 DUP3 PUSH2 0x36A JUMP JUMPDEST SWAP1 POP PUSH1 0x0 PUSH20 0xFFFFFFFFFFFFFFFFFFFFFFFFFFFFFFFFFFFFFFFF AND DUP2 PUSH20 0xFFFFFFFFFFFFFFFFFFFFFFFFFFFFFFFFFFFFFFFF AND SUB PUSH2 0xFB4 JUMPI PUSH1 0x40 MLOAD PUSH32 0x8C379A000000000000000000000000000000000000000000000000000000000 DUP2 MSTORE PUSH1 0x4 ADD PUSH2 0xFAB SWAP1 PUSH2 0x1BFA JUMP JUMPDEST PUSH1 0x40 MLOAD DUP1 SWAP2 SUB SWAP1 REVERT JUMPDEST PUSH1 0x0 DUP2 PUSH20 0xFFFFFFFFFFFFFFFFFFFFFFFFFFFFFFFFFFFFFFFF AND PUSH4 0x8D113A7F CALLER PUSH1 0x40 MLOAD DUP3 PUSH4 0xFFFFFFFF AND PUSH1 0xE0 SHL DUP2 MSTORE PUSH1 0x4 ADD PUSH2 0xFEF SWAP2 SWAP1 PUSH2 0x1A33 JUMP JUMPDEST PUSH1 0x40 DUP1 MLOAD DUP1 DUP4 SUB DUP2 DUP7 GAS STATICCALL ISZERO DUP1 ISZERO PUSH2 0x100B JUMPI RETURNDATASIZE PUSH1 0x0 DUP1 RETURNDATACOPY RETURNDATASIZE PUSH1 0x0 REVERT JUMPDEST POP POP POP POP PUSH1 0x40 MLOAD RETURNDATASIZE PUSH1 0x1F NOT PUSH1 0x1F DUP3 ADD AND DUP3 ADD DUP1 PUSH1 0x40 MSTORE POP DUP2 ADD SWAP1 PUSH2 0x102F SWAP2 SWAP1 PUSH2 0x1D10 JUMP JUMPDEST PUSH1 0x0 ADD MLOAD SWAP1 POP PUSH1 0x0 DUP2 GT PUSH2 0x1078 JUMPI PUSH1 0x40 MLOAD PUSH32 0x8C379A000000000000000000000000000000000000000000000000000000000 DUP2 MSTORE PUSH1 0x4 ADD PUSH2 0x106F SWAP1 PUSH2 0x1EFD JUMP JUMPDEST PUSH1 0x40 MLOAD DUP1 SWAP2 SUB SWAP1 REVERT JUMPDEST DUP2 PUSH20 0xFFFFFFFFFFFFFFFFFFFFFFFFFFFFFFFFFFFFFFFF AND PUSH4 0x402D8883 PUSH1 0x40 MLOAD DUP2 PUSH4 0xFFFFFFFF AND PUSH1 0xE0 SHL DUP2 MSTORE PUSH1 0x4 ADD PUSH1 0x0 PUSH1 0x40 MLOAD DUP1 DUP4 SUB DUP2 PUSH1 0x0 DUP8 DUP1 EXTCODESIZE ISZERO DUP1 ISZERO PUSH2 0x10C0 JUMPI PUSH1 0x0 DUP1 REVERT JUMPDEST POP GAS CALL ISZERO DUP1 ISZERO PUSH2 0x10D4 JUMPI RETURNDATASIZE PUSH1 0x0 DUP1 RETURNDATACOPY RETURNDATASIZE PUSH1 0x0 REVERT JUMPDEST POP POP POP POP POP POP POP JUMP JUMPDEST PUSH32 0x0 DUP2 JUMP JUMPDEST PUSH1 0x0 PUSH2 0x112C PUSH32 0x0 PUSH2 0x36A JUMP JUMPDEST SWAP1 POP PUSH1 0x0 PUSH20 0xFFFFFFFFFFFFFFFFFFFFFFFFFFFFFFFFFFFFFFFF AND DUP2 PUSH20 0xFFFFFFFFFFFFFFFFFFFFFFFFFFFFFFFFFFFFFFFF AND SUB PUSH2 0x119D JUMPI PUSH1 0x40 MLOAD PUSH32 0x8C379A000000000000000000000000000000000000000000000000000000000 DUP2 MSTORE PUSH1 0x4 ADD PUSH2 0x1194 SWAP1 PUSH2 0x1BFA JUMP JUMPDEST PUSH1 0x40 MLOAD DUP1 SWAP2 SUB SWAP1 REVERT JUMPDEST PUSH1 0x0 DUP2 PUSH20 0xFFFFFFFFFFFFFFFFFFFFFFFFFFFFFFFFFFFFFFFF AND PUSH4 0x1C78DA26 CALLER PUSH1 0x40 MLOAD DUP3 PUSH4 0xFFFFFFFF AND PUSH1 0xE0 SHL DUP2 MSTORE PUSH1 0x4 ADD PUSH2 0x11D8 SWAP2 SWAP1 PUSH2 0x1A33 JUMP JUMPDEST PUSH1 0x40 DUP1 MLOAD DUP1 DUP4 SUB DUP2 DUP7 GAS STATICCALL ISZERO DUP1 ISZERO PUSH2 0x11F4 JUMPI RETURNDATASIZE PUSH1 0x0 DUP1 RETURNDATACOPY RETURNDATASIZE PUSH1 0x0 REVERT JUMPDEST POP POP POP POP PUSH1 0x40 MLOAD RETURNDATASIZE PUSH1 0x1F NOT PUSH1 0x1F DUP3 ADD AND DUP3 ADD DUP1 PUSH1 0x40 MSTORE POP DUP2 ADD SWAP1 PUSH2 0x1218 SWAP2 SWAP1 PUSH2 0x1D10 JUMP JUMPDEST PUSH1 0x0 ADD MLOAD SWAP1 POP PUSH1 0x0 DUP2 GT PUSH2 0x1261 JUMPI PUSH1 0x40 MLOAD PUSH32 0x8C379A000000000000000000000000000000000000000000000000000000000 DUP2 MSTORE PUSH1 0x4 ADD PUSH2 0x1258 SWAP1 PUSH2 0x1E91 JUMP JUMPDEST PUSH1 0x40 MLOAD DUP1 SWAP2 SUB SWAP1 REVERT JUMPDEST DUP2 PUSH20 0xFFFFFFFFFFFFFFFFFFFFFFFFFFFFFFFFFFFFFFFF AND PUSH4 0x3CCFD60B PUSH1 0x40 MLOAD DUP2 PUSH4 0xFFFFFFFF AND PUSH1 0xE0 SHL DUP2 MSTORE PUSH1 0x4 ADD PUSH1 0x0 PUSH1 0x40 MLOAD DUP1 DUP4 SUB DUP2 PUSH1 0x0 DUP8 DUP1 EXTCODESIZE ISZERO DUP1 ISZERO PUSH2 0x12A9 JUMPI PUSH1 0x0 DUP1 REVERT JUMPDEST POP GAS CALL ISZERO DUP1 ISZERO PUSH2 0x12BD JUMPI RETURNDATASIZE PUSH1 0x0 DUP1 RETURNDATACOPY RETURNDATASIZE PUSH1 0x0 REVERT JUMPDEST POP POP POP POP PUSH32 0x0 PUSH20 0xFFFFFFFFFFFFFFFFFFFFFFFFFFFFFFFFFFFFFFFF AND PUSH4 0x23B872DD CALLER ADDRESS DUP5 PUSH1 0x40 MLOAD DUP5 PUSH4 0xFFFFFFFF AND PUSH1 0xE0 SHL DUP2 MSTORE PUSH1 0x4 ADD PUSH2 0x131E SWAP4 SWAP3 SWAP2 SWAP1 PUSH2 0x1DA9 JUMP JUMPDEST PUSH1 0x20 PUSH1 0x40 MLOAD DUP1 DUP4 SUB DUP2 PUSH1 0x0 DUP8 GAS CALL ISZERO DUP1 ISZERO PUSH2 0x133D JUMPI RETURNDATASIZE PUSH1 0x0 DUP1 RETURNDATACOPY RETURNDATASIZE PUSH1 0x0 REVERT JUMPDEST POP POP POP POP PUSH1 0x40 MLOAD RETURNDATASIZE PUSH1 0x1F NOT PUSH1 0x1F DUP3 ADD AND DUP3 ADD DUP1 PUSH1 0x40 MSTORE POP DUP2 ADD SWAP1 PUSH2 0x1361 SWAP2 SWAP1 PUSH2 0x1E18 JUMP JUMPDEST POP PUSH32 0x0 PUSH20 0xFFFFFFFFFFFFFFFFFFFFFFFFFFFFFFFFFFFFFFFF AND PUSH4 0x2E1A7D4D DUP3 PUSH1 0x40 MLOAD DUP3 PUSH4 0xFFFFFFFF AND PUSH1 0xE0 SHL DUP2 MSTORE PUSH1 0x4 ADD PUSH2 0x13BB SWAP2 SWAP1 PUSH2 0x1B13 JUMP JUMPDEST PUSH1 0x0 PUSH1 0x40 MLOAD DUP1 DUP4 SUB DUP2 PUSH1 0x0 DUP8 DUP1 EXTCODESIZE ISZERO DUP1 ISZERO PUSH2 0x13D5 JUMPI PUSH1 0x0 DUP1 REVERT JUMPDEST POP GAS CALL ISZERO DUP1 ISZERO PUSH2 0x13E9 JUMPI RETURNDATASIZE PUSH1 0x0 DUP1 RETURNDATACOPY RETURNDATASIZE PUSH1 0x0 REVERT JUMPDEST POP POP POP POP PUSH2 0x13F7 CALLER DUP3 PUSH2 0x188A JUMP JUMPDEST POP POP JUMP JUMPDEST PUSH1 0x0 PUSH2 0x1426 PUSH32 0x0 PUSH2 0x36A JUMP JUMPDEST SWAP1 POP PUSH1 0x0 PUSH20 0xFFFFFFFFFFFFFFFFFFFFFFFFFFFFFFFFFFFFFFFF AND DUP2 PUSH20 0xFFFFFFFFFFFFFFFFFFFFFFFFFFFFFFFFFFFFFFFF AND SUB PUSH2 0x1497 JUMPI PUSH1 0x40 MLOAD PUSH32 0x8C379A000000000000000000000000000000000000000000000000000000000 DUP2 MSTORE PUSH1 0x4 ADD PUSH2 0x148E SWAP1 PUSH2 0x1BFA JUMP JUMPDEST PUSH1 0x40 MLOAD DUP1 SWAP2 SUB SWAP1 REVERT JUMPDEST PUSH1 0x0 DUP2 PUSH20 0xFFFFFFFFFFFFFFFFFFFFFFFFFFFFFFFFFFFFFFFF AND PUSH4 0x8D113A7F CALLER PUSH1 0x40 MLOAD DUP3 PUSH4 0xFFFFFFFF AND PUSH1 0xE0 SHL DUP2 MSTORE PUSH1 0x4 ADD PUSH2 0x14D2 SWAP2 SWAP1 PUSH2 0x1A33 JUMP JUMPDEST PUSH1 0x40 DUP1 MLOAD DUP1 DUP4 SUB DUP2 DUP7 GAS STATICCALL ISZERO DUP1 ISZERO PUSH2 0x14EE JUMPI RETURNDATASIZE PUSH1 0x0 DUP1 RETURNDATACOPY RETURNDATASIZE PUSH1 0x0 REVERT JUMPDEST POP POP POP POP PUSH1 0x40 MLOAD RETURNDATASIZE PUSH1 0x1F NOT PUSH1 0x1F DUP3 ADD AND DUP3 ADD DUP1 PUSH1 0x40 MSTORE POP DUP2 ADD SWAP1 PUSH2 0x1512 SWAP2 SWAP1 PUSH2 0x1D10 JUMP JUMPDEST PUSH1 0x0 ADD MLOAD SWAP1 POP PUSH1 0x0 DUP2 GT PUSH2 0x155B JUMPI PUSH1 0x40 MLOAD PUSH32 0x8C379A000000000000000000000000000000000000000000000000000000000 DUP2 MSTORE PUSH1 0x4 ADD PUSH2 0x1552 SWAP1 PUSH2 0x1EFD JUMP JUMPDEST PUSH1 0x40 MLOAD DUP1 SWAP2 SUB SWAP1 REVERT JUMPDEST DUP1 CALLVALUE EQ PUSH2 0x159D JUMPI PUSH1 0x40 MLOAD PUSH32 0x8C379A000000000000000000000000000000000000000000000000000000000 DUP2 MSTORE PUSH1 0x4 ADD PUSH2 0x1594 SWAP1 PUSH2 0x1F69 JUMP JUMPDEST PUSH1 0x40 MLOAD DUP1 SWAP2 SUB SWAP1 REVERT JUMPDEST PUSH32 0x0 PUSH20 0xFFFFFFFFFFFFFFFFFFFFFFFFFFFFFFFFFFFFFFFF AND PUSH4 0xD0E30DB0 CALLVALUE PUSH1 0x40 MLOAD DUP3 PUSH4 0xFFFFFFFF AND PUSH1 0xE0 SHL DUP2 MSTORE PUSH1 0x4 ADD PUSH1 0x0 PUSH1 0x40 MLOAD DUP1 DUP4 SUB DUP2 DUP6 DUP9 DUP1 EXTCODESIZE ISZERO DUP1 ISZERO PUSH2 0x1605 JUMPI PUSH1 0x0 DUP1 REVERT JUMPDEST POP GAS CALL ISZERO DUP1 ISZERO PUSH2 0x1619 JUMPI RETURNDATASIZE PUSH1 0x0 DUP1 RETURNDATACOPY RETURNDATASIZE PUSH1 0x0 REVERT JUMPDEST POP POP POP POP POP PUSH2 0x1649 PUSH32 0x0 CALLER CALLVALUE PUSH2 0x1754 JUMP JUMPDEST DUP2 PUSH20 0xFFFFFFFFFFFFFFFFFFFFFFFFFFFFFFFFFFFFFFFF AND PUSH4 0x402D8883 PUSH1 0x40 MLOAD DUP2 PUSH4 0xFFFFFFFF AND PUSH1 0xE0 SHL DUP2 MSTORE PUSH1 0x4 ADD PUSH1 0x0 PUSH1 0x40 MLOAD DUP1 DUP4 SUB DUP2 PUSH1 0x0 DUP8 DUP1 EXTCODESIZE ISZERO DUP1 ISZERO PUSH2 0x1691 JUMPI PUSH1 0x0 DUP1 REVERT JUMPDEST POP GAS CALL ISZERO DUP1 ISZERO PUSH2 0x16A5 JUMPI RETURNDATASIZE PUSH1 0x0 DUP1 RETURNDATACOPY RETURNDATASIZE PUSH1 0x0 REVERT JUMPDEST POP POP POP POP POP POP JUMP JUMPDEST PUSH1 0x0 DUP2 PUSH20 0xFFFFFFFFFFFFFFFFFFFFFFFFFFFFFFFFFFFFFFFF AND PUSH4 0x70A08231 CALLER PUSH1 0x40 MLOAD DUP3 PUSH4 0xFFFFFFFF AND PUSH1 0xE0 SHL DUP2 MSTORE PUSH1 0x4 ADD PUSH2 0x16E8 SWAP2 SWAP1 PUSH2 0x1A33 JUMP JUMPDEST PUSH1 0x20 PUSH1 0x40 MLOAD DUP1 DUP4 SUB DUP2 DUP7 GAS STATICCALL ISZERO DUP1 ISZERO PUSH2 0x1705 JUMPI RETURNDATASIZE PUSH1 0x0 DUP1 RETURNDATACOPY RETURNDATASIZE PUSH1 0x0 REVERT JUMPDEST POP POP POP POP PUSH1 0x40 MLOAD RETURNDATASIZE PUSH1 0x1F NOT PUSH1 0x1F DUP3 ADD AND DUP3 ADD DUP1 PUSH1 0x40 MSTORE POP DUP2 ADD SWAP1 PUSH2 0x1729 SWAP2 SWAP1 PUSH2 0x1F89 JUMP JUMPDEST SWAP1 POP SWAP2 SWAP1 POP JUMP JUMPDEST PUSH32 0x0 DUP2 JUMP JUMPDEST PUSH1 0x0 DUP1 DUP5 PUSH20 0xFFFFFFFFFFFFFFFFFFFFFFFFFFFFFFFFFFFFFFFF AND PUSH4 0xA9059CBB DUP6 DUP6 PUSH1 0x40 MLOAD PUSH1 0x24 ADD PUSH2 0x1786 SWAP3 SWAP2 SWAP1 PUSH2 0x1FB6 JUMP JUMPDEST PUSH1 0x40 MLOAD PUSH1 0x20 DUP2 DUP4 SUB SUB DUP2 MSTORE SWAP1 PUSH1 0x40 MSTORE SWAP1 PUSH1 0xE0 SHL PUSH1 0x20 DUP3 ADD DUP1 MLOAD PUSH28 0xFFFFFFFFFFFFFFFFFFFFFFFFFFFFFFFFFFFFFFFFFFFFFFFFFFFFFFFF DUP4 DUP2 DUP4 AND OR DUP4 MSTORE POP POP POP POP PUSH1 0x40 MLOAD PUSH2 0x17D4 SWAP2 SWAP1 PUSH2 0x2059 JUMP JUMPDEST PUSH1 0x0 PUSH1 0x40 MLOAD DUP1 DUP4 SUB DUP2 PUSH1 0x0 DUP7 GAS CALL SWAP2 POP POP RETURNDATASIZE DUP1 PUSH1 0x0 DUP2 EQ PUSH2 0x1811 JUMPI PUSH1 0x40 MLOAD SWAP2 POP PUSH1 0x1F NOT PUSH1 0x3F RETURNDATASIZE ADD AND DUP3 ADD PUSH1 0x40 MSTORE RETURNDATASIZE DUP3 MSTORE RETURNDATASIZE PUSH1 0x0 PUSH1 0x20 DUP5 ADD RETURNDATACOPY PUSH2 0x1816 JUMP JUMPDEST PUSH1 0x60 SWAP2 POP JUMPDEST POP SWAP2 POP SWAP2 POP DUP2 DUP1 ISZERO PUSH2 0x1844 JUMPI POP PUSH1 0x0 DUP2 MLOAD EQ DUP1 PUSH2 0x1843 JUMPI POP DUP1 DUP1 PUSH1 0x20 ADD SWAP1 MLOAD DUP2 ADD SWAP1 PUSH2 0x1842 SWAP2 SWAP1 PUSH2 0x1E18 JUMP JUMPDEST JUMPDEST JUMPDEST PUSH2 0x1883 JUMPI PUSH1 0x40 MLOAD PUSH32 0x8C379A000000000000000000000000000000000000000000000000000000000 DUP2 MSTORE PUSH1 0x4 ADD PUSH2 0x187A SWAP1 PUSH2 0x20E2 JUMP JUMPDEST PUSH1 0x40 MLOAD DUP1 SWAP2 SUB SWAP1 REVERT JUMPDEST POP POP POP POP POP JUMP JUMPDEST PUSH1 0x0 DUP3 PUSH20 0xFFFFFFFFFFFFFFFFFFFFFFFFFFFFFFFFFFFFFFFF AND DUP3 PUSH1 0x0 PUSH8 0xFFFFFFFFFFFFFFFF DUP2 GT ISZERO PUSH2 0x18BF JUMPI PUSH2 0x18BE PUSH2 0x1C30 JUMP JUMPDEST JUMPDEST PUSH1 0x40 MLOAD SWAP1 DUP1 DUP3 MSTORE DUP1 PUSH1 0x1F ADD PUSH1 0x1F NOT AND PUSH1 0x20 ADD DUP3 ADD PUSH1 0x40 MSTORE DUP1 ISZERO PUSH2 0x18F1 JUMPI DUP2 PUSH1 0x20 ADD PUSH1 0x1 DUP3 MUL DUP1 CALLDATASIZE DUP4 CALLDATACOPY DUP1 DUP3 ADD SWAP2 POP POP SWAP1 POP JUMPDEST POP PUSH1 0x40 MLOAD PUSH2 0x18FF SWAP2 SWAP1 PUSH2 0x2059 JUMP JUMPDEST PUSH1 0x0 PUSH1 0x40 MLOAD DUP1 DUP4 SUB DUP2 DUP6 DUP8 GAS CALL SWAP3 POP POP POP RETURNDATASIZE DUP1 PUSH1 0x0 DUP2 EQ PUSH2 0x193C JUMPI PUSH1 0x40 MLOAD SWAP2 POP PUSH1 0x1F NOT PUSH1 0x3F RETURNDATASIZE ADD AND DUP3 ADD PUSH1 0x40 MSTORE RETURNDATASIZE DUP3 MSTORE RETURNDATASIZE PUSH1 0x0 PUSH1 0x20 DUP5 ADD RETURNDATACOPY PUSH2 0x1941 JUMP JUMPDEST PUSH1 0x60 SWAP2 POP JUMPDEST POP POP SWAP1 POP DUP1 PUSH2 0x1985 JUMPI PUSH1 0x40 MLOAD PUSH32 0x8C379A000000000000000000000000000000000000000000000000000000000 DUP2 MSTORE PUSH1 0x4 ADD PUSH2 0x197C SWAP1 PUSH2 0x2174 JUMP JUMPDEST PUSH1 0x40 MLOAD DUP1 SWAP2 SUB SWAP1 REVERT JUMPDEST POP POP POP JUMP JUMPDEST PUSH1 0x0 PUSH1 0x40 MLOAD SWAP1 POP SWAP1 JUMP JUMPDEST PUSH1 0x0 DUP1 REVERT JUMPDEST PUSH1 0x0 PUSH20 0xFFFFFFFFFFFFFFFFFFFFFFFFFFFFFFFFFFFFFFFF DUP3 AND SWAP1 POP SWAP2 SWAP1 POP JUMP JUMPDEST PUSH1 0x0 PUSH2 0x19C4 DUP3 PUSH2 0x1999 JUMP JUMPDEST SWAP1 POP SWAP2 SWAP1 POP JUMP JUMPDEST PUSH2 0x19D4 DUP2 PUSH2 0x19B9 JUMP JUMPDEST DUP2 EQ PUSH2 0x19DF JUMPI PUSH1 0x0 DUP1 REVERT JUMPDEST POP JUMP JUMPDEST PUSH1 0x0 DUP2 CALLDATALOAD SWAP1 POP PUSH2 0x19F1 DUP2 PUSH2 0x19CB JUMP JUMPDEST SWAP3 SWAP2 POP POP JUMP JUMPDEST PUSH1 0x0 PUSH1 0x20 DUP3 DUP5 SUB SLT ISZERO PUSH2 0x1A0D JUMPI PUSH2 0x1A0C PUSH2 0x1994 JUMP JUMPDEST JUMPDEST PUSH1 0x0 PUSH2 0x1A1B DUP5 DUP3 DUP6 ADD PUSH2 0x19E2 JUMP JUMPDEST SWAP2 POP POP SWAP3 SWAP2 POP POP JUMP JUMPDEST PUSH2 0x1A2D DUP2 PUSH2 0x19B9 JUMP JUMPDEST DUP3 MSTORE POP POP JUMP JUMPDEST PUSH1 0x0 PUSH1 0x20 DUP3 ADD SWAP1 POP PUSH2 0x1A48 PUSH1 0x0 DUP4 ADD DUP5 PUSH2 0x1A24 JUMP JUMPDEST SWAP3 SWAP2 POP POP JUMP JUMPDEST PUSH1 0x0 DUP2 SWAP1 POP SWAP2 SWAP1 POP JUMP JUMPDEST PUSH2 0x1A61 DUP2 PUSH2 0x1A4E JUMP JUMPDEST DUP2 EQ PUSH2 0x1A6C JUMPI PUSH1 0x0 DUP1 REVERT JUMPDEST POP JUMP JUMPDEST PUSH1 0x0 DUP2 CALLDATALOAD SWAP1 POP PUSH2 0x1A7E DUP2 PUSH2 0x1A58 JUMP JUMPDEST SWAP3 SWAP2 POP POP JUMP JUMPDEST PUSH1 0x0 DUP1 PUSH1 0x40 DUP4 DUP6 SUB SLT ISZERO PUSH2 0x1A9B JUMPI PUSH2 0x1A9A PUSH2 0x1994 JUMP JUMPDEST JUMPDEST PUSH1 0x0 PUSH2 0x1AA9 DUP6 DUP3 DUP7 ADD PUSH2 0x19E2 JUMP JUMPDEST SWAP3 POP POP PUSH1 0x20 PUSH2 0x1ABA DUP6 DUP3 DUP7 ADD PUSH2 0x1A6F JUMP JUMPDEST SWAP2 POP POP SWAP3 POP SWAP3 SWAP1 POP JUMP JUMPDEST PUSH1 0x0 DUP1 PUSH1 0x40 DUP4 DUP6 SUB SLT ISZERO PUSH2 0x1ADB JUMPI PUSH2 0x1ADA PUSH2 0x1994 JUMP JUMPDEST JUMPDEST PUSH1 0x0 PUSH2 0x1AE9 DUP6 DUP3 DUP7 ADD PUSH2 0x19E2 JUMP JUMPDEST SWAP3 POP POP PUSH1 0x20 PUSH2 0x1AFA DUP6 DUP3 DUP7 ADD PUSH2 0x19E2 JUMP JUMPDEST SWAP2 POP POP SWAP3 POP SWAP3 SWAP1 POP JUMP JUMPDEST PUSH2 0x1B0D DUP2 PUSH2 0x1A4E JUMP JUMPDEST DUP3 MSTORE POP POP JUMP JUMPDEST PUSH1 0x0 PUSH1 0x20 DUP3 ADD SWAP1 POP PUSH2 0x1B28 PUSH1 0x0 DUP4 ADD DUP5 PUSH2 0x1B04 JUMP JUMPDEST SWAP3 SWAP2 POP POP JUMP JUMPDEST PUSH1 0x0 PUSH1 0x20 DUP3 DUP5 SUB SLT ISZERO PUSH2 0x1B44 JUMPI PUSH2 0x1B43 PUSH2 0x1994 JUMP JUMPDEST JUMPDEST PUSH1 0x0 PUSH2 0x1B52 DUP5 DUP3 DUP6 ADD PUSH2 0x1A6F JUMP JUMPDEST SWAP2 POP POP SWAP3 SWAP2 POP POP JUMP JUMPDEST PUSH1 0x0 DUP2 MLOAD SWAP1 POP PUSH2 0x1B6A DUP2 PUSH2 0x19CB JUMP JUMPDEST SWAP3 SWAP2 POP POP JUMP JUMPDEST PUSH1 0x0 PUSH1 0x20 DUP3 DUP5 SUB SLT ISZERO PUSH2 0x1B86 JUMPI PUSH2 0x1B85 PUSH2 0x1994 JUMP JUMPDEST JUMPDEST PUSH1 0x0 PUSH2 0x1B94 DUP5 DUP3 DUP6 ADD PUSH2 0x1B5B JUMP JUMPDEST SWAP2 POP POP SWAP3 SWAP2 POP POP JUMP JUMPDEST PUSH1 0x0 DUP3 DUP3 MSTORE PUSH1 0x20 DUP3 ADD SWAP1 POP SWAP3 SWAP2 POP POP JUMP JUMPDEST PUSH32 0x506F6F6C20446F6573206E6F7420657869737473000000000000000000000000 PUSH1 0x0 DUP3 ADD MSTORE POP JUMP JUMPDEST PUSH1 0x0 PUSH2 0x1BE4 PUSH1 0x14 DUP4 PUSH2 0x1B9D JUMP JUMPDEST SWAP2 POP PUSH2 0x1BEF DUP3 PUSH2 0x1BAE JUMP JUMPDEST PUSH1 0x20 DUP3 ADD SWAP1 POP SWAP2 SWAP1 POP JUMP JUMPDEST PUSH1 0x0 PUSH1 0x20 DUP3 ADD SWAP1 POP DUP2 DUP2 SUB PUSH1 0x0 DUP4 ADD MSTORE PUSH2 0x1C13 DUP2 PUSH2 0x1BD7 JUMP JUMPDEST SWAP1 POP SWAP2 SWAP1 POP JUMP JUMPDEST PUSH1 0x0 DUP1 REVERT JUMPDEST PUSH1 0x0 PUSH1 0x1F NOT PUSH1 0x1F DUP4 ADD AND SWAP1 POP SWAP2 SWAP1 POP JUMP JUMPDEST PUSH32 0x4E487B7100000000000000000000000000000000000000000000000000000000 PUSH1 0x0 MSTORE PUSH1 0x41 PUSH1 0x4 MSTORE PUSH1 0x24 PUSH1 0x0 REVERT JUMPDEST PUSH2 0x1C68 DUP3 PUSH2 0x1C1F JUMP JUMPDEST DUP2 ADD DUP2 DUP2 LT PUSH8 0xFFFFFFFFFFFFFFFF DUP3 GT OR ISZERO PUSH2 0x1C87 JUMPI PUSH2 0x1C86 PUSH2 0x1C30 JUMP JUMPDEST JUMPDEST DUP1 PUSH1 0x40 MSTORE POP POP POP JUMP JUMPDEST PUSH1 0x0 PUSH2 0x1C9A PUSH2 0x198A JUMP JUMPDEST SWAP1 POP PUSH2 0x1CA6 DUP3 DUP3 PUSH2 0x1C5F JUMP JUMPDEST SWAP2 SWAP1 POP JUMP JUMPDEST PUSH1 0x0 DUP2 MLOAD SWAP1 POP PUSH2 0x1CBA DUP2 PUSH2 0x1A58 JUMP JUMPDEST SWAP3 SWAP2 POP POP JUMP JUMPDEST PUSH1 0x0 PUSH1 0x40 DUP3 DUP5 SUB SLT ISZERO PUSH2 0x1CD6 JUMPI PUSH2 0x1CD5 PUSH2 0x1C1A JUMP JUMPDEST JUMPDEST PUSH2 0x1CE0 PUSH1 0x40 PUSH2 0x1C90 JUMP JUMPDEST SWAP1 POP PUSH1 0x0 PUSH2 0x1CF0 DUP5 DUP3 DUP6 ADD PUSH2 0x1CAB JUMP JUMPDEST PUSH1 0x0 DUP4 ADD MSTORE POP PUSH1 0x20 PUSH2 0x1D04 DUP5 DUP3 DUP6 ADD PUSH2 0x1CAB JUMP JUMPDEST PUSH1 0x20 DUP4 ADD MSTORE POP SWAP3 SWAP2 POP POP JUMP JUMPDEST PUSH1 0x0 PUSH1 0x40 DUP3 DUP5 SUB SLT ISZERO PUSH2 0x1D26 JUMPI PUSH2 0x1D25 PUSH2 0x1994 JUMP JUMPDEST JUMPDEST PUSH1 0x0 PUSH2 0x1D34 DUP5 DUP3 DUP6 ADD PUSH2 0x1CC0 JUMP JUMPDEST SWAP2 POP POP SWAP3 SWAP2 POP POP JUMP JUMPDEST PUSH32 0x496E636F727265637420416D6F756E7400000000000000000000000000000000 PUSH1 0x0 DUP3 ADD MSTORE POP JUMP JUMPDEST PUSH1 0x0 PUSH2 0x1D73 PUSH1 0x10 DUP4 PUSH2 0x1B9D JUMP JUMPDEST SWAP2 POP PUSH2 0x1D7E DUP3 PUSH2 0x1D3D JUMP JUMPDEST PUSH1 0x20 DUP3 ADD SWAP1 POP SWAP2 SWAP1 POP JUMP JUMPDEST PUSH1 0x0 PUSH1 0x20 DUP3 ADD SWAP1 POP DUP2 DUP2 SUB PUSH1 0x0 DUP4 ADD MSTORE PUSH2 0x1DA2 DUP2 PUSH2 0x1D66 JUMP JUMPDEST SWAP1 POP SWAP2 SWAP1 POP JUMP JUMPDEST PUSH1 0x0 PUSH1 0x60 DUP3 ADD SWAP1 POP PUSH2 0x1DBE PUSH1 0x0 DUP4 ADD DUP7 PUSH2 0x1A24 JUMP JUMPDEST PUSH2 0x1DCB PUSH1 0x20 DUP4 ADD DUP6 PUSH2 0x1A24 JUMP JUMPDEST PUSH2 0x1DD8 PUSH1 0x40 DUP4 ADD DUP5 PUSH2 0x1B04 JUMP JUMPDEST SWAP5 SWAP4 POP POP POP POP JUMP JUMPDEST PUSH1 0x0 DUP2 ISZERO ISZERO SWAP1 POP SWAP2 SWAP1 POP JUMP JUMPDEST PUSH2 0x1DF5 DUP2 PUSH2 0x1DE0 JUMP JUMPDEST DUP2 EQ PUSH2 0x1E00 JUMPI PUSH1 0x0 DUP1 REVERT JUMPDEST POP JUMP JUMPDEST PUSH1 0x0 DUP2 MLOAD SWAP1 POP PUSH2 0x1E12 DUP2 PUSH2 0x1DEC JUMP JUMPDEST SWAP3 SWAP2 POP POP JUMP JUMPDEST PUSH1 0x0 PUSH1 0x20 DUP3 DUP5 SUB SLT ISZERO PUSH2 0x1E2E JUMPI PUSH2 0x1E2D PUSH2 0x1994 JUMP JUMPDEST JUMPDEST PUSH1 0x0 PUSH2 0x1E3C DUP5 DUP3 DUP6 ADD PUSH2 0x1E03 JUMP JUMPDEST SWAP2 POP POP SWAP3 SWAP2 POP POP JUMP JUMPDEST PUSH32 0x4E6F20616D6F756E7420746F2077697468647261770000000000000000000000 PUSH1 0x0 DUP3 ADD MSTORE POP JUMP JUMPDEST PUSH1 0x0 PUSH2 0x1E7B PUSH1 0x15 DUP4 PUSH2 0x1B9D JUMP JUMPDEST SWAP2 POP PUSH2 0x1E86 DUP3 PUSH2 0x1E45 JUMP JUMPDEST PUSH1 0x20 DUP3 ADD SWAP1 POP SWAP2 SWAP1 POP JUMP JUMPDEST PUSH1 0x0 PUSH1 0x20 DUP3 ADD SWAP1 POP DUP2 DUP2 SUB PUSH1 0x0 DUP4 ADD MSTORE PUSH2 0x1EAA DUP2 PUSH2 0x1E6E JUMP JUMPDEST SWAP1 POP SWAP2 SWAP1 POP JUMP JUMPDEST PUSH32 0x4E6F20416D6F756E7420746F2072657061790000000000000000000000000000 PUSH1 0x0 DUP3 ADD MSTORE POP JUMP JUMPDEST PUSH1 0x0 PUSH2 0x1EE7 PUSH1 0x12 DUP4 PUSH2 0x1B9D JUMP JUMPDEST SWAP2 POP PUSH2 0x1EF2 DUP3 PUSH2 0x1EB1 JUMP JUMPDEST PUSH1 0x20 DUP3 ADD SWAP1 POP SWAP2 SWAP1 POP JUMP JUMPDEST PUSH1 0x0 PUSH1 0x20 DUP3 ADD SWAP1 POP DUP2 DUP2 SUB PUSH1 0x0 DUP4 ADD MSTORE PUSH2 0x1F16 DUP2 PUSH2 0x1EDA JUMP JUMPDEST SWAP1 POP SWAP2 SWAP1 POP JUMP JUMPDEST PUSH32 0x496E636F727265637420616D6F756E742073656E740000000000000000000000 PUSH1 0x0 DUP3 ADD MSTORE POP JUMP JUMPDEST PUSH1 0x0 PUSH2 0x1F53 PUSH1 0x15 DUP4 PUSH2 0x1B9D JUMP JUMPDEST SWAP2 POP PUSH2 0x1F5E DUP3 PUSH2 0x1F1D JUMP JUMPDEST PUSH1 0x20 DUP3 ADD SWAP1 POP SWAP2 SWAP1 POP JUMP JUMPDEST PUSH1 0x0 PUSH1 0x20 DUP3 ADD SWAP1 POP DUP2 DUP2 SUB PUSH1 0x0 DUP4 ADD MSTORE PUSH2 0x1F82 DUP2 PUSH2 0x1F46 JUMP JUMPDEST SWAP1 POP SWAP2 SWAP1 POP JUMP JUMPDEST PUSH1 0x0 PUSH1 0x20 DUP3 DUP5 SUB SLT ISZERO PUSH2 0x1F9F JUMPI PUSH2 0x1F9E PUSH2 0x1994 JUMP JUMPDEST JUMPDEST PUSH1 0x0 PUSH2 0x1FAD DUP5 DUP3 DUP6 ADD PUSH2 0x1CAB JUMP JUMPDEST SWAP2 POP POP SWAP3 SWAP2 POP POP JUMP JUMPDEST PUSH1 0x0 PUSH1 0x40 DUP3 ADD SWAP1 POP PUSH2 0x1FCB PUSH1 0x0 DUP4 ADD DUP6 PUSH2 0x1A24 JUMP JUMPDEST PUSH2 0x1FD8 PUSH1 0x20 DUP4 ADD DUP5 PUSH2 0x1B04 JUMP JUMPDEST SWAP4 SWAP3 POP POP POP JUMP JUMPDEST PUSH1 0x0 DUP2 MLOAD SWAP1 POP SWAP2 SWAP1 POP JUMP JUMPDEST PUSH1 0x0 DUP2 SWAP1 POP SWAP3 SWAP2 POP POP JUMP JUMPDEST PUSH1 0x0 JUMPDEST DUP4 DUP2 LT ISZERO PUSH2 0x2013 JUMPI DUP1 DUP3 ADD MLOAD DUP2 DUP5 ADD MSTORE PUSH1 0x20 DUP2 ADD SWAP1 POP PUSH2 0x1FF8 JUMP JUMPDEST DUP4 DUP2 GT ISZERO PUSH2 0x2022 JUMPI PUSH1 0x0 DUP5 DUP5 ADD MSTORE JUMPDEST POP POP POP POP JUMP JUMPDEST PUSH1 0x0 PUSH2 0x2033 DUP3 PUSH2 0x1FDF JUMP JUMPDEST PUSH2 0x203D DUP2 DUP6 PUSH2 0x1FEA JUMP JUMPDEST SWAP4 POP PUSH2 0x204D DUP2 DUP6 PUSH1 0x20 DUP7 ADD PUSH2 0x1FF5 JUMP JUMPDEST DUP1 DUP5 ADD SWAP2 POP POP SWAP3 SWAP2 POP POP JUMP JUMPDEST PUSH1 0x0 PUSH2 0x2065 DUP3 DUP5 PUSH2 0x2028 JUMP JUMPDEST SWAP2 POP DUP2 SWAP1 POP SWAP3 SWAP2 POP POP JUMP JUMPDEST PUSH32 0x5472616E7366657248656C7065723A3A736166655472616E736665723A207472 PUSH1 0x0 DUP3 ADD MSTORE PUSH32 0x616E73666572206661696C656400000000000000000000000000000000000000 PUSH1 0x20 DUP3 ADD MSTORE POP JUMP JUMPDEST PUSH1 0x0 PUSH2 0x20CC PUSH1 0x2D DUP4 PUSH2 0x1B9D JUMP JUMPDEST SWAP2 POP PUSH2 0x20D7 DUP3 PUSH2 0x2070 JUMP JUMPDEST PUSH1 0x40 DUP3 ADD SWAP1 POP SWAP2 SWAP1 POP JUMP JUMPDEST PUSH1 0x0 PUSH1 0x20 DUP3 ADD SWAP1 POP DUP2 DUP2 SUB PUSH1 0x0 DUP4 ADD MSTORE PUSH2 0x20FB DUP2 PUSH2 0x20BF JUMP JUMPDEST SWAP1 POP SWAP2 SWAP1 POP JUMP JUMPDEST PUSH32 0x5472616E7366657248656C7065723A3A736166655472616E736665724554483A PUSH1 0x0 DUP3 ADD MSTORE PUSH32 0x20455448207472616E73666572206661696C6564000000000000000000000000 PUSH1 0x20 DUP3 ADD MSTORE POP JUMP JUMPDEST PUSH1 0x0 PUSH2 0x215E PUSH1 0x34 DUP4 PUSH2 0x1B9D JUMP JUMPDEST SWAP2 POP PUSH2 0x2169 DUP3 PUSH2 0x2102 JUMP JUMPDEST PUSH1 0x40 DUP3 ADD SWAP1 POP SWAP2 SWAP1 POP JUMP JUMPDEST PUSH1 0x0 PUSH1 0x20 DUP3 ADD SWAP1 POP DUP2 DUP2 SUB PUSH1 0x0 DUP4 ADD MSTORE PUSH2 0x218D DUP2 PUSH2 0x2151 JUMP JUMPDEST SWAP1 POP SWAP2 SWAP1 POP JUMP INVALID LOG2 PUSH5 0x6970667358 0x22 SLT KECCAK256 0xD0 0x2E 0x22 0x2A 0x4E 0x21 NOT PUSH16 0xBAF55A61D0AA475653511BDC2CDD1A16 0xAE TIMESTAMP PUSH17 0x8A795AF15664736F6C634300080E003300 "
				},
				"gasEstimates": {
					"creation": {
						"codeDepositCost": "1730000",
						"executionCost": "infinite",
						"totalCost": "infinite"
					},
					"external": {
						"WEXDC()": "infinite",
						"borrowETH(uint256)": "infinite",
						"borrowToken(address,uint256)": "infinite",
						"createPool(address)": "infinite",
						"depositETH(uint256)": "infinite",
						"depositToken(address,uint256)": "infinite",
						"factory()": "infinite",
						"getBalance(address)": "infinite",
						"getBorrowAmount(address,address)": "infinite",
						"getLendAmount(address,address)": "infinite",
						"getPoolAddress(address)": "infinite",
						"repayETH()": "infinite",
						"repayToken(address)": "infinite",
						"withdrawETH()": "infinite",
						"withdrawToken(address)": "infinite"
					}
				},
				"methodIdentifiers": {
					"WEXDC()": "fd08c30c",
					"borrowETH(uint256)": "7b2af625",
					"borrowToken(address,uint256)": "5a91b39c",
					"createPool(address)": "9049f9d2",
					"depositETH(uint256)": "5358fbda",
					"depositToken(address,uint256)": "338b5dea",
					"factory()": "c45a0155",
					"getBalance(address)": "f8b2cb4f",
					"getBorrowAmount(address,address)": "38bad5e5",
					"getLendAmount(address,address)": "987242e9",
					"getPoolAddress(address)": "1228cbee",
					"repayETH()": "eecbcda0",
					"repayToken(address)": "bbfb286b",
					"withdrawETH()": "e086e5ec",
					"withdrawToken(address)": "89476069"
				}
			},
			"storageLayout": {
				"storage": [],
				"types": null
			},
			"userdoc": {
				"kind": "user",
				"methods": {
					"depositToken(address,uint256)": {
						"notice": "user SafeApprove , SafeTransfer , SafeTransferFrom from Transfer Helper"
					}
				},
				"version": 1
			}
		}
	}
}