{
	"Periphery/StakingPoolRouter.sol": {
		"StakingPoolRouter": {
			"abi": [
				{
					"inputs": [
						{
							"internalType": "address",
							"name": "_factory",
							"type": "address"
						},
						{
							"internalType": "address",
							"name": "xdcWrapper",
							"type": "address"
						},
						{
							"internalType": "address",
							"name": "_rtoken",
							"type": "address"
						}
					],
					"stateMutability": "nonpayable",
					"type": "constructor"
				},
				{
					"inputs": [],
					"name": "WEXDC",
					"outputs": [
						{
							"internalType": "address",
							"name": "",
							"type": "address"
						}
					],
					"stateMutability": "view",
					"type": "function"
				},
				{
					"inputs": [
						{
							"internalType": "address",
							"name": "sToken",
							"type": "address"
						}
					],
					"name": "createPool",
					"outputs": [],
					"stateMutability": "nonpayable",
					"type": "function"
				},
				{
					"inputs": [],
					"name": "factory",
					"outputs": [
						{
							"internalType": "address",
							"name": "",
							"type": "address"
						}
					],
					"stateMutability": "view",
					"type": "function"
				},
				{
					"inputs": [
						{
							"internalType": "address",
							"name": "token",
							"type": "address"
						}
					],
					"name": "getBalance",
					"outputs": [
						{
							"internalType": "uint256",
							"name": "balance",
							"type": "uint256"
						}
					],
					"stateMutability": "view",
					"type": "function"
				},
				{
					"inputs": [
						{
							"internalType": "address",
							"name": "token",
							"type": "address"
						}
					],
					"name": "getPoolAddress",
					"outputs": [
						{
							"internalType": "address",
							"name": "pool",
							"type": "address"
						}
					],
					"stateMutability": "view",
					"type": "function"
				},
				{
					"inputs": [
						{
							"internalType": "address",
							"name": "token",
							"type": "address"
						},
						{
							"internalType": "address",
							"name": "user",
							"type": "address"
						}
					],
					"name": "getRewardEarned",
					"outputs": [
						{
							"internalType": "uint256",
							"name": "rewardAmount",
							"type": "uint256"
						}
					],
					"stateMutability": "view",
					"type": "function"
				},
				{
					"inputs": [
						{
							"internalType": "address",
							"name": "user",
							"type": "address"
						},
						{
							"internalType": "address",
							"name": "token",
							"type": "address"
						}
					],
					"name": "getStaked",
					"outputs": [
						{
							"internalType": "uint256",
							"name": "stakedAmount",
							"type": "uint256"
						}
					],
					"stateMutability": "view",
					"type": "function"
				},
				{
					"inputs": [
						{
							"internalType": "address",
							"name": "token",
							"type": "address"
						}
					],
					"name": "reedemReward",
					"outputs": [],
					"stateMutability": "nonpayable",
					"type": "function"
				},
				{
					"inputs": [],
					"name": "reedemRewardETH",
					"outputs": [],
					"stateMutability": "nonpayable",
					"type": "function"
				},
				{
					"inputs": [],
					"name": "rtoken",
					"outputs": [
						{
							"internalType": "address",
							"name": "",
							"type": "address"
						}
					],
					"stateMutability": "view",
					"type": "function"
				},
				{
					"inputs": [
						{
							"internalType": "address",
							"name": "token",
							"type": "address"
						},
						{
							"internalType": "uint256",
							"name": "_amount",
							"type": "uint256"
						}
					],
					"name": "stake",
					"outputs": [],
					"stateMutability": "nonpayable",
					"type": "function"
				},
				{
					"inputs": [
						{
							"internalType": "uint256",
							"name": "_amount",
							"type": "uint256"
						}
					],
					"name": "stakedETH",
					"outputs": [],
					"stateMutability": "payable",
					"type": "function"
				},
				{
					"inputs": [
						{
							"internalType": "address",
							"name": "token",
							"type": "address"
						},
						{
							"internalType": "uint256",
							"name": "_amount",
							"type": "uint256"
						}
					],
					"name": "withdraw",
					"outputs": [],
					"stateMutability": "nonpayable",
					"type": "function"
				},
				{
					"inputs": [
						{
							"internalType": "uint256",
							"name": "_amount",
							"type": "uint256"
						}
					],
					"name": "withdrawETH",
					"outputs": [],
					"stateMutability": "nonpayable",
					"type": "function"
				}
			],
			"devdoc": {
				"kind": "dev",
				"methods": {},
				"version": 1
			},
			"evm": {
				"assembly": "    /* \"Periphery/StakingPoolRouter.sol\":340:3440  contract StakingPoolRouter {... */\n  mstore(0x40, 0xe0)\n    /* \"Periphery/StakingPoolRouter.sol\":485:671  constructor(... */\n  callvalue\n  dup1\n  iszero\n  tag_1\n  jumpi\n  0x00\n  dup1\n  revert\ntag_1:\n  pop\n  mload(0x40)\n  sub(codesize, bytecodeSize)\n  dup1\n  bytecodeSize\n  dup4\n  codecopy\n  dup2\n  dup2\n  add\n  0x40\n  mstore\n  dup2\n  add\n  swap1\n  tag_2\n  swap2\n  swap1\n  tag_3\n  jump\t// in\ntag_2:\n    /* \"Periphery/StakingPoolRouter.sol\":602:610  _factory */\n  dup3\n    /* \"Periphery/StakingPoolRouter.sol\":592:610  factory = _factory */\n  0xffffffffffffffffffffffffffffffffffffffff\n  and\n  0x80\n  dup2\n  0xffffffffffffffffffffffffffffffffffffffff\n  and\n  dup2\n  mstore\n  pop\n  pop\n    /* \"Periphery/StakingPoolRouter.sol\":628:638  xdcWrapper */\n  dup2\n    /* \"Periphery/StakingPoolRouter.sol\":620:638  WEXDC = xdcWrapper */\n  0xffffffffffffffffffffffffffffffffffffffff\n  and\n  0xa0\n  dup2\n  0xffffffffffffffffffffffffffffffffffffffff\n  and\n  dup2\n  mstore\n  pop\n  pop\n    /* \"Periphery/StakingPoolRouter.sol\":657:664  _rtoken */\n  dup1\n    /* \"Periphery/StakingPoolRouter.sol\":648:664  rtoken = _rtoken */\n  0xffffffffffffffffffffffffffffffffffffffff\n  and\n  0xc0\n  dup2\n  0xffffffffffffffffffffffffffffffffffffffff\n  and\n  dup2\n  mstore\n  pop\n  pop\n    /* \"Periphery/StakingPoolRouter.sol\":485:671  constructor(... */\n  pop\n  pop\n  pop\n    /* \"Periphery/StakingPoolRouter.sol\":340:3440  contract StakingPoolRouter {... */\n  jump(tag_6)\n    /* \"#utility.yul\":88:205   */\ntag_8:\n    /* \"#utility.yul\":197:198   */\n  0x00\n    /* \"#utility.yul\":194:195   */\n  dup1\n    /* \"#utility.yul\":187:199   */\n  revert\n    /* \"#utility.yul\":334:460   */\ntag_10:\n    /* \"#utility.yul\":371:378   */\n  0x00\n    /* \"#utility.yul\":411:453   */\n  0xffffffffffffffffffffffffffffffffffffffff\n    /* \"#utility.yul\":404:409   */\n  dup3\n    /* \"#utility.yul\":400:454   */\n  and\n    /* \"#utility.yul\":389:454   */\n  swap1\n  pop\n    /* \"#utility.yul\":334:460   */\n  swap2\n  swap1\n  pop\n  jump\t// out\n    /* \"#utility.yul\":466:562   */\ntag_11:\n    /* \"#utility.yul\":503:510   */\n  0x00\n    /* \"#utility.yul\":532:556   */\n  tag_20\n    /* \"#utility.yul\":550:555   */\n  dup3\n    /* \"#utility.yul\":532:556   */\n  tag_10\n  jump\t// in\ntag_20:\n    /* \"#utility.yul\":521:556   */\n  swap1\n  pop\n    /* \"#utility.yul\":466:562   */\n  swap2\n  swap1\n  pop\n  jump\t// out\n    /* \"#utility.yul\":568:690   */\ntag_12:\n    /* \"#utility.yul\":641:665   */\n  tag_22\n    /* \"#utility.yul\":659:664   */\n  dup2\n    /* \"#utility.yul\":641:665   */\n  tag_11\n  jump\t// in\ntag_22:\n    /* \"#utility.yul\":634:639   */\n  dup2\n    /* \"#utility.yul\":631:666   */\n  eq\n    /* \"#utility.yul\":621:684   */\n  tag_23\n  jumpi\n    /* \"#utility.yul\":680:681   */\n  0x00\n    /* \"#utility.yul\":677:678   */\n  dup1\n    /* \"#utility.yul\":670:682   */\n  revert\n    /* \"#utility.yul\":621:684   */\ntag_23:\n    /* \"#utility.yul\":568:690   */\n  pop\n  jump\t// out\n    /* \"#utility.yul\":696:839   */\ntag_13:\n    /* \"#utility.yul\":753:758   */\n  0x00\n    /* \"#utility.yul\":784:790   */\n  dup2\n    /* \"#utility.yul\":778:791   */\n  mload\n    /* \"#utility.yul\":769:791   */\n  swap1\n  pop\n    /* \"#utility.yul\":800:833   */\n  tag_25\n    /* \"#utility.yul\":827:832   */\n  dup2\n    /* \"#utility.yul\":800:833   */\n  tag_12\n  jump\t// in\ntag_25:\n    /* \"#utility.yul\":696:839   */\n  swap3\n  swap2\n  pop\n  pop\n  jump\t// out\n    /* \"#utility.yul\":845:1508   */\ntag_3:\n    /* \"#utility.yul\":933:939   */\n  0x00\n    /* \"#utility.yul\":941:947   */\n  dup1\n    /* \"#utility.yul\":949:955   */\n  0x00\n    /* \"#utility.yul\":998:1000   */\n  0x60\n    /* \"#utility.yul\":986:995   */\n  dup5\n    /* \"#utility.yul\":977:984   */\n  dup7\n    /* \"#utility.yul\":973:996   */\n  sub\n    /* \"#utility.yul\":969:1001   */\n  slt\n    /* \"#utility.yul\":966:1085   */\n  iszero\n  tag_27\n  jumpi\n    /* \"#utility.yul\":1004:1083   */\n  tag_28\n  tag_8\n  jump\t// in\ntag_28:\n    /* \"#utility.yul\":966:1085   */\ntag_27:\n    /* \"#utility.yul\":1124:1125   */\n  0x00\n    /* \"#utility.yul\":1149:1213   */\n  tag_29\n    /* \"#utility.yul\":1205:1212   */\n  dup7\n    /* \"#utility.yul\":1196:1202   */\n  dup3\n    /* \"#utility.yul\":1185:1194   */\n  dup8\n    /* \"#utility.yul\":1181:1203   */\n  add\n    /* \"#utility.yul\":1149:1213   */\n  tag_13\n  jump\t// in\ntag_29:\n    /* \"#utility.yul\":1139:1213   */\n  swap4\n  pop\n    /* \"#utility.yul\":1095:1223   */\n  pop\n    /* \"#utility.yul\":1262:1264   */\n  0x20\n    /* \"#utility.yul\":1288:1352   */\n  tag_30\n    /* \"#utility.yul\":1344:1351   */\n  dup7\n    /* \"#utility.yul\":1335:1341   */\n  dup3\n    /* \"#utility.yul\":1324:1333   */\n  dup8\n    /* \"#utility.yul\":1320:1342   */\n  add\n    /* \"#utility.yul\":1288:1352   */\n  tag_13\n  jump\t// in\ntag_30:\n    /* \"#utility.yul\":1278:1352   */\n  swap3\n  pop\n    /* \"#utility.yul\":1233:1362   */\n  pop\n    /* \"#utility.yul\":1401:1403   */\n  0x40\n    /* \"#utility.yul\":1427:1491   */\n  tag_31\n    /* \"#utility.yul\":1483:1490   */\n  dup7\n    /* \"#utility.yul\":1474:1480   */\n  dup3\n    /* \"#utility.yul\":1463:1472   */\n  dup8\n    /* \"#utility.yul\":1459:1481   */\n  add\n    /* \"#utility.yul\":1427:1491   */\n  tag_13\n  jump\t// in\ntag_31:\n    /* \"#utility.yul\":1417:1491   */\n  swap2\n  pop\n    /* \"#utility.yul\":1372:1501   */\n  pop\n    /* \"#utility.yul\":845:1508   */\n  swap3\n  pop\n  swap3\n  pop\n  swap3\n  jump\t// out\n    /* \"Periphery/StakingPoolRouter.sol\":340:3440  contract StakingPoolRouter {... */\ntag_6:\n  mload(0x80)\n  mload(0xa0)\n  mload(0xc0)\n  codecopy(0x00, dataOffset(sub_0), dataSize(sub_0))\n  0x00\n  assignImmutable(\"0x1919bbb77b48a65a3a334e011819abf5317994b267bc385c63c0af09ecf64635\")\n  0x00\n  assignImmutable(\"0xe54f8e4a5d17b2e4d97cb94ddb2a2b00b3620f93c06158e24f4515b3f1ad0dd8\")\n  0x00\n  assignImmutable(\"0x980c46aeb242fb2816eec3c43a568cdc6adda404b46e62cce4e3fe7d929881e3\")\n  return(0x00, dataSize(sub_0))\nstop\n\nsub_0: assembly {\n        /* \"Periphery/StakingPoolRouter.sol\":340:3440  contract StakingPoolRouter {... */\n      mstore(0x40, 0x80)\n      jumpi(tag_1, lt(calldatasize, 0x04))\n      shr(0xe0, calldataload(0x00))\n      dup1\n      0xdf2a26e9\n      gt\n      tag_16\n      jumpi\n      dup1\n      0xf379dfd0\n      gt\n      tag_17\n      jumpi\n      dup1\n      0xf379dfd0\n      eq\n      tag_12\n      jumpi\n      dup1\n      0xf3fef3a3\n      eq\n      tag_13\n      jumpi\n      dup1\n      0xf8b2cb4f\n      eq\n      tag_14\n      jumpi\n      dup1\n      0xfd08c30c\n      eq\n      tag_15\n      jumpi\n      jump(tag_1)\n    tag_17:\n      dup1\n      0xdf2a26e9\n      eq\n      tag_9\n      jumpi\n      dup1\n      0xef4361b7\n      eq\n      tag_10\n      jumpi\n      dup1\n      0xf14210a6\n      eq\n      tag_11\n      jumpi\n      jump(tag_1)\n    tag_16:\n      dup1\n      0x6845478f\n      gt\n      tag_18\n      jumpi\n      dup1\n      0x6845478f\n      eq\n      tag_5\n      jumpi\n      dup1\n      0x9049f9d2\n      eq\n      tag_6\n      jumpi\n      dup1\n      0xadc9772e\n      eq\n      tag_7\n      jumpi\n      dup1\n      0xc45a0155\n      eq\n      tag_8\n      jumpi\n      jump(tag_1)\n    tag_18:\n      dup1\n      0x1228cbee\n      eq\n      tag_2\n      jumpi\n      dup1\n      0x381fd7a3\n      eq\n      tag_3\n      jumpi\n      dup1\n      0x6447c5a2\n      eq\n      tag_4\n      jumpi\n    tag_1:\n      0x00\n      dup1\n      revert\n        /* \"Periphery/StakingPoolRouter.sol\":677:818  function getPoolAddress(address token) public view returns (address pool) {... */\n    tag_2:\n      callvalue\n      dup1\n      iszero\n      tag_19\n      jumpi\n      0x00\n      dup1\n      revert\n    tag_19:\n      pop\n      tag_20\n      0x04\n      dup1\n      calldatasize\n      sub\n      dup2\n      add\n      swap1\n      tag_21\n      swap2\n      swap1\n      tag_22\n      jump\t// in\n    tag_21:\n      tag_23\n      jump\t// in\n    tag_20:\n      mload(0x40)\n      tag_24\n      swap2\n      swap1\n      tag_25\n      jump\t// in\n    tag_24:\n      mload(0x40)\n      dup1\n      swap2\n      sub\n      swap1\n      return\n        /* \"Periphery/StakingPoolRouter.sol\":2741:3010  function stakedETH(uint256 _amount) public payable {... */\n    tag_3:\n      tag_26\n      0x04\n      dup1\n      calldatasize\n      sub\n      dup2\n      add\n      swap1\n      tag_27\n      swap2\n      swap1\n      tag_28\n      jump\t// in\n    tag_27:\n      tag_29\n      jump\t// in\n    tag_26:\n      stop\n        /* \"Periphery/StakingPoolRouter.sol\":2398:2722  function reedemReward(address token) public {... */\n    tag_4:\n      callvalue\n      dup1\n      iszero\n      tag_30\n      jumpi\n      0x00\n      dup1\n      revert\n    tag_30:\n      pop\n      tag_31\n      0x04\n      dup1\n      calldatasize\n      sub\n      dup2\n      add\n      swap1\n      tag_32\n      swap2\n      swap1\n      tag_22\n      jump\t// in\n    tag_32:\n      tag_33\n      jump\t// in\n    tag_31:\n      stop\n        /* \"Periphery/StakingPoolRouter.sol\":447:478  address public immutable rtoken */\n    tag_5:\n      callvalue\n      dup1\n      iszero\n      tag_34\n      jumpi\n      0x00\n      dup1\n      revert\n    tag_34:\n      pop\n      tag_35\n      tag_36\n      jump\t// in\n    tag_35:\n      mload(0x40)\n      tag_37\n      swap2\n      swap1\n      tag_25\n      jump\t// in\n    tag_37:\n      mload(0x40)\n      dup1\n      swap2\n      sub\n      swap1\n      return\n        /* \"Periphery/StakingPoolRouter.sol\":965:1080  function createPool(address sToken) public {... */\n    tag_6:\n      callvalue\n      dup1\n      iszero\n      tag_38\n      jumpi\n      0x00\n      dup1\n      revert\n    tag_38:\n      pop\n      tag_39\n      0x04\n      dup1\n      calldatasize\n      sub\n      dup2\n      add\n      swap1\n      tag_40\n      swap2\n      swap1\n      tag_22\n      jump\t// in\n    tag_40:\n      tag_41\n      jump\t// in\n    tag_39:\n      stop\n        /* \"Periphery/StakingPoolRouter.sol\":1619:2037  function stake(address token, uint256 _amount) public {... */\n    tag_7:\n      callvalue\n      dup1\n      iszero\n      tag_42\n      jumpi\n      0x00\n      dup1\n      revert\n    tag_42:\n      pop\n      tag_43\n      0x04\n      dup1\n      calldatasize\n      sub\n      dup2\n      add\n      swap1\n      tag_44\n      swap2\n      swap1\n      tag_45\n      jump\t// in\n    tag_44:\n      tag_46\n      jump\t// in\n    tag_43:\n      stop\n        /* \"Periphery/StakingPoolRouter.sol\":373:405  address public immutable factory */\n    tag_8:\n      callvalue\n      dup1\n      iszero\n      tag_47\n      jumpi\n      0x00\n      dup1\n      revert\n    tag_47:\n      pop\n      tag_48\n      tag_49\n      jump\t// in\n    tag_48:\n      mload(0x40)\n      tag_50\n      swap2\n      swap1\n      tag_25\n      jump\t// in\n    tag_50:\n      mload(0x40)\n      dup1\n      swap2\n      sub\n      swap1\n      return\n        /* \"Periphery/StakingPoolRouter.sol\":1086:1379  function getRewardEarned(address token, address user)... */\n    tag_9:\n      callvalue\n      dup1\n      iszero\n      tag_51\n      jumpi\n      0x00\n      dup1\n      revert\n    tag_51:\n      pop\n      tag_52\n      0x04\n      dup1\n      calldatasize\n      sub\n      dup2\n      add\n      swap1\n      tag_53\n      swap2\n      swap1\n      tag_54\n      jump\t// in\n    tag_53:\n      tag_55\n      jump\t// in\n    tag_52:\n      mload(0x40)\n      tag_56\n      swap2\n      swap1\n      tag_57\n      jump\t// in\n    tag_56:\n      mload(0x40)\n      dup1\n      swap2\n      sub\n      swap1\n      return\n        /* \"Periphery/StakingPoolRouter.sol\":3368:3438  function reedemRewardETH() public {... */\n    tag_10:\n      callvalue\n      dup1\n      iszero\n      tag_58\n      jumpi\n      0x00\n      dup1\n      revert\n    tag_58:\n      pop\n      tag_59\n      tag_60\n      jump\t// in\n    tag_59:\n      stop\n        /* \"Periphery/StakingPoolRouter.sol\":3031:3362  function withdrawETH(uint256 _amount) public {... */\n    tag_11:\n      callvalue\n      dup1\n      iszero\n      tag_61\n      jumpi\n      0x00\n      dup1\n      revert\n    tag_61:\n      pop\n      tag_62\n      0x04\n      dup1\n      calldatasize\n      sub\n      dup2\n      add\n      swap1\n      tag_63\n      swap2\n      swap1\n      tag_28\n      jump\t// in\n    tag_63:\n      tag_64\n      jump\t// in\n    tag_62:\n      stop\n        /* \"Periphery/StakingPoolRouter.sol\":1385:1613  function getStaked(address user, address token)... */\n    tag_12:\n      callvalue\n      dup1\n      iszero\n      tag_65\n      jumpi\n      0x00\n      dup1\n      revert\n    tag_65:\n      pop\n      tag_66\n      0x04\n      dup1\n      calldatasize\n      sub\n      dup2\n      add\n      swap1\n      tag_67\n      swap2\n      swap1\n      tag_54\n      jump\t// in\n    tag_67:\n      tag_68\n      jump\t// in\n    tag_66:\n      mload(0x40)\n      tag_69\n      swap2\n      swap1\n      tag_57\n      jump\t// in\n    tag_69:\n      mload(0x40)\n      dup1\n      swap2\n      sub\n      swap1\n      return\n        /* \"Periphery/StakingPoolRouter.sol\":2043:2392  function withdraw(address token, uint256 _amount) public {... */\n    tag_13:\n      callvalue\n      dup1\n      iszero\n      tag_70\n      jumpi\n      0x00\n      dup1\n      revert\n    tag_70:\n      pop\n      tag_71\n      0x04\n      dup1\n      calldatasize\n      sub\n      dup2\n      add\n      swap1\n      tag_72\n      swap2\n      swap1\n      tag_45\n      jump\t// in\n    tag_72:\n      tag_73\n      jump\t// in\n    tag_71:\n      stop\n        /* \"Periphery/StakingPoolRouter.sol\":824:959  function getBalance(address token) public view returns (uint256 balance) {... */\n    tag_14:\n      callvalue\n      dup1\n      iszero\n      tag_74\n      jumpi\n      0x00\n      dup1\n      revert\n    tag_74:\n      pop\n      tag_75\n      0x04\n      dup1\n      calldatasize\n      sub\n      dup2\n      add\n      swap1\n      tag_76\n      swap2\n      swap1\n      tag_22\n      jump\t// in\n    tag_76:\n      tag_77\n      jump\t// in\n    tag_75:\n      mload(0x40)\n      tag_78\n      swap2\n      swap1\n      tag_57\n      jump\t// in\n    tag_78:\n      mload(0x40)\n      dup1\n      swap2\n      sub\n      swap1\n      return\n        /* \"Periphery/StakingPoolRouter.sol\":411:441  address public immutable WEXDC */\n    tag_15:\n      callvalue\n      dup1\n      iszero\n      tag_79\n      jumpi\n      0x00\n      dup1\n      revert\n    tag_79:\n      pop\n      tag_80\n      tag_81\n      jump\t// in\n    tag_80:\n      mload(0x40)\n      tag_82\n      swap2\n      swap1\n      tag_25\n      jump\t// in\n    tag_82:\n      mload(0x40)\n      dup1\n      swap2\n      sub\n      swap1\n      return\n        /* \"Periphery/StakingPoolRouter.sol\":677:818  function getPoolAddress(address token) public view returns (address pool) {... */\n    tag_23:\n        /* \"Periphery/StakingPoolRouter.sol\":737:749  address pool */\n      0x00\n        /* \"Periphery/StakingPoolRouter.sol\":788:795  factory */\n      immutable(\"0x980c46aeb242fb2816eec3c43a568cdc6adda404b46e62cce4e3fe7d929881e3\")\n        /* \"Periphery/StakingPoolRouter.sol\":768:804  IStakingPoolFactory(factory).getPool */\n      0xffffffffffffffffffffffffffffffffffffffff\n      and\n      0xbbe4f6db\n        /* \"Periphery/StakingPoolRouter.sol\":805:810  token */\n      dup4\n        /* \"Periphery/StakingPoolRouter.sol\":768:811  IStakingPoolFactory(factory).getPool(token) */\n      mload(0x40)\n      dup3\n      0xffffffff\n      and\n      0xe0\n      shl\n      dup2\n      mstore\n      0x04\n      add\n      tag_84\n      swap2\n      swap1\n      tag_25\n      jump\t// in\n    tag_84:\n      0x20\n      mload(0x40)\n      dup1\n      dup4\n      sub\n      dup2\n      dup7\n      gas\n      staticcall\n      iszero\n      dup1\n      iszero\n      tag_86\n      jumpi\n      returndatasize\n      0x00\n      dup1\n      returndatacopy\n      revert(0x00, returndatasize)\n    tag_86:\n      pop\n      pop\n      pop\n      pop\n      mload(0x40)\n      returndatasize\n      not(0x1f)\n      0x1f\n      dup3\n      add\n      and\n      dup3\n      add\n      dup1\n      0x40\n      mstore\n      pop\n      dup2\n      add\n      swap1\n      tag_87\n      swap2\n      swap1\n      tag_88\n      jump\t// in\n    tag_87:\n        /* \"Periphery/StakingPoolRouter.sol\":761:811  pool = IStakingPoolFactory(factory).getPool(token) */\n      swap1\n      pop\n        /* \"Periphery/StakingPoolRouter.sol\":677:818  function getPoolAddress(address token) public view returns (address pool) {... */\n      swap2\n      swap1\n      pop\n      jump\t// out\n        /* \"Periphery/StakingPoolRouter.sol\":2741:3010  function stakedETH(uint256 _amount) public payable {... */\n    tag_29:\n        /* \"Periphery/StakingPoolRouter.sol\":2823:2830  _amount */\n      dup1\n        /* \"Periphery/StakingPoolRouter.sol\":2810:2819  msg.value */\n      callvalue\n        /* \"Periphery/StakingPoolRouter.sol\":2810:2830  msg.value == _amount */\n      eq\n        /* \"Periphery/StakingPoolRouter.sol\":2802:2856  require(msg.value == _amount, \"Incorrect Amount sent\") */\n      tag_90\n      jumpi\n      mload(0x40)\n      0x08c379a000000000000000000000000000000000000000000000000000000000\n      dup2\n      mstore\n      0x04\n      add\n      tag_91\n      swap1\n      tag_92\n      jump\t// in\n    tag_91:\n      mload(0x40)\n      dup1\n      swap2\n      sub\n      swap1\n      revert\n    tag_90:\n        /* \"Periphery/StakingPoolRouter.sol\":2872:2877  WEXDC */\n      immutable(\"0xe54f8e4a5d17b2e4d97cb94ddb2a2b00b3620f93c06158e24f4515b3f1ad0dd8\")\n        /* \"Periphery/StakingPoolRouter.sol\":2867:2886  IXDC(WEXDC).deposit */\n      0xffffffffffffffffffffffffffffffffffffffff\n      and\n      0xd0e30db0\n        /* \"Periphery/StakingPoolRouter.sol\":2894:2903  msg.value */\n      callvalue\n        /* \"Periphery/StakingPoolRouter.sol\":2867:2906  IXDC(WEXDC).deposit{value: msg.value}() */\n      mload(0x40)\n      dup3\n      0xffffffff\n      and\n      0xe0\n      shl\n      dup2\n      mstore\n      0x04\n      add\n      0x00\n      mload(0x40)\n      dup1\n      dup4\n      sub\n      dup2\n      dup6\n      dup9\n      dup1\n      extcodesize\n      iszero\n      dup1\n      iszero\n      tag_93\n      jumpi\n      0x00\n      dup1\n      revert\n    tag_93:\n      pop\n      gas\n      call\n      iszero\n      dup1\n      iszero\n      tag_95\n      jumpi\n      returndatasize\n      0x00\n      dup1\n      returndatacopy\n      revert(0x00, returndatasize)\n    tag_95:\n      pop\n      pop\n      pop\n      pop\n      pop\n        /* \"Periphery/StakingPoolRouter.sol\":2916:2971  TransferHelper.safeTransfer(WEXDC, msg.sender, _amount) */\n      tag_96\n        /* \"Periphery/StakingPoolRouter.sol\":2944:2949  WEXDC */\n      immutable(\"0xe54f8e4a5d17b2e4d97cb94ddb2a2b00b3620f93c06158e24f4515b3f1ad0dd8\")\n        /* \"Periphery/StakingPoolRouter.sol\":2951:2961  msg.sender */\n      caller\n        /* \"Periphery/StakingPoolRouter.sol\":2963:2970  _amount */\n      dup4\n        /* \"Periphery/StakingPoolRouter.sol\":2916:2943  TransferHelper.safeTransfer */\n      tag_97\n        /* \"Periphery/StakingPoolRouter.sol\":2916:2971  TransferHelper.safeTransfer(WEXDC, msg.sender, _amount) */\n      jump\t// in\n    tag_96:\n        /* \"Periphery/StakingPoolRouter.sol\":2982:3003  stake(WEXDC, _amount) */\n      tag_98\n        /* \"Periphery/StakingPoolRouter.sol\":2988:2993  WEXDC */\n      immutable(\"0xe54f8e4a5d17b2e4d97cb94ddb2a2b00b3620f93c06158e24f4515b3f1ad0dd8\")\n        /* \"Periphery/StakingPoolRouter.sol\":2995:3002  _amount */\n      dup3\n        /* \"Periphery/StakingPoolRouter.sol\":2982:2987  stake */\n      tag_46\n        /* \"Periphery/StakingPoolRouter.sol\":2982:3003  stake(WEXDC, _amount) */\n      jump\t// in\n    tag_98:\n        /* \"Periphery/StakingPoolRouter.sol\":2741:3010  function stakedETH(uint256 _amount) public payable {... */\n      pop\n      jump\t// out\n        /* \"Periphery/StakingPoolRouter.sol\":2398:2722  function reedemReward(address token) public {... */\n    tag_33:\n        /* \"Periphery/StakingPoolRouter.sol\":2452:2464  address pool */\n      0x00\n        /* \"Periphery/StakingPoolRouter.sol\":2467:2488  getPoolAddress(token) */\n      tag_100\n        /* \"Periphery/StakingPoolRouter.sol\":2482:2487  token */\n      dup3\n        /* \"Periphery/StakingPoolRouter.sol\":2467:2481  getPoolAddress */\n      tag_23\n        /* \"Periphery/StakingPoolRouter.sol\":2467:2488  getPoolAddress(token) */\n      jump\t// in\n    tag_100:\n        /* \"Periphery/StakingPoolRouter.sol\":2452:2488  address pool = getPoolAddress(token) */\n      swap1\n      pop\n        /* \"Periphery/StakingPoolRouter.sol\":2522:2523  0 */\n      0x00\n        /* \"Periphery/StakingPoolRouter.sol\":2506:2524  pool != address(0) */\n      0xffffffffffffffffffffffffffffffffffffffff\n      and\n        /* \"Periphery/StakingPoolRouter.sol\":2506:2510  pool */\n      dup2\n        /* \"Periphery/StakingPoolRouter.sol\":2506:2524  pool != address(0) */\n      0xffffffffffffffffffffffffffffffffffffffff\n      and\n      sub\n        /* \"Periphery/StakingPoolRouter.sol\":2498:2547  require(pool != address(0), \"Pool Do Not Exists\") */\n      tag_101\n      jumpi\n      mload(0x40)\n      0x08c379a000000000000000000000000000000000000000000000000000000000\n      dup2\n      mstore\n      0x04\n      add\n      tag_102\n      swap1\n      tag_103\n      jump\t// in\n    tag_102:\n      mload(0x40)\n      dup1\n      swap2\n      sub\n      swap1\n      revert\n    tag_101:\n        /* \"Periphery/StakingPoolRouter.sol\":2558:2578  uint256 rewardAmount */\n      0x00\n        /* \"Periphery/StakingPoolRouter.sol\":2581:2615  getRewardEarned(token, msg.sender) */\n      tag_104\n        /* \"Periphery/StakingPoolRouter.sol\":2597:2602  token */\n      dup4\n        /* \"Periphery/StakingPoolRouter.sol\":2604:2614  msg.sender */\n      caller\n        /* \"Periphery/StakingPoolRouter.sol\":2581:2596  getRewardEarned */\n      tag_55\n        /* \"Periphery/StakingPoolRouter.sol\":2581:2615  getRewardEarned(token, msg.sender) */\n      jump\t// in\n    tag_104:\n        /* \"Periphery/StakingPoolRouter.sol\":2558:2615  uint256 rewardAmount = getRewardEarned(token, msg.sender) */\n      swap1\n      pop\n        /* \"Periphery/StakingPoolRouter.sol\":2649:2650  0 */\n      0x00\n        /* \"Periphery/StakingPoolRouter.sol\":2634:2646  rewardAmount */\n      dup2\n        /* \"Periphery/StakingPoolRouter.sol\":2634:2650  rewardAmount > 0 */\n      gt\n        /* \"Periphery/StakingPoolRouter.sol\":2626:2671  require(rewardAmount > 0, \"No rewards Found\") */\n      tag_105\n      jumpi\n      mload(0x40)\n      0x08c379a000000000000000000000000000000000000000000000000000000000\n      dup2\n      mstore\n      0x04\n      add\n      tag_106\n      swap1\n      tag_107\n      jump\t// in\n    tag_106:\n      mload(0x40)\n      dup1\n      swap2\n      sub\n      swap1\n      revert\n    tag_105:\n        /* \"Periphery/StakingPoolRouter.sol\":2695:2699  pool */\n      dup2\n        /* \"Periphery/StakingPoolRouter.sol\":2682:2713  IStakingPool(pool).reedemReward */\n      0xffffffffffffffffffffffffffffffffffffffff\n      and\n      0xd5276246\n        /* \"Periphery/StakingPoolRouter.sol\":2682:2715  IStakingPool(pool).reedemReward() */\n      mload(0x40)\n      dup2\n      0xffffffff\n      and\n      0xe0\n      shl\n      dup2\n      mstore\n      0x04\n      add\n      0x00\n      mload(0x40)\n      dup1\n      dup4\n      sub\n      dup2\n      0x00\n      dup8\n      dup1\n      extcodesize\n      iszero\n      dup1\n      iszero\n      tag_108\n      jumpi\n      0x00\n      dup1\n      revert\n    tag_108:\n      pop\n      gas\n      call\n      iszero\n      dup1\n      iszero\n      tag_110\n      jumpi\n      returndatasize\n      0x00\n      dup1\n      returndatacopy\n      revert(0x00, returndatasize)\n    tag_110:\n      pop\n      pop\n      pop\n      pop\n        /* \"Periphery/StakingPoolRouter.sol\":2442:2722  {... */\n      pop\n      pop\n        /* \"Periphery/StakingPoolRouter.sol\":2398:2722  function reedemReward(address token) public {... */\n      pop\n      jump\t// out\n        /* \"Periphery/StakingPoolRouter.sol\":447:478  address public immutable rtoken */\n    tag_36:\n      immutable(\"0x1919bbb77b48a65a3a334e011819abf5317994b267bc385c63c0af09ecf64635\")\n      dup2\n      jump\t// out\n        /* \"Periphery/StakingPoolRouter.sol\":965:1080  function createPool(address sToken) public {... */\n    tag_41:\n        /* \"Periphery/StakingPoolRouter.sol\":1038:1045  factory */\n      immutable(\"0x980c46aeb242fb2816eec3c43a568cdc6adda404b46e62cce4e3fe7d929881e3\")\n        /* \"Periphery/StakingPoolRouter.sol\":1018:1057  IStakingPoolFactory(factory).createPool */\n      0xffffffffffffffffffffffffffffffffffffffff\n      and\n      0xe3433615\n        /* \"Periphery/StakingPoolRouter.sol\":1058:1064  sToken */\n      dup3\n        /* \"Periphery/StakingPoolRouter.sol\":1066:1072  rtoken */\n      immutable(\"0x1919bbb77b48a65a3a334e011819abf5317994b267bc385c63c0af09ecf64635\")\n        /* \"Periphery/StakingPoolRouter.sol\":1018:1073  IStakingPoolFactory(factory).createPool(sToken, rtoken) */\n      mload(0x40)\n      dup4\n      0xffffffff\n      and\n      0xe0\n      shl\n      dup2\n      mstore\n      0x04\n      add\n      tag_112\n      swap3\n      swap2\n      swap1\n      tag_113\n      jump\t// in\n    tag_112:\n      0x20\n      mload(0x40)\n      dup1\n      dup4\n      sub\n      dup2\n      0x00\n      dup8\n      gas\n      call\n      iszero\n      dup1\n      iszero\n      tag_115\n      jumpi\n      returndatasize\n      0x00\n      dup1\n      returndatacopy\n      revert(0x00, returndatasize)\n    tag_115:\n      pop\n      pop\n      pop\n      pop\n      mload(0x40)\n      returndatasize\n      not(0x1f)\n      0x1f\n      dup3\n      add\n      and\n      dup3\n      add\n      dup1\n      0x40\n      mstore\n      pop\n      dup2\n      add\n      swap1\n      tag_116\n      swap2\n      swap1\n      tag_88\n      jump\t// in\n    tag_116:\n      pop\n        /* \"Periphery/StakingPoolRouter.sol\":965:1080  function createPool(address sToken) public {... */\n      pop\n      jump\t// out\n        /* \"Periphery/StakingPoolRouter.sol\":1619:2037  function stake(address token, uint256 _amount) public {... */\n    tag_46:\n        /* \"Periphery/StakingPoolRouter.sol\":1683:1695  address pool */\n      0x00\n        /* \"Periphery/StakingPoolRouter.sol\":1698:1719  getPoolAddress(token) */\n      tag_118\n        /* \"Periphery/StakingPoolRouter.sol\":1713:1718  token */\n      dup4\n        /* \"Periphery/StakingPoolRouter.sol\":1698:1712  getPoolAddress */\n      tag_23\n        /* \"Periphery/StakingPoolRouter.sol\":1698:1719  getPoolAddress(token) */\n      jump\t// in\n    tag_118:\n        /* \"Periphery/StakingPoolRouter.sol\":1683:1719  address pool = getPoolAddress(token) */\n      swap1\n      pop\n        /* \"Periphery/StakingPoolRouter.sol\":1749:1750  0 */\n      0x00\n        /* \"Periphery/StakingPoolRouter.sol\":1733:1751  pool != address(0) */\n      0xffffffffffffffffffffffffffffffffffffffff\n      and\n        /* \"Periphery/StakingPoolRouter.sol\":1733:1737  pool */\n      dup2\n        /* \"Periphery/StakingPoolRouter.sol\":1733:1751  pool != address(0) */\n      0xffffffffffffffffffffffffffffffffffffffff\n      and\n      eq\n        /* \"Periphery/StakingPoolRouter.sol\":1729:2031  if (pool != address(0)) {... */\n      tag_119\n      jumpi\n        /* \"Periphery/StakingPoolRouter.sol\":1767:1815  TransferHelper.safeApprove(token, pool, _amount) */\n      tag_120\n        /* \"Periphery/StakingPoolRouter.sol\":1794:1799  token */\n      dup4\n        /* \"Periphery/StakingPoolRouter.sol\":1801:1805  pool */\n      dup3\n        /* \"Periphery/StakingPoolRouter.sol\":1807:1814  _amount */\n      dup5\n        /* \"Periphery/StakingPoolRouter.sol\":1767:1793  TransferHelper.safeApprove */\n      tag_121\n        /* \"Periphery/StakingPoolRouter.sol\":1767:1815  TransferHelper.safeApprove(token, pool, _amount) */\n      jump\t// in\n    tag_120:\n        /* \"Periphery/StakingPoolRouter.sol\":1842:1846  pool */\n      dup1\n        /* \"Periphery/StakingPoolRouter.sol\":1829:1853  IStakingPool(pool).stake */\n      0xffffffffffffffffffffffffffffffffffffffff\n      and\n      0xa694fc3a\n        /* \"Periphery/StakingPoolRouter.sol\":1854:1861  _amount */\n      dup4\n        /* \"Periphery/StakingPoolRouter.sol\":1829:1862  IStakingPool(pool).stake(_amount) */\n      mload(0x40)\n      dup3\n      0xffffffff\n      and\n      0xe0\n      shl\n      dup2\n      mstore\n      0x04\n      add\n      tag_122\n      swap2\n      swap1\n      tag_57\n      jump\t// in\n    tag_122:\n      0x00\n      mload(0x40)\n      dup1\n      dup4\n      sub\n      dup2\n      0x00\n      dup8\n      dup1\n      extcodesize\n      iszero\n      dup1\n      iszero\n      tag_123\n      jumpi\n      0x00\n      dup1\n      revert\n    tag_123:\n      pop\n      gas\n      call\n      iszero\n      dup1\n      iszero\n      tag_125\n      jumpi\n      returndatasize\n      0x00\n      dup1\n      returndatacopy\n      revert(0x00, returndatasize)\n    tag_125:\n      pop\n      pop\n      pop\n      pop\n        /* \"Periphery/StakingPoolRouter.sol\":1729:2031  if (pool != address(0)) {... */\n      jump(tag_126)\n    tag_119:\n        /* \"Periphery/StakingPoolRouter.sol\":1893:1910  createPool(token) */\n      tag_127\n        /* \"Periphery/StakingPoolRouter.sol\":1904:1909  token */\n      dup4\n        /* \"Periphery/StakingPoolRouter.sol\":1893:1903  createPool */\n      tag_41\n        /* \"Periphery/StakingPoolRouter.sol\":1893:1910  createPool(token) */\n      jump\t// in\n    tag_127:\n        /* \"Periphery/StakingPoolRouter.sol\":1925:1973  TransferHelper.safeApprove(token, pool, _amount) */\n      tag_128\n        /* \"Periphery/StakingPoolRouter.sol\":1952:1957  token */\n      dup4\n        /* \"Periphery/StakingPoolRouter.sol\":1959:1963  pool */\n      dup3\n        /* \"Periphery/StakingPoolRouter.sol\":1965:1972  _amount */\n      dup5\n        /* \"Periphery/StakingPoolRouter.sol\":1925:1951  TransferHelper.safeApprove */\n      tag_121\n        /* \"Periphery/StakingPoolRouter.sol\":1925:1973  TransferHelper.safeApprove(token, pool, _amount) */\n      jump\t// in\n    tag_128:\n        /* \"Periphery/StakingPoolRouter.sol\":2000:2004  pool */\n      dup1\n        /* \"Periphery/StakingPoolRouter.sol\":1987:2011  IStakingPool(pool).stake */\n      0xffffffffffffffffffffffffffffffffffffffff\n      and\n      0xa694fc3a\n        /* \"Periphery/StakingPoolRouter.sol\":2012:2019  _amount */\n      dup4\n        /* \"Periphery/StakingPoolRouter.sol\":1987:2020  IStakingPool(pool).stake(_amount) */\n      mload(0x40)\n      dup3\n      0xffffffff\n      and\n      0xe0\n      shl\n      dup2\n      mstore\n      0x04\n      add\n      tag_129\n      swap2\n      swap1\n      tag_57\n      jump\t// in\n    tag_129:\n      0x00\n      mload(0x40)\n      dup1\n      dup4\n      sub\n      dup2\n      0x00\n      dup8\n      dup1\n      extcodesize\n      iszero\n      dup1\n      iszero\n      tag_130\n      jumpi\n      0x00\n      dup1\n      revert\n    tag_130:\n      pop\n      gas\n      call\n      iszero\n      dup1\n      iszero\n      tag_132\n      jumpi\n      returndatasize\n      0x00\n      dup1\n      returndatacopy\n      revert(0x00, returndatasize)\n    tag_132:\n      pop\n      pop\n      pop\n      pop\n        /* \"Periphery/StakingPoolRouter.sol\":1729:2031  if (pool != address(0)) {... */\n    tag_126:\n        /* \"Periphery/StakingPoolRouter.sol\":1673:2037  {... */\n      pop\n        /* \"Periphery/StakingPoolRouter.sol\":1619:2037  function stake(address token, uint256 _amount) public {... */\n      pop\n      pop\n      jump\t// out\n        /* \"Periphery/StakingPoolRouter.sol\":373:405  address public immutable factory */\n    tag_49:\n      immutable(\"0x980c46aeb242fb2816eec3c43a568cdc6adda404b46e62cce4e3fe7d929881e3\")\n      dup2\n      jump\t// out\n        /* \"Periphery/StakingPoolRouter.sol\":1086:1379  function getRewardEarned(address token, address user)... */\n    tag_55:\n        /* \"Periphery/StakingPoolRouter.sol\":1185:1205  uint256 rewardAmount */\n      0x00\n        /* \"Periphery/StakingPoolRouter.sol\":1221:1233  address pool */\n      dup1\n        /* \"Periphery/StakingPoolRouter.sol\":1236:1257  getPoolAddress(token) */\n      tag_134\n        /* \"Periphery/StakingPoolRouter.sol\":1251:1256  token */\n      dup5\n        /* \"Periphery/StakingPoolRouter.sol\":1236:1250  getPoolAddress */\n      tag_23\n        /* \"Periphery/StakingPoolRouter.sol\":1236:1257  getPoolAddress(token) */\n      jump\t// in\n    tag_134:\n        /* \"Periphery/StakingPoolRouter.sol\":1221:1257  address pool = getPoolAddress(token) */\n      swap1\n      pop\n        /* \"Periphery/StakingPoolRouter.sol\":1291:1292  0 */\n      0x00\n        /* \"Periphery/StakingPoolRouter.sol\":1275:1293  pool != address(0) */\n      0xffffffffffffffffffffffffffffffffffffffff\n      and\n        /* \"Periphery/StakingPoolRouter.sol\":1275:1279  pool */\n      dup2\n        /* \"Periphery/StakingPoolRouter.sol\":1275:1293  pool != address(0) */\n      0xffffffffffffffffffffffffffffffffffffffff\n      and\n      sub\n        /* \"Periphery/StakingPoolRouter.sol\":1267:1315  require(pool != address(0), \"Pool don't Exists\") */\n      tag_135\n      jumpi\n      mload(0x40)\n      0x08c379a000000000000000000000000000000000000000000000000000000000\n      dup2\n      mstore\n      0x04\n      add\n      tag_136\n      swap1\n      tag_137\n      jump\t// in\n    tag_136:\n      mload(0x40)\n      dup1\n      swap2\n      sub\n      swap1\n      revert\n    tag_135:\n        /* \"Periphery/StakingPoolRouter.sol\":1354:1358  pool */\n      dup1\n        /* \"Periphery/StakingPoolRouter.sol\":1341:1366  IStakingPool(pool).earned */\n      0xffffffffffffffffffffffffffffffffffffffff\n      and\n      0x8cc262\n        /* \"Periphery/StakingPoolRouter.sol\":1367:1371  user */\n      dup5\n        /* \"Periphery/StakingPoolRouter.sol\":1341:1372  IStakingPool(pool).earned(user) */\n      mload(0x40)\n      dup3\n      0xffffffff\n      and\n      0xe0\n      shl\n      dup2\n      mstore\n      0x04\n      add\n      tag_138\n      swap2\n      swap1\n      tag_25\n      jump\t// in\n    tag_138:\n      0x20\n      mload(0x40)\n      dup1\n      dup4\n      sub\n      dup2\n      dup7\n      gas\n      staticcall\n      iszero\n      dup1\n      iszero\n      tag_140\n      jumpi\n      returndatasize\n      0x00\n      dup1\n      returndatacopy\n      revert(0x00, returndatasize)\n    tag_140:\n      pop\n      pop\n      pop\n      pop\n      mload(0x40)\n      returndatasize\n      not(0x1f)\n      0x1f\n      dup3\n      add\n      and\n      dup3\n      add\n      dup1\n      0x40\n      mstore\n      pop\n      dup2\n      add\n      swap1\n      tag_141\n      swap2\n      swap1\n      tag_142\n      jump\t// in\n    tag_141:\n        /* \"Periphery/StakingPoolRouter.sol\":1326:1372  rewardAmount = IStakingPool(pool).earned(user) */\n      swap2\n      pop\n        /* \"Periphery/StakingPoolRouter.sol\":1211:1379  {... */\n      pop\n        /* \"Periphery/StakingPoolRouter.sol\":1086:1379  function getRewardEarned(address token, address user)... */\n      swap3\n      swap2\n      pop\n      pop\n      jump\t// out\n        /* \"Periphery/StakingPoolRouter.sol\":3368:3438  function reedemRewardETH() public {... */\n    tag_60:\n        /* \"Periphery/StakingPoolRouter.sol\":3412:3431  reedemReward(WEXDC) */\n      tag_144\n        /* \"Periphery/StakingPoolRouter.sol\":3425:3430  WEXDC */\n      immutable(\"0xe54f8e4a5d17b2e4d97cb94ddb2a2b00b3620f93c06158e24f4515b3f1ad0dd8\")\n        /* \"Periphery/StakingPoolRouter.sol\":3412:3424  reedemReward */\n      tag_33\n        /* \"Periphery/StakingPoolRouter.sol\":3412:3431  reedemReward(WEXDC) */\n      jump\t// in\n    tag_144:\n        /* \"Periphery/StakingPoolRouter.sol\":3368:3438  function reedemRewardETH() public {... */\n      jump\t// out\n        /* \"Periphery/StakingPoolRouter.sol\":3031:3362  function withdrawETH(uint256 _amount) public {... */\n    tag_64:\n        /* \"Periphery/StakingPoolRouter.sol\":3086:3110  withdraw(WEXDC, _amount) */\n      tag_146\n        /* \"Periphery/StakingPoolRouter.sol\":3095:3100  WEXDC */\n      immutable(\"0xe54f8e4a5d17b2e4d97cb94ddb2a2b00b3620f93c06158e24f4515b3f1ad0dd8\")\n        /* \"Periphery/StakingPoolRouter.sol\":3102:3109  _amount */\n      dup3\n        /* \"Periphery/StakingPoolRouter.sol\":3086:3094  withdraw */\n      tag_73\n        /* \"Periphery/StakingPoolRouter.sol\":3086:3110  withdraw(WEXDC, _amount) */\n      jump\t// in\n    tag_146:\n        /* \"Periphery/StakingPoolRouter.sol\":3121:3253  TransferHelper.safeTransferFrom(... */\n      tag_147\n        /* \"Periphery/StakingPoolRouter.sol\":3166:3171  WEXDC */\n      immutable(\"0xe54f8e4a5d17b2e4d97cb94ddb2a2b00b3620f93c06158e24f4515b3f1ad0dd8\")\n        /* \"Periphery/StakingPoolRouter.sol\":3185:3195  msg.sender */\n      caller\n        /* \"Periphery/StakingPoolRouter.sol\":3217:3221  this */\n      address\n        /* \"Periphery/StakingPoolRouter.sol\":3236:3243  _amount */\n      dup5\n        /* \"Periphery/StakingPoolRouter.sol\":3121:3152  TransferHelper.safeTransferFrom */\n      tag_148\n        /* \"Periphery/StakingPoolRouter.sol\":3121:3253  TransferHelper.safeTransferFrom(... */\n      jump\t// in\n    tag_147:\n        /* \"Periphery/StakingPoolRouter.sol\":3269:3274  WEXDC */\n      immutable(\"0xe54f8e4a5d17b2e4d97cb94ddb2a2b00b3620f93c06158e24f4515b3f1ad0dd8\")\n        /* \"Periphery/StakingPoolRouter.sol\":3264:3284  IXDC(WEXDC).withdraw */\n      0xffffffffffffffffffffffffffffffffffffffff\n      and\n      0x2e1a7d4d\n        /* \"Periphery/StakingPoolRouter.sol\":3285:3292  _amount */\n      dup3\n        /* \"Periphery/StakingPoolRouter.sol\":3264:3293  IXDC(WEXDC).withdraw(_amount) */\n      mload(0x40)\n      dup3\n      0xffffffff\n      and\n      0xe0\n      shl\n      dup2\n      mstore\n      0x04\n      add\n      tag_149\n      swap2\n      swap1\n      tag_57\n      jump\t// in\n    tag_149:\n      0x00\n      mload(0x40)\n      dup1\n      dup4\n      sub\n      dup2\n      0x00\n      dup8\n      dup1\n      extcodesize\n      iszero\n      dup1\n      iszero\n      tag_150\n      jumpi\n      0x00\n      dup1\n      revert\n    tag_150:\n      pop\n      gas\n      call\n      iszero\n      dup1\n      iszero\n      tag_152\n      jumpi\n      returndatasize\n      0x00\n      dup1\n      returndatacopy\n      revert(0x00, returndatasize)\n    tag_152:\n      pop\n      pop\n      pop\n      pop\n        /* \"Periphery/StakingPoolRouter.sol\":3304:3355  TransferHelper.safeTransferETH(msg.sender, _amount) */\n      tag_153\n        /* \"Periphery/StakingPoolRouter.sol\":3335:3345  msg.sender */\n      caller\n        /* \"Periphery/StakingPoolRouter.sol\":3347:3354  _amount */\n      dup3\n        /* \"Periphery/StakingPoolRouter.sol\":3304:3334  TransferHelper.safeTransferETH */\n      tag_154\n        /* \"Periphery/StakingPoolRouter.sol\":3304:3355  TransferHelper.safeTransferETH(msg.sender, _amount) */\n      jump\t// in\n    tag_153:\n        /* \"Periphery/StakingPoolRouter.sol\":3031:3362  function withdrawETH(uint256 _amount) public {... */\n      pop\n      jump\t// out\n        /* \"Periphery/StakingPoolRouter.sol\":1385:1613  function getStaked(address user, address token)... */\n    tag_68:\n        /* \"Periphery/StakingPoolRouter.sol\":1478:1498  uint256 stakedAmount */\n      0x00\n        /* \"Periphery/StakingPoolRouter.sol\":1514:1526  address pool */\n      dup1\n        /* \"Periphery/StakingPoolRouter.sol\":1529:1550  getPoolAddress(token) */\n      tag_156\n        /* \"Periphery/StakingPoolRouter.sol\":1544:1549  token */\n      dup4\n        /* \"Periphery/StakingPoolRouter.sol\":1529:1543  getPoolAddress */\n      tag_23\n        /* \"Periphery/StakingPoolRouter.sol\":1529:1550  getPoolAddress(token) */\n      jump\t// in\n    tag_156:\n        /* \"Periphery/StakingPoolRouter.sol\":1514:1550  address pool = getPoolAddress(token) */\n      swap1\n      pop\n        /* \"Periphery/StakingPoolRouter.sol\":1588:1592  pool */\n      dup1\n        /* \"Periphery/StakingPoolRouter.sol\":1575:1600  IStakingPool(pool).staked */\n      0xffffffffffffffffffffffffffffffffffffffff\n      and\n      0x98807d84\n        /* \"Periphery/StakingPoolRouter.sol\":1601:1605  user */\n      dup6\n        /* \"Periphery/StakingPoolRouter.sol\":1575:1606  IStakingPool(pool).staked(user) */\n      mload(0x40)\n      dup3\n      0xffffffff\n      and\n      0xe0\n      shl\n      dup2\n      mstore\n      0x04\n      add\n      tag_157\n      swap2\n      swap1\n      tag_25\n      jump\t// in\n    tag_157:\n      0x20\n      mload(0x40)\n      dup1\n      dup4\n      sub\n      dup2\n      dup7\n      gas\n      staticcall\n      iszero\n      dup1\n      iszero\n      tag_159\n      jumpi\n      returndatasize\n      0x00\n      dup1\n      returndatacopy\n      revert(0x00, returndatasize)\n    tag_159:\n      pop\n      pop\n      pop\n      pop\n      mload(0x40)\n      returndatasize\n      not(0x1f)\n      0x1f\n      dup3\n      add\n      and\n      dup3\n      add\n      dup1\n      0x40\n      mstore\n      pop\n      dup2\n      add\n      swap1\n      tag_160\n      swap2\n      swap1\n      tag_142\n      jump\t// in\n    tag_160:\n        /* \"Periphery/StakingPoolRouter.sol\":1560:1606  stakedAmount = IStakingPool(pool).staked(user) */\n      swap2\n      pop\n        /* \"Periphery/StakingPoolRouter.sol\":1504:1613  {... */\n      pop\n        /* \"Periphery/StakingPoolRouter.sol\":1385:1613  function getStaked(address user, address token)... */\n      swap3\n      swap2\n      pop\n      pop\n      jump\t// out\n        /* \"Periphery/StakingPoolRouter.sol\":2043:2392  function withdraw(address token, uint256 _amount) public {... */\n    tag_73:\n        /* \"Periphery/StakingPoolRouter.sol\":2110:2122  address pool */\n      0x00\n        /* \"Periphery/StakingPoolRouter.sol\":2125:2146  getPoolAddress(token) */\n      tag_162\n        /* \"Periphery/StakingPoolRouter.sol\":2140:2145  token */\n      dup4\n        /* \"Periphery/StakingPoolRouter.sol\":2125:2139  getPoolAddress */\n      tag_23\n        /* \"Periphery/StakingPoolRouter.sol\":2125:2146  getPoolAddress(token) */\n      jump\t// in\n    tag_162:\n        /* \"Periphery/StakingPoolRouter.sol\":2110:2146  address pool = getPoolAddress(token) */\n      swap1\n      pop\n        /* \"Periphery/StakingPoolRouter.sol\":2180:2181  0 */\n      0x00\n        /* \"Periphery/StakingPoolRouter.sol\":2164:2182  pool != address(0) */\n      0xffffffffffffffffffffffffffffffffffffffff\n      and\n        /* \"Periphery/StakingPoolRouter.sol\":2164:2168  pool */\n      dup2\n        /* \"Periphery/StakingPoolRouter.sol\":2164:2182  pool != address(0) */\n      0xffffffffffffffffffffffffffffffffffffffff\n      and\n      sub\n        /* \"Periphery/StakingPoolRouter.sol\":2156:2205  require(pool != address(0), \"Pool Do Not Exists\") */\n      tag_163\n      jumpi\n      mload(0x40)\n      0x08c379a000000000000000000000000000000000000000000000000000000000\n      dup2\n      mstore\n      0x04\n      add\n      tag_164\n      swap1\n      tag_103\n      jump\t// in\n    tag_164:\n      mload(0x40)\n      dup1\n      swap2\n      sub\n      swap1\n      revert\n    tag_163:\n        /* \"Periphery/StakingPoolRouter.sol\":2216:2236  uint256 stakedAmount */\n      0x00\n        /* \"Periphery/StakingPoolRouter.sol\":2239:2267  getStaked(msg.sender, token) */\n      tag_165\n        /* \"Periphery/StakingPoolRouter.sol\":2249:2259  msg.sender */\n      caller\n        /* \"Periphery/StakingPoolRouter.sol\":2261:2266  token */\n      dup6\n        /* \"Periphery/StakingPoolRouter.sol\":2239:2248  getStaked */\n      tag_68\n        /* \"Periphery/StakingPoolRouter.sol\":2239:2267  getStaked(msg.sender, token) */\n      jump\t// in\n    tag_165:\n        /* \"Periphery/StakingPoolRouter.sol\":2216:2267  uint256 stakedAmount = getStaked(msg.sender, token) */\n      swap1\n      pop\n        /* \"Periphery/StakingPoolRouter.sol\":2301:2308  _amount */\n      dup3\n        /* \"Periphery/StakingPoolRouter.sol\":2285:2297  stakedAmount */\n      dup2\n        /* \"Periphery/StakingPoolRouter.sol\":2285:2308  stakedAmount >= _amount */\n      lt\n      iszero\n        /* \"Periphery/StakingPoolRouter.sol\":2277:2338  require(stakedAmount >= _amount, \"Incorrect Balance entered\") */\n      tag_166\n      jumpi\n      mload(0x40)\n      0x08c379a000000000000000000000000000000000000000000000000000000000\n      dup2\n      mstore\n      0x04\n      add\n      tag_167\n      swap1\n      tag_168\n      jump\t// in\n    tag_167:\n      mload(0x40)\n      dup1\n      swap2\n      sub\n      swap1\n      revert\n    tag_166:\n        /* \"Periphery/StakingPoolRouter.sol\":2362:2366  pool */\n      dup2\n        /* \"Periphery/StakingPoolRouter.sol\":2349:2376  IStakingPool(pool).withdraw */\n      0xffffffffffffffffffffffffffffffffffffffff\n      and\n      0x2e1a7d4d\n        /* \"Periphery/StakingPoolRouter.sol\":2377:2384  _amount */\n      dup5\n        /* \"Periphery/StakingPoolRouter.sol\":2349:2385  IStakingPool(pool).withdraw(_amount) */\n      mload(0x40)\n      dup3\n      0xffffffff\n      and\n      0xe0\n      shl\n      dup2\n      mstore\n      0x04\n      add\n      tag_169\n      swap2\n      swap1\n      tag_57\n      jump\t// in\n    tag_169:\n      0x00\n      mload(0x40)\n      dup1\n      dup4\n      sub\n      dup2\n      0x00\n      dup8\n      dup1\n      extcodesize\n      iszero\n      dup1\n      iszero\n      tag_170\n      jumpi\n      0x00\n      dup1\n      revert\n    tag_170:\n      pop\n      gas\n      call\n      iszero\n      dup1\n      iszero\n      tag_172\n      jumpi\n      returndatasize\n      0x00\n      dup1\n      returndatacopy\n      revert(0x00, returndatasize)\n    tag_172:\n      pop\n      pop\n      pop\n      pop\n        /* \"Periphery/StakingPoolRouter.sol\":2100:2392  {... */\n      pop\n      pop\n        /* \"Periphery/StakingPoolRouter.sol\":2043:2392  function withdraw(address token, uint256 _amount) public {... */\n      pop\n      pop\n      jump\t// out\n        /* \"Periphery/StakingPoolRouter.sol\":824:959  function getBalance(address token) public view returns (uint256 balance) {... */\n    tag_77:\n        /* \"Periphery/StakingPoolRouter.sol\":880:895  uint256 balance */\n      0x00\n        /* \"Periphery/StakingPoolRouter.sol\":924:929  token */\n      dup2\n        /* \"Periphery/StakingPoolRouter.sol\":917:940  IERC20(token).balanceOf */\n      0xffffffffffffffffffffffffffffffffffffffff\n      and\n      0x70a08231\n        /* \"Periphery/StakingPoolRouter.sol\":941:951  msg.sender */\n      caller\n        /* \"Periphery/StakingPoolRouter.sol\":917:952  IERC20(token).balanceOf(msg.sender) */\n      mload(0x40)\n      dup3\n      0xffffffff\n      and\n      0xe0\n      shl\n      dup2\n      mstore\n      0x04\n      add\n      tag_174\n      swap2\n      swap1\n      tag_25\n      jump\t// in\n    tag_174:\n      0x20\n      mload(0x40)\n      dup1\n      dup4\n      sub\n      dup2\n      dup7\n      gas\n      staticcall\n      iszero\n      dup1\n      iszero\n      tag_176\n      jumpi\n      returndatasize\n      0x00\n      dup1\n      returndatacopy\n      revert(0x00, returndatasize)\n    tag_176:\n      pop\n      pop\n      pop\n      pop\n      mload(0x40)\n      returndatasize\n      not(0x1f)\n      0x1f\n      dup3\n      add\n      and\n      dup3\n      add\n      dup1\n      0x40\n      mstore\n      pop\n      dup2\n      add\n      swap1\n      tag_177\n      swap2\n      swap1\n      tag_142\n      jump\t// in\n    tag_177:\n        /* \"Periphery/StakingPoolRouter.sol\":907:952  balance = IERC20(token).balanceOf(msg.sender) */\n      swap1\n      pop\n        /* \"Periphery/StakingPoolRouter.sol\":824:959  function getBalance(address token) public view returns (uint256 balance) {... */\n      swap2\n      swap1\n      pop\n      jump\t// out\n        /* \"Periphery/StakingPoolRouter.sol\":411:441  address public immutable WEXDC */\n    tag_81:\n      immutable(\"0xe54f8e4a5d17b2e4d97cb94ddb2a2b00b3620f93c06158e24f4515b3f1ad0dd8\")\n      dup2\n      jump\t// out\n        /* \"Periphery/libraries/TransferHelper.sol\":660:1120  function safeTransfer(... */\n    tag_97:\n        /* \"Periphery/libraries/TransferHelper.sol\":840:852  bool success */\n      0x00\n        /* \"Periphery/libraries/TransferHelper.sol\":854:871  bytes memory data */\n      dup1\n        /* \"Periphery/libraries/TransferHelper.sol\":875:880  token */\n      dup5\n        /* \"Periphery/libraries/TransferHelper.sol\":875:885  token.call */\n      0xffffffffffffffffffffffffffffffffffffffff\n      and\n        /* \"Periphery/libraries/TransferHelper.sol\":922:932  0xa9059cbb */\n      0xa9059cbb\n        /* \"Periphery/libraries/TransferHelper.sol\":934:936  to */\n      dup6\n        /* \"Periphery/libraries/TransferHelper.sol\":938:943  value */\n      dup6\n        /* \"Periphery/libraries/TransferHelper.sol\":899:944  abi.encodeWithSelector(0xa9059cbb, to, value) */\n      add(0x24, mload(0x40))\n      tag_179\n      swap3\n      swap2\n      swap1\n      tag_180\n      jump\t// in\n    tag_179:\n      mload(0x40)\n      0x20\n      dup2\n      dup4\n      sub\n      sub\n      dup2\n      mstore\n      swap1\n      0x40\n      mstore\n      swap1\n      0xe0\n      shl\n      0x20\n      dup3\n      add\n      dup1\n      mload\n      0xffffffffffffffffffffffffffffffffffffffffffffffffffffffff\n      dup4\n      dup2\n      dup4\n      and\n      or\n      dup4\n      mstore\n      pop\n      pop\n      pop\n      pop\n        /* \"Periphery/libraries/TransferHelper.sol\":875:954  token.call(... */\n      mload(0x40)\n      tag_181\n      swap2\n      swap1\n      tag_182\n      jump\t// in\n    tag_181:\n      0x00\n      mload(0x40)\n      dup1\n      dup4\n      sub\n      dup2\n      0x00\n      dup7\n      gas\n      call\n      swap2\n      pop\n      pop\n      returndatasize\n      dup1\n      0x00\n      dup2\n      eq\n      tag_185\n      jumpi\n      mload(0x40)\n      swap2\n      pop\n      and(add(returndatasize, 0x3f), not(0x1f))\n      dup3\n      add\n      0x40\n      mstore\n      returndatasize\n      dup3\n      mstore\n      returndatasize\n      0x00\n      0x20\n      dup5\n      add\n      returndatacopy\n      jump(tag_184)\n    tag_185:\n      0x60\n      swap2\n      pop\n    tag_184:\n      pop\n        /* \"Periphery/libraries/TransferHelper.sol\":839:954  (bool success, bytes memory data) = token.call(... */\n      swap2\n      pop\n      swap2\n      pop\n        /* \"Periphery/libraries/TransferHelper.sol\":985:992  success */\n      dup2\n        /* \"Periphery/libraries/TransferHelper.sol\":985:1042  success && (data.length == 0 || abi.decode(data, (bool))) */\n      dup1\n      iszero\n      tag_186\n      jumpi\n      pop\n        /* \"Periphery/libraries/TransferHelper.sol\":1012:1013  0 */\n      0x00\n        /* \"Periphery/libraries/TransferHelper.sol\":997:1001  data */\n      dup2\n        /* \"Periphery/libraries/TransferHelper.sol\":997:1008  data.length */\n      mload\n        /* \"Periphery/libraries/TransferHelper.sol\":997:1013  data.length == 0 */\n      eq\n        /* \"Periphery/libraries/TransferHelper.sol\":997:1041  data.length == 0 || abi.decode(data, (bool)) */\n      dup1\n      tag_187\n      jumpi\n      pop\n        /* \"Periphery/libraries/TransferHelper.sol\":1028:1032  data */\n      dup1\n        /* \"Periphery/libraries/TransferHelper.sol\":1017:1041  abi.decode(data, (bool)) */\n      dup1\n      0x20\n      add\n      swap1\n      mload\n      dup2\n      add\n      swap1\n      tag_188\n      swap2\n      swap1\n      tag_189\n      jump\t// in\n    tag_188:\n        /* \"Periphery/libraries/TransferHelper.sol\":997:1041  data.length == 0 || abi.decode(data, (bool)) */\n    tag_187:\n        /* \"Periphery/libraries/TransferHelper.sol\":985:1042  success && (data.length == 0 || abi.decode(data, (bool))) */\n    tag_186:\n        /* \"Periphery/libraries/TransferHelper.sol\":964:1113  require(... */\n      tag_190\n      jumpi\n      mload(0x40)\n      0x08c379a000000000000000000000000000000000000000000000000000000000\n      dup2\n      mstore\n      0x04\n      add\n      tag_191\n      swap1\n      tag_192\n      jump\t// in\n    tag_191:\n      mload(0x40)\n      dup1\n      swap2\n      sub\n      swap1\n      revert\n    tag_190:\n        /* \"Periphery/libraries/TransferHelper.sol\":763:1120  {... */\n      pop\n      pop\n        /* \"Periphery/libraries/TransferHelper.sol\":660:1120  function safeTransfer(... */\n      pop\n      pop\n      pop\n      jump\t// out\n        /* \"Periphery/libraries/TransferHelper.sol\":198:654  function safeApprove(... */\n    tag_121:\n        /* \"Periphery/libraries/TransferHelper.sol\":376:388  bool success */\n      0x00\n        /* \"Periphery/libraries/TransferHelper.sol\":390:407  bytes memory data */\n      dup1\n        /* \"Periphery/libraries/TransferHelper.sol\":411:416  token */\n      dup5\n        /* \"Periphery/libraries/TransferHelper.sol\":411:421  token.call */\n      0xffffffffffffffffffffffffffffffffffffffff\n      and\n        /* \"Periphery/libraries/TransferHelper.sol\":458:468  0x095ea7b3 */\n      0x095ea7b3\n        /* \"Periphery/libraries/TransferHelper.sol\":470:472  to */\n      dup6\n        /* \"Periphery/libraries/TransferHelper.sol\":474:479  value */\n      dup6\n        /* \"Periphery/libraries/TransferHelper.sol\":435:480  abi.encodeWithSelector(0x095ea7b3, to, value) */\n      add(0x24, mload(0x40))\n      tag_194\n      swap3\n      swap2\n      swap1\n      tag_180\n      jump\t// in\n    tag_194:\n      mload(0x40)\n      0x20\n      dup2\n      dup4\n      sub\n      sub\n      dup2\n      mstore\n      swap1\n      0x40\n      mstore\n      swap1\n      0xe0\n      shl\n      0x20\n      dup3\n      add\n      dup1\n      mload\n      0xffffffffffffffffffffffffffffffffffffffffffffffffffffffff\n      dup4\n      dup2\n      dup4\n      and\n      or\n      dup4\n      mstore\n      pop\n      pop\n      pop\n      pop\n        /* \"Periphery/libraries/TransferHelper.sol\":411:490  token.call(... */\n      mload(0x40)\n      tag_195\n      swap2\n      swap1\n      tag_182\n      jump\t// in\n    tag_195:\n      0x00\n      mload(0x40)\n      dup1\n      dup4\n      sub\n      dup2\n      0x00\n      dup7\n      gas\n      call\n      swap2\n      pop\n      pop\n      returndatasize\n      dup1\n      0x00\n      dup2\n      eq\n      tag_198\n      jumpi\n      mload(0x40)\n      swap2\n      pop\n      and(add(returndatasize, 0x3f), not(0x1f))\n      dup3\n      add\n      0x40\n      mstore\n      returndatasize\n      dup3\n      mstore\n      returndatasize\n      0x00\n      0x20\n      dup5\n      add\n      returndatacopy\n      jump(tag_197)\n    tag_198:\n      0x60\n      swap2\n      pop\n    tag_197:\n      pop\n        /* \"Periphery/libraries/TransferHelper.sol\":375:490  (bool success, bytes memory data) = token.call(... */\n      swap2\n      pop\n      swap2\n      pop\n        /* \"Periphery/libraries/TransferHelper.sol\":521:528  success */\n      dup2\n        /* \"Periphery/libraries/TransferHelper.sol\":521:578  success && (data.length == 0 || abi.decode(data, (bool))) */\n      dup1\n      iszero\n      tag_199\n      jumpi\n      pop\n        /* \"Periphery/libraries/TransferHelper.sol\":548:549  0 */\n      0x00\n        /* \"Periphery/libraries/TransferHelper.sol\":533:537  data */\n      dup2\n        /* \"Periphery/libraries/TransferHelper.sol\":533:544  data.length */\n      mload\n        /* \"Periphery/libraries/TransferHelper.sol\":533:549  data.length == 0 */\n      eq\n        /* \"Periphery/libraries/TransferHelper.sol\":533:577  data.length == 0 || abi.decode(data, (bool)) */\n      dup1\n      tag_200\n      jumpi\n      pop\n        /* \"Periphery/libraries/TransferHelper.sol\":564:568  data */\n      dup1\n        /* \"Periphery/libraries/TransferHelper.sol\":553:577  abi.decode(data, (bool)) */\n      dup1\n      0x20\n      add\n      swap1\n      mload\n      dup2\n      add\n      swap1\n      tag_201\n      swap2\n      swap1\n      tag_189\n      jump\t// in\n    tag_201:\n        /* \"Periphery/libraries/TransferHelper.sol\":533:577  data.length == 0 || abi.decode(data, (bool)) */\n    tag_200:\n        /* \"Periphery/libraries/TransferHelper.sol\":521:578  success && (data.length == 0 || abi.decode(data, (bool))) */\n    tag_199:\n        /* \"Periphery/libraries/TransferHelper.sol\":500:647  require(... */\n      tag_202\n      jumpi\n      mload(0x40)\n      0x08c379a000000000000000000000000000000000000000000000000000000000\n      dup2\n      mstore\n      0x04\n      add\n      tag_203\n      swap1\n      tag_204\n      jump\t// in\n    tag_203:\n      mload(0x40)\n      dup1\n      swap2\n      sub\n      swap1\n      revert\n    tag_202:\n        /* \"Periphery/libraries/TransferHelper.sol\":300:654  {... */\n      pop\n      pop\n        /* \"Periphery/libraries/TransferHelper.sol\":198:654  function safeApprove(... */\n      pop\n      pop\n      pop\n      jump\t// out\n        /* \"Periphery/libraries/TransferHelper.sol\":1126:1634  function safeTransferFrom(... */\n    tag_148:\n        /* \"Periphery/libraries/TransferHelper.sol\":1344:1356  bool success */\n      0x00\n        /* \"Periphery/libraries/TransferHelper.sol\":1358:1375  bytes memory data */\n      dup1\n        /* \"Periphery/libraries/TransferHelper.sol\":1379:1384  token */\n      dup6\n        /* \"Periphery/libraries/TransferHelper.sol\":1379:1389  token.call */\n      0xffffffffffffffffffffffffffffffffffffffff\n      and\n        /* \"Periphery/libraries/TransferHelper.sol\":1426:1436  0x23b872dd */\n      0x23b872dd\n        /* \"Periphery/libraries/TransferHelper.sol\":1438:1442  from */\n      dup7\n        /* \"Periphery/libraries/TransferHelper.sol\":1444:1446  to */\n      dup7\n        /* \"Periphery/libraries/TransferHelper.sol\":1448:1453  value */\n      dup7\n        /* \"Periphery/libraries/TransferHelper.sol\":1403:1454  abi.encodeWithSelector(0x23b872dd, from, to, value) */\n      add(0x24, mload(0x40))\n      tag_206\n      swap4\n      swap3\n      swap2\n      swap1\n      tag_207\n      jump\t// in\n    tag_206:\n      mload(0x40)\n      0x20\n      dup2\n      dup4\n      sub\n      sub\n      dup2\n      mstore\n      swap1\n      0x40\n      mstore\n      swap1\n      0xe0\n      shl\n      0x20\n      dup3\n      add\n      dup1\n      mload\n      0xffffffffffffffffffffffffffffffffffffffffffffffffffffffff\n      dup4\n      dup2\n      dup4\n      and\n      or\n      dup4\n      mstore\n      pop\n      pop\n      pop\n      pop\n        /* \"Periphery/libraries/TransferHelper.sol\":1379:1464  token.call(... */\n      mload(0x40)\n      tag_208\n      swap2\n      swap1\n      tag_182\n      jump\t// in\n    tag_208:\n      0x00\n      mload(0x40)\n      dup1\n      dup4\n      sub\n      dup2\n      0x00\n      dup7\n      gas\n      call\n      swap2\n      pop\n      pop\n      returndatasize\n      dup1\n      0x00\n      dup2\n      eq\n      tag_211\n      jumpi\n      mload(0x40)\n      swap2\n      pop\n      and(add(returndatasize, 0x3f), not(0x1f))\n      dup3\n      add\n      0x40\n      mstore\n      returndatasize\n      dup3\n      mstore\n      returndatasize\n      0x00\n      0x20\n      dup5\n      add\n      returndatacopy\n      jump(tag_210)\n    tag_211:\n      0x60\n      swap2\n      pop\n    tag_210:\n      pop\n        /* \"Periphery/libraries/TransferHelper.sol\":1343:1464  (bool success, bytes memory data) = token.call(... */\n      swap2\n      pop\n      swap2\n      pop\n        /* \"Periphery/libraries/TransferHelper.sol\":1495:1502  success */\n      dup2\n        /* \"Periphery/libraries/TransferHelper.sol\":1495:1552  success && (data.length == 0 || abi.decode(data, (bool))) */\n      dup1\n      iszero\n      tag_212\n      jumpi\n      pop\n        /* \"Periphery/libraries/TransferHelper.sol\":1522:1523  0 */\n      0x00\n        /* \"Periphery/libraries/TransferHelper.sol\":1507:1511  data */\n      dup2\n        /* \"Periphery/libraries/TransferHelper.sol\":1507:1518  data.length */\n      mload\n        /* \"Periphery/libraries/TransferHelper.sol\":1507:1523  data.length == 0 */\n      eq\n        /* \"Periphery/libraries/TransferHelper.sol\":1507:1551  data.length == 0 || abi.decode(data, (bool)) */\n      dup1\n      tag_213\n      jumpi\n      pop\n        /* \"Periphery/libraries/TransferHelper.sol\":1538:1542  data */\n      dup1\n        /* \"Periphery/libraries/TransferHelper.sol\":1527:1551  abi.decode(data, (bool)) */\n      dup1\n      0x20\n      add\n      swap1\n      mload\n      dup2\n      add\n      swap1\n      tag_214\n      swap2\n      swap1\n      tag_189\n      jump\t// in\n    tag_214:\n        /* \"Periphery/libraries/TransferHelper.sol\":1507:1551  data.length == 0 || abi.decode(data, (bool)) */\n    tag_213:\n        /* \"Periphery/libraries/TransferHelper.sol\":1495:1552  success && (data.length == 0 || abi.decode(data, (bool))) */\n    tag_212:\n        /* \"Periphery/libraries/TransferHelper.sol\":1474:1627  require(... */\n      tag_215\n      jumpi\n      mload(0x40)\n      0x08c379a000000000000000000000000000000000000000000000000000000000\n      dup2\n      mstore\n      0x04\n      add\n      tag_216\n      swap1\n      tag_217\n      jump\t// in\n    tag_216:\n      mload(0x40)\n      dup1\n      swap2\n      sub\n      swap1\n      revert\n    tag_215:\n        /* \"Periphery/libraries/TransferHelper.sol\":1255:1634  {... */\n      pop\n      pop\n        /* \"Periphery/libraries/TransferHelper.sol\":1126:1634  function safeTransferFrom(... */\n      pop\n      pop\n      pop\n      pop\n      jump\t// out\n        /* \"Periphery/libraries/TransferHelper.sol\":1640:1888  function safeTransferETH(address to, uint256 value) internal {... */\n    tag_154:\n        /* \"Periphery/libraries/TransferHelper.sol\":1712:1724  bool success */\n      0x00\n        /* \"Periphery/libraries/TransferHelper.sol\":1730:1732  to */\n      dup3\n        /* \"Periphery/libraries/TransferHelper.sol\":1730:1737  to.call */\n      0xffffffffffffffffffffffffffffffffffffffff\n      and\n        /* \"Periphery/libraries/TransferHelper.sol\":1745:1750  value */\n      dup3\n        /* \"Periphery/libraries/TransferHelper.sol\":1762:1763  0 */\n      0x00\n        /* \"Periphery/libraries/TransferHelper.sol\":1752:1764  new bytes(0) */\n      0xffffffffffffffff\n      dup2\n      gt\n      iszero\n      tag_219\n      jumpi\n      tag_220\n      tag_221\n      jump\t// in\n    tag_220:\n    tag_219:\n      mload(0x40)\n      swap1\n      dup1\n      dup3\n      mstore\n      dup1\n      0x1f\n      add\n      not(0x1f)\n      and\n      0x20\n      add\n      dup3\n      add\n      0x40\n      mstore\n      dup1\n      iszero\n      tag_222\n      jumpi\n      dup2\n      0x20\n      add\n      0x01\n      dup3\n      mul\n      dup1\n      calldatasize\n      dup4\n      calldatacopy\n      dup1\n      dup3\n      add\n      swap2\n      pop\n      pop\n      swap1\n      pop\n    tag_222:\n      pop\n        /* \"Periphery/libraries/TransferHelper.sol\":1730:1765  to.call{value: value}(new bytes(0)) */\n      mload(0x40)\n      tag_223\n      swap2\n      swap1\n      tag_182\n      jump\t// in\n    tag_223:\n      0x00\n      mload(0x40)\n      dup1\n      dup4\n      sub\n      dup2\n      dup6\n      dup8\n      gas\n      call\n      swap3\n      pop\n      pop\n      pop\n      returndatasize\n      dup1\n      0x00\n      dup2\n      eq\n      tag_226\n      jumpi\n      mload(0x40)\n      swap2\n      pop\n      and(add(returndatasize, 0x3f), not(0x1f))\n      dup3\n      add\n      0x40\n      mstore\n      returndatasize\n      dup3\n      mstore\n      returndatasize\n      0x00\n      0x20\n      dup5\n      add\n      returndatacopy\n      jump(tag_225)\n    tag_226:\n      0x60\n      swap2\n      pop\n    tag_225:\n      pop\n        /* \"Periphery/libraries/TransferHelper.sol\":1711:1765  (bool success, ) = to.call{value: value}(new bytes(0)) */\n      pop\n      swap1\n      pop\n        /* \"Periphery/libraries/TransferHelper.sol\":1796:1803  success */\n      dup1\n        /* \"Periphery/libraries/TransferHelper.sol\":1775:1881  require(... */\n      tag_227\n      jumpi\n      mload(0x40)\n      0x08c379a000000000000000000000000000000000000000000000000000000000\n      dup2\n      mstore\n      0x04\n      add\n      tag_228\n      swap1\n      tag_229\n      jump\t// in\n    tag_228:\n      mload(0x40)\n      dup1\n      swap2\n      sub\n      swap1\n      revert\n    tag_227:\n        /* \"Periphery/libraries/TransferHelper.sol\":1701:1888  {... */\n      pop\n        /* \"Periphery/libraries/TransferHelper.sol\":1640:1888  function safeTransferETH(address to, uint256 value) internal {... */\n      pop\n      pop\n      jump\t// out\n        /* \"#utility.yul\":88:205   */\n    tag_231:\n        /* \"#utility.yul\":197:198   */\n      0x00\n        /* \"#utility.yul\":194:195   */\n      dup1\n        /* \"#utility.yul\":187:199   */\n      revert\n        /* \"#utility.yul\":334:460   */\n    tag_233:\n        /* \"#utility.yul\":371:378   */\n      0x00\n        /* \"#utility.yul\":411:453   */\n      0xffffffffffffffffffffffffffffffffffffffff\n        /* \"#utility.yul\":404:409   */\n      dup3\n        /* \"#utility.yul\":400:454   */\n      and\n        /* \"#utility.yul\":389:454   */\n      swap1\n      pop\n        /* \"#utility.yul\":334:460   */\n      swap2\n      swap1\n      pop\n      jump\t// out\n        /* \"#utility.yul\":466:562   */\n    tag_234:\n        /* \"#utility.yul\":503:510   */\n      0x00\n        /* \"#utility.yul\":532:556   */\n      tag_276\n        /* \"#utility.yul\":550:555   */\n      dup3\n        /* \"#utility.yul\":532:556   */\n      tag_233\n      jump\t// in\n    tag_276:\n        /* \"#utility.yul\":521:556   */\n      swap1\n      pop\n        /* \"#utility.yul\":466:562   */\n      swap2\n      swap1\n      pop\n      jump\t// out\n        /* \"#utility.yul\":568:690   */\n    tag_235:\n        /* \"#utility.yul\":641:665   */\n      tag_278\n        /* \"#utility.yul\":659:664   */\n      dup2\n        /* \"#utility.yul\":641:665   */\n      tag_234\n      jump\t// in\n    tag_278:\n        /* \"#utility.yul\":634:639   */\n      dup2\n        /* \"#utility.yul\":631:666   */\n      eq\n        /* \"#utility.yul\":621:684   */\n      tag_279\n      jumpi\n        /* \"#utility.yul\":680:681   */\n      0x00\n        /* \"#utility.yul\":677:678   */\n      dup1\n        /* \"#utility.yul\":670:682   */\n      revert\n        /* \"#utility.yul\":621:684   */\n    tag_279:\n        /* \"#utility.yul\":568:690   */\n      pop\n      jump\t// out\n        /* \"#utility.yul\":696:835   */\n    tag_236:\n        /* \"#utility.yul\":742:747   */\n      0x00\n        /* \"#utility.yul\":780:786   */\n      dup2\n        /* \"#utility.yul\":767:787   */\n      calldataload\n        /* \"#utility.yul\":758:787   */\n      swap1\n      pop\n        /* \"#utility.yul\":796:829   */\n      tag_281\n        /* \"#utility.yul\":823:828   */\n      dup2\n        /* \"#utility.yul\":796:829   */\n      tag_235\n      jump\t// in\n    tag_281:\n        /* \"#utility.yul\":696:835   */\n      swap3\n      swap2\n      pop\n      pop\n      jump\t// out\n        /* \"#utility.yul\":841:1170   */\n    tag_22:\n        /* \"#utility.yul\":900:906   */\n      0x00\n        /* \"#utility.yul\":949:951   */\n      0x20\n        /* \"#utility.yul\":937:946   */\n      dup3\n        /* \"#utility.yul\":928:935   */\n      dup5\n        /* \"#utility.yul\":924:947   */\n      sub\n        /* \"#utility.yul\":920:952   */\n      slt\n        /* \"#utility.yul\":917:1036   */\n      iszero\n      tag_283\n      jumpi\n        /* \"#utility.yul\":955:1034   */\n      tag_284\n      tag_231\n      jump\t// in\n    tag_284:\n        /* \"#utility.yul\":917:1036   */\n    tag_283:\n        /* \"#utility.yul\":1075:1076   */\n      0x00\n        /* \"#utility.yul\":1100:1153   */\n      tag_285\n        /* \"#utility.yul\":1145:1152   */\n      dup5\n        /* \"#utility.yul\":1136:1142   */\n      dup3\n        /* \"#utility.yul\":1125:1134   */\n      dup6\n        /* \"#utility.yul\":1121:1143   */\n      add\n        /* \"#utility.yul\":1100:1153   */\n      tag_236\n      jump\t// in\n    tag_285:\n        /* \"#utility.yul\":1090:1153   */\n      swap2\n      pop\n        /* \"#utility.yul\":1046:1163   */\n      pop\n        /* \"#utility.yul\":841:1170   */\n      swap3\n      swap2\n      pop\n      pop\n      jump\t// out\n        /* \"#utility.yul\":1176:1294   */\n    tag_237:\n        /* \"#utility.yul\":1263:1287   */\n      tag_287\n        /* \"#utility.yul\":1281:1286   */\n      dup2\n        /* \"#utility.yul\":1263:1287   */\n      tag_234\n      jump\t// in\n    tag_287:\n        /* \"#utility.yul\":1258:1261   */\n      dup3\n        /* \"#utility.yul\":1251:1288   */\n      mstore\n        /* \"#utility.yul\":1176:1294   */\n      pop\n      pop\n      jump\t// out\n        /* \"#utility.yul\":1300:1522   */\n    tag_25:\n        /* \"#utility.yul\":1393:1397   */\n      0x00\n        /* \"#utility.yul\":1431:1433   */\n      0x20\n        /* \"#utility.yul\":1420:1429   */\n      dup3\n        /* \"#utility.yul\":1416:1434   */\n      add\n        /* \"#utility.yul\":1408:1434   */\n      swap1\n      pop\n        /* \"#utility.yul\":1444:1515   */\n      tag_289\n        /* \"#utility.yul\":1512:1513   */\n      0x00\n        /* \"#utility.yul\":1501:1510   */\n      dup4\n        /* \"#utility.yul\":1497:1514   */\n      add\n        /* \"#utility.yul\":1488:1494   */\n      dup5\n        /* \"#utility.yul\":1444:1515   */\n      tag_237\n      jump\t// in\n    tag_289:\n        /* \"#utility.yul\":1300:1522   */\n      swap3\n      swap2\n      pop\n      pop\n      jump\t// out\n        /* \"#utility.yul\":1528:1605   */\n    tag_238:\n        /* \"#utility.yul\":1565:1572   */\n      0x00\n        /* \"#utility.yul\":1594:1599   */\n      dup2\n        /* \"#utility.yul\":1583:1599   */\n      swap1\n      pop\n        /* \"#utility.yul\":1528:1605   */\n      swap2\n      swap1\n      pop\n      jump\t// out\n        /* \"#utility.yul\":1611:1733   */\n    tag_239:\n        /* \"#utility.yul\":1684:1708   */\n      tag_292\n        /* \"#utility.yul\":1702:1707   */\n      dup2\n        /* \"#utility.yul\":1684:1708   */\n      tag_238\n      jump\t// in\n    tag_292:\n        /* \"#utility.yul\":1677:1682   */\n      dup2\n        /* \"#utility.yul\":1674:1709   */\n      eq\n        /* \"#utility.yul\":1664:1727   */\n      tag_293\n      jumpi\n        /* \"#utility.yul\":1723:1724   */\n      0x00\n        /* \"#utility.yul\":1720:1721   */\n      dup1\n        /* \"#utility.yul\":1713:1725   */\n      revert\n        /* \"#utility.yul\":1664:1727   */\n    tag_293:\n        /* \"#utility.yul\":1611:1733   */\n      pop\n      jump\t// out\n        /* \"#utility.yul\":1739:1878   */\n    tag_240:\n        /* \"#utility.yul\":1785:1790   */\n      0x00\n        /* \"#utility.yul\":1823:1829   */\n      dup2\n        /* \"#utility.yul\":1810:1830   */\n      calldataload\n        /* \"#utility.yul\":1801:1830   */\n      swap1\n      pop\n        /* \"#utility.yul\":1839:1872   */\n      tag_295\n        /* \"#utility.yul\":1866:1871   */\n      dup2\n        /* \"#utility.yul\":1839:1872   */\n      tag_239\n      jump\t// in\n    tag_295:\n        /* \"#utility.yul\":1739:1878   */\n      swap3\n      swap2\n      pop\n      pop\n      jump\t// out\n        /* \"#utility.yul\":1884:2213   */\n    tag_28:\n        /* \"#utility.yul\":1943:1949   */\n      0x00\n        /* \"#utility.yul\":1992:1994   */\n      0x20\n        /* \"#utility.yul\":1980:1989   */\n      dup3\n        /* \"#utility.yul\":1971:1978   */\n      dup5\n        /* \"#utility.yul\":1967:1990   */\n      sub\n        /* \"#utility.yul\":1963:1995   */\n      slt\n        /* \"#utility.yul\":1960:2079   */\n      iszero\n      tag_297\n      jumpi\n        /* \"#utility.yul\":1998:2077   */\n      tag_298\n      tag_231\n      jump\t// in\n    tag_298:\n        /* \"#utility.yul\":1960:2079   */\n    tag_297:\n        /* \"#utility.yul\":2118:2119   */\n      0x00\n        /* \"#utility.yul\":2143:2196   */\n      tag_299\n        /* \"#utility.yul\":2188:2195   */\n      dup5\n        /* \"#utility.yul\":2179:2185   */\n      dup3\n        /* \"#utility.yul\":2168:2177   */\n      dup6\n        /* \"#utility.yul\":2164:2186   */\n      add\n        /* \"#utility.yul\":2143:2196   */\n      tag_240\n      jump\t// in\n    tag_299:\n        /* \"#utility.yul\":2133:2196   */\n      swap2\n      pop\n        /* \"#utility.yul\":2089:2206   */\n      pop\n        /* \"#utility.yul\":1884:2213   */\n      swap3\n      swap2\n      pop\n      pop\n      jump\t// out\n        /* \"#utility.yul\":2219:2693   */\n    tag_45:\n        /* \"#utility.yul\":2287:2293   */\n      0x00\n        /* \"#utility.yul\":2295:2301   */\n      dup1\n        /* \"#utility.yul\":2344:2346   */\n      0x40\n        /* \"#utility.yul\":2332:2341   */\n      dup4\n        /* \"#utility.yul\":2323:2330   */\n      dup6\n        /* \"#utility.yul\":2319:2342   */\n      sub\n        /* \"#utility.yul\":2315:2347   */\n      slt\n        /* \"#utility.yul\":2312:2431   */\n      iszero\n      tag_301\n      jumpi\n        /* \"#utility.yul\":2350:2429   */\n      tag_302\n      tag_231\n      jump\t// in\n    tag_302:\n        /* \"#utility.yul\":2312:2431   */\n    tag_301:\n        /* \"#utility.yul\":2470:2471   */\n      0x00\n        /* \"#utility.yul\":2495:2548   */\n      tag_303\n        /* \"#utility.yul\":2540:2547   */\n      dup6\n        /* \"#utility.yul\":2531:2537   */\n      dup3\n        /* \"#utility.yul\":2520:2529   */\n      dup7\n        /* \"#utility.yul\":2516:2538   */\n      add\n        /* \"#utility.yul\":2495:2548   */\n      tag_236\n      jump\t// in\n    tag_303:\n        /* \"#utility.yul\":2485:2548   */\n      swap3\n      pop\n        /* \"#utility.yul\":2441:2558   */\n      pop\n        /* \"#utility.yul\":2597:2599   */\n      0x20\n        /* \"#utility.yul\":2623:2676   */\n      tag_304\n        /* \"#utility.yul\":2668:2675   */\n      dup6\n        /* \"#utility.yul\":2659:2665   */\n      dup3\n        /* \"#utility.yul\":2648:2657   */\n      dup7\n        /* \"#utility.yul\":2644:2666   */\n      add\n        /* \"#utility.yul\":2623:2676   */\n      tag_240\n      jump\t// in\n    tag_304:\n        /* \"#utility.yul\":2613:2676   */\n      swap2\n      pop\n        /* \"#utility.yul\":2568:2686   */\n      pop\n        /* \"#utility.yul\":2219:2693   */\n      swap3\n      pop\n      swap3\n      swap1\n      pop\n      jump\t// out\n        /* \"#utility.yul\":2699:3173   */\n    tag_54:\n        /* \"#utility.yul\":2767:2773   */\n      0x00\n        /* \"#utility.yul\":2775:2781   */\n      dup1\n        /* \"#utility.yul\":2824:2826   */\n      0x40\n        /* \"#utility.yul\":2812:2821   */\n      dup4\n        /* \"#utility.yul\":2803:2810   */\n      dup6\n        /* \"#utility.yul\":2799:2822   */\n      sub\n        /* \"#utility.yul\":2795:2827   */\n      slt\n        /* \"#utility.yul\":2792:2911   */\n      iszero\n      tag_306\n      jumpi\n        /* \"#utility.yul\":2830:2909   */\n      tag_307\n      tag_231\n      jump\t// in\n    tag_307:\n        /* \"#utility.yul\":2792:2911   */\n    tag_306:\n        /* \"#utility.yul\":2950:2951   */\n      0x00\n        /* \"#utility.yul\":2975:3028   */\n      tag_308\n        /* \"#utility.yul\":3020:3027   */\n      dup6\n        /* \"#utility.yul\":3011:3017   */\n      dup3\n        /* \"#utility.yul\":3000:3009   */\n      dup7\n        /* \"#utility.yul\":2996:3018   */\n      add\n        /* \"#utility.yul\":2975:3028   */\n      tag_236\n      jump\t// in\n    tag_308:\n        /* \"#utility.yul\":2965:3028   */\n      swap3\n      pop\n        /* \"#utility.yul\":2921:3038   */\n      pop\n        /* \"#utility.yul\":3077:3079   */\n      0x20\n        /* \"#utility.yul\":3103:3156   */\n      tag_309\n        /* \"#utility.yul\":3148:3155   */\n      dup6\n        /* \"#utility.yul\":3139:3145   */\n      dup3\n        /* \"#utility.yul\":3128:3137   */\n      dup7\n        /* \"#utility.yul\":3124:3146   */\n      add\n        /* \"#utility.yul\":3103:3156   */\n      tag_236\n      jump\t// in\n    tag_309:\n        /* \"#utility.yul\":3093:3156   */\n      swap2\n      pop\n        /* \"#utility.yul\":3048:3166   */\n      pop\n        /* \"#utility.yul\":2699:3173   */\n      swap3\n      pop\n      swap3\n      swap1\n      pop\n      jump\t// out\n        /* \"#utility.yul\":3179:3297   */\n    tag_241:\n        /* \"#utility.yul\":3266:3290   */\n      tag_311\n        /* \"#utility.yul\":3284:3289   */\n      dup2\n        /* \"#utility.yul\":3266:3290   */\n      tag_238\n      jump\t// in\n    tag_311:\n        /* \"#utility.yul\":3261:3264   */\n      dup3\n        /* \"#utility.yul\":3254:3291   */\n      mstore\n        /* \"#utility.yul\":3179:3297   */\n      pop\n      pop\n      jump\t// out\n        /* \"#utility.yul\":3303:3525   */\n    tag_57:\n        /* \"#utility.yul\":3396:3400   */\n      0x00\n        /* \"#utility.yul\":3434:3436   */\n      0x20\n        /* \"#utility.yul\":3423:3432   */\n      dup3\n        /* \"#utility.yul\":3419:3437   */\n      add\n        /* \"#utility.yul\":3411:3437   */\n      swap1\n      pop\n        /* \"#utility.yul\":3447:3518   */\n      tag_313\n        /* \"#utility.yul\":3515:3516   */\n      0x00\n        /* \"#utility.yul\":3504:3513   */\n      dup4\n        /* \"#utility.yul\":3500:3517   */\n      add\n        /* \"#utility.yul\":3491:3497   */\n      dup5\n        /* \"#utility.yul\":3447:3518   */\n      tag_241\n      jump\t// in\n    tag_313:\n        /* \"#utility.yul\":3303:3525   */\n      swap3\n      swap2\n      pop\n      pop\n      jump\t// out\n        /* \"#utility.yul\":3531:3674   */\n    tag_242:\n        /* \"#utility.yul\":3588:3593   */\n      0x00\n        /* \"#utility.yul\":3619:3625   */\n      dup2\n        /* \"#utility.yul\":3613:3626   */\n      mload\n        /* \"#utility.yul\":3604:3626   */\n      swap1\n      pop\n        /* \"#utility.yul\":3635:3668   */\n      tag_315\n        /* \"#utility.yul\":3662:3667   */\n      dup2\n        /* \"#utility.yul\":3635:3668   */\n      tag_235\n      jump\t// in\n    tag_315:\n        /* \"#utility.yul\":3531:3674   */\n      swap3\n      swap2\n      pop\n      pop\n      jump\t// out\n        /* \"#utility.yul\":3680:4031   */\n    tag_88:\n        /* \"#utility.yul\":3750:3756   */\n      0x00\n        /* \"#utility.yul\":3799:3801   */\n      0x20\n        /* \"#utility.yul\":3787:3796   */\n      dup3\n        /* \"#utility.yul\":3778:3785   */\n      dup5\n        /* \"#utility.yul\":3774:3797   */\n      sub\n        /* \"#utility.yul\":3770:3802   */\n      slt\n        /* \"#utility.yul\":3767:3886   */\n      iszero\n      tag_317\n      jumpi\n        /* \"#utility.yul\":3805:3884   */\n      tag_318\n      tag_231\n      jump\t// in\n    tag_318:\n        /* \"#utility.yul\":3767:3886   */\n    tag_317:\n        /* \"#utility.yul\":3925:3926   */\n      0x00\n        /* \"#utility.yul\":3950:4014   */\n      tag_319\n        /* \"#utility.yul\":4006:4013   */\n      dup5\n        /* \"#utility.yul\":3997:4003   */\n      dup3\n        /* \"#utility.yul\":3986:3995   */\n      dup6\n        /* \"#utility.yul\":3982:4004   */\n      add\n        /* \"#utility.yul\":3950:4014   */\n      tag_242\n      jump\t// in\n    tag_319:\n        /* \"#utility.yul\":3940:4014   */\n      swap2\n      pop\n        /* \"#utility.yul\":3896:4024   */\n      pop\n        /* \"#utility.yul\":3680:4031   */\n      swap3\n      swap2\n      pop\n      pop\n      jump\t// out\n        /* \"#utility.yul\":4037:4206   */\n    tag_243:\n        /* \"#utility.yul\":4121:4132   */\n      0x00\n        /* \"#utility.yul\":4155:4161   */\n      dup3\n        /* \"#utility.yul\":4150:4153   */\n      dup3\n        /* \"#utility.yul\":4143:4162   */\n      mstore\n        /* \"#utility.yul\":4195:4199   */\n      0x20\n        /* \"#utility.yul\":4190:4193   */\n      dup3\n        /* \"#utility.yul\":4186:4200   */\n      add\n        /* \"#utility.yul\":4171:4200   */\n      swap1\n      pop\n        /* \"#utility.yul\":4037:4206   */\n      swap3\n      swap2\n      pop\n      pop\n      jump\t// out\n        /* \"#utility.yul\":4212:4383   */\n    tag_244:\n        /* \"#utility.yul\":4352:4375   */\n      0x496e636f727265637420416d6f756e742073656e740000000000000000000000\n        /* \"#utility.yul\":4348:4349   */\n      0x00\n        /* \"#utility.yul\":4340:4346   */\n      dup3\n        /* \"#utility.yul\":4336:4350   */\n      add\n        /* \"#utility.yul\":4329:4376   */\n      mstore\n        /* \"#utility.yul\":4212:4383   */\n      pop\n      jump\t// out\n        /* \"#utility.yul\":4389:4755   */\n    tag_245:\n        /* \"#utility.yul\":4531:4534   */\n      0x00\n        /* \"#utility.yul\":4552:4619   */\n      tag_323\n        /* \"#utility.yul\":4616:4618   */\n      0x15\n        /* \"#utility.yul\":4611:4614   */\n      dup4\n        /* \"#utility.yul\":4552:4619   */\n      tag_243\n      jump\t// in\n    tag_323:\n        /* \"#utility.yul\":4545:4619   */\n      swap2\n      pop\n        /* \"#utility.yul\":4628:4721   */\n      tag_324\n        /* \"#utility.yul\":4717:4720   */\n      dup3\n        /* \"#utility.yul\":4628:4721   */\n      tag_244\n      jump\t// in\n    tag_324:\n        /* \"#utility.yul\":4746:4748   */\n      0x20\n        /* \"#utility.yul\":4741:4744   */\n      dup3\n        /* \"#utility.yul\":4737:4749   */\n      add\n        /* \"#utility.yul\":4730:4749   */\n      swap1\n      pop\n        /* \"#utility.yul\":4389:4755   */\n      swap2\n      swap1\n      pop\n      jump\t// out\n        /* \"#utility.yul\":4761:5180   */\n    tag_92:\n        /* \"#utility.yul\":4927:4931   */\n      0x00\n        /* \"#utility.yul\":4965:4967   */\n      0x20\n        /* \"#utility.yul\":4954:4963   */\n      dup3\n        /* \"#utility.yul\":4950:4968   */\n      add\n        /* \"#utility.yul\":4942:4968   */\n      swap1\n      pop\n        /* \"#utility.yul\":5014:5023   */\n      dup2\n        /* \"#utility.yul\":5008:5012   */\n      dup2\n        /* \"#utility.yul\":5004:5024   */\n      sub\n        /* \"#utility.yul\":5000:5001   */\n      0x00\n        /* \"#utility.yul\":4989:4998   */\n      dup4\n        /* \"#utility.yul\":4985:5002   */\n      add\n        /* \"#utility.yul\":4978:5025   */\n      mstore\n        /* \"#utility.yul\":5042:5173   */\n      tag_326\n        /* \"#utility.yul\":5168:5172   */\n      dup2\n        /* \"#utility.yul\":5042:5173   */\n      tag_245\n      jump\t// in\n    tag_326:\n        /* \"#utility.yul\":5034:5173   */\n      swap1\n      pop\n        /* \"#utility.yul\":4761:5180   */\n      swap2\n      swap1\n      pop\n      jump\t// out\n        /* \"#utility.yul\":5186:5354   */\n    tag_246:\n        /* \"#utility.yul\":5326:5346   */\n      0x506f6f6c20446f204e6f74204578697374730000000000000000000000000000\n        /* \"#utility.yul\":5322:5323   */\n      0x00\n        /* \"#utility.yul\":5314:5320   */\n      dup3\n        /* \"#utility.yul\":5310:5324   */\n      add\n        /* \"#utility.yul\":5303:5347   */\n      mstore\n        /* \"#utility.yul\":5186:5354   */\n      pop\n      jump\t// out\n        /* \"#utility.yul\":5360:5726   */\n    tag_247:\n        /* \"#utility.yul\":5502:5505   */\n      0x00\n        /* \"#utility.yul\":5523:5590   */\n      tag_329\n        /* \"#utility.yul\":5587:5589   */\n      0x12\n        /* \"#utility.yul\":5582:5585   */\n      dup4\n        /* \"#utility.yul\":5523:5590   */\n      tag_243\n      jump\t// in\n    tag_329:\n        /* \"#utility.yul\":5516:5590   */\n      swap2\n      pop\n        /* \"#utility.yul\":5599:5692   */\n      tag_330\n        /* \"#utility.yul\":5688:5691   */\n      dup3\n        /* \"#utility.yul\":5599:5692   */\n      tag_246\n      jump\t// in\n    tag_330:\n        /* \"#utility.yul\":5717:5719   */\n      0x20\n        /* \"#utility.yul\":5712:5715   */\n      dup3\n        /* \"#utility.yul\":5708:5720   */\n      add\n        /* \"#utility.yul\":5701:5720   */\n      swap1\n      pop\n        /* \"#utility.yul\":5360:5726   */\n      swap2\n      swap1\n      pop\n      jump\t// out\n        /* \"#utility.yul\":5732:6151   */\n    tag_103:\n        /* \"#utility.yul\":5898:5902   */\n      0x00\n        /* \"#utility.yul\":5936:5938   */\n      0x20\n        /* \"#utility.yul\":5925:5934   */\n      dup3\n        /* \"#utility.yul\":5921:5939   */\n      add\n        /* \"#utility.yul\":5913:5939   */\n      swap1\n      pop\n        /* \"#utility.yul\":5985:5994   */\n      dup2\n        /* \"#utility.yul\":5979:5983   */\n      dup2\n        /* \"#utility.yul\":5975:5995   */\n      sub\n        /* \"#utility.yul\":5971:5972   */\n      0x00\n        /* \"#utility.yul\":5960:5969   */\n      dup4\n        /* \"#utility.yul\":5956:5973   */\n      add\n        /* \"#utility.yul\":5949:5996   */\n      mstore\n        /* \"#utility.yul\":6013:6144   */\n      tag_332\n        /* \"#utility.yul\":6139:6143   */\n      dup2\n        /* \"#utility.yul\":6013:6144   */\n      tag_247\n      jump\t// in\n    tag_332:\n        /* \"#utility.yul\":6005:6144   */\n      swap1\n      pop\n        /* \"#utility.yul\":5732:6151   */\n      swap2\n      swap1\n      pop\n      jump\t// out\n        /* \"#utility.yul\":6157:6323   */\n    tag_248:\n        /* \"#utility.yul\":6297:6315   */\n      0x4e6f207265776172647320466f756e6400000000000000000000000000000000\n        /* \"#utility.yul\":6293:6294   */\n      0x00\n        /* \"#utility.yul\":6285:6291   */\n      dup3\n        /* \"#utility.yul\":6281:6295   */\n      add\n        /* \"#utility.yul\":6274:6316   */\n      mstore\n        /* \"#utility.yul\":6157:6323   */\n      pop\n      jump\t// out\n        /* \"#utility.yul\":6329:6695   */\n    tag_249:\n        /* \"#utility.yul\":6471:6474   */\n      0x00\n        /* \"#utility.yul\":6492:6559   */\n      tag_335\n        /* \"#utility.yul\":6556:6558   */\n      0x10\n        /* \"#utility.yul\":6551:6554   */\n      dup4\n        /* \"#utility.yul\":6492:6559   */\n      tag_243\n      jump\t// in\n    tag_335:\n        /* \"#utility.yul\":6485:6559   */\n      swap2\n      pop\n        /* \"#utility.yul\":6568:6661   */\n      tag_336\n        /* \"#utility.yul\":6657:6660   */\n      dup3\n        /* \"#utility.yul\":6568:6661   */\n      tag_248\n      jump\t// in\n    tag_336:\n        /* \"#utility.yul\":6686:6688   */\n      0x20\n        /* \"#utility.yul\":6681:6684   */\n      dup3\n        /* \"#utility.yul\":6677:6689   */\n      add\n        /* \"#utility.yul\":6670:6689   */\n      swap1\n      pop\n        /* \"#utility.yul\":6329:6695   */\n      swap2\n      swap1\n      pop\n      jump\t// out\n        /* \"#utility.yul\":6701:7120   */\n    tag_107:\n        /* \"#utility.yul\":6867:6871   */\n      0x00\n        /* \"#utility.yul\":6905:6907   */\n      0x20\n        /* \"#utility.yul\":6894:6903   */\n      dup3\n        /* \"#utility.yul\":6890:6908   */\n      add\n        /* \"#utility.yul\":6882:6908   */\n      swap1\n      pop\n        /* \"#utility.yul\":6954:6963   */\n      dup2\n        /* \"#utility.yul\":6948:6952   */\n      dup2\n        /* \"#utility.yul\":6944:6964   */\n      sub\n        /* \"#utility.yul\":6940:6941   */\n      0x00\n        /* \"#utility.yul\":6929:6938   */\n      dup4\n        /* \"#utility.yul\":6925:6942   */\n      add\n        /* \"#utility.yul\":6918:6965   */\n      mstore\n        /* \"#utility.yul\":6982:7113   */\n      tag_338\n        /* \"#utility.yul\":7108:7112   */\n      dup2\n        /* \"#utility.yul\":6982:7113   */\n      tag_249\n      jump\t// in\n    tag_338:\n        /* \"#utility.yul\":6974:7113   */\n      swap1\n      pop\n        /* \"#utility.yul\":6701:7120   */\n      swap2\n      swap1\n      pop\n      jump\t// out\n        /* \"#utility.yul\":7126:7458   */\n    tag_113:\n        /* \"#utility.yul\":7247:7251   */\n      0x00\n        /* \"#utility.yul\":7285:7287   */\n      0x40\n        /* \"#utility.yul\":7274:7283   */\n      dup3\n        /* \"#utility.yul\":7270:7288   */\n      add\n        /* \"#utility.yul\":7262:7288   */\n      swap1\n      pop\n        /* \"#utility.yul\":7298:7369   */\n      tag_340\n        /* \"#utility.yul\":7366:7367   */\n      0x00\n        /* \"#utility.yul\":7355:7364   */\n      dup4\n        /* \"#utility.yul\":7351:7368   */\n      add\n        /* \"#utility.yul\":7342:7348   */\n      dup6\n        /* \"#utility.yul\":7298:7369   */\n      tag_237\n      jump\t// in\n    tag_340:\n        /* \"#utility.yul\":7379:7451   */\n      tag_341\n        /* \"#utility.yul\":7447:7449   */\n      0x20\n        /* \"#utility.yul\":7436:7445   */\n      dup4\n        /* \"#utility.yul\":7432:7450   */\n      add\n        /* \"#utility.yul\":7423:7429   */\n      dup5\n        /* \"#utility.yul\":7379:7451   */\n      tag_237\n      jump\t// in\n    tag_341:\n        /* \"#utility.yul\":7126:7458   */\n      swap4\n      swap3\n      pop\n      pop\n      pop\n      jump\t// out\n        /* \"#utility.yul\":7464:7631   */\n    tag_250:\n        /* \"#utility.yul\":7604:7623   */\n      0x506f6f6c20646f6e277420457869737473000000000000000000000000000000\n        /* \"#utility.yul\":7600:7601   */\n      0x00\n        /* \"#utility.yul\":7592:7598   */\n      dup3\n        /* \"#utility.yul\":7588:7602   */\n      add\n        /* \"#utility.yul\":7581:7624   */\n      mstore\n        /* \"#utility.yul\":7464:7631   */\n      pop\n      jump\t// out\n        /* \"#utility.yul\":7637:8003   */\n    tag_251:\n        /* \"#utility.yul\":7779:7782   */\n      0x00\n        /* \"#utility.yul\":7800:7867   */\n      tag_344\n        /* \"#utility.yul\":7864:7866   */\n      0x11\n        /* \"#utility.yul\":7859:7862   */\n      dup4\n        /* \"#utility.yul\":7800:7867   */\n      tag_243\n      jump\t// in\n    tag_344:\n        /* \"#utility.yul\":7793:7867   */\n      swap2\n      pop\n        /* \"#utility.yul\":7876:7969   */\n      tag_345\n        /* \"#utility.yul\":7965:7968   */\n      dup3\n        /* \"#utility.yul\":7876:7969   */\n      tag_250\n      jump\t// in\n    tag_345:\n        /* \"#utility.yul\":7994:7996   */\n      0x20\n        /* \"#utility.yul\":7989:7992   */\n      dup3\n        /* \"#utility.yul\":7985:7997   */\n      add\n        /* \"#utility.yul\":7978:7997   */\n      swap1\n      pop\n        /* \"#utility.yul\":7637:8003   */\n      swap2\n      swap1\n      pop\n      jump\t// out\n        /* \"#utility.yul\":8009:8428   */\n    tag_137:\n        /* \"#utility.yul\":8175:8179   */\n      0x00\n        /* \"#utility.yul\":8213:8215   */\n      0x20\n        /* \"#utility.yul\":8202:8211   */\n      dup3\n        /* \"#utility.yul\":8198:8216   */\n      add\n        /* \"#utility.yul\":8190:8216   */\n      swap1\n      pop\n        /* \"#utility.yul\":8262:8271   */\n      dup2\n        /* \"#utility.yul\":8256:8260   */\n      dup2\n        /* \"#utility.yul\":8252:8272   */\n      sub\n        /* \"#utility.yul\":8248:8249   */\n      0x00\n        /* \"#utility.yul\":8237:8246   */\n      dup4\n        /* \"#utility.yul\":8233:8250   */\n      add\n        /* \"#utility.yul\":8226:8273   */\n      mstore\n        /* \"#utility.yul\":8290:8421   */\n      tag_347\n        /* \"#utility.yul\":8416:8420   */\n      dup2\n        /* \"#utility.yul\":8290:8421   */\n      tag_251\n      jump\t// in\n    tag_347:\n        /* \"#utility.yul\":8282:8421   */\n      swap1\n      pop\n        /* \"#utility.yul\":8009:8428   */\n      swap2\n      swap1\n      pop\n      jump\t// out\n        /* \"#utility.yul\":8434:8577   */\n    tag_252:\n        /* \"#utility.yul\":8491:8496   */\n      0x00\n        /* \"#utility.yul\":8522:8528   */\n      dup2\n        /* \"#utility.yul\":8516:8529   */\n      mload\n        /* \"#utility.yul\":8507:8529   */\n      swap1\n      pop\n        /* \"#utility.yul\":8538:8571   */\n      tag_349\n        /* \"#utility.yul\":8565:8570   */\n      dup2\n        /* \"#utility.yul\":8538:8571   */\n      tag_239\n      jump\t// in\n    tag_349:\n        /* \"#utility.yul\":8434:8577   */\n      swap3\n      swap2\n      pop\n      pop\n      jump\t// out\n        /* \"#utility.yul\":8583:8934   */\n    tag_142:\n        /* \"#utility.yul\":8653:8659   */\n      0x00\n        /* \"#utility.yul\":8702:8704   */\n      0x20\n        /* \"#utility.yul\":8690:8699   */\n      dup3\n        /* \"#utility.yul\":8681:8688   */\n      dup5\n        /* \"#utility.yul\":8677:8700   */\n      sub\n        /* \"#utility.yul\":8673:8705   */\n      slt\n        /* \"#utility.yul\":8670:8789   */\n      iszero\n      tag_351\n      jumpi\n        /* \"#utility.yul\":8708:8787   */\n      tag_352\n      tag_231\n      jump\t// in\n    tag_352:\n        /* \"#utility.yul\":8670:8789   */\n    tag_351:\n        /* \"#utility.yul\":8828:8829   */\n      0x00\n        /* \"#utility.yul\":8853:8917   */\n      tag_353\n        /* \"#utility.yul\":8909:8916   */\n      dup5\n        /* \"#utility.yul\":8900:8906   */\n      dup3\n        /* \"#utility.yul\":8889:8898   */\n      dup6\n        /* \"#utility.yul\":8885:8907   */\n      add\n        /* \"#utility.yul\":8853:8917   */\n      tag_252\n      jump\t// in\n    tag_353:\n        /* \"#utility.yul\":8843:8917   */\n      swap2\n      pop\n        /* \"#utility.yul\":8799:8927   */\n      pop\n        /* \"#utility.yul\":8583:8934   */\n      swap3\n      swap2\n      pop\n      pop\n      jump\t// out\n        /* \"#utility.yul\":8940:9115   */\n    tag_253:\n        /* \"#utility.yul\":9080:9107   */\n      0x496e636f72726563742042616c616e636520656e746572656400000000000000\n        /* \"#utility.yul\":9076:9077   */\n      0x00\n        /* \"#utility.yul\":9068:9074   */\n      dup3\n        /* \"#utility.yul\":9064:9078   */\n      add\n        /* \"#utility.yul\":9057:9108   */\n      mstore\n        /* \"#utility.yul\":8940:9115   */\n      pop\n      jump\t// out\n        /* \"#utility.yul\":9121:9487   */\n    tag_254:\n        /* \"#utility.yul\":9263:9266   */\n      0x00\n        /* \"#utility.yul\":9284:9351   */\n      tag_356\n        /* \"#utility.yul\":9348:9350   */\n      0x19\n        /* \"#utility.yul\":9343:9346   */\n      dup4\n        /* \"#utility.yul\":9284:9351   */\n      tag_243\n      jump\t// in\n    tag_356:\n        /* \"#utility.yul\":9277:9351   */\n      swap2\n      pop\n        /* \"#utility.yul\":9360:9453   */\n      tag_357\n        /* \"#utility.yul\":9449:9452   */\n      dup3\n        /* \"#utility.yul\":9360:9453   */\n      tag_253\n      jump\t// in\n    tag_357:\n        /* \"#utility.yul\":9478:9480   */\n      0x20\n        /* \"#utility.yul\":9473:9476   */\n      dup3\n        /* \"#utility.yul\":9469:9481   */\n      add\n        /* \"#utility.yul\":9462:9481   */\n      swap1\n      pop\n        /* \"#utility.yul\":9121:9487   */\n      swap2\n      swap1\n      pop\n      jump\t// out\n        /* \"#utility.yul\":9493:9912   */\n    tag_168:\n        /* \"#utility.yul\":9659:9663   */\n      0x00\n        /* \"#utility.yul\":9697:9699   */\n      0x20\n        /* \"#utility.yul\":9686:9695   */\n      dup3\n        /* \"#utility.yul\":9682:9700   */\n      add\n        /* \"#utility.yul\":9674:9700   */\n      swap1\n      pop\n        /* \"#utility.yul\":9746:9755   */\n      dup2\n        /* \"#utility.yul\":9740:9744   */\n      dup2\n        /* \"#utility.yul\":9736:9756   */\n      sub\n        /* \"#utility.yul\":9732:9733   */\n      0x00\n        /* \"#utility.yul\":9721:9730   */\n      dup4\n        /* \"#utility.yul\":9717:9734   */\n      add\n        /* \"#utility.yul\":9710:9757   */\n      mstore\n        /* \"#utility.yul\":9774:9905   */\n      tag_359\n        /* \"#utility.yul\":9900:9904   */\n      dup2\n        /* \"#utility.yul\":9774:9905   */\n      tag_254\n      jump\t// in\n    tag_359:\n        /* \"#utility.yul\":9766:9905   */\n      swap1\n      pop\n        /* \"#utility.yul\":9493:9912   */\n      swap2\n      swap1\n      pop\n      jump\t// out\n        /* \"#utility.yul\":9918:10250   */\n    tag_180:\n        /* \"#utility.yul\":10039:10043   */\n      0x00\n        /* \"#utility.yul\":10077:10079   */\n      0x40\n        /* \"#utility.yul\":10066:10075   */\n      dup3\n        /* \"#utility.yul\":10062:10080   */\n      add\n        /* \"#utility.yul\":10054:10080   */\n      swap1\n      pop\n        /* \"#utility.yul\":10090:10161   */\n      tag_361\n        /* \"#utility.yul\":10158:10159   */\n      0x00\n        /* \"#utility.yul\":10147:10156   */\n      dup4\n        /* \"#utility.yul\":10143:10160   */\n      add\n        /* \"#utility.yul\":10134:10140   */\n      dup6\n        /* \"#utility.yul\":10090:10161   */\n      tag_237\n      jump\t// in\n    tag_361:\n        /* \"#utility.yul\":10171:10243   */\n      tag_362\n        /* \"#utility.yul\":10239:10241   */\n      0x20\n        /* \"#utility.yul\":10228:10237   */\n      dup4\n        /* \"#utility.yul\":10224:10242   */\n      add\n        /* \"#utility.yul\":10215:10221   */\n      dup5\n        /* \"#utility.yul\":10171:10243   */\n      tag_241\n      jump\t// in\n    tag_362:\n        /* \"#utility.yul\":9918:10250   */\n      swap4\n      swap3\n      pop\n      pop\n      pop\n      jump\t// out\n        /* \"#utility.yul\":10256:10354   */\n    tag_255:\n        /* \"#utility.yul\":10307:10313   */\n      0x00\n        /* \"#utility.yul\":10341:10346   */\n      dup2\n        /* \"#utility.yul\":10335:10347   */\n      mload\n        /* \"#utility.yul\":10325:10347   */\n      swap1\n      pop\n        /* \"#utility.yul\":10256:10354   */\n      swap2\n      swap1\n      pop\n      jump\t// out\n        /* \"#utility.yul\":10360:10507   */\n    tag_256:\n        /* \"#utility.yul\":10461:10472   */\n      0x00\n        /* \"#utility.yul\":10498:10501   */\n      dup2\n        /* \"#utility.yul\":10483:10501   */\n      swap1\n      pop\n        /* \"#utility.yul\":10360:10507   */\n      swap3\n      swap2\n      pop\n      pop\n      jump\t// out\n        /* \"#utility.yul\":10513:10820   */\n    tag_257:\n        /* \"#utility.yul\":10581:10582   */\n      0x00\n        /* \"#utility.yul\":10591:10704   */\n    tag_366:\n        /* \"#utility.yul\":10605:10611   */\n      dup4\n        /* \"#utility.yul\":10602:10603   */\n      dup2\n        /* \"#utility.yul\":10599:10612   */\n      lt\n        /* \"#utility.yul\":10591:10704   */\n      iszero\n      tag_368\n      jumpi\n        /* \"#utility.yul\":10690:10691   */\n      dup1\n        /* \"#utility.yul\":10685:10688   */\n      dup3\n        /* \"#utility.yul\":10681:10692   */\n      add\n        /* \"#utility.yul\":10675:10693   */\n      mload\n        /* \"#utility.yul\":10671:10672   */\n      dup2\n        /* \"#utility.yul\":10666:10669   */\n      dup5\n        /* \"#utility.yul\":10662:10673   */\n      add\n        /* \"#utility.yul\":10655:10694   */\n      mstore\n        /* \"#utility.yul\":10627:10629   */\n      0x20\n        /* \"#utility.yul\":10624:10625   */\n      dup2\n        /* \"#utility.yul\":10620:10630   */\n      add\n        /* \"#utility.yul\":10615:10630   */\n      swap1\n      pop\n        /* \"#utility.yul\":10591:10704   */\n      jump(tag_366)\n    tag_368:\n        /* \"#utility.yul\":10722:10728   */\n      dup4\n        /* \"#utility.yul\":10719:10720   */\n      dup2\n        /* \"#utility.yul\":10716:10729   */\n      gt\n        /* \"#utility.yul\":10713:10814   */\n      iszero\n      tag_369\n      jumpi\n        /* \"#utility.yul\":10802:10803   */\n      0x00\n        /* \"#utility.yul\":10793:10799   */\n      dup5\n        /* \"#utility.yul\":10788:10791   */\n      dup5\n        /* \"#utility.yul\":10784:10800   */\n      add\n        /* \"#utility.yul\":10777:10804   */\n      mstore\n        /* \"#utility.yul\":10713:10814   */\n    tag_369:\n        /* \"#utility.yul\":10562:10820   */\n      pop\n        /* \"#utility.yul\":10513:10820   */\n      pop\n      pop\n      pop\n      jump\t// out\n        /* \"#utility.yul\":10826:11199   */\n    tag_258:\n        /* \"#utility.yul\":10930:10933   */\n      0x00\n        /* \"#utility.yul\":10958:10996   */\n      tag_371\n        /* \"#utility.yul\":10990:10995   */\n      dup3\n        /* \"#utility.yul\":10958:10996   */\n      tag_255\n      jump\t// in\n    tag_371:\n        /* \"#utility.yul\":11012:11100   */\n      tag_372\n        /* \"#utility.yul\":11093:11099   */\n      dup2\n        /* \"#utility.yul\":11088:11091   */\n      dup6\n        /* \"#utility.yul\":11012:11100   */\n      tag_256\n      jump\t// in\n    tag_372:\n        /* \"#utility.yul\":11005:11100   */\n      swap4\n      pop\n        /* \"#utility.yul\":11109:11161   */\n      tag_373\n        /* \"#utility.yul\":11154:11160   */\n      dup2\n        /* \"#utility.yul\":11149:11152   */\n      dup6\n        /* \"#utility.yul\":11142:11146   */\n      0x20\n        /* \"#utility.yul\":11135:11140   */\n      dup7\n        /* \"#utility.yul\":11131:11147   */\n      add\n        /* \"#utility.yul\":11109:11161   */\n      tag_257\n      jump\t// in\n    tag_373:\n        /* \"#utility.yul\":11186:11192   */\n      dup1\n        /* \"#utility.yul\":11181:11184   */\n      dup5\n        /* \"#utility.yul\":11177:11193   */\n      add\n        /* \"#utility.yul\":11170:11193   */\n      swap2\n      pop\n        /* \"#utility.yul\":10934:11199   */\n      pop\n        /* \"#utility.yul\":10826:11199   */\n      swap3\n      swap2\n      pop\n      pop\n      jump\t// out\n        /* \"#utility.yul\":11205:11476   */\n    tag_182:\n        /* \"#utility.yul\":11335:11338   */\n      0x00\n        /* \"#utility.yul\":11357:11450   */\n      tag_375\n        /* \"#utility.yul\":11446:11449   */\n      dup3\n        /* \"#utility.yul\":11437:11443   */\n      dup5\n        /* \"#utility.yul\":11357:11450   */\n      tag_258\n      jump\t// in\n    tag_375:\n        /* \"#utility.yul\":11350:11450   */\n      swap2\n      pop\n        /* \"#utility.yul\":11467:11470   */\n      dup2\n        /* \"#utility.yul\":11460:11470   */\n      swap1\n      pop\n        /* \"#utility.yul\":11205:11476   */\n      swap3\n      swap2\n      pop\n      pop\n      jump\t// out\n        /* \"#utility.yul\":11482:11572   */\n    tag_259:\n        /* \"#utility.yul\":11516:11523   */\n      0x00\n        /* \"#utility.yul\":11559:11564   */\n      dup2\n        /* \"#utility.yul\":11552:11565   */\n      iszero\n        /* \"#utility.yul\":11545:11566   */\n      iszero\n        /* \"#utility.yul\":11534:11566   */\n      swap1\n      pop\n        /* \"#utility.yul\":11482:11572   */\n      swap2\n      swap1\n      pop\n      jump\t// out\n        /* \"#utility.yul\":11578:11694   */\n    tag_260:\n        /* \"#utility.yul\":11648:11669   */\n      tag_378\n        /* \"#utility.yul\":11663:11668   */\n      dup2\n        /* \"#utility.yul\":11648:11669   */\n      tag_259\n      jump\t// in\n    tag_378:\n        /* \"#utility.yul\":11641:11646   */\n      dup2\n        /* \"#utility.yul\":11638:11670   */\n      eq\n        /* \"#utility.yul\":11628:11688   */\n      tag_379\n      jumpi\n        /* \"#utility.yul\":11684:11685   */\n      0x00\n        /* \"#utility.yul\":11681:11682   */\n      dup1\n        /* \"#utility.yul\":11674:11686   */\n      revert\n        /* \"#utility.yul\":11628:11688   */\n    tag_379:\n        /* \"#utility.yul\":11578:11694   */\n      pop\n      jump\t// out\n        /* \"#utility.yul\":11700:11837   */\n    tag_261:\n        /* \"#utility.yul\":11754:11759   */\n      0x00\n        /* \"#utility.yul\":11785:11791   */\n      dup2\n        /* \"#utility.yul\":11779:11792   */\n      mload\n        /* \"#utility.yul\":11770:11792   */\n      swap1\n      pop\n        /* \"#utility.yul\":11801:11831   */\n      tag_381\n        /* \"#utility.yul\":11825:11830   */\n      dup2\n        /* \"#utility.yul\":11801:11831   */\n      tag_260\n      jump\t// in\n    tag_381:\n        /* \"#utility.yul\":11700:11837   */\n      swap3\n      swap2\n      pop\n      pop\n      jump\t// out\n        /* \"#utility.yul\":11843:12188   */\n    tag_189:\n        /* \"#utility.yul\":11910:11916   */\n      0x00\n        /* \"#utility.yul\":11959:11961   */\n      0x20\n        /* \"#utility.yul\":11947:11956   */\n      dup3\n        /* \"#utility.yul\":11938:11945   */\n      dup5\n        /* \"#utility.yul\":11934:11957   */\n      sub\n        /* \"#utility.yul\":11930:11962   */\n      slt\n        /* \"#utility.yul\":11927:12046   */\n      iszero\n      tag_383\n      jumpi\n        /* \"#utility.yul\":11965:12044   */\n      tag_384\n      tag_231\n      jump\t// in\n    tag_384:\n        /* \"#utility.yul\":11927:12046   */\n    tag_383:\n        /* \"#utility.yul\":12085:12086   */\n      0x00\n        /* \"#utility.yul\":12110:12171   */\n      tag_385\n        /* \"#utility.yul\":12163:12170   */\n      dup5\n        /* \"#utility.yul\":12154:12160   */\n      dup3\n        /* \"#utility.yul\":12143:12152   */\n      dup6\n        /* \"#utility.yul\":12139:12161   */\n      add\n        /* \"#utility.yul\":12110:12171   */\n      tag_261\n      jump\t// in\n    tag_385:\n        /* \"#utility.yul\":12100:12171   */\n      swap2\n      pop\n        /* \"#utility.yul\":12056:12181   */\n      pop\n        /* \"#utility.yul\":11843:12188   */\n      swap3\n      swap2\n      pop\n      pop\n      jump\t// out\n        /* \"#utility.yul\":12194:12426   */\n    tag_262:\n        /* \"#utility.yul\":12334:12368   */\n      0x5472616e7366657248656c7065723a3a736166655472616e736665723a207472\n        /* \"#utility.yul\":12330:12331   */\n      0x00\n        /* \"#utility.yul\":12322:12328   */\n      dup3\n        /* \"#utility.yul\":12318:12332   */\n      add\n        /* \"#utility.yul\":12311:12369   */\n      mstore\n        /* \"#utility.yul\":12403:12418   */\n      0x616e73666572206661696c656400000000000000000000000000000000000000\n        /* \"#utility.yul\":12398:12400   */\n      0x20\n        /* \"#utility.yul\":12390:12396   */\n      dup3\n        /* \"#utility.yul\":12386:12401   */\n      add\n        /* \"#utility.yul\":12379:12419   */\n      mstore\n        /* \"#utility.yul\":12194:12426   */\n      pop\n      jump\t// out\n        /* \"#utility.yul\":12432:12798   */\n    tag_263:\n        /* \"#utility.yul\":12574:12577   */\n      0x00\n        /* \"#utility.yul\":12595:12662   */\n      tag_388\n        /* \"#utility.yul\":12659:12661   */\n      0x2d\n        /* \"#utility.yul\":12654:12657   */\n      dup4\n        /* \"#utility.yul\":12595:12662   */\n      tag_243\n      jump\t// in\n    tag_388:\n        /* \"#utility.yul\":12588:12662   */\n      swap2\n      pop\n        /* \"#utility.yul\":12671:12764   */\n      tag_389\n        /* \"#utility.yul\":12760:12763   */\n      dup3\n        /* \"#utility.yul\":12671:12764   */\n      tag_262\n      jump\t// in\n    tag_389:\n        /* \"#utility.yul\":12789:12791   */\n      0x40\n        /* \"#utility.yul\":12784:12787   */\n      dup3\n        /* \"#utility.yul\":12780:12792   */\n      add\n        /* \"#utility.yul\":12773:12792   */\n      swap1\n      pop\n        /* \"#utility.yul\":12432:12798   */\n      swap2\n      swap1\n      pop\n      jump\t// out\n        /* \"#utility.yul\":12804:13223   */\n    tag_192:\n        /* \"#utility.yul\":12970:12974   */\n      0x00\n        /* \"#utility.yul\":13008:13010   */\n      0x20\n        /* \"#utility.yul\":12997:13006   */\n      dup3\n        /* \"#utility.yul\":12993:13011   */\n      add\n        /* \"#utility.yul\":12985:13011   */\n      swap1\n      pop\n        /* \"#utility.yul\":13057:13066   */\n      dup2\n        /* \"#utility.yul\":13051:13055   */\n      dup2\n        /* \"#utility.yul\":13047:13067   */\n      sub\n        /* \"#utility.yul\":13043:13044   */\n      0x00\n        /* \"#utility.yul\":13032:13041   */\n      dup4\n        /* \"#utility.yul\":13028:13045   */\n      add\n        /* \"#utility.yul\":13021:13068   */\n      mstore\n        /* \"#utility.yul\":13085:13216   */\n      tag_391\n        /* \"#utility.yul\":13211:13215   */\n      dup2\n        /* \"#utility.yul\":13085:13216   */\n      tag_263\n      jump\t// in\n    tag_391:\n        /* \"#utility.yul\":13077:13216   */\n      swap1\n      pop\n        /* \"#utility.yul\":12804:13223   */\n      swap2\n      swap1\n      pop\n      jump\t// out\n        /* \"#utility.yul\":13229:13459   */\n    tag_264:\n        /* \"#utility.yul\":13369:13403   */\n      0x5472616e7366657248656c7065723a3a73616665417070726f76653a20617070\n        /* \"#utility.yul\":13365:13366   */\n      0x00\n        /* \"#utility.yul\":13357:13363   */\n      dup3\n        /* \"#utility.yul\":13353:13367   */\n      add\n        /* \"#utility.yul\":13346:13404   */\n      mstore\n        /* \"#utility.yul\":13438:13451   */\n      0x726f7665206661696c6564000000000000000000000000000000000000000000\n        /* \"#utility.yul\":13433:13435   */\n      0x20\n        /* \"#utility.yul\":13425:13431   */\n      dup3\n        /* \"#utility.yul\":13421:13436   */\n      add\n        /* \"#utility.yul\":13414:13452   */\n      mstore\n        /* \"#utility.yul\":13229:13459   */\n      pop\n      jump\t// out\n        /* \"#utility.yul\":13465:13831   */\n    tag_265:\n        /* \"#utility.yul\":13607:13610   */\n      0x00\n        /* \"#utility.yul\":13628:13695   */\n      tag_394\n        /* \"#utility.yul\":13692:13694   */\n      0x2b\n        /* \"#utility.yul\":13687:13690   */\n      dup4\n        /* \"#utility.yul\":13628:13695   */\n      tag_243\n      jump\t// in\n    tag_394:\n        /* \"#utility.yul\":13621:13695   */\n      swap2\n      pop\n        /* \"#utility.yul\":13704:13797   */\n      tag_395\n        /* \"#utility.yul\":13793:13796   */\n      dup3\n        /* \"#utility.yul\":13704:13797   */\n      tag_264\n      jump\t// in\n    tag_395:\n        /* \"#utility.yul\":13822:13824   */\n      0x40\n        /* \"#utility.yul\":13817:13820   */\n      dup3\n        /* \"#utility.yul\":13813:13825   */\n      add\n        /* \"#utility.yul\":13806:13825   */\n      swap1\n      pop\n        /* \"#utility.yul\":13465:13831   */\n      swap2\n      swap1\n      pop\n      jump\t// out\n        /* \"#utility.yul\":13837:14256   */\n    tag_204:\n        /* \"#utility.yul\":14003:14007   */\n      0x00\n        /* \"#utility.yul\":14041:14043   */\n      0x20\n        /* \"#utility.yul\":14030:14039   */\n      dup3\n        /* \"#utility.yul\":14026:14044   */\n      add\n        /* \"#utility.yul\":14018:14044   */\n      swap1\n      pop\n        /* \"#utility.yul\":14090:14099   */\n      dup2\n        /* \"#utility.yul\":14084:14088   */\n      dup2\n        /* \"#utility.yul\":14080:14100   */\n      sub\n        /* \"#utility.yul\":14076:14077   */\n      0x00\n        /* \"#utility.yul\":14065:14074   */\n      dup4\n        /* \"#utility.yul\":14061:14078   */\n      add\n        /* \"#utility.yul\":14054:14101   */\n      mstore\n        /* \"#utility.yul\":14118:14249   */\n      tag_397\n        /* \"#utility.yul\":14244:14248   */\n      dup2\n        /* \"#utility.yul\":14118:14249   */\n      tag_265\n      jump\t// in\n    tag_397:\n        /* \"#utility.yul\":14110:14249   */\n      swap1\n      pop\n        /* \"#utility.yul\":13837:14256   */\n      swap2\n      swap1\n      pop\n      jump\t// out\n        /* \"#utility.yul\":14262:14704   */\n    tag_207:\n        /* \"#utility.yul\":14411:14415   */\n      0x00\n        /* \"#utility.yul\":14449:14451   */\n      0x60\n        /* \"#utility.yul\":14438:14447   */\n      dup3\n        /* \"#utility.yul\":14434:14452   */\n      add\n        /* \"#utility.yul\":14426:14452   */\n      swap1\n      pop\n        /* \"#utility.yul\":14462:14533   */\n      tag_399\n        /* \"#utility.yul\":14530:14531   */\n      0x00\n        /* \"#utility.yul\":14519:14528   */\n      dup4\n        /* \"#utility.yul\":14515:14532   */\n      add\n        /* \"#utility.yul\":14506:14512   */\n      dup7\n        /* \"#utility.yul\":14462:14533   */\n      tag_237\n      jump\t// in\n    tag_399:\n        /* \"#utility.yul\":14543:14615   */\n      tag_400\n        /* \"#utility.yul\":14611:14613   */\n      0x20\n        /* \"#utility.yul\":14600:14609   */\n      dup4\n        /* \"#utility.yul\":14596:14614   */\n      add\n        /* \"#utility.yul\":14587:14593   */\n      dup6\n        /* \"#utility.yul\":14543:14615   */\n      tag_237\n      jump\t// in\n    tag_400:\n        /* \"#utility.yul\":14625:14697   */\n      tag_401\n        /* \"#utility.yul\":14693:14695   */\n      0x40\n        /* \"#utility.yul\":14682:14691   */\n      dup4\n        /* \"#utility.yul\":14678:14696   */\n      add\n        /* \"#utility.yul\":14669:14675   */\n      dup5\n        /* \"#utility.yul\":14625:14697   */\n      tag_241\n      jump\t// in\n    tag_401:\n        /* \"#utility.yul\":14262:14704   */\n      swap5\n      swap4\n      pop\n      pop\n      pop\n      pop\n      jump\t// out\n        /* \"#utility.yul\":14710:14946   */\n    tag_266:\n        /* \"#utility.yul\":14850:14884   */\n      0x5472616e7366657248656c7065723a3a7472616e7366657246726f6d3a207472\n        /* \"#utility.yul\":14846:14847   */\n      0x00\n        /* \"#utility.yul\":14838:14844   */\n      dup3\n        /* \"#utility.yul\":14834:14848   */\n      add\n        /* \"#utility.yul\":14827:14885   */\n      mstore\n        /* \"#utility.yul\":14919:14938   */\n      0x616e7366657246726f6d206661696c6564000000000000000000000000000000\n        /* \"#utility.yul\":14914:14916   */\n      0x20\n        /* \"#utility.yul\":14906:14912   */\n      dup3\n        /* \"#utility.yul\":14902:14917   */\n      add\n        /* \"#utility.yul\":14895:14939   */\n      mstore\n        /* \"#utility.yul\":14710:14946   */\n      pop\n      jump\t// out\n        /* \"#utility.yul\":14952:15318   */\n    tag_267:\n        /* \"#utility.yul\":15094:15097   */\n      0x00\n        /* \"#utility.yul\":15115:15182   */\n      tag_404\n        /* \"#utility.yul\":15179:15181   */\n      0x31\n        /* \"#utility.yul\":15174:15177   */\n      dup4\n        /* \"#utility.yul\":15115:15182   */\n      tag_243\n      jump\t// in\n    tag_404:\n        /* \"#utility.yul\":15108:15182   */\n      swap2\n      pop\n        /* \"#utility.yul\":15191:15284   */\n      tag_405\n        /* \"#utility.yul\":15280:15283   */\n      dup3\n        /* \"#utility.yul\":15191:15284   */\n      tag_266\n      jump\t// in\n    tag_405:\n        /* \"#utility.yul\":15309:15311   */\n      0x40\n        /* \"#utility.yul\":15304:15307   */\n      dup3\n        /* \"#utility.yul\":15300:15312   */\n      add\n        /* \"#utility.yul\":15293:15312   */\n      swap1\n      pop\n        /* \"#utility.yul\":14952:15318   */\n      swap2\n      swap1\n      pop\n      jump\t// out\n        /* \"#utility.yul\":15324:15743   */\n    tag_217:\n        /* \"#utility.yul\":15490:15494   */\n      0x00\n        /* \"#utility.yul\":15528:15530   */\n      0x20\n        /* \"#utility.yul\":15517:15526   */\n      dup3\n        /* \"#utility.yul\":15513:15531   */\n      add\n        /* \"#utility.yul\":15505:15531   */\n      swap1\n      pop\n        /* \"#utility.yul\":15577:15586   */\n      dup2\n        /* \"#utility.yul\":15571:15575   */\n      dup2\n        /* \"#utility.yul\":15567:15587   */\n      sub\n        /* \"#utility.yul\":15563:15564   */\n      0x00\n        /* \"#utility.yul\":15552:15561   */\n      dup4\n        /* \"#utility.yul\":15548:15565   */\n      add\n        /* \"#utility.yul\":15541:15588   */\n      mstore\n        /* \"#utility.yul\":15605:15736   */\n      tag_407\n        /* \"#utility.yul\":15731:15735   */\n      dup2\n        /* \"#utility.yul\":15605:15736   */\n      tag_267\n      jump\t// in\n    tag_407:\n        /* \"#utility.yul\":15597:15736   */\n      swap1\n      pop\n        /* \"#utility.yul\":15324:15743   */\n      swap2\n      swap1\n      pop\n      jump\t// out\n        /* \"#utility.yul\":15749:15929   */\n    tag_221:\n        /* \"#utility.yul\":15797:15874   */\n      0x4e487b7100000000000000000000000000000000000000000000000000000000\n        /* \"#utility.yul\":15794:15795   */\n      0x00\n        /* \"#utility.yul\":15787:15875   */\n      mstore\n        /* \"#utility.yul\":15894:15898   */\n      0x41\n        /* \"#utility.yul\":15891:15892   */\n      0x04\n        /* \"#utility.yul\":15884:15899   */\n      mstore\n        /* \"#utility.yul\":15918:15922   */\n      0x24\n        /* \"#utility.yul\":15915:15916   */\n      0x00\n        /* \"#utility.yul\":15908:15923   */\n      revert\n        /* \"#utility.yul\":15935:16174   */\n    tag_268:\n        /* \"#utility.yul\":16075:16109   */\n      0x5472616e7366657248656c7065723a3a736166655472616e736665724554483a\n        /* \"#utility.yul\":16071:16072   */\n      0x00\n        /* \"#utility.yul\":16063:16069   */\n      dup3\n        /* \"#utility.yul\":16059:16073   */\n      add\n        /* \"#utility.yul\":16052:16110   */\n      mstore\n        /* \"#utility.yul\":16144:16166   */\n      0x20455448207472616e73666572206661696c6564000000000000000000000000\n        /* \"#utility.yul\":16139:16141   */\n      0x20\n        /* \"#utility.yul\":16131:16137   */\n      dup3\n        /* \"#utility.yul\":16127:16142   */\n      add\n        /* \"#utility.yul\":16120:16167   */\n      mstore\n        /* \"#utility.yul\":15935:16174   */\n      pop\n      jump\t// out\n        /* \"#utility.yul\":16180:16546   */\n    tag_269:\n        /* \"#utility.yul\":16322:16325   */\n      0x00\n        /* \"#utility.yul\":16343:16410   */\n      tag_411\n        /* \"#utility.yul\":16407:16409   */\n      0x34\n        /* \"#utility.yul\":16402:16405   */\n      dup4\n        /* \"#utility.yul\":16343:16410   */\n      tag_243\n      jump\t// in\n    tag_411:\n        /* \"#utility.yul\":16336:16410   */\n      swap2\n      pop\n        /* \"#utility.yul\":16419:16512   */\n      tag_412\n        /* \"#utility.yul\":16508:16511   */\n      dup3\n        /* \"#utility.yul\":16419:16512   */\n      tag_268\n      jump\t// in\n    tag_412:\n        /* \"#utility.yul\":16537:16539   */\n      0x40\n        /* \"#utility.yul\":16532:16535   */\n      dup3\n        /* \"#utility.yul\":16528:16540   */\n      add\n        /* \"#utility.yul\":16521:16540   */\n      swap1\n      pop\n        /* \"#utility.yul\":16180:16546   */\n      swap2\n      swap1\n      pop\n      jump\t// out\n        /* \"#utility.yul\":16552:16971   */\n    tag_229:\n        /* \"#utility.yul\":16718:16722   */\n      0x00\n        /* \"#utility.yul\":16756:16758   */\n      0x20\n        /* \"#utility.yul\":16745:16754   */\n      dup3\n        /* \"#utility.yul\":16741:16759   */\n      add\n        /* \"#utility.yul\":16733:16759   */\n      swap1\n      pop\n        /* \"#utility.yul\":16805:16814   */\n      dup2\n        /* \"#utility.yul\":16799:16803   */\n      dup2\n        /* \"#utility.yul\":16795:16815   */\n      sub\n        /* \"#utility.yul\":16791:16792   */\n      0x00\n        /* \"#utility.yul\":16780:16789   */\n      dup4\n        /* \"#utility.yul\":16776:16793   */\n      add\n        /* \"#utility.yul\":16769:16816   */\n      mstore\n        /* \"#utility.yul\":16833:16964   */\n      tag_414\n        /* \"#utility.yul\":16959:16963   */\n      dup2\n        /* \"#utility.yul\":16833:16964   */\n      tag_269\n      jump\t// in\n    tag_414:\n        /* \"#utility.yul\":16825:16964   */\n      swap1\n      pop\n        /* \"#utility.yul\":16552:16971   */\n      swap2\n      swap1\n      pop\n      jump\t// out\n\n    auxdata: 0xa26469706673582212200f13274756ce2f653c7b89ef8f256175484d1ed9eb6df255de94051f39848cca64736f6c634300080e0033\n}\n",
				"bytecode": {
					"linkReferences": {},
					"object": "60e06040523480156200001157600080fd5b5060405162001c8138038062001c81833981810160405281019062000037919062000146565b8273ffffffffffffffffffffffffffffffffffffffff1660808173ffffffffffffffffffffffffffffffffffffffff16815250508173ffffffffffffffffffffffffffffffffffffffff1660a08173ffffffffffffffffffffffffffffffffffffffff16815250508073ffffffffffffffffffffffffffffffffffffffff1660c08173ffffffffffffffffffffffffffffffffffffffff1681525050505050620001a2565b600080fd5b600073ffffffffffffffffffffffffffffffffffffffff82169050919050565b60006200010e82620000e1565b9050919050565b620001208162000101565b81146200012c57600080fd5b50565b600081519050620001408162000115565b92915050565b600080600060608486031215620001625762000161620000dc565b5b600062000172868287016200012f565b935050602062000185868287016200012f565b925050604062000198868287016200012f565b9150509250925092565b60805160a05160c051611a69620002186000396000818161064901526106aa01526000818161043e015281816104c2015281816104ed01528181610996015281816109c1015281816109eb01528181610a140152610cfe01526000818161035b0152818161066d01526108700152611a696000f3fe6080604052600436106100dd5760003560e01c8063df2a26e91161007f578063f379dfd011610059578063f379dfd014610289578063f3fef3a3146102c6578063f8b2cb4f146102ef578063fd08c30c1461032c576100dd565b8063df2a26e91461020c578063ef4361b714610249578063f14210a614610260576100dd565b80636845478f116100bb5780636845478f146101645780639049f9d21461018f578063adc9772e146101b8578063c45a0155146101e1576100dd565b80631228cbee146100e2578063381fd7a31461011f5780636447c5a21461013b575b600080fd5b3480156100ee57600080fd5b5061010960048036038101906101049190611228565b610357565b6040516101169190611264565b60405180910390f35b610139600480360381019061013491906112b5565b6103fa565b005b34801561014757600080fd5b50610162600480360381019061015d9190611228565b610515565b005b34801561017057600080fd5b50610179610647565b6040516101869190611264565b60405180910390f35b34801561019b57600080fd5b506101b660048036038101906101b19190611228565b61066b565b005b3480156101c457600080fd5b506101df60048036038101906101da91906112e2565b61072d565b005b3480156101ed57600080fd5b506101f661086e565b6040516102039190611264565b60405180910390f35b34801561021857600080fd5b50610233600480360381019061022e9190611322565b610892565b6040516102409190611371565b60405180910390f35b34801561025557600080fd5b5061025e610991565b005b34801561026c57600080fd5b50610287600480360381019061028291906112b5565b6109bc565b005b34801561029557600080fd5b506102b060048036038101906102ab9190611322565b610aaa565b6040516102bd9190611371565b60405180910390f35b3480156102d257600080fd5b506102ed60048036038101906102e891906112e2565b610b3b565b005b3480156102fb57600080fd5b5061031660048036038101906103119190611228565b610c79565b6040516103239190611371565b60405180910390f35b34801561033857600080fd5b50610341610cfc565b60405161034e9190611264565b60405180910390f35b60007f000000000000000000000000000000000000000000000000000000000000000073ffffffffffffffffffffffffffffffffffffffff1663bbe4f6db836040518263ffffffff1660e01b81526004016103b29190611264565b602060405180830381865afa1580156103cf573d6000803e3d6000fd5b505050506040513d601f19601f820116820180604052508101906103f391906113a1565b9050919050565b80341461043c576040517f08c379a00000000000000000000000000000000000000000000000000000000081526004016104339061142b565b60405180910390fd5b7f000000000000000000000000000000000000000000000000000000000000000073ffffffffffffffffffffffffffffffffffffffff1663d0e30db0346040518263ffffffff1660e01b81526004016000604051808303818588803b1580156104a457600080fd5b505af11580156104b8573d6000803e3d6000fd5b50505050506104e87f00000000000000000000000000000000000000000000000000000000000000003383610d20565b6105127f00000000000000000000000000000000000000000000000000000000000000008261072d565b50565b600061052082610357565b9050600073ffffffffffffffffffffffffffffffffffffffff168173ffffffffffffffffffffffffffffffffffffffff1603610591576040517f08c379a000000000000000000000000000000000000000000000000000000000815260040161058890611497565b60405180910390fd5b600061059d8333610892565b9050600081116105e2576040517f08c379a00000000000000000000000000000000000000000000000000000000081526004016105d990611503565b60405180910390fd5b8173ffffffffffffffffffffffffffffffffffffffff1663d52762466040518163ffffffff1660e01b8152600401600060405180830381600087803b15801561062a57600080fd5b505af115801561063e573d6000803e3d6000fd5b50505050505050565b7f000000000000000000000000000000000000000000000000000000000000000081565b7f000000000000000000000000000000000000000000000000000000000000000073ffffffffffffffffffffffffffffffffffffffff1663e3433615827f00000000000000000000000000000000000000000000000000000000000000006040518363ffffffff1660e01b81526004016106e6929190611523565b6020604051808303816000875af1158015610705573d6000803e3d6000fd5b505050506040513d601f19601f8201168201806040525081019061072991906113a1565b5050565b600061073883610357565b9050600073ffffffffffffffffffffffffffffffffffffffff168173ffffffffffffffffffffffffffffffffffffffff16146107e957610779838284610e56565b8073ffffffffffffffffffffffffffffffffffffffff1663a694fc3a836040518263ffffffff1660e01b81526004016107b29190611371565b600060405180830381600087803b1580156107cc57600080fd5b505af11580156107e0573d6000803e3d6000fd5b50505050610869565b6107f28361066b565b6107fd838284610e56565b8073ffffffffffffffffffffffffffffffffffffffff1663a694fc3a836040518263ffffffff1660e01b81526004016108369190611371565b600060405180830381600087803b15801561085057600080fd5b505af1158015610864573d6000803e3d6000fd5b505050505b505050565b7f000000000000000000000000000000000000000000000000000000000000000081565b60008061089e84610357565b9050600073ffffffffffffffffffffffffffffffffffffffff168173ffffffffffffffffffffffffffffffffffffffff160361090f576040517f08c379a000000000000000000000000000000000000000000000000000000000815260040161090690611598565b60405180910390fd5b8073ffffffffffffffffffffffffffffffffffffffff16628cc262846040518263ffffffff1660e01b81526004016109479190611264565b602060405180830381865afa158015610964573d6000803e3d6000fd5b505050506040513d601f19601f8201168201806040525081019061098891906115cd565b91505092915050565b6109ba7f0000000000000000000000000000000000000000000000000000000000000000610515565b565b6109e67f000000000000000000000000000000000000000000000000000000000000000082610b3b565b610a127f0000000000000000000000000000000000000000000000000000000000000000333084610f8c565b7f000000000000000000000000000000000000000000000000000000000000000073ffffffffffffffffffffffffffffffffffffffff16632e1a7d4d826040518263ffffffff1660e01b8152600401610a6b9190611371565b600060405180830381600087803b158015610a8557600080fd5b505af1158015610a99573d6000803e3d6000fd5b50505050610aa733826110c5565b50565b600080610ab683610357565b90508073ffffffffffffffffffffffffffffffffffffffff166398807d84856040518263ffffffff1660e01b8152600401610af19190611264565b602060405180830381865afa158015610b0e573d6000803e3d6000fd5b505050506040513d601f19601f82011682018060405250810190610b3291906115cd565b91505092915050565b6000610b4683610357565b9050600073ffffffffffffffffffffffffffffffffffffffff168173ffffffffffffffffffffffffffffffffffffffff1603610bb7576040517f08c379a0000000000000000000000000000000000000000000000000000000008152600401610bae90611497565b60405180910390fd5b6000610bc33385610aaa565b905082811015610c08576040517f08c379a0000000000000000000000000000000000000000000000000000000008152600401610bff90611646565b60405180910390fd5b8173ffffffffffffffffffffffffffffffffffffffff16632e1a7d4d846040518263ffffffff1660e01b8152600401610c419190611371565b600060405180830381600087803b158015610c5b57600080fd5b505af1158015610c6f573d6000803e3d6000fd5b5050505050505050565b60008173ffffffffffffffffffffffffffffffffffffffff166370a08231336040518263ffffffff1660e01b8152600401610cb49190611264565b602060405180830381865afa158015610cd1573d6000803e3d6000fd5b505050506040513d601f19601f82011682018060405250810190610cf591906115cd565b9050919050565b7f000000000000000000000000000000000000000000000000000000000000000081565b6000808473ffffffffffffffffffffffffffffffffffffffff1663a9059cbb8585604051602401610d52929190611666565b6040516020818303038152906040529060e01b6020820180517bffffffffffffffffffffffffffffffffffffffffffffffffffffffff8381831617835250505050604051610da09190611709565b6000604051808303816000865af19150503d8060008114610ddd576040519150601f19603f3d011682016040523d82523d6000602084013e610de2565b606091505b5091509150818015610e105750600081511480610e0f575080806020019051810190610e0e9190611758565b5b5b610e4f576040517f08c379a0000000000000000000000000000000000000000000000000000000008152600401610e46906117f7565b60405180910390fd5b5050505050565b6000808473ffffffffffffffffffffffffffffffffffffffff1663095ea7b38585604051602401610e88929190611666565b6040516020818303038152906040529060e01b6020820180517bffffffffffffffffffffffffffffffffffffffffffffffffffffffff8381831617835250505050604051610ed69190611709565b6000604051808303816000865af19150503d8060008114610f13576040519150601f19603f3d011682016040523d82523d6000602084013e610f18565b606091505b5091509150818015610f465750600081511480610f45575080806020019051810190610f449190611758565b5b5b610f85576040517f08c379a0000000000000000000000000000000000000000000000000000000008152600401610f7c90611889565b60405180910390fd5b5050505050565b6000808573ffffffffffffffffffffffffffffffffffffffff166323b872dd868686604051602401610fc0939291906118a9565b6040516020818303038152906040529060e01b6020820180517bffffffffffffffffffffffffffffffffffffffffffffffffffffffff838183161783525050505060405161100e9190611709565b6000604051808303816000865af19150503d806000811461104b576040519150601f19603f3d011682016040523d82523d6000602084013e611050565b606091505b509150915081801561107e575060008151148061107d57508080602001905181019061107c9190611758565b5b5b6110bd576040517f08c379a00000000000000000000000000000000000000000000000000000000081526004016110b490611952565b60405180910390fd5b505050505050565b60008273ffffffffffffffffffffffffffffffffffffffff1682600067ffffffffffffffff8111156110fa576110f9611972565b5b6040519080825280601f01601f19166020018201604052801561112c5781602001600182028036833780820191505090505b5060405161113a9190611709565b60006040518083038185875af1925050503d8060008114611177576040519150601f19603f3d011682016040523d82523d6000602084013e61117c565b606091505b50509050806111c0576040517f08c379a00000000000000000000000000000000000000000000000000000000081526004016111b790611a13565b60405180910390fd5b505050565b600080fd5b600073ffffffffffffffffffffffffffffffffffffffff82169050919050565b60006111f5826111ca565b9050919050565b611205816111ea565b811461121057600080fd5b50565b600081359050611222816111fc565b92915050565b60006020828403121561123e5761123d6111c5565b5b600061124c84828501611213565b91505092915050565b61125e816111ea565b82525050565b60006020820190506112796000830184611255565b92915050565b6000819050919050565b6112928161127f565b811461129d57600080fd5b50565b6000813590506112af81611289565b92915050565b6000602082840312156112cb576112ca6111c5565b5b60006112d9848285016112a0565b91505092915050565b600080604083850312156112f9576112f86111c5565b5b600061130785828601611213565b9250506020611318858286016112a0565b9150509250929050565b60008060408385031215611339576113386111c5565b5b600061134785828601611213565b925050602061135885828601611213565b9150509250929050565b61136b8161127f565b82525050565b60006020820190506113866000830184611362565b92915050565b60008151905061139b816111fc565b92915050565b6000602082840312156113b7576113b66111c5565b5b60006113c58482850161138c565b91505092915050565b600082825260208201905092915050565b7f496e636f727265637420416d6f756e742073656e740000000000000000000000600082015250565b60006114156015836113ce565b9150611420826113df565b602082019050919050565b6000602082019050818103600083015261144481611408565b9050919050565b7f506f6f6c20446f204e6f74204578697374730000000000000000000000000000600082015250565b60006114816012836113ce565b915061148c8261144b565b602082019050919050565b600060208201905081810360008301526114b081611474565b9050919050565b7f4e6f207265776172647320466f756e6400000000000000000000000000000000600082015250565b60006114ed6010836113ce565b91506114f8826114b7565b602082019050919050565b6000602082019050818103600083015261151c816114e0565b9050919050565b60006040820190506115386000830185611255565b6115456020830184611255565b9392505050565b7f506f6f6c20646f6e277420457869737473000000000000000000000000000000600082015250565b60006115826011836113ce565b915061158d8261154c565b602082019050919050565b600060208201905081810360008301526115b181611575565b9050919050565b6000815190506115c781611289565b92915050565b6000602082840312156115e3576115e26111c5565b5b60006115f1848285016115b8565b91505092915050565b7f496e636f72726563742042616c616e636520656e746572656400000000000000600082015250565b60006116306019836113ce565b915061163b826115fa565b602082019050919050565b6000602082019050818103600083015261165f81611623565b9050919050565b600060408201905061167b6000830185611255565b6116886020830184611362565b9392505050565b600081519050919050565b600081905092915050565b60005b838110156116c35780820151818401526020810190506116a8565b838111156116d2576000848401525b50505050565b60006116e38261168f565b6116ed818561169a565b93506116fd8185602086016116a5565b80840191505092915050565b600061171582846116d8565b915081905092915050565b60008115159050919050565b61173581611720565b811461174057600080fd5b50565b6000815190506117528161172c565b92915050565b60006020828403121561176e5761176d6111c5565b5b600061177c84828501611743565b91505092915050565b7f5472616e7366657248656c7065723a3a736166655472616e736665723a20747260008201527f616e73666572206661696c656400000000000000000000000000000000000000602082015250565b60006117e1602d836113ce565b91506117ec82611785565b604082019050919050565b60006020820190508181036000830152611810816117d4565b9050919050565b7f5472616e7366657248656c7065723a3a73616665417070726f76653a2061707060008201527f726f7665206661696c6564000000000000000000000000000000000000000000602082015250565b6000611873602b836113ce565b915061187e82611817565b604082019050919050565b600060208201905081810360008301526118a281611866565b9050919050565b60006060820190506118be6000830186611255565b6118cb6020830185611255565b6118d86040830184611362565b949350505050565b7f5472616e7366657248656c7065723a3a7472616e7366657246726f6d3a20747260008201527f616e7366657246726f6d206661696c6564000000000000000000000000000000602082015250565b600061193c6031836113ce565b9150611947826118e0565b604082019050919050565b6000602082019050818103600083015261196b8161192f565b9050919050565b7f4e487b7100000000000000000000000000000000000000000000000000000000600052604160045260246000fd5b7f5472616e7366657248656c7065723a3a736166655472616e736665724554483a60008201527f20455448207472616e73666572206661696c6564000000000000000000000000602082015250565b60006119fd6034836113ce565b9150611a08826119a1565b604082019050919050565b60006020820190508181036000830152611a2c816119f0565b905091905056fea26469706673582212200f13274756ce2f653c7b89ef8f256175484d1ed9eb6df255de94051f39848cca64736f6c634300080e0033",
					"opcodes": "PUSH1 0xE0 PUSH1 0x40 MSTORE CALLVALUE DUP1 ISZERO PUSH3 0x11 JUMPI PUSH1 0x0 DUP1 REVERT JUMPDEST POP PUSH1 0x40 MLOAD PUSH3 0x1C81 CODESIZE SUB DUP1 PUSH3 0x1C81 DUP4 CODECOPY DUP2 DUP2 ADD PUSH1 0x40 MSTORE DUP2 ADD SWAP1 PUSH3 0x37 SWAP2 SWAP1 PUSH3 0x146 JUMP JUMPDEST DUP3 PUSH20 0xFFFFFFFFFFFFFFFFFFFFFFFFFFFFFFFFFFFFFFFF AND PUSH1 0x80 DUP2 PUSH20 0xFFFFFFFFFFFFFFFFFFFFFFFFFFFFFFFFFFFFFFFF AND DUP2 MSTORE POP POP DUP2 PUSH20 0xFFFFFFFFFFFFFFFFFFFFFFFFFFFFFFFFFFFFFFFF AND PUSH1 0xA0 DUP2 PUSH20 0xFFFFFFFFFFFFFFFFFFFFFFFFFFFFFFFFFFFFFFFF AND DUP2 MSTORE POP POP DUP1 PUSH20 0xFFFFFFFFFFFFFFFFFFFFFFFFFFFFFFFFFFFFFFFF AND PUSH1 0xC0 DUP2 PUSH20 0xFFFFFFFFFFFFFFFFFFFFFFFFFFFFFFFFFFFFFFFF AND DUP2 MSTORE POP POP POP POP POP PUSH3 0x1A2 JUMP JUMPDEST PUSH1 0x0 DUP1 REVERT JUMPDEST PUSH1 0x0 PUSH20 0xFFFFFFFFFFFFFFFFFFFFFFFFFFFFFFFFFFFFFFFF DUP3 AND SWAP1 POP SWAP2 SWAP1 POP JUMP JUMPDEST PUSH1 0x0 PUSH3 0x10E DUP3 PUSH3 0xE1 JUMP JUMPDEST SWAP1 POP SWAP2 SWAP1 POP JUMP JUMPDEST PUSH3 0x120 DUP2 PUSH3 0x101 JUMP JUMPDEST DUP2 EQ PUSH3 0x12C JUMPI PUSH1 0x0 DUP1 REVERT JUMPDEST POP JUMP JUMPDEST PUSH1 0x0 DUP2 MLOAD SWAP1 POP PUSH3 0x140 DUP2 PUSH3 0x115 JUMP JUMPDEST SWAP3 SWAP2 POP POP JUMP JUMPDEST PUSH1 0x0 DUP1 PUSH1 0x0 PUSH1 0x60 DUP5 DUP7 SUB SLT ISZERO PUSH3 0x162 JUMPI PUSH3 0x161 PUSH3 0xDC JUMP JUMPDEST JUMPDEST PUSH1 0x0 PUSH3 0x172 DUP7 DUP3 DUP8 ADD PUSH3 0x12F JUMP JUMPDEST SWAP4 POP POP PUSH1 0x20 PUSH3 0x185 DUP7 DUP3 DUP8 ADD PUSH3 0x12F JUMP JUMPDEST SWAP3 POP POP PUSH1 0x40 PUSH3 0x198 DUP7 DUP3 DUP8 ADD PUSH3 0x12F JUMP JUMPDEST SWAP2 POP POP SWAP3 POP SWAP3 POP SWAP3 JUMP JUMPDEST PUSH1 0x80 MLOAD PUSH1 0xA0 MLOAD PUSH1 0xC0 MLOAD PUSH2 0x1A69 PUSH3 0x218 PUSH1 0x0 CODECOPY PUSH1 0x0 DUP2 DUP2 PUSH2 0x649 ADD MSTORE PUSH2 0x6AA ADD MSTORE PUSH1 0x0 DUP2 DUP2 PUSH2 0x43E ADD MSTORE DUP2 DUP2 PUSH2 0x4C2 ADD MSTORE DUP2 DUP2 PUSH2 0x4ED ADD MSTORE DUP2 DUP2 PUSH2 0x996 ADD MSTORE DUP2 DUP2 PUSH2 0x9C1 ADD MSTORE DUP2 DUP2 PUSH2 0x9EB ADD MSTORE DUP2 DUP2 PUSH2 0xA14 ADD MSTORE PUSH2 0xCFE ADD MSTORE PUSH1 0x0 DUP2 DUP2 PUSH2 0x35B ADD MSTORE DUP2 DUP2 PUSH2 0x66D ADD MSTORE PUSH2 0x870 ADD MSTORE PUSH2 0x1A69 PUSH1 0x0 RETURN INVALID PUSH1 0x80 PUSH1 0x40 MSTORE PUSH1 0x4 CALLDATASIZE LT PUSH2 0xDD JUMPI PUSH1 0x0 CALLDATALOAD PUSH1 0xE0 SHR DUP1 PUSH4 0xDF2A26E9 GT PUSH2 0x7F JUMPI DUP1 PUSH4 0xF379DFD0 GT PUSH2 0x59 JUMPI DUP1 PUSH4 0xF379DFD0 EQ PUSH2 0x289 JUMPI DUP1 PUSH4 0xF3FEF3A3 EQ PUSH2 0x2C6 JUMPI DUP1 PUSH4 0xF8B2CB4F EQ PUSH2 0x2EF JUMPI DUP1 PUSH4 0xFD08C30C EQ PUSH2 0x32C JUMPI PUSH2 0xDD JUMP JUMPDEST DUP1 PUSH4 0xDF2A26E9 EQ PUSH2 0x20C JUMPI DUP1 PUSH4 0xEF4361B7 EQ PUSH2 0x249 JUMPI DUP1 PUSH4 0xF14210A6 EQ PUSH2 0x260 JUMPI PUSH2 0xDD JUMP JUMPDEST DUP1 PUSH4 0x6845478F GT PUSH2 0xBB JUMPI DUP1 PUSH4 0x6845478F EQ PUSH2 0x164 JUMPI DUP1 PUSH4 0x9049F9D2 EQ PUSH2 0x18F JUMPI DUP1 PUSH4 0xADC9772E EQ PUSH2 0x1B8 JUMPI DUP1 PUSH4 0xC45A0155 EQ PUSH2 0x1E1 JUMPI PUSH2 0xDD JUMP JUMPDEST DUP1 PUSH4 0x1228CBEE EQ PUSH2 0xE2 JUMPI DUP1 PUSH4 0x381FD7A3 EQ PUSH2 0x11F JUMPI DUP1 PUSH4 0x6447C5A2 EQ PUSH2 0x13B JUMPI JUMPDEST PUSH1 0x0 DUP1 REVERT JUMPDEST CALLVALUE DUP1 ISZERO PUSH2 0xEE JUMPI PUSH1 0x0 DUP1 REVERT JUMPDEST POP PUSH2 0x109 PUSH1 0x4 DUP1 CALLDATASIZE SUB DUP2 ADD SWAP1 PUSH2 0x104 SWAP2 SWAP1 PUSH2 0x1228 JUMP JUMPDEST PUSH2 0x357 JUMP JUMPDEST PUSH1 0x40 MLOAD PUSH2 0x116 SWAP2 SWAP1 PUSH2 0x1264 JUMP JUMPDEST PUSH1 0x40 MLOAD DUP1 SWAP2 SUB SWAP1 RETURN JUMPDEST PUSH2 0x139 PUSH1 0x4 DUP1 CALLDATASIZE SUB DUP2 ADD SWAP1 PUSH2 0x134 SWAP2 SWAP1 PUSH2 0x12B5 JUMP JUMPDEST PUSH2 0x3FA JUMP JUMPDEST STOP JUMPDEST CALLVALUE DUP1 ISZERO PUSH2 0x147 JUMPI PUSH1 0x0 DUP1 REVERT JUMPDEST POP PUSH2 0x162 PUSH1 0x4 DUP1 CALLDATASIZE SUB DUP2 ADD SWAP1 PUSH2 0x15D SWAP2 SWAP1 PUSH2 0x1228 JUMP JUMPDEST PUSH2 0x515 JUMP JUMPDEST STOP JUMPDEST CALLVALUE DUP1 ISZERO PUSH2 0x170 JUMPI PUSH1 0x0 DUP1 REVERT JUMPDEST POP PUSH2 0x179 PUSH2 0x647 JUMP JUMPDEST PUSH1 0x40 MLOAD PUSH2 0x186 SWAP2 SWAP1 PUSH2 0x1264 JUMP JUMPDEST PUSH1 0x40 MLOAD DUP1 SWAP2 SUB SWAP1 RETURN JUMPDEST CALLVALUE DUP1 ISZERO PUSH2 0x19B JUMPI PUSH1 0x0 DUP1 REVERT JUMPDEST POP PUSH2 0x1B6 PUSH1 0x4 DUP1 CALLDATASIZE SUB DUP2 ADD SWAP1 PUSH2 0x1B1 SWAP2 SWAP1 PUSH2 0x1228 JUMP JUMPDEST PUSH2 0x66B JUMP JUMPDEST STOP JUMPDEST CALLVALUE DUP1 ISZERO PUSH2 0x1C4 JUMPI PUSH1 0x0 DUP1 REVERT JUMPDEST POP PUSH2 0x1DF PUSH1 0x4 DUP1 CALLDATASIZE SUB DUP2 ADD SWAP1 PUSH2 0x1DA SWAP2 SWAP1 PUSH2 0x12E2 JUMP JUMPDEST PUSH2 0x72D JUMP JUMPDEST STOP JUMPDEST CALLVALUE DUP1 ISZERO PUSH2 0x1ED JUMPI PUSH1 0x0 DUP1 REVERT JUMPDEST POP PUSH2 0x1F6 PUSH2 0x86E JUMP JUMPDEST PUSH1 0x40 MLOAD PUSH2 0x203 SWAP2 SWAP1 PUSH2 0x1264 JUMP JUMPDEST PUSH1 0x40 MLOAD DUP1 SWAP2 SUB SWAP1 RETURN JUMPDEST CALLVALUE DUP1 ISZERO PUSH2 0x218 JUMPI PUSH1 0x0 DUP1 REVERT JUMPDEST POP PUSH2 0x233 PUSH1 0x4 DUP1 CALLDATASIZE SUB DUP2 ADD SWAP1 PUSH2 0x22E SWAP2 SWAP1 PUSH2 0x1322 JUMP JUMPDEST PUSH2 0x892 JUMP JUMPDEST PUSH1 0x40 MLOAD PUSH2 0x240 SWAP2 SWAP1 PUSH2 0x1371 JUMP JUMPDEST PUSH1 0x40 MLOAD DUP1 SWAP2 SUB SWAP1 RETURN JUMPDEST CALLVALUE DUP1 ISZERO PUSH2 0x255 JUMPI PUSH1 0x0 DUP1 REVERT JUMPDEST POP PUSH2 0x25E PUSH2 0x991 JUMP JUMPDEST STOP JUMPDEST CALLVALUE DUP1 ISZERO PUSH2 0x26C JUMPI PUSH1 0x0 DUP1 REVERT JUMPDEST POP PUSH2 0x287 PUSH1 0x4 DUP1 CALLDATASIZE SUB DUP2 ADD SWAP1 PUSH2 0x282 SWAP2 SWAP1 PUSH2 0x12B5 JUMP JUMPDEST PUSH2 0x9BC JUMP JUMPDEST STOP JUMPDEST CALLVALUE DUP1 ISZERO PUSH2 0x295 JUMPI PUSH1 0x0 DUP1 REVERT JUMPDEST POP PUSH2 0x2B0 PUSH1 0x4 DUP1 CALLDATASIZE SUB DUP2 ADD SWAP1 PUSH2 0x2AB SWAP2 SWAP1 PUSH2 0x1322 JUMP JUMPDEST PUSH2 0xAAA JUMP JUMPDEST PUSH1 0x40 MLOAD PUSH2 0x2BD SWAP2 SWAP1 PUSH2 0x1371 JUMP JUMPDEST PUSH1 0x40 MLOAD DUP1 SWAP2 SUB SWAP1 RETURN JUMPDEST CALLVALUE DUP1 ISZERO PUSH2 0x2D2 JUMPI PUSH1 0x0 DUP1 REVERT JUMPDEST POP PUSH2 0x2ED PUSH1 0x4 DUP1 CALLDATASIZE SUB DUP2 ADD SWAP1 PUSH2 0x2E8 SWAP2 SWAP1 PUSH2 0x12E2 JUMP JUMPDEST PUSH2 0xB3B JUMP JUMPDEST STOP JUMPDEST CALLVALUE DUP1 ISZERO PUSH2 0x2FB JUMPI PUSH1 0x0 DUP1 REVERT JUMPDEST POP PUSH2 0x316 PUSH1 0x4 DUP1 CALLDATASIZE SUB DUP2 ADD SWAP1 PUSH2 0x311 SWAP2 SWAP1 PUSH2 0x1228 JUMP JUMPDEST PUSH2 0xC79 JUMP JUMPDEST PUSH1 0x40 MLOAD PUSH2 0x323 SWAP2 SWAP1 PUSH2 0x1371 JUMP JUMPDEST PUSH1 0x40 MLOAD DUP1 SWAP2 SUB SWAP1 RETURN JUMPDEST CALLVALUE DUP1 ISZERO PUSH2 0x338 JUMPI PUSH1 0x0 DUP1 REVERT JUMPDEST POP PUSH2 0x341 PUSH2 0xCFC JUMP JUMPDEST PUSH1 0x40 MLOAD PUSH2 0x34E SWAP2 SWAP1 PUSH2 0x1264 JUMP JUMPDEST PUSH1 0x40 MLOAD DUP1 SWAP2 SUB SWAP1 RETURN JUMPDEST PUSH1 0x0 PUSH32 0x0 PUSH20 0xFFFFFFFFFFFFFFFFFFFFFFFFFFFFFFFFFFFFFFFF AND PUSH4 0xBBE4F6DB DUP4 PUSH1 0x40 MLOAD DUP3 PUSH4 0xFFFFFFFF AND PUSH1 0xE0 SHL DUP2 MSTORE PUSH1 0x4 ADD PUSH2 0x3B2 SWAP2 SWAP1 PUSH2 0x1264 JUMP JUMPDEST PUSH1 0x20 PUSH1 0x40 MLOAD DUP1 DUP4 SUB DUP2 DUP7 GAS STATICCALL ISZERO DUP1 ISZERO PUSH2 0x3CF JUMPI RETURNDATASIZE PUSH1 0x0 DUP1 RETURNDATACOPY RETURNDATASIZE PUSH1 0x0 REVERT JUMPDEST POP POP POP POP PUSH1 0x40 MLOAD RETURNDATASIZE PUSH1 0x1F NOT PUSH1 0x1F DUP3 ADD AND DUP3 ADD DUP1 PUSH1 0x40 MSTORE POP DUP2 ADD SWAP1 PUSH2 0x3F3 SWAP2 SWAP1 PUSH2 0x13A1 JUMP JUMPDEST SWAP1 POP SWAP2 SWAP1 POP JUMP JUMPDEST DUP1 CALLVALUE EQ PUSH2 0x43C JUMPI PUSH1 0x40 MLOAD PUSH32 0x8C379A000000000000000000000000000000000000000000000000000000000 DUP2 MSTORE PUSH1 0x4 ADD PUSH2 0x433 SWAP1 PUSH2 0x142B JUMP JUMPDEST PUSH1 0x40 MLOAD DUP1 SWAP2 SUB SWAP1 REVERT JUMPDEST PUSH32 0x0 PUSH20 0xFFFFFFFFFFFFFFFFFFFFFFFFFFFFFFFFFFFFFFFF AND PUSH4 0xD0E30DB0 CALLVALUE PUSH1 0x40 MLOAD DUP3 PUSH4 0xFFFFFFFF AND PUSH1 0xE0 SHL DUP2 MSTORE PUSH1 0x4 ADD PUSH1 0x0 PUSH1 0x40 MLOAD DUP1 DUP4 SUB DUP2 DUP6 DUP9 DUP1 EXTCODESIZE ISZERO DUP1 ISZERO PUSH2 0x4A4 JUMPI PUSH1 0x0 DUP1 REVERT JUMPDEST POP GAS CALL ISZERO DUP1 ISZERO PUSH2 0x4B8 JUMPI RETURNDATASIZE PUSH1 0x0 DUP1 RETURNDATACOPY RETURNDATASIZE PUSH1 0x0 REVERT JUMPDEST POP POP POP POP POP PUSH2 0x4E8 PUSH32 0x0 CALLER DUP4 PUSH2 0xD20 JUMP JUMPDEST PUSH2 0x512 PUSH32 0x0 DUP3 PUSH2 0x72D JUMP JUMPDEST POP JUMP JUMPDEST PUSH1 0x0 PUSH2 0x520 DUP3 PUSH2 0x357 JUMP JUMPDEST SWAP1 POP PUSH1 0x0 PUSH20 0xFFFFFFFFFFFFFFFFFFFFFFFFFFFFFFFFFFFFFFFF AND DUP2 PUSH20 0xFFFFFFFFFFFFFFFFFFFFFFFFFFFFFFFFFFFFFFFF AND SUB PUSH2 0x591 JUMPI PUSH1 0x40 MLOAD PUSH32 0x8C379A000000000000000000000000000000000000000000000000000000000 DUP2 MSTORE PUSH1 0x4 ADD PUSH2 0x588 SWAP1 PUSH2 0x1497 JUMP JUMPDEST PUSH1 0x40 MLOAD DUP1 SWAP2 SUB SWAP1 REVERT JUMPDEST PUSH1 0x0 PUSH2 0x59D DUP4 CALLER PUSH2 0x892 JUMP JUMPDEST SWAP1 POP PUSH1 0x0 DUP2 GT PUSH2 0x5E2 JUMPI PUSH1 0x40 MLOAD PUSH32 0x8C379A000000000000000000000000000000000000000000000000000000000 DUP2 MSTORE PUSH1 0x4 ADD PUSH2 0x5D9 SWAP1 PUSH2 0x1503 JUMP JUMPDEST PUSH1 0x40 MLOAD DUP1 SWAP2 SUB SWAP1 REVERT JUMPDEST DUP2 PUSH20 0xFFFFFFFFFFFFFFFFFFFFFFFFFFFFFFFFFFFFFFFF AND PUSH4 0xD5276246 PUSH1 0x40 MLOAD DUP2 PUSH4 0xFFFFFFFF AND PUSH1 0xE0 SHL DUP2 MSTORE PUSH1 0x4 ADD PUSH1 0x0 PUSH1 0x40 MLOAD DUP1 DUP4 SUB DUP2 PUSH1 0x0 DUP8 DUP1 EXTCODESIZE ISZERO DUP1 ISZERO PUSH2 0x62A JUMPI PUSH1 0x0 DUP1 REVERT JUMPDEST POP GAS CALL ISZERO DUP1 ISZERO PUSH2 0x63E JUMPI RETURNDATASIZE PUSH1 0x0 DUP1 RETURNDATACOPY RETURNDATASIZE PUSH1 0x0 REVERT JUMPDEST POP POP POP POP POP POP POP JUMP JUMPDEST PUSH32 0x0 DUP2 JUMP JUMPDEST PUSH32 0x0 PUSH20 0xFFFFFFFFFFFFFFFFFFFFFFFFFFFFFFFFFFFFFFFF AND PUSH4 0xE3433615 DUP3 PUSH32 0x0 PUSH1 0x40 MLOAD DUP4 PUSH4 0xFFFFFFFF AND PUSH1 0xE0 SHL DUP2 MSTORE PUSH1 0x4 ADD PUSH2 0x6E6 SWAP3 SWAP2 SWAP1 PUSH2 0x1523 JUMP JUMPDEST PUSH1 0x20 PUSH1 0x40 MLOAD DUP1 DUP4 SUB DUP2 PUSH1 0x0 DUP8 GAS CALL ISZERO DUP1 ISZERO PUSH2 0x705 JUMPI RETURNDATASIZE PUSH1 0x0 DUP1 RETURNDATACOPY RETURNDATASIZE PUSH1 0x0 REVERT JUMPDEST POP POP POP POP PUSH1 0x40 MLOAD RETURNDATASIZE PUSH1 0x1F NOT PUSH1 0x1F DUP3 ADD AND DUP3 ADD DUP1 PUSH1 0x40 MSTORE POP DUP2 ADD SWAP1 PUSH2 0x729 SWAP2 SWAP1 PUSH2 0x13A1 JUMP JUMPDEST POP POP JUMP JUMPDEST PUSH1 0x0 PUSH2 0x738 DUP4 PUSH2 0x357 JUMP JUMPDEST SWAP1 POP PUSH1 0x0 PUSH20 0xFFFFFFFFFFFFFFFFFFFFFFFFFFFFFFFFFFFFFFFF AND DUP2 PUSH20 0xFFFFFFFFFFFFFFFFFFFFFFFFFFFFFFFFFFFFFFFF AND EQ PUSH2 0x7E9 JUMPI PUSH2 0x779 DUP4 DUP3 DUP5 PUSH2 0xE56 JUMP JUMPDEST DUP1 PUSH20 0xFFFFFFFFFFFFFFFFFFFFFFFFFFFFFFFFFFFFFFFF AND PUSH4 0xA694FC3A DUP4 PUSH1 0x40 MLOAD DUP3 PUSH4 0xFFFFFFFF AND PUSH1 0xE0 SHL DUP2 MSTORE PUSH1 0x4 ADD PUSH2 0x7B2 SWAP2 SWAP1 PUSH2 0x1371 JUMP JUMPDEST PUSH1 0x0 PUSH1 0x40 MLOAD DUP1 DUP4 SUB DUP2 PUSH1 0x0 DUP8 DUP1 EXTCODESIZE ISZERO DUP1 ISZERO PUSH2 0x7CC JUMPI PUSH1 0x0 DUP1 REVERT JUMPDEST POP GAS CALL ISZERO DUP1 ISZERO PUSH2 0x7E0 JUMPI RETURNDATASIZE PUSH1 0x0 DUP1 RETURNDATACOPY RETURNDATASIZE PUSH1 0x0 REVERT JUMPDEST POP POP POP POP PUSH2 0x869 JUMP JUMPDEST PUSH2 0x7F2 DUP4 PUSH2 0x66B JUMP JUMPDEST PUSH2 0x7FD DUP4 DUP3 DUP5 PUSH2 0xE56 JUMP JUMPDEST DUP1 PUSH20 0xFFFFFFFFFFFFFFFFFFFFFFFFFFFFFFFFFFFFFFFF AND PUSH4 0xA694FC3A DUP4 PUSH1 0x40 MLOAD DUP3 PUSH4 0xFFFFFFFF AND PUSH1 0xE0 SHL DUP2 MSTORE PUSH1 0x4 ADD PUSH2 0x836 SWAP2 SWAP1 PUSH2 0x1371 JUMP JUMPDEST PUSH1 0x0 PUSH1 0x40 MLOAD DUP1 DUP4 SUB DUP2 PUSH1 0x0 DUP8 DUP1 EXTCODESIZE ISZERO DUP1 ISZERO PUSH2 0x850 JUMPI PUSH1 0x0 DUP1 REVERT JUMPDEST POP GAS CALL ISZERO DUP1 ISZERO PUSH2 0x864 JUMPI RETURNDATASIZE PUSH1 0x0 DUP1 RETURNDATACOPY RETURNDATASIZE PUSH1 0x0 REVERT JUMPDEST POP POP POP POP JUMPDEST POP POP POP JUMP JUMPDEST PUSH32 0x0 DUP2 JUMP JUMPDEST PUSH1 0x0 DUP1 PUSH2 0x89E DUP5 PUSH2 0x357 JUMP JUMPDEST SWAP1 POP PUSH1 0x0 PUSH20 0xFFFFFFFFFFFFFFFFFFFFFFFFFFFFFFFFFFFFFFFF AND DUP2 PUSH20 0xFFFFFFFFFFFFFFFFFFFFFFFFFFFFFFFFFFFFFFFF AND SUB PUSH2 0x90F JUMPI PUSH1 0x40 MLOAD PUSH32 0x8C379A000000000000000000000000000000000000000000000000000000000 DUP2 MSTORE PUSH1 0x4 ADD PUSH2 0x906 SWAP1 PUSH2 0x1598 JUMP JUMPDEST PUSH1 0x40 MLOAD DUP1 SWAP2 SUB SWAP1 REVERT JUMPDEST DUP1 PUSH20 0xFFFFFFFFFFFFFFFFFFFFFFFFFFFFFFFFFFFFFFFF AND PUSH3 0x8CC262 DUP5 PUSH1 0x40 MLOAD DUP3 PUSH4 0xFFFFFFFF AND PUSH1 0xE0 SHL DUP2 MSTORE PUSH1 0x4 ADD PUSH2 0x947 SWAP2 SWAP1 PUSH2 0x1264 JUMP JUMPDEST PUSH1 0x20 PUSH1 0x40 MLOAD DUP1 DUP4 SUB DUP2 DUP7 GAS STATICCALL ISZERO DUP1 ISZERO PUSH2 0x964 JUMPI RETURNDATASIZE PUSH1 0x0 DUP1 RETURNDATACOPY RETURNDATASIZE PUSH1 0x0 REVERT JUMPDEST POP POP POP POP PUSH1 0x40 MLOAD RETURNDATASIZE PUSH1 0x1F NOT PUSH1 0x1F DUP3 ADD AND DUP3 ADD DUP1 PUSH1 0x40 MSTORE POP DUP2 ADD SWAP1 PUSH2 0x988 SWAP2 SWAP1 PUSH2 0x15CD JUMP JUMPDEST SWAP2 POP POP SWAP3 SWAP2 POP POP JUMP JUMPDEST PUSH2 0x9BA PUSH32 0x0 PUSH2 0x515 JUMP JUMPDEST JUMP JUMPDEST PUSH2 0x9E6 PUSH32 0x0 DUP3 PUSH2 0xB3B JUMP JUMPDEST PUSH2 0xA12 PUSH32 0x0 CALLER ADDRESS DUP5 PUSH2 0xF8C JUMP JUMPDEST PUSH32 0x0 PUSH20 0xFFFFFFFFFFFFFFFFFFFFFFFFFFFFFFFFFFFFFFFF AND PUSH4 0x2E1A7D4D DUP3 PUSH1 0x40 MLOAD DUP3 PUSH4 0xFFFFFFFF AND PUSH1 0xE0 SHL DUP2 MSTORE PUSH1 0x4 ADD PUSH2 0xA6B SWAP2 SWAP1 PUSH2 0x1371 JUMP JUMPDEST PUSH1 0x0 PUSH1 0x40 MLOAD DUP1 DUP4 SUB DUP2 PUSH1 0x0 DUP8 DUP1 EXTCODESIZE ISZERO DUP1 ISZERO PUSH2 0xA85 JUMPI PUSH1 0x0 DUP1 REVERT JUMPDEST POP GAS CALL ISZERO DUP1 ISZERO PUSH2 0xA99 JUMPI RETURNDATASIZE PUSH1 0x0 DUP1 RETURNDATACOPY RETURNDATASIZE PUSH1 0x0 REVERT JUMPDEST POP POP POP POP PUSH2 0xAA7 CALLER DUP3 PUSH2 0x10C5 JUMP JUMPDEST POP JUMP JUMPDEST PUSH1 0x0 DUP1 PUSH2 0xAB6 DUP4 PUSH2 0x357 JUMP JUMPDEST SWAP1 POP DUP1 PUSH20 0xFFFFFFFFFFFFFFFFFFFFFFFFFFFFFFFFFFFFFFFF AND PUSH4 0x98807D84 DUP6 PUSH1 0x40 MLOAD DUP3 PUSH4 0xFFFFFFFF AND PUSH1 0xE0 SHL DUP2 MSTORE PUSH1 0x4 ADD PUSH2 0xAF1 SWAP2 SWAP1 PUSH2 0x1264 JUMP JUMPDEST PUSH1 0x20 PUSH1 0x40 MLOAD DUP1 DUP4 SUB DUP2 DUP7 GAS STATICCALL ISZERO DUP1 ISZERO PUSH2 0xB0E JUMPI RETURNDATASIZE PUSH1 0x0 DUP1 RETURNDATACOPY RETURNDATASIZE PUSH1 0x0 REVERT JUMPDEST POP POP POP POP PUSH1 0x40 MLOAD RETURNDATASIZE PUSH1 0x1F NOT PUSH1 0x1F DUP3 ADD AND DUP3 ADD DUP1 PUSH1 0x40 MSTORE POP DUP2 ADD SWAP1 PUSH2 0xB32 SWAP2 SWAP1 PUSH2 0x15CD JUMP JUMPDEST SWAP2 POP POP SWAP3 SWAP2 POP POP JUMP JUMPDEST PUSH1 0x0 PUSH2 0xB46 DUP4 PUSH2 0x357 JUMP JUMPDEST SWAP1 POP PUSH1 0x0 PUSH20 0xFFFFFFFFFFFFFFFFFFFFFFFFFFFFFFFFFFFFFFFF AND DUP2 PUSH20 0xFFFFFFFFFFFFFFFFFFFFFFFFFFFFFFFFFFFFFFFF AND SUB PUSH2 0xBB7 JUMPI PUSH1 0x40 MLOAD PUSH32 0x8C379A000000000000000000000000000000000000000000000000000000000 DUP2 MSTORE PUSH1 0x4 ADD PUSH2 0xBAE SWAP1 PUSH2 0x1497 JUMP JUMPDEST PUSH1 0x40 MLOAD DUP1 SWAP2 SUB SWAP1 REVERT JUMPDEST PUSH1 0x0 PUSH2 0xBC3 CALLER DUP6 PUSH2 0xAAA JUMP JUMPDEST SWAP1 POP DUP3 DUP2 LT ISZERO PUSH2 0xC08 JUMPI PUSH1 0x40 MLOAD PUSH32 0x8C379A000000000000000000000000000000000000000000000000000000000 DUP2 MSTORE PUSH1 0x4 ADD PUSH2 0xBFF SWAP1 PUSH2 0x1646 JUMP JUMPDEST PUSH1 0x40 MLOAD DUP1 SWAP2 SUB SWAP1 REVERT JUMPDEST DUP2 PUSH20 0xFFFFFFFFFFFFFFFFFFFFFFFFFFFFFFFFFFFFFFFF AND PUSH4 0x2E1A7D4D DUP5 PUSH1 0x40 MLOAD DUP3 PUSH4 0xFFFFFFFF AND PUSH1 0xE0 SHL DUP2 MSTORE PUSH1 0x4 ADD PUSH2 0xC41 SWAP2 SWAP1 PUSH2 0x1371 JUMP JUMPDEST PUSH1 0x0 PUSH1 0x40 MLOAD DUP1 DUP4 SUB DUP2 PUSH1 0x0 DUP8 DUP1 EXTCODESIZE ISZERO DUP1 ISZERO PUSH2 0xC5B JUMPI PUSH1 0x0 DUP1 REVERT JUMPDEST POP GAS CALL ISZERO DUP1 ISZERO PUSH2 0xC6F JUMPI RETURNDATASIZE PUSH1 0x0 DUP1 RETURNDATACOPY RETURNDATASIZE PUSH1 0x0 REVERT JUMPDEST POP POP POP POP POP POP POP POP JUMP JUMPDEST PUSH1 0x0 DUP2 PUSH20 0xFFFFFFFFFFFFFFFFFFFFFFFFFFFFFFFFFFFFFFFF AND PUSH4 0x70A08231 CALLER PUSH1 0x40 MLOAD DUP3 PUSH4 0xFFFFFFFF AND PUSH1 0xE0 SHL DUP2 MSTORE PUSH1 0x4 ADD PUSH2 0xCB4 SWAP2 SWAP1 PUSH2 0x1264 JUMP JUMPDEST PUSH1 0x20 PUSH1 0x40 MLOAD DUP1 DUP4 SUB DUP2 DUP7 GAS STATICCALL ISZERO DUP1 ISZERO PUSH2 0xCD1 JUMPI RETURNDATASIZE PUSH1 0x0 DUP1 RETURNDATACOPY RETURNDATASIZE PUSH1 0x0 REVERT JUMPDEST POP POP POP POP PUSH1 0x40 MLOAD RETURNDATASIZE PUSH1 0x1F NOT PUSH1 0x1F DUP3 ADD AND DUP3 ADD DUP1 PUSH1 0x40 MSTORE POP DUP2 ADD SWAP1 PUSH2 0xCF5 SWAP2 SWAP1 PUSH2 0x15CD JUMP JUMPDEST SWAP1 POP SWAP2 SWAP1 POP JUMP JUMPDEST PUSH32 0x0 DUP2 JUMP JUMPDEST PUSH1 0x0 DUP1 DUP5 PUSH20 0xFFFFFFFFFFFFFFFFFFFFFFFFFFFFFFFFFFFFFFFF AND PUSH4 0xA9059CBB DUP6 DUP6 PUSH1 0x40 MLOAD PUSH1 0x24 ADD PUSH2 0xD52 SWAP3 SWAP2 SWAP1 PUSH2 0x1666 JUMP JUMPDEST PUSH1 0x40 MLOAD PUSH1 0x20 DUP2 DUP4 SUB SUB DUP2 MSTORE SWAP1 PUSH1 0x40 MSTORE SWAP1 PUSH1 0xE0 SHL PUSH1 0x20 DUP3 ADD DUP1 MLOAD PUSH28 0xFFFFFFFFFFFFFFFFFFFFFFFFFFFFFFFFFFFFFFFFFFFFFFFFFFFFFFFF DUP4 DUP2 DUP4 AND OR DUP4 MSTORE POP POP POP POP PUSH1 0x40 MLOAD PUSH2 0xDA0 SWAP2 SWAP1 PUSH2 0x1709 JUMP JUMPDEST PUSH1 0x0 PUSH1 0x40 MLOAD DUP1 DUP4 SUB DUP2 PUSH1 0x0 DUP7 GAS CALL SWAP2 POP POP RETURNDATASIZE DUP1 PUSH1 0x0 DUP2 EQ PUSH2 0xDDD JUMPI PUSH1 0x40 MLOAD SWAP2 POP PUSH1 0x1F NOT PUSH1 0x3F RETURNDATASIZE ADD AND DUP3 ADD PUSH1 0x40 MSTORE RETURNDATASIZE DUP3 MSTORE RETURNDATASIZE PUSH1 0x0 PUSH1 0x20 DUP5 ADD RETURNDATACOPY PUSH2 0xDE2 JUMP JUMPDEST PUSH1 0x60 SWAP2 POP JUMPDEST POP SWAP2 POP SWAP2 POP DUP2 DUP1 ISZERO PUSH2 0xE10 JUMPI POP PUSH1 0x0 DUP2 MLOAD EQ DUP1 PUSH2 0xE0F JUMPI POP DUP1 DUP1 PUSH1 0x20 ADD SWAP1 MLOAD DUP2 ADD SWAP1 PUSH2 0xE0E SWAP2 SWAP1 PUSH2 0x1758 JUMP JUMPDEST JUMPDEST JUMPDEST PUSH2 0xE4F JUMPI PUSH1 0x40 MLOAD PUSH32 0x8C379A000000000000000000000000000000000000000000000000000000000 DUP2 MSTORE PUSH1 0x4 ADD PUSH2 0xE46 SWAP1 PUSH2 0x17F7 JUMP JUMPDEST PUSH1 0x40 MLOAD DUP1 SWAP2 SUB SWAP1 REVERT JUMPDEST POP POP POP POP POP JUMP JUMPDEST PUSH1 0x0 DUP1 DUP5 PUSH20 0xFFFFFFFFFFFFFFFFFFFFFFFFFFFFFFFFFFFFFFFF AND PUSH4 0x95EA7B3 DUP6 DUP6 PUSH1 0x40 MLOAD PUSH1 0x24 ADD PUSH2 0xE88 SWAP3 SWAP2 SWAP1 PUSH2 0x1666 JUMP JUMPDEST PUSH1 0x40 MLOAD PUSH1 0x20 DUP2 DUP4 SUB SUB DUP2 MSTORE SWAP1 PUSH1 0x40 MSTORE SWAP1 PUSH1 0xE0 SHL PUSH1 0x20 DUP3 ADD DUP1 MLOAD PUSH28 0xFFFFFFFFFFFFFFFFFFFFFFFFFFFFFFFFFFFFFFFFFFFFFFFFFFFFFFFF DUP4 DUP2 DUP4 AND OR DUP4 MSTORE POP POP POP POP PUSH1 0x40 MLOAD PUSH2 0xED6 SWAP2 SWAP1 PUSH2 0x1709 JUMP JUMPDEST PUSH1 0x0 PUSH1 0x40 MLOAD DUP1 DUP4 SUB DUP2 PUSH1 0x0 DUP7 GAS CALL SWAP2 POP POP RETURNDATASIZE DUP1 PUSH1 0x0 DUP2 EQ PUSH2 0xF13 JUMPI PUSH1 0x40 MLOAD SWAP2 POP PUSH1 0x1F NOT PUSH1 0x3F RETURNDATASIZE ADD AND DUP3 ADD PUSH1 0x40 MSTORE RETURNDATASIZE DUP3 MSTORE RETURNDATASIZE PUSH1 0x0 PUSH1 0x20 DUP5 ADD RETURNDATACOPY PUSH2 0xF18 JUMP JUMPDEST PUSH1 0x60 SWAP2 POP JUMPDEST POP SWAP2 POP SWAP2 POP DUP2 DUP1 ISZERO PUSH2 0xF46 JUMPI POP PUSH1 0x0 DUP2 MLOAD EQ DUP1 PUSH2 0xF45 JUMPI POP DUP1 DUP1 PUSH1 0x20 ADD SWAP1 MLOAD DUP2 ADD SWAP1 PUSH2 0xF44 SWAP2 SWAP1 PUSH2 0x1758 JUMP JUMPDEST JUMPDEST JUMPDEST PUSH2 0xF85 JUMPI PUSH1 0x40 MLOAD PUSH32 0x8C379A000000000000000000000000000000000000000000000000000000000 DUP2 MSTORE PUSH1 0x4 ADD PUSH2 0xF7C SWAP1 PUSH2 0x1889 JUMP JUMPDEST PUSH1 0x40 MLOAD DUP1 SWAP2 SUB SWAP1 REVERT JUMPDEST POP POP POP POP POP JUMP JUMPDEST PUSH1 0x0 DUP1 DUP6 PUSH20 0xFFFFFFFFFFFFFFFFFFFFFFFFFFFFFFFFFFFFFFFF AND PUSH4 0x23B872DD DUP7 DUP7 DUP7 PUSH1 0x40 MLOAD PUSH1 0x24 ADD PUSH2 0xFC0 SWAP4 SWAP3 SWAP2 SWAP1 PUSH2 0x18A9 JUMP JUMPDEST PUSH1 0x40 MLOAD PUSH1 0x20 DUP2 DUP4 SUB SUB DUP2 MSTORE SWAP1 PUSH1 0x40 MSTORE SWAP1 PUSH1 0xE0 SHL PUSH1 0x20 DUP3 ADD DUP1 MLOAD PUSH28 0xFFFFFFFFFFFFFFFFFFFFFFFFFFFFFFFFFFFFFFFFFFFFFFFFFFFFFFFF DUP4 DUP2 DUP4 AND OR DUP4 MSTORE POP POP POP POP PUSH1 0x40 MLOAD PUSH2 0x100E SWAP2 SWAP1 PUSH2 0x1709 JUMP JUMPDEST PUSH1 0x0 PUSH1 0x40 MLOAD DUP1 DUP4 SUB DUP2 PUSH1 0x0 DUP7 GAS CALL SWAP2 POP POP RETURNDATASIZE DUP1 PUSH1 0x0 DUP2 EQ PUSH2 0x104B JUMPI PUSH1 0x40 MLOAD SWAP2 POP PUSH1 0x1F NOT PUSH1 0x3F RETURNDATASIZE ADD AND DUP3 ADD PUSH1 0x40 MSTORE RETURNDATASIZE DUP3 MSTORE RETURNDATASIZE PUSH1 0x0 PUSH1 0x20 DUP5 ADD RETURNDATACOPY PUSH2 0x1050 JUMP JUMPDEST PUSH1 0x60 SWAP2 POP JUMPDEST POP SWAP2 POP SWAP2 POP DUP2 DUP1 ISZERO PUSH2 0x107E JUMPI POP PUSH1 0x0 DUP2 MLOAD EQ DUP1 PUSH2 0x107D JUMPI POP DUP1 DUP1 PUSH1 0x20 ADD SWAP1 MLOAD DUP2 ADD SWAP1 PUSH2 0x107C SWAP2 SWAP1 PUSH2 0x1758 JUMP JUMPDEST JUMPDEST JUMPDEST PUSH2 0x10BD JUMPI PUSH1 0x40 MLOAD PUSH32 0x8C379A000000000000000000000000000000000000000000000000000000000 DUP2 MSTORE PUSH1 0x4 ADD PUSH2 0x10B4 SWAP1 PUSH2 0x1952 JUMP JUMPDEST PUSH1 0x40 MLOAD DUP1 SWAP2 SUB SWAP1 REVERT JUMPDEST POP POP POP POP POP POP JUMP JUMPDEST PUSH1 0x0 DUP3 PUSH20 0xFFFFFFFFFFFFFFFFFFFFFFFFFFFFFFFFFFFFFFFF AND DUP3 PUSH1 0x0 PUSH8 0xFFFFFFFFFFFFFFFF DUP2 GT ISZERO PUSH2 0x10FA JUMPI PUSH2 0x10F9 PUSH2 0x1972 JUMP JUMPDEST JUMPDEST PUSH1 0x40 MLOAD SWAP1 DUP1 DUP3 MSTORE DUP1 PUSH1 0x1F ADD PUSH1 0x1F NOT AND PUSH1 0x20 ADD DUP3 ADD PUSH1 0x40 MSTORE DUP1 ISZERO PUSH2 0x112C JUMPI DUP2 PUSH1 0x20 ADD PUSH1 0x1 DUP3 MUL DUP1 CALLDATASIZE DUP4 CALLDATACOPY DUP1 DUP3 ADD SWAP2 POP POP SWAP1 POP JUMPDEST POP PUSH1 0x40 MLOAD PUSH2 0x113A SWAP2 SWAP1 PUSH2 0x1709 JUMP JUMPDEST PUSH1 0x0 PUSH1 0x40 MLOAD DUP1 DUP4 SUB DUP2 DUP6 DUP8 GAS CALL SWAP3 POP POP POP RETURNDATASIZE DUP1 PUSH1 0x0 DUP2 EQ PUSH2 0x1177 JUMPI PUSH1 0x40 MLOAD SWAP2 POP PUSH1 0x1F NOT PUSH1 0x3F RETURNDATASIZE ADD AND DUP3 ADD PUSH1 0x40 MSTORE RETURNDATASIZE DUP3 MSTORE RETURNDATASIZE PUSH1 0x0 PUSH1 0x20 DUP5 ADD RETURNDATACOPY PUSH2 0x117C JUMP JUMPDEST PUSH1 0x60 SWAP2 POP JUMPDEST POP POP SWAP1 POP DUP1 PUSH2 0x11C0 JUMPI PUSH1 0x40 MLOAD PUSH32 0x8C379A000000000000000000000000000000000000000000000000000000000 DUP2 MSTORE PUSH1 0x4 ADD PUSH2 0x11B7 SWAP1 PUSH2 0x1A13 JUMP JUMPDEST PUSH1 0x40 MLOAD DUP1 SWAP2 SUB SWAP1 REVERT JUMPDEST POP POP POP JUMP JUMPDEST PUSH1 0x0 DUP1 REVERT JUMPDEST PUSH1 0x0 PUSH20 0xFFFFFFFFFFFFFFFFFFFFFFFFFFFFFFFFFFFFFFFF DUP3 AND SWAP1 POP SWAP2 SWAP1 POP JUMP JUMPDEST PUSH1 0x0 PUSH2 0x11F5 DUP3 PUSH2 0x11CA JUMP JUMPDEST SWAP1 POP SWAP2 SWAP1 POP JUMP JUMPDEST PUSH2 0x1205 DUP2 PUSH2 0x11EA JUMP JUMPDEST DUP2 EQ PUSH2 0x1210 JUMPI PUSH1 0x0 DUP1 REVERT JUMPDEST POP JUMP JUMPDEST PUSH1 0x0 DUP2 CALLDATALOAD SWAP1 POP PUSH2 0x1222 DUP2 PUSH2 0x11FC JUMP JUMPDEST SWAP3 SWAP2 POP POP JUMP JUMPDEST PUSH1 0x0 PUSH1 0x20 DUP3 DUP5 SUB SLT ISZERO PUSH2 0x123E JUMPI PUSH2 0x123D PUSH2 0x11C5 JUMP JUMPDEST JUMPDEST PUSH1 0x0 PUSH2 0x124C DUP5 DUP3 DUP6 ADD PUSH2 0x1213 JUMP JUMPDEST SWAP2 POP POP SWAP3 SWAP2 POP POP JUMP JUMPDEST PUSH2 0x125E DUP2 PUSH2 0x11EA JUMP JUMPDEST DUP3 MSTORE POP POP JUMP JUMPDEST PUSH1 0x0 PUSH1 0x20 DUP3 ADD SWAP1 POP PUSH2 0x1279 PUSH1 0x0 DUP4 ADD DUP5 PUSH2 0x1255 JUMP JUMPDEST SWAP3 SWAP2 POP POP JUMP JUMPDEST PUSH1 0x0 DUP2 SWAP1 POP SWAP2 SWAP1 POP JUMP JUMPDEST PUSH2 0x1292 DUP2 PUSH2 0x127F JUMP JUMPDEST DUP2 EQ PUSH2 0x129D JUMPI PUSH1 0x0 DUP1 REVERT JUMPDEST POP JUMP JUMPDEST PUSH1 0x0 DUP2 CALLDATALOAD SWAP1 POP PUSH2 0x12AF DUP2 PUSH2 0x1289 JUMP JUMPDEST SWAP3 SWAP2 POP POP JUMP JUMPDEST PUSH1 0x0 PUSH1 0x20 DUP3 DUP5 SUB SLT ISZERO PUSH2 0x12CB JUMPI PUSH2 0x12CA PUSH2 0x11C5 JUMP JUMPDEST JUMPDEST PUSH1 0x0 PUSH2 0x12D9 DUP5 DUP3 DUP6 ADD PUSH2 0x12A0 JUMP JUMPDEST SWAP2 POP POP SWAP3 SWAP2 POP POP JUMP JUMPDEST PUSH1 0x0 DUP1 PUSH1 0x40 DUP4 DUP6 SUB SLT ISZERO PUSH2 0x12F9 JUMPI PUSH2 0x12F8 PUSH2 0x11C5 JUMP JUMPDEST JUMPDEST PUSH1 0x0 PUSH2 0x1307 DUP6 DUP3 DUP7 ADD PUSH2 0x1213 JUMP JUMPDEST SWAP3 POP POP PUSH1 0x20 PUSH2 0x1318 DUP6 DUP3 DUP7 ADD PUSH2 0x12A0 JUMP JUMPDEST SWAP2 POP POP SWAP3 POP SWAP3 SWAP1 POP JUMP JUMPDEST PUSH1 0x0 DUP1 PUSH1 0x40 DUP4 DUP6 SUB SLT ISZERO PUSH2 0x1339 JUMPI PUSH2 0x1338 PUSH2 0x11C5 JUMP JUMPDEST JUMPDEST PUSH1 0x0 PUSH2 0x1347 DUP6 DUP3 DUP7 ADD PUSH2 0x1213 JUMP JUMPDEST SWAP3 POP POP PUSH1 0x20 PUSH2 0x1358 DUP6 DUP3 DUP7 ADD PUSH2 0x1213 JUMP JUMPDEST SWAP2 POP POP SWAP3 POP SWAP3 SWAP1 POP JUMP JUMPDEST PUSH2 0x136B DUP2 PUSH2 0x127F JUMP JUMPDEST DUP3 MSTORE POP POP JUMP JUMPDEST PUSH1 0x0 PUSH1 0x20 DUP3 ADD SWAP1 POP PUSH2 0x1386 PUSH1 0x0 DUP4 ADD DUP5 PUSH2 0x1362 JUMP JUMPDEST SWAP3 SWAP2 POP POP JUMP JUMPDEST PUSH1 0x0 DUP2 MLOAD SWAP1 POP PUSH2 0x139B DUP2 PUSH2 0x11FC JUMP JUMPDEST SWAP3 SWAP2 POP POP JUMP JUMPDEST PUSH1 0x0 PUSH1 0x20 DUP3 DUP5 SUB SLT ISZERO PUSH2 0x13B7 JUMPI PUSH2 0x13B6 PUSH2 0x11C5 JUMP JUMPDEST JUMPDEST PUSH1 0x0 PUSH2 0x13C5 DUP5 DUP3 DUP6 ADD PUSH2 0x138C JUMP JUMPDEST SWAP2 POP POP SWAP3 SWAP2 POP POP JUMP JUMPDEST PUSH1 0x0 DUP3 DUP3 MSTORE PUSH1 0x20 DUP3 ADD SWAP1 POP SWAP3 SWAP2 POP POP JUMP JUMPDEST PUSH32 0x496E636F727265637420416D6F756E742073656E740000000000000000000000 PUSH1 0x0 DUP3 ADD MSTORE POP JUMP JUMPDEST PUSH1 0x0 PUSH2 0x1415 PUSH1 0x15 DUP4 PUSH2 0x13CE JUMP JUMPDEST SWAP2 POP PUSH2 0x1420 DUP3 PUSH2 0x13DF JUMP JUMPDEST PUSH1 0x20 DUP3 ADD SWAP1 POP SWAP2 SWAP1 POP JUMP JUMPDEST PUSH1 0x0 PUSH1 0x20 DUP3 ADD SWAP1 POP DUP2 DUP2 SUB PUSH1 0x0 DUP4 ADD MSTORE PUSH2 0x1444 DUP2 PUSH2 0x1408 JUMP JUMPDEST SWAP1 POP SWAP2 SWAP1 POP JUMP JUMPDEST PUSH32 0x506F6F6C20446F204E6F74204578697374730000000000000000000000000000 PUSH1 0x0 DUP3 ADD MSTORE POP JUMP JUMPDEST PUSH1 0x0 PUSH2 0x1481 PUSH1 0x12 DUP4 PUSH2 0x13CE JUMP JUMPDEST SWAP2 POP PUSH2 0x148C DUP3 PUSH2 0x144B JUMP JUMPDEST PUSH1 0x20 DUP3 ADD SWAP1 POP SWAP2 SWAP1 POP JUMP JUMPDEST PUSH1 0x0 PUSH1 0x20 DUP3 ADD SWAP1 POP DUP2 DUP2 SUB PUSH1 0x0 DUP4 ADD MSTORE PUSH2 0x14B0 DUP2 PUSH2 0x1474 JUMP JUMPDEST SWAP1 POP SWAP2 SWAP1 POP JUMP JUMPDEST PUSH32 0x4E6F207265776172647320466F756E6400000000000000000000000000000000 PUSH1 0x0 DUP3 ADD MSTORE POP JUMP JUMPDEST PUSH1 0x0 PUSH2 0x14ED PUSH1 0x10 DUP4 PUSH2 0x13CE JUMP JUMPDEST SWAP2 POP PUSH2 0x14F8 DUP3 PUSH2 0x14B7 JUMP JUMPDEST PUSH1 0x20 DUP3 ADD SWAP1 POP SWAP2 SWAP1 POP JUMP JUMPDEST PUSH1 0x0 PUSH1 0x20 DUP3 ADD SWAP1 POP DUP2 DUP2 SUB PUSH1 0x0 DUP4 ADD MSTORE PUSH2 0x151C DUP2 PUSH2 0x14E0 JUMP JUMPDEST SWAP1 POP SWAP2 SWAP1 POP JUMP JUMPDEST PUSH1 0x0 PUSH1 0x40 DUP3 ADD SWAP1 POP PUSH2 0x1538 PUSH1 0x0 DUP4 ADD DUP6 PUSH2 0x1255 JUMP JUMPDEST PUSH2 0x1545 PUSH1 0x20 DUP4 ADD DUP5 PUSH2 0x1255 JUMP JUMPDEST SWAP4 SWAP3 POP POP POP JUMP JUMPDEST PUSH32 0x506F6F6C20646F6E277420457869737473000000000000000000000000000000 PUSH1 0x0 DUP3 ADD MSTORE POP JUMP JUMPDEST PUSH1 0x0 PUSH2 0x1582 PUSH1 0x11 DUP4 PUSH2 0x13CE JUMP JUMPDEST SWAP2 POP PUSH2 0x158D DUP3 PUSH2 0x154C JUMP JUMPDEST PUSH1 0x20 DUP3 ADD SWAP1 POP SWAP2 SWAP1 POP JUMP JUMPDEST PUSH1 0x0 PUSH1 0x20 DUP3 ADD SWAP1 POP DUP2 DUP2 SUB PUSH1 0x0 DUP4 ADD MSTORE PUSH2 0x15B1 DUP2 PUSH2 0x1575 JUMP JUMPDEST SWAP1 POP SWAP2 SWAP1 POP JUMP JUMPDEST PUSH1 0x0 DUP2 MLOAD SWAP1 POP PUSH2 0x15C7 DUP2 PUSH2 0x1289 JUMP JUMPDEST SWAP3 SWAP2 POP POP JUMP JUMPDEST PUSH1 0x0 PUSH1 0x20 DUP3 DUP5 SUB SLT ISZERO PUSH2 0x15E3 JUMPI PUSH2 0x15E2 PUSH2 0x11C5 JUMP JUMPDEST JUMPDEST PUSH1 0x0 PUSH2 0x15F1 DUP5 DUP3 DUP6 ADD PUSH2 0x15B8 JUMP JUMPDEST SWAP2 POP POP SWAP3 SWAP2 POP POP JUMP JUMPDEST PUSH32 0x496E636F72726563742042616C616E636520656E746572656400000000000000 PUSH1 0x0 DUP3 ADD MSTORE POP JUMP JUMPDEST PUSH1 0x0 PUSH2 0x1630 PUSH1 0x19 DUP4 PUSH2 0x13CE JUMP JUMPDEST SWAP2 POP PUSH2 0x163B DUP3 PUSH2 0x15FA JUMP JUMPDEST PUSH1 0x20 DUP3 ADD SWAP1 POP SWAP2 SWAP1 POP JUMP JUMPDEST PUSH1 0x0 PUSH1 0x20 DUP3 ADD SWAP1 POP DUP2 DUP2 SUB PUSH1 0x0 DUP4 ADD MSTORE PUSH2 0x165F DUP2 PUSH2 0x1623 JUMP JUMPDEST SWAP1 POP SWAP2 SWAP1 POP JUMP JUMPDEST PUSH1 0x0 PUSH1 0x40 DUP3 ADD SWAP1 POP PUSH2 0x167B PUSH1 0x0 DUP4 ADD DUP6 PUSH2 0x1255 JUMP JUMPDEST PUSH2 0x1688 PUSH1 0x20 DUP4 ADD DUP5 PUSH2 0x1362 JUMP JUMPDEST SWAP4 SWAP3 POP POP POP JUMP JUMPDEST PUSH1 0x0 DUP2 MLOAD SWAP1 POP SWAP2 SWAP1 POP JUMP JUMPDEST PUSH1 0x0 DUP2 SWAP1 POP SWAP3 SWAP2 POP POP JUMP JUMPDEST PUSH1 0x0 JUMPDEST DUP4 DUP2 LT ISZERO PUSH2 0x16C3 JUMPI DUP1 DUP3 ADD MLOAD DUP2 DUP5 ADD MSTORE PUSH1 0x20 DUP2 ADD SWAP1 POP PUSH2 0x16A8 JUMP JUMPDEST DUP4 DUP2 GT ISZERO PUSH2 0x16D2 JUMPI PUSH1 0x0 DUP5 DUP5 ADD MSTORE JUMPDEST POP POP POP POP JUMP JUMPDEST PUSH1 0x0 PUSH2 0x16E3 DUP3 PUSH2 0x168F JUMP JUMPDEST PUSH2 0x16ED DUP2 DUP6 PUSH2 0x169A JUMP JUMPDEST SWAP4 POP PUSH2 0x16FD DUP2 DUP6 PUSH1 0x20 DUP7 ADD PUSH2 0x16A5 JUMP JUMPDEST DUP1 DUP5 ADD SWAP2 POP POP SWAP3 SWAP2 POP POP JUMP JUMPDEST PUSH1 0x0 PUSH2 0x1715 DUP3 DUP5 PUSH2 0x16D8 JUMP JUMPDEST SWAP2 POP DUP2 SWAP1 POP SWAP3 SWAP2 POP POP JUMP JUMPDEST PUSH1 0x0 DUP2 ISZERO ISZERO SWAP1 POP SWAP2 SWAP1 POP JUMP JUMPDEST PUSH2 0x1735 DUP2 PUSH2 0x1720 JUMP JUMPDEST DUP2 EQ PUSH2 0x1740 JUMPI PUSH1 0x0 DUP1 REVERT JUMPDEST POP JUMP JUMPDEST PUSH1 0x0 DUP2 MLOAD SWAP1 POP PUSH2 0x1752 DUP2 PUSH2 0x172C JUMP JUMPDEST SWAP3 SWAP2 POP POP JUMP JUMPDEST PUSH1 0x0 PUSH1 0x20 DUP3 DUP5 SUB SLT ISZERO PUSH2 0x176E JUMPI PUSH2 0x176D PUSH2 0x11C5 JUMP JUMPDEST JUMPDEST PUSH1 0x0 PUSH2 0x177C DUP5 DUP3 DUP6 ADD PUSH2 0x1743 JUMP JUMPDEST SWAP2 POP POP SWAP3 SWAP2 POP POP JUMP JUMPDEST PUSH32 0x5472616E7366657248656C7065723A3A736166655472616E736665723A207472 PUSH1 0x0 DUP3 ADD MSTORE PUSH32 0x616E73666572206661696C656400000000000000000000000000000000000000 PUSH1 0x20 DUP3 ADD MSTORE POP JUMP JUMPDEST PUSH1 0x0 PUSH2 0x17E1 PUSH1 0x2D DUP4 PUSH2 0x13CE JUMP JUMPDEST SWAP2 POP PUSH2 0x17EC DUP3 PUSH2 0x1785 JUMP JUMPDEST PUSH1 0x40 DUP3 ADD SWAP1 POP SWAP2 SWAP1 POP JUMP JUMPDEST PUSH1 0x0 PUSH1 0x20 DUP3 ADD SWAP1 POP DUP2 DUP2 SUB PUSH1 0x0 DUP4 ADD MSTORE PUSH2 0x1810 DUP2 PUSH2 0x17D4 JUMP JUMPDEST SWAP1 POP SWAP2 SWAP1 POP JUMP JUMPDEST PUSH32 0x5472616E7366657248656C7065723A3A73616665417070726F76653A20617070 PUSH1 0x0 DUP3 ADD MSTORE PUSH32 0x726F7665206661696C6564000000000000000000000000000000000000000000 PUSH1 0x20 DUP3 ADD MSTORE POP JUMP JUMPDEST PUSH1 0x0 PUSH2 0x1873 PUSH1 0x2B DUP4 PUSH2 0x13CE JUMP JUMPDEST SWAP2 POP PUSH2 0x187E DUP3 PUSH2 0x1817 JUMP JUMPDEST PUSH1 0x40 DUP3 ADD SWAP1 POP SWAP2 SWAP1 POP JUMP JUMPDEST PUSH1 0x0 PUSH1 0x20 DUP3 ADD SWAP1 POP DUP2 DUP2 SUB PUSH1 0x0 DUP4 ADD MSTORE PUSH2 0x18A2 DUP2 PUSH2 0x1866 JUMP JUMPDEST SWAP1 POP SWAP2 SWAP1 POP JUMP JUMPDEST PUSH1 0x0 PUSH1 0x60 DUP3 ADD SWAP1 POP PUSH2 0x18BE PUSH1 0x0 DUP4 ADD DUP7 PUSH2 0x1255 JUMP JUMPDEST PUSH2 0x18CB PUSH1 0x20 DUP4 ADD DUP6 PUSH2 0x1255 JUMP JUMPDEST PUSH2 0x18D8 PUSH1 0x40 DUP4 ADD DUP5 PUSH2 0x1362 JUMP JUMPDEST SWAP5 SWAP4 POP POP POP POP JUMP JUMPDEST PUSH32 0x5472616E7366657248656C7065723A3A7472616E7366657246726F6D3A207472 PUSH1 0x0 DUP3 ADD MSTORE PUSH32 0x616E7366657246726F6D206661696C6564000000000000000000000000000000 PUSH1 0x20 DUP3 ADD MSTORE POP JUMP JUMPDEST PUSH1 0x0 PUSH2 0x193C PUSH1 0x31 DUP4 PUSH2 0x13CE JUMP JUMPDEST SWAP2 POP PUSH2 0x1947 DUP3 PUSH2 0x18E0 JUMP JUMPDEST PUSH1 0x40 DUP3 ADD SWAP1 POP SWAP2 SWAP1 POP JUMP JUMPDEST PUSH1 0x0 PUSH1 0x20 DUP3 ADD SWAP1 POP DUP2 DUP2 SUB PUSH1 0x0 DUP4 ADD MSTORE PUSH2 0x196B DUP2 PUSH2 0x192F JUMP JUMPDEST SWAP1 POP SWAP2 SWAP1 POP JUMP JUMPDEST PUSH32 0x4E487B7100000000000000000000000000000000000000000000000000000000 PUSH1 0x0 MSTORE PUSH1 0x41 PUSH1 0x4 MSTORE PUSH1 0x24 PUSH1 0x0 REVERT JUMPDEST PUSH32 0x5472616E7366657248656C7065723A3A736166655472616E736665724554483A PUSH1 0x0 DUP3 ADD MSTORE PUSH32 0x20455448207472616E73666572206661696C6564000000000000000000000000 PUSH1 0x20 DUP3 ADD MSTORE POP JUMP JUMPDEST PUSH1 0x0 PUSH2 0x19FD PUSH1 0x34 DUP4 PUSH2 0x13CE JUMP JUMPDEST SWAP2 POP PUSH2 0x1A08 DUP3 PUSH2 0x19A1 JUMP JUMPDEST PUSH1 0x40 DUP3 ADD SWAP1 POP SWAP2 SWAP1 POP JUMP JUMPDEST PUSH1 0x0 PUSH1 0x20 DUP3 ADD SWAP1 POP DUP2 DUP2 SUB PUSH1 0x0 DUP4 ADD MSTORE PUSH2 0x1A2C DUP2 PUSH2 0x19F0 JUMP JUMPDEST SWAP1 POP SWAP2 SWAP1 POP JUMP INVALID LOG2 PUSH5 0x6970667358 0x22 SLT KECCAK256 0xF SGT 0x27 SELFBALANCE JUMP 0xCE 0x2F PUSH6 0x3C7B89EF8F25 PUSH2 0x7548 0x4D 0x1E 0xD9 0xEB PUSH14 0xF255DE94051F39848CCA64736F6C PUSH4 0x4300080E STOP CALLER "
				},
				"gasEstimates": {
					"creation": {
						"codeDepositCost": "1352200",
						"executionCost": "infinite",
						"totalCost": "infinite"
					},
					"external": {
						"WEXDC()": "infinite",
						"createPool(address)": "infinite",
						"factory()": "infinite",
						"getBalance(address)": "infinite",
						"getPoolAddress(address)": "infinite",
						"getRewardEarned(address,address)": "infinite",
						"getStaked(address,address)": "infinite",
						"reedemReward(address)": "infinite",
						"reedemRewardETH()": "infinite",
						"rtoken()": "infinite",
						"stake(address,uint256)": "infinite",
						"stakedETH(uint256)": "infinite",
						"withdraw(address,uint256)": "infinite",
						"withdrawETH(uint256)": "infinite"
					}
				},
				"methodIdentifiers": {
					"WEXDC()": "fd08c30c",
					"createPool(address)": "9049f9d2",
					"factory()": "c45a0155",
					"getBalance(address)": "f8b2cb4f",
					"getPoolAddress(address)": "1228cbee",
					"getRewardEarned(address,address)": "df2a26e9",
					"getStaked(address,address)": "f379dfd0",
					"reedemReward(address)": "6447c5a2",
					"reedemRewardETH()": "ef4361b7",
					"rtoken()": "6845478f",
					"stake(address,uint256)": "adc9772e",
					"stakedETH(uint256)": "381fd7a3",
					"withdraw(address,uint256)": "f3fef3a3",
					"withdrawETH(uint256)": "f14210a6"
				}
			},
			"storageLayout": {
				"storage": [],
				"types": null
			},
			"userdoc": {
				"kind": "user",
				"methods": {
					"stakedETH(uint256)": {
						"notice": "wrap"
					},
					"withdrawETH(uint256)": {
						"notice": "unWrap"
					}
				},
				"version": 1
			}
		}
	}
}