{
  "contractName": "GLDToken",
  "abi": [
    {
      "inputs": [
        {
          "internalType": "uint256",
          "name": "initialSupply",
          "type": "uint256"
        }
      ],
      "stateMutability": "nonpayable",
      "type": "constructor"
    },
    {
      "anonymous": false,
      "inputs": [
        {
          "indexed": true,
          "internalType": "address",
          "name": "owner",
          "type": "address"
        },
        {
          "indexed": true,
          "internalType": "address",
          "name": "spender",
          "type": "address"
        },
        {
          "indexed": false,
          "internalType": "uint256",
          "name": "value",
          "type": "uint256"
        }
      ],
      "name": "Approval",
      "type": "event"
    },
    {
      "anonymous": false,
      "inputs": [
        {
          "indexed": true,
          "internalType": "address",
          "name": "from",
          "type": "address"
        },
        {
          "indexed": true,
          "internalType": "address",
          "name": "to",
          "type": "address"
        },
        {
          "indexed": false,
          "internalType": "uint256",
          "name": "value",
          "type": "uint256"
        }
      ],
      "name": "Transfer",
      "type": "event"
    },
    {
      "inputs": [
        {
          "internalType": "address",
          "name": "owner",
          "type": "address"
        },
        {
          "internalType": "address",
          "name": "spender",
          "type": "address"
        }
      ],
      "name": "allowance",
      "outputs": [
        {
          "internalType": "uint256",
          "name": "",
          "type": "uint256"
        }
      ],
      "stateMutability": "view",
      "type": "function"
    },
    {
      "inputs": [
        {
          "internalType": "address",
          "name": "spender",
          "type": "address"
        },
        {
          "internalType": "uint256",
          "name": "amount",
          "type": "uint256"
        }
      ],
      "name": "approve",
      "outputs": [
        {
          "internalType": "bool",
          "name": "",
          "type": "bool"
        }
      ],
      "stateMutability": "nonpayable",
      "type": "function"
    },
    {
      "inputs": [
        {
          "internalType": "address",
          "name": "account",
          "type": "address"
        }
      ],
      "name": "balanceOf",
      "outputs": [
        {
          "internalType": "uint256",
          "name": "",
          "type": "uint256"
        }
      ],
      "stateMutability": "view",
      "type": "function"
    },
    {
      "inputs": [],
      "name": "decimals",
      "outputs": [
        {
          "internalType": "uint8",
          "name": "",
          "type": "uint8"
        }
      ],
      "stateMutability": "view",
      "type": "function"
    },
    {
      "inputs": [
        {
          "internalType": "address",
          "name": "spender",
          "type": "address"
        },
        {
          "internalType": "uint256",
          "name": "subtractedValue",
          "type": "uint256"
        }
      ],
      "name": "decreaseAllowance",
      "outputs": [
        {
          "internalType": "bool",
          "name": "",
          "type": "bool"
        }
      ],
      "stateMutability": "nonpayable",
      "type": "function"
    },
    {
      "inputs": [
        {
          "internalType": "address",
          "name": "spender",
          "type": "address"
        },
        {
          "internalType": "uint256",
          "name": "addedValue",
          "type": "uint256"
        }
      ],
      "name": "increaseAllowance",
      "outputs": [
        {
          "internalType": "bool",
          "name": "",
          "type": "bool"
        }
      ],
      "stateMutability": "nonpayable",
      "type": "function"
    },
    {
      "inputs": [
        {
          "internalType": "uint256",
          "name": "",
          "type": "uint256"
        }
      ],
      "name": "loans",
      "outputs": [
        {
          "internalType": "uint256",
          "name": "loanid",
          "type": "uint256"
        },
        {
          "internalType": "uint256",
          "name": "amount",
          "type": "uint256"
        },
        {
          "internalType": "uint256",
          "name": "price",
          "type": "uint256"
        },
        {
          "internalType": "uint256",
          "name": "interest",
          "type": "uint256"
        },
        {
          "internalType": "uint256",
          "name": "period",
          "type": "uint256"
        },
        {
          "internalType": "uint256",
          "name": "reqtimestamp",
          "type": "uint256"
        },
        {
          "internalType": "address",
          "name": "initiator",
          "type": "address"
        },
        {
          "internalType": "bool",
          "name": "status",
          "type": "bool"
        }
      ],
      "stateMutability": "view",
      "type": "function"
    },
    {
      "inputs": [],
      "name": "name",
      "outputs": [
        {
          "internalType": "string",
          "name": "",
          "type": "string"
        }
      ],
      "stateMutability": "view",
      "type": "function"
    },
    {
      "inputs": [],
      "name": "symbol",
      "outputs": [
        {
          "internalType": "string",
          "name": "",
          "type": "string"
        }
      ],
      "stateMutability": "view",
      "type": "function"
    },
    {
      "inputs": [],
      "name": "totalSupply",
      "outputs": [
        {
          "internalType": "uint256",
          "name": "",
          "type": "uint256"
        }
      ],
      "stateMutability": "view",
      "type": "function"
    },
    {
      "inputs": [
        {
          "internalType": "address",
          "name": "to",
          "type": "address"
        },
        {
          "internalType": "uint256",
          "name": "amount",
          "type": "uint256"
        }
      ],
      "name": "transfer",
      "outputs": [
        {
          "internalType": "bool",
          "name": "",
          "type": "bool"
        }
      ],
      "stateMutability": "nonpayable",
      "type": "function"
    },
    {
      "inputs": [
        {
          "internalType": "address",
          "name": "from",
          "type": "address"
        },
        {
          "internalType": "address",
          "name": "to",
          "type": "address"
        },
        {
          "internalType": "uint256",
          "name": "amount",
          "type": "uint256"
        }
      ],
      "name": "transferFrom",
      "outputs": [
        {
          "internalType": "bool",
          "name": "",
          "type": "bool"
        }
      ],
      "stateMutability": "nonpayable",
      "type": "function"
    },
    {
      "inputs": [
        {
          "internalType": "uint256",
          "name": "amount",
          "type": "uint256"
        },
        {
          "internalType": "uint256",
          "name": "period",
          "type": "uint256"
        }
      ],
      "name": "getloan",
      "outputs": [],
      "stateMutability": "nonpayable",
      "type": "function"
    },
    {
      "inputs": [
        {
          "internalType": "uint256",
          "name": "loanid",
          "type": "uint256"
        }
      ],
      "name": "disburseloan",
      "outputs": [],
      "stateMutability": "payable",
      "type": "function"
    },
    {
      "inputs": [
        {
          "internalType": "uint256",
          "name": "loanid",
          "type": "uint256"
        }
      ],
      "name": "repayloan",
      "outputs": [],
      "stateMutability": "nonpayable",
      "type": "function"
    }
  ],
  "bytecode": "0x6080604052600060055561a8c06006553480156200001c57600080fd5b50604051620029193803806200291983398181016040528101906200004291906200036e565b6040518060400160405280600481526020017f476f6c64000000000000000000000000000000000000000000000000000000008152506040518060400160405280600381526020017f474c4400000000000000000000000000000000000000000000000000000000008152508160039080519060200190620000c69291906200027e565b508060049080519060200190620000df9291906200027e565b505050620000f43382620000fb60201b60201c565b5062000542565b600073ffffffffffffffffffffffffffffffffffffffff168273ffffffffffffffffffffffffffffffffffffffff1614156200016e576040517f08c379a0000000000000000000000000000000000000000000000000000000008152600401620001659062000401565b60405180910390fd5b62000182600083836200027460201b60201c565b806002600082825462000196919062000452565b92505081905550806000808473ffffffffffffffffffffffffffffffffffffffff1673ffffffffffffffffffffffffffffffffffffffff1681526020019081526020016000206000828254620001ed919062000452565b925050819055508173ffffffffffffffffffffffffffffffffffffffff16600073ffffffffffffffffffffffffffffffffffffffff167fddf252ad1be2c89b69c2b068fc378daa952ba7f163c4a11628f55a4df523b3ef83604051620002549190620004c0565b60405180910390a362000270600083836200027960201b60201c565b5050565b505050565b505050565b8280546200028c906200050c565b90600052602060002090601f016020900481019282620002b05760008555620002fc565b82601f10620002cb57805160ff1916838001178555620002fc565b82800160010185558215620002fc579182015b82811115620002fb578251825591602001919060010190620002de565b5b5090506200030b91906200030f565b5090565b5b808211156200032a57600081600090555060010162000310565b5090565b600080fd5b6000819050919050565b620003488162000333565b81146200035457600080fd5b50565b60008151905062000368816200033d565b92915050565b6000602082840312156200038757620003866200032e565b5b6000620003978482850162000357565b91505092915050565b600082825260208201905092915050565b7f45524332303a206d696e7420746f20746865207a65726f206164647265737300600082015250565b6000620003e9601f83620003a0565b9150620003f682620003b1565b602082019050919050565b600060208201905081810360008301526200041c81620003da565b9050919050565b7f4e487b7100000000000000000000000000000000000000000000000000000000600052601160045260246000fd5b60006200045f8262000333565b91506200046c8362000333565b9250827fffffffffffffffffffffffffffffffffffffffffffffffffffffffffffffffff03821115620004a457620004a362000423565b5b828201905092915050565b620004ba8162000333565b82525050565b6000602082019050620004d76000830184620004af565b92915050565b7f4e487b7100000000000000000000000000000000000000000000000000000000600052602260045260246000fd5b600060028204905060018216806200052557607f821691505b602082108114156200053c576200053b620004dd565b5b50919050565b6123c780620005526000396000f3fe6080604052600436106100e85760003560e01c8063395093511161008a578063a457c2d711610059578063a457c2d7146102fb578063a9059cbb14610338578063dd62ed3e14610375578063e1ec3c68146103b2576100e8565b8063395093511461023a57806370a082311461027757806395d89b41146102b457806399fee6cd146102df576100e8565b806318160ddd116100c657806318160ddd1461017e578063236d3898146101a957806323b872dd146101d2578063313ce5671461020f576100e8565b806306fdde03146100ed578063095ea7b31461011857806315eb0ee614610155575b600080fd5b3480156100f957600080fd5b506101026103f6565b60405161010f9190611710565b60405180910390f35b34801561012457600080fd5b5061013f600480360381019061013a91906117cb565b610488565b60405161014c9190611826565b60405180910390f35b34801561016157600080fd5b5061017c60048036038101906101779190611841565b6104ab565b005b34801561018a57600080fd5b506101936106d1565b6040516101a0919061187d565b60405180910390f35b3480156101b557600080fd5b506101d060048036038101906101cb9190611898565b6106db565b005b3480156101de57600080fd5b506101f960048036038101906101f491906118d8565b610853565b6040516102069190611826565b60405180910390f35b34801561021b57600080fd5b50610224610882565b6040516102319190611947565b60405180910390f35b34801561024657600080fd5b50610261600480360381019061025c91906117cb565b61088b565b60405161026e9190611826565b60405180910390f35b34801561028357600080fd5b5061029e60048036038101906102999190611962565b610935565b6040516102ab919061187d565b60405180910390f35b3480156102c057600080fd5b506102c961097d565b6040516102d69190611710565b60405180910390f35b6102f960048036038101906102f49190611841565b610a0f565b005b34801561030757600080fd5b50610322600480360381019061031d91906117cb565b610c42565b60405161032f9190611826565b60405180910390f35b34801561034457600080fd5b5061035f600480360381019061035a91906117cb565b610d2c565b60405161036c9190611826565b60405180910390f35b34801561038157600080fd5b5061039c6004803603810190610397919061198f565b610d4f565b6040516103a9919061187d565b60405180910390f35b3480156103be57600080fd5b506103d960048036038101906103d49190611841565b610dd6565b6040516103ed9897969594939291906119de565b60405180910390f35b60606003805461040590611a8b565b80601f016020809104026020016040519081016040528092919081815260200182805461043190611a8b565b801561047e5780601f106104535761010080835404028352916020019161047e565b820191906000526020600020905b81548152906001019060200180831161046157829003601f168201915b5050505050905090565b600080610493610e4b565b90506104a0818585610e53565b600191505092915050565b600060076000838152602001908152602001600020604051806101000160405290816000820154815260200160018201548152602001600282015481526020016003820154815260200160048201548152602001600582015481526020016006820160009054906101000a900473ffffffffffffffffffffffffffffffffffffffff1673ffffffffffffffffffffffffffffffffffffffff1673ffffffffffffffffffffffffffffffffffffffff1681526020016006820160149054906101000a900460ff16151515158152505090503373ffffffffffffffffffffffffffffffffffffffff168160c0015173ffffffffffffffffffffffffffffffffffffffff16146105ed576040517f08c379a00000000000000000000000000000000000000000000000000000000081526004016105e490611b09565b60405180910390fd5b80602001516105fb33610935565b1161063b576040517f08c379a000000000000000000000000000000000000000000000000000000000815260040161063290611b75565b60405180910390fd5b600115158160e0015115151461065057600080fd5b61065e33826020015161101e565b60003390508073ffffffffffffffffffffffffffffffffffffffff166108fc8360400151846060015185602001516106969190611bc4565b6106a09190611c49565b9081150290604051600060405180830381858888f193505050505060008260e0019015159081151581525050505050565b6000600254905090565b60004390506000601e600584866106f29190611c7a565b6106fc9190611c7a565b6107069190611c49565b9050600033905060008061071b6005546111f5565b9050600060405180610100016040528060055481526020018981526020018381526020018681526020018881526020018781526020018573ffffffffffffffffffffffffffffffffffffffff168152602001841515815250905080600760006005548152602001908152602001600020600082015181600001556020820151816001015560408201518160020155606082015181600301556080820151816004015560a0820151816005015560c08201518160060160006101000a81548173ffffffffffffffffffffffffffffffffffffffff021916908373ffffffffffffffffffffffffffffffffffffffff16021790555060e08201518160060160146101000a81548160ff0219169083151502179055509050506005600081548092919061084490611cd4565b91905055505050505050505050565b60008061085e610e4b565b905061086b858285611200565b61087685858561128c565b60019150509392505050565b60006012905090565b600080610896610e4b565b905061092a818585600160008673ffffffffffffffffffffffffffffffffffffffff1673ffffffffffffffffffffffffffffffffffffffff16815260200190815260200160002060008973ffffffffffffffffffffffffffffffffffffffff1673ffffffffffffffffffffffffffffffffffffffff168152602001908152602001600020546109259190611bc4565b610e53565b600191505092915050565b60008060008373ffffffffffffffffffffffffffffffffffffffff1673ffffffffffffffffffffffffffffffffffffffff168152602001908152602001600020549050919050565b60606004805461098c90611a8b565b80601f01602080910402602001604051908101604052809291908181526020018280546109b890611a8b565b8015610a055780601f106109da57610100808354040283529160200191610a05565b820191906000526020600020905b8154815290600101906020018083116109e857829003601f168201915b5050505050905090565b600060076000838152602001908152602001600020604051806101000160405290816000820154815260200160018201548152602001600282015481526020016003820154815260200160048201548152602001600582015481526020016006820160009054906101000a900473ffffffffffffffffffffffffffffffffffffffff1673ffffffffffffffffffffffffffffffffffffffff1673ffffffffffffffffffffffffffffffffffffffff1681526020016006820160149054906101000a900460ff16151515158152505090503373ffffffffffffffffffffffffffffffffffffffff168160c0015173ffffffffffffffffffffffffffffffffffffffff1614610b51576040517f08c379a0000000000000000000000000000000000000000000000000000000008152600401610b4890611b09565b60405180910390fd5b34816040015182606001518360200151610b6b9190611bc4565b610b759190611c49565b1115610bb6576040517f08c379a0000000000000000000000000000000000000000000000000000000008152600401610bad90611d69565b60405180910390fd5b436102588260a00151610bc99190611bc4565b1015610c0a576040517f08c379a0000000000000000000000000000000000000000000000000000000008152600401610c0190611dd5565b60405180910390fd5b600015158160e00151151514610c1f57600080fd5b60018160e0019015159081151581525050610c3e33826020015161150d565b5050565b600080610c4d610e4b565b90506000600160008373ffffffffffffffffffffffffffffffffffffffff1673ffffffffffffffffffffffffffffffffffffffff16815260200190815260200160002060008673ffffffffffffffffffffffffffffffffffffffff1673ffffffffffffffffffffffffffffffffffffffff16815260200190815260200160002054905083811015610d13576040517f08c379a0000000000000000000000000000000000000000000000000000000008152600401610d0a90611e67565b60405180910390fd5b610d208286868403610e53565b60019250505092915050565b600080610d37610e4b565b9050610d4481858561128c565b600191505092915050565b6000600160008473ffffffffffffffffffffffffffffffffffffffff1673ffffffffffffffffffffffffffffffffffffffff16815260200190815260200160002060008373ffffffffffffffffffffffffffffffffffffffff1673ffffffffffffffffffffffffffffffffffffffff16815260200190815260200160002054905092915050565b60076020528060005260406000206000915090508060000154908060010154908060020154908060030154908060040154908060050154908060060160009054906101000a900473ffffffffffffffffffffffffffffffffffffffff16908060060160149054906101000a900460ff16905088565b600033905090565b600073ffffffffffffffffffffffffffffffffffffffff168373ffffffffffffffffffffffffffffffffffffffff161415610ec3576040517f08c379a0000000000000000000000000000000000000000000000000000000008152600401610eba90611ef9565b60405180910390fd5b600073ffffffffffffffffffffffffffffffffffffffff168273ffffffffffffffffffffffffffffffffffffffff161415610f33576040517f08c379a0000000000000000000000000000000000000000000000000000000008152600401610f2a90611f8b565b60405180910390fd5b80600160008573ffffffffffffffffffffffffffffffffffffffff1673ffffffffffffffffffffffffffffffffffffffff16815260200190815260200160002060008473ffffffffffffffffffffffffffffffffffffffff1673ffffffffffffffffffffffffffffffffffffffff168152602001908152602001600020819055508173ffffffffffffffffffffffffffffffffffffffff168373ffffffffffffffffffffffffffffffffffffffff167f8c5be1e5ebec7d5bd14f71427d1e84f3dd0314c0f7b2291e5b200ac8c7c3b92583604051611011919061187d565b60405180910390a3505050565b600073ffffffffffffffffffffffffffffffffffffffff168273ffffffffffffffffffffffffffffffffffffffff16141561108e576040517f08c379a00000000000000000000000000000000000000000000000000000000081526004016110859061201d565b60405180910390fd5b61109a8260008361166d565b60008060008473ffffffffffffffffffffffffffffffffffffffff1673ffffffffffffffffffffffffffffffffffffffff16815260200190815260200160002054905081811015611120576040517f08c379a0000000000000000000000000000000000000000000000000000000008152600401611117906120af565b60405180910390fd5b8181036000808573ffffffffffffffffffffffffffffffffffffffff1673ffffffffffffffffffffffffffffffffffffffff16815260200190815260200160002081905550816002600082825461117791906120cf565b92505081905550600073ffffffffffffffffffffffffffffffffffffffff168373ffffffffffffffffffffffffffffffffffffffff167fddf252ad1be2c89b69c2b068fc378daa952ba7f163c4a11628f55a4df523b3ef846040516111dc919061187d565b60405180910390a36111f083600084611672565b505050565b600060019050919050565b600061120c8484610d4f565b90507fffffffffffffffffffffffffffffffffffffffffffffffffffffffffffffffff81146112865781811015611278576040517f08c379a000000000000000000000000000000000000000000000000000000000815260040161126f9061214f565b60405180910390fd5b6112858484848403610e53565b5b50505050565b600073ffffffffffffffffffffffffffffffffffffffff168373ffffffffffffffffffffffffffffffffffffffff1614156112fc576040517f08c379a00000000000000000000000000000000000000000000000000000000081526004016112f3906121e1565b60405180910390fd5b600073ffffffffffffffffffffffffffffffffffffffff168273ffffffffffffffffffffffffffffffffffffffff16141561136c576040517f08c379a000000000000000000000000000000000000000000000000000000000815260040161136390612273565b60405180910390fd5b61137783838361166d565b60008060008573ffffffffffffffffffffffffffffffffffffffff1673ffffffffffffffffffffffffffffffffffffffff168152602001908152602001600020549050818110156113fd576040517f08c379a00000000000000000000000000000000000000000000000000000000081526004016113f490612305565b60405180910390fd5b8181036000808673ffffffffffffffffffffffffffffffffffffffff1673ffffffffffffffffffffffffffffffffffffffff16815260200190815260200160002081905550816000808573ffffffffffffffffffffffffffffffffffffffff1673ffffffffffffffffffffffffffffffffffffffff16815260200190815260200160002060008282546114909190611bc4565b925050819055508273ffffffffffffffffffffffffffffffffffffffff168473ffffffffffffffffffffffffffffffffffffffff167fddf252ad1be2c89b69c2b068fc378daa952ba7f163c4a11628f55a4df523b3ef846040516114f4919061187d565b60405180910390a3611507848484611672565b50505050565b600073ffffffffffffffffffffffffffffffffffffffff168273ffffffffffffffffffffffffffffffffffffffff16141561157d576040517f08c379a000000000000000000000000000000000000000000000000000000000815260040161157490612371565b60405180910390fd5b6115896000838361166d565b806002600082825461159b9190611bc4565b92505081905550806000808473ffffffffffffffffffffffffffffffffffffffff1673ffffffffffffffffffffffffffffffffffffffff16815260200190815260200160002060008282546115f09190611bc4565b925050819055508173ffffffffffffffffffffffffffffffffffffffff16600073ffffffffffffffffffffffffffffffffffffffff167fddf252ad1be2c89b69c2b068fc378daa952ba7f163c4a11628f55a4df523b3ef83604051611655919061187d565b60405180910390a361166960008383611672565b5050565b505050565b505050565b600081519050919050565b600082825260208201905092915050565b60005b838110156116b1578082015181840152602081019050611696565b838111156116c0576000848401525b50505050565b6000601f19601f8301169050919050565b60006116e282611677565b6116ec8185611682565b93506116fc818560208601611693565b611705816116c6565b840191505092915050565b6000602082019050818103600083015261172a81846116d7565b905092915050565b600080fd5b600073ffffffffffffffffffffffffffffffffffffffff82169050919050565b600061176282611737565b9050919050565b61177281611757565b811461177d57600080fd5b50565b60008135905061178f81611769565b92915050565b6000819050919050565b6117a881611795565b81146117b357600080fd5b50565b6000813590506117c58161179f565b92915050565b600080604083850312156117e2576117e1611732565b5b60006117f085828601611780565b9250506020611801858286016117b6565b9150509250929050565b60008115159050919050565b6118208161180b565b82525050565b600060208201905061183b6000830184611817565b92915050565b60006020828403121561185757611856611732565b5b6000611865848285016117b6565b91505092915050565b61187781611795565b82525050565b6000602082019050611892600083018461186e565b92915050565b600080604083850312156118af576118ae611732565b5b60006118bd858286016117b6565b92505060206118ce858286016117b6565b9150509250929050565b6000806000606084860312156118f1576118f0611732565b5b60006118ff86828701611780565b935050602061191086828701611780565b9250506040611921868287016117b6565b9150509250925092565b600060ff82169050919050565b6119418161192b565b82525050565b600060208201905061195c6000830184611938565b92915050565b60006020828403121561197857611977611732565b5b600061198684828501611780565b91505092915050565b600080604083850312156119a6576119a5611732565b5b60006119b485828601611780565b92505060206119c585828601611780565b9150509250929050565b6119d881611757565b82525050565b6000610100820190506119f4600083018b61186e565b611a01602083018a61186e565b611a0e604083018961186e565b611a1b606083018861186e565b611a28608083018761186e565b611a3560a083018661186e565b611a4260c08301856119cf565b611a4f60e0830184611817565b9998505050505050505050565b7f4e487b7100000000000000000000000000000000000000000000000000000000600052602260045260246000fd5b60006002820490506001821680611aa357607f821691505b60208210811415611ab757611ab6611a5c565b5b50919050565b7f6e6f2064697362757273656d656e7420746f206f746865722061636300000000600082015250565b6000611af3601c83611682565b9150611afe82611abd565b602082019050919050565b60006020820190508181036000830152611b2281611ae6565b9050919050565b7f63616e27742070617920746865206c6f616e0000000000000000000000000000600082015250565b6000611b5f601283611682565b9150611b6a82611b29565b602082019050919050565b60006020820190508181036000830152611b8e81611b52565b9050919050565b7f4e487b7100000000000000000000000000000000000000000000000000000000600052601160045260246000fd5b6000611bcf82611795565b9150611bda83611795565b9250827fffffffffffffffffffffffffffffffffffffffffffffffffffffffffffffffff03821115611c0f57611c0e611b95565b5b828201905092915050565b7f4e487b7100000000000000000000000000000000000000000000000000000000600052601260045260246000fd5b6000611c5482611795565b9150611c5f83611795565b925082611c6f57611c6e611c1a565b5b828204905092915050565b6000611c8582611795565b9150611c9083611795565b9250817fffffffffffffffffffffffffffffffffffffffffffffffffffffffffffffffff0483118215151615611cc957611cc8611b95565b5b828202905092915050565b6000611cdf82611795565b91507fffffffffffffffffffffffffffffffffffffffffffffffffffffffffffffffff821415611d1257611d11611b95565b5b600182019050919050565b7f6e6f7420656e6f75676820786463000000000000000000000000000000000000600082015250565b6000611d53600e83611682565b9150611d5e82611d1d565b602082019050919050565b60006020820190508181036000830152611d8281611d46565b9050919050565b7f747279696e6720746f207363616d206d79206775790000000000000000000000600082015250565b6000611dbf601583611682565b9150611dca82611d89565b602082019050919050565b60006020820190508181036000830152611dee81611db2565b9050919050565b7f45524332303a2064656372656173656420616c6c6f77616e63652062656c6f7760008201527f207a65726f000000000000000000000000000000000000000000000000000000602082015250565b6000611e51602583611682565b9150611e5c82611df5565b604082019050919050565b60006020820190508181036000830152611e8081611e44565b9050919050565b7f45524332303a20617070726f76652066726f6d20746865207a65726f2061646460008201527f7265737300000000000000000000000000000000000000000000000000000000602082015250565b6000611ee3602483611682565b9150611eee82611e87565b604082019050919050565b60006020820190508181036000830152611f1281611ed6565b9050919050565b7f45524332303a20617070726f766520746f20746865207a65726f20616464726560008201527f7373000000000000000000000000000000000000000000000000000000000000602082015250565b6000611f75602283611682565b9150611f8082611f19565b604082019050919050565b60006020820190508181036000830152611fa481611f68565b9050919050565b7f45524332303a206275726e2066726f6d20746865207a65726f2061646472657360008201527f7300000000000000000000000000000000000000000000000000000000000000602082015250565b6000612007602183611682565b915061201282611fab565b604082019050919050565b6000602082019050818103600083015261203681611ffa565b9050919050565b7f45524332303a206275726e20616d6f756e7420657863656564732062616c616e60008201527f6365000000000000000000000000000000000000000000000000000000000000602082015250565b6000612099602283611682565b91506120a48261203d565b604082019050919050565b600060208201905081810360008301526120c88161208c565b9050919050565b60006120da82611795565b91506120e583611795565b9250828210156120f8576120f7611b95565b5b828203905092915050565b7f45524332303a20696e73756666696369656e7420616c6c6f77616e6365000000600082015250565b6000612139601d83611682565b915061214482612103565b602082019050919050565b600060208201905081810360008301526121688161212c565b9050919050565b7f45524332303a207472616e736665722066726f6d20746865207a65726f20616460008201527f6472657373000000000000000000000000000000000000000000000000000000602082015250565b60006121cb602583611682565b91506121d68261216f565b604082019050919050565b600060208201905081810360008301526121fa816121be565b9050919050565b7f45524332303a207472616e7366657220746f20746865207a65726f206164647260008201527f6573730000000000000000000000000000000000000000000000000000000000602082015250565b600061225d602383611682565b915061226882612201565b604082019050919050565b6000602082019050818103600083015261228c81612250565b9050919050565b7f45524332303a207472616e7366657220616d6f756e742065786365656473206260008201527f616c616e63650000000000000000000000000000000000000000000000000000602082015250565b60006122ef602683611682565b91506122fa82612293565b604082019050919050565b6000602082019050818103600083015261231e816122e2565b9050919050565b7f45524332303a206d696e7420746f20746865207a65726f206164647265737300600082015250565b600061235b601f83611682565b915061236682612325565b602082019050919050565b6000602082019050818103600083015261238a8161234e565b905091905056fea26469706673582212202f4a4d1be4dc1aa6b38194448df16fa124edfa500285e324b86a996f6711a02464736f6c634300080c0033",
  "immutableReferences": {},
  "source": "import \"@openzeppelin/contracts/token/ERC20/ERC20.sol\";\n\ncontract GLDToken is ERC20 {\n    struct loan {\n        uint256 loanid;\n        uint256 amount;\n        uint256 price;\n        uint256 interest;\n        uint256 period;\n        uint256 reqtimestamp;\n        address initiator;\n        bool status;\n    }\n\n    uint256 loanid = 0;\n    uint256 BLOCK_IN_DAY = 43200;\n\n    mapping(uint256 => loan) public loans;\n\n    constructor(uint256 initialSupply) ERC20(\"Gold\", \"GLD\") {\n        _mint(msg.sender, initialSupply);\n    }\n\n    function getloan(uint256 amount, uint256 period) public {\n        uint256 blocknumber = block.number;\n\n        uint256 interest = (amount * period * 5) / 30;\n\n        address initiator = msg.sender;\n        bool status = false;\n        uint256 price = getprice(loanid);\n        loan memory newloan = loan(\n            loanid,\n            amount,\n            price,\n            interest,\n            period,\n            blocknumber,\n            initiator,\n            status\n        );\n        loans[loanid] = newloan;\n        loanid++;\n    }\n\n    function disburseloan(uint256 loanid) public payable {\n        loan memory  myloan = loans[loanid];\n        require(myloan.initiator == msg.sender, \"no disbursement to other acc\");\n        require(\n            (myloan.amount + myloan.interest) / myloan.price <=\n                msg.value,\n            \"not enough xdc\"\n        );\n        require(\n            myloan.reqtimestamp + 600 >= block.number,\n            \"trying to scam my guy\"\n        );\n        require(myloan.status == false);\n        myloan.status = true;\n        _mint(msg.sender, myloan.amount);\n    }\n\n    function repayloan(uint256 loanid) public {\n        loan memory myloan = loans[loanid];\n        require(myloan.initiator == msg.sender, \"no disbursement to other acc\");\n        require(balanceOf(msg.sender) > myloan.amount, \"can't pay the loan\");\n        require(myloan.status == true);\n        _burn(msg.sender,myloan.amount);\n        address payable abc= payable(msg.sender);\n        abc.send((myloan.amount + myloan.interest) / myloan.price);\n        myloan.status = false;\n\n    }\n\n    function getprice(uint256 loanid) internal view returns (uint256) {\n        return 1;\n    }\n}\n",
  "sourcePath": "/home/kali/Documents/XDCstable/contracts/Stable.sol",
  "compiler": {
    "name": "solc",
    "version": "0.8.12+commit.f00d7308.Emscripten.clang"
  },
  "schemaVersion": "3.4.5",
  "updatedAt": "2022-12-17T22:18:49.612Z",
  "devdoc": {
    "kind": "dev",
    "methods": {
      "allowance(address,address)": {
        "details": "See {IERC20-allowance}."
      },
      "approve(address,uint256)": {
        "details": "See {IERC20-approve}. NOTE: If `amount` is the maximum `uint256`, the allowance is not updated on `transferFrom`. This is semantically equivalent to an infinite approval. Requirements: - `spender` cannot be the zero address."
      },
      "balanceOf(address)": {
        "details": "See {IERC20-balanceOf}."
      },
      "decimals()": {
        "details": "Returns the number of decimals used to get its user representation. For example, if `decimals` equals `2`, a balance of `505` tokens should be displayed to a user as `5.05` (`505 / 10 ** 2`). Tokens usually opt for a value of 18, imitating the relationship between Ether and Wei. This is the value {ERC20} uses, unless this function is overridden; NOTE: This information is only used for _display_ purposes: it in no way affects any of the arithmetic of the contract, including {IERC20-balanceOf} and {IERC20-transfer}."
      },
      "decreaseAllowance(address,uint256)": {
        "details": "Atomically decreases the allowance granted to `spender` by the caller. This is an alternative to {approve} that can be used as a mitigation for problems described in {IERC20-approve}. Emits an {Approval} event indicating the updated allowance. Requirements: - `spender` cannot be the zero address. - `spender` must have allowance for the caller of at least `subtractedValue`."
      },
      "increaseAllowance(address,uint256)": {
        "details": "Atomically increases the allowance granted to `spender` by the caller. This is an alternative to {approve} that can be used as a mitigation for problems described in {IERC20-approve}. Emits an {Approval} event indicating the updated allowance. Requirements: - `spender` cannot be the zero address."
      },
      "name()": {
        "details": "Returns the name of the token."
      },
      "symbol()": {
        "details": "Returns the symbol of the token, usually a shorter version of the name."
      },
      "totalSupply()": {
        "details": "See {IERC20-totalSupply}."
      },
      "transfer(address,uint256)": {
        "details": "See {IERC20-transfer}. Requirements: - `to` cannot be the zero address. - the caller must have a balance of at least `amount`."
      },
      "transferFrom(address,address,uint256)": {
        "details": "See {IERC20-transferFrom}. Emits an {Approval} event indicating the updated allowance. This is not required by the EIP. See the note at the beginning of {ERC20}. NOTE: Does not update the allowance if the current allowance is the maximum `uint256`. Requirements: - `from` and `to` cannot be the zero address. - `from` must have a balance of at least `amount`. - the caller must have allowance for ``from``'s tokens of at least `amount`."
      }
    },
    "version": 1
  },
  "userdoc": {
    "kind": "user",
    "methods": {},
    "version": 1
  }
}