{
  "contractName": "Stable",
  "abi": [
    {
      "inputs": [],
      "stateMutability": "nonpayable",
      "type": "constructor"
    },
    {
      "anonymous": false,
      "inputs": [
        {
          "indexed": true,
          "internalType": "address",
          "name": "owner",
          "type": "address"
        },
        {
          "indexed": true,
          "internalType": "address",
          "name": "spender",
          "type": "address"
        },
        {
          "indexed": false,
          "internalType": "uint256",
          "name": "value",
          "type": "uint256"
        }
      ],
      "name": "Approval",
      "type": "event"
    },
    {
      "anonymous": false,
      "inputs": [
        {
          "indexed": true,
          "internalType": "address",
          "name": "from",
          "type": "address"
        },
        {
          "indexed": true,
          "internalType": "address",
          "name": "to",
          "type": "address"
        },
        {
          "indexed": false,
          "internalType": "uint256",
          "name": "value",
          "type": "uint256"
        }
      ],
      "name": "Transfer",
      "type": "event"
    },
    {
      "inputs": [
        {
          "internalType": "address",
          "name": "owner",
          "type": "address"
        },
        {
          "internalType": "address",
          "name": "spender",
          "type": "address"
        }
      ],
      "name": "allowance",
      "outputs": [
        {
          "internalType": "uint256",
          "name": "",
          "type": "uint256"
        }
      ],
      "stateMutability": "view",
      "type": "function"
    },
    {
      "inputs": [
        {
          "internalType": "address",
          "name": "spender",
          "type": "address"
        },
        {
          "internalType": "uint256",
          "name": "amount",
          "type": "uint256"
        }
      ],
      "name": "approve",
      "outputs": [
        {
          "internalType": "bool",
          "name": "",
          "type": "bool"
        }
      ],
      "stateMutability": "nonpayable",
      "type": "function"
    },
    {
      "inputs": [
        {
          "internalType": "address",
          "name": "account",
          "type": "address"
        }
      ],
      "name": "balanceOf",
      "outputs": [
        {
          "internalType": "uint256",
          "name": "",
          "type": "uint256"
        }
      ],
      "stateMutability": "view",
      "type": "function"
    },
    {
      "inputs": [],
      "name": "decimals",
      "outputs": [
        {
          "internalType": "uint8",
          "name": "",
          "type": "uint8"
        }
      ],
      "stateMutability": "view",
      "type": "function"
    },
    {
      "inputs": [
        {
          "internalType": "address",
          "name": "spender",
          "type": "address"
        },
        {
          "internalType": "uint256",
          "name": "subtractedValue",
          "type": "uint256"
        }
      ],
      "name": "decreaseAllowance",
      "outputs": [
        {
          "internalType": "bool",
          "name": "",
          "type": "bool"
        }
      ],
      "stateMutability": "nonpayable",
      "type": "function"
    },
    {
      "inputs": [
        {
          "internalType": "address",
          "name": "spender",
          "type": "address"
        },
        {
          "internalType": "uint256",
          "name": "addedValue",
          "type": "uint256"
        }
      ],
      "name": "increaseAllowance",
      "outputs": [
        {
          "internalType": "bool",
          "name": "",
          "type": "bool"
        }
      ],
      "stateMutability": "nonpayable",
      "type": "function"
    },
    {
      "inputs": [
        {
          "internalType": "uint256",
          "name": "",
          "type": "uint256"
        }
      ],
      "name": "loans",
      "outputs": [
        {
          "internalType": "uint256",
          "name": "loanid",
          "type": "uint256"
        },
        {
          "internalType": "uint256",
          "name": "amount",
          "type": "uint256"
        },
        {
          "internalType": "uint256",
          "name": "price",
          "type": "uint256"
        },
        {
          "internalType": "uint256",
          "name": "interest",
          "type": "uint256"
        },
        {
          "internalType": "uint256",
          "name": "period",
          "type": "uint256"
        },
        {
          "internalType": "uint256",
          "name": "reqtimestamp",
          "type": "uint256"
        },
        {
          "internalType": "address",
          "name": "initiator",
          "type": "address"
        },
        {
          "internalType": "uint256",
          "name": "amountxdc",
          "type": "uint256"
        },
        {
          "internalType": "uint256",
          "name": "amountrawxdc",
          "type": "uint256"
        },
        {
          "internalType": "bool",
          "name": "status",
          "type": "bool"
        }
      ],
      "stateMutability": "view",
      "type": "function"
    },
    {
      "inputs": [],
      "name": "name",
      "outputs": [
        {
          "internalType": "string",
          "name": "",
          "type": "string"
        }
      ],
      "stateMutability": "view",
      "type": "function"
    },
    {
      "inputs": [],
      "name": "requestId",
      "outputs": [
        {
          "internalType": "bytes32",
          "name": "",
          "type": "bytes32"
        }
      ],
      "stateMutability": "view",
      "type": "function"
    },
    {
      "inputs": [],
      "name": "symbol",
      "outputs": [
        {
          "internalType": "string",
          "name": "",
          "type": "string"
        }
      ],
      "stateMutability": "view",
      "type": "function"
    },
    {
      "inputs": [],
      "name": "totalSupply",
      "outputs": [
        {
          "internalType": "uint256",
          "name": "",
          "type": "uint256"
        }
      ],
      "stateMutability": "view",
      "type": "function"
    },
    {
      "inputs": [
        {
          "internalType": "address",
          "name": "to",
          "type": "address"
        },
        {
          "internalType": "uint256",
          "name": "amount",
          "type": "uint256"
        }
      ],
      "name": "transfer",
      "outputs": [
        {
          "internalType": "bool",
          "name": "",
          "type": "bool"
        }
      ],
      "stateMutability": "nonpayable",
      "type": "function"
    },
    {
      "inputs": [
        {
          "internalType": "address",
          "name": "from",
          "type": "address"
        },
        {
          "internalType": "address",
          "name": "to",
          "type": "address"
        },
        {
          "internalType": "uint256",
          "name": "amount",
          "type": "uint256"
        }
      ],
      "name": "transferFrom",
      "outputs": [
        {
          "internalType": "bool",
          "name": "",
          "type": "bool"
        }
      ],
      "stateMutability": "nonpayable",
      "type": "function"
    },
    {
      "inputs": [],
      "name": "uniswapRouter",
      "outputs": [
        {
          "internalType": "contract IUniswapV2Router02",
          "name": "",
          "type": "address"
        }
      ],
      "stateMutability": "view",
      "type": "function"
    },
    {
      "inputs": [
        {
          "internalType": "uint256",
          "name": "amount",
          "type": "uint256"
        },
        {
          "internalType": "uint256",
          "name": "period",
          "type": "uint256"
        }
      ],
      "name": "getloan",
      "outputs": [],
      "stateMutability": "nonpayable",
      "type": "function"
    },
    {
      "inputs": [
        {
          "internalType": "uint256",
          "name": "loanid",
          "type": "uint256"
        }
      ],
      "name": "disburseloan",
      "outputs": [],
      "stateMutability": "payable",
      "type": "function"
    },
    {
      "inputs": [
        {
          "internalType": "uint256",
          "name": "loanid",
          "type": "uint256"
        }
      ],
      "name": "repayloan",
      "outputs": [],
      "stateMutability": "nonpayable",
      "type": "function"
    },
    {
      "inputs": [
        {
          "internalType": "uint256",
          "name": "loanid",
          "type": "uint256"
        }
      ],
      "name": "liquidate",
      "outputs": [],
      "stateMutability": "nonpayable",
      "type": "function"
    },
    {
      "inputs": [
        {
          "internalType": "uint256",
          "name": "loanid",
          "type": "uint256"
        }
      ],
      "name": "readloan",
      "outputs": [
        {
          "components": [
            {
              "internalType": "uint256",
              "name": "loanid",
              "type": "uint256"
            },
            {
              "internalType": "uint256",
              "name": "amount",
              "type": "uint256"
            },
            {
              "internalType": "uint256",
              "name": "price",
              "type": "uint256"
            },
            {
              "internalType": "uint256",
              "name": "interest",
              "type": "uint256"
            },
            {
              "internalType": "uint256",
              "name": "period",
              "type": "uint256"
            },
            {
              "internalType": "uint256",
              "name": "reqtimestamp",
              "type": "uint256"
            },
            {
              "internalType": "address",
              "name": "initiator",
              "type": "address"
            },
            {
              "internalType": "uint256",
              "name": "amountxdc",
              "type": "uint256"
            },
            {
              "internalType": "uint256",
              "name": "amountrawxdc",
              "type": "uint256"
            },
            {
              "internalType": "bool",
              "name": "status",
              "type": "bool"
            }
          ],
          "internalType": "struct Stable.loan",
          "name": "",
          "type": "tuple"
        }
      ],
      "stateMutability": "view",
      "type": "function"
    },
    {
      "inputs": [],
      "name": "show",
      "outputs": [
        {
          "internalType": "uint256",
          "name": "",
          "type": "uint256"
        }
      ],
      "stateMutability": "view",
      "type": "function"
    },
    {
      "inputs": [],
      "name": "depositpli",
      "outputs": [
        {
          "internalType": "bool",
          "name": "",
          "type": "bool"
        }
      ],
      "stateMutability": "nonpayable",
      "type": "function"
    },
    {
      "inputs": [],
      "name": "getPriceInfo",
      "outputs": [
        {
          "internalType": "bytes32",
          "name": "",
          "type": "bytes32"
        }
      ],
      "stateMutability": "nonpayable",
      "type": "function"
    },
    {
      "inputs": [],
      "name": "getAllLoan",
      "outputs": [
        {
          "components": [
            {
              "internalType": "uint256",
              "name": "loanid",
              "type": "uint256"
            },
            {
              "internalType": "uint256",
              "name": "amount",
              "type": "uint256"
            },
            {
              "internalType": "uint256",
              "name": "price",
              "type": "uint256"
            },
            {
              "internalType": "uint256",
              "name": "interest",
              "type": "uint256"
            },
            {
              "internalType": "uint256",
              "name": "period",
              "type": "uint256"
            },
            {
              "internalType": "uint256",
              "name": "reqtimestamp",
              "type": "uint256"
            },
            {
              "internalType": "address",
              "name": "initiator",
              "type": "address"
            },
            {
              "internalType": "uint256",
              "name": "amountxdc",
              "type": "uint256"
            },
            {
              "internalType": "uint256",
              "name": "amountrawxdc",
              "type": "uint256"
            },
            {
              "internalType": "bool",
              "name": "status",
              "type": "bool"
            }
          ],
          "internalType": "struct Stable.loan[]",
          "name": "",
          "type": "tuple[]"
        }
      ],
      "stateMutability": "view",
      "type": "function"
    },
    {
      "inputs": [],
      "name": "getMyLoan",
      "outputs": [
        {
          "components": [
            {
              "internalType": "uint256",
              "name": "loanid",
              "type": "uint256"
            },
            {
              "internalType": "uint256",
              "name": "amount",
              "type": "uint256"
            },
            {
              "internalType": "uint256",
              "name": "price",
              "type": "uint256"
            },
            {
              "internalType": "uint256",
              "name": "interest",
              "type": "uint256"
            },
            {
              "internalType": "uint256",
              "name": "period",
              "type": "uint256"
            },
            {
              "internalType": "uint256",
              "name": "reqtimestamp",
              "type": "uint256"
            },
            {
              "internalType": "address",
              "name": "initiator",
              "type": "address"
            },
            {
              "internalType": "uint256",
              "name": "amountxdc",
              "type": "uint256"
            },
            {
              "internalType": "uint256",
              "name": "amountrawxdc",
              "type": "uint256"
            },
            {
              "internalType": "bool",
              "name": "status",
              "type": "bool"
            }
          ],
          "internalType": "struct Stable.loan[]",
          "name": "",
          "type": "tuple[]"
        }
      ],
      "stateMutability": "view",
      "type": "function"
    }
  ],
  "bytecode": "0x60806040527376c9f2ffb2d84d5f1e60fce61597c9b0027fc636600560006101000a81548173ffffffffffffffffffffffffffffffffffffffff021916908373ffffffffffffffffffffffffffffffffffffffff160217905550600060085561a8c0600955732a5c77b016df1b3b0ae4e79a68f8adf64ee741ba600a60006101000a81548173ffffffffffffffffffffffffffffffffffffffff021916908373ffffffffffffffffffffffffffffffffffffffff16021790555073fdcf8bd44ec46a71a13f00f4328f6b65adc8bcf9600b60006101000a81548173ffffffffffffffffffffffffffffffffffffffff021916908373ffffffffffffffffffffffffffffffffffffffff1602179055503480156200011b57600080fd5b506040518060400160405280600481526020017f476f6c64000000000000000000000000000000000000000000000000000000008152506040518060400160405280600381526020017f474c4400000000000000000000000000000000000000000000000000000000008152508160039080519060200190620001a092919062000471565b508060049080519060200190620001b992919062000471565b505050733f11a24eb45d3c3737365b97a996949da6c2eddf600760006101000a81548173ffffffffffffffffffffffffffffffffffffffff021916908373ffffffffffffffffffffffffffffffffffffffff16021790555062000225336103e8620002ee60201b60201c565b7333f4212b027e22af7e6ba21fc572843c0d701cd173ffffffffffffffffffffffffffffffffffffffff1663095ea7b3600560009054906101000a900473ffffffffffffffffffffffffffffffffffffffff166802b5e3af16b18800006040518363ffffffff1660e01b8152600401620002a1929190620005bd565b6020604051808303816000875af1158015620002c1573d6000803e3d6000fd5b505050506040513d601f19601f82011682018060405250810190620002e791906200062c565b5062000800565b600073ffffffffffffffffffffffffffffffffffffffff168273ffffffffffffffffffffffffffffffffffffffff16141562000361576040517f08c379a00000000000000000000000000000000000000000000000000000000081526004016200035890620006bf565b60405180910390fd5b62000375600083836200046760201b60201c565b806002600082825462000389919062000710565b92505081905550806000808473ffffffffffffffffffffffffffffffffffffffff1673ffffffffffffffffffffffffffffffffffffffff1681526020019081526020016000206000828254620003e0919062000710565b925050819055508173ffffffffffffffffffffffffffffffffffffffff16600073ffffffffffffffffffffffffffffffffffffffff167fddf252ad1be2c89b69c2b068fc378daa952ba7f163c4a11628f55a4df523b3ef836040516200044791906200077e565b60405180910390a362000463600083836200046c60201b60201c565b5050565b505050565b505050565b8280546200047f90620007ca565b90600052602060002090601f016020900481019282620004a35760008555620004ef565b82601f10620004be57805160ff1916838001178555620004ef565b82800160010185558215620004ef579182015b82811115620004ee578251825591602001919060010190620004d1565b5b509050620004fe919062000502565b5090565b5b808211156200051d57600081600090555060010162000503565b5090565b600073ffffffffffffffffffffffffffffffffffffffff82169050919050565b60006200054e8262000521565b9050919050565b620005608162000541565b82525050565b6000819050919050565b6000819050919050565b6000819050919050565b6000620005a56200059f620005998462000566565b6200057a565b62000570565b9050919050565b620005b78162000584565b82525050565b6000604082019050620005d4600083018562000555565b620005e36020830184620005ac565b9392505050565b600080fd5b60008115159050919050565b6200060681620005ef565b81146200061257600080fd5b50565b6000815190506200062681620005fb565b92915050565b600060208284031215620006455762000644620005ea565b5b6000620006558482850162000615565b91505092915050565b600082825260208201905092915050565b7f45524332303a206d696e7420746f20746865207a65726f206164647265737300600082015250565b6000620006a7601f836200065e565b9150620006b4826200066f565b602082019050919050565b60006020820190508181036000830152620006da8162000698565b9050919050565b7f4e487b7100000000000000000000000000000000000000000000000000000000600052601160045260246000fd5b60006200071d8262000570565b91506200072a8362000570565b9250827fffffffffffffffffffffffffffffffffffffffffffffffffffffffffffffffff03821115620007625762000761620006e1565b5b828201905092915050565b620007788162000570565b82525050565b60006020820190506200079560008301846200076d565b92915050565b7f4e487b7100000000000000000000000000000000000000000000000000000000600052602260045260246000fd5b60006002820490506001821680620007e357607f821691505b60208210811415620007fa57620007f96200079b565b5b50919050565b613de280620008106000396000f3fe60806040526004361061014a5760003560e01c806370a08231116100b6578063a7f4935e1161006f578063a7f4935e146104ac578063a9059cbb146104d7578063cc80f6f314610514578063d39562741461053f578063dd62ed3e1461056a578063e1ec3c68146105a75761014a565b806370a0823114610395578063735de9f7146103d25780639227c28c146103fd57806395d89b411461042857806399fee6cd14610453578063a457c2d71461046f5761014a565b806323b872dd1161010857806323b872dd1461025f578063313ce5671461029c578063330227bf146102c757806339509351146102f2578063415f12401461032f57806344ac9b7e146103585761014a565b80626d6cae1461014f57806306fdde031461017a578063095ea7b3146101a557806315eb0ee6146101e257806318160ddd1461020b578063236d389814610236575b600080fd5b34801561015b57600080fd5b506101646105ed565b60405161017191906126c6565b60405180910390f35b34801561018657600080fd5b5061018f6105f3565b60405161019c919061277a565b60405180910390f35b3480156101b157600080fd5b506101cc60048036038101906101c79190612844565b610685565b6040516101d9919061289f565b60405180910390f35b3480156101ee57600080fd5b50610209600480360381019061020491906128ba565b6106a8565b005b34801561021757600080fd5b50610220610997565b60405161022d91906128f6565b60405180910390f35b34801561024257600080fd5b5061025d60048036038101906102589190612911565b6109a1565b005b34801561026b57600080fd5b5061028660048036038101906102819190612951565b610c0f565b604051610293919061289f565b60405180910390f35b3480156102a857600080fd5b506102b1610c3e565b6040516102be91906129c0565b60405180910390f35b3480156102d357600080fd5b506102dc610c47565b6040516102e991906126c6565b60405180910390f35b3480156102fe57600080fd5b5061031960048036038101906103149190612844565b610cf5565b604051610326919061289f565b60405180910390f35b34801561033b57600080fd5b50610356600480360381019061035191906128ba565b610d9f565b005b34801561036457600080fd5b5061037f600480360381019061037a91906128ba565b611262565b60405161038c9190612ad4565b60405180910390f35b3480156103a157600080fd5b506103bc60048036038101906103b79190612af0565b611351565b6040516103c991906128f6565b60405180910390f35b3480156103de57600080fd5b506103e7611399565b6040516103f49190612b7c565b60405180910390f35b34801561040957600080fd5b506104126113bf565b60405161041f9190612d13565b60405180910390f35b34801561043457600080fd5b5061043d611547565b60405161044a919061277a565b60405180910390f35b61046d600480360381019061046891906128ba565b6115d9565b005b34801561047b57600080fd5b5061049660048036038101906104919190612844565b6118d4565b6040516104a3919061289f565b60405180910390f35b3480156104b857600080fd5b506104c16119be565b6040516104ce9190612d13565b60405180910390f35b3480156104e357600080fd5b506104fe60048036038101906104f99190612844565b611bb1565b60405161050b919061289f565b60405180910390f35b34801561052057600080fd5b50610529611bd4565b60405161053691906128f6565b60405180910390f35b34801561054b57600080fd5b50610554611c6c565b604051610561919061289f565b60405180910390f35b34801561057657600080fd5b50610591600480360381019061058c9190612d35565b611d19565b60405161059e91906128f6565b60405180910390f35b3480156105b357600080fd5b506105ce60048036038101906105c991906128ba565b611da0565b6040516105e49a99989796959493929190612d84565b60405180910390f35b60065481565b60606003805461060290612e4f565b80601f016020809104026020016040519081016040528092919081815260200182805461062e90612e4f565b801561067b5780601f106106505761010080835404028352916020019161067b565b820191906000526020600020905b81548152906001019060200180831161065e57829003601f168201915b5050505050905090565b600080610690611e21565b905061069d818585611e29565b600191505092915050565b6000600c6000838152602001908152602001600020604051806101400160405290816000820154815260200160018201548152602001600282015481526020016003820154815260200160048201548152602001600582015481526020016006820160009054906101000a900473ffffffffffffffffffffffffffffffffffffffff1673ffffffffffffffffffffffffffffffffffffffff1673ffffffffffffffffffffffffffffffffffffffff16815260200160078201548152602001600882015481526020016009820160009054906101000a900460ff16151515158152505090503373ffffffffffffffffffffffffffffffffffffffff168160c0015173ffffffffffffffffffffffffffffffffffffffff16146107fe576040517f08c379a00000000000000000000000000000000000000000000000000000000081526004016107f590612ecd565b60405180910390fd5b806020015161080c33611351565b1161084c576040517f08c379a000000000000000000000000000000000000000000000000000000000815260040161084390612f39565b60405180910390fd5b6001151581610120015115151461086257600080fd5b610870338260200151611ff4565b60003390508073ffffffffffffffffffffffffffffffffffffffff166108fc8361010001519081150290604051600060405180830381858888f193505050505060008261012001901515908115158152505081600c6000858152602001908152602001600020600082015181600001556020820151816001015560408201518160020155606082015181600301556080820151816004015560a0820151816005015560c08201518160060160006101000a81548173ffffffffffffffffffffffffffffffffffffffff021916908373ffffffffffffffffffffffffffffffffffffffff16021790555060e0820151816007015561010082015181600801556101208201518160090160006101000a81548160ff021916908315150217905550905050505050565b6000600254905090565b600182116109e4576040517f08c379a00000000000000000000000000000000000000000000000000000000081526004016109db90612fa5565b60405180910390fd5b60018111610a27576040517f08c379a0000000000000000000000000000000000000000000000000000000008152600401610a1e90613011565b60405180910390fd5b6000439050610a34610c47565b506000610bb860058486610a489190613060565b610a529190613060565b610a5c91906130e9565b90506000339050600080610a6e611bd4565b9050600061271082868a610a82919061311a565b610a8c91906130e9565b610a969190613060565b90506000612710838a610aa991906130e9565b610ab39190613060565b9050600060405180610140016040528060085481526020018b81526020018581526020018881526020018a81526020018981526020018773ffffffffffffffffffffffffffffffffffffffff168152602001848152602001838152602001861515815250905080600c60006008548152602001908152602001600020600082015181600001556020820151816001015560408201518160020155606082015181600301556080820151816004015560a0820151816005015560c08201518160060160006101000a81548173ffffffffffffffffffffffffffffffffffffffff021916908373ffffffffffffffffffffffffffffffffffffffff16021790555060e0820151816007015561010082015181600801556101208201518160090160006101000a81548160ff02191690831515021790555090505060086000815480929190610bfe90613170565b919050555050505050505050505050565b600080610c1a611e21565b9050610c278582856121cb565b610c32858585612257565b60019150509392505050565b60006012905090565b6000600560009054906101000a900473ffffffffffffffffffffffffffffffffffffffff1673ffffffffffffffffffffffffffffffffffffffff16639dd4cc5d306040518263ffffffff1660e01b8152600401610ca491906131b9565b6020604051808303816000875af1158015610cc3573d6000803e3d6000fd5b505050506040513d601f19601f82011682018060405250810190610ce79190613200565b600681905550600654905090565b600080610d00611e21565b9050610d94818585600160008673ffffffffffffffffffffffffffffffffffffffff1673ffffffffffffffffffffffffffffffffffffffff16815260200190815260200160002060008973ffffffffffffffffffffffffffffffffffffffff1673ffffffffffffffffffffffffffffffffffffffff16815260200190815260200160002054610d8f919061311a565b611e29565b600191505092915050565b6000600c6000838152602001908152602001600020604051806101400160405290816000820154815260200160018201548152602001600282015481526020016003820154815260200160048201548152602001600582015481526020016006820160009054906101000a900473ffffffffffffffffffffffffffffffffffffffff1673ffffffffffffffffffffffffffffffffffffffff1673ffffffffffffffffffffffffffffffffffffffff16815260200160078201548152602001600882015481526020016009820160009054906101000a900460ff16151515158152505090506000610e8d611bd4565b9050438260a001518360800151610ea4919061311a565b1180610eeb57508160200151600a600b655af3107a4000848660e00151610ecb9190613060565b610ed59190613060565b610edf9190613060565b610ee991906130e9565b105b610f2a576040517f08c379a0000000000000000000000000000000000000000000000000000000008152600401610f21906132c5565b60405180910390fd5b60011515826101200151151514610f76576040517f08c379a0000000000000000000000000000000000000000000000000000000008152600401610f6d90613331565b60405180910390fd5b6000826040015183606001518460200151610f91919061311a565b610f9b91906130e9565b90506000600267ffffffffffffffff811115610fba57610fb9613351565b5b604051908082528060200260200182016040528015610fe85781602001602082028036833780820191505090505b509050600a60009054906101000a900473ffffffffffffffffffffffffffffffffffffffff168160008151811061102257611021613380565b5b602002602001019073ffffffffffffffffffffffffffffffffffffffff16908173ffffffffffffffffffffffffffffffffffffffff1681525050600b60009054906101000a900473ffffffffffffffffffffffffffffffffffffffff168160018151811061109357611092613380565b5b602002602001019073ffffffffffffffffffffffffffffffffffffffff16908173ffffffffffffffffffffffffffffffffffffffff1681525050600760009054906101000a900473ffffffffffffffffffffffffffffffffffffffff1673ffffffffffffffffffffffffffffffffffffffff16637ff36ab58360008433426040518663ffffffff1660e01b81526004016111309493929190613499565b60006040518083038185885af115801561114e573d6000803e3d6000fd5b50505050506040513d6000823e3d601f19601f820116820180604052508101906111789190613613565b5060008461012001901515908115158152505083600c6000878152602001908152602001600020600082015181600001556020820151816001015560408201518160020155606082015181600301556080820151816004015560a0820151816005015560c08201518160060160006101000a81548173ffffffffffffffffffffffffffffffffffffffff021916908373ffffffffffffffffffffffffffffffffffffffff16021790555060e0820151816007015561010082015181600801556101208201518160090160006101000a81548160ff0219169083151502179055509050505050505050565b61126a612642565b600c6000838152602001908152602001600020604051806101400160405290816000820154815260200160018201548152602001600282015481526020016003820154815260200160048201548152602001600582015481526020016006820160009054906101000a900473ffffffffffffffffffffffffffffffffffffffff1673ffffffffffffffffffffffffffffffffffffffff1673ffffffffffffffffffffffffffffffffffffffff16815260200160078201548152602001600882015481526020016009820160009054906101000a900460ff1615151515815250509050919050565b60008060008373ffffffffffffffffffffffffffffffffffffffff1673ffffffffffffffffffffffffffffffffffffffff168152602001908152602001600020549050919050565b600760009054906101000a900473ffffffffffffffffffffffffffffffffffffffff1681565b6060600060085467ffffffffffffffff8111156113df576113de613351565b5b60405190808252806020026020018201604052801561141857816020015b611405612642565b8152602001906001900390816113fd5790505b50905060005b60085481101561153f576000600c6000838152602001908152602001600020905080604051806101400160405290816000820154815260200160018201548152602001600282015481526020016003820154815260200160048201548152602001600582015481526020016006820160009054906101000a900473ffffffffffffffffffffffffffffffffffffffff1673ffffffffffffffffffffffffffffffffffffffff1673ffffffffffffffffffffffffffffffffffffffff16815260200160078201548152602001600882015481526020016009820160009054906101000a900460ff1615151515815250508383815181106115205761151f613380565b5b602002602001018190525050808061153790613170565b91505061141e565b508091505090565b60606004805461155690612e4f565b80601f016020809104026020016040519081016040528092919081815260200182805461158290612e4f565b80156115cf5780601f106115a4576101008083540402835291602001916115cf565b820191906000526020600020905b8154815290600101906020018083116115b257829003601f168201915b5050505050905090565b6000600c6000838152602001908152602001600020604051806101400160405290816000820154815260200160018201548152602001600282015481526020016003820154815260200160048201548152602001600582015481526020016006820160009054906101000a900473ffffffffffffffffffffffffffffffffffffffff1673ffffffffffffffffffffffffffffffffffffffff1673ffffffffffffffffffffffffffffffffffffffff16815260200160078201548152602001600882015481526020016009820160009054906101000a900460ff16151515158152505090503373ffffffffffffffffffffffffffffffffffffffff168160c0015173ffffffffffffffffffffffffffffffffffffffff161461172f576040517f08c379a000000000000000000000000000000000000000000000000000000000815260040161172690612ecd565b60405180910390fd5b348160e001511115611776576040517f08c379a000000000000000000000000000000000000000000000000000000000815260040161176d906136a8565b60405180910390fd5b436102588260a00151611789919061311a565b10156117ca576040517f08c379a00000000000000000000000000000000000000000000000000000000081526004016117c190613714565b60405180910390fd5b600015158161012001511515146117e057600080fd5b60018161012001901515908115158152505080600c6000848152602001908152602001600020600082015181600001556020820151816001015560408201518160020155606082015181600301556080820151816004015560a0820151816005015560c08201518160060160006101000a81548173ffffffffffffffffffffffffffffffffffffffff021916908373ffffffffffffffffffffffffffffffffffffffff16021790555060e0820151816007015561010082015181600801556101208201518160090160006101000a81548160ff0219169083151502179055509050506118d03382602001516124d8565b5050565b6000806118df611e21565b90506000600160008373ffffffffffffffffffffffffffffffffffffffff1673ffffffffffffffffffffffffffffffffffffffff16815260200190815260200160002060008673ffffffffffffffffffffffffffffffffffffffff1673ffffffffffffffffffffffffffffffffffffffff168152602001908152602001600020549050838110156119a5576040517f08c379a000000000000000000000000000000000000000000000000000000000815260040161199c906137a6565b60405180910390fd5b6119b28286868403611e29565b60019250505092915050565b6060600060085467ffffffffffffffff8111156119de576119dd613351565b5b604051908082528060200260200182016040528015611a1757816020015b611a04612642565b8152602001906001900390816119fc5790505b50905060005b600854811015611ba9573373ffffffffffffffffffffffffffffffffffffffff16600c600083815260200190815260200160002060060160009054906101000a900473ffffffffffffffffffffffffffffffffffffffff1673ffffffffffffffffffffffffffffffffffffffff161415611b96576000600c6000838152602001908152602001600020905080604051806101400160405290816000820154815260200160018201548152602001600282015481526020016003820154815260200160048201548152602001600582015481526020016006820160009054906101000a900473ffffffffffffffffffffffffffffffffffffffff1673ffffffffffffffffffffffffffffffffffffffff1673ffffffffffffffffffffffffffffffffffffffff16815260200160078201548152602001600882015481526020016009820160009054906101000a900460ff161515151581525050838381518110611b8957611b88613380565b5b6020026020010181905250505b8080611ba190613170565b915050611a1d565b508091505090565b600080611bbc611e21565b9050611bc9818585612257565b600191505092915050565b6000600560009054906101000a900473ffffffffffffffffffffffffffffffffffffffff1673ffffffffffffffffffffffffffffffffffffffff16638e0e0abb6040518163ffffffff1660e01b8152600401602060405180830381865afa158015611c43573d6000803e3d6000fd5b505050506040513d601f19601f82011682018060405250810190611c6791906137c6565b905090565b6000600560009054906101000a900473ffffffffffffffffffffffffffffffffffffffff1673ffffffffffffffffffffffffffffffffffffffff1663d378d5eb6706f05b59d3b200006040518263ffffffff1660e01b8152600401611cd1919061382e565b6020604051808303816000875af1158015611cf0573d6000803e3d6000fd5b505050506040513d601f19601f82011682018060405250810190611d149190613875565b905090565b6000600160008473ffffffffffffffffffffffffffffffffffffffff1673ffffffffffffffffffffffffffffffffffffffff16815260200190815260200160002060008373ffffffffffffffffffffffffffffffffffffffff1673ffffffffffffffffffffffffffffffffffffffff16815260200190815260200160002054905092915050565b600c6020528060005260406000206000915090508060000154908060010154908060020154908060030154908060040154908060050154908060060160009054906101000a900473ffffffffffffffffffffffffffffffffffffffff16908060070154908060080154908060090160009054906101000a900460ff1690508a565b600033905090565b600073ffffffffffffffffffffffffffffffffffffffff168373ffffffffffffffffffffffffffffffffffffffff161415611e99576040517f08c379a0000000000000000000000000000000000000000000000000000000008152600401611e9090613914565b60405180910390fd5b600073ffffffffffffffffffffffffffffffffffffffff168273ffffffffffffffffffffffffffffffffffffffff161415611f09576040517f08c379a0000000000000000000000000000000000000000000000000000000008152600401611f00906139a6565b60405180910390fd5b80600160008573ffffffffffffffffffffffffffffffffffffffff1673ffffffffffffffffffffffffffffffffffffffff16815260200190815260200160002060008473ffffffffffffffffffffffffffffffffffffffff1673ffffffffffffffffffffffffffffffffffffffff168152602001908152602001600020819055508173ffffffffffffffffffffffffffffffffffffffff168373ffffffffffffffffffffffffffffffffffffffff167f8c5be1e5ebec7d5bd14f71427d1e84f3dd0314c0f7b2291e5b200ac8c7c3b92583604051611fe791906128f6565b60405180910390a3505050565b600073ffffffffffffffffffffffffffffffffffffffff168273ffffffffffffffffffffffffffffffffffffffff161415612064576040517f08c379a000000000000000000000000000000000000000000000000000000000815260040161205b90613a38565b60405180910390fd5b61207082600083612638565b60008060008473ffffffffffffffffffffffffffffffffffffffff1673ffffffffffffffffffffffffffffffffffffffff168152602001908152602001600020549050818110156120f6576040517f08c379a00000000000000000000000000000000000000000000000000000000081526004016120ed90613aca565b60405180910390fd5b8181036000808573ffffffffffffffffffffffffffffffffffffffff1673ffffffffffffffffffffffffffffffffffffffff16815260200190815260200160002081905550816002600082825461214d9190613aea565b92505081905550600073ffffffffffffffffffffffffffffffffffffffff168373ffffffffffffffffffffffffffffffffffffffff167fddf252ad1be2c89b69c2b068fc378daa952ba7f163c4a11628f55a4df523b3ef846040516121b291906128f6565b60405180910390a36121c68360008461263d565b505050565b60006121d78484611d19565b90507fffffffffffffffffffffffffffffffffffffffffffffffffffffffffffffffff81146122515781811015612243576040517f08c379a000000000000000000000000000000000000000000000000000000000815260040161223a90613b6a565b60405180910390fd5b6122508484848403611e29565b5b50505050565b600073ffffffffffffffffffffffffffffffffffffffff168373ffffffffffffffffffffffffffffffffffffffff1614156122c7576040517f08c379a00000000000000000000000000000000000000000000000000000000081526004016122be90613bfc565b60405180910390fd5b600073ffffffffffffffffffffffffffffffffffffffff168273ffffffffffffffffffffffffffffffffffffffff161415612337576040517f08c379a000000000000000000000000000000000000000000000000000000000815260040161232e90613c8e565b60405180910390fd5b612342838383612638565b60008060008573ffffffffffffffffffffffffffffffffffffffff1673ffffffffffffffffffffffffffffffffffffffff168152602001908152602001600020549050818110156123c8576040517f08c379a00000000000000000000000000000000000000000000000000000000081526004016123bf90613d20565b60405180910390fd5b8181036000808673ffffffffffffffffffffffffffffffffffffffff1673ffffffffffffffffffffffffffffffffffffffff16815260200190815260200160002081905550816000808573ffffffffffffffffffffffffffffffffffffffff1673ffffffffffffffffffffffffffffffffffffffff168152602001908152602001600020600082825461245b919061311a565b925050819055508273ffffffffffffffffffffffffffffffffffffffff168473ffffffffffffffffffffffffffffffffffffffff167fddf252ad1be2c89b69c2b068fc378daa952ba7f163c4a11628f55a4df523b3ef846040516124bf91906128f6565b60405180910390a36124d284848461263d565b50505050565b600073ffffffffffffffffffffffffffffffffffffffff168273ffffffffffffffffffffffffffffffffffffffff161415612548576040517f08c379a000000000000000000000000000000000000000000000000000000000815260040161253f90613d8c565b60405180910390fd5b61255460008383612638565b8060026000828254612566919061311a565b92505081905550806000808473ffffffffffffffffffffffffffffffffffffffff1673ffffffffffffffffffffffffffffffffffffffff16815260200190815260200160002060008282546125bb919061311a565b925050819055508173ffffffffffffffffffffffffffffffffffffffff16600073ffffffffffffffffffffffffffffffffffffffff167fddf252ad1be2c89b69c2b068fc378daa952ba7f163c4a11628f55a4df523b3ef8360405161262091906128f6565b60405180910390a36126346000838361263d565b5050565b505050565b505050565b604051806101400160405280600081526020016000815260200160008152602001600081526020016000815260200160008152602001600073ffffffffffffffffffffffffffffffffffffffff16815260200160008152602001600081526020016000151581525090565b6000819050919050565b6126c0816126ad565b82525050565b60006020820190506126db60008301846126b7565b92915050565b600081519050919050565b600082825260208201905092915050565b60005b8381101561271b578082015181840152602081019050612700565b8381111561272a576000848401525b50505050565b6000601f19601f8301169050919050565b600061274c826126e1565b61275681856126ec565b93506127668185602086016126fd565b61276f81612730565b840191505092915050565b600060208201905081810360008301526127948184612741565b905092915050565b6000604051905090565b600080fd5b600080fd5b600073ffffffffffffffffffffffffffffffffffffffff82169050919050565b60006127db826127b0565b9050919050565b6127eb816127d0565b81146127f657600080fd5b50565b600081359050612808816127e2565b92915050565b6000819050919050565b6128218161280e565b811461282c57600080fd5b50565b60008135905061283e81612818565b92915050565b6000806040838503121561285b5761285a6127a6565b5b6000612869858286016127f9565b925050602061287a8582860161282f565b9150509250929050565b60008115159050919050565b61289981612884565b82525050565b60006020820190506128b46000830184612890565b92915050565b6000602082840312156128d0576128cf6127a6565b5b60006128de8482850161282f565b91505092915050565b6128f08161280e565b82525050565b600060208201905061290b60008301846128e7565b92915050565b60008060408385031215612928576129276127a6565b5b60006129368582860161282f565b92505060206129478582860161282f565b9150509250929050565b60008060006060848603121561296a576129696127a6565b5b6000612978868287016127f9565b9350506020612989868287016127f9565b925050604061299a8682870161282f565b9150509250925092565b600060ff82169050919050565b6129ba816129a4565b82525050565b60006020820190506129d560008301846129b1565b92915050565b6129e48161280e565b82525050565b6129f3816127d0565b82525050565b612a0281612884565b82525050565b61014082016000820151612a1f60008501826129db565b506020820151612a3260208501826129db565b506040820151612a4560408501826129db565b506060820151612a5860608501826129db565b506080820151612a6b60808501826129db565b5060a0820151612a7e60a08501826129db565b5060c0820151612a9160c08501826129ea565b5060e0820151612aa460e08501826129db565b50610100820151612ab96101008501826129db565b50610120820151612ace6101208501826129f9565b50505050565b600061014082019050612aea6000830184612a08565b92915050565b600060208284031215612b0657612b056127a6565b5b6000612b14848285016127f9565b91505092915050565b6000819050919050565b6000612b42612b3d612b38846127b0565b612b1d565b6127b0565b9050919050565b6000612b5482612b27565b9050919050565b6000612b6682612b49565b9050919050565b612b7681612b5b565b82525050565b6000602082019050612b916000830184612b6d565b92915050565b600081519050919050565b600082825260208201905092915050565b6000819050602082019050919050565b61014082016000820151612bda60008501826129db565b506020820151612bed60208501826129db565b506040820151612c0060408501826129db565b506060820151612c1360608501826129db565b506080820151612c2660808501826129db565b5060a0820151612c3960a08501826129db565b5060c0820151612c4c60c08501826129ea565b5060e0820151612c5f60e08501826129db565b50610100820151612c746101008501826129db565b50610120820151612c896101208501826129f9565b50505050565b6000612c9b8383612bc3565b6101408301905092915050565b6000602082019050919050565b6000612cc082612b97565b612cca8185612ba2565b9350612cd583612bb3565b8060005b83811015612d06578151612ced8882612c8f565b9750612cf883612ca8565b925050600181019050612cd9565b5085935050505092915050565b60006020820190508181036000830152612d2d8184612cb5565b905092915050565b60008060408385031215612d4c57612d4b6127a6565b5b6000612d5a858286016127f9565b9250506020612d6b858286016127f9565b9150509250929050565b612d7e816127d0565b82525050565b600061014082019050612d9a600083018d6128e7565b612da7602083018c6128e7565b612db4604083018b6128e7565b612dc1606083018a6128e7565b612dce60808301896128e7565b612ddb60a08301886128e7565b612de860c0830187612d75565b612df560e08301866128e7565b612e036101008301856128e7565b612e11610120830184612890565b9b9a5050505050505050505050565b7f4e487b7100000000000000000000000000000000000000000000000000000000600052602260045260246000fd5b60006002820490506001821680612e6757607f821691505b60208210811415612e7b57612e7a612e20565b5b50919050565b7f6e6f2064697362757273656d656e7420746f206f746865722061636300000000600082015250565b6000612eb7601c836126ec565b9150612ec282612e81565b602082019050919050565b60006020820190508181036000830152612ee681612eaa565b9050919050565b7f63616e27742070617920746865206c6f616e0000000000000000000000000000600082015250565b6000612f236012836126ec565b9150612f2e82612eed565b602082019050919050565b60006020820190508181036000830152612f5281612f16565b9050919050565b7f76657279206c65737320616d6f756e74206e6f206c6f616e206e656564656400600082015250565b6000612f8f601f836126ec565b9150612f9a82612f59565b602082019050919050565b60006020820190508181036000830152612fbe81612f82565b9050919050565b7f706c6561736520696e6372656173652074686520706572696f64000000000000600082015250565b6000612ffb601a836126ec565b915061300682612fc5565b602082019050919050565b6000602082019050818103600083015261302a81612fee565b9050919050565b7f4e487b7100000000000000000000000000000000000000000000000000000000600052601160045260246000fd5b600061306b8261280e565b91506130768361280e565b9250817fffffffffffffffffffffffffffffffffffffffffffffffffffffffffffffffff04831182151516156130af576130ae613031565b5b828202905092915050565b7f4e487b7100000000000000000000000000000000000000000000000000000000600052601260045260246000fd5b60006130f48261280e565b91506130ff8361280e565b92508261310f5761310e6130ba565b5b828204905092915050565b60006131258261280e565b91506131308361280e565b9250827fffffffffffffffffffffffffffffffffffffffffffffffffffffffffffffffff0382111561316557613164613031565b5b828201905092915050565b600061317b8261280e565b91507fffffffffffffffffffffffffffffffffffffffffffffffffffffffffffffffff8214156131ae576131ad613031565b5b600182019050919050565b60006020820190506131ce6000830184612d75565b92915050565b6131dd816126ad565b81146131e857600080fd5b50565b6000815190506131fa816131d4565b92915050565b600060208284031215613216576132156127a6565b5b6000613224848285016131eb565b91505092915050565b7f63616e6e6f74206c6971756964617465206561726c79206f722074686520616d60008201527f6f756e742074686520616d6f756e74206973207374696c6c20636f6c6c61746560208201527f72697a6564000000000000000000000000000000000000000000000000000000604082015250565b60006132af6045836126ec565b91506132ba8261322d565b606082019050919050565b600060208201905081810360008301526132de816132a2565b9050919050565b7f6974206d75737420626520747275650000000000000000000000000000000000600082015250565b600061331b600f836126ec565b9150613326826132e5565b602082019050919050565b6000602082019050818103600083015261334a8161330e565b9050919050565b7f4e487b7100000000000000000000000000000000000000000000000000000000600052604160045260246000fd5b7f4e487b7100000000000000000000000000000000000000000000000000000000600052603260045260246000fd5b6000819050919050565b60006133d46133cf6133ca846133af565b612b1d565b61280e565b9050919050565b6133e4816133b9565b82525050565b600081519050919050565b600082825260208201905092915050565b6000819050602082019050919050565b600061342283836129ea565b60208301905092915050565b6000602082019050919050565b6000613446826133ea565b61345081856133f5565b935061345b83613406565b8060005b8381101561348c5781516134738882613416565b975061347e8361342e565b92505060018101905061345f565b5085935050505092915050565b60006080820190506134ae60008301876133db565b81810360208301526134c0818661343b565b90506134cf6040830185612d75565b6134dc60608301846128e7565b95945050505050565b600080fd5b6134f382612730565b810181811067ffffffffffffffff8211171561351257613511613351565b5b80604052505050565b600061352561279c565b905061353182826134ea565b919050565b600067ffffffffffffffff82111561355157613550613351565b5b602082029050602081019050919050565b600080fd5b60008151905061357681612818565b92915050565b600061358f61358a84613536565b61351b565b905080838252602082019050602084028301858111156135b2576135b1613562565b5b835b818110156135db57806135c78882613567565b8452602084019350506020810190506135b4565b5050509392505050565b600082601f8301126135fa576135f96134e5565b5b815161360a84826020860161357c565b91505092915050565b600060208284031215613629576136286127a6565b5b600082015167ffffffffffffffff811115613647576136466127ab565b5b613653848285016135e5565b91505092915050565b7f6e6f7420656e6f75676820786463000000000000000000000000000000000000600082015250565b6000613692600e836126ec565b915061369d8261365c565b602082019050919050565b600060208201905081810360008301526136c181613685565b9050919050565b7f747279696e6720746f207363616d206d79206775790000000000000000000000600082015250565b60006136fe6015836126ec565b9150613709826136c8565b602082019050919050565b6000602082019050818103600083015261372d816136f1565b9050919050565b7f45524332303a2064656372656173656420616c6c6f77616e63652062656c6f7760008201527f207a65726f000000000000000000000000000000000000000000000000000000602082015250565b60006137906025836126ec565b915061379b82613734565b604082019050919050565b600060208201905081810360008301526137bf81613783565b9050919050565b6000602082840312156137dc576137db6127a6565b5b60006137ea84828501613567565b91505092915050565b6000819050919050565b600061381861381361380e846137f3565b612b1d565b61280e565b9050919050565b613828816137fd565b82525050565b6000602082019050613843600083018461381f565b92915050565b61385281612884565b811461385d57600080fd5b50565b60008151905061386f81613849565b92915050565b60006020828403121561388b5761388a6127a6565b5b600061389984828501613860565b91505092915050565b7f45524332303a20617070726f76652066726f6d20746865207a65726f2061646460008201527f7265737300000000000000000000000000000000000000000000000000000000602082015250565b60006138fe6024836126ec565b9150613909826138a2565b604082019050919050565b6000602082019050818103600083015261392d816138f1565b9050919050565b7f45524332303a20617070726f766520746f20746865207a65726f20616464726560008201527f7373000000000000000000000000000000000000000000000000000000000000602082015250565b60006139906022836126ec565b915061399b82613934565b604082019050919050565b600060208201905081810360008301526139bf81613983565b9050919050565b7f45524332303a206275726e2066726f6d20746865207a65726f2061646472657360008201527f7300000000000000000000000000000000000000000000000000000000000000602082015250565b6000613a226021836126ec565b9150613a2d826139c6565b604082019050919050565b60006020820190508181036000830152613a5181613a15565b9050919050565b7f45524332303a206275726e20616d6f756e7420657863656564732062616c616e60008201527f6365000000000000000000000000000000000000000000000000000000000000602082015250565b6000613ab46022836126ec565b9150613abf82613a58565b604082019050919050565b60006020820190508181036000830152613ae381613aa7565b9050919050565b6000613af58261280e565b9150613b008361280e565b925082821015613b1357613b12613031565b5b828203905092915050565b7f45524332303a20696e73756666696369656e7420616c6c6f77616e6365000000600082015250565b6000613b54601d836126ec565b9150613b5f82613b1e565b602082019050919050565b60006020820190508181036000830152613b8381613b47565b9050919050565b7f45524332303a207472616e736665722066726f6d20746865207a65726f20616460008201527f6472657373000000000000000000000000000000000000000000000000000000602082015250565b6000613be66025836126ec565b9150613bf182613b8a565b604082019050919050565b60006020820190508181036000830152613c1581613bd9565b9050919050565b7f45524332303a207472616e7366657220746f20746865207a65726f206164647260008201527f6573730000000000000000000000000000000000000000000000000000000000602082015250565b6000613c786023836126ec565b9150613c8382613c1c565b604082019050919050565b60006020820190508181036000830152613ca781613c6b565b9050919050565b7f45524332303a207472616e7366657220616d6f756e742065786365656473206260008201527f616c616e63650000000000000000000000000000000000000000000000000000602082015250565b6000613d0a6026836126ec565b9150613d1582613cae565b604082019050919050565b60006020820190508181036000830152613d3981613cfd565b9050919050565b7f45524332303a206d696e7420746f20746865207a65726f206164647265737300600082015250565b6000613d76601f836126ec565b9150613d8182613d40565b602082019050919050565b60006020820190508181036000830152613da581613d69565b905091905056fea2646970667358221220166dde09aecd4c3301fec99f607a23bc8d0628f682fec8e8d6a3cd1d762c313e64736f6c634300080c0033",
  "immutableReferences": {},
  "source": "import \"@openzeppelin/contracts/token/ERC20/ERC20.sol\";\nimport \"@uniswap/v2-periphery/contracts/interfaces/IUniswapV2Router02.sol\";\npragma experimental ABIEncoderV2;\n\ninterface IInvokeOracle {\n    function requestData(address _caller) external returns (bytes32 requestId);\n\n    function showPrice() external view returns (uint256);\n\n    function depositPLI(uint256 _value) external returns (bool);\n}\n\ninterface KRC20 {\n    function approve(address spender, uint256 amount) external returns (bool);\n}\n\ncontract Stable is ERC20 {\n    struct loan {\n        uint256 loanid;\n        uint256 amount;\n        uint256 price;\n        uint256 interest;\n        uint256 period;\n        uint256 reqtimestamp;\n        address initiator;\n        uint256 amountxdc;\n        uint256 amountrawxdc;\n        bool status;\n    }\n\n    address CONTRACTADDR = 0x76c9F2fFb2d84d5f1e60Fce61597C9B0027fc636;\n    bytes32 public requestId;\n\n    IUniswapV2Router02 public uniswapRouter;\n    uint256 loanid = 0;\n    uint256 BLOCK_IN_DAY = 43200;\n    address WXDC = 0x2a5c77b016Df1b3b0AE4E79a68F8adF64Ee741ba;\n    address toyo = 0xFdCf8bD44EC46a71a13f00F4328F6b65adc8BCf9;\n    mapping(uint256 => loan) public loans;\n\n    constructor() ERC20(\"Gold\", \"GLD\") {\n        uniswapRouter = IUniswapV2Router02(\n            0x3F11A24EB45d3c3737365b97A996949dA6c2EdDf\n        );\n        _mint(msg.sender, 1000);\n        KRC20(0x33f4212b027E22aF7e6BA21Fc572843C0D701CD1).approve(\n            CONTRACTADDR,\n            50000000000000000000\n        );\n    }\n\n    function getloan(uint256 amount, uint256 period) public {\n        require(amount > 1**18, \"very less amount no loan needed\");\n        require(period > 1, \"please increase the period\");\n        uint256 blocknumber = block.number;\n        getPriceInfo();\n        uint256 interest = ((amount * period) * 5) / 3000;\n\n        address initiator = msg.sender;\n        bool status = false;\n        uint256 price = show();\n        uint256 amountxdc = (((amount + interest) / price) * 10000);\n        uint256 amountrawxdc = (amount / price) * 10000;\n        loan memory newloan = loan(\n            loanid,\n            amount,\n            price,\n            interest,\n            period,\n            blocknumber,\n            initiator,\n            amountxdc,\n            amountrawxdc,\n            status\n        );\n        loans[loanid] = newloan;\n        loanid++;\n    }\n\n    function disburseloan(uint256 loanid) public payable {\n        loan memory myloan = loans[loanid];\n        require(myloan.initiator == msg.sender, \"no disbursement to other acc\");\n        require(myloan.amountxdc <= msg.value, \"not enough xdc\");\n        require(\n            myloan.reqtimestamp + 600 >= block.number,\n            \"trying to scam my guy\"\n        );\n        require(myloan.status == false);\n        myloan.status = true;\n        loans[loanid] = myloan;\n        _mint(msg.sender, myloan.amount);\n    }\n\n    function repayloan(uint256 loanid) public {\n        loan memory myloan = loans[loanid];\n        require(myloan.initiator == msg.sender, \"no disbursement to other acc\");\n        require(balanceOf(msg.sender) > myloan.amount, \"can't pay the loan\");\n        require(myloan.status == true);\n        _burn(msg.sender, myloan.amount);\n        address payable abc = payable(msg.sender);\n        abc.send(myloan.amountrawxdc);\n        myloan.status = false;\n        loans[loanid] = myloan;\n    }\n\n    function liquidate(uint256 loanid) public {\n        loan memory myloan = loans[loanid];\n        uint256 currentprice = show();\n        require(\n            myloan.period + myloan.reqtimestamp > block.number ||\n                (myloan.amountxdc * currentprice * 100000000000000 * 11) / 10 <\n                myloan.amount,\n            \"cannot liquidate early or the amount the amount is still collaterized\"\n        );\n\n        require(myloan.status == true, \"it must be true\");\n\n        uint256 amount = (myloan.amount + myloan.interest) / myloan.price;\n        address[] memory path = new address[](2);\n        path[0] = WXDC;\n        path[1] = toyo;\n        uniswapRouter.swapExactETHForTokens{value: amount}(\n            0,\n            path,\n            msg.sender,\n            block.timestamp\n        );\n        myloan.status = false;\n        loans[loanid] = myloan;\n    }\n\n    function getprice(uint256 loanid) internal view returns (uint256) {\n        return 1;\n    }\n\n    function readloan(uint256 loanid) public view returns (loan memory) {\n        return loans[loanid];\n    }\n\n    function show() public view returns (uint256) {\n        return IInvokeOracle(CONTRACTADDR).showPrice();\n    }\n\n    function depositpli() external returns (bool) {\n        return IInvokeOracle(CONTRACTADDR).depositPLI(500000000000000000);\n    }\n\n    function getPriceInfo() public returns (bytes32) {\n        (requestId) = IInvokeOracle(CONTRACTADDR).requestData({\n            _caller: address(this)\n        });\n        return requestId;\n    }\n\n    function getAllLoan() public view returns (loan[] memory) {\n        loan[] memory myloan = new loan[](loanid);\n        for (uint256 i = 0; i < loanid; i++) {\n            loan storage mylo = loans[i];\n            myloan[i] = mylo;\n        }\n        return myloan;\n    }\n\n    function getMyLoan() public view returns (loan[] memory) {\n        loan[] memory myloan = new loan[](loanid);\n        for (uint256 i = 0; i < loanid; i++) {\n            if (loans[i].initiator == msg.sender) {\n                loan storage mylo = loans[i];\n                myloan[i] = mylo;\n            }\n        }\n        return myloan;\n    }\n}\n",
  "sourcePath": "/home/kali/Documents/XDCstable/contracts/Stable.sol",
  "compiler": {
    "name": "solc",
    "version": "0.8.12+commit.f00d7308.Emscripten.clang"
  },
  "schemaVersion": "3.4.5",
  "updatedAt": "2022-12-18T14:47:01.337Z",
  "devdoc": {
    "kind": "dev",
    "methods": {
      "allowance(address,address)": {
        "details": "See {IERC20-allowance}."
      },
      "approve(address,uint256)": {
        "details": "See {IERC20-approve}. NOTE: If `amount` is the maximum `uint256`, the allowance is not updated on `transferFrom`. This is semantically equivalent to an infinite approval. Requirements: - `spender` cannot be the zero address."
      },
      "balanceOf(address)": {
        "details": "See {IERC20-balanceOf}."
      },
      "decimals()": {
        "details": "Returns the number of decimals used to get its user representation. For example, if `decimals` equals `2`, a balance of `505` tokens should be displayed to a user as `5.05` (`505 / 10 ** 2`). Tokens usually opt for a value of 18, imitating the relationship between Ether and Wei. This is the value {ERC20} uses, unless this function is overridden; NOTE: This information is only used for _display_ purposes: it in no way affects any of the arithmetic of the contract, including {IERC20-balanceOf} and {IERC20-transfer}."
      },
      "decreaseAllowance(address,uint256)": {
        "details": "Atomically decreases the allowance granted to `spender` by the caller. This is an alternative to {approve} that can be used as a mitigation for problems described in {IERC20-approve}. Emits an {Approval} event indicating the updated allowance. Requirements: - `spender` cannot be the zero address. - `spender` must have allowance for the caller of at least `subtractedValue`."
      },
      "increaseAllowance(address,uint256)": {
        "details": "Atomically increases the allowance granted to `spender` by the caller. This is an alternative to {approve} that can be used as a mitigation for problems described in {IERC20-approve}. Emits an {Approval} event indicating the updated allowance. Requirements: - `spender` cannot be the zero address."
      },
      "name()": {
        "details": "Returns the name of the token."
      },
      "symbol()": {
        "details": "Returns the symbol of the token, usually a shorter version of the name."
      },
      "totalSupply()": {
        "details": "See {IERC20-totalSupply}."
      },
      "transfer(address,uint256)": {
        "details": "See {IERC20-transfer}. Requirements: - `to` cannot be the zero address. - the caller must have a balance of at least `amount`."
      },
      "transferFrom(address,address,uint256)": {
        "details": "See {IERC20-transferFrom}. Emits an {Approval} event indicating the updated allowance. This is not required by the EIP. See the note at the beginning of {ERC20}. NOTE: Does not update the allowance if the current allowance is the maximum `uint256`. Requirements: - `from` and `to` cannot be the zero address. - `from` must have a balance of at least `amount`. - the caller must have allowance for ``from``'s tokens of at least `amount`."
      }
    },
    "version": 1
  },
  "userdoc": {
    "kind": "user",
    "methods": {},
    "version": 1
  }
}