{
  "_format": "hh-sol-artifact-1",
  "contractName": "TokenState",
  "sourceName": "contracts/utils/TokenState.sol",
  "abi": [
    {
      "inputs": [
        {
          "internalType": "address",
          "name": "_owner",
          "type": "address"
        },
        {
          "internalType": "address",
          "name": "_associatedContract",
          "type": "address"
        }
      ],
      "stateMutability": "nonpayable",
      "type": "constructor"
    },
    {
      "anonymous": false,
      "inputs": [
        {
          "indexed": false,
          "internalType": "address",
          "name": "associatedContract",
          "type": "address"
        }
      ],
      "name": "AssociatedContractUpdated",
      "type": "event"
    },
    {
      "anonymous": false,
      "inputs": [
        {
          "indexed": false,
          "internalType": "address",
          "name": "oldOwner",
          "type": "address"
        },
        {
          "indexed": false,
          "internalType": "address",
          "name": "newOwner",
          "type": "address"
        }
      ],
      "name": "OwnerChanged",
      "type": "event"
    },
    {
      "anonymous": false,
      "inputs": [
        {
          "indexed": false,
          "internalType": "address",
          "name": "newOwner",
          "type": "address"
        }
      ],
      "name": "OwnerNominated",
      "type": "event"
    },
    {
      "inputs": [],
      "name": "acceptOwnership",
      "outputs": [],
      "stateMutability": "nonpayable",
      "type": "function"
    },
    {
      "inputs": [
        {
          "internalType": "address",
          "name": "",
          "type": "address"
        },
        {
          "internalType": "address",
          "name": "",
          "type": "address"
        }
      ],
      "name": "allowance",
      "outputs": [
        {
          "internalType": "uint256",
          "name": "",
          "type": "uint256"
        }
      ],
      "stateMutability": "view",
      "type": "function"
    },
    {
      "inputs": [],
      "name": "associatedContract",
      "outputs": [
        {
          "internalType": "address",
          "name": "",
          "type": "address"
        }
      ],
      "stateMutability": "view",
      "type": "function"
    },
    {
      "inputs": [
        {
          "internalType": "address",
          "name": "",
          "type": "address"
        }
      ],
      "name": "balanceOf",
      "outputs": [
        {
          "internalType": "uint256",
          "name": "",
          "type": "uint256"
        }
      ],
      "stateMutability": "view",
      "type": "function"
    },
    {
      "inputs": [
        {
          "internalType": "address",
          "name": "_owner",
          "type": "address"
        }
      ],
      "name": "nominateNewOwner",
      "outputs": [],
      "stateMutability": "nonpayable",
      "type": "function"
    },
    {
      "inputs": [],
      "name": "nominatedOwner",
      "outputs": [
        {
          "internalType": "address",
          "name": "",
          "type": "address"
        }
      ],
      "stateMutability": "view",
      "type": "function"
    },
    {
      "inputs": [],
      "name": "owner",
      "outputs": [
        {
          "internalType": "address",
          "name": "",
          "type": "address"
        }
      ],
      "stateMutability": "view",
      "type": "function"
    },
    {
      "inputs": [
        {
          "internalType": "address",
          "name": "tokenOwner",
          "type": "address"
        },
        {
          "internalType": "address",
          "name": "spender",
          "type": "address"
        },
        {
          "internalType": "uint256",
          "name": "value",
          "type": "uint256"
        }
      ],
      "name": "setAllowance",
      "outputs": [],
      "stateMutability": "nonpayable",
      "type": "function"
    },
    {
      "inputs": [
        {
          "internalType": "address",
          "name": "_associatedContract",
          "type": "address"
        }
      ],
      "name": "setAssociatedContract",
      "outputs": [],
      "stateMutability": "nonpayable",
      "type": "function"
    },
    {
      "inputs": [
        {
          "internalType": "address",
          "name": "account",
          "type": "address"
        },
        {
          "internalType": "uint256",
          "name": "value",
          "type": "uint256"
        }
      ],
      "name": "setBalanceOf",
      "outputs": [],
      "stateMutability": "nonpayable",
      "type": "function"
    }
  ],
  "bytecode": "0x608060405234801561001057600080fd5b5060405161079d38038061079d83398101604081905261002f916101a5565b80806001600160a01b03811661008c5760405162461bcd60e51b815260206004820152601960248201527f4f776e657220616464726573732063616e6e6f7420626520300000000000000060448201526064015b60405180910390fd5b600080546001600160a01b0319166001600160a01b03831690811782556040805192835260208301919091527fb532073b38c83145e3e5135377a08bf9aab55bc0fd7c1179cd4fb995d2a5159c910160405180910390a1506000546001600160a01b03166101305760405162461bcd60e51b815260206004820152601160248201527013dddb995c881b5d5cdd081899481cd95d607a1b6044820152606401610083565b600280546001600160a01b0319166001600160a01b0383169081179091556040519081527f73f20cff579e8a4086fa607db83867595f1b6a798e718c0bfa0b94a404128e039060200160405180910390a15050506101d7565b80516001600160a01b03811681146101a057600080fd5b919050565b600080604083850312156101b7578182fd5b6101c083610189565b91506101ce60208401610189565b90509250929050565b6105b7806101e66000396000f3fe608060405234801561001057600080fd5b506004361061009e5760003560e01c80638da5cb5b116100665780638da5cb5b14610131578063aefc4ccb14610144578063b46310f614610157578063da46098c1461016a578063dd62ed3e1461017d57600080fd5b80631627540c146100a357806352f445ca146100b857806353a47bb7146100cb57806370a08231146100fb57806379ba509714610129575b600080fd5b6100b66100b1366004610476565b6101a8565b005b6100b66100c6366004610476565b610205565b6001546100de906001600160a01b031681565b6040516001600160a01b0390911681526020015b60405180910390f35b61011b610109366004610476565b60036020526000908152604090205481565b6040519081526020016100f2565b6100b661025b565b6000546100de906001600160a01b031681565b6002546100de906001600160a01b031681565b6100b6610165366004610504565b61034a565b6100b66101783660046104c9565b610390565b61011b61018b366004610497565b600460209081526000928352604080842090915290825290205481565b6101b06103e6565b600180546001600160a01b0319166001600160a01b0383169081179091556040519081527f906a1c6bd7e3091ea86693dd029a831c19049ce77f1dce2ce0bab1cacbabce22906020015b60405180910390a150565b61020d6103e6565b600280546001600160a01b0319166001600160a01b0383169081179091556040519081527f73f20cff579e8a4086fa607db83867595f1b6a798e718c0bfa0b94a404128e03906020016101fa565b6001546001600160a01b031633146102d85760405162461bcd60e51b815260206004820152603560248201527f596f75206d757374206265206e6f6d696e61746564206265666f726520796f7560448201527402063616e20616363657074206f776e65727368697605c1b60648201526084015b60405180910390fd5b600054600154604080516001600160a01b0393841681529290911660208301527fb532073b38c83145e3e5135377a08bf9aab55bc0fd7c1179cd4fb995d2a5159c910160405180910390a160018054600080546001600160a01b03199081166001600160a01b03841617909155169055565b6002546001600160a01b031633146103745760405162461bcd60e51b81526004016102cf9061052d565b6001600160a01b03909116600090815260036020526040902055565b6002546001600160a01b031633146103ba5760405162461bcd60e51b81526004016102cf9061052d565b6001600160a01b0392831660009081526004602090815260408083209490951682529290925291902055565b6000546001600160a01b031633146104585760405162461bcd60e51b815260206004820152602f60248201527f4f6e6c792074686520636f6e7472616374206f776e6572206d6179207065726660448201526e37b936903a3434b99030b1ba34b7b760891b60648201526084016102cf565b565b80356001600160a01b038116811461047157600080fd5b919050565b600060208284031215610487578081fd5b6104908261045a565b9392505050565b600080604083850312156104a9578081fd5b6104b28361045a565b91506104c06020840161045a565b90509250929050565b6000806000606084860312156104dd578081fd5b6104e68461045a565b92506104f46020850161045a565b9150604084013590509250925092565b60008060408385031215610516578182fd5b61051f8361045a565b946020939093013593505050565b60208082526034908201527f4f6e6c7920746865206173736f63696174656420636f6e74726163742063616e604082015273103832b93337b936903a3434b99030b1ba34b7b760611b60608201526080019056fea26469706673582212203d8572d6dc1b136a2bc4ec09996057c1e2f1ce7c47086a48abb639bbef5c0faa64736f6c63430008040033",
  "linkReferences": {},
  "deployedLinkReferences": {}
}