{
  "_format": "hh-sol-artifact-1",
  "contractName": "XSynProtocol",
  "sourceName": "contracts/XSynProtocol.sol",
  "abi": [
    {
      "inputs": [
        {
          "internalType": "uint256",
          "name": "cratio",
          "type": "uint256"
        }
      ],
      "stateMutability": "nonpayable",
      "type": "constructor"
    },
    {
      "anonymous": false,
      "inputs": [
        {
          "indexed": false,
          "internalType": "bytes32",
          "name": "name",
          "type": "bytes32"
        },
        {
          "indexed": false,
          "internalType": "address",
          "name": "destination",
          "type": "address"
        }
      ],
      "name": "CacheUpdated",
      "type": "event"
    },
    {
      "anonymous": false,
      "inputs": [
        {
          "indexed": false,
          "internalType": "uint256",
          "name": "amount",
          "type": "uint256"
        }
      ],
      "name": "MinimumDepositAmountUpdated",
      "type": "event"
    },
    {
      "anonymous": false,
      "inputs": [
        {
          "indexed": false,
          "internalType": "uint256",
          "name": "collatrealApplied",
          "type": "uint256"
        },
        {
          "indexed": false,
          "internalType": "uint256",
          "name": "usdTomint",
          "type": "uint256"
        },
        {
          "indexed": false,
          "internalType": "uint256",
          "name": "currentPrice",
          "type": "uint256"
        }
      ],
      "name": "calculatedRatio",
      "type": "event"
    },
    {
      "anonymous": false,
      "inputs": [
        {
          "indexed": false,
          "internalType": "uint256",
          "name": "cratio",
          "type": "uint256"
        },
        {
          "indexed": false,
          "internalType": "uint256",
          "name": "earnings",
          "type": "uint256"
        },
        {
          "indexed": false,
          "internalType": "uint256",
          "name": "stakings",
          "type": "uint256"
        }
      ],
      "name": "emitRatio",
      "type": "event"
    },
    {
      "inputs": [],
      "name": "CONTRACTNAME",
      "outputs": [
        {
          "internalType": "string",
          "name": "",
          "type": "string"
        }
      ],
      "stateMutability": "view",
      "type": "function"
    },
    {
      "inputs": [],
      "name": "CONTRACT_NAME",
      "outputs": [
        {
          "internalType": "string",
          "name": "",
          "type": "string"
        }
      ],
      "stateMutability": "view",
      "type": "function"
    },
    {
      "inputs": [],
      "name": "_owner",
      "outputs": [
        {
          "internalType": "address",
          "name": "",
          "type": "address"
        }
      ],
      "stateMutability": "view",
      "type": "function"
    },
    {
      "inputs": [
        {
          "internalType": "bytes32",
          "name": "",
          "type": "bytes32"
        }
      ],
      "name": "addressCache",
      "outputs": [
        {
          "internalType": "address",
          "name": "",
          "type": "address"
        }
      ],
      "stateMutability": "view",
      "type": "function"
    },
    {
      "inputs": [],
      "name": "contractOwner",
      "outputs": [
        {
          "internalType": "address",
          "name": "",
          "type": "address"
        }
      ],
      "stateMutability": "view",
      "type": "function"
    },
    {
      "inputs": [
        {
          "internalType": "address",
          "name": "",
          "type": "address"
        },
        {
          "internalType": "string",
          "name": "",
          "type": "string"
        }
      ],
      "name": "debtTotalPool",
      "outputs": [
        {
          "internalType": "address",
          "name": "user",
          "type": "address"
        },
        {
          "internalType": "string",
          "name": "xSynSymbol",
          "type": "string"
        },
        {
          "internalType": "uint256",
          "name": "synthValue",
          "type": "uint256"
        },
        {
          "internalType": "uint256",
          "name": "totXDSwapped",
          "type": "uint256"
        },
        {
          "internalType": "bool",
          "name": "isXDUSD",
          "type": "bool"
        },
        {
          "internalType": "bool",
          "name": "isMinted",
          "type": "bool"
        },
        {
          "internalType": "bool",
          "name": "isSwapped",
          "type": "bool"
        }
      ],
      "stateMutability": "view",
      "type": "function"
    },
    {
      "inputs": [
        {
          "internalType": "address",
          "name": "",
          "type": "address"
        }
      ],
      "name": "deposits",
      "outputs": [
        {
          "internalType": "address payable",
          "name": "user",
          "type": "address"
        },
        {
          "internalType": "uint256",
          "name": "xdcDeposit",
          "type": "uint256"
        },
        {
          "internalType": "uint256",
          "name": "pliDeposit",
          "type": "uint256"
        },
        {
          "internalType": "uint256",
          "name": "xdUsdminted",
          "type": "uint256"
        },
        {
          "internalType": "enum Constants.TokenType",
          "name": "tok",
          "type": "uint8"
        }
      ],
      "stateMutability": "view",
      "type": "function"
    },
    {
      "inputs": [
        {
          "internalType": "bytes32",
          "name": "_name",
          "type": "bytes32"
        }
      ],
      "name": "fetchAddress",
      "outputs": [
        {
          "internalType": "address",
          "name": "",
          "type": "address"
        }
      ],
      "stateMutability": "view",
      "type": "function"
    },
    {
      "inputs": [
        {
          "internalType": "uint256",
          "name": "_units",
          "type": "uint256"
        },
        {
          "internalType": "string",
          "name": "_symbol",
          "type": "string"
        }
      ],
      "name": "getEstimation",
      "outputs": [
        {
          "internalType": "uint256",
          "name": "",
          "type": "uint256"
        }
      ],
      "stateMutability": "view",
      "type": "function"
    },
    {
      "inputs": [
        {
          "internalType": "address",
          "name": "_user",
          "type": "address"
        }
      ],
      "name": "getMyCollateralRatio",
      "outputs": [
        {
          "internalType": "uint256",
          "name": "_totalActual",
          "type": "uint256"
        },
        {
          "internalType": "uint256",
          "name": "_totalExpected",
          "type": "uint256"
        }
      ],
      "stateMutability": "view",
      "type": "function"
    },
    {
      "inputs": [
        {
          "internalType": "string",
          "name": "",
          "type": "string"
        }
      ],
      "name": "keyaddress",
      "outputs": [
        {
          "internalType": "address",
          "name": "",
          "type": "address"
        }
      ],
      "stateMutability": "view",
      "type": "function"
    },
    {
      "inputs": [],
      "name": "minCRatio",
      "outputs": [
        {
          "internalType": "uint256",
          "name": "",
          "type": "uint256"
        }
      ],
      "stateMutability": "view",
      "type": "function"
    },
    {
      "inputs": [],
      "name": "minimumPLIDepositAmount",
      "outputs": [
        {
          "internalType": "uint256",
          "name": "",
          "type": "uint256"
        }
      ],
      "stateMutability": "view",
      "type": "function"
    },
    {
      "inputs": [],
      "name": "minimumXDCDepositAmount",
      "outputs": [
        {
          "internalType": "uint256",
          "name": "",
          "type": "uint256"
        }
      ],
      "stateMutability": "view",
      "type": "function"
    },
    {
      "inputs": [
        {
          "internalType": "uint256",
          "name": "_pliVal",
          "type": "uint256"
        },
        {
          "internalType": "address",
          "name": "_tokenAddress",
          "type": "address"
        }
      ],
      "name": "mintxdUSDForPLI",
      "outputs": [
        {
          "internalType": "uint256",
          "name": "",
          "type": "uint256"
        }
      ],
      "stateMutability": "nonpayable",
      "type": "function"
    },
    {
      "inputs": [],
      "name": "mintxdUSDForXDC",
      "outputs": [
        {
          "internalType": "uint256",
          "name": "",
          "type": "uint256"
        }
      ],
      "stateMutability": "payable",
      "type": "function"
    },
    {
      "inputs": [
        {
          "internalType": "bytes32",
          "name": "_name",
          "type": "bytes32"
        }
      ],
      "name": "requireAndGetAddress",
      "outputs": [
        {
          "internalType": "address",
          "name": "",
          "type": "address"
        }
      ],
      "stateMutability": "view",
      "type": "function"
    },
    {
      "inputs": [
        {
          "internalType": "uint256",
          "name": "_minDeposit",
          "type": "uint256"
        }
      ],
      "name": "setMinDepositForPLI",
      "outputs": [],
      "stateMutability": "nonpayable",
      "type": "function"
    },
    {
      "inputs": [
        {
          "internalType": "uint256",
          "name": "_minDeposit",
          "type": "uint256"
        }
      ],
      "name": "setMinDepositForXDC",
      "outputs": [],
      "stateMutability": "nonpayable",
      "type": "function"
    },
    {
      "inputs": [
        {
          "internalType": "string",
          "name": "_symbol",
          "type": "string"
        }
      ],
      "name": "showPrice",
      "outputs": [
        {
          "internalType": "uint256",
          "name": "",
          "type": "uint256"
        }
      ],
      "stateMutability": "view",
      "type": "function"
    },
    {
      "inputs": [
        {
          "internalType": "address",
          "name": "",
          "type": "address"
        }
      ],
      "name": "totalXDUSDMinted",
      "outputs": [
        {
          "internalType": "uint256",
          "name": "",
          "type": "uint256"
        }
      ],
      "stateMutability": "view",
      "type": "function"
    },
    {
      "inputs": [
        {
          "internalType": "address",
          "name": "",
          "type": "address"
        }
      ],
      "name": "totalXDUSDSwapped",
      "outputs": [
        {
          "internalType": "uint256",
          "name": "",
          "type": "uint256"
        }
      ],
      "stateMutability": "view",
      "type": "function"
    },
    {
      "inputs": [
        {
          "internalType": "address",
          "name": "",
          "type": "address"
        },
        {
          "internalType": "uint256",
          "name": "",
          "type": "uint256"
        }
      ],
      "name": "tradingPool",
      "outputs": [
        {
          "internalType": "address",
          "name": "user",
          "type": "address"
        },
        {
          "internalType": "string",
          "name": "xSynSymbol",
          "type": "string"
        },
        {
          "internalType": "uint256",
          "name": "synthValue",
          "type": "uint256"
        },
        {
          "internalType": "uint256",
          "name": "totXDSwapped",
          "type": "uint256"
        },
        {
          "internalType": "bool",
          "name": "isXDUSD",
          "type": "bool"
        },
        {
          "internalType": "bool",
          "name": "isMinted",
          "type": "bool"
        },
        {
          "internalType": "bool",
          "name": "isSwapped",
          "type": "bool"
        }
      ],
      "stateMutability": "view",
      "type": "function"
    },
    {
      "inputs": [
        {
          "internalType": "bytes32",
          "name": "_name",
          "type": "bytes32"
        },
        {
          "internalType": "address",
          "name": "_destination",
          "type": "address"
        }
      ],
      "name": "updateCache",
      "outputs": [],
      "stateMutability": "nonpayable",
      "type": "function"
    },
    {
      "inputs": [
        {
          "internalType": "address",
          "name": "_user",
          "type": "address"
        },
        {
          "internalType": "uint256",
          "name": "_totUsdSwapped",
          "type": "uint256"
        },
        {
          "internalType": "uint256",
          "name": "_totSynthsPurchased",
          "type": "uint256"
        },
        {
          "internalType": "string",
          "name": "_symbolPurchased",
          "type": "string"
        }
      ],
      "name": "updateDebtPoolSynth",
      "outputs": [
        {
          "internalType": "bool",
          "name": "",
          "type": "bool"
        }
      ],
      "stateMutability": "nonpayable",
      "type": "function"
    },
    {
      "inputs": [
        {
          "internalType": "address",
          "name": "_user",
          "type": "address"
        },
        {
          "internalType": "uint256",
          "name": "_totUsdSwapped",
          "type": "uint256"
        }
      ],
      "name": "updateDebtPoolXDUSD",
      "outputs": [
        {
          "internalType": "bool",
          "name": "",
          "type": "bool"
        }
      ],
      "stateMutability": "nonpayable",
      "type": "function"
    },
    {
      "inputs": [
        {
          "internalType": "string",
          "name": "_name",
          "type": "string"
        },
        {
          "internalType": "address",
          "name": "_destination",
          "type": "address"
        }
      ],
      "name": "updateKeyAddress",
      "outputs": [],
      "stateMutability": "nonpayable",
      "type": "function"
    },
    {
      "stateMutability": "payable",
      "type": "receive"
    }
  ],
  "bytecode": "0x608060405268056bc75e2d6310000060055568056bc75e2d631000006006553480156200002b57600080fd5b5060405162002fd038038062002fd08339810160408190526200004e9162000082565b60018054336001600160a01b031991821681179092556003805490911690911790556001600160401b03166002556200009b565b60006020828403121562000094578081fd5b5051919050565b612f2580620000ab6000396000f3fe6080604052600436106101a05760003560e01c8063b1211f29116100ec578063dee6bb4d1161008a578063f187574411610064578063f187574414610514578063f1efc5d91461054c578063f89cb6811461056c578063fc7e286d1461058c57600080fd5b8063dee6bb4d146104b4578063e52346d0146104d4578063ea983a6d146104f457600080fd5b8063c2e7df21116100c6578063c2e7df211461021e578063c4a709451461043e578063ce606ee01461045e578063dc675a651461047e57600080fd5b8063b1211f29146103c4578063b2bdfa7b146103f1578063b91a1ca61461041157600080fd5b8063614d08f8116101595780637b9066b8116101335780637b9066b81461032b5780637d05ecd41461035b57806383e107871461039c578063ae1844d6146103a457600080fd5b8063614d08f81461028e5780636d7e67c1146102d6578063722a6b24146102f657600080fd5b8063056c5aa9146101ac578063184212a2146101d55780633b6fba1a1461020857806346bcb49d1461021e5780635f230a6114610256578063607573d31461027857600080fd5b366101a757005b600080fd5b3480156101b857600080fd5b506101c260055481565b6040519081526020015b60405180910390f35b3480156101e157600080fd5b506101f56101f0366004612a72565b6105f4565b6040516101cc9796959493929190612cc6565b34801561021457600080fd5b506101c260065481565b34801561022a57600080fd5b5061023e610239366004612b1a565b6106ed565b6040516001600160a01b0390911681526020016101cc565b34801561026257600080fd5b50610276610271366004612b1a565b610770565b005b34801561028457600080fd5b506101c260025481565b34801561029a57600080fd5b506102c96040518060400160405280600f81526020016e20b2323932b9b9a932b9b7b63b32b960891b81525081565b6040516101cc9190612d18565b3480156102e257600080fd5b506101c26102f1366004612beb565b6107b4565b34801561030257600080fd5b50610316610311366004612a0c565b610887565b604080519283526020830191909152016101cc565b34801561033757600080fd5b5061034b610346366004612a72565b6108ae565b60405190151581526020016101cc565b34801561036757600080fd5b5061023e610376366004612b5d565b80516020818301810180516004825292820191909301209152546001600160a01b031681565b6101c2610c3c565b3480156103b057600080fd5b506101c26103bf366004612b32565b610cc6565b3480156103d057600080fd5b506101c26103df366004612a0c565b60086020526000908152604090205481565b3480156103fd57600080fd5b5060015461023e906001600160a01b031681565b34801561041d57600080fd5b506101c261042c366004612a0c565b60076020526000908152604090205481565b34801561044a57600080fd5b506101c2610459366004612b5d565b610d75565b34801561046a57600080fd5b5060035461023e906001600160a01b031681565b34801561048a57600080fd5b5061023e610499366004612b1a565b6000602081905290815260409020546001600160a01b031681565b3480156104c057600080fd5b506102766104cf366004612b90565b610e02565b3480156104e057600080fd5b506102766104ef366004612b1a565b610e4e565b34801561050057600080fd5b506101f561050f366004612a26565b610e8b565b34801561052057600080fd5b506102c96040518060400160405280600c81526020016b1614de5b941c9bdd1bd8dbdb60a21b81525081565b34801561055857600080fd5b50610276610567366004612b32565b610ed3565b34801561057857600080fd5b5061034b610587366004612a9b565b610f89565b34801561059857600080fd5b506105e36105a7366004612a0c565b600960205260009081526040902080546001820154600283015460038401546004909401546001600160a01b0390931693919290919060ff1685565b6040516101cc959493929190612c73565b600b602052816000526040600020818154811061061057600080fd5b6000918252602090912060059091020180546001820180546001600160a01b03909216945091925061064190612e6d565b80601f016020809104026020016040519081016040528092919081815260200182805461066d90612e6d565b80156106ba5780601f1061068f576101008083540402835291602001916106ba565b820191906000526020600020905b81548152906001019060200180831161069d57829003601f168201915b505050600284015460038501546004909501549394909390925060ff808216925061010082048116916201000090041687565b60008181526020818152604080832054905170026b4b9b9b4b7339030b2323932b9b99d1607d1b92810192909252603182018490526001600160a01b03169081151590605101604051602081830303815290604052906107695760405162461bcd60e51b81526004016107609190612d18565b60405180910390fd5b5092915050565b6107786112cf565b60068190556040518181527fa39eacd162ee82c70b2b030a1bc8fe89adcccc61122fad4821a8772dbcc54267906020015b60405180910390a150565b6000806107bf611340565b6001600160a01b031663a40b18c2846040518263ffffffff1660e01b81526004016107ea9190612d18565b60206040518083038186803b15801561080257600080fd5b505afa158015610816573d6000803e3d6000fd5b505050506040513d601f19601f8201168201806040525081019061083a9190612bd3565b905060006108488583611394565b9050600061271060646001600160801b03166002546108679190612de7565b6108719084612de7565b61087b9190612de7565b93505050505b92915050565b600080600061089584611413565b905060006108a285611623565b91959194509092505050565b6001600160a01b0382166000908152600a602052604080822090518291906108d590612c62565b90815260408051918290036020908101832060e0840190925281546001600160a01b031683526001820180549184019161090e90612e6d565b80601f016020809104026020016040519081016040528092919081815260200182805461093a90612e6d565b80156109875780601f1061095c57610100808354040283529160200191610987565b820191906000526020600020905b81548152906001019060200180831161096a57829003601f168201915b505050918352505060028201546020820152600382015460408083019190915260049092015460ff8082161515606084015261010082048116151560808401526201000090910416151560a0909101528101519091506000906109ea90856117ed565b90506040518060e00160405280866001600160a01b031681526020016040518060400160405280600581526020016416111554d160da1b815250815260200182815260200185815260200160011515815260200160001515815260200160011515815250600a6000876001600160a01b03166001600160a01b03168152602001908152602001600020604051610a7f90612c62565b90815260405160209181900382019020825181546001600160a01b0319166001600160a01b039091161781558282015180519192610ac5926001850192909101906128d0565b50604082810151600283015560608084015160038401556080808501516004909401805460a08088015160c09889015161ffff1990931697151561ff00191697909717610100971515979097029690961762ff0000191662010000911515919091021790556001600160a01b038a81166000818152600b6020908152868220875160e0810189529384528751808901895260058082526416111554d160da1b828501528584019182529885018f90529684018e905260019584018690529783018290529782018490528654808501885596815287902081519690950290940180546001600160a01b03191695909116949094178455905180519294610bd093928501929101906128d0565b50604082015160028201556060820151600382015560808201516004909101805460a084015160c0909401511515620100000262ff0000199415156101000261ff00199415159490941661ffff1990921691909117929092179290921617905550600191505092915050565b6000600554341015610c605760405162461bcd60e51b815260040161076090612d7d565b6000610c8a600160006040518060400160405280600381526020016258444360e81b81525061182f565b33600090815260076020526040902054909150610ca7908261195c565b33600090815260076020526040902055610cc0816119bb565b91505090565b6000600654831015610cea5760405162461bcd60e51b815260040161076090612d2b565b6000610d1360008560405180604001604052806003815260200162504c4960e81b81525061182f565b33600090815260076020526040902054909150610d30908261195c565b33600081815260076020526040902091909155610d4e908486611ffd565b610d593384866120e0565b610d6384846121be565b610d6d8185612244565b949350505050565b600080610d80611340565b6001600160a01b031663a40b18c2846040518263ffffffff1660e01b8152600401610dab9190612d18565b60206040518083038186803b158015610dc357600080fd5b505afa158015610dd7573d6000803e3d6000fd5b505050506040513d601f19601f82011682018060405250810190610dfb9190612bd3565b9392505050565b610e0a6112cf565b80600483604051610e1b9190612c46565b90815260405190819003602001902080546001600160a01b03929092166001600160a01b03199092169190911790555050565b610e566112cf565b60058190556040518181527fa39eacd162ee82c70b2b030a1bc8fe89adcccc61122fad4821a8772dbcc54267906020016107a9565b600a6020908152600092835260409092208151808301840180519281529084019290930191909120915280546001820180546001600160a01b03909216929161064190612e6d565b6001546001600160a01b03163314610f255760405162461bcd60e51b81526020600482015260156024820152746f6e6c79206f776e65722063616e2075706461746560581b6044820152606401610760565b6000828152602081815260409182902080546001600160a01b0319166001600160a01b0385169081179091558251858152918201527f88a93678a3692f6789d9546fc621bf7234b101ddb7d4fe479455112831b8aa68910160405180910390a15050565b6001600160a01b0384166000908152600a60205260408082209051829190610fb2908590612c46565b90815260408051918290036020908101832060e0840190925281546001600160a01b0316835260018201805491840191610feb90612e6d565b80601f016020809104026020016040519081016040528092919081815260200182805461101790612e6d565b80156110645780601f1061103957610100808354040283529160200191611064565b820191906000526020600020905b81548152906001019060200180831161104757829003601f168201915b505050918352505060028201546020820152600382015460408083019190915260049092015460ff8082161515606084015261010082048116151560808401526201000090910416151560a0909101528101519091506000906110c7908661195c565b6040805160e0810182526001600160a01b038a168082526020808301899052828401859052606083018b905260006080840181905260a08401819052600160c0850152918252600a9052829020915192935091611125908790612c46565b90815260405160209181900382019020825181546001600160a01b0319166001600160a01b03909116178155828201518051919261116b926001850192909101906128d0565b50604082810151600283015560608084015160038401556080808501516004909401805460a08088015160c09889015161ffff1990931697151561ff00191697909717610100971515979097029690961762ff0000191662010000911515919091021790556001600160a01b038c81166000818152600b6020908152868220875160e0810189529384528382018e81529784018f90529583018f905293820181905295810186905260019681018790528354808801855593865294829020855160059094020180546001600160a01b031916939091169290921782559151805193949193611261939285019291909101906128d0565b50604082015160028201556060820151600382015560808201516004909101805460a084015160c0909401511515620100000262ff0000199415156101000261ff00199415159490941661ffff19909216919091179290921792909216179055506001915050949350505050565b6003546001600160a01b0316331461133e5760405162461bcd60e51b815260206004820152602c60248201527f4f6e6c79205853796e50726f746f636f6c2063616e20706572666f726d20746860448201526b34b99037b832b930ba34b7b760a11b6064820152608401610760565b565b600060046040518060400160405280600c81526020016b45584348414e47455241544560a01b8152506040516113769190612c46565b908152604051908190036020019020546001600160a01b0316919050565b6000826113a357506000610881565b60006113af8385612e07565b9050826113bc8583612de7565b14610dfb5760405162461bcd60e51b815260206004820152602160248201527f536166654d6174683a206d756c7469706c69636174696f6e206f766572666c6f6044820152607760f81b6064820152608401610760565b6001600160a01b0381166000908152600b602052604081205481808080805b858110156115f8576001600160a01b0388166000908152600b6020526040812080548390811061147257634e487b7160e01b600052603260045260246000fd5b60009182526020918290206040805160e0810190915260059092020180546001600160a01b0316825260018101805492939192918401916114b290612e6d565b80601f01602080910402602001604051908101604052809291908181526020018280546114de90612e6d565b801561152b5780601f106115005761010080835404028352916020019161152b565b820191906000526020600020905b81548152906001019060200180831161150e57829003601f168201915b5050509183525050600282015460208201526003820154604082015260049091015460ff808216151560608401526101008204811615156080808501919091526201000090920416151560a090920191909152810151909150156115c1578060a00151156115aa5760408101516115a390879061195c565b95506115e5565b60408101516115ba90869061195c565b94506115e5565b60006115d5826040015183602001516127c5565b90506115e1848261195c565b9350505b50806115f081612ea8565b915050611432565b508284111561160e5761160b84846117ed565b91505b611618818361195c565b979650505050505050565b6001600160a01b03811660009081526009602052604081206001810154600290910154828083156116f5576000611658611340565b6040516352058c6160e11b815260206004820152600360248201526258444360e81b60448201526001600160a01b03919091169063a40b18c29060640160206040518083038186803b1580156116ad57600080fd5b505afa1580156116c1573d6000803e3d6000fd5b505050506040513d601f19601f820116820180604052508101906116e59190612bd3565b90506116f18582611394565b9150505b82156117a2576000611705611340565b6040516352058c6160e11b8152602060048201526003602482015262504c4960e81b60448201526001600160a01b03919091169063a40b18c29060640160206040518083038186803b15801561175a57600080fd5b505afa15801561176e573d6000803e3d6000fd5b505050506040513d601f19601f820116820180604052508101906117929190612bd3565b905061179e8482611394565b9250505b60006117ae828461195c565b9050600061271060646001600160801b03166002546117cd9190612de7565b6117d79084612de7565b6117e19190612de7565b98975050505050505050565b6000610dfb83836040518060400160405280601e81526020017f536166654d6174683a207375627472616374696f6e206f766572666c6f770000815250612870565b600080600061183c611340565b6001600160a01b031663a40b18c2856040518263ffffffff1660e01b81526004016118679190612d18565b60206040518083038186803b15801561187f57600080fd5b505afa158015611893573d6000803e3d6000fd5b505050506040513d601f19601f820116820180604052508101906118b79190612bd3565b905085156118d0576118c93482611394565b91506118dd565b6118da8582611394565b91505b600061271060646001600160801b03166002546118fa9190612de7565b6119049085612de7565b61190e9190612de7565b60408051828152602081018690529081018490529091507f611c844bc25f6ae3b7f61cef7190757718761e79616ff375d7693a5c09753a499060600160405180910390a19695505050505050565b6000806119698385612dcf565b905083811015610dfb5760405162461bcd60e51b815260206004820152601b60248201527f536166654d6174683a206164646974696f6e206f766572666c6f7700000000006044820152606401610760565b60006005543410156119df5760405162461bcd60e51b815260040161076090612d7d565b336000908152600960209081526040808320815160a08101835281546001600160a01b031681526001808301549482019490945260028201549281019290925260038101546060830152600481015491929091608084019160ff90911690811115611a5a57634e487b7160e01b600052602160045260246000fd5b6001811115611a7957634e487b7160e01b600052602160045260246000fd5b9052506020810151909150600090611a91903461195c565b90506000611aac85846060015161195c90919063ffffffff16565b90506040518060a00160405280336001600160a01b031681526020018381526020018460400151815260200182815260200160006001811115611aff57634e487b7160e01b600052602160045260246000fd5b6001811115611b1e57634e487b7160e01b600052602160045260246000fd5b905233600090815260096020908152604091829020835181546001600160a01b0319166001600160a01b039091161781559083015160018083019190915591830151600282015560608301516003820155608083015160048201805492939192909160ff19909116908381811115611ba657634e487b7160e01b600052602160045260246000fd5b021790555050336000908152600a6020526040808220905191925090611bcb90612c62565b90815260408051918290036020908101832060e0840190925281546001600160a01b0316835260018201805491840191611c0490612e6d565b80601f0160208091040260200160405190810160405280929190818152602001828054611c3090612e6d565b8015611c7d5780601f10611c5257610100808354040283529160200191611c7d565b820191906000526020600020905b815481529060010190602001808311611c6057829003601f168201915b505050918352505060028201546020820152600382015460408083019190915260049092015460ff8082161515606084015261010082048116151560808401526201000090910416151560a090910152810151909150600090611ce0908461195c565b6040805160e0810182523380825282518084018452600581526416111554d160da1b6020828101919091528084019190915282840185905260006060840181905260016080850181905260a085015260c08401819052918252600a9052829020915192935091611d4f90612c62565b90815260405160209181900382019020825181546001600160a01b0319166001600160a01b039091161781558282015180519192611d95926001850192909101906128d0565b50604082015181600201556060820151816003015560808201518160040160006101000a81548160ff02191690831515021790555060a08201518160040160016101000a81548160ff02191690831515021790555060c08201518160040160026101000a81548160ff021916908315150217905550905050600b6000336001600160a01b03166001600160a01b031681526020019081526020016000206040518060e00160405280336001600160a01b031681526020016040518060400160405280600581526020016416111554d160da1b81525081526020018981526020016000815260200160011515815260200160011515815260200160001515815250908060018154018082558091505060019003906000526020600020906005020160009091909190915060008201518160000160006101000a8154816001600160a01b0302191690836001600160a01b031602179055506020820151816001019080519060200190611f079291906128d0565b50604082015160028201556060820151600382015560808201516004909101805460a084015160c0909401511515620100000262ff0000199415156101000261ff00199415159490941661ffff19909216919091179290921792909216179055611f6f6128a1565b6040516340c10f1960e01b8152336004820152602481018990526001600160a01b0391909116906340c10f1990604401602060405180830381600087803b158015611fb957600080fd5b505af1158015611fcd573d6000803e3d6000fd5b505050506040513d601f19601f82011682018060405250810190611ff19190612afa565b50959695505050505050565b6040516370a0823160e01b81526001600160a01b0384811660048301528291908416906370a082319060240160206040518083038186803b15801561204157600080fd5b505afa158015612055573d6000803e3d6000fd5b505050506040513d601f19601f820116820180604052508101906120799190612bd3565b10156120db5760405162461bcd60e51b815260206004820152602b60248201527f5852433230476174657761793a20696e73756666696369656e7420637572726560448201526a6e63792062616c616e636560a81b6064820152608401610760565b505050565b604051636eb1769f60e11b81526001600160a01b03848116600483015230602483015282919084169063dd62ed3e9060440160206040518083038186803b15801561212a57600080fd5b505afa15801561213e573d6000803e3d6000fd5b505050506040513d601f19601f820116820180604052508101906121629190612bd3565b10156120db5760405162461bcd60e51b815260206004820152602560248201527f5852433230476174657761793a20696e73756666696369656e7420616c6c6f7760448201526430b731b29760d91b6064820152608401610760565b6040516323b872dd60e01b8152336004820152306024820152604481018390526001600160a01b038216906323b872dd90606401602060405180830381600087803b15801561220c57600080fd5b505af1158015612220573d6000803e3d6000fd5b505050506040513d601f19601f820116820180604052508101906120db9190612afa565b60006006548210156122685760405162461bcd60e51b815260040161076090612d2b565b336000908152600960209081526040808320815160a08101835281546001600160a01b031681526001808301549482019490945260028201549281019290925260038101546060830152600481015491929091608084019160ff909116908111156122e357634e487b7160e01b600052602160045260246000fd5b600181111561230257634e487b7160e01b600052602160045260246000fd5b905250604081015190915060009061231a908561195c565b9050600061233586846060015161195c90919063ffffffff16565b6040805160a08101825233808252602087810151818401908152838501888152606085018781526001608087018181526000968752600990955296909420855181546001600160a01b0319166001600160a01b0390911617815591518287015551600282015591516003830155516004820180549596509294919390929160ff19169083818111156123d757634e487b7160e01b600052602160045260246000fd5b021790555050336000908152600a60205260408082209051919250906123fc90612c62565b90815260408051918290036020908101832060e0840190925281546001600160a01b031683526001820180549184019161243590612e6d565b80601f016020809104026020016040519081016040528092919081815260200182805461246190612e6d565b80156124ae5780601f10612483576101008083540402835291602001916124ae565b820191906000526020600020905b81548152906001019060200180831161249157829003601f168201915b505050918352505060028201546020820152600382015460408083019190915260049092015460ff8082161515606084015261010082048116151560808401526201000090910416151560a090910152810151909150600090612511908461195c565b6040805160e0810182523380825282518084018452600581526416111554d160da1b6020828101919091528084019190915282840185905260006060840181905260016080850181905260a085015260c08401819052918252600a905282902091519293509161258090612c62565b90815260405160209181900382019020825181546001600160a01b0319166001600160a01b0390911617815582820151805191926125c6926001850192909101906128d0565b50604082810151600283015560608084015160038401556080808501516004909401805460a08088015160c09889015161ffff1990931697151561ff00191697909717610100971515979097029690961762ff000019166201000091151591909102179055336000818152600b6020908152858220865160e0810188529384528651808801885260058082526416111554d160da1b828501528584019182529785018d905295840183905260019484018590529683018490529682018190528554808401875595815286902081519590940290930180546001600160a01b0319166001600160a01b039095169490941784559051805192946126ce93928501929101906128d0565b50604082015160028201556060820151600382015560808201516004909101805460a084015160c0909401511515620100000262ff0000199415156101000261ff00199415159490941661ffff199092169190911792909217929092161790556127366128a1565b6040516340c10f1960e01b8152336004820152602481018a90526001600160a01b0391909116906340c10f1990604401602060405180830381600087803b15801561278057600080fd5b505af1158015612794573d6000803e3d6000fd5b505050506040513d601f19601f820116820180604052508101906127b89190612afa565b5096979650505050505050565b6000806127d0611340565b6001600160a01b031663a40b18c2846040518263ffffffff1660e01b81526004016127fb9190612d18565b60206040518083038186803b15801561281357600080fd5b505afa158015612827573d6000803e3d6000fd5b505050506040513d601f19601f8201168201806040525081019061284b9190612bd3565b905060006128598583611394565b905061286761271082612de7565b95945050505050565b600081848411156128945760405162461bcd60e51b81526004016107609190612d18565b5060006128678486612e26565b600060046040518060400160405280600581526020016416111554d160da1b8152506040516113769190612c46565b8280546128dc90612e6d565b90600052602060002090601f0160209004810192826128fe5760008555612944565b82601f1061291757805160ff1916838001178555612944565b82800160010185558215612944579182015b82811115612944578251825591602001919060010190612929565b50612950929150612954565b5090565b5b808211156129505760008155600101612955565b80356001600160a01b038116811461298057600080fd5b919050565b600082601f830112612995578081fd5b813567ffffffffffffffff808211156129b0576129b0612ed9565b604051601f8301601f19908116603f011681019082821181831017156129d8576129d8612ed9565b816040528381528660208588010111156129f0578485fd5b8360208701602083013792830160200193909352509392505050565b600060208284031215612a1d578081fd5b610dfb82612969565b60008060408385031215612a38578081fd5b612a4183612969565b9150602083013567ffffffffffffffff811115612a5c578182fd5b612a6885828601612985565b9150509250929050565b60008060408385031215612a84578182fd5b612a8d83612969565b946020939093013593505050565b60008060008060808587031215612ab0578182fd5b612ab985612969565b93506020850135925060408501359150606085013567ffffffffffffffff811115612ae2578182fd5b612aee87828801612985565b91505092959194509250565b600060208284031215612b0b578081fd5b81518015158114610dfb578182fd5b600060208284031215612b2b578081fd5b5035919050565b60008060408385031215612b44578182fd5b82359150612b5460208401612969565b90509250929050565b600060208284031215612b6e578081fd5b813567ffffffffffffffff811115612b84578182fd5b610d6d84828501612985565b60008060408385031215612ba2578182fd5b823567ffffffffffffffff811115612bb8578283fd5b612bc485828601612985565b925050612b5460208401612969565b600060208284031215612be4578081fd5b5051919050565b60008060408385031215612bfd578182fd5b82359150602083013567ffffffffffffffff811115612a5c578182fd5b60008151808452612c32816020860160208601612e3d565b601f01601f19169290920160200192915050565b60008251612c58818460208701612e3d565b9190910192915050565b6416111554d160da1b815260050190565b6001600160a01b038616815260208101859052604081018490526060810183905260a0810160028310612cb657634e487b7160e01b600052602160045260246000fd5b8260808301529695505050505050565b6001600160a01b038816815260e060208201819052600090612cea90830189612c1a565b60408301979097525060608101949094529115156080840152151560a0830152151560c09091015292915050565b602081526000610dfb6020830184612c1a565b60208082526032908201527f504c4920616d6f756e742053686f756c64206265206d696e696d756d504c4944604082015271195c1bdcda5d105b5bdd5b9d081b1a5b5a5d60721b606082015260800190565b60208082526032908201527f58444320616d6f756e742053686f756c64206265206d696e696d756d58444344604082015271195c1bdcda5d105b5bdd5b9d081b1a5b5a5d60721b606082015260800190565b60008219821115612de257612de2612ec3565b500190565b600082612e0257634e487b7160e01b81526012600452602481fd5b500490565b6000816000190483118215151615612e2157612e21612ec3565b500290565b600082821015612e3857612e38612ec3565b500390565b60005b83811015612e58578181015183820152602001612e40565b83811115612e67576000848401525b50505050565b600181811c90821680612e8157607f821691505b60208210811415612ea257634e487b7160e01b600052602260045260246000fd5b50919050565b6000600019821415612ebc57612ebc612ec3565b5060010190565b634e487b7160e01b600052601160045260246000fd5b634e487b7160e01b600052604160045260246000fdfea26469706673582212205c42320fb65d2363f1de2fb8c41bf2e46941e57145ac9662d936c5773d42bae164736f6c63430008040033",
  "linkReferences": {},
  "deployedLinkReferences": {}
}