{
  "_format": "hh-sol-artifact-1",
  "contractName": "ExchangeRate",
  "sourceName": "contracts/ExchangeRate.sol",
  "abi": [
    {
      "inputs": [
        {
          "internalType": "address",
          "name": "_pli",
          "type": "address"
        },
        {
          "internalType": "address",
          "name": "_oracle",
          "type": "address"
        },
        {
          "internalType": "string",
          "name": "_jobid",
          "type": "string"
        }
      ],
      "stateMutability": "nonpayable",
      "type": "constructor"
    },
    {
      "anonymous": false,
      "inputs": [
        {
          "indexed": true,
          "internalType": "bytes32",
          "name": "id",
          "type": "bytes32"
        }
      ],
      "name": "PluginCancelled",
      "type": "event"
    },
    {
      "anonymous": false,
      "inputs": [
        {
          "indexed": true,
          "internalType": "bytes32",
          "name": "id",
          "type": "bytes32"
        }
      ],
      "name": "PluginFulfilled",
      "type": "event"
    },
    {
      "anonymous": false,
      "inputs": [
        {
          "indexed": true,
          "internalType": "bytes32",
          "name": "id",
          "type": "bytes32"
        }
      ],
      "name": "PluginRequested",
      "type": "event"
    },
    {
      "anonymous": false,
      "inputs": [
        {
          "indexed": true,
          "internalType": "bytes32",
          "name": "requestId",
          "type": "bytes32"
        },
        {
          "indexed": true,
          "internalType": "uint256",
          "name": "currentVal",
          "type": "uint256"
        }
      ],
      "name": "RequestFulfilled",
      "type": "event"
    },
    {
      "anonymous": false,
      "inputs": [
        {
          "indexed": true,
          "internalType": "address",
          "name": "requester",
          "type": "address"
        },
        {
          "indexed": true,
          "internalType": "bytes32",
          "name": "jobId",
          "type": "bytes32"
        },
        {
          "indexed": true,
          "internalType": "bytes32",
          "name": "requestId",
          "type": "bytes32"
        }
      ],
      "name": "requestCreated",
      "type": "event"
    },
    {
      "anonymous": false,
      "inputs": [
        {
          "indexed": true,
          "internalType": "bytes32",
          "name": "jobId",
          "type": "bytes32"
        },
        {
          "indexed": true,
          "internalType": "bytes32",
          "name": "requestId",
          "type": "bytes32"
        }
      ],
      "name": "requestCreatedTest",
      "type": "event"
    },
    {
      "inputs": [],
      "name": "CONTRACT_NAME",
      "outputs": [
        {
          "internalType": "string",
          "name": "",
          "type": "string"
        }
      ],
      "stateMutability": "view",
      "type": "function"
    },
    {
      "inputs": [
        {
          "internalType": "bytes32",
          "name": "_requestId",
          "type": "bytes32"
        },
        {
          "internalType": "uint256",
          "name": "_payment",
          "type": "uint256"
        },
        {
          "internalType": "bytes4",
          "name": "_callbackFunctionId",
          "type": "bytes4"
        },
        {
          "internalType": "uint256",
          "name": "_expiration",
          "type": "uint256"
        }
      ],
      "name": "cancelRequest",
      "outputs": [],
      "stateMutability": "nonpayable",
      "type": "function"
    },
    {
      "inputs": [],
      "name": "currentValue",
      "outputs": [
        {
          "internalType": "uint256",
          "name": "",
          "type": "uint256"
        }
      ],
      "stateMutability": "view",
      "type": "function"
    },
    {
      "inputs": [
        {
          "internalType": "bytes32",
          "name": "_requestId",
          "type": "bytes32"
        },
        {
          "internalType": "uint256",
          "name": "_currentval",
          "type": "uint256"
        }
      ],
      "name": "fulfill",
      "outputs": [],
      "stateMutability": "nonpayable",
      "type": "function"
    },
    {
      "inputs": [],
      "name": "getPluginToken",
      "outputs": [
        {
          "internalType": "address",
          "name": "",
          "type": "address"
        }
      ],
      "stateMutability": "view",
      "type": "function"
    },
    {
      "inputs": [],
      "name": "jobId",
      "outputs": [
        {
          "internalType": "string",
          "name": "",
          "type": "string"
        }
      ],
      "stateMutability": "view",
      "type": "function"
    },
    {
      "inputs": [],
      "name": "latestTimestamp",
      "outputs": [
        {
          "internalType": "uint256",
          "name": "",
          "type": "uint256"
        }
      ],
      "stateMutability": "view",
      "type": "function"
    },
    {
      "inputs": [
        {
          "internalType": "bytes32",
          "name": "",
          "type": "bytes32"
        }
      ],
      "name": "markets",
      "outputs": [
        {
          "internalType": "bytes32",
          "name": "reqid",
          "type": "bytes32"
        },
        {
          "internalType": "uint256",
          "name": "price",
          "type": "uint256"
        },
        {
          "internalType": "string",
          "name": "fSymbol",
          "type": "string"
        },
        {
          "internalType": "uint256",
          "name": "updatedOn",
          "type": "uint256"
        }
      ],
      "stateMutability": "view",
      "type": "function"
    },
    {
      "inputs": [],
      "name": "oracle",
      "outputs": [
        {
          "internalType": "address",
          "name": "",
          "type": "address"
        }
      ],
      "stateMutability": "view",
      "type": "function"
    },
    {
      "inputs": [
        {
          "internalType": "string",
          "name": "",
          "type": "string"
        }
      ],
      "name": "prices",
      "outputs": [
        {
          "internalType": "string",
          "name": "fSymbol",
          "type": "string"
        },
        {
          "internalType": "uint256",
          "name": "price",
          "type": "uint256"
        },
        {
          "internalType": "uint256",
          "name": "updatedOn",
          "type": "uint256"
        }
      ],
      "stateMutability": "view",
      "type": "function"
    },
    {
      "inputs": [
        {
          "internalType": "string",
          "name": "_fSymbol",
          "type": "string"
        },
        {
          "internalType": "string",
          "name": "_tSymbol",
          "type": "string"
        }
      ],
      "name": "requestData",
      "outputs": [
        {
          "internalType": "bytes32",
          "name": "",
          "type": "bytes32"
        }
      ],
      "stateMutability": "nonpayable",
      "type": "function"
    },
    {
      "inputs": [
        {
          "internalType": "string",
          "name": "_fsym",
          "type": "string"
        }
      ],
      "name": "showCurrentPrice",
      "outputs": [
        {
          "internalType": "uint256",
          "name": "",
          "type": "uint256"
        }
      ],
      "stateMutability": "view",
      "type": "function"
    },
    {
      "inputs": [
        {
          "internalType": "bytes32",
          "name": "_reqId",
          "type": "bytes32"
        }
      ],
      "name": "showPrice",
      "outputs": [
        {
          "internalType": "uint256",
          "name": "",
          "type": "uint256"
        }
      ],
      "stateMutability": "view",
      "type": "function"
    },
    {
      "inputs": [],
      "name": "withdrawPli",
      "outputs": [],
      "stateMutability": "nonpayable",
      "type": "function"
    }
  ],
  "bytecode": "0x608060405260016004553480156200001657600080fd5b5060405162001b1338038062001b13833981016040819052620000399162000151565b600280546001600160a01b0319166001600160a01b038516179055600680546001600160a01b0319166001600160a01b0384161790558051620000849060079060208401906200008e565b50505050620002a2565b8280546200009c906200024f565b90600052602060002090601f016020900481019282620000c057600085556200010b565b82601f10620000db57805160ff19168380011785556200010b565b828001600101855582156200010b579182015b828111156200010b578251825591602001919060010190620000ee565b50620001199291506200011d565b5090565b5b808211156200011957600081556001016200011e565b80516001600160a01b03811681146200014c57600080fd5b919050565b60008060006060848603121562000166578283fd5b620001718462000134565b925060206200018281860162000134565b60408601519093506001600160401b03808211156200019f578384fd5b818701915087601f830112620001b3578384fd5b815181811115620001c857620001c86200028c565b604051601f8201601f19908116603f01168101908382118183101715620001f357620001f36200028c565b816040528281528a868487010111156200020b578687fd5b8693505b828410156200022e57848401860151818501870152928501926200020f565b828411156200023f57868684830101525b8096505050505050509250925092565b600181811c908216806200026457607f821691505b602082108114156200028657634e487b7160e01b600052602260045260246000fd5b50919050565b634e487b7160e01b600052604160045260246000fd5b61186180620002b26000396000f3fe608060405234801561001057600080fd5b50600436106100ea5760003560e01c8063a40b18c21161008c578063c3825f4b11610066578063c3825f4b146101de578063d7a356be14610200578063dd953fb014610213578063ec65d0f81461023657600080fd5b8063a40b18c2146101bb578063a4b6f67e146101ce578063c2939d97146101d657600080fd5b8063698996f8116100c8578063698996f81461014d5780637564912b146101645780637dc0d1d0146101875780638205bf6a146101b257600080fd5b806337fccd30146100ef5780634357855e146100f9578063614d08f81461010c575b600080fd5b6100f7610249565b005b6100f76101073660046113b0565b6103a8565b6101376040518060400160405280600c81526020016b45584348414e47455241544560a01b81525081565b60405161014491906115ce565b60405180910390f35b61015660085481565b604051908152602001610144565b610177610172366004611398565b610563565b604051610144949392919061159e565b60065461019a906001600160a01b031681565b6040516001600160a01b039091168152602001610144565b61015660095481565b6101566101c936600461141b565b610614565b61019a61063f565b610137610658565b6101f16101ec36600461141b565b6106e6565b604051610144939291906115e1565b61015661020e36600461144e565b61079b565b610156610221366004611398565b6000908152600a602052604090206001015490565b6100f76102443660046113d1565b6109c0565b600061025d6002546001600160a01b031690565b6040516370a0823160e01b81523060048201529091506001600160a01b0382169063a9059cbb90339083906370a082319060240160206040518083038186803b1580156102a957600080fd5b505afa1580156102bd573d6000803e3d6000fd5b505050506040513d601f19601f820116820180604052508101906102e191906114af565b6040516001600160e01b031960e085901b1681526001600160a01b0390921660048301526024820152604401602060405180830381600087803b15801561032757600080fd5b505af115801561033b573d6000803e3d6000fd5b505050506040513d601f19601f8201168201806040525081019061035f9190611378565b6103a55760405162461bcd60e51b81526020600482015260126024820152712ab730b13632903a37903a3930b739b332b960711b60448201526064015b60405180910390fd5b50565b60008281526005602052604090205482906001600160a01b031633146104215760405162461bcd60e51b815260206004820152602860248201527f536f75726365206d75737420626520746865206f7261636c65206f6620746865604482015267081c995c5d595cdd60c21b606482015260840161039c565b60008181526005602052604080822080546001600160a01b03191690555182917fa40ad10b942505047c532a7399bf5eac2768b11b7155b40ec80309aea567f99891a26000838152600a60205260408120600181018490556002018054610487906117aa565b80601f01602080910402602001604051908101604052809291908181526020018280546104b3906117aa565b80156105005780601f106104d557610100808354040283529160200191610500565b820191906000526020600020905b8154815290600101906020018083116104e357829003601f168201915b5050505050905082600b8260405161051891906114f3565b908152604051908190036020018120600101919091556008849055839085907f1ca8663227a7fe9919713a01d344afbb434e234f35a3e540a6ad924f88771f3890600090a350505050565b600a602052600090815260409020805460018201546002830180549293919261058b906117aa565b80601f01602080910402602001604051908101604052809291908181526020018280546105b7906117aa565b80156106045780601f106105d957610100808354040283529160200191610604565b820191906000526020600020905b8154815290600101906020018083116105e757829003601f168201915b5050505050908060030154905084565b6000600b8260405161062691906114f3565b9081526020016040518091039020600101549050919050565b60006106536002546001600160a01b031690565b905090565b60078054610665906117aa565b80601f0160208091040260200160405190810160405280929190818152602001828054610691906117aa565b80156106de5780601f106106b3576101008083540402835291602001916106de565b820191906000526020600020905b8154815290600101906020018083116106c157829003601f168201915b505050505081565b8051602081830181018051600b8252928201919093012091528054819061070c906117aa565b80601f0160208091040260200160405190810160405280929190818152602001828054610738906117aa565b80156107855780601f1061075a57610100808354040283529160200191610785565b820191906000526020600020905b81548152906001019060200180831161076857829003601f168201915b5050505050908060010154908060020154905083565b600080610842610834600780546107b1906117aa565b80601f01602080910402602001604051908101604052809291908181526020018280546107dd906117aa565b801561082a5780601f106107ff5761010080835404028352916020019161082a565b820191906000526020600020905b81548152906001019060200180831161080d57829003601f168201915b50505050506109d2565b306321abc2af60e11b6109ef565b6040805180820190915260068152655f6673796d7360d01b602082015290915061086e90829086610a14565b6040805180820190915260068152655f7473796d7360d01b602082015261089790829085610a14565b60408051808201909152600581526474696d657360d81b60208201526108c1908290612710610a37565b6006546000906108e1906001600160a01b031683655af3107a4000610a55565b42600981905560408051608081018252838152600060208083018281528385018c81526060850196909652868352600a8252939091208251815592516001840155925180519495509093919261093f9260028501929091019061121d565b50606091820151600390910155604080519182018152868252600060208301526009548282015251600b906109759088906114f3565b9081526020016040518091039020600082015181600001908051906020019061099f92919061121d565b50602082015160018201556040909101516002909101559150505b92915050565b6109cc84848484610a74565b50505050565b805160009082906109e65750600092915050565b50506020015190565b6109f76112a1565b6109ff6112a1565b610a0b81868686610b46565b95945050505050565b6080830151610a239083610b83565b6080830151610a329082610b83565b505050565b6080830151610a469083610b83565b6080830151610a329082610b9a565b6000610a6c84848460016320214ca360e11b610bfe565b949350505050565b60008481526005602052604080822080546001600160a01b0319811690915590516001600160a01b039091169186917f715822738dad692e521ebc0193d189bf23153eb1d4420173d6b30cd8add9f9a69190a2604051636ee4d55360e01b815260048101869052602481018590526001600160e01b031984166044820152606481018390526001600160a01b03821690636ee4d55390608401600060405180830381600087803b158015610b2757600080fd5b505af1158015610b3b573d6000803e3d6000fd5b505050505050505050565b610b4e6112a1565b610b5e8560800151610100610e0a565b50509183526001600160a01b031660208301526001600160e01b031916604082015290565b610b908260038351610e6f565b610a328282610f3d565b67ffffffffffffffff19811215610bb957610bb58282610f6b565b5050565b67ffffffffffffffff811315610bd357610bb58282610fad565b60008112610be757610bb582600083610e6f565b610bb5826001610bf984600019611728565b610e6f565b6004546040516bffffffffffffffffffffffff193060601b166020820152603481019190915260009060540160408051808303601f19018152918152815160209283012060045460608901526000818152600590935281832080546001600160a01b0319166001600160a01b038b16179055905190925082917fa6745906207afb96a5801b8e5711fd7b74c5780ce893a973806e179d675bbe2491a2600082600080886000015189602001518a604001518b606001518a8d6080015160000151604051602401610cd598979695949392919061150f565b60408051601f198184030181529181526020820180516001600160e01b03166001600160e01b0319909416939093179092526002549151630200057560e51b81529092506001600160a01b0390911690634000aea090610d3d908a9089908690600401611577565b602060405180830381600087803b158015610d5757600080fd5b505af1158015610d6b573d6000803e3d6000fd5b505050506040513d601f19601f82011682018060405250810190610d8f9190611378565b610de75760405162461bcd60e51b815260206004820152602360248201527f756e61626c6520746f207472616e73666572416e6443616c6c20746f206f7261604482015262636c6560e81b606482015260840161039c565b600160046000828254610dfa9190611606565b9091555091979650505050505050565b604080518082019091526060815260006020820152610e2a6020836117df565b15610e5257610e3a6020836117df565b610e45906020611767565b610e4f9083611606565b91505b506020828101829052604080518085526000815290920101905290565b60178111610e8a576109cc8360e0600585901b168317610fd0565b60ff8111610eb457610ea7836018611fe0600586901b1617610fd0565b506109cc83826001610ff5565b61ffff8111610edf57610ed2836019611fe0600586901b1617610fd0565b506109cc83826002610ff5565b63ffffffff8111610f0c57610eff83601a611fe0600586901b1617610fd0565b506109cc83826004610ff5565b67ffffffffffffffff8111610a3257610f3083601b611fe0600586901b1617610fd0565b506109cc83826008610ff5565b604080518082019091526060815260006020820152610f648384600001515184855161101b565b9392505050565b610f768260c3610fd0565b50610bb582610f8783600019611728565b604051602001610f9991815260200190565b604051602081830303815290604052611105565b610fb88260c2610fd0565b50610bb58282604051602001610f9991815260200190565b604080518082019091526060815260006020820152610f648384600001515184611112565b604080518082019091526060815260006020820152610a6c84856000015151858561116e565b604080518082019091526060815260006020820152825182111561103e57600080fd5b602085015161104d8386611606565b111561108057611080856110708760200151878661106b9190611606565b6111ef565b61107b906002611709565b611206565b60008086518051876020830101935080888701111561109f5787860182525b505050602084015b602084106110df57805182526110be602083611606565b91506110cb602082611606565b90506110d8602085611767565b93506110a7565b51815160001960208690036101000a019081169019919091161790525083949350505050565b610b908260028351610e6f565b6040805180820190915260608152600060208201528360200151831061114757611147848560200151600261107b9190611709565b835180516020858301018481535080851415611164576001810182525b5093949350505050565b60408051808201909152606081526000602082015260208501516111928584611606565b11156111a6576111a6856110708685611606565b600060016111b684610100611661565b6111c09190611767565b90508551838682010185831982511617815250805184870111156111e45783860181525b509495945050505050565b6000818311156112005750816109ba565b50919050565b81516112128383610e0a565b506109cc8382610f3d565b828054611229906117aa565b90600052602060002090601f01602090048101928261124b5760008555611291565b82601f1061126457805160ff1916838001178555611291565b82800160010185558215611291579182015b82811115611291578251825591602001919060010190611276565b5061129d9291506112dc565b5090565b6040805160a0810182526000808252602080830182905282840182905260608084018390528451808601909552845283015290608082015290565b5b8082111561129d57600081556001016112dd565b600082601f830112611301578081fd5b813567ffffffffffffffff8082111561131c5761131c611815565b604051601f8301601f19908116603f0116810190828211818310171561134457611344611815565b8160405283815286602085880101111561135c578485fd5b8360208701602083013792830160200193909352509392505050565b600060208284031215611389578081fd5b81518015158114610f64578182fd5b6000602082840312156113a9578081fd5b5035919050565b600080604083850312156113c2578081fd5b50508035926020909101359150565b600080600080608085870312156113e6578182fd5b843593506020850135925060408501356001600160e01b03198116811461140b578283fd5b9396929550929360600135925050565b60006020828403121561142c578081fd5b813567ffffffffffffffff811115611442578182fd5b610a6c848285016112f1565b60008060408385031215611460578182fd5b823567ffffffffffffffff80821115611477578384fd5b611483868387016112f1565b93506020850135915080821115611498578283fd5b506114a5858286016112f1565b9150509250929050565b6000602082840312156114c0578081fd5b5051919050565b600081518084526114df81602086016020860161177e565b601f01601f19169290920160200192915050565b6000825161150581846020870161177e565b9190910192915050565b6001600160a01b0389811682526020820189905260408201889052861660608201526001600160e01b03198516608082015260a0810184905260c0810183905261010060e08201819052600090611568838201856114c7565b9b9a5050505050505050505050565b60018060a01b0384168152826020820152606060408201526000610a0b60608301846114c7565b8481528360208201526080604082015260006115bd60808301856114c7565b905082606083015295945050505050565b602081526000610f6460208301846114c7565b6060815260006115f460608301866114c7565b60208301949094525060400152919050565b60008219821115611619576116196117ff565b500190565b600181815b8085111561165957816000190482111561163f5761163f6117ff565b8085161561164c57918102915b93841c9390800290611623565b509250929050565b6000610f648383600082611677575060016109ba565b81611684575060006109ba565b816001811461169a57600281146116a4576116c0565b60019150506109ba565b60ff8411156116b5576116b56117ff565b50506001821b6109ba565b5060208310610133831016604e8410600b84101617156116e3575081810a6109ba565b6116ed838361161e565b8060001904821115611701576117016117ff565b029392505050565b6000816000190483118215151615611723576117236117ff565b500290565b60008083128015600160ff1b850184121615611746576117466117ff565b6001600160ff1b0384018313811615611761576117616117ff565b50500390565b600082821015611779576117796117ff565b500390565b60005b83811015611799578181015183820152602001611781565b838111156109cc5750506000910152565b600181811c908216806117be57607f821691505b6020821081141561120057634e487b7160e01b600052602260045260246000fd5b6000826117fa57634e487b7160e01b81526012600452602481fd5b500690565b634e487b7160e01b600052601160045260246000fd5b634e487b7160e01b600052604160045260246000fdfea2646970667358221220d0818177fde2cd41cad39ecd0c67e97eacaa0c114eac88bfcdd65d09b1764a9c64736f6c63430008040033",
  "linkReferences": {},
  "deployedLinkReferences": {}
}