{
	"Core/XSwapPair.sol": {
		"XSwapPair": {
			"abi": [
				{
					"inputs": [],
					"stateMutability": "nonpayable",
					"type": "constructor"
				},
				{
					"anonymous": false,
					"inputs": [
						{
							"indexed": true,
							"internalType": "address",
							"name": "owner",
							"type": "address"
						},
						{
							"indexed": true,
							"internalType": "address",
							"name": "spender",
							"type": "address"
						},
						{
							"indexed": false,
							"internalType": "uint256",
							"name": "value",
							"type": "uint256"
						}
					],
					"name": "Approval",
					"type": "event"
				},
				{
					"anonymous": false,
					"inputs": [
						{
							"indexed": true,
							"internalType": "address",
							"name": "sender",
							"type": "address"
						},
						{
							"indexed": false,
							"internalType": "uint256",
							"name": "amount0",
							"type": "uint256"
						},
						{
							"indexed": false,
							"internalType": "uint256",
							"name": "amount1",
							"type": "uint256"
						},
						{
							"indexed": true,
							"internalType": "address",
							"name": "to",
							"type": "address"
						}
					],
					"name": "Burn",
					"type": "event"
				},
				{
					"anonymous": false,
					"inputs": [
						{
							"indexed": true,
							"internalType": "address",
							"name": "sender",
							"type": "address"
						},
						{
							"indexed": false,
							"internalType": "uint256",
							"name": "amount0",
							"type": "uint256"
						},
						{
							"indexed": false,
							"internalType": "uint256",
							"name": "amount1",
							"type": "uint256"
						}
					],
					"name": "Mint",
					"type": "event"
				},
				{
					"anonymous": false,
					"inputs": [
						{
							"indexed": true,
							"internalType": "address",
							"name": "sender",
							"type": "address"
						},
						{
							"indexed": false,
							"internalType": "uint256",
							"name": "amount0In",
							"type": "uint256"
						},
						{
							"indexed": false,
							"internalType": "uint256",
							"name": "amount1In",
							"type": "uint256"
						},
						{
							"indexed": false,
							"internalType": "uint256",
							"name": "amount0Out",
							"type": "uint256"
						},
						{
							"indexed": false,
							"internalType": "uint256",
							"name": "amount1Out",
							"type": "uint256"
						},
						{
							"indexed": true,
							"internalType": "address",
							"name": "to",
							"type": "address"
						}
					],
					"name": "Swap",
					"type": "event"
				},
				{
					"anonymous": false,
					"inputs": [
						{
							"indexed": false,
							"internalType": "uint112",
							"name": "reserve0",
							"type": "uint112"
						},
						{
							"indexed": false,
							"internalType": "uint112",
							"name": "reserve1",
							"type": "uint112"
						}
					],
					"name": "Sync",
					"type": "event"
				},
				{
					"anonymous": false,
					"inputs": [
						{
							"indexed": true,
							"internalType": "address",
							"name": "from",
							"type": "address"
						},
						{
							"indexed": true,
							"internalType": "address",
							"name": "to",
							"type": "address"
						},
						{
							"indexed": false,
							"internalType": "uint256",
							"name": "value",
							"type": "uint256"
						}
					],
					"name": "Transfer",
					"type": "event"
				},
				{
					"inputs": [],
					"name": "MINIMUM_LIQUIDITY",
					"outputs": [
						{
							"internalType": "uint256",
							"name": "",
							"type": "uint256"
						}
					],
					"stateMutability": "view",
					"type": "function"
				},
				{
					"inputs": [
						{
							"internalType": "address",
							"name": "",
							"type": "address"
						},
						{
							"internalType": "address",
							"name": "",
							"type": "address"
						}
					],
					"name": "allowance",
					"outputs": [
						{
							"internalType": "uint256",
							"name": "",
							"type": "uint256"
						}
					],
					"stateMutability": "view",
					"type": "function"
				},
				{
					"inputs": [
						{
							"internalType": "address",
							"name": "spender",
							"type": "address"
						},
						{
							"internalType": "uint256",
							"name": "value",
							"type": "uint256"
						}
					],
					"name": "approve",
					"outputs": [
						{
							"internalType": "bool",
							"name": "",
							"type": "bool"
						}
					],
					"stateMutability": "nonpayable",
					"type": "function"
				},
				{
					"inputs": [
						{
							"internalType": "address",
							"name": "",
							"type": "address"
						}
					],
					"name": "balanceOf",
					"outputs": [
						{
							"internalType": "uint256",
							"name": "",
							"type": "uint256"
						}
					],
					"stateMutability": "view",
					"type": "function"
				},
				{
					"inputs": [
						{
							"internalType": "address",
							"name": "to",
							"type": "address"
						}
					],
					"name": "burn",
					"outputs": [
						{
							"internalType": "uint256",
							"name": "amount0",
							"type": "uint256"
						},
						{
							"internalType": "uint256",
							"name": "amount1",
							"type": "uint256"
						}
					],
					"stateMutability": "nonpayable",
					"type": "function"
				},
				{
					"inputs": [],
					"name": "decimals",
					"outputs": [
						{
							"internalType": "uint8",
							"name": "",
							"type": "uint8"
						}
					],
					"stateMutability": "view",
					"type": "function"
				},
				{
					"inputs": [],
					"name": "factory",
					"outputs": [
						{
							"internalType": "address",
							"name": "",
							"type": "address"
						}
					],
					"stateMutability": "view",
					"type": "function"
				},
				{
					"inputs": [],
					"name": "getReserves",
					"outputs": [
						{
							"internalType": "uint112",
							"name": "_reserve0",
							"type": "uint112"
						},
						{
							"internalType": "uint112",
							"name": "_reserve1",
							"type": "uint112"
						},
						{
							"internalType": "uint32",
							"name": "_blockTimestampLast",
							"type": "uint32"
						}
					],
					"stateMutability": "view",
					"type": "function"
				},
				{
					"inputs": [
						{
							"internalType": "address",
							"name": "_token0",
							"type": "address"
						},
						{
							"internalType": "address",
							"name": "_token1",
							"type": "address"
						}
					],
					"name": "initialize",
					"outputs": [],
					"stateMutability": "nonpayable",
					"type": "function"
				},
				{
					"inputs": [],
					"name": "kLast",
					"outputs": [
						{
							"internalType": "uint256",
							"name": "",
							"type": "uint256"
						}
					],
					"stateMutability": "view",
					"type": "function"
				},
				{
					"inputs": [
						{
							"internalType": "address",
							"name": "to",
							"type": "address"
						}
					],
					"name": "mint",
					"outputs": [
						{
							"internalType": "uint256",
							"name": "liquidity",
							"type": "uint256"
						}
					],
					"stateMutability": "nonpayable",
					"type": "function"
				},
				{
					"inputs": [],
					"name": "name",
					"outputs": [
						{
							"internalType": "string",
							"name": "",
							"type": "string"
						}
					],
					"stateMutability": "view",
					"type": "function"
				},
				{
					"inputs": [
						{
							"internalType": "address",
							"name": "",
							"type": "address"
						}
					],
					"name": "nonces",
					"outputs": [
						{
							"internalType": "uint256",
							"name": "",
							"type": "uint256"
						}
					],
					"stateMutability": "view",
					"type": "function"
				},
				{
					"inputs": [],
					"name": "price0CumulativeLast",
					"outputs": [
						{
							"internalType": "uint256",
							"name": "",
							"type": "uint256"
						}
					],
					"stateMutability": "view",
					"type": "function"
				},
				{
					"inputs": [],
					"name": "price1CumulativeLast",
					"outputs": [
						{
							"internalType": "uint256",
							"name": "",
							"type": "uint256"
						}
					],
					"stateMutability": "view",
					"type": "function"
				},
				{
					"inputs": [
						{
							"internalType": "address",
							"name": "to",
							"type": "address"
						}
					],
					"name": "skim",
					"outputs": [],
					"stateMutability": "nonpayable",
					"type": "function"
				},
				{
					"inputs": [
						{
							"internalType": "uint256",
							"name": "amount0Out",
							"type": "uint256"
						},
						{
							"internalType": "uint256",
							"name": "amount1Out",
							"type": "uint256"
						},
						{
							"internalType": "address",
							"name": "to",
							"type": "address"
						},
						{
							"internalType": "bytes",
							"name": "data",
							"type": "bytes"
						}
					],
					"name": "swap",
					"outputs": [],
					"stateMutability": "nonpayable",
					"type": "function"
				},
				{
					"inputs": [],
					"name": "symbol",
					"outputs": [
						{
							"internalType": "string",
							"name": "",
							"type": "string"
						}
					],
					"stateMutability": "view",
					"type": "function"
				},
				{
					"inputs": [],
					"name": "sync",
					"outputs": [],
					"stateMutability": "nonpayable",
					"type": "function"
				},
				{
					"inputs": [],
					"name": "token0",
					"outputs": [
						{
							"internalType": "address",
							"name": "",
							"type": "address"
						}
					],
					"stateMutability": "view",
					"type": "function"
				},
				{
					"inputs": [],
					"name": "token1",
					"outputs": [
						{
							"internalType": "address",
							"name": "",
							"type": "address"
						}
					],
					"stateMutability": "view",
					"type": "function"
				},
				{
					"inputs": [],
					"name": "totalSupply",
					"outputs": [
						{
							"internalType": "uint256",
							"name": "",
							"type": "uint256"
						}
					],
					"stateMutability": "view",
					"type": "function"
				},
				{
					"inputs": [
						{
							"internalType": "address",
							"name": "to",
							"type": "address"
						},
						{
							"internalType": "uint256",
							"name": "value",
							"type": "uint256"
						}
					],
					"name": "transfer",
					"outputs": [
						{
							"internalType": "bool",
							"name": "",
							"type": "bool"
						}
					],
					"stateMutability": "nonpayable",
					"type": "function"
				},
				{
					"inputs": [
						{
							"internalType": "address",
							"name": "from",
							"type": "address"
						},
						{
							"internalType": "address",
							"name": "to",
							"type": "address"
						},
						{
							"internalType": "uint256",
							"name": "value",
							"type": "uint256"
						}
					],
					"name": "transferFrom",
					"outputs": [
						{
							"internalType": "bool",
							"name": "",
							"type": "bool"
						}
					],
					"stateMutability": "nonpayable",
					"type": "function"
				}
			],
			"devdoc": {
				"kind": "dev",
				"methods": {},
				"version": 1
			},
			"evm": {
				"assembly": "    /* \"Core/XSwapPair.sol\":228:10448  contract XSwapPair is XSwapERC20 {... */\n  mstore(0x40, 0x80)\n    /* \"Core/XSwapPair.sol\":1058:1059  1 */\n  0x01\n    /* \"Core/XSwapPair.sol\":1031:1059  uint256 private unlocked = 1 */\n  0x0b\n  sstore\n    /* \"Core/XSwapPair.sol\":2317:2368  constructor() {... */\n  callvalue\n  dup1\n  iszero\n  tag_1\n  jumpi\n  0x00\n  dup1\n  revert\ntag_1:\n  pop\n    /* \"Core/XSwapPair.sol\":2351:2361  msg.sender */\n  caller\n    /* \"Core/XSwapPair.sol\":2341:2348  factory */\n  0x04\n  0x00\n    /* \"Core/XSwapPair.sol\":2341:2361  factory = msg.sender */\n  0x0100\n  exp\n  dup2\n  sload\n  dup2\n  0xffffffffffffffffffffffffffffffffffffffff\n  mul\n  not\n  and\n  swap1\n  dup4\n  0xffffffffffffffffffffffffffffffffffffffff\n  and\n  mul\n  or\n  swap1\n  sstore\n  pop\n    /* \"Core/XSwapPair.sol\":228:10448  contract XSwapPair is XSwapERC20 {... */\n  dataSize(sub_0)\n  dup1\n  dataOffset(sub_0)\n  0x00\n  codecopy\n  0x00\n  return\nstop\n\nsub_0: assembly {\n        /* \"Core/XSwapPair.sol\":228:10448  contract XSwapPair is XSwapERC20 {... */\n      mstore(0x40, 0x80)\n      callvalue\n      dup1\n      iszero\n      tag_1\n      jumpi\n      0x00\n      dup1\n      revert\n    tag_1:\n      pop\n      jumpi(tag_2, lt(calldatasize, 0x04))\n      shr(0xe0, calldataload(0x00))\n      dup1\n      0x70a08231\n      gt\n      tag_27\n      jumpi\n      dup1\n      0xba9a7a56\n      gt\n      tag_28\n      jumpi\n      dup1\n      0xba9a7a56\n      eq\n      tag_21\n      jumpi\n      dup1\n      0xbc25cf77\n      eq\n      tag_22\n      jumpi\n      dup1\n      0xc45a0155\n      eq\n      tag_23\n      jumpi\n      dup1\n      0xd21220a7\n      eq\n      tag_24\n      jumpi\n      dup1\n      0xdd62ed3e\n      eq\n      tag_25\n      jumpi\n      dup1\n      0xfff6cae9\n      eq\n      tag_26\n      jumpi\n      jump(tag_2)\n    tag_28:\n      dup1\n      0x70a08231\n      eq\n      tag_15\n      jumpi\n      dup1\n      0x7464fc3d\n      eq\n      tag_16\n      jumpi\n      dup1\n      0x7ecebe00\n      eq\n      tag_17\n      jumpi\n      dup1\n      0x89afcb44\n      eq\n      tag_18\n      jumpi\n      dup1\n      0x95d89b41\n      eq\n      tag_19\n      jumpi\n      dup1\n      0xa9059cbb\n      eq\n      tag_20\n      jumpi\n      jump(tag_2)\n    tag_27:\n      dup1\n      0x23b872dd\n      gt\n      tag_29\n      jumpi\n      dup1\n      0x23b872dd\n      eq\n      tag_9\n      jumpi\n      dup1\n      0x313ce567\n      eq\n      tag_10\n      jumpi\n      dup1\n      0x485cc955\n      eq\n      tag_11\n      jumpi\n      dup1\n      0x5909c0d5\n      eq\n      tag_12\n      jumpi\n      dup1\n      0x5a3d5493\n      eq\n      tag_13\n      jumpi\n      dup1\n      0x6a627842\n      eq\n      tag_14\n      jumpi\n      jump(tag_2)\n    tag_29:\n      dup1\n      0x022c0d9f\n      eq\n      tag_3\n      jumpi\n      dup1\n      0x06fdde03\n      eq\n      tag_4\n      jumpi\n      dup1\n      0x0902f1ac\n      eq\n      tag_5\n      jumpi\n      dup1\n      0x095ea7b3\n      eq\n      tag_6\n      jumpi\n      dup1\n      0x0dfe1681\n      eq\n      tag_7\n      jumpi\n      dup1\n      0x18160ddd\n      eq\n      tag_8\n      jumpi\n    tag_2:\n      0x00\n      dup1\n      revert\n        /* \"Core/XSwapPair.sol\":7733:9711  function swap(... */\n    tag_3:\n      tag_30\n      0x04\n      dup1\n      calldatasize\n      sub\n      dup2\n      add\n      swap1\n      tag_31\n      swap2\n      swap1\n      tag_32\n      jump\t// in\n    tag_31:\n      tag_33\n      jump\t// in\n    tag_30:\n      stop\n        /* \"Core/XSwapERC20.sol\":153:193  string public constant name = \"XSwap-V1\" */\n    tag_4:\n      tag_34\n      tag_35\n      jump\t// in\n    tag_34:\n      mload(0x40)\n      tag_36\n      swap2\n      swap1\n      tag_37\n      jump\t// in\n    tag_36:\n      mload(0x40)\n      dup1\n      swap2\n      sub\n      swap1\n      return\n        /* \"Core/XSwapPair.sol\":1191:1492  function getReserves()... */\n    tag_5:\n      tag_38\n      tag_39\n      jump\t// in\n    tag_38:\n      mload(0x40)\n      tag_40\n      swap4\n      swap3\n      swap2\n      swap1\n      tag_41\n      jump\t// in\n    tag_40:\n      mload(0x40)\n      dup1\n      swap2\n      sub\n      swap1\n      return\n        /* \"Core/XSwapERC20.sol\":1558:1705  function approve(address spender, uint256 value) external returns (bool) {... */\n    tag_6:\n      tag_42\n      0x04\n      dup1\n      calldatasize\n      sub\n      dup2\n      add\n      swap1\n      tag_43\n      swap2\n      swap1\n      tag_44\n      jump\t// in\n    tag_43:\n      tag_45\n      jump\t// in\n    tag_42:\n      mload(0x40)\n      tag_46\n      swap2\n      swap1\n      tag_47\n      jump\t// in\n    tag_46:\n      mload(0x40)\n      dup1\n      swap2\n      sub\n      swap1\n      return\n        /* \"Core/XSwapPair.sol\":519:540  address public token0 */\n    tag_7:\n      tag_48\n      tag_49\n      jump\t// in\n    tag_48:\n      mload(0x40)\n      tag_50\n      swap2\n      swap1\n      tag_51\n      jump\t// in\n    tag_50:\n      mload(0x40)\n      dup1\n      swap2\n      sub\n      swap1\n      return\n        /* \"Core/XSwapERC20.sol\":286:312  uint256 public totalSupply */\n    tag_8:\n      tag_52\n      tag_53\n      jump\t// in\n    tag_52:\n      mload(0x40)\n      tag_54\n      swap2\n      swap1\n      tag_55\n      jump\t// in\n    tag_54:\n      mload(0x40)\n      dup1\n      swap2\n      sub\n      swap1\n      return\n        /* \"Core/XSwapERC20.sol\":1856:2216  function transferFrom(... */\n    tag_9:\n      tag_56\n      0x04\n      dup1\n      calldatasize\n      sub\n      dup2\n      add\n      swap1\n      tag_57\n      swap2\n      swap1\n      tag_58\n      jump\t// in\n    tag_57:\n      tag_59\n      jump\t// in\n    tag_56:\n      mload(0x40)\n      tag_60\n      swap2\n      swap1\n      tag_47\n      jump\t// in\n    tag_60:\n      mload(0x40)\n      dup1\n      swap2\n      sub\n      swap1\n      return\n        /* \"Core/XSwapERC20.sol\":244:279  uint8 public constant decimals = 18 */\n    tag_10:\n      tag_61\n      tag_62\n      jump\t// in\n    tag_61:\n      mload(0x40)\n      tag_63\n      swap2\n      swap1\n      tag_64\n      jump\t// in\n    tag_63:\n      mload(0x40)\n      dup1\n      swap2\n      sub\n      swap1\n      return\n        /* \"Core/XSwapPair.sol\":2430:2625  function initialize(address _token0, address _token1) external {... */\n    tag_11:\n      tag_65\n      0x04\n      dup1\n      calldatasize\n      sub\n      dup2\n      add\n      swap1\n      tag_66\n      swap2\n      swap1\n      tag_67\n      jump\t// in\n    tag_66:\n      tag_68\n      jump\t// in\n    tag_65:\n      stop\n        /* \"Core/XSwapPair.sol\":842:877  uint256 public price0CumulativeLast */\n    tag_12:\n      tag_69\n      tag_70\n      jump\t// in\n    tag_69:\n      mload(0x40)\n      tag_71\n      swap2\n      swap1\n      tag_55\n      jump\t// in\n    tag_71:\n      mload(0x40)\n      dup1\n      swap2\n      sub\n      swap1\n      return\n        /* \"Core/XSwapPair.sol\":883:918  uint256 public price1CumulativeLast */\n    tag_13:\n      tag_72\n      tag_73\n      jump\t// in\n    tag_72:\n      mload(0x40)\n      tag_74\n      swap2\n      swap1\n      tag_55\n      jump\t// in\n    tag_74:\n      mload(0x40)\n      dup1\n      swap2\n      sub\n      swap1\n      return\n        /* \"Core/XSwapPair.sol\":4782:6066  function mint(address to) external lock returns (uint256 liquidity) {... */\n    tag_14:\n      tag_75\n      0x04\n      dup1\n      calldatasize\n      sub\n      dup2\n      add\n      swap1\n      tag_76\n      swap2\n      swap1\n      tag_77\n      jump\t// in\n    tag_76:\n      tag_78\n      jump\t// in\n    tag_75:\n      mload(0x40)\n      tag_79\n      swap2\n      swap1\n      tag_55\n      jump\t// in\n    tag_79:\n      mload(0x40)\n      dup1\n      swap2\n      sub\n      swap1\n      return\n        /* \"Core/XSwapERC20.sol\":318:362  mapping(address => uint256) public balanceOf */\n    tag_15:\n      tag_80\n      0x04\n      dup1\n      calldatasize\n      sub\n      dup2\n      add\n      swap1\n      tag_81\n      swap2\n      swap1\n      tag_77\n      jump\t// in\n    tag_81:\n      tag_82\n      jump\t// in\n    tag_80:\n      mload(0x40)\n      tag_83\n      swap2\n      swap1\n      tag_55\n      jump\t// in\n    tag_83:\n      mload(0x40)\n      dup1\n      swap2\n      sub\n      swap1\n      return\n        /* \"Core/XSwapPair.sol\":924:944  uint256 public kLast */\n    tag_16:\n      tag_84\n      tag_85\n      jump\t// in\n    tag_84:\n      mload(0x40)\n      tag_86\n      swap2\n      swap1\n      tag_55\n      jump\t// in\n    tag_86:\n      mload(0x40)\n      dup1\n      swap2\n      sub\n      swap1\n      return\n        /* \"Core/XSwapERC20.sol\":439:480  mapping(address => uint256) public nonces */\n    tag_17:\n      tag_87\n      0x04\n      dup1\n      calldatasize\n      sub\n      dup2\n      add\n      swap1\n      tag_88\n      swap2\n      swap1\n      tag_77\n      jump\t// in\n    tag_88:\n      tag_89\n      jump\t// in\n    tag_87:\n      mload(0x40)\n      tag_90\n      swap2\n      swap1\n      tag_55\n      jump\t// in\n    tag_90:\n      mload(0x40)\n      dup1\n      swap2\n      sub\n      swap1\n      return\n        /* \"Core/XSwapPair.sol\":6186:7613  function burn(address to)... */\n    tag_18:\n      tag_91\n      0x04\n      dup1\n      calldatasize\n      sub\n      dup2\n      add\n      swap1\n      tag_92\n      swap2\n      swap1\n      tag_77\n      jump\t// in\n    tag_92:\n      tag_93\n      jump\t// in\n    tag_91:\n      mload(0x40)\n      tag_94\n      swap3\n      swap2\n      swap1\n      tag_95\n      jump\t// in\n    tag_94:\n      mload(0x40)\n      dup1\n      swap2\n      sub\n      swap1\n      return\n        /* \"Core/XSwapERC20.sol\":199:238  string public constant symbol = \"XS-V1\" */\n    tag_19:\n      tag_96\n      tag_97\n      jump\t// in\n    tag_96:\n      mload(0x40)\n      tag_98\n      swap2\n      swap1\n      tag_37\n      jump\t// in\n    tag_98:\n      mload(0x40)\n      dup1\n      swap2\n      sub\n      swap1\n      return\n        /* \"Core/XSwapERC20.sol\":1711:1850  function transfer(address to, uint256 value) external returns (bool) {... */\n    tag_20:\n      tag_99\n      0x04\n      dup1\n      calldatasize\n      sub\n      dup2\n      add\n      swap1\n      tag_100\n      swap2\n      swap1\n      tag_44\n      jump\t// in\n    tag_100:\n      tag_101\n      jump\t// in\n    tag_99:\n      mload(0x40)\n      tag_102\n      swap2\n      swap1\n      tag_47\n      jump\t// in\n    tag_102:\n      mload(0x40)\n      dup1\n      swap2\n      sub\n      swap1\n      return\n        /* \"Core/XSwapPair.sol\":333:382  uint256 public constant MINIMUM_LIQUIDITY = 10**3 */\n    tag_21:\n      tag_103\n      tag_104\n      jump\t// in\n    tag_103:\n      mload(0x40)\n      tag_105\n      swap2\n      swap1\n      tag_55\n      jump\t// in\n    tag_105:\n      mload(0x40)\n      dup1\n      swap2\n      sub\n      swap1\n      return\n        /* \"Core/XSwapPair.sol\":9761:10182  function skim(address to) external lock {... */\n    tag_22:\n      tag_106\n      0x04\n      dup1\n      calldatasize\n      sub\n      dup2\n      add\n      swap1\n      tag_107\n      swap2\n      swap1\n      tag_77\n      jump\t// in\n    tag_107:\n      tag_108\n      jump\t// in\n    tag_106:\n      stop\n        /* \"Core/XSwapPair.sol\":491:513  address public factory */\n    tag_23:\n      tag_109\n      tag_110\n      jump\t// in\n    tag_109:\n      mload(0x40)\n      tag_111\n      swap2\n      swap1\n      tag_51\n      jump\t// in\n    tag_111:\n      mload(0x40)\n      dup1\n      swap2\n      sub\n      swap1\n      return\n        /* \"Core/XSwapPair.sol\":546:567  address public token1 */\n    tag_24:\n      tag_112\n      tag_113\n      jump\t// in\n    tag_112:\n      mload(0x40)\n      tag_114\n      swap2\n      swap1\n      tag_51\n      jump\t// in\n    tag_114:\n      mload(0x40)\n      dup1\n      swap2\n      sub\n      swap1\n      return\n        /* \"Core/XSwapERC20.sol\":368:432  mapping(address => mapping(address => uint256)) public allowance */\n    tag_25:\n      tag_115\n      0x04\n      dup1\n      calldatasize\n      sub\n      dup2\n      add\n      swap1\n      tag_116\n      swap2\n      swap1\n      tag_67\n      jump\t// in\n    tag_116:\n      tag_117\n      jump\t// in\n    tag_115:\n      mload(0x40)\n      tag_118\n      swap2\n      swap1\n      tag_55\n      jump\t// in\n    tag_118:\n      mload(0x40)\n      dup1\n      swap2\n      sub\n      swap1\n      return\n        /* \"Core/XSwapPair.sol\":10232:10446  function sync() external lock {... */\n    tag_26:\n      tag_119\n      tag_120\n      jump\t// in\n    tag_119:\n      stop\n        /* \"Core/XSwapPair.sol\":7733:9711  function swap(... */\n    tag_33:\n        /* \"Core/XSwapPair.sol\":1111:1112  1 */\n      0x01\n        /* \"Core/XSwapPair.sol\":1099:1107  unlocked */\n      sload(0x0b)\n        /* \"Core/XSwapPair.sol\":1099:1112  unlocked == 1 */\n      eq\n        /* \"Core/XSwapPair.sol\":1091:1123  require(unlocked == 1, \"LOCKED\") */\n      tag_122\n      jumpi\n      mload(0x40)\n      0x08c379a000000000000000000000000000000000000000000000000000000000\n      dup2\n      mstore\n      0x04\n      add\n      tag_123\n      swap1\n      tag_124\n      jump\t// in\n    tag_123:\n      mload(0x40)\n      dup1\n      swap2\n      sub\n      swap1\n      revert\n    tag_122:\n        /* \"Core/XSwapPair.sol\":1144:1145  0 */\n      0x00\n        /* \"Core/XSwapPair.sol\":1133:1141  unlocked */\n      0x0b\n        /* \"Core/XSwapPair.sol\":1133:1145  unlocked = 0 */\n      dup2\n      swap1\n      sstore\n      pop\n        /* \"Core/XSwapPair.sol\":7903:7904  0 */\n      0x00\n        /* \"Core/XSwapPair.sol\":7890:7900  amount0Out */\n      dup6\n        /* \"Core/XSwapPair.sol\":7890:7904  amount0Out > 0 */\n      gt\n        /* \"Core/XSwapPair.sol\":7890:7922  amount0Out > 0 || amount1Out > 0 */\n      dup1\n      tag_126\n      jumpi\n      pop\n        /* \"Core/XSwapPair.sol\":7921:7922  0 */\n      0x00\n        /* \"Core/XSwapPair.sol\":7908:7918  amount1Out */\n      dup5\n        /* \"Core/XSwapPair.sol\":7908:7922  amount1Out > 0 */\n      gt\n        /* \"Core/XSwapPair.sol\":7890:7922  amount0Out > 0 || amount1Out > 0 */\n    tag_126:\n        /* \"Core/XSwapPair.sol\":7882:7953  require(amount0Out > 0 || amount1Out > 0, \"INSUFFICIENT_OUTPUT_AMOUNT\") */\n      tag_127\n      jumpi\n      mload(0x40)\n      0x08c379a000000000000000000000000000000000000000000000000000000000\n      dup2\n      mstore\n      0x04\n      add\n      tag_128\n      swap1\n      tag_129\n      jump\t// in\n    tag_128:\n      mload(0x40)\n      dup1\n      swap2\n      sub\n      swap1\n      revert\n    tag_127:\n        /* \"Core/XSwapPair.sol\":7964:7981  uint112 _reserve0 */\n      0x00\n        /* \"Core/XSwapPair.sol\":7983:8000  uint112 _reserve1 */\n      dup1\n        /* \"Core/XSwapPair.sol\":8006:8019  getReserves() */\n      tag_130\n        /* \"Core/XSwapPair.sol\":8006:8017  getReserves */\n      tag_39\n        /* \"Core/XSwapPair.sol\":8006:8019  getReserves() */\n      jump\t// in\n    tag_130:\n        /* \"Core/XSwapPair.sol\":7963:8019  (uint112 _reserve0, uint112 _reserve1, ) = getReserves() */\n      pop\n      swap2\n      pop\n      swap2\n      pop\n        /* \"Core/XSwapPair.sol\":8078:8087  _reserve0 */\n      dup2\n        /* \"Core/XSwapPair.sol\":8065:8087  amount0Out < _reserve0 */\n      0xffffffffffffffffffffffffffff\n      and\n        /* \"Core/XSwapPair.sol\":8065:8075  amount0Out */\n      dup8\n        /* \"Core/XSwapPair.sol\":8065:8087  amount0Out < _reserve0 */\n      lt\n        /* \"Core/XSwapPair.sol\":8065:8113  amount0Out < _reserve0 && amount1Out < _reserve1 */\n      dup1\n      iszero\n      tag_131\n      jumpi\n      pop\n        /* \"Core/XSwapPair.sol\":8104:8113  _reserve1 */\n      dup1\n        /* \"Core/XSwapPair.sol\":8091:8113  amount1Out < _reserve1 */\n      0xffffffffffffffffffffffffffff\n      and\n        /* \"Core/XSwapPair.sol\":8091:8101  amount1Out */\n      dup7\n        /* \"Core/XSwapPair.sol\":8091:8113  amount1Out < _reserve1 */\n      lt\n        /* \"Core/XSwapPair.sol\":8065:8113  amount0Out < _reserve0 && amount1Out < _reserve1 */\n    tag_131:\n        /* \"Core/XSwapPair.sol\":8044:8161  require(... */\n      tag_132\n      jumpi\n      mload(0x40)\n      0x08c379a000000000000000000000000000000000000000000000000000000000\n      dup2\n      mstore\n      0x04\n      add\n      tag_133\n      swap1\n      tag_134\n      jump\t// in\n    tag_133:\n      mload(0x40)\n      dup1\n      swap2\n      sub\n      swap1\n      revert\n    tag_132:\n        /* \"Core/XSwapPair.sol\":8172:8188  uint256 balance0 */\n      0x00\n        /* \"Core/XSwapPair.sol\":8198:8214  uint256 balance1 */\n      dup1\n        /* \"Core/XSwapPair.sol\":8305:8320  address _token0 */\n      0x00\n        /* \"Core/XSwapPair.sol\":8323:8329  token0 */\n      0x05\n      0x00\n      swap1\n      sload\n      swap1\n      0x0100\n      exp\n      swap1\n      div\n      0xffffffffffffffffffffffffffffffffffffffff\n      and\n        /* \"Core/XSwapPair.sol\":8305:8329  address _token0 = token0 */\n      swap1\n      pop\n        /* \"Core/XSwapPair.sol\":8343:8358  address _token1 */\n      0x00\n        /* \"Core/XSwapPair.sol\":8361:8367  token1 */\n      0x06\n      0x00\n      swap1\n      sload\n      swap1\n      0x0100\n      exp\n      swap1\n      div\n      0xffffffffffffffffffffffffffffffffffffffff\n      and\n        /* \"Core/XSwapPair.sol\":8343:8367  address _token1 = token1 */\n      swap1\n      pop\n        /* \"Core/XSwapPair.sol\":8395:8402  _token0 */\n      dup2\n        /* \"Core/XSwapPair.sol\":8389:8402  to != _token0 */\n      0xffffffffffffffffffffffffffffffffffffffff\n      and\n        /* \"Core/XSwapPair.sol\":8389:8391  to */\n      dup10\n        /* \"Core/XSwapPair.sol\":8389:8402  to != _token0 */\n      0xffffffffffffffffffffffffffffffffffffffff\n      and\n      eq\n      iszero\n        /* \"Core/XSwapPair.sol\":8389:8419  to != _token0 && to != _token1 */\n      dup1\n      iszero\n      tag_135\n      jumpi\n      pop\n        /* \"Core/XSwapPair.sol\":8412:8419  _token1 */\n      dup1\n        /* \"Core/XSwapPair.sol\":8406:8419  to != _token1 */\n      0xffffffffffffffffffffffffffffffffffffffff\n      and\n        /* \"Core/XSwapPair.sol\":8406:8408  to */\n      dup10\n        /* \"Core/XSwapPair.sol\":8406:8419  to != _token1 */\n      0xffffffffffffffffffffffffffffffffffffffff\n      and\n      eq\n      iszero\n        /* \"Core/XSwapPair.sol\":8389:8419  to != _token0 && to != _token1 */\n    tag_135:\n        /* \"Core/XSwapPair.sol\":8381:8434  require(to != _token0 && to != _token1, \"INVALID_TO\") */\n      tag_136\n      jumpi\n      mload(0x40)\n      0x08c379a000000000000000000000000000000000000000000000000000000000\n      dup2\n      mstore\n      0x04\n      add\n      tag_137\n      swap1\n      tag_138\n      jump\t// in\n    tag_137:\n      mload(0x40)\n      dup1\n      swap2\n      sub\n      swap1\n      revert\n    tag_136:\n        /* \"Core/XSwapPair.sol\":8465:8466  0 */\n      0x00\n        /* \"Core/XSwapPair.sol\":8452:8462  amount0Out */\n      dup12\n        /* \"Core/XSwapPair.sol\":8452:8466  amount0Out > 0 */\n      gt\n        /* \"Core/XSwapPair.sol\":8448:8506  if (amount0Out > 0) _safeTransfer(_token0, to, amount0Out) */\n      iszero\n      tag_139\n      jumpi\n        /* \"Core/XSwapPair.sol\":8468:8506  _safeTransfer(_token0, to, amount0Out) */\n      tag_140\n        /* \"Core/XSwapPair.sol\":8482:8489  _token0 */\n      dup3\n        /* \"Core/XSwapPair.sol\":8491:8493  to */\n      dup11\n        /* \"Core/XSwapPair.sol\":8495:8505  amount0Out */\n      dup14\n        /* \"Core/XSwapPair.sol\":8468:8481  _safeTransfer */\n      tag_141\n        /* \"Core/XSwapPair.sol\":8468:8506  _safeTransfer(_token0, to, amount0Out) */\n      jump\t// in\n    tag_140:\n        /* \"Core/XSwapPair.sol\":8448:8506  if (amount0Out > 0) _safeTransfer(_token0, to, amount0Out) */\n    tag_139:\n        /* \"Core/XSwapPair.sol\":8571:8572  0 */\n      0x00\n        /* \"Core/XSwapPair.sol\":8558:8568  amount1Out */\n      dup11\n        /* \"Core/XSwapPair.sol\":8558:8572  amount1Out > 0 */\n      gt\n        /* \"Core/XSwapPair.sol\":8554:8612  if (amount1Out > 0) _safeTransfer(_token1, to, amount1Out) */\n      iszero\n      tag_142\n      jumpi\n        /* \"Core/XSwapPair.sol\":8574:8612  _safeTransfer(_token1, to, amount1Out) */\n      tag_143\n        /* \"Core/XSwapPair.sol\":8588:8595  _token1 */\n      dup2\n        /* \"Core/XSwapPair.sol\":8597:8599  to */\n      dup11\n        /* \"Core/XSwapPair.sol\":8601:8611  amount1Out */\n      dup13\n        /* \"Core/XSwapPair.sol\":8574:8587  _safeTransfer */\n      tag_141\n        /* \"Core/XSwapPair.sol\":8574:8612  _safeTransfer(_token1, to, amount1Out) */\n      jump\t// in\n    tag_143:\n        /* \"Core/XSwapPair.sol\":8554:8612  if (amount1Out > 0) _safeTransfer(_token1, to, amount1Out) */\n    tag_142:\n        /* \"Core/XSwapPair.sol\":8678:8685  _token0 */\n      dup2\n        /* \"Core/XSwapPair.sol\":8671:8696  IERC20(_token0).balanceOf */\n      0xffffffffffffffffffffffffffffffffffffffff\n      and\n      0x70a08231\n        /* \"Core/XSwapPair.sol\":8705:8709  this */\n      address\n        /* \"Core/XSwapPair.sol\":8671:8711  IERC20(_token0).balanceOf(address(this)) */\n      mload(0x40)\n      dup3\n      0xffffffff\n      and\n      0xe0\n      shl\n      dup2\n      mstore\n      0x04\n      add\n      tag_144\n      swap2\n      swap1\n      tag_51\n      jump\t// in\n    tag_144:\n      0x20\n      mload(0x40)\n      dup1\n      dup4\n      sub\n      dup2\n      dup7\n      gas\n      staticcall\n      iszero\n      dup1\n      iszero\n      tag_146\n      jumpi\n      returndatasize\n      0x00\n      dup1\n      returndatacopy\n      revert(0x00, returndatasize)\n    tag_146:\n      pop\n      pop\n      pop\n      pop\n      mload(0x40)\n      returndatasize\n      not(0x1f)\n      0x1f\n      dup3\n      add\n      and\n      dup3\n      add\n      dup1\n      0x40\n      mstore\n      pop\n      dup2\n      add\n      swap1\n      tag_147\n      swap2\n      swap1\n      tag_148\n      jump\t// in\n    tag_147:\n        /* \"Core/XSwapPair.sol\":8660:8711  balance0 = IERC20(_token0).balanceOf(address(this)) */\n      swap4\n      pop\n        /* \"Core/XSwapPair.sol\":8743:8750  _token1 */\n      dup1\n        /* \"Core/XSwapPair.sol\":8736:8761  IERC20(_token1).balanceOf */\n      0xffffffffffffffffffffffffffffffffffffffff\n      and\n      0x70a08231\n        /* \"Core/XSwapPair.sol\":8770:8774  this */\n      address\n        /* \"Core/XSwapPair.sol\":8736:8776  IERC20(_token1).balanceOf(address(this)) */\n      mload(0x40)\n      dup3\n      0xffffffff\n      and\n      0xe0\n      shl\n      dup2\n      mstore\n      0x04\n      add\n      tag_149\n      swap2\n      swap1\n      tag_51\n      jump\t// in\n    tag_149:\n      0x20\n      mload(0x40)\n      dup1\n      dup4\n      sub\n      dup2\n      dup7\n      gas\n      staticcall\n      iszero\n      dup1\n      iszero\n      tag_151\n      jumpi\n      returndatasize\n      0x00\n      dup1\n      returndatacopy\n      revert(0x00, returndatasize)\n    tag_151:\n      pop\n      pop\n      pop\n      pop\n      mload(0x40)\n      returndatasize\n      not(0x1f)\n      0x1f\n      dup3\n      add\n      and\n      dup3\n      add\n      dup1\n      0x40\n      mstore\n      pop\n      dup2\n      add\n      swap1\n      tag_152\n      swap2\n      swap1\n      tag_148\n      jump\t// in\n    tag_152:\n        /* \"Core/XSwapPair.sol\":8725:8776  balance1 = IERC20(_token1).balanceOf(address(this)) */\n      swap3\n      pop\n        /* \"Core/XSwapPair.sol\":8224:8787  {... */\n      pop\n      pop\n        /* \"Core/XSwapPair.sol\":8796:8813  uint256 amount0In */\n      0x00\n        /* \"Core/XSwapPair.sol\":8839:8849  amount0Out */\n      dup10\n        /* \"Core/XSwapPair.sol\":8827:8836  _reserve0 */\n      dup6\n        /* \"Core/XSwapPair.sol\":8827:8849  _reserve0 - amount0Out */\n      0xffffffffffffffffffffffffffff\n      and\n      tag_153\n      swap2\n      swap1\n      tag_154\n      jump\t// in\n    tag_153:\n        /* \"Core/XSwapPair.sol\":8816:8824  balance0 */\n      dup4\n        /* \"Core/XSwapPair.sol\":8816:8849  balance0 > _reserve0 - amount0Out */\n      gt\n        /* \"Core/XSwapPair.sol\":8816:8915  balance0 > _reserve0 - amount0Out... */\n      tag_155\n      jumpi\n        /* \"Core/XSwapPair.sol\":8914:8915  0 */\n      0x00\n        /* \"Core/XSwapPair.sol\":8816:8915  balance0 > _reserve0 - amount0Out... */\n      jump(tag_156)\n    tag_155:\n        /* \"Core/XSwapPair.sol\":8888:8898  amount0Out */\n      dup10\n        /* \"Core/XSwapPair.sol\":8876:8885  _reserve0 */\n      dup6\n        /* \"Core/XSwapPair.sol\":8876:8898  _reserve0 - amount0Out */\n      0xffffffffffffffffffffffffffff\n      and\n      tag_157\n      swap2\n      swap1\n      tag_154\n      jump\t// in\n    tag_157:\n        /* \"Core/XSwapPair.sol\":8864:8872  balance0 */\n      dup4\n        /* \"Core/XSwapPair.sol\":8864:8899  balance0 - (_reserve0 - amount0Out) */\n      tag_158\n      swap2\n      swap1\n      tag_154\n      jump\t// in\n    tag_158:\n        /* \"Core/XSwapPair.sol\":8816:8915  balance0 > _reserve0 - amount0Out... */\n    tag_156:\n        /* \"Core/XSwapPair.sol\":8796:8915  uint256 amount0In = balance0 > _reserve0 - amount0Out... */\n      swap1\n      pop\n        /* \"Core/XSwapPair.sol\":8925:8942  uint256 amount1In */\n      0x00\n        /* \"Core/XSwapPair.sol\":8968:8978  amount1Out */\n      dup10\n        /* \"Core/XSwapPair.sol\":8956:8965  _reserve1 */\n      dup6\n        /* \"Core/XSwapPair.sol\":8956:8978  _reserve1 - amount1Out */\n      0xffffffffffffffffffffffffffff\n      and\n      tag_159\n      swap2\n      swap1\n      tag_154\n      jump\t// in\n    tag_159:\n        /* \"Core/XSwapPair.sol\":8945:8953  balance1 */\n      dup4\n        /* \"Core/XSwapPair.sol\":8945:8978  balance1 > _reserve1 - amount1Out */\n      gt\n        /* \"Core/XSwapPair.sol\":8945:9044  balance1 > _reserve1 - amount1Out... */\n      tag_160\n      jumpi\n        /* \"Core/XSwapPair.sol\":9043:9044  0 */\n      0x00\n        /* \"Core/XSwapPair.sol\":8945:9044  balance1 > _reserve1 - amount1Out... */\n      jump(tag_161)\n    tag_160:\n        /* \"Core/XSwapPair.sol\":9017:9027  amount1Out */\n      dup10\n        /* \"Core/XSwapPair.sol\":9005:9014  _reserve1 */\n      dup6\n        /* \"Core/XSwapPair.sol\":9005:9027  _reserve1 - amount1Out */\n      0xffffffffffffffffffffffffffff\n      and\n      tag_162\n      swap2\n      swap1\n      tag_154\n      jump\t// in\n    tag_162:\n        /* \"Core/XSwapPair.sol\":8993:9001  balance1 */\n      dup4\n        /* \"Core/XSwapPair.sol\":8993:9028  balance1 - (_reserve1 - amount1Out) */\n      tag_163\n      swap2\n      swap1\n      tag_154\n      jump\t// in\n    tag_163:\n        /* \"Core/XSwapPair.sol\":8945:9044  balance1 > _reserve1 - amount1Out... */\n    tag_161:\n        /* \"Core/XSwapPair.sol\":8925:9044  uint256 amount1In = balance1 > _reserve1 - amount1Out... */\n      swap1\n      pop\n        /* \"Core/XSwapPair.sol\":9074:9075  0 */\n      0x00\n        /* \"Core/XSwapPair.sol\":9062:9071  amount0In */\n      dup3\n        /* \"Core/XSwapPair.sol\":9062:9075  amount0In > 0 */\n      gt\n        /* \"Core/XSwapPair.sol\":9062:9092  amount0In > 0 || amount1In > 0 */\n      dup1\n      tag_164\n      jumpi\n      pop\n        /* \"Core/XSwapPair.sol\":9091:9092  0 */\n      0x00\n        /* \"Core/XSwapPair.sol\":9079:9088  amount1In */\n      dup2\n        /* \"Core/XSwapPair.sol\":9079:9092  amount1In > 0 */\n      gt\n        /* \"Core/XSwapPair.sol\":9062:9092  amount0In > 0 || amount1In > 0 */\n    tag_164:\n        /* \"Core/XSwapPair.sol\":9054:9122  require(amount0In > 0 || amount1In > 0, \"INSUFFICIENT_INPUT_AMOUNT\") */\n      tag_165\n      jumpi\n      mload(0x40)\n      0x08c379a000000000000000000000000000000000000000000000000000000000\n      dup2\n      mstore\n      0x04\n      add\n      tag_166\n      swap1\n      tag_167\n      jump\t// in\n    tag_166:\n      mload(0x40)\n      dup1\n      swap2\n      sub\n      swap1\n      revert\n    tag_165:\n        /* \"Core/XSwapPair.sol\":9222:9246  uint256 balance0Adjusted */\n      0x00\n        /* \"Core/XSwapPair.sol\":9249:9289  balance0.mul(1000).sub(amount0In.mul(3)) */\n      tag_168\n        /* \"Core/XSwapPair.sol\":9272:9288  amount0In.mul(3) */\n      tag_169\n        /* \"Core/XSwapPair.sol\":9286:9287  3 */\n      0x03\n        /* \"Core/XSwapPair.sol\":9272:9281  amount0In */\n      dup6\n        /* \"Core/XSwapPair.sol\":9272:9285  amount0In.mul */\n      tag_170\n      swap1\n        /* \"Core/XSwapPair.sol\":9272:9288  amount0In.mul(3) */\n      swap2\n      swap1\n      0xffffffff\n      and\n      jump\t// in\n    tag_169:\n        /* \"Core/XSwapPair.sol\":9249:9267  balance0.mul(1000) */\n      tag_171\n        /* \"Core/XSwapPair.sol\":9262:9266  1000 */\n      0x03e8\n        /* \"Core/XSwapPair.sol\":9249:9257  balance0 */\n      dup9\n        /* \"Core/XSwapPair.sol\":9249:9261  balance0.mul */\n      tag_170\n      swap1\n        /* \"Core/XSwapPair.sol\":9249:9267  balance0.mul(1000) */\n      swap2\n      swap1\n      0xffffffff\n      and\n      jump\t// in\n    tag_171:\n        /* \"Core/XSwapPair.sol\":9249:9271  balance0.mul(1000).sub */\n      tag_172\n      swap1\n        /* \"Core/XSwapPair.sol\":9249:9289  balance0.mul(1000).sub(amount0In.mul(3)) */\n      swap2\n      swap1\n      0xffffffff\n      and\n      jump\t// in\n    tag_168:\n        /* \"Core/XSwapPair.sol\":9222:9289  uint256 balance0Adjusted = balance0.mul(1000).sub(amount0In.mul(3)) */\n      swap1\n      pop\n        /* \"Core/XSwapPair.sol\":9303:9327  uint256 balance1Adjusted */\n      0x00\n        /* \"Core/XSwapPair.sol\":9330:9370  balance1.mul(1000).sub(amount1In.mul(3)) */\n      tag_173\n        /* \"Core/XSwapPair.sol\":9353:9369  amount1In.mul(3) */\n      tag_174\n        /* \"Core/XSwapPair.sol\":9367:9368  3 */\n      0x03\n        /* \"Core/XSwapPair.sol\":9353:9362  amount1In */\n      dup6\n        /* \"Core/XSwapPair.sol\":9353:9366  amount1In.mul */\n      tag_170\n      swap1\n        /* \"Core/XSwapPair.sol\":9353:9369  amount1In.mul(3) */\n      swap2\n      swap1\n      0xffffffff\n      and\n      jump\t// in\n    tag_174:\n        /* \"Core/XSwapPair.sol\":9330:9348  balance1.mul(1000) */\n      tag_175\n        /* \"Core/XSwapPair.sol\":9343:9347  1000 */\n      0x03e8\n        /* \"Core/XSwapPair.sol\":9330:9338  balance1 */\n      dup9\n        /* \"Core/XSwapPair.sol\":9330:9342  balance1.mul */\n      tag_170\n      swap1\n        /* \"Core/XSwapPair.sol\":9330:9348  balance1.mul(1000) */\n      swap2\n      swap1\n      0xffffffff\n      and\n      jump\t// in\n    tag_175:\n        /* \"Core/XSwapPair.sol\":9330:9352  balance1.mul(1000).sub */\n      tag_172\n      swap1\n        /* \"Core/XSwapPair.sol\":9330:9370  balance1.mul(1000).sub(amount1In.mul(3)) */\n      swap2\n      swap1\n      0xffffffff\n      and\n      jump\t// in\n    tag_173:\n        /* \"Core/XSwapPair.sol\":9303:9370  uint256 balance1Adjusted = balance1.mul(1000).sub(amount1In.mul(3)) */\n      swap1\n      pop\n        /* \"Core/XSwapPair.sol\":9471:9517  uint256(_reserve0).mul(_reserve1).mul(1000**2) */\n      tag_176\n        /* \"Core/XSwapPair.sol\":9509:9516  1000**2 */\n      0x0f4240\n        /* \"Core/XSwapPair.sol\":9471:9504  uint256(_reserve0).mul(_reserve1) */\n      tag_177\n        /* \"Core/XSwapPair.sol\":9494:9503  _reserve1 */\n      dup10\n        /* \"Core/XSwapPair.sol\":9471:9504  uint256(_reserve0).mul(_reserve1) */\n      0xffffffffffffffffffffffffffff\n      and\n        /* \"Core/XSwapPair.sol\":9479:9488  _reserve0 */\n      dup12\n        /* \"Core/XSwapPair.sol\":9471:9489  uint256(_reserve0) */\n      0xffffffffffffffffffffffffffff\n      and\n        /* \"Core/XSwapPair.sol\":9471:9493  uint256(_reserve0).mul */\n      tag_170\n      swap1\n        /* \"Core/XSwapPair.sol\":9471:9504  uint256(_reserve0).mul(_reserve1) */\n      swap2\n      swap1\n      0xffffffff\n      and\n      jump\t// in\n    tag_177:\n        /* \"Core/XSwapPair.sol\":9471:9508  uint256(_reserve0).mul(_reserve1).mul */\n      tag_170\n      swap1\n        /* \"Core/XSwapPair.sol\":9471:9517  uint256(_reserve0).mul(_reserve1).mul(1000**2) */\n      swap2\n      swap1\n      0xffffffff\n      and\n      jump\t// in\n    tag_176:\n        /* \"Core/XSwapPair.sol\":9409:9447  balance0Adjusted.mul(balance1Adjusted) */\n      tag_178\n        /* \"Core/XSwapPair.sol\":9430:9446  balance1Adjusted */\n      dup3\n        /* \"Core/XSwapPair.sol\":9409:9425  balance0Adjusted */\n      dup5\n        /* \"Core/XSwapPair.sol\":9409:9429  balance0Adjusted.mul */\n      tag_170\n      swap1\n        /* \"Core/XSwapPair.sol\":9409:9447  balance0Adjusted.mul(balance1Adjusted) */\n      swap2\n      swap1\n      0xffffffff\n      and\n      jump\t// in\n    tag_178:\n        /* \"Core/XSwapPair.sol\":9409:9517  balance0Adjusted.mul(balance1Adjusted) >=... */\n      lt\n      iszero\n        /* \"Core/XSwapPair.sol\":9384:9553  require(... */\n      tag_179\n      jumpi\n      mload(0x40)\n      0x08c379a000000000000000000000000000000000000000000000000000000000\n      dup2\n      mstore\n      0x04\n      add\n      tag_180\n      swap1\n      tag_181\n      jump\t// in\n    tag_180:\n      mload(0x40)\n      dup1\n      swap2\n      sub\n      swap1\n      revert\n    tag_179:\n        /* \"Core/XSwapPair.sol\":9132:9564  {... */\n      pop\n      pop\n        /* \"Core/XSwapPair.sol\":9574:9623  _update(balance0, balance1, _reserve0, _reserve1) */\n      tag_182\n        /* \"Core/XSwapPair.sol\":9582:9590  balance0 */\n      dup5\n        /* \"Core/XSwapPair.sol\":9592:9600  balance1 */\n      dup5\n        /* \"Core/XSwapPair.sol\":9602:9611  _reserve0 */\n      dup9\n        /* \"Core/XSwapPair.sol\":9613:9622  _reserve1 */\n      dup9\n        /* \"Core/XSwapPair.sol\":9574:9581  _update */\n      tag_183\n        /* \"Core/XSwapPair.sol\":9574:9623  _update(balance0, balance1, _reserve0, _reserve1) */\n      jump\t// in\n    tag_182:\n        /* \"Core/XSwapPair.sol\":9701:9703  to */\n      dup9\n        /* \"Core/XSwapPair.sol\":9638:9704  Swap(msg.sender, amount0In, amount1In, amount0Out, amount1Out, to) */\n      0xffffffffffffffffffffffffffffffffffffffff\n      and\n        /* \"Core/XSwapPair.sol\":9643:9653  msg.sender */\n      caller\n        /* \"Core/XSwapPair.sol\":9638:9704  Swap(msg.sender, amount0In, amount1In, amount0Out, amount1Out, to) */\n      0xffffffffffffffffffffffffffffffffffffffff\n      and\n      0xd78ad95fa46c994b6551d0da85fc275fe613ce37657fb8d5e3d130840159d822\n        /* \"Core/XSwapPair.sol\":9655:9664  amount0In */\n      dup5\n        /* \"Core/XSwapPair.sol\":9666:9675  amount1In */\n      dup5\n        /* \"Core/XSwapPair.sol\":9677:9687  amount0Out */\n      dup16\n        /* \"Core/XSwapPair.sol\":9689:9699  amount1Out */\n      dup16\n        /* \"Core/XSwapPair.sol\":9638:9704  Swap(msg.sender, amount0In, amount1In, amount0Out, amount1Out, to) */\n      mload(0x40)\n      tag_184\n      swap5\n      swap4\n      swap3\n      swap2\n      swap1\n      tag_185\n      jump\t// in\n    tag_184:\n      mload(0x40)\n      dup1\n      swap2\n      sub\n      swap1\n      log3\n        /* \"Core/XSwapPair.sol\":7872:9711  {... */\n      pop\n      pop\n      pop\n      pop\n      pop\n      pop\n        /* \"Core/XSwapPair.sol\":1177:1178  1 */\n      0x01\n        /* \"Core/XSwapPair.sol\":1166:1174  unlocked */\n      0x0b\n        /* \"Core/XSwapPair.sol\":1166:1178  unlocked = 1 */\n      dup2\n      swap1\n      sstore\n      pop\n        /* \"Core/XSwapPair.sol\":7733:9711  function swap(... */\n      pop\n      pop\n      pop\n      pop\n      pop\n      jump\t// out\n        /* \"Core/XSwapERC20.sol\":153:193  string public constant name = \"XSwap-V1\" */\n    tag_35:\n      mload(0x40)\n      dup1\n      0x40\n      add\n      0x40\n      mstore\n      dup1\n      0x08\n      dup2\n      mstore\n      0x20\n      add\n      0x58537761702d5631000000000000000000000000000000000000000000000000\n      dup2\n      mstore\n      pop\n      dup2\n      jump\t// out\n        /* \"Core/XSwapPair.sol\":1191:1492  function getReserves()... */\n    tag_39:\n        /* \"Core/XSwapPair.sol\":1272:1289  uint112 _reserve0 */\n      0x00\n        /* \"Core/XSwapPair.sol\":1303:1320  uint112 _reserve1 */\n      dup1\n        /* \"Core/XSwapPair.sol\":1334:1360  uint32 _blockTimestampLast */\n      0x00\n        /* \"Core/XSwapPair.sol\":1397:1405  reserve0 */\n      0x07\n      0x00\n      swap1\n      sload\n      swap1\n      0x0100\n      exp\n      swap1\n      div\n      0xffffffffffffffffffffffffffff\n      and\n        /* \"Core/XSwapPair.sol\":1385:1405  _reserve0 = reserve0 */\n      swap3\n      pop\n        /* \"Core/XSwapPair.sol\":1427:1435  reserve1 */\n      0x07\n      0x0e\n      swap1\n      sload\n      swap1\n      0x0100\n      exp\n      swap1\n      div\n      0xffffffffffffffffffffffffffff\n      and\n        /* \"Core/XSwapPair.sol\":1415:1435  _reserve1 = reserve1 */\n      swap2\n      pop\n        /* \"Core/XSwapPair.sol\":1467:1485  blockTimestampLast */\n      0x07\n      0x1c\n      swap1\n      sload\n      swap1\n      0x0100\n      exp\n      swap1\n      div\n      0xffffffff\n      and\n        /* \"Core/XSwapPair.sol\":1445:1485  _blockTimestampLast = blockTimestampLast */\n      swap1\n      pop\n        /* \"Core/XSwapPair.sol\":1191:1492  function getReserves()... */\n      swap1\n      swap2\n      swap3\n      jump\t// out\n        /* \"Core/XSwapERC20.sol\":1558:1705  function approve(address spender, uint256 value) external returns (bool) {... */\n    tag_45:\n        /* \"Core/XSwapERC20.sol\":1625:1629  bool */\n      0x00\n        /* \"Core/XSwapERC20.sol\":1641:1677  _approve(msg.sender, spender, value) */\n      tag_188\n        /* \"Core/XSwapERC20.sol\":1650:1660  msg.sender */\n      caller\n        /* \"Core/XSwapERC20.sol\":1662:1669  spender */\n      dup5\n        /* \"Core/XSwapERC20.sol\":1671:1676  value */\n      dup5\n        /* \"Core/XSwapERC20.sol\":1641:1649  _approve */\n      tag_189\n        /* \"Core/XSwapERC20.sol\":1641:1677  _approve(msg.sender, spender, value) */\n      jump\t// in\n    tag_188:\n        /* \"Core/XSwapERC20.sol\":1694:1698  true */\n      0x01\n        /* \"Core/XSwapERC20.sol\":1687:1698  return true */\n      swap1\n      pop\n        /* \"Core/XSwapERC20.sol\":1558:1705  function approve(address spender, uint256 value) external returns (bool) {... */\n      swap3\n      swap2\n      pop\n      pop\n      jump\t// out\n        /* \"Core/XSwapPair.sol\":519:540  address public token0 */\n    tag_49:\n      0x05\n      0x00\n      swap1\n      sload\n      swap1\n      0x0100\n      exp\n      swap1\n      div\n      0xffffffffffffffffffffffffffffffffffffffff\n      and\n      dup2\n      jump\t// out\n        /* \"Core/XSwapERC20.sol\":286:312  uint256 public totalSupply */\n    tag_53:\n      sload(0x00)\n      dup2\n      jump\t// out\n        /* \"Core/XSwapERC20.sol\":1856:2216  function transferFrom(... */\n    tag_59:\n        /* \"Core/XSwapERC20.sol\":1967:1971  bool */\n      0x00\n        /* \"Core/XSwapERC20.sol\":2018:2028  2**112 - 1 */\n      0xffffffffffffffffffffffffffff\n        /* \"Core/XSwapERC20.sol\":1987:1996  allowance */\n      0x02\n        /* \"Core/XSwapERC20.sol\":1987:2002  allowance[from] */\n      0x00\n        /* \"Core/XSwapERC20.sol\":1997:2001  from */\n      dup7\n        /* \"Core/XSwapERC20.sol\":1987:2002  allowance[from] */\n      0xffffffffffffffffffffffffffffffffffffffff\n      and\n      0xffffffffffffffffffffffffffffffffffffffff\n      and\n      dup2\n      mstore\n      0x20\n      add\n      swap1\n      dup2\n      mstore\n      0x20\n      add\n      0x00\n      keccak256\n        /* \"Core/XSwapERC20.sol\":1987:2014  allowance[from][msg.sender] */\n      0x00\n        /* \"Core/XSwapERC20.sol\":2003:2013  msg.sender */\n      caller\n        /* \"Core/XSwapERC20.sol\":1987:2014  allowance[from][msg.sender] */\n      0xffffffffffffffffffffffffffffffffffffffff\n      and\n      0xffffffffffffffffffffffffffffffffffffffff\n      and\n      dup2\n      mstore\n      0x20\n      add\n      swap1\n      dup2\n      mstore\n      0x20\n      add\n      0x00\n      keccak256\n      sload\n        /* \"Core/XSwapERC20.sol\":1987:2028  allowance[from][msg.sender] != 2**112 - 1 */\n      eq\n        /* \"Core/XSwapERC20.sol\":1983:2153  if (allowance[from][msg.sender] != 2**112 - 1) {... */\n      tag_191\n      jumpi\n        /* \"Core/XSwapERC20.sol\":2074:2142  allowance[from][msg.sender].sub(... */\n      tag_192\n        /* \"Core/XSwapERC20.sol\":2123:2128  value */\n      dup3\n        /* \"Core/XSwapERC20.sol\":2074:2083  allowance */\n      0x02\n        /* \"Core/XSwapERC20.sol\":2074:2089  allowance[from] */\n      0x00\n        /* \"Core/XSwapERC20.sol\":2084:2088  from */\n      dup8\n        /* \"Core/XSwapERC20.sol\":2074:2089  allowance[from] */\n      0xffffffffffffffffffffffffffffffffffffffff\n      and\n      0xffffffffffffffffffffffffffffffffffffffff\n      and\n      dup2\n      mstore\n      0x20\n      add\n      swap1\n      dup2\n      mstore\n      0x20\n      add\n      0x00\n      keccak256\n        /* \"Core/XSwapERC20.sol\":2074:2101  allowance[from][msg.sender] */\n      0x00\n        /* \"Core/XSwapERC20.sol\":2090:2100  msg.sender */\n      caller\n        /* \"Core/XSwapERC20.sol\":2074:2101  allowance[from][msg.sender] */\n      0xffffffffffffffffffffffffffffffffffffffff\n      and\n      0xffffffffffffffffffffffffffffffffffffffff\n      and\n      dup2\n      mstore\n      0x20\n      add\n      swap1\n      dup2\n      mstore\n      0x20\n      add\n      0x00\n      keccak256\n      sload\n        /* \"Core/XSwapERC20.sol\":2074:2105  allowance[from][msg.sender].sub */\n      tag_172\n      swap1\n        /* \"Core/XSwapERC20.sol\":2074:2142  allowance[from][msg.sender].sub(... */\n      swap2\n      swap1\n      0xffffffff\n      and\n      jump\t// in\n    tag_192:\n        /* \"Core/XSwapERC20.sol\":2044:2053  allowance */\n      0x02\n        /* \"Core/XSwapERC20.sol\":2044:2059  allowance[from] */\n      0x00\n        /* \"Core/XSwapERC20.sol\":2054:2058  from */\n      dup7\n        /* \"Core/XSwapERC20.sol\":2044:2059  allowance[from] */\n      0xffffffffffffffffffffffffffffffffffffffff\n      and\n      0xffffffffffffffffffffffffffffffffffffffff\n      and\n      dup2\n      mstore\n      0x20\n      add\n      swap1\n      dup2\n      mstore\n      0x20\n      add\n      0x00\n      keccak256\n        /* \"Core/XSwapERC20.sol\":2044:2071  allowance[from][msg.sender] */\n      0x00\n        /* \"Core/XSwapERC20.sol\":2060:2070  msg.sender */\n      caller\n        /* \"Core/XSwapERC20.sol\":2044:2071  allowance[from][msg.sender] */\n      0xffffffffffffffffffffffffffffffffffffffff\n      and\n      0xffffffffffffffffffffffffffffffffffffffff\n      and\n      dup2\n      mstore\n      0x20\n      add\n      swap1\n      dup2\n      mstore\n      0x20\n      add\n      0x00\n      keccak256\n        /* \"Core/XSwapERC20.sol\":2044:2142  allowance[from][msg.sender] = allowance[from][msg.sender].sub(... */\n      dup2\n      swap1\n      sstore\n      pop\n        /* \"Core/XSwapERC20.sol\":1983:2153  if (allowance[from][msg.sender] != 2**112 - 1) {... */\n    tag_191:\n        /* \"Core/XSwapERC20.sol\":2162:2188  _transfer(from, to, value) */\n      tag_193\n        /* \"Core/XSwapERC20.sol\":2172:2176  from */\n      dup5\n        /* \"Core/XSwapERC20.sol\":2178:2180  to */\n      dup5\n        /* \"Core/XSwapERC20.sol\":2182:2187  value */\n      dup5\n        /* \"Core/XSwapERC20.sol\":2162:2171  _transfer */\n      tag_194\n        /* \"Core/XSwapERC20.sol\":2162:2188  _transfer(from, to, value) */\n      jump\t// in\n    tag_193:\n        /* \"Core/XSwapERC20.sol\":2205:2209  true */\n      0x01\n        /* \"Core/XSwapERC20.sol\":2198:2209  return true */\n      swap1\n      pop\n        /* \"Core/XSwapERC20.sol\":1856:2216  function transferFrom(... */\n      swap4\n      swap3\n      pop\n      pop\n      pop\n      jump\t// out\n        /* \"Core/XSwapERC20.sol\":244:279  uint8 public constant decimals = 18 */\n    tag_62:\n        /* \"Core/XSwapERC20.sol\":277:279  18 */\n      0x12\n        /* \"Core/XSwapERC20.sol\":244:279  uint8 public constant decimals = 18 */\n      dup2\n      jump\t// out\n        /* \"Core/XSwapPair.sol\":2430:2625  function initialize(address _token0, address _token1) external {... */\n    tag_68:\n        /* \"Core/XSwapPair.sol\":2525:2532  factory */\n      0x04\n      0x00\n      swap1\n      sload\n      swap1\n      0x0100\n      exp\n      swap1\n      div\n      0xffffffffffffffffffffffffffffffffffffffff\n      and\n        /* \"Core/XSwapPair.sol\":2511:2532  msg.sender == factory */\n      0xffffffffffffffffffffffffffffffffffffffff\n      and\n        /* \"Core/XSwapPair.sol\":2511:2521  msg.sender */\n      caller\n        /* \"Core/XSwapPair.sol\":2511:2532  msg.sender == factory */\n      0xffffffffffffffffffffffffffffffffffffffff\n      and\n      eq\n        /* \"Core/XSwapPair.sol\":2503:2546  require(msg.sender == factory, \"FORBIDDEN\") */\n      tag_196\n      jumpi\n      mload(0x40)\n      0x08c379a000000000000000000000000000000000000000000000000000000000\n      dup2\n      mstore\n      0x04\n      add\n      tag_197\n      swap1\n      tag_198\n      jump\t// in\n    tag_197:\n      mload(0x40)\n      dup1\n      swap2\n      sub\n      swap1\n      revert\n    tag_196:\n        /* \"Core/XSwapPair.sol\":2585:2592  _token0 */\n      dup2\n        /* \"Core/XSwapPair.sol\":2576:2582  token0 */\n      0x05\n      0x00\n        /* \"Core/XSwapPair.sol\":2576:2592  token0 = _token0 */\n      0x0100\n      exp\n      dup2\n      sload\n      dup2\n      0xffffffffffffffffffffffffffffffffffffffff\n      mul\n      not\n      and\n      swap1\n      dup4\n      0xffffffffffffffffffffffffffffffffffffffff\n      and\n      mul\n      or\n      swap1\n      sstore\n      pop\n        /* \"Core/XSwapPair.sol\":2611:2618  _token1 */\n      dup1\n        /* \"Core/XSwapPair.sol\":2602:2608  token1 */\n      0x06\n      0x00\n        /* \"Core/XSwapPair.sol\":2602:2618  token1 = _token1 */\n      0x0100\n      exp\n      dup2\n      sload\n      dup2\n      0xffffffffffffffffffffffffffffffffffffffff\n      mul\n      not\n      and\n      swap1\n      dup4\n      0xffffffffffffffffffffffffffffffffffffffff\n      and\n      mul\n      or\n      swap1\n      sstore\n      pop\n        /* \"Core/XSwapPair.sol\":2430:2625  function initialize(address _token0, address _token1) external {... */\n      pop\n      pop\n      jump\t// out\n        /* \"Core/XSwapPair.sol\":842:877  uint256 public price0CumulativeLast */\n    tag_70:\n      sload(0x08)\n      dup2\n      jump\t// out\n        /* \"Core/XSwapPair.sol\":883:918  uint256 public price1CumulativeLast */\n    tag_73:\n      sload(0x09)\n      dup2\n      jump\t// out\n        /* \"Core/XSwapPair.sol\":4782:6066  function mint(address to) external lock returns (uint256 liquidity) {... */\n    tag_78:\n        /* \"Core/XSwapPair.sol\":4831:4848  uint256 liquidity */\n      0x00\n        /* \"Core/XSwapPair.sol\":1111:1112  1 */\n      0x01\n        /* \"Core/XSwapPair.sol\":1099:1107  unlocked */\n      sload(0x0b)\n        /* \"Core/XSwapPair.sol\":1099:1112  unlocked == 1 */\n      eq\n        /* \"Core/XSwapPair.sol\":1091:1123  require(unlocked == 1, \"LOCKED\") */\n      tag_200\n      jumpi\n      mload(0x40)\n      0x08c379a000000000000000000000000000000000000000000000000000000000\n      dup2\n      mstore\n      0x04\n      add\n      tag_201\n      swap1\n      tag_124\n      jump\t// in\n    tag_201:\n      mload(0x40)\n      dup1\n      swap2\n      sub\n      swap1\n      revert\n    tag_200:\n        /* \"Core/XSwapPair.sol\":1144:1145  0 */\n      0x00\n        /* \"Core/XSwapPair.sol\":1133:1141  unlocked */\n      0x0b\n        /* \"Core/XSwapPair.sol\":1133:1145  unlocked = 0 */\n      dup2\n      swap1\n      sstore\n      pop\n        /* \"Core/XSwapPair.sol\":4861:4878  uint112 _reserve0 */\n      0x00\n        /* \"Core/XSwapPair.sol\":4880:4897  uint112 _reserve1 */\n      dup1\n        /* \"Core/XSwapPair.sol\":4903:4916  getReserves() */\n      tag_203\n        /* \"Core/XSwapPair.sol\":4903:4914  getReserves */\n      tag_39\n        /* \"Core/XSwapPair.sol\":4903:4916  getReserves() */\n      jump\t// in\n    tag_203:\n        /* \"Core/XSwapPair.sol\":4860:4916  (uint112 _reserve0, uint112 _reserve1, ) = getReserves() */\n      pop\n      swap2\n      pop\n      swap2\n      pop\n        /* \"Core/XSwapPair.sol\":4941:4957  uint256 balance0 */\n      0x00\n        /* \"Core/XSwapPair.sol\":4967:4973  token0 */\n      0x05\n      0x00\n      swap1\n      sload\n      swap1\n      0x0100\n      exp\n      swap1\n      div\n      0xffffffffffffffffffffffffffffffffffffffff\n      and\n        /* \"Core/XSwapPair.sol\":4960:4984  IERC20(token0).balanceOf */\n      0xffffffffffffffffffffffffffffffffffffffff\n      and\n      0x70a08231\n        /* \"Core/XSwapPair.sol\":4993:4997  this */\n      address\n        /* \"Core/XSwapPair.sol\":4960:4999  IERC20(token0).balanceOf(address(this)) */\n      mload(0x40)\n      dup3\n      0xffffffff\n      and\n      0xe0\n      shl\n      dup2\n      mstore\n      0x04\n      add\n      tag_204\n      swap2\n      swap1\n      tag_51\n      jump\t// in\n    tag_204:\n      0x20\n      mload(0x40)\n      dup1\n      dup4\n      sub\n      dup2\n      dup7\n      gas\n      staticcall\n      iszero\n      dup1\n      iszero\n      tag_206\n      jumpi\n      returndatasize\n      0x00\n      dup1\n      returndatacopy\n      revert(0x00, returndatasize)\n    tag_206:\n      pop\n      pop\n      pop\n      pop\n      mload(0x40)\n      returndatasize\n      not(0x1f)\n      0x1f\n      dup3\n      add\n      and\n      dup3\n      add\n      dup1\n      0x40\n      mstore\n      pop\n      dup2\n      add\n      swap1\n      tag_207\n      swap2\n      swap1\n      tag_148\n      jump\t// in\n    tag_207:\n        /* \"Core/XSwapPair.sol\":4941:4999  uint256 balance0 = IERC20(token0).balanceOf(address(this)) */\n      swap1\n      pop\n        /* \"Core/XSwapPair.sol\":5009:5025  uint256 balance1 */\n      0x00\n        /* \"Core/XSwapPair.sol\":5035:5041  token1 */\n      0x06\n      0x00\n      swap1\n      sload\n      swap1\n      0x0100\n      exp\n      swap1\n      div\n      0xffffffffffffffffffffffffffffffffffffffff\n      and\n        /* \"Core/XSwapPair.sol\":5028:5052  IERC20(token1).balanceOf */\n      0xffffffffffffffffffffffffffffffffffffffff\n      and\n      0x70a08231\n        /* \"Core/XSwapPair.sol\":5061:5065  this */\n      address\n        /* \"Core/XSwapPair.sol\":5028:5067  IERC20(token1).balanceOf(address(this)) */\n      mload(0x40)\n      dup3\n      0xffffffff\n      and\n      0xe0\n      shl\n      dup2\n      mstore\n      0x04\n      add\n      tag_208\n      swap2\n      swap1\n      tag_51\n      jump\t// in\n    tag_208:\n      0x20\n      mload(0x40)\n      dup1\n      dup4\n      sub\n      dup2\n      dup7\n      gas\n      staticcall\n      iszero\n      dup1\n      iszero\n      tag_210\n      jumpi\n      returndatasize\n      0x00\n      dup1\n      returndatacopy\n      revert(0x00, returndatasize)\n    tag_210:\n      pop\n      pop\n      pop\n      pop\n      mload(0x40)\n      returndatasize\n      not(0x1f)\n      0x1f\n      dup3\n      add\n      and\n      dup3\n      add\n      dup1\n      0x40\n      mstore\n      pop\n      dup2\n      add\n      swap1\n      tag_211\n      swap2\n      swap1\n      tag_148\n      jump\t// in\n    tag_211:\n        /* \"Core/XSwapPair.sol\":5009:5067  uint256 balance1 = IERC20(token1).balanceOf(address(this)) */\n      swap1\n      pop\n        /* \"Core/XSwapPair.sol\":5077:5092  uint256 amount0 */\n      0x00\n        /* \"Core/XSwapPair.sol\":5095:5118  balance0.sub(_reserve0) */\n      tag_212\n        /* \"Core/XSwapPair.sol\":5108:5117  _reserve0 */\n      dup6\n        /* \"Core/XSwapPair.sol\":5095:5118  balance0.sub(_reserve0) */\n      0xffffffffffffffffffffffffffff\n      and\n        /* \"Core/XSwapPair.sol\":5095:5103  balance0 */\n      dup5\n        /* \"Core/XSwapPair.sol\":5095:5107  balance0.sub */\n      tag_172\n      swap1\n        /* \"Core/XSwapPair.sol\":5095:5118  balance0.sub(_reserve0) */\n      swap2\n      swap1\n      0xffffffff\n      and\n      jump\t// in\n    tag_212:\n        /* \"Core/XSwapPair.sol\":5077:5118  uint256 amount0 = balance0.sub(_reserve0) */\n      swap1\n      pop\n        /* \"Core/XSwapPair.sol\":5128:5143  uint256 amount1 */\n      0x00\n        /* \"Core/XSwapPair.sol\":5146:5169  balance1.sub(_reserve1) */\n      tag_213\n        /* \"Core/XSwapPair.sol\":5159:5168  _reserve1 */\n      dup6\n        /* \"Core/XSwapPair.sol\":5146:5169  balance1.sub(_reserve1) */\n      0xffffffffffffffffffffffffffff\n      and\n        /* \"Core/XSwapPair.sol\":5146:5154  balance1 */\n      dup5\n        /* \"Core/XSwapPair.sol\":5146:5158  balance1.sub */\n      tag_172\n      swap1\n        /* \"Core/XSwapPair.sol\":5146:5169  balance1.sub(_reserve1) */\n      swap2\n      swap1\n      0xffffffff\n      and\n      jump\t// in\n    tag_213:\n        /* \"Core/XSwapPair.sol\":5128:5169  uint256 amount1 = balance1.sub(_reserve1) */\n      swap1\n      pop\n        /* \"Core/XSwapPair.sol\":5180:5190  bool feeOn */\n      0x00\n        /* \"Core/XSwapPair.sol\":5193:5226  _collectFee(_reserve0, _reserve1) */\n      tag_214\n        /* \"Core/XSwapPair.sol\":5205:5214  _reserve0 */\n      dup8\n        /* \"Core/XSwapPair.sol\":5216:5225  _reserve1 */\n      dup8\n        /* \"Core/XSwapPair.sol\":5193:5204  _collectFee */\n      tag_215\n        /* \"Core/XSwapPair.sol\":5193:5226  _collectFee(_reserve0, _reserve1) */\n      jump\t// in\n    tag_214:\n        /* \"Core/XSwapPair.sol\":5180:5226  bool feeOn = _collectFee(_reserve0, _reserve1) */\n      swap1\n      pop\n        /* \"Core/XSwapPair.sol\":5236:5256  uint256 _totalSupply */\n      0x00\n        /* \"Core/XSwapPair.sol\":5259:5270  totalSupply */\n      dup1\n      sload\n        /* \"Core/XSwapPair.sol\":5236:5270  uint256 _totalSupply = totalSupply */\n      swap1\n      pop\n        /* \"Core/XSwapPair.sol\":5381:5382  0 */\n      0x00\n        /* \"Core/XSwapPair.sol\":5365:5377  _totalSupply */\n      dup2\n        /* \"Core/XSwapPair.sol\":5365:5382  _totalSupply == 0 */\n      sub\n        /* \"Core/XSwapPair.sol\":5361:5755  if (_totalSupply == 0) {... */\n      tag_216\n      jumpi\n        /* \"Core/XSwapPair.sol\":5410:5464  Math.sqrt(amount0.mul(amount1)).sub(MINIMUM_LIQUIDITY) */\n      tag_217\n        /* \"Core/XSwapPair.sol\":377:382  10**3 */\n      0x03e8\n        /* \"Core/XSwapPair.sol\":5410:5441  Math.sqrt(amount0.mul(amount1)) */\n      tag_218\n        /* \"Core/XSwapPair.sol\":5420:5440  amount0.mul(amount1) */\n      tag_219\n        /* \"Core/XSwapPair.sol\":5432:5439  amount1 */\n      dup7\n        /* \"Core/XSwapPair.sol\":5420:5427  amount0 */\n      dup9\n        /* \"Core/XSwapPair.sol\":5420:5431  amount0.mul */\n      tag_170\n      swap1\n        /* \"Core/XSwapPair.sol\":5420:5440  amount0.mul(amount1) */\n      swap2\n      swap1\n      0xffffffff\n      and\n      jump\t// in\n    tag_219:\n        /* \"Core/XSwapPair.sol\":5410:5419  Math.sqrt */\n      tag_220\n        /* \"Core/XSwapPair.sol\":5410:5441  Math.sqrt(amount0.mul(amount1)) */\n      jump\t// in\n    tag_218:\n        /* \"Core/XSwapPair.sol\":5410:5445  Math.sqrt(amount0.mul(amount1)).sub */\n      tag_172\n      swap1\n        /* \"Core/XSwapPair.sol\":5410:5464  Math.sqrt(amount0.mul(amount1)).sub(MINIMUM_LIQUIDITY) */\n      swap2\n      swap1\n      0xffffffff\n      and\n      jump\t// in\n    tag_217:\n        /* \"Core/XSwapPair.sol\":5398:5464  liquidity = Math.sqrt(amount0.mul(amount1)).sub(MINIMUM_LIQUIDITY) */\n      swap9\n      pop\n        /* \"Core/XSwapPair.sol\":5478:5514  _mint(address(0), MINIMUM_LIQUIDITY) */\n      tag_221\n        /* \"Core/XSwapPair.sol\":5492:5493  0 */\n      0x00\n        /* \"Core/XSwapPair.sol\":377:382  10**3 */\n      0x03e8\n        /* \"Core/XSwapPair.sol\":5478:5483  _mint */\n      tag_222\n        /* \"Core/XSwapPair.sol\":5478:5514  _mint(address(0), MINIMUM_LIQUIDITY) */\n      jump\t// in\n    tag_221:\n        /* \"Core/XSwapPair.sol\":5361:5755  if (_totalSupply == 0) {... */\n      jump(tag_223)\n    tag_216:\n        /* \"Core/XSwapPair.sol\":5612:5744  Math.min(... */\n      tag_224\n        /* \"Core/XSwapPair.sol\":5666:5675  _reserve0 */\n      dup9\n        /* \"Core/XSwapPair.sol\":5638:5675  amount0.mul(_totalSupply) / _reserve0 */\n      0xffffffffffffffffffffffffffff\n      and\n        /* \"Core/XSwapPair.sol\":5638:5663  amount0.mul(_totalSupply) */\n      tag_225\n        /* \"Core/XSwapPair.sol\":5650:5662  _totalSupply */\n      dup4\n        /* \"Core/XSwapPair.sol\":5638:5645  amount0 */\n      dup8\n        /* \"Core/XSwapPair.sol\":5638:5649  amount0.mul */\n      tag_170\n      swap1\n        /* \"Core/XSwapPair.sol\":5638:5663  amount0.mul(_totalSupply) */\n      swap2\n      swap1\n      0xffffffff\n      and\n      jump\t// in\n    tag_225:\n        /* \"Core/XSwapPair.sol\":5638:5675  amount0.mul(_totalSupply) / _reserve0 */\n      tag_226\n      swap2\n      swap1\n      tag_227\n      jump\t// in\n    tag_226:\n        /* \"Core/XSwapPair.sol\":5721:5730  _reserve1 */\n      dup9\n        /* \"Core/XSwapPair.sol\":5693:5730  amount1.mul(_totalSupply) / _reserve1 */\n      0xffffffffffffffffffffffffffff\n      and\n        /* \"Core/XSwapPair.sol\":5693:5718  amount1.mul(_totalSupply) */\n      tag_228\n        /* \"Core/XSwapPair.sol\":5705:5717  _totalSupply */\n      dup5\n        /* \"Core/XSwapPair.sol\":5693:5700  amount1 */\n      dup8\n        /* \"Core/XSwapPair.sol\":5693:5704  amount1.mul */\n      tag_170\n      swap1\n        /* \"Core/XSwapPair.sol\":5693:5718  amount1.mul(_totalSupply) */\n      swap2\n      swap1\n      0xffffffff\n      and\n      jump\t// in\n    tag_228:\n        /* \"Core/XSwapPair.sol\":5693:5730  amount1.mul(_totalSupply) / _reserve1 */\n      tag_229\n      swap2\n      swap1\n      tag_227\n      jump\t// in\n    tag_229:\n        /* \"Core/XSwapPair.sol\":5612:5620  Math.min */\n      tag_230\n        /* \"Core/XSwapPair.sol\":5612:5744  Math.min(... */\n      jump\t// in\n    tag_224:\n        /* \"Core/XSwapPair.sol\":5600:5744  liquidity = Math.min(... */\n      swap9\n      pop\n        /* \"Core/XSwapPair.sol\":5361:5755  if (_totalSupply == 0) {... */\n    tag_223:\n        /* \"Core/XSwapPair.sol\":5784:5785  0 */\n      0x00\n        /* \"Core/XSwapPair.sol\":5772:5781  liquidity */\n      dup10\n        /* \"Core/XSwapPair.sol\":5772:5785  liquidity > 0 */\n      gt\n        /* \"Core/XSwapPair.sol\":5764:5820  require(liquidity > 0, \" INSUFFICIENT_LIQUIDITY_MINTED\") */\n      tag_231\n      jumpi\n      mload(0x40)\n      0x08c379a000000000000000000000000000000000000000000000000000000000\n      dup2\n      mstore\n      0x04\n      add\n      tag_232\n      swap1\n      tag_233\n      jump\t// in\n    tag_232:\n      mload(0x40)\n      dup1\n      swap2\n      sub\n      swap1\n      revert\n    tag_231:\n        /* \"Core/XSwapPair.sol\":5830:5850  _mint(to, liquidity) */\n      tag_234\n        /* \"Core/XSwapPair.sol\":5836:5838  to */\n      dup11\n        /* \"Core/XSwapPair.sol\":5840:5849  liquidity */\n      dup11\n        /* \"Core/XSwapPair.sol\":5830:5835  _mint */\n      tag_222\n        /* \"Core/XSwapPair.sol\":5830:5850  _mint(to, liquidity) */\n      jump\t// in\n    tag_234:\n        /* \"Core/XSwapPair.sol\":5861:5910  _update(balance0, balance1, _reserve0, _reserve1) */\n      tag_235\n        /* \"Core/XSwapPair.sol\":5869:5877  balance0 */\n      dup7\n        /* \"Core/XSwapPair.sol\":5879:5887  balance1 */\n      dup7\n        /* \"Core/XSwapPair.sol\":5889:5898  _reserve0 */\n      dup11\n        /* \"Core/XSwapPair.sol\":5900:5909  _reserve1 */\n      dup11\n        /* \"Core/XSwapPair.sol\":5861:5868  _update */\n      tag_183\n        /* \"Core/XSwapPair.sol\":5861:5910  _update(balance0, balance1, _reserve0, _reserve1) */\n      jump\t// in\n    tag_235:\n        /* \"Core/XSwapPair.sol\":5924:5929  feeOn */\n      dup2\n        /* \"Core/XSwapPair.sol\":5920:5970  if (feeOn) kLast = uint256(reserve0).mul(reserve1) */\n      iszero\n      tag_236\n      jumpi\n        /* \"Core/XSwapPair.sol\":5939:5970  uint256(reserve0).mul(reserve1) */\n      tag_237\n        /* \"Core/XSwapPair.sol\":5961:5969  reserve1 */\n      0x07\n      0x0e\n      swap1\n      sload\n      swap1\n      0x0100\n      exp\n      swap1\n      div\n      0xffffffffffffffffffffffffffff\n      and\n        /* \"Core/XSwapPair.sol\":5939:5970  uint256(reserve0).mul(reserve1) */\n      0xffffffffffffffffffffffffffff\n      and\n        /* \"Core/XSwapPair.sol\":5947:5955  reserve0 */\n      0x07\n      0x00\n      swap1\n      sload\n      swap1\n      0x0100\n      exp\n      swap1\n      div\n      0xffffffffffffffffffffffffffff\n      and\n        /* \"Core/XSwapPair.sol\":5939:5956  uint256(reserve0) */\n      0xffffffffffffffffffffffffffff\n      and\n        /* \"Core/XSwapPair.sol\":5939:5960  uint256(reserve0).mul */\n      tag_170\n      swap1\n        /* \"Core/XSwapPair.sol\":5939:5970  uint256(reserve0).mul(reserve1) */\n      swap2\n      swap1\n      0xffffffff\n      and\n      jump\t// in\n    tag_237:\n        /* \"Core/XSwapPair.sol\":5931:5936  kLast */\n      0x0a\n        /* \"Core/XSwapPair.sol\":5931:5970  kLast = uint256(reserve0).mul(reserve1) */\n      dup2\n      swap1\n      sstore\n      pop\n        /* \"Core/XSwapPair.sol\":5920:5970  if (feeOn) kLast = uint256(reserve0).mul(reserve1) */\n    tag_236:\n        /* \"Core/XSwapPair.sol\":6030:6040  msg.sender */\n      caller\n        /* \"Core/XSwapPair.sol\":6025:6059  Mint(msg.sender, amount0, amount1) */\n      0xffffffffffffffffffffffffffffffffffffffff\n      and\n      0x4c209b5fc8ad50758f13e2e1088ba56a560dff690a1c6fef26394f4c03821c4f\n        /* \"Core/XSwapPair.sol\":6042:6049  amount0 */\n      dup6\n        /* \"Core/XSwapPair.sol\":6051:6058  amount1 */\n      dup6\n        /* \"Core/XSwapPair.sol\":6025:6059  Mint(msg.sender, amount0, amount1) */\n      mload(0x40)\n      tag_238\n      swap3\n      swap2\n      swap1\n      tag_95\n      jump\t// in\n    tag_238:\n      mload(0x40)\n      dup1\n      swap2\n      sub\n      swap1\n      log2\n        /* \"Core/XSwapPair.sol\":4850:6066  {... */\n      pop\n      pop\n      pop\n      pop\n      pop\n      pop\n      pop\n      pop\n        /* \"Core/XSwapPair.sol\":1177:1178  1 */\n      0x01\n        /* \"Core/XSwapPair.sol\":1166:1174  unlocked */\n      0x0b\n        /* \"Core/XSwapPair.sol\":1166:1178  unlocked = 1 */\n      dup2\n      swap1\n      sstore\n      pop\n        /* \"Core/XSwapPair.sol\":4782:6066  function mint(address to) external lock returns (uint256 liquidity) {... */\n      swap2\n      swap1\n      pop\n      jump\t// out\n        /* \"Core/XSwapERC20.sol\":318:362  mapping(address => uint256) public balanceOf */\n    tag_82:\n      mstore(0x20, 0x01)\n      dup1\n      0x00\n      mstore\n      keccak256(0x00, 0x40)\n      0x00\n      swap2\n      pop\n      swap1\n      pop\n      sload\n      dup2\n      jump\t// out\n        /* \"Core/XSwapPair.sol\":924:944  uint256 public kLast */\n    tag_85:\n      sload(0x0a)\n      dup2\n      jump\t// out\n        /* \"Core/XSwapERC20.sol\":439:480  mapping(address => uint256) public nonces */\n    tag_89:\n      mstore(0x20, 0x03)\n      dup1\n      0x00\n      mstore\n      keccak256(0x00, 0x40)\n      0x00\n      swap2\n      pop\n      swap1\n      pop\n      sload\n      dup2\n      jump\t// out\n        /* \"Core/XSwapPair.sol\":6186:7613  function burn(address to)... */\n    tag_93:\n        /* \"Core/XSwapPair.sol\":6259:6274  uint256 amount0 */\n      0x00\n        /* \"Core/XSwapPair.sol\":6276:6291  uint256 amount1 */\n      dup1\n        /* \"Core/XSwapPair.sol\":1111:1112  1 */\n      0x01\n        /* \"Core/XSwapPair.sol\":1099:1107  unlocked */\n      sload(0x0b)\n        /* \"Core/XSwapPair.sol\":1099:1112  unlocked == 1 */\n      eq\n        /* \"Core/XSwapPair.sol\":1091:1123  require(unlocked == 1, \"LOCKED\") */\n      tag_240\n      jumpi\n      mload(0x40)\n      0x08c379a000000000000000000000000000000000000000000000000000000000\n      dup2\n      mstore\n      0x04\n      add\n      tag_241\n      swap1\n      tag_124\n      jump\t// in\n    tag_241:\n      mload(0x40)\n      dup1\n      swap2\n      sub\n      swap1\n      revert\n    tag_240:\n        /* \"Core/XSwapPair.sol\":1144:1145  0 */\n      0x00\n        /* \"Core/XSwapPair.sol\":1133:1141  unlocked */\n      0x0b\n        /* \"Core/XSwapPair.sol\":1133:1145  unlocked = 0 */\n      dup2\n      swap1\n      sstore\n      pop\n        /* \"Core/XSwapPair.sol\":6308:6325  uint112 _reserve0 */\n      0x00\n        /* \"Core/XSwapPair.sol\":6327:6344  uint112 _reserve1 */\n      dup1\n        /* \"Core/XSwapPair.sol\":6350:6363  getReserves() */\n      tag_243\n        /* \"Core/XSwapPair.sol\":6350:6361  getReserves */\n      tag_39\n        /* \"Core/XSwapPair.sol\":6350:6363  getReserves() */\n      jump\t// in\n    tag_243:\n        /* \"Core/XSwapPair.sol\":6307:6363  (uint112 _reserve0, uint112 _reserve1, ) = getReserves() */\n      pop\n      swap2\n      pop\n      swap2\n      pop\n        /* \"Core/XSwapPair.sol\":6388:6403  address _token0 */\n      0x00\n        /* \"Core/XSwapPair.sol\":6406:6412  token0 */\n      0x05\n      0x00\n      swap1\n      sload\n      swap1\n      0x0100\n      exp\n      swap1\n      div\n      0xffffffffffffffffffffffffffffffffffffffff\n      and\n        /* \"Core/XSwapPair.sol\":6388:6412  address _token0 = token0 */\n      swap1\n      pop\n        /* \"Core/XSwapPair.sol\":6437:6452  address _token1 */\n      0x00\n        /* \"Core/XSwapPair.sol\":6455:6461  token1 */\n      0x06\n      0x00\n      swap1\n      sload\n      swap1\n      0x0100\n      exp\n      swap1\n      div\n      0xffffffffffffffffffffffffffffffffffffffff\n      and\n        /* \"Core/XSwapPair.sol\":6437:6461  address _token1 = token1 */\n      swap1\n      pop\n        /* \"Core/XSwapPair.sol\":6486:6502  uint256 balance0 */\n      0x00\n        /* \"Core/XSwapPair.sol\":6512:6519  _token0 */\n      dup3\n        /* \"Core/XSwapPair.sol\":6505:6530  IERC20(_token0).balanceOf */\n      0xffffffffffffffffffffffffffffffffffffffff\n      and\n      0x70a08231\n        /* \"Core/XSwapPair.sol\":6539:6543  this */\n      address\n        /* \"Core/XSwapPair.sol\":6505:6545  IERC20(_token0).balanceOf(address(this)) */\n      mload(0x40)\n      dup3\n      0xffffffff\n      and\n      0xe0\n      shl\n      dup2\n      mstore\n      0x04\n      add\n      tag_244\n      swap2\n      swap1\n      tag_51\n      jump\t// in\n    tag_244:\n      0x20\n      mload(0x40)\n      dup1\n      dup4\n      sub\n      dup2\n      dup7\n      gas\n      staticcall\n      iszero\n      dup1\n      iszero\n      tag_246\n      jumpi\n      returndatasize\n      0x00\n      dup1\n      returndatacopy\n      revert(0x00, returndatasize)\n    tag_246:\n      pop\n      pop\n      pop\n      pop\n      mload(0x40)\n      returndatasize\n      not(0x1f)\n      0x1f\n      dup3\n      add\n      and\n      dup3\n      add\n      dup1\n      0x40\n      mstore\n      pop\n      dup2\n      add\n      swap1\n      tag_247\n      swap2\n      swap1\n      tag_148\n      jump\t// in\n    tag_247:\n        /* \"Core/XSwapPair.sol\":6486:6545  uint256 balance0 = IERC20(_token0).balanceOf(address(this)) */\n      swap1\n      pop\n        /* \"Core/XSwapPair.sol\":6555:6571  uint256 balance1 */\n      0x00\n        /* \"Core/XSwapPair.sol\":6581:6588  _token1 */\n      dup3\n        /* \"Core/XSwapPair.sol\":6574:6599  IERC20(_token1).balanceOf */\n      0xffffffffffffffffffffffffffffffffffffffff\n      and\n      0x70a08231\n        /* \"Core/XSwapPair.sol\":6608:6612  this */\n      address\n        /* \"Core/XSwapPair.sol\":6574:6614  IERC20(_token1).balanceOf(address(this)) */\n      mload(0x40)\n      dup3\n      0xffffffff\n      and\n      0xe0\n      shl\n      dup2\n      mstore\n      0x04\n      add\n      tag_248\n      swap2\n      swap1\n      tag_51\n      jump\t// in\n    tag_248:\n      0x20\n      mload(0x40)\n      dup1\n      dup4\n      sub\n      dup2\n      dup7\n      gas\n      staticcall\n      iszero\n      dup1\n      iszero\n      tag_250\n      jumpi\n      returndatasize\n      0x00\n      dup1\n      returndatacopy\n      revert(0x00, returndatasize)\n    tag_250:\n      pop\n      pop\n      pop\n      pop\n      mload(0x40)\n      returndatasize\n      not(0x1f)\n      0x1f\n      dup3\n      add\n      and\n      dup3\n      add\n      dup1\n      0x40\n      mstore\n      pop\n      dup2\n      add\n      swap1\n      tag_251\n      swap2\n      swap1\n      tag_148\n      jump\t// in\n    tag_251:\n        /* \"Core/XSwapPair.sol\":6555:6614  uint256 balance1 = IERC20(_token1).balanceOf(address(this)) */\n      swap1\n      pop\n        /* \"Core/XSwapPair.sol\":6624:6641  uint256 liquidity */\n      0x00\n        /* \"Core/XSwapPair.sol\":6644:6653  balanceOf */\n      0x01\n        /* \"Core/XSwapPair.sol\":6644:6668  balanceOf[address(this)] */\n      0x00\n        /* \"Core/XSwapPair.sol\":6662:6666  this */\n      address\n        /* \"Core/XSwapPair.sol\":6644:6668  balanceOf[address(this)] */\n      0xffffffffffffffffffffffffffffffffffffffff\n      and\n      0xffffffffffffffffffffffffffffffffffffffff\n      and\n      dup2\n      mstore\n      0x20\n      add\n      swap1\n      dup2\n      mstore\n      0x20\n      add\n      0x00\n      keccak256\n      sload\n        /* \"Core/XSwapPair.sol\":6624:6668  uint256 liquidity = balanceOf[address(this)] */\n      swap1\n      pop\n        /* \"Core/XSwapPair.sol\":6679:6689  bool feeOn */\n      0x00\n        /* \"Core/XSwapPair.sol\":6692:6725  _collectFee(_reserve0, _reserve1) */\n      tag_252\n        /* \"Core/XSwapPair.sol\":6704:6713  _reserve0 */\n      dup9\n        /* \"Core/XSwapPair.sol\":6715:6724  _reserve1 */\n      dup9\n        /* \"Core/XSwapPair.sol\":6692:6703  _collectFee */\n      tag_215\n        /* \"Core/XSwapPair.sol\":6692:6725  _collectFee(_reserve0, _reserve1) */\n      jump\t// in\n    tag_252:\n        /* \"Core/XSwapPair.sol\":6679:6725  bool feeOn = _collectFee(_reserve0, _reserve1) */\n      swap1\n      pop\n        /* \"Core/XSwapPair.sol\":6735:6755  uint256 _totalSupply */\n      0x00\n        /* \"Core/XSwapPair.sol\":6758:6769  totalSupply */\n      dup1\n      sload\n        /* \"Core/XSwapPair.sol\":6735:6769  uint256 _totalSupply = totalSupply */\n      swap1\n      pop\n        /* \"Core/XSwapPair.sol\":6896:6908  _totalSupply */\n      dup1\n        /* \"Core/XSwapPair.sol\":6870:6893  liquidity.mul(balance0) */\n      tag_253\n        /* \"Core/XSwapPair.sol\":6884:6892  balance0 */\n      dup7\n        /* \"Core/XSwapPair.sol\":6870:6879  liquidity */\n      dup6\n        /* \"Core/XSwapPair.sol\":6870:6883  liquidity.mul */\n      tag_170\n      swap1\n        /* \"Core/XSwapPair.sol\":6870:6893  liquidity.mul(balance0) */\n      swap2\n      swap1\n      0xffffffff\n      and\n      jump\t// in\n    tag_253:\n        /* \"Core/XSwapPair.sol\":6870:6908  liquidity.mul(balance0) / _totalSupply */\n      tag_254\n      swap2\n      swap1\n      tag_227\n      jump\t// in\n    tag_254:\n        /* \"Core/XSwapPair.sol\":6860:6908  amount0 = liquidity.mul(balance0) / _totalSupply */\n      swap11\n      pop\n        /* \"Core/XSwapPair.sol\":7002:7014  _totalSupply */\n      dup1\n        /* \"Core/XSwapPair.sol\":6976:6999  liquidity.mul(balance1) */\n      tag_255\n        /* \"Core/XSwapPair.sol\":6990:6998  balance1 */\n      dup6\n        /* \"Core/XSwapPair.sol\":6976:6985  liquidity */\n      dup6\n        /* \"Core/XSwapPair.sol\":6976:6989  liquidity.mul */\n      tag_170\n      swap1\n        /* \"Core/XSwapPair.sol\":6976:6999  liquidity.mul(balance1) */\n      swap2\n      swap1\n      0xffffffff\n      and\n      jump\t// in\n    tag_255:\n        /* \"Core/XSwapPair.sol\":6976:7014  liquidity.mul(balance1) / _totalSupply */\n      tag_256\n      swap2\n      swap1\n      tag_227\n      jump\t// in\n    tag_256:\n        /* \"Core/XSwapPair.sol\":6966:7014  amount1 = liquidity.mul(balance1) / _totalSupply */\n      swap10\n      pop\n        /* \"Core/XSwapPair.sol\":7090:7091  0 */\n      0x00\n        /* \"Core/XSwapPair.sol\":7080:7087  amount0 */\n      dup12\n        /* \"Core/XSwapPair.sol\":7080:7091  amount0 > 0 */\n      gt\n        /* \"Core/XSwapPair.sol\":7080:7106  amount0 > 0 && amount1 > 0 */\n      dup1\n      iszero\n      tag_257\n      jumpi\n      pop\n        /* \"Core/XSwapPair.sol\":7105:7106  0 */\n      0x00\n        /* \"Core/XSwapPair.sol\":7095:7102  amount1 */\n      dup11\n        /* \"Core/XSwapPair.sol\":7095:7106  amount1 > 0 */\n      gt\n        /* \"Core/XSwapPair.sol\":7080:7106  amount0 > 0 && amount1 > 0 */\n    tag_257:\n        /* \"Core/XSwapPair.sol\":7072:7140  require(amount0 > 0 && amount1 > 0, \"INSUFFICIENT_LIQUIDITY_BURNED\") */\n      tag_258\n      jumpi\n      mload(0x40)\n      0x08c379a000000000000000000000000000000000000000000000000000000000\n      dup2\n      mstore\n      0x04\n      add\n      tag_259\n      swap1\n      tag_260\n      jump\t// in\n    tag_259:\n      mload(0x40)\n      dup1\n      swap2\n      sub\n      swap1\n      revert\n    tag_258:\n        /* \"Core/XSwapPair.sol\":7150:7181  _burn(address(this), liquidity) */\n      tag_261\n        /* \"Core/XSwapPair.sol\":7164:7168  this */\n      address\n        /* \"Core/XSwapPair.sol\":7171:7180  liquidity */\n      dup5\n        /* \"Core/XSwapPair.sol\":7150:7155  _burn */\n      tag_262\n        /* \"Core/XSwapPair.sol\":7150:7181  _burn(address(this), liquidity) */\n      jump\t// in\n    tag_261:\n        /* \"Core/XSwapPair.sol\":7191:7226  _safeTransfer(_token0, to, amount0) */\n      tag_263\n        /* \"Core/XSwapPair.sol\":7205:7212  _token0 */\n      dup8\n        /* \"Core/XSwapPair.sol\":7214:7216  to */\n      dup14\n        /* \"Core/XSwapPair.sol\":7218:7225  amount0 */\n      dup14\n        /* \"Core/XSwapPair.sol\":7191:7204  _safeTransfer */\n      tag_141\n        /* \"Core/XSwapPair.sol\":7191:7226  _safeTransfer(_token0, to, amount0) */\n      jump\t// in\n    tag_263:\n        /* \"Core/XSwapPair.sol\":7236:7271  _safeTransfer(_token1, to, amount1) */\n      tag_264\n        /* \"Core/XSwapPair.sol\":7250:7257  _token1 */\n      dup7\n        /* \"Core/XSwapPair.sol\":7259:7261  to */\n      dup14\n        /* \"Core/XSwapPair.sol\":7263:7270  amount1 */\n      dup13\n        /* \"Core/XSwapPair.sol\":7236:7249  _safeTransfer */\n      tag_141\n        /* \"Core/XSwapPair.sol\":7236:7271  _safeTransfer(_token1, to, amount1) */\n      jump\t// in\n    tag_264:\n        /* \"Core/XSwapPair.sol\":7299:7306  _token0 */\n      dup7\n        /* \"Core/XSwapPair.sol\":7292:7317  IERC20(_token0).balanceOf */\n      0xffffffffffffffffffffffffffffffffffffffff\n      and\n      0x70a08231\n        /* \"Core/XSwapPair.sol\":7326:7330  this */\n      address\n        /* \"Core/XSwapPair.sol\":7292:7332  IERC20(_token0).balanceOf(address(this)) */\n      mload(0x40)\n      dup3\n      0xffffffff\n      and\n      0xe0\n      shl\n      dup2\n      mstore\n      0x04\n      add\n      tag_265\n      swap2\n      swap1\n      tag_51\n      jump\t// in\n    tag_265:\n      0x20\n      mload(0x40)\n      dup1\n      dup4\n      sub\n      dup2\n      dup7\n      gas\n      staticcall\n      iszero\n      dup1\n      iszero\n      tag_267\n      jumpi\n      returndatasize\n      0x00\n      dup1\n      returndatacopy\n      revert(0x00, returndatasize)\n    tag_267:\n      pop\n      pop\n      pop\n      pop\n      mload(0x40)\n      returndatasize\n      not(0x1f)\n      0x1f\n      dup3\n      add\n      and\n      dup3\n      add\n      dup1\n      0x40\n      mstore\n      pop\n      dup2\n      add\n      swap1\n      tag_268\n      swap2\n      swap1\n      tag_148\n      jump\t// in\n    tag_268:\n        /* \"Core/XSwapPair.sol\":7281:7332  balance0 = IERC20(_token0).balanceOf(address(this)) */\n      swap5\n      pop\n        /* \"Core/XSwapPair.sol\":7360:7367  _token1 */\n      dup6\n        /* \"Core/XSwapPair.sol\":7353:7378  IERC20(_token1).balanceOf */\n      0xffffffffffffffffffffffffffffffffffffffff\n      and\n      0x70a08231\n        /* \"Core/XSwapPair.sol\":7387:7391  this */\n      address\n        /* \"Core/XSwapPair.sol\":7353:7393  IERC20(_token1).balanceOf(address(this)) */\n      mload(0x40)\n      dup3\n      0xffffffff\n      and\n      0xe0\n      shl\n      dup2\n      mstore\n      0x04\n      add\n      tag_269\n      swap2\n      swap1\n      tag_51\n      jump\t// in\n    tag_269:\n      0x20\n      mload(0x40)\n      dup1\n      dup4\n      sub\n      dup2\n      dup7\n      gas\n      staticcall\n      iszero\n      dup1\n      iszero\n      tag_271\n      jumpi\n      returndatasize\n      0x00\n      dup1\n      returndatacopy\n      revert(0x00, returndatasize)\n    tag_271:\n      pop\n      pop\n      pop\n      pop\n      mload(0x40)\n      returndatasize\n      not(0x1f)\n      0x1f\n      dup3\n      add\n      and\n      dup3\n      add\n      dup1\n      0x40\n      mstore\n      pop\n      dup2\n      add\n      swap1\n      tag_272\n      swap2\n      swap1\n      tag_148\n      jump\t// in\n    tag_272:\n        /* \"Core/XSwapPair.sol\":7342:7393  balance1 = IERC20(_token1).balanceOf(address(this)) */\n      swap4\n      pop\n        /* \"Core/XSwapPair.sol\":7404:7453  _update(balance0, balance1, _reserve0, _reserve1) */\n      tag_273\n        /* \"Core/XSwapPair.sol\":7412:7420  balance0 */\n      dup6\n        /* \"Core/XSwapPair.sol\":7422:7430  balance1 */\n      dup6\n        /* \"Core/XSwapPair.sol\":7432:7441  _reserve0 */\n      dup12\n        /* \"Core/XSwapPair.sol\":7443:7452  _reserve1 */\n      dup12\n        /* \"Core/XSwapPair.sol\":7404:7411  _update */\n      tag_183\n        /* \"Core/XSwapPair.sol\":7404:7453  _update(balance0, balance1, _reserve0, _reserve1) */\n      jump\t// in\n    tag_273:\n        /* \"Core/XSwapPair.sol\":7467:7472  feeOn */\n      dup2\n        /* \"Core/XSwapPair.sol\":7463:7513  if (feeOn) kLast = uint256(reserve0).mul(reserve1) */\n      iszero\n      tag_274\n      jumpi\n        /* \"Core/XSwapPair.sol\":7482:7513  uint256(reserve0).mul(reserve1) */\n      tag_275\n        /* \"Core/XSwapPair.sol\":7504:7512  reserve1 */\n      0x07\n      0x0e\n      swap1\n      sload\n      swap1\n      0x0100\n      exp\n      swap1\n      div\n      0xffffffffffffffffffffffffffff\n      and\n        /* \"Core/XSwapPair.sol\":7482:7513  uint256(reserve0).mul(reserve1) */\n      0xffffffffffffffffffffffffffff\n      and\n        /* \"Core/XSwapPair.sol\":7490:7498  reserve0 */\n      0x07\n      0x00\n      swap1\n      sload\n      swap1\n      0x0100\n      exp\n      swap1\n      div\n      0xffffffffffffffffffffffffffff\n      and\n        /* \"Core/XSwapPair.sol\":7482:7499  uint256(reserve0) */\n      0xffffffffffffffffffffffffffff\n      and\n        /* \"Core/XSwapPair.sol\":7482:7503  uint256(reserve0).mul */\n      tag_170\n      swap1\n        /* \"Core/XSwapPair.sol\":7482:7513  uint256(reserve0).mul(reserve1) */\n      swap2\n      swap1\n      0xffffffff\n      and\n      jump\t// in\n    tag_275:\n        /* \"Core/XSwapPair.sol\":7474:7479  kLast */\n      0x0a\n        /* \"Core/XSwapPair.sol\":7474:7513  kLast = uint256(reserve0).mul(reserve1) */\n      dup2\n      swap1\n      sstore\n      pop\n        /* \"Core/XSwapPair.sol\":7463:7513  if (feeOn) kLast = uint256(reserve0).mul(reserve1) */\n    tag_274:\n        /* \"Core/XSwapPair.sol\":7603:7605  to */\n      dup12\n        /* \"Core/XSwapPair.sol\":7568:7606  Burn(msg.sender, amount0, amount1, to) */\n      0xffffffffffffffffffffffffffffffffffffffff\n      and\n        /* \"Core/XSwapPair.sol\":7573:7583  msg.sender */\n      caller\n        /* \"Core/XSwapPair.sol\":7568:7606  Burn(msg.sender, amount0, amount1, to) */\n      0xffffffffffffffffffffffffffffffffffffffff\n      and\n      0xdccd412f0b1252819cb1fd330b93224ca42612892bb3f4f789976e6d81936496\n        /* \"Core/XSwapPair.sol\":7585:7592  amount0 */\n      dup14\n        /* \"Core/XSwapPair.sol\":7594:7601  amount1 */\n      dup14\n        /* \"Core/XSwapPair.sol\":7568:7606  Burn(msg.sender, amount0, amount1, to) */\n      mload(0x40)\n      tag_276\n      swap3\n      swap2\n      swap1\n      tag_95\n      jump\t// in\n    tag_276:\n      mload(0x40)\n      dup1\n      swap2\n      sub\n      swap1\n      log3\n        /* \"Core/XSwapPair.sol\":6297:7613  {... */\n      pop\n      pop\n      pop\n      pop\n      pop\n      pop\n      pop\n      pop\n      pop\n        /* \"Core/XSwapPair.sol\":1177:1178  1 */\n      0x01\n        /* \"Core/XSwapPair.sol\":1166:1174  unlocked */\n      0x0b\n        /* \"Core/XSwapPair.sol\":1166:1178  unlocked = 1 */\n      dup2\n      swap1\n      sstore\n      pop\n        /* \"Core/XSwapPair.sol\":6186:7613  function burn(address to)... */\n      swap2\n      pop\n      swap2\n      jump\t// out\n        /* \"Core/XSwapERC20.sol\":199:238  string public constant symbol = \"XS-V1\" */\n    tag_97:\n      mload(0x40)\n      dup1\n      0x40\n      add\n      0x40\n      mstore\n      dup1\n      0x05\n      dup2\n      mstore\n      0x20\n      add\n      0x58532d5631000000000000000000000000000000000000000000000000000000\n      dup2\n      mstore\n      pop\n      dup2\n      jump\t// out\n        /* \"Core/XSwapERC20.sol\":1711:1850  function transfer(address to, uint256 value) external returns (bool) {... */\n    tag_101:\n        /* \"Core/XSwapERC20.sol\":1774:1778  bool */\n      0x00\n        /* \"Core/XSwapERC20.sol\":1790:1822  _transfer(msg.sender, to, value) */\n      tag_278\n        /* \"Core/XSwapERC20.sol\":1800:1810  msg.sender */\n      caller\n        /* \"Core/XSwapERC20.sol\":1812:1814  to */\n      dup5\n        /* \"Core/XSwapERC20.sol\":1816:1821  value */\n      dup5\n        /* \"Core/XSwapERC20.sol\":1790:1799  _transfer */\n      tag_194\n        /* \"Core/XSwapERC20.sol\":1790:1822  _transfer(msg.sender, to, value) */\n      jump\t// in\n    tag_278:\n        /* \"Core/XSwapERC20.sol\":1839:1843  true */\n      0x01\n        /* \"Core/XSwapERC20.sol\":1832:1843  return true */\n      swap1\n      pop\n        /* \"Core/XSwapERC20.sol\":1711:1850  function transfer(address to, uint256 value) external returns (bool) {... */\n      swap3\n      swap2\n      pop\n      pop\n      jump\t// out\n        /* \"Core/XSwapPair.sol\":333:382  uint256 public constant MINIMUM_LIQUIDITY = 10**3 */\n    tag_104:\n        /* \"Core/XSwapPair.sol\":377:382  10**3 */\n      0x03e8\n        /* \"Core/XSwapPair.sol\":333:382  uint256 public constant MINIMUM_LIQUIDITY = 10**3 */\n      dup2\n      jump\t// out\n        /* \"Core/XSwapPair.sol\":9761:10182  function skim(address to) external lock {... */\n    tag_108:\n        /* \"Core/XSwapPair.sol\":1111:1112  1 */\n      0x01\n        /* \"Core/XSwapPair.sol\":1099:1107  unlocked */\n      sload(0x0b)\n        /* \"Core/XSwapPair.sol\":1099:1112  unlocked == 1 */\n      eq\n        /* \"Core/XSwapPair.sol\":1091:1123  require(unlocked == 1, \"LOCKED\") */\n      tag_280\n      jumpi\n      mload(0x40)\n      0x08c379a000000000000000000000000000000000000000000000000000000000\n      dup2\n      mstore\n      0x04\n      add\n      tag_281\n      swap1\n      tag_124\n      jump\t// in\n    tag_281:\n      mload(0x40)\n      dup1\n      swap2\n      sub\n      swap1\n      revert\n    tag_280:\n        /* \"Core/XSwapPair.sol\":1144:1145  0 */\n      0x00\n        /* \"Core/XSwapPair.sol\":1133:1141  unlocked */\n      0x0b\n        /* \"Core/XSwapPair.sol\":1133:1145  unlocked = 0 */\n      dup2\n      swap1\n      sstore\n      pop\n        /* \"Core/XSwapPair.sol\":9811:9826  address _token0 */\n      0x00\n        /* \"Core/XSwapPair.sol\":9829:9835  token0 */\n      0x05\n      0x00\n      swap1\n      sload\n      swap1\n      0x0100\n      exp\n      swap1\n      div\n      0xffffffffffffffffffffffffffffffffffffffff\n      and\n        /* \"Core/XSwapPair.sol\":9811:9835  address _token0 = token0 */\n      swap1\n      pop\n        /* \"Core/XSwapPair.sol\":9860:9875  address _token1 */\n      0x00\n        /* \"Core/XSwapPair.sol\":9878:9884  token1 */\n      0x06\n      0x00\n      swap1\n      sload\n      swap1\n      0x0100\n      exp\n      swap1\n      div\n      0xffffffffffffffffffffffffffffffffffffffff\n      and\n        /* \"Core/XSwapPair.sol\":9860:9884  address _token1 = token1 */\n      swap1\n      pop\n        /* \"Core/XSwapPair.sol\":9909:10037  _safeTransfer(... */\n      tag_283\n        /* \"Core/XSwapPair.sol\":9936:9943  _token0 */\n      dup3\n        /* \"Core/XSwapPair.sol\":9957:9959  to */\n      dup5\n        /* \"Core/XSwapPair.sol\":9973:10027  IERC20(_token0).balanceOf(address(this)).sub(reserve0) */\n      tag_284\n        /* \"Core/XSwapPair.sol\":10018:10026  reserve0 */\n      0x07\n      0x00\n      swap1\n      sload\n      swap1\n      0x0100\n      exp\n      swap1\n      div\n      0xffffffffffffffffffffffffffff\n      and\n        /* \"Core/XSwapPair.sol\":9973:10027  IERC20(_token0).balanceOf(address(this)).sub(reserve0) */\n      0xffffffffffffffffffffffffffff\n      and\n        /* \"Core/XSwapPair.sol\":9980:9987  _token0 */\n      dup7\n        /* \"Core/XSwapPair.sol\":9973:9998  IERC20(_token0).balanceOf */\n      0xffffffffffffffffffffffffffffffffffffffff\n      and\n      0x70a08231\n        /* \"Core/XSwapPair.sol\":10007:10011  this */\n      address\n        /* \"Core/XSwapPair.sol\":9973:10013  IERC20(_token0).balanceOf(address(this)) */\n      mload(0x40)\n      dup3\n      0xffffffff\n      and\n      0xe0\n      shl\n      dup2\n      mstore\n      0x04\n      add\n      tag_285\n      swap2\n      swap1\n      tag_51\n      jump\t// in\n    tag_285:\n      0x20\n      mload(0x40)\n      dup1\n      dup4\n      sub\n      dup2\n      dup7\n      gas\n      staticcall\n      iszero\n      dup1\n      iszero\n      tag_287\n      jumpi\n      returndatasize\n      0x00\n      dup1\n      returndatacopy\n      revert(0x00, returndatasize)\n    tag_287:\n      pop\n      pop\n      pop\n      pop\n      mload(0x40)\n      returndatasize\n      not(0x1f)\n      0x1f\n      dup3\n      add\n      and\n      dup3\n      add\n      dup1\n      0x40\n      mstore\n      pop\n      dup2\n      add\n      swap1\n      tag_288\n      swap2\n      swap1\n      tag_148\n      jump\t// in\n    tag_288:\n        /* \"Core/XSwapPair.sol\":9973:10017  IERC20(_token0).balanceOf(address(this)).sub */\n      tag_172\n      swap1\n        /* \"Core/XSwapPair.sol\":9973:10027  IERC20(_token0).balanceOf(address(this)).sub(reserve0) */\n      swap2\n      swap1\n      0xffffffff\n      and\n      jump\t// in\n    tag_284:\n        /* \"Core/XSwapPair.sol\":9909:9922  _safeTransfer */\n      tag_141\n        /* \"Core/XSwapPair.sol\":9909:10037  _safeTransfer(... */\n      jump\t// in\n    tag_283:\n        /* \"Core/XSwapPair.sol\":10047:10175  _safeTransfer(... */\n      tag_289\n        /* \"Core/XSwapPair.sol\":10074:10081  _token1 */\n      dup2\n        /* \"Core/XSwapPair.sol\":10095:10097  to */\n      dup5\n        /* \"Core/XSwapPair.sol\":10111:10165  IERC20(_token1).balanceOf(address(this)).sub(reserve1) */\n      tag_290\n        /* \"Core/XSwapPair.sol\":10156:10164  reserve1 */\n      0x07\n      0x0e\n      swap1\n      sload\n      swap1\n      0x0100\n      exp\n      swap1\n      div\n      0xffffffffffffffffffffffffffff\n      and\n        /* \"Core/XSwapPair.sol\":10111:10165  IERC20(_token1).balanceOf(address(this)).sub(reserve1) */\n      0xffffffffffffffffffffffffffff\n      and\n        /* \"Core/XSwapPair.sol\":10118:10125  _token1 */\n      dup6\n        /* \"Core/XSwapPair.sol\":10111:10136  IERC20(_token1).balanceOf */\n      0xffffffffffffffffffffffffffffffffffffffff\n      and\n      0x70a08231\n        /* \"Core/XSwapPair.sol\":10145:10149  this */\n      address\n        /* \"Core/XSwapPair.sol\":10111:10151  IERC20(_token1).balanceOf(address(this)) */\n      mload(0x40)\n      dup3\n      0xffffffff\n      and\n      0xe0\n      shl\n      dup2\n      mstore\n      0x04\n      add\n      tag_291\n      swap2\n      swap1\n      tag_51\n      jump\t// in\n    tag_291:\n      0x20\n      mload(0x40)\n      dup1\n      dup4\n      sub\n      dup2\n      dup7\n      gas\n      staticcall\n      iszero\n      dup1\n      iszero\n      tag_293\n      jumpi\n      returndatasize\n      0x00\n      dup1\n      returndatacopy\n      revert(0x00, returndatasize)\n    tag_293:\n      pop\n      pop\n      pop\n      pop\n      mload(0x40)\n      returndatasize\n      not(0x1f)\n      0x1f\n      dup3\n      add\n      and\n      dup3\n      add\n      dup1\n      0x40\n      mstore\n      pop\n      dup2\n      add\n      swap1\n      tag_294\n      swap2\n      swap1\n      tag_148\n      jump\t// in\n    tag_294:\n        /* \"Core/XSwapPair.sol\":10111:10155  IERC20(_token1).balanceOf(address(this)).sub */\n      tag_172\n      swap1\n        /* \"Core/XSwapPair.sol\":10111:10165  IERC20(_token1).balanceOf(address(this)).sub(reserve1) */\n      swap2\n      swap1\n      0xffffffff\n      and\n      jump\t// in\n    tag_290:\n        /* \"Core/XSwapPair.sol\":10047:10060  _safeTransfer */\n      tag_141\n        /* \"Core/XSwapPair.sol\":10047:10175  _safeTransfer(... */\n      jump\t// in\n    tag_289:\n        /* \"Core/XSwapPair.sol\":9801:10182  {... */\n      pop\n      pop\n        /* \"Core/XSwapPair.sol\":1177:1178  1 */\n      0x01\n        /* \"Core/XSwapPair.sol\":1166:1174  unlocked */\n      0x0b\n        /* \"Core/XSwapPair.sol\":1166:1178  unlocked = 1 */\n      dup2\n      swap1\n      sstore\n      pop\n        /* \"Core/XSwapPair.sol\":9761:10182  function skim(address to) external lock {... */\n      pop\n      jump\t// out\n        /* \"Core/XSwapPair.sol\":491:513  address public factory */\n    tag_110:\n      0x04\n      0x00\n      swap1\n      sload\n      swap1\n      0x0100\n      exp\n      swap1\n      div\n      0xffffffffffffffffffffffffffffffffffffffff\n      and\n      dup2\n      jump\t// out\n        /* \"Core/XSwapPair.sol\":546:567  address public token1 */\n    tag_113:\n      0x06\n      0x00\n      swap1\n      sload\n      swap1\n      0x0100\n      exp\n      swap1\n      div\n      0xffffffffffffffffffffffffffffffffffffffff\n      and\n      dup2\n      jump\t// out\n        /* \"Core/XSwapERC20.sol\":368:432  mapping(address => mapping(address => uint256)) public allowance */\n    tag_117:\n      mstore(0x20, 0x02)\n      dup2\n      0x00\n      mstore\n      mstore(0x20, keccak256(0x00, 0x40))\n      dup1\n      0x00\n      mstore\n      keccak256(0x00, 0x40)\n      0x00\n      swap2\n      pop\n      swap2\n      pop\n      pop\n      sload\n      dup2\n      jump\t// out\n        /* \"Core/XSwapPair.sol\":10232:10446  function sync() external lock {... */\n    tag_120:\n        /* \"Core/XSwapPair.sol\":1111:1112  1 */\n      0x01\n        /* \"Core/XSwapPair.sol\":1099:1107  unlocked */\n      sload(0x0b)\n        /* \"Core/XSwapPair.sol\":1099:1112  unlocked == 1 */\n      eq\n        /* \"Core/XSwapPair.sol\":1091:1123  require(unlocked == 1, \"LOCKED\") */\n      tag_296\n      jumpi\n      mload(0x40)\n      0x08c379a000000000000000000000000000000000000000000000000000000000\n      dup2\n      mstore\n      0x04\n      add\n      tag_297\n      swap1\n      tag_124\n      jump\t// in\n    tag_297:\n      mload(0x40)\n      dup1\n      swap2\n      sub\n      swap1\n      revert\n    tag_296:\n        /* \"Core/XSwapPair.sol\":1144:1145  0 */\n      0x00\n        /* \"Core/XSwapPair.sol\":1133:1141  unlocked */\n      0x0b\n        /* \"Core/XSwapPair.sol\":1133:1145  unlocked = 0 */\n      dup2\n      swap1\n      sstore\n      pop\n        /* \"Core/XSwapPair.sol\":10272:10439  _update(... */\n      tag_299\n        /* \"Core/XSwapPair.sol\":10300:10306  token0 */\n      0x05\n      0x00\n      swap1\n      sload\n      swap1\n      0x0100\n      exp\n      swap1\n      div\n      0xffffffffffffffffffffffffffffffffffffffff\n      and\n        /* \"Core/XSwapPair.sol\":10293:10317  IERC20(token0).balanceOf */\n      0xffffffffffffffffffffffffffffffffffffffff\n      and\n      0x70a08231\n        /* \"Core/XSwapPair.sol\":10326:10330  this */\n      address\n        /* \"Core/XSwapPair.sol\":10293:10332  IERC20(token0).balanceOf(address(this)) */\n      mload(0x40)\n      dup3\n      0xffffffff\n      and\n      0xe0\n      shl\n      dup2\n      mstore\n      0x04\n      add\n      tag_300\n      swap2\n      swap1\n      tag_51\n      jump\t// in\n    tag_300:\n      0x20\n      mload(0x40)\n      dup1\n      dup4\n      sub\n      dup2\n      dup7\n      gas\n      staticcall\n      iszero\n      dup1\n      iszero\n      tag_302\n      jumpi\n      returndatasize\n      0x00\n      dup1\n      returndatacopy\n      revert(0x00, returndatasize)\n    tag_302:\n      pop\n      pop\n      pop\n      pop\n      mload(0x40)\n      returndatasize\n      not(0x1f)\n      0x1f\n      dup3\n      add\n      and\n      dup3\n      add\n      dup1\n      0x40\n      mstore\n      pop\n      dup2\n      add\n      swap1\n      tag_303\n      swap2\n      swap1\n      tag_148\n      jump\t// in\n    tag_303:\n        /* \"Core/XSwapPair.sol\":10353:10359  token1 */\n      0x06\n      0x00\n      swap1\n      sload\n      swap1\n      0x0100\n      exp\n      swap1\n      div\n      0xffffffffffffffffffffffffffffffffffffffff\n      and\n        /* \"Core/XSwapPair.sol\":10346:10370  IERC20(token1).balanceOf */\n      0xffffffffffffffffffffffffffffffffffffffff\n      and\n      0x70a08231\n        /* \"Core/XSwapPair.sol\":10379:10383  this */\n      address\n        /* \"Core/XSwapPair.sol\":10346:10385  IERC20(token1).balanceOf(address(this)) */\n      mload(0x40)\n      dup3\n      0xffffffff\n      and\n      0xe0\n      shl\n      dup2\n      mstore\n      0x04\n      add\n      tag_304\n      swap2\n      swap1\n      tag_51\n      jump\t// in\n    tag_304:\n      0x20\n      mload(0x40)\n      dup1\n      dup4\n      sub\n      dup2\n      dup7\n      gas\n      staticcall\n      iszero\n      dup1\n      iszero\n      tag_306\n      jumpi\n      returndatasize\n      0x00\n      dup1\n      returndatacopy\n      revert(0x00, returndatasize)\n    tag_306:\n      pop\n      pop\n      pop\n      pop\n      mload(0x40)\n      returndatasize\n      not(0x1f)\n      0x1f\n      dup3\n      add\n      and\n      dup3\n      add\n      dup1\n      0x40\n      mstore\n      pop\n      dup2\n      add\n      swap1\n      tag_307\n      swap2\n      swap1\n      tag_148\n      jump\t// in\n    tag_307:\n        /* \"Core/XSwapPair.sol\":10399:10407  reserve0 */\n      0x07\n      0x00\n      swap1\n      sload\n      swap1\n      0x0100\n      exp\n      swap1\n      div\n      0xffffffffffffffffffffffffffff\n      and\n        /* \"Core/XSwapPair.sol\":10421:10429  reserve1 */\n      0x07\n      0x0e\n      swap1\n      sload\n      swap1\n      0x0100\n      exp\n      swap1\n      div\n      0xffffffffffffffffffffffffffff\n      and\n        /* \"Core/XSwapPair.sol\":10272:10279  _update */\n      tag_183\n        /* \"Core/XSwapPair.sol\":10272:10439  _update(... */\n      jump\t// in\n    tag_299:\n        /* \"Core/XSwapPair.sol\":1177:1178  1 */\n      0x01\n        /* \"Core/XSwapPair.sol\":1166:1174  unlocked */\n      0x0b\n        /* \"Core/XSwapPair.sol\":1166:1178  unlocked = 1 */\n      dup2\n      swap1\n      sstore\n      pop\n        /* \"Core/XSwapPair.sol\":10232:10446  function sync() external lock {... */\n      jump\t// out\n        /* \"Core/XSwapPair.sol\":1498:1860  function _safeTransfer(... */\n    tag_141:\n        /* \"Core/XSwapPair.sol\":1612:1624  bool success */\n      0x00\n        /* \"Core/XSwapPair.sol\":1626:1643  bytes memory data */\n      dup1\n        /* \"Core/XSwapPair.sol\":1647:1652  token */\n      dup5\n        /* \"Core/XSwapPair.sol\":1647:1657  token.call */\n      0xffffffffffffffffffffffffffffffffffffffff\n      and\n        /* \"Core/XSwapPair.sol\":448:482  bytes(\"transfer(address,uint256)\") */\n      mload(0x40)\n      dup1\n      0x40\n      add\n      0x40\n      mstore\n      dup1\n      0x19\n      dup2\n      mstore\n      0x20\n      add\n      0x7472616e7366657228616464726573732c75696e743235362900000000000000\n      dup2\n      mstore\n      pop\n        /* \"Core/XSwapPair.sol\":438:483  keccak256(bytes(\"transfer(address,uint256)\")) */\n      dup1\n      mload\n      swap1\n      0x20\n      add\n      keccak256\n        /* \"Core/XSwapPair.sol\":1704:1706  to */\n      dup6\n        /* \"Core/XSwapPair.sol\":1708:1713  value */\n      dup6\n        /* \"Core/XSwapPair.sol\":1671:1714  abi.encodeWithSelector(SELECTOR, to, value) */\n      add(0x24, mload(0x40))\n      tag_309\n      swap3\n      swap2\n      swap1\n      tag_310\n      jump\t// in\n    tag_309:\n      mload(0x40)\n      0x20\n      dup2\n      dup4\n      sub\n      sub\n      dup2\n      mstore\n      swap1\n      0x40\n      mstore\n      swap1\n      not(0xffffffffffffffffffffffffffffffffffffffffffffffffffffffff)\n      and\n      0x20\n      dup3\n      add\n      dup1\n      mload\n      0xffffffffffffffffffffffffffffffffffffffffffffffffffffffff\n      dup4\n      dup2\n      dup4\n      and\n      or\n      dup4\n      mstore\n      pop\n      pop\n      pop\n      pop\n        /* \"Core/XSwapPair.sol\":1647:1724  token.call(... */\n      mload(0x40)\n      tag_311\n      swap2\n      swap1\n      tag_312\n      jump\t// in\n    tag_311:\n      0x00\n      mload(0x40)\n      dup1\n      dup4\n      sub\n      dup2\n      0x00\n      dup7\n      gas\n      call\n      swap2\n      pop\n      pop\n      returndatasize\n      dup1\n      0x00\n      dup2\n      eq\n      tag_315\n      jumpi\n      mload(0x40)\n      swap2\n      pop\n      and(add(returndatasize, 0x3f), not(0x1f))\n      dup3\n      add\n      0x40\n      mstore\n      returndatasize\n      dup3\n      mstore\n      returndatasize\n      0x00\n      0x20\n      dup5\n      add\n      returndatacopy\n      jump(tag_314)\n    tag_315:\n      0x60\n      swap2\n      pop\n    tag_314:\n      pop\n        /* \"Core/XSwapPair.sol\":1611:1724  (bool success, bytes memory data) = token.call(... */\n      swap2\n      pop\n      swap2\n      pop\n        /* \"Core/XSwapPair.sol\":1755:1762  success */\n      dup2\n        /* \"Core/XSwapPair.sol\":1755:1812  success && (data.length == 0 || abi.decode(data, (bool))) */\n      dup1\n      iszero\n      tag_316\n      jumpi\n      pop\n        /* \"Core/XSwapPair.sol\":1782:1783  0 */\n      0x00\n        /* \"Core/XSwapPair.sol\":1767:1771  data */\n      dup2\n        /* \"Core/XSwapPair.sol\":1767:1778  data.length */\n      mload\n        /* \"Core/XSwapPair.sol\":1767:1783  data.length == 0 */\n      eq\n        /* \"Core/XSwapPair.sol\":1767:1811  data.length == 0 || abi.decode(data, (bool)) */\n      dup1\n      tag_317\n      jumpi\n      pop\n        /* \"Core/XSwapPair.sol\":1798:1802  data */\n      dup1\n        /* \"Core/XSwapPair.sol\":1787:1811  abi.decode(data, (bool)) */\n      dup1\n      0x20\n      add\n      swap1\n      mload\n      dup2\n      add\n      swap1\n      tag_318\n      swap2\n      swap1\n      tag_319\n      jump\t// in\n    tag_318:\n        /* \"Core/XSwapPair.sol\":1767:1811  data.length == 0 || abi.decode(data, (bool)) */\n    tag_317:\n        /* \"Core/XSwapPair.sol\":1755:1812  success && (data.length == 0 || abi.decode(data, (bool))) */\n    tag_316:\n        /* \"Core/XSwapPair.sol\":1734:1853  require(... */\n      tag_320\n      jumpi\n      mload(0x40)\n      0x08c379a000000000000000000000000000000000000000000000000000000000\n      dup2\n      mstore\n      0x04\n      add\n      tag_321\n      swap1\n      tag_322\n      jump\t// in\n    tag_321:\n      mload(0x40)\n      dup1\n      swap2\n      sub\n      swap1\n      revert\n    tag_320:\n        /* \"Core/XSwapPair.sol\":1601:1860  {... */\n      pop\n      pop\n        /* \"Core/XSwapPair.sol\":1498:1860  function _safeTransfer(... */\n      pop\n      pop\n      pop\n      jump\t// out\n        /* \"Core/libraries/SafeMath.sol\":470:619  function mul(uint256 x, uint256 y) internal pure returns (uint256 z) {... */\n    tag_170:\n        /* \"Core/libraries/SafeMath.sol\":528:537  uint256 z */\n      0x00\n        /* \"Core/libraries/SafeMath.sol\":562:563  0 */\n      dup1\n        /* \"Core/libraries/SafeMath.sol\":557:558  y */\n      dup3\n        /* \"Core/libraries/SafeMath.sol\":557:563  y == 0 */\n      eq\n        /* \"Core/libraries/SafeMath.sol\":557:587  y == 0 || (z = x * y) / y == x */\n      dup1\n      tag_324\n      jumpi\n      pop\n        /* \"Core/libraries/SafeMath.sol\":586:587  x */\n      dup3\n        /* \"Core/libraries/SafeMath.sol\":581:582  y */\n      dup3\n        /* \"Core/libraries/SafeMath.sol\":576:577  y */\n      dup4\n        /* \"Core/libraries/SafeMath.sol\":572:573  x */\n      dup6\n        /* \"Core/libraries/SafeMath.sol\":572:577  x * y */\n      tag_325\n      swap2\n      swap1\n      tag_326\n      jump\t// in\n    tag_325:\n        /* \"Core/libraries/SafeMath.sol\":568:577  z = x * y */\n      swap3\n      pop\n      dup3\n        /* \"Core/libraries/SafeMath.sol\":567:582  (z = x * y) / y */\n      tag_327\n      swap2\n      swap1\n      tag_227\n      jump\t// in\n    tag_327:\n        /* \"Core/libraries/SafeMath.sol\":567:587  (z = x * y) / y == x */\n      eq\n        /* \"Core/libraries/SafeMath.sol\":557:587  y == 0 || (z = x * y) / y == x */\n    tag_324:\n        /* \"Core/libraries/SafeMath.sol\":549:612  require(y == 0 || (z = x * y) / y == x, \"ds-math-mul-overflow\") */\n      tag_328\n      jumpi\n      mload(0x40)\n      0x08c379a000000000000000000000000000000000000000000000000000000000\n      dup2\n      mstore\n      0x04\n      add\n      tag_329\n      swap1\n      tag_330\n      jump\t// in\n    tag_329:\n      mload(0x40)\n      dup1\n      swap2\n      sub\n      swap1\n      revert\n    tag_328:\n        /* \"Core/libraries/SafeMath.sol\":470:619  function mul(uint256 x, uint256 y) internal pure returns (uint256 z) {... */\n      swap3\n      swap2\n      pop\n      pop\n      jump\t// out\n        /* \"Core/libraries/SafeMath.sol\":328:464  function sub(uint256 x, uint256 y) internal pure returns (uint256 z) {... */\n    tag_172:\n        /* \"Core/libraries/SafeMath.sol\":386:395  uint256 z */\n      0x00\n        /* \"Core/libraries/SafeMath.sol\":430:431  x */\n      dup3\n        /* \"Core/libraries/SafeMath.sol\":424:425  y */\n      dup3\n        /* \"Core/libraries/SafeMath.sol\":420:421  x */\n      dup5\n        /* \"Core/libraries/SafeMath.sol\":420:425  x - y */\n      tag_332\n      swap2\n      swap1\n      tag_154\n      jump\t// in\n    tag_332:\n        /* \"Core/libraries/SafeMath.sol\":416:425  z = x - y */\n      swap2\n      pop\n      dup2\n        /* \"Core/libraries/SafeMath.sol\":415:431  (z = x - y) <= x */\n      gt\n      iszero\n        /* \"Core/libraries/SafeMath.sol\":407:457  require((z = x - y) <= x, \"ds-math-sub-underflow\") */\n      tag_333\n      jumpi\n      mload(0x40)\n      0x08c379a000000000000000000000000000000000000000000000000000000000\n      dup2\n      mstore\n      0x04\n      add\n      tag_334\n      swap1\n      tag_335\n      jump\t// in\n    tag_334:\n      mload(0x40)\n      dup1\n      swap2\n      sub\n      swap1\n      revert\n    tag_333:\n        /* \"Core/libraries/SafeMath.sol\":328:464  function sub(uint256 x, uint256 y) internal pure returns (uint256 z) {... */\n      swap3\n      swap2\n      pop\n      pop\n      jump\t// out\n        /* \"Core/XSwapPair.sol\":2719:3705  function _update(... */\n    tag_183:\n        /* \"Core/XSwapPair.sol\":2900:2910  2**112 - 1 */\n      0xffffffffffffffffffffffffffff\n        /* \"Core/XSwapPair.sol\":2887:2895  balance0 */\n      dup5\n        /* \"Core/XSwapPair.sol\":2887:2911  balance0 <= (2**112 - 1) */\n      gt\n      iszero\n        /* \"Core/XSwapPair.sol\":2887:2939  balance0 <= (2**112 - 1) && balance1 <= (2**112 - 1) */\n      dup1\n      iszero\n      tag_337\n      jumpi\n      pop\n        /* \"Core/XSwapPair.sol\":2928:2938  2**112 - 1 */\n      0xffffffffffffffffffffffffffff\n        /* \"Core/XSwapPair.sol\":2915:2923  balance1 */\n      dup4\n        /* \"Core/XSwapPair.sol\":2915:2939  balance1 <= (2**112 - 1) */\n      gt\n      iszero\n        /* \"Core/XSwapPair.sol\":2887:2939  balance0 <= (2**112 - 1) && balance1 <= (2**112 - 1) */\n    tag_337:\n        /* \"Core/XSwapPair.sol\":2866:2973  require(... */\n      tag_338\n      jumpi\n      mload(0x40)\n      0x08c379a000000000000000000000000000000000000000000000000000000000\n      dup2\n      mstore\n      0x04\n      add\n      tag_339\n      swap1\n      tag_340\n      jump\t// in\n    tag_339:\n      mload(0x40)\n      dup1\n      swap2\n      sub\n      swap1\n      revert\n    tag_338:\n        /* \"Core/XSwapPair.sol\":2983:3004  uint32 blockTimestamp */\n      0x00\n        /* \"Core/XSwapPair.sol\":3032:3037  2**32 */\n      0x0100000000\n        /* \"Core/XSwapPair.sol\":3014:3029  block.timestamp */\n      timestamp\n        /* \"Core/XSwapPair.sol\":3014:3037  block.timestamp % 2**32 */\n      tag_341\n      swap2\n      swap1\n      tag_342\n      jump\t// in\n    tag_341:\n        /* \"Core/XSwapPair.sol\":2983:3038  uint32 blockTimestamp = uint32(block.timestamp % 2**32) */\n      swap1\n      pop\n        /* \"Core/XSwapPair.sol\":3048:3066  uint32 timeElapsed */\n      0x00\n        /* \"Core/XSwapPair.sol\":3086:3104  blockTimestampLast */\n      0x07\n      0x1c\n      swap1\n      sload\n      swap1\n      0x0100\n      exp\n      swap1\n      div\n      0xffffffff\n      and\n        /* \"Core/XSwapPair.sol\":3069:3083  blockTimestamp */\n      dup3\n        /* \"Core/XSwapPair.sol\":3069:3104  blockTimestamp - blockTimestampLast */\n      tag_343\n      swap2\n      swap1\n      tag_344\n      jump\t// in\n    tag_343:\n        /* \"Core/XSwapPair.sol\":3048:3104  uint32 timeElapsed = blockTimestamp - blockTimestampLast */\n      swap1\n      pop\n        /* \"Core/XSwapPair.sol\":3155:3156  0 */\n      0x00\n        /* \"Core/XSwapPair.sol\":3141:3152  timeElapsed */\n      dup2\n        /* \"Core/XSwapPair.sol\":3141:3156  timeElapsed > 0 */\n      0xffffffff\n      and\n      gt\n        /* \"Core/XSwapPair.sol\":3141:3174  timeElapsed > 0 && _reserve0 != 0 */\n      dup1\n      iszero\n      tag_345\n      jumpi\n      pop\n        /* \"Core/XSwapPair.sol\":3173:3174  0 */\n      0x00\n        /* \"Core/XSwapPair.sol\":3160:3169  _reserve0 */\n      dup5\n        /* \"Core/XSwapPair.sol\":3160:3174  _reserve0 != 0 */\n      0xffffffffffffffffffffffffffff\n      and\n      eq\n      iszero\n        /* \"Core/XSwapPair.sol\":3141:3174  timeElapsed > 0 && _reserve0 != 0 */\n    tag_345:\n        /* \"Core/XSwapPair.sol\":3141:3192  timeElapsed > 0 && _reserve0 != 0 && _reserve1 != 0 */\n      dup1\n      iszero\n      tag_346\n      jumpi\n      pop\n        /* \"Core/XSwapPair.sol\":3191:3192  0 */\n      0x00\n        /* \"Core/XSwapPair.sol\":3178:3187  _reserve1 */\n      dup4\n        /* \"Core/XSwapPair.sol\":3178:3192  _reserve1 != 0 */\n      0xffffffffffffffffffffffffffff\n      and\n      eq\n      iszero\n        /* \"Core/XSwapPair.sol\":3141:3192  timeElapsed > 0 && _reserve0 != 0 && _reserve1 != 0 */\n    tag_346:\n        /* \"Core/XSwapPair.sol\":3137:3539  if (timeElapsed > 0 && _reserve0 != 0 && _reserve1 != 0) {... */\n      iszero\n      tag_347\n      jumpi\n        /* \"Core/XSwapPair.sol\":3380:3391  timeElapsed */\n      dup1\n        /* \"Core/XSwapPair.sol\":3308:3391  uint256(UQ112x112.encode(_reserve1).uqdiv(_reserve0)) *... */\n      0xffffffff\n      and\n        /* \"Core/XSwapPair.sol\":3316:3360  UQ112x112.encode(_reserve1).uqdiv(_reserve0) */\n      tag_348\n        /* \"Core/XSwapPair.sol\":3350:3359  _reserve0 */\n      dup6\n        /* \"Core/XSwapPair.sol\":3316:3343  UQ112x112.encode(_reserve1) */\n      tag_349\n        /* \"Core/XSwapPair.sol\":3333:3342  _reserve1 */\n      dup7\n        /* \"Core/XSwapPair.sol\":3316:3332  UQ112x112.encode */\n      tag_350\n        /* \"Core/XSwapPair.sol\":3316:3343  UQ112x112.encode(_reserve1) */\n      jump\t// in\n    tag_349:\n        /* \"Core/XSwapPair.sol\":3316:3349  UQ112x112.encode(_reserve1).uqdiv */\n      0xffffffffffffffffffffffffffffffffffffffffffffffffffffffff\n      and\n      tag_351\n      swap1\n        /* \"Core/XSwapPair.sol\":3316:3360  UQ112x112.encode(_reserve1).uqdiv(_reserve0) */\n      swap2\n      swap1\n      0xffffffff\n      and\n      jump\t// in\n    tag_348:\n        /* \"Core/XSwapPair.sol\":3308:3361  uint256(UQ112x112.encode(_reserve1).uqdiv(_reserve0)) */\n      0xffffffffffffffffffffffffffffffffffffffffffffffffffffffff\n      and\n        /* \"Core/XSwapPair.sol\":3308:3391  uint256(UQ112x112.encode(_reserve1).uqdiv(_reserve0)) *... */\n      tag_352\n      swap2\n      swap1\n      tag_326\n      jump\t// in\n    tag_352:\n        /* \"Core/XSwapPair.sol\":3268:3288  price0CumulativeLast */\n      0x08\n      0x00\n        /* \"Core/XSwapPair.sol\":3268:3391  price0CumulativeLast +=... */\n      dup3\n      dup3\n      sload\n      tag_353\n      swap2\n      swap1\n      tag_354\n      jump\t// in\n    tag_353:\n      swap3\n      pop\n      pop\n      dup2\n      swap1\n      sstore\n      pop\n        /* \"Core/XSwapPair.sol\":3517:3528  timeElapsed */\n      dup1\n        /* \"Core/XSwapPair.sol\":3445:3528  uint256(UQ112x112.encode(_reserve0).uqdiv(_reserve1)) *... */\n      0xffffffff\n      and\n        /* \"Core/XSwapPair.sol\":3453:3497  UQ112x112.encode(_reserve0).uqdiv(_reserve1) */\n      tag_355\n        /* \"Core/XSwapPair.sol\":3487:3496  _reserve1 */\n      dup5\n        /* \"Core/XSwapPair.sol\":3453:3480  UQ112x112.encode(_reserve0) */\n      tag_356\n        /* \"Core/XSwapPair.sol\":3470:3479  _reserve0 */\n      dup8\n        /* \"Core/XSwapPair.sol\":3453:3469  UQ112x112.encode */\n      tag_350\n        /* \"Core/XSwapPair.sol\":3453:3480  UQ112x112.encode(_reserve0) */\n      jump\t// in\n    tag_356:\n        /* \"Core/XSwapPair.sol\":3453:3486  UQ112x112.encode(_reserve0).uqdiv */\n      0xffffffffffffffffffffffffffffffffffffffffffffffffffffffff\n      and\n      tag_351\n      swap1\n        /* \"Core/XSwapPair.sol\":3453:3497  UQ112x112.encode(_reserve0).uqdiv(_reserve1) */\n      swap2\n      swap1\n      0xffffffff\n      and\n      jump\t// in\n    tag_355:\n        /* \"Core/XSwapPair.sol\":3445:3498  uint256(UQ112x112.encode(_reserve0).uqdiv(_reserve1)) */\n      0xffffffffffffffffffffffffffffffffffffffffffffffffffffffff\n      and\n        /* \"Core/XSwapPair.sol\":3445:3528  uint256(UQ112x112.encode(_reserve0).uqdiv(_reserve1)) *... */\n      tag_357\n      swap2\n      swap1\n      tag_326\n      jump\t// in\n    tag_357:\n        /* \"Core/XSwapPair.sol\":3405:3425  price1CumulativeLast */\n      0x09\n      0x00\n        /* \"Core/XSwapPair.sol\":3405:3528  price1CumulativeLast +=... */\n      dup3\n      dup3\n      sload\n      tag_358\n      swap2\n      swap1\n      tag_354\n      jump\t// in\n    tag_358:\n      swap3\n      pop\n      pop\n      dup2\n      swap1\n      sstore\n      pop\n        /* \"Core/XSwapPair.sol\":3137:3539  if (timeElapsed > 0 && _reserve0 != 0 && _reserve1 != 0) {... */\n    tag_347:\n        /* \"Core/XSwapPair.sol\":3567:3575  balance0 */\n      dup6\n        /* \"Core/XSwapPair.sol\":3548:3556  reserve0 */\n      0x07\n      0x00\n        /* \"Core/XSwapPair.sol\":3548:3576  reserve0 = uint112(balance0) */\n      0x0100\n      exp\n      dup2\n      sload\n      dup2\n      0xffffffffffffffffffffffffffff\n      mul\n      not\n      and\n      swap1\n      dup4\n      0xffffffffffffffffffffffffffff\n      and\n      mul\n      or\n      swap1\n      sstore\n      pop\n        /* \"Core/XSwapPair.sol\":3605:3613  balance1 */\n      dup5\n        /* \"Core/XSwapPair.sol\":3586:3594  reserve1 */\n      0x07\n      0x0e\n        /* \"Core/XSwapPair.sol\":3586:3614  reserve1 = uint112(balance1) */\n      0x0100\n      exp\n      dup2\n      sload\n      dup2\n      0xffffffffffffffffffffffffffff\n      mul\n      not\n      and\n      swap1\n      dup4\n      0xffffffffffffffffffffffffffff\n      and\n      mul\n      or\n      swap1\n      sstore\n      pop\n        /* \"Core/XSwapPair.sol\":3645:3659  blockTimestamp */\n      dup2\n        /* \"Core/XSwapPair.sol\":3624:3642  blockTimestampLast */\n      0x07\n      0x1c\n        /* \"Core/XSwapPair.sol\":3624:3659  blockTimestampLast = blockTimestamp */\n      0x0100\n      exp\n      dup2\n      sload\n      dup2\n      0xffffffff\n      mul\n      not\n      and\n      swap1\n      dup4\n      0xffffffff\n      and\n      mul\n      or\n      swap1\n      sstore\n      pop\n        /* \"Core/XSwapPair.sol\":3674:3698  Sync(reserve0, reserve1) */\n      0x1c411e9a96e071241c2f21f7726b17ae89e3cab4c78be50e062b03a9fffbbad1\n        /* \"Core/XSwapPair.sol\":3679:3687  reserve0 */\n      0x07\n      0x00\n      swap1\n      sload\n      swap1\n      0x0100\n      exp\n      swap1\n      div\n      0xffffffffffffffffffffffffffff\n      and\n        /* \"Core/XSwapPair.sol\":3689:3697  reserve1 */\n      0x07\n      0x0e\n      swap1\n      sload\n      swap1\n      0x0100\n      exp\n      swap1\n      div\n      0xffffffffffffffffffffffffffff\n      and\n        /* \"Core/XSwapPair.sol\":3674:3698  Sync(reserve0, reserve1) */\n      mload(0x40)\n      tag_359\n      swap3\n      swap2\n      swap1\n      tag_360\n      jump\t// in\n    tag_359:\n      mload(0x40)\n      dup1\n      swap2\n      sub\n      swap1\n      log1\n        /* \"Core/XSwapPair.sol\":2856:3705  {... */\n      pop\n      pop\n        /* \"Core/XSwapPair.sol\":2719:3705  function _update(... */\n      pop\n      pop\n      pop\n      pop\n      jump\t// out\n        /* \"Core/XSwapERC20.sol\":1098:1297  function _approve(... */\n    tag_189:\n        /* \"Core/XSwapERC20.sol\":1239:1244  value */\n      dup1\n        /* \"Core/XSwapERC20.sol\":1211:1220  allowance */\n      0x02\n        /* \"Core/XSwapERC20.sol\":1211:1227  allowance[owner] */\n      0x00\n        /* \"Core/XSwapERC20.sol\":1221:1226  owner */\n      dup6\n        /* \"Core/XSwapERC20.sol\":1211:1227  allowance[owner] */\n      0xffffffffffffffffffffffffffffffffffffffff\n      and\n      0xffffffffffffffffffffffffffffffffffffffff\n      and\n      dup2\n      mstore\n      0x20\n      add\n      swap1\n      dup2\n      mstore\n      0x20\n      add\n      0x00\n      keccak256\n        /* \"Core/XSwapERC20.sol\":1211:1236  allowance[owner][spender] */\n      0x00\n        /* \"Core/XSwapERC20.sol\":1228:1235  spender */\n      dup5\n        /* \"Core/XSwapERC20.sol\":1211:1236  allowance[owner][spender] */\n      0xffffffffffffffffffffffffffffffffffffffff\n      and\n      0xffffffffffffffffffffffffffffffffffffffff\n      and\n      dup2\n      mstore\n      0x20\n      add\n      swap1\n      dup2\n      mstore\n      0x20\n      add\n      0x00\n      keccak256\n        /* \"Core/XSwapERC20.sol\":1211:1244  allowance[owner][spender] = value */\n      dup2\n      swap1\n      sstore\n      pop\n        /* \"Core/XSwapERC20.sol\":1275:1282  spender */\n      dup2\n        /* \"Core/XSwapERC20.sol\":1259:1290  Approval(owner, spender, value) */\n      0xffffffffffffffffffffffffffffffffffffffff\n      and\n        /* \"Core/XSwapERC20.sol\":1268:1273  owner */\n      dup4\n        /* \"Core/XSwapERC20.sol\":1259:1290  Approval(owner, spender, value) */\n      0xffffffffffffffffffffffffffffffffffffffff\n      and\n      0x8c5be1e5ebec7d5bd14f71427d1e84f3dd0314c0f7b2291e5b200ac8c7c3b925\n        /* \"Core/XSwapERC20.sol\":1284:1289  value */\n      dup4\n        /* \"Core/XSwapERC20.sol\":1259:1290  Approval(owner, spender, value) */\n      mload(0x40)\n      tag_362\n      swap2\n      swap1\n      tag_55\n      jump\t// in\n    tag_362:\n      mload(0x40)\n      dup1\n      swap2\n      sub\n      swap1\n      log3\n        /* \"Core/XSwapERC20.sol\":1098:1297  function _approve(... */\n      pop\n      pop\n      pop\n      jump\t// out\n        /* \"Core/XSwapERC20.sol\":1303:1552  function _transfer(... */\n    tag_194:\n        /* \"Core/XSwapERC20.sol\":1429:1455  balanceOf[from].sub(value) */\n      tag_364\n        /* \"Core/XSwapERC20.sol\":1449:1454  value */\n      dup2\n        /* \"Core/XSwapERC20.sol\":1429:1438  balanceOf */\n      0x01\n        /* \"Core/XSwapERC20.sol\":1429:1444  balanceOf[from] */\n      0x00\n        /* \"Core/XSwapERC20.sol\":1439:1443  from */\n      dup7\n        /* \"Core/XSwapERC20.sol\":1429:1444  balanceOf[from] */\n      0xffffffffffffffffffffffffffffffffffffffff\n      and\n      0xffffffffffffffffffffffffffffffffffffffff\n      and\n      dup2\n      mstore\n      0x20\n      add\n      swap1\n      dup2\n      mstore\n      0x20\n      add\n      0x00\n      keccak256\n      sload\n        /* \"Core/XSwapERC20.sol\":1429:1448  balanceOf[from].sub */\n      tag_172\n      swap1\n        /* \"Core/XSwapERC20.sol\":1429:1455  balanceOf[from].sub(value) */\n      swap2\n      swap1\n      0xffffffff\n      and\n      jump\t// in\n    tag_364:\n        /* \"Core/XSwapERC20.sol\":1411:1420  balanceOf */\n      0x01\n        /* \"Core/XSwapERC20.sol\":1411:1426  balanceOf[from] */\n      0x00\n        /* \"Core/XSwapERC20.sol\":1421:1425  from */\n      dup6\n        /* \"Core/XSwapERC20.sol\":1411:1426  balanceOf[from] */\n      0xffffffffffffffffffffffffffffffffffffffff\n      and\n      0xffffffffffffffffffffffffffffffffffffffff\n      and\n      dup2\n      mstore\n      0x20\n      add\n      swap1\n      dup2\n      mstore\n      0x20\n      add\n      0x00\n      keccak256\n        /* \"Core/XSwapERC20.sol\":1411:1455  balanceOf[from] = balanceOf[from].sub(value) */\n      dup2\n      swap1\n      sstore\n      pop\n        /* \"Core/XSwapERC20.sol\":1481:1505  balanceOf[to].add(value) */\n      tag_365\n        /* \"Core/XSwapERC20.sol\":1499:1504  value */\n      dup2\n        /* \"Core/XSwapERC20.sol\":1481:1490  balanceOf */\n      0x01\n        /* \"Core/XSwapERC20.sol\":1481:1494  balanceOf[to] */\n      0x00\n        /* \"Core/XSwapERC20.sol\":1491:1493  to */\n      dup6\n        /* \"Core/XSwapERC20.sol\":1481:1494  balanceOf[to] */\n      0xffffffffffffffffffffffffffffffffffffffff\n      and\n      0xffffffffffffffffffffffffffffffffffffffff\n      and\n      dup2\n      mstore\n      0x20\n      add\n      swap1\n      dup2\n      mstore\n      0x20\n      add\n      0x00\n      keccak256\n      sload\n        /* \"Core/XSwapERC20.sol\":1481:1498  balanceOf[to].add */\n      tag_366\n      swap1\n        /* \"Core/XSwapERC20.sol\":1481:1505  balanceOf[to].add(value) */\n      swap2\n      swap1\n      0xffffffff\n      and\n      jump\t// in\n    tag_365:\n        /* \"Core/XSwapERC20.sol\":1465:1474  balanceOf */\n      0x01\n        /* \"Core/XSwapERC20.sol\":1465:1478  balanceOf[to] */\n      0x00\n        /* \"Core/XSwapERC20.sol\":1475:1477  to */\n      dup5\n        /* \"Core/XSwapERC20.sol\":1465:1478  balanceOf[to] */\n      0xffffffffffffffffffffffffffffffffffffffff\n      and\n      0xffffffffffffffffffffffffffffffffffffffff\n      and\n      dup2\n      mstore\n      0x20\n      add\n      swap1\n      dup2\n      mstore\n      0x20\n      add\n      0x00\n      keccak256\n        /* \"Core/XSwapERC20.sol\":1465:1505  balanceOf[to] = balanceOf[to].add(value) */\n      dup2\n      swap1\n      sstore\n      pop\n        /* \"Core/XSwapERC20.sol\":1535:1537  to */\n      dup2\n        /* \"Core/XSwapERC20.sol\":1520:1545  Transfer(from, to, value) */\n      0xffffffffffffffffffffffffffffffffffffffff\n      and\n        /* \"Core/XSwapERC20.sol\":1529:1533  from */\n      dup4\n        /* \"Core/XSwapERC20.sol\":1520:1545  Transfer(from, to, value) */\n      0xffffffffffffffffffffffffffffffffffffffff\n      and\n      0xddf252ad1be2c89b69c2b068fc378daa952ba7f163c4a11628f55a4df523b3ef\n        /* \"Core/XSwapERC20.sol\":1539:1544  value */\n      dup4\n        /* \"Core/XSwapERC20.sol\":1520:1545  Transfer(from, to, value) */\n      mload(0x40)\n      tag_367\n      swap2\n      swap1\n      tag_55\n      jump\t// in\n    tag_367:\n      mload(0x40)\n      dup1\n      swap2\n      sub\n      swap1\n      log3\n        /* \"Core/XSwapERC20.sol\":1303:1552  function _transfer(... */\n      pop\n      pop\n      pop\n      jump\t// out\n        /* \"Core/XSwapPair.sol\":3803:4662  function _collectFee(uint112 _reserve0, uint112 _reserve1)... */\n    tag_215:\n        /* \"Core/XSwapPair.sol\":3895:3905  bool feeOn */\n      0x00\n        /* \"Core/XSwapPair.sol\":3921:3934  address feeTo */\n      dup1\n        /* \"Core/XSwapPair.sol\":3951:3958  factory */\n      0x04\n      0x00\n      swap1\n      sload\n      swap1\n      0x0100\n      exp\n      swap1\n      div\n      0xffffffffffffffffffffffffffffffffffffffff\n      and\n        /* \"Core/XSwapPair.sol\":3937:3965  IXSwapFactory(factory).feeTo */\n      0xffffffffffffffffffffffffffffffffffffffff\n      and\n      0x017e7e58\n        /* \"Core/XSwapPair.sol\":3937:3967  IXSwapFactory(factory).feeTo() */\n      mload(0x40)\n      dup2\n      0xffffffff\n      and\n      0xe0\n      shl\n      dup2\n      mstore\n      0x04\n      add\n      0x20\n      mload(0x40)\n      dup1\n      dup4\n      sub\n      dup2\n      dup7\n      gas\n      staticcall\n      iszero\n      dup1\n      iszero\n      tag_370\n      jumpi\n      returndatasize\n      0x00\n      dup1\n      returndatacopy\n      revert(0x00, returndatasize)\n    tag_370:\n      pop\n      pop\n      pop\n      pop\n      mload(0x40)\n      returndatasize\n      not(0x1f)\n      0x1f\n      dup3\n      add\n      and\n      dup3\n      add\n      dup1\n      0x40\n      mstore\n      pop\n      dup2\n      add\n      swap1\n      tag_371\n      swap2\n      swap1\n      tag_372\n      jump\t// in\n    tag_371:\n        /* \"Core/XSwapPair.sol\":3921:3967  address feeTo = IXSwapFactory(factory).feeTo() */\n      swap1\n      pop\n        /* \"Core/XSwapPair.sol\":4002:4003  0 */\n      0x00\n        /* \"Core/XSwapPair.sol\":3985:4004  feeTo != address(0) */\n      0xffffffffffffffffffffffffffffffffffffffff\n      and\n        /* \"Core/XSwapPair.sol\":3985:3990  feeTo */\n      dup2\n        /* \"Core/XSwapPair.sol\":3985:4004  feeTo != address(0) */\n      0xffffffffffffffffffffffffffffffffffffffff\n      and\n      eq\n      iszero\n        /* \"Core/XSwapPair.sol\":3977:4004  feeOn = feeTo != address(0) */\n      swap2\n      pop\n        /* \"Core/XSwapPair.sol\":4014:4028  uint256 _kLast */\n      0x00\n        /* \"Core/XSwapPair.sol\":4031:4036  kLast */\n      sload(0x0a)\n        /* \"Core/XSwapPair.sol\":4014:4036  uint256 _kLast = kLast */\n      swap1\n      pop\n        /* \"Core/XSwapPair.sol\":4065:4070  feeOn */\n      dup3\n        /* \"Core/XSwapPair.sol\":4061:4656  if (feeOn) {... */\n      iszero\n      tag_373\n      jumpi\n        /* \"Core/XSwapPair.sol\":4100:4101  0 */\n      0x00\n        /* \"Core/XSwapPair.sol\":4090:4096  _kLast */\n      dup2\n        /* \"Core/XSwapPair.sol\":4090:4101  _kLast != 0 */\n      eq\n        /* \"Core/XSwapPair.sol\":4086:4589  if (_kLast != 0) {... */\n      tag_374\n      jumpi\n        /* \"Core/XSwapPair.sol\":4121:4134  uint256 rootK */\n      0x00\n        /* \"Core/XSwapPair.sol\":4137:4181  Math.sqrt(uint256(_reserve0).mul(_reserve1)) */\n      tag_375\n        /* \"Core/XSwapPair.sol\":4147:4180  uint256(_reserve0).mul(_reserve1) */\n      tag_376\n        /* \"Core/XSwapPair.sol\":4170:4179  _reserve1 */\n      dup7\n        /* \"Core/XSwapPair.sol\":4147:4180  uint256(_reserve0).mul(_reserve1) */\n      0xffffffffffffffffffffffffffff\n      and\n        /* \"Core/XSwapPair.sol\":4155:4164  _reserve0 */\n      dup9\n        /* \"Core/XSwapPair.sol\":4147:4165  uint256(_reserve0) */\n      0xffffffffffffffffffffffffffff\n      and\n        /* \"Core/XSwapPair.sol\":4147:4169  uint256(_reserve0).mul */\n      tag_170\n      swap1\n        /* \"Core/XSwapPair.sol\":4147:4180  uint256(_reserve0).mul(_reserve1) */\n      swap2\n      swap1\n      0xffffffff\n      and\n      jump\t// in\n    tag_376:\n        /* \"Core/XSwapPair.sol\":4137:4146  Math.sqrt */\n      tag_220\n        /* \"Core/XSwapPair.sol\":4137:4181  Math.sqrt(uint256(_reserve0).mul(_reserve1)) */\n      jump\t// in\n    tag_375:\n        /* \"Core/XSwapPair.sol\":4121:4181  uint256 rootK = Math.sqrt(uint256(_reserve0).mul(_reserve1)) */\n      swap1\n      pop\n        /* \"Core/XSwapPair.sol\":4199:4216  uint256 rootKLast */\n      0x00\n        /* \"Core/XSwapPair.sol\":4219:4236  Math.sqrt(_kLast) */\n      tag_377\n        /* \"Core/XSwapPair.sol\":4229:4235  _kLast */\n      dup4\n        /* \"Core/XSwapPair.sol\":4219:4228  Math.sqrt */\n      tag_220\n        /* \"Core/XSwapPair.sol\":4219:4236  Math.sqrt(_kLast) */\n      jump\t// in\n    tag_377:\n        /* \"Core/XSwapPair.sol\":4199:4236  uint256 rootKLast = Math.sqrt(_kLast) */\n      swap1\n      pop\n        /* \"Core/XSwapPair.sol\":4266:4275  rootKLast */\n      dup1\n        /* \"Core/XSwapPair.sol\":4258:4263  rootK */\n      dup3\n        /* \"Core/XSwapPair.sol\":4258:4275  rootK > rootKLast */\n      gt\n        /* \"Core/XSwapPair.sol\":4254:4575  if (rootK > rootKLast) {... */\n      iszero\n      tag_378\n      jumpi\n        /* \"Core/XSwapPair.sol\":4299:4316  uint256 numerator */\n      0x00\n        /* \"Core/XSwapPair.sol\":4319:4356  totalSupply.mul(rootK.sub(rootKLast)) */\n      tag_379\n        /* \"Core/XSwapPair.sol\":4335:4355  rootK.sub(rootKLast) */\n      tag_380\n        /* \"Core/XSwapPair.sol\":4345:4354  rootKLast */\n      dup4\n        /* \"Core/XSwapPair.sol\":4335:4340  rootK */\n      dup6\n        /* \"Core/XSwapPair.sol\":4335:4344  rootK.sub */\n      tag_172\n      swap1\n        /* \"Core/XSwapPair.sol\":4335:4355  rootK.sub(rootKLast) */\n      swap2\n      swap1\n      0xffffffff\n      and\n      jump\t// in\n    tag_380:\n        /* \"Core/XSwapPair.sol\":4319:4330  totalSupply */\n      sload(0x00)\n        /* \"Core/XSwapPair.sol\":4319:4334  totalSupply.mul */\n      tag_170\n      swap1\n        /* \"Core/XSwapPair.sol\":4319:4356  totalSupply.mul(rootK.sub(rootKLast)) */\n      swap2\n      swap1\n      0xffffffff\n      and\n      jump\t// in\n    tag_379:\n        /* \"Core/XSwapPair.sol\":4299:4356  uint256 numerator = totalSupply.mul(rootK.sub(rootKLast)) */\n      swap1\n      pop\n        /* \"Core/XSwapPair.sol\":4378:4397  uint256 denominator */\n      0x00\n        /* \"Core/XSwapPair.sol\":4400:4427  rootK.mul(5).add(rootKLast) */\n      tag_381\n        /* \"Core/XSwapPair.sol\":4417:4426  rootKLast */\n      dup4\n        /* \"Core/XSwapPair.sol\":4400:4412  rootK.mul(5) */\n      tag_382\n        /* \"Core/XSwapPair.sol\":4410:4411  5 */\n      0x05\n        /* \"Core/XSwapPair.sol\":4400:4405  rootK */\n      dup8\n        /* \"Core/XSwapPair.sol\":4400:4409  rootK.mul */\n      tag_170\n      swap1\n        /* \"Core/XSwapPair.sol\":4400:4412  rootK.mul(5) */\n      swap2\n      swap1\n      0xffffffff\n      and\n      jump\t// in\n    tag_382:\n        /* \"Core/XSwapPair.sol\":4400:4416  rootK.mul(5).add */\n      tag_366\n      swap1\n        /* \"Core/XSwapPair.sol\":4400:4427  rootK.mul(5).add(rootKLast) */\n      swap2\n      swap1\n      0xffffffff\n      and\n      jump\t// in\n    tag_381:\n        /* \"Core/XSwapPair.sol\":4378:4427  uint256 denominator = rootK.mul(5).add(rootKLast) */\n      swap1\n      pop\n        /* \"Core/XSwapPair.sol\":4449:4466  uint256 liquidity */\n      0x00\n        /* \"Core/XSwapPair.sol\":4481:4492  denominator */\n      dup2\n        /* \"Core/XSwapPair.sol\":4469:4478  numerator */\n      dup4\n        /* \"Core/XSwapPair.sol\":4469:4492  numerator / denominator */\n      tag_383\n      swap2\n      swap1\n      tag_227\n      jump\t// in\n    tag_383:\n        /* \"Core/XSwapPair.sol\":4449:4492  uint256 liquidity = numerator / denominator */\n      swap1\n      pop\n        /* \"Core/XSwapPair.sol\":4530:4531  0 */\n      0x00\n        /* \"Core/XSwapPair.sol\":4518:4527  liquidity */\n      dup2\n        /* \"Core/XSwapPair.sol\":4518:4531  liquidity > 0 */\n      gt\n        /* \"Core/XSwapPair.sol\":4514:4556  if (liquidity > 0) _mint(feeTo, liquidity) */\n      iszero\n      tag_384\n      jumpi\n        /* \"Core/XSwapPair.sol\":4533:4556  _mint(feeTo, liquidity) */\n      tag_385\n        /* \"Core/XSwapPair.sol\":4539:4544  feeTo */\n      dup8\n        /* \"Core/XSwapPair.sol\":4546:4555  liquidity */\n      dup3\n        /* \"Core/XSwapPair.sol\":4533:4538  _mint */\n      tag_222\n        /* \"Core/XSwapPair.sol\":4533:4556  _mint(feeTo, liquidity) */\n      jump\t// in\n    tag_385:\n        /* \"Core/XSwapPair.sol\":4514:4556  if (liquidity > 0) _mint(feeTo, liquidity) */\n    tag_384:\n        /* \"Core/XSwapPair.sol\":4277:4575  {... */\n      pop\n      pop\n      pop\n        /* \"Core/XSwapPair.sol\":4254:4575  if (rootK > rootKLast) {... */\n    tag_378:\n        /* \"Core/XSwapPair.sol\":4103:4589  {... */\n      pop\n      pop\n        /* \"Core/XSwapPair.sol\":4086:4589  if (_kLast != 0) {... */\n    tag_374:\n        /* \"Core/XSwapPair.sol\":4061:4656  if (feeOn) {... */\n      jump(tag_386)\n    tag_373:\n        /* \"Core/XSwapPair.sol\":4619:4620  0 */\n      0x00\n        /* \"Core/XSwapPair.sol\":4609:4615  _kLast */\n      dup2\n        /* \"Core/XSwapPair.sol\":4609:4620  _kLast != 0 */\n      eq\n        /* \"Core/XSwapPair.sol\":4605:4656  if (_kLast != 0) {... */\n      tag_387\n      jumpi\n        /* \"Core/XSwapPair.sol\":4644:4645  0 */\n      0x00\n        /* \"Core/XSwapPair.sol\":4636:4641  kLast */\n      0x0a\n        /* \"Core/XSwapPair.sol\":4636:4645  kLast = 0 */\n      dup2\n      swap1\n      sstore\n      pop\n        /* \"Core/XSwapPair.sol\":4605:4656  if (_kLast != 0) {... */\n    tag_387:\n        /* \"Core/XSwapPair.sol\":4061:4656  if (feeOn) {... */\n    tag_386:\n        /* \"Core/XSwapPair.sol\":3911:4662  {... */\n      pop\n      pop\n        /* \"Core/XSwapPair.sol\":3803:4662  function _collectFee(uint112 _reserve0, uint112 _reserve1)... */\n      swap3\n      swap2\n      pop\n      pop\n      jump\t// out\n        /* \"Core/libraries/Math.sol\":348:649  function sqrt(uint256 y) internal pure returns (uint256 z) {... */\n    tag_220:\n        /* \"Core/libraries/Math.sol\":396:405  uint256 z */\n      0x00\n        /* \"Core/libraries/Math.sol\":425:426  3 */\n      0x03\n        /* \"Core/libraries/Math.sol\":421:422  y */\n      dup3\n        /* \"Core/libraries/Math.sol\":421:426  y > 3 */\n      gt\n        /* \"Core/libraries/Math.sol\":417:643  if (y > 3) {... */\n      iszero\n      tag_389\n      jumpi\n        /* \"Core/libraries/Math.sol\":446:447  y */\n      dup2\n        /* \"Core/libraries/Math.sol\":442:447  z = y */\n      swap1\n      pop\n        /* \"Core/libraries/Math.sol\":461:470  uint256 x */\n      0x00\n        /* \"Core/libraries/Math.sol\":481:482  1 */\n      0x01\n        /* \"Core/libraries/Math.sol\":477:478  2 */\n      0x02\n        /* \"Core/libraries/Math.sol\":473:474  y */\n      dup5\n        /* \"Core/libraries/Math.sol\":473:478  y / 2 */\n      tag_390\n      swap2\n      swap1\n      tag_227\n      jump\t// in\n    tag_390:\n        /* \"Core/libraries/Math.sol\":473:482  y / 2 + 1 */\n      tag_391\n      swap2\n      swap1\n      tag_354\n      jump\t// in\n    tag_391:\n        /* \"Core/libraries/Math.sol\":461:482  uint256 x = y / 2 + 1 */\n      swap1\n      pop\n        /* \"Core/libraries/Math.sol\":496:585  while (x < z) {... */\n    tag_392:\n        /* \"Core/libraries/Math.sol\":507:508  z */\n      dup2\n        /* \"Core/libraries/Math.sol\":503:504  x */\n      dup2\n        /* \"Core/libraries/Math.sol\":503:508  x < z */\n      lt\n        /* \"Core/libraries/Math.sol\":496:585  while (x < z) {... */\n      iszero\n      tag_393\n      jumpi\n        /* \"Core/libraries/Math.sol\":532:533  x */\n      dup1\n        /* \"Core/libraries/Math.sol\":528:533  z = x */\n      swap2\n      pop\n        /* \"Core/libraries/Math.sol\":569:570  2 */\n      0x02\n        /* \"Core/libraries/Math.sol\":564:565  x */\n      dup2\n        /* \"Core/libraries/Math.sol\":560:561  x */\n      dup3\n        /* \"Core/libraries/Math.sol\":556:557  y */\n      dup6\n        /* \"Core/libraries/Math.sol\":556:561  y / x */\n      tag_394\n      swap2\n      swap1\n      tag_227\n      jump\t// in\n    tag_394:\n        /* \"Core/libraries/Math.sol\":556:565  y / x + x */\n      tag_395\n      swap2\n      swap1\n      tag_354\n      jump\t// in\n    tag_395:\n        /* \"Core/libraries/Math.sol\":555:570  (y / x + x) / 2 */\n      tag_396\n      swap2\n      swap1\n      tag_227\n      jump\t// in\n    tag_396:\n        /* \"Core/libraries/Math.sol\":551:570  x = (y / x + x) / 2 */\n      swap1\n      pop\n        /* \"Core/libraries/Math.sol\":496:585  while (x < z) {... */\n      jump(tag_392)\n    tag_393:\n        /* \"Core/libraries/Math.sol\":428:595  {... */\n      pop\n        /* \"Core/libraries/Math.sol\":417:643  if (y > 3) {... */\n      jump(tag_397)\n    tag_389:\n        /* \"Core/libraries/Math.sol\":610:611  0 */\n      0x00\n        /* \"Core/libraries/Math.sol\":605:606  y */\n      dup3\n        /* \"Core/libraries/Math.sol\":605:611  y != 0 */\n      eq\n        /* \"Core/libraries/Math.sol\":601:643  if (y != 0) {... */\n      tag_398\n      jumpi\n        /* \"Core/libraries/Math.sol\":631:632  1 */\n      0x01\n        /* \"Core/libraries/Math.sol\":627:632  z = 1 */\n      swap1\n      pop\n        /* \"Core/libraries/Math.sol\":601:643  if (y != 0) {... */\n    tag_398:\n        /* \"Core/libraries/Math.sol\":417:643  if (y > 3) {... */\n    tag_397:\n        /* \"Core/libraries/Math.sol\":348:649  function sqrt(uint256 y) internal pure returns (uint256 z) {... */\n      swap2\n      swap1\n      pop\n      jump\t// out\n        /* \"Core/XSwapERC20.sol\":678:878  function _mint(address to, uint256 value) internal {... */\n    tag_222:\n        /* \"Core/XSwapERC20.sol\":753:775  totalSupply.add(value) */\n      tag_400\n        /* \"Core/XSwapERC20.sol\":769:774  value */\n      dup2\n        /* \"Core/XSwapERC20.sol\":753:764  totalSupply */\n      sload(0x00)\n        /* \"Core/XSwapERC20.sol\":753:768  totalSupply.add */\n      tag_366\n      swap1\n        /* \"Core/XSwapERC20.sol\":753:775  totalSupply.add(value) */\n      swap2\n      swap1\n      0xffffffff\n      and\n      jump\t// in\n    tag_400:\n        /* \"Core/XSwapERC20.sol\":739:750  totalSupply */\n      0x00\n        /* \"Core/XSwapERC20.sol\":739:775  totalSupply = totalSupply.add(value) */\n      dup2\n      swap1\n      sstore\n      pop\n        /* \"Core/XSwapERC20.sol\":801:825  balanceOf[to].add(value) */\n      tag_401\n        /* \"Core/XSwapERC20.sol\":819:824  value */\n      dup2\n        /* \"Core/XSwapERC20.sol\":801:810  balanceOf */\n      0x01\n        /* \"Core/XSwapERC20.sol\":801:814  balanceOf[to] */\n      0x00\n        /* \"Core/XSwapERC20.sol\":811:813  to */\n      dup6\n        /* \"Core/XSwapERC20.sol\":801:814  balanceOf[to] */\n      0xffffffffffffffffffffffffffffffffffffffff\n      and\n      0xffffffffffffffffffffffffffffffffffffffff\n      and\n      dup2\n      mstore\n      0x20\n      add\n      swap1\n      dup2\n      mstore\n      0x20\n      add\n      0x00\n      keccak256\n      sload\n        /* \"Core/XSwapERC20.sol\":801:818  balanceOf[to].add */\n      tag_366\n      swap1\n        /* \"Core/XSwapERC20.sol\":801:825  balanceOf[to].add(value) */\n      swap2\n      swap1\n      0xffffffff\n      and\n      jump\t// in\n    tag_401:\n        /* \"Core/XSwapERC20.sol\":785:794  balanceOf */\n      0x01\n        /* \"Core/XSwapERC20.sol\":785:798  balanceOf[to] */\n      0x00\n        /* \"Core/XSwapERC20.sol\":795:797  to */\n      dup5\n        /* \"Core/XSwapERC20.sol\":785:798  balanceOf[to] */\n      0xffffffffffffffffffffffffffffffffffffffff\n      and\n      0xffffffffffffffffffffffffffffffffffffffff\n      and\n      dup2\n      mstore\n      0x20\n      add\n      swap1\n      dup2\n      mstore\n      0x20\n      add\n      0x00\n      keccak256\n        /* \"Core/XSwapERC20.sol\":785:825  balanceOf[to] = balanceOf[to].add(value) */\n      dup2\n      swap1\n      sstore\n      pop\n        /* \"Core/XSwapERC20.sol\":861:863  to */\n      dup2\n        /* \"Core/XSwapERC20.sol\":840:871  Transfer(address(0), to, value) */\n      0xffffffffffffffffffffffffffffffffffffffff\n      and\n        /* \"Core/XSwapERC20.sol\":857:858  0 */\n      0x00\n        /* \"Core/XSwapERC20.sol\":840:871  Transfer(address(0), to, value) */\n      0xffffffffffffffffffffffffffffffffffffffff\n      and\n      0xddf252ad1be2c89b69c2b068fc378daa952ba7f163c4a11628f55a4df523b3ef\n        /* \"Core/XSwapERC20.sol\":865:870  value */\n      dup4\n        /* \"Core/XSwapERC20.sol\":840:871  Transfer(address(0), to, value) */\n      mload(0x40)\n      tag_402\n      swap2\n      swap1\n      tag_55\n      jump\t// in\n    tag_402:\n      mload(0x40)\n      dup1\n      swap2\n      sub\n      swap1\n      log3\n        /* \"Core/XSwapERC20.sol\":678:878  function _mint(address to, uint256 value) internal {... */\n      pop\n      pop\n      jump\t// out\n        /* \"Core/libraries/Math.sol\":130:233  function min(uint256 x, uint256 y) internal pure returns (uint256 z) {... */\n    tag_230:\n        /* \"Core/libraries/Math.sol\":188:197  uint256 z */\n      0x00\n        /* \"Core/libraries/Math.sol\":217:218  y */\n      dup2\n        /* \"Core/libraries/Math.sol\":213:214  x */\n      dup4\n        /* \"Core/libraries/Math.sol\":213:218  x < y */\n      lt\n        /* \"Core/libraries/Math.sol\":213:226  x < y ? x : y */\n      tag_404\n      jumpi\n        /* \"Core/libraries/Math.sol\":225:226  y */\n      dup2\n        /* \"Core/libraries/Math.sol\":213:226  x < y ? x : y */\n      jump(tag_405)\n    tag_404:\n        /* \"Core/libraries/Math.sol\":221:222  x */\n      dup3\n        /* \"Core/libraries/Math.sol\":213:226  x < y ? x : y */\n    tag_405:\n        /* \"Core/libraries/Math.sol\":209:226  z = x < y ? x : y */\n      swap1\n      pop\n        /* \"Core/libraries/Math.sol\":130:233  function min(uint256 x, uint256 y) internal pure returns (uint256 z) {... */\n      swap3\n      swap2\n      pop\n      pop\n      jump\t// out\n        /* \"Core/XSwapERC20.sol\":884:1092  function _burn(address from, uint256 value) internal {... */\n    tag_262:\n        /* \"Core/XSwapERC20.sol\":965:991  balanceOf[from].sub(value) */\n      tag_407\n        /* \"Core/XSwapERC20.sol\":985:990  value */\n      dup2\n        /* \"Core/XSwapERC20.sol\":965:974  balanceOf */\n      0x01\n        /* \"Core/XSwapERC20.sol\":965:980  balanceOf[from] */\n      0x00\n        /* \"Core/XSwapERC20.sol\":975:979  from */\n      dup6\n        /* \"Core/XSwapERC20.sol\":965:980  balanceOf[from] */\n      0xffffffffffffffffffffffffffffffffffffffff\n      and\n      0xffffffffffffffffffffffffffffffffffffffff\n      and\n      dup2\n      mstore\n      0x20\n      add\n      swap1\n      dup2\n      mstore\n      0x20\n      add\n      0x00\n      keccak256\n      sload\n        /* \"Core/XSwapERC20.sol\":965:984  balanceOf[from].sub */\n      tag_172\n      swap1\n        /* \"Core/XSwapERC20.sol\":965:991  balanceOf[from].sub(value) */\n      swap2\n      swap1\n      0xffffffff\n      and\n      jump\t// in\n    tag_407:\n        /* \"Core/XSwapERC20.sol\":947:956  balanceOf */\n      0x01\n        /* \"Core/XSwapERC20.sol\":947:962  balanceOf[from] */\n      0x00\n        /* \"Core/XSwapERC20.sol\":957:961  from */\n      dup5\n        /* \"Core/XSwapERC20.sol\":947:962  balanceOf[from] */\n      0xffffffffffffffffffffffffffffffffffffffff\n      and\n      0xffffffffffffffffffffffffffffffffffffffff\n      and\n      dup2\n      mstore\n      0x20\n      add\n      swap1\n      dup2\n      mstore\n      0x20\n      add\n      0x00\n      keccak256\n        /* \"Core/XSwapERC20.sol\":947:991  balanceOf[from] = balanceOf[from].sub(value) */\n      dup2\n      swap1\n      sstore\n      pop\n        /* \"Core/XSwapERC20.sol\":1015:1037  totalSupply.sub(value) */\n      tag_408\n        /* \"Core/XSwapERC20.sol\":1031:1036  value */\n      dup2\n        /* \"Core/XSwapERC20.sol\":1015:1026  totalSupply */\n      sload(0x00)\n        /* \"Core/XSwapERC20.sol\":1015:1030  totalSupply.sub */\n      tag_172\n      swap1\n        /* \"Core/XSwapERC20.sol\":1015:1037  totalSupply.sub(value) */\n      swap2\n      swap1\n      0xffffffff\n      and\n      jump\t// in\n    tag_408:\n        /* \"Core/XSwapERC20.sol\":1001:1012  totalSupply */\n      0x00\n        /* \"Core/XSwapERC20.sol\":1001:1037  totalSupply = totalSupply.sub(value) */\n      dup2\n      swap1\n      sstore\n      pop\n        /* \"Core/XSwapERC20.sol\":1075:1076  0 */\n      0x00\n        /* \"Core/XSwapERC20.sol\":1052:1085  Transfer(from, address(0), value) */\n      0xffffffffffffffffffffffffffffffffffffffff\n      and\n        /* \"Core/XSwapERC20.sol\":1061:1065  from */\n      dup3\n        /* \"Core/XSwapERC20.sol\":1052:1085  Transfer(from, address(0), value) */\n      0xffffffffffffffffffffffffffffffffffffffff\n      and\n      0xddf252ad1be2c89b69c2b068fc378daa952ba7f163c4a11628f55a4df523b3ef\n        /* \"Core/XSwapERC20.sol\":1079:1084  value */\n      dup4\n        /* \"Core/XSwapERC20.sol\":1052:1085  Transfer(from, address(0), value) */\n      mload(0x40)\n      tag_409\n      swap2\n      swap1\n      tag_55\n      jump\t// in\n    tag_409:\n      mload(0x40)\n      dup1\n      swap2\n      sub\n      swap1\n      log3\n        /* \"Core/XSwapERC20.sol\":884:1092  function _burn(address from, uint256 value) internal {... */\n      pop\n      pop\n      jump\t// out\n        /* \"Core/libraries/UQ112x112.sol\":315:433  function encode(uint112 y) internal pure returns (uint224 z) {... */\n    tag_350:\n        /* \"Core/libraries/UQ112x112.sol\":365:374  uint224 z */\n      0x00\n        /* \"Core/libraries/UQ112x112.sol\":263:269  2**112 */\n      0x010000000000000000000000000000\n        /* \"Core/libraries/UQ112x112.sol\":398:399  y */\n      dup3\n        /* \"Core/libraries/UQ112x112.sol\":390:400  uint224(y) */\n      0xffffffffffffffffffffffffffff\n      and\n        /* \"Core/libraries/UQ112x112.sol\":390:407  uint224(y) * Q112 */\n      tag_411\n      swap2\n      swap1\n      tag_412\n      jump\t// in\n    tag_411:\n        /* \"Core/libraries/UQ112x112.sol\":386:407  z = uint224(y) * Q112 */\n      swap1\n      pop\n        /* \"Core/libraries/UQ112x112.sol\":315:433  function encode(uint112 y) internal pure returns (uint224 z) {... */\n      swap2\n      swap1\n      pop\n      jump\t// out\n        /* \"Core/libraries/UQ112x112.sol\":501:607  function uqdiv(uint224 x, uint112 y) internal pure returns (uint224 z) {... */\n    tag_351:\n        /* \"Core/libraries/UQ112x112.sol\":561:570  uint224 z */\n      0x00\n        /* \"Core/libraries/UQ112x112.sol\":598:599  y */\n      dup2\n        /* \"Core/libraries/UQ112x112.sol\":590:600  uint224(y) */\n      0xffffffffffffffffffffffffffff\n      and\n        /* \"Core/libraries/UQ112x112.sol\":586:587  x */\n      dup4\n        /* \"Core/libraries/UQ112x112.sol\":586:600  x / uint224(y) */\n      tag_414\n      swap2\n      swap1\n      tag_415\n      jump\t// in\n    tag_414:\n        /* \"Core/libraries/UQ112x112.sol\":582:600  z = x / uint224(y) */\n      swap1\n      pop\n        /* \"Core/libraries/UQ112x112.sol\":501:607  function uqdiv(uint224 x, uint112 y) internal pure returns (uint224 z) {... */\n      swap3\n      swap2\n      pop\n      pop\n      jump\t// out\n        /* \"Core/libraries/SafeMath.sol\":187:322  function add(uint256 x, uint256 y) internal pure returns (uint256 z) {... */\n    tag_366:\n        /* \"Core/libraries/SafeMath.sol\":245:254  uint256 z */\n      0x00\n        /* \"Core/libraries/SafeMath.sol\":289:290  x */\n      dup3\n        /* \"Core/libraries/SafeMath.sol\":283:284  y */\n      dup3\n        /* \"Core/libraries/SafeMath.sol\":279:280  x */\n      dup5\n        /* \"Core/libraries/SafeMath.sol\":279:284  x + y */\n      tag_417\n      swap2\n      swap1\n      tag_354\n      jump\t// in\n    tag_417:\n        /* \"Core/libraries/SafeMath.sol\":275:284  z = x + y */\n      swap2\n      pop\n      dup2\n        /* \"Core/libraries/SafeMath.sol\":274:290  (z = x + y) >= x */\n      lt\n      iszero\n        /* \"Core/libraries/SafeMath.sol\":266:315  require((z = x + y) >= x, \"ds-math-add-overflow\") */\n      tag_418\n      jumpi\n      mload(0x40)\n      0x08c379a000000000000000000000000000000000000000000000000000000000\n      dup2\n      mstore\n      0x04\n      add\n      tag_419\n      swap1\n      tag_420\n      jump\t// in\n    tag_419:\n      mload(0x40)\n      dup1\n      swap2\n      sub\n      swap1\n      revert\n    tag_418:\n        /* \"Core/libraries/SafeMath.sol\":187:322  function add(uint256 x, uint256 y) internal pure returns (uint256 z) {... */\n      swap3\n      swap2\n      pop\n      pop\n      jump\t// out\n        /* \"#utility.yul\":88:205   */\n    tag_422:\n        /* \"#utility.yul\":197:198   */\n      0x00\n        /* \"#utility.yul\":194:195   */\n      dup1\n        /* \"#utility.yul\":187:199   */\n      revert\n        /* \"#utility.yul\":211:328   */\n    tag_423:\n        /* \"#utility.yul\":320:321   */\n      0x00\n        /* \"#utility.yul\":317:318   */\n      dup1\n        /* \"#utility.yul\":310:322   */\n      revert\n        /* \"#utility.yul\":334:411   */\n    tag_424:\n        /* \"#utility.yul\":371:378   */\n      0x00\n        /* \"#utility.yul\":400:405   */\n      dup2\n        /* \"#utility.yul\":389:405   */\n      swap1\n      pop\n        /* \"#utility.yul\":334:411   */\n      swap2\n      swap1\n      pop\n      jump\t// out\n        /* \"#utility.yul\":417:539   */\n    tag_425:\n        /* \"#utility.yul\":490:514   */\n      tag_494\n        /* \"#utility.yul\":508:513   */\n      dup2\n        /* \"#utility.yul\":490:514   */\n      tag_424\n      jump\t// in\n    tag_494:\n        /* \"#utility.yul\":483:488   */\n      dup2\n        /* \"#utility.yul\":480:515   */\n      eq\n        /* \"#utility.yul\":470:533   */\n      tag_495\n      jumpi\n        /* \"#utility.yul\":529:530   */\n      0x00\n        /* \"#utility.yul\":526:527   */\n      dup1\n        /* \"#utility.yul\":519:531   */\n      revert\n        /* \"#utility.yul\":470:533   */\n    tag_495:\n        /* \"#utility.yul\":417:539   */\n      pop\n      jump\t// out\n        /* \"#utility.yul\":545:684   */\n    tag_426:\n        /* \"#utility.yul\":591:596   */\n      0x00\n        /* \"#utility.yul\":629:635   */\n      dup2\n        /* \"#utility.yul\":616:636   */\n      calldataload\n        /* \"#utility.yul\":607:636   */\n      swap1\n      pop\n        /* \"#utility.yul\":645:678   */\n      tag_497\n        /* \"#utility.yul\":672:677   */\n      dup2\n        /* \"#utility.yul\":645:678   */\n      tag_425\n      jump\t// in\n    tag_497:\n        /* \"#utility.yul\":545:684   */\n      swap3\n      swap2\n      pop\n      pop\n      jump\t// out\n        /* \"#utility.yul\":690:816   */\n    tag_427:\n        /* \"#utility.yul\":727:734   */\n      0x00\n        /* \"#utility.yul\":767:809   */\n      0xffffffffffffffffffffffffffffffffffffffff\n        /* \"#utility.yul\":760:765   */\n      dup3\n        /* \"#utility.yul\":756:810   */\n      and\n        /* \"#utility.yul\":745:810   */\n      swap1\n      pop\n        /* \"#utility.yul\":690:816   */\n      swap2\n      swap1\n      pop\n      jump\t// out\n        /* \"#utility.yul\":822:918   */\n    tag_428:\n        /* \"#utility.yul\":859:866   */\n      0x00\n        /* \"#utility.yul\":888:912   */\n      tag_500\n        /* \"#utility.yul\":906:911   */\n      dup3\n        /* \"#utility.yul\":888:912   */\n      tag_427\n      jump\t// in\n    tag_500:\n        /* \"#utility.yul\":877:912   */\n      swap1\n      pop\n        /* \"#utility.yul\":822:918   */\n      swap2\n      swap1\n      pop\n      jump\t// out\n        /* \"#utility.yul\":924:1046   */\n    tag_429:\n        /* \"#utility.yul\":997:1021   */\n      tag_502\n        /* \"#utility.yul\":1015:1020   */\n      dup2\n        /* \"#utility.yul\":997:1021   */\n      tag_428\n      jump\t// in\n    tag_502:\n        /* \"#utility.yul\":990:995   */\n      dup2\n        /* \"#utility.yul\":987:1022   */\n      eq\n        /* \"#utility.yul\":977:1040   */\n      tag_503\n      jumpi\n        /* \"#utility.yul\":1036:1037   */\n      0x00\n        /* \"#utility.yul\":1033:1034   */\n      dup1\n        /* \"#utility.yul\":1026:1038   */\n      revert\n        /* \"#utility.yul\":977:1040   */\n    tag_503:\n        /* \"#utility.yul\":924:1046   */\n      pop\n      jump\t// out\n        /* \"#utility.yul\":1052:1191   */\n    tag_430:\n        /* \"#utility.yul\":1098:1103   */\n      0x00\n        /* \"#utility.yul\":1136:1142   */\n      dup2\n        /* \"#utility.yul\":1123:1143   */\n      calldataload\n        /* \"#utility.yul\":1114:1143   */\n      swap1\n      pop\n        /* \"#utility.yul\":1152:1185   */\n      tag_505\n        /* \"#utility.yul\":1179:1184   */\n      dup2\n        /* \"#utility.yul\":1152:1185   */\n      tag_429\n      jump\t// in\n    tag_505:\n        /* \"#utility.yul\":1052:1191   */\n      swap3\n      swap2\n      pop\n      pop\n      jump\t// out\n        /* \"#utility.yul\":1197:1314   */\n    tag_431:\n        /* \"#utility.yul\":1306:1307   */\n      0x00\n        /* \"#utility.yul\":1303:1304   */\n      dup1\n        /* \"#utility.yul\":1296:1308   */\n      revert\n        /* \"#utility.yul\":1320:1437   */\n    tag_432:\n        /* \"#utility.yul\":1429:1430   */\n      0x00\n        /* \"#utility.yul\":1426:1427   */\n      dup1\n        /* \"#utility.yul\":1419:1431   */\n      revert\n        /* \"#utility.yul\":1443:1560   */\n    tag_433:\n        /* \"#utility.yul\":1552:1553   */\n      0x00\n        /* \"#utility.yul\":1549:1550   */\n      dup1\n        /* \"#utility.yul\":1542:1554   */\n      revert\n        /* \"#utility.yul\":1579:2131   */\n    tag_434:\n        /* \"#utility.yul\":1636:1644   */\n      0x00\n        /* \"#utility.yul\":1646:1652   */\n      dup1\n        /* \"#utility.yul\":1696:1699   */\n      dup4\n        /* \"#utility.yul\":1689:1693   */\n      0x1f\n        /* \"#utility.yul\":1681:1687   */\n      dup5\n        /* \"#utility.yul\":1677:1694   */\n      add\n        /* \"#utility.yul\":1673:1700   */\n      slt\n        /* \"#utility.yul\":1663:1785   */\n      tag_510\n      jumpi\n        /* \"#utility.yul\":1704:1783   */\n      tag_511\n      tag_431\n      jump\t// in\n    tag_511:\n        /* \"#utility.yul\":1663:1785   */\n    tag_510:\n        /* \"#utility.yul\":1817:1823   */\n      dup3\n        /* \"#utility.yul\":1804:1824   */\n      calldataload\n        /* \"#utility.yul\":1794:1824   */\n      swap1\n      pop\n        /* \"#utility.yul\":1847:1865   */\n      0xffffffffffffffff\n        /* \"#utility.yul\":1839:1845   */\n      dup2\n        /* \"#utility.yul\":1836:1866   */\n      gt\n        /* \"#utility.yul\":1833:1950   */\n      iszero\n      tag_512\n      jumpi\n        /* \"#utility.yul\":1869:1948   */\n      tag_513\n      tag_432\n      jump\t// in\n    tag_513:\n        /* \"#utility.yul\":1833:1950   */\n    tag_512:\n        /* \"#utility.yul\":1983:1987   */\n      0x20\n        /* \"#utility.yul\":1975:1981   */\n      dup4\n        /* \"#utility.yul\":1971:1988   */\n      add\n        /* \"#utility.yul\":1959:1988   */\n      swap2\n      pop\n        /* \"#utility.yul\":2037:2040   */\n      dup4\n        /* \"#utility.yul\":2029:2033   */\n      0x01\n        /* \"#utility.yul\":2021:2027   */\n      dup3\n        /* \"#utility.yul\":2017:2034   */\n      mul\n        /* \"#utility.yul\":2007:2015   */\n      dup4\n        /* \"#utility.yul\":2003:2035   */\n      add\n        /* \"#utility.yul\":2000:2041   */\n      gt\n        /* \"#utility.yul\":1997:2125   */\n      iszero\n      tag_514\n      jumpi\n        /* \"#utility.yul\":2044:2123   */\n      tag_515\n      tag_433\n      jump\t// in\n    tag_515:\n        /* \"#utility.yul\":1997:2125   */\n    tag_514:\n        /* \"#utility.yul\":1579:2131   */\n      swap3\n      pop\n      swap3\n      swap1\n      pop\n      jump\t// out\n        /* \"#utility.yul\":2137:3100   */\n    tag_32:\n        /* \"#utility.yul\":2234:2240   */\n      0x00\n        /* \"#utility.yul\":2242:2248   */\n      dup1\n        /* \"#utility.yul\":2250:2256   */\n      0x00\n        /* \"#utility.yul\":2258:2264   */\n      dup1\n        /* \"#utility.yul\":2266:2272   */\n      0x00\n        /* \"#utility.yul\":2315:2318   */\n      0x80\n        /* \"#utility.yul\":2303:2312   */\n      dup7\n        /* \"#utility.yul\":2294:2301   */\n      dup9\n        /* \"#utility.yul\":2290:2313   */\n      sub\n        /* \"#utility.yul\":2286:2319   */\n      slt\n        /* \"#utility.yul\":2283:2403   */\n      iszero\n      tag_517\n      jumpi\n        /* \"#utility.yul\":2322:2401   */\n      tag_518\n      tag_422\n      jump\t// in\n    tag_518:\n        /* \"#utility.yul\":2283:2403   */\n    tag_517:\n        /* \"#utility.yul\":2442:2443   */\n      0x00\n        /* \"#utility.yul\":2467:2520   */\n      tag_519\n        /* \"#utility.yul\":2512:2519   */\n      dup9\n        /* \"#utility.yul\":2503:2509   */\n      dup3\n        /* \"#utility.yul\":2492:2501   */\n      dup10\n        /* \"#utility.yul\":2488:2510   */\n      add\n        /* \"#utility.yul\":2467:2520   */\n      tag_426\n      jump\t// in\n    tag_519:\n        /* \"#utility.yul\":2457:2520   */\n      swap6\n      pop\n        /* \"#utility.yul\":2413:2530   */\n      pop\n        /* \"#utility.yul\":2569:2571   */\n      0x20\n        /* \"#utility.yul\":2595:2648   */\n      tag_520\n        /* \"#utility.yul\":2640:2647   */\n      dup9\n        /* \"#utility.yul\":2631:2637   */\n      dup3\n        /* \"#utility.yul\":2620:2629   */\n      dup10\n        /* \"#utility.yul\":2616:2638   */\n      add\n        /* \"#utility.yul\":2595:2648   */\n      tag_426\n      jump\t// in\n    tag_520:\n        /* \"#utility.yul\":2585:2648   */\n      swap5\n      pop\n        /* \"#utility.yul\":2540:2658   */\n      pop\n        /* \"#utility.yul\":2697:2699   */\n      0x40\n        /* \"#utility.yul\":2723:2776   */\n      tag_521\n        /* \"#utility.yul\":2768:2775   */\n      dup9\n        /* \"#utility.yul\":2759:2765   */\n      dup3\n        /* \"#utility.yul\":2748:2757   */\n      dup10\n        /* \"#utility.yul\":2744:2766   */\n      add\n        /* \"#utility.yul\":2723:2776   */\n      tag_430\n      jump\t// in\n    tag_521:\n        /* \"#utility.yul\":2713:2776   */\n      swap4\n      pop\n        /* \"#utility.yul\":2668:2786   */\n      pop\n        /* \"#utility.yul\":2853:2855   */\n      0x60\n        /* \"#utility.yul\":2842:2851   */\n      dup7\n        /* \"#utility.yul\":2838:2856   */\n      add\n        /* \"#utility.yul\":2825:2857   */\n      calldataload\n        /* \"#utility.yul\":2884:2902   */\n      0xffffffffffffffff\n        /* \"#utility.yul\":2876:2882   */\n      dup2\n        /* \"#utility.yul\":2873:2903   */\n      gt\n        /* \"#utility.yul\":2870:2987   */\n      iszero\n      tag_522\n      jumpi\n        /* \"#utility.yul\":2906:2985   */\n      tag_523\n      tag_423\n      jump\t// in\n    tag_523:\n        /* \"#utility.yul\":2870:2987   */\n    tag_522:\n        /* \"#utility.yul\":3019:3083   */\n      tag_524\n        /* \"#utility.yul\":3075:3082   */\n      dup9\n        /* \"#utility.yul\":3066:3072   */\n      dup3\n        /* \"#utility.yul\":3055:3064   */\n      dup10\n        /* \"#utility.yul\":3051:3073   */\n      add\n        /* \"#utility.yul\":3019:3083   */\n      tag_434\n      jump\t// in\n    tag_524:\n        /* \"#utility.yul\":3001:3083   */\n      swap3\n      pop\n      swap3\n      pop\n        /* \"#utility.yul\":2796:3093   */\n      pop\n        /* \"#utility.yul\":2137:3100   */\n      swap3\n      swap6\n      pop\n      swap3\n      swap6\n      swap1\n      swap4\n      pop\n      jump\t// out\n        /* \"#utility.yul\":3106:3205   */\n    tag_435:\n        /* \"#utility.yul\":3158:3164   */\n      0x00\n        /* \"#utility.yul\":3192:3197   */\n      dup2\n        /* \"#utility.yul\":3186:3198   */\n      mload\n        /* \"#utility.yul\":3176:3198   */\n      swap1\n      pop\n        /* \"#utility.yul\":3106:3205   */\n      swap2\n      swap1\n      pop\n      jump\t// out\n        /* \"#utility.yul\":3211:3380   */\n    tag_436:\n        /* \"#utility.yul\":3295:3306   */\n      0x00\n        /* \"#utility.yul\":3329:3335   */\n      dup3\n        /* \"#utility.yul\":3324:3327   */\n      dup3\n        /* \"#utility.yul\":3317:3336   */\n      mstore\n        /* \"#utility.yul\":3369:3373   */\n      0x20\n        /* \"#utility.yul\":3364:3367   */\n      dup3\n        /* \"#utility.yul\":3360:3374   */\n      add\n        /* \"#utility.yul\":3345:3374   */\n      swap1\n      pop\n        /* \"#utility.yul\":3211:3380   */\n      swap3\n      swap2\n      pop\n      pop\n      jump\t// out\n        /* \"#utility.yul\":3386:3693   */\n    tag_437:\n        /* \"#utility.yul\":3454:3455   */\n      0x00\n        /* \"#utility.yul\":3464:3577   */\n    tag_528:\n        /* \"#utility.yul\":3478:3484   */\n      dup4\n        /* \"#utility.yul\":3475:3476   */\n      dup2\n        /* \"#utility.yul\":3472:3485   */\n      lt\n        /* \"#utility.yul\":3464:3577   */\n      iszero\n      tag_530\n      jumpi\n        /* \"#utility.yul\":3563:3564   */\n      dup1\n        /* \"#utility.yul\":3558:3561   */\n      dup3\n        /* \"#utility.yul\":3554:3565   */\n      add\n        /* \"#utility.yul\":3548:3566   */\n      mload\n        /* \"#utility.yul\":3544:3545   */\n      dup2\n        /* \"#utility.yul\":3539:3542   */\n      dup5\n        /* \"#utility.yul\":3535:3546   */\n      add\n        /* \"#utility.yul\":3528:3567   */\n      mstore\n        /* \"#utility.yul\":3500:3502   */\n      0x20\n        /* \"#utility.yul\":3497:3498   */\n      dup2\n        /* \"#utility.yul\":3493:3503   */\n      add\n        /* \"#utility.yul\":3488:3503   */\n      swap1\n      pop\n        /* \"#utility.yul\":3464:3577   */\n      jump(tag_528)\n    tag_530:\n        /* \"#utility.yul\":3595:3601   */\n      dup4\n        /* \"#utility.yul\":3592:3593   */\n      dup2\n        /* \"#utility.yul\":3589:3602   */\n      gt\n        /* \"#utility.yul\":3586:3687   */\n      iszero\n      tag_531\n      jumpi\n        /* \"#utility.yul\":3675:3676   */\n      0x00\n        /* \"#utility.yul\":3666:3672   */\n      dup5\n        /* \"#utility.yul\":3661:3664   */\n      dup5\n        /* \"#utility.yul\":3657:3673   */\n      add\n        /* \"#utility.yul\":3650:3677   */\n      mstore\n        /* \"#utility.yul\":3586:3687   */\n    tag_531:\n        /* \"#utility.yul\":3435:3693   */\n      pop\n        /* \"#utility.yul\":3386:3693   */\n      pop\n      pop\n      pop\n      jump\t// out\n        /* \"#utility.yul\":3699:3801   */\n    tag_438:\n        /* \"#utility.yul\":3740:3746   */\n      0x00\n        /* \"#utility.yul\":3791:3793   */\n      0x1f\n        /* \"#utility.yul\":3787:3794   */\n      not\n        /* \"#utility.yul\":3782:3784   */\n      0x1f\n        /* \"#utility.yul\":3775:3780   */\n      dup4\n        /* \"#utility.yul\":3771:3785   */\n      add\n        /* \"#utility.yul\":3767:3795   */\n      and\n        /* \"#utility.yul\":3757:3795   */\n      swap1\n      pop\n        /* \"#utility.yul\":3699:3801   */\n      swap2\n      swap1\n      pop\n      jump\t// out\n        /* \"#utility.yul\":3807:4171   */\n    tag_439:\n        /* \"#utility.yul\":3895:3898   */\n      0x00\n        /* \"#utility.yul\":3923:3962   */\n      tag_534\n        /* \"#utility.yul\":3956:3961   */\n      dup3\n        /* \"#utility.yul\":3923:3962   */\n      tag_435\n      jump\t// in\n    tag_534:\n        /* \"#utility.yul\":3978:4049   */\n      tag_535\n        /* \"#utility.yul\":4042:4048   */\n      dup2\n        /* \"#utility.yul\":4037:4040   */\n      dup6\n        /* \"#utility.yul\":3978:4049   */\n      tag_436\n      jump\t// in\n    tag_535:\n        /* \"#utility.yul\":3971:4049   */\n      swap4\n      pop\n        /* \"#utility.yul\":4058:4110   */\n      tag_536\n        /* \"#utility.yul\":4103:4109   */\n      dup2\n        /* \"#utility.yul\":4098:4101   */\n      dup6\n        /* \"#utility.yul\":4091:4095   */\n      0x20\n        /* \"#utility.yul\":4084:4089   */\n      dup7\n        /* \"#utility.yul\":4080:4096   */\n      add\n        /* \"#utility.yul\":4058:4110   */\n      tag_437\n      jump\t// in\n    tag_536:\n        /* \"#utility.yul\":4135:4164   */\n      tag_537\n        /* \"#utility.yul\":4157:4163   */\n      dup2\n        /* \"#utility.yul\":4135:4164   */\n      tag_438\n      jump\t// in\n    tag_537:\n        /* \"#utility.yul\":4130:4133   */\n      dup5\n        /* \"#utility.yul\":4126:4165   */\n      add\n        /* \"#utility.yul\":4119:4165   */\n      swap2\n      pop\n        /* \"#utility.yul\":3899:4171   */\n      pop\n        /* \"#utility.yul\":3807:4171   */\n      swap3\n      swap2\n      pop\n      pop\n      jump\t// out\n        /* \"#utility.yul\":4177:4490   */\n    tag_37:\n        /* \"#utility.yul\":4290:4294   */\n      0x00\n        /* \"#utility.yul\":4328:4330   */\n      0x20\n        /* \"#utility.yul\":4317:4326   */\n      dup3\n        /* \"#utility.yul\":4313:4331   */\n      add\n        /* \"#utility.yul\":4305:4331   */\n      swap1\n      pop\n        /* \"#utility.yul\":4377:4386   */\n      dup2\n        /* \"#utility.yul\":4371:4375   */\n      dup2\n        /* \"#utility.yul\":4367:4387   */\n      sub\n        /* \"#utility.yul\":4363:4364   */\n      0x00\n        /* \"#utility.yul\":4352:4361   */\n      dup4\n        /* \"#utility.yul\":4348:4365   */\n      add\n        /* \"#utility.yul\":4341:4388   */\n      mstore\n        /* \"#utility.yul\":4405:4483   */\n      tag_539\n        /* \"#utility.yul\":4478:4482   */\n      dup2\n        /* \"#utility.yul\":4469:4475   */\n      dup5\n        /* \"#utility.yul\":4405:4483   */\n      tag_439\n      jump\t// in\n    tag_539:\n        /* \"#utility.yul\":4397:4483   */\n      swap1\n      pop\n        /* \"#utility.yul\":4177:4490   */\n      swap3\n      swap2\n      pop\n      pop\n      jump\t// out\n        /* \"#utility.yul\":4496:4610   */\n    tag_440:\n        /* \"#utility.yul\":4533:4540   */\n      0x00\n        /* \"#utility.yul\":4573:4603   */\n      0xffffffffffffffffffffffffffff\n        /* \"#utility.yul\":4566:4571   */\n      dup3\n        /* \"#utility.yul\":4562:4604   */\n      and\n        /* \"#utility.yul\":4551:4604   */\n      swap1\n      pop\n        /* \"#utility.yul\":4496:4610   */\n      swap2\n      swap1\n      pop\n      jump\t// out\n        /* \"#utility.yul\":4616:4734   */\n    tag_441:\n        /* \"#utility.yul\":4703:4727   */\n      tag_542\n        /* \"#utility.yul\":4721:4726   */\n      dup2\n        /* \"#utility.yul\":4703:4727   */\n      tag_440\n      jump\t// in\n    tag_542:\n        /* \"#utility.yul\":4698:4701   */\n      dup3\n        /* \"#utility.yul\":4691:4728   */\n      mstore\n        /* \"#utility.yul\":4616:4734   */\n      pop\n      pop\n      jump\t// out\n        /* \"#utility.yul\":4740:4833   */\n    tag_442:\n        /* \"#utility.yul\":4776:4783   */\n      0x00\n        /* \"#utility.yul\":4816:4826   */\n      0xffffffff\n        /* \"#utility.yul\":4809:4814   */\n      dup3\n        /* \"#utility.yul\":4805:4827   */\n      and\n        /* \"#utility.yul\":4794:4827   */\n      swap1\n      pop\n        /* \"#utility.yul\":4740:4833   */\n      swap2\n      swap1\n      pop\n      jump\t// out\n        /* \"#utility.yul\":4839:4954   */\n    tag_443:\n        /* \"#utility.yul\":4924:4947   */\n      tag_545\n        /* \"#utility.yul\":4941:4946   */\n      dup2\n        /* \"#utility.yul\":4924:4947   */\n      tag_442\n      jump\t// in\n    tag_545:\n        /* \"#utility.yul\":4919:4922   */\n      dup3\n        /* \"#utility.yul\":4912:4948   */\n      mstore\n        /* \"#utility.yul\":4839:4954   */\n      pop\n      pop\n      jump\t// out\n        /* \"#utility.yul\":4960:5398   */\n    tag_41:\n        /* \"#utility.yul\":5107:5111   */\n      0x00\n        /* \"#utility.yul\":5145:5147   */\n      0x60\n        /* \"#utility.yul\":5134:5143   */\n      dup3\n        /* \"#utility.yul\":5130:5148   */\n      add\n        /* \"#utility.yul\":5122:5148   */\n      swap1\n      pop\n        /* \"#utility.yul\":5158:5229   */\n      tag_547\n        /* \"#utility.yul\":5226:5227   */\n      0x00\n        /* \"#utility.yul\":5215:5224   */\n      dup4\n        /* \"#utility.yul\":5211:5228   */\n      add\n        /* \"#utility.yul\":5202:5208   */\n      dup7\n        /* \"#utility.yul\":5158:5229   */\n      tag_441\n      jump\t// in\n    tag_547:\n        /* \"#utility.yul\":5239:5311   */\n      tag_548\n        /* \"#utility.yul\":5307:5309   */\n      0x20\n        /* \"#utility.yul\":5296:5305   */\n      dup4\n        /* \"#utility.yul\":5292:5310   */\n      add\n        /* \"#utility.yul\":5283:5289   */\n      dup6\n        /* \"#utility.yul\":5239:5311   */\n      tag_441\n      jump\t// in\n    tag_548:\n        /* \"#utility.yul\":5321:5391   */\n      tag_549\n        /* \"#utility.yul\":5387:5389   */\n      0x40\n        /* \"#utility.yul\":5376:5385   */\n      dup4\n        /* \"#utility.yul\":5372:5390   */\n      add\n        /* \"#utility.yul\":5363:5369   */\n      dup5\n        /* \"#utility.yul\":5321:5391   */\n      tag_443\n      jump\t// in\n    tag_549:\n        /* \"#utility.yul\":4960:5398   */\n      swap5\n      swap4\n      pop\n      pop\n      pop\n      pop\n      jump\t// out\n        /* \"#utility.yul\":5404:5878   */\n    tag_44:\n        /* \"#utility.yul\":5472:5478   */\n      0x00\n        /* \"#utility.yul\":5480:5486   */\n      dup1\n        /* \"#utility.yul\":5529:5531   */\n      0x40\n        /* \"#utility.yul\":5517:5526   */\n      dup4\n        /* \"#utility.yul\":5508:5515   */\n      dup6\n        /* \"#utility.yul\":5504:5527   */\n      sub\n        /* \"#utility.yul\":5500:5532   */\n      slt\n        /* \"#utility.yul\":5497:5616   */\n      iszero\n      tag_551\n      jumpi\n        /* \"#utility.yul\":5535:5614   */\n      tag_552\n      tag_422\n      jump\t// in\n    tag_552:\n        /* \"#utility.yul\":5497:5616   */\n    tag_551:\n        /* \"#utility.yul\":5655:5656   */\n      0x00\n        /* \"#utility.yul\":5680:5733   */\n      tag_553\n        /* \"#utility.yul\":5725:5732   */\n      dup6\n        /* \"#utility.yul\":5716:5722   */\n      dup3\n        /* \"#utility.yul\":5705:5714   */\n      dup7\n        /* \"#utility.yul\":5701:5723   */\n      add\n        /* \"#utility.yul\":5680:5733   */\n      tag_430\n      jump\t// in\n    tag_553:\n        /* \"#utility.yul\":5670:5733   */\n      swap3\n      pop\n        /* \"#utility.yul\":5626:5743   */\n      pop\n        /* \"#utility.yul\":5782:5784   */\n      0x20\n        /* \"#utility.yul\":5808:5861   */\n      tag_554\n        /* \"#utility.yul\":5853:5860   */\n      dup6\n        /* \"#utility.yul\":5844:5850   */\n      dup3\n        /* \"#utility.yul\":5833:5842   */\n      dup7\n        /* \"#utility.yul\":5829:5851   */\n      add\n        /* \"#utility.yul\":5808:5861   */\n      tag_426\n      jump\t// in\n    tag_554:\n        /* \"#utility.yul\":5798:5861   */\n      swap2\n      pop\n        /* \"#utility.yul\":5753:5871   */\n      pop\n        /* \"#utility.yul\":5404:5878   */\n      swap3\n      pop\n      swap3\n      swap1\n      pop\n      jump\t// out\n        /* \"#utility.yul\":5884:5974   */\n    tag_444:\n        /* \"#utility.yul\":5918:5925   */\n      0x00\n        /* \"#utility.yul\":5961:5966   */\n      dup2\n        /* \"#utility.yul\":5954:5967   */\n      iszero\n        /* \"#utility.yul\":5947:5968   */\n      iszero\n        /* \"#utility.yul\":5936:5968   */\n      swap1\n      pop\n        /* \"#utility.yul\":5884:5974   */\n      swap2\n      swap1\n      pop\n      jump\t// out\n        /* \"#utility.yul\":5980:6089   */\n    tag_445:\n        /* \"#utility.yul\":6061:6082   */\n      tag_557\n        /* \"#utility.yul\":6076:6081   */\n      dup2\n        /* \"#utility.yul\":6061:6082   */\n      tag_444\n      jump\t// in\n    tag_557:\n        /* \"#utility.yul\":6056:6059   */\n      dup3\n        /* \"#utility.yul\":6049:6083   */\n      mstore\n        /* \"#utility.yul\":5980:6089   */\n      pop\n      pop\n      jump\t// out\n        /* \"#utility.yul\":6095:6305   */\n    tag_47:\n        /* \"#utility.yul\":6182:6186   */\n      0x00\n        /* \"#utility.yul\":6220:6222   */\n      0x20\n        /* \"#utility.yul\":6209:6218   */\n      dup3\n        /* \"#utility.yul\":6205:6223   */\n      add\n        /* \"#utility.yul\":6197:6223   */\n      swap1\n      pop\n        /* \"#utility.yul\":6233:6298   */\n      tag_559\n        /* \"#utility.yul\":6295:6296   */\n      0x00\n        /* \"#utility.yul\":6284:6293   */\n      dup4\n        /* \"#utility.yul\":6280:6297   */\n      add\n        /* \"#utility.yul\":6271:6277   */\n      dup5\n        /* \"#utility.yul\":6233:6298   */\n      tag_445\n      jump\t// in\n    tag_559:\n        /* \"#utility.yul\":6095:6305   */\n      swap3\n      swap2\n      pop\n      pop\n      jump\t// out\n        /* \"#utility.yul\":6311:6429   */\n    tag_446:\n        /* \"#utility.yul\":6398:6422   */\n      tag_561\n        /* \"#utility.yul\":6416:6421   */\n      dup2\n        /* \"#utility.yul\":6398:6422   */\n      tag_428\n      jump\t// in\n    tag_561:\n        /* \"#utility.yul\":6393:6396   */\n      dup3\n        /* \"#utility.yul\":6386:6423   */\n      mstore\n        /* \"#utility.yul\":6311:6429   */\n      pop\n      pop\n      jump\t// out\n        /* \"#utility.yul\":6435:6657   */\n    tag_51:\n        /* \"#utility.yul\":6528:6532   */\n      0x00\n        /* \"#utility.yul\":6566:6568   */\n      0x20\n        /* \"#utility.yul\":6555:6564   */\n      dup3\n        /* \"#utility.yul\":6551:6569   */\n      add\n        /* \"#utility.yul\":6543:6569   */\n      swap1\n      pop\n        /* \"#utility.yul\":6579:6650   */\n      tag_563\n        /* \"#utility.yul\":6647:6648   */\n      0x00\n        /* \"#utility.yul\":6636:6645   */\n      dup4\n        /* \"#utility.yul\":6632:6649   */\n      add\n        /* \"#utility.yul\":6623:6629   */\n      dup5\n        /* \"#utility.yul\":6579:6650   */\n      tag_446\n      jump\t// in\n    tag_563:\n        /* \"#utility.yul\":6435:6657   */\n      swap3\n      swap2\n      pop\n      pop\n      jump\t// out\n        /* \"#utility.yul\":6663:6781   */\n    tag_447:\n        /* \"#utility.yul\":6750:6774   */\n      tag_565\n        /* \"#utility.yul\":6768:6773   */\n      dup2\n        /* \"#utility.yul\":6750:6774   */\n      tag_424\n      jump\t// in\n    tag_565:\n        /* \"#utility.yul\":6745:6748   */\n      dup3\n        /* \"#utility.yul\":6738:6775   */\n      mstore\n        /* \"#utility.yul\":6663:6781   */\n      pop\n      pop\n      jump\t// out\n        /* \"#utility.yul\":6787:7009   */\n    tag_55:\n        /* \"#utility.yul\":6880:6884   */\n      0x00\n        /* \"#utility.yul\":6918:6920   */\n      0x20\n        /* \"#utility.yul\":6907:6916   */\n      dup3\n        /* \"#utility.yul\":6903:6921   */\n      add\n        /* \"#utility.yul\":6895:6921   */\n      swap1\n      pop\n        /* \"#utility.yul\":6931:7002   */\n      tag_567\n        /* \"#utility.yul\":6999:7000   */\n      0x00\n        /* \"#utility.yul\":6988:6997   */\n      dup4\n        /* \"#utility.yul\":6984:7001   */\n      add\n        /* \"#utility.yul\":6975:6981   */\n      dup5\n        /* \"#utility.yul\":6931:7002   */\n      tag_447\n      jump\t// in\n    tag_567:\n        /* \"#utility.yul\":6787:7009   */\n      swap3\n      swap2\n      pop\n      pop\n      jump\t// out\n        /* \"#utility.yul\":7015:7634   */\n    tag_58:\n        /* \"#utility.yul\":7092:7098   */\n      0x00\n        /* \"#utility.yul\":7100:7106   */\n      dup1\n        /* \"#utility.yul\":7108:7114   */\n      0x00\n        /* \"#utility.yul\":7157:7159   */\n      0x60\n        /* \"#utility.yul\":7145:7154   */\n      dup5\n        /* \"#utility.yul\":7136:7143   */\n      dup7\n        /* \"#utility.yul\":7132:7155   */\n      sub\n        /* \"#utility.yul\":7128:7160   */\n      slt\n        /* \"#utility.yul\":7125:7244   */\n      iszero\n      tag_569\n      jumpi\n        /* \"#utility.yul\":7163:7242   */\n      tag_570\n      tag_422\n      jump\t// in\n    tag_570:\n        /* \"#utility.yul\":7125:7244   */\n    tag_569:\n        /* \"#utility.yul\":7283:7284   */\n      0x00\n        /* \"#utility.yul\":7308:7361   */\n      tag_571\n        /* \"#utility.yul\":7353:7360   */\n      dup7\n        /* \"#utility.yul\":7344:7350   */\n      dup3\n        /* \"#utility.yul\":7333:7342   */\n      dup8\n        /* \"#utility.yul\":7329:7351   */\n      add\n        /* \"#utility.yul\":7308:7361   */\n      tag_430\n      jump\t// in\n    tag_571:\n        /* \"#utility.yul\":7298:7361   */\n      swap4\n      pop\n        /* \"#utility.yul\":7254:7371   */\n      pop\n        /* \"#utility.yul\":7410:7412   */\n      0x20\n        /* \"#utility.yul\":7436:7489   */\n      tag_572\n        /* \"#utility.yul\":7481:7488   */\n      dup7\n        /* \"#utility.yul\":7472:7478   */\n      dup3\n        /* \"#utility.yul\":7461:7470   */\n      dup8\n        /* \"#utility.yul\":7457:7479   */\n      add\n        /* \"#utility.yul\":7436:7489   */\n      tag_430\n      jump\t// in\n    tag_572:\n        /* \"#utility.yul\":7426:7489   */\n      swap3\n      pop\n        /* \"#utility.yul\":7381:7499   */\n      pop\n        /* \"#utility.yul\":7538:7540   */\n      0x40\n        /* \"#utility.yul\":7564:7617   */\n      tag_573\n        /* \"#utility.yul\":7609:7616   */\n      dup7\n        /* \"#utility.yul\":7600:7606   */\n      dup3\n        /* \"#utility.yul\":7589:7598   */\n      dup8\n        /* \"#utility.yul\":7585:7607   */\n      add\n        /* \"#utility.yul\":7564:7617   */\n      tag_426\n      jump\t// in\n    tag_573:\n        /* \"#utility.yul\":7554:7617   */\n      swap2\n      pop\n        /* \"#utility.yul\":7509:7627   */\n      pop\n        /* \"#utility.yul\":7015:7634   */\n      swap3\n      pop\n      swap3\n      pop\n      swap3\n      jump\t// out\n        /* \"#utility.yul\":7640:7726   */\n    tag_448:\n        /* \"#utility.yul\":7675:7682   */\n      0x00\n        /* \"#utility.yul\":7715:7719   */\n      0xff\n        /* \"#utility.yul\":7708:7713   */\n      dup3\n        /* \"#utility.yul\":7704:7720   */\n      and\n        /* \"#utility.yul\":7693:7720   */\n      swap1\n      pop\n        /* \"#utility.yul\":7640:7726   */\n      swap2\n      swap1\n      pop\n      jump\t// out\n        /* \"#utility.yul\":7732:7844   */\n    tag_449:\n        /* \"#utility.yul\":7815:7837   */\n      tag_576\n        /* \"#utility.yul\":7831:7836   */\n      dup2\n        /* \"#utility.yul\":7815:7837   */\n      tag_448\n      jump\t// in\n    tag_576:\n        /* \"#utility.yul\":7810:7813   */\n      dup3\n        /* \"#utility.yul\":7803:7838   */\n      mstore\n        /* \"#utility.yul\":7732:7844   */\n      pop\n      pop\n      jump\t// out\n        /* \"#utility.yul\":7850:8064   */\n    tag_64:\n        /* \"#utility.yul\":7939:7943   */\n      0x00\n        /* \"#utility.yul\":7977:7979   */\n      0x20\n        /* \"#utility.yul\":7966:7975   */\n      dup3\n        /* \"#utility.yul\":7962:7980   */\n      add\n        /* \"#utility.yul\":7954:7980   */\n      swap1\n      pop\n        /* \"#utility.yul\":7990:8057   */\n      tag_578\n        /* \"#utility.yul\":8054:8055   */\n      0x00\n        /* \"#utility.yul\":8043:8052   */\n      dup4\n        /* \"#utility.yul\":8039:8056   */\n      add\n        /* \"#utility.yul\":8030:8036   */\n      dup5\n        /* \"#utility.yul\":7990:8057   */\n      tag_449\n      jump\t// in\n    tag_578:\n        /* \"#utility.yul\":7850:8064   */\n      swap3\n      swap2\n      pop\n      pop\n      jump\t// out\n        /* \"#utility.yul\":8070:8544   */\n    tag_67:\n        /* \"#utility.yul\":8138:8144   */\n      0x00\n        /* \"#utility.yul\":8146:8152   */\n      dup1\n        /* \"#utility.yul\":8195:8197   */\n      0x40\n        /* \"#utility.yul\":8183:8192   */\n      dup4\n        /* \"#utility.yul\":8174:8181   */\n      dup6\n        /* \"#utility.yul\":8170:8193   */\n      sub\n        /* \"#utility.yul\":8166:8198   */\n      slt\n        /* \"#utility.yul\":8163:8282   */\n      iszero\n      tag_580\n      jumpi\n        /* \"#utility.yul\":8201:8280   */\n      tag_581\n      tag_422\n      jump\t// in\n    tag_581:\n        /* \"#utility.yul\":8163:8282   */\n    tag_580:\n        /* \"#utility.yul\":8321:8322   */\n      0x00\n        /* \"#utility.yul\":8346:8399   */\n      tag_582\n        /* \"#utility.yul\":8391:8398   */\n      dup6\n        /* \"#utility.yul\":8382:8388   */\n      dup3\n        /* \"#utility.yul\":8371:8380   */\n      dup7\n        /* \"#utility.yul\":8367:8389   */\n      add\n        /* \"#utility.yul\":8346:8399   */\n      tag_430\n      jump\t// in\n    tag_582:\n        /* \"#utility.yul\":8336:8399   */\n      swap3\n      pop\n        /* \"#utility.yul\":8292:8409   */\n      pop\n        /* \"#utility.yul\":8448:8450   */\n      0x20\n        /* \"#utility.yul\":8474:8527   */\n      tag_583\n        /* \"#utility.yul\":8519:8526   */\n      dup6\n        /* \"#utility.yul\":8510:8516   */\n      dup3\n        /* \"#utility.yul\":8499:8508   */\n      dup7\n        /* \"#utility.yul\":8495:8517   */\n      add\n        /* \"#utility.yul\":8474:8527   */\n      tag_430\n      jump\t// in\n    tag_583:\n        /* \"#utility.yul\":8464:8527   */\n      swap2\n      pop\n        /* \"#utility.yul\":8419:8537   */\n      pop\n        /* \"#utility.yul\":8070:8544   */\n      swap3\n      pop\n      swap3\n      swap1\n      pop\n      jump\t// out\n        /* \"#utility.yul\":8550:8879   */\n    tag_77:\n        /* \"#utility.yul\":8609:8615   */\n      0x00\n        /* \"#utility.yul\":8658:8660   */\n      0x20\n        /* \"#utility.yul\":8646:8655   */\n      dup3\n        /* \"#utility.yul\":8637:8644   */\n      dup5\n        /* \"#utility.yul\":8633:8656   */\n      sub\n        /* \"#utility.yul\":8629:8661   */\n      slt\n        /* \"#utility.yul\":8626:8745   */\n      iszero\n      tag_585\n      jumpi\n        /* \"#utility.yul\":8664:8743   */\n      tag_586\n      tag_422\n      jump\t// in\n    tag_586:\n        /* \"#utility.yul\":8626:8745   */\n    tag_585:\n        /* \"#utility.yul\":8784:8785   */\n      0x00\n        /* \"#utility.yul\":8809:8862   */\n      tag_587\n        /* \"#utility.yul\":8854:8861   */\n      dup5\n        /* \"#utility.yul\":8845:8851   */\n      dup3\n        /* \"#utility.yul\":8834:8843   */\n      dup6\n        /* \"#utility.yul\":8830:8852   */\n      add\n        /* \"#utility.yul\":8809:8862   */\n      tag_430\n      jump\t// in\n    tag_587:\n        /* \"#utility.yul\":8799:8862   */\n      swap2\n      pop\n        /* \"#utility.yul\":8755:8872   */\n      pop\n        /* \"#utility.yul\":8550:8879   */\n      swap3\n      swap2\n      pop\n      pop\n      jump\t// out\n        /* \"#utility.yul\":8885:9217   */\n    tag_95:\n        /* \"#utility.yul\":9006:9010   */\n      0x00\n        /* \"#utility.yul\":9044:9046   */\n      0x40\n        /* \"#utility.yul\":9033:9042   */\n      dup3\n        /* \"#utility.yul\":9029:9047   */\n      add\n        /* \"#utility.yul\":9021:9047   */\n      swap1\n      pop\n        /* \"#utility.yul\":9057:9128   */\n      tag_589\n        /* \"#utility.yul\":9125:9126   */\n      0x00\n        /* \"#utility.yul\":9114:9123   */\n      dup4\n        /* \"#utility.yul\":9110:9127   */\n      add\n        /* \"#utility.yul\":9101:9107   */\n      dup6\n        /* \"#utility.yul\":9057:9128   */\n      tag_447\n      jump\t// in\n    tag_589:\n        /* \"#utility.yul\":9138:9210   */\n      tag_590\n        /* \"#utility.yul\":9206:9208   */\n      0x20\n        /* \"#utility.yul\":9195:9204   */\n      dup4\n        /* \"#utility.yul\":9191:9209   */\n      add\n        /* \"#utility.yul\":9182:9188   */\n      dup5\n        /* \"#utility.yul\":9138:9210   */\n      tag_447\n      jump\t// in\n    tag_590:\n        /* \"#utility.yul\":8885:9217   */\n      swap4\n      swap3\n      pop\n      pop\n      pop\n      jump\t// out\n        /* \"#utility.yul\":9223:9379   */\n    tag_450:\n        /* \"#utility.yul\":9363:9371   */\n      0x4c4f434b45440000000000000000000000000000000000000000000000000000\n        /* \"#utility.yul\":9359:9360   */\n      0x00\n        /* \"#utility.yul\":9351:9357   */\n      dup3\n        /* \"#utility.yul\":9347:9361   */\n      add\n        /* \"#utility.yul\":9340:9372   */\n      mstore\n        /* \"#utility.yul\":9223:9379   */\n      pop\n      jump\t// out\n        /* \"#utility.yul\":9385:9750   */\n    tag_451:\n        /* \"#utility.yul\":9527:9530   */\n      0x00\n        /* \"#utility.yul\":9548:9614   */\n      tag_593\n        /* \"#utility.yul\":9612:9613   */\n      0x06\n        /* \"#utility.yul\":9607:9610   */\n      dup4\n        /* \"#utility.yul\":9548:9614   */\n      tag_436\n      jump\t// in\n    tag_593:\n        /* \"#utility.yul\":9541:9614   */\n      swap2\n      pop\n        /* \"#utility.yul\":9623:9716   */\n      tag_594\n        /* \"#utility.yul\":9712:9715   */\n      dup3\n        /* \"#utility.yul\":9623:9716   */\n      tag_450\n      jump\t// in\n    tag_594:\n        /* \"#utility.yul\":9741:9743   */\n      0x20\n        /* \"#utility.yul\":9736:9739   */\n      dup3\n        /* \"#utility.yul\":9732:9744   */\n      add\n        /* \"#utility.yul\":9725:9744   */\n      swap1\n      pop\n        /* \"#utility.yul\":9385:9750   */\n      swap2\n      swap1\n      pop\n      jump\t// out\n        /* \"#utility.yul\":9756:10175   */\n    tag_124:\n        /* \"#utility.yul\":9922:9926   */\n      0x00\n        /* \"#utility.yul\":9960:9962   */\n      0x20\n        /* \"#utility.yul\":9949:9958   */\n      dup3\n        /* \"#utility.yul\":9945:9963   */\n      add\n        /* \"#utility.yul\":9937:9963   */\n      swap1\n      pop\n        /* \"#utility.yul\":10009:10018   */\n      dup2\n        /* \"#utility.yul\":10003:10007   */\n      dup2\n        /* \"#utility.yul\":9999:10019   */\n      sub\n        /* \"#utility.yul\":9995:9996   */\n      0x00\n        /* \"#utility.yul\":9984:9993   */\n      dup4\n        /* \"#utility.yul\":9980:9997   */\n      add\n        /* \"#utility.yul\":9973:10020   */\n      mstore\n        /* \"#utility.yul\":10037:10168   */\n      tag_596\n        /* \"#utility.yul\":10163:10167   */\n      dup2\n        /* \"#utility.yul\":10037:10168   */\n      tag_451\n      jump\t// in\n    tag_596:\n        /* \"#utility.yul\":10029:10168   */\n      swap1\n      pop\n        /* \"#utility.yul\":9756:10175   */\n      swap2\n      swap1\n      pop\n      jump\t// out\n        /* \"#utility.yul\":10181:10357   */\n    tag_452:\n        /* \"#utility.yul\":10321:10349   */\n      0x494e53554646494349454e545f4f55545055545f414d4f554e54000000000000\n        /* \"#utility.yul\":10317:10318   */\n      0x00\n        /* \"#utility.yul\":10309:10315   */\n      dup3\n        /* \"#utility.yul\":10305:10319   */\n      add\n        /* \"#utility.yul\":10298:10350   */\n      mstore\n        /* \"#utility.yul\":10181:10357   */\n      pop\n      jump\t// out\n        /* \"#utility.yul\":10363:10729   */\n    tag_453:\n        /* \"#utility.yul\":10505:10508   */\n      0x00\n        /* \"#utility.yul\":10526:10593   */\n      tag_599\n        /* \"#utility.yul\":10590:10592   */\n      0x1a\n        /* \"#utility.yul\":10585:10588   */\n      dup4\n        /* \"#utility.yul\":10526:10593   */\n      tag_436\n      jump\t// in\n    tag_599:\n        /* \"#utility.yul\":10519:10593   */\n      swap2\n      pop\n        /* \"#utility.yul\":10602:10695   */\n      tag_600\n        /* \"#utility.yul\":10691:10694   */\n      dup3\n        /* \"#utility.yul\":10602:10695   */\n      tag_452\n      jump\t// in\n    tag_600:\n        /* \"#utility.yul\":10720:10722   */\n      0x20\n        /* \"#utility.yul\":10715:10718   */\n      dup3\n        /* \"#utility.yul\":10711:10723   */\n      add\n        /* \"#utility.yul\":10704:10723   */\n      swap1\n      pop\n        /* \"#utility.yul\":10363:10729   */\n      swap2\n      swap1\n      pop\n      jump\t// out\n        /* \"#utility.yul\":10735:11154   */\n    tag_129:\n        /* \"#utility.yul\":10901:10905   */\n      0x00\n        /* \"#utility.yul\":10939:10941   */\n      0x20\n        /* \"#utility.yul\":10928:10937   */\n      dup3\n        /* \"#utility.yul\":10924:10942   */\n      add\n        /* \"#utility.yul\":10916:10942   */\n      swap1\n      pop\n        /* \"#utility.yul\":10988:10997   */\n      dup2\n        /* \"#utility.yul\":10982:10986   */\n      dup2\n        /* \"#utility.yul\":10978:10998   */\n      sub\n        /* \"#utility.yul\":10974:10975   */\n      0x00\n        /* \"#utility.yul\":10963:10972   */\n      dup4\n        /* \"#utility.yul\":10959:10976   */\n      add\n        /* \"#utility.yul\":10952:10999   */\n      mstore\n        /* \"#utility.yul\":11016:11147   */\n      tag_602\n        /* \"#utility.yul\":11142:11146   */\n      dup2\n        /* \"#utility.yul\":11016:11147   */\n      tag_453\n      jump\t// in\n    tag_602:\n        /* \"#utility.yul\":11008:11147   */\n      swap1\n      pop\n        /* \"#utility.yul\":10735:11154   */\n      swap2\n      swap1\n      pop\n      jump\t// out\n        /* \"#utility.yul\":11160:11332   */\n    tag_454:\n        /* \"#utility.yul\":11300:11324   */\n      0x494e53554646494349454e545f4c495155494449545900000000000000000000\n        /* \"#utility.yul\":11296:11297   */\n      0x00\n        /* \"#utility.yul\":11288:11294   */\n      dup3\n        /* \"#utility.yul\":11284:11298   */\n      add\n        /* \"#utility.yul\":11277:11325   */\n      mstore\n        /* \"#utility.yul\":11160:11332   */\n      pop\n      jump\t// out\n        /* \"#utility.yul\":11338:11704   */\n    tag_455:\n        /* \"#utility.yul\":11480:11483   */\n      0x00\n        /* \"#utility.yul\":11501:11568   */\n      tag_605\n        /* \"#utility.yul\":11565:11567   */\n      0x16\n        /* \"#utility.yul\":11560:11563   */\n      dup4\n        /* \"#utility.yul\":11501:11568   */\n      tag_436\n      jump\t// in\n    tag_605:\n        /* \"#utility.yul\":11494:11568   */\n      swap2\n      pop\n        /* \"#utility.yul\":11577:11670   */\n      tag_606\n        /* \"#utility.yul\":11666:11669   */\n      dup3\n        /* \"#utility.yul\":11577:11670   */\n      tag_454\n      jump\t// in\n    tag_606:\n        /* \"#utility.yul\":11695:11697   */\n      0x20\n        /* \"#utility.yul\":11690:11693   */\n      dup3\n        /* \"#utility.yul\":11686:11698   */\n      add\n        /* \"#utility.yul\":11679:11698   */\n      swap1\n      pop\n        /* \"#utility.yul\":11338:11704   */\n      swap2\n      swap1\n      pop\n      jump\t// out\n        /* \"#utility.yul\":11710:12129   */\n    tag_134:\n        /* \"#utility.yul\":11876:11880   */\n      0x00\n        /* \"#utility.yul\":11914:11916   */\n      0x20\n        /* \"#utility.yul\":11903:11912   */\n      dup3\n        /* \"#utility.yul\":11899:11917   */\n      add\n        /* \"#utility.yul\":11891:11917   */\n      swap1\n      pop\n        /* \"#utility.yul\":11963:11972   */\n      dup2\n        /* \"#utility.yul\":11957:11961   */\n      dup2\n        /* \"#utility.yul\":11953:11973   */\n      sub\n        /* \"#utility.yul\":11949:11950   */\n      0x00\n        /* \"#utility.yul\":11938:11947   */\n      dup4\n        /* \"#utility.yul\":11934:11951   */\n      add\n        /* \"#utility.yul\":11927:11974   */\n      mstore\n        /* \"#utility.yul\":11991:12122   */\n      tag_608\n        /* \"#utility.yul\":12117:12121   */\n      dup2\n        /* \"#utility.yul\":11991:12122   */\n      tag_455\n      jump\t// in\n    tag_608:\n        /* \"#utility.yul\":11983:12122   */\n      swap1\n      pop\n        /* \"#utility.yul\":11710:12129   */\n      swap2\n      swap1\n      pop\n      jump\t// out\n        /* \"#utility.yul\":12135:12295   */\n    tag_456:\n        /* \"#utility.yul\":12275:12287   */\n      0x494e56414c49445f544f00000000000000000000000000000000000000000000\n        /* \"#utility.yul\":12271:12272   */\n      0x00\n        /* \"#utility.yul\":12263:12269   */\n      dup3\n        /* \"#utility.yul\":12259:12273   */\n      add\n        /* \"#utility.yul\":12252:12288   */\n      mstore\n        /* \"#utility.yul\":12135:12295   */\n      pop\n      jump\t// out\n        /* \"#utility.yul\":12301:12667   */\n    tag_457:\n        /* \"#utility.yul\":12443:12446   */\n      0x00\n        /* \"#utility.yul\":12464:12531   */\n      tag_611\n        /* \"#utility.yul\":12528:12530   */\n      0x0a\n        /* \"#utility.yul\":12523:12526   */\n      dup4\n        /* \"#utility.yul\":12464:12531   */\n      tag_436\n      jump\t// in\n    tag_611:\n        /* \"#utility.yul\":12457:12531   */\n      swap2\n      pop\n        /* \"#utility.yul\":12540:12633   */\n      tag_612\n        /* \"#utility.yul\":12629:12632   */\n      dup3\n        /* \"#utility.yul\":12540:12633   */\n      tag_456\n      jump\t// in\n    tag_612:\n        /* \"#utility.yul\":12658:12660   */\n      0x20\n        /* \"#utility.yul\":12653:12656   */\n      dup3\n        /* \"#utility.yul\":12649:12661   */\n      add\n        /* \"#utility.yul\":12642:12661   */\n      swap1\n      pop\n        /* \"#utility.yul\":12301:12667   */\n      swap2\n      swap1\n      pop\n      jump\t// out\n        /* \"#utility.yul\":12673:13092   */\n    tag_138:\n        /* \"#utility.yul\":12839:12843   */\n      0x00\n        /* \"#utility.yul\":12877:12879   */\n      0x20\n        /* \"#utility.yul\":12866:12875   */\n      dup3\n        /* \"#utility.yul\":12862:12880   */\n      add\n        /* \"#utility.yul\":12854:12880   */\n      swap1\n      pop\n        /* \"#utility.yul\":12926:12935   */\n      dup2\n        /* \"#utility.yul\":12920:12924   */\n      dup2\n        /* \"#utility.yul\":12916:12936   */\n      sub\n        /* \"#utility.yul\":12912:12913   */\n      0x00\n        /* \"#utility.yul\":12901:12910   */\n      dup4\n        /* \"#utility.yul\":12897:12914   */\n      add\n        /* \"#utility.yul\":12890:12937   */\n      mstore\n        /* \"#utility.yul\":12954:13085   */\n      tag_614\n        /* \"#utility.yul\":13080:13084   */\n      dup2\n        /* \"#utility.yul\":12954:13085   */\n      tag_457\n      jump\t// in\n    tag_614:\n        /* \"#utility.yul\":12946:13085   */\n      swap1\n      pop\n        /* \"#utility.yul\":12673:13092   */\n      swap2\n      swap1\n      pop\n      jump\t// out\n        /* \"#utility.yul\":13098:13241   */\n    tag_458:\n        /* \"#utility.yul\":13155:13160   */\n      0x00\n        /* \"#utility.yul\":13186:13192   */\n      dup2\n        /* \"#utility.yul\":13180:13193   */\n      mload\n        /* \"#utility.yul\":13171:13193   */\n      swap1\n      pop\n        /* \"#utility.yul\":13202:13235   */\n      tag_616\n        /* \"#utility.yul\":13229:13234   */\n      dup2\n        /* \"#utility.yul\":13202:13235   */\n      tag_425\n      jump\t// in\n    tag_616:\n        /* \"#utility.yul\":13098:13241   */\n      swap3\n      swap2\n      pop\n      pop\n      jump\t// out\n        /* \"#utility.yul\":13247:13598   */\n    tag_148:\n        /* \"#utility.yul\":13317:13323   */\n      0x00\n        /* \"#utility.yul\":13366:13368   */\n      0x20\n        /* \"#utility.yul\":13354:13363   */\n      dup3\n        /* \"#utility.yul\":13345:13352   */\n      dup5\n        /* \"#utility.yul\":13341:13364   */\n      sub\n        /* \"#utility.yul\":13337:13369   */\n      slt\n        /* \"#utility.yul\":13334:13453   */\n      iszero\n      tag_618\n      jumpi\n        /* \"#utility.yul\":13372:13451   */\n      tag_619\n      tag_422\n      jump\t// in\n    tag_619:\n        /* \"#utility.yul\":13334:13453   */\n    tag_618:\n        /* \"#utility.yul\":13492:13493   */\n      0x00\n        /* \"#utility.yul\":13517:13581   */\n      tag_620\n        /* \"#utility.yul\":13573:13580   */\n      dup5\n        /* \"#utility.yul\":13564:13570   */\n      dup3\n        /* \"#utility.yul\":13553:13562   */\n      dup6\n        /* \"#utility.yul\":13549:13571   */\n      add\n        /* \"#utility.yul\":13517:13581   */\n      tag_458\n      jump\t// in\n    tag_620:\n        /* \"#utility.yul\":13507:13581   */\n      swap2\n      pop\n        /* \"#utility.yul\":13463:13591   */\n      pop\n        /* \"#utility.yul\":13247:13598   */\n      swap3\n      swap2\n      pop\n      pop\n      jump\t// out\n        /* \"#utility.yul\":13604:13784   */\n    tag_459:\n        /* \"#utility.yul\":13652:13729   */\n      0x4e487b7100000000000000000000000000000000000000000000000000000000\n        /* \"#utility.yul\":13649:13650   */\n      0x00\n        /* \"#utility.yul\":13642:13730   */\n      mstore\n        /* \"#utility.yul\":13749:13753   */\n      0x11\n        /* \"#utility.yul\":13746:13747   */\n      0x04\n        /* \"#utility.yul\":13739:13754   */\n      mstore\n        /* \"#utility.yul\":13773:13777   */\n      0x24\n        /* \"#utility.yul\":13770:13771   */\n      0x00\n        /* \"#utility.yul\":13763:13778   */\n      revert\n        /* \"#utility.yul\":13790:13981   */\n    tag_154:\n        /* \"#utility.yul\":13830:13834   */\n      0x00\n        /* \"#utility.yul\":13850:13870   */\n      tag_623\n        /* \"#utility.yul\":13868:13869   */\n      dup3\n        /* \"#utility.yul\":13850:13870   */\n      tag_424\n      jump\t// in\n    tag_623:\n        /* \"#utility.yul\":13845:13870   */\n      swap2\n      pop\n        /* \"#utility.yul\":13884:13904   */\n      tag_624\n        /* \"#utility.yul\":13902:13903   */\n      dup4\n        /* \"#utility.yul\":13884:13904   */\n      tag_424\n      jump\t// in\n    tag_624:\n        /* \"#utility.yul\":13879:13904   */\n      swap3\n      pop\n        /* \"#utility.yul\":13923:13924   */\n      dup3\n        /* \"#utility.yul\":13920:13921   */\n      dup3\n        /* \"#utility.yul\":13917:13925   */\n      lt\n        /* \"#utility.yul\":13914:13948   */\n      iszero\n      tag_625\n      jumpi\n        /* \"#utility.yul\":13928:13946   */\n      tag_626\n      tag_459\n      jump\t// in\n    tag_626:\n        /* \"#utility.yul\":13914:13948   */\n    tag_625:\n        /* \"#utility.yul\":13973:13974   */\n      dup3\n        /* \"#utility.yul\":13970:13971   */\n      dup3\n        /* \"#utility.yul\":13966:13975   */\n      sub\n        /* \"#utility.yul\":13958:13975   */\n      swap1\n      pop\n        /* \"#utility.yul\":13790:13981   */\n      swap3\n      swap2\n      pop\n      pop\n      jump\t// out\n        /* \"#utility.yul\":13987:14162   */\n    tag_460:\n        /* \"#utility.yul\":14127:14154   */\n      0x494e53554646494349454e545f494e5055545f414d4f554e5400000000000000\n        /* \"#utility.yul\":14123:14124   */\n      0x00\n        /* \"#utility.yul\":14115:14121   */\n      dup3\n        /* \"#utility.yul\":14111:14125   */\n      add\n        /* \"#utility.yul\":14104:14155   */\n      mstore\n        /* \"#utility.yul\":13987:14162   */\n      pop\n      jump\t// out\n        /* \"#utility.yul\":14168:14534   */\n    tag_461:\n        /* \"#utility.yul\":14310:14313   */\n      0x00\n        /* \"#utility.yul\":14331:14398   */\n      tag_629\n        /* \"#utility.yul\":14395:14397   */\n      0x19\n        /* \"#utility.yul\":14390:14393   */\n      dup4\n        /* \"#utility.yul\":14331:14398   */\n      tag_436\n      jump\t// in\n    tag_629:\n        /* \"#utility.yul\":14324:14398   */\n      swap2\n      pop\n        /* \"#utility.yul\":14407:14500   */\n      tag_630\n        /* \"#utility.yul\":14496:14499   */\n      dup3\n        /* \"#utility.yul\":14407:14500   */\n      tag_460\n      jump\t// in\n    tag_630:\n        /* \"#utility.yul\":14525:14527   */\n      0x20\n        /* \"#utility.yul\":14520:14523   */\n      dup3\n        /* \"#utility.yul\":14516:14528   */\n      add\n        /* \"#utility.yul\":14509:14528   */\n      swap1\n      pop\n        /* \"#utility.yul\":14168:14534   */\n      swap2\n      swap1\n      pop\n      jump\t// out\n        /* \"#utility.yul\":14540:14959   */\n    tag_167:\n        /* \"#utility.yul\":14706:14710   */\n      0x00\n        /* \"#utility.yul\":14744:14746   */\n      0x20\n        /* \"#utility.yul\":14733:14742   */\n      dup3\n        /* \"#utility.yul\":14729:14747   */\n      add\n        /* \"#utility.yul\":14721:14747   */\n      swap1\n      pop\n        /* \"#utility.yul\":14793:14802   */\n      dup2\n        /* \"#utility.yul\":14787:14791   */\n      dup2\n        /* \"#utility.yul\":14783:14803   */\n      sub\n        /* \"#utility.yul\":14779:14780   */\n      0x00\n        /* \"#utility.yul\":14768:14777   */\n      dup4\n        /* \"#utility.yul\":14764:14781   */\n      add\n        /* \"#utility.yul\":14757:14804   */\n      mstore\n        /* \"#utility.yul\":14821:14952   */\n      tag_632\n        /* \"#utility.yul\":14947:14951   */\n      dup2\n        /* \"#utility.yul\":14821:14952   */\n      tag_461\n      jump\t// in\n    tag_632:\n        /* \"#utility.yul\":14813:14952   */\n      swap1\n      pop\n        /* \"#utility.yul\":14540:14959   */\n      swap2\n      swap1\n      pop\n      jump\t// out\n        /* \"#utility.yul\":14965:15117   */\n    tag_462:\n        /* \"#utility.yul\":15105:15109   */\n      0x204b000000000000000000000000000000000000000000000000000000000000\n        /* \"#utility.yul\":15101:15102   */\n      0x00\n        /* \"#utility.yul\":15093:15099   */\n      dup3\n        /* \"#utility.yul\":15089:15103   */\n      add\n        /* \"#utility.yul\":15082:15110   */\n      mstore\n        /* \"#utility.yul\":14965:15117   */\n      pop\n      jump\t// out\n        /* \"#utility.yul\":15123:15488   */\n    tag_463:\n        /* \"#utility.yul\":15265:15268   */\n      0x00\n        /* \"#utility.yul\":15286:15352   */\n      tag_635\n        /* \"#utility.yul\":15350:15351   */\n      0x02\n        /* \"#utility.yul\":15345:15348   */\n      dup4\n        /* \"#utility.yul\":15286:15352   */\n      tag_436\n      jump\t// in\n    tag_635:\n        /* \"#utility.yul\":15279:15352   */\n      swap2\n      pop\n        /* \"#utility.yul\":15361:15454   */\n      tag_636\n        /* \"#utility.yul\":15450:15453   */\n      dup3\n        /* \"#utility.yul\":15361:15454   */\n      tag_462\n      jump\t// in\n    tag_636:\n        /* \"#utility.yul\":15479:15481   */\n      0x20\n        /* \"#utility.yul\":15474:15477   */\n      dup3\n        /* \"#utility.yul\":15470:15482   */\n      add\n        /* \"#utility.yul\":15463:15482   */\n      swap1\n      pop\n        /* \"#utility.yul\":15123:15488   */\n      swap2\n      swap1\n      pop\n      jump\t// out\n        /* \"#utility.yul\":15494:15913   */\n    tag_181:\n        /* \"#utility.yul\":15660:15664   */\n      0x00\n        /* \"#utility.yul\":15698:15700   */\n      0x20\n        /* \"#utility.yul\":15687:15696   */\n      dup3\n        /* \"#utility.yul\":15683:15701   */\n      add\n        /* \"#utility.yul\":15675:15701   */\n      swap1\n      pop\n        /* \"#utility.yul\":15747:15756   */\n      dup2\n        /* \"#utility.yul\":15741:15745   */\n      dup2\n        /* \"#utility.yul\":15737:15757   */\n      sub\n        /* \"#utility.yul\":15733:15734   */\n      0x00\n        /* \"#utility.yul\":15722:15731   */\n      dup4\n        /* \"#utility.yul\":15718:15735   */\n      add\n        /* \"#utility.yul\":15711:15758   */\n      mstore\n        /* \"#utility.yul\":15775:15906   */\n      tag_638\n        /* \"#utility.yul\":15901:15905   */\n      dup2\n        /* \"#utility.yul\":15775:15906   */\n      tag_463\n      jump\t// in\n    tag_638:\n        /* \"#utility.yul\":15767:15906   */\n      swap1\n      pop\n        /* \"#utility.yul\":15494:15913   */\n      swap2\n      swap1\n      pop\n      jump\t// out\n        /* \"#utility.yul\":15919:16472   */\n    tag_185:\n        /* \"#utility.yul\":16096:16100   */\n      0x00\n        /* \"#utility.yul\":16134:16137   */\n      0x80\n        /* \"#utility.yul\":16123:16132   */\n      dup3\n        /* \"#utility.yul\":16119:16138   */\n      add\n        /* \"#utility.yul\":16111:16138   */\n      swap1\n      pop\n        /* \"#utility.yul\":16148:16219   */\n      tag_640\n        /* \"#utility.yul\":16216:16217   */\n      0x00\n        /* \"#utility.yul\":16205:16214   */\n      dup4\n        /* \"#utility.yul\":16201:16218   */\n      add\n        /* \"#utility.yul\":16192:16198   */\n      dup8\n        /* \"#utility.yul\":16148:16219   */\n      tag_447\n      jump\t// in\n    tag_640:\n        /* \"#utility.yul\":16229:16301   */\n      tag_641\n        /* \"#utility.yul\":16297:16299   */\n      0x20\n        /* \"#utility.yul\":16286:16295   */\n      dup4\n        /* \"#utility.yul\":16282:16300   */\n      add\n        /* \"#utility.yul\":16273:16279   */\n      dup7\n        /* \"#utility.yul\":16229:16301   */\n      tag_447\n      jump\t// in\n    tag_641:\n        /* \"#utility.yul\":16311:16383   */\n      tag_642\n        /* \"#utility.yul\":16379:16381   */\n      0x40\n        /* \"#utility.yul\":16368:16377   */\n      dup4\n        /* \"#utility.yul\":16364:16382   */\n      add\n        /* \"#utility.yul\":16355:16361   */\n      dup6\n        /* \"#utility.yul\":16311:16383   */\n      tag_447\n      jump\t// in\n    tag_642:\n        /* \"#utility.yul\":16393:16465   */\n      tag_643\n        /* \"#utility.yul\":16461:16463   */\n      0x60\n        /* \"#utility.yul\":16450:16459   */\n      dup4\n        /* \"#utility.yul\":16446:16464   */\n      add\n        /* \"#utility.yul\":16437:16443   */\n      dup5\n        /* \"#utility.yul\":16393:16465   */\n      tag_447\n      jump\t// in\n    tag_643:\n        /* \"#utility.yul\":15919:16472   */\n      swap6\n      swap5\n      pop\n      pop\n      pop\n      pop\n      pop\n      jump\t// out\n        /* \"#utility.yul\":16478:16637   */\n    tag_464:\n        /* \"#utility.yul\":16618:16629   */\n      0x464f5242494444454e0000000000000000000000000000000000000000000000\n        /* \"#utility.yul\":16614:16615   */\n      0x00\n        /* \"#utility.yul\":16606:16612   */\n      dup3\n        /* \"#utility.yul\":16602:16616   */\n      add\n        /* \"#utility.yul\":16595:16630   */\n      mstore\n        /* \"#utility.yul\":16478:16637   */\n      pop\n      jump\t// out\n        /* \"#utility.yul\":16643:17008   */\n    tag_465:\n        /* \"#utility.yul\":16785:16788   */\n      0x00\n        /* \"#utility.yul\":16806:16872   */\n      tag_646\n        /* \"#utility.yul\":16870:16871   */\n      0x09\n        /* \"#utility.yul\":16865:16868   */\n      dup4\n        /* \"#utility.yul\":16806:16872   */\n      tag_436\n      jump\t// in\n    tag_646:\n        /* \"#utility.yul\":16799:16872   */\n      swap2\n      pop\n        /* \"#utility.yul\":16881:16974   */\n      tag_647\n        /* \"#utility.yul\":16970:16973   */\n      dup3\n        /* \"#utility.yul\":16881:16974   */\n      tag_464\n      jump\t// in\n    tag_647:\n        /* \"#utility.yul\":16999:17001   */\n      0x20\n        /* \"#utility.yul\":16994:16997   */\n      dup3\n        /* \"#utility.yul\":16990:17002   */\n      add\n        /* \"#utility.yul\":16983:17002   */\n      swap1\n      pop\n        /* \"#utility.yul\":16643:17008   */\n      swap2\n      swap1\n      pop\n      jump\t// out\n        /* \"#utility.yul\":17014:17433   */\n    tag_198:\n        /* \"#utility.yul\":17180:17184   */\n      0x00\n        /* \"#utility.yul\":17218:17220   */\n      0x20\n        /* \"#utility.yul\":17207:17216   */\n      dup3\n        /* \"#utility.yul\":17203:17221   */\n      add\n        /* \"#utility.yul\":17195:17221   */\n      swap1\n      pop\n        /* \"#utility.yul\":17267:17276   */\n      dup2\n        /* \"#utility.yul\":17261:17265   */\n      dup2\n        /* \"#utility.yul\":17257:17277   */\n      sub\n        /* \"#utility.yul\":17253:17254   */\n      0x00\n        /* \"#utility.yul\":17242:17251   */\n      dup4\n        /* \"#utility.yul\":17238:17255   */\n      add\n        /* \"#utility.yul\":17231:17278   */\n      mstore\n        /* \"#utility.yul\":17295:17426   */\n      tag_649\n        /* \"#utility.yul\":17421:17425   */\n      dup2\n        /* \"#utility.yul\":17295:17426   */\n      tag_465\n      jump\t// in\n    tag_649:\n        /* \"#utility.yul\":17287:17426   */\n      swap1\n      pop\n        /* \"#utility.yul\":17014:17433   */\n      swap2\n      swap1\n      pop\n      jump\t// out\n        /* \"#utility.yul\":17439:17619   */\n    tag_466:\n        /* \"#utility.yul\":17487:17564   */\n      0x4e487b7100000000000000000000000000000000000000000000000000000000\n        /* \"#utility.yul\":17484:17485   */\n      0x00\n        /* \"#utility.yul\":17477:17565   */\n      mstore\n        /* \"#utility.yul\":17584:17588   */\n      0x12\n        /* \"#utility.yul\":17581:17582   */\n      0x04\n        /* \"#utility.yul\":17574:17589   */\n      mstore\n        /* \"#utility.yul\":17608:17612   */\n      0x24\n        /* \"#utility.yul\":17605:17606   */\n      0x00\n        /* \"#utility.yul\":17598:17613   */\n      revert\n        /* \"#utility.yul\":17625:17810   */\n    tag_227:\n        /* \"#utility.yul\":17665:17666   */\n      0x00\n        /* \"#utility.yul\":17682:17702   */\n      tag_652\n        /* \"#utility.yul\":17700:17701   */\n      dup3\n        /* \"#utility.yul\":17682:17702   */\n      tag_424\n      jump\t// in\n    tag_652:\n        /* \"#utility.yul\":17677:17702   */\n      swap2\n      pop\n        /* \"#utility.yul\":17716:17736   */\n      tag_653\n        /* \"#utility.yul\":17734:17735   */\n      dup4\n        /* \"#utility.yul\":17716:17736   */\n      tag_424\n      jump\t// in\n    tag_653:\n        /* \"#utility.yul\":17711:17736   */\n      swap3\n      pop\n        /* \"#utility.yul\":17755:17756   */\n      dup3\n        /* \"#utility.yul\":17745:17780   */\n      tag_654\n      jumpi\n        /* \"#utility.yul\":17760:17778   */\n      tag_655\n      tag_466\n      jump\t// in\n    tag_655:\n        /* \"#utility.yul\":17745:17780   */\n    tag_654:\n        /* \"#utility.yul\":17802:17803   */\n      dup3\n        /* \"#utility.yul\":17799:17800   */\n      dup3\n        /* \"#utility.yul\":17795:17804   */\n      div\n        /* \"#utility.yul\":17790:17804   */\n      swap1\n      pop\n        /* \"#utility.yul\":17625:17810   */\n      swap3\n      swap2\n      pop\n      pop\n      jump\t// out\n        /* \"#utility.yul\":17816:17996   */\n    tag_467:\n        /* \"#utility.yul\":17956:17988   */\n      0x20494e53554646494349454e545f4c49515549444954595f4d494e5445440000\n        /* \"#utility.yul\":17952:17953   */\n      0x00\n        /* \"#utility.yul\":17944:17950   */\n      dup3\n        /* \"#utility.yul\":17940:17954   */\n      add\n        /* \"#utility.yul\":17933:17989   */\n      mstore\n        /* \"#utility.yul\":17816:17996   */\n      pop\n      jump\t// out\n        /* \"#utility.yul\":18002:18368   */\n    tag_468:\n        /* \"#utility.yul\":18144:18147   */\n      0x00\n        /* \"#utility.yul\":18165:18232   */\n      tag_658\n        /* \"#utility.yul\":18229:18231   */\n      0x1e\n        /* \"#utility.yul\":18224:18227   */\n      dup4\n        /* \"#utility.yul\":18165:18232   */\n      tag_436\n      jump\t// in\n    tag_658:\n        /* \"#utility.yul\":18158:18232   */\n      swap2\n      pop\n        /* \"#utility.yul\":18241:18334   */\n      tag_659\n        /* \"#utility.yul\":18330:18333   */\n      dup3\n        /* \"#utility.yul\":18241:18334   */\n      tag_467\n      jump\t// in\n    tag_659:\n        /* \"#utility.yul\":18359:18361   */\n      0x20\n        /* \"#utility.yul\":18354:18357   */\n      dup3\n        /* \"#utility.yul\":18350:18362   */\n      add\n        /* \"#utility.yul\":18343:18362   */\n      swap1\n      pop\n        /* \"#utility.yul\":18002:18368   */\n      swap2\n      swap1\n      pop\n      jump\t// out\n        /* \"#utility.yul\":18374:18793   */\n    tag_233:\n        /* \"#utility.yul\":18540:18544   */\n      0x00\n        /* \"#utility.yul\":18578:18580   */\n      0x20\n        /* \"#utility.yul\":18567:18576   */\n      dup3\n        /* \"#utility.yul\":18563:18581   */\n      add\n        /* \"#utility.yul\":18555:18581   */\n      swap1\n      pop\n        /* \"#utility.yul\":18627:18636   */\n      dup2\n        /* \"#utility.yul\":18621:18625   */\n      dup2\n        /* \"#utility.yul\":18617:18637   */\n      sub\n        /* \"#utility.yul\":18613:18614   */\n      0x00\n        /* \"#utility.yul\":18602:18611   */\n      dup4\n        /* \"#utility.yul\":18598:18615   */\n      add\n        /* \"#utility.yul\":18591:18638   */\n      mstore\n        /* \"#utility.yul\":18655:18786   */\n      tag_661\n        /* \"#utility.yul\":18781:18785   */\n      dup2\n        /* \"#utility.yul\":18655:18786   */\n      tag_468\n      jump\t// in\n    tag_661:\n        /* \"#utility.yul\":18647:18786   */\n      swap1\n      pop\n        /* \"#utility.yul\":18374:18793   */\n      swap2\n      swap1\n      pop\n      jump\t// out\n        /* \"#utility.yul\":18799:18978   */\n    tag_469:\n        /* \"#utility.yul\":18939:18970   */\n      0x494e53554646494349454e545f4c49515549444954595f4255524e4544000000\n        /* \"#utility.yul\":18935:18936   */\n      0x00\n        /* \"#utility.yul\":18927:18933   */\n      dup3\n        /* \"#utility.yul\":18923:18937   */\n      add\n        /* \"#utility.yul\":18916:18971   */\n      mstore\n        /* \"#utility.yul\":18799:18978   */\n      pop\n      jump\t// out\n        /* \"#utility.yul\":18984:19350   */\n    tag_470:\n        /* \"#utility.yul\":19126:19129   */\n      0x00\n        /* \"#utility.yul\":19147:19214   */\n      tag_664\n        /* \"#utility.yul\":19211:19213   */\n      0x1d\n        /* \"#utility.yul\":19206:19209   */\n      dup4\n        /* \"#utility.yul\":19147:19214   */\n      tag_436\n      jump\t// in\n    tag_664:\n        /* \"#utility.yul\":19140:19214   */\n      swap2\n      pop\n        /* \"#utility.yul\":19223:19316   */\n      tag_665\n        /* \"#utility.yul\":19312:19315   */\n      dup3\n        /* \"#utility.yul\":19223:19316   */\n      tag_469\n      jump\t// in\n    tag_665:\n        /* \"#utility.yul\":19341:19343   */\n      0x20\n        /* \"#utility.yul\":19336:19339   */\n      dup3\n        /* \"#utility.yul\":19332:19344   */\n      add\n        /* \"#utility.yul\":19325:19344   */\n      swap1\n      pop\n        /* \"#utility.yul\":18984:19350   */\n      swap2\n      swap1\n      pop\n      jump\t// out\n        /* \"#utility.yul\":19356:19775   */\n    tag_260:\n        /* \"#utility.yul\":19522:19526   */\n      0x00\n        /* \"#utility.yul\":19560:19562   */\n      0x20\n        /* \"#utility.yul\":19549:19558   */\n      dup3\n        /* \"#utility.yul\":19545:19563   */\n      add\n        /* \"#utility.yul\":19537:19563   */\n      swap1\n      pop\n        /* \"#utility.yul\":19609:19618   */\n      dup2\n        /* \"#utility.yul\":19603:19607   */\n      dup2\n        /* \"#utility.yul\":19599:19619   */\n      sub\n        /* \"#utility.yul\":19595:19596   */\n      0x00\n        /* \"#utility.yul\":19584:19593   */\n      dup4\n        /* \"#utility.yul\":19580:19597   */\n      add\n        /* \"#utility.yul\":19573:19620   */\n      mstore\n        /* \"#utility.yul\":19637:19768   */\n      tag_667\n        /* \"#utility.yul\":19763:19767   */\n      dup2\n        /* \"#utility.yul\":19637:19768   */\n      tag_470\n      jump\t// in\n    tag_667:\n        /* \"#utility.yul\":19629:19768   */\n      swap1\n      pop\n        /* \"#utility.yul\":19356:19775   */\n      swap2\n      swap1\n      pop\n      jump\t// out\n        /* \"#utility.yul\":19781:20113   */\n    tag_310:\n        /* \"#utility.yul\":19902:19906   */\n      0x00\n        /* \"#utility.yul\":19940:19942   */\n      0x40\n        /* \"#utility.yul\":19929:19938   */\n      dup3\n        /* \"#utility.yul\":19925:19943   */\n      add\n        /* \"#utility.yul\":19917:19943   */\n      swap1\n      pop\n        /* \"#utility.yul\":19953:20024   */\n      tag_669\n        /* \"#utility.yul\":20021:20022   */\n      0x00\n        /* \"#utility.yul\":20010:20019   */\n      dup4\n        /* \"#utility.yul\":20006:20023   */\n      add\n        /* \"#utility.yul\":19997:20003   */\n      dup6\n        /* \"#utility.yul\":19953:20024   */\n      tag_446\n      jump\t// in\n    tag_669:\n        /* \"#utility.yul\":20034:20106   */\n      tag_670\n        /* \"#utility.yul\":20102:20104   */\n      0x20\n        /* \"#utility.yul\":20091:20100   */\n      dup4\n        /* \"#utility.yul\":20087:20105   */\n      add\n        /* \"#utility.yul\":20078:20084   */\n      dup5\n        /* \"#utility.yul\":20034:20106   */\n      tag_447\n      jump\t// in\n    tag_670:\n        /* \"#utility.yul\":19781:20113   */\n      swap4\n      swap3\n      pop\n      pop\n      pop\n      jump\t// out\n        /* \"#utility.yul\":20119:20217   */\n    tag_471:\n        /* \"#utility.yul\":20170:20176   */\n      0x00\n        /* \"#utility.yul\":20204:20209   */\n      dup2\n        /* \"#utility.yul\":20198:20210   */\n      mload\n        /* \"#utility.yul\":20188:20210   */\n      swap1\n      pop\n        /* \"#utility.yul\":20119:20217   */\n      swap2\n      swap1\n      pop\n      jump\t// out\n        /* \"#utility.yul\":20223:20370   */\n    tag_472:\n        /* \"#utility.yul\":20324:20335   */\n      0x00\n        /* \"#utility.yul\":20361:20364   */\n      dup2\n        /* \"#utility.yul\":20346:20364   */\n      swap1\n      pop\n        /* \"#utility.yul\":20223:20370   */\n      swap3\n      swap2\n      pop\n      pop\n      jump\t// out\n        /* \"#utility.yul\":20376:20749   */\n    tag_473:\n        /* \"#utility.yul\":20480:20483   */\n      0x00\n        /* \"#utility.yul\":20508:20546   */\n      tag_674\n        /* \"#utility.yul\":20540:20545   */\n      dup3\n        /* \"#utility.yul\":20508:20546   */\n      tag_471\n      jump\t// in\n    tag_674:\n        /* \"#utility.yul\":20562:20650   */\n      tag_675\n        /* \"#utility.yul\":20643:20649   */\n      dup2\n        /* \"#utility.yul\":20638:20641   */\n      dup6\n        /* \"#utility.yul\":20562:20650   */\n      tag_472\n      jump\t// in\n    tag_675:\n        /* \"#utility.yul\":20555:20650   */\n      swap4\n      pop\n        /* \"#utility.yul\":20659:20711   */\n      tag_676\n        /* \"#utility.yul\":20704:20710   */\n      dup2\n        /* \"#utility.yul\":20699:20702   */\n      dup6\n        /* \"#utility.yul\":20692:20696   */\n      0x20\n        /* \"#utility.yul\":20685:20690   */\n      dup7\n        /* \"#utility.yul\":20681:20697   */\n      add\n        /* \"#utility.yul\":20659:20711   */\n      tag_437\n      jump\t// in\n    tag_676:\n        /* \"#utility.yul\":20736:20742   */\n      dup1\n        /* \"#utility.yul\":20731:20734   */\n      dup5\n        /* \"#utility.yul\":20727:20743   */\n      add\n        /* \"#utility.yul\":20720:20743   */\n      swap2\n      pop\n        /* \"#utility.yul\":20484:20749   */\n      pop\n        /* \"#utility.yul\":20376:20749   */\n      swap3\n      swap2\n      pop\n      pop\n      jump\t// out\n        /* \"#utility.yul\":20755:21026   */\n    tag_312:\n        /* \"#utility.yul\":20885:20888   */\n      0x00\n        /* \"#utility.yul\":20907:21000   */\n      tag_678\n        /* \"#utility.yul\":20996:20999   */\n      dup3\n        /* \"#utility.yul\":20987:20993   */\n      dup5\n        /* \"#utility.yul\":20907:21000   */\n      tag_473\n      jump\t// in\n    tag_678:\n        /* \"#utility.yul\":20900:21000   */\n      swap2\n      pop\n        /* \"#utility.yul\":21017:21020   */\n      dup2\n        /* \"#utility.yul\":21010:21020   */\n      swap1\n      pop\n        /* \"#utility.yul\":20755:21026   */\n      swap3\n      swap2\n      pop\n      pop\n      jump\t// out\n        /* \"#utility.yul\":21032:21148   */\n    tag_474:\n        /* \"#utility.yul\":21102:21123   */\n      tag_680\n        /* \"#utility.yul\":21117:21122   */\n      dup2\n        /* \"#utility.yul\":21102:21123   */\n      tag_444\n      jump\t// in\n    tag_680:\n        /* \"#utility.yul\":21095:21100   */\n      dup2\n        /* \"#utility.yul\":21092:21124   */\n      eq\n        /* \"#utility.yul\":21082:21142   */\n      tag_681\n      jumpi\n        /* \"#utility.yul\":21138:21139   */\n      0x00\n        /* \"#utility.yul\":21135:21136   */\n      dup1\n        /* \"#utility.yul\":21128:21140   */\n      revert\n        /* \"#utility.yul\":21082:21142   */\n    tag_681:\n        /* \"#utility.yul\":21032:21148   */\n      pop\n      jump\t// out\n        /* \"#utility.yul\":21154:21291   */\n    tag_475:\n        /* \"#utility.yul\":21208:21213   */\n      0x00\n        /* \"#utility.yul\":21239:21245   */\n      dup2\n        /* \"#utility.yul\":21233:21246   */\n      mload\n        /* \"#utility.yul\":21224:21246   */\n      swap1\n      pop\n        /* \"#utility.yul\":21255:21285   */\n      tag_683\n        /* \"#utility.yul\":21279:21284   */\n      dup2\n        /* \"#utility.yul\":21255:21285   */\n      tag_474\n      jump\t// in\n    tag_683:\n        /* \"#utility.yul\":21154:21291   */\n      swap3\n      swap2\n      pop\n      pop\n      jump\t// out\n        /* \"#utility.yul\":21297:21642   */\n    tag_319:\n        /* \"#utility.yul\":21364:21370   */\n      0x00\n        /* \"#utility.yul\":21413:21415   */\n      0x20\n        /* \"#utility.yul\":21401:21410   */\n      dup3\n        /* \"#utility.yul\":21392:21399   */\n      dup5\n        /* \"#utility.yul\":21388:21411   */\n      sub\n        /* \"#utility.yul\":21384:21416   */\n      slt\n        /* \"#utility.yul\":21381:21500   */\n      iszero\n      tag_685\n      jumpi\n        /* \"#utility.yul\":21419:21498   */\n      tag_686\n      tag_422\n      jump\t// in\n    tag_686:\n        /* \"#utility.yul\":21381:21500   */\n    tag_685:\n        /* \"#utility.yul\":21539:21540   */\n      0x00\n        /* \"#utility.yul\":21564:21625   */\n      tag_687\n        /* \"#utility.yul\":21617:21624   */\n      dup5\n        /* \"#utility.yul\":21608:21614   */\n      dup3\n        /* \"#utility.yul\":21597:21606   */\n      dup6\n        /* \"#utility.yul\":21593:21615   */\n      add\n        /* \"#utility.yul\":21564:21625   */\n      tag_475\n      jump\t// in\n    tag_687:\n        /* \"#utility.yul\":21554:21625   */\n      swap2\n      pop\n        /* \"#utility.yul\":21510:21635   */\n      pop\n        /* \"#utility.yul\":21297:21642   */\n      swap3\n      swap2\n      pop\n      pop\n      jump\t// out\n        /* \"#utility.yul\":21648:21813   */\n    tag_476:\n        /* \"#utility.yul\":21788:21805   */\n      0x5452414e534645525f4641494c45440000000000000000000000000000000000\n        /* \"#utility.yul\":21784:21785   */\n      0x00\n        /* \"#utility.yul\":21776:21782   */\n      dup3\n        /* \"#utility.yul\":21772:21786   */\n      add\n        /* \"#utility.yul\":21765:21806   */\n      mstore\n        /* \"#utility.yul\":21648:21813   */\n      pop\n      jump\t// out\n        /* \"#utility.yul\":21819:22185   */\n    tag_477:\n        /* \"#utility.yul\":21961:21964   */\n      0x00\n        /* \"#utility.yul\":21982:22049   */\n      tag_690\n        /* \"#utility.yul\":22046:22048   */\n      0x0f\n        /* \"#utility.yul\":22041:22044   */\n      dup4\n        /* \"#utility.yul\":21982:22049   */\n      tag_436\n      jump\t// in\n    tag_690:\n        /* \"#utility.yul\":21975:22049   */\n      swap2\n      pop\n        /* \"#utility.yul\":22058:22151   */\n      tag_691\n        /* \"#utility.yul\":22147:22150   */\n      dup3\n        /* \"#utility.yul\":22058:22151   */\n      tag_476\n      jump\t// in\n    tag_691:\n        /* \"#utility.yul\":22176:22178   */\n      0x20\n        /* \"#utility.yul\":22171:22174   */\n      dup3\n        /* \"#utility.yul\":22167:22179   */\n      add\n        /* \"#utility.yul\":22160:22179   */\n      swap1\n      pop\n        /* \"#utility.yul\":21819:22185   */\n      swap2\n      swap1\n      pop\n      jump\t// out\n        /* \"#utility.yul\":22191:22610   */\n    tag_322:\n        /* \"#utility.yul\":22357:22361   */\n      0x00\n        /* \"#utility.yul\":22395:22397   */\n      0x20\n        /* \"#utility.yul\":22384:22393   */\n      dup3\n        /* \"#utility.yul\":22380:22398   */\n      add\n        /* \"#utility.yul\":22372:22398   */\n      swap1\n      pop\n        /* \"#utility.yul\":22444:22453   */\n      dup2\n        /* \"#utility.yul\":22438:22442   */\n      dup2\n        /* \"#utility.yul\":22434:22454   */\n      sub\n        /* \"#utility.yul\":22430:22431   */\n      0x00\n        /* \"#utility.yul\":22419:22428   */\n      dup4\n        /* \"#utility.yul\":22415:22432   */\n      add\n        /* \"#utility.yul\":22408:22455   */\n      mstore\n        /* \"#utility.yul\":22472:22603   */\n      tag_693\n        /* \"#utility.yul\":22598:22602   */\n      dup2\n        /* \"#utility.yul\":22472:22603   */\n      tag_477\n      jump\t// in\n    tag_693:\n        /* \"#utility.yul\":22464:22603   */\n      swap1\n      pop\n        /* \"#utility.yul\":22191:22610   */\n      swap2\n      swap1\n      pop\n      jump\t// out\n        /* \"#utility.yul\":22616:22964   */\n    tag_326:\n        /* \"#utility.yul\":22656:22663   */\n      0x00\n        /* \"#utility.yul\":22679:22699   */\n      tag_695\n        /* \"#utility.yul\":22697:22698   */\n      dup3\n        /* \"#utility.yul\":22679:22699   */\n      tag_424\n      jump\t// in\n    tag_695:\n        /* \"#utility.yul\":22674:22699   */\n      swap2\n      pop\n        /* \"#utility.yul\":22713:22733   */\n      tag_696\n        /* \"#utility.yul\":22731:22732   */\n      dup4\n        /* \"#utility.yul\":22713:22733   */\n      tag_424\n      jump\t// in\n    tag_696:\n        /* \"#utility.yul\":22708:22733   */\n      swap3\n      pop\n        /* \"#utility.yul\":22901:22902   */\n      dup2\n        /* \"#utility.yul\":22833:22899   */\n      0xffffffffffffffffffffffffffffffffffffffffffffffffffffffffffffffff\n        /* \"#utility.yul\":22829:22903   */\n      div\n        /* \"#utility.yul\":22826:22827   */\n      dup4\n        /* \"#utility.yul\":22823:22904   */\n      gt\n        /* \"#utility.yul\":22818:22819   */\n      dup3\n        /* \"#utility.yul\":22811:22820   */\n      iszero\n        /* \"#utility.yul\":22804:22821   */\n      iszero\n        /* \"#utility.yul\":22800:22905   */\n      and\n        /* \"#utility.yul\":22797:22928   */\n      iszero\n      tag_697\n      jumpi\n        /* \"#utility.yul\":22908:22926   */\n      tag_698\n      tag_459\n      jump\t// in\n    tag_698:\n        /* \"#utility.yul\":22797:22928   */\n    tag_697:\n        /* \"#utility.yul\":22956:22957   */\n      dup3\n        /* \"#utility.yul\":22953:22954   */\n      dup3\n        /* \"#utility.yul\":22949:22958   */\n      mul\n        /* \"#utility.yul\":22938:22958   */\n      swap1\n      pop\n        /* \"#utility.yul\":22616:22964   */\n      swap3\n      swap2\n      pop\n      pop\n      jump\t// out\n        /* \"#utility.yul\":22970:23140   */\n    tag_478:\n        /* \"#utility.yul\":23110:23132   */\n      0x64732d6d6174682d6d756c2d6f766572666c6f77000000000000000000000000\n        /* \"#utility.yul\":23106:23107   */\n      0x00\n        /* \"#utility.yul\":23098:23104   */\n      dup3\n        /* \"#utility.yul\":23094:23108   */\n      add\n        /* \"#utility.yul\":23087:23133   */\n      mstore\n        /* \"#utility.yul\":22970:23140   */\n      pop\n      jump\t// out\n        /* \"#utility.yul\":23146:23512   */\n    tag_479:\n        /* \"#utility.yul\":23288:23291   */\n      0x00\n        /* \"#utility.yul\":23309:23376   */\n      tag_701\n        /* \"#utility.yul\":23373:23375   */\n      0x14\n        /* \"#utility.yul\":23368:23371   */\n      dup4\n        /* \"#utility.yul\":23309:23376   */\n      tag_436\n      jump\t// in\n    tag_701:\n        /* \"#utility.yul\":23302:23376   */\n      swap2\n      pop\n        /* \"#utility.yul\":23385:23478   */\n      tag_702\n        /* \"#utility.yul\":23474:23477   */\n      dup3\n        /* \"#utility.yul\":23385:23478   */\n      tag_478\n      jump\t// in\n    tag_702:\n        /* \"#utility.yul\":23503:23505   */\n      0x20\n        /* \"#utility.yul\":23498:23501   */\n      dup3\n        /* \"#utility.yul\":23494:23506   */\n      add\n        /* \"#utility.yul\":23487:23506   */\n      swap1\n      pop\n        /* \"#utility.yul\":23146:23512   */\n      swap2\n      swap1\n      pop\n      jump\t// out\n        /* \"#utility.yul\":23518:23937   */\n    tag_330:\n        /* \"#utility.yul\":23684:23688   */\n      0x00\n        /* \"#utility.yul\":23722:23724   */\n      0x20\n        /* \"#utility.yul\":23711:23720   */\n      dup3\n        /* \"#utility.yul\":23707:23725   */\n      add\n        /* \"#utility.yul\":23699:23725   */\n      swap1\n      pop\n        /* \"#utility.yul\":23771:23780   */\n      dup2\n        /* \"#utility.yul\":23765:23769   */\n      dup2\n        /* \"#utility.yul\":23761:23781   */\n      sub\n        /* \"#utility.yul\":23757:23758   */\n      0x00\n        /* \"#utility.yul\":23746:23755   */\n      dup4\n        /* \"#utility.yul\":23742:23759   */\n      add\n        /* \"#utility.yul\":23735:23782   */\n      mstore\n        /* \"#utility.yul\":23799:23930   */\n      tag_704\n        /* \"#utility.yul\":23925:23929   */\n      dup2\n        /* \"#utility.yul\":23799:23930   */\n      tag_479\n      jump\t// in\n    tag_704:\n        /* \"#utility.yul\":23791:23930   */\n      swap1\n      pop\n        /* \"#utility.yul\":23518:23937   */\n      swap2\n      swap1\n      pop\n      jump\t// out\n        /* \"#utility.yul\":23943:24114   */\n    tag_480:\n        /* \"#utility.yul\":24083:24106   */\n      0x64732d6d6174682d7375622d756e646572666c6f770000000000000000000000\n        /* \"#utility.yul\":24079:24080   */\n      0x00\n        /* \"#utility.yul\":24071:24077   */\n      dup3\n        /* \"#utility.yul\":24067:24081   */\n      add\n        /* \"#utility.yul\":24060:24107   */\n      mstore\n        /* \"#utility.yul\":23943:24114   */\n      pop\n      jump\t// out\n        /* \"#utility.yul\":24120:24486   */\n    tag_481:\n        /* \"#utility.yul\":24262:24265   */\n      0x00\n        /* \"#utility.yul\":24283:24350   */\n      tag_707\n        /* \"#utility.yul\":24347:24349   */\n      0x15\n        /* \"#utility.yul\":24342:24345   */\n      dup4\n        /* \"#utility.yul\":24283:24350   */\n      tag_436\n      jump\t// in\n    tag_707:\n        /* \"#utility.yul\":24276:24350   */\n      swap2\n      pop\n        /* \"#utility.yul\":24359:24452   */\n      tag_708\n        /* \"#utility.yul\":24448:24451   */\n      dup3\n        /* \"#utility.yul\":24359:24452   */\n      tag_480\n      jump\t// in\n    tag_708:\n        /* \"#utility.yul\":24477:24479   */\n      0x20\n        /* \"#utility.yul\":24472:24475   */\n      dup3\n        /* \"#utility.yul\":24468:24480   */\n      add\n        /* \"#utility.yul\":24461:24480   */\n      swap1\n      pop\n        /* \"#utility.yul\":24120:24486   */\n      swap2\n      swap1\n      pop\n      jump\t// out\n        /* \"#utility.yul\":24492:24911   */\n    tag_335:\n        /* \"#utility.yul\":24658:24662   */\n      0x00\n        /* \"#utility.yul\":24696:24698   */\n      0x20\n        /* \"#utility.yul\":24685:24694   */\n      dup3\n        /* \"#utility.yul\":24681:24699   */\n      add\n        /* \"#utility.yul\":24673:24699   */\n      swap1\n      pop\n        /* \"#utility.yul\":24745:24754   */\n      dup2\n        /* \"#utility.yul\":24739:24743   */\n      dup2\n        /* \"#utility.yul\":24735:24755   */\n      sub\n        /* \"#utility.yul\":24731:24732   */\n      0x00\n        /* \"#utility.yul\":24720:24729   */\n      dup4\n        /* \"#utility.yul\":24716:24733   */\n      add\n        /* \"#utility.yul\":24709:24756   */\n      mstore\n        /* \"#utility.yul\":24773:24904   */\n      tag_710\n        /* \"#utility.yul\":24899:24903   */\n      dup2\n        /* \"#utility.yul\":24773:24904   */\n      tag_481\n      jump\t// in\n    tag_710:\n        /* \"#utility.yul\":24765:24904   */\n      swap1\n      pop\n        /* \"#utility.yul\":24492:24911   */\n      swap2\n      swap1\n      pop\n      jump\t// out\n        /* \"#utility.yul\":24917:25075   */\n    tag_482:\n        /* \"#utility.yul\":25057:25067   */\n      0x4f564552464c4f57000000000000000000000000000000000000000000000000\n        /* \"#utility.yul\":25053:25054   */\n      0x00\n        /* \"#utility.yul\":25045:25051   */\n      dup3\n        /* \"#utility.yul\":25041:25055   */\n      add\n        /* \"#utility.yul\":25034:25068   */\n      mstore\n        /* \"#utility.yul\":24917:25075   */\n      pop\n      jump\t// out\n        /* \"#utility.yul\":25081:25446   */\n    tag_483:\n        /* \"#utility.yul\":25223:25226   */\n      0x00\n        /* \"#utility.yul\":25244:25310   */\n      tag_713\n        /* \"#utility.yul\":25308:25309   */\n      0x08\n        /* \"#utility.yul\":25303:25306   */\n      dup4\n        /* \"#utility.yul\":25244:25310   */\n      tag_436\n      jump\t// in\n    tag_713:\n        /* \"#utility.yul\":25237:25310   */\n      swap2\n      pop\n        /* \"#utility.yul\":25319:25412   */\n      tag_714\n        /* \"#utility.yul\":25408:25411   */\n      dup3\n        /* \"#utility.yul\":25319:25412   */\n      tag_482\n      jump\t// in\n    tag_714:\n        /* \"#utility.yul\":25437:25439   */\n      0x20\n        /* \"#utility.yul\":25432:25435   */\n      dup3\n        /* \"#utility.yul\":25428:25440   */\n      add\n        /* \"#utility.yul\":25421:25440   */\n      swap1\n      pop\n        /* \"#utility.yul\":25081:25446   */\n      swap2\n      swap1\n      pop\n      jump\t// out\n        /* \"#utility.yul\":25452:25871   */\n    tag_340:\n        /* \"#utility.yul\":25618:25622   */\n      0x00\n        /* \"#utility.yul\":25656:25658   */\n      0x20\n        /* \"#utility.yul\":25645:25654   */\n      dup3\n        /* \"#utility.yul\":25641:25659   */\n      add\n        /* \"#utility.yul\":25633:25659   */\n      swap1\n      pop\n        /* \"#utility.yul\":25705:25714   */\n      dup2\n        /* \"#utility.yul\":25699:25703   */\n      dup2\n        /* \"#utility.yul\":25695:25715   */\n      sub\n        /* \"#utility.yul\":25691:25692   */\n      0x00\n        /* \"#utility.yul\":25680:25689   */\n      dup4\n        /* \"#utility.yul\":25676:25693   */\n      add\n        /* \"#utility.yul\":25669:25716   */\n      mstore\n        /* \"#utility.yul\":25733:25864   */\n      tag_716\n        /* \"#utility.yul\":25859:25863   */\n      dup2\n        /* \"#utility.yul\":25733:25864   */\n      tag_483\n      jump\t// in\n    tag_716:\n        /* \"#utility.yul\":25725:25864   */\n      swap1\n      pop\n        /* \"#utility.yul\":25452:25871   */\n      swap2\n      swap1\n      pop\n      jump\t// out\n        /* \"#utility.yul\":25877:26053   */\n    tag_342:\n        /* \"#utility.yul\":25909:25910   */\n      0x00\n        /* \"#utility.yul\":25926:25946   */\n      tag_718\n        /* \"#utility.yul\":25944:25945   */\n      dup3\n        /* \"#utility.yul\":25926:25946   */\n      tag_424\n      jump\t// in\n    tag_718:\n        /* \"#utility.yul\":25921:25946   */\n      swap2\n      pop\n        /* \"#utility.yul\":25960:25980   */\n      tag_719\n        /* \"#utility.yul\":25978:25979   */\n      dup4\n        /* \"#utility.yul\":25960:25980   */\n      tag_424\n      jump\t// in\n    tag_719:\n        /* \"#utility.yul\":25955:25980   */\n      swap3\n      pop\n        /* \"#utility.yul\":25999:26000   */\n      dup3\n        /* \"#utility.yul\":25989:26024   */\n      tag_720\n      jumpi\n        /* \"#utility.yul\":26004:26022   */\n      tag_721\n      tag_466\n      jump\t// in\n    tag_721:\n        /* \"#utility.yul\":25989:26024   */\n    tag_720:\n        /* \"#utility.yul\":26045:26046   */\n      dup3\n        /* \"#utility.yul\":26042:26043   */\n      dup3\n        /* \"#utility.yul\":26038:26047   */\n      mod\n        /* \"#utility.yul\":26033:26047   */\n      swap1\n      pop\n        /* \"#utility.yul\":25877:26053   */\n      swap3\n      swap2\n      pop\n      pop\n      jump\t// out\n        /* \"#utility.yul\":26059:26247   */\n    tag_344:\n        /* \"#utility.yul\":26098:26102   */\n      0x00\n        /* \"#utility.yul\":26118:26137   */\n      tag_723\n        /* \"#utility.yul\":26135:26136   */\n      dup3\n        /* \"#utility.yul\":26118:26137   */\n      tag_442\n      jump\t// in\n    tag_723:\n        /* \"#utility.yul\":26113:26137   */\n      swap2\n      pop\n        /* \"#utility.yul\":26151:26170   */\n      tag_724\n        /* \"#utility.yul\":26168:26169   */\n      dup4\n        /* \"#utility.yul\":26151:26170   */\n      tag_442\n      jump\t// in\n    tag_724:\n        /* \"#utility.yul\":26146:26170   */\n      swap3\n      pop\n        /* \"#utility.yul\":26189:26190   */\n      dup3\n        /* \"#utility.yul\":26186:26187   */\n      dup3\n        /* \"#utility.yul\":26183:26191   */\n      lt\n        /* \"#utility.yul\":26180:26214   */\n      iszero\n      tag_725\n      jumpi\n        /* \"#utility.yul\":26194:26212   */\n      tag_726\n      tag_459\n      jump\t// in\n    tag_726:\n        /* \"#utility.yul\":26180:26214   */\n    tag_725:\n        /* \"#utility.yul\":26239:26240   */\n      dup3\n        /* \"#utility.yul\":26236:26237   */\n      dup3\n        /* \"#utility.yul\":26232:26241   */\n      sub\n        /* \"#utility.yul\":26224:26241   */\n      swap1\n      pop\n        /* \"#utility.yul\":26059:26247   */\n      swap3\n      swap2\n      pop\n      pop\n      jump\t// out\n        /* \"#utility.yul\":26253:26558   */\n    tag_354:\n        /* \"#utility.yul\":26293:26296   */\n      0x00\n        /* \"#utility.yul\":26312:26332   */\n      tag_728\n        /* \"#utility.yul\":26330:26331   */\n      dup3\n        /* \"#utility.yul\":26312:26332   */\n      tag_424\n      jump\t// in\n    tag_728:\n        /* \"#utility.yul\":26307:26332   */\n      swap2\n      pop\n        /* \"#utility.yul\":26346:26366   */\n      tag_729\n        /* \"#utility.yul\":26364:26365   */\n      dup4\n        /* \"#utility.yul\":26346:26366   */\n      tag_424\n      jump\t// in\n    tag_729:\n        /* \"#utility.yul\":26341:26366   */\n      swap3\n      pop\n        /* \"#utility.yul\":26500:26501   */\n      dup3\n        /* \"#utility.yul\":26432:26498   */\n      0xffffffffffffffffffffffffffffffffffffffffffffffffffffffffffffffff\n        /* \"#utility.yul\":26428:26502   */\n      sub\n        /* \"#utility.yul\":26425:26426   */\n      dup3\n        /* \"#utility.yul\":26422:26503   */\n      gt\n        /* \"#utility.yul\":26419:26526   */\n      iszero\n      tag_730\n      jumpi\n        /* \"#utility.yul\":26506:26524   */\n      tag_731\n      tag_459\n      jump\t// in\n    tag_731:\n        /* \"#utility.yul\":26419:26526   */\n    tag_730:\n        /* \"#utility.yul\":26550:26551   */\n      dup3\n        /* \"#utility.yul\":26547:26548   */\n      dup3\n        /* \"#utility.yul\":26543:26552   */\n      add\n        /* \"#utility.yul\":26536:26552   */\n      swap1\n      pop\n        /* \"#utility.yul\":26253:26558   */\n      swap3\n      swap2\n      pop\n      pop\n      jump\t// out\n        /* \"#utility.yul\":26564:26896   */\n    tag_360:\n        /* \"#utility.yul\":26685:26689   */\n      0x00\n        /* \"#utility.yul\":26723:26725   */\n      0x40\n        /* \"#utility.yul\":26712:26721   */\n      dup3\n        /* \"#utility.yul\":26708:26726   */\n      add\n        /* \"#utility.yul\":26700:26726   */\n      swap1\n      pop\n        /* \"#utility.yul\":26736:26807   */\n      tag_733\n        /* \"#utility.yul\":26804:26805   */\n      0x00\n        /* \"#utility.yul\":26793:26802   */\n      dup4\n        /* \"#utility.yul\":26789:26806   */\n      add\n        /* \"#utility.yul\":26780:26786   */\n      dup6\n        /* \"#utility.yul\":26736:26807   */\n      tag_441\n      jump\t// in\n    tag_733:\n        /* \"#utility.yul\":26817:26889   */\n      tag_734\n        /* \"#utility.yul\":26885:26887   */\n      0x20\n        /* \"#utility.yul\":26874:26883   */\n      dup4\n        /* \"#utility.yul\":26870:26888   */\n      add\n        /* \"#utility.yul\":26861:26867   */\n      dup5\n        /* \"#utility.yul\":26817:26889   */\n      tag_441\n      jump\t// in\n    tag_734:\n        /* \"#utility.yul\":26564:26896   */\n      swap4\n      swap3\n      pop\n      pop\n      pop\n      jump\t// out\n        /* \"#utility.yul\":26902:27045   */\n    tag_484:\n        /* \"#utility.yul\":26959:26964   */\n      0x00\n        /* \"#utility.yul\":26990:26996   */\n      dup2\n        /* \"#utility.yul\":26984:26997   */\n      mload\n        /* \"#utility.yul\":26975:26997   */\n      swap1\n      pop\n        /* \"#utility.yul\":27006:27039   */\n      tag_736\n        /* \"#utility.yul\":27033:27038   */\n      dup2\n        /* \"#utility.yul\":27006:27039   */\n      tag_429\n      jump\t// in\n    tag_736:\n        /* \"#utility.yul\":26902:27045   */\n      swap3\n      swap2\n      pop\n      pop\n      jump\t// out\n        /* \"#utility.yul\":27051:27402   */\n    tag_372:\n        /* \"#utility.yul\":27121:27127   */\n      0x00\n        /* \"#utility.yul\":27170:27172   */\n      0x20\n        /* \"#utility.yul\":27158:27167   */\n      dup3\n        /* \"#utility.yul\":27149:27156   */\n      dup5\n        /* \"#utility.yul\":27145:27168   */\n      sub\n        /* \"#utility.yul\":27141:27173   */\n      slt\n        /* \"#utility.yul\":27138:27257   */\n      iszero\n      tag_738\n      jumpi\n        /* \"#utility.yul\":27176:27255   */\n      tag_739\n      tag_422\n      jump\t// in\n    tag_739:\n        /* \"#utility.yul\":27138:27257   */\n    tag_738:\n        /* \"#utility.yul\":27296:27297   */\n      0x00\n        /* \"#utility.yul\":27321:27385   */\n      tag_740\n        /* \"#utility.yul\":27377:27384   */\n      dup5\n        /* \"#utility.yul\":27368:27374   */\n      dup3\n        /* \"#utility.yul\":27357:27366   */\n      dup6\n        /* \"#utility.yul\":27353:27375   */\n      add\n        /* \"#utility.yul\":27321:27385   */\n      tag_484\n      jump\t// in\n    tag_740:\n        /* \"#utility.yul\":27311:27385   */\n      swap2\n      pop\n        /* \"#utility.yul\":27267:27395   */\n      pop\n        /* \"#utility.yul\":27051:27402   */\n      swap3\n      swap2\n      pop\n      pop\n      jump\t// out\n        /* \"#utility.yul\":27408:27550   */\n    tag_485:\n        /* \"#utility.yul\":27445:27452   */\n      0x00\n        /* \"#utility.yul\":27485:27543   */\n      0xffffffffffffffffffffffffffffffffffffffffffffffffffffffff\n        /* \"#utility.yul\":27478:27483   */\n      dup3\n        /* \"#utility.yul\":27474:27544   */\n      and\n        /* \"#utility.yul\":27463:27544   */\n      swap1\n      pop\n        /* \"#utility.yul\":27408:27550   */\n      swap2\n      swap1\n      pop\n      jump\t// out\n        /* \"#utility.yul\":27556:27896   */\n    tag_412:\n        /* \"#utility.yul\":27596:27603   */\n      0x00\n        /* \"#utility.yul\":27619:27639   */\n      tag_743\n        /* \"#utility.yul\":27637:27638   */\n      dup3\n        /* \"#utility.yul\":27619:27639   */\n      tag_485\n      jump\t// in\n    tag_743:\n        /* \"#utility.yul\":27614:27639   */\n      swap2\n      pop\n        /* \"#utility.yul\":27653:27673   */\n      tag_744\n        /* \"#utility.yul\":27671:27672   */\n      dup4\n        /* \"#utility.yul\":27653:27673   */\n      tag_485\n      jump\t// in\n    tag_744:\n        /* \"#utility.yul\":27648:27673   */\n      swap3\n      pop\n        /* \"#utility.yul\":27833:27834   */\n      dup2\n        /* \"#utility.yul\":27773:27831   */\n      0xffffffffffffffffffffffffffffffffffffffffffffffffffffffff\n        /* \"#utility.yul\":27769:27835   */\n      div\n        /* \"#utility.yul\":27766:27767   */\n      dup4\n        /* \"#utility.yul\":27763:27836   */\n      gt\n        /* \"#utility.yul\":27758:27759   */\n      dup3\n        /* \"#utility.yul\":27751:27760   */\n      iszero\n        /* \"#utility.yul\":27744:27761   */\n      iszero\n        /* \"#utility.yul\":27740:27837   */\n      and\n        /* \"#utility.yul\":27737:27860   */\n      iszero\n      tag_745\n      jumpi\n        /* \"#utility.yul\":27840:27858   */\n      tag_746\n      tag_459\n      jump\t// in\n    tag_746:\n        /* \"#utility.yul\":27737:27860   */\n    tag_745:\n        /* \"#utility.yul\":27888:27889   */\n      dup3\n        /* \"#utility.yul\":27885:27886   */\n      dup3\n        /* \"#utility.yul\":27881:27890   */\n      mul\n        /* \"#utility.yul\":27870:27890   */\n      swap1\n      pop\n        /* \"#utility.yul\":27556:27896   */\n      swap3\n      swap2\n      pop\n      pop\n      jump\t// out\n        /* \"#utility.yul\":27902:28087   */\n    tag_415:\n        /* \"#utility.yul\":27942:27943   */\n      0x00\n        /* \"#utility.yul\":27959:27979   */\n      tag_748\n        /* \"#utility.yul\":27977:27978   */\n      dup3\n        /* \"#utility.yul\":27959:27979   */\n      tag_485\n      jump\t// in\n    tag_748:\n        /* \"#utility.yul\":27954:27979   */\n      swap2\n      pop\n        /* \"#utility.yul\":27993:28013   */\n      tag_749\n        /* \"#utility.yul\":28011:28012   */\n      dup4\n        /* \"#utility.yul\":27993:28013   */\n      tag_485\n      jump\t// in\n    tag_749:\n        /* \"#utility.yul\":27988:28013   */\n      swap3\n      pop\n        /* \"#utility.yul\":28032:28033   */\n      dup3\n        /* \"#utility.yul\":28022:28057   */\n      tag_750\n      jumpi\n        /* \"#utility.yul\":28037:28055   */\n      tag_751\n      tag_466\n      jump\t// in\n    tag_751:\n        /* \"#utility.yul\":28022:28057   */\n    tag_750:\n        /* \"#utility.yul\":28079:28080   */\n      dup3\n        /* \"#utility.yul\":28076:28077   */\n      dup3\n        /* \"#utility.yul\":28072:28081   */\n      div\n        /* \"#utility.yul\":28067:28081   */\n      swap1\n      pop\n        /* \"#utility.yul\":27902:28087   */\n      swap3\n      swap2\n      pop\n      pop\n      jump\t// out\n        /* \"#utility.yul\":28093:28263   */\n    tag_486:\n        /* \"#utility.yul\":28233:28255   */\n      0x64732d6d6174682d6164642d6f766572666c6f77000000000000000000000000\n        /* \"#utility.yul\":28229:28230   */\n      0x00\n        /* \"#utility.yul\":28221:28227   */\n      dup3\n        /* \"#utility.yul\":28217:28231   */\n      add\n        /* \"#utility.yul\":28210:28256   */\n      mstore\n        /* \"#utility.yul\":28093:28263   */\n      pop\n      jump\t// out\n        /* \"#utility.yul\":28269:28635   */\n    tag_487:\n        /* \"#utility.yul\":28411:28414   */\n      0x00\n        /* \"#utility.yul\":28432:28499   */\n      tag_754\n        /* \"#utility.yul\":28496:28498   */\n      0x14\n        /* \"#utility.yul\":28491:28494   */\n      dup4\n        /* \"#utility.yul\":28432:28499   */\n      tag_436\n      jump\t// in\n    tag_754:\n        /* \"#utility.yul\":28425:28499   */\n      swap2\n      pop\n        /* \"#utility.yul\":28508:28601   */\n      tag_755\n        /* \"#utility.yul\":28597:28600   */\n      dup3\n        /* \"#utility.yul\":28508:28601   */\n      tag_486\n      jump\t// in\n    tag_755:\n        /* \"#utility.yul\":28626:28628   */\n      0x20\n        /* \"#utility.yul\":28621:28624   */\n      dup3\n        /* \"#utility.yul\":28617:28629   */\n      add\n        /* \"#utility.yul\":28610:28629   */\n      swap1\n      pop\n        /* \"#utility.yul\":28269:28635   */\n      swap2\n      swap1\n      pop\n      jump\t// out\n        /* \"#utility.yul\":28641:29060   */\n    tag_420:\n        /* \"#utility.yul\":28807:28811   */\n      0x00\n        /* \"#utility.yul\":28845:28847   */\n      0x20\n        /* \"#utility.yul\":28834:28843   */\n      dup3\n        /* \"#utility.yul\":28830:28848   */\n      add\n        /* \"#utility.yul\":28822:28848   */\n      swap1\n      pop\n        /* \"#utility.yul\":28894:28903   */\n      dup2\n        /* \"#utility.yul\":28888:28892   */\n      dup2\n        /* \"#utility.yul\":28884:28904   */\n      sub\n        /* \"#utility.yul\":28880:28881   */\n      0x00\n        /* \"#utility.yul\":28869:28878   */\n      dup4\n        /* \"#utility.yul\":28865:28882   */\n      add\n        /* \"#utility.yul\":28858:28905   */\n      mstore\n        /* \"#utility.yul\":28922:29053   */\n      tag_757\n        /* \"#utility.yul\":29048:29052   */\n      dup2\n        /* \"#utility.yul\":28922:29053   */\n      tag_487\n      jump\t// in\n    tag_757:\n        /* \"#utility.yul\":28914:29053   */\n      swap1\n      pop\n        /* \"#utility.yul\":28641:29060   */\n      swap2\n      swap1\n      pop\n      jump\t// out\n\n    auxdata: 0xa2646970667358221220b56d1671b8495c2d14355ddaf8608a16468466dd2a927d100618e8366cae399f64736f6c634300080e0033\n}\n",
				"bytecode": {
					"linkReferences": {},
					"object": "60806040526001600b5534801561001557600080fd5b5033600460006101000a81548173ffffffffffffffffffffffffffffffffffffffff021916908373ffffffffffffffffffffffffffffffffffffffff1602179055506137ee806100666000396000f3fe608060405234801561001057600080fd5b50600436106101585760003560e01c806370a08231116100c3578063ba9a7a561161007c578063ba9a7a56146103f6578063bc25cf7714610414578063c45a015514610430578063d21220a71461044e578063dd62ed3e1461046c578063fff6cae91461049c57610158565b806370a08231146102f95780637464fc3d146103295780637ecebe001461034757806389afcb441461037757806395d89b41146103a8578063a9059cbb146103c657610158565b806323b872dd1161011557806323b872dd14610223578063313ce56714610253578063485cc955146102715780635909c0d51461028d5780635a3d5493146102ab5780636a627842146102c957610158565b8063022c0d9f1461015d57806306fdde03146101795780630902f1ac14610197578063095ea7b3146101b75780630dfe1681146101e757806318160ddd14610205575b600080fd5b610177600480360381019061017291906129cb565b6104a6565b005b610181610a78565b60405161018e9190612aec565b60405180910390f35b61019f610ab1565b6040516101ae93929190612b56565b60405180910390f35b6101d160048036038101906101cc9190612b8d565b610b0e565b6040516101de9190612be8565b60405180910390f35b6101ef610b25565b6040516101fc9190612c12565b60405180910390f35b61020d610b4b565b60405161021a9190612c3c565b60405180910390f35b61023d60048036038101906102389190612c57565b610b51565b60405161024a9190612be8565b60405180910390f35b61025b610d0a565b6040516102689190612cc6565b60405180910390f35b61028b60048036038101906102869190612ce1565b610d0f565b005b610295610e25565b6040516102a29190612c3c565b60405180910390f35b6102b3610e2b565b6040516102c09190612c3c565b60405180910390f35b6102e360048036038101906102de9190612d21565b610e31565b6040516102f09190612c3c565b60405180910390f35b610313600480360381019061030e9190612d21565b61121a565b6040516103209190612c3c565b60405180910390f35b610331611232565b60405161033e9190612c3c565b60405180910390f35b610361600480360381019061035c9190612d21565b611238565b60405161036e9190612c3c565b60405180910390f35b610391600480360381019061038c9190612d21565b611250565b60405161039f929190612d4e565b60405180910390f35b6103b06116fa565b6040516103bd9190612aec565b60405180910390f35b6103e060048036038101906103db9190612b8d565b611733565b6040516103ed9190612be8565b60405180910390f35b6103fe61174a565b60405161040b9190612c3c565b60405180910390f35b61042e60048036038101906104299190612d21565b611750565b005b61043861197c565b6040516104459190612c12565b60405180910390f35b6104566119a2565b6040516104639190612c12565b60405180910390f35b61048660048036038101906104819190612ce1565b6119c8565b6040516104939190612c3c565b60405180910390f35b6104a46119ed565b005b6001600b54146104eb576040517f08c379a00000000000000000000000000000000000000000000000000000000081526004016104e290612dc3565b60405180910390fd5b6000600b8190555060008511806105025750600084115b610541576040517f08c379a000000000000000000000000000000000000000000000000000000000815260040161053890612e2f565b60405180910390fd5b60008061054c610ab1565b5091509150816dffffffffffffffffffffffffffff168710801561057f5750806dffffffffffffffffffffffffffff1686105b6105be576040517f08c379a00000000000000000000000000000000000000000000000000000000081526004016105b590612e9b565b60405180910390fd5b6000806000600560009054906101000a900473ffffffffffffffffffffffffffffffffffffffff1690506000600660009054906101000a900473ffffffffffffffffffffffffffffffffffffffff1690508173ffffffffffffffffffffffffffffffffffffffff168973ffffffffffffffffffffffffffffffffffffffff161415801561067757508073ffffffffffffffffffffffffffffffffffffffff168973ffffffffffffffffffffffffffffffffffffffff1614155b6106b6576040517f08c379a00000000000000000000000000000000000000000000000000000000081526004016106ad90612f07565b60405180910390fd5b60008b11156106cb576106ca828a8d611bbe565b5b60008a11156106e0576106df818a8c611bbe565b5b8173ffffffffffffffffffffffffffffffffffffffff166370a08231306040518263ffffffff1660e01b81526004016107199190612c12565b602060405180830381865afa158015610736573d6000803e3d6000fd5b505050506040513d601f19601f8201168201806040525081019061075a9190612f3c565b93508073ffffffffffffffffffffffffffffffffffffffff166370a08231306040518263ffffffff1660e01b81526004016107959190612c12565b602060405180830381865afa1580156107b2573d6000803e3d6000fd5b505050506040513d601f19601f820116820180604052508101906107d69190612f3c565b92505050600089856dffffffffffffffffffffffffffff166107f89190612f98565b831161080557600061082d565b89856dffffffffffffffffffffffffffff166108219190612f98565b8361082c9190612f98565b5b9050600089856dffffffffffffffffffffffffffff1661084d9190612f98565b831161085a576000610882565b89856dffffffffffffffffffffffffffff166108769190612f98565b836108819190612f98565b5b905060008211806108935750600081115b6108d2576040517f08c379a00000000000000000000000000000000000000000000000000000000081526004016108c990613018565b60405180910390fd5b600061090e6108eb600385611d4890919063ffffffff16565b6109006103e888611d4890919063ffffffff16565b611db590919063ffffffff16565b9050600061094c610929600385611d4890919063ffffffff16565b61093e6103e888611d4890919063ffffffff16565b611db590919063ffffffff16565b9050610996620f4240610988896dffffffffffffffffffffffffffff168b6dffffffffffffffffffffffffffff16611d4890919063ffffffff16565b611d4890919063ffffffff16565b6109a98284611d4890919063ffffffff16565b10156109ea576040517f08c379a00000000000000000000000000000000000000000000000000000000081526004016109e190613084565b60405180910390fd5b50506109f884848888611e0e565b8873ffffffffffffffffffffffffffffffffffffffff163373ffffffffffffffffffffffffffffffffffffffff167fd78ad95fa46c994b6551d0da85fc275fe613ce37657fb8d5e3d130840159d82284848f8f604051610a5b94939291906130a4565b60405180910390a35050505050506001600b819055505050505050565b6040518060400160405280600881526020017f58537761702d563100000000000000000000000000000000000000000000000081525081565b6000806000600760009054906101000a90046dffffffffffffffffffffffffffff1692506007600e9054906101000a90046dffffffffffffffffffffffffffff1691506007601c9054906101000a900463ffffffff169050909192565b6000610b1b3384846120fe565b6001905092915050565b600560009054906101000a900473ffffffffffffffffffffffffffffffffffffffff1681565b60005481565b60006dffffffffffffffffffffffffffff600260008673ffffffffffffffffffffffffffffffffffffffff1673ffffffffffffffffffffffffffffffffffffffff16815260200190815260200160002060003373ffffffffffffffffffffffffffffffffffffffff1673ffffffffffffffffffffffffffffffffffffffff1681526020019081526020016000205414610cf457610c7382600260008773ffffffffffffffffffffffffffffffffffffffff1673ffffffffffffffffffffffffffffffffffffffff16815260200190815260200160002060003373ffffffffffffffffffffffffffffffffffffffff1673ffffffffffffffffffffffffffffffffffffffff16815260200190815260200160002054611db590919063ffffffff16565b600260008673ffffffffffffffffffffffffffffffffffffffff1673ffffffffffffffffffffffffffffffffffffffff16815260200190815260200160002060003373ffffffffffffffffffffffffffffffffffffffff1673ffffffffffffffffffffffffffffffffffffffff168152602001908152602001600020819055505b610cff8484846121e9565b600190509392505050565b601281565b600460009054906101000a900473ffffffffffffffffffffffffffffffffffffffff1673ffffffffffffffffffffffffffffffffffffffff163373ffffffffffffffffffffffffffffffffffffffff1614610d9f576040517f08c379a0000000000000000000000000000000000000000000000000000000008152600401610d9690613135565b60405180910390fd5b81600560006101000a81548173ffffffffffffffffffffffffffffffffffffffff021916908373ffffffffffffffffffffffffffffffffffffffff16021790555080600660006101000a81548173ffffffffffffffffffffffffffffffffffffffff021916908373ffffffffffffffffffffffffffffffffffffffff1602179055505050565b60085481565b60095481565b60006001600b5414610e78576040517f08c379a0000000000000000000000000000000000000000000000000000000008152600401610e6f90612dc3565b60405180910390fd5b6000600b81905550600080610e8b610ab1565b50915091506000600560009054906101000a900473ffffffffffffffffffffffffffffffffffffffff1673ffffffffffffffffffffffffffffffffffffffff166370a08231306040518263ffffffff1660e01b8152600401610eed9190612c12565b602060405180830381865afa158015610f0a573d6000803e3d6000fd5b505050506040513d601f19601f82011682018060405250810190610f2e9190612f3c565b90506000600660009054906101000a900473ffffffffffffffffffffffffffffffffffffffff1673ffffffffffffffffffffffffffffffffffffffff166370a08231306040518263ffffffff1660e01b8152600401610f8d9190612c12565b602060405180830381865afa158015610faa573d6000803e3d6000fd5b505050506040513d601f19601f82011682018060405250810190610fce9190612f3c565b90506000610ff5856dffffffffffffffffffffffffffff1684611db590919063ffffffff16565b9050600061101c856dffffffffffffffffffffffffffff1684611db590919063ffffffff16565b9050600061102a878761237d565b90506000805490506000810361107d576110696103e861105b6110568688611d4890919063ffffffff16565b61254e565b611db590919063ffffffff16565b985061107860006103e86125c8565b6110e4565b6110e1886dffffffffffffffffffffffffffff166110a48387611d4890919063ffffffff16565b6110ae9190613184565b886dffffffffffffffffffffffffffff166110d28487611d4890919063ffffffff16565b6110dc9190613184565b6126e2565b98505b60008911611127576040517f08c379a000000000000000000000000000000000000000000000000000000000815260040161111e90613201565b60405180910390fd5b6111318a8a6125c8565b61113d86868a8a611e0e565b81156111b5576111ae6007600e9054906101000a90046dffffffffffffffffffffffffffff166dffffffffffffffffffffffffffff16600760009054906101000a90046dffffffffffffffffffffffffffff166dffffffffffffffffffffffffffff16611d4890919063ffffffff16565b600a819055505b3373ffffffffffffffffffffffffffffffffffffffff167f4c209b5fc8ad50758f13e2e1088ba56a560dff690a1c6fef26394f4c03821c4f85856040516111fd929190612d4e565b60405180910390a250505050505050506001600b81905550919050565b60016020528060005260406000206000915090505481565b600a5481565b60036020528060005260406000206000915090505481565b6000806001600b5414611298576040517f08c379a000000000000000000000000000000000000000000000000000000000815260040161128f90612dc3565b60405180910390fd5b6000600b819055506000806112ab610ab1565b50915091506000600560009054906101000a900473ffffffffffffffffffffffffffffffffffffffff1690506000600660009054906101000a900473ffffffffffffffffffffffffffffffffffffffff16905060008273ffffffffffffffffffffffffffffffffffffffff166370a08231306040518263ffffffff1660e01b81526004016113399190612c12565b602060405180830381865afa158015611356573d6000803e3d6000fd5b505050506040513d601f19601f8201168201806040525081019061137a9190612f3c565b905060008273ffffffffffffffffffffffffffffffffffffffff166370a08231306040518263ffffffff1660e01b81526004016113b79190612c12565b602060405180830381865afa1580156113d4573d6000803e3d6000fd5b505050506040513d601f19601f820116820180604052508101906113f89190612f3c565b90506000600160003073ffffffffffffffffffffffffffffffffffffffff1673ffffffffffffffffffffffffffffffffffffffff168152602001908152602001600020549050600061144a888861237d565b9050600080549050806114668685611d4890919063ffffffff16565b6114709190613184565b9a50806114868585611d4890919063ffffffff16565b6114909190613184565b995060008b1180156114a2575060008a115b6114e1576040517f08c379a00000000000000000000000000000000000000000000000000000000081526004016114d89061326d565b60405180910390fd5b6114eb30846126fb565b6114f6878d8d611bbe565b611501868d8c611bbe565b8673ffffffffffffffffffffffffffffffffffffffff166370a08231306040518263ffffffff1660e01b815260040161153a9190612c12565b602060405180830381865afa158015611557573d6000803e3d6000fd5b505050506040513d601f19601f8201168201806040525081019061157b9190612f3c565b94508573ffffffffffffffffffffffffffffffffffffffff166370a08231306040518263ffffffff1660e01b81526004016115b69190612c12565b602060405180830381865afa1580156115d3573d6000803e3d6000fd5b505050506040513d601f19601f820116820180604052508101906115f79190612f3c565b935061160585858b8b611e0e565b811561167d576116766007600e9054906101000a90046dffffffffffffffffffffffffffff166dffffffffffffffffffffffffffff16600760009054906101000a90046dffffffffffffffffffffffffffff166dffffffffffffffffffffffffffff16611d4890919063ffffffff16565b600a819055505b8b73ffffffffffffffffffffffffffffffffffffffff163373ffffffffffffffffffffffffffffffffffffffff167fdccd412f0b1252819cb1fd330b93224ca42612892bb3f4f789976e6d819364968d8d6040516116dc929190612d4e565b60405180910390a35050505050505050506001600b81905550915091565b6040518060400160405280600581526020017f58532d563100000000000000000000000000000000000000000000000000000081525081565b60006117403384846121e9565b6001905092915050565b6103e881565b6001600b5414611795576040517f08c379a000000000000000000000000000000000000000000000000000000000815260040161178c90612dc3565b60405180910390fd5b6000600b819055506000600560009054906101000a900473ffffffffffffffffffffffffffffffffffffffff1690506000600660009054906101000a900473ffffffffffffffffffffffffffffffffffffffff1690506118ad82846118a8600760009054906101000a90046dffffffffffffffffffffffffffff166dffffffffffffffffffffffffffff168673ffffffffffffffffffffffffffffffffffffffff166370a08231306040518263ffffffff1660e01b81526004016118599190612c12565b602060405180830381865afa158015611876573d6000803e3d6000fd5b505050506040513d601f19601f8201168201806040525081019061189a9190612f3c565b611db590919063ffffffff16565b611bbe565b61196f818461196a6007600e9054906101000a90046dffffffffffffffffffffffffffff166dffffffffffffffffffffffffffff168573ffffffffffffffffffffffffffffffffffffffff166370a08231306040518263ffffffff1660e01b815260040161191b9190612c12565b602060405180830381865afa158015611938573d6000803e3d6000fd5b505050506040513d601f19601f8201168201806040525081019061195c9190612f3c565b611db590919063ffffffff16565b611bbe565b50506001600b8190555050565b600460009054906101000a900473ffffffffffffffffffffffffffffffffffffffff1681565b600660009054906101000a900473ffffffffffffffffffffffffffffffffffffffff1681565b6002602052816000526040600020602052806000526040600020600091509150505481565b6001600b5414611a32576040517f08c379a0000000000000000000000000000000000000000000000000000000008152600401611a2990612dc3565b60405180910390fd5b6000600b81905550611bb4600560009054906101000a900473ffffffffffffffffffffffffffffffffffffffff1673ffffffffffffffffffffffffffffffffffffffff166370a08231306040518263ffffffff1660e01b8152600401611a989190612c12565b602060405180830381865afa158015611ab5573d6000803e3d6000fd5b505050506040513d601f19601f82011682018060405250810190611ad99190612f3c565b600660009054906101000a900473ffffffffffffffffffffffffffffffffffffffff1673ffffffffffffffffffffffffffffffffffffffff166370a08231306040518263ffffffff1660e01b8152600401611b349190612c12565b602060405180830381865afa158015611b51573d6000803e3d6000fd5b505050506040513d601f19601f82011682018060405250810190611b759190612f3c565b600760009054906101000a90046dffffffffffffffffffffffffffff166007600e9054906101000a90046dffffffffffffffffffffffffffff16611e0e565b6001600b81905550565b6000808473ffffffffffffffffffffffffffffffffffffffff166040518060400160405280601981526020017f7472616e7366657228616464726573732c75696e743235362900000000000000815250805190602001208585604051602401611c2892919061328d565b604051602081830303815290604052907bffffffffffffffffffffffffffffffffffffffffffffffffffffffff19166020820180517bffffffffffffffffffffffffffffffffffffffffffffffffffffffff8381831617835250505050604051611c9291906132fd565b6000604051808303816000865af19150503d8060008114611ccf576040519150601f19603f3d011682016040523d82523d6000602084013e611cd4565b606091505b5091509150818015611d025750600081511480611d01575080806020019051810190611d009190613340565b5b5b611d41576040517f08c379a0000000000000000000000000000000000000000000000000000000008152600401611d38906133b9565b60405180910390fd5b5050505050565b600080821480611d70575082828385611d6191906133d9565b925082611d6e9190613184565b145b611daf576040517f08c379a0000000000000000000000000000000000000000000000000000000008152600401611da69061347f565b60405180910390fd5b92915050565b6000828284611dc49190612f98565b9150811115611e08576040517f08c379a0000000000000000000000000000000000000000000000000000000008152600401611dff906134eb565b60405180910390fd5b92915050565b6dffffffffffffffffffffffffffff8411158015611e3a57506dffffffffffffffffffffffffffff8311155b611e79576040517f08c379a0000000000000000000000000000000000000000000000000000000008152600401611e7090613557565b60405180910390fd5b600064010000000042611e8c9190613577565b905060006007601c9054906101000a900463ffffffff1682611eae91906135a8565b905060008163ffffffff16118015611ed757506000846dffffffffffffffffffffffffffff1614155b8015611ef457506000836dffffffffffffffffffffffffffff1614155b15611ffa578063ffffffff16611f3985611f0d86612815565b7bffffffffffffffffffffffffffffffffffffffffffffffffffffffff1661284990919063ffffffff16565b7bffffffffffffffffffffffffffffffffffffffffffffffffffffffff16611f6191906133d9565b60086000828254611f7291906135dc565b925050819055508063ffffffff16611fb984611f8d87612815565b7bffffffffffffffffffffffffffffffffffffffffffffffffffffffff1661284990919063ffffffff16565b7bffffffffffffffffffffffffffffffffffffffffffffffffffffffff16611fe191906133d9565b60096000828254611ff291906135dc565b925050819055505b85600760006101000a8154816dffffffffffffffffffffffffffff02191690836dffffffffffffffffffffffffffff160217905550846007600e6101000a8154816dffffffffffffffffffffffffffff02191690836dffffffffffffffffffffffffffff160217905550816007601c6101000a81548163ffffffff021916908363ffffffff1602179055507f1c411e9a96e071241c2f21f7726b17ae89e3cab4c78be50e062b03a9fffbbad1600760009054906101000a90046dffffffffffffffffffffffffffff166007600e9054906101000a90046dffffffffffffffffffffffffffff166040516120ee929190613632565b60405180910390a1505050505050565b80600260008573ffffffffffffffffffffffffffffffffffffffff1673ffffffffffffffffffffffffffffffffffffffff16815260200190815260200160002060008473ffffffffffffffffffffffffffffffffffffffff1673ffffffffffffffffffffffffffffffffffffffff168152602001908152602001600020819055508173ffffffffffffffffffffffffffffffffffffffff168373ffffffffffffffffffffffffffffffffffffffff167f8c5be1e5ebec7d5bd14f71427d1e84f3dd0314c0f7b2291e5b200ac8c7c3b925836040516121dc9190612c3c565b60405180910390a3505050565b61223b81600160008673ffffffffffffffffffffffffffffffffffffffff1673ffffffffffffffffffffffffffffffffffffffff16815260200190815260200160002054611db590919063ffffffff16565b600160008573ffffffffffffffffffffffffffffffffffffffff1673ffffffffffffffffffffffffffffffffffffffff168152602001908152602001600020819055506122d081600160008573ffffffffffffffffffffffffffffffffffffffff1673ffffffffffffffffffffffffffffffffffffffff1681526020019081526020016000205461286f90919063ffffffff16565b600160008473ffffffffffffffffffffffffffffffffffffffff1673ffffffffffffffffffffffffffffffffffffffff168152602001908152602001600020819055508173ffffffffffffffffffffffffffffffffffffffff168373ffffffffffffffffffffffffffffffffffffffff167fddf252ad1be2c89b69c2b068fc378daa952ba7f163c4a11628f55a4df523b3ef836040516123709190612c3c565b60405180910390a3505050565b600080600460009054906101000a900473ffffffffffffffffffffffffffffffffffffffff1673ffffffffffffffffffffffffffffffffffffffff1663017e7e586040518163ffffffff1660e01b8152600401602060405180830381865afa1580156123ed573d6000803e3d6000fd5b505050506040513d601f19601f820116820180604052508101906124119190613670565b9050600073ffffffffffffffffffffffffffffffffffffffff168173ffffffffffffffffffffffffffffffffffffffff16141591506000600a5490508215612534576000811461252f576000612498612493866dffffffffffffffffffffffffffff16886dffffffffffffffffffffffffffff16611d4890919063ffffffff16565b61254e565b905060006124a58361254e565b90508082111561252c5760006124d86124c78385611db590919063ffffffff16565b600054611d4890919063ffffffff16565b90506000612502836124f4600587611d4890919063ffffffff16565b61286f90919063ffffffff16565b9050600081836125129190613184565b905060008111156125285761252787826125c8565b5b5050505b50505b612546565b60008114612545576000600a819055505b5b505092915050565b600060038211156125b5578190506000600160028461256d9190613184565b61257791906135dc565b90505b818110156125af5780915060028182856125949190613184565b61259e91906135dc565b6125a89190613184565b905061257a565b506125c3565b600082146125c257600190505b5b919050565b6125dd8160005461286f90919063ffffffff16565b60008190555061263581600160008573ffffffffffffffffffffffffffffffffffffffff1673ffffffffffffffffffffffffffffffffffffffff1681526020019081526020016000205461286f90919063ffffffff16565b600160008473ffffffffffffffffffffffffffffffffffffffff1673ffffffffffffffffffffffffffffffffffffffff168152602001908152602001600020819055508173ffffffffffffffffffffffffffffffffffffffff16600073ffffffffffffffffffffffffffffffffffffffff167fddf252ad1be2c89b69c2b068fc378daa952ba7f163c4a11628f55a4df523b3ef836040516126d69190612c3c565b60405180910390a35050565b60008183106126f157816126f3565b825b905092915050565b61274d81600160008573ffffffffffffffffffffffffffffffffffffffff1673ffffffffffffffffffffffffffffffffffffffff16815260200190815260200160002054611db590919063ffffffff16565b600160008473ffffffffffffffffffffffffffffffffffffffff1673ffffffffffffffffffffffffffffffffffffffff168152602001908152602001600020819055506127a581600054611db590919063ffffffff16565b600081905550600073ffffffffffffffffffffffffffffffffffffffff168273ffffffffffffffffffffffffffffffffffffffff167fddf252ad1be2c89b69c2b068fc378daa952ba7f163c4a11628f55a4df523b3ef836040516128099190612c3c565b60405180910390a35050565b60006e010000000000000000000000000000826dffffffffffffffffffffffffffff1661284291906136c5565b9050919050565b6000816dffffffffffffffffffffffffffff1683612867919061371b565b905092915050565b600082828461287e91906135dc565b91508110156128c2576040517f08c379a00000000000000000000000000000000000000000000000000000000081526004016128b990613798565b60405180910390fd5b92915050565b600080fd5b600080fd5b6000819050919050565b6128e5816128d2565b81146128f057600080fd5b50565b600081359050612902816128dc565b92915050565b600073ffffffffffffffffffffffffffffffffffffffff82169050919050565b600061293382612908565b9050919050565b61294381612928565b811461294e57600080fd5b50565b6000813590506129608161293a565b92915050565b600080fd5b600080fd5b600080fd5b60008083601f84011261298b5761298a612966565b5b8235905067ffffffffffffffff8111156129a8576129a761296b565b5b6020830191508360018202830111156129c4576129c3612970565b5b9250929050565b6000806000806000608086880312156129e7576129e66128c8565b5b60006129f5888289016128f3565b9550506020612a06888289016128f3565b9450506040612a1788828901612951565b935050606086013567ffffffffffffffff811115612a3857612a376128cd565b5b612a4488828901612975565b92509250509295509295909350565b600081519050919050565b600082825260208201905092915050565b60005b83811015612a8d578082015181840152602081019050612a72565b83811115612a9c576000848401525b50505050565b6000601f19601f8301169050919050565b6000612abe82612a53565b612ac88185612a5e565b9350612ad8818560208601612a6f565b612ae181612aa2565b840191505092915050565b60006020820190508181036000830152612b068184612ab3565b905092915050565b60006dffffffffffffffffffffffffffff82169050919050565b612b3181612b0e565b82525050565b600063ffffffff82169050919050565b612b5081612b37565b82525050565b6000606082019050612b6b6000830186612b28565b612b786020830185612b28565b612b856040830184612b47565b949350505050565b60008060408385031215612ba457612ba36128c8565b5b6000612bb285828601612951565b9250506020612bc3858286016128f3565b9150509250929050565b60008115159050919050565b612be281612bcd565b82525050565b6000602082019050612bfd6000830184612bd9565b92915050565b612c0c81612928565b82525050565b6000602082019050612c276000830184612c03565b92915050565b612c36816128d2565b82525050565b6000602082019050612c516000830184612c2d565b92915050565b600080600060608486031215612c7057612c6f6128c8565b5b6000612c7e86828701612951565b9350506020612c8f86828701612951565b9250506040612ca0868287016128f3565b9150509250925092565b600060ff82169050919050565b612cc081612caa565b82525050565b6000602082019050612cdb6000830184612cb7565b92915050565b60008060408385031215612cf857612cf76128c8565b5b6000612d0685828601612951565b9250506020612d1785828601612951565b9150509250929050565b600060208284031215612d3757612d366128c8565b5b6000612d4584828501612951565b91505092915050565b6000604082019050612d636000830185612c2d565b612d706020830184612c2d565b9392505050565b7f4c4f434b45440000000000000000000000000000000000000000000000000000600082015250565b6000612dad600683612a5e565b9150612db882612d77565b602082019050919050565b60006020820190508181036000830152612ddc81612da0565b9050919050565b7f494e53554646494349454e545f4f55545055545f414d4f554e54000000000000600082015250565b6000612e19601a83612a5e565b9150612e2482612de3565b602082019050919050565b60006020820190508181036000830152612e4881612e0c565b9050919050565b7f494e53554646494349454e545f4c495155494449545900000000000000000000600082015250565b6000612e85601683612a5e565b9150612e9082612e4f565b602082019050919050565b60006020820190508181036000830152612eb481612e78565b9050919050565b7f494e56414c49445f544f00000000000000000000000000000000000000000000600082015250565b6000612ef1600a83612a5e565b9150612efc82612ebb565b602082019050919050565b60006020820190508181036000830152612f2081612ee4565b9050919050565b600081519050612f36816128dc565b92915050565b600060208284031215612f5257612f516128c8565b5b6000612f6084828501612f27565b91505092915050565b7f4e487b7100000000000000000000000000000000000000000000000000000000600052601160045260246000fd5b6000612fa3826128d2565b9150612fae836128d2565b925082821015612fc157612fc0612f69565b5b828203905092915050565b7f494e53554646494349454e545f494e5055545f414d4f554e5400000000000000600082015250565b6000613002601983612a5e565b915061300d82612fcc565b602082019050919050565b6000602082019050818103600083015261303181612ff5565b9050919050565b7f204b000000000000000000000000000000000000000000000000000000000000600082015250565b600061306e600283612a5e565b915061307982613038565b602082019050919050565b6000602082019050818103600083015261309d81613061565b9050919050565b60006080820190506130b96000830187612c2d565b6130c66020830186612c2d565b6130d36040830185612c2d565b6130e06060830184612c2d565b95945050505050565b7f464f5242494444454e0000000000000000000000000000000000000000000000600082015250565b600061311f600983612a5e565b915061312a826130e9565b602082019050919050565b6000602082019050818103600083015261314e81613112565b9050919050565b7f4e487b7100000000000000000000000000000000000000000000000000000000600052601260045260246000fd5b600061318f826128d2565b915061319a836128d2565b9250826131aa576131a9613155565b5b828204905092915050565b7f20494e53554646494349454e545f4c49515549444954595f4d494e5445440000600082015250565b60006131eb601e83612a5e565b91506131f6826131b5565b602082019050919050565b6000602082019050818103600083015261321a816131de565b9050919050565b7f494e53554646494349454e545f4c49515549444954595f4255524e4544000000600082015250565b6000613257601d83612a5e565b915061326282613221565b602082019050919050565b600060208201905081810360008301526132868161324a565b9050919050565b60006040820190506132a26000830185612c03565b6132af6020830184612c2d565b9392505050565b600081519050919050565b600081905092915050565b60006132d7826132b6565b6132e181856132c1565b93506132f1818560208601612a6f565b80840191505092915050565b600061330982846132cc565b915081905092915050565b61331d81612bcd565b811461332857600080fd5b50565b60008151905061333a81613314565b92915050565b600060208284031215613356576133556128c8565b5b60006133648482850161332b565b91505092915050565b7f5452414e534645525f4641494c45440000000000000000000000000000000000600082015250565b60006133a3600f83612a5e565b91506133ae8261336d565b602082019050919050565b600060208201905081810360008301526133d281613396565b9050919050565b60006133e4826128d2565b91506133ef836128d2565b9250817fffffffffffffffffffffffffffffffffffffffffffffffffffffffffffffffff048311821515161561342857613427612f69565b5b828202905092915050565b7f64732d6d6174682d6d756c2d6f766572666c6f77000000000000000000000000600082015250565b6000613469601483612a5e565b915061347482613433565b602082019050919050565b600060208201905081810360008301526134988161345c565b9050919050565b7f64732d6d6174682d7375622d756e646572666c6f770000000000000000000000600082015250565b60006134d5601583612a5e565b91506134e08261349f565b602082019050919050565b60006020820190508181036000830152613504816134c8565b9050919050565b7f4f564552464c4f57000000000000000000000000000000000000000000000000600082015250565b6000613541600883612a5e565b915061354c8261350b565b602082019050919050565b6000602082019050818103600083015261357081613534565b9050919050565b6000613582826128d2565b915061358d836128d2565b92508261359d5761359c613155565b5b828206905092915050565b60006135b382612b37565b91506135be83612b37565b9250828210156135d1576135d0612f69565b5b828203905092915050565b60006135e7826128d2565b91506135f2836128d2565b9250827fffffffffffffffffffffffffffffffffffffffffffffffffffffffffffffffff0382111561362757613626612f69565b5b828201905092915050565b60006040820190506136476000830185612b28565b6136546020830184612b28565b9392505050565b60008151905061366a8161293a565b92915050565b600060208284031215613686576136856128c8565b5b60006136948482850161365b565b91505092915050565b60007bffffffffffffffffffffffffffffffffffffffffffffffffffffffff82169050919050565b60006136d08261369d565b91506136db8361369d565b9250817bffffffffffffffffffffffffffffffffffffffffffffffffffffffff04831182151516156137105761370f612f69565b5b828202905092915050565b60006137268261369d565b91506137318361369d565b92508261374157613740613155565b5b828204905092915050565b7f64732d6d6174682d6164642d6f766572666c6f77000000000000000000000000600082015250565b6000613782601483612a5e565b915061378d8261374c565b602082019050919050565b600060208201905081810360008301526137b181613775565b905091905056fea2646970667358221220b56d1671b8495c2d14355ddaf8608a16468466dd2a927d100618e8366cae399f64736f6c634300080e0033",
					"opcodes": "PUSH1 0x80 PUSH1 0x40 MSTORE PUSH1 0x1 PUSH1 0xB SSTORE CALLVALUE DUP1 ISZERO PUSH2 0x15 JUMPI PUSH1 0x0 DUP1 REVERT JUMPDEST POP CALLER PUSH1 0x4 PUSH1 0x0 PUSH2 0x100 EXP DUP2 SLOAD DUP2 PUSH20 0xFFFFFFFFFFFFFFFFFFFFFFFFFFFFFFFFFFFFFFFF MUL NOT AND SWAP1 DUP4 PUSH20 0xFFFFFFFFFFFFFFFFFFFFFFFFFFFFFFFFFFFFFFFF AND MUL OR SWAP1 SSTORE POP PUSH2 0x37EE DUP1 PUSH2 0x66 PUSH1 0x0 CODECOPY PUSH1 0x0 RETURN INVALID PUSH1 0x80 PUSH1 0x40 MSTORE CALLVALUE DUP1 ISZERO PUSH2 0x10 JUMPI PUSH1 0x0 DUP1 REVERT JUMPDEST POP PUSH1 0x4 CALLDATASIZE LT PUSH2 0x158 JUMPI PUSH1 0x0 CALLDATALOAD PUSH1 0xE0 SHR DUP1 PUSH4 0x70A08231 GT PUSH2 0xC3 JUMPI DUP1 PUSH4 0xBA9A7A56 GT PUSH2 0x7C JUMPI DUP1 PUSH4 0xBA9A7A56 EQ PUSH2 0x3F6 JUMPI DUP1 PUSH4 0xBC25CF77 EQ PUSH2 0x414 JUMPI DUP1 PUSH4 0xC45A0155 EQ PUSH2 0x430 JUMPI DUP1 PUSH4 0xD21220A7 EQ PUSH2 0x44E JUMPI DUP1 PUSH4 0xDD62ED3E EQ PUSH2 0x46C JUMPI DUP1 PUSH4 0xFFF6CAE9 EQ PUSH2 0x49C JUMPI PUSH2 0x158 JUMP JUMPDEST DUP1 PUSH4 0x70A08231 EQ PUSH2 0x2F9 JUMPI DUP1 PUSH4 0x7464FC3D EQ PUSH2 0x329 JUMPI DUP1 PUSH4 0x7ECEBE00 EQ PUSH2 0x347 JUMPI DUP1 PUSH4 0x89AFCB44 EQ PUSH2 0x377 JUMPI DUP1 PUSH4 0x95D89B41 EQ PUSH2 0x3A8 JUMPI DUP1 PUSH4 0xA9059CBB EQ PUSH2 0x3C6 JUMPI PUSH2 0x158 JUMP JUMPDEST DUP1 PUSH4 0x23B872DD GT PUSH2 0x115 JUMPI DUP1 PUSH4 0x23B872DD EQ PUSH2 0x223 JUMPI DUP1 PUSH4 0x313CE567 EQ PUSH2 0x253 JUMPI DUP1 PUSH4 0x485CC955 EQ PUSH2 0x271 JUMPI DUP1 PUSH4 0x5909C0D5 EQ PUSH2 0x28D JUMPI DUP1 PUSH4 0x5A3D5493 EQ PUSH2 0x2AB JUMPI DUP1 PUSH4 0x6A627842 EQ PUSH2 0x2C9 JUMPI PUSH2 0x158 JUMP JUMPDEST DUP1 PUSH4 0x22C0D9F EQ PUSH2 0x15D JUMPI DUP1 PUSH4 0x6FDDE03 EQ PUSH2 0x179 JUMPI DUP1 PUSH4 0x902F1AC EQ PUSH2 0x197 JUMPI DUP1 PUSH4 0x95EA7B3 EQ PUSH2 0x1B7 JUMPI DUP1 PUSH4 0xDFE1681 EQ PUSH2 0x1E7 JUMPI DUP1 PUSH4 0x18160DDD EQ PUSH2 0x205 JUMPI JUMPDEST PUSH1 0x0 DUP1 REVERT JUMPDEST PUSH2 0x177 PUSH1 0x4 DUP1 CALLDATASIZE SUB DUP2 ADD SWAP1 PUSH2 0x172 SWAP2 SWAP1 PUSH2 0x29CB JUMP JUMPDEST PUSH2 0x4A6 JUMP JUMPDEST STOP JUMPDEST PUSH2 0x181 PUSH2 0xA78 JUMP JUMPDEST PUSH1 0x40 MLOAD PUSH2 0x18E SWAP2 SWAP1 PUSH2 0x2AEC JUMP JUMPDEST PUSH1 0x40 MLOAD DUP1 SWAP2 SUB SWAP1 RETURN JUMPDEST PUSH2 0x19F PUSH2 0xAB1 JUMP JUMPDEST PUSH1 0x40 MLOAD PUSH2 0x1AE SWAP4 SWAP3 SWAP2 SWAP1 PUSH2 0x2B56 JUMP JUMPDEST PUSH1 0x40 MLOAD DUP1 SWAP2 SUB SWAP1 RETURN JUMPDEST PUSH2 0x1D1 PUSH1 0x4 DUP1 CALLDATASIZE SUB DUP2 ADD SWAP1 PUSH2 0x1CC SWAP2 SWAP1 PUSH2 0x2B8D JUMP JUMPDEST PUSH2 0xB0E JUMP JUMPDEST PUSH1 0x40 MLOAD PUSH2 0x1DE SWAP2 SWAP1 PUSH2 0x2BE8 JUMP JUMPDEST PUSH1 0x40 MLOAD DUP1 SWAP2 SUB SWAP1 RETURN JUMPDEST PUSH2 0x1EF PUSH2 0xB25 JUMP JUMPDEST PUSH1 0x40 MLOAD PUSH2 0x1FC SWAP2 SWAP1 PUSH2 0x2C12 JUMP JUMPDEST PUSH1 0x40 MLOAD DUP1 SWAP2 SUB SWAP1 RETURN JUMPDEST PUSH2 0x20D PUSH2 0xB4B JUMP JUMPDEST PUSH1 0x40 MLOAD PUSH2 0x21A SWAP2 SWAP1 PUSH2 0x2C3C JUMP JUMPDEST PUSH1 0x40 MLOAD DUP1 SWAP2 SUB SWAP1 RETURN JUMPDEST PUSH2 0x23D PUSH1 0x4 DUP1 CALLDATASIZE SUB DUP2 ADD SWAP1 PUSH2 0x238 SWAP2 SWAP1 PUSH2 0x2C57 JUMP JUMPDEST PUSH2 0xB51 JUMP JUMPDEST PUSH1 0x40 MLOAD PUSH2 0x24A SWAP2 SWAP1 PUSH2 0x2BE8 JUMP JUMPDEST PUSH1 0x40 MLOAD DUP1 SWAP2 SUB SWAP1 RETURN JUMPDEST PUSH2 0x25B PUSH2 0xD0A JUMP JUMPDEST PUSH1 0x40 MLOAD PUSH2 0x268 SWAP2 SWAP1 PUSH2 0x2CC6 JUMP JUMPDEST PUSH1 0x40 MLOAD DUP1 SWAP2 SUB SWAP1 RETURN JUMPDEST PUSH2 0x28B PUSH1 0x4 DUP1 CALLDATASIZE SUB DUP2 ADD SWAP1 PUSH2 0x286 SWAP2 SWAP1 PUSH2 0x2CE1 JUMP JUMPDEST PUSH2 0xD0F JUMP JUMPDEST STOP JUMPDEST PUSH2 0x295 PUSH2 0xE25 JUMP JUMPDEST PUSH1 0x40 MLOAD PUSH2 0x2A2 SWAP2 SWAP1 PUSH2 0x2C3C JUMP JUMPDEST PUSH1 0x40 MLOAD DUP1 SWAP2 SUB SWAP1 RETURN JUMPDEST PUSH2 0x2B3 PUSH2 0xE2B JUMP JUMPDEST PUSH1 0x40 MLOAD PUSH2 0x2C0 SWAP2 SWAP1 PUSH2 0x2C3C JUMP JUMPDEST PUSH1 0x40 MLOAD DUP1 SWAP2 SUB SWAP1 RETURN JUMPDEST PUSH2 0x2E3 PUSH1 0x4 DUP1 CALLDATASIZE SUB DUP2 ADD SWAP1 PUSH2 0x2DE SWAP2 SWAP1 PUSH2 0x2D21 JUMP JUMPDEST PUSH2 0xE31 JUMP JUMPDEST PUSH1 0x40 MLOAD PUSH2 0x2F0 SWAP2 SWAP1 PUSH2 0x2C3C JUMP JUMPDEST PUSH1 0x40 MLOAD DUP1 SWAP2 SUB SWAP1 RETURN JUMPDEST PUSH2 0x313 PUSH1 0x4 DUP1 CALLDATASIZE SUB DUP2 ADD SWAP1 PUSH2 0x30E SWAP2 SWAP1 PUSH2 0x2D21 JUMP JUMPDEST PUSH2 0x121A JUMP JUMPDEST PUSH1 0x40 MLOAD PUSH2 0x320 SWAP2 SWAP1 PUSH2 0x2C3C JUMP JUMPDEST PUSH1 0x40 MLOAD DUP1 SWAP2 SUB SWAP1 RETURN JUMPDEST PUSH2 0x331 PUSH2 0x1232 JUMP JUMPDEST PUSH1 0x40 MLOAD PUSH2 0x33E SWAP2 SWAP1 PUSH2 0x2C3C JUMP JUMPDEST PUSH1 0x40 MLOAD DUP1 SWAP2 SUB SWAP1 RETURN JUMPDEST PUSH2 0x361 PUSH1 0x4 DUP1 CALLDATASIZE SUB DUP2 ADD SWAP1 PUSH2 0x35C SWAP2 SWAP1 PUSH2 0x2D21 JUMP JUMPDEST PUSH2 0x1238 JUMP JUMPDEST PUSH1 0x40 MLOAD PUSH2 0x36E SWAP2 SWAP1 PUSH2 0x2C3C JUMP JUMPDEST PUSH1 0x40 MLOAD DUP1 SWAP2 SUB SWAP1 RETURN JUMPDEST PUSH2 0x391 PUSH1 0x4 DUP1 CALLDATASIZE SUB DUP2 ADD SWAP1 PUSH2 0x38C SWAP2 SWAP1 PUSH2 0x2D21 JUMP JUMPDEST PUSH2 0x1250 JUMP JUMPDEST PUSH1 0x40 MLOAD PUSH2 0x39F SWAP3 SWAP2 SWAP1 PUSH2 0x2D4E JUMP JUMPDEST PUSH1 0x40 MLOAD DUP1 SWAP2 SUB SWAP1 RETURN JUMPDEST PUSH2 0x3B0 PUSH2 0x16FA JUMP JUMPDEST PUSH1 0x40 MLOAD PUSH2 0x3BD SWAP2 SWAP1 PUSH2 0x2AEC JUMP JUMPDEST PUSH1 0x40 MLOAD DUP1 SWAP2 SUB SWAP1 RETURN JUMPDEST PUSH2 0x3E0 PUSH1 0x4 DUP1 CALLDATASIZE SUB DUP2 ADD SWAP1 PUSH2 0x3DB SWAP2 SWAP1 PUSH2 0x2B8D JUMP JUMPDEST PUSH2 0x1733 JUMP JUMPDEST PUSH1 0x40 MLOAD PUSH2 0x3ED SWAP2 SWAP1 PUSH2 0x2BE8 JUMP JUMPDEST PUSH1 0x40 MLOAD DUP1 SWAP2 SUB SWAP1 RETURN JUMPDEST PUSH2 0x3FE PUSH2 0x174A JUMP JUMPDEST PUSH1 0x40 MLOAD PUSH2 0x40B SWAP2 SWAP1 PUSH2 0x2C3C JUMP JUMPDEST PUSH1 0x40 MLOAD DUP1 SWAP2 SUB SWAP1 RETURN JUMPDEST PUSH2 0x42E PUSH1 0x4 DUP1 CALLDATASIZE SUB DUP2 ADD SWAP1 PUSH2 0x429 SWAP2 SWAP1 PUSH2 0x2D21 JUMP JUMPDEST PUSH2 0x1750 JUMP JUMPDEST STOP JUMPDEST PUSH2 0x438 PUSH2 0x197C JUMP JUMPDEST PUSH1 0x40 MLOAD PUSH2 0x445 SWAP2 SWAP1 PUSH2 0x2C12 JUMP JUMPDEST PUSH1 0x40 MLOAD DUP1 SWAP2 SUB SWAP1 RETURN JUMPDEST PUSH2 0x456 PUSH2 0x19A2 JUMP JUMPDEST PUSH1 0x40 MLOAD PUSH2 0x463 SWAP2 SWAP1 PUSH2 0x2C12 JUMP JUMPDEST PUSH1 0x40 MLOAD DUP1 SWAP2 SUB SWAP1 RETURN JUMPDEST PUSH2 0x486 PUSH1 0x4 DUP1 CALLDATASIZE SUB DUP2 ADD SWAP1 PUSH2 0x481 SWAP2 SWAP1 PUSH2 0x2CE1 JUMP JUMPDEST PUSH2 0x19C8 JUMP JUMPDEST PUSH1 0x40 MLOAD PUSH2 0x493 SWAP2 SWAP1 PUSH2 0x2C3C JUMP JUMPDEST PUSH1 0x40 MLOAD DUP1 SWAP2 SUB SWAP1 RETURN JUMPDEST PUSH2 0x4A4 PUSH2 0x19ED JUMP JUMPDEST STOP JUMPDEST PUSH1 0x1 PUSH1 0xB SLOAD EQ PUSH2 0x4EB JUMPI PUSH1 0x40 MLOAD PUSH32 0x8C379A000000000000000000000000000000000000000000000000000000000 DUP2 MSTORE PUSH1 0x4 ADD PUSH2 0x4E2 SWAP1 PUSH2 0x2DC3 JUMP JUMPDEST PUSH1 0x40 MLOAD DUP1 SWAP2 SUB SWAP1 REVERT JUMPDEST PUSH1 0x0 PUSH1 0xB DUP2 SWAP1 SSTORE POP PUSH1 0x0 DUP6 GT DUP1 PUSH2 0x502 JUMPI POP PUSH1 0x0 DUP5 GT JUMPDEST PUSH2 0x541 JUMPI PUSH1 0x40 MLOAD PUSH32 0x8C379A000000000000000000000000000000000000000000000000000000000 DUP2 MSTORE PUSH1 0x4 ADD PUSH2 0x538 SWAP1 PUSH2 0x2E2F JUMP JUMPDEST PUSH1 0x40 MLOAD DUP1 SWAP2 SUB SWAP1 REVERT JUMPDEST PUSH1 0x0 DUP1 PUSH2 0x54C PUSH2 0xAB1 JUMP JUMPDEST POP SWAP2 POP SWAP2 POP DUP2 PUSH14 0xFFFFFFFFFFFFFFFFFFFFFFFFFFFF AND DUP8 LT DUP1 ISZERO PUSH2 0x57F JUMPI POP DUP1 PUSH14 0xFFFFFFFFFFFFFFFFFFFFFFFFFFFF AND DUP7 LT JUMPDEST PUSH2 0x5BE JUMPI PUSH1 0x40 MLOAD PUSH32 0x8C379A000000000000000000000000000000000000000000000000000000000 DUP2 MSTORE PUSH1 0x4 ADD PUSH2 0x5B5 SWAP1 PUSH2 0x2E9B JUMP JUMPDEST PUSH1 0x40 MLOAD DUP1 SWAP2 SUB SWAP1 REVERT JUMPDEST PUSH1 0x0 DUP1 PUSH1 0x0 PUSH1 0x5 PUSH1 0x0 SWAP1 SLOAD SWAP1 PUSH2 0x100 EXP SWAP1 DIV PUSH20 0xFFFFFFFFFFFFFFFFFFFFFFFFFFFFFFFFFFFFFFFF AND SWAP1 POP PUSH1 0x0 PUSH1 0x6 PUSH1 0x0 SWAP1 SLOAD SWAP1 PUSH2 0x100 EXP SWAP1 DIV PUSH20 0xFFFFFFFFFFFFFFFFFFFFFFFFFFFFFFFFFFFFFFFF AND SWAP1 POP DUP2 PUSH20 0xFFFFFFFFFFFFFFFFFFFFFFFFFFFFFFFFFFFFFFFF AND DUP10 PUSH20 0xFFFFFFFFFFFFFFFFFFFFFFFFFFFFFFFFFFFFFFFF AND EQ ISZERO DUP1 ISZERO PUSH2 0x677 JUMPI POP DUP1 PUSH20 0xFFFFFFFFFFFFFFFFFFFFFFFFFFFFFFFFFFFFFFFF AND DUP10 PUSH20 0xFFFFFFFFFFFFFFFFFFFFFFFFFFFFFFFFFFFFFFFF AND EQ ISZERO JUMPDEST PUSH2 0x6B6 JUMPI PUSH1 0x40 MLOAD PUSH32 0x8C379A000000000000000000000000000000000000000000000000000000000 DUP2 MSTORE PUSH1 0x4 ADD PUSH2 0x6AD SWAP1 PUSH2 0x2F07 JUMP JUMPDEST PUSH1 0x40 MLOAD DUP1 SWAP2 SUB SWAP1 REVERT JUMPDEST PUSH1 0x0 DUP12 GT ISZERO PUSH2 0x6CB JUMPI PUSH2 0x6CA DUP3 DUP11 DUP14 PUSH2 0x1BBE JUMP JUMPDEST JUMPDEST PUSH1 0x0 DUP11 GT ISZERO PUSH2 0x6E0 JUMPI PUSH2 0x6DF DUP2 DUP11 DUP13 PUSH2 0x1BBE JUMP JUMPDEST JUMPDEST DUP2 PUSH20 0xFFFFFFFFFFFFFFFFFFFFFFFFFFFFFFFFFFFFFFFF AND PUSH4 0x70A08231 ADDRESS PUSH1 0x40 MLOAD DUP3 PUSH4 0xFFFFFFFF AND PUSH1 0xE0 SHL DUP2 MSTORE PUSH1 0x4 ADD PUSH2 0x719 SWAP2 SWAP1 PUSH2 0x2C12 JUMP JUMPDEST PUSH1 0x20 PUSH1 0x40 MLOAD DUP1 DUP4 SUB DUP2 DUP7 GAS STATICCALL ISZERO DUP1 ISZERO PUSH2 0x736 JUMPI RETURNDATASIZE PUSH1 0x0 DUP1 RETURNDATACOPY RETURNDATASIZE PUSH1 0x0 REVERT JUMPDEST POP POP POP POP PUSH1 0x40 MLOAD RETURNDATASIZE PUSH1 0x1F NOT PUSH1 0x1F DUP3 ADD AND DUP3 ADD DUP1 PUSH1 0x40 MSTORE POP DUP2 ADD SWAP1 PUSH2 0x75A SWAP2 SWAP1 PUSH2 0x2F3C JUMP JUMPDEST SWAP4 POP DUP1 PUSH20 0xFFFFFFFFFFFFFFFFFFFFFFFFFFFFFFFFFFFFFFFF AND PUSH4 0x70A08231 ADDRESS PUSH1 0x40 MLOAD DUP3 PUSH4 0xFFFFFFFF AND PUSH1 0xE0 SHL DUP2 MSTORE PUSH1 0x4 ADD PUSH2 0x795 SWAP2 SWAP1 PUSH2 0x2C12 JUMP JUMPDEST PUSH1 0x20 PUSH1 0x40 MLOAD DUP1 DUP4 SUB DUP2 DUP7 GAS STATICCALL ISZERO DUP1 ISZERO PUSH2 0x7B2 JUMPI RETURNDATASIZE PUSH1 0x0 DUP1 RETURNDATACOPY RETURNDATASIZE PUSH1 0x0 REVERT JUMPDEST POP POP POP POP PUSH1 0x40 MLOAD RETURNDATASIZE PUSH1 0x1F NOT PUSH1 0x1F DUP3 ADD AND DUP3 ADD DUP1 PUSH1 0x40 MSTORE POP DUP2 ADD SWAP1 PUSH2 0x7D6 SWAP2 SWAP1 PUSH2 0x2F3C JUMP JUMPDEST SWAP3 POP POP POP PUSH1 0x0 DUP10 DUP6 PUSH14 0xFFFFFFFFFFFFFFFFFFFFFFFFFFFF AND PUSH2 0x7F8 SWAP2 SWAP1 PUSH2 0x2F98 JUMP JUMPDEST DUP4 GT PUSH2 0x805 JUMPI PUSH1 0x0 PUSH2 0x82D JUMP JUMPDEST DUP10 DUP6 PUSH14 0xFFFFFFFFFFFFFFFFFFFFFFFFFFFF AND PUSH2 0x821 SWAP2 SWAP1 PUSH2 0x2F98 JUMP JUMPDEST DUP4 PUSH2 0x82C SWAP2 SWAP1 PUSH2 0x2F98 JUMP JUMPDEST JUMPDEST SWAP1 POP PUSH1 0x0 DUP10 DUP6 PUSH14 0xFFFFFFFFFFFFFFFFFFFFFFFFFFFF AND PUSH2 0x84D SWAP2 SWAP1 PUSH2 0x2F98 JUMP JUMPDEST DUP4 GT PUSH2 0x85A JUMPI PUSH1 0x0 PUSH2 0x882 JUMP JUMPDEST DUP10 DUP6 PUSH14 0xFFFFFFFFFFFFFFFFFFFFFFFFFFFF AND PUSH2 0x876 SWAP2 SWAP1 PUSH2 0x2F98 JUMP JUMPDEST DUP4 PUSH2 0x881 SWAP2 SWAP1 PUSH2 0x2F98 JUMP JUMPDEST JUMPDEST SWAP1 POP PUSH1 0x0 DUP3 GT DUP1 PUSH2 0x893 JUMPI POP PUSH1 0x0 DUP2 GT JUMPDEST PUSH2 0x8D2 JUMPI PUSH1 0x40 MLOAD PUSH32 0x8C379A000000000000000000000000000000000000000000000000000000000 DUP2 MSTORE PUSH1 0x4 ADD PUSH2 0x8C9 SWAP1 PUSH2 0x3018 JUMP JUMPDEST PUSH1 0x40 MLOAD DUP1 SWAP2 SUB SWAP1 REVERT JUMPDEST PUSH1 0x0 PUSH2 0x90E PUSH2 0x8EB PUSH1 0x3 DUP6 PUSH2 0x1D48 SWAP1 SWAP2 SWAP1 PUSH4 0xFFFFFFFF AND JUMP JUMPDEST PUSH2 0x900 PUSH2 0x3E8 DUP9 PUSH2 0x1D48 SWAP1 SWAP2 SWAP1 PUSH4 0xFFFFFFFF AND JUMP JUMPDEST PUSH2 0x1DB5 SWAP1 SWAP2 SWAP1 PUSH4 0xFFFFFFFF AND JUMP JUMPDEST SWAP1 POP PUSH1 0x0 PUSH2 0x94C PUSH2 0x929 PUSH1 0x3 DUP6 PUSH2 0x1D48 SWAP1 SWAP2 SWAP1 PUSH4 0xFFFFFFFF AND JUMP JUMPDEST PUSH2 0x93E PUSH2 0x3E8 DUP9 PUSH2 0x1D48 SWAP1 SWAP2 SWAP1 PUSH4 0xFFFFFFFF AND JUMP JUMPDEST PUSH2 0x1DB5 SWAP1 SWAP2 SWAP1 PUSH4 0xFFFFFFFF AND JUMP JUMPDEST SWAP1 POP PUSH2 0x996 PUSH3 0xF4240 PUSH2 0x988 DUP10 PUSH14 0xFFFFFFFFFFFFFFFFFFFFFFFFFFFF AND DUP12 PUSH14 0xFFFFFFFFFFFFFFFFFFFFFFFFFFFF AND PUSH2 0x1D48 SWAP1 SWAP2 SWAP1 PUSH4 0xFFFFFFFF AND JUMP JUMPDEST PUSH2 0x1D48 SWAP1 SWAP2 SWAP1 PUSH4 0xFFFFFFFF AND JUMP JUMPDEST PUSH2 0x9A9 DUP3 DUP5 PUSH2 0x1D48 SWAP1 SWAP2 SWAP1 PUSH4 0xFFFFFFFF AND JUMP JUMPDEST LT ISZERO PUSH2 0x9EA JUMPI PUSH1 0x40 MLOAD PUSH32 0x8C379A000000000000000000000000000000000000000000000000000000000 DUP2 MSTORE PUSH1 0x4 ADD PUSH2 0x9E1 SWAP1 PUSH2 0x3084 JUMP JUMPDEST PUSH1 0x40 MLOAD DUP1 SWAP2 SUB SWAP1 REVERT JUMPDEST POP POP PUSH2 0x9F8 DUP5 DUP5 DUP9 DUP9 PUSH2 0x1E0E JUMP JUMPDEST DUP9 PUSH20 0xFFFFFFFFFFFFFFFFFFFFFFFFFFFFFFFFFFFFFFFF AND CALLER PUSH20 0xFFFFFFFFFFFFFFFFFFFFFFFFFFFFFFFFFFFFFFFF AND PUSH32 0xD78AD95FA46C994B6551D0DA85FC275FE613CE37657FB8D5E3D130840159D822 DUP5 DUP5 DUP16 DUP16 PUSH1 0x40 MLOAD PUSH2 0xA5B SWAP5 SWAP4 SWAP3 SWAP2 SWAP1 PUSH2 0x30A4 JUMP JUMPDEST PUSH1 0x40 MLOAD DUP1 SWAP2 SUB SWAP1 LOG3 POP POP POP POP POP POP PUSH1 0x1 PUSH1 0xB DUP2 SWAP1 SSTORE POP POP POP POP POP POP JUMP JUMPDEST PUSH1 0x40 MLOAD DUP1 PUSH1 0x40 ADD PUSH1 0x40 MSTORE DUP1 PUSH1 0x8 DUP2 MSTORE PUSH1 0x20 ADD PUSH32 0x58537761702D5631000000000000000000000000000000000000000000000000 DUP2 MSTORE POP DUP2 JUMP JUMPDEST PUSH1 0x0 DUP1 PUSH1 0x0 PUSH1 0x7 PUSH1 0x0 SWAP1 SLOAD SWAP1 PUSH2 0x100 EXP SWAP1 DIV PUSH14 0xFFFFFFFFFFFFFFFFFFFFFFFFFFFF AND SWAP3 POP PUSH1 0x7 PUSH1 0xE SWAP1 SLOAD SWAP1 PUSH2 0x100 EXP SWAP1 DIV PUSH14 0xFFFFFFFFFFFFFFFFFFFFFFFFFFFF AND SWAP2 POP PUSH1 0x7 PUSH1 0x1C SWAP1 SLOAD SWAP1 PUSH2 0x100 EXP SWAP1 DIV PUSH4 0xFFFFFFFF AND SWAP1 POP SWAP1 SWAP2 SWAP3 JUMP JUMPDEST PUSH1 0x0 PUSH2 0xB1B CALLER DUP5 DUP5 PUSH2 0x20FE JUMP JUMPDEST PUSH1 0x1 SWAP1 POP SWAP3 SWAP2 POP POP JUMP JUMPDEST PUSH1 0x5 PUSH1 0x0 SWAP1 SLOAD SWAP1 PUSH2 0x100 EXP SWAP1 DIV PUSH20 0xFFFFFFFFFFFFFFFFFFFFFFFFFFFFFFFFFFFFFFFF AND DUP2 JUMP JUMPDEST PUSH1 0x0 SLOAD DUP2 JUMP JUMPDEST PUSH1 0x0 PUSH14 0xFFFFFFFFFFFFFFFFFFFFFFFFFFFF PUSH1 0x2 PUSH1 0x0 DUP7 PUSH20 0xFFFFFFFFFFFFFFFFFFFFFFFFFFFFFFFFFFFFFFFF AND PUSH20 0xFFFFFFFFFFFFFFFFFFFFFFFFFFFFFFFFFFFFFFFF AND DUP2 MSTORE PUSH1 0x20 ADD SWAP1 DUP2 MSTORE PUSH1 0x20 ADD PUSH1 0x0 KECCAK256 PUSH1 0x0 CALLER PUSH20 0xFFFFFFFFFFFFFFFFFFFFFFFFFFFFFFFFFFFFFFFF AND PUSH20 0xFFFFFFFFFFFFFFFFFFFFFFFFFFFFFFFFFFFFFFFF AND DUP2 MSTORE PUSH1 0x20 ADD SWAP1 DUP2 MSTORE PUSH1 0x20 ADD PUSH1 0x0 KECCAK256 SLOAD EQ PUSH2 0xCF4 JUMPI PUSH2 0xC73 DUP3 PUSH1 0x2 PUSH1 0x0 DUP8 PUSH20 0xFFFFFFFFFFFFFFFFFFFFFFFFFFFFFFFFFFFFFFFF AND PUSH20 0xFFFFFFFFFFFFFFFFFFFFFFFFFFFFFFFFFFFFFFFF AND DUP2 MSTORE PUSH1 0x20 ADD SWAP1 DUP2 MSTORE PUSH1 0x20 ADD PUSH1 0x0 KECCAK256 PUSH1 0x0 CALLER PUSH20 0xFFFFFFFFFFFFFFFFFFFFFFFFFFFFFFFFFFFFFFFF AND PUSH20 0xFFFFFFFFFFFFFFFFFFFFFFFFFFFFFFFFFFFFFFFF AND DUP2 MSTORE PUSH1 0x20 ADD SWAP1 DUP2 MSTORE PUSH1 0x20 ADD PUSH1 0x0 KECCAK256 SLOAD PUSH2 0x1DB5 SWAP1 SWAP2 SWAP1 PUSH4 0xFFFFFFFF AND JUMP JUMPDEST PUSH1 0x2 PUSH1 0x0 DUP7 PUSH20 0xFFFFFFFFFFFFFFFFFFFFFFFFFFFFFFFFFFFFFFFF AND PUSH20 0xFFFFFFFFFFFFFFFFFFFFFFFFFFFFFFFFFFFFFFFF AND DUP2 MSTORE PUSH1 0x20 ADD SWAP1 DUP2 MSTORE PUSH1 0x20 ADD PUSH1 0x0 KECCAK256 PUSH1 0x0 CALLER PUSH20 0xFFFFFFFFFFFFFFFFFFFFFFFFFFFFFFFFFFFFFFFF AND PUSH20 0xFFFFFFFFFFFFFFFFFFFFFFFFFFFFFFFFFFFFFFFF AND DUP2 MSTORE PUSH1 0x20 ADD SWAP1 DUP2 MSTORE PUSH1 0x20 ADD PUSH1 0x0 KECCAK256 DUP2 SWAP1 SSTORE POP JUMPDEST PUSH2 0xCFF DUP5 DUP5 DUP5 PUSH2 0x21E9 JUMP JUMPDEST PUSH1 0x1 SWAP1 POP SWAP4 SWAP3 POP POP POP JUMP JUMPDEST PUSH1 0x12 DUP2 JUMP JUMPDEST PUSH1 0x4 PUSH1 0x0 SWAP1 SLOAD SWAP1 PUSH2 0x100 EXP SWAP1 DIV PUSH20 0xFFFFFFFFFFFFFFFFFFFFFFFFFFFFFFFFFFFFFFFF AND PUSH20 0xFFFFFFFFFFFFFFFFFFFFFFFFFFFFFFFFFFFFFFFF AND CALLER PUSH20 0xFFFFFFFFFFFFFFFFFFFFFFFFFFFFFFFFFFFFFFFF AND EQ PUSH2 0xD9F JUMPI PUSH1 0x40 MLOAD PUSH32 0x8C379A000000000000000000000000000000000000000000000000000000000 DUP2 MSTORE PUSH1 0x4 ADD PUSH2 0xD96 SWAP1 PUSH2 0x3135 JUMP JUMPDEST PUSH1 0x40 MLOAD DUP1 SWAP2 SUB SWAP1 REVERT JUMPDEST DUP2 PUSH1 0x5 PUSH1 0x0 PUSH2 0x100 EXP DUP2 SLOAD DUP2 PUSH20 0xFFFFFFFFFFFFFFFFFFFFFFFFFFFFFFFFFFFFFFFF MUL NOT AND SWAP1 DUP4 PUSH20 0xFFFFFFFFFFFFFFFFFFFFFFFFFFFFFFFFFFFFFFFF AND MUL OR SWAP1 SSTORE POP DUP1 PUSH1 0x6 PUSH1 0x0 PUSH2 0x100 EXP DUP2 SLOAD DUP2 PUSH20 0xFFFFFFFFFFFFFFFFFFFFFFFFFFFFFFFFFFFFFFFF MUL NOT AND SWAP1 DUP4 PUSH20 0xFFFFFFFFFFFFFFFFFFFFFFFFFFFFFFFFFFFFFFFF AND MUL OR SWAP1 SSTORE POP POP POP JUMP JUMPDEST PUSH1 0x8 SLOAD DUP2 JUMP JUMPDEST PUSH1 0x9 SLOAD DUP2 JUMP JUMPDEST PUSH1 0x0 PUSH1 0x1 PUSH1 0xB SLOAD EQ PUSH2 0xE78 JUMPI PUSH1 0x40 MLOAD PUSH32 0x8C379A000000000000000000000000000000000000000000000000000000000 DUP2 MSTORE PUSH1 0x4 ADD PUSH2 0xE6F SWAP1 PUSH2 0x2DC3 JUMP JUMPDEST PUSH1 0x40 MLOAD DUP1 SWAP2 SUB SWAP1 REVERT JUMPDEST PUSH1 0x0 PUSH1 0xB DUP2 SWAP1 SSTORE POP PUSH1 0x0 DUP1 PUSH2 0xE8B PUSH2 0xAB1 JUMP JUMPDEST POP SWAP2 POP SWAP2 POP PUSH1 0x0 PUSH1 0x5 PUSH1 0x0 SWAP1 SLOAD SWAP1 PUSH2 0x100 EXP SWAP1 DIV PUSH20 0xFFFFFFFFFFFFFFFFFFFFFFFFFFFFFFFFFFFFFFFF AND PUSH20 0xFFFFFFFFFFFFFFFFFFFFFFFFFFFFFFFFFFFFFFFF AND PUSH4 0x70A08231 ADDRESS PUSH1 0x40 MLOAD DUP3 PUSH4 0xFFFFFFFF AND PUSH1 0xE0 SHL DUP2 MSTORE PUSH1 0x4 ADD PUSH2 0xEED SWAP2 SWAP1 PUSH2 0x2C12 JUMP JUMPDEST PUSH1 0x20 PUSH1 0x40 MLOAD DUP1 DUP4 SUB DUP2 DUP7 GAS STATICCALL ISZERO DUP1 ISZERO PUSH2 0xF0A JUMPI RETURNDATASIZE PUSH1 0x0 DUP1 RETURNDATACOPY RETURNDATASIZE PUSH1 0x0 REVERT JUMPDEST POP POP POP POP PUSH1 0x40 MLOAD RETURNDATASIZE PUSH1 0x1F NOT PUSH1 0x1F DUP3 ADD AND DUP3 ADD DUP1 PUSH1 0x40 MSTORE POP DUP2 ADD SWAP1 PUSH2 0xF2E SWAP2 SWAP1 PUSH2 0x2F3C JUMP JUMPDEST SWAP1 POP PUSH1 0x0 PUSH1 0x6 PUSH1 0x0 SWAP1 SLOAD SWAP1 PUSH2 0x100 EXP SWAP1 DIV PUSH20 0xFFFFFFFFFFFFFFFFFFFFFFFFFFFFFFFFFFFFFFFF AND PUSH20 0xFFFFFFFFFFFFFFFFFFFFFFFFFFFFFFFFFFFFFFFF AND PUSH4 0x70A08231 ADDRESS PUSH1 0x40 MLOAD DUP3 PUSH4 0xFFFFFFFF AND PUSH1 0xE0 SHL DUP2 MSTORE PUSH1 0x4 ADD PUSH2 0xF8D SWAP2 SWAP1 PUSH2 0x2C12 JUMP JUMPDEST PUSH1 0x20 PUSH1 0x40 MLOAD DUP1 DUP4 SUB DUP2 DUP7 GAS STATICCALL ISZERO DUP1 ISZERO PUSH2 0xFAA JUMPI RETURNDATASIZE PUSH1 0x0 DUP1 RETURNDATACOPY RETURNDATASIZE PUSH1 0x0 REVERT JUMPDEST POP POP POP POP PUSH1 0x40 MLOAD RETURNDATASIZE PUSH1 0x1F NOT PUSH1 0x1F DUP3 ADD AND DUP3 ADD DUP1 PUSH1 0x40 MSTORE POP DUP2 ADD SWAP1 PUSH2 0xFCE SWAP2 SWAP1 PUSH2 0x2F3C JUMP JUMPDEST SWAP1 POP PUSH1 0x0 PUSH2 0xFF5 DUP6 PUSH14 0xFFFFFFFFFFFFFFFFFFFFFFFFFFFF AND DUP5 PUSH2 0x1DB5 SWAP1 SWAP2 SWAP1 PUSH4 0xFFFFFFFF AND JUMP JUMPDEST SWAP1 POP PUSH1 0x0 PUSH2 0x101C DUP6 PUSH14 0xFFFFFFFFFFFFFFFFFFFFFFFFFFFF AND DUP5 PUSH2 0x1DB5 SWAP1 SWAP2 SWAP1 PUSH4 0xFFFFFFFF AND JUMP JUMPDEST SWAP1 POP PUSH1 0x0 PUSH2 0x102A DUP8 DUP8 PUSH2 0x237D JUMP JUMPDEST SWAP1 POP PUSH1 0x0 DUP1 SLOAD SWAP1 POP PUSH1 0x0 DUP2 SUB PUSH2 0x107D JUMPI PUSH2 0x1069 PUSH2 0x3E8 PUSH2 0x105B PUSH2 0x1056 DUP7 DUP9 PUSH2 0x1D48 SWAP1 SWAP2 SWAP1 PUSH4 0xFFFFFFFF AND JUMP JUMPDEST PUSH2 0x254E JUMP JUMPDEST PUSH2 0x1DB5 SWAP1 SWAP2 SWAP1 PUSH4 0xFFFFFFFF AND JUMP JUMPDEST SWAP9 POP PUSH2 0x1078 PUSH1 0x0 PUSH2 0x3E8 PUSH2 0x25C8 JUMP JUMPDEST PUSH2 0x10E4 JUMP JUMPDEST PUSH2 0x10E1 DUP9 PUSH14 0xFFFFFFFFFFFFFFFFFFFFFFFFFFFF AND PUSH2 0x10A4 DUP4 DUP8 PUSH2 0x1D48 SWAP1 SWAP2 SWAP1 PUSH4 0xFFFFFFFF AND JUMP JUMPDEST PUSH2 0x10AE SWAP2 SWAP1 PUSH2 0x3184 JUMP JUMPDEST DUP9 PUSH14 0xFFFFFFFFFFFFFFFFFFFFFFFFFFFF AND PUSH2 0x10D2 DUP5 DUP8 PUSH2 0x1D48 SWAP1 SWAP2 SWAP1 PUSH4 0xFFFFFFFF AND JUMP JUMPDEST PUSH2 0x10DC SWAP2 SWAP1 PUSH2 0x3184 JUMP JUMPDEST PUSH2 0x26E2 JUMP JUMPDEST SWAP9 POP JUMPDEST PUSH1 0x0 DUP10 GT PUSH2 0x1127 JUMPI PUSH1 0x40 MLOAD PUSH32 0x8C379A000000000000000000000000000000000000000000000000000000000 DUP2 MSTORE PUSH1 0x4 ADD PUSH2 0x111E SWAP1 PUSH2 0x3201 JUMP JUMPDEST PUSH1 0x40 MLOAD DUP1 SWAP2 SUB SWAP1 REVERT JUMPDEST PUSH2 0x1131 DUP11 DUP11 PUSH2 0x25C8 JUMP JUMPDEST PUSH2 0x113D DUP7 DUP7 DUP11 DUP11 PUSH2 0x1E0E JUMP JUMPDEST DUP2 ISZERO PUSH2 0x11B5 JUMPI PUSH2 0x11AE PUSH1 0x7 PUSH1 0xE SWAP1 SLOAD SWAP1 PUSH2 0x100 EXP SWAP1 DIV PUSH14 0xFFFFFFFFFFFFFFFFFFFFFFFFFFFF AND PUSH14 0xFFFFFFFFFFFFFFFFFFFFFFFFFFFF AND PUSH1 0x7 PUSH1 0x0 SWAP1 SLOAD SWAP1 PUSH2 0x100 EXP SWAP1 DIV PUSH14 0xFFFFFFFFFFFFFFFFFFFFFFFFFFFF AND PUSH14 0xFFFFFFFFFFFFFFFFFFFFFFFFFFFF AND PUSH2 0x1D48 SWAP1 SWAP2 SWAP1 PUSH4 0xFFFFFFFF AND JUMP JUMPDEST PUSH1 0xA DUP2 SWAP1 SSTORE POP JUMPDEST CALLER PUSH20 0xFFFFFFFFFFFFFFFFFFFFFFFFFFFFFFFFFFFFFFFF AND PUSH32 0x4C209B5FC8AD50758F13E2E1088BA56A560DFF690A1C6FEF26394F4C03821C4F DUP6 DUP6 PUSH1 0x40 MLOAD PUSH2 0x11FD SWAP3 SWAP2 SWAP1 PUSH2 0x2D4E JUMP JUMPDEST PUSH1 0x40 MLOAD DUP1 SWAP2 SUB SWAP1 LOG2 POP POP POP POP POP POP POP POP PUSH1 0x1 PUSH1 0xB DUP2 SWAP1 SSTORE POP SWAP2 SWAP1 POP JUMP JUMPDEST PUSH1 0x1 PUSH1 0x20 MSTORE DUP1 PUSH1 0x0 MSTORE PUSH1 0x40 PUSH1 0x0 KECCAK256 PUSH1 0x0 SWAP2 POP SWAP1 POP SLOAD DUP2 JUMP JUMPDEST PUSH1 0xA SLOAD DUP2 JUMP JUMPDEST PUSH1 0x3 PUSH1 0x20 MSTORE DUP1 PUSH1 0x0 MSTORE PUSH1 0x40 PUSH1 0x0 KECCAK256 PUSH1 0x0 SWAP2 POP SWAP1 POP SLOAD DUP2 JUMP JUMPDEST PUSH1 0x0 DUP1 PUSH1 0x1 PUSH1 0xB SLOAD EQ PUSH2 0x1298 JUMPI PUSH1 0x40 MLOAD PUSH32 0x8C379A000000000000000000000000000000000000000000000000000000000 DUP2 MSTORE PUSH1 0x4 ADD PUSH2 0x128F SWAP1 PUSH2 0x2DC3 JUMP JUMPDEST PUSH1 0x40 MLOAD DUP1 SWAP2 SUB SWAP1 REVERT JUMPDEST PUSH1 0x0 PUSH1 0xB DUP2 SWAP1 SSTORE POP PUSH1 0x0 DUP1 PUSH2 0x12AB PUSH2 0xAB1 JUMP JUMPDEST POP SWAP2 POP SWAP2 POP PUSH1 0x0 PUSH1 0x5 PUSH1 0x0 SWAP1 SLOAD SWAP1 PUSH2 0x100 EXP SWAP1 DIV PUSH20 0xFFFFFFFFFFFFFFFFFFFFFFFFFFFFFFFFFFFFFFFF AND SWAP1 POP PUSH1 0x0 PUSH1 0x6 PUSH1 0x0 SWAP1 SLOAD SWAP1 PUSH2 0x100 EXP SWAP1 DIV PUSH20 0xFFFFFFFFFFFFFFFFFFFFFFFFFFFFFFFFFFFFFFFF AND SWAP1 POP PUSH1 0x0 DUP3 PUSH20 0xFFFFFFFFFFFFFFFFFFFFFFFFFFFFFFFFFFFFFFFF AND PUSH4 0x70A08231 ADDRESS PUSH1 0x40 MLOAD DUP3 PUSH4 0xFFFFFFFF AND PUSH1 0xE0 SHL DUP2 MSTORE PUSH1 0x4 ADD PUSH2 0x1339 SWAP2 SWAP1 PUSH2 0x2C12 JUMP JUMPDEST PUSH1 0x20 PUSH1 0x40 MLOAD DUP1 DUP4 SUB DUP2 DUP7 GAS STATICCALL ISZERO DUP1 ISZERO PUSH2 0x1356 JUMPI RETURNDATASIZE PUSH1 0x0 DUP1 RETURNDATACOPY RETURNDATASIZE PUSH1 0x0 REVERT JUMPDEST POP POP POP POP PUSH1 0x40 MLOAD RETURNDATASIZE PUSH1 0x1F NOT PUSH1 0x1F DUP3 ADD AND DUP3 ADD DUP1 PUSH1 0x40 MSTORE POP DUP2 ADD SWAP1 PUSH2 0x137A SWAP2 SWAP1 PUSH2 0x2F3C JUMP JUMPDEST SWAP1 POP PUSH1 0x0 DUP3 PUSH20 0xFFFFFFFFFFFFFFFFFFFFFFFFFFFFFFFFFFFFFFFF AND PUSH4 0x70A08231 ADDRESS PUSH1 0x40 MLOAD DUP3 PUSH4 0xFFFFFFFF AND PUSH1 0xE0 SHL DUP2 MSTORE PUSH1 0x4 ADD PUSH2 0x13B7 SWAP2 SWAP1 PUSH2 0x2C12 JUMP JUMPDEST PUSH1 0x20 PUSH1 0x40 MLOAD DUP1 DUP4 SUB DUP2 DUP7 GAS STATICCALL ISZERO DUP1 ISZERO PUSH2 0x13D4 JUMPI RETURNDATASIZE PUSH1 0x0 DUP1 RETURNDATACOPY RETURNDATASIZE PUSH1 0x0 REVERT JUMPDEST POP POP POP POP PUSH1 0x40 MLOAD RETURNDATASIZE PUSH1 0x1F NOT PUSH1 0x1F DUP3 ADD AND DUP3 ADD DUP1 PUSH1 0x40 MSTORE POP DUP2 ADD SWAP1 PUSH2 0x13F8 SWAP2 SWAP1 PUSH2 0x2F3C JUMP JUMPDEST SWAP1 POP PUSH1 0x0 PUSH1 0x1 PUSH1 0x0 ADDRESS PUSH20 0xFFFFFFFFFFFFFFFFFFFFFFFFFFFFFFFFFFFFFFFF AND PUSH20 0xFFFFFFFFFFFFFFFFFFFFFFFFFFFFFFFFFFFFFFFF AND DUP2 MSTORE PUSH1 0x20 ADD SWAP1 DUP2 MSTORE PUSH1 0x20 ADD PUSH1 0x0 KECCAK256 SLOAD SWAP1 POP PUSH1 0x0 PUSH2 0x144A DUP9 DUP9 PUSH2 0x237D JUMP JUMPDEST SWAP1 POP PUSH1 0x0 DUP1 SLOAD SWAP1 POP DUP1 PUSH2 0x1466 DUP7 DUP6 PUSH2 0x1D48 SWAP1 SWAP2 SWAP1 PUSH4 0xFFFFFFFF AND JUMP JUMPDEST PUSH2 0x1470 SWAP2 SWAP1 PUSH2 0x3184 JUMP JUMPDEST SWAP11 POP DUP1 PUSH2 0x1486 DUP6 DUP6 PUSH2 0x1D48 SWAP1 SWAP2 SWAP1 PUSH4 0xFFFFFFFF AND JUMP JUMPDEST PUSH2 0x1490 SWAP2 SWAP1 PUSH2 0x3184 JUMP JUMPDEST SWAP10 POP PUSH1 0x0 DUP12 GT DUP1 ISZERO PUSH2 0x14A2 JUMPI POP PUSH1 0x0 DUP11 GT JUMPDEST PUSH2 0x14E1 JUMPI PUSH1 0x40 MLOAD PUSH32 0x8C379A000000000000000000000000000000000000000000000000000000000 DUP2 MSTORE PUSH1 0x4 ADD PUSH2 0x14D8 SWAP1 PUSH2 0x326D JUMP JUMPDEST PUSH1 0x40 MLOAD DUP1 SWAP2 SUB SWAP1 REVERT JUMPDEST PUSH2 0x14EB ADDRESS DUP5 PUSH2 0x26FB JUMP JUMPDEST PUSH2 0x14F6 DUP8 DUP14 DUP14 PUSH2 0x1BBE JUMP JUMPDEST PUSH2 0x1501 DUP7 DUP14 DUP13 PUSH2 0x1BBE JUMP JUMPDEST DUP7 PUSH20 0xFFFFFFFFFFFFFFFFFFFFFFFFFFFFFFFFFFFFFFFF AND PUSH4 0x70A08231 ADDRESS PUSH1 0x40 MLOAD DUP3 PUSH4 0xFFFFFFFF AND PUSH1 0xE0 SHL DUP2 MSTORE PUSH1 0x4 ADD PUSH2 0x153A SWAP2 SWAP1 PUSH2 0x2C12 JUMP JUMPDEST PUSH1 0x20 PUSH1 0x40 MLOAD DUP1 DUP4 SUB DUP2 DUP7 GAS STATICCALL ISZERO DUP1 ISZERO PUSH2 0x1557 JUMPI RETURNDATASIZE PUSH1 0x0 DUP1 RETURNDATACOPY RETURNDATASIZE PUSH1 0x0 REVERT JUMPDEST POP POP POP POP PUSH1 0x40 MLOAD RETURNDATASIZE PUSH1 0x1F NOT PUSH1 0x1F DUP3 ADD AND DUP3 ADD DUP1 PUSH1 0x40 MSTORE POP DUP2 ADD SWAP1 PUSH2 0x157B SWAP2 SWAP1 PUSH2 0x2F3C JUMP JUMPDEST SWAP5 POP DUP6 PUSH20 0xFFFFFFFFFFFFFFFFFFFFFFFFFFFFFFFFFFFFFFFF AND PUSH4 0x70A08231 ADDRESS PUSH1 0x40 MLOAD DUP3 PUSH4 0xFFFFFFFF AND PUSH1 0xE0 SHL DUP2 MSTORE PUSH1 0x4 ADD PUSH2 0x15B6 SWAP2 SWAP1 PUSH2 0x2C12 JUMP JUMPDEST PUSH1 0x20 PUSH1 0x40 MLOAD DUP1 DUP4 SUB DUP2 DUP7 GAS STATICCALL ISZERO DUP1 ISZERO PUSH2 0x15D3 JUMPI RETURNDATASIZE PUSH1 0x0 DUP1 RETURNDATACOPY RETURNDATASIZE PUSH1 0x0 REVERT JUMPDEST POP POP POP POP PUSH1 0x40 MLOAD RETURNDATASIZE PUSH1 0x1F NOT PUSH1 0x1F DUP3 ADD AND DUP3 ADD DUP1 PUSH1 0x40 MSTORE POP DUP2 ADD SWAP1 PUSH2 0x15F7 SWAP2 SWAP1 PUSH2 0x2F3C JUMP JUMPDEST SWAP4 POP PUSH2 0x1605 DUP6 DUP6 DUP12 DUP12 PUSH2 0x1E0E JUMP JUMPDEST DUP2 ISZERO PUSH2 0x167D JUMPI PUSH2 0x1676 PUSH1 0x7 PUSH1 0xE SWAP1 SLOAD SWAP1 PUSH2 0x100 EXP SWAP1 DIV PUSH14 0xFFFFFFFFFFFFFFFFFFFFFFFFFFFF AND PUSH14 0xFFFFFFFFFFFFFFFFFFFFFFFFFFFF AND PUSH1 0x7 PUSH1 0x0 SWAP1 SLOAD SWAP1 PUSH2 0x100 EXP SWAP1 DIV PUSH14 0xFFFFFFFFFFFFFFFFFFFFFFFFFFFF AND PUSH14 0xFFFFFFFFFFFFFFFFFFFFFFFFFFFF AND PUSH2 0x1D48 SWAP1 SWAP2 SWAP1 PUSH4 0xFFFFFFFF AND JUMP JUMPDEST PUSH1 0xA DUP2 SWAP1 SSTORE POP JUMPDEST DUP12 PUSH20 0xFFFFFFFFFFFFFFFFFFFFFFFFFFFFFFFFFFFFFFFF AND CALLER PUSH20 0xFFFFFFFFFFFFFFFFFFFFFFFFFFFFFFFFFFFFFFFF AND PUSH32 0xDCCD412F0B1252819CB1FD330B93224CA42612892BB3F4F789976E6D81936496 DUP14 DUP14 PUSH1 0x40 MLOAD PUSH2 0x16DC SWAP3 SWAP2 SWAP1 PUSH2 0x2D4E JUMP JUMPDEST PUSH1 0x40 MLOAD DUP1 SWAP2 SUB SWAP1 LOG3 POP POP POP POP POP POP POP POP POP PUSH1 0x1 PUSH1 0xB DUP2 SWAP1 SSTORE POP SWAP2 POP SWAP2 JUMP JUMPDEST PUSH1 0x40 MLOAD DUP1 PUSH1 0x40 ADD PUSH1 0x40 MSTORE DUP1 PUSH1 0x5 DUP2 MSTORE PUSH1 0x20 ADD PUSH32 0x58532D5631000000000000000000000000000000000000000000000000000000 DUP2 MSTORE POP DUP2 JUMP JUMPDEST PUSH1 0x0 PUSH2 0x1740 CALLER DUP5 DUP5 PUSH2 0x21E9 JUMP JUMPDEST PUSH1 0x1 SWAP1 POP SWAP3 SWAP2 POP POP JUMP JUMPDEST PUSH2 0x3E8 DUP2 JUMP JUMPDEST PUSH1 0x1 PUSH1 0xB SLOAD EQ PUSH2 0x1795 JUMPI PUSH1 0x40 MLOAD PUSH32 0x8C379A000000000000000000000000000000000000000000000000000000000 DUP2 MSTORE PUSH1 0x4 ADD PUSH2 0x178C SWAP1 PUSH2 0x2DC3 JUMP JUMPDEST PUSH1 0x40 MLOAD DUP1 SWAP2 SUB SWAP1 REVERT JUMPDEST PUSH1 0x0 PUSH1 0xB DUP2 SWAP1 SSTORE POP PUSH1 0x0 PUSH1 0x5 PUSH1 0x0 SWAP1 SLOAD SWAP1 PUSH2 0x100 EXP SWAP1 DIV PUSH20 0xFFFFFFFFFFFFFFFFFFFFFFFFFFFFFFFFFFFFFFFF AND SWAP1 POP PUSH1 0x0 PUSH1 0x6 PUSH1 0x0 SWAP1 SLOAD SWAP1 PUSH2 0x100 EXP SWAP1 DIV PUSH20 0xFFFFFFFFFFFFFFFFFFFFFFFFFFFFFFFFFFFFFFFF AND SWAP1 POP PUSH2 0x18AD DUP3 DUP5 PUSH2 0x18A8 PUSH1 0x7 PUSH1 0x0 SWAP1 SLOAD SWAP1 PUSH2 0x100 EXP SWAP1 DIV PUSH14 0xFFFFFFFFFFFFFFFFFFFFFFFFFFFF AND PUSH14 0xFFFFFFFFFFFFFFFFFFFFFFFFFFFF AND DUP7 PUSH20 0xFFFFFFFFFFFFFFFFFFFFFFFFFFFFFFFFFFFFFFFF AND PUSH4 0x70A08231 ADDRESS PUSH1 0x40 MLOAD DUP3 PUSH4 0xFFFFFFFF AND PUSH1 0xE0 SHL DUP2 MSTORE PUSH1 0x4 ADD PUSH2 0x1859 SWAP2 SWAP1 PUSH2 0x2C12 JUMP JUMPDEST PUSH1 0x20 PUSH1 0x40 MLOAD DUP1 DUP4 SUB DUP2 DUP7 GAS STATICCALL ISZERO DUP1 ISZERO PUSH2 0x1876 JUMPI RETURNDATASIZE PUSH1 0x0 DUP1 RETURNDATACOPY RETURNDATASIZE PUSH1 0x0 REVERT JUMPDEST POP POP POP POP PUSH1 0x40 MLOAD RETURNDATASIZE PUSH1 0x1F NOT PUSH1 0x1F DUP3 ADD AND DUP3 ADD DUP1 PUSH1 0x40 MSTORE POP DUP2 ADD SWAP1 PUSH2 0x189A SWAP2 SWAP1 PUSH2 0x2F3C JUMP JUMPDEST PUSH2 0x1DB5 SWAP1 SWAP2 SWAP1 PUSH4 0xFFFFFFFF AND JUMP JUMPDEST PUSH2 0x1BBE JUMP JUMPDEST PUSH2 0x196F DUP2 DUP5 PUSH2 0x196A PUSH1 0x7 PUSH1 0xE SWAP1 SLOAD SWAP1 PUSH2 0x100 EXP SWAP1 DIV PUSH14 0xFFFFFFFFFFFFFFFFFFFFFFFFFFFF AND PUSH14 0xFFFFFFFFFFFFFFFFFFFFFFFFFFFF AND DUP6 PUSH20 0xFFFFFFFFFFFFFFFFFFFFFFFFFFFFFFFFFFFFFFFF AND PUSH4 0x70A08231 ADDRESS PUSH1 0x40 MLOAD DUP3 PUSH4 0xFFFFFFFF AND PUSH1 0xE0 SHL DUP2 MSTORE PUSH1 0x4 ADD PUSH2 0x191B SWAP2 SWAP1 PUSH2 0x2C12 JUMP JUMPDEST PUSH1 0x20 PUSH1 0x40 MLOAD DUP1 DUP4 SUB DUP2 DUP7 GAS STATICCALL ISZERO DUP1 ISZERO PUSH2 0x1938 JUMPI RETURNDATASIZE PUSH1 0x0 DUP1 RETURNDATACOPY RETURNDATASIZE PUSH1 0x0 REVERT JUMPDEST POP POP POP POP PUSH1 0x40 MLOAD RETURNDATASIZE PUSH1 0x1F NOT PUSH1 0x1F DUP3 ADD AND DUP3 ADD DUP1 PUSH1 0x40 MSTORE POP DUP2 ADD SWAP1 PUSH2 0x195C SWAP2 SWAP1 PUSH2 0x2F3C JUMP JUMPDEST PUSH2 0x1DB5 SWAP1 SWAP2 SWAP1 PUSH4 0xFFFFFFFF AND JUMP JUMPDEST PUSH2 0x1BBE JUMP JUMPDEST POP POP PUSH1 0x1 PUSH1 0xB DUP2 SWAP1 SSTORE POP POP JUMP JUMPDEST PUSH1 0x4 PUSH1 0x0 SWAP1 SLOAD SWAP1 PUSH2 0x100 EXP SWAP1 DIV PUSH20 0xFFFFFFFFFFFFFFFFFFFFFFFFFFFFFFFFFFFFFFFF AND DUP2 JUMP JUMPDEST PUSH1 0x6 PUSH1 0x0 SWAP1 SLOAD SWAP1 PUSH2 0x100 EXP SWAP1 DIV PUSH20 0xFFFFFFFFFFFFFFFFFFFFFFFFFFFFFFFFFFFFFFFF AND DUP2 JUMP JUMPDEST PUSH1 0x2 PUSH1 0x20 MSTORE DUP2 PUSH1 0x0 MSTORE PUSH1 0x40 PUSH1 0x0 KECCAK256 PUSH1 0x20 MSTORE DUP1 PUSH1 0x0 MSTORE PUSH1 0x40 PUSH1 0x0 KECCAK256 PUSH1 0x0 SWAP2 POP SWAP2 POP POP SLOAD DUP2 JUMP JUMPDEST PUSH1 0x1 PUSH1 0xB SLOAD EQ PUSH2 0x1A32 JUMPI PUSH1 0x40 MLOAD PUSH32 0x8C379A000000000000000000000000000000000000000000000000000000000 DUP2 MSTORE PUSH1 0x4 ADD PUSH2 0x1A29 SWAP1 PUSH2 0x2DC3 JUMP JUMPDEST PUSH1 0x40 MLOAD DUP1 SWAP2 SUB SWAP1 REVERT JUMPDEST PUSH1 0x0 PUSH1 0xB DUP2 SWAP1 SSTORE POP PUSH2 0x1BB4 PUSH1 0x5 PUSH1 0x0 SWAP1 SLOAD SWAP1 PUSH2 0x100 EXP SWAP1 DIV PUSH20 0xFFFFFFFFFFFFFFFFFFFFFFFFFFFFFFFFFFFFFFFF AND PUSH20 0xFFFFFFFFFFFFFFFFFFFFFFFFFFFFFFFFFFFFFFFF AND PUSH4 0x70A08231 ADDRESS PUSH1 0x40 MLOAD DUP3 PUSH4 0xFFFFFFFF AND PUSH1 0xE0 SHL DUP2 MSTORE PUSH1 0x4 ADD PUSH2 0x1A98 SWAP2 SWAP1 PUSH2 0x2C12 JUMP JUMPDEST PUSH1 0x20 PUSH1 0x40 MLOAD DUP1 DUP4 SUB DUP2 DUP7 GAS STATICCALL ISZERO DUP1 ISZERO PUSH2 0x1AB5 JUMPI RETURNDATASIZE PUSH1 0x0 DUP1 RETURNDATACOPY RETURNDATASIZE PUSH1 0x0 REVERT JUMPDEST POP POP POP POP PUSH1 0x40 MLOAD RETURNDATASIZE PUSH1 0x1F NOT PUSH1 0x1F DUP3 ADD AND DUP3 ADD DUP1 PUSH1 0x40 MSTORE POP DUP2 ADD SWAP1 PUSH2 0x1AD9 SWAP2 SWAP1 PUSH2 0x2F3C JUMP JUMPDEST PUSH1 0x6 PUSH1 0x0 SWAP1 SLOAD SWAP1 PUSH2 0x100 EXP SWAP1 DIV PUSH20 0xFFFFFFFFFFFFFFFFFFFFFFFFFFFFFFFFFFFFFFFF AND PUSH20 0xFFFFFFFFFFFFFFFFFFFFFFFFFFFFFFFFFFFFFFFF AND PUSH4 0x70A08231 ADDRESS PUSH1 0x40 MLOAD DUP3 PUSH4 0xFFFFFFFF AND PUSH1 0xE0 SHL DUP2 MSTORE PUSH1 0x4 ADD PUSH2 0x1B34 SWAP2 SWAP1 PUSH2 0x2C12 JUMP JUMPDEST PUSH1 0x20 PUSH1 0x40 MLOAD DUP1 DUP4 SUB DUP2 DUP7 GAS STATICCALL ISZERO DUP1 ISZERO PUSH2 0x1B51 JUMPI RETURNDATASIZE PUSH1 0x0 DUP1 RETURNDATACOPY RETURNDATASIZE PUSH1 0x0 REVERT JUMPDEST POP POP POP POP PUSH1 0x40 MLOAD RETURNDATASIZE PUSH1 0x1F NOT PUSH1 0x1F DUP3 ADD AND DUP3 ADD DUP1 PUSH1 0x40 MSTORE POP DUP2 ADD SWAP1 PUSH2 0x1B75 SWAP2 SWAP1 PUSH2 0x2F3C JUMP JUMPDEST PUSH1 0x7 PUSH1 0x0 SWAP1 SLOAD SWAP1 PUSH2 0x100 EXP SWAP1 DIV PUSH14 0xFFFFFFFFFFFFFFFFFFFFFFFFFFFF AND PUSH1 0x7 PUSH1 0xE SWAP1 SLOAD SWAP1 PUSH2 0x100 EXP SWAP1 DIV PUSH14 0xFFFFFFFFFFFFFFFFFFFFFFFFFFFF AND PUSH2 0x1E0E JUMP JUMPDEST PUSH1 0x1 PUSH1 0xB DUP2 SWAP1 SSTORE POP JUMP JUMPDEST PUSH1 0x0 DUP1 DUP5 PUSH20 0xFFFFFFFFFFFFFFFFFFFFFFFFFFFFFFFFFFFFFFFF AND PUSH1 0x40 MLOAD DUP1 PUSH1 0x40 ADD PUSH1 0x40 MSTORE DUP1 PUSH1 0x19 DUP2 MSTORE PUSH1 0x20 ADD PUSH32 0x7472616E7366657228616464726573732C75696E743235362900000000000000 DUP2 MSTORE POP DUP1 MLOAD SWAP1 PUSH1 0x20 ADD KECCAK256 DUP6 DUP6 PUSH1 0x40 MLOAD PUSH1 0x24 ADD PUSH2 0x1C28 SWAP3 SWAP2 SWAP1 PUSH2 0x328D JUMP JUMPDEST PUSH1 0x40 MLOAD PUSH1 0x20 DUP2 DUP4 SUB SUB DUP2 MSTORE SWAP1 PUSH1 0x40 MSTORE SWAP1 PUSH28 0xFFFFFFFFFFFFFFFFFFFFFFFFFFFFFFFFFFFFFFFFFFFFFFFFFFFFFFFF NOT AND PUSH1 0x20 DUP3 ADD DUP1 MLOAD PUSH28 0xFFFFFFFFFFFFFFFFFFFFFFFFFFFFFFFFFFFFFFFFFFFFFFFFFFFFFFFF DUP4 DUP2 DUP4 AND OR DUP4 MSTORE POP POP POP POP PUSH1 0x40 MLOAD PUSH2 0x1C92 SWAP2 SWAP1 PUSH2 0x32FD JUMP JUMPDEST PUSH1 0x0 PUSH1 0x40 MLOAD DUP1 DUP4 SUB DUP2 PUSH1 0x0 DUP7 GAS CALL SWAP2 POP POP RETURNDATASIZE DUP1 PUSH1 0x0 DUP2 EQ PUSH2 0x1CCF JUMPI PUSH1 0x40 MLOAD SWAP2 POP PUSH1 0x1F NOT PUSH1 0x3F RETURNDATASIZE ADD AND DUP3 ADD PUSH1 0x40 MSTORE RETURNDATASIZE DUP3 MSTORE RETURNDATASIZE PUSH1 0x0 PUSH1 0x20 DUP5 ADD RETURNDATACOPY PUSH2 0x1CD4 JUMP JUMPDEST PUSH1 0x60 SWAP2 POP JUMPDEST POP SWAP2 POP SWAP2 POP DUP2 DUP1 ISZERO PUSH2 0x1D02 JUMPI POP PUSH1 0x0 DUP2 MLOAD EQ DUP1 PUSH2 0x1D01 JUMPI POP DUP1 DUP1 PUSH1 0x20 ADD SWAP1 MLOAD DUP2 ADD SWAP1 PUSH2 0x1D00 SWAP2 SWAP1 PUSH2 0x3340 JUMP JUMPDEST JUMPDEST JUMPDEST PUSH2 0x1D41 JUMPI PUSH1 0x40 MLOAD PUSH32 0x8C379A000000000000000000000000000000000000000000000000000000000 DUP2 MSTORE PUSH1 0x4 ADD PUSH2 0x1D38 SWAP1 PUSH2 0x33B9 JUMP JUMPDEST PUSH1 0x40 MLOAD DUP1 SWAP2 SUB SWAP1 REVERT JUMPDEST POP POP POP POP POP JUMP JUMPDEST PUSH1 0x0 DUP1 DUP3 EQ DUP1 PUSH2 0x1D70 JUMPI POP DUP3 DUP3 DUP4 DUP6 PUSH2 0x1D61 SWAP2 SWAP1 PUSH2 0x33D9 JUMP JUMPDEST SWAP3 POP DUP3 PUSH2 0x1D6E SWAP2 SWAP1 PUSH2 0x3184 JUMP JUMPDEST EQ JUMPDEST PUSH2 0x1DAF JUMPI PUSH1 0x40 MLOAD PUSH32 0x8C379A000000000000000000000000000000000000000000000000000000000 DUP2 MSTORE PUSH1 0x4 ADD PUSH2 0x1DA6 SWAP1 PUSH2 0x347F JUMP JUMPDEST PUSH1 0x40 MLOAD DUP1 SWAP2 SUB SWAP1 REVERT JUMPDEST SWAP3 SWAP2 POP POP JUMP JUMPDEST PUSH1 0x0 DUP3 DUP3 DUP5 PUSH2 0x1DC4 SWAP2 SWAP1 PUSH2 0x2F98 JUMP JUMPDEST SWAP2 POP DUP2 GT ISZERO PUSH2 0x1E08 JUMPI PUSH1 0x40 MLOAD PUSH32 0x8C379A000000000000000000000000000000000000000000000000000000000 DUP2 MSTORE PUSH1 0x4 ADD PUSH2 0x1DFF SWAP1 PUSH2 0x34EB JUMP JUMPDEST PUSH1 0x40 MLOAD DUP1 SWAP2 SUB SWAP1 REVERT JUMPDEST SWAP3 SWAP2 POP POP JUMP JUMPDEST PUSH14 0xFFFFFFFFFFFFFFFFFFFFFFFFFFFF DUP5 GT ISZERO DUP1 ISZERO PUSH2 0x1E3A JUMPI POP PUSH14 0xFFFFFFFFFFFFFFFFFFFFFFFFFFFF DUP4 GT ISZERO JUMPDEST PUSH2 0x1E79 JUMPI PUSH1 0x40 MLOAD PUSH32 0x8C379A000000000000000000000000000000000000000000000000000000000 DUP2 MSTORE PUSH1 0x4 ADD PUSH2 0x1E70 SWAP1 PUSH2 0x3557 JUMP JUMPDEST PUSH1 0x40 MLOAD DUP1 SWAP2 SUB SWAP1 REVERT JUMPDEST PUSH1 0x0 PUSH5 0x100000000 TIMESTAMP PUSH2 0x1E8C SWAP2 SWAP1 PUSH2 0x3577 JUMP JUMPDEST SWAP1 POP PUSH1 0x0 PUSH1 0x7 PUSH1 0x1C SWAP1 SLOAD SWAP1 PUSH2 0x100 EXP SWAP1 DIV PUSH4 0xFFFFFFFF AND DUP3 PUSH2 0x1EAE SWAP2 SWAP1 PUSH2 0x35A8 JUMP JUMPDEST SWAP1 POP PUSH1 0x0 DUP2 PUSH4 0xFFFFFFFF AND GT DUP1 ISZERO PUSH2 0x1ED7 JUMPI POP PUSH1 0x0 DUP5 PUSH14 0xFFFFFFFFFFFFFFFFFFFFFFFFFFFF AND EQ ISZERO JUMPDEST DUP1 ISZERO PUSH2 0x1EF4 JUMPI POP PUSH1 0x0 DUP4 PUSH14 0xFFFFFFFFFFFFFFFFFFFFFFFFFFFF AND EQ ISZERO JUMPDEST ISZERO PUSH2 0x1FFA JUMPI DUP1 PUSH4 0xFFFFFFFF AND PUSH2 0x1F39 DUP6 PUSH2 0x1F0D DUP7 PUSH2 0x2815 JUMP JUMPDEST PUSH28 0xFFFFFFFFFFFFFFFFFFFFFFFFFFFFFFFFFFFFFFFFFFFFFFFFFFFFFFFF AND PUSH2 0x2849 SWAP1 SWAP2 SWAP1 PUSH4 0xFFFFFFFF AND JUMP JUMPDEST PUSH28 0xFFFFFFFFFFFFFFFFFFFFFFFFFFFFFFFFFFFFFFFFFFFFFFFFFFFFFFFF AND PUSH2 0x1F61 SWAP2 SWAP1 PUSH2 0x33D9 JUMP JUMPDEST PUSH1 0x8 PUSH1 0x0 DUP3 DUP3 SLOAD PUSH2 0x1F72 SWAP2 SWAP1 PUSH2 0x35DC JUMP JUMPDEST SWAP3 POP POP DUP2 SWAP1 SSTORE POP DUP1 PUSH4 0xFFFFFFFF AND PUSH2 0x1FB9 DUP5 PUSH2 0x1F8D DUP8 PUSH2 0x2815 JUMP JUMPDEST PUSH28 0xFFFFFFFFFFFFFFFFFFFFFFFFFFFFFFFFFFFFFFFFFFFFFFFFFFFFFFFF AND PUSH2 0x2849 SWAP1 SWAP2 SWAP1 PUSH4 0xFFFFFFFF AND JUMP JUMPDEST PUSH28 0xFFFFFFFFFFFFFFFFFFFFFFFFFFFFFFFFFFFFFFFFFFFFFFFFFFFFFFFF AND PUSH2 0x1FE1 SWAP2 SWAP1 PUSH2 0x33D9 JUMP JUMPDEST PUSH1 0x9 PUSH1 0x0 DUP3 DUP3 SLOAD PUSH2 0x1FF2 SWAP2 SWAP1 PUSH2 0x35DC JUMP JUMPDEST SWAP3 POP POP DUP2 SWAP1 SSTORE POP JUMPDEST DUP6 PUSH1 0x7 PUSH1 0x0 PUSH2 0x100 EXP DUP2 SLOAD DUP2 PUSH14 0xFFFFFFFFFFFFFFFFFFFFFFFFFFFF MUL NOT AND SWAP1 DUP4 PUSH14 0xFFFFFFFFFFFFFFFFFFFFFFFFFFFF AND MUL OR SWAP1 SSTORE POP DUP5 PUSH1 0x7 PUSH1 0xE PUSH2 0x100 EXP DUP2 SLOAD DUP2 PUSH14 0xFFFFFFFFFFFFFFFFFFFFFFFFFFFF MUL NOT AND SWAP1 DUP4 PUSH14 0xFFFFFFFFFFFFFFFFFFFFFFFFFFFF AND MUL OR SWAP1 SSTORE POP DUP2 PUSH1 0x7 PUSH1 0x1C PUSH2 0x100 EXP DUP2 SLOAD DUP2 PUSH4 0xFFFFFFFF MUL NOT AND SWAP1 DUP4 PUSH4 0xFFFFFFFF AND MUL OR SWAP1 SSTORE POP PUSH32 0x1C411E9A96E071241C2F21F7726B17AE89E3CAB4C78BE50E062B03A9FFFBBAD1 PUSH1 0x7 PUSH1 0x0 SWAP1 SLOAD SWAP1 PUSH2 0x100 EXP SWAP1 DIV PUSH14 0xFFFFFFFFFFFFFFFFFFFFFFFFFFFF AND PUSH1 0x7 PUSH1 0xE SWAP1 SLOAD SWAP1 PUSH2 0x100 EXP SWAP1 DIV PUSH14 0xFFFFFFFFFFFFFFFFFFFFFFFFFFFF AND PUSH1 0x40 MLOAD PUSH2 0x20EE SWAP3 SWAP2 SWAP1 PUSH2 0x3632 JUMP JUMPDEST PUSH1 0x40 MLOAD DUP1 SWAP2 SUB SWAP1 LOG1 POP POP POP POP POP POP JUMP JUMPDEST DUP1 PUSH1 0x2 PUSH1 0x0 DUP6 PUSH20 0xFFFFFFFFFFFFFFFFFFFFFFFFFFFFFFFFFFFFFFFF AND PUSH20 0xFFFFFFFFFFFFFFFFFFFFFFFFFFFFFFFFFFFFFFFF AND DUP2 MSTORE PUSH1 0x20 ADD SWAP1 DUP2 MSTORE PUSH1 0x20 ADD PUSH1 0x0 KECCAK256 PUSH1 0x0 DUP5 PUSH20 0xFFFFFFFFFFFFFFFFFFFFFFFFFFFFFFFFFFFFFFFF AND PUSH20 0xFFFFFFFFFFFFFFFFFFFFFFFFFFFFFFFFFFFFFFFF AND DUP2 MSTORE PUSH1 0x20 ADD SWAP1 DUP2 MSTORE PUSH1 0x20 ADD PUSH1 0x0 KECCAK256 DUP2 SWAP1 SSTORE POP DUP2 PUSH20 0xFFFFFFFFFFFFFFFFFFFFFFFFFFFFFFFFFFFFFFFF AND DUP4 PUSH20 0xFFFFFFFFFFFFFFFFFFFFFFFFFFFFFFFFFFFFFFFF AND PUSH32 0x8C5BE1E5EBEC7D5BD14F71427D1E84F3DD0314C0F7B2291E5B200AC8C7C3B925 DUP4 PUSH1 0x40 MLOAD PUSH2 0x21DC SWAP2 SWAP1 PUSH2 0x2C3C JUMP JUMPDEST PUSH1 0x40 MLOAD DUP1 SWAP2 SUB SWAP1 LOG3 POP POP POP JUMP JUMPDEST PUSH2 0x223B DUP2 PUSH1 0x1 PUSH1 0x0 DUP7 PUSH20 0xFFFFFFFFFFFFFFFFFFFFFFFFFFFFFFFFFFFFFFFF AND PUSH20 0xFFFFFFFFFFFFFFFFFFFFFFFFFFFFFFFFFFFFFFFF AND DUP2 MSTORE PUSH1 0x20 ADD SWAP1 DUP2 MSTORE PUSH1 0x20 ADD PUSH1 0x0 KECCAK256 SLOAD PUSH2 0x1DB5 SWAP1 SWAP2 SWAP1 PUSH4 0xFFFFFFFF AND JUMP JUMPDEST PUSH1 0x1 PUSH1 0x0 DUP6 PUSH20 0xFFFFFFFFFFFFFFFFFFFFFFFFFFFFFFFFFFFFFFFF AND PUSH20 0xFFFFFFFFFFFFFFFFFFFFFFFFFFFFFFFFFFFFFFFF AND DUP2 MSTORE PUSH1 0x20 ADD SWAP1 DUP2 MSTORE PUSH1 0x20 ADD PUSH1 0x0 KECCAK256 DUP2 SWAP1 SSTORE POP PUSH2 0x22D0 DUP2 PUSH1 0x1 PUSH1 0x0 DUP6 PUSH20 0xFFFFFFFFFFFFFFFFFFFFFFFFFFFFFFFFFFFFFFFF AND PUSH20 0xFFFFFFFFFFFFFFFFFFFFFFFFFFFFFFFFFFFFFFFF AND DUP2 MSTORE PUSH1 0x20 ADD SWAP1 DUP2 MSTORE PUSH1 0x20 ADD PUSH1 0x0 KECCAK256 SLOAD PUSH2 0x286F SWAP1 SWAP2 SWAP1 PUSH4 0xFFFFFFFF AND JUMP JUMPDEST PUSH1 0x1 PUSH1 0x0 DUP5 PUSH20 0xFFFFFFFFFFFFFFFFFFFFFFFFFFFFFFFFFFFFFFFF AND PUSH20 0xFFFFFFFFFFFFFFFFFFFFFFFFFFFFFFFFFFFFFFFF AND DUP2 MSTORE PUSH1 0x20 ADD SWAP1 DUP2 MSTORE PUSH1 0x20 ADD PUSH1 0x0 KECCAK256 DUP2 SWAP1 SSTORE POP DUP2 PUSH20 0xFFFFFFFFFFFFFFFFFFFFFFFFFFFFFFFFFFFFFFFF AND DUP4 PUSH20 0xFFFFFFFFFFFFFFFFFFFFFFFFFFFFFFFFFFFFFFFF AND PUSH32 0xDDF252AD1BE2C89B69C2B068FC378DAA952BA7F163C4A11628F55A4DF523B3EF DUP4 PUSH1 0x40 MLOAD PUSH2 0x2370 SWAP2 SWAP1 PUSH2 0x2C3C JUMP JUMPDEST PUSH1 0x40 MLOAD DUP1 SWAP2 SUB SWAP1 LOG3 POP POP POP JUMP JUMPDEST PUSH1 0x0 DUP1 PUSH1 0x4 PUSH1 0x0 SWAP1 SLOAD SWAP1 PUSH2 0x100 EXP SWAP1 DIV PUSH20 0xFFFFFFFFFFFFFFFFFFFFFFFFFFFFFFFFFFFFFFFF AND PUSH20 0xFFFFFFFFFFFFFFFFFFFFFFFFFFFFFFFFFFFFFFFF AND PUSH4 0x17E7E58 PUSH1 0x40 MLOAD DUP2 PUSH4 0xFFFFFFFF AND PUSH1 0xE0 SHL DUP2 MSTORE PUSH1 0x4 ADD PUSH1 0x20 PUSH1 0x40 MLOAD DUP1 DUP4 SUB DUP2 DUP7 GAS STATICCALL ISZERO DUP1 ISZERO PUSH2 0x23ED JUMPI RETURNDATASIZE PUSH1 0x0 DUP1 RETURNDATACOPY RETURNDATASIZE PUSH1 0x0 REVERT JUMPDEST POP POP POP POP PUSH1 0x40 MLOAD RETURNDATASIZE PUSH1 0x1F NOT PUSH1 0x1F DUP3 ADD AND DUP3 ADD DUP1 PUSH1 0x40 MSTORE POP DUP2 ADD SWAP1 PUSH2 0x2411 SWAP2 SWAP1 PUSH2 0x3670 JUMP JUMPDEST SWAP1 POP PUSH1 0x0 PUSH20 0xFFFFFFFFFFFFFFFFFFFFFFFFFFFFFFFFFFFFFFFF AND DUP2 PUSH20 0xFFFFFFFFFFFFFFFFFFFFFFFFFFFFFFFFFFFFFFFF AND EQ ISZERO SWAP2 POP PUSH1 0x0 PUSH1 0xA SLOAD SWAP1 POP DUP3 ISZERO PUSH2 0x2534 JUMPI PUSH1 0x0 DUP2 EQ PUSH2 0x252F JUMPI PUSH1 0x0 PUSH2 0x2498 PUSH2 0x2493 DUP7 PUSH14 0xFFFFFFFFFFFFFFFFFFFFFFFFFFFF AND DUP9 PUSH14 0xFFFFFFFFFFFFFFFFFFFFFFFFFFFF AND PUSH2 0x1D48 SWAP1 SWAP2 SWAP1 PUSH4 0xFFFFFFFF AND JUMP JUMPDEST PUSH2 0x254E JUMP JUMPDEST SWAP1 POP PUSH1 0x0 PUSH2 0x24A5 DUP4 PUSH2 0x254E JUMP JUMPDEST SWAP1 POP DUP1 DUP3 GT ISZERO PUSH2 0x252C JUMPI PUSH1 0x0 PUSH2 0x24D8 PUSH2 0x24C7 DUP4 DUP6 PUSH2 0x1DB5 SWAP1 SWAP2 SWAP1 PUSH4 0xFFFFFFFF AND JUMP JUMPDEST PUSH1 0x0 SLOAD PUSH2 0x1D48 SWAP1 SWAP2 SWAP1 PUSH4 0xFFFFFFFF AND JUMP JUMPDEST SWAP1 POP PUSH1 0x0 PUSH2 0x2502 DUP4 PUSH2 0x24F4 PUSH1 0x5 DUP8 PUSH2 0x1D48 SWAP1 SWAP2 SWAP1 PUSH4 0xFFFFFFFF AND JUMP JUMPDEST PUSH2 0x286F SWAP1 SWAP2 SWAP1 PUSH4 0xFFFFFFFF AND JUMP JUMPDEST SWAP1 POP PUSH1 0x0 DUP2 DUP4 PUSH2 0x2512 SWAP2 SWAP1 PUSH2 0x3184 JUMP JUMPDEST SWAP1 POP PUSH1 0x0 DUP2 GT ISZERO PUSH2 0x2528 JUMPI PUSH2 0x2527 DUP8 DUP3 PUSH2 0x25C8 JUMP JUMPDEST JUMPDEST POP POP POP JUMPDEST POP POP JUMPDEST PUSH2 0x2546 JUMP JUMPDEST PUSH1 0x0 DUP2 EQ PUSH2 0x2545 JUMPI PUSH1 0x0 PUSH1 0xA DUP2 SWAP1 SSTORE POP JUMPDEST JUMPDEST POP POP SWAP3 SWAP2 POP POP JUMP JUMPDEST PUSH1 0x0 PUSH1 0x3 DUP3 GT ISZERO PUSH2 0x25B5 JUMPI DUP2 SWAP1 POP PUSH1 0x0 PUSH1 0x1 PUSH1 0x2 DUP5 PUSH2 0x256D SWAP2 SWAP1 PUSH2 0x3184 JUMP JUMPDEST PUSH2 0x2577 SWAP2 SWAP1 PUSH2 0x35DC JUMP JUMPDEST SWAP1 POP JUMPDEST DUP2 DUP2 LT ISZERO PUSH2 0x25AF JUMPI DUP1 SWAP2 POP PUSH1 0x2 DUP2 DUP3 DUP6 PUSH2 0x2594 SWAP2 SWAP1 PUSH2 0x3184 JUMP JUMPDEST PUSH2 0x259E SWAP2 SWAP1 PUSH2 0x35DC JUMP JUMPDEST PUSH2 0x25A8 SWAP2 SWAP1 PUSH2 0x3184 JUMP JUMPDEST SWAP1 POP PUSH2 0x257A JUMP JUMPDEST POP PUSH2 0x25C3 JUMP JUMPDEST PUSH1 0x0 DUP3 EQ PUSH2 0x25C2 JUMPI PUSH1 0x1 SWAP1 POP JUMPDEST JUMPDEST SWAP2 SWAP1 POP JUMP JUMPDEST PUSH2 0x25DD DUP2 PUSH1 0x0 SLOAD PUSH2 0x286F SWAP1 SWAP2 SWAP1 PUSH4 0xFFFFFFFF AND JUMP JUMPDEST PUSH1 0x0 DUP2 SWAP1 SSTORE POP PUSH2 0x2635 DUP2 PUSH1 0x1 PUSH1 0x0 DUP6 PUSH20 0xFFFFFFFFFFFFFFFFFFFFFFFFFFFFFFFFFFFFFFFF AND PUSH20 0xFFFFFFFFFFFFFFFFFFFFFFFFFFFFFFFFFFFFFFFF AND DUP2 MSTORE PUSH1 0x20 ADD SWAP1 DUP2 MSTORE PUSH1 0x20 ADD PUSH1 0x0 KECCAK256 SLOAD PUSH2 0x286F SWAP1 SWAP2 SWAP1 PUSH4 0xFFFFFFFF AND JUMP JUMPDEST PUSH1 0x1 PUSH1 0x0 DUP5 PUSH20 0xFFFFFFFFFFFFFFFFFFFFFFFFFFFFFFFFFFFFFFFF AND PUSH20 0xFFFFFFFFFFFFFFFFFFFFFFFFFFFFFFFFFFFFFFFF AND DUP2 MSTORE PUSH1 0x20 ADD SWAP1 DUP2 MSTORE PUSH1 0x20 ADD PUSH1 0x0 KECCAK256 DUP2 SWAP1 SSTORE POP DUP2 PUSH20 0xFFFFFFFFFFFFFFFFFFFFFFFFFFFFFFFFFFFFFFFF AND PUSH1 0x0 PUSH20 0xFFFFFFFFFFFFFFFFFFFFFFFFFFFFFFFFFFFFFFFF AND PUSH32 0xDDF252AD1BE2C89B69C2B068FC378DAA952BA7F163C4A11628F55A4DF523B3EF DUP4 PUSH1 0x40 MLOAD PUSH2 0x26D6 SWAP2 SWAP1 PUSH2 0x2C3C JUMP JUMPDEST PUSH1 0x40 MLOAD DUP1 SWAP2 SUB SWAP1 LOG3 POP POP JUMP JUMPDEST PUSH1 0x0 DUP2 DUP4 LT PUSH2 0x26F1 JUMPI DUP2 PUSH2 0x26F3 JUMP JUMPDEST DUP3 JUMPDEST SWAP1 POP SWAP3 SWAP2 POP POP JUMP JUMPDEST PUSH2 0x274D DUP2 PUSH1 0x1 PUSH1 0x0 DUP6 PUSH20 0xFFFFFFFFFFFFFFFFFFFFFFFFFFFFFFFFFFFFFFFF AND PUSH20 0xFFFFFFFFFFFFFFFFFFFFFFFFFFFFFFFFFFFFFFFF AND DUP2 MSTORE PUSH1 0x20 ADD SWAP1 DUP2 MSTORE PUSH1 0x20 ADD PUSH1 0x0 KECCAK256 SLOAD PUSH2 0x1DB5 SWAP1 SWAP2 SWAP1 PUSH4 0xFFFFFFFF AND JUMP JUMPDEST PUSH1 0x1 PUSH1 0x0 DUP5 PUSH20 0xFFFFFFFFFFFFFFFFFFFFFFFFFFFFFFFFFFFFFFFF AND PUSH20 0xFFFFFFFFFFFFFFFFFFFFFFFFFFFFFFFFFFFFFFFF AND DUP2 MSTORE PUSH1 0x20 ADD SWAP1 DUP2 MSTORE PUSH1 0x20 ADD PUSH1 0x0 KECCAK256 DUP2 SWAP1 SSTORE POP PUSH2 0x27A5 DUP2 PUSH1 0x0 SLOAD PUSH2 0x1DB5 SWAP1 SWAP2 SWAP1 PUSH4 0xFFFFFFFF AND JUMP JUMPDEST PUSH1 0x0 DUP2 SWAP1 SSTORE POP PUSH1 0x0 PUSH20 0xFFFFFFFFFFFFFFFFFFFFFFFFFFFFFFFFFFFFFFFF AND DUP3 PUSH20 0xFFFFFFFFFFFFFFFFFFFFFFFFFFFFFFFFFFFFFFFF AND PUSH32 0xDDF252AD1BE2C89B69C2B068FC378DAA952BA7F163C4A11628F55A4DF523B3EF DUP4 PUSH1 0x40 MLOAD PUSH2 0x2809 SWAP2 SWAP1 PUSH2 0x2C3C JUMP JUMPDEST PUSH1 0x40 MLOAD DUP1 SWAP2 SUB SWAP1 LOG3 POP POP JUMP JUMPDEST PUSH1 0x0 PUSH15 0x10000000000000000000000000000 DUP3 PUSH14 0xFFFFFFFFFFFFFFFFFFFFFFFFFFFF AND PUSH2 0x2842 SWAP2 SWAP1 PUSH2 0x36C5 JUMP JUMPDEST SWAP1 POP SWAP2 SWAP1 POP JUMP JUMPDEST PUSH1 0x0 DUP2 PUSH14 0xFFFFFFFFFFFFFFFFFFFFFFFFFFFF AND DUP4 PUSH2 0x2867 SWAP2 SWAP1 PUSH2 0x371B JUMP JUMPDEST SWAP1 POP SWAP3 SWAP2 POP POP JUMP JUMPDEST PUSH1 0x0 DUP3 DUP3 DUP5 PUSH2 0x287E SWAP2 SWAP1 PUSH2 0x35DC JUMP JUMPDEST SWAP2 POP DUP2 LT ISZERO PUSH2 0x28C2 JUMPI PUSH1 0x40 MLOAD PUSH32 0x8C379A000000000000000000000000000000000000000000000000000000000 DUP2 MSTORE PUSH1 0x4 ADD PUSH2 0x28B9 SWAP1 PUSH2 0x3798 JUMP JUMPDEST PUSH1 0x40 MLOAD DUP1 SWAP2 SUB SWAP1 REVERT JUMPDEST SWAP3 SWAP2 POP POP JUMP JUMPDEST PUSH1 0x0 DUP1 REVERT JUMPDEST PUSH1 0x0 DUP1 REVERT JUMPDEST PUSH1 0x0 DUP2 SWAP1 POP SWAP2 SWAP1 POP JUMP JUMPDEST PUSH2 0x28E5 DUP2 PUSH2 0x28D2 JUMP JUMPDEST DUP2 EQ PUSH2 0x28F0 JUMPI PUSH1 0x0 DUP1 REVERT JUMPDEST POP JUMP JUMPDEST PUSH1 0x0 DUP2 CALLDATALOAD SWAP1 POP PUSH2 0x2902 DUP2 PUSH2 0x28DC JUMP JUMPDEST SWAP3 SWAP2 POP POP JUMP JUMPDEST PUSH1 0x0 PUSH20 0xFFFFFFFFFFFFFFFFFFFFFFFFFFFFFFFFFFFFFFFF DUP3 AND SWAP1 POP SWAP2 SWAP1 POP JUMP JUMPDEST PUSH1 0x0 PUSH2 0x2933 DUP3 PUSH2 0x2908 JUMP JUMPDEST SWAP1 POP SWAP2 SWAP1 POP JUMP JUMPDEST PUSH2 0x2943 DUP2 PUSH2 0x2928 JUMP JUMPDEST DUP2 EQ PUSH2 0x294E JUMPI PUSH1 0x0 DUP1 REVERT JUMPDEST POP JUMP JUMPDEST PUSH1 0x0 DUP2 CALLDATALOAD SWAP1 POP PUSH2 0x2960 DUP2 PUSH2 0x293A JUMP JUMPDEST SWAP3 SWAP2 POP POP JUMP JUMPDEST PUSH1 0x0 DUP1 REVERT JUMPDEST PUSH1 0x0 DUP1 REVERT JUMPDEST PUSH1 0x0 DUP1 REVERT JUMPDEST PUSH1 0x0 DUP1 DUP4 PUSH1 0x1F DUP5 ADD SLT PUSH2 0x298B JUMPI PUSH2 0x298A PUSH2 0x2966 JUMP JUMPDEST JUMPDEST DUP3 CALLDATALOAD SWAP1 POP PUSH8 0xFFFFFFFFFFFFFFFF DUP2 GT ISZERO PUSH2 0x29A8 JUMPI PUSH2 0x29A7 PUSH2 0x296B JUMP JUMPDEST JUMPDEST PUSH1 0x20 DUP4 ADD SWAP2 POP DUP4 PUSH1 0x1 DUP3 MUL DUP4 ADD GT ISZERO PUSH2 0x29C4 JUMPI PUSH2 0x29C3 PUSH2 0x2970 JUMP JUMPDEST JUMPDEST SWAP3 POP SWAP3 SWAP1 POP JUMP JUMPDEST PUSH1 0x0 DUP1 PUSH1 0x0 DUP1 PUSH1 0x0 PUSH1 0x80 DUP7 DUP9 SUB SLT ISZERO PUSH2 0x29E7 JUMPI PUSH2 0x29E6 PUSH2 0x28C8 JUMP JUMPDEST JUMPDEST PUSH1 0x0 PUSH2 0x29F5 DUP9 DUP3 DUP10 ADD PUSH2 0x28F3 JUMP JUMPDEST SWAP6 POP POP PUSH1 0x20 PUSH2 0x2A06 DUP9 DUP3 DUP10 ADD PUSH2 0x28F3 JUMP JUMPDEST SWAP5 POP POP PUSH1 0x40 PUSH2 0x2A17 DUP9 DUP3 DUP10 ADD PUSH2 0x2951 JUMP JUMPDEST SWAP4 POP POP PUSH1 0x60 DUP7 ADD CALLDATALOAD PUSH8 0xFFFFFFFFFFFFFFFF DUP2 GT ISZERO PUSH2 0x2A38 JUMPI PUSH2 0x2A37 PUSH2 0x28CD JUMP JUMPDEST JUMPDEST PUSH2 0x2A44 DUP9 DUP3 DUP10 ADD PUSH2 0x2975 JUMP JUMPDEST SWAP3 POP SWAP3 POP POP SWAP3 SWAP6 POP SWAP3 SWAP6 SWAP1 SWAP4 POP JUMP JUMPDEST PUSH1 0x0 DUP2 MLOAD SWAP1 POP SWAP2 SWAP1 POP JUMP JUMPDEST PUSH1 0x0 DUP3 DUP3 MSTORE PUSH1 0x20 DUP3 ADD SWAP1 POP SWAP3 SWAP2 POP POP JUMP JUMPDEST PUSH1 0x0 JUMPDEST DUP4 DUP2 LT ISZERO PUSH2 0x2A8D JUMPI DUP1 DUP3 ADD MLOAD DUP2 DUP5 ADD MSTORE PUSH1 0x20 DUP2 ADD SWAP1 POP PUSH2 0x2A72 JUMP JUMPDEST DUP4 DUP2 GT ISZERO PUSH2 0x2A9C JUMPI PUSH1 0x0 DUP5 DUP5 ADD MSTORE JUMPDEST POP POP POP POP JUMP JUMPDEST PUSH1 0x0 PUSH1 0x1F NOT PUSH1 0x1F DUP4 ADD AND SWAP1 POP SWAP2 SWAP1 POP JUMP JUMPDEST PUSH1 0x0 PUSH2 0x2ABE DUP3 PUSH2 0x2A53 JUMP JUMPDEST PUSH2 0x2AC8 DUP2 DUP6 PUSH2 0x2A5E JUMP JUMPDEST SWAP4 POP PUSH2 0x2AD8 DUP2 DUP6 PUSH1 0x20 DUP7 ADD PUSH2 0x2A6F JUMP JUMPDEST PUSH2 0x2AE1 DUP2 PUSH2 0x2AA2 JUMP JUMPDEST DUP5 ADD SWAP2 POP POP SWAP3 SWAP2 POP POP JUMP JUMPDEST PUSH1 0x0 PUSH1 0x20 DUP3 ADD SWAP1 POP DUP2 DUP2 SUB PUSH1 0x0 DUP4 ADD MSTORE PUSH2 0x2B06 DUP2 DUP5 PUSH2 0x2AB3 JUMP JUMPDEST SWAP1 POP SWAP3 SWAP2 POP POP JUMP JUMPDEST PUSH1 0x0 PUSH14 0xFFFFFFFFFFFFFFFFFFFFFFFFFFFF DUP3 AND SWAP1 POP SWAP2 SWAP1 POP JUMP JUMPDEST PUSH2 0x2B31 DUP2 PUSH2 0x2B0E JUMP JUMPDEST DUP3 MSTORE POP POP JUMP JUMPDEST PUSH1 0x0 PUSH4 0xFFFFFFFF DUP3 AND SWAP1 POP SWAP2 SWAP1 POP JUMP JUMPDEST PUSH2 0x2B50 DUP2 PUSH2 0x2B37 JUMP JUMPDEST DUP3 MSTORE POP POP JUMP JUMPDEST PUSH1 0x0 PUSH1 0x60 DUP3 ADD SWAP1 POP PUSH2 0x2B6B PUSH1 0x0 DUP4 ADD DUP7 PUSH2 0x2B28 JUMP JUMPDEST PUSH2 0x2B78 PUSH1 0x20 DUP4 ADD DUP6 PUSH2 0x2B28 JUMP JUMPDEST PUSH2 0x2B85 PUSH1 0x40 DUP4 ADD DUP5 PUSH2 0x2B47 JUMP JUMPDEST SWAP5 SWAP4 POP POP POP POP JUMP JUMPDEST PUSH1 0x0 DUP1 PUSH1 0x40 DUP4 DUP6 SUB SLT ISZERO PUSH2 0x2BA4 JUMPI PUSH2 0x2BA3 PUSH2 0x28C8 JUMP JUMPDEST JUMPDEST PUSH1 0x0 PUSH2 0x2BB2 DUP6 DUP3 DUP7 ADD PUSH2 0x2951 JUMP JUMPDEST SWAP3 POP POP PUSH1 0x20 PUSH2 0x2BC3 DUP6 DUP3 DUP7 ADD PUSH2 0x28F3 JUMP JUMPDEST SWAP2 POP POP SWAP3 POP SWAP3 SWAP1 POP JUMP JUMPDEST PUSH1 0x0 DUP2 ISZERO ISZERO SWAP1 POP SWAP2 SWAP1 POP JUMP JUMPDEST PUSH2 0x2BE2 DUP2 PUSH2 0x2BCD JUMP JUMPDEST DUP3 MSTORE POP POP JUMP JUMPDEST PUSH1 0x0 PUSH1 0x20 DUP3 ADD SWAP1 POP PUSH2 0x2BFD PUSH1 0x0 DUP4 ADD DUP5 PUSH2 0x2BD9 JUMP JUMPDEST SWAP3 SWAP2 POP POP JUMP JUMPDEST PUSH2 0x2C0C DUP2 PUSH2 0x2928 JUMP JUMPDEST DUP3 MSTORE POP POP JUMP JUMPDEST PUSH1 0x0 PUSH1 0x20 DUP3 ADD SWAP1 POP PUSH2 0x2C27 PUSH1 0x0 DUP4 ADD DUP5 PUSH2 0x2C03 JUMP JUMPDEST SWAP3 SWAP2 POP POP JUMP JUMPDEST PUSH2 0x2C36 DUP2 PUSH2 0x28D2 JUMP JUMPDEST DUP3 MSTORE POP POP JUMP JUMPDEST PUSH1 0x0 PUSH1 0x20 DUP3 ADD SWAP1 POP PUSH2 0x2C51 PUSH1 0x0 DUP4 ADD DUP5 PUSH2 0x2C2D JUMP JUMPDEST SWAP3 SWAP2 POP POP JUMP JUMPDEST PUSH1 0x0 DUP1 PUSH1 0x0 PUSH1 0x60 DUP5 DUP7 SUB SLT ISZERO PUSH2 0x2C70 JUMPI PUSH2 0x2C6F PUSH2 0x28C8 JUMP JUMPDEST JUMPDEST PUSH1 0x0 PUSH2 0x2C7E DUP7 DUP3 DUP8 ADD PUSH2 0x2951 JUMP JUMPDEST SWAP4 POP POP PUSH1 0x20 PUSH2 0x2C8F DUP7 DUP3 DUP8 ADD PUSH2 0x2951 JUMP JUMPDEST SWAP3 POP POP PUSH1 0x40 PUSH2 0x2CA0 DUP7 DUP3 DUP8 ADD PUSH2 0x28F3 JUMP JUMPDEST SWAP2 POP POP SWAP3 POP SWAP3 POP SWAP3 JUMP JUMPDEST PUSH1 0x0 PUSH1 0xFF DUP3 AND SWAP1 POP SWAP2 SWAP1 POP JUMP JUMPDEST PUSH2 0x2CC0 DUP2 PUSH2 0x2CAA JUMP JUMPDEST DUP3 MSTORE POP POP JUMP JUMPDEST PUSH1 0x0 PUSH1 0x20 DUP3 ADD SWAP1 POP PUSH2 0x2CDB PUSH1 0x0 DUP4 ADD DUP5 PUSH2 0x2CB7 JUMP JUMPDEST SWAP3 SWAP2 POP POP JUMP JUMPDEST PUSH1 0x0 DUP1 PUSH1 0x40 DUP4 DUP6 SUB SLT ISZERO PUSH2 0x2CF8 JUMPI PUSH2 0x2CF7 PUSH2 0x28C8 JUMP JUMPDEST JUMPDEST PUSH1 0x0 PUSH2 0x2D06 DUP6 DUP3 DUP7 ADD PUSH2 0x2951 JUMP JUMPDEST SWAP3 POP POP PUSH1 0x20 PUSH2 0x2D17 DUP6 DUP3 DUP7 ADD PUSH2 0x2951 JUMP JUMPDEST SWAP2 POP POP SWAP3 POP SWAP3 SWAP1 POP JUMP JUMPDEST PUSH1 0x0 PUSH1 0x20 DUP3 DUP5 SUB SLT ISZERO PUSH2 0x2D37 JUMPI PUSH2 0x2D36 PUSH2 0x28C8 JUMP JUMPDEST JUMPDEST PUSH1 0x0 PUSH2 0x2D45 DUP5 DUP3 DUP6 ADD PUSH2 0x2951 JUMP JUMPDEST SWAP2 POP POP SWAP3 SWAP2 POP POP JUMP JUMPDEST PUSH1 0x0 PUSH1 0x40 DUP3 ADD SWAP1 POP PUSH2 0x2D63 PUSH1 0x0 DUP4 ADD DUP6 PUSH2 0x2C2D JUMP JUMPDEST PUSH2 0x2D70 PUSH1 0x20 DUP4 ADD DUP5 PUSH2 0x2C2D JUMP JUMPDEST SWAP4 SWAP3 POP POP POP JUMP JUMPDEST PUSH32 0x4C4F434B45440000000000000000000000000000000000000000000000000000 PUSH1 0x0 DUP3 ADD MSTORE POP JUMP JUMPDEST PUSH1 0x0 PUSH2 0x2DAD PUSH1 0x6 DUP4 PUSH2 0x2A5E JUMP JUMPDEST SWAP2 POP PUSH2 0x2DB8 DUP3 PUSH2 0x2D77 JUMP JUMPDEST PUSH1 0x20 DUP3 ADD SWAP1 POP SWAP2 SWAP1 POP JUMP JUMPDEST PUSH1 0x0 PUSH1 0x20 DUP3 ADD SWAP1 POP DUP2 DUP2 SUB PUSH1 0x0 DUP4 ADD MSTORE PUSH2 0x2DDC DUP2 PUSH2 0x2DA0 JUMP JUMPDEST SWAP1 POP SWAP2 SWAP1 POP JUMP JUMPDEST PUSH32 0x494E53554646494349454E545F4F55545055545F414D4F554E54000000000000 PUSH1 0x0 DUP3 ADD MSTORE POP JUMP JUMPDEST PUSH1 0x0 PUSH2 0x2E19 PUSH1 0x1A DUP4 PUSH2 0x2A5E JUMP JUMPDEST SWAP2 POP PUSH2 0x2E24 DUP3 PUSH2 0x2DE3 JUMP JUMPDEST PUSH1 0x20 DUP3 ADD SWAP1 POP SWAP2 SWAP1 POP JUMP JUMPDEST PUSH1 0x0 PUSH1 0x20 DUP3 ADD SWAP1 POP DUP2 DUP2 SUB PUSH1 0x0 DUP4 ADD MSTORE PUSH2 0x2E48 DUP2 PUSH2 0x2E0C JUMP JUMPDEST SWAP1 POP SWAP2 SWAP1 POP JUMP JUMPDEST PUSH32 0x494E53554646494349454E545F4C495155494449545900000000000000000000 PUSH1 0x0 DUP3 ADD MSTORE POP JUMP JUMPDEST PUSH1 0x0 PUSH2 0x2E85 PUSH1 0x16 DUP4 PUSH2 0x2A5E JUMP JUMPDEST SWAP2 POP PUSH2 0x2E90 DUP3 PUSH2 0x2E4F JUMP JUMPDEST PUSH1 0x20 DUP3 ADD SWAP1 POP SWAP2 SWAP1 POP JUMP JUMPDEST PUSH1 0x0 PUSH1 0x20 DUP3 ADD SWAP1 POP DUP2 DUP2 SUB PUSH1 0x0 DUP4 ADD MSTORE PUSH2 0x2EB4 DUP2 PUSH2 0x2E78 JUMP JUMPDEST SWAP1 POP SWAP2 SWAP1 POP JUMP JUMPDEST PUSH32 0x494E56414C49445F544F00000000000000000000000000000000000000000000 PUSH1 0x0 DUP3 ADD MSTORE POP JUMP JUMPDEST PUSH1 0x0 PUSH2 0x2EF1 PUSH1 0xA DUP4 PUSH2 0x2A5E JUMP JUMPDEST SWAP2 POP PUSH2 0x2EFC DUP3 PUSH2 0x2EBB JUMP JUMPDEST PUSH1 0x20 DUP3 ADD SWAP1 POP SWAP2 SWAP1 POP JUMP JUMPDEST PUSH1 0x0 PUSH1 0x20 DUP3 ADD SWAP1 POP DUP2 DUP2 SUB PUSH1 0x0 DUP4 ADD MSTORE PUSH2 0x2F20 DUP2 PUSH2 0x2EE4 JUMP JUMPDEST SWAP1 POP SWAP2 SWAP1 POP JUMP JUMPDEST PUSH1 0x0 DUP2 MLOAD SWAP1 POP PUSH2 0x2F36 DUP2 PUSH2 0x28DC JUMP JUMPDEST SWAP3 SWAP2 POP POP JUMP JUMPDEST PUSH1 0x0 PUSH1 0x20 DUP3 DUP5 SUB SLT ISZERO PUSH2 0x2F52 JUMPI PUSH2 0x2F51 PUSH2 0x28C8 JUMP JUMPDEST JUMPDEST PUSH1 0x0 PUSH2 0x2F60 DUP5 DUP3 DUP6 ADD PUSH2 0x2F27 JUMP JUMPDEST SWAP2 POP POP SWAP3 SWAP2 POP POP JUMP JUMPDEST PUSH32 0x4E487B7100000000000000000000000000000000000000000000000000000000 PUSH1 0x0 MSTORE PUSH1 0x11 PUSH1 0x4 MSTORE PUSH1 0x24 PUSH1 0x0 REVERT JUMPDEST PUSH1 0x0 PUSH2 0x2FA3 DUP3 PUSH2 0x28D2 JUMP JUMPDEST SWAP2 POP PUSH2 0x2FAE DUP4 PUSH2 0x28D2 JUMP JUMPDEST SWAP3 POP DUP3 DUP3 LT ISZERO PUSH2 0x2FC1 JUMPI PUSH2 0x2FC0 PUSH2 0x2F69 JUMP JUMPDEST JUMPDEST DUP3 DUP3 SUB SWAP1 POP SWAP3 SWAP2 POP POP JUMP JUMPDEST PUSH32 0x494E53554646494349454E545F494E5055545F414D4F554E5400000000000000 PUSH1 0x0 DUP3 ADD MSTORE POP JUMP JUMPDEST PUSH1 0x0 PUSH2 0x3002 PUSH1 0x19 DUP4 PUSH2 0x2A5E JUMP JUMPDEST SWAP2 POP PUSH2 0x300D DUP3 PUSH2 0x2FCC JUMP JUMPDEST PUSH1 0x20 DUP3 ADD SWAP1 POP SWAP2 SWAP1 POP JUMP JUMPDEST PUSH1 0x0 PUSH1 0x20 DUP3 ADD SWAP1 POP DUP2 DUP2 SUB PUSH1 0x0 DUP4 ADD MSTORE PUSH2 0x3031 DUP2 PUSH2 0x2FF5 JUMP JUMPDEST SWAP1 POP SWAP2 SWAP1 POP JUMP JUMPDEST PUSH32 0x204B000000000000000000000000000000000000000000000000000000000000 PUSH1 0x0 DUP3 ADD MSTORE POP JUMP JUMPDEST PUSH1 0x0 PUSH2 0x306E PUSH1 0x2 DUP4 PUSH2 0x2A5E JUMP JUMPDEST SWAP2 POP PUSH2 0x3079 DUP3 PUSH2 0x3038 JUMP JUMPDEST PUSH1 0x20 DUP3 ADD SWAP1 POP SWAP2 SWAP1 POP JUMP JUMPDEST PUSH1 0x0 PUSH1 0x20 DUP3 ADD SWAP1 POP DUP2 DUP2 SUB PUSH1 0x0 DUP4 ADD MSTORE PUSH2 0x309D DUP2 PUSH2 0x3061 JUMP JUMPDEST SWAP1 POP SWAP2 SWAP1 POP JUMP JUMPDEST PUSH1 0x0 PUSH1 0x80 DUP3 ADD SWAP1 POP PUSH2 0x30B9 PUSH1 0x0 DUP4 ADD DUP8 PUSH2 0x2C2D JUMP JUMPDEST PUSH2 0x30C6 PUSH1 0x20 DUP4 ADD DUP7 PUSH2 0x2C2D JUMP JUMPDEST PUSH2 0x30D3 PUSH1 0x40 DUP4 ADD DUP6 PUSH2 0x2C2D JUMP JUMPDEST PUSH2 0x30E0 PUSH1 0x60 DUP4 ADD DUP5 PUSH2 0x2C2D JUMP JUMPDEST SWAP6 SWAP5 POP POP POP POP POP JUMP JUMPDEST PUSH32 0x464F5242494444454E0000000000000000000000000000000000000000000000 PUSH1 0x0 DUP3 ADD MSTORE POP JUMP JUMPDEST PUSH1 0x0 PUSH2 0x311F PUSH1 0x9 DUP4 PUSH2 0x2A5E JUMP JUMPDEST SWAP2 POP PUSH2 0x312A DUP3 PUSH2 0x30E9 JUMP JUMPDEST PUSH1 0x20 DUP3 ADD SWAP1 POP SWAP2 SWAP1 POP JUMP JUMPDEST PUSH1 0x0 PUSH1 0x20 DUP3 ADD SWAP1 POP DUP2 DUP2 SUB PUSH1 0x0 DUP4 ADD MSTORE PUSH2 0x314E DUP2 PUSH2 0x3112 JUMP JUMPDEST SWAP1 POP SWAP2 SWAP1 POP JUMP JUMPDEST PUSH32 0x4E487B7100000000000000000000000000000000000000000000000000000000 PUSH1 0x0 MSTORE PUSH1 0x12 PUSH1 0x4 MSTORE PUSH1 0x24 PUSH1 0x0 REVERT JUMPDEST PUSH1 0x0 PUSH2 0x318F DUP3 PUSH2 0x28D2 JUMP JUMPDEST SWAP2 POP PUSH2 0x319A DUP4 PUSH2 0x28D2 JUMP JUMPDEST SWAP3 POP DUP3 PUSH2 0x31AA JUMPI PUSH2 0x31A9 PUSH2 0x3155 JUMP JUMPDEST JUMPDEST DUP3 DUP3 DIV SWAP1 POP SWAP3 SWAP2 POP POP JUMP JUMPDEST PUSH32 0x20494E53554646494349454E545F4C49515549444954595F4D494E5445440000 PUSH1 0x0 DUP3 ADD MSTORE POP JUMP JUMPDEST PUSH1 0x0 PUSH2 0x31EB PUSH1 0x1E DUP4 PUSH2 0x2A5E JUMP JUMPDEST SWAP2 POP PUSH2 0x31F6 DUP3 PUSH2 0x31B5 JUMP JUMPDEST PUSH1 0x20 DUP3 ADD SWAP1 POP SWAP2 SWAP1 POP JUMP JUMPDEST PUSH1 0x0 PUSH1 0x20 DUP3 ADD SWAP1 POP DUP2 DUP2 SUB PUSH1 0x0 DUP4 ADD MSTORE PUSH2 0x321A DUP2 PUSH2 0x31DE JUMP JUMPDEST SWAP1 POP SWAP2 SWAP1 POP JUMP JUMPDEST PUSH32 0x494E53554646494349454E545F4C49515549444954595F4255524E4544000000 PUSH1 0x0 DUP3 ADD MSTORE POP JUMP JUMPDEST PUSH1 0x0 PUSH2 0x3257 PUSH1 0x1D DUP4 PUSH2 0x2A5E JUMP JUMPDEST SWAP2 POP PUSH2 0x3262 DUP3 PUSH2 0x3221 JUMP JUMPDEST PUSH1 0x20 DUP3 ADD SWAP1 POP SWAP2 SWAP1 POP JUMP JUMPDEST PUSH1 0x0 PUSH1 0x20 DUP3 ADD SWAP1 POP DUP2 DUP2 SUB PUSH1 0x0 DUP4 ADD MSTORE PUSH2 0x3286 DUP2 PUSH2 0x324A JUMP JUMPDEST SWAP1 POP SWAP2 SWAP1 POP JUMP JUMPDEST PUSH1 0x0 PUSH1 0x40 DUP3 ADD SWAP1 POP PUSH2 0x32A2 PUSH1 0x0 DUP4 ADD DUP6 PUSH2 0x2C03 JUMP JUMPDEST PUSH2 0x32AF PUSH1 0x20 DUP4 ADD DUP5 PUSH2 0x2C2D JUMP JUMPDEST SWAP4 SWAP3 POP POP POP JUMP JUMPDEST PUSH1 0x0 DUP2 MLOAD SWAP1 POP SWAP2 SWAP1 POP JUMP JUMPDEST PUSH1 0x0 DUP2 SWAP1 POP SWAP3 SWAP2 POP POP JUMP JUMPDEST PUSH1 0x0 PUSH2 0x32D7 DUP3 PUSH2 0x32B6 JUMP JUMPDEST PUSH2 0x32E1 DUP2 DUP6 PUSH2 0x32C1 JUMP JUMPDEST SWAP4 POP PUSH2 0x32F1 DUP2 DUP6 PUSH1 0x20 DUP7 ADD PUSH2 0x2A6F JUMP JUMPDEST DUP1 DUP5 ADD SWAP2 POP POP SWAP3 SWAP2 POP POP JUMP JUMPDEST PUSH1 0x0 PUSH2 0x3309 DUP3 DUP5 PUSH2 0x32CC JUMP JUMPDEST SWAP2 POP DUP2 SWAP1 POP SWAP3 SWAP2 POP POP JUMP JUMPDEST PUSH2 0x331D DUP2 PUSH2 0x2BCD JUMP JUMPDEST DUP2 EQ PUSH2 0x3328 JUMPI PUSH1 0x0 DUP1 REVERT JUMPDEST POP JUMP JUMPDEST PUSH1 0x0 DUP2 MLOAD SWAP1 POP PUSH2 0x333A DUP2 PUSH2 0x3314 JUMP JUMPDEST SWAP3 SWAP2 POP POP JUMP JUMPDEST PUSH1 0x0 PUSH1 0x20 DUP3 DUP5 SUB SLT ISZERO PUSH2 0x3356 JUMPI PUSH2 0x3355 PUSH2 0x28C8 JUMP JUMPDEST JUMPDEST PUSH1 0x0 PUSH2 0x3364 DUP5 DUP3 DUP6 ADD PUSH2 0x332B JUMP JUMPDEST SWAP2 POP POP SWAP3 SWAP2 POP POP JUMP JUMPDEST PUSH32 0x5452414E534645525F4641494C45440000000000000000000000000000000000 PUSH1 0x0 DUP3 ADD MSTORE POP JUMP JUMPDEST PUSH1 0x0 PUSH2 0x33A3 PUSH1 0xF DUP4 PUSH2 0x2A5E JUMP JUMPDEST SWAP2 POP PUSH2 0x33AE DUP3 PUSH2 0x336D JUMP JUMPDEST PUSH1 0x20 DUP3 ADD SWAP1 POP SWAP2 SWAP1 POP JUMP JUMPDEST PUSH1 0x0 PUSH1 0x20 DUP3 ADD SWAP1 POP DUP2 DUP2 SUB PUSH1 0x0 DUP4 ADD MSTORE PUSH2 0x33D2 DUP2 PUSH2 0x3396 JUMP JUMPDEST SWAP1 POP SWAP2 SWAP1 POP JUMP JUMPDEST PUSH1 0x0 PUSH2 0x33E4 DUP3 PUSH2 0x28D2 JUMP JUMPDEST SWAP2 POP PUSH2 0x33EF DUP4 PUSH2 0x28D2 JUMP JUMPDEST SWAP3 POP DUP2 PUSH32 0xFFFFFFFFFFFFFFFFFFFFFFFFFFFFFFFFFFFFFFFFFFFFFFFFFFFFFFFFFFFFFFFF DIV DUP4 GT DUP3 ISZERO ISZERO AND ISZERO PUSH2 0x3428 JUMPI PUSH2 0x3427 PUSH2 0x2F69 JUMP JUMPDEST JUMPDEST DUP3 DUP3 MUL SWAP1 POP SWAP3 SWAP2 POP POP JUMP JUMPDEST PUSH32 0x64732D6D6174682D6D756C2D6F766572666C6F77000000000000000000000000 PUSH1 0x0 DUP3 ADD MSTORE POP JUMP JUMPDEST PUSH1 0x0 PUSH2 0x3469 PUSH1 0x14 DUP4 PUSH2 0x2A5E JUMP JUMPDEST SWAP2 POP PUSH2 0x3474 DUP3 PUSH2 0x3433 JUMP JUMPDEST PUSH1 0x20 DUP3 ADD SWAP1 POP SWAP2 SWAP1 POP JUMP JUMPDEST PUSH1 0x0 PUSH1 0x20 DUP3 ADD SWAP1 POP DUP2 DUP2 SUB PUSH1 0x0 DUP4 ADD MSTORE PUSH2 0x3498 DUP2 PUSH2 0x345C JUMP JUMPDEST SWAP1 POP SWAP2 SWAP1 POP JUMP JUMPDEST PUSH32 0x64732D6D6174682D7375622D756E646572666C6F770000000000000000000000 PUSH1 0x0 DUP3 ADD MSTORE POP JUMP JUMPDEST PUSH1 0x0 PUSH2 0x34D5 PUSH1 0x15 DUP4 PUSH2 0x2A5E JUMP JUMPDEST SWAP2 POP PUSH2 0x34E0 DUP3 PUSH2 0x349F JUMP JUMPDEST PUSH1 0x20 DUP3 ADD SWAP1 POP SWAP2 SWAP1 POP JUMP JUMPDEST PUSH1 0x0 PUSH1 0x20 DUP3 ADD SWAP1 POP DUP2 DUP2 SUB PUSH1 0x0 DUP4 ADD MSTORE PUSH2 0x3504 DUP2 PUSH2 0x34C8 JUMP JUMPDEST SWAP1 POP SWAP2 SWAP1 POP JUMP JUMPDEST PUSH32 0x4F564552464C4F57000000000000000000000000000000000000000000000000 PUSH1 0x0 DUP3 ADD MSTORE POP JUMP JUMPDEST PUSH1 0x0 PUSH2 0x3541 PUSH1 0x8 DUP4 PUSH2 0x2A5E JUMP JUMPDEST SWAP2 POP PUSH2 0x354C DUP3 PUSH2 0x350B JUMP JUMPDEST PUSH1 0x20 DUP3 ADD SWAP1 POP SWAP2 SWAP1 POP JUMP JUMPDEST PUSH1 0x0 PUSH1 0x20 DUP3 ADD SWAP1 POP DUP2 DUP2 SUB PUSH1 0x0 DUP4 ADD MSTORE PUSH2 0x3570 DUP2 PUSH2 0x3534 JUMP JUMPDEST SWAP1 POP SWAP2 SWAP1 POP JUMP JUMPDEST PUSH1 0x0 PUSH2 0x3582 DUP3 PUSH2 0x28D2 JUMP JUMPDEST SWAP2 POP PUSH2 0x358D DUP4 PUSH2 0x28D2 JUMP JUMPDEST SWAP3 POP DUP3 PUSH2 0x359D JUMPI PUSH2 0x359C PUSH2 0x3155 JUMP JUMPDEST JUMPDEST DUP3 DUP3 MOD SWAP1 POP SWAP3 SWAP2 POP POP JUMP JUMPDEST PUSH1 0x0 PUSH2 0x35B3 DUP3 PUSH2 0x2B37 JUMP JUMPDEST SWAP2 POP PUSH2 0x35BE DUP4 PUSH2 0x2B37 JUMP JUMPDEST SWAP3 POP DUP3 DUP3 LT ISZERO PUSH2 0x35D1 JUMPI PUSH2 0x35D0 PUSH2 0x2F69 JUMP JUMPDEST JUMPDEST DUP3 DUP3 SUB SWAP1 POP SWAP3 SWAP2 POP POP JUMP JUMPDEST PUSH1 0x0 PUSH2 0x35E7 DUP3 PUSH2 0x28D2 JUMP JUMPDEST SWAP2 POP PUSH2 0x35F2 DUP4 PUSH2 0x28D2 JUMP JUMPDEST SWAP3 POP DUP3 PUSH32 0xFFFFFFFFFFFFFFFFFFFFFFFFFFFFFFFFFFFFFFFFFFFFFFFFFFFFFFFFFFFFFFFF SUB DUP3 GT ISZERO PUSH2 0x3627 JUMPI PUSH2 0x3626 PUSH2 0x2F69 JUMP JUMPDEST JUMPDEST DUP3 DUP3 ADD SWAP1 POP SWAP3 SWAP2 POP POP JUMP JUMPDEST PUSH1 0x0 PUSH1 0x40 DUP3 ADD SWAP1 POP PUSH2 0x3647 PUSH1 0x0 DUP4 ADD DUP6 PUSH2 0x2B28 JUMP JUMPDEST PUSH2 0x3654 PUSH1 0x20 DUP4 ADD DUP5 PUSH2 0x2B28 JUMP JUMPDEST SWAP4 SWAP3 POP POP POP JUMP JUMPDEST PUSH1 0x0 DUP2 MLOAD SWAP1 POP PUSH2 0x366A DUP2 PUSH2 0x293A JUMP JUMPDEST SWAP3 SWAP2 POP POP JUMP JUMPDEST PUSH1 0x0 PUSH1 0x20 DUP3 DUP5 SUB SLT ISZERO PUSH2 0x3686 JUMPI PUSH2 0x3685 PUSH2 0x28C8 JUMP JUMPDEST JUMPDEST PUSH1 0x0 PUSH2 0x3694 DUP5 DUP3 DUP6 ADD PUSH2 0x365B JUMP JUMPDEST SWAP2 POP POP SWAP3 SWAP2 POP POP JUMP JUMPDEST PUSH1 0x0 PUSH28 0xFFFFFFFFFFFFFFFFFFFFFFFFFFFFFFFFFFFFFFFFFFFFFFFFFFFFFFFF DUP3 AND SWAP1 POP SWAP2 SWAP1 POP JUMP JUMPDEST PUSH1 0x0 PUSH2 0x36D0 DUP3 PUSH2 0x369D JUMP JUMPDEST SWAP2 POP PUSH2 0x36DB DUP4 PUSH2 0x369D JUMP JUMPDEST SWAP3 POP DUP2 PUSH28 0xFFFFFFFFFFFFFFFFFFFFFFFFFFFFFFFFFFFFFFFFFFFFFFFFFFFFFFFF DIV DUP4 GT DUP3 ISZERO ISZERO AND ISZERO PUSH2 0x3710 JUMPI PUSH2 0x370F PUSH2 0x2F69 JUMP JUMPDEST JUMPDEST DUP3 DUP3 MUL SWAP1 POP SWAP3 SWAP2 POP POP JUMP JUMPDEST PUSH1 0x0 PUSH2 0x3726 DUP3 PUSH2 0x369D JUMP JUMPDEST SWAP2 POP PUSH2 0x3731 DUP4 PUSH2 0x369D JUMP JUMPDEST SWAP3 POP DUP3 PUSH2 0x3741 JUMPI PUSH2 0x3740 PUSH2 0x3155 JUMP JUMPDEST JUMPDEST DUP3 DUP3 DIV SWAP1 POP SWAP3 SWAP2 POP POP JUMP JUMPDEST PUSH32 0x64732D6D6174682D6164642D6F766572666C6F77000000000000000000000000 PUSH1 0x0 DUP3 ADD MSTORE POP JUMP JUMPDEST PUSH1 0x0 PUSH2 0x3782 PUSH1 0x14 DUP4 PUSH2 0x2A5E JUMP JUMPDEST SWAP2 POP PUSH2 0x378D DUP3 PUSH2 0x374C JUMP JUMPDEST PUSH1 0x20 DUP3 ADD SWAP1 POP SWAP2 SWAP1 POP JUMP JUMPDEST PUSH1 0x0 PUSH1 0x20 DUP3 ADD SWAP1 POP DUP2 DUP2 SUB PUSH1 0x0 DUP4 ADD MSTORE PUSH2 0x37B1 DUP2 PUSH2 0x3775 JUMP JUMPDEST SWAP1 POP SWAP2 SWAP1 POP JUMP INVALID LOG2 PUSH5 0x6970667358 0x22 SLT KECCAK256 0xB5 PUSH14 0x1671B8495C2D14355DDAF8608A16 CHAINID DUP5 PUSH7 0xDD2A927D100618 0xE8 CALLDATASIZE PUSH13 0xAE399F64736F6C634300080E00 CALLER "
				},
				"gasEstimates": {
					"creation": {
						"codeDepositCost": "2863600",
						"executionCost": "49503",
						"totalCost": "2913103"
					},
					"external": {
						"MINIMUM_LIQUIDITY()": "351",
						"allowance(address,address)": "infinite",
						"approve(address,uint256)": "infinite",
						"balanceOf(address)": "2837",
						"burn(address)": "infinite",
						"decimals()": "380",
						"factory()": "2580",
						"getReserves()": "infinite",
						"initialize(address,address)": "infinite",
						"kLast()": "2474",
						"mint(address)": "infinite",
						"name()": "infinite",
						"nonces(address)": "2881",
						"price0CumulativeLast()": "2518",
						"price1CumulativeLast()": "2540",
						"skim(address)": "infinite",
						"swap(uint256,uint256,address,bytes)": "infinite",
						"symbol()": "infinite",
						"sync()": "infinite",
						"token0()": "2626",
						"token1()": "2602",
						"totalSupply()": "2563",
						"transfer(address,uint256)": "infinite",
						"transferFrom(address,address,uint256)": "infinite"
					},
					"internal": {
						"_collectFee(uint112,uint112)": "infinite",
						"_safeTransfer(address,address,uint256)": "infinite",
						"_update(uint256,uint256,uint112,uint112)": "infinite"
					}
				},
				"methodIdentifiers": {
					"MINIMUM_LIQUIDITY()": "ba9a7a56",
					"allowance(address,address)": "dd62ed3e",
					"approve(address,uint256)": "095ea7b3",
					"balanceOf(address)": "70a08231",
					"burn(address)": "89afcb44",
					"decimals()": "313ce567",
					"factory()": "c45a0155",
					"getReserves()": "0902f1ac",
					"initialize(address,address)": "485cc955",
					"kLast()": "7464fc3d",
					"mint(address)": "6a627842",
					"name()": "06fdde03",
					"nonces(address)": "7ecebe00",
					"price0CumulativeLast()": "5909c0d5",
					"price1CumulativeLast()": "5a3d5493",
					"skim(address)": "bc25cf77",
					"swap(uint256,uint256,address,bytes)": "022c0d9f",
					"symbol()": "95d89b41",
					"sync()": "fff6cae9",
					"token0()": "0dfe1681",
					"token1()": "d21220a7",
					"totalSupply()": "18160ddd",
					"transfer(address,uint256)": "a9059cbb",
					"transferFrom(address,address,uint256)": "23b872dd"
				}
			},
			"storageLayout": {
				"storage": [
					{
						"astId": 16,
						"contract": "Core/XSwapPair.sol:XSwapPair",
						"label": "totalSupply",
						"offset": 0,
						"slot": "0",
						"type": "t_uint256"
					},
					{
						"astId": 20,
						"contract": "Core/XSwapPair.sol:XSwapPair",
						"label": "balanceOf",
						"offset": 0,
						"slot": "1",
						"type": "t_mapping(t_address,t_uint256)"
					},
					{
						"astId": 26,
						"contract": "Core/XSwapPair.sol:XSwapPair",
						"label": "allowance",
						"offset": 0,
						"slot": "2",
						"type": "t_mapping(t_address,t_mapping(t_address,t_uint256))"
					},
					{
						"astId": 30,
						"contract": "Core/XSwapPair.sol:XSwapPair",
						"label": "nonces",
						"offset": 0,
						"slot": "3",
						"type": "t_mapping(t_address,t_uint256)"
					},
					{
						"astId": 301,
						"contract": "Core/XSwapPair.sol:XSwapPair",
						"label": "factory",
						"offset": 0,
						"slot": "4",
						"type": "t_address"
					},
					{
						"astId": 303,
						"contract": "Core/XSwapPair.sol:XSwapPair",
						"label": "token0",
						"offset": 0,
						"slot": "5",
						"type": "t_address"
					},
					{
						"astId": 305,
						"contract": "Core/XSwapPair.sol:XSwapPair",
						"label": "token1",
						"offset": 0,
						"slot": "6",
						"type": "t_address"
					},
					{
						"astId": 307,
						"contract": "Core/XSwapPair.sol:XSwapPair",
						"label": "reserve0",
						"offset": 0,
						"slot": "7",
						"type": "t_uint112"
					},
					{
						"astId": 309,
						"contract": "Core/XSwapPair.sol:XSwapPair",
						"label": "reserve1",
						"offset": 14,
						"slot": "7",
						"type": "t_uint112"
					},
					{
						"astId": 311,
						"contract": "Core/XSwapPair.sol:XSwapPair",
						"label": "blockTimestampLast",
						"offset": 28,
						"slot": "7",
						"type": "t_uint32"
					},
					{
						"astId": 313,
						"contract": "Core/XSwapPair.sol:XSwapPair",
						"label": "price0CumulativeLast",
						"offset": 0,
						"slot": "8",
						"type": "t_uint256"
					},
					{
						"astId": 315,
						"contract": "Core/XSwapPair.sol:XSwapPair",
						"label": "price1CumulativeLast",
						"offset": 0,
						"slot": "9",
						"type": "t_uint256"
					},
					{
						"astId": 317,
						"contract": "Core/XSwapPair.sol:XSwapPair",
						"label": "kLast",
						"offset": 0,
						"slot": "10",
						"type": "t_uint256"
					},
					{
						"astId": 320,
						"contract": "Core/XSwapPair.sol:XSwapPair",
						"label": "unlocked",
						"offset": 0,
						"slot": "11",
						"type": "t_uint256"
					}
				],
				"types": {
					"t_address": {
						"encoding": "inplace",
						"label": "address",
						"numberOfBytes": "20"
					},
					"t_mapping(t_address,t_mapping(t_address,t_uint256))": {
						"encoding": "mapping",
						"key": "t_address",
						"label": "mapping(address => mapping(address => uint256))",
						"numberOfBytes": "32",
						"value": "t_mapping(t_address,t_uint256)"
					},
					"t_mapping(t_address,t_uint256)": {
						"encoding": "mapping",
						"key": "t_address",
						"label": "mapping(address => uint256)",
						"numberOfBytes": "32",
						"value": "t_uint256"
					},
					"t_uint112": {
						"encoding": "inplace",
						"label": "uint112",
						"numberOfBytes": "14"
					},
					"t_uint256": {
						"encoding": "inplace",
						"label": "uint256",
						"numberOfBytes": "32"
					},
					"t_uint32": {
						"encoding": "inplace",
						"label": "uint32",
						"numberOfBytes": "4"
					}
				}
			},
			"userdoc": {
				"kind": "user",
				"methods": {},
				"version": 1
			}
		}
	}
}