{
	"Core/StakingPoolFactory.sol": {
		"StakingPoolFactory": {
			"abi": [
				{
					"inputs": [
						{
							"internalType": "address",
							"name": "_feeToSetter",
							"type": "address"
						}
					],
					"stateMutability": "nonpayable",
					"type": "constructor"
				},
				{
					"anonymous": false,
					"inputs": [
						{
							"indexed": true,
							"internalType": "address",
							"name": "token",
							"type": "address"
						},
						{
							"indexed": false,
							"internalType": "address",
							"name": "pool",
							"type": "address"
						},
						{
							"indexed": false,
							"internalType": "uint256",
							"name": "timeStamp",
							"type": "uint256"
						}
					],
					"name": "PoolCreated",
					"type": "event"
				},
				{
					"inputs": [
						{
							"internalType": "uint256",
							"name": "",
							"type": "uint256"
						}
					],
					"name": "allPools",
					"outputs": [
						{
							"internalType": "address",
							"name": "",
							"type": "address"
						}
					],
					"stateMutability": "view",
					"type": "function"
				},
				{
					"inputs": [],
					"name": "allPoolsLength",
					"outputs": [
						{
							"internalType": "uint256",
							"name": "",
							"type": "uint256"
						}
					],
					"stateMutability": "view",
					"type": "function"
				},
				{
					"inputs": [
						{
							"internalType": "address",
							"name": "stoken",
							"type": "address"
						},
						{
							"internalType": "address",
							"name": "rtoken",
							"type": "address"
						}
					],
					"name": "createPool",
					"outputs": [
						{
							"internalType": "address",
							"name": "",
							"type": "address"
						}
					],
					"stateMutability": "nonpayable",
					"type": "function"
				},
				{
					"inputs": [],
					"name": "feeTo",
					"outputs": [
						{
							"internalType": "address",
							"name": "",
							"type": "address"
						}
					],
					"stateMutability": "view",
					"type": "function"
				},
				{
					"inputs": [],
					"name": "feeToSetter",
					"outputs": [
						{
							"internalType": "address",
							"name": "",
							"type": "address"
						}
					],
					"stateMutability": "view",
					"type": "function"
				},
				{
					"inputs": [
						{
							"internalType": "address",
							"name": "",
							"type": "address"
						}
					],
					"name": "getPool",
					"outputs": [
						{
							"internalType": "address",
							"name": "",
							"type": "address"
						}
					],
					"stateMutability": "view",
					"type": "function"
				},
				{
					"inputs": [
						{
							"internalType": "address",
							"name": "_feeTo",
							"type": "address"
						}
					],
					"name": "setFeeTo",
					"outputs": [],
					"stateMutability": "nonpayable",
					"type": "function"
				},
				{
					"inputs": [
						{
							"internalType": "address",
							"name": "_feeToSetter",
							"type": "address"
						}
					],
					"name": "setFeeToSetter",
					"outputs": [],
					"stateMutability": "nonpayable",
					"type": "function"
				}
			],
			"devdoc": {
				"kind": "dev",
				"methods": {},
				"version": 1
			},
			"evm": {
				"assembly": "    /* \"Core/StakingPoolFactory.sol\":87:1431  contract StakingPoolFactory {... */\n  mstore(0x40, 0x80)\n    /* \"Core/StakingPoolFactory.sol\":479:556  constructor(address _feeToSetter) {... */\n  callvalue\n  dup1\n  iszero\n  tag_1\n  jumpi\n  0x00\n  dup1\n  revert\ntag_1:\n  pop\n  mload(0x40)\n  sub(codesize, bytecodeSize)\n  dup1\n  bytecodeSize\n  dup4\n  codecopy\n  dup2\n  dup2\n  add\n  0x40\n  mstore\n  dup2\n  add\n  swap1\n  tag_2\n  swap2\n  swap1\n  tag_3\n  jump\t// in\ntag_2:\n    /* \"Core/StakingPoolFactory.sol\":537:549  _feeToSetter */\n  dup1\n    /* \"Core/StakingPoolFactory.sol\":523:534  feeToSetter */\n  0x01\n  0x00\n    /* \"Core/StakingPoolFactory.sol\":523:549  feeToSetter = _feeToSetter */\n  0x0100\n  exp\n  dup2\n  sload\n  dup2\n  0xffffffffffffffffffffffffffffffffffffffff\n  mul\n  not\n  and\n  swap1\n  dup4\n  0xffffffffffffffffffffffffffffffffffffffff\n  and\n  mul\n  or\n  swap1\n  sstore\n  pop\n    /* \"Core/StakingPoolFactory.sol\":479:556  constructor(address _feeToSetter) {... */\n  pop\n    /* \"Core/StakingPoolFactory.sol\":87:1431  contract StakingPoolFactory {... */\n  jump(tag_6)\n    /* \"#utility.yul\":88:205   */\ntag_8:\n    /* \"#utility.yul\":197:198   */\n  0x00\n    /* \"#utility.yul\":194:195   */\n  dup1\n    /* \"#utility.yul\":187:199   */\n  revert\n    /* \"#utility.yul\":334:460   */\ntag_10:\n    /* \"#utility.yul\":371:378   */\n  0x00\n    /* \"#utility.yul\":411:453   */\n  0xffffffffffffffffffffffffffffffffffffffff\n    /* \"#utility.yul\":404:409   */\n  dup3\n    /* \"#utility.yul\":400:454   */\n  and\n    /* \"#utility.yul\":389:454   */\n  swap1\n  pop\n    /* \"#utility.yul\":334:460   */\n  swap2\n  swap1\n  pop\n  jump\t// out\n    /* \"#utility.yul\":466:562   */\ntag_11:\n    /* \"#utility.yul\":503:510   */\n  0x00\n    /* \"#utility.yul\":532:556   */\n  tag_20\n    /* \"#utility.yul\":550:555   */\n  dup3\n    /* \"#utility.yul\":532:556   */\n  tag_10\n  jump\t// in\ntag_20:\n    /* \"#utility.yul\":521:556   */\n  swap1\n  pop\n    /* \"#utility.yul\":466:562   */\n  swap2\n  swap1\n  pop\n  jump\t// out\n    /* \"#utility.yul\":568:690   */\ntag_12:\n    /* \"#utility.yul\":641:665   */\n  tag_22\n    /* \"#utility.yul\":659:664   */\n  dup2\n    /* \"#utility.yul\":641:665   */\n  tag_11\n  jump\t// in\ntag_22:\n    /* \"#utility.yul\":634:639   */\n  dup2\n    /* \"#utility.yul\":631:666   */\n  eq\n    /* \"#utility.yul\":621:684   */\n  tag_23\n  jumpi\n    /* \"#utility.yul\":680:681   */\n  0x00\n    /* \"#utility.yul\":677:678   */\n  dup1\n    /* \"#utility.yul\":670:682   */\n  revert\n    /* \"#utility.yul\":621:684   */\ntag_23:\n    /* \"#utility.yul\":568:690   */\n  pop\n  jump\t// out\n    /* \"#utility.yul\":696:839   */\ntag_13:\n    /* \"#utility.yul\":753:758   */\n  0x00\n    /* \"#utility.yul\":784:790   */\n  dup2\n    /* \"#utility.yul\":778:791   */\n  mload\n    /* \"#utility.yul\":769:791   */\n  swap1\n  pop\n    /* \"#utility.yul\":800:833   */\n  tag_25\n    /* \"#utility.yul\":827:832   */\n  dup2\n    /* \"#utility.yul\":800:833   */\n  tag_12\n  jump\t// in\ntag_25:\n    /* \"#utility.yul\":696:839   */\n  swap3\n  swap2\n  pop\n  pop\n  jump\t// out\n    /* \"#utility.yul\":845:1196   */\ntag_3:\n    /* \"#utility.yul\":915:921   */\n  0x00\n    /* \"#utility.yul\":964:966   */\n  0x20\n    /* \"#utility.yul\":952:961   */\n  dup3\n    /* \"#utility.yul\":943:950   */\n  dup5\n    /* \"#utility.yul\":939:962   */\n  sub\n    /* \"#utility.yul\":935:967   */\n  slt\n    /* \"#utility.yul\":932:1051   */\n  iszero\n  tag_27\n  jumpi\n    /* \"#utility.yul\":970:1049   */\n  tag_28\n  tag_8\n  jump\t// in\ntag_28:\n    /* \"#utility.yul\":932:1051   */\ntag_27:\n    /* \"#utility.yul\":1090:1091   */\n  0x00\n    /* \"#utility.yul\":1115:1179   */\n  tag_29\n    /* \"#utility.yul\":1171:1178   */\n  dup5\n    /* \"#utility.yul\":1162:1168   */\n  dup3\n    /* \"#utility.yul\":1151:1160   */\n  dup6\n    /* \"#utility.yul\":1147:1169   */\n  add\n    /* \"#utility.yul\":1115:1179   */\n  tag_13\n  jump\t// in\ntag_29:\n    /* \"#utility.yul\":1105:1179   */\n  swap2\n  pop\n    /* \"#utility.yul\":1061:1189   */\n  pop\n    /* \"#utility.yul\":845:1196   */\n  swap3\n  swap2\n  pop\n  pop\n  jump\t// out\n    /* \"Core/StakingPoolFactory.sol\":87:1431  contract StakingPoolFactory {... */\ntag_6:\n  dataSize(sub_0)\n  dup1\n  dataOffset(sub_0)\n  0x00\n  codecopy\n  0x00\n  return\nstop\n\nsub_0: assembly {\n        /* \"Core/StakingPoolFactory.sol\":87:1431  contract StakingPoolFactory {... */\n      mstore(0x40, 0x80)\n      callvalue\n      dup1\n      iszero\n      tag_1\n      jumpi\n      0x00\n      dup1\n      revert\n    tag_1:\n      pop\n      jumpi(tag_2, lt(calldatasize, 0x04))\n      shr(0xe0, calldataload(0x00))\n      dup1\n      0xbbe4f6db\n      gt\n      tag_11\n      jumpi\n      dup1\n      0xbbe4f6db\n      eq\n      tag_7\n      jumpi\n      dup1\n      0xe3433615\n      eq\n      tag_8\n      jumpi\n      dup1\n      0xefde4e64\n      eq\n      tag_9\n      jumpi\n      dup1\n      0xf46901ed\n      eq\n      tag_10\n      jumpi\n      jump(tag_2)\n    tag_11:\n      dup1\n      0x017e7e58\n      eq\n      tag_3\n      jumpi\n      dup1\n      0x094b7415\n      eq\n      tag_4\n      jumpi\n      dup1\n      0x41d1de97\n      eq\n      tag_5\n      jumpi\n      dup1\n      0xa2e74af6\n      eq\n      tag_6\n      jumpi\n    tag_2:\n      0x00\n      dup1\n      revert\n        /* \"Core/StakingPoolFactory.sol\":174:194  address public feeTo */\n    tag_3:\n      tag_12\n      tag_13\n      jump\t// in\n    tag_12:\n      mload(0x40)\n      tag_14\n      swap2\n      swap1\n      tag_15\n      jump\t// in\n    tag_14:\n      mload(0x40)\n      dup1\n      swap2\n      sub\n      swap1\n      return\n        /* \"Core/StakingPoolFactory.sol\":242:268  address public feeToSetter */\n    tag_4:\n      tag_16\n      tag_17\n      jump\t// in\n    tag_16:\n      mload(0x40)\n      tag_18\n      swap2\n      swap1\n      tag_15\n      jump\t// in\n    tag_18:\n      mload(0x40)\n      dup1\n      swap2\n      sub\n      swap1\n      return\n        /* \"Core/StakingPoolFactory.sol\":367:392  address[] public allPools */\n    tag_5:\n      tag_19\n      0x04\n      dup1\n      calldatasize\n      sub\n      dup2\n      add\n      swap1\n      tag_20\n      swap2\n      swap1\n      tag_21\n      jump\t// in\n    tag_20:\n      tag_22\n      jump\t// in\n    tag_19:\n      mload(0x40)\n      tag_23\n      swap2\n      swap1\n      tag_15\n      jump\t// in\n    tag_23:\n      mload(0x40)\n      dup1\n      swap2\n      sub\n      swap1\n      return\n        /* \"Core/StakingPoolFactory.sol\":1274:1429  function setFeeToSetter(address _feeToSetter) external {... */\n    tag_6:\n      tag_24\n      0x04\n      dup1\n      calldatasize\n      sub\n      dup2\n      add\n      swap1\n      tag_25\n      swap2\n      swap1\n      tag_26\n      jump\t// in\n    tag_25:\n      tag_27\n      jump\t// in\n    tag_24:\n      stop\n        /* \"Core/StakingPoolFactory.sol\":319:361  mapping(address => address) public getPool */\n    tag_7:\n      tag_28\n      0x04\n      dup1\n      calldatasize\n      sub\n      dup2\n      add\n      swap1\n      tag_29\n      swap2\n      swap1\n      tag_26\n      jump\t// in\n    tag_29:\n      tag_30\n      jump\t// in\n    tag_28:\n      mload(0x40)\n      tag_31\n      swap2\n      swap1\n      tag_15\n      jump\t// in\n    tag_31:\n      mload(0x40)\n      dup1\n      swap2\n      sub\n      swap1\n      return\n        /* \"Core/StakingPoolFactory.sol\":665:1131  function createPool(address stoken, address rtoken)... */\n    tag_8:\n      tag_32\n      0x04\n      dup1\n      calldatasize\n      sub\n      dup2\n      add\n      swap1\n      tag_33\n      swap2\n      swap1\n      tag_34\n      jump\t// in\n    tag_33:\n      tag_35\n      jump\t// in\n    tag_32:\n      mload(0x40)\n      tag_36\n      swap2\n      swap1\n      tag_15\n      jump\t// in\n    tag_36:\n      mload(0x40)\n      dup1\n      swap2\n      sub\n      swap1\n      return\n        /* \"Core/StakingPoolFactory.sol\":562:659  function allPoolsLength() external view returns (uint256) {... */\n    tag_9:\n      tag_37\n      tag_38\n      jump\t// in\n    tag_37:\n      mload(0x40)\n      tag_39\n      swap2\n      swap1\n      tag_40\n      jump\t// in\n    tag_39:\n      mload(0x40)\n      dup1\n      swap2\n      sub\n      swap1\n      return\n        /* \"Core/StakingPoolFactory.sol\":1137:1268  function setFeeTo(address _feeTo) external {... */\n    tag_10:\n      tag_41\n      0x04\n      dup1\n      calldatasize\n      sub\n      dup2\n      add\n      swap1\n      tag_42\n      swap2\n      swap1\n      tag_26\n      jump\t// in\n    tag_42:\n      tag_43\n      jump\t// in\n    tag_41:\n      stop\n        /* \"Core/StakingPoolFactory.sol\":174:194  address public feeTo */\n    tag_13:\n      0x00\n      dup1\n      sload\n      swap1\n      0x0100\n      exp\n      swap1\n      div\n      0xffffffffffffffffffffffffffffffffffffffff\n      and\n      dup2\n      jump\t// out\n        /* \"Core/StakingPoolFactory.sol\":242:268  address public feeToSetter */\n    tag_17:\n      0x01\n      0x00\n      swap1\n      sload\n      swap1\n      0x0100\n      exp\n      swap1\n      div\n      0xffffffffffffffffffffffffffffffffffffffff\n      and\n      dup2\n      jump\t// out\n        /* \"Core/StakingPoolFactory.sol\":367:392  address[] public allPools */\n    tag_22:\n      0x03\n      dup2\n      dup2\n      sload\n      dup2\n      lt\n      tag_44\n      jumpi\n      0x00\n      dup1\n      revert\n    tag_44:\n      swap1\n      0x00\n      mstore\n      keccak256(0x00, 0x20)\n      add\n      0x00\n      swap2\n      pop\n      sload\n      swap1\n      0x0100\n      exp\n      swap1\n      div\n      0xffffffffffffffffffffffffffffffffffffffff\n      and\n      dup2\n      jump\t// out\n        /* \"Core/StakingPoolFactory.sol\":1274:1429  function setFeeToSetter(address _feeToSetter) external {... */\n    tag_27:\n        /* \"Core/StakingPoolFactory.sol\":1361:1372  feeToSetter */\n      0x01\n      0x00\n      swap1\n      sload\n      swap1\n      0x0100\n      exp\n      swap1\n      div\n      0xffffffffffffffffffffffffffffffffffffffff\n      and\n        /* \"Core/StakingPoolFactory.sol\":1347:1372  msg.sender == feeToSetter */\n      0xffffffffffffffffffffffffffffffffffffffff\n      and\n        /* \"Core/StakingPoolFactory.sol\":1347:1357  msg.sender */\n      caller\n        /* \"Core/StakingPoolFactory.sol\":1347:1372  msg.sender == feeToSetter */\n      0xffffffffffffffffffffffffffffffffffffffff\n      and\n      eq\n        /* \"Core/StakingPoolFactory.sol\":1339:1386  require(msg.sender == feeToSetter, \"FORBIDDEN\") */\n      tag_47\n      jumpi\n      mload(0x40)\n      0x08c379a000000000000000000000000000000000000000000000000000000000\n      dup2\n      mstore\n      0x04\n      add\n      tag_48\n      swap1\n      tag_49\n      jump\t// in\n    tag_48:\n      mload(0x40)\n      dup1\n      swap2\n      sub\n      swap1\n      revert\n    tag_47:\n        /* \"Core/StakingPoolFactory.sol\":1410:1422  _feeToSetter */\n      dup1\n        /* \"Core/StakingPoolFactory.sol\":1396:1407  feeToSetter */\n      0x01\n      0x00\n        /* \"Core/StakingPoolFactory.sol\":1396:1422  feeToSetter = _feeToSetter */\n      0x0100\n      exp\n      dup2\n      sload\n      dup2\n      0xffffffffffffffffffffffffffffffffffffffff\n      mul\n      not\n      and\n      swap1\n      dup4\n      0xffffffffffffffffffffffffffffffffffffffff\n      and\n      mul\n      or\n      swap1\n      sstore\n      pop\n        /* \"Core/StakingPoolFactory.sol\":1274:1429  function setFeeToSetter(address _feeToSetter) external {... */\n      pop\n      jump\t// out\n        /* \"Core/StakingPoolFactory.sol\":319:361  mapping(address => address) public getPool */\n    tag_30:\n      mstore(0x20, 0x02)\n      dup1\n      0x00\n      mstore\n      keccak256(0x00, 0x40)\n      0x00\n      swap2\n      pop\n      sload\n      swap1\n      0x0100\n      exp\n      swap1\n      div\n      0xffffffffffffffffffffffffffffffffffffffff\n      and\n      dup2\n      jump\t// out\n        /* \"Core/StakingPoolFactory.sol\":665:1131  function createPool(address stoken, address rtoken)... */\n    tag_35:\n        /* \"Core/StakingPoolFactory.sol\":751:758  address */\n      0x00\n        /* \"Core/StakingPoolFactory.sol\":800:801  0 */\n      dup1\n        /* \"Core/StakingPoolFactory.sol\":782:802  stoken != address(0) */\n      0xffffffffffffffffffffffffffffffffffffffff\n      and\n        /* \"Core/StakingPoolFactory.sol\":782:788  stoken */\n      dup4\n        /* \"Core/StakingPoolFactory.sol\":782:802  stoken != address(0) */\n      0xffffffffffffffffffffffffffffffffffffffff\n      and\n      sub\n        /* \"Core/StakingPoolFactory.sol\":774:819  require(stoken != address(0), \"ZERO_ADDRESS\") */\n      tag_51\n      jumpi\n      mload(0x40)\n      0x08c379a000000000000000000000000000000000000000000000000000000000\n      dup2\n      mstore\n      0x04\n      add\n      tag_52\n      swap1\n      tag_53\n      jump\t// in\n    tag_52:\n      mload(0x40)\n      dup1\n      swap2\n      sub\n      swap1\n      revert\n    tag_51:\n        /* \"Core/StakingPoolFactory.sol\":864:865  0 */\n      0x00\n        /* \"Core/StakingPoolFactory.sol\":837:866  getPool[stoken] == address(0) */\n      0xffffffffffffffffffffffffffffffffffffffff\n      and\n        /* \"Core/StakingPoolFactory.sol\":837:844  getPool */\n      0x02\n        /* \"Core/StakingPoolFactory.sol\":837:852  getPool[stoken] */\n      0x00\n        /* \"Core/StakingPoolFactory.sol\":845:851  stoken */\n      dup6\n        /* \"Core/StakingPoolFactory.sol\":837:852  getPool[stoken] */\n      0xffffffffffffffffffffffffffffffffffffffff\n      and\n      0xffffffffffffffffffffffffffffffffffffffff\n      and\n      dup2\n      mstore\n      0x20\n      add\n      swap1\n      dup2\n      mstore\n      0x20\n      add\n      0x00\n      keccak256\n      0x00\n      swap1\n      sload\n      swap1\n      0x0100\n      exp\n      swap1\n      div\n      0xffffffffffffffffffffffffffffffffffffffff\n      and\n        /* \"Core/StakingPoolFactory.sol\":837:866  getPool[stoken] == address(0) */\n      0xffffffffffffffffffffffffffffffffffffffff\n      and\n      eq\n        /* \"Core/StakingPoolFactory.sol\":829:882  require(getPool[stoken] == address(0), \"PAIR_EXISTS\") */\n      tag_54\n      jumpi\n      mload(0x40)\n      0x08c379a000000000000000000000000000000000000000000000000000000000\n      dup2\n      mstore\n      0x04\n      add\n      tag_55\n      swap1\n      tag_56\n      jump\t// in\n    tag_55:\n      mload(0x40)\n      dup1\n      swap2\n      sub\n      swap1\n      revert\n    tag_54:\n        /* \"Core/StakingPoolFactory.sol\":893:910  StakingPool _pool */\n      0x00\n        /* \"Core/StakingPoolFactory.sol\":929:935  stoken */\n      dup4\n        /* \"Core/StakingPoolFactory.sol\":937:943  rtoken */\n      dup4\n        /* \"Core/StakingPoolFactory.sol\":913:944  new StakingPool(stoken, rtoken) */\n      mload(0x40)\n      tag_57\n      swap1\n      tag_58\n      jump\t// in\n    tag_57:\n      tag_59\n      swap3\n      swap2\n      swap1\n      tag_60\n      jump\t// in\n    tag_59:\n      mload(0x40)\n      dup1\n      swap2\n      sub\n      swap1\n      0x00\n      create\n      dup1\n      iszero\n      dup1\n      iszero\n      tag_61\n      jumpi\n      returndatasize\n      0x00\n      dup1\n      returndatacopy\n      revert(0x00, returndatasize)\n    tag_61:\n      pop\n        /* \"Core/StakingPoolFactory.sol\":893:944  StakingPool _pool = new StakingPool(stoken, rtoken) */\n      swap1\n      pop\n        /* \"Core/StakingPoolFactory.sol\":981:986  _pool */\n      dup1\n        /* \"Core/StakingPoolFactory.sol\":955:962  getPool */\n      0x02\n        /* \"Core/StakingPoolFactory.sol\":955:970  getPool[stoken] */\n      0x00\n        /* \"Core/StakingPoolFactory.sol\":963:969  stoken */\n      dup7\n        /* \"Core/StakingPoolFactory.sol\":955:970  getPool[stoken] */\n      0xffffffffffffffffffffffffffffffffffffffff\n      and\n      0xffffffffffffffffffffffffffffffffffffffff\n      and\n      dup2\n      mstore\n      0x20\n      add\n      swap1\n      dup2\n      mstore\n      0x20\n      add\n      0x00\n      keccak256\n      0x00\n        /* \"Core/StakingPoolFactory.sol\":955:987  getPool[stoken] = address(_pool) */\n      0x0100\n      exp\n      dup2\n      sload\n      dup2\n      0xffffffffffffffffffffffffffffffffffffffff\n      mul\n      not\n      and\n      swap1\n      dup4\n      0xffffffffffffffffffffffffffffffffffffffff\n      and\n      mul\n      or\n      swap1\n      sstore\n      pop\n        /* \"Core/StakingPoolFactory.sol\":997:1005  allPools */\n      0x03\n        /* \"Core/StakingPoolFactory.sol\":1019:1024  _pool */\n      dup2\n        /* \"Core/StakingPoolFactory.sol\":997:1026  allPools.push(address(_pool)) */\n      swap1\n      dup1\n      0x01\n      dup2\n      sload\n      add\n      dup1\n      dup3\n      sstore\n      dup1\n      swap2\n      pop\n      pop\n      0x01\n      swap1\n      sub\n      swap1\n      0x00\n      mstore\n      keccak256(0x00, 0x20)\n      add\n      0x00\n      swap1\n      swap2\n      swap1\n      swap2\n      swap1\n      swap2\n      0x0100\n      exp\n      dup2\n      sload\n      dup2\n      0xffffffffffffffffffffffffffffffffffffffff\n      mul\n      not\n      and\n      swap1\n      dup4\n      0xffffffffffffffffffffffffffffffffffffffff\n      and\n      mul\n      or\n      swap1\n      sstore\n      pop\n        /* \"Core/StakingPoolFactory.sol\":1053:1059  stoken */\n      dup4\n        /* \"Core/StakingPoolFactory.sol\":1041:1093  PoolCreated(stoken, address(_pool), block.timestamp) */\n      0xffffffffffffffffffffffffffffffffffffffff\n      and\n      0xf8a0462f666b427ea753848be7e91f9ce413975906f6f39950be296ca9a4d524\n        /* \"Core/StakingPoolFactory.sol\":1069:1074  _pool */\n      dup3\n        /* \"Core/StakingPoolFactory.sol\":1077:1092  block.timestamp */\n      timestamp\n        /* \"Core/StakingPoolFactory.sol\":1041:1093  PoolCreated(stoken, address(_pool), block.timestamp) */\n      mload(0x40)\n      tag_63\n      swap3\n      swap2\n      swap1\n      tag_64\n      jump\t// in\n    tag_63:\n      mload(0x40)\n      dup1\n      swap2\n      sub\n      swap1\n      log2\n        /* \"Core/StakingPoolFactory.sol\":1118:1123  _pool */\n      dup1\n        /* \"Core/StakingPoolFactory.sol\":1103:1124  return address(_pool) */\n      swap2\n      pop\n      pop\n        /* \"Core/StakingPoolFactory.sol\":665:1131  function createPool(address stoken, address rtoken)... */\n      swap3\n      swap2\n      pop\n      pop\n      jump\t// out\n        /* \"Core/StakingPoolFactory.sol\":562:659  function allPoolsLength() external view returns (uint256) {... */\n    tag_38:\n        /* \"Core/StakingPoolFactory.sol\":611:618  uint256 */\n      0x00\n        /* \"Core/StakingPoolFactory.sol\":637:645  allPools */\n      0x03\n        /* \"Core/StakingPoolFactory.sol\":637:652  allPools.length */\n      dup1\n      sload\n      swap1\n      pop\n        /* \"Core/StakingPoolFactory.sol\":630:652  return allPools.length */\n      swap1\n      pop\n        /* \"Core/StakingPoolFactory.sol\":562:659  function allPoolsLength() external view returns (uint256) {... */\n      swap1\n      jump\t// out\n        /* \"Core/StakingPoolFactory.sol\":1137:1268  function setFeeTo(address _feeTo) external {... */\n    tag_43:\n        /* \"Core/StakingPoolFactory.sol\":1212:1223  feeToSetter */\n      0x01\n      0x00\n      swap1\n      sload\n      swap1\n      0x0100\n      exp\n      swap1\n      div\n      0xffffffffffffffffffffffffffffffffffffffff\n      and\n        /* \"Core/StakingPoolFactory.sol\":1198:1223  msg.sender == feeToSetter */\n      0xffffffffffffffffffffffffffffffffffffffff\n      and\n        /* \"Core/StakingPoolFactory.sol\":1198:1208  msg.sender */\n      caller\n        /* \"Core/StakingPoolFactory.sol\":1198:1223  msg.sender == feeToSetter */\n      0xffffffffffffffffffffffffffffffffffffffff\n      and\n      eq\n        /* \"Core/StakingPoolFactory.sol\":1190:1237  require(msg.sender == feeToSetter, \"FORBIDDEN\") */\n      tag_67\n      jumpi\n      mload(0x40)\n      0x08c379a000000000000000000000000000000000000000000000000000000000\n      dup2\n      mstore\n      0x04\n      add\n      tag_68\n      swap1\n      tag_49\n      jump\t// in\n    tag_68:\n      mload(0x40)\n      dup1\n      swap2\n      sub\n      swap1\n      revert\n    tag_67:\n        /* \"Core/StakingPoolFactory.sol\":1255:1261  _feeTo */\n      dup1\n        /* \"Core/StakingPoolFactory.sol\":1247:1252  feeTo */\n      0x00\n      dup1\n        /* \"Core/StakingPoolFactory.sol\":1247:1261  feeTo = _feeTo */\n      0x0100\n      exp\n      dup2\n      sload\n      dup2\n      0xffffffffffffffffffffffffffffffffffffffff\n      mul\n      not\n      and\n      swap1\n      dup4\n      0xffffffffffffffffffffffffffffffffffffffff\n      and\n      mul\n      or\n      swap1\n      sstore\n      pop\n        /* \"Core/StakingPoolFactory.sol\":1137:1268  function setFeeTo(address _feeTo) external {... */\n      pop\n      jump\t// out\n    tag_58:\n      dataSize(sub_0)\n      dup1\n      dataOffset(sub_0)\n      dup4\n      codecopy\n      add\n      swap1\n      jump\t// out\n        /* \"#utility.yul\":7:133   */\n    tag_69:\n        /* \"#utility.yul\":44:51   */\n      0x00\n        /* \"#utility.yul\":84:126   */\n      0xffffffffffffffffffffffffffffffffffffffff\n        /* \"#utility.yul\":77:82   */\n      dup3\n        /* \"#utility.yul\":73:127   */\n      and\n        /* \"#utility.yul\":62:127   */\n      swap1\n      pop\n        /* \"#utility.yul\":7:133   */\n      swap2\n      swap1\n      pop\n      jump\t// out\n        /* \"#utility.yul\":139:235   */\n    tag_70:\n        /* \"#utility.yul\":176:183   */\n      0x00\n        /* \"#utility.yul\":205:229   */\n      tag_91\n        /* \"#utility.yul\":223:228   */\n      dup3\n        /* \"#utility.yul\":205:229   */\n      tag_69\n      jump\t// in\n    tag_91:\n        /* \"#utility.yul\":194:229   */\n      swap1\n      pop\n        /* \"#utility.yul\":139:235   */\n      swap2\n      swap1\n      pop\n      jump\t// out\n        /* \"#utility.yul\":241:359   */\n    tag_71:\n        /* \"#utility.yul\":328:352   */\n      tag_93\n        /* \"#utility.yul\":346:351   */\n      dup2\n        /* \"#utility.yul\":328:352   */\n      tag_70\n      jump\t// in\n    tag_93:\n        /* \"#utility.yul\":323:326   */\n      dup3\n        /* \"#utility.yul\":316:353   */\n      mstore\n        /* \"#utility.yul\":241:359   */\n      pop\n      pop\n      jump\t// out\n        /* \"#utility.yul\":365:587   */\n    tag_15:\n        /* \"#utility.yul\":458:462   */\n      0x00\n        /* \"#utility.yul\":496:498   */\n      0x20\n        /* \"#utility.yul\":485:494   */\n      dup3\n        /* \"#utility.yul\":481:499   */\n      add\n        /* \"#utility.yul\":473:499   */\n      swap1\n      pop\n        /* \"#utility.yul\":509:580   */\n      tag_95\n        /* \"#utility.yul\":577:578   */\n      0x00\n        /* \"#utility.yul\":566:575   */\n      dup4\n        /* \"#utility.yul\":562:579   */\n      add\n        /* \"#utility.yul\":553:559   */\n      dup5\n        /* \"#utility.yul\":509:580   */\n      tag_71\n      jump\t// in\n    tag_95:\n        /* \"#utility.yul\":365:587   */\n      swap3\n      swap2\n      pop\n      pop\n      jump\t// out\n        /* \"#utility.yul\":674:791   */\n    tag_73:\n        /* \"#utility.yul\":783:784   */\n      0x00\n        /* \"#utility.yul\":780:781   */\n      dup1\n        /* \"#utility.yul\":773:785   */\n      revert\n        /* \"#utility.yul\":920:997   */\n    tag_75:\n        /* \"#utility.yul\":957:964   */\n      0x00\n        /* \"#utility.yul\":986:991   */\n      dup2\n        /* \"#utility.yul\":975:991   */\n      swap1\n      pop\n        /* \"#utility.yul\":920:997   */\n      swap2\n      swap1\n      pop\n      jump\t// out\n        /* \"#utility.yul\":1003:1125   */\n    tag_76:\n        /* \"#utility.yul\":1076:1100   */\n      tag_101\n        /* \"#utility.yul\":1094:1099   */\n      dup2\n        /* \"#utility.yul\":1076:1100   */\n      tag_75\n      jump\t// in\n    tag_101:\n        /* \"#utility.yul\":1069:1074   */\n      dup2\n        /* \"#utility.yul\":1066:1101   */\n      eq\n        /* \"#utility.yul\":1056:1119   */\n      tag_102\n      jumpi\n        /* \"#utility.yul\":1115:1116   */\n      0x00\n        /* \"#utility.yul\":1112:1113   */\n      dup1\n        /* \"#utility.yul\":1105:1117   */\n      revert\n        /* \"#utility.yul\":1056:1119   */\n    tag_102:\n        /* \"#utility.yul\":1003:1125   */\n      pop\n      jump\t// out\n        /* \"#utility.yul\":1131:1270   */\n    tag_77:\n        /* \"#utility.yul\":1177:1182   */\n      0x00\n        /* \"#utility.yul\":1215:1221   */\n      dup2\n        /* \"#utility.yul\":1202:1222   */\n      calldataload\n        /* \"#utility.yul\":1193:1222   */\n      swap1\n      pop\n        /* \"#utility.yul\":1231:1264   */\n      tag_104\n        /* \"#utility.yul\":1258:1263   */\n      dup2\n        /* \"#utility.yul\":1231:1264   */\n      tag_76\n      jump\t// in\n    tag_104:\n        /* \"#utility.yul\":1131:1270   */\n      swap3\n      swap2\n      pop\n      pop\n      jump\t// out\n        /* \"#utility.yul\":1276:1605   */\n    tag_21:\n        /* \"#utility.yul\":1335:1341   */\n      0x00\n        /* \"#utility.yul\":1384:1386   */\n      0x20\n        /* \"#utility.yul\":1372:1381   */\n      dup3\n        /* \"#utility.yul\":1363:1370   */\n      dup5\n        /* \"#utility.yul\":1359:1382   */\n      sub\n        /* \"#utility.yul\":1355:1387   */\n      slt\n        /* \"#utility.yul\":1352:1471   */\n      iszero\n      tag_106\n      jumpi\n        /* \"#utility.yul\":1390:1469   */\n      tag_107\n      tag_73\n      jump\t// in\n    tag_107:\n        /* \"#utility.yul\":1352:1471   */\n    tag_106:\n        /* \"#utility.yul\":1510:1511   */\n      0x00\n        /* \"#utility.yul\":1535:1588   */\n      tag_108\n        /* \"#utility.yul\":1580:1587   */\n      dup5\n        /* \"#utility.yul\":1571:1577   */\n      dup3\n        /* \"#utility.yul\":1560:1569   */\n      dup6\n        /* \"#utility.yul\":1556:1578   */\n      add\n        /* \"#utility.yul\":1535:1588   */\n      tag_77\n      jump\t// in\n    tag_108:\n        /* \"#utility.yul\":1525:1588   */\n      swap2\n      pop\n        /* \"#utility.yul\":1481:1598   */\n      pop\n        /* \"#utility.yul\":1276:1605   */\n      swap3\n      swap2\n      pop\n      pop\n      jump\t// out\n        /* \"#utility.yul\":1611:1733   */\n    tag_78:\n        /* \"#utility.yul\":1684:1708   */\n      tag_110\n        /* \"#utility.yul\":1702:1707   */\n      dup2\n        /* \"#utility.yul\":1684:1708   */\n      tag_70\n      jump\t// in\n    tag_110:\n        /* \"#utility.yul\":1677:1682   */\n      dup2\n        /* \"#utility.yul\":1674:1709   */\n      eq\n        /* \"#utility.yul\":1664:1727   */\n      tag_111\n      jumpi\n        /* \"#utility.yul\":1723:1724   */\n      0x00\n        /* \"#utility.yul\":1720:1721   */\n      dup1\n        /* \"#utility.yul\":1713:1725   */\n      revert\n        /* \"#utility.yul\":1664:1727   */\n    tag_111:\n        /* \"#utility.yul\":1611:1733   */\n      pop\n      jump\t// out\n        /* \"#utility.yul\":1739:1878   */\n    tag_79:\n        /* \"#utility.yul\":1785:1790   */\n      0x00\n        /* \"#utility.yul\":1823:1829   */\n      dup2\n        /* \"#utility.yul\":1810:1830   */\n      calldataload\n        /* \"#utility.yul\":1801:1830   */\n      swap1\n      pop\n        /* \"#utility.yul\":1839:1872   */\n      tag_113\n        /* \"#utility.yul\":1866:1871   */\n      dup2\n        /* \"#utility.yul\":1839:1872   */\n      tag_78\n      jump\t// in\n    tag_113:\n        /* \"#utility.yul\":1739:1878   */\n      swap3\n      swap2\n      pop\n      pop\n      jump\t// out\n        /* \"#utility.yul\":1884:2213   */\n    tag_26:\n        /* \"#utility.yul\":1943:1949   */\n      0x00\n        /* \"#utility.yul\":1992:1994   */\n      0x20\n        /* \"#utility.yul\":1980:1989   */\n      dup3\n        /* \"#utility.yul\":1971:1978   */\n      dup5\n        /* \"#utility.yul\":1967:1990   */\n      sub\n        /* \"#utility.yul\":1963:1995   */\n      slt\n        /* \"#utility.yul\":1960:2079   */\n      iszero\n      tag_115\n      jumpi\n        /* \"#utility.yul\":1998:2077   */\n      tag_116\n      tag_73\n      jump\t// in\n    tag_116:\n        /* \"#utility.yul\":1960:2079   */\n    tag_115:\n        /* \"#utility.yul\":2118:2119   */\n      0x00\n        /* \"#utility.yul\":2143:2196   */\n      tag_117\n        /* \"#utility.yul\":2188:2195   */\n      dup5\n        /* \"#utility.yul\":2179:2185   */\n      dup3\n        /* \"#utility.yul\":2168:2177   */\n      dup6\n        /* \"#utility.yul\":2164:2186   */\n      add\n        /* \"#utility.yul\":2143:2196   */\n      tag_79\n      jump\t// in\n    tag_117:\n        /* \"#utility.yul\":2133:2196   */\n      swap2\n      pop\n        /* \"#utility.yul\":2089:2206   */\n      pop\n        /* \"#utility.yul\":1884:2213   */\n      swap3\n      swap2\n      pop\n      pop\n      jump\t// out\n        /* \"#utility.yul\":2219:2693   */\n    tag_34:\n        /* \"#utility.yul\":2287:2293   */\n      0x00\n        /* \"#utility.yul\":2295:2301   */\n      dup1\n        /* \"#utility.yul\":2344:2346   */\n      0x40\n        /* \"#utility.yul\":2332:2341   */\n      dup4\n        /* \"#utility.yul\":2323:2330   */\n      dup6\n        /* \"#utility.yul\":2319:2342   */\n      sub\n        /* \"#utility.yul\":2315:2347   */\n      slt\n        /* \"#utility.yul\":2312:2431   */\n      iszero\n      tag_119\n      jumpi\n        /* \"#utility.yul\":2350:2429   */\n      tag_120\n      tag_73\n      jump\t// in\n    tag_120:\n        /* \"#utility.yul\":2312:2431   */\n    tag_119:\n        /* \"#utility.yul\":2470:2471   */\n      0x00\n        /* \"#utility.yul\":2495:2548   */\n      tag_121\n        /* \"#utility.yul\":2540:2547   */\n      dup6\n        /* \"#utility.yul\":2531:2537   */\n      dup3\n        /* \"#utility.yul\":2520:2529   */\n      dup7\n        /* \"#utility.yul\":2516:2538   */\n      add\n        /* \"#utility.yul\":2495:2548   */\n      tag_79\n      jump\t// in\n    tag_121:\n        /* \"#utility.yul\":2485:2548   */\n      swap3\n      pop\n        /* \"#utility.yul\":2441:2558   */\n      pop\n        /* \"#utility.yul\":2597:2599   */\n      0x20\n        /* \"#utility.yul\":2623:2676   */\n      tag_122\n        /* \"#utility.yul\":2668:2675   */\n      dup6\n        /* \"#utility.yul\":2659:2665   */\n      dup3\n        /* \"#utility.yul\":2648:2657   */\n      dup7\n        /* \"#utility.yul\":2644:2666   */\n      add\n        /* \"#utility.yul\":2623:2676   */\n      tag_79\n      jump\t// in\n    tag_122:\n        /* \"#utility.yul\":2613:2676   */\n      swap2\n      pop\n        /* \"#utility.yul\":2568:2686   */\n      pop\n        /* \"#utility.yul\":2219:2693   */\n      swap3\n      pop\n      swap3\n      swap1\n      pop\n      jump\t// out\n        /* \"#utility.yul\":2699:2817   */\n    tag_80:\n        /* \"#utility.yul\":2786:2810   */\n      tag_124\n        /* \"#utility.yul\":2804:2809   */\n      dup2\n        /* \"#utility.yul\":2786:2810   */\n      tag_75\n      jump\t// in\n    tag_124:\n        /* \"#utility.yul\":2781:2784   */\n      dup3\n        /* \"#utility.yul\":2774:2811   */\n      mstore\n        /* \"#utility.yul\":2699:2817   */\n      pop\n      pop\n      jump\t// out\n        /* \"#utility.yul\":2823:3045   */\n    tag_40:\n        /* \"#utility.yul\":2916:2920   */\n      0x00\n        /* \"#utility.yul\":2954:2956   */\n      0x20\n        /* \"#utility.yul\":2943:2952   */\n      dup3\n        /* \"#utility.yul\":2939:2957   */\n      add\n        /* \"#utility.yul\":2931:2957   */\n      swap1\n      pop\n        /* \"#utility.yul\":2967:3038   */\n      tag_126\n        /* \"#utility.yul\":3035:3036   */\n      0x00\n        /* \"#utility.yul\":3024:3033   */\n      dup4\n        /* \"#utility.yul\":3020:3037   */\n      add\n        /* \"#utility.yul\":3011:3017   */\n      dup5\n        /* \"#utility.yul\":2967:3038   */\n      tag_80\n      jump\t// in\n    tag_126:\n        /* \"#utility.yul\":2823:3045   */\n      swap3\n      swap2\n      pop\n      pop\n      jump\t// out\n        /* \"#utility.yul\":3051:3220   */\n    tag_81:\n        /* \"#utility.yul\":3135:3146   */\n      0x00\n        /* \"#utility.yul\":3169:3175   */\n      dup3\n        /* \"#utility.yul\":3164:3167   */\n      dup3\n        /* \"#utility.yul\":3157:3176   */\n      mstore\n        /* \"#utility.yul\":3209:3213   */\n      0x20\n        /* \"#utility.yul\":3204:3207   */\n      dup3\n        /* \"#utility.yul\":3200:3214   */\n      add\n        /* \"#utility.yul\":3185:3214   */\n      swap1\n      pop\n        /* \"#utility.yul\":3051:3220   */\n      swap3\n      swap2\n      pop\n      pop\n      jump\t// out\n        /* \"#utility.yul\":3226:3385   */\n    tag_82:\n        /* \"#utility.yul\":3366:3377   */\n      0x464f5242494444454e0000000000000000000000000000000000000000000000\n        /* \"#utility.yul\":3362:3363   */\n      0x00\n        /* \"#utility.yul\":3354:3360   */\n      dup3\n        /* \"#utility.yul\":3350:3364   */\n      add\n        /* \"#utility.yul\":3343:3378   */\n      mstore\n        /* \"#utility.yul\":3226:3385   */\n      pop\n      jump\t// out\n        /* \"#utility.yul\":3391:3756   */\n    tag_83:\n        /* \"#utility.yul\":3533:3536   */\n      0x00\n        /* \"#utility.yul\":3554:3620   */\n      tag_130\n        /* \"#utility.yul\":3618:3619   */\n      0x09\n        /* \"#utility.yul\":3613:3616   */\n      dup4\n        /* \"#utility.yul\":3554:3620   */\n      tag_81\n      jump\t// in\n    tag_130:\n        /* \"#utility.yul\":3547:3620   */\n      swap2\n      pop\n        /* \"#utility.yul\":3629:3722   */\n      tag_131\n        /* \"#utility.yul\":3718:3721   */\n      dup3\n        /* \"#utility.yul\":3629:3722   */\n      tag_82\n      jump\t// in\n    tag_131:\n        /* \"#utility.yul\":3747:3749   */\n      0x20\n        /* \"#utility.yul\":3742:3745   */\n      dup3\n        /* \"#utility.yul\":3738:3750   */\n      add\n        /* \"#utility.yul\":3731:3750   */\n      swap1\n      pop\n        /* \"#utility.yul\":3391:3756   */\n      swap2\n      swap1\n      pop\n      jump\t// out\n        /* \"#utility.yul\":3762:4181   */\n    tag_49:\n        /* \"#utility.yul\":3928:3932   */\n      0x00\n        /* \"#utility.yul\":3966:3968   */\n      0x20\n        /* \"#utility.yul\":3955:3964   */\n      dup3\n        /* \"#utility.yul\":3951:3969   */\n      add\n        /* \"#utility.yul\":3943:3969   */\n      swap1\n      pop\n        /* \"#utility.yul\":4015:4024   */\n      dup2\n        /* \"#utility.yul\":4009:4013   */\n      dup2\n        /* \"#utility.yul\":4005:4025   */\n      sub\n        /* \"#utility.yul\":4001:4002   */\n      0x00\n        /* \"#utility.yul\":3990:3999   */\n      dup4\n        /* \"#utility.yul\":3986:4003   */\n      add\n        /* \"#utility.yul\":3979:4026   */\n      mstore\n        /* \"#utility.yul\":4043:4174   */\n      tag_133\n        /* \"#utility.yul\":4169:4173   */\n      dup2\n        /* \"#utility.yul\":4043:4174   */\n      tag_83\n      jump\t// in\n    tag_133:\n        /* \"#utility.yul\":4035:4174   */\n      swap1\n      pop\n        /* \"#utility.yul\":3762:4181   */\n      swap2\n      swap1\n      pop\n      jump\t// out\n        /* \"#utility.yul\":4187:4349   */\n    tag_84:\n        /* \"#utility.yul\":4327:4341   */\n      0x5a45524f5f414444524553530000000000000000000000000000000000000000\n        /* \"#utility.yul\":4323:4324   */\n      0x00\n        /* \"#utility.yul\":4315:4321   */\n      dup3\n        /* \"#utility.yul\":4311:4325   */\n      add\n        /* \"#utility.yul\":4304:4342   */\n      mstore\n        /* \"#utility.yul\":4187:4349   */\n      pop\n      jump\t// out\n        /* \"#utility.yul\":4355:4721   */\n    tag_85:\n        /* \"#utility.yul\":4497:4500   */\n      0x00\n        /* \"#utility.yul\":4518:4585   */\n      tag_136\n        /* \"#utility.yul\":4582:4584   */\n      0x0c\n        /* \"#utility.yul\":4577:4580   */\n      dup4\n        /* \"#utility.yul\":4518:4585   */\n      tag_81\n      jump\t// in\n    tag_136:\n        /* \"#utility.yul\":4511:4585   */\n      swap2\n      pop\n        /* \"#utility.yul\":4594:4687   */\n      tag_137\n        /* \"#utility.yul\":4683:4686   */\n      dup3\n        /* \"#utility.yul\":4594:4687   */\n      tag_84\n      jump\t// in\n    tag_137:\n        /* \"#utility.yul\":4712:4714   */\n      0x20\n        /* \"#utility.yul\":4707:4710   */\n      dup3\n        /* \"#utility.yul\":4703:4715   */\n      add\n        /* \"#utility.yul\":4696:4715   */\n      swap1\n      pop\n        /* \"#utility.yul\":4355:4721   */\n      swap2\n      swap1\n      pop\n      jump\t// out\n        /* \"#utility.yul\":4727:5146   */\n    tag_53:\n        /* \"#utility.yul\":4893:4897   */\n      0x00\n        /* \"#utility.yul\":4931:4933   */\n      0x20\n        /* \"#utility.yul\":4920:4929   */\n      dup3\n        /* \"#utility.yul\":4916:4934   */\n      add\n        /* \"#utility.yul\":4908:4934   */\n      swap1\n      pop\n        /* \"#utility.yul\":4980:4989   */\n      dup2\n        /* \"#utility.yul\":4974:4978   */\n      dup2\n        /* \"#utility.yul\":4970:4990   */\n      sub\n        /* \"#utility.yul\":4966:4967   */\n      0x00\n        /* \"#utility.yul\":4955:4964   */\n      dup4\n        /* \"#utility.yul\":4951:4968   */\n      add\n        /* \"#utility.yul\":4944:4991   */\n      mstore\n        /* \"#utility.yul\":5008:5139   */\n      tag_139\n        /* \"#utility.yul\":5134:5138   */\n      dup2\n        /* \"#utility.yul\":5008:5139   */\n      tag_85\n      jump\t// in\n    tag_139:\n        /* \"#utility.yul\":5000:5139   */\n      swap1\n      pop\n        /* \"#utility.yul\":4727:5146   */\n      swap2\n      swap1\n      pop\n      jump\t// out\n        /* \"#utility.yul\":5152:5313   */\n    tag_86:\n        /* \"#utility.yul\":5292:5305   */\n      0x504149525f455849535453000000000000000000000000000000000000000000\n        /* \"#utility.yul\":5288:5289   */\n      0x00\n        /* \"#utility.yul\":5280:5286   */\n      dup3\n        /* \"#utility.yul\":5276:5290   */\n      add\n        /* \"#utility.yul\":5269:5306   */\n      mstore\n        /* \"#utility.yul\":5152:5313   */\n      pop\n      jump\t// out\n        /* \"#utility.yul\":5319:5685   */\n    tag_87:\n        /* \"#utility.yul\":5461:5464   */\n      0x00\n        /* \"#utility.yul\":5482:5549   */\n      tag_142\n        /* \"#utility.yul\":5546:5548   */\n      0x0b\n        /* \"#utility.yul\":5541:5544   */\n      dup4\n        /* \"#utility.yul\":5482:5549   */\n      tag_81\n      jump\t// in\n    tag_142:\n        /* \"#utility.yul\":5475:5549   */\n      swap2\n      pop\n        /* \"#utility.yul\":5558:5651   */\n      tag_143\n        /* \"#utility.yul\":5647:5650   */\n      dup3\n        /* \"#utility.yul\":5558:5651   */\n      tag_86\n      jump\t// in\n    tag_143:\n        /* \"#utility.yul\":5676:5678   */\n      0x20\n        /* \"#utility.yul\":5671:5674   */\n      dup3\n        /* \"#utility.yul\":5667:5679   */\n      add\n        /* \"#utility.yul\":5660:5679   */\n      swap1\n      pop\n        /* \"#utility.yul\":5319:5685   */\n      swap2\n      swap1\n      pop\n      jump\t// out\n        /* \"#utility.yul\":5691:6110   */\n    tag_56:\n        /* \"#utility.yul\":5857:5861   */\n      0x00\n        /* \"#utility.yul\":5895:5897   */\n      0x20\n        /* \"#utility.yul\":5884:5893   */\n      dup3\n        /* \"#utility.yul\":5880:5898   */\n      add\n        /* \"#utility.yul\":5872:5898   */\n      swap1\n      pop\n        /* \"#utility.yul\":5944:5953   */\n      dup2\n        /* \"#utility.yul\":5938:5942   */\n      dup2\n        /* \"#utility.yul\":5934:5954   */\n      sub\n        /* \"#utility.yul\":5930:5931   */\n      0x00\n        /* \"#utility.yul\":5919:5928   */\n      dup4\n        /* \"#utility.yul\":5915:5932   */\n      add\n        /* \"#utility.yul\":5908:5955   */\n      mstore\n        /* \"#utility.yul\":5972:6103   */\n      tag_145\n        /* \"#utility.yul\":6098:6102   */\n      dup2\n        /* \"#utility.yul\":5972:6103   */\n      tag_87\n      jump\t// in\n    tag_145:\n        /* \"#utility.yul\":5964:6103   */\n      swap1\n      pop\n        /* \"#utility.yul\":5691:6110   */\n      swap2\n      swap1\n      pop\n      jump\t// out\n        /* \"#utility.yul\":6116:6448   */\n    tag_60:\n        /* \"#utility.yul\":6237:6241   */\n      0x00\n        /* \"#utility.yul\":6275:6277   */\n      0x40\n        /* \"#utility.yul\":6264:6273   */\n      dup3\n        /* \"#utility.yul\":6260:6278   */\n      add\n        /* \"#utility.yul\":6252:6278   */\n      swap1\n      pop\n        /* \"#utility.yul\":6288:6359   */\n      tag_147\n        /* \"#utility.yul\":6356:6357   */\n      0x00\n        /* \"#utility.yul\":6345:6354   */\n      dup4\n        /* \"#utility.yul\":6341:6358   */\n      add\n        /* \"#utility.yul\":6332:6338   */\n      dup6\n        /* \"#utility.yul\":6288:6359   */\n      tag_71\n      jump\t// in\n    tag_147:\n        /* \"#utility.yul\":6369:6441   */\n      tag_148\n        /* \"#utility.yul\":6437:6439   */\n      0x20\n        /* \"#utility.yul\":6426:6435   */\n      dup4\n        /* \"#utility.yul\":6422:6440   */\n      add\n        /* \"#utility.yul\":6413:6419   */\n      dup5\n        /* \"#utility.yul\":6369:6441   */\n      tag_71\n      jump\t// in\n    tag_148:\n        /* \"#utility.yul\":6116:6448   */\n      swap4\n      swap3\n      pop\n      pop\n      pop\n      jump\t// out\n        /* \"#utility.yul\":6454:6786   */\n    tag_64:\n        /* \"#utility.yul\":6575:6579   */\n      0x00\n        /* \"#utility.yul\":6613:6615   */\n      0x40\n        /* \"#utility.yul\":6602:6611   */\n      dup3\n        /* \"#utility.yul\":6598:6616   */\n      add\n        /* \"#utility.yul\":6590:6616   */\n      swap1\n      pop\n        /* \"#utility.yul\":6626:6697   */\n      tag_150\n        /* \"#utility.yul\":6694:6695   */\n      0x00\n        /* \"#utility.yul\":6683:6692   */\n      dup4\n        /* \"#utility.yul\":6679:6696   */\n      add\n        /* \"#utility.yul\":6670:6676   */\n      dup6\n        /* \"#utility.yul\":6626:6697   */\n      tag_71\n      jump\t// in\n    tag_150:\n        /* \"#utility.yul\":6707:6779   */\n      tag_151\n        /* \"#utility.yul\":6775:6777   */\n      0x20\n        /* \"#utility.yul\":6764:6773   */\n      dup4\n        /* \"#utility.yul\":6760:6778   */\n      add\n        /* \"#utility.yul\":6751:6757   */\n      dup5\n        /* \"#utility.yul\":6707:6779   */\n      tag_80\n      jump\t// in\n    tag_151:\n        /* \"#utility.yul\":6454:6786   */\n      swap4\n      swap3\n      pop\n      pop\n      pop\n      jump\t// out\n    stop\n\n    sub_0: assembly {\n            /* \"Core/StakingPool.sol\":286:3407  contract StakingPool {... */\n          mstore(0x40, 0x80)\n            /* \"Core/StakingPool.sol\":483:486  100 */\n          0x64\n            /* \"Core/StakingPool.sol\":455:486  uint256 public rewardRate = 100 */\n          0x02\n          sstore\n            /* \"Core/StakingPool.sol\":950:1107  constructor(address _stakingToken, address _rewardsToken) {... */\n          callvalue\n          dup1\n          iszero\n          tag_1\n          jumpi\n          0x00\n          dup1\n          revert\n        tag_1:\n          pop\n          mload(0x40)\n          sub(codesize, bytecodeSize)\n          dup1\n          bytecodeSize\n          dup4\n          codecopy\n          dup2\n          dup2\n          add\n          0x40\n          mstore\n          dup2\n          add\n          swap1\n          tag_2\n          swap2\n          swap1\n          tag_3\n          jump\t// in\n        tag_2:\n            /* \"Core/StakingPool.sol\":1040:1053  _stakingToken */\n          dup2\n            /* \"Core/StakingPool.sol\":1018:1030  stakingToken */\n          0x01\n          0x00\n            /* \"Core/StakingPool.sol\":1018:1054  stakingToken = IERC20(_stakingToken) */\n          0x0100\n          exp\n          dup2\n          sload\n          dup2\n          0xffffffffffffffffffffffffffffffffffffffff\n          mul\n          not\n          and\n          swap1\n          dup4\n          0xffffffffffffffffffffffffffffffffffffffff\n          and\n          mul\n          or\n          swap1\n          sstore\n          pop\n            /* \"Core/StakingPool.sol\":1086:1099  _rewardsToken */\n          dup1\n            /* \"Core/StakingPool.sol\":1064:1076  rewardsToken */\n          0x00\n          dup1\n            /* \"Core/StakingPool.sol\":1064:1100  rewardsToken = IERC20(_rewardsToken) */\n          0x0100\n          exp\n          dup2\n          sload\n          dup2\n          0xffffffffffffffffffffffffffffffffffffffff\n          mul\n          not\n          and\n          swap1\n          dup4\n          0xffffffffffffffffffffffffffffffffffffffff\n          and\n          mul\n          or\n          swap1\n          sstore\n          pop\n            /* \"Core/StakingPool.sol\":950:1107  constructor(address _stakingToken, address _rewardsToken) {... */\n          pop\n          pop\n            /* \"Core/StakingPool.sol\":286:3407  contract StakingPool {... */\n          jump(tag_6)\n            /* \"#utility.yul\":88:205   */\n        tag_8:\n            /* \"#utility.yul\":197:198   */\n          0x00\n            /* \"#utility.yul\":194:195   */\n          dup1\n            /* \"#utility.yul\":187:199   */\n          revert\n            /* \"#utility.yul\":334:460   */\n        tag_10:\n            /* \"#utility.yul\":371:378   */\n          0x00\n            /* \"#utility.yul\":411:453   */\n          0xffffffffffffffffffffffffffffffffffffffff\n            /* \"#utility.yul\":404:409   */\n          dup3\n            /* \"#utility.yul\":400:454   */\n          and\n            /* \"#utility.yul\":389:454   */\n          swap1\n          pop\n            /* \"#utility.yul\":334:460   */\n          swap2\n          swap1\n          pop\n          jump\t// out\n            /* \"#utility.yul\":466:562   */\n        tag_11:\n            /* \"#utility.yul\":503:510   */\n          0x00\n            /* \"#utility.yul\":532:556   */\n          tag_20\n            /* \"#utility.yul\":550:555   */\n          dup3\n            /* \"#utility.yul\":532:556   */\n          tag_10\n          jump\t// in\n        tag_20:\n            /* \"#utility.yul\":521:556   */\n          swap1\n          pop\n            /* \"#utility.yul\":466:562   */\n          swap2\n          swap1\n          pop\n          jump\t// out\n            /* \"#utility.yul\":568:690   */\n        tag_12:\n            /* \"#utility.yul\":641:665   */\n          tag_22\n            /* \"#utility.yul\":659:664   */\n          dup2\n            /* \"#utility.yul\":641:665   */\n          tag_11\n          jump\t// in\n        tag_22:\n            /* \"#utility.yul\":634:639   */\n          dup2\n            /* \"#utility.yul\":631:666   */\n          eq\n            /* \"#utility.yul\":621:684   */\n          tag_23\n          jumpi\n            /* \"#utility.yul\":680:681   */\n          0x00\n            /* \"#utility.yul\":677:678   */\n          dup1\n            /* \"#utility.yul\":670:682   */\n          revert\n            /* \"#utility.yul\":621:684   */\n        tag_23:\n            /* \"#utility.yul\":568:690   */\n          pop\n          jump\t// out\n            /* \"#utility.yul\":696:839   */\n        tag_13:\n            /* \"#utility.yul\":753:758   */\n          0x00\n            /* \"#utility.yul\":784:790   */\n          dup2\n            /* \"#utility.yul\":778:791   */\n          mload\n            /* \"#utility.yul\":769:791   */\n          swap1\n          pop\n            /* \"#utility.yul\":800:833   */\n          tag_25\n            /* \"#utility.yul\":827:832   */\n          dup2\n            /* \"#utility.yul\":800:833   */\n          tag_12\n          jump\t// in\n        tag_25:\n            /* \"#utility.yul\":696:839   */\n          swap3\n          swap2\n          pop\n          pop\n          jump\t// out\n            /* \"#utility.yul\":845:1352   */\n        tag_3:\n            /* \"#utility.yul\":924:930   */\n          0x00\n            /* \"#utility.yul\":932:938   */\n          dup1\n            /* \"#utility.yul\":981:983   */\n          0x40\n            /* \"#utility.yul\":969:978   */\n          dup4\n            /* \"#utility.yul\":960:967   */\n          dup6\n            /* \"#utility.yul\":956:979   */\n          sub\n            /* \"#utility.yul\":952:984   */\n          slt\n            /* \"#utility.yul\":949:1068   */\n          iszero\n          tag_27\n          jumpi\n            /* \"#utility.yul\":987:1066   */\n          tag_28\n          tag_8\n          jump\t// in\n        tag_28:\n            /* \"#utility.yul\":949:1068   */\n        tag_27:\n            /* \"#utility.yul\":1107:1108   */\n          0x00\n            /* \"#utility.yul\":1132:1196   */\n          tag_29\n            /* \"#utility.yul\":1188:1195   */\n          dup6\n            /* \"#utility.yul\":1179:1185   */\n          dup3\n            /* \"#utility.yul\":1168:1177   */\n          dup7\n            /* \"#utility.yul\":1164:1186   */\n          add\n            /* \"#utility.yul\":1132:1196   */\n          tag_13\n          jump\t// in\n        tag_29:\n            /* \"#utility.yul\":1122:1196   */\n          swap3\n          pop\n            /* \"#utility.yul\":1078:1206   */\n          pop\n            /* \"#utility.yul\":1245:1247   */\n          0x20\n            /* \"#utility.yul\":1271:1335   */\n          tag_30\n            /* \"#utility.yul\":1327:1334   */\n          dup6\n            /* \"#utility.yul\":1318:1324   */\n          dup3\n            /* \"#utility.yul\":1307:1316   */\n          dup7\n            /* \"#utility.yul\":1303:1325   */\n          add\n            /* \"#utility.yul\":1271:1335   */\n          tag_13\n          jump\t// in\n        tag_30:\n            /* \"#utility.yul\":1261:1335   */\n          swap2\n          pop\n            /* \"#utility.yul\":1216:1345   */\n          pop\n            /* \"#utility.yul\":845:1352   */\n          swap3\n          pop\n          swap3\n          swap1\n          pop\n          jump\t// out\n            /* \"Core/StakingPool.sol\":286:3407  contract StakingPool {... */\n        tag_6:\n          dataSize(sub_0)\n          dup1\n          dataOffset(sub_0)\n          0x00\n          codecopy\n          0x00\n          return\n        stop\n\n        sub_0: assembly {\n                /* \"Core/StakingPool.sol\":286:3407  contract StakingPool {... */\n              mstore(0x40, 0x80)\n              callvalue\n              dup1\n              iszero\n              tag_1\n              jumpi\n              0x00\n              dup1\n              revert\n            tag_1:\n              pop\n              jumpi(tag_2, lt(calldatasize, 0x04))\n              shr(0xe0, calldataload(0x00))\n              dup1\n              0x95d7885b\n              gt\n              tag_16\n              jumpi\n              dup1\n              0xcd3daf9d\n              gt\n              tag_17\n              jumpi\n              dup1\n              0xcd3daf9d\n              eq\n              tag_12\n              jumpi\n              dup1\n              0xd1af0c7d\n              eq\n              tag_13\n              jumpi\n              dup1\n              0xd5276246\n              eq\n              tag_14\n              jumpi\n              dup1\n              0xdf136d65\n              eq\n              tag_15\n              jumpi\n              jump(tag_2)\n            tag_17:\n              dup1\n              0x95d7885b\n              eq\n              tag_9\n              jumpi\n              dup1\n              0xa694fc3a\n              eq\n              tag_10\n              jumpi\n              dup1\n              0xc8f33c91\n              eq\n              tag_11\n              jumpi\n              jump(tag_2)\n            tag_16:\n              dup1\n              0x8cc262\n              eq\n              tag_3\n              jumpi\n              dup1\n              0x0700037d\n              eq\n              tag_4\n              jumpi\n              dup1\n              0x2e1a7d4d\n              eq\n              tag_5\n              jumpi\n              dup1\n              0x3eaaf86b\n              eq\n              tag_6\n              jumpi\n              dup1\n              0x72f702f3\n              eq\n              tag_7\n              jumpi\n              dup1\n              0x7b0a47ee\n              eq\n              tag_8\n              jumpi\n            tag_2:\n              0x00\n              dup1\n              revert\n                /* \"Core/StakingPool.sol\":1734:2065  function earned(address account) public view returns (uint256) {... */\n            tag_3:\n              tag_18\n              0x04\n              dup1\n              calldatasize\n              sub\n              dup2\n              add\n              swap1\n              tag_19\n              swap2\n              swap1\n              tag_20\n              jump\t// in\n            tag_19:\n              tag_21\n              jump\t// in\n            tag_18:\n              mload(0x40)\n              tag_22\n              swap2\n              swap1\n              tag_23\n              jump\t// in\n            tag_22:\n              mload(0x40)\n              dup1\n              swap2\n              sub\n              swap1\n              return\n                /* \"Core/StakingPool.sol\":615:657  mapping(address => uint256) public rewards */\n            tag_4:\n              tag_24\n              0x04\n              dup1\n              calldatasize\n              sub\n              dup2\n              add\n              swap1\n              tag_25\n              swap2\n              swap1\n              tag_20\n              jump\t// in\n            tag_25:\n              tag_26\n              jump\t// in\n            tag_24:\n              mload(0x40)\n              tag_27\n              swap2\n              swap1\n              tag_23\n              jump\t// in\n            tag_27:\n              mload(0x40)\n              dup1\n              swap2\n              sub\n              swap1\n              return\n                /* \"Core/StakingPool.sol\":2962:3162  function withdraw(uint256 _amount) external updateReward(msg.sender) {... */\n            tag_5:\n              tag_28\n              0x04\n              dup1\n              calldatasize\n              sub\n              dup2\n              add\n              swap1\n              tag_29\n              swap2\n              swap1\n              tag_30\n              jump\t// in\n            tag_29:\n              tag_31\n              jump\t// in\n            tag_28:\n              stop\n                /* \"Core/StakingPool.sol\":916:943  uint256 public _totalSupply */\n            tag_6:\n              tag_32\n              tag_33\n              jump\t// in\n            tag_32:\n              mload(0x40)\n              tag_34\n              swap2\n              swap1\n              tag_23\n              jump\t// in\n            tag_34:\n              mload(0x40)\n              dup1\n              swap2\n              sub\n              swap1\n              return\n                /* \"Core/StakingPool.sol\":370:396  IERC20 public stakingToken */\n            tag_7:\n              tag_35\n              tag_36\n              jump\t// in\n            tag_35:\n              mload(0x40)\n              tag_37\n              swap2\n              swap1\n              tag_38\n              jump\t// in\n            tag_37:\n              mload(0x40)\n              dup1\n              swap2\n              sub\n              swap1\n              return\n                /* \"Core/StakingPool.sol\":455:486  uint256 public rewardRate = 100 */\n            tag_8:\n              tag_39\n              tag_40\n              jump\t// in\n            tag_39:\n              mload(0x40)\n              tag_41\n              swap2\n              swap1\n              tag_23\n              jump\t// in\n            tag_41:\n              mload(0x40)\n              dup1\n              swap2\n              sub\n              swap1\n              return\n                /* \"Core/StakingPool.sol\":710:764  mapping(address => uint256) public rewardsPerTokenPaid */\n            tag_9:\n              tag_42\n              0x04\n              dup1\n              calldatasize\n              sub\n              dup2\n              add\n              swap1\n              tag_43\n              swap2\n              swap1\n              tag_20\n              jump\t// in\n            tag_43:\n              tag_44\n              jump\t// in\n            tag_42:\n              mload(0x40)\n              tag_45\n              swap2\n              swap1\n              tag_23\n              jump\t// in\n            tag_45:\n              mload(0x40)\n              dup1\n              swap2\n              sub\n              swap1\n              return\n                /* \"Core/StakingPool.sol\":2649:2865  function stake(uint256 _amount) external updateReward(msg.sender) {... */\n            tag_10:\n              tag_46\n              0x04\n              dup1\n              calldatasize\n              sub\n              dup2\n              add\n              swap1\n              tag_47\n              swap2\n              swap1\n              tag_30\n              jump\t// in\n            tag_47:\n              tag_48\n              jump\t// in\n            tag_46:\n              stop\n                /* \"Core/StakingPool.sol\":492:521  uint256 public lastUpdateTime */\n            tag_11:\n              tag_49\n              tag_50\n              jump\t// in\n            tag_49:\n              mload(0x40)\n              tag_51\n              swap2\n              swap1\n              tag_23\n              jump\t// in\n            tag_51:\n              mload(0x40)\n              dup1\n              swap2\n              sub\n              swap1\n              return\n                /* \"Core/StakingPool.sol\":1253:1553  function rewardPerToken() public view returns (uint256) {... */\n            tag_12:\n              tag_52\n              tag_53\n              jump\t// in\n            tag_52:\n              mload(0x40)\n              tag_54\n              swap2\n              swap1\n              tag_23\n              jump\t// in\n            tag_54:\n              mload(0x40)\n              dup1\n              swap2\n              sub\n              swap1\n              return\n                /* \"Core/StakingPool.sol\":338:364  IERC20 public rewardsToken */\n            tag_13:\n              tag_55\n              tag_56\n              jump\t// in\n            tag_55:\n              mload(0x40)\n              tag_57\n              swap2\n              swap1\n              tag_38\n              jump\t// in\n            tag_57:\n              mload(0x40)\n              dup1\n              swap2\n              sub\n              swap1\n              return\n                /* \"Core/StakingPool.sol\":3210:3405  function reedemReward() external updateReward(msg.sender) {... */\n            tag_14:\n              tag_58\n              tag_59\n              jump\t// in\n            tag_58:\n              stop\n                /* \"Core/StakingPool.sol\":527:562  uint256 public rewardPerTokenStored */\n            tag_15:\n              tag_60\n              tag_61\n              jump\t// in\n            tag_60:\n              mload(0x40)\n              tag_62\n              swap2\n              swap1\n              tag_23\n              jump\t// in\n            tag_62:\n              mload(0x40)\n              dup1\n              swap2\n              sub\n              swap1\n              return\n                /* \"Core/StakingPool.sol\":1734:2065  function earned(address account) public view returns (uint256) {... */\n            tag_21:\n                /* \"Core/StakingPool.sol\":1788:1795  uint256 */\n              0x00\n                /* \"Core/StakingPool.sol\":2042:2049  rewards */\n              0x05\n                /* \"Core/StakingPool.sol\":2042:2058  rewards[account] */\n              0x00\n                /* \"Core/StakingPool.sol\":2050:2057  account */\n              dup4\n                /* \"Core/StakingPool.sol\":2042:2058  rewards[account] */\n              0xffffffffffffffffffffffffffffffffffffffff\n              and\n              0xffffffffffffffffffffffffffffffffffffffff\n              and\n              dup2\n              mstore\n              0x20\n              add\n              swap1\n              dup2\n              mstore\n              0x20\n              add\n              0x00\n              keccak256\n              sload\n                /* \"Core/StakingPool.sol\":2022:2026  1e18 */\n              0x0de0b6b3a7640000\n                /* \"Core/StakingPool.sol\":1989:2008  rewardsPerTokenPaid */\n              0x06\n                /* \"Core/StakingPool.sol\":1989:2017  rewardsPerTokenPaid[account] */\n              0x00\n                /* \"Core/StakingPool.sol\":2009:2016  account */\n              dup6\n                /* \"Core/StakingPool.sol\":1989:2017  rewardsPerTokenPaid[account] */\n              0xffffffffffffffffffffffffffffffffffffffff\n              and\n              0xffffffffffffffffffffffffffffffffffffffff\n              and\n              dup2\n              mstore\n              0x20\n              add\n              swap1\n              dup2\n              mstore\n              0x20\n              add\n              0x00\n              keccak256\n              sload\n                /* \"Core/StakingPool.sol\":1970:1986  rewardPerToken() */\n              tag_64\n                /* \"Core/StakingPool.sol\":1970:1984  rewardPerToken */\n              tag_53\n                /* \"Core/StakingPool.sol\":1970:1986  rewardPerToken() */\n              jump\t// in\n            tag_64:\n                /* \"Core/StakingPool.sol\":1970:2017  rewardPerToken() - rewardsPerTokenPaid[account] */\n              tag_65\n              swap2\n              swap1\n              tag_66\n              jump\t// in\n            tag_65:\n                /* \"Core/StakingPool.sol\":1935:1941  staked */\n              0x07\n                /* \"Core/StakingPool.sol\":1935:1950  staked[account] */\n              0x00\n                /* \"Core/StakingPool.sol\":1942:1949  account */\n              dup7\n                /* \"Core/StakingPool.sol\":1935:1950  staked[account] */\n              0xffffffffffffffffffffffffffffffffffffffff\n              and\n              0xffffffffffffffffffffffffffffffffffffffff\n              and\n              dup2\n              mstore\n              0x20\n              add\n              swap1\n              dup2\n              mstore\n              0x20\n              add\n              0x00\n              keccak256\n              sload\n                /* \"Core/StakingPool.sol\":1935:2018  staked[account] *... */\n              tag_67\n              swap2\n              swap1\n              tag_68\n              jump\t// in\n            tag_67:\n                /* \"Core/StakingPool.sol\":1934:2026  (staked[account] *... */\n              tag_69\n              swap2\n              swap1\n              tag_70\n              jump\t// in\n            tag_69:\n                /* \"Core/StakingPool.sol\":1933:2058  ((staked[account] *... */\n              tag_71\n              swap2\n              swap1\n              tag_72\n              jump\t// in\n            tag_71:\n                /* \"Core/StakingPool.sol\":1914:2058  return... */\n              swap1\n              pop\n                /* \"Core/StakingPool.sol\":1734:2065  function earned(address account) public view returns (uint256) {... */\n              swap2\n              swap1\n              pop\n              jump\t// out\n                /* \"Core/StakingPool.sol\":615:657  mapping(address => uint256) public rewards */\n            tag_26:\n              mstore(0x20, 0x05)\n              dup1\n              0x00\n              mstore\n              keccak256(0x00, 0x40)\n              0x00\n              swap2\n              pop\n              swap1\n              pop\n              sload\n              dup2\n              jump\t// out\n                /* \"Core/StakingPool.sol\":2962:3162  function withdraw(uint256 _amount) external updateReward(msg.sender) {... */\n            tag_31:\n                /* \"Core/StakingPool.sol\":3019:3029  msg.sender */\n              caller\n                /* \"Core/StakingPool.sol\":2256:2272  rewardPerToken() */\n              tag_74\n                /* \"Core/StakingPool.sol\":2256:2270  rewardPerToken */\n              tag_53\n                /* \"Core/StakingPool.sol\":2256:2272  rewardPerToken() */\n              jump\t// in\n            tag_74:\n                /* \"Core/StakingPool.sol\":2233:2253  rewardPerTokenStored */\n              0x04\n                /* \"Core/StakingPool.sol\":2233:2272  rewardPerTokenStored = rewardPerToken() */\n              dup2\n              swap1\n              sstore\n              pop\n                /* \"Core/StakingPool.sol\":2299:2314  block.timestamp */\n              timestamp\n                /* \"Core/StakingPool.sol\":2282:2296  lastUpdateTime */\n              0x03\n                /* \"Core/StakingPool.sol\":2282:2314  lastUpdateTime = block.timestamp */\n              dup2\n              swap1\n              sstore\n              pop\n                /* \"Core/StakingPool.sol\":2401:2416  earned(account) */\n              tag_75\n                /* \"Core/StakingPool.sol\":2408:2415  account */\n              dup2\n                /* \"Core/StakingPool.sol\":2401:2407  earned */\n              tag_21\n                /* \"Core/StakingPool.sol\":2401:2416  earned(account) */\n              jump\t// in\n            tag_75:\n                /* \"Core/StakingPool.sol\":2382:2389  rewards */\n              0x05\n                /* \"Core/StakingPool.sol\":2382:2398  rewards[account] */\n              0x00\n                /* \"Core/StakingPool.sol\":2390:2397  account */\n              dup4\n                /* \"Core/StakingPool.sol\":2382:2398  rewards[account] */\n              0xffffffffffffffffffffffffffffffffffffffff\n              and\n              0xffffffffffffffffffffffffffffffffffffffff\n              and\n              dup2\n              mstore\n              0x20\n              add\n              swap1\n              dup2\n              mstore\n              0x20\n              add\n              0x00\n              keccak256\n                /* \"Core/StakingPool.sol\":2382:2416  rewards[account] = earned(account) */\n              dup2\n              swap1\n              sstore\n              pop\n                /* \"Core/StakingPool.sol\":2516:2536  rewardPerTokenStored */\n              sload(0x04)\n                /* \"Core/StakingPool.sol\":2485:2504  rewardsPerTokenPaid */\n              0x06\n                /* \"Core/StakingPool.sol\":2485:2513  rewardsPerTokenPaid[account] */\n              0x00\n                /* \"Core/StakingPool.sol\":2505:2512  account */\n              dup4\n                /* \"Core/StakingPool.sol\":2485:2513  rewardsPerTokenPaid[account] */\n              0xffffffffffffffffffffffffffffffffffffffff\n              and\n              0xffffffffffffffffffffffffffffffffffffffff\n              and\n              dup2\n              mstore\n              0x20\n              add\n              swap1\n              dup2\n              mstore\n              0x20\n              add\n              0x00\n              keccak256\n                /* \"Core/StakingPool.sol\":2485:2536  rewardsPerTokenPaid[account] = rewardPerTokenStored */\n              dup2\n              swap1\n              sstore\n              pop\n                /* \"Core/StakingPool.sol\":3057:3064  _amount */\n              dup2\n                /* \"Core/StakingPool.sol\":3041:3053  _totalSupply */\n              0x08\n              0x00\n                /* \"Core/StakingPool.sol\":3041:3064  _totalSupply -= _amount */\n              dup3\n              dup3\n              sload\n              tag_77\n              swap2\n              swap1\n              tag_66\n              jump\t// in\n            tag_77:\n              swap3\n              pop\n              pop\n              dup2\n              swap1\n              sstore\n              pop\n                /* \"Core/StakingPool.sol\":3096:3103  _amount */\n              dup2\n                /* \"Core/StakingPool.sol\":3074:3080  staked */\n              0x07\n                /* \"Core/StakingPool.sol\":3074:3092  staked[msg.sender] */\n              0x00\n                /* \"Core/StakingPool.sol\":3081:3091  msg.sender */\n              caller\n                /* \"Core/StakingPool.sol\":3074:3092  staked[msg.sender] */\n              0xffffffffffffffffffffffffffffffffffffffff\n              and\n              0xffffffffffffffffffffffffffffffffffffffff\n              and\n              dup2\n              mstore\n              0x20\n              add\n              swap1\n              dup2\n              mstore\n              0x20\n              add\n              0x00\n              keccak256\n              0x00\n                /* \"Core/StakingPool.sol\":3074:3103  staked[msg.sender] -= _amount */\n              dup3\n              dup3\n              sload\n              tag_78\n              swap2\n              swap1\n              tag_66\n              jump\t// in\n            tag_78:\n              swap3\n              pop\n              pop\n              dup2\n              swap1\n              sstore\n              pop\n                /* \"Core/StakingPool.sol\":3113:3125  stakingToken */\n              0x01\n              0x00\n              swap1\n              sload\n              swap1\n              0x0100\n              exp\n              swap1\n              div\n              0xffffffffffffffffffffffffffffffffffffffff\n              and\n                /* \"Core/StakingPool.sol\":3113:3134  stakingToken.transfer */\n              0xffffffffffffffffffffffffffffffffffffffff\n              and\n              0xa9059cbb\n                /* \"Core/StakingPool.sol\":3135:3145  msg.sender */\n              caller\n                /* \"Core/StakingPool.sol\":3147:3154  _amount */\n              dup5\n                /* \"Core/StakingPool.sol\":3113:3155  stakingToken.transfer(msg.sender, _amount) */\n              mload(0x40)\n              dup4\n              0xffffffff\n              and\n              0xe0\n              shl\n              dup2\n              mstore\n              0x04\n              add\n              tag_79\n              swap3\n              swap2\n              swap1\n              tag_80\n              jump\t// in\n            tag_79:\n              0x20\n              mload(0x40)\n              dup1\n              dup4\n              sub\n              dup2\n              0x00\n              dup8\n              gas\n              call\n              iszero\n              dup1\n              iszero\n              tag_82\n              jumpi\n              returndatasize\n              0x00\n              dup1\n              returndatacopy\n              revert(0x00, returndatasize)\n            tag_82:\n              pop\n              pop\n              pop\n              pop\n              mload(0x40)\n              returndatasize\n              not(0x1f)\n              0x1f\n              dup3\n              add\n              and\n              dup3\n              add\n              dup1\n              0x40\n              mstore\n              pop\n              dup2\n              add\n              swap1\n              tag_83\n              swap2\n              swap1\n              tag_84\n              jump\t// in\n            tag_83:\n              pop\n                /* \"Core/StakingPool.sol\":2962:3162  function withdraw(uint256 _amount) external updateReward(msg.sender) {... */\n              pop\n              pop\n              jump\t// out\n                /* \"Core/StakingPool.sol\":916:943  uint256 public _totalSupply */\n            tag_33:\n              sload(0x08)\n              dup2\n              jump\t// out\n                /* \"Core/StakingPool.sol\":370:396  IERC20 public stakingToken */\n            tag_36:\n              0x01\n              0x00\n              swap1\n              sload\n              swap1\n              0x0100\n              exp\n              swap1\n              div\n              0xffffffffffffffffffffffffffffffffffffffff\n              and\n              dup2\n              jump\t// out\n                /* \"Core/StakingPool.sol\":455:486  uint256 public rewardRate = 100 */\n            tag_40:\n              sload(0x02)\n              dup2\n              jump\t// out\n                /* \"Core/StakingPool.sol\":710:764  mapping(address => uint256) public rewardsPerTokenPaid */\n            tag_44:\n              mstore(0x20, 0x06)\n              dup1\n              0x00\n              mstore\n              keccak256(0x00, 0x40)\n              0x00\n              swap2\n              pop\n              swap1\n              pop\n              sload\n              dup2\n              jump\t// out\n                /* \"Core/StakingPool.sol\":2649:2865  function stake(uint256 _amount) external updateReward(msg.sender) {... */\n            tag_48:\n                /* \"Core/StakingPool.sol\":2703:2713  msg.sender */\n              caller\n                /* \"Core/StakingPool.sol\":2256:2272  rewardPerToken() */\n              tag_86\n                /* \"Core/StakingPool.sol\":2256:2270  rewardPerToken */\n              tag_53\n                /* \"Core/StakingPool.sol\":2256:2272  rewardPerToken() */\n              jump\t// in\n            tag_86:\n                /* \"Core/StakingPool.sol\":2233:2253  rewardPerTokenStored */\n              0x04\n                /* \"Core/StakingPool.sol\":2233:2272  rewardPerTokenStored = rewardPerToken() */\n              dup2\n              swap1\n              sstore\n              pop\n                /* \"Core/StakingPool.sol\":2299:2314  block.timestamp */\n              timestamp\n                /* \"Core/StakingPool.sol\":2282:2296  lastUpdateTime */\n              0x03\n                /* \"Core/StakingPool.sol\":2282:2314  lastUpdateTime = block.timestamp */\n              dup2\n              swap1\n              sstore\n              pop\n                /* \"Core/StakingPool.sol\":2401:2416  earned(account) */\n              tag_87\n                /* \"Core/StakingPool.sol\":2408:2415  account */\n              dup2\n                /* \"Core/StakingPool.sol\":2401:2407  earned */\n              tag_21\n                /* \"Core/StakingPool.sol\":2401:2416  earned(account) */\n              jump\t// in\n            tag_87:\n                /* \"Core/StakingPool.sol\":2382:2389  rewards */\n              0x05\n                /* \"Core/StakingPool.sol\":2382:2398  rewards[account] */\n              0x00\n                /* \"Core/StakingPool.sol\":2390:2397  account */\n              dup4\n                /* \"Core/StakingPool.sol\":2382:2398  rewards[account] */\n              0xffffffffffffffffffffffffffffffffffffffff\n              and\n              0xffffffffffffffffffffffffffffffffffffffff\n              and\n              dup2\n              mstore\n              0x20\n              add\n              swap1\n              dup2\n              mstore\n              0x20\n              add\n              0x00\n              keccak256\n                /* \"Core/StakingPool.sol\":2382:2416  rewards[account] = earned(account) */\n              dup2\n              swap1\n              sstore\n              pop\n                /* \"Core/StakingPool.sol\":2516:2536  rewardPerTokenStored */\n              sload(0x04)\n                /* \"Core/StakingPool.sol\":2485:2504  rewardsPerTokenPaid */\n              0x06\n                /* \"Core/StakingPool.sol\":2485:2513  rewardsPerTokenPaid[account] */\n              0x00\n                /* \"Core/StakingPool.sol\":2505:2512  account */\n              dup4\n                /* \"Core/StakingPool.sol\":2485:2513  rewardsPerTokenPaid[account] */\n              0xffffffffffffffffffffffffffffffffffffffff\n              and\n              0xffffffffffffffffffffffffffffffffffffffff\n              and\n              dup2\n              mstore\n              0x20\n              add\n              swap1\n              dup2\n              mstore\n              0x20\n              add\n              0x00\n              keccak256\n                /* \"Core/StakingPool.sol\":2485:2536  rewardsPerTokenPaid[account] = rewardPerTokenStored */\n              dup2\n              swap1\n              sstore\n              pop\n                /* \"Core/StakingPool.sol\":2741:2748  _amount */\n              dup2\n                /* \"Core/StakingPool.sol\":2725:2737  _totalSupply */\n              0x08\n              0x00\n                /* \"Core/StakingPool.sol\":2725:2748  _totalSupply += _amount */\n              dup3\n              dup3\n              sload\n              tag_89\n              swap2\n              swap1\n              tag_72\n              jump\t// in\n            tag_89:\n              swap3\n              pop\n              pop\n              dup2\n              swap1\n              sstore\n              pop\n                /* \"Core/StakingPool.sol\":2780:2787  _amount */\n              dup2\n                /* \"Core/StakingPool.sol\":2758:2764  staked */\n              0x07\n                /* \"Core/StakingPool.sol\":2758:2776  staked[msg.sender] */\n              0x00\n                /* \"Core/StakingPool.sol\":2765:2775  msg.sender */\n              caller\n                /* \"Core/StakingPool.sol\":2758:2776  staked[msg.sender] */\n              0xffffffffffffffffffffffffffffffffffffffff\n              and\n              0xffffffffffffffffffffffffffffffffffffffff\n              and\n              dup2\n              mstore\n              0x20\n              add\n              swap1\n              dup2\n              mstore\n              0x20\n              add\n              0x00\n              keccak256\n              0x00\n                /* \"Core/StakingPool.sol\":2758:2787  staked[msg.sender] += _amount */\n              dup3\n              dup3\n              sload\n              tag_90\n              swap2\n              swap1\n              tag_72\n              jump\t// in\n            tag_90:\n              swap3\n              pop\n              pop\n              dup2\n              swap1\n              sstore\n              pop\n                /* \"Core/StakingPool.sol\":2797:2809  stakingToken */\n              0x01\n              0x00\n              swap1\n              sload\n              swap1\n              0x0100\n              exp\n              swap1\n              div\n              0xffffffffffffffffffffffffffffffffffffffff\n              and\n                /* \"Core/StakingPool.sol\":2797:2822  stakingToken.transferFrom */\n              0xffffffffffffffffffffffffffffffffffffffff\n              and\n              0x23b872dd\n                /* \"Core/StakingPool.sol\":2823:2833  msg.sender */\n              caller\n                /* \"Core/StakingPool.sol\":2843:2847  this */\n              address\n                /* \"Core/StakingPool.sol\":2850:2857  _amount */\n              dup6\n                /* \"Core/StakingPool.sol\":2797:2858  stakingToken.transferFrom(msg.sender, address(this), _amount) */\n              mload(0x40)\n              dup5\n              0xffffffff\n              and\n              0xe0\n              shl\n              dup2\n              mstore\n              0x04\n              add\n              tag_91\n              swap4\n              swap3\n              swap2\n              swap1\n              tag_92\n              jump\t// in\n            tag_91:\n              0x20\n              mload(0x40)\n              dup1\n              dup4\n              sub\n              dup2\n              0x00\n              dup8\n              gas\n              call\n              iszero\n              dup1\n              iszero\n              tag_94\n              jumpi\n              returndatasize\n              0x00\n              dup1\n              returndatacopy\n              revert(0x00, returndatasize)\n            tag_94:\n              pop\n              pop\n              pop\n              pop\n              mload(0x40)\n              returndatasize\n              not(0x1f)\n              0x1f\n              dup3\n              add\n              and\n              dup3\n              add\n              dup1\n              0x40\n              mstore\n              pop\n              dup2\n              add\n              swap1\n              tag_95\n              swap2\n              swap1\n              tag_84\n              jump\t// in\n            tag_95:\n              pop\n                /* \"Core/StakingPool.sol\":2649:2865  function stake(uint256 _amount) external updateReward(msg.sender) {... */\n              pop\n              pop\n              jump\t// out\n                /* \"Core/StakingPool.sol\":492:521  uint256 public lastUpdateTime */\n            tag_50:\n              sload(0x03)\n              dup2\n              jump\t// out\n                /* \"Core/StakingPool.sol\":1253:1553  function rewardPerToken() public view returns (uint256) {... */\n            tag_53:\n                /* \"Core/StakingPool.sol\":1300:1307  uint256 */\n              0x00\n                /* \"Core/StakingPool.sol\":1339:1340  0 */\n              dup1\n                /* \"Core/StakingPool.sol\":1323:1335  _totalSupply */\n              sload(0x08)\n                /* \"Core/StakingPool.sol\":1323:1340  _totalSupply == 0 */\n              sub\n                /* \"Core/StakingPool.sol\":1319:1394  if (_totalSupply == 0) {... */\n              tag_97\n              jumpi\n                /* \"Core/StakingPool.sol\":1363:1383  rewardPerTokenStored */\n              sload(0x04)\n                /* \"Core/StakingPool.sol\":1356:1383  return rewardPerTokenStored */\n              swap1\n              pop\n              jump(tag_96)\n                /* \"Core/StakingPool.sol\":1319:1394  if (_totalSupply == 0) {... */\n            tag_97:\n                /* \"Core/StakingPool.sol\":1533:1545  _totalSupply */\n              sload(0x08)\n                /* \"Core/StakingPool.sol\":1509:1513  1e18 */\n              0x0de0b6b3a7640000\n                /* \"Core/StakingPool.sol\":1496:1506  rewardRate */\n              sload(0x02)\n                /* \"Core/StakingPool.sol\":1478:1492  lastUpdateTime */\n              sload(0x03)\n                /* \"Core/StakingPool.sol\":1460:1475  block.timestamp */\n              timestamp\n                /* \"Core/StakingPool.sol\":1460:1492  block.timestamp - lastUpdateTime */\n              tag_98\n              swap2\n              swap1\n              tag_66\n              jump\t// in\n            tag_98:\n                /* \"Core/StakingPool.sol\":1459:1506  (block.timestamp - lastUpdateTime) * rewardRate */\n              tag_99\n              swap2\n              swap1\n              tag_68\n              jump\t// in\n            tag_99:\n                /* \"Core/StakingPool.sol\":1459:1513  (block.timestamp - lastUpdateTime) * rewardRate * 1e18 */\n              tag_100\n              swap2\n              swap1\n              tag_68\n              jump\t// in\n            tag_100:\n                /* \"Core/StakingPool.sol\":1458:1545  ((block.timestamp - lastUpdateTime) * rewardRate * 1e18) /... */\n              tag_101\n              swap2\n              swap1\n              tag_70\n              jump\t// in\n            tag_101:\n                /* \"Core/StakingPool.sol\":1422:1442  rewardPerTokenStored */\n              sload(0x04)\n                /* \"Core/StakingPool.sol\":1422:1546  rewardPerTokenStored +... */\n              tag_102\n              swap2\n              swap1\n              tag_72\n              jump\t// in\n            tag_102:\n                /* \"Core/StakingPool.sol\":1403:1546  return... */\n              swap1\n              pop\n                /* \"Core/StakingPool.sol\":1253:1553  function rewardPerToken() public view returns (uint256) {... */\n            tag_96:\n              swap1\n              jump\t// out\n                /* \"Core/StakingPool.sol\":338:364  IERC20 public rewardsToken */\n            tag_56:\n              0x00\n              dup1\n              sload\n              swap1\n              0x0100\n              exp\n              swap1\n              div\n              0xffffffffffffffffffffffffffffffffffffffff\n              and\n              dup2\n              jump\t// out\n                /* \"Core/StakingPool.sol\":3210:3405  function reedemReward() external updateReward(msg.sender) {... */\n            tag_59:\n                /* \"Core/StakingPool.sol\":3256:3266  msg.sender */\n              caller\n                /* \"Core/StakingPool.sol\":2256:2272  rewardPerToken() */\n              tag_104\n                /* \"Core/StakingPool.sol\":2256:2270  rewardPerToken */\n              tag_53\n                /* \"Core/StakingPool.sol\":2256:2272  rewardPerToken() */\n              jump\t// in\n            tag_104:\n                /* \"Core/StakingPool.sol\":2233:2253  rewardPerTokenStored */\n              0x04\n                /* \"Core/StakingPool.sol\":2233:2272  rewardPerTokenStored = rewardPerToken() */\n              dup2\n              swap1\n              sstore\n              pop\n                /* \"Core/StakingPool.sol\":2299:2314  block.timestamp */\n              timestamp\n                /* \"Core/StakingPool.sol\":2282:2296  lastUpdateTime */\n              0x03\n                /* \"Core/StakingPool.sol\":2282:2314  lastUpdateTime = block.timestamp */\n              dup2\n              swap1\n              sstore\n              pop\n                /* \"Core/StakingPool.sol\":2401:2416  earned(account) */\n              tag_105\n                /* \"Core/StakingPool.sol\":2408:2415  account */\n              dup2\n                /* \"Core/StakingPool.sol\":2401:2407  earned */\n              tag_21\n                /* \"Core/StakingPool.sol\":2401:2416  earned(account) */\n              jump\t// in\n            tag_105:\n                /* \"Core/StakingPool.sol\":2382:2389  rewards */\n              0x05\n                /* \"Core/StakingPool.sol\":2382:2398  rewards[account] */\n              0x00\n                /* \"Core/StakingPool.sol\":2390:2397  account */\n              dup4\n                /* \"Core/StakingPool.sol\":2382:2398  rewards[account] */\n              0xffffffffffffffffffffffffffffffffffffffff\n              and\n              0xffffffffffffffffffffffffffffffffffffffff\n              and\n              dup2\n              mstore\n              0x20\n              add\n              swap1\n              dup2\n              mstore\n              0x20\n              add\n              0x00\n              keccak256\n                /* \"Core/StakingPool.sol\":2382:2416  rewards[account] = earned(account) */\n              dup2\n              swap1\n              sstore\n              pop\n                /* \"Core/StakingPool.sol\":2516:2536  rewardPerTokenStored */\n              sload(0x04)\n                /* \"Core/StakingPool.sol\":2485:2504  rewardsPerTokenPaid */\n              0x06\n                /* \"Core/StakingPool.sol\":2485:2513  rewardsPerTokenPaid[account] */\n              0x00\n                /* \"Core/StakingPool.sol\":2505:2512  account */\n              dup4\n                /* \"Core/StakingPool.sol\":2485:2513  rewardsPerTokenPaid[account] */\n              0xffffffffffffffffffffffffffffffffffffffff\n              and\n              0xffffffffffffffffffffffffffffffffffffffff\n              and\n              dup2\n              mstore\n              0x20\n              add\n              swap1\n              dup2\n              mstore\n              0x20\n              add\n              0x00\n              keccak256\n                /* \"Core/StakingPool.sol\":2485:2536  rewardsPerTokenPaid[account] = rewardPerTokenStored */\n              dup2\n              swap1\n              sstore\n              pop\n                /* \"Core/StakingPool.sol\":3278:3292  uint256 reward */\n              0x00\n                /* \"Core/StakingPool.sol\":3295:3302  rewards */\n              0x05\n                /* \"Core/StakingPool.sol\":3295:3314  rewards[msg.sender] */\n              0x00\n                /* \"Core/StakingPool.sol\":3303:3313  msg.sender */\n              caller\n                /* \"Core/StakingPool.sol\":3295:3314  rewards[msg.sender] */\n              0xffffffffffffffffffffffffffffffffffffffff\n              and\n              0xffffffffffffffffffffffffffffffffffffffff\n              and\n              dup2\n              mstore\n              0x20\n              add\n              swap1\n              dup2\n              mstore\n              0x20\n              add\n              0x00\n              keccak256\n              sload\n                /* \"Core/StakingPool.sol\":3278:3314  uint256 reward = rewards[msg.sender] */\n              swap1\n              pop\n                /* \"Core/StakingPool.sol\":3346:3347  0 */\n              0x00\n                /* \"Core/StakingPool.sol\":3324:3331  rewards */\n              0x05\n                /* \"Core/StakingPool.sol\":3324:3343  rewards[msg.sender] */\n              0x00\n                /* \"Core/StakingPool.sol\":3332:3342  msg.sender */\n              caller\n                /* \"Core/StakingPool.sol\":3324:3343  rewards[msg.sender] */\n              0xffffffffffffffffffffffffffffffffffffffff\n              and\n              0xffffffffffffffffffffffffffffffffffffffff\n              and\n              dup2\n              mstore\n              0x20\n              add\n              swap1\n              dup2\n              mstore\n              0x20\n              add\n              0x00\n              keccak256\n                /* \"Core/StakingPool.sol\":3324:3347  rewards[msg.sender] = 0 */\n              dup2\n              swap1\n              sstore\n              pop\n                /* \"Core/StakingPool.sol\":3357:3369  rewardsToken */\n              0x00\n              dup1\n              sload\n              swap1\n              0x0100\n              exp\n              swap1\n              div\n              0xffffffffffffffffffffffffffffffffffffffff\n              and\n                /* \"Core/StakingPool.sol\":3357:3378  rewardsToken.transfer */\n              0xffffffffffffffffffffffffffffffffffffffff\n              and\n              0xa9059cbb\n                /* \"Core/StakingPool.sol\":3379:3389  msg.sender */\n              caller\n                /* \"Core/StakingPool.sol\":3391:3397  reward */\n              dup4\n                /* \"Core/StakingPool.sol\":3357:3398  rewardsToken.transfer(msg.sender, reward) */\n              mload(0x40)\n              dup4\n              0xffffffff\n              and\n              0xe0\n              shl\n              dup2\n              mstore\n              0x04\n              add\n              tag_107\n              swap3\n              swap2\n              swap1\n              tag_80\n              jump\t// in\n            tag_107:\n              0x20\n              mload(0x40)\n              dup1\n              dup4\n              sub\n              dup2\n              0x00\n              dup8\n              gas\n              call\n              iszero\n              dup1\n              iszero\n              tag_109\n              jumpi\n              returndatasize\n              0x00\n              dup1\n              returndatacopy\n              revert(0x00, returndatasize)\n            tag_109:\n              pop\n              pop\n              pop\n              pop\n              mload(0x40)\n              returndatasize\n              not(0x1f)\n              0x1f\n              dup3\n              add\n              and\n              dup3\n              add\n              dup1\n              0x40\n              mstore\n              pop\n              dup2\n              add\n              swap1\n              tag_110\n              swap2\n              swap1\n              tag_84\n              jump\t// in\n            tag_110:\n              pop\n                /* \"Core/StakingPool.sol\":3268:3405  {... */\n              pop\n                /* \"Core/StakingPool.sol\":3210:3405  function reedemReward() external updateReward(msg.sender) {... */\n              pop\n              jump\t// out\n                /* \"Core/StakingPool.sol\":527:562  uint256 public rewardPerTokenStored */\n            tag_61:\n              sload(0x04)\n              dup2\n              jump\t// out\n                /* \"#utility.yul\":88:205   */\n            tag_112:\n                /* \"#utility.yul\":197:198   */\n              0x00\n                /* \"#utility.yul\":194:195   */\n              dup1\n                /* \"#utility.yul\":187:199   */\n              revert\n                /* \"#utility.yul\":334:460   */\n            tag_114:\n                /* \"#utility.yul\":371:378   */\n              0x00\n                /* \"#utility.yul\":411:453   */\n              0xffffffffffffffffffffffffffffffffffffffff\n                /* \"#utility.yul\":404:409   */\n              dup3\n                /* \"#utility.yul\":400:454   */\n              and\n                /* \"#utility.yul\":389:454   */\n              swap1\n              pop\n                /* \"#utility.yul\":334:460   */\n              swap2\n              swap1\n              pop\n              jump\t// out\n                /* \"#utility.yul\":466:562   */\n            tag_115:\n                /* \"#utility.yul\":503:510   */\n              0x00\n                /* \"#utility.yul\":532:556   */\n              tag_139\n                /* \"#utility.yul\":550:555   */\n              dup3\n                /* \"#utility.yul\":532:556   */\n              tag_114\n              jump\t// in\n            tag_139:\n                /* \"#utility.yul\":521:556   */\n              swap1\n              pop\n                /* \"#utility.yul\":466:562   */\n              swap2\n              swap1\n              pop\n              jump\t// out\n                /* \"#utility.yul\":568:690   */\n            tag_116:\n                /* \"#utility.yul\":641:665   */\n              tag_141\n                /* \"#utility.yul\":659:664   */\n              dup2\n                /* \"#utility.yul\":641:665   */\n              tag_115\n              jump\t// in\n            tag_141:\n                /* \"#utility.yul\":634:639   */\n              dup2\n                /* \"#utility.yul\":631:666   */\n              eq\n                /* \"#utility.yul\":621:684   */\n              tag_142\n              jumpi\n                /* \"#utility.yul\":680:681   */\n              0x00\n                /* \"#utility.yul\":677:678   */\n              dup1\n                /* \"#utility.yul\":670:682   */\n              revert\n                /* \"#utility.yul\":621:684   */\n            tag_142:\n                /* \"#utility.yul\":568:690   */\n              pop\n              jump\t// out\n                /* \"#utility.yul\":696:835   */\n            tag_117:\n                /* \"#utility.yul\":742:747   */\n              0x00\n                /* \"#utility.yul\":780:786   */\n              dup2\n                /* \"#utility.yul\":767:787   */\n              calldataload\n                /* \"#utility.yul\":758:787   */\n              swap1\n              pop\n                /* \"#utility.yul\":796:829   */\n              tag_144\n                /* \"#utility.yul\":823:828   */\n              dup2\n                /* \"#utility.yul\":796:829   */\n              tag_116\n              jump\t// in\n            tag_144:\n                /* \"#utility.yul\":696:835   */\n              swap3\n              swap2\n              pop\n              pop\n              jump\t// out\n                /* \"#utility.yul\":841:1170   */\n            tag_20:\n                /* \"#utility.yul\":900:906   */\n              0x00\n                /* \"#utility.yul\":949:951   */\n              0x20\n                /* \"#utility.yul\":937:946   */\n              dup3\n                /* \"#utility.yul\":928:935   */\n              dup5\n                /* \"#utility.yul\":924:947   */\n              sub\n                /* \"#utility.yul\":920:952   */\n              slt\n                /* \"#utility.yul\":917:1036   */\n              iszero\n              tag_146\n              jumpi\n                /* \"#utility.yul\":955:1034   */\n              tag_147\n              tag_112\n              jump\t// in\n            tag_147:\n                /* \"#utility.yul\":917:1036   */\n            tag_146:\n                /* \"#utility.yul\":1075:1076   */\n              0x00\n                /* \"#utility.yul\":1100:1153   */\n              tag_148\n                /* \"#utility.yul\":1145:1152   */\n              dup5\n                /* \"#utility.yul\":1136:1142   */\n              dup3\n                /* \"#utility.yul\":1125:1134   */\n              dup6\n                /* \"#utility.yul\":1121:1143   */\n              add\n                /* \"#utility.yul\":1100:1153   */\n              tag_117\n              jump\t// in\n            tag_148:\n                /* \"#utility.yul\":1090:1153   */\n              swap2\n              pop\n                /* \"#utility.yul\":1046:1163   */\n              pop\n                /* \"#utility.yul\":841:1170   */\n              swap3\n              swap2\n              pop\n              pop\n              jump\t// out\n                /* \"#utility.yul\":1176:1253   */\n            tag_118:\n                /* \"#utility.yul\":1213:1220   */\n              0x00\n                /* \"#utility.yul\":1242:1247   */\n              dup2\n                /* \"#utility.yul\":1231:1247   */\n              swap1\n              pop\n                /* \"#utility.yul\":1176:1253   */\n              swap2\n              swap1\n              pop\n              jump\t// out\n                /* \"#utility.yul\":1259:1377   */\n            tag_119:\n                /* \"#utility.yul\":1346:1370   */\n              tag_151\n                /* \"#utility.yul\":1364:1369   */\n              dup2\n                /* \"#utility.yul\":1346:1370   */\n              tag_118\n              jump\t// in\n            tag_151:\n                /* \"#utility.yul\":1341:1344   */\n              dup3\n                /* \"#utility.yul\":1334:1371   */\n              mstore\n                /* \"#utility.yul\":1259:1377   */\n              pop\n              pop\n              jump\t// out\n                /* \"#utility.yul\":1383:1605   */\n            tag_23:\n                /* \"#utility.yul\":1476:1480   */\n              0x00\n                /* \"#utility.yul\":1514:1516   */\n              0x20\n                /* \"#utility.yul\":1503:1512   */\n              dup3\n                /* \"#utility.yul\":1499:1517   */\n              add\n                /* \"#utility.yul\":1491:1517   */\n              swap1\n              pop\n                /* \"#utility.yul\":1527:1598   */\n              tag_153\n                /* \"#utility.yul\":1595:1596   */\n              0x00\n                /* \"#utility.yul\":1584:1593   */\n              dup4\n                /* \"#utility.yul\":1580:1597   */\n              add\n                /* \"#utility.yul\":1571:1577   */\n              dup5\n                /* \"#utility.yul\":1527:1598   */\n              tag_119\n              jump\t// in\n            tag_153:\n                /* \"#utility.yul\":1383:1605   */\n              swap3\n              swap2\n              pop\n              pop\n              jump\t// out\n                /* \"#utility.yul\":1611:1733   */\n            tag_120:\n                /* \"#utility.yul\":1684:1708   */\n              tag_155\n                /* \"#utility.yul\":1702:1707   */\n              dup2\n                /* \"#utility.yul\":1684:1708   */\n              tag_118\n              jump\t// in\n            tag_155:\n                /* \"#utility.yul\":1677:1682   */\n              dup2\n                /* \"#utility.yul\":1674:1709   */\n              eq\n                /* \"#utility.yul\":1664:1727   */\n              tag_156\n              jumpi\n                /* \"#utility.yul\":1723:1724   */\n              0x00\n                /* \"#utility.yul\":1720:1721   */\n              dup1\n                /* \"#utility.yul\":1713:1725   */\n              revert\n                /* \"#utility.yul\":1664:1727   */\n            tag_156:\n                /* \"#utility.yul\":1611:1733   */\n              pop\n              jump\t// out\n                /* \"#utility.yul\":1739:1878   */\n            tag_121:\n                /* \"#utility.yul\":1785:1790   */\n              0x00\n                /* \"#utility.yul\":1823:1829   */\n              dup2\n                /* \"#utility.yul\":1810:1830   */\n              calldataload\n                /* \"#utility.yul\":1801:1830   */\n              swap1\n              pop\n                /* \"#utility.yul\":1839:1872   */\n              tag_158\n                /* \"#utility.yul\":1866:1871   */\n              dup2\n                /* \"#utility.yul\":1839:1872   */\n              tag_120\n              jump\t// in\n            tag_158:\n                /* \"#utility.yul\":1739:1878   */\n              swap3\n              swap2\n              pop\n              pop\n              jump\t// out\n                /* \"#utility.yul\":1884:2213   */\n            tag_30:\n                /* \"#utility.yul\":1943:1949   */\n              0x00\n                /* \"#utility.yul\":1992:1994   */\n              0x20\n                /* \"#utility.yul\":1980:1989   */\n              dup3\n                /* \"#utility.yul\":1971:1978   */\n              dup5\n                /* \"#utility.yul\":1967:1990   */\n              sub\n                /* \"#utility.yul\":1963:1995   */\n              slt\n                /* \"#utility.yul\":1960:2079   */\n              iszero\n              tag_160\n              jumpi\n                /* \"#utility.yul\":1998:2077   */\n              tag_161\n              tag_112\n              jump\t// in\n            tag_161:\n                /* \"#utility.yul\":1960:2079   */\n            tag_160:\n                /* \"#utility.yul\":2118:2119   */\n              0x00\n                /* \"#utility.yul\":2143:2196   */\n              tag_162\n                /* \"#utility.yul\":2188:2195   */\n              dup5\n                /* \"#utility.yul\":2179:2185   */\n              dup3\n                /* \"#utility.yul\":2168:2177   */\n              dup6\n                /* \"#utility.yul\":2164:2186   */\n              add\n                /* \"#utility.yul\":2143:2196   */\n              tag_121\n              jump\t// in\n            tag_162:\n                /* \"#utility.yul\":2133:2196   */\n              swap2\n              pop\n                /* \"#utility.yul\":2089:2206   */\n              pop\n                /* \"#utility.yul\":1884:2213   */\n              swap3\n              swap2\n              pop\n              pop\n              jump\t// out\n                /* \"#utility.yul\":2219:2279   */\n            tag_122:\n                /* \"#utility.yul\":2247:2250   */\n              0x00\n                /* \"#utility.yul\":2268:2273   */\n              dup2\n                /* \"#utility.yul\":2261:2273   */\n              swap1\n              pop\n                /* \"#utility.yul\":2219:2279   */\n              swap2\n              swap1\n              pop\n              jump\t// out\n                /* \"#utility.yul\":2285:2427   */\n            tag_123:\n                /* \"#utility.yul\":2335:2344   */\n              0x00\n                /* \"#utility.yul\":2368:2421   */\n              tag_165\n                /* \"#utility.yul\":2386:2420   */\n              tag_166\n                /* \"#utility.yul\":2395:2419   */\n              tag_167\n                /* \"#utility.yul\":2413:2418   */\n              dup5\n                /* \"#utility.yul\":2395:2419   */\n              tag_114\n              jump\t// in\n            tag_167:\n                /* \"#utility.yul\":2386:2420   */\n              tag_122\n              jump\t// in\n            tag_166:\n                /* \"#utility.yul\":2368:2421   */\n              tag_114\n              jump\t// in\n            tag_165:\n                /* \"#utility.yul\":2355:2421   */\n              swap1\n              pop\n                /* \"#utility.yul\":2285:2427   */\n              swap2\n              swap1\n              pop\n              jump\t// out\n                /* \"#utility.yul\":2433:2559   */\n            tag_124:\n                /* \"#utility.yul\":2483:2492   */\n              0x00\n                /* \"#utility.yul\":2516:2553   */\n              tag_169\n                /* \"#utility.yul\":2547:2552   */\n              dup3\n                /* \"#utility.yul\":2516:2553   */\n              tag_123\n              jump\t// in\n            tag_169:\n                /* \"#utility.yul\":2503:2553   */\n              swap1\n              pop\n                /* \"#utility.yul\":2433:2559   */\n              swap2\n              swap1\n              pop\n              jump\t// out\n                /* \"#utility.yul\":2565:2705   */\n            tag_125:\n                /* \"#utility.yul\":2629:2638   */\n              0x00\n                /* \"#utility.yul\":2662:2699   */\n              tag_171\n                /* \"#utility.yul\":2693:2698   */\n              dup3\n                /* \"#utility.yul\":2662:2699   */\n              tag_124\n              jump\t// in\n            tag_171:\n                /* \"#utility.yul\":2649:2699   */\n              swap1\n              pop\n                /* \"#utility.yul\":2565:2705   */\n              swap2\n              swap1\n              pop\n              jump\t// out\n                /* \"#utility.yul\":2711:2870   */\n            tag_126:\n                /* \"#utility.yul\":2812:2863   */\n              tag_173\n                /* \"#utility.yul\":2857:2862   */\n              dup2\n                /* \"#utility.yul\":2812:2863   */\n              tag_125\n              jump\t// in\n            tag_173:\n                /* \"#utility.yul\":2807:2810   */\n              dup3\n                /* \"#utility.yul\":2800:2864   */\n              mstore\n                /* \"#utility.yul\":2711:2870   */\n              pop\n              pop\n              jump\t// out\n                /* \"#utility.yul\":2876:3126   */\n            tag_38:\n                /* \"#utility.yul\":2983:2987   */\n              0x00\n                /* \"#utility.yul\":3021:3023   */\n              0x20\n                /* \"#utility.yul\":3010:3019   */\n              dup3\n                /* \"#utility.yul\":3006:3024   */\n              add\n                /* \"#utility.yul\":2998:3024   */\n              swap1\n              pop\n                /* \"#utility.yul\":3034:3119   */\n              tag_175\n                /* \"#utility.yul\":3116:3117   */\n              0x00\n                /* \"#utility.yul\":3105:3114   */\n              dup4\n                /* \"#utility.yul\":3101:3118   */\n              add\n                /* \"#utility.yul\":3092:3098   */\n              dup5\n                /* \"#utility.yul\":3034:3119   */\n              tag_126\n              jump\t// in\n            tag_175:\n                /* \"#utility.yul\":2876:3126   */\n              swap3\n              swap2\n              pop\n              pop\n              jump\t// out\n                /* \"#utility.yul\":3132:3312   */\n            tag_127:\n                /* \"#utility.yul\":3180:3257   */\n              0x4e487b7100000000000000000000000000000000000000000000000000000000\n                /* \"#utility.yul\":3177:3178   */\n              0x00\n                /* \"#utility.yul\":3170:3258   */\n              mstore\n                /* \"#utility.yul\":3277:3281   */\n              0x11\n                /* \"#utility.yul\":3274:3275   */\n              0x04\n                /* \"#utility.yul\":3267:3282   */\n              mstore\n                /* \"#utility.yul\":3301:3305   */\n              0x24\n                /* \"#utility.yul\":3298:3299   */\n              0x00\n                /* \"#utility.yul\":3291:3306   */\n              revert\n                /* \"#utility.yul\":3318:3509   */\n            tag_66:\n                /* \"#utility.yul\":3358:3362   */\n              0x00\n                /* \"#utility.yul\":3378:3398   */\n              tag_178\n                /* \"#utility.yul\":3396:3397   */\n              dup3\n                /* \"#utility.yul\":3378:3398   */\n              tag_118\n              jump\t// in\n            tag_178:\n                /* \"#utility.yul\":3373:3398   */\n              swap2\n              pop\n                /* \"#utility.yul\":3412:3432   */\n              tag_179\n                /* \"#utility.yul\":3430:3431   */\n              dup4\n                /* \"#utility.yul\":3412:3432   */\n              tag_118\n              jump\t// in\n            tag_179:\n                /* \"#utility.yul\":3407:3432   */\n              swap3\n              pop\n                /* \"#utility.yul\":3451:3452   */\n              dup3\n                /* \"#utility.yul\":3448:3449   */\n              dup3\n                /* \"#utility.yul\":3445:3453   */\n              lt\n                /* \"#utility.yul\":3442:3476   */\n              iszero\n              tag_180\n              jumpi\n                /* \"#utility.yul\":3456:3474   */\n              tag_181\n              tag_127\n              jump\t// in\n            tag_181:\n                /* \"#utility.yul\":3442:3476   */\n            tag_180:\n                /* \"#utility.yul\":3501:3502   */\n              dup3\n                /* \"#utility.yul\":3498:3499   */\n              dup3\n                /* \"#utility.yul\":3494:3503   */\n              sub\n                /* \"#utility.yul\":3486:3503   */\n              swap1\n              pop\n                /* \"#utility.yul\":3318:3509   */\n              swap3\n              swap2\n              pop\n              pop\n              jump\t// out\n                /* \"#utility.yul\":3515:3863   */\n            tag_68:\n                /* \"#utility.yul\":3555:3562   */\n              0x00\n                /* \"#utility.yul\":3578:3598   */\n              tag_183\n                /* \"#utility.yul\":3596:3597   */\n              dup3\n                /* \"#utility.yul\":3578:3598   */\n              tag_118\n              jump\t// in\n            tag_183:\n                /* \"#utility.yul\":3573:3598   */\n              swap2\n              pop\n                /* \"#utility.yul\":3612:3632   */\n              tag_184\n                /* \"#utility.yul\":3630:3631   */\n              dup4\n                /* \"#utility.yul\":3612:3632   */\n              tag_118\n              jump\t// in\n            tag_184:\n                /* \"#utility.yul\":3607:3632   */\n              swap3\n              pop\n                /* \"#utility.yul\":3800:3801   */\n              dup2\n                /* \"#utility.yul\":3732:3798   */\n              0xffffffffffffffffffffffffffffffffffffffffffffffffffffffffffffffff\n                /* \"#utility.yul\":3728:3802   */\n              div\n                /* \"#utility.yul\":3725:3726   */\n              dup4\n                /* \"#utility.yul\":3722:3803   */\n              gt\n                /* \"#utility.yul\":3717:3718   */\n              dup3\n                /* \"#utility.yul\":3710:3719   */\n              iszero\n                /* \"#utility.yul\":3703:3720   */\n              iszero\n                /* \"#utility.yul\":3699:3804   */\n              and\n                /* \"#utility.yul\":3696:3827   */\n              iszero\n              tag_185\n              jumpi\n                /* \"#utility.yul\":3807:3825   */\n              tag_186\n              tag_127\n              jump\t// in\n            tag_186:\n                /* \"#utility.yul\":3696:3827   */\n            tag_185:\n                /* \"#utility.yul\":3855:3856   */\n              dup3\n                /* \"#utility.yul\":3852:3853   */\n              dup3\n                /* \"#utility.yul\":3848:3857   */\n              mul\n                /* \"#utility.yul\":3837:3857   */\n              swap1\n              pop\n                /* \"#utility.yul\":3515:3863   */\n              swap3\n              swap2\n              pop\n              pop\n              jump\t// out\n                /* \"#utility.yul\":3869:4049   */\n            tag_128:\n                /* \"#utility.yul\":3917:3994   */\n              0x4e487b7100000000000000000000000000000000000000000000000000000000\n                /* \"#utility.yul\":3914:3915   */\n              0x00\n                /* \"#utility.yul\":3907:3995   */\n              mstore\n                /* \"#utility.yul\":4014:4018   */\n              0x12\n                /* \"#utility.yul\":4011:4012   */\n              0x04\n                /* \"#utility.yul\":4004:4019   */\n              mstore\n                /* \"#utility.yul\":4038:4042   */\n              0x24\n                /* \"#utility.yul\":4035:4036   */\n              0x00\n                /* \"#utility.yul\":4028:4043   */\n              revert\n                /* \"#utility.yul\":4055:4240   */\n            tag_70:\n                /* \"#utility.yul\":4095:4096   */\n              0x00\n                /* \"#utility.yul\":4112:4132   */\n              tag_189\n                /* \"#utility.yul\":4130:4131   */\n              dup3\n                /* \"#utility.yul\":4112:4132   */\n              tag_118\n              jump\t// in\n            tag_189:\n                /* \"#utility.yul\":4107:4132   */\n              swap2\n              pop\n                /* \"#utility.yul\":4146:4166   */\n              tag_190\n                /* \"#utility.yul\":4164:4165   */\n              dup4\n                /* \"#utility.yul\":4146:4166   */\n              tag_118\n              jump\t// in\n            tag_190:\n                /* \"#utility.yul\":4141:4166   */\n              swap3\n              pop\n                /* \"#utility.yul\":4185:4186   */\n              dup3\n                /* \"#utility.yul\":4175:4210   */\n              tag_191\n              jumpi\n                /* \"#utility.yul\":4190:4208   */\n              tag_192\n              tag_128\n              jump\t// in\n            tag_192:\n                /* \"#utility.yul\":4175:4210   */\n            tag_191:\n                /* \"#utility.yul\":4232:4233   */\n              dup3\n                /* \"#utility.yul\":4229:4230   */\n              dup3\n                /* \"#utility.yul\":4225:4234   */\n              div\n                /* \"#utility.yul\":4220:4234   */\n              swap1\n              pop\n                /* \"#utility.yul\":4055:4240   */\n              swap3\n              swap2\n              pop\n              pop\n              jump\t// out\n                /* \"#utility.yul\":4246:4551   */\n            tag_72:\n                /* \"#utility.yul\":4286:4289   */\n              0x00\n                /* \"#utility.yul\":4305:4325   */\n              tag_194\n                /* \"#utility.yul\":4323:4324   */\n              dup3\n                /* \"#utility.yul\":4305:4325   */\n              tag_118\n              jump\t// in\n            tag_194:\n                /* \"#utility.yul\":4300:4325   */\n              swap2\n              pop\n                /* \"#utility.yul\":4339:4359   */\n              tag_195\n                /* \"#utility.yul\":4357:4358   */\n              dup4\n                /* \"#utility.yul\":4339:4359   */\n              tag_118\n              jump\t// in\n            tag_195:\n                /* \"#utility.yul\":4334:4359   */\n              swap3\n              pop\n                /* \"#utility.yul\":4493:4494   */\n              dup3\n                /* \"#utility.yul\":4425:4491   */\n              0xffffffffffffffffffffffffffffffffffffffffffffffffffffffffffffffff\n                /* \"#utility.yul\":4421:4495   */\n              sub\n                /* \"#utility.yul\":4418:4419   */\n              dup3\n                /* \"#utility.yul\":4415:4496   */\n              gt\n                /* \"#utility.yul\":4412:4519   */\n              iszero\n              tag_196\n              jumpi\n                /* \"#utility.yul\":4499:4517   */\n              tag_197\n              tag_127\n              jump\t// in\n            tag_197:\n                /* \"#utility.yul\":4412:4519   */\n            tag_196:\n                /* \"#utility.yul\":4543:4544   */\n              dup3\n                /* \"#utility.yul\":4540:4541   */\n              dup3\n                /* \"#utility.yul\":4536:4545   */\n              add\n                /* \"#utility.yul\":4529:4545   */\n              swap1\n              pop\n                /* \"#utility.yul\":4246:4551   */\n              swap3\n              swap2\n              pop\n              pop\n              jump\t// out\n                /* \"#utility.yul\":4557:4675   */\n            tag_129:\n                /* \"#utility.yul\":4644:4668   */\n              tag_199\n                /* \"#utility.yul\":4662:4667   */\n              dup2\n                /* \"#utility.yul\":4644:4668   */\n              tag_115\n              jump\t// in\n            tag_199:\n                /* \"#utility.yul\":4639:4642   */\n              dup3\n                /* \"#utility.yul\":4632:4669   */\n              mstore\n                /* \"#utility.yul\":4557:4675   */\n              pop\n              pop\n              jump\t// out\n                /* \"#utility.yul\":4681:5013   */\n            tag_80:\n                /* \"#utility.yul\":4802:4806   */\n              0x00\n                /* \"#utility.yul\":4840:4842   */\n              0x40\n                /* \"#utility.yul\":4829:4838   */\n              dup3\n                /* \"#utility.yul\":4825:4843   */\n              add\n                /* \"#utility.yul\":4817:4843   */\n              swap1\n              pop\n                /* \"#utility.yul\":4853:4924   */\n              tag_201\n                /* \"#utility.yul\":4921:4922   */\n              0x00\n                /* \"#utility.yul\":4910:4919   */\n              dup4\n                /* \"#utility.yul\":4906:4923   */\n              add\n                /* \"#utility.yul\":4897:4903   */\n              dup6\n                /* \"#utility.yul\":4853:4924   */\n              tag_129\n              jump\t// in\n            tag_201:\n                /* \"#utility.yul\":4934:5006   */\n              tag_202\n                /* \"#utility.yul\":5002:5004   */\n              0x20\n                /* \"#utility.yul\":4991:5000   */\n              dup4\n                /* \"#utility.yul\":4987:5005   */\n              add\n                /* \"#utility.yul\":4978:4984   */\n              dup5\n                /* \"#utility.yul\":4934:5006   */\n              tag_119\n              jump\t// in\n            tag_202:\n                /* \"#utility.yul\":4681:5013   */\n              swap4\n              swap3\n              pop\n              pop\n              pop\n              jump\t// out\n                /* \"#utility.yul\":5019:5109   */\n            tag_130:\n                /* \"#utility.yul\":5053:5060   */\n              0x00\n                /* \"#utility.yul\":5096:5101   */\n              dup2\n                /* \"#utility.yul\":5089:5102   */\n              iszero\n                /* \"#utility.yul\":5082:5103   */\n              iszero\n                /* \"#utility.yul\":5071:5103   */\n              swap1\n              pop\n                /* \"#utility.yul\":5019:5109   */\n              swap2\n              swap1\n              pop\n              jump\t// out\n                /* \"#utility.yul\":5115:5231   */\n            tag_131:\n                /* \"#utility.yul\":5185:5206   */\n              tag_205\n                /* \"#utility.yul\":5200:5205   */\n              dup2\n                /* \"#utility.yul\":5185:5206   */\n              tag_130\n              jump\t// in\n            tag_205:\n                /* \"#utility.yul\":5178:5183   */\n              dup2\n                /* \"#utility.yul\":5175:5207   */\n              eq\n                /* \"#utility.yul\":5165:5225   */\n              tag_206\n              jumpi\n                /* \"#utility.yul\":5221:5222   */\n              0x00\n                /* \"#utility.yul\":5218:5219   */\n              dup1\n                /* \"#utility.yul\":5211:5223   */\n              revert\n                /* \"#utility.yul\":5165:5225   */\n            tag_206:\n                /* \"#utility.yul\":5115:5231   */\n              pop\n              jump\t// out\n                /* \"#utility.yul\":5237:5374   */\n            tag_132:\n                /* \"#utility.yul\":5291:5296   */\n              0x00\n                /* \"#utility.yul\":5322:5328   */\n              dup2\n                /* \"#utility.yul\":5316:5329   */\n              mload\n                /* \"#utility.yul\":5307:5329   */\n              swap1\n              pop\n                /* \"#utility.yul\":5338:5368   */\n              tag_208\n                /* \"#utility.yul\":5362:5367   */\n              dup2\n                /* \"#utility.yul\":5338:5368   */\n              tag_131\n              jump\t// in\n            tag_208:\n                /* \"#utility.yul\":5237:5374   */\n              swap3\n              swap2\n              pop\n              pop\n              jump\t// out\n                /* \"#utility.yul\":5380:5725   */\n            tag_84:\n                /* \"#utility.yul\":5447:5453   */\n              0x00\n                /* \"#utility.yul\":5496:5498   */\n              0x20\n                /* \"#utility.yul\":5484:5493   */\n              dup3\n                /* \"#utility.yul\":5475:5482   */\n              dup5\n                /* \"#utility.yul\":5471:5494   */\n              sub\n                /* \"#utility.yul\":5467:5499   */\n              slt\n                /* \"#utility.yul\":5464:5583   */\n              iszero\n              tag_210\n              jumpi\n                /* \"#utility.yul\":5502:5581   */\n              tag_211\n              tag_112\n              jump\t// in\n            tag_211:\n                /* \"#utility.yul\":5464:5583   */\n            tag_210:\n                /* \"#utility.yul\":5622:5623   */\n              0x00\n                /* \"#utility.yul\":5647:5708   */\n              tag_212\n                /* \"#utility.yul\":5700:5707   */\n              dup5\n                /* \"#utility.yul\":5691:5697   */\n              dup3\n                /* \"#utility.yul\":5680:5689   */\n              dup6\n                /* \"#utility.yul\":5676:5698   */\n              add\n                /* \"#utility.yul\":5647:5708   */\n              tag_132\n              jump\t// in\n            tag_212:\n                /* \"#utility.yul\":5637:5708   */\n              swap2\n              pop\n                /* \"#utility.yul\":5593:5718   */\n              pop\n                /* \"#utility.yul\":5380:5725   */\n              swap3\n              swap2\n              pop\n              pop\n              jump\t// out\n                /* \"#utility.yul\":5731:6173   */\n            tag_92:\n                /* \"#utility.yul\":5880:5884   */\n              0x00\n                /* \"#utility.yul\":5918:5920   */\n              0x60\n                /* \"#utility.yul\":5907:5916   */\n              dup3\n                /* \"#utility.yul\":5903:5921   */\n              add\n                /* \"#utility.yul\":5895:5921   */\n              swap1\n              pop\n                /* \"#utility.yul\":5931:6002   */\n              tag_214\n                /* \"#utility.yul\":5999:6000   */\n              0x00\n                /* \"#utility.yul\":5988:5997   */\n              dup4\n                /* \"#utility.yul\":5984:6001   */\n              add\n                /* \"#utility.yul\":5975:5981   */\n              dup7\n                /* \"#utility.yul\":5931:6002   */\n              tag_129\n              jump\t// in\n            tag_214:\n                /* \"#utility.yul\":6012:6084   */\n              tag_215\n                /* \"#utility.yul\":6080:6082   */\n              0x20\n                /* \"#utility.yul\":6069:6078   */\n              dup4\n                /* \"#utility.yul\":6065:6083   */\n              add\n                /* \"#utility.yul\":6056:6062   */\n              dup6\n                /* \"#utility.yul\":6012:6084   */\n              tag_129\n              jump\t// in\n            tag_215:\n                /* \"#utility.yul\":6094:6166   */\n              tag_216\n                /* \"#utility.yul\":6162:6164   */\n              0x40\n                /* \"#utility.yul\":6151:6160   */\n              dup4\n                /* \"#utility.yul\":6147:6165   */\n              add\n                /* \"#utility.yul\":6138:6144   */\n              dup5\n                /* \"#utility.yul\":6094:6166   */\n              tag_119\n              jump\t// in\n            tag_216:\n                /* \"#utility.yul\":5731:6173   */\n              swap5\n              swap4\n              pop\n              pop\n              pop\n              pop\n              jump\t// out\n\n            auxdata: 0xa2646970667358221220c1ea5d5a1fceb94a8e558593298e9643b790ba2b4c05551a423854d087ca399a64736f6c634300080e0033\n        }\n    }\n\n    auxdata: 0xa26469706673582212200f3c25e952e92003a908f5ecd256bb852e07d1181f200b5751f67bbd8da1d1da64736f6c634300080e0033\n}\n",
				"bytecode": {
					"linkReferences": {},
					"object": "608060405234801561001057600080fd5b50604051611ab1380380611ab1833981810160405281019061003291906100dc565b80600160006101000a81548173ffffffffffffffffffffffffffffffffffffffff021916908373ffffffffffffffffffffffffffffffffffffffff16021790555050610109565b600080fd5b600073ffffffffffffffffffffffffffffffffffffffff82169050919050565b60006100a98261007e565b9050919050565b6100b98161009e565b81146100c457600080fd5b50565b6000815190506100d6816100b0565b92915050565b6000602082840312156100f2576100f1610079565b5b6000610100848285016100c7565b91505092915050565b611999806101186000396000f3fe608060405234801561001057600080fd5b50600436106100885760003560e01c8063bbe4f6db1161005b578063bbe4f6db14610115578063e343361514610145578063efde4e6414610175578063f46901ed1461019357610088565b8063017e7e581461008d578063094b7415146100ab57806341d1de97146100c9578063a2e74af6146100f9575b600080fd5b6100956101af565b6040516100a29190610720565b60405180910390f35b6100b36101d3565b6040516100c09190610720565b60405180910390f35b6100e360048036038101906100de9190610776565b6101f9565b6040516100f09190610720565b60405180910390f35b610113600480360381019061010e91906107cf565b610238565b005b61012f600480360381019061012a91906107cf565b61030c565b60405161013c9190610720565b60405180910390f35b61015f600480360381019061015a91906107fc565b61033f565b60405161016c9190610720565b60405180910390f35b61017d6105f2565b60405161018a919061084b565b60405180910390f35b6101ad60048036038101906101a891906107cf565b6105ff565b005b60008054906101000a900473ffffffffffffffffffffffffffffffffffffffff1681565b600160009054906101000a900473ffffffffffffffffffffffffffffffffffffffff1681565b6003818154811061020957600080fd5b906000526020600020016000915054906101000a900473ffffffffffffffffffffffffffffffffffffffff1681565b600160009054906101000a900473ffffffffffffffffffffffffffffffffffffffff1673ffffffffffffffffffffffffffffffffffffffff163373ffffffffffffffffffffffffffffffffffffffff16146102c8576040517f08c379a00000000000000000000000000000000000000000000000000000000081526004016102bf906108c3565b60405180910390fd5b80600160006101000a81548173ffffffffffffffffffffffffffffffffffffffff021916908373ffffffffffffffffffffffffffffffffffffffff16021790555050565b60026020528060005260406000206000915054906101000a900473ffffffffffffffffffffffffffffffffffffffff1681565b60008073ffffffffffffffffffffffffffffffffffffffff168373ffffffffffffffffffffffffffffffffffffffff16036103af576040517f08c379a00000000000000000000000000000000000000000000000000000000081526004016103a69061092f565b60405180910390fd5b600073ffffffffffffffffffffffffffffffffffffffff16600260008573ffffffffffffffffffffffffffffffffffffffff1673ffffffffffffffffffffffffffffffffffffffff16815260200190815260200160002060009054906101000a900473ffffffffffffffffffffffffffffffffffffffff1673ffffffffffffffffffffffffffffffffffffffff161461047d576040517f08c379a00000000000000000000000000000000000000000000000000000000081526004016104749061099b565b60405180910390fd5b6000838360405161048d906106d2565b6104989291906109bb565b604051809103906000f0801580156104b4573d6000803e3d6000fd5b50905080600260008673ffffffffffffffffffffffffffffffffffffffff1673ffffffffffffffffffffffffffffffffffffffff16815260200190815260200160002060006101000a81548173ffffffffffffffffffffffffffffffffffffffff021916908373ffffffffffffffffffffffffffffffffffffffff1602179055506003819080600181540180825580915050600190039060005260206000200160009091909190916101000a81548173ffffffffffffffffffffffffffffffffffffffff021916908373ffffffffffffffffffffffffffffffffffffffff1602179055508373ffffffffffffffffffffffffffffffffffffffff167ff8a0462f666b427ea753848be7e91f9ce413975906f6f39950be296ca9a4d52482426040516105e09291906109e4565b60405180910390a28091505092915050565b6000600380549050905090565b600160009054906101000a900473ffffffffffffffffffffffffffffffffffffffff1673ffffffffffffffffffffffffffffffffffffffff163373ffffffffffffffffffffffffffffffffffffffff161461068f576040517f08c379a0000000000000000000000000000000000000000000000000000000008152600401610686906108c3565b60405180910390fd5b806000806101000a81548173ffffffffffffffffffffffffffffffffffffffff021916908373ffffffffffffffffffffffffffffffffffffffff16021790555050565b610f5680610a0e83390190565b600073ffffffffffffffffffffffffffffffffffffffff82169050919050565b600061070a826106df565b9050919050565b61071a816106ff565b82525050565b60006020820190506107356000830184610711565b92915050565b600080fd5b6000819050919050565b61075381610740565b811461075e57600080fd5b50565b6000813590506107708161074a565b92915050565b60006020828403121561078c5761078b61073b565b5b600061079a84828501610761565b91505092915050565b6107ac816106ff565b81146107b757600080fd5b50565b6000813590506107c9816107a3565b92915050565b6000602082840312156107e5576107e461073b565b5b60006107f3848285016107ba565b91505092915050565b600080604083850312156108135761081261073b565b5b6000610821858286016107ba565b9250506020610832858286016107ba565b9150509250929050565b61084581610740565b82525050565b6000602082019050610860600083018461083c565b92915050565b600082825260208201905092915050565b7f464f5242494444454e0000000000000000000000000000000000000000000000600082015250565b60006108ad600983610866565b91506108b882610877565b602082019050919050565b600060208201905081810360008301526108dc816108a0565b9050919050565b7f5a45524f5f414444524553530000000000000000000000000000000000000000600082015250565b6000610919600c83610866565b9150610924826108e3565b602082019050919050565b600060208201905081810360008301526109488161090c565b9050919050565b7f504149525f455849535453000000000000000000000000000000000000000000600082015250565b6000610985600b83610866565b91506109908261094f565b602082019050919050565b600060208201905081810360008301526109b481610978565b9050919050565b60006040820190506109d06000830185610711565b6109dd6020830184610711565b9392505050565b60006040820190506109f96000830185610711565b610a06602083018461083c565b939250505056fe608060405260646002553480156200001657600080fd5b5060405162000f5638038062000f5683398181016040528101906200003c91906200012f565b81600160006101000a81548173ffffffffffffffffffffffffffffffffffffffff021916908373ffffffffffffffffffffffffffffffffffffffff160217905550806000806101000a81548173ffffffffffffffffffffffffffffffffffffffff021916908373ffffffffffffffffffffffffffffffffffffffff160217905550505062000176565b600080fd5b600073ffffffffffffffffffffffffffffffffffffffff82169050919050565b6000620000f782620000ca565b9050919050565b6200010981620000ea565b81146200011557600080fd5b50565b6000815190506200012981620000fe565b92915050565b60008060408385031215620001495762000148620000c5565b5b6000620001598582860162000118565b92505060206200016c8582860162000118565b9150509250929050565b610dd080620001866000396000f3fe608060405234801561001057600080fd5b50600436106100ce5760003560e01c806395d7885b1161008c578063cd3daf9d11610066578063cd3daf9d14610213578063d1af0c7d14610231578063d52762461461024f578063df136d6514610259576100ce565b806395d7885b146101a9578063a694fc3a146101d9578063c8f33c91146101f5576100ce565b80628cc262146100d35780630700037d146101035780632e1a7d4d146101335780633eaaf86b1461014f57806372f702f31461016d5780637b0a47ee1461018b575b600080fd5b6100ed60048036038101906100e89190610a1f565b610277565b6040516100fa9190610a65565b60405180910390f35b61011d60048036038101906101189190610a1f565b610379565b60405161012a9190610a65565b60405180910390f35b61014d60048036038101906101489190610aac565b610391565b005b61015761054d565b6040516101649190610a65565b60405180910390f35b610175610553565b6040516101829190610b38565b60405180910390f35b610193610579565b6040516101a09190610a65565b60405180910390f35b6101c360048036038101906101be9190610a1f565b61057f565b6040516101d09190610a65565b60405180910390f35b6101f360048036038101906101ee9190610aac565b610597565b005b6101fd610755565b60405161020a9190610a65565b60405180910390f35b61021b61075b565b6040516102289190610a65565b60405180910390f35b6102396107be565b6040516102469190610b38565b60405180910390f35b6102576107e2565b005b6102616109b6565b60405161026e9190610a65565b60405180910390f35b6000600560008373ffffffffffffffffffffffffffffffffffffffff1673ffffffffffffffffffffffffffffffffffffffff16815260200190815260200160002054670de0b6b3a7640000600660008573ffffffffffffffffffffffffffffffffffffffff1673ffffffffffffffffffffffffffffffffffffffff1681526020019081526020016000205461030a61075b565b6103149190610b82565b600760008673ffffffffffffffffffffffffffffffffffffffff1673ffffffffffffffffffffffffffffffffffffffff1681526020019081526020016000205461035e9190610bb6565b6103689190610c3f565b6103729190610c70565b9050919050565b60056020528060005260406000206000915090505481565b3361039a61075b565b600481905550426003819055506103b081610277565b600560008373ffffffffffffffffffffffffffffffffffffffff1673ffffffffffffffffffffffffffffffffffffffff16815260200190815260200160002081905550600454600660008373ffffffffffffffffffffffffffffffffffffffff1673ffffffffffffffffffffffffffffffffffffffff16815260200190815260200160002081905550816008600082825461044b9190610b82565b9250508190555081600760003373ffffffffffffffffffffffffffffffffffffffff1673ffffffffffffffffffffffffffffffffffffffff16815260200190815260200160002060008282546104a19190610b82565b92505081905550600160009054906101000a900473ffffffffffffffffffffffffffffffffffffffff1673ffffffffffffffffffffffffffffffffffffffff1663a9059cbb33846040518363ffffffff1660e01b8152600401610505929190610cd5565b6020604051808303816000875af1158015610524573d6000803e3d6000fd5b505050506040513d601f19601f820116820180604052508101906105489190610d36565b505050565b60085481565b600160009054906101000a900473ffffffffffffffffffffffffffffffffffffffff1681565b60025481565b60066020528060005260406000206000915090505481565b336105a061075b565b600481905550426003819055506105b681610277565b600560008373ffffffffffffffffffffffffffffffffffffffff1673ffffffffffffffffffffffffffffffffffffffff16815260200190815260200160002081905550600454600660008373ffffffffffffffffffffffffffffffffffffffff1673ffffffffffffffffffffffffffffffffffffffff1681526020019081526020016000208190555081600860008282546106519190610c70565b9250508190555081600760003373ffffffffffffffffffffffffffffffffffffffff1673ffffffffffffffffffffffffffffffffffffffff16815260200190815260200160002060008282546106a79190610c70565b92505081905550600160009054906101000a900473ffffffffffffffffffffffffffffffffffffffff1673ffffffffffffffffffffffffffffffffffffffff166323b872dd3330856040518463ffffffff1660e01b815260040161070d93929190610d63565b6020604051808303816000875af115801561072c573d6000803e3d6000fd5b505050506040513d601f19601f820116820180604052508101906107509190610d36565b505050565b60035481565b600080600854036107705760045490506107bb565b600854670de0b6b3a76400006002546003544261078d9190610b82565b6107979190610bb6565b6107a19190610bb6565b6107ab9190610c3f565b6004546107b89190610c70565b90505b90565b60008054906101000a900473ffffffffffffffffffffffffffffffffffffffff1681565b336107eb61075b565b6004819055504260038190555061080181610277565b600560008373ffffffffffffffffffffffffffffffffffffffff1673ffffffffffffffffffffffffffffffffffffffff16815260200190815260200160002081905550600454600660008373ffffffffffffffffffffffffffffffffffffffff1673ffffffffffffffffffffffffffffffffffffffff168152602001908152602001600020819055506000600560003373ffffffffffffffffffffffffffffffffffffffff1673ffffffffffffffffffffffffffffffffffffffff1681526020019081526020016000205490506000600560003373ffffffffffffffffffffffffffffffffffffffff1673ffffffffffffffffffffffffffffffffffffffff1681526020019081526020016000208190555060008054906101000a900473ffffffffffffffffffffffffffffffffffffffff1673ffffffffffffffffffffffffffffffffffffffff1663a9059cbb33836040518363ffffffff1660e01b815260040161096e929190610cd5565b6020604051808303816000875af115801561098d573d6000803e3d6000fd5b505050506040513d601f19601f820116820180604052508101906109b19190610d36565b505050565b60045481565b600080fd5b600073ffffffffffffffffffffffffffffffffffffffff82169050919050565b60006109ec826109c1565b9050919050565b6109fc816109e1565b8114610a0757600080fd5b50565b600081359050610a19816109f3565b92915050565b600060208284031215610a3557610a346109bc565b5b6000610a4384828501610a0a565b91505092915050565b6000819050919050565b610a5f81610a4c565b82525050565b6000602082019050610a7a6000830184610a56565b92915050565b610a8981610a4c565b8114610a9457600080fd5b50565b600081359050610aa681610a80565b92915050565b600060208284031215610ac257610ac16109bc565b5b6000610ad084828501610a97565b91505092915050565b6000819050919050565b6000610afe610af9610af4846109c1565b610ad9565b6109c1565b9050919050565b6000610b1082610ae3565b9050919050565b6000610b2282610b05565b9050919050565b610b3281610b17565b82525050565b6000602082019050610b4d6000830184610b29565b92915050565b7f4e487b7100000000000000000000000000000000000000000000000000000000600052601160045260246000fd5b6000610b8d82610a4c565b9150610b9883610a4c565b925082821015610bab57610baa610b53565b5b828203905092915050565b6000610bc182610a4c565b9150610bcc83610a4c565b9250817fffffffffffffffffffffffffffffffffffffffffffffffffffffffffffffffff0483118215151615610c0557610c04610b53565b5b828202905092915050565b7f4e487b7100000000000000000000000000000000000000000000000000000000600052601260045260246000fd5b6000610c4a82610a4c565b9150610c5583610a4c565b925082610c6557610c64610c10565b5b828204905092915050565b6000610c7b82610a4c565b9150610c8683610a4c565b9250827fffffffffffffffffffffffffffffffffffffffffffffffffffffffffffffffff03821115610cbb57610cba610b53565b5b828201905092915050565b610ccf816109e1565b82525050565b6000604082019050610cea6000830185610cc6565b610cf76020830184610a56565b9392505050565b60008115159050919050565b610d1381610cfe565b8114610d1e57600080fd5b50565b600081519050610d3081610d0a565b92915050565b600060208284031215610d4c57610d4b6109bc565b5b6000610d5a84828501610d21565b91505092915050565b6000606082019050610d786000830186610cc6565b610d856020830185610cc6565b610d926040830184610a56565b94935050505056fea2646970667358221220c1ea5d5a1fceb94a8e558593298e9643b790ba2b4c05551a423854d087ca399a64736f6c634300080e0033a26469706673582212200f3c25e952e92003a908f5ecd256bb852e07d1181f200b5751f67bbd8da1d1da64736f6c634300080e0033",
					"opcodes": "PUSH1 0x80 PUSH1 0x40 MSTORE CALLVALUE DUP1 ISZERO PUSH2 0x10 JUMPI PUSH1 0x0 DUP1 REVERT JUMPDEST POP PUSH1 0x40 MLOAD PUSH2 0x1AB1 CODESIZE SUB DUP1 PUSH2 0x1AB1 DUP4 CODECOPY DUP2 DUP2 ADD PUSH1 0x40 MSTORE DUP2 ADD SWAP1 PUSH2 0x32 SWAP2 SWAP1 PUSH2 0xDC JUMP JUMPDEST DUP1 PUSH1 0x1 PUSH1 0x0 PUSH2 0x100 EXP DUP2 SLOAD DUP2 PUSH20 0xFFFFFFFFFFFFFFFFFFFFFFFFFFFFFFFFFFFFFFFF MUL NOT AND SWAP1 DUP4 PUSH20 0xFFFFFFFFFFFFFFFFFFFFFFFFFFFFFFFFFFFFFFFF AND MUL OR SWAP1 SSTORE POP POP PUSH2 0x109 JUMP JUMPDEST PUSH1 0x0 DUP1 REVERT JUMPDEST PUSH1 0x0 PUSH20 0xFFFFFFFFFFFFFFFFFFFFFFFFFFFFFFFFFFFFFFFF DUP3 AND SWAP1 POP SWAP2 SWAP1 POP JUMP JUMPDEST PUSH1 0x0 PUSH2 0xA9 DUP3 PUSH2 0x7E JUMP JUMPDEST SWAP1 POP SWAP2 SWAP1 POP JUMP JUMPDEST PUSH2 0xB9 DUP2 PUSH2 0x9E JUMP JUMPDEST DUP2 EQ PUSH2 0xC4 JUMPI PUSH1 0x0 DUP1 REVERT JUMPDEST POP JUMP JUMPDEST PUSH1 0x0 DUP2 MLOAD SWAP1 POP PUSH2 0xD6 DUP2 PUSH2 0xB0 JUMP JUMPDEST SWAP3 SWAP2 POP POP JUMP JUMPDEST PUSH1 0x0 PUSH1 0x20 DUP3 DUP5 SUB SLT ISZERO PUSH2 0xF2 JUMPI PUSH2 0xF1 PUSH2 0x79 JUMP JUMPDEST JUMPDEST PUSH1 0x0 PUSH2 0x100 DUP5 DUP3 DUP6 ADD PUSH2 0xC7 JUMP JUMPDEST SWAP2 POP POP SWAP3 SWAP2 POP POP JUMP JUMPDEST PUSH2 0x1999 DUP1 PUSH2 0x118 PUSH1 0x0 CODECOPY PUSH1 0x0 RETURN INVALID PUSH1 0x80 PUSH1 0x40 MSTORE CALLVALUE DUP1 ISZERO PUSH2 0x10 JUMPI PUSH1 0x0 DUP1 REVERT JUMPDEST POP PUSH1 0x4 CALLDATASIZE LT PUSH2 0x88 JUMPI PUSH1 0x0 CALLDATALOAD PUSH1 0xE0 SHR DUP1 PUSH4 0xBBE4F6DB GT PUSH2 0x5B JUMPI DUP1 PUSH4 0xBBE4F6DB EQ PUSH2 0x115 JUMPI DUP1 PUSH4 0xE3433615 EQ PUSH2 0x145 JUMPI DUP1 PUSH4 0xEFDE4E64 EQ PUSH2 0x175 JUMPI DUP1 PUSH4 0xF46901ED EQ PUSH2 0x193 JUMPI PUSH2 0x88 JUMP JUMPDEST DUP1 PUSH4 0x17E7E58 EQ PUSH2 0x8D JUMPI DUP1 PUSH4 0x94B7415 EQ PUSH2 0xAB JUMPI DUP1 PUSH4 0x41D1DE97 EQ PUSH2 0xC9 JUMPI DUP1 PUSH4 0xA2E74AF6 EQ PUSH2 0xF9 JUMPI JUMPDEST PUSH1 0x0 DUP1 REVERT JUMPDEST PUSH2 0x95 PUSH2 0x1AF JUMP JUMPDEST PUSH1 0x40 MLOAD PUSH2 0xA2 SWAP2 SWAP1 PUSH2 0x720 JUMP JUMPDEST PUSH1 0x40 MLOAD DUP1 SWAP2 SUB SWAP1 RETURN JUMPDEST PUSH2 0xB3 PUSH2 0x1D3 JUMP JUMPDEST PUSH1 0x40 MLOAD PUSH2 0xC0 SWAP2 SWAP1 PUSH2 0x720 JUMP JUMPDEST PUSH1 0x40 MLOAD DUP1 SWAP2 SUB SWAP1 RETURN JUMPDEST PUSH2 0xE3 PUSH1 0x4 DUP1 CALLDATASIZE SUB DUP2 ADD SWAP1 PUSH2 0xDE SWAP2 SWAP1 PUSH2 0x776 JUMP JUMPDEST PUSH2 0x1F9 JUMP JUMPDEST PUSH1 0x40 MLOAD PUSH2 0xF0 SWAP2 SWAP1 PUSH2 0x720 JUMP JUMPDEST PUSH1 0x40 MLOAD DUP1 SWAP2 SUB SWAP1 RETURN JUMPDEST PUSH2 0x113 PUSH1 0x4 DUP1 CALLDATASIZE SUB DUP2 ADD SWAP1 PUSH2 0x10E SWAP2 SWAP1 PUSH2 0x7CF JUMP JUMPDEST PUSH2 0x238 JUMP JUMPDEST STOP JUMPDEST PUSH2 0x12F PUSH1 0x4 DUP1 CALLDATASIZE SUB DUP2 ADD SWAP1 PUSH2 0x12A SWAP2 SWAP1 PUSH2 0x7CF JUMP JUMPDEST PUSH2 0x30C JUMP JUMPDEST PUSH1 0x40 MLOAD PUSH2 0x13C SWAP2 SWAP1 PUSH2 0x720 JUMP JUMPDEST PUSH1 0x40 MLOAD DUP1 SWAP2 SUB SWAP1 RETURN JUMPDEST PUSH2 0x15F PUSH1 0x4 DUP1 CALLDATASIZE SUB DUP2 ADD SWAP1 PUSH2 0x15A SWAP2 SWAP1 PUSH2 0x7FC JUMP JUMPDEST PUSH2 0x33F JUMP JUMPDEST PUSH1 0x40 MLOAD PUSH2 0x16C SWAP2 SWAP1 PUSH2 0x720 JUMP JUMPDEST PUSH1 0x40 MLOAD DUP1 SWAP2 SUB SWAP1 RETURN JUMPDEST PUSH2 0x17D PUSH2 0x5F2 JUMP JUMPDEST PUSH1 0x40 MLOAD PUSH2 0x18A SWAP2 SWAP1 PUSH2 0x84B JUMP JUMPDEST PUSH1 0x40 MLOAD DUP1 SWAP2 SUB SWAP1 RETURN JUMPDEST PUSH2 0x1AD PUSH1 0x4 DUP1 CALLDATASIZE SUB DUP2 ADD SWAP1 PUSH2 0x1A8 SWAP2 SWAP1 PUSH2 0x7CF JUMP JUMPDEST PUSH2 0x5FF JUMP JUMPDEST STOP JUMPDEST PUSH1 0x0 DUP1 SLOAD SWAP1 PUSH2 0x100 EXP SWAP1 DIV PUSH20 0xFFFFFFFFFFFFFFFFFFFFFFFFFFFFFFFFFFFFFFFF AND DUP2 JUMP JUMPDEST PUSH1 0x1 PUSH1 0x0 SWAP1 SLOAD SWAP1 PUSH2 0x100 EXP SWAP1 DIV PUSH20 0xFFFFFFFFFFFFFFFFFFFFFFFFFFFFFFFFFFFFFFFF AND DUP2 JUMP JUMPDEST PUSH1 0x3 DUP2 DUP2 SLOAD DUP2 LT PUSH2 0x209 JUMPI PUSH1 0x0 DUP1 REVERT JUMPDEST SWAP1 PUSH1 0x0 MSTORE PUSH1 0x20 PUSH1 0x0 KECCAK256 ADD PUSH1 0x0 SWAP2 POP SLOAD SWAP1 PUSH2 0x100 EXP SWAP1 DIV PUSH20 0xFFFFFFFFFFFFFFFFFFFFFFFFFFFFFFFFFFFFFFFF AND DUP2 JUMP JUMPDEST PUSH1 0x1 PUSH1 0x0 SWAP1 SLOAD SWAP1 PUSH2 0x100 EXP SWAP1 DIV PUSH20 0xFFFFFFFFFFFFFFFFFFFFFFFFFFFFFFFFFFFFFFFF AND PUSH20 0xFFFFFFFFFFFFFFFFFFFFFFFFFFFFFFFFFFFFFFFF AND CALLER PUSH20 0xFFFFFFFFFFFFFFFFFFFFFFFFFFFFFFFFFFFFFFFF AND EQ PUSH2 0x2C8 JUMPI PUSH1 0x40 MLOAD PUSH32 0x8C379A000000000000000000000000000000000000000000000000000000000 DUP2 MSTORE PUSH1 0x4 ADD PUSH2 0x2BF SWAP1 PUSH2 0x8C3 JUMP JUMPDEST PUSH1 0x40 MLOAD DUP1 SWAP2 SUB SWAP1 REVERT JUMPDEST DUP1 PUSH1 0x1 PUSH1 0x0 PUSH2 0x100 EXP DUP2 SLOAD DUP2 PUSH20 0xFFFFFFFFFFFFFFFFFFFFFFFFFFFFFFFFFFFFFFFF MUL NOT AND SWAP1 DUP4 PUSH20 0xFFFFFFFFFFFFFFFFFFFFFFFFFFFFFFFFFFFFFFFF AND MUL OR SWAP1 SSTORE POP POP JUMP JUMPDEST PUSH1 0x2 PUSH1 0x20 MSTORE DUP1 PUSH1 0x0 MSTORE PUSH1 0x40 PUSH1 0x0 KECCAK256 PUSH1 0x0 SWAP2 POP SLOAD SWAP1 PUSH2 0x100 EXP SWAP1 DIV PUSH20 0xFFFFFFFFFFFFFFFFFFFFFFFFFFFFFFFFFFFFFFFF AND DUP2 JUMP JUMPDEST PUSH1 0x0 DUP1 PUSH20 0xFFFFFFFFFFFFFFFFFFFFFFFFFFFFFFFFFFFFFFFF AND DUP4 PUSH20 0xFFFFFFFFFFFFFFFFFFFFFFFFFFFFFFFFFFFFFFFF AND SUB PUSH2 0x3AF JUMPI PUSH1 0x40 MLOAD PUSH32 0x8C379A000000000000000000000000000000000000000000000000000000000 DUP2 MSTORE PUSH1 0x4 ADD PUSH2 0x3A6 SWAP1 PUSH2 0x92F JUMP JUMPDEST PUSH1 0x40 MLOAD DUP1 SWAP2 SUB SWAP1 REVERT JUMPDEST PUSH1 0x0 PUSH20 0xFFFFFFFFFFFFFFFFFFFFFFFFFFFFFFFFFFFFFFFF AND PUSH1 0x2 PUSH1 0x0 DUP6 PUSH20 0xFFFFFFFFFFFFFFFFFFFFFFFFFFFFFFFFFFFFFFFF AND PUSH20 0xFFFFFFFFFFFFFFFFFFFFFFFFFFFFFFFFFFFFFFFF AND DUP2 MSTORE PUSH1 0x20 ADD SWAP1 DUP2 MSTORE PUSH1 0x20 ADD PUSH1 0x0 KECCAK256 PUSH1 0x0 SWAP1 SLOAD SWAP1 PUSH2 0x100 EXP SWAP1 DIV PUSH20 0xFFFFFFFFFFFFFFFFFFFFFFFFFFFFFFFFFFFFFFFF AND PUSH20 0xFFFFFFFFFFFFFFFFFFFFFFFFFFFFFFFFFFFFFFFF AND EQ PUSH2 0x47D JUMPI PUSH1 0x40 MLOAD PUSH32 0x8C379A000000000000000000000000000000000000000000000000000000000 DUP2 MSTORE PUSH1 0x4 ADD PUSH2 0x474 SWAP1 PUSH2 0x99B JUMP JUMPDEST PUSH1 0x40 MLOAD DUP1 SWAP2 SUB SWAP1 REVERT JUMPDEST PUSH1 0x0 DUP4 DUP4 PUSH1 0x40 MLOAD PUSH2 0x48D SWAP1 PUSH2 0x6D2 JUMP JUMPDEST PUSH2 0x498 SWAP3 SWAP2 SWAP1 PUSH2 0x9BB JUMP JUMPDEST PUSH1 0x40 MLOAD DUP1 SWAP2 SUB SWAP1 PUSH1 0x0 CREATE DUP1 ISZERO DUP1 ISZERO PUSH2 0x4B4 JUMPI RETURNDATASIZE PUSH1 0x0 DUP1 RETURNDATACOPY RETURNDATASIZE PUSH1 0x0 REVERT JUMPDEST POP SWAP1 POP DUP1 PUSH1 0x2 PUSH1 0x0 DUP7 PUSH20 0xFFFFFFFFFFFFFFFFFFFFFFFFFFFFFFFFFFFFFFFF AND PUSH20 0xFFFFFFFFFFFFFFFFFFFFFFFFFFFFFFFFFFFFFFFF AND DUP2 MSTORE PUSH1 0x20 ADD SWAP1 DUP2 MSTORE PUSH1 0x20 ADD PUSH1 0x0 KECCAK256 PUSH1 0x0 PUSH2 0x100 EXP DUP2 SLOAD DUP2 PUSH20 0xFFFFFFFFFFFFFFFFFFFFFFFFFFFFFFFFFFFFFFFF MUL NOT AND SWAP1 DUP4 PUSH20 0xFFFFFFFFFFFFFFFFFFFFFFFFFFFFFFFFFFFFFFFF AND MUL OR SWAP1 SSTORE POP PUSH1 0x3 DUP2 SWAP1 DUP1 PUSH1 0x1 DUP2 SLOAD ADD DUP1 DUP3 SSTORE DUP1 SWAP2 POP POP PUSH1 0x1 SWAP1 SUB SWAP1 PUSH1 0x0 MSTORE PUSH1 0x20 PUSH1 0x0 KECCAK256 ADD PUSH1 0x0 SWAP1 SWAP2 SWAP1 SWAP2 SWAP1 SWAP2 PUSH2 0x100 EXP DUP2 SLOAD DUP2 PUSH20 0xFFFFFFFFFFFFFFFFFFFFFFFFFFFFFFFFFFFFFFFF MUL NOT AND SWAP1 DUP4 PUSH20 0xFFFFFFFFFFFFFFFFFFFFFFFFFFFFFFFFFFFFFFFF AND MUL OR SWAP1 SSTORE POP DUP4 PUSH20 0xFFFFFFFFFFFFFFFFFFFFFFFFFFFFFFFFFFFFFFFF AND PUSH32 0xF8A0462F666B427EA753848BE7E91F9CE413975906F6F39950BE296CA9A4D524 DUP3 TIMESTAMP PUSH1 0x40 MLOAD PUSH2 0x5E0 SWAP3 SWAP2 SWAP1 PUSH2 0x9E4 JUMP JUMPDEST PUSH1 0x40 MLOAD DUP1 SWAP2 SUB SWAP1 LOG2 DUP1 SWAP2 POP POP SWAP3 SWAP2 POP POP JUMP JUMPDEST PUSH1 0x0 PUSH1 0x3 DUP1 SLOAD SWAP1 POP SWAP1 POP SWAP1 JUMP JUMPDEST PUSH1 0x1 PUSH1 0x0 SWAP1 SLOAD SWAP1 PUSH2 0x100 EXP SWAP1 DIV PUSH20 0xFFFFFFFFFFFFFFFFFFFFFFFFFFFFFFFFFFFFFFFF AND PUSH20 0xFFFFFFFFFFFFFFFFFFFFFFFFFFFFFFFFFFFFFFFF AND CALLER PUSH20 0xFFFFFFFFFFFFFFFFFFFFFFFFFFFFFFFFFFFFFFFF AND EQ PUSH2 0x68F JUMPI PUSH1 0x40 MLOAD PUSH32 0x8C379A000000000000000000000000000000000000000000000000000000000 DUP2 MSTORE PUSH1 0x4 ADD PUSH2 0x686 SWAP1 PUSH2 0x8C3 JUMP JUMPDEST PUSH1 0x40 MLOAD DUP1 SWAP2 SUB SWAP1 REVERT JUMPDEST DUP1 PUSH1 0x0 DUP1 PUSH2 0x100 EXP DUP2 SLOAD DUP2 PUSH20 0xFFFFFFFFFFFFFFFFFFFFFFFFFFFFFFFFFFFFFFFF MUL NOT AND SWAP1 DUP4 PUSH20 0xFFFFFFFFFFFFFFFFFFFFFFFFFFFFFFFFFFFFFFFF AND MUL OR SWAP1 SSTORE POP POP JUMP JUMPDEST PUSH2 0xF56 DUP1 PUSH2 0xA0E DUP4 CODECOPY ADD SWAP1 JUMP JUMPDEST PUSH1 0x0 PUSH20 0xFFFFFFFFFFFFFFFFFFFFFFFFFFFFFFFFFFFFFFFF DUP3 AND SWAP1 POP SWAP2 SWAP1 POP JUMP JUMPDEST PUSH1 0x0 PUSH2 0x70A DUP3 PUSH2 0x6DF JUMP JUMPDEST SWAP1 POP SWAP2 SWAP1 POP JUMP JUMPDEST PUSH2 0x71A DUP2 PUSH2 0x6FF JUMP JUMPDEST DUP3 MSTORE POP POP JUMP JUMPDEST PUSH1 0x0 PUSH1 0x20 DUP3 ADD SWAP1 POP PUSH2 0x735 PUSH1 0x0 DUP4 ADD DUP5 PUSH2 0x711 JUMP JUMPDEST SWAP3 SWAP2 POP POP JUMP JUMPDEST PUSH1 0x0 DUP1 REVERT JUMPDEST PUSH1 0x0 DUP2 SWAP1 POP SWAP2 SWAP1 POP JUMP JUMPDEST PUSH2 0x753 DUP2 PUSH2 0x740 JUMP JUMPDEST DUP2 EQ PUSH2 0x75E JUMPI PUSH1 0x0 DUP1 REVERT JUMPDEST POP JUMP JUMPDEST PUSH1 0x0 DUP2 CALLDATALOAD SWAP1 POP PUSH2 0x770 DUP2 PUSH2 0x74A JUMP JUMPDEST SWAP3 SWAP2 POP POP JUMP JUMPDEST PUSH1 0x0 PUSH1 0x20 DUP3 DUP5 SUB SLT ISZERO PUSH2 0x78C JUMPI PUSH2 0x78B PUSH2 0x73B JUMP JUMPDEST JUMPDEST PUSH1 0x0 PUSH2 0x79A DUP5 DUP3 DUP6 ADD PUSH2 0x761 JUMP JUMPDEST SWAP2 POP POP SWAP3 SWAP2 POP POP JUMP JUMPDEST PUSH2 0x7AC DUP2 PUSH2 0x6FF JUMP JUMPDEST DUP2 EQ PUSH2 0x7B7 JUMPI PUSH1 0x0 DUP1 REVERT JUMPDEST POP JUMP JUMPDEST PUSH1 0x0 DUP2 CALLDATALOAD SWAP1 POP PUSH2 0x7C9 DUP2 PUSH2 0x7A3 JUMP JUMPDEST SWAP3 SWAP2 POP POP JUMP JUMPDEST PUSH1 0x0 PUSH1 0x20 DUP3 DUP5 SUB SLT ISZERO PUSH2 0x7E5 JUMPI PUSH2 0x7E4 PUSH2 0x73B JUMP JUMPDEST JUMPDEST PUSH1 0x0 PUSH2 0x7F3 DUP5 DUP3 DUP6 ADD PUSH2 0x7BA JUMP JUMPDEST SWAP2 POP POP SWAP3 SWAP2 POP POP JUMP JUMPDEST PUSH1 0x0 DUP1 PUSH1 0x40 DUP4 DUP6 SUB SLT ISZERO PUSH2 0x813 JUMPI PUSH2 0x812 PUSH2 0x73B JUMP JUMPDEST JUMPDEST PUSH1 0x0 PUSH2 0x821 DUP6 DUP3 DUP7 ADD PUSH2 0x7BA JUMP JUMPDEST SWAP3 POP POP PUSH1 0x20 PUSH2 0x832 DUP6 DUP3 DUP7 ADD PUSH2 0x7BA JUMP JUMPDEST SWAP2 POP POP SWAP3 POP SWAP3 SWAP1 POP JUMP JUMPDEST PUSH2 0x845 DUP2 PUSH2 0x740 JUMP JUMPDEST DUP3 MSTORE POP POP JUMP JUMPDEST PUSH1 0x0 PUSH1 0x20 DUP3 ADD SWAP1 POP PUSH2 0x860 PUSH1 0x0 DUP4 ADD DUP5 PUSH2 0x83C JUMP JUMPDEST SWAP3 SWAP2 POP POP JUMP JUMPDEST PUSH1 0x0 DUP3 DUP3 MSTORE PUSH1 0x20 DUP3 ADD SWAP1 POP SWAP3 SWAP2 POP POP JUMP JUMPDEST PUSH32 0x464F5242494444454E0000000000000000000000000000000000000000000000 PUSH1 0x0 DUP3 ADD MSTORE POP JUMP JUMPDEST PUSH1 0x0 PUSH2 0x8AD PUSH1 0x9 DUP4 PUSH2 0x866 JUMP JUMPDEST SWAP2 POP PUSH2 0x8B8 DUP3 PUSH2 0x877 JUMP JUMPDEST PUSH1 0x20 DUP3 ADD SWAP1 POP SWAP2 SWAP1 POP JUMP JUMPDEST PUSH1 0x0 PUSH1 0x20 DUP3 ADD SWAP1 POP DUP2 DUP2 SUB PUSH1 0x0 DUP4 ADD MSTORE PUSH2 0x8DC DUP2 PUSH2 0x8A0 JUMP JUMPDEST SWAP1 POP SWAP2 SWAP1 POP JUMP JUMPDEST PUSH32 0x5A45524F5F414444524553530000000000000000000000000000000000000000 PUSH1 0x0 DUP3 ADD MSTORE POP JUMP JUMPDEST PUSH1 0x0 PUSH2 0x919 PUSH1 0xC DUP4 PUSH2 0x866 JUMP JUMPDEST SWAP2 POP PUSH2 0x924 DUP3 PUSH2 0x8E3 JUMP JUMPDEST PUSH1 0x20 DUP3 ADD SWAP1 POP SWAP2 SWAP1 POP JUMP JUMPDEST PUSH1 0x0 PUSH1 0x20 DUP3 ADD SWAP1 POP DUP2 DUP2 SUB PUSH1 0x0 DUP4 ADD MSTORE PUSH2 0x948 DUP2 PUSH2 0x90C JUMP JUMPDEST SWAP1 POP SWAP2 SWAP1 POP JUMP JUMPDEST PUSH32 0x504149525F455849535453000000000000000000000000000000000000000000 PUSH1 0x0 DUP3 ADD MSTORE POP JUMP JUMPDEST PUSH1 0x0 PUSH2 0x985 PUSH1 0xB DUP4 PUSH2 0x866 JUMP JUMPDEST SWAP2 POP PUSH2 0x990 DUP3 PUSH2 0x94F JUMP JUMPDEST PUSH1 0x20 DUP3 ADD SWAP1 POP SWAP2 SWAP1 POP JUMP JUMPDEST PUSH1 0x0 PUSH1 0x20 DUP3 ADD SWAP1 POP DUP2 DUP2 SUB PUSH1 0x0 DUP4 ADD MSTORE PUSH2 0x9B4 DUP2 PUSH2 0x978 JUMP JUMPDEST SWAP1 POP SWAP2 SWAP1 POP JUMP JUMPDEST PUSH1 0x0 PUSH1 0x40 DUP3 ADD SWAP1 POP PUSH2 0x9D0 PUSH1 0x0 DUP4 ADD DUP6 PUSH2 0x711 JUMP JUMPDEST PUSH2 0x9DD PUSH1 0x20 DUP4 ADD DUP5 PUSH2 0x711 JUMP JUMPDEST SWAP4 SWAP3 POP POP POP JUMP JUMPDEST PUSH1 0x0 PUSH1 0x40 DUP3 ADD SWAP1 POP PUSH2 0x9F9 PUSH1 0x0 DUP4 ADD DUP6 PUSH2 0x711 JUMP JUMPDEST PUSH2 0xA06 PUSH1 0x20 DUP4 ADD DUP5 PUSH2 0x83C JUMP JUMPDEST SWAP4 SWAP3 POP POP POP JUMP INVALID PUSH1 0x80 PUSH1 0x40 MSTORE PUSH1 0x64 PUSH1 0x2 SSTORE CALLVALUE DUP1 ISZERO PUSH3 0x16 JUMPI PUSH1 0x0 DUP1 REVERT JUMPDEST POP PUSH1 0x40 MLOAD PUSH3 0xF56 CODESIZE SUB DUP1 PUSH3 0xF56 DUP4 CODECOPY DUP2 DUP2 ADD PUSH1 0x40 MSTORE DUP2 ADD SWAP1 PUSH3 0x3C SWAP2 SWAP1 PUSH3 0x12F JUMP JUMPDEST DUP2 PUSH1 0x1 PUSH1 0x0 PUSH2 0x100 EXP DUP2 SLOAD DUP2 PUSH20 0xFFFFFFFFFFFFFFFFFFFFFFFFFFFFFFFFFFFFFFFF MUL NOT AND SWAP1 DUP4 PUSH20 0xFFFFFFFFFFFFFFFFFFFFFFFFFFFFFFFFFFFFFFFF AND MUL OR SWAP1 SSTORE POP DUP1 PUSH1 0x0 DUP1 PUSH2 0x100 EXP DUP2 SLOAD DUP2 PUSH20 0xFFFFFFFFFFFFFFFFFFFFFFFFFFFFFFFFFFFFFFFF MUL NOT AND SWAP1 DUP4 PUSH20 0xFFFFFFFFFFFFFFFFFFFFFFFFFFFFFFFFFFFFFFFF AND MUL OR SWAP1 SSTORE POP POP POP PUSH3 0x176 JUMP JUMPDEST PUSH1 0x0 DUP1 REVERT JUMPDEST PUSH1 0x0 PUSH20 0xFFFFFFFFFFFFFFFFFFFFFFFFFFFFFFFFFFFFFFFF DUP3 AND SWAP1 POP SWAP2 SWAP1 POP JUMP JUMPDEST PUSH1 0x0 PUSH3 0xF7 DUP3 PUSH3 0xCA JUMP JUMPDEST SWAP1 POP SWAP2 SWAP1 POP JUMP JUMPDEST PUSH3 0x109 DUP2 PUSH3 0xEA JUMP JUMPDEST DUP2 EQ PUSH3 0x115 JUMPI PUSH1 0x0 DUP1 REVERT JUMPDEST POP JUMP JUMPDEST PUSH1 0x0 DUP2 MLOAD SWAP1 POP PUSH3 0x129 DUP2 PUSH3 0xFE JUMP JUMPDEST SWAP3 SWAP2 POP POP JUMP JUMPDEST PUSH1 0x0 DUP1 PUSH1 0x40 DUP4 DUP6 SUB SLT ISZERO PUSH3 0x149 JUMPI PUSH3 0x148 PUSH3 0xC5 JUMP JUMPDEST JUMPDEST PUSH1 0x0 PUSH3 0x159 DUP6 DUP3 DUP7 ADD PUSH3 0x118 JUMP JUMPDEST SWAP3 POP POP PUSH1 0x20 PUSH3 0x16C DUP6 DUP3 DUP7 ADD PUSH3 0x118 JUMP JUMPDEST SWAP2 POP POP SWAP3 POP SWAP3 SWAP1 POP JUMP JUMPDEST PUSH2 0xDD0 DUP1 PUSH3 0x186 PUSH1 0x0 CODECOPY PUSH1 0x0 RETURN INVALID PUSH1 0x80 PUSH1 0x40 MSTORE CALLVALUE DUP1 ISZERO PUSH2 0x10 JUMPI PUSH1 0x0 DUP1 REVERT JUMPDEST POP PUSH1 0x4 CALLDATASIZE LT PUSH2 0xCE JUMPI PUSH1 0x0 CALLDATALOAD PUSH1 0xE0 SHR DUP1 PUSH4 0x95D7885B GT PUSH2 0x8C JUMPI DUP1 PUSH4 0xCD3DAF9D GT PUSH2 0x66 JUMPI DUP1 PUSH4 0xCD3DAF9D EQ PUSH2 0x213 JUMPI DUP1 PUSH4 0xD1AF0C7D EQ PUSH2 0x231 JUMPI DUP1 PUSH4 0xD5276246 EQ PUSH2 0x24F JUMPI DUP1 PUSH4 0xDF136D65 EQ PUSH2 0x259 JUMPI PUSH2 0xCE JUMP JUMPDEST DUP1 PUSH4 0x95D7885B EQ PUSH2 0x1A9 JUMPI DUP1 PUSH4 0xA694FC3A EQ PUSH2 0x1D9 JUMPI DUP1 PUSH4 0xC8F33C91 EQ PUSH2 0x1F5 JUMPI PUSH2 0xCE JUMP JUMPDEST DUP1 PUSH3 0x8CC262 EQ PUSH2 0xD3 JUMPI DUP1 PUSH4 0x700037D EQ PUSH2 0x103 JUMPI DUP1 PUSH4 0x2E1A7D4D EQ PUSH2 0x133 JUMPI DUP1 PUSH4 0x3EAAF86B EQ PUSH2 0x14F JUMPI DUP1 PUSH4 0x72F702F3 EQ PUSH2 0x16D JUMPI DUP1 PUSH4 0x7B0A47EE EQ PUSH2 0x18B JUMPI JUMPDEST PUSH1 0x0 DUP1 REVERT JUMPDEST PUSH2 0xED PUSH1 0x4 DUP1 CALLDATASIZE SUB DUP2 ADD SWAP1 PUSH2 0xE8 SWAP2 SWAP1 PUSH2 0xA1F JUMP JUMPDEST PUSH2 0x277 JUMP JUMPDEST PUSH1 0x40 MLOAD PUSH2 0xFA SWAP2 SWAP1 PUSH2 0xA65 JUMP JUMPDEST PUSH1 0x40 MLOAD DUP1 SWAP2 SUB SWAP1 RETURN JUMPDEST PUSH2 0x11D PUSH1 0x4 DUP1 CALLDATASIZE SUB DUP2 ADD SWAP1 PUSH2 0x118 SWAP2 SWAP1 PUSH2 0xA1F JUMP JUMPDEST PUSH2 0x379 JUMP JUMPDEST PUSH1 0x40 MLOAD PUSH2 0x12A SWAP2 SWAP1 PUSH2 0xA65 JUMP JUMPDEST PUSH1 0x40 MLOAD DUP1 SWAP2 SUB SWAP1 RETURN JUMPDEST PUSH2 0x14D PUSH1 0x4 DUP1 CALLDATASIZE SUB DUP2 ADD SWAP1 PUSH2 0x148 SWAP2 SWAP1 PUSH2 0xAAC JUMP JUMPDEST PUSH2 0x391 JUMP JUMPDEST STOP JUMPDEST PUSH2 0x157 PUSH2 0x54D JUMP JUMPDEST PUSH1 0x40 MLOAD PUSH2 0x164 SWAP2 SWAP1 PUSH2 0xA65 JUMP JUMPDEST PUSH1 0x40 MLOAD DUP1 SWAP2 SUB SWAP1 RETURN JUMPDEST PUSH2 0x175 PUSH2 0x553 JUMP JUMPDEST PUSH1 0x40 MLOAD PUSH2 0x182 SWAP2 SWAP1 PUSH2 0xB38 JUMP JUMPDEST PUSH1 0x40 MLOAD DUP1 SWAP2 SUB SWAP1 RETURN JUMPDEST PUSH2 0x193 PUSH2 0x579 JUMP JUMPDEST PUSH1 0x40 MLOAD PUSH2 0x1A0 SWAP2 SWAP1 PUSH2 0xA65 JUMP JUMPDEST PUSH1 0x40 MLOAD DUP1 SWAP2 SUB SWAP1 RETURN JUMPDEST PUSH2 0x1C3 PUSH1 0x4 DUP1 CALLDATASIZE SUB DUP2 ADD SWAP1 PUSH2 0x1BE SWAP2 SWAP1 PUSH2 0xA1F JUMP JUMPDEST PUSH2 0x57F JUMP JUMPDEST PUSH1 0x40 MLOAD PUSH2 0x1D0 SWAP2 SWAP1 PUSH2 0xA65 JUMP JUMPDEST PUSH1 0x40 MLOAD DUP1 SWAP2 SUB SWAP1 RETURN JUMPDEST PUSH2 0x1F3 PUSH1 0x4 DUP1 CALLDATASIZE SUB DUP2 ADD SWAP1 PUSH2 0x1EE SWAP2 SWAP1 PUSH2 0xAAC JUMP JUMPDEST PUSH2 0x597 JUMP JUMPDEST STOP JUMPDEST PUSH2 0x1FD PUSH2 0x755 JUMP JUMPDEST PUSH1 0x40 MLOAD PUSH2 0x20A SWAP2 SWAP1 PUSH2 0xA65 JUMP JUMPDEST PUSH1 0x40 MLOAD DUP1 SWAP2 SUB SWAP1 RETURN JUMPDEST PUSH2 0x21B PUSH2 0x75B JUMP JUMPDEST PUSH1 0x40 MLOAD PUSH2 0x228 SWAP2 SWAP1 PUSH2 0xA65 JUMP JUMPDEST PUSH1 0x40 MLOAD DUP1 SWAP2 SUB SWAP1 RETURN JUMPDEST PUSH2 0x239 PUSH2 0x7BE JUMP JUMPDEST PUSH1 0x40 MLOAD PUSH2 0x246 SWAP2 SWAP1 PUSH2 0xB38 JUMP JUMPDEST PUSH1 0x40 MLOAD DUP1 SWAP2 SUB SWAP1 RETURN JUMPDEST PUSH2 0x257 PUSH2 0x7E2 JUMP JUMPDEST STOP JUMPDEST PUSH2 0x261 PUSH2 0x9B6 JUMP JUMPDEST PUSH1 0x40 MLOAD PUSH2 0x26E SWAP2 SWAP1 PUSH2 0xA65 JUMP JUMPDEST PUSH1 0x40 MLOAD DUP1 SWAP2 SUB SWAP1 RETURN JUMPDEST PUSH1 0x0 PUSH1 0x5 PUSH1 0x0 DUP4 PUSH20 0xFFFFFFFFFFFFFFFFFFFFFFFFFFFFFFFFFFFFFFFF AND PUSH20 0xFFFFFFFFFFFFFFFFFFFFFFFFFFFFFFFFFFFFFFFF AND DUP2 MSTORE PUSH1 0x20 ADD SWAP1 DUP2 MSTORE PUSH1 0x20 ADD PUSH1 0x0 KECCAK256 SLOAD PUSH8 0xDE0B6B3A7640000 PUSH1 0x6 PUSH1 0x0 DUP6 PUSH20 0xFFFFFFFFFFFFFFFFFFFFFFFFFFFFFFFFFFFFFFFF AND PUSH20 0xFFFFFFFFFFFFFFFFFFFFFFFFFFFFFFFFFFFFFFFF AND DUP2 MSTORE PUSH1 0x20 ADD SWAP1 DUP2 MSTORE PUSH1 0x20 ADD PUSH1 0x0 KECCAK256 SLOAD PUSH2 0x30A PUSH2 0x75B JUMP JUMPDEST PUSH2 0x314 SWAP2 SWAP1 PUSH2 0xB82 JUMP JUMPDEST PUSH1 0x7 PUSH1 0x0 DUP7 PUSH20 0xFFFFFFFFFFFFFFFFFFFFFFFFFFFFFFFFFFFFFFFF AND PUSH20 0xFFFFFFFFFFFFFFFFFFFFFFFFFFFFFFFFFFFFFFFF AND DUP2 MSTORE PUSH1 0x20 ADD SWAP1 DUP2 MSTORE PUSH1 0x20 ADD PUSH1 0x0 KECCAK256 SLOAD PUSH2 0x35E SWAP2 SWAP1 PUSH2 0xBB6 JUMP JUMPDEST PUSH2 0x368 SWAP2 SWAP1 PUSH2 0xC3F JUMP JUMPDEST PUSH2 0x372 SWAP2 SWAP1 PUSH2 0xC70 JUMP JUMPDEST SWAP1 POP SWAP2 SWAP1 POP JUMP JUMPDEST PUSH1 0x5 PUSH1 0x20 MSTORE DUP1 PUSH1 0x0 MSTORE PUSH1 0x40 PUSH1 0x0 KECCAK256 PUSH1 0x0 SWAP2 POP SWAP1 POP SLOAD DUP2 JUMP JUMPDEST CALLER PUSH2 0x39A PUSH2 0x75B JUMP JUMPDEST PUSH1 0x4 DUP2 SWAP1 SSTORE POP TIMESTAMP PUSH1 0x3 DUP2 SWAP1 SSTORE POP PUSH2 0x3B0 DUP2 PUSH2 0x277 JUMP JUMPDEST PUSH1 0x5 PUSH1 0x0 DUP4 PUSH20 0xFFFFFFFFFFFFFFFFFFFFFFFFFFFFFFFFFFFFFFFF AND PUSH20 0xFFFFFFFFFFFFFFFFFFFFFFFFFFFFFFFFFFFFFFFF AND DUP2 MSTORE PUSH1 0x20 ADD SWAP1 DUP2 MSTORE PUSH1 0x20 ADD PUSH1 0x0 KECCAK256 DUP2 SWAP1 SSTORE POP PUSH1 0x4 SLOAD PUSH1 0x6 PUSH1 0x0 DUP4 PUSH20 0xFFFFFFFFFFFFFFFFFFFFFFFFFFFFFFFFFFFFFFFF AND PUSH20 0xFFFFFFFFFFFFFFFFFFFFFFFFFFFFFFFFFFFFFFFF AND DUP2 MSTORE PUSH1 0x20 ADD SWAP1 DUP2 MSTORE PUSH1 0x20 ADD PUSH1 0x0 KECCAK256 DUP2 SWAP1 SSTORE POP DUP2 PUSH1 0x8 PUSH1 0x0 DUP3 DUP3 SLOAD PUSH2 0x44B SWAP2 SWAP1 PUSH2 0xB82 JUMP JUMPDEST SWAP3 POP POP DUP2 SWAP1 SSTORE POP DUP2 PUSH1 0x7 PUSH1 0x0 CALLER PUSH20 0xFFFFFFFFFFFFFFFFFFFFFFFFFFFFFFFFFFFFFFFF AND PUSH20 0xFFFFFFFFFFFFFFFFFFFFFFFFFFFFFFFFFFFFFFFF AND DUP2 MSTORE PUSH1 0x20 ADD SWAP1 DUP2 MSTORE PUSH1 0x20 ADD PUSH1 0x0 KECCAK256 PUSH1 0x0 DUP3 DUP3 SLOAD PUSH2 0x4A1 SWAP2 SWAP1 PUSH2 0xB82 JUMP JUMPDEST SWAP3 POP POP DUP2 SWAP1 SSTORE POP PUSH1 0x1 PUSH1 0x0 SWAP1 SLOAD SWAP1 PUSH2 0x100 EXP SWAP1 DIV PUSH20 0xFFFFFFFFFFFFFFFFFFFFFFFFFFFFFFFFFFFFFFFF AND PUSH20 0xFFFFFFFFFFFFFFFFFFFFFFFFFFFFFFFFFFFFFFFF AND PUSH4 0xA9059CBB CALLER DUP5 PUSH1 0x40 MLOAD DUP4 PUSH4 0xFFFFFFFF AND PUSH1 0xE0 SHL DUP2 MSTORE PUSH1 0x4 ADD PUSH2 0x505 SWAP3 SWAP2 SWAP1 PUSH2 0xCD5 JUMP JUMPDEST PUSH1 0x20 PUSH1 0x40 MLOAD DUP1 DUP4 SUB DUP2 PUSH1 0x0 DUP8 GAS CALL ISZERO DUP1 ISZERO PUSH2 0x524 JUMPI RETURNDATASIZE PUSH1 0x0 DUP1 RETURNDATACOPY RETURNDATASIZE PUSH1 0x0 REVERT JUMPDEST POP POP POP POP PUSH1 0x40 MLOAD RETURNDATASIZE PUSH1 0x1F NOT PUSH1 0x1F DUP3 ADD AND DUP3 ADD DUP1 PUSH1 0x40 MSTORE POP DUP2 ADD SWAP1 PUSH2 0x548 SWAP2 SWAP1 PUSH2 0xD36 JUMP JUMPDEST POP POP POP JUMP JUMPDEST PUSH1 0x8 SLOAD DUP2 JUMP JUMPDEST PUSH1 0x1 PUSH1 0x0 SWAP1 SLOAD SWAP1 PUSH2 0x100 EXP SWAP1 DIV PUSH20 0xFFFFFFFFFFFFFFFFFFFFFFFFFFFFFFFFFFFFFFFF AND DUP2 JUMP JUMPDEST PUSH1 0x2 SLOAD DUP2 JUMP JUMPDEST PUSH1 0x6 PUSH1 0x20 MSTORE DUP1 PUSH1 0x0 MSTORE PUSH1 0x40 PUSH1 0x0 KECCAK256 PUSH1 0x0 SWAP2 POP SWAP1 POP SLOAD DUP2 JUMP JUMPDEST CALLER PUSH2 0x5A0 PUSH2 0x75B JUMP JUMPDEST PUSH1 0x4 DUP2 SWAP1 SSTORE POP TIMESTAMP PUSH1 0x3 DUP2 SWAP1 SSTORE POP PUSH2 0x5B6 DUP2 PUSH2 0x277 JUMP JUMPDEST PUSH1 0x5 PUSH1 0x0 DUP4 PUSH20 0xFFFFFFFFFFFFFFFFFFFFFFFFFFFFFFFFFFFFFFFF AND PUSH20 0xFFFFFFFFFFFFFFFFFFFFFFFFFFFFFFFFFFFFFFFF AND DUP2 MSTORE PUSH1 0x20 ADD SWAP1 DUP2 MSTORE PUSH1 0x20 ADD PUSH1 0x0 KECCAK256 DUP2 SWAP1 SSTORE POP PUSH1 0x4 SLOAD PUSH1 0x6 PUSH1 0x0 DUP4 PUSH20 0xFFFFFFFFFFFFFFFFFFFFFFFFFFFFFFFFFFFFFFFF AND PUSH20 0xFFFFFFFFFFFFFFFFFFFFFFFFFFFFFFFFFFFFFFFF AND DUP2 MSTORE PUSH1 0x20 ADD SWAP1 DUP2 MSTORE PUSH1 0x20 ADD PUSH1 0x0 KECCAK256 DUP2 SWAP1 SSTORE POP DUP2 PUSH1 0x8 PUSH1 0x0 DUP3 DUP3 SLOAD PUSH2 0x651 SWAP2 SWAP1 PUSH2 0xC70 JUMP JUMPDEST SWAP3 POP POP DUP2 SWAP1 SSTORE POP DUP2 PUSH1 0x7 PUSH1 0x0 CALLER PUSH20 0xFFFFFFFFFFFFFFFFFFFFFFFFFFFFFFFFFFFFFFFF AND PUSH20 0xFFFFFFFFFFFFFFFFFFFFFFFFFFFFFFFFFFFFFFFF AND DUP2 MSTORE PUSH1 0x20 ADD SWAP1 DUP2 MSTORE PUSH1 0x20 ADD PUSH1 0x0 KECCAK256 PUSH1 0x0 DUP3 DUP3 SLOAD PUSH2 0x6A7 SWAP2 SWAP1 PUSH2 0xC70 JUMP JUMPDEST SWAP3 POP POP DUP2 SWAP1 SSTORE POP PUSH1 0x1 PUSH1 0x0 SWAP1 SLOAD SWAP1 PUSH2 0x100 EXP SWAP1 DIV PUSH20 0xFFFFFFFFFFFFFFFFFFFFFFFFFFFFFFFFFFFFFFFF AND PUSH20 0xFFFFFFFFFFFFFFFFFFFFFFFFFFFFFFFFFFFFFFFF AND PUSH4 0x23B872DD CALLER ADDRESS DUP6 PUSH1 0x40 MLOAD DUP5 PUSH4 0xFFFFFFFF AND PUSH1 0xE0 SHL DUP2 MSTORE PUSH1 0x4 ADD PUSH2 0x70D SWAP4 SWAP3 SWAP2 SWAP1 PUSH2 0xD63 JUMP JUMPDEST PUSH1 0x20 PUSH1 0x40 MLOAD DUP1 DUP4 SUB DUP2 PUSH1 0x0 DUP8 GAS CALL ISZERO DUP1 ISZERO PUSH2 0x72C JUMPI RETURNDATASIZE PUSH1 0x0 DUP1 RETURNDATACOPY RETURNDATASIZE PUSH1 0x0 REVERT JUMPDEST POP POP POP POP PUSH1 0x40 MLOAD RETURNDATASIZE PUSH1 0x1F NOT PUSH1 0x1F DUP3 ADD AND DUP3 ADD DUP1 PUSH1 0x40 MSTORE POP DUP2 ADD SWAP1 PUSH2 0x750 SWAP2 SWAP1 PUSH2 0xD36 JUMP JUMPDEST POP POP POP JUMP JUMPDEST PUSH1 0x3 SLOAD DUP2 JUMP JUMPDEST PUSH1 0x0 DUP1 PUSH1 0x8 SLOAD SUB PUSH2 0x770 JUMPI PUSH1 0x4 SLOAD SWAP1 POP PUSH2 0x7BB JUMP JUMPDEST PUSH1 0x8 SLOAD PUSH8 0xDE0B6B3A7640000 PUSH1 0x2 SLOAD PUSH1 0x3 SLOAD TIMESTAMP PUSH2 0x78D SWAP2 SWAP1 PUSH2 0xB82 JUMP JUMPDEST PUSH2 0x797 SWAP2 SWAP1 PUSH2 0xBB6 JUMP JUMPDEST PUSH2 0x7A1 SWAP2 SWAP1 PUSH2 0xBB6 JUMP JUMPDEST PUSH2 0x7AB SWAP2 SWAP1 PUSH2 0xC3F JUMP JUMPDEST PUSH1 0x4 SLOAD PUSH2 0x7B8 SWAP2 SWAP1 PUSH2 0xC70 JUMP JUMPDEST SWAP1 POP JUMPDEST SWAP1 JUMP JUMPDEST PUSH1 0x0 DUP1 SLOAD SWAP1 PUSH2 0x100 EXP SWAP1 DIV PUSH20 0xFFFFFFFFFFFFFFFFFFFFFFFFFFFFFFFFFFFFFFFF AND DUP2 JUMP JUMPDEST CALLER PUSH2 0x7EB PUSH2 0x75B JUMP JUMPDEST PUSH1 0x4 DUP2 SWAP1 SSTORE POP TIMESTAMP PUSH1 0x3 DUP2 SWAP1 SSTORE POP PUSH2 0x801 DUP2 PUSH2 0x277 JUMP JUMPDEST PUSH1 0x5 PUSH1 0x0 DUP4 PUSH20 0xFFFFFFFFFFFFFFFFFFFFFFFFFFFFFFFFFFFFFFFF AND PUSH20 0xFFFFFFFFFFFFFFFFFFFFFFFFFFFFFFFFFFFFFFFF AND DUP2 MSTORE PUSH1 0x20 ADD SWAP1 DUP2 MSTORE PUSH1 0x20 ADD PUSH1 0x0 KECCAK256 DUP2 SWAP1 SSTORE POP PUSH1 0x4 SLOAD PUSH1 0x6 PUSH1 0x0 DUP4 PUSH20 0xFFFFFFFFFFFFFFFFFFFFFFFFFFFFFFFFFFFFFFFF AND PUSH20 0xFFFFFFFFFFFFFFFFFFFFFFFFFFFFFFFFFFFFFFFF AND DUP2 MSTORE PUSH1 0x20 ADD SWAP1 DUP2 MSTORE PUSH1 0x20 ADD PUSH1 0x0 KECCAK256 DUP2 SWAP1 SSTORE POP PUSH1 0x0 PUSH1 0x5 PUSH1 0x0 CALLER PUSH20 0xFFFFFFFFFFFFFFFFFFFFFFFFFFFFFFFFFFFFFFFF AND PUSH20 0xFFFFFFFFFFFFFFFFFFFFFFFFFFFFFFFFFFFFFFFF AND DUP2 MSTORE PUSH1 0x20 ADD SWAP1 DUP2 MSTORE PUSH1 0x20 ADD PUSH1 0x0 KECCAK256 SLOAD SWAP1 POP PUSH1 0x0 PUSH1 0x5 PUSH1 0x0 CALLER PUSH20 0xFFFFFFFFFFFFFFFFFFFFFFFFFFFFFFFFFFFFFFFF AND PUSH20 0xFFFFFFFFFFFFFFFFFFFFFFFFFFFFFFFFFFFFFFFF AND DUP2 MSTORE PUSH1 0x20 ADD SWAP1 DUP2 MSTORE PUSH1 0x20 ADD PUSH1 0x0 KECCAK256 DUP2 SWAP1 SSTORE POP PUSH1 0x0 DUP1 SLOAD SWAP1 PUSH2 0x100 EXP SWAP1 DIV PUSH20 0xFFFFFFFFFFFFFFFFFFFFFFFFFFFFFFFFFFFFFFFF AND PUSH20 0xFFFFFFFFFFFFFFFFFFFFFFFFFFFFFFFFFFFFFFFF AND PUSH4 0xA9059CBB CALLER DUP4 PUSH1 0x40 MLOAD DUP4 PUSH4 0xFFFFFFFF AND PUSH1 0xE0 SHL DUP2 MSTORE PUSH1 0x4 ADD PUSH2 0x96E SWAP3 SWAP2 SWAP1 PUSH2 0xCD5 JUMP JUMPDEST PUSH1 0x20 PUSH1 0x40 MLOAD DUP1 DUP4 SUB DUP2 PUSH1 0x0 DUP8 GAS CALL ISZERO DUP1 ISZERO PUSH2 0x98D JUMPI RETURNDATASIZE PUSH1 0x0 DUP1 RETURNDATACOPY RETURNDATASIZE PUSH1 0x0 REVERT JUMPDEST POP POP POP POP PUSH1 0x40 MLOAD RETURNDATASIZE PUSH1 0x1F NOT PUSH1 0x1F DUP3 ADD AND DUP3 ADD DUP1 PUSH1 0x40 MSTORE POP DUP2 ADD SWAP1 PUSH2 0x9B1 SWAP2 SWAP1 PUSH2 0xD36 JUMP JUMPDEST POP POP POP JUMP JUMPDEST PUSH1 0x4 SLOAD DUP2 JUMP JUMPDEST PUSH1 0x0 DUP1 REVERT JUMPDEST PUSH1 0x0 PUSH20 0xFFFFFFFFFFFFFFFFFFFFFFFFFFFFFFFFFFFFFFFF DUP3 AND SWAP1 POP SWAP2 SWAP1 POP JUMP JUMPDEST PUSH1 0x0 PUSH2 0x9EC DUP3 PUSH2 0x9C1 JUMP JUMPDEST SWAP1 POP SWAP2 SWAP1 POP JUMP JUMPDEST PUSH2 0x9FC DUP2 PUSH2 0x9E1 JUMP JUMPDEST DUP2 EQ PUSH2 0xA07 JUMPI PUSH1 0x0 DUP1 REVERT JUMPDEST POP JUMP JUMPDEST PUSH1 0x0 DUP2 CALLDATALOAD SWAP1 POP PUSH2 0xA19 DUP2 PUSH2 0x9F3 JUMP JUMPDEST SWAP3 SWAP2 POP POP JUMP JUMPDEST PUSH1 0x0 PUSH1 0x20 DUP3 DUP5 SUB SLT ISZERO PUSH2 0xA35 JUMPI PUSH2 0xA34 PUSH2 0x9BC JUMP JUMPDEST JUMPDEST PUSH1 0x0 PUSH2 0xA43 DUP5 DUP3 DUP6 ADD PUSH2 0xA0A JUMP JUMPDEST SWAP2 POP POP SWAP3 SWAP2 POP POP JUMP JUMPDEST PUSH1 0x0 DUP2 SWAP1 POP SWAP2 SWAP1 POP JUMP JUMPDEST PUSH2 0xA5F DUP2 PUSH2 0xA4C JUMP JUMPDEST DUP3 MSTORE POP POP JUMP JUMPDEST PUSH1 0x0 PUSH1 0x20 DUP3 ADD SWAP1 POP PUSH2 0xA7A PUSH1 0x0 DUP4 ADD DUP5 PUSH2 0xA56 JUMP JUMPDEST SWAP3 SWAP2 POP POP JUMP JUMPDEST PUSH2 0xA89 DUP2 PUSH2 0xA4C JUMP JUMPDEST DUP2 EQ PUSH2 0xA94 JUMPI PUSH1 0x0 DUP1 REVERT JUMPDEST POP JUMP JUMPDEST PUSH1 0x0 DUP2 CALLDATALOAD SWAP1 POP PUSH2 0xAA6 DUP2 PUSH2 0xA80 JUMP JUMPDEST SWAP3 SWAP2 POP POP JUMP JUMPDEST PUSH1 0x0 PUSH1 0x20 DUP3 DUP5 SUB SLT ISZERO PUSH2 0xAC2 JUMPI PUSH2 0xAC1 PUSH2 0x9BC JUMP JUMPDEST JUMPDEST PUSH1 0x0 PUSH2 0xAD0 DUP5 DUP3 DUP6 ADD PUSH2 0xA97 JUMP JUMPDEST SWAP2 POP POP SWAP3 SWAP2 POP POP JUMP JUMPDEST PUSH1 0x0 DUP2 SWAP1 POP SWAP2 SWAP1 POP JUMP JUMPDEST PUSH1 0x0 PUSH2 0xAFE PUSH2 0xAF9 PUSH2 0xAF4 DUP5 PUSH2 0x9C1 JUMP JUMPDEST PUSH2 0xAD9 JUMP JUMPDEST PUSH2 0x9C1 JUMP JUMPDEST SWAP1 POP SWAP2 SWAP1 POP JUMP JUMPDEST PUSH1 0x0 PUSH2 0xB10 DUP3 PUSH2 0xAE3 JUMP JUMPDEST SWAP1 POP SWAP2 SWAP1 POP JUMP JUMPDEST PUSH1 0x0 PUSH2 0xB22 DUP3 PUSH2 0xB05 JUMP JUMPDEST SWAP1 POP SWAP2 SWAP1 POP JUMP JUMPDEST PUSH2 0xB32 DUP2 PUSH2 0xB17 JUMP JUMPDEST DUP3 MSTORE POP POP JUMP JUMPDEST PUSH1 0x0 PUSH1 0x20 DUP3 ADD SWAP1 POP PUSH2 0xB4D PUSH1 0x0 DUP4 ADD DUP5 PUSH2 0xB29 JUMP JUMPDEST SWAP3 SWAP2 POP POP JUMP JUMPDEST PUSH32 0x4E487B7100000000000000000000000000000000000000000000000000000000 PUSH1 0x0 MSTORE PUSH1 0x11 PUSH1 0x4 MSTORE PUSH1 0x24 PUSH1 0x0 REVERT JUMPDEST PUSH1 0x0 PUSH2 0xB8D DUP3 PUSH2 0xA4C JUMP JUMPDEST SWAP2 POP PUSH2 0xB98 DUP4 PUSH2 0xA4C JUMP JUMPDEST SWAP3 POP DUP3 DUP3 LT ISZERO PUSH2 0xBAB JUMPI PUSH2 0xBAA PUSH2 0xB53 JUMP JUMPDEST JUMPDEST DUP3 DUP3 SUB SWAP1 POP SWAP3 SWAP2 POP POP JUMP JUMPDEST PUSH1 0x0 PUSH2 0xBC1 DUP3 PUSH2 0xA4C JUMP JUMPDEST SWAP2 POP PUSH2 0xBCC DUP4 PUSH2 0xA4C JUMP JUMPDEST SWAP3 POP DUP2 PUSH32 0xFFFFFFFFFFFFFFFFFFFFFFFFFFFFFFFFFFFFFFFFFFFFFFFFFFFFFFFFFFFFFFFF DIV DUP4 GT DUP3 ISZERO ISZERO AND ISZERO PUSH2 0xC05 JUMPI PUSH2 0xC04 PUSH2 0xB53 JUMP JUMPDEST JUMPDEST DUP3 DUP3 MUL SWAP1 POP SWAP3 SWAP2 POP POP JUMP JUMPDEST PUSH32 0x4E487B7100000000000000000000000000000000000000000000000000000000 PUSH1 0x0 MSTORE PUSH1 0x12 PUSH1 0x4 MSTORE PUSH1 0x24 PUSH1 0x0 REVERT JUMPDEST PUSH1 0x0 PUSH2 0xC4A DUP3 PUSH2 0xA4C JUMP JUMPDEST SWAP2 POP PUSH2 0xC55 DUP4 PUSH2 0xA4C JUMP JUMPDEST SWAP3 POP DUP3 PUSH2 0xC65 JUMPI PUSH2 0xC64 PUSH2 0xC10 JUMP JUMPDEST JUMPDEST DUP3 DUP3 DIV SWAP1 POP SWAP3 SWAP2 POP POP JUMP JUMPDEST PUSH1 0x0 PUSH2 0xC7B DUP3 PUSH2 0xA4C JUMP JUMPDEST SWAP2 POP PUSH2 0xC86 DUP4 PUSH2 0xA4C JUMP JUMPDEST SWAP3 POP DUP3 PUSH32 0xFFFFFFFFFFFFFFFFFFFFFFFFFFFFFFFFFFFFFFFFFFFFFFFFFFFFFFFFFFFFFFFF SUB DUP3 GT ISZERO PUSH2 0xCBB JUMPI PUSH2 0xCBA PUSH2 0xB53 JUMP JUMPDEST JUMPDEST DUP3 DUP3 ADD SWAP1 POP SWAP3 SWAP2 POP POP JUMP JUMPDEST PUSH2 0xCCF DUP2 PUSH2 0x9E1 JUMP JUMPDEST DUP3 MSTORE POP POP JUMP JUMPDEST PUSH1 0x0 PUSH1 0x40 DUP3 ADD SWAP1 POP PUSH2 0xCEA PUSH1 0x0 DUP4 ADD DUP6 PUSH2 0xCC6 JUMP JUMPDEST PUSH2 0xCF7 PUSH1 0x20 DUP4 ADD DUP5 PUSH2 0xA56 JUMP JUMPDEST SWAP4 SWAP3 POP POP POP JUMP JUMPDEST PUSH1 0x0 DUP2 ISZERO ISZERO SWAP1 POP SWAP2 SWAP1 POP JUMP JUMPDEST PUSH2 0xD13 DUP2 PUSH2 0xCFE JUMP JUMPDEST DUP2 EQ PUSH2 0xD1E JUMPI PUSH1 0x0 DUP1 REVERT JUMPDEST POP JUMP JUMPDEST PUSH1 0x0 DUP2 MLOAD SWAP1 POP PUSH2 0xD30 DUP2 PUSH2 0xD0A JUMP JUMPDEST SWAP3 SWAP2 POP POP JUMP JUMPDEST PUSH1 0x0 PUSH1 0x20 DUP3 DUP5 SUB SLT ISZERO PUSH2 0xD4C JUMPI PUSH2 0xD4B PUSH2 0x9BC JUMP JUMPDEST JUMPDEST PUSH1 0x0 PUSH2 0xD5A DUP5 DUP3 DUP6 ADD PUSH2 0xD21 JUMP JUMPDEST SWAP2 POP POP SWAP3 SWAP2 POP POP JUMP JUMPDEST PUSH1 0x0 PUSH1 0x60 DUP3 ADD SWAP1 POP PUSH2 0xD78 PUSH1 0x0 DUP4 ADD DUP7 PUSH2 0xCC6 JUMP JUMPDEST PUSH2 0xD85 PUSH1 0x20 DUP4 ADD DUP6 PUSH2 0xCC6 JUMP JUMPDEST PUSH2 0xD92 PUSH1 0x40 DUP4 ADD DUP5 PUSH2 0xA56 JUMP JUMPDEST SWAP5 SWAP4 POP POP POP POP JUMP INVALID LOG2 PUSH5 0x6970667358 0x22 SLT KECCAK256 0xC1 0xEA 0x5D GAS 0x1F 0xCE 0xB9 0x4A DUP15 SSTORE DUP6 SWAP4 0x29 DUP15 SWAP7 NUMBER 0xB7 SWAP1 0xBA 0x2B 0x4C SDIV SSTORE BYTE TIMESTAMP CODESIZE SLOAD 0xD0 DUP8 0xCA CODECOPY SWAP11 PUSH5 0x736F6C6343 STOP ADDMOD 0xE STOP CALLER LOG2 PUSH5 0x6970667358 0x22 SLT KECCAK256 0xF EXTCODECOPY 0x25 0xE9 MSTORE 0xE9 KECCAK256 SUB 0xA9 ADDMOD CREATE2 0xEC 0xD2 JUMP 0xBB DUP6 0x2E SMOD 0xD1 XOR 0x1F KECCAK256 SIGNEXTEND JUMPI MLOAD 0xF6 PUSH28 0xBD8DA1D1DA64736F6C634300080E0033000000000000000000000000 "
				},
				"gasEstimates": {
					"creation": {
						"codeDepositCost": "1310600",
						"executionCost": "infinite",
						"totalCost": "infinite"
					},
					"external": {
						"allPools(uint256)": "5001",
						"allPoolsLength()": "2489",
						"createPool(address,address)": "infinite",
						"feeTo()": "2512",
						"feeToSetter()": "2537",
						"getPool(address)": "infinite",
						"setFeeTo(address)": "26958",
						"setFeeToSetter(address)": "26959"
					}
				},
				"methodIdentifiers": {
					"allPools(uint256)": "41d1de97",
					"allPoolsLength()": "efde4e64",
					"createPool(address,address)": "e3433615",
					"feeTo()": "017e7e58",
					"feeToSetter()": "094b7415",
					"getPool(address)": "bbe4f6db",
					"setFeeTo(address)": "f46901ed",
					"setFeeToSetter(address)": "a2e74af6"
				}
			},
			"storageLayout": {
				"storage": [
					{
						"astId": 242,
						"contract": "Core/StakingPoolFactory.sol:StakingPoolFactory",
						"label": "feeTo",
						"offset": 0,
						"slot": "0",
						"type": "t_address"
					},
					{
						"astId": 245,
						"contract": "Core/StakingPoolFactory.sol:StakingPoolFactory",
						"label": "feeToSetter",
						"offset": 0,
						"slot": "1",
						"type": "t_address"
					},
					{
						"astId": 250,
						"contract": "Core/StakingPoolFactory.sol:StakingPoolFactory",
						"label": "getPool",
						"offset": 0,
						"slot": "2",
						"type": "t_mapping(t_address,t_address)"
					},
					{
						"astId": 253,
						"contract": "Core/StakingPoolFactory.sol:StakingPoolFactory",
						"label": "allPools",
						"offset": 0,
						"slot": "3",
						"type": "t_array(t_address)dyn_storage"
					}
				],
				"types": {
					"t_address": {
						"encoding": "inplace",
						"label": "address",
						"numberOfBytes": "20"
					},
					"t_array(t_address)dyn_storage": {
						"base": "t_address",
						"encoding": "dynamic_array",
						"label": "address[]",
						"numberOfBytes": "32"
					},
					"t_mapping(t_address,t_address)": {
						"encoding": "mapping",
						"key": "t_address",
						"label": "mapping(address => address)",
						"numberOfBytes": "32",
						"value": "t_address"
					}
				}
			},
			"userdoc": {
				"kind": "user",
				"methods": {
					"feeTo()": {
						"notice": "The address supposed to get the protocol fee"
					},
					"feeToSetter()": {
						"notice": "address that can set the address"
					},
					"getPool(address)": {
						"notice": "mapping from Token => Pool address"
					}
				},
				"version": 1
			}
		}
	}
}