{
	"Core/XSwapPair2.sol": {
		"XSwapPair2": {
			"abi": [
				{
					"inputs": [
						{
							"internalType": "address",
							"name": "_token0",
							"type": "address"
						},
						{
							"internalType": "address",
							"name": "_token1",
							"type": "address"
						}
					],
					"stateMutability": "nonpayable",
					"type": "constructor"
				},
				{
					"anonymous": false,
					"inputs": [
						{
							"indexed": true,
							"internalType": "address",
							"name": "owner",
							"type": "address"
						},
						{
							"indexed": true,
							"internalType": "address",
							"name": "spender",
							"type": "address"
						},
						{
							"indexed": false,
							"internalType": "uint256",
							"name": "value",
							"type": "uint256"
						}
					],
					"name": "Approval",
					"type": "event"
				},
				{
					"anonymous": false,
					"inputs": [
						{
							"indexed": true,
							"internalType": "address",
							"name": "from",
							"type": "address"
						},
						{
							"indexed": true,
							"internalType": "address",
							"name": "to",
							"type": "address"
						},
						{
							"indexed": false,
							"internalType": "uint256",
							"name": "value",
							"type": "uint256"
						}
					],
					"name": "Transfer",
					"type": "event"
				},
				{
					"inputs": [
						{
							"internalType": "uint256",
							"name": "_amount0",
							"type": "uint256"
						},
						{
							"internalType": "uint256",
							"name": "_amount1",
							"type": "uint256"
						}
					],
					"name": "addLiquidity",
					"outputs": [
						{
							"internalType": "uint256",
							"name": "shares",
							"type": "uint256"
						}
					],
					"stateMutability": "nonpayable",
					"type": "function"
				},
				{
					"inputs": [
						{
							"internalType": "address",
							"name": "",
							"type": "address"
						},
						{
							"internalType": "address",
							"name": "",
							"type": "address"
						}
					],
					"name": "allowance",
					"outputs": [
						{
							"internalType": "uint256",
							"name": "",
							"type": "uint256"
						}
					],
					"stateMutability": "view",
					"type": "function"
				},
				{
					"inputs": [
						{
							"internalType": "address",
							"name": "spender",
							"type": "address"
						},
						{
							"internalType": "uint256",
							"name": "value",
							"type": "uint256"
						}
					],
					"name": "approve",
					"outputs": [
						{
							"internalType": "bool",
							"name": "",
							"type": "bool"
						}
					],
					"stateMutability": "nonpayable",
					"type": "function"
				},
				{
					"inputs": [
						{
							"internalType": "address",
							"name": "",
							"type": "address"
						}
					],
					"name": "balanceOf",
					"outputs": [
						{
							"internalType": "uint256",
							"name": "",
							"type": "uint256"
						}
					],
					"stateMutability": "view",
					"type": "function"
				},
				{
					"inputs": [],
					"name": "decimals",
					"outputs": [
						{
							"internalType": "uint8",
							"name": "",
							"type": "uint8"
						}
					],
					"stateMutability": "view",
					"type": "function"
				},
				{
					"inputs": [],
					"name": "kLast",
					"outputs": [
						{
							"internalType": "uint256",
							"name": "",
							"type": "uint256"
						}
					],
					"stateMutability": "view",
					"type": "function"
				},
				{
					"inputs": [],
					"name": "name",
					"outputs": [
						{
							"internalType": "string",
							"name": "",
							"type": "string"
						}
					],
					"stateMutability": "view",
					"type": "function"
				},
				{
					"inputs": [
						{
							"internalType": "address",
							"name": "",
							"type": "address"
						}
					],
					"name": "nonces",
					"outputs": [
						{
							"internalType": "uint256",
							"name": "",
							"type": "uint256"
						}
					],
					"stateMutability": "view",
					"type": "function"
				},
				{
					"inputs": [],
					"name": "price0CumulativeLast",
					"outputs": [
						{
							"internalType": "uint256",
							"name": "",
							"type": "uint256"
						}
					],
					"stateMutability": "view",
					"type": "function"
				},
				{
					"inputs": [],
					"name": "price1CumulativeLast",
					"outputs": [
						{
							"internalType": "uint256",
							"name": "",
							"type": "uint256"
						}
					],
					"stateMutability": "view",
					"type": "function"
				},
				{
					"inputs": [
						{
							"internalType": "uint256",
							"name": "_shares",
							"type": "uint256"
						}
					],
					"name": "removeLiquidity",
					"outputs": [
						{
							"internalType": "uint256",
							"name": "amount0",
							"type": "uint256"
						},
						{
							"internalType": "uint256",
							"name": "amount1",
							"type": "uint256"
						}
					],
					"stateMutability": "nonpayable",
					"type": "function"
				},
				{
					"inputs": [],
					"name": "reserve0",
					"outputs": [
						{
							"internalType": "uint256",
							"name": "",
							"type": "uint256"
						}
					],
					"stateMutability": "view",
					"type": "function"
				},
				{
					"inputs": [],
					"name": "reserve1",
					"outputs": [
						{
							"internalType": "uint256",
							"name": "",
							"type": "uint256"
						}
					],
					"stateMutability": "view",
					"type": "function"
				},
				{
					"inputs": [
						{
							"internalType": "address",
							"name": "_tokenIn",
							"type": "address"
						},
						{
							"internalType": "uint256",
							"name": "_amountIn",
							"type": "uint256"
						}
					],
					"name": "swap",
					"outputs": [
						{
							"internalType": "uint256",
							"name": "amountOut",
							"type": "uint256"
						}
					],
					"stateMutability": "nonpayable",
					"type": "function"
				},
				{
					"inputs": [],
					"name": "symbol",
					"outputs": [
						{
							"internalType": "string",
							"name": "",
							"type": "string"
						}
					],
					"stateMutability": "view",
					"type": "function"
				},
				{
					"inputs": [],
					"name": "token0",
					"outputs": [
						{
							"internalType": "contract IERC20",
							"name": "",
							"type": "address"
						}
					],
					"stateMutability": "view",
					"type": "function"
				},
				{
					"inputs": [],
					"name": "token1",
					"outputs": [
						{
							"internalType": "contract IERC20",
							"name": "",
							"type": "address"
						}
					],
					"stateMutability": "view",
					"type": "function"
				},
				{
					"inputs": [],
					"name": "totalSupply",
					"outputs": [
						{
							"internalType": "uint256",
							"name": "",
							"type": "uint256"
						}
					],
					"stateMutability": "view",
					"type": "function"
				},
				{
					"inputs": [
						{
							"internalType": "address",
							"name": "to",
							"type": "address"
						},
						{
							"internalType": "uint256",
							"name": "value",
							"type": "uint256"
						}
					],
					"name": "transfer",
					"outputs": [
						{
							"internalType": "bool",
							"name": "",
							"type": "bool"
						}
					],
					"stateMutability": "nonpayable",
					"type": "function"
				},
				{
					"inputs": [
						{
							"internalType": "address",
							"name": "from",
							"type": "address"
						},
						{
							"internalType": "address",
							"name": "to",
							"type": "address"
						},
						{
							"internalType": "uint256",
							"name": "value",
							"type": "uint256"
						}
					],
					"name": "transferFrom",
					"outputs": [
						{
							"internalType": "bool",
							"name": "",
							"type": "bool"
						}
					],
					"stateMutability": "nonpayable",
					"type": "function"
				}
			],
			"devdoc": {
				"kind": "dev",
				"methods": {},
				"version": 1
			},
			"evm": {
				"assembly": "    /* \"Core/XSwapPair2.sol\":120:5025  contract XSwapPair2 is XSwapERC20 {... */\n  mstore(0x40, 0xc0)\n    /* \"Core/XSwapPair2.sol\":494:646  constructor(address _token0, address _token1) {... */\n  callvalue\n  dup1\n  iszero\n  tag_1\n  jumpi\n  0x00\n  dup1\n  revert\ntag_1:\n  pop\n  mload(0x40)\n  sub(codesize, bytecodeSize)\n  dup1\n  bytecodeSize\n  dup4\n  codecopy\n  dup2\n  dup2\n  add\n  0x40\n  mstore\n  dup2\n  add\n  swap1\n  tag_2\n  swap2\n  swap1\n  tag_3\n  jump\t// in\ntag_2:\n    /* \"Core/XSwapPair2.sol\":597:604  _token0 */\n  dup2\n    /* \"Core/XSwapPair2.sol\":581:605  token0 = IERC20(_token0) */\n  0xffffffffffffffffffffffffffffffffffffffff\n  and\n  0x80\n  dup2\n  0xffffffffffffffffffffffffffffffffffffffff\n  and\n  dup2\n  mstore\n  pop\n  pop\n    /* \"Core/XSwapPair2.sol\":631:638  _token1 */\n  dup1\n    /* \"Core/XSwapPair2.sol\":615:639  token1 = IERC20(_token1) */\n  0xffffffffffffffffffffffffffffffffffffffff\n  and\n  0xa0\n  dup2\n  0xffffffffffffffffffffffffffffffffffffffff\n  and\n  dup2\n  mstore\n  pop\n  pop\n    /* \"Core/XSwapPair2.sol\":494:646  constructor(address _token0, address _token1) {... */\n  pop\n  pop\n    /* \"Core/XSwapPair2.sol\":120:5025  contract XSwapPair2 is XSwapERC20 {... */\n  jump(tag_6)\n    /* \"#utility.yul\":88:205   */\ntag_8:\n    /* \"#utility.yul\":197:198   */\n  0x00\n    /* \"#utility.yul\":194:195   */\n  dup1\n    /* \"#utility.yul\":187:199   */\n  revert\n    /* \"#utility.yul\":334:460   */\ntag_10:\n    /* \"#utility.yul\":371:378   */\n  0x00\n    /* \"#utility.yul\":411:453   */\n  0xffffffffffffffffffffffffffffffffffffffff\n    /* \"#utility.yul\":404:409   */\n  dup3\n    /* \"#utility.yul\":400:454   */\n  and\n    /* \"#utility.yul\":389:454   */\n  swap1\n  pop\n    /* \"#utility.yul\":334:460   */\n  swap2\n  swap1\n  pop\n  jump\t// out\n    /* \"#utility.yul\":466:562   */\ntag_11:\n    /* \"#utility.yul\":503:510   */\n  0x00\n    /* \"#utility.yul\":532:556   */\n  tag_20\n    /* \"#utility.yul\":550:555   */\n  dup3\n    /* \"#utility.yul\":532:556   */\n  tag_10\n  jump\t// in\ntag_20:\n    /* \"#utility.yul\":521:556   */\n  swap1\n  pop\n    /* \"#utility.yul\":466:562   */\n  swap2\n  swap1\n  pop\n  jump\t// out\n    /* \"#utility.yul\":568:690   */\ntag_12:\n    /* \"#utility.yul\":641:665   */\n  tag_22\n    /* \"#utility.yul\":659:664   */\n  dup2\n    /* \"#utility.yul\":641:665   */\n  tag_11\n  jump\t// in\ntag_22:\n    /* \"#utility.yul\":634:639   */\n  dup2\n    /* \"#utility.yul\":631:666   */\n  eq\n    /* \"#utility.yul\":621:684   */\n  tag_23\n  jumpi\n    /* \"#utility.yul\":680:681   */\n  0x00\n    /* \"#utility.yul\":677:678   */\n  dup1\n    /* \"#utility.yul\":670:682   */\n  revert\n    /* \"#utility.yul\":621:684   */\ntag_23:\n    /* \"#utility.yul\":568:690   */\n  pop\n  jump\t// out\n    /* \"#utility.yul\":696:839   */\ntag_13:\n    /* \"#utility.yul\":753:758   */\n  0x00\n    /* \"#utility.yul\":784:790   */\n  dup2\n    /* \"#utility.yul\":778:791   */\n  mload\n    /* \"#utility.yul\":769:791   */\n  swap1\n  pop\n    /* \"#utility.yul\":800:833   */\n  tag_25\n    /* \"#utility.yul\":827:832   */\n  dup2\n    /* \"#utility.yul\":800:833   */\n  tag_12\n  jump\t// in\ntag_25:\n    /* \"#utility.yul\":696:839   */\n  swap3\n  swap2\n  pop\n  pop\n  jump\t// out\n    /* \"#utility.yul\":845:1352   */\ntag_3:\n    /* \"#utility.yul\":924:930   */\n  0x00\n    /* \"#utility.yul\":932:938   */\n  dup1\n    /* \"#utility.yul\":981:983   */\n  0x40\n    /* \"#utility.yul\":969:978   */\n  dup4\n    /* \"#utility.yul\":960:967   */\n  dup6\n    /* \"#utility.yul\":956:979   */\n  sub\n    /* \"#utility.yul\":952:984   */\n  slt\n    /* \"#utility.yul\":949:1068   */\n  iszero\n  tag_27\n  jumpi\n    /* \"#utility.yul\":987:1066   */\n  tag_28\n  tag_8\n  jump\t// in\ntag_28:\n    /* \"#utility.yul\":949:1068   */\ntag_27:\n    /* \"#utility.yul\":1107:1108   */\n  0x00\n    /* \"#utility.yul\":1132:1196   */\n  tag_29\n    /* \"#utility.yul\":1188:1195   */\n  dup6\n    /* \"#utility.yul\":1179:1185   */\n  dup3\n    /* \"#utility.yul\":1168:1177   */\n  dup7\n    /* \"#utility.yul\":1164:1186   */\n  add\n    /* \"#utility.yul\":1132:1196   */\n  tag_13\n  jump\t// in\ntag_29:\n    /* \"#utility.yul\":1122:1196   */\n  swap3\n  pop\n    /* \"#utility.yul\":1078:1206   */\n  pop\n    /* \"#utility.yul\":1245:1247   */\n  0x20\n    /* \"#utility.yul\":1271:1335   */\n  tag_30\n    /* \"#utility.yul\":1327:1334   */\n  dup6\n    /* \"#utility.yul\":1318:1324   */\n  dup3\n    /* \"#utility.yul\":1307:1316   */\n  dup7\n    /* \"#utility.yul\":1303:1325   */\n  add\n    /* \"#utility.yul\":1271:1335   */\n  tag_13\n  jump\t// in\ntag_30:\n    /* \"#utility.yul\":1261:1335   */\n  swap2\n  pop\n    /* \"#utility.yul\":1216:1345   */\n  pop\n    /* \"#utility.yul\":845:1352   */\n  swap3\n  pop\n  swap3\n  swap1\n  pop\n  jump\t// out\n    /* \"Core/XSwapPair2.sol\":120:5025  contract XSwapPair2 is XSwapERC20 {... */\ntag_6:\n  mload(0x80)\n  mload(0xa0)\n  codecopy(0x00, dataOffset(sub_0), dataSize(sub_0))\n  0x00\n  assignImmutable(\"0x4f07d7aea7a8a16d4b795a9a9aabd4a50f93236b39d48ad640505cdc3dbb3bbc\")\n  0x00\n  assignImmutable(\"0x1919bbb77b48a65a3a334e011819abf5317994b267bc385c63c0af09ecf64635\")\n  return(0x00, dataSize(sub_0))\nstop\n\nsub_0: assembly {\n        /* \"Core/XSwapPair2.sol\":120:5025  contract XSwapPair2 is XSwapERC20 {... */\n      mstore(0x40, 0x80)\n      callvalue\n      dup1\n      iszero\n      tag_1\n      jumpi\n      0x00\n      dup1\n      revert\n    tag_1:\n      pop\n      jumpi(tag_2, lt(calldatasize, 0x04))\n      shr(0xe0, calldataload(0x00))\n      dup1\n      0x70a08231\n      gt\n      tag_23\n      jumpi\n      dup1\n      0x9cd441da\n      gt\n      tag_24\n      jumpi\n      dup1\n      0x9cd441da\n      eq\n      tag_18\n      jumpi\n      dup1\n      0xa9059cbb\n      eq\n      tag_19\n      jumpi\n      dup1\n      0xd004f0f7\n      eq\n      tag_20\n      jumpi\n      dup1\n      0xd21220a7\n      eq\n      tag_21\n      jumpi\n      dup1\n      0xdd62ed3e\n      eq\n      tag_22\n      jumpi\n      jump(tag_2)\n    tag_24:\n      dup1\n      0x70a08231\n      eq\n      tag_13\n      jumpi\n      dup1\n      0x7464fc3d\n      eq\n      tag_14\n      jumpi\n      dup1\n      0x7ecebe00\n      eq\n      tag_15\n      jumpi\n      dup1\n      0x95d89b41\n      eq\n      tag_16\n      jumpi\n      dup1\n      0x9c8f9f23\n      eq\n      tag_17\n      jumpi\n      jump(tag_2)\n    tag_23:\n      dup1\n      0x313ce567\n      gt\n      tag_25\n      jumpi\n      dup1\n      0x313ce567\n      eq\n      tag_8\n      jumpi\n      dup1\n      0x443cb4bc\n      eq\n      tag_9\n      jumpi\n      dup1\n      0x5909c0d5\n      eq\n      tag_10\n      jumpi\n      dup1\n      0x5a3d5493\n      eq\n      tag_11\n      jumpi\n      dup1\n      0x5a76f25e\n      eq\n      tag_12\n      jumpi\n      jump(tag_2)\n    tag_25:\n      dup1\n      0x06fdde03\n      eq\n      tag_3\n      jumpi\n      dup1\n      0x095ea7b3\n      eq\n      tag_4\n      jumpi\n      dup1\n      0x0dfe1681\n      eq\n      tag_5\n      jumpi\n      dup1\n      0x18160ddd\n      eq\n      tag_6\n      jumpi\n      dup1\n      0x23b872dd\n      eq\n      tag_7\n      jumpi\n    tag_2:\n      0x00\n      dup1\n      revert\n        /* \"Core/XSwapERC20.sol\":153:193  string public constant name = \"XSwap-V1\" */\n    tag_3:\n      tag_26\n      tag_27\n      jump\t// in\n    tag_26:\n      mload(0x40)\n      tag_28\n      swap2\n      swap1\n      tag_29\n      jump\t// in\n    tag_28:\n      mload(0x40)\n      dup1\n      swap2\n      sub\n      swap1\n      return\n        /* \"Core/XSwapERC20.sol\":1558:1705  function approve(address spender, uint256 value) external returns (bool) {... */\n    tag_4:\n      tag_30\n      0x04\n      dup1\n      calldatasize\n      sub\n      dup2\n      add\n      swap1\n      tag_31\n      swap2\n      swap1\n      tag_32\n      jump\t// in\n    tag_31:\n      tag_33\n      jump\t// in\n    tag_30:\n      mload(0x40)\n      tag_34\n      swap2\n      swap1\n      tag_35\n      jump\t// in\n    tag_34:\n      mload(0x40)\n      dup1\n      swap2\n      sub\n      swap1\n      return\n        /* \"Core/XSwapPair2.sol\":199:229  IERC20 public immutable token0 */\n    tag_5:\n      tag_36\n      tag_37\n      jump\t// in\n    tag_36:\n      mload(0x40)\n      tag_38\n      swap2\n      swap1\n      tag_39\n      jump\t// in\n    tag_38:\n      mload(0x40)\n      dup1\n      swap2\n      sub\n      swap1\n      return\n        /* \"Core/XSwapERC20.sol\":286:312  uint256 public totalSupply */\n    tag_6:\n      tag_40\n      tag_41\n      jump\t// in\n    tag_40:\n      mload(0x40)\n      tag_42\n      swap2\n      swap1\n      tag_43\n      jump\t// in\n    tag_42:\n      mload(0x40)\n      dup1\n      swap2\n      sub\n      swap1\n      return\n        /* \"Core/XSwapERC20.sol\":1856:2216  function transferFrom(... */\n    tag_7:\n      tag_44\n      0x04\n      dup1\n      calldatasize\n      sub\n      dup2\n      add\n      swap1\n      tag_45\n      swap2\n      swap1\n      tag_46\n      jump\t// in\n    tag_45:\n      tag_47\n      jump\t// in\n    tag_44:\n      mload(0x40)\n      tag_48\n      swap2\n      swap1\n      tag_35\n      jump\t// in\n    tag_48:\n      mload(0x40)\n      dup1\n      swap2\n      sub\n      swap1\n      return\n        /* \"Core/XSwapERC20.sol\":244:279  uint8 public constant decimals = 18 */\n    tag_8:\n      tag_49\n      tag_50\n      jump\t// in\n    tag_49:\n      mload(0x40)\n      tag_51\n      swap2\n      swap1\n      tag_52\n      jump\t// in\n    tag_51:\n      mload(0x40)\n      dup1\n      swap2\n      sub\n      swap1\n      return\n        /* \"Core/XSwapPair2.sol\":326:349  uint256 public reserve0 */\n    tag_9:\n      tag_53\n      tag_54\n      jump\t// in\n    tag_53:\n      mload(0x40)\n      tag_55\n      swap2\n      swap1\n      tag_43\n      jump\t// in\n    tag_55:\n      mload(0x40)\n      dup1\n      swap2\n      sub\n      swap1\n      return\n        /* \"Core/XSwapPair2.sol\":385:420  uint256 public price0CumulativeLast */\n    tag_10:\n      tag_56\n      tag_57\n      jump\t// in\n    tag_56:\n      mload(0x40)\n      tag_58\n      swap2\n      swap1\n      tag_43\n      jump\t// in\n    tag_58:\n      mload(0x40)\n      dup1\n      swap2\n      sub\n      swap1\n      return\n        /* \"Core/XSwapPair2.sol\":426:461  uint256 public price1CumulativeLast */\n    tag_11:\n      tag_59\n      tag_60\n      jump\t// in\n    tag_59:\n      mload(0x40)\n      tag_61\n      swap2\n      swap1\n      tag_43\n      jump\t// in\n    tag_61:\n      mload(0x40)\n      dup1\n      swap2\n      sub\n      swap1\n      return\n        /* \"Core/XSwapPair2.sol\":355:378  uint256 public reserve1 */\n    tag_12:\n      tag_62\n      tag_63\n      jump\t// in\n    tag_62:\n      mload(0x40)\n      tag_64\n      swap2\n      swap1\n      tag_43\n      jump\t// in\n    tag_64:\n      mload(0x40)\n      dup1\n      swap2\n      sub\n      swap1\n      return\n        /* \"Core/XSwapERC20.sol\":318:362  mapping(address => uint256) public balanceOf */\n    tag_13:\n      tag_65\n      0x04\n      dup1\n      calldatasize\n      sub\n      dup2\n      add\n      swap1\n      tag_66\n      swap2\n      swap1\n      tag_67\n      jump\t// in\n    tag_66:\n      tag_68\n      jump\t// in\n    tag_65:\n      mload(0x40)\n      tag_69\n      swap2\n      swap1\n      tag_43\n      jump\t// in\n    tag_69:\n      mload(0x40)\n      dup1\n      swap2\n      sub\n      swap1\n      return\n        /* \"Core/XSwapPair2.sol\":467:487  uint256 public kLast */\n    tag_14:\n      tag_70\n      tag_71\n      jump\t// in\n    tag_70:\n      mload(0x40)\n      tag_72\n      swap2\n      swap1\n      tag_43\n      jump\t// in\n    tag_72:\n      mload(0x40)\n      dup1\n      swap2\n      sub\n      swap1\n      return\n        /* \"Core/XSwapERC20.sol\":439:480  mapping(address => uint256) public nonces */\n    tag_15:\n      tag_73\n      0x04\n      dup1\n      calldatasize\n      sub\n      dup2\n      add\n      swap1\n      tag_74\n      swap2\n      swap1\n      tag_67\n      jump\t// in\n    tag_74:\n      tag_75\n      jump\t// in\n    tag_73:\n      mload(0x40)\n      tag_76\n      swap2\n      swap1\n      tag_43\n      jump\t// in\n    tag_76:\n      mload(0x40)\n      dup1\n      swap2\n      sub\n      swap1\n      return\n        /* \"Core/XSwapERC20.sol\":199:238  string public constant symbol = \"XS-V1\" */\n    tag_16:\n      tag_77\n      tag_78\n      jump\t// in\n    tag_77:\n      mload(0x40)\n      tag_79\n      swap2\n      swap1\n      tag_29\n      jump\t// in\n    tag_79:\n      mload(0x40)\n      dup1\n      swap2\n      sub\n      swap1\n      return\n        /* \"Core/XSwapPair2.sol\":3636:4497  function removeLiquidity(uint256 _shares)... */\n    tag_17:\n      tag_80\n      0x04\n      dup1\n      calldatasize\n      sub\n      dup2\n      add\n      swap1\n      tag_81\n      swap2\n      swap1\n      tag_82\n      jump\t// in\n    tag_81:\n      tag_83\n      jump\t// in\n    tag_80:\n      mload(0x40)\n      tag_84\n      swap3\n      swap2\n      swap1\n      tag_85\n      jump\t// in\n    tag_84:\n      mload(0x40)\n      dup1\n      swap2\n      sub\n      swap1\n      return\n        /* \"Core/XSwapPair2.sol\":2446:3630  function addLiquidity(uint256 _amount0, uint256 _amount1)... */\n    tag_18:\n      tag_86\n      0x04\n      dup1\n      calldatasize\n      sub\n      dup2\n      add\n      swap1\n      tag_87\n      swap2\n      swap1\n      tag_88\n      jump\t// in\n    tag_87:\n      tag_89\n      jump\t// in\n    tag_86:\n      mload(0x40)\n      tag_90\n      swap2\n      swap1\n      tag_43\n      jump\t// in\n    tag_90:\n      mload(0x40)\n      dup1\n      swap2\n      sub\n      swap1\n      return\n        /* \"Core/XSwapERC20.sol\":1711:1850  function transfer(address to, uint256 value) external returns (bool) {... */\n    tag_19:\n      tag_91\n      0x04\n      dup1\n      calldatasize\n      sub\n      dup2\n      add\n      swap1\n      tag_92\n      swap2\n      swap1\n      tag_32\n      jump\t// in\n    tag_92:\n      tag_93\n      jump\t// in\n    tag_91:\n      mload(0x40)\n      tag_94\n      swap2\n      swap1\n      tag_35\n      jump\t// in\n    tag_94:\n      mload(0x40)\n      dup1\n      swap2\n      sub\n      swap1\n      return\n        /* \"Core/XSwapPair2.sol\":891:2440  function swap(address _tokenIn, uint256 _amountIn)... */\n    tag_20:\n      tag_95\n      0x04\n      dup1\n      calldatasize\n      sub\n      dup2\n      add\n      swap1\n      tag_96\n      swap2\n      swap1\n      tag_32\n      jump\t// in\n    tag_96:\n      tag_97\n      jump\t// in\n    tag_95:\n      mload(0x40)\n      tag_98\n      swap2\n      swap1\n      tag_43\n      jump\t// in\n    tag_98:\n      mload(0x40)\n      dup1\n      swap2\n      sub\n      swap1\n      return\n        /* \"Core/XSwapPair2.sol\":235:265  IERC20 public immutable token1 */\n    tag_21:\n      tag_99\n      tag_100\n      jump\t// in\n    tag_99:\n      mload(0x40)\n      tag_101\n      swap2\n      swap1\n      tag_39\n      jump\t// in\n    tag_101:\n      mload(0x40)\n      dup1\n      swap2\n      sub\n      swap1\n      return\n        /* \"Core/XSwapERC20.sol\":368:432  mapping(address => mapping(address => uint256)) public allowance */\n    tag_22:\n      tag_102\n      0x04\n      dup1\n      calldatasize\n      sub\n      dup2\n      add\n      swap1\n      tag_103\n      swap2\n      swap1\n      tag_104\n      jump\t// in\n    tag_103:\n      tag_105\n      jump\t// in\n    tag_102:\n      mload(0x40)\n      tag_106\n      swap2\n      swap1\n      tag_43\n      jump\t// in\n    tag_106:\n      mload(0x40)\n      dup1\n      swap2\n      sub\n      swap1\n      return\n        /* \"Core/XSwapERC20.sol\":153:193  string public constant name = \"XSwap-V1\" */\n    tag_27:\n      mload(0x40)\n      dup1\n      0x40\n      add\n      0x40\n      mstore\n      dup1\n      0x08\n      dup2\n      mstore\n      0x20\n      add\n      0x58537761702d5631000000000000000000000000000000000000000000000000\n      dup2\n      mstore\n      pop\n      dup2\n      jump\t// out\n        /* \"Core/XSwapERC20.sol\":1558:1705  function approve(address spender, uint256 value) external returns (bool) {... */\n    tag_33:\n        /* \"Core/XSwapERC20.sol\":1625:1629  bool */\n      0x00\n        /* \"Core/XSwapERC20.sol\":1641:1677  _approve(msg.sender, spender, value) */\n      tag_108\n        /* \"Core/XSwapERC20.sol\":1650:1660  msg.sender */\n      caller\n        /* \"Core/XSwapERC20.sol\":1662:1669  spender */\n      dup5\n        /* \"Core/XSwapERC20.sol\":1671:1676  value */\n      dup5\n        /* \"Core/XSwapERC20.sol\":1641:1649  _approve */\n      tag_109\n        /* \"Core/XSwapERC20.sol\":1641:1677  _approve(msg.sender, spender, value) */\n      jump\t// in\n    tag_108:\n        /* \"Core/XSwapERC20.sol\":1694:1698  true */\n      0x01\n        /* \"Core/XSwapERC20.sol\":1687:1698  return true */\n      swap1\n      pop\n        /* \"Core/XSwapERC20.sol\":1558:1705  function approve(address spender, uint256 value) external returns (bool) {... */\n      swap3\n      swap2\n      pop\n      pop\n      jump\t// out\n        /* \"Core/XSwapPair2.sol\":199:229  IERC20 public immutable token0 */\n    tag_37:\n      immutable(\"0x1919bbb77b48a65a3a334e011819abf5317994b267bc385c63c0af09ecf64635\")\n      dup2\n      jump\t// out\n        /* \"Core/XSwapERC20.sol\":286:312  uint256 public totalSupply */\n    tag_41:\n      sload(0x00)\n      dup2\n      jump\t// out\n        /* \"Core/XSwapERC20.sol\":1856:2216  function transferFrom(... */\n    tag_47:\n        /* \"Core/XSwapERC20.sol\":1967:1971  bool */\n      0x00\n        /* \"Core/XSwapERC20.sol\":2018:2028  2**112 - 1 */\n      0xffffffffffffffffffffffffffff\n        /* \"Core/XSwapERC20.sol\":1987:1996  allowance */\n      0x02\n        /* \"Core/XSwapERC20.sol\":1987:2002  allowance[from] */\n      0x00\n        /* \"Core/XSwapERC20.sol\":1997:2001  from */\n      dup7\n        /* \"Core/XSwapERC20.sol\":1987:2002  allowance[from] */\n      0xffffffffffffffffffffffffffffffffffffffff\n      and\n      0xffffffffffffffffffffffffffffffffffffffff\n      and\n      dup2\n      mstore\n      0x20\n      add\n      swap1\n      dup2\n      mstore\n      0x20\n      add\n      0x00\n      keccak256\n        /* \"Core/XSwapERC20.sol\":1987:2014  allowance[from][msg.sender] */\n      0x00\n        /* \"Core/XSwapERC20.sol\":2003:2013  msg.sender */\n      caller\n        /* \"Core/XSwapERC20.sol\":1987:2014  allowance[from][msg.sender] */\n      0xffffffffffffffffffffffffffffffffffffffff\n      and\n      0xffffffffffffffffffffffffffffffffffffffff\n      and\n      dup2\n      mstore\n      0x20\n      add\n      swap1\n      dup2\n      mstore\n      0x20\n      add\n      0x00\n      keccak256\n      sload\n        /* \"Core/XSwapERC20.sol\":1987:2028  allowance[from][msg.sender] != 2**112 - 1 */\n      eq\n        /* \"Core/XSwapERC20.sol\":1983:2153  if (allowance[from][msg.sender] != 2**112 - 1) {... */\n      tag_111\n      jumpi\n        /* \"Core/XSwapERC20.sol\":2074:2142  allowance[from][msg.sender].sub(... */\n      tag_112\n        /* \"Core/XSwapERC20.sol\":2123:2128  value */\n      dup3\n        /* \"Core/XSwapERC20.sol\":2074:2083  allowance */\n      0x02\n        /* \"Core/XSwapERC20.sol\":2074:2089  allowance[from] */\n      0x00\n        /* \"Core/XSwapERC20.sol\":2084:2088  from */\n      dup8\n        /* \"Core/XSwapERC20.sol\":2074:2089  allowance[from] */\n      0xffffffffffffffffffffffffffffffffffffffff\n      and\n      0xffffffffffffffffffffffffffffffffffffffff\n      and\n      dup2\n      mstore\n      0x20\n      add\n      swap1\n      dup2\n      mstore\n      0x20\n      add\n      0x00\n      keccak256\n        /* \"Core/XSwapERC20.sol\":2074:2101  allowance[from][msg.sender] */\n      0x00\n        /* \"Core/XSwapERC20.sol\":2090:2100  msg.sender */\n      caller\n        /* \"Core/XSwapERC20.sol\":2074:2101  allowance[from][msg.sender] */\n      0xffffffffffffffffffffffffffffffffffffffff\n      and\n      0xffffffffffffffffffffffffffffffffffffffff\n      and\n      dup2\n      mstore\n      0x20\n      add\n      swap1\n      dup2\n      mstore\n      0x20\n      add\n      0x00\n      keccak256\n      sload\n        /* \"Core/XSwapERC20.sol\":2074:2105  allowance[from][msg.sender].sub */\n      tag_113\n      swap1\n        /* \"Core/XSwapERC20.sol\":2074:2142  allowance[from][msg.sender].sub(... */\n      swap2\n      swap1\n      0xffffffff\n      and\n      jump\t// in\n    tag_112:\n        /* \"Core/XSwapERC20.sol\":2044:2053  allowance */\n      0x02\n        /* \"Core/XSwapERC20.sol\":2044:2059  allowance[from] */\n      0x00\n        /* \"Core/XSwapERC20.sol\":2054:2058  from */\n      dup7\n        /* \"Core/XSwapERC20.sol\":2044:2059  allowance[from] */\n      0xffffffffffffffffffffffffffffffffffffffff\n      and\n      0xffffffffffffffffffffffffffffffffffffffff\n      and\n      dup2\n      mstore\n      0x20\n      add\n      swap1\n      dup2\n      mstore\n      0x20\n      add\n      0x00\n      keccak256\n        /* \"Core/XSwapERC20.sol\":2044:2071  allowance[from][msg.sender] */\n      0x00\n        /* \"Core/XSwapERC20.sol\":2060:2070  msg.sender */\n      caller\n        /* \"Core/XSwapERC20.sol\":2044:2071  allowance[from][msg.sender] */\n      0xffffffffffffffffffffffffffffffffffffffff\n      and\n      0xffffffffffffffffffffffffffffffffffffffff\n      and\n      dup2\n      mstore\n      0x20\n      add\n      swap1\n      dup2\n      mstore\n      0x20\n      add\n      0x00\n      keccak256\n        /* \"Core/XSwapERC20.sol\":2044:2142  allowance[from][msg.sender] = allowance[from][msg.sender].sub(... */\n      dup2\n      swap1\n      sstore\n      pop\n        /* \"Core/XSwapERC20.sol\":1983:2153  if (allowance[from][msg.sender] != 2**112 - 1) {... */\n    tag_111:\n        /* \"Core/XSwapERC20.sol\":2162:2188  _transfer(from, to, value) */\n      tag_114\n        /* \"Core/XSwapERC20.sol\":2172:2176  from */\n      dup5\n        /* \"Core/XSwapERC20.sol\":2178:2180  to */\n      dup5\n        /* \"Core/XSwapERC20.sol\":2182:2187  value */\n      dup5\n        /* \"Core/XSwapERC20.sol\":2162:2171  _transfer */\n      tag_115\n        /* \"Core/XSwapERC20.sol\":2162:2188  _transfer(from, to, value) */\n      jump\t// in\n    tag_114:\n        /* \"Core/XSwapERC20.sol\":2205:2209  true */\n      0x01\n        /* \"Core/XSwapERC20.sol\":2198:2209  return true */\n      swap1\n      pop\n        /* \"Core/XSwapERC20.sol\":1856:2216  function transferFrom(... */\n      swap4\n      swap3\n      pop\n      pop\n      pop\n      jump\t// out\n        /* \"Core/XSwapERC20.sol\":244:279  uint8 public constant decimals = 18 */\n    tag_50:\n        /* \"Core/XSwapERC20.sol\":277:279  18 */\n      0x12\n        /* \"Core/XSwapERC20.sol\":244:279  uint8 public constant decimals = 18 */\n      dup2\n      jump\t// out\n        /* \"Core/XSwapPair2.sol\":326:349  uint256 public reserve0 */\n    tag_54:\n      sload(0x04)\n      dup2\n      jump\t// out\n        /* \"Core/XSwapPair2.sol\":385:420  uint256 public price0CumulativeLast */\n    tag_57:\n      sload(0x06)\n      dup2\n      jump\t// out\n        /* \"Core/XSwapPair2.sol\":426:461  uint256 public price1CumulativeLast */\n    tag_60:\n      sload(0x07)\n      dup2\n      jump\t// out\n        /* \"Core/XSwapPair2.sol\":355:378  uint256 public reserve1 */\n    tag_63:\n      sload(0x05)\n      dup2\n      jump\t// out\n        /* \"Core/XSwapERC20.sol\":318:362  mapping(address => uint256) public balanceOf */\n    tag_68:\n      mstore(0x20, 0x01)\n      dup1\n      0x00\n      mstore\n      keccak256(0x00, 0x40)\n      0x00\n      swap2\n      pop\n      swap1\n      pop\n      sload\n      dup2\n      jump\t// out\n        /* \"Core/XSwapPair2.sol\":467:487  uint256 public kLast */\n    tag_71:\n      sload(0x08)\n      dup2\n      jump\t// out\n        /* \"Core/XSwapERC20.sol\":439:480  mapping(address => uint256) public nonces */\n    tag_75:\n      mstore(0x20, 0x03)\n      dup1\n      0x00\n      mstore\n      keccak256(0x00, 0x40)\n      0x00\n      swap2\n      pop\n      swap1\n      pop\n      sload\n      dup2\n      jump\t// out\n        /* \"Core/XSwapERC20.sol\":199:238  string public constant symbol = \"XS-V1\" */\n    tag_78:\n      mload(0x40)\n      dup1\n      0x40\n      add\n      0x40\n      mstore\n      dup1\n      0x05\n      dup2\n      mstore\n      0x20\n      add\n      0x58532d5631000000000000000000000000000000000000000000000000000000\n      dup2\n      mstore\n      pop\n      dup2\n      jump\t// out\n        /* \"Core/XSwapPair2.sol\":3636:4497  function removeLiquidity(uint256 _shares)... */\n    tag_83:\n        /* \"Core/XSwapPair2.sol\":3712:3727  uint256 amount0 */\n      0x00\n        /* \"Core/XSwapPair2.sol\":3729:3744  uint256 amount1 */\n      dup1\n        /* \"Core/XSwapPair2.sol\":3874:3886  uint256 bal0 */\n      0x00\n        /* \"Core/XSwapPair2.sol\":3889:3895  token0 */\n      immutable(\"0x1919bbb77b48a65a3a334e011819abf5317994b267bc385c63c0af09ecf64635\")\n        /* \"Core/XSwapPair2.sol\":3889:3905  token0.balanceOf */\n      0xffffffffffffffffffffffffffffffffffffffff\n      and\n      0x70a08231\n        /* \"Core/XSwapPair2.sol\":3914:3918  this */\n      address\n        /* \"Core/XSwapPair2.sol\":3889:3920  token0.balanceOf(address(this)) */\n      mload(0x40)\n      dup3\n      0xffffffff\n      and\n      0xe0\n      shl\n      dup2\n      mstore\n      0x04\n      add\n      tag_117\n      swap2\n      swap1\n      tag_118\n      jump\t// in\n    tag_117:\n      0x20\n      mload(0x40)\n      dup1\n      dup4\n      sub\n      dup2\n      dup7\n      gas\n      staticcall\n      iszero\n      dup1\n      iszero\n      tag_120\n      jumpi\n      returndatasize\n      0x00\n      dup1\n      returndatacopy\n      revert(0x00, returndatasize)\n    tag_120:\n      pop\n      pop\n      pop\n      pop\n      mload(0x40)\n      returndatasize\n      not(0x1f)\n      0x1f\n      dup3\n      add\n      and\n      dup3\n      add\n      dup1\n      0x40\n      mstore\n      pop\n      dup2\n      add\n      swap1\n      tag_121\n      swap2\n      swap1\n      tag_122\n      jump\t// in\n    tag_121:\n        /* \"Core/XSwapPair2.sol\":3874:3920  uint256 bal0 = token0.balanceOf(address(this)) */\n      swap1\n      pop\n        /* \"Core/XSwapPair2.sol\":3930:3942  uint256 bal1 */\n      0x00\n        /* \"Core/XSwapPair2.sol\":3945:3951  token1 */\n      immutable(\"0x4f07d7aea7a8a16d4b795a9a9aabd4a50f93236b39d48ad640505cdc3dbb3bbc\")\n        /* \"Core/XSwapPair2.sol\":3945:3961  token1.balanceOf */\n      0xffffffffffffffffffffffffffffffffffffffff\n      and\n      0x70a08231\n        /* \"Core/XSwapPair2.sol\":3970:3974  this */\n      address\n        /* \"Core/XSwapPair2.sol\":3945:3976  token1.balanceOf(address(this)) */\n      mload(0x40)\n      dup3\n      0xffffffff\n      and\n      0xe0\n      shl\n      dup2\n      mstore\n      0x04\n      add\n      tag_123\n      swap2\n      swap1\n      tag_118\n      jump\t// in\n    tag_123:\n      0x20\n      mload(0x40)\n      dup1\n      dup4\n      sub\n      dup2\n      dup7\n      gas\n      staticcall\n      iszero\n      dup1\n      iszero\n      tag_125\n      jumpi\n      returndatasize\n      0x00\n      dup1\n      returndatacopy\n      revert(0x00, returndatasize)\n    tag_125:\n      pop\n      pop\n      pop\n      pop\n      mload(0x40)\n      returndatasize\n      not(0x1f)\n      0x1f\n      dup3\n      add\n      and\n      dup3\n      add\n      dup1\n      0x40\n      mstore\n      pop\n      dup2\n      add\n      swap1\n      tag_126\n      swap2\n      swap1\n      tag_122\n      jump\t// in\n    tag_126:\n        /* \"Core/XSwapPair2.sol\":3930:3976  uint256 bal1 = token1.balanceOf(address(this)) */\n      swap1\n      pop\n        /* \"Core/XSwapPair2.sol\":4071:4082  totalSupply */\n      sload(0x00)\n        /* \"Core/XSwapPair2.sol\":4063:4067  bal0 */\n      dup3\n        /* \"Core/XSwapPair2.sol\":4053:4060  _shares */\n      dup7\n        /* \"Core/XSwapPair2.sol\":4053:4067  _shares * bal0 */\n      tag_127\n      swap2\n      swap1\n      tag_128\n      jump\t// in\n    tag_127:\n        /* \"Core/XSwapPair2.sol\":4052:4082  (_shares * bal0) / totalSupply */\n      tag_129\n      swap2\n      swap1\n      tag_130\n      jump\t// in\n    tag_129:\n        /* \"Core/XSwapPair2.sol\":4042:4082  amount0 = (_shares * bal0) / totalSupply */\n      swap4\n      pop\n        /* \"Core/XSwapPair2.sol\":4121:4132  totalSupply */\n      sload(0x00)\n        /* \"Core/XSwapPair2.sol\":4113:4117  bal1 */\n      dup2\n        /* \"Core/XSwapPair2.sol\":4103:4110  _shares */\n      dup7\n        /* \"Core/XSwapPair2.sol\":4103:4117  _shares * bal1 */\n      tag_131\n      swap2\n      swap1\n      tag_128\n      jump\t// in\n    tag_131:\n        /* \"Core/XSwapPair2.sol\":4102:4132  (_shares * bal1) / totalSupply */\n      tag_132\n      swap2\n      swap1\n      tag_130\n      jump\t// in\n    tag_132:\n        /* \"Core/XSwapPair2.sol\":4092:4132  amount1 = (_shares * bal1) / totalSupply */\n      swap3\n      pop\n        /* \"Core/XSwapPair2.sol\":4160:4161  0 */\n      0x00\n        /* \"Core/XSwapPair2.sol\":4150:4157  amount0 */\n      dup5\n        /* \"Core/XSwapPair2.sol\":4150:4161  amount0 > 0 */\n      gt\n        /* \"Core/XSwapPair2.sol\":4150:4176  amount0 > 0 && amount1 > 0 */\n      dup1\n      iszero\n      tag_133\n      jumpi\n      pop\n        /* \"Core/XSwapPair2.sol\":4175:4176  0 */\n      0x00\n        /* \"Core/XSwapPair2.sol\":4165:4172  amount1 */\n      dup4\n        /* \"Core/XSwapPair2.sol\":4165:4176  amount1 > 0 */\n      gt\n        /* \"Core/XSwapPair2.sol\":4150:4176  amount0 > 0 && amount1 > 0 */\n    tag_133:\n        /* \"Core/XSwapPair2.sol\":4142:4203  require(amount0 > 0 && amount1 > 0, \"amount0 or amount1 = 0\") */\n      tag_134\n      jumpi\n      mload(0x40)\n      0x08c379a000000000000000000000000000000000000000000000000000000000\n      dup2\n      mstore\n      0x04\n      add\n      tag_135\n      swap1\n      tag_136\n      jump\t// in\n    tag_135:\n      mload(0x40)\n      dup1\n      swap2\n      sub\n      swap1\n      revert\n    tag_134:\n        /* \"Core/XSwapPair2.sol\":4265:4291  _burn(msg.sender, _shares) */\n      tag_137\n        /* \"Core/XSwapPair2.sol\":4271:4281  msg.sender */\n      caller\n        /* \"Core/XSwapPair2.sol\":4283:4290  _shares */\n      dup7\n        /* \"Core/XSwapPair2.sol\":4265:4270  _burn */\n      tag_138\n        /* \"Core/XSwapPair2.sol\":4265:4291  _burn(msg.sender, _shares) */\n      jump\t// in\n    tag_137:\n        /* \"Core/XSwapPair2.sol\":4301:4340  _update(bal0 - amount0, bal1 - amount1) */\n      tag_139\n        /* \"Core/XSwapPair2.sol\":4316:4323  amount0 */\n      dup5\n        /* \"Core/XSwapPair2.sol\":4309:4313  bal0 */\n      dup4\n        /* \"Core/XSwapPair2.sol\":4309:4323  bal0 - amount0 */\n      tag_140\n      swap2\n      swap1\n      tag_141\n      jump\t// in\n    tag_140:\n        /* \"Core/XSwapPair2.sol\":4332:4339  amount1 */\n      dup5\n        /* \"Core/XSwapPair2.sol\":4325:4329  bal1 */\n      dup4\n        /* \"Core/XSwapPair2.sol\":4325:4339  bal1 - amount1 */\n      tag_142\n      swap2\n      swap1\n      tag_141\n      jump\t// in\n    tag_142:\n        /* \"Core/XSwapPair2.sol\":4301:4308  _update */\n      tag_143\n        /* \"Core/XSwapPair2.sol\":4301:4340  _update(bal0 - amount0, bal1 - amount1) */\n      jump\t// in\n    tag_139:\n        /* \"Core/XSwapPair2.sol\":4408:4414  token0 */\n      immutable(\"0x1919bbb77b48a65a3a334e011819abf5317994b267bc385c63c0af09ecf64635\")\n        /* \"Core/XSwapPair2.sol\":4408:4423  token0.transfer */\n      0xffffffffffffffffffffffffffffffffffffffff\n      and\n      0xa9059cbb\n        /* \"Core/XSwapPair2.sol\":4424:4434  msg.sender */\n      caller\n        /* \"Core/XSwapPair2.sol\":4436:4443  amount0 */\n      dup7\n        /* \"Core/XSwapPair2.sol\":4408:4444  token0.transfer(msg.sender, amount0) */\n      mload(0x40)\n      dup4\n      0xffffffff\n      and\n      0xe0\n      shl\n      dup2\n      mstore\n      0x04\n      add\n      tag_144\n      swap3\n      swap2\n      swap1\n      tag_145\n      jump\t// in\n    tag_144:\n      0x20\n      mload(0x40)\n      dup1\n      dup4\n      sub\n      dup2\n      0x00\n      dup8\n      gas\n      call\n      iszero\n      dup1\n      iszero\n      tag_147\n      jumpi\n      returndatasize\n      0x00\n      dup1\n      returndatacopy\n      revert(0x00, returndatasize)\n    tag_147:\n      pop\n      pop\n      pop\n      pop\n      mload(0x40)\n      returndatasize\n      not(0x1f)\n      0x1f\n      dup3\n      add\n      and\n      dup3\n      add\n      dup1\n      0x40\n      mstore\n      pop\n      dup2\n      add\n      swap1\n      tag_148\n      swap2\n      swap1\n      tag_149\n      jump\t// in\n    tag_148:\n      pop\n        /* \"Core/XSwapPair2.sol\":4454:4460  token1 */\n      immutable(\"0x4f07d7aea7a8a16d4b795a9a9aabd4a50f93236b39d48ad640505cdc3dbb3bbc\")\n        /* \"Core/XSwapPair2.sol\":4454:4469  token1.transfer */\n      0xffffffffffffffffffffffffffffffffffffffff\n      and\n      0xa9059cbb\n        /* \"Core/XSwapPair2.sol\":4470:4480  msg.sender */\n      caller\n        /* \"Core/XSwapPair2.sol\":4482:4489  amount1 */\n      dup6\n        /* \"Core/XSwapPair2.sol\":4454:4490  token1.transfer(msg.sender, amount1) */\n      mload(0x40)\n      dup4\n      0xffffffff\n      and\n      0xe0\n      shl\n      dup2\n      mstore\n      0x04\n      add\n      tag_150\n      swap3\n      swap2\n      swap1\n      tag_145\n      jump\t// in\n    tag_150:\n      0x20\n      mload(0x40)\n      dup1\n      dup4\n      sub\n      dup2\n      0x00\n      dup8\n      gas\n      call\n      iszero\n      dup1\n      iszero\n      tag_152\n      jumpi\n      returndatasize\n      0x00\n      dup1\n      returndatacopy\n      revert(0x00, returndatasize)\n    tag_152:\n      pop\n      pop\n      pop\n      pop\n      mload(0x40)\n      returndatasize\n      not(0x1f)\n      0x1f\n      dup3\n      add\n      and\n      dup3\n      add\n      dup1\n      0x40\n      mstore\n      pop\n      dup2\n      add\n      swap1\n      tag_153\n      swap2\n      swap1\n      tag_149\n      jump\t// in\n    tag_153:\n      pop\n        /* \"Core/XSwapPair2.sol\":3750:4497  {... */\n      pop\n      pop\n        /* \"Core/XSwapPair2.sol\":3636:4497  function removeLiquidity(uint256 _shares)... */\n      swap2\n      pop\n      swap2\n      jump\t// out\n        /* \"Core/XSwapPair2.sol\":2446:3630  function addLiquidity(uint256 _amount0, uint256 _amount1)... */\n    tag_89:\n        /* \"Core/XSwapPair2.sol\":2538:2552  uint256 shares */\n      0x00\n        /* \"Core/XSwapPair2.sol\":2626:2632  token0 */\n      immutable(\"0x1919bbb77b48a65a3a334e011819abf5317994b267bc385c63c0af09ecf64635\")\n        /* \"Core/XSwapPair2.sol\":2626:2645  token0.transferFrom */\n      0xffffffffffffffffffffffffffffffffffffffff\n      and\n      0x23b872dd\n        /* \"Core/XSwapPair2.sol\":2646:2656  msg.sender */\n      caller\n        /* \"Core/XSwapPair2.sol\":2666:2670  this */\n      address\n        /* \"Core/XSwapPair2.sol\":2673:2681  _amount0 */\n      dup7\n        /* \"Core/XSwapPair2.sol\":2626:2682  token0.transferFrom(msg.sender, address(this), _amount0) */\n      mload(0x40)\n      dup5\n      0xffffffff\n      and\n      0xe0\n      shl\n      dup2\n      mstore\n      0x04\n      add\n      tag_155\n      swap4\n      swap3\n      swap2\n      swap1\n      tag_156\n      jump\t// in\n    tag_155:\n      0x20\n      mload(0x40)\n      dup1\n      dup4\n      sub\n      dup2\n      0x00\n      dup8\n      gas\n      call\n      iszero\n      dup1\n      iszero\n      tag_158\n      jumpi\n      returndatasize\n      0x00\n      dup1\n      returndatacopy\n      revert(0x00, returndatasize)\n    tag_158:\n      pop\n      pop\n      pop\n      pop\n      mload(0x40)\n      returndatasize\n      not(0x1f)\n      0x1f\n      dup3\n      add\n      and\n      dup3\n      add\n      dup1\n      0x40\n      mstore\n      pop\n      dup2\n      add\n      swap1\n      tag_159\n      swap2\n      swap1\n      tag_149\n      jump\t// in\n    tag_159:\n      pop\n        /* \"Core/XSwapPair2.sol\":2692:2698  token1 */\n      immutable(\"0x4f07d7aea7a8a16d4b795a9a9aabd4a50f93236b39d48ad640505cdc3dbb3bbc\")\n        /* \"Core/XSwapPair2.sol\":2692:2711  token1.transferFrom */\n      0xffffffffffffffffffffffffffffffffffffffff\n      and\n      0x23b872dd\n        /* \"Core/XSwapPair2.sol\":2712:2722  msg.sender */\n      caller\n        /* \"Core/XSwapPair2.sol\":2732:2736  this */\n      address\n        /* \"Core/XSwapPair2.sol\":2739:2747  _amount1 */\n      dup6\n        /* \"Core/XSwapPair2.sol\":2692:2748  token1.transferFrom(msg.sender, address(this), _amount1) */\n      mload(0x40)\n      dup5\n      0xffffffff\n      and\n      0xe0\n      shl\n      dup2\n      mstore\n      0x04\n      add\n      tag_160\n      swap4\n      swap3\n      swap2\n      swap1\n      tag_156\n      jump\t// in\n    tag_160:\n      0x20\n      mload(0x40)\n      dup1\n      dup4\n      sub\n      dup2\n      0x00\n      dup8\n      gas\n      call\n      iszero\n      dup1\n      iszero\n      tag_162\n      jumpi\n      returndatasize\n      0x00\n      dup1\n      returndatacopy\n      revert(0x00, returndatasize)\n    tag_162:\n      pop\n      pop\n      pop\n      pop\n      mload(0x40)\n      returndatasize\n      not(0x1f)\n      0x1f\n      dup3\n      add\n      and\n      dup3\n      add\n      dup1\n      0x40\n      mstore\n      pop\n      dup2\n      add\n      swap1\n      tag_163\n      swap2\n      swap1\n      tag_149\n      jump\t// in\n    tag_163:\n      pop\n        /* \"Core/XSwapPair2.sol\":2774:2775  0 */\n      0x00\n        /* \"Core/XSwapPair2.sol\":2763:2771  reserve0 */\n      sload(0x04)\n        /* \"Core/XSwapPair2.sol\":2763:2775  reserve0 > 0 */\n      gt\n        /* \"Core/XSwapPair2.sol\":2763:2791  reserve0 > 0 || reserve1 > 0 */\n      dup1\n      tag_164\n      jumpi\n      pop\n        /* \"Core/XSwapPair2.sol\":2790:2791  0 */\n      0x00\n        /* \"Core/XSwapPair2.sol\":2779:2787  reserve1 */\n      sload(0x05)\n        /* \"Core/XSwapPair2.sol\":2779:2791  reserve1 > 0 */\n      gt\n        /* \"Core/XSwapPair2.sol\":2763:2791  reserve0 > 0 || reserve1 > 0 */\n    tag_164:\n        /* \"Core/XSwapPair2.sol\":2759:2935  if (reserve0 > 0 || reserve1 > 0) {... */\n      iszero\n      tag_165\n      jumpi\n        /* \"Core/XSwapPair2.sol\":2866:2874  _amount0 */\n      dup3\n        /* \"Core/XSwapPair2.sol\":2855:2863  reserve1 */\n      sload(0x05)\n        /* \"Core/XSwapPair2.sol\":2855:2874  reserve1 * _amount0 */\n      tag_166\n      swap2\n      swap1\n      tag_128\n      jump\t// in\n    tag_166:\n        /* \"Core/XSwapPair2.sol\":2843:2851  _amount1 */\n      dup3\n        /* \"Core/XSwapPair2.sol\":2832:2840  reserve0 */\n      sload(0x04)\n        /* \"Core/XSwapPair2.sol\":2832:2851  reserve0 * _amount1 */\n      tag_167\n      swap2\n      swap1\n      tag_128\n      jump\t// in\n    tag_167:\n        /* \"Core/XSwapPair2.sol\":2832:2874  reserve0 * _amount1 == reserve1 * _amount0 */\n      eq\n        /* \"Core/XSwapPair2.sol\":2807:2924  require(... */\n      tag_168\n      jumpi\n      mload(0x40)\n      0x08c379a000000000000000000000000000000000000000000000000000000000\n      dup2\n      mstore\n      0x04\n      add\n      tag_169\n      swap1\n      tag_170\n      jump\t// in\n    tag_169:\n      mload(0x40)\n      dup1\n      swap2\n      sub\n      swap1\n      revert\n    tag_168:\n        /* \"Core/XSwapPair2.sol\":2759:2935  if (reserve0 > 0 || reserve1 > 0) {... */\n    tag_165:\n        /* \"Core/XSwapPair2.sol\":2964:2965  0 */\n      0x00\n        /* \"Core/XSwapPair2.sol\":2949:2960  totalSupply */\n      dup1\n      sload\n        /* \"Core/XSwapPair2.sol\":2949:2965  totalSupply == 0 */\n      sub\n        /* \"Core/XSwapPair2.sol\":2945:3334  if (totalSupply == 0) {... */\n      tag_171\n      jumpi\n        /* \"Core/XSwapPair2.sol\":3028:3054  _sqrt(_amount0 * _amount1) */\n      tag_172\n        /* \"Core/XSwapPair2.sol\":3045:3053  _amount1 */\n      dup3\n        /* \"Core/XSwapPair2.sol\":3034:3042  _amount0 */\n      dup5\n        /* \"Core/XSwapPair2.sol\":3034:3053  _amount0 * _amount1 */\n      tag_173\n      swap2\n      swap1\n      tag_128\n      jump\t// in\n    tag_173:\n        /* \"Core/XSwapPair2.sol\":3028:3033  _sqrt */\n      tag_174\n        /* \"Core/XSwapPair2.sol\":3028:3054  _sqrt(_amount0 * _amount1) */\n      jump\t// in\n    tag_172:\n        /* \"Core/XSwapPair2.sol\":3019:3054  shares = _sqrt(_amount0 * _amount1) */\n      swap1\n      pop\n        /* \"Core/XSwapPair2.sol\":2945:3334  if (totalSupply == 0) {... */\n      jump(tag_175)\n    tag_171:\n        /* \"Core/XSwapPair2.sol\":3199:3323  _min(... */\n      tag_176\n        /* \"Core/XSwapPair2.sol\":3248:3256  reserve0 */\n      sload(0x04)\n        /* \"Core/XSwapPair2.sol\":3233:3244  totalSupply */\n      sload(0x00)\n        /* \"Core/XSwapPair2.sol\":3222:3230  _amount0 */\n      dup6\n        /* \"Core/XSwapPair2.sol\":3222:3244  _amount0 * totalSupply */\n      tag_177\n      swap2\n      swap1\n      tag_128\n      jump\t// in\n    tag_177:\n        /* \"Core/XSwapPair2.sol\":3221:3256  (_amount0 * totalSupply) / reserve0 */\n      tag_178\n      swap2\n      swap1\n      tag_130\n      jump\t// in\n    tag_178:\n        /* \"Core/XSwapPair2.sol\":3301:3309  reserve1 */\n      sload(0x05)\n        /* \"Core/XSwapPair2.sol\":3286:3297  totalSupply */\n      sload(0x00)\n        /* \"Core/XSwapPair2.sol\":3275:3283  _amount1 */\n      dup6\n        /* \"Core/XSwapPair2.sol\":3275:3297  _amount1 * totalSupply */\n      tag_179\n      swap2\n      swap1\n      tag_128\n      jump\t// in\n    tag_179:\n        /* \"Core/XSwapPair2.sol\":3274:3309  (_amount1 * totalSupply) / reserve1 */\n      tag_180\n      swap2\n      swap1\n      tag_130\n      jump\t// in\n    tag_180:\n        /* \"Core/XSwapPair2.sol\":3199:3203  _min */\n      tag_181\n        /* \"Core/XSwapPair2.sol\":3199:3323  _min(... */\n      jump\t// in\n    tag_176:\n        /* \"Core/XSwapPair2.sol\":3190:3323  shares = _min(... */\n      swap1\n      pop\n        /* \"Core/XSwapPair2.sol\":2945:3334  if (totalSupply == 0) {... */\n    tag_175:\n        /* \"Core/XSwapPair2.sol\":3361:3362  0 */\n      0x00\n        /* \"Core/XSwapPair2.sol\":3352:3358  shares */\n      dup2\n        /* \"Core/XSwapPair2.sol\":3352:3362  shares > 0 */\n      gt\n        /* \"Core/XSwapPair2.sol\":3344:3377  require(shares > 0, \"shares = 0\") */\n      tag_182\n      jumpi\n      mload(0x40)\n      0x08c379a000000000000000000000000000000000000000000000000000000000\n      dup2\n      mstore\n      0x04\n      add\n      tag_183\n      swap1\n      tag_184\n      jump\t// in\n    tag_183:\n      mload(0x40)\n      dup1\n      swap2\n      sub\n      swap1\n      revert\n    tag_182:\n        /* \"Core/XSwapPair2.sol\":3429:3454  _mint(msg.sender, shares) */\n      tag_185\n        /* \"Core/XSwapPair2.sol\":3435:3445  msg.sender */\n      caller\n        /* \"Core/XSwapPair2.sol\":3447:3453  shares */\n      dup3\n        /* \"Core/XSwapPair2.sol\":3429:3434  _mint */\n      tag_186\n        /* \"Core/XSwapPair2.sol\":3429:3454  _mint(msg.sender, shares) */\n      jump\t// in\n    tag_185:\n        /* \"Core/XSwapPair2.sol\":3516:3623  _update(... */\n      tag_187\n        /* \"Core/XSwapPair2.sol\":3537:3543  token0 */\n      immutable(\"0x1919bbb77b48a65a3a334e011819abf5317994b267bc385c63c0af09ecf64635\")\n        /* \"Core/XSwapPair2.sol\":3537:3553  token0.balanceOf */\n      0xffffffffffffffffffffffffffffffffffffffff\n      and\n      0x70a08231\n        /* \"Core/XSwapPair2.sol\":3562:3566  this */\n      address\n        /* \"Core/XSwapPair2.sol\":3537:3568  token0.balanceOf(address(this)) */\n      mload(0x40)\n      dup3\n      0xffffffff\n      and\n      0xe0\n      shl\n      dup2\n      mstore\n      0x04\n      add\n      tag_188\n      swap2\n      swap1\n      tag_118\n      jump\t// in\n    tag_188:\n      0x20\n      mload(0x40)\n      dup1\n      dup4\n      sub\n      dup2\n      dup7\n      gas\n      staticcall\n      iszero\n      dup1\n      iszero\n      tag_190\n      jumpi\n      returndatasize\n      0x00\n      dup1\n      returndatacopy\n      revert(0x00, returndatasize)\n    tag_190:\n      pop\n      pop\n      pop\n      pop\n      mload(0x40)\n      returndatasize\n      not(0x1f)\n      0x1f\n      dup3\n      add\n      and\n      dup3\n      add\n      dup1\n      0x40\n      mstore\n      pop\n      dup2\n      add\n      swap1\n      tag_191\n      swap2\n      swap1\n      tag_122\n      jump\t// in\n    tag_191:\n        /* \"Core/XSwapPair2.sol\":3582:3588  token1 */\n      immutable(\"0x4f07d7aea7a8a16d4b795a9a9aabd4a50f93236b39d48ad640505cdc3dbb3bbc\")\n        /* \"Core/XSwapPair2.sol\":3582:3598  token1.balanceOf */\n      0xffffffffffffffffffffffffffffffffffffffff\n      and\n      0x70a08231\n        /* \"Core/XSwapPair2.sol\":3607:3611  this */\n      address\n        /* \"Core/XSwapPair2.sol\":3582:3613  token1.balanceOf(address(this)) */\n      mload(0x40)\n      dup3\n      0xffffffff\n      and\n      0xe0\n      shl\n      dup2\n      mstore\n      0x04\n      add\n      tag_192\n      swap2\n      swap1\n      tag_118\n      jump\t// in\n    tag_192:\n      0x20\n      mload(0x40)\n      dup1\n      dup4\n      sub\n      dup2\n      dup7\n      gas\n      staticcall\n      iszero\n      dup1\n      iszero\n      tag_194\n      jumpi\n      returndatasize\n      0x00\n      dup1\n      returndatacopy\n      revert(0x00, returndatasize)\n    tag_194:\n      pop\n      pop\n      pop\n      pop\n      mload(0x40)\n      returndatasize\n      not(0x1f)\n      0x1f\n      dup3\n      add\n      and\n      dup3\n      add\n      dup1\n      0x40\n      mstore\n      pop\n      dup2\n      add\n      swap1\n      tag_195\n      swap2\n      swap1\n      tag_122\n      jump\t// in\n    tag_195:\n        /* \"Core/XSwapPair2.sol\":3516:3523  _update */\n      tag_143\n        /* \"Core/XSwapPair2.sol\":3516:3623  _update(... */\n      jump\t// in\n    tag_187:\n        /* \"Core/XSwapPair2.sol\":2446:3630  function addLiquidity(uint256 _amount0, uint256 _amount1)... */\n      swap3\n      swap2\n      pop\n      pop\n      jump\t// out\n        /* \"Core/XSwapERC20.sol\":1711:1850  function transfer(address to, uint256 value) external returns (bool) {... */\n    tag_93:\n        /* \"Core/XSwapERC20.sol\":1774:1778  bool */\n      0x00\n        /* \"Core/XSwapERC20.sol\":1790:1822  _transfer(msg.sender, to, value) */\n      tag_197\n        /* \"Core/XSwapERC20.sol\":1800:1810  msg.sender */\n      caller\n        /* \"Core/XSwapERC20.sol\":1812:1814  to */\n      dup5\n        /* \"Core/XSwapERC20.sol\":1816:1821  value */\n      dup5\n        /* \"Core/XSwapERC20.sol\":1790:1799  _transfer */\n      tag_115\n        /* \"Core/XSwapERC20.sol\":1790:1822  _transfer(msg.sender, to, value) */\n      jump\t// in\n    tag_197:\n        /* \"Core/XSwapERC20.sol\":1839:1843  true */\n      0x01\n        /* \"Core/XSwapERC20.sol\":1832:1843  return true */\n      swap1\n      pop\n        /* \"Core/XSwapERC20.sol\":1711:1850  function transfer(address to, uint256 value) external returns (bool) {... */\n      swap3\n      swap2\n      pop\n      pop\n      jump\t// out\n        /* \"Core/XSwapPair2.sol\":891:2440  function swap(address _tokenIn, uint256 _amountIn)... */\n    tag_97:\n        /* \"Core/XSwapPair2.sol\":976:993  uint256 amountOut */\n      0x00\n        /* \"Core/XSwapPair2.sol\":1102:1108  token0 */\n      immutable(\"0x1919bbb77b48a65a3a334e011819abf5317994b267bc385c63c0af09ecf64635\")\n        /* \"Core/XSwapPair2.sol\":1082:1109  _tokenIn == address(token0) */\n      0xffffffffffffffffffffffffffffffffffffffff\n      and\n        /* \"Core/XSwapPair2.sol\":1082:1090  _tokenIn */\n      dup4\n        /* \"Core/XSwapPair2.sol\":1082:1109  _tokenIn == address(token0) */\n      0xffffffffffffffffffffffffffffffffffffffff\n      and\n      eq\n        /* \"Core/XSwapPair2.sol\":1082:1140  _tokenIn == address(token0) || _tokenIn == address(token1) */\n      dup1\n      tag_199\n      jumpi\n      pop\n        /* \"Core/XSwapPair2.sol\":1133:1139  token1 */\n      immutable(\"0x4f07d7aea7a8a16d4b795a9a9aabd4a50f93236b39d48ad640505cdc3dbb3bbc\")\n        /* \"Core/XSwapPair2.sol\":1113:1140  _tokenIn == address(token1) */\n      0xffffffffffffffffffffffffffffffffffffffff\n      and\n        /* \"Core/XSwapPair2.sol\":1113:1121  _tokenIn */\n      dup4\n        /* \"Core/XSwapPair2.sol\":1113:1140  _tokenIn == address(token1) */\n      0xffffffffffffffffffffffffffffffffffffffff\n      and\n      eq\n        /* \"Core/XSwapPair2.sol\":1082:1140  _tokenIn == address(token0) || _tokenIn == address(token1) */\n    tag_199:\n        /* \"Core/XSwapPair2.sol\":1061:1179  require(... */\n      tag_200\n      jumpi\n      mload(0x40)\n      0x08c379a000000000000000000000000000000000000000000000000000000000\n      dup2\n      mstore\n      0x04\n      add\n      tag_201\n      swap1\n      tag_202\n      jump\t// in\n    tag_201:\n      mload(0x40)\n      dup1\n      swap2\n      sub\n      swap1\n      revert\n    tag_200:\n        /* \"Core/XSwapPair2.sol\":1210:1211  0 */\n      0x00\n        /* \"Core/XSwapPair2.sol\":1198:1207  _amountIn */\n      dup3\n        /* \"Core/XSwapPair2.sol\":1198:1211  _amountIn > 0 */\n      gt\n        /* \"Core/XSwapPair2.sol\":1190:1229  require(_amountIn > 0, \"amount in = 0\") */\n      tag_203\n      jumpi\n      mload(0x40)\n      0x08c379a000000000000000000000000000000000000000000000000000000000\n      dup2\n      mstore\n      0x04\n      add\n      tag_204\n      swap1\n      tag_205\n      jump\t// in\n    tag_204:\n      mload(0x40)\n      dup1\n      swap2\n      sub\n      swap1\n      revert\n    tag_203:\n        /* \"Core/XSwapPair2.sol\":1284:1297  bool isToken0 */\n      0x00\n        /* \"Core/XSwapPair2.sol\":1320:1326  token0 */\n      immutable(\"0x1919bbb77b48a65a3a334e011819abf5317994b267bc385c63c0af09ecf64635\")\n        /* \"Core/XSwapPair2.sol\":1300:1327  _tokenIn == address(token0) */\n      0xffffffffffffffffffffffffffffffffffffffff\n      and\n        /* \"Core/XSwapPair2.sol\":1300:1308  _tokenIn */\n      dup5\n        /* \"Core/XSwapPair2.sol\":1300:1327  _tokenIn == address(token0) */\n      0xffffffffffffffffffffffffffffffffffffffff\n      and\n      eq\n        /* \"Core/XSwapPair2.sol\":1284:1327  bool isToken0 = _tokenIn == address(token0) */\n      swap1\n      pop\n        /* \"Core/XSwapPair2.sol\":1440:1454  IERC20 tokenIn */\n      0x00\n        /* \"Core/XSwapPair2.sol\":1468:1483  IERC20 tokenOut */\n      dup1\n        /* \"Core/XSwapPair2.sol\":1497:1514  uint256 reserveIn */\n      0x00\n        /* \"Core/XSwapPair2.sol\":1528:1546  uint256 reserveOut */\n      dup1\n        /* \"Core/XSwapPair2.sol\":1559:1567  isToken0 */\n      dup5\n        /* \"Core/XSwapPair2.sol\":1559:1677  isToken0... */\n      tag_206\n      jumpi\n        /* \"Core/XSwapPair2.sol\":1642:1648  token1 */\n      immutable(\"0x4f07d7aea7a8a16d4b795a9a9aabd4a50f93236b39d48ad640505cdc3dbb3bbc\")\n        /* \"Core/XSwapPair2.sol\":1650:1656  token0 */\n      immutable(\"0x1919bbb77b48a65a3a334e011819abf5317994b267bc385c63c0af09ecf64635\")\n        /* \"Core/XSwapPair2.sol\":1658:1666  reserve1 */\n      sload(0x05)\n        /* \"Core/XSwapPair2.sol\":1668:1676  reserve0 */\n      sload(0x04)\n        /* \"Core/XSwapPair2.sol\":1559:1677  isToken0... */\n      jump(tag_207)\n    tag_206:\n        /* \"Core/XSwapPair2.sol\":1587:1593  token0 */\n      immutable(\"0x1919bbb77b48a65a3a334e011819abf5317994b267bc385c63c0af09ecf64635\")\n        /* \"Core/XSwapPair2.sol\":1595:1601  token1 */\n      immutable(\"0x4f07d7aea7a8a16d4b795a9a9aabd4a50f93236b39d48ad640505cdc3dbb3bbc\")\n        /* \"Core/XSwapPair2.sol\":1603:1611  reserve0 */\n      sload(0x04)\n        /* \"Core/XSwapPair2.sol\":1613:1621  reserve1 */\n      sload(0x05)\n        /* \"Core/XSwapPair2.sol\":1559:1677  isToken0... */\n    tag_207:\n        /* \"Core/XSwapPair2.sol\":1426:1677  (... */\n      swap4\n      pop\n      swap4\n      pop\n      swap4\n      pop\n      swap4\n      pop\n        /* \"Core/XSwapPair2.sol\":1753:1760  tokenIn */\n      dup4\n        /* \"Core/XSwapPair2.sol\":1753:1773  tokenIn.transferFrom */\n      0xffffffffffffffffffffffffffffffffffffffff\n      and\n      0x23b872dd\n        /* \"Core/XSwapPair2.sol\":1774:1784  msg.sender */\n      caller\n        /* \"Core/XSwapPair2.sol\":1794:1798  this */\n      address\n        /* \"Core/XSwapPair2.sol\":1801:1810  _amountIn */\n      dup11\n        /* \"Core/XSwapPair2.sol\":1753:1811  tokenIn.transferFrom(msg.sender, address(this), _amountIn) */\n      mload(0x40)\n      dup5\n      0xffffffff\n      and\n      0xe0\n      shl\n      dup2\n      mstore\n      0x04\n      add\n      tag_208\n      swap4\n      swap3\n      swap2\n      swap1\n      tag_156\n      jump\t// in\n    tag_208:\n      0x20\n      mload(0x40)\n      dup1\n      dup4\n      sub\n      dup2\n      0x00\n      dup8\n      gas\n      call\n      iszero\n      dup1\n      iszero\n      tag_210\n      jumpi\n      returndatasize\n      0x00\n      dup1\n      returndatacopy\n      revert(0x00, returndatasize)\n    tag_210:\n      pop\n      pop\n      pop\n      pop\n      mload(0x40)\n      returndatasize\n      not(0x1f)\n      0x1f\n      dup3\n      add\n      and\n      dup3\n      add\n      dup1\n      0x40\n      mstore\n      pop\n      dup2\n      add\n      swap1\n      tag_211\n      swap2\n      swap1\n      tag_149\n      jump\t// in\n    tag_211:\n      pop\n        /* \"Core/XSwapPair2.sol\":1842:1865  uint256 amountInWithFee */\n      0x00\n        /* \"Core/XSwapPair2.sol\":1888:1892  1000 */\n      0x03e8\n        /* \"Core/XSwapPair2.sol\":1881:1884  997 */\n      0x03e5\n        /* \"Core/XSwapPair2.sol\":1869:1878  _amountIn */\n      dup10\n        /* \"Core/XSwapPair2.sol\":1869:1884  _amountIn * 997 */\n      tag_212\n      swap2\n      swap1\n      tag_128\n      jump\t// in\n    tag_212:\n        /* \"Core/XSwapPair2.sol\":1868:1892  (_amountIn * 997) / 1000 */\n      tag_213\n      swap2\n      swap1\n      tag_130\n      jump\t// in\n    tag_213:\n        /* \"Core/XSwapPair2.sol\":1842:1892  uint256 amountInWithFee = (_amountIn * 997) / 1000 */\n      swap1\n      pop\n        /* \"Core/XSwapPair2.sol\":2126:2141  amountInWithFee */\n      dup1\n        /* \"Core/XSwapPair2.sol\":2114:2123  reserveIn */\n      dup4\n        /* \"Core/XSwapPair2.sol\":2114:2141  reserveIn + amountInWithFee */\n      tag_214\n      swap2\n      swap1\n      tag_215\n      jump\t// in\n    tag_214:\n        /* \"Core/XSwapPair2.sol\":2082:2097  amountInWithFee */\n      dup2\n        /* \"Core/XSwapPair2.sol\":2069:2079  reserveOut */\n      dup4\n        /* \"Core/XSwapPair2.sol\":2069:2097  reserveOut * amountInWithFee */\n      tag_216\n      swap2\n      swap1\n      tag_128\n      jump\t// in\n    tag_216:\n        /* \"Core/XSwapPair2.sol\":2068:2142  (reserveOut * amountInWithFee) /... */\n      tag_217\n      swap2\n      swap1\n      tag_130\n      jump\t// in\n    tag_217:\n        /* \"Core/XSwapPair2.sol\":2044:2142  amountOut =... */\n      swap7\n      pop\n        /* \"Core/XSwapPair2.sol\":2201:2209  tokenOut */\n      dup4\n        /* \"Core/XSwapPair2.sol\":2201:2218  tokenOut.transfer */\n      0xffffffffffffffffffffffffffffffffffffffff\n      and\n      0xa9059cbb\n        /* \"Core/XSwapPair2.sol\":2219:2229  msg.sender */\n      caller\n        /* \"Core/XSwapPair2.sol\":2231:2240  amountOut */\n      dup10\n        /* \"Core/XSwapPair2.sol\":2201:2241  tokenOut.transfer(msg.sender, amountOut) */\n      mload(0x40)\n      dup4\n      0xffffffff\n      and\n      0xe0\n      shl\n      dup2\n      mstore\n      0x04\n      add\n      tag_218\n      swap3\n      swap2\n      swap1\n      tag_145\n      jump\t// in\n    tag_218:\n      0x20\n      mload(0x40)\n      dup1\n      dup4\n      sub\n      dup2\n      0x00\n      dup8\n      gas\n      call\n      iszero\n      dup1\n      iszero\n      tag_220\n      jumpi\n      returndatasize\n      0x00\n      dup1\n      returndatacopy\n      revert(0x00, returndatasize)\n    tag_220:\n      pop\n      pop\n      pop\n      pop\n      mload(0x40)\n      returndatasize\n      not(0x1f)\n      0x1f\n      dup3\n      add\n      and\n      dup3\n      add\n      dup1\n      0x40\n      mstore\n      pop\n      dup2\n      add\n      swap1\n      tag_221\n      swap2\n      swap1\n      tag_149\n      jump\t// in\n    tag_221:\n      pop\n        /* \"Core/XSwapPair2.sol\":2326:2433  _update(... */\n      tag_222\n        /* \"Core/XSwapPair2.sol\":2347:2353  token0 */\n      immutable(\"0x1919bbb77b48a65a3a334e011819abf5317994b267bc385c63c0af09ecf64635\")\n        /* \"Core/XSwapPair2.sol\":2347:2363  token0.balanceOf */\n      0xffffffffffffffffffffffffffffffffffffffff\n      and\n      0x70a08231\n        /* \"Core/XSwapPair2.sol\":2372:2376  this */\n      address\n        /* \"Core/XSwapPair2.sol\":2347:2378  token0.balanceOf(address(this)) */\n      mload(0x40)\n      dup3\n      0xffffffff\n      and\n      0xe0\n      shl\n      dup2\n      mstore\n      0x04\n      add\n      tag_223\n      swap2\n      swap1\n      tag_118\n      jump\t// in\n    tag_223:\n      0x20\n      mload(0x40)\n      dup1\n      dup4\n      sub\n      dup2\n      dup7\n      gas\n      staticcall\n      iszero\n      dup1\n      iszero\n      tag_225\n      jumpi\n      returndatasize\n      0x00\n      dup1\n      returndatacopy\n      revert(0x00, returndatasize)\n    tag_225:\n      pop\n      pop\n      pop\n      pop\n      mload(0x40)\n      returndatasize\n      not(0x1f)\n      0x1f\n      dup3\n      add\n      and\n      dup3\n      add\n      dup1\n      0x40\n      mstore\n      pop\n      dup2\n      add\n      swap1\n      tag_226\n      swap2\n      swap1\n      tag_122\n      jump\t// in\n    tag_226:\n        /* \"Core/XSwapPair2.sol\":2392:2398  token1 */\n      immutable(\"0x4f07d7aea7a8a16d4b795a9a9aabd4a50f93236b39d48ad640505cdc3dbb3bbc\")\n        /* \"Core/XSwapPair2.sol\":2392:2408  token1.balanceOf */\n      0xffffffffffffffffffffffffffffffffffffffff\n      and\n      0x70a08231\n        /* \"Core/XSwapPair2.sol\":2417:2421  this */\n      address\n        /* \"Core/XSwapPair2.sol\":2392:2423  token1.balanceOf(address(this)) */\n      mload(0x40)\n      dup3\n      0xffffffff\n      and\n      0xe0\n      shl\n      dup2\n      mstore\n      0x04\n      add\n      tag_227\n      swap2\n      swap1\n      tag_118\n      jump\t// in\n    tag_227:\n      0x20\n      mload(0x40)\n      dup1\n      dup4\n      sub\n      dup2\n      dup7\n      gas\n      staticcall\n      iszero\n      dup1\n      iszero\n      tag_229\n      jumpi\n      returndatasize\n      0x00\n      dup1\n      returndatacopy\n      revert(0x00, returndatasize)\n    tag_229:\n      pop\n      pop\n      pop\n      pop\n      mload(0x40)\n      returndatasize\n      not(0x1f)\n      0x1f\n      dup3\n      add\n      and\n      dup3\n      add\n      dup1\n      0x40\n      mstore\n      pop\n      dup2\n      add\n      swap1\n      tag_230\n      swap2\n      swap1\n      tag_122\n      jump\t// in\n    tag_230:\n        /* \"Core/XSwapPair2.sol\":2326:2333  _update */\n      tag_143\n        /* \"Core/XSwapPair2.sol\":2326:2433  _update(... */\n      jump\t// in\n    tag_222:\n        /* \"Core/XSwapPair2.sol\":999:2440  {... */\n      pop\n      pop\n      pop\n      pop\n      pop\n      pop\n        /* \"Core/XSwapPair2.sol\":891:2440  function swap(address _tokenIn, uint256 _amountIn)... */\n      swap3\n      swap2\n      pop\n      pop\n      jump\t// out\n        /* \"Core/XSwapPair2.sol\":235:265  IERC20 public immutable token1 */\n    tag_100:\n      immutable(\"0x4f07d7aea7a8a16d4b795a9a9aabd4a50f93236b39d48ad640505cdc3dbb3bbc\")\n      dup2\n      jump\t// out\n        /* \"Core/XSwapERC20.sol\":368:432  mapping(address => mapping(address => uint256)) public allowance */\n    tag_105:\n      mstore(0x20, 0x02)\n      dup2\n      0x00\n      mstore\n      mstore(0x20, keccak256(0x00, 0x40))\n      dup1\n      0x00\n      mstore\n      keccak256(0x00, 0x40)\n      0x00\n      swap2\n      pop\n      swap2\n      pop\n      pop\n      sload\n      dup2\n      jump\t// out\n        /* \"Core/XSwapERC20.sol\":1098:1297  function _approve(... */\n    tag_109:\n        /* \"Core/XSwapERC20.sol\":1239:1244  value */\n      dup1\n        /* \"Core/XSwapERC20.sol\":1211:1220  allowance */\n      0x02\n        /* \"Core/XSwapERC20.sol\":1211:1227  allowance[owner] */\n      0x00\n        /* \"Core/XSwapERC20.sol\":1221:1226  owner */\n      dup6\n        /* \"Core/XSwapERC20.sol\":1211:1227  allowance[owner] */\n      0xffffffffffffffffffffffffffffffffffffffff\n      and\n      0xffffffffffffffffffffffffffffffffffffffff\n      and\n      dup2\n      mstore\n      0x20\n      add\n      swap1\n      dup2\n      mstore\n      0x20\n      add\n      0x00\n      keccak256\n        /* \"Core/XSwapERC20.sol\":1211:1236  allowance[owner][spender] */\n      0x00\n        /* \"Core/XSwapERC20.sol\":1228:1235  spender */\n      dup5\n        /* \"Core/XSwapERC20.sol\":1211:1236  allowance[owner][spender] */\n      0xffffffffffffffffffffffffffffffffffffffff\n      and\n      0xffffffffffffffffffffffffffffffffffffffff\n      and\n      dup2\n      mstore\n      0x20\n      add\n      swap1\n      dup2\n      mstore\n      0x20\n      add\n      0x00\n      keccak256\n        /* \"Core/XSwapERC20.sol\":1211:1244  allowance[owner][spender] = value */\n      dup2\n      swap1\n      sstore\n      pop\n        /* \"Core/XSwapERC20.sol\":1275:1282  spender */\n      dup2\n        /* \"Core/XSwapERC20.sol\":1259:1290  Approval(owner, spender, value) */\n      0xffffffffffffffffffffffffffffffffffffffff\n      and\n        /* \"Core/XSwapERC20.sol\":1268:1273  owner */\n      dup4\n        /* \"Core/XSwapERC20.sol\":1259:1290  Approval(owner, spender, value) */\n      0xffffffffffffffffffffffffffffffffffffffff\n      and\n      0x8c5be1e5ebec7d5bd14f71427d1e84f3dd0314c0f7b2291e5b200ac8c7c3b925\n        /* \"Core/XSwapERC20.sol\":1284:1289  value */\n      dup4\n        /* \"Core/XSwapERC20.sol\":1259:1290  Approval(owner, spender, value) */\n      mload(0x40)\n      tag_232\n      swap2\n      swap1\n      tag_43\n      jump\t// in\n    tag_232:\n      mload(0x40)\n      dup1\n      swap2\n      sub\n      swap1\n      log3\n        /* \"Core/XSwapERC20.sol\":1098:1297  function _approve(... */\n      pop\n      pop\n      pop\n      jump\t// out\n        /* \"Core/libraries/SafeMath.sol\":328:464  function sub(uint256 x, uint256 y) internal pure returns (uint256 z) {... */\n    tag_113:\n        /* \"Core/libraries/SafeMath.sol\":386:395  uint256 z */\n      0x00\n        /* \"Core/libraries/SafeMath.sol\":430:431  x */\n      dup3\n        /* \"Core/libraries/SafeMath.sol\":424:425  y */\n      dup3\n        /* \"Core/libraries/SafeMath.sol\":420:421  x */\n      dup5\n        /* \"Core/libraries/SafeMath.sol\":420:425  x - y */\n      tag_234\n      swap2\n      swap1\n      tag_141\n      jump\t// in\n    tag_234:\n        /* \"Core/libraries/SafeMath.sol\":416:425  z = x - y */\n      swap2\n      pop\n      dup2\n        /* \"Core/libraries/SafeMath.sol\":415:431  (z = x - y) <= x */\n      gt\n      iszero\n        /* \"Core/libraries/SafeMath.sol\":407:457  require((z = x - y) <= x, \"ds-math-sub-underflow\") */\n      tag_235\n      jumpi\n      mload(0x40)\n      0x08c379a000000000000000000000000000000000000000000000000000000000\n      dup2\n      mstore\n      0x04\n      add\n      tag_236\n      swap1\n      tag_237\n      jump\t// in\n    tag_236:\n      mload(0x40)\n      dup1\n      swap2\n      sub\n      swap1\n      revert\n    tag_235:\n        /* \"Core/libraries/SafeMath.sol\":328:464  function sub(uint256 x, uint256 y) internal pure returns (uint256 z) {... */\n      swap3\n      swap2\n      pop\n      pop\n      jump\t// out\n        /* \"Core/XSwapERC20.sol\":1303:1552  function _transfer(... */\n    tag_115:\n        /* \"Core/XSwapERC20.sol\":1429:1455  balanceOf[from].sub(value) */\n      tag_239\n        /* \"Core/XSwapERC20.sol\":1449:1454  value */\n      dup2\n        /* \"Core/XSwapERC20.sol\":1429:1438  balanceOf */\n      0x01\n        /* \"Core/XSwapERC20.sol\":1429:1444  balanceOf[from] */\n      0x00\n        /* \"Core/XSwapERC20.sol\":1439:1443  from */\n      dup7\n        /* \"Core/XSwapERC20.sol\":1429:1444  balanceOf[from] */\n      0xffffffffffffffffffffffffffffffffffffffff\n      and\n      0xffffffffffffffffffffffffffffffffffffffff\n      and\n      dup2\n      mstore\n      0x20\n      add\n      swap1\n      dup2\n      mstore\n      0x20\n      add\n      0x00\n      keccak256\n      sload\n        /* \"Core/XSwapERC20.sol\":1429:1448  balanceOf[from].sub */\n      tag_113\n      swap1\n        /* \"Core/XSwapERC20.sol\":1429:1455  balanceOf[from].sub(value) */\n      swap2\n      swap1\n      0xffffffff\n      and\n      jump\t// in\n    tag_239:\n        /* \"Core/XSwapERC20.sol\":1411:1420  balanceOf */\n      0x01\n        /* \"Core/XSwapERC20.sol\":1411:1426  balanceOf[from] */\n      0x00\n        /* \"Core/XSwapERC20.sol\":1421:1425  from */\n      dup6\n        /* \"Core/XSwapERC20.sol\":1411:1426  balanceOf[from] */\n      0xffffffffffffffffffffffffffffffffffffffff\n      and\n      0xffffffffffffffffffffffffffffffffffffffff\n      and\n      dup2\n      mstore\n      0x20\n      add\n      swap1\n      dup2\n      mstore\n      0x20\n      add\n      0x00\n      keccak256\n        /* \"Core/XSwapERC20.sol\":1411:1455  balanceOf[from] = balanceOf[from].sub(value) */\n      dup2\n      swap1\n      sstore\n      pop\n        /* \"Core/XSwapERC20.sol\":1481:1505  balanceOf[to].add(value) */\n      tag_240\n        /* \"Core/XSwapERC20.sol\":1499:1504  value */\n      dup2\n        /* \"Core/XSwapERC20.sol\":1481:1490  balanceOf */\n      0x01\n        /* \"Core/XSwapERC20.sol\":1481:1494  balanceOf[to] */\n      0x00\n        /* \"Core/XSwapERC20.sol\":1491:1493  to */\n      dup6\n        /* \"Core/XSwapERC20.sol\":1481:1494  balanceOf[to] */\n      0xffffffffffffffffffffffffffffffffffffffff\n      and\n      0xffffffffffffffffffffffffffffffffffffffff\n      and\n      dup2\n      mstore\n      0x20\n      add\n      swap1\n      dup2\n      mstore\n      0x20\n      add\n      0x00\n      keccak256\n      sload\n        /* \"Core/XSwapERC20.sol\":1481:1498  balanceOf[to].add */\n      tag_241\n      swap1\n        /* \"Core/XSwapERC20.sol\":1481:1505  balanceOf[to].add(value) */\n      swap2\n      swap1\n      0xffffffff\n      and\n      jump\t// in\n    tag_240:\n        /* \"Core/XSwapERC20.sol\":1465:1474  balanceOf */\n      0x01\n        /* \"Core/XSwapERC20.sol\":1465:1478  balanceOf[to] */\n      0x00\n        /* \"Core/XSwapERC20.sol\":1475:1477  to */\n      dup5\n        /* \"Core/XSwapERC20.sol\":1465:1478  balanceOf[to] */\n      0xffffffffffffffffffffffffffffffffffffffff\n      and\n      0xffffffffffffffffffffffffffffffffffffffff\n      and\n      dup2\n      mstore\n      0x20\n      add\n      swap1\n      dup2\n      mstore\n      0x20\n      add\n      0x00\n      keccak256\n        /* \"Core/XSwapERC20.sol\":1465:1505  balanceOf[to] = balanceOf[to].add(value) */\n      dup2\n      swap1\n      sstore\n      pop\n        /* \"Core/XSwapERC20.sol\":1535:1537  to */\n      dup2\n        /* \"Core/XSwapERC20.sol\":1520:1545  Transfer(from, to, value) */\n      0xffffffffffffffffffffffffffffffffffffffff\n      and\n        /* \"Core/XSwapERC20.sol\":1529:1533  from */\n      dup4\n        /* \"Core/XSwapERC20.sol\":1520:1545  Transfer(from, to, value) */\n      0xffffffffffffffffffffffffffffffffffffffff\n      and\n      0xddf252ad1be2c89b69c2b068fc378daa952ba7f163c4a11628f55a4df523b3ef\n        /* \"Core/XSwapERC20.sol\":1539:1544  value */\n      dup4\n        /* \"Core/XSwapERC20.sol\":1520:1545  Transfer(from, to, value) */\n      mload(0x40)\n      tag_242\n      swap2\n      swap1\n      tag_43\n      jump\t// in\n    tag_242:\n      mload(0x40)\n      dup1\n      swap2\n      sub\n      swap1\n      log3\n        /* \"Core/XSwapERC20.sol\":1303:1552  function _transfer(... */\n      pop\n      pop\n      pop\n      jump\t// out\n        /* \"Core/XSwapERC20.sol\":884:1092  function _burn(address from, uint256 value) internal {... */\n    tag_138:\n        /* \"Core/XSwapERC20.sol\":965:991  balanceOf[from].sub(value) */\n      tag_244\n        /* \"Core/XSwapERC20.sol\":985:990  value */\n      dup2\n        /* \"Core/XSwapERC20.sol\":965:974  balanceOf */\n      0x01\n        /* \"Core/XSwapERC20.sol\":965:980  balanceOf[from] */\n      0x00\n        /* \"Core/XSwapERC20.sol\":975:979  from */\n      dup6\n        /* \"Core/XSwapERC20.sol\":965:980  balanceOf[from] */\n      0xffffffffffffffffffffffffffffffffffffffff\n      and\n      0xffffffffffffffffffffffffffffffffffffffff\n      and\n      dup2\n      mstore\n      0x20\n      add\n      swap1\n      dup2\n      mstore\n      0x20\n      add\n      0x00\n      keccak256\n      sload\n        /* \"Core/XSwapERC20.sol\":965:984  balanceOf[from].sub */\n      tag_113\n      swap1\n        /* \"Core/XSwapERC20.sol\":965:991  balanceOf[from].sub(value) */\n      swap2\n      swap1\n      0xffffffff\n      and\n      jump\t// in\n    tag_244:\n        /* \"Core/XSwapERC20.sol\":947:956  balanceOf */\n      0x01\n        /* \"Core/XSwapERC20.sol\":947:962  balanceOf[from] */\n      0x00\n        /* \"Core/XSwapERC20.sol\":957:961  from */\n      dup5\n        /* \"Core/XSwapERC20.sol\":947:962  balanceOf[from] */\n      0xffffffffffffffffffffffffffffffffffffffff\n      and\n      0xffffffffffffffffffffffffffffffffffffffff\n      and\n      dup2\n      mstore\n      0x20\n      add\n      swap1\n      dup2\n      mstore\n      0x20\n      add\n      0x00\n      keccak256\n        /* \"Core/XSwapERC20.sol\":947:991  balanceOf[from] = balanceOf[from].sub(value) */\n      dup2\n      swap1\n      sstore\n      pop\n        /* \"Core/XSwapERC20.sol\":1015:1037  totalSupply.sub(value) */\n      tag_245\n        /* \"Core/XSwapERC20.sol\":1031:1036  value */\n      dup2\n        /* \"Core/XSwapERC20.sol\":1015:1026  totalSupply */\n      sload(0x00)\n        /* \"Core/XSwapERC20.sol\":1015:1030  totalSupply.sub */\n      tag_113\n      swap1\n        /* \"Core/XSwapERC20.sol\":1015:1037  totalSupply.sub(value) */\n      swap2\n      swap1\n      0xffffffff\n      and\n      jump\t// in\n    tag_245:\n        /* \"Core/XSwapERC20.sol\":1001:1012  totalSupply */\n      0x00\n        /* \"Core/XSwapERC20.sol\":1001:1037  totalSupply = totalSupply.sub(value) */\n      dup2\n      swap1\n      sstore\n      pop\n        /* \"Core/XSwapERC20.sol\":1075:1076  0 */\n      0x00\n        /* \"Core/XSwapERC20.sol\":1052:1085  Transfer(from, address(0), value) */\n      0xffffffffffffffffffffffffffffffffffffffff\n      and\n        /* \"Core/XSwapERC20.sol\":1061:1065  from */\n      dup3\n        /* \"Core/XSwapERC20.sol\":1052:1085  Transfer(from, address(0), value) */\n      0xffffffffffffffffffffffffffffffffffffffff\n      and\n      0xddf252ad1be2c89b69c2b068fc378daa952ba7f163c4a11628f55a4df523b3ef\n        /* \"Core/XSwapERC20.sol\":1079:1084  value */\n      dup4\n        /* \"Core/XSwapERC20.sol\":1052:1085  Transfer(from, address(0), value) */\n      mload(0x40)\n      tag_246\n      swap2\n      swap1\n      tag_43\n      jump\t// in\n    tag_246:\n      mload(0x40)\n      dup1\n      swap2\n      sub\n      swap1\n      log3\n        /* \"Core/XSwapERC20.sol\":884:1092  function _burn(address from, uint256 value) internal {... */\n      pop\n      pop\n      jump\t// out\n        /* \"Core/XSwapPair2.sol\":717:847  function _update(uint256 _reserve0, uint256 _reserve1) private {... */\n    tag_143:\n        /* \"Core/XSwapPair2.sol\":801:810  _reserve0 */\n      dup2\n        /* \"Core/XSwapPair2.sol\":790:798  reserve0 */\n      0x04\n        /* \"Core/XSwapPair2.sol\":790:810  reserve0 = _reserve0 */\n      dup2\n      swap1\n      sstore\n      pop\n        /* \"Core/XSwapPair2.sol\":831:840  _reserve1 */\n      dup1\n        /* \"Core/XSwapPair2.sol\":820:828  reserve1 */\n      0x05\n        /* \"Core/XSwapPair2.sol\":820:840  reserve1 = _reserve1 */\n      dup2\n      swap1\n      sstore\n      pop\n        /* \"Core/XSwapPair2.sol\":717:847  function _update(uint256 _reserve0, uint256 _reserve1) private {... */\n      pop\n      pop\n      jump\t// out\n        /* \"Core/XSwapPair2.sol\":4555:4856  function _sqrt(uint256 y) private pure returns (uint256 z) {... */\n    tag_174:\n        /* \"Core/XSwapPair2.sol\":4603:4612  uint256 z */\n      0x00\n        /* \"Core/XSwapPair2.sol\":4632:4633  3 */\n      0x03\n        /* \"Core/XSwapPair2.sol\":4628:4629  y */\n      dup3\n        /* \"Core/XSwapPair2.sol\":4628:4633  y > 3 */\n      gt\n        /* \"Core/XSwapPair2.sol\":4624:4850  if (y > 3) {... */\n      iszero\n      tag_249\n      jumpi\n        /* \"Core/XSwapPair2.sol\":4653:4654  y */\n      dup2\n        /* \"Core/XSwapPair2.sol\":4649:4654  z = y */\n      swap1\n      pop\n        /* \"Core/XSwapPair2.sol\":4668:4677  uint256 x */\n      0x00\n        /* \"Core/XSwapPair2.sol\":4688:4689  1 */\n      0x01\n        /* \"Core/XSwapPair2.sol\":4684:4685  2 */\n      0x02\n        /* \"Core/XSwapPair2.sol\":4680:4681  y */\n      dup5\n        /* \"Core/XSwapPair2.sol\":4680:4685  y / 2 */\n      tag_250\n      swap2\n      swap1\n      tag_130\n      jump\t// in\n    tag_250:\n        /* \"Core/XSwapPair2.sol\":4680:4689  y / 2 + 1 */\n      tag_251\n      swap2\n      swap1\n      tag_215\n      jump\t// in\n    tag_251:\n        /* \"Core/XSwapPair2.sol\":4668:4689  uint256 x = y / 2 + 1 */\n      swap1\n      pop\n        /* \"Core/XSwapPair2.sol\":4703:4792  while (x < z) {... */\n    tag_252:\n        /* \"Core/XSwapPair2.sol\":4714:4715  z */\n      dup2\n        /* \"Core/XSwapPair2.sol\":4710:4711  x */\n      dup2\n        /* \"Core/XSwapPair2.sol\":4710:4715  x < z */\n      lt\n        /* \"Core/XSwapPair2.sol\":4703:4792  while (x < z) {... */\n      iszero\n      tag_253\n      jumpi\n        /* \"Core/XSwapPair2.sol\":4739:4740  x */\n      dup1\n        /* \"Core/XSwapPair2.sol\":4735:4740  z = x */\n      swap2\n      pop\n        /* \"Core/XSwapPair2.sol\":4776:4777  2 */\n      0x02\n        /* \"Core/XSwapPair2.sol\":4771:4772  x */\n      dup2\n        /* \"Core/XSwapPair2.sol\":4767:4768  x */\n      dup3\n        /* \"Core/XSwapPair2.sol\":4763:4764  y */\n      dup6\n        /* \"Core/XSwapPair2.sol\":4763:4768  y / x */\n      tag_254\n      swap2\n      swap1\n      tag_130\n      jump\t// in\n    tag_254:\n        /* \"Core/XSwapPair2.sol\":4763:4772  y / x + x */\n      tag_255\n      swap2\n      swap1\n      tag_215\n      jump\t// in\n    tag_255:\n        /* \"Core/XSwapPair2.sol\":4762:4777  (y / x + x) / 2 */\n      tag_256\n      swap2\n      swap1\n      tag_130\n      jump\t// in\n    tag_256:\n        /* \"Core/XSwapPair2.sol\":4758:4777  x = (y / x + x) / 2 */\n      swap1\n      pop\n        /* \"Core/XSwapPair2.sol\":4703:4792  while (x < z) {... */\n      jump(tag_252)\n    tag_253:\n        /* \"Core/XSwapPair2.sol\":4635:4802  {... */\n      pop\n        /* \"Core/XSwapPair2.sol\":4624:4850  if (y > 3) {... */\n      jump(tag_257)\n    tag_249:\n        /* \"Core/XSwapPair2.sol\":4817:4818  0 */\n      0x00\n        /* \"Core/XSwapPair2.sol\":4812:4813  y */\n      dup3\n        /* \"Core/XSwapPair2.sol\":4812:4818  y != 0 */\n      eq\n        /* \"Core/XSwapPair2.sol\":4808:4850  if (y != 0) {... */\n      tag_258\n      jumpi\n        /* \"Core/XSwapPair2.sol\":4838:4839  1 */\n      0x01\n        /* \"Core/XSwapPair2.sol\":4834:4839  z = 1 */\n      swap1\n      pop\n        /* \"Core/XSwapPair2.sol\":4808:4850  if (y != 0) {... */\n    tag_258:\n        /* \"Core/XSwapPair2.sol\":4624:4850  if (y > 3) {... */\n    tag_257:\n        /* \"Core/XSwapPair2.sol\":4555:4856  function _sqrt(uint256 y) private pure returns (uint256 z) {... */\n      swap2\n      swap1\n      pop\n      jump\t// out\n        /* \"Core/XSwapPair2.sol\":4918:5023  function _min(uint256 x, uint256 y) private pure returns (uint256) {... */\n    tag_181:\n        /* \"Core/XSwapPair2.sol\":4976:4983  uint256 */\n      0x00\n        /* \"Core/XSwapPair2.sol\":5007:5008  y */\n      dup2\n        /* \"Core/XSwapPair2.sol\":5002:5003  x */\n      dup4\n        /* \"Core/XSwapPair2.sol\":5002:5008  x <= y */\n      gt\n      iszero\n        /* \"Core/XSwapPair2.sol\":5002:5016  x <= y ? x : y */\n      tag_260\n      jumpi\n        /* \"Core/XSwapPair2.sol\":5015:5016  y */\n      dup2\n        /* \"Core/XSwapPair2.sol\":5002:5016  x <= y ? x : y */\n      jump(tag_261)\n    tag_260:\n        /* \"Core/XSwapPair2.sol\":5011:5012  x */\n      dup3\n        /* \"Core/XSwapPair2.sol\":5002:5016  x <= y ? x : y */\n    tag_261:\n        /* \"Core/XSwapPair2.sol\":4995:5016  return x <= y ? x : y */\n      swap1\n      pop\n        /* \"Core/XSwapPair2.sol\":4918:5023  function _min(uint256 x, uint256 y) private pure returns (uint256) {... */\n      swap3\n      swap2\n      pop\n      pop\n      jump\t// out\n        /* \"Core/XSwapERC20.sol\":678:878  function _mint(address to, uint256 value) internal {... */\n    tag_186:\n        /* \"Core/XSwapERC20.sol\":753:775  totalSupply.add(value) */\n      tag_263\n        /* \"Core/XSwapERC20.sol\":769:774  value */\n      dup2\n        /* \"Core/XSwapERC20.sol\":753:764  totalSupply */\n      sload(0x00)\n        /* \"Core/XSwapERC20.sol\":753:768  totalSupply.add */\n      tag_241\n      swap1\n        /* \"Core/XSwapERC20.sol\":753:775  totalSupply.add(value) */\n      swap2\n      swap1\n      0xffffffff\n      and\n      jump\t// in\n    tag_263:\n        /* \"Core/XSwapERC20.sol\":739:750  totalSupply */\n      0x00\n        /* \"Core/XSwapERC20.sol\":739:775  totalSupply = totalSupply.add(value) */\n      dup2\n      swap1\n      sstore\n      pop\n        /* \"Core/XSwapERC20.sol\":801:825  balanceOf[to].add(value) */\n      tag_264\n        /* \"Core/XSwapERC20.sol\":819:824  value */\n      dup2\n        /* \"Core/XSwapERC20.sol\":801:810  balanceOf */\n      0x01\n        /* \"Core/XSwapERC20.sol\":801:814  balanceOf[to] */\n      0x00\n        /* \"Core/XSwapERC20.sol\":811:813  to */\n      dup6\n        /* \"Core/XSwapERC20.sol\":801:814  balanceOf[to] */\n      0xffffffffffffffffffffffffffffffffffffffff\n      and\n      0xffffffffffffffffffffffffffffffffffffffff\n      and\n      dup2\n      mstore\n      0x20\n      add\n      swap1\n      dup2\n      mstore\n      0x20\n      add\n      0x00\n      keccak256\n      sload\n        /* \"Core/XSwapERC20.sol\":801:818  balanceOf[to].add */\n      tag_241\n      swap1\n        /* \"Core/XSwapERC20.sol\":801:825  balanceOf[to].add(value) */\n      swap2\n      swap1\n      0xffffffff\n      and\n      jump\t// in\n    tag_264:\n        /* \"Core/XSwapERC20.sol\":785:794  balanceOf */\n      0x01\n        /* \"Core/XSwapERC20.sol\":785:798  balanceOf[to] */\n      0x00\n        /* \"Core/XSwapERC20.sol\":795:797  to */\n      dup5\n        /* \"Core/XSwapERC20.sol\":785:798  balanceOf[to] */\n      0xffffffffffffffffffffffffffffffffffffffff\n      and\n      0xffffffffffffffffffffffffffffffffffffffff\n      and\n      dup2\n      mstore\n      0x20\n      add\n      swap1\n      dup2\n      mstore\n      0x20\n      add\n      0x00\n      keccak256\n        /* \"Core/XSwapERC20.sol\":785:825  balanceOf[to] = balanceOf[to].add(value) */\n      dup2\n      swap1\n      sstore\n      pop\n        /* \"Core/XSwapERC20.sol\":861:863  to */\n      dup2\n        /* \"Core/XSwapERC20.sol\":840:871  Transfer(address(0), to, value) */\n      0xffffffffffffffffffffffffffffffffffffffff\n      and\n        /* \"Core/XSwapERC20.sol\":857:858  0 */\n      0x00\n        /* \"Core/XSwapERC20.sol\":840:871  Transfer(address(0), to, value) */\n      0xffffffffffffffffffffffffffffffffffffffff\n      and\n      0xddf252ad1be2c89b69c2b068fc378daa952ba7f163c4a11628f55a4df523b3ef\n        /* \"Core/XSwapERC20.sol\":865:870  value */\n      dup4\n        /* \"Core/XSwapERC20.sol\":840:871  Transfer(address(0), to, value) */\n      mload(0x40)\n      tag_265\n      swap2\n      swap1\n      tag_43\n      jump\t// in\n    tag_265:\n      mload(0x40)\n      dup1\n      swap2\n      sub\n      swap1\n      log3\n        /* \"Core/XSwapERC20.sol\":678:878  function _mint(address to, uint256 value) internal {... */\n      pop\n      pop\n      jump\t// out\n        /* \"Core/libraries/SafeMath.sol\":187:322  function add(uint256 x, uint256 y) internal pure returns (uint256 z) {... */\n    tag_241:\n        /* \"Core/libraries/SafeMath.sol\":245:254  uint256 z */\n      0x00\n        /* \"Core/libraries/SafeMath.sol\":289:290  x */\n      dup3\n        /* \"Core/libraries/SafeMath.sol\":283:284  y */\n      dup3\n        /* \"Core/libraries/SafeMath.sol\":279:280  x */\n      dup5\n        /* \"Core/libraries/SafeMath.sol\":279:284  x + y */\n      tag_267\n      swap2\n      swap1\n      tag_215\n      jump\t// in\n    tag_267:\n        /* \"Core/libraries/SafeMath.sol\":275:284  z = x + y */\n      swap2\n      pop\n      dup2\n        /* \"Core/libraries/SafeMath.sol\":274:290  (z = x + y) >= x */\n      lt\n      iszero\n        /* \"Core/libraries/SafeMath.sol\":266:315  require((z = x + y) >= x, \"ds-math-add-overflow\") */\n      tag_268\n      jumpi\n      mload(0x40)\n      0x08c379a000000000000000000000000000000000000000000000000000000000\n      dup2\n      mstore\n      0x04\n      add\n      tag_269\n      swap1\n      tag_270\n      jump\t// in\n    tag_269:\n      mload(0x40)\n      dup1\n      swap2\n      sub\n      swap1\n      revert\n    tag_268:\n        /* \"Core/libraries/SafeMath.sol\":187:322  function add(uint256 x, uint256 y) internal pure returns (uint256 z) {... */\n      swap3\n      swap2\n      pop\n      pop\n      jump\t// out\n        /* \"#utility.yul\":7:106   */\n    tag_271:\n        /* \"#utility.yul\":59:65   */\n      0x00\n        /* \"#utility.yul\":93:98   */\n      dup2\n        /* \"#utility.yul\":87:99   */\n      mload\n        /* \"#utility.yul\":77:99   */\n      swap1\n      pop\n        /* \"#utility.yul\":7:106   */\n      swap2\n      swap1\n      pop\n      jump\t// out\n        /* \"#utility.yul\":112:281   */\n    tag_272:\n        /* \"#utility.yul\":196:207   */\n      0x00\n        /* \"#utility.yul\":230:236   */\n      dup3\n        /* \"#utility.yul\":225:228   */\n      dup3\n        /* \"#utility.yul\":218:237   */\n      mstore\n        /* \"#utility.yul\":270:274   */\n      0x20\n        /* \"#utility.yul\":265:268   */\n      dup3\n        /* \"#utility.yul\":261:275   */\n      add\n        /* \"#utility.yul\":246:275   */\n      swap1\n      pop\n        /* \"#utility.yul\":112:281   */\n      swap3\n      swap2\n      pop\n      pop\n      jump\t// out\n        /* \"#utility.yul\":287:594   */\n    tag_273:\n        /* \"#utility.yul\":355:356   */\n      0x00\n        /* \"#utility.yul\":365:478   */\n    tag_320:\n        /* \"#utility.yul\":379:385   */\n      dup4\n        /* \"#utility.yul\":376:377   */\n      dup2\n        /* \"#utility.yul\":373:386   */\n      lt\n        /* \"#utility.yul\":365:478   */\n      iszero\n      tag_322\n      jumpi\n        /* \"#utility.yul\":464:465   */\n      dup1\n        /* \"#utility.yul\":459:462   */\n      dup3\n        /* \"#utility.yul\":455:466   */\n      add\n        /* \"#utility.yul\":449:467   */\n      mload\n        /* \"#utility.yul\":445:446   */\n      dup2\n        /* \"#utility.yul\":440:443   */\n      dup5\n        /* \"#utility.yul\":436:447   */\n      add\n        /* \"#utility.yul\":429:468   */\n      mstore\n        /* \"#utility.yul\":401:403   */\n      0x20\n        /* \"#utility.yul\":398:399   */\n      dup2\n        /* \"#utility.yul\":394:404   */\n      add\n        /* \"#utility.yul\":389:404   */\n      swap1\n      pop\n        /* \"#utility.yul\":365:478   */\n      jump(tag_320)\n    tag_322:\n        /* \"#utility.yul\":496:502   */\n      dup4\n        /* \"#utility.yul\":493:494   */\n      dup2\n        /* \"#utility.yul\":490:503   */\n      gt\n        /* \"#utility.yul\":487:588   */\n      iszero\n      tag_323\n      jumpi\n        /* \"#utility.yul\":576:577   */\n      0x00\n        /* \"#utility.yul\":567:573   */\n      dup5\n        /* \"#utility.yul\":562:565   */\n      dup5\n        /* \"#utility.yul\":558:574   */\n      add\n        /* \"#utility.yul\":551:578   */\n      mstore\n        /* \"#utility.yul\":487:588   */\n    tag_323:\n        /* \"#utility.yul\":336:594   */\n      pop\n        /* \"#utility.yul\":287:594   */\n      pop\n      pop\n      pop\n      jump\t// out\n        /* \"#utility.yul\":600:702   */\n    tag_274:\n        /* \"#utility.yul\":641:647   */\n      0x00\n        /* \"#utility.yul\":692:694   */\n      0x1f\n        /* \"#utility.yul\":688:695   */\n      not\n        /* \"#utility.yul\":683:685   */\n      0x1f\n        /* \"#utility.yul\":676:681   */\n      dup4\n        /* \"#utility.yul\":672:686   */\n      add\n        /* \"#utility.yul\":668:696   */\n      and\n        /* \"#utility.yul\":658:696   */\n      swap1\n      pop\n        /* \"#utility.yul\":600:702   */\n      swap2\n      swap1\n      pop\n      jump\t// out\n        /* \"#utility.yul\":708:1072   */\n    tag_275:\n        /* \"#utility.yul\":796:799   */\n      0x00\n        /* \"#utility.yul\":824:863   */\n      tag_326\n        /* \"#utility.yul\":857:862   */\n      dup3\n        /* \"#utility.yul\":824:863   */\n      tag_271\n      jump\t// in\n    tag_326:\n        /* \"#utility.yul\":879:950   */\n      tag_327\n        /* \"#utility.yul\":943:949   */\n      dup2\n        /* \"#utility.yul\":938:941   */\n      dup6\n        /* \"#utility.yul\":879:950   */\n      tag_272\n      jump\t// in\n    tag_327:\n        /* \"#utility.yul\":872:950   */\n      swap4\n      pop\n        /* \"#utility.yul\":959:1011   */\n      tag_328\n        /* \"#utility.yul\":1004:1010   */\n      dup2\n        /* \"#utility.yul\":999:1002   */\n      dup6\n        /* \"#utility.yul\":992:996   */\n      0x20\n        /* \"#utility.yul\":985:990   */\n      dup7\n        /* \"#utility.yul\":981:997   */\n      add\n        /* \"#utility.yul\":959:1011   */\n      tag_273\n      jump\t// in\n    tag_328:\n        /* \"#utility.yul\":1036:1065   */\n      tag_329\n        /* \"#utility.yul\":1058:1064   */\n      dup2\n        /* \"#utility.yul\":1036:1065   */\n      tag_274\n      jump\t// in\n    tag_329:\n        /* \"#utility.yul\":1031:1034   */\n      dup5\n        /* \"#utility.yul\":1027:1066   */\n      add\n        /* \"#utility.yul\":1020:1066   */\n      swap2\n      pop\n        /* \"#utility.yul\":800:1072   */\n      pop\n        /* \"#utility.yul\":708:1072   */\n      swap3\n      swap2\n      pop\n      pop\n      jump\t// out\n        /* \"#utility.yul\":1078:1391   */\n    tag_29:\n        /* \"#utility.yul\":1191:1195   */\n      0x00\n        /* \"#utility.yul\":1229:1231   */\n      0x20\n        /* \"#utility.yul\":1218:1227   */\n      dup3\n        /* \"#utility.yul\":1214:1232   */\n      add\n        /* \"#utility.yul\":1206:1232   */\n      swap1\n      pop\n        /* \"#utility.yul\":1278:1287   */\n      dup2\n        /* \"#utility.yul\":1272:1276   */\n      dup2\n        /* \"#utility.yul\":1268:1288   */\n      sub\n        /* \"#utility.yul\":1264:1265   */\n      0x00\n        /* \"#utility.yul\":1253:1262   */\n      dup4\n        /* \"#utility.yul\":1249:1266   */\n      add\n        /* \"#utility.yul\":1242:1289   */\n      mstore\n        /* \"#utility.yul\":1306:1384   */\n      tag_331\n        /* \"#utility.yul\":1379:1383   */\n      dup2\n        /* \"#utility.yul\":1370:1376   */\n      dup5\n        /* \"#utility.yul\":1306:1384   */\n      tag_275\n      jump\t// in\n    tag_331:\n        /* \"#utility.yul\":1298:1384   */\n      swap1\n      pop\n        /* \"#utility.yul\":1078:1391   */\n      swap3\n      swap2\n      pop\n      pop\n      jump\t// out\n        /* \"#utility.yul\":1478:1595   */\n    tag_277:\n        /* \"#utility.yul\":1587:1588   */\n      0x00\n        /* \"#utility.yul\":1584:1585   */\n      dup1\n        /* \"#utility.yul\":1577:1589   */\n      revert\n        /* \"#utility.yul\":1724:1850   */\n    tag_279:\n        /* \"#utility.yul\":1761:1768   */\n      0x00\n        /* \"#utility.yul\":1801:1843   */\n      0xffffffffffffffffffffffffffffffffffffffff\n        /* \"#utility.yul\":1794:1799   */\n      dup3\n        /* \"#utility.yul\":1790:1844   */\n      and\n        /* \"#utility.yul\":1779:1844   */\n      swap1\n      pop\n        /* \"#utility.yul\":1724:1850   */\n      swap2\n      swap1\n      pop\n      jump\t// out\n        /* \"#utility.yul\":1856:1952   */\n    tag_280:\n        /* \"#utility.yul\":1893:1900   */\n      0x00\n        /* \"#utility.yul\":1922:1946   */\n      tag_337\n        /* \"#utility.yul\":1940:1945   */\n      dup3\n        /* \"#utility.yul\":1922:1946   */\n      tag_279\n      jump\t// in\n    tag_337:\n        /* \"#utility.yul\":1911:1946   */\n      swap1\n      pop\n        /* \"#utility.yul\":1856:1952   */\n      swap2\n      swap1\n      pop\n      jump\t// out\n        /* \"#utility.yul\":1958:2080   */\n    tag_281:\n        /* \"#utility.yul\":2031:2055   */\n      tag_339\n        /* \"#utility.yul\":2049:2054   */\n      dup2\n        /* \"#utility.yul\":2031:2055   */\n      tag_280\n      jump\t// in\n    tag_339:\n        /* \"#utility.yul\":2024:2029   */\n      dup2\n        /* \"#utility.yul\":2021:2056   */\n      eq\n        /* \"#utility.yul\":2011:2074   */\n      tag_340\n      jumpi\n        /* \"#utility.yul\":2070:2071   */\n      0x00\n        /* \"#utility.yul\":2067:2068   */\n      dup1\n        /* \"#utility.yul\":2060:2072   */\n      revert\n        /* \"#utility.yul\":2011:2074   */\n    tag_340:\n        /* \"#utility.yul\":1958:2080   */\n      pop\n      jump\t// out\n        /* \"#utility.yul\":2086:2225   */\n    tag_282:\n        /* \"#utility.yul\":2132:2137   */\n      0x00\n        /* \"#utility.yul\":2170:2176   */\n      dup2\n        /* \"#utility.yul\":2157:2177   */\n      calldataload\n        /* \"#utility.yul\":2148:2177   */\n      swap1\n      pop\n        /* \"#utility.yul\":2186:2219   */\n      tag_342\n        /* \"#utility.yul\":2213:2218   */\n      dup2\n        /* \"#utility.yul\":2186:2219   */\n      tag_281\n      jump\t// in\n    tag_342:\n        /* \"#utility.yul\":2086:2225   */\n      swap3\n      swap2\n      pop\n      pop\n      jump\t// out\n        /* \"#utility.yul\":2231:2308   */\n    tag_283:\n        /* \"#utility.yul\":2268:2275   */\n      0x00\n        /* \"#utility.yul\":2297:2302   */\n      dup2\n        /* \"#utility.yul\":2286:2302   */\n      swap1\n      pop\n        /* \"#utility.yul\":2231:2308   */\n      swap2\n      swap1\n      pop\n      jump\t// out\n        /* \"#utility.yul\":2314:2436   */\n    tag_284:\n        /* \"#utility.yul\":2387:2411   */\n      tag_345\n        /* \"#utility.yul\":2405:2410   */\n      dup2\n        /* \"#utility.yul\":2387:2411   */\n      tag_283\n      jump\t// in\n    tag_345:\n        /* \"#utility.yul\":2380:2385   */\n      dup2\n        /* \"#utility.yul\":2377:2412   */\n      eq\n        /* \"#utility.yul\":2367:2430   */\n      tag_346\n      jumpi\n        /* \"#utility.yul\":2426:2427   */\n      0x00\n        /* \"#utility.yul\":2423:2424   */\n      dup1\n        /* \"#utility.yul\":2416:2428   */\n      revert\n        /* \"#utility.yul\":2367:2430   */\n    tag_346:\n        /* \"#utility.yul\":2314:2436   */\n      pop\n      jump\t// out\n        /* \"#utility.yul\":2442:2581   */\n    tag_285:\n        /* \"#utility.yul\":2488:2493   */\n      0x00\n        /* \"#utility.yul\":2526:2532   */\n      dup2\n        /* \"#utility.yul\":2513:2533   */\n      calldataload\n        /* \"#utility.yul\":2504:2533   */\n      swap1\n      pop\n        /* \"#utility.yul\":2542:2575   */\n      tag_348\n        /* \"#utility.yul\":2569:2574   */\n      dup2\n        /* \"#utility.yul\":2542:2575   */\n      tag_284\n      jump\t// in\n    tag_348:\n        /* \"#utility.yul\":2442:2581   */\n      swap3\n      swap2\n      pop\n      pop\n      jump\t// out\n        /* \"#utility.yul\":2587:3061   */\n    tag_32:\n        /* \"#utility.yul\":2655:2661   */\n      0x00\n        /* \"#utility.yul\":2663:2669   */\n      dup1\n        /* \"#utility.yul\":2712:2714   */\n      0x40\n        /* \"#utility.yul\":2700:2709   */\n      dup4\n        /* \"#utility.yul\":2691:2698   */\n      dup6\n        /* \"#utility.yul\":2687:2710   */\n      sub\n        /* \"#utility.yul\":2683:2715   */\n      slt\n        /* \"#utility.yul\":2680:2799   */\n      iszero\n      tag_350\n      jumpi\n        /* \"#utility.yul\":2718:2797   */\n      tag_351\n      tag_277\n      jump\t// in\n    tag_351:\n        /* \"#utility.yul\":2680:2799   */\n    tag_350:\n        /* \"#utility.yul\":2838:2839   */\n      0x00\n        /* \"#utility.yul\":2863:2916   */\n      tag_352\n        /* \"#utility.yul\":2908:2915   */\n      dup6\n        /* \"#utility.yul\":2899:2905   */\n      dup3\n        /* \"#utility.yul\":2888:2897   */\n      dup7\n        /* \"#utility.yul\":2884:2906   */\n      add\n        /* \"#utility.yul\":2863:2916   */\n      tag_282\n      jump\t// in\n    tag_352:\n        /* \"#utility.yul\":2853:2916   */\n      swap3\n      pop\n        /* \"#utility.yul\":2809:2926   */\n      pop\n        /* \"#utility.yul\":2965:2967   */\n      0x20\n        /* \"#utility.yul\":2991:3044   */\n      tag_353\n        /* \"#utility.yul\":3036:3043   */\n      dup6\n        /* \"#utility.yul\":3027:3033   */\n      dup3\n        /* \"#utility.yul\":3016:3025   */\n      dup7\n        /* \"#utility.yul\":3012:3034   */\n      add\n        /* \"#utility.yul\":2991:3044   */\n      tag_285\n      jump\t// in\n    tag_353:\n        /* \"#utility.yul\":2981:3044   */\n      swap2\n      pop\n        /* \"#utility.yul\":2936:3054   */\n      pop\n        /* \"#utility.yul\":2587:3061   */\n      swap3\n      pop\n      swap3\n      swap1\n      pop\n      jump\t// out\n        /* \"#utility.yul\":3067:3157   */\n    tag_286:\n        /* \"#utility.yul\":3101:3108   */\n      0x00\n        /* \"#utility.yul\":3144:3149   */\n      dup2\n        /* \"#utility.yul\":3137:3150   */\n      iszero\n        /* \"#utility.yul\":3130:3151   */\n      iszero\n        /* \"#utility.yul\":3119:3151   */\n      swap1\n      pop\n        /* \"#utility.yul\":3067:3157   */\n      swap2\n      swap1\n      pop\n      jump\t// out\n        /* \"#utility.yul\":3163:3272   */\n    tag_287:\n        /* \"#utility.yul\":3244:3265   */\n      tag_356\n        /* \"#utility.yul\":3259:3264   */\n      dup2\n        /* \"#utility.yul\":3244:3265   */\n      tag_286\n      jump\t// in\n    tag_356:\n        /* \"#utility.yul\":3239:3242   */\n      dup3\n        /* \"#utility.yul\":3232:3266   */\n      mstore\n        /* \"#utility.yul\":3163:3272   */\n      pop\n      pop\n      jump\t// out\n        /* \"#utility.yul\":3278:3488   */\n    tag_35:\n        /* \"#utility.yul\":3365:3369   */\n      0x00\n        /* \"#utility.yul\":3403:3405   */\n      0x20\n        /* \"#utility.yul\":3392:3401   */\n      dup3\n        /* \"#utility.yul\":3388:3406   */\n      add\n        /* \"#utility.yul\":3380:3406   */\n      swap1\n      pop\n        /* \"#utility.yul\":3416:3481   */\n      tag_358\n        /* \"#utility.yul\":3478:3479   */\n      0x00\n        /* \"#utility.yul\":3467:3476   */\n      dup4\n        /* \"#utility.yul\":3463:3480   */\n      add\n        /* \"#utility.yul\":3454:3460   */\n      dup5\n        /* \"#utility.yul\":3416:3481   */\n      tag_287\n      jump\t// in\n    tag_358:\n        /* \"#utility.yul\":3278:3488   */\n      swap3\n      swap2\n      pop\n      pop\n      jump\t// out\n        /* \"#utility.yul\":3494:3554   */\n    tag_288:\n        /* \"#utility.yul\":3522:3525   */\n      0x00\n        /* \"#utility.yul\":3543:3548   */\n      dup2\n        /* \"#utility.yul\":3536:3548   */\n      swap1\n      pop\n        /* \"#utility.yul\":3494:3554   */\n      swap2\n      swap1\n      pop\n      jump\t// out\n        /* \"#utility.yul\":3560:3702   */\n    tag_289:\n        /* \"#utility.yul\":3610:3619   */\n      0x00\n        /* \"#utility.yul\":3643:3696   */\n      tag_361\n        /* \"#utility.yul\":3661:3695   */\n      tag_362\n        /* \"#utility.yul\":3670:3694   */\n      tag_363\n        /* \"#utility.yul\":3688:3693   */\n      dup5\n        /* \"#utility.yul\":3670:3694   */\n      tag_279\n      jump\t// in\n    tag_363:\n        /* \"#utility.yul\":3661:3695   */\n      tag_288\n      jump\t// in\n    tag_362:\n        /* \"#utility.yul\":3643:3696   */\n      tag_279\n      jump\t// in\n    tag_361:\n        /* \"#utility.yul\":3630:3696   */\n      swap1\n      pop\n        /* \"#utility.yul\":3560:3702   */\n      swap2\n      swap1\n      pop\n      jump\t// out\n        /* \"#utility.yul\":3708:3834   */\n    tag_290:\n        /* \"#utility.yul\":3758:3767   */\n      0x00\n        /* \"#utility.yul\":3791:3828   */\n      tag_365\n        /* \"#utility.yul\":3822:3827   */\n      dup3\n        /* \"#utility.yul\":3791:3828   */\n      tag_289\n      jump\t// in\n    tag_365:\n        /* \"#utility.yul\":3778:3828   */\n      swap1\n      pop\n        /* \"#utility.yul\":3708:3834   */\n      swap2\n      swap1\n      pop\n      jump\t// out\n        /* \"#utility.yul\":3840:3980   */\n    tag_291:\n        /* \"#utility.yul\":3904:3913   */\n      0x00\n        /* \"#utility.yul\":3937:3974   */\n      tag_367\n        /* \"#utility.yul\":3968:3973   */\n      dup3\n        /* \"#utility.yul\":3937:3974   */\n      tag_290\n      jump\t// in\n    tag_367:\n        /* \"#utility.yul\":3924:3974   */\n      swap1\n      pop\n        /* \"#utility.yul\":3840:3980   */\n      swap2\n      swap1\n      pop\n      jump\t// out\n        /* \"#utility.yul\":3986:4145   */\n    tag_292:\n        /* \"#utility.yul\":4087:4138   */\n      tag_369\n        /* \"#utility.yul\":4132:4137   */\n      dup2\n        /* \"#utility.yul\":4087:4138   */\n      tag_291\n      jump\t// in\n    tag_369:\n        /* \"#utility.yul\":4082:4085   */\n      dup3\n        /* \"#utility.yul\":4075:4139   */\n      mstore\n        /* \"#utility.yul\":3986:4145   */\n      pop\n      pop\n      jump\t// out\n        /* \"#utility.yul\":4151:4401   */\n    tag_39:\n        /* \"#utility.yul\":4258:4262   */\n      0x00\n        /* \"#utility.yul\":4296:4298   */\n      0x20\n        /* \"#utility.yul\":4285:4294   */\n      dup3\n        /* \"#utility.yul\":4281:4299   */\n      add\n        /* \"#utility.yul\":4273:4299   */\n      swap1\n      pop\n        /* \"#utility.yul\":4309:4394   */\n      tag_371\n        /* \"#utility.yul\":4391:4392   */\n      0x00\n        /* \"#utility.yul\":4380:4389   */\n      dup4\n        /* \"#utility.yul\":4376:4393   */\n      add\n        /* \"#utility.yul\":4367:4373   */\n      dup5\n        /* \"#utility.yul\":4309:4394   */\n      tag_292\n      jump\t// in\n    tag_371:\n        /* \"#utility.yul\":4151:4401   */\n      swap3\n      swap2\n      pop\n      pop\n      jump\t// out\n        /* \"#utility.yul\":4407:4525   */\n    tag_293:\n        /* \"#utility.yul\":4494:4518   */\n      tag_373\n        /* \"#utility.yul\":4512:4517   */\n      dup2\n        /* \"#utility.yul\":4494:4518   */\n      tag_283\n      jump\t// in\n    tag_373:\n        /* \"#utility.yul\":4489:4492   */\n      dup3\n        /* \"#utility.yul\":4482:4519   */\n      mstore\n        /* \"#utility.yul\":4407:4525   */\n      pop\n      pop\n      jump\t// out\n        /* \"#utility.yul\":4531:4753   */\n    tag_43:\n        /* \"#utility.yul\":4624:4628   */\n      0x00\n        /* \"#utility.yul\":4662:4664   */\n      0x20\n        /* \"#utility.yul\":4651:4660   */\n      dup3\n        /* \"#utility.yul\":4647:4665   */\n      add\n        /* \"#utility.yul\":4639:4665   */\n      swap1\n      pop\n        /* \"#utility.yul\":4675:4746   */\n      tag_375\n        /* \"#utility.yul\":4743:4744   */\n      0x00\n        /* \"#utility.yul\":4732:4741   */\n      dup4\n        /* \"#utility.yul\":4728:4745   */\n      add\n        /* \"#utility.yul\":4719:4725   */\n      dup5\n        /* \"#utility.yul\":4675:4746   */\n      tag_293\n      jump\t// in\n    tag_375:\n        /* \"#utility.yul\":4531:4753   */\n      swap3\n      swap2\n      pop\n      pop\n      jump\t// out\n        /* \"#utility.yul\":4759:5378   */\n    tag_46:\n        /* \"#utility.yul\":4836:4842   */\n      0x00\n        /* \"#utility.yul\":4844:4850   */\n      dup1\n        /* \"#utility.yul\":4852:4858   */\n      0x00\n        /* \"#utility.yul\":4901:4903   */\n      0x60\n        /* \"#utility.yul\":4889:4898   */\n      dup5\n        /* \"#utility.yul\":4880:4887   */\n      dup7\n        /* \"#utility.yul\":4876:4899   */\n      sub\n        /* \"#utility.yul\":4872:4904   */\n      slt\n        /* \"#utility.yul\":4869:4988   */\n      iszero\n      tag_377\n      jumpi\n        /* \"#utility.yul\":4907:4986   */\n      tag_378\n      tag_277\n      jump\t// in\n    tag_378:\n        /* \"#utility.yul\":4869:4988   */\n    tag_377:\n        /* \"#utility.yul\":5027:5028   */\n      0x00\n        /* \"#utility.yul\":5052:5105   */\n      tag_379\n        /* \"#utility.yul\":5097:5104   */\n      dup7\n        /* \"#utility.yul\":5088:5094   */\n      dup3\n        /* \"#utility.yul\":5077:5086   */\n      dup8\n        /* \"#utility.yul\":5073:5095   */\n      add\n        /* \"#utility.yul\":5052:5105   */\n      tag_282\n      jump\t// in\n    tag_379:\n        /* \"#utility.yul\":5042:5105   */\n      swap4\n      pop\n        /* \"#utility.yul\":4998:5115   */\n      pop\n        /* \"#utility.yul\":5154:5156   */\n      0x20\n        /* \"#utility.yul\":5180:5233   */\n      tag_380\n        /* \"#utility.yul\":5225:5232   */\n      dup7\n        /* \"#utility.yul\":5216:5222   */\n      dup3\n        /* \"#utility.yul\":5205:5214   */\n      dup8\n        /* \"#utility.yul\":5201:5223   */\n      add\n        /* \"#utility.yul\":5180:5233   */\n      tag_282\n      jump\t// in\n    tag_380:\n        /* \"#utility.yul\":5170:5233   */\n      swap3\n      pop\n        /* \"#utility.yul\":5125:5243   */\n      pop\n        /* \"#utility.yul\":5282:5284   */\n      0x40\n        /* \"#utility.yul\":5308:5361   */\n      tag_381\n        /* \"#utility.yul\":5353:5360   */\n      dup7\n        /* \"#utility.yul\":5344:5350   */\n      dup3\n        /* \"#utility.yul\":5333:5342   */\n      dup8\n        /* \"#utility.yul\":5329:5351   */\n      add\n        /* \"#utility.yul\":5308:5361   */\n      tag_285\n      jump\t// in\n    tag_381:\n        /* \"#utility.yul\":5298:5361   */\n      swap2\n      pop\n        /* \"#utility.yul\":5253:5371   */\n      pop\n        /* \"#utility.yul\":4759:5378   */\n      swap3\n      pop\n      swap3\n      pop\n      swap3\n      jump\t// out\n        /* \"#utility.yul\":5384:5470   */\n    tag_294:\n        /* \"#utility.yul\":5419:5426   */\n      0x00\n        /* \"#utility.yul\":5459:5463   */\n      0xff\n        /* \"#utility.yul\":5452:5457   */\n      dup3\n        /* \"#utility.yul\":5448:5464   */\n      and\n        /* \"#utility.yul\":5437:5464   */\n      swap1\n      pop\n        /* \"#utility.yul\":5384:5470   */\n      swap2\n      swap1\n      pop\n      jump\t// out\n        /* \"#utility.yul\":5476:5588   */\n    tag_295:\n        /* \"#utility.yul\":5559:5581   */\n      tag_384\n        /* \"#utility.yul\":5575:5580   */\n      dup2\n        /* \"#utility.yul\":5559:5581   */\n      tag_294\n      jump\t// in\n    tag_384:\n        /* \"#utility.yul\":5554:5557   */\n      dup3\n        /* \"#utility.yul\":5547:5582   */\n      mstore\n        /* \"#utility.yul\":5476:5588   */\n      pop\n      pop\n      jump\t// out\n        /* \"#utility.yul\":5594:5808   */\n    tag_52:\n        /* \"#utility.yul\":5683:5687   */\n      0x00\n        /* \"#utility.yul\":5721:5723   */\n      0x20\n        /* \"#utility.yul\":5710:5719   */\n      dup3\n        /* \"#utility.yul\":5706:5724   */\n      add\n        /* \"#utility.yul\":5698:5724   */\n      swap1\n      pop\n        /* \"#utility.yul\":5734:5801   */\n      tag_386\n        /* \"#utility.yul\":5798:5799   */\n      0x00\n        /* \"#utility.yul\":5787:5796   */\n      dup4\n        /* \"#utility.yul\":5783:5800   */\n      add\n        /* \"#utility.yul\":5774:5780   */\n      dup5\n        /* \"#utility.yul\":5734:5801   */\n      tag_295\n      jump\t// in\n    tag_386:\n        /* \"#utility.yul\":5594:5808   */\n      swap3\n      swap2\n      pop\n      pop\n      jump\t// out\n        /* \"#utility.yul\":5814:6143   */\n    tag_67:\n        /* \"#utility.yul\":5873:5879   */\n      0x00\n        /* \"#utility.yul\":5922:5924   */\n      0x20\n        /* \"#utility.yul\":5910:5919   */\n      dup3\n        /* \"#utility.yul\":5901:5908   */\n      dup5\n        /* \"#utility.yul\":5897:5920   */\n      sub\n        /* \"#utility.yul\":5893:5925   */\n      slt\n        /* \"#utility.yul\":5890:6009   */\n      iszero\n      tag_388\n      jumpi\n        /* \"#utility.yul\":5928:6007   */\n      tag_389\n      tag_277\n      jump\t// in\n    tag_389:\n        /* \"#utility.yul\":5890:6009   */\n    tag_388:\n        /* \"#utility.yul\":6048:6049   */\n      0x00\n        /* \"#utility.yul\":6073:6126   */\n      tag_390\n        /* \"#utility.yul\":6118:6125   */\n      dup5\n        /* \"#utility.yul\":6109:6115   */\n      dup3\n        /* \"#utility.yul\":6098:6107   */\n      dup6\n        /* \"#utility.yul\":6094:6116   */\n      add\n        /* \"#utility.yul\":6073:6126   */\n      tag_282\n      jump\t// in\n    tag_390:\n        /* \"#utility.yul\":6063:6126   */\n      swap2\n      pop\n        /* \"#utility.yul\":6019:6136   */\n      pop\n        /* \"#utility.yul\":5814:6143   */\n      swap3\n      swap2\n      pop\n      pop\n      jump\t// out\n        /* \"#utility.yul\":6149:6478   */\n    tag_82:\n        /* \"#utility.yul\":6208:6214   */\n      0x00\n        /* \"#utility.yul\":6257:6259   */\n      0x20\n        /* \"#utility.yul\":6245:6254   */\n      dup3\n        /* \"#utility.yul\":6236:6243   */\n      dup5\n        /* \"#utility.yul\":6232:6255   */\n      sub\n        /* \"#utility.yul\":6228:6260   */\n      slt\n        /* \"#utility.yul\":6225:6344   */\n      iszero\n      tag_392\n      jumpi\n        /* \"#utility.yul\":6263:6342   */\n      tag_393\n      tag_277\n      jump\t// in\n    tag_393:\n        /* \"#utility.yul\":6225:6344   */\n    tag_392:\n        /* \"#utility.yul\":6383:6384   */\n      0x00\n        /* \"#utility.yul\":6408:6461   */\n      tag_394\n        /* \"#utility.yul\":6453:6460   */\n      dup5\n        /* \"#utility.yul\":6444:6450   */\n      dup3\n        /* \"#utility.yul\":6433:6442   */\n      dup6\n        /* \"#utility.yul\":6429:6451   */\n      add\n        /* \"#utility.yul\":6408:6461   */\n      tag_285\n      jump\t// in\n    tag_394:\n        /* \"#utility.yul\":6398:6461   */\n      swap2\n      pop\n        /* \"#utility.yul\":6354:6471   */\n      pop\n        /* \"#utility.yul\":6149:6478   */\n      swap3\n      swap2\n      pop\n      pop\n      jump\t// out\n        /* \"#utility.yul\":6484:6816   */\n    tag_85:\n        /* \"#utility.yul\":6605:6609   */\n      0x00\n        /* \"#utility.yul\":6643:6645   */\n      0x40\n        /* \"#utility.yul\":6632:6641   */\n      dup3\n        /* \"#utility.yul\":6628:6646   */\n      add\n        /* \"#utility.yul\":6620:6646   */\n      swap1\n      pop\n        /* \"#utility.yul\":6656:6727   */\n      tag_396\n        /* \"#utility.yul\":6724:6725   */\n      0x00\n        /* \"#utility.yul\":6713:6722   */\n      dup4\n        /* \"#utility.yul\":6709:6726   */\n      add\n        /* \"#utility.yul\":6700:6706   */\n      dup6\n        /* \"#utility.yul\":6656:6727   */\n      tag_293\n      jump\t// in\n    tag_396:\n        /* \"#utility.yul\":6737:6809   */\n      tag_397\n        /* \"#utility.yul\":6805:6807   */\n      0x20\n        /* \"#utility.yul\":6794:6803   */\n      dup4\n        /* \"#utility.yul\":6790:6808   */\n      add\n        /* \"#utility.yul\":6781:6787   */\n      dup5\n        /* \"#utility.yul\":6737:6809   */\n      tag_293\n      jump\t// in\n    tag_397:\n        /* \"#utility.yul\":6484:6816   */\n      swap4\n      swap3\n      pop\n      pop\n      pop\n      jump\t// out\n        /* \"#utility.yul\":6822:7296   */\n    tag_88:\n        /* \"#utility.yul\":6890:6896   */\n      0x00\n        /* \"#utility.yul\":6898:6904   */\n      dup1\n        /* \"#utility.yul\":6947:6949   */\n      0x40\n        /* \"#utility.yul\":6935:6944   */\n      dup4\n        /* \"#utility.yul\":6926:6933   */\n      dup6\n        /* \"#utility.yul\":6922:6945   */\n      sub\n        /* \"#utility.yul\":6918:6950   */\n      slt\n        /* \"#utility.yul\":6915:7034   */\n      iszero\n      tag_399\n      jumpi\n        /* \"#utility.yul\":6953:7032   */\n      tag_400\n      tag_277\n      jump\t// in\n    tag_400:\n        /* \"#utility.yul\":6915:7034   */\n    tag_399:\n        /* \"#utility.yul\":7073:7074   */\n      0x00\n        /* \"#utility.yul\":7098:7151   */\n      tag_401\n        /* \"#utility.yul\":7143:7150   */\n      dup6\n        /* \"#utility.yul\":7134:7140   */\n      dup3\n        /* \"#utility.yul\":7123:7132   */\n      dup7\n        /* \"#utility.yul\":7119:7141   */\n      add\n        /* \"#utility.yul\":7098:7151   */\n      tag_285\n      jump\t// in\n    tag_401:\n        /* \"#utility.yul\":7088:7151   */\n      swap3\n      pop\n        /* \"#utility.yul\":7044:7161   */\n      pop\n        /* \"#utility.yul\":7200:7202   */\n      0x20\n        /* \"#utility.yul\":7226:7279   */\n      tag_402\n        /* \"#utility.yul\":7271:7278   */\n      dup6\n        /* \"#utility.yul\":7262:7268   */\n      dup3\n        /* \"#utility.yul\":7251:7260   */\n      dup7\n        /* \"#utility.yul\":7247:7269   */\n      add\n        /* \"#utility.yul\":7226:7279   */\n      tag_285\n      jump\t// in\n    tag_402:\n        /* \"#utility.yul\":7216:7279   */\n      swap2\n      pop\n        /* \"#utility.yul\":7171:7289   */\n      pop\n        /* \"#utility.yul\":6822:7296   */\n      swap3\n      pop\n      swap3\n      swap1\n      pop\n      jump\t// out\n        /* \"#utility.yul\":7302:7776   */\n    tag_104:\n        /* \"#utility.yul\":7370:7376   */\n      0x00\n        /* \"#utility.yul\":7378:7384   */\n      dup1\n        /* \"#utility.yul\":7427:7429   */\n      0x40\n        /* \"#utility.yul\":7415:7424   */\n      dup4\n        /* \"#utility.yul\":7406:7413   */\n      dup6\n        /* \"#utility.yul\":7402:7425   */\n      sub\n        /* \"#utility.yul\":7398:7430   */\n      slt\n        /* \"#utility.yul\":7395:7514   */\n      iszero\n      tag_404\n      jumpi\n        /* \"#utility.yul\":7433:7512   */\n      tag_405\n      tag_277\n      jump\t// in\n    tag_405:\n        /* \"#utility.yul\":7395:7514   */\n    tag_404:\n        /* \"#utility.yul\":7553:7554   */\n      0x00\n        /* \"#utility.yul\":7578:7631   */\n      tag_406\n        /* \"#utility.yul\":7623:7630   */\n      dup6\n        /* \"#utility.yul\":7614:7620   */\n      dup3\n        /* \"#utility.yul\":7603:7612   */\n      dup7\n        /* \"#utility.yul\":7599:7621   */\n      add\n        /* \"#utility.yul\":7578:7631   */\n      tag_282\n      jump\t// in\n    tag_406:\n        /* \"#utility.yul\":7568:7631   */\n      swap3\n      pop\n        /* \"#utility.yul\":7524:7641   */\n      pop\n        /* \"#utility.yul\":7680:7682   */\n      0x20\n        /* \"#utility.yul\":7706:7759   */\n      tag_407\n        /* \"#utility.yul\":7751:7758   */\n      dup6\n        /* \"#utility.yul\":7742:7748   */\n      dup3\n        /* \"#utility.yul\":7731:7740   */\n      dup7\n        /* \"#utility.yul\":7727:7749   */\n      add\n        /* \"#utility.yul\":7706:7759   */\n      tag_282\n      jump\t// in\n    tag_407:\n        /* \"#utility.yul\":7696:7759   */\n      swap2\n      pop\n        /* \"#utility.yul\":7651:7769   */\n      pop\n        /* \"#utility.yul\":7302:7776   */\n      swap3\n      pop\n      swap3\n      swap1\n      pop\n      jump\t// out\n        /* \"#utility.yul\":7782:7900   */\n    tag_296:\n        /* \"#utility.yul\":7869:7893   */\n      tag_409\n        /* \"#utility.yul\":7887:7892   */\n      dup2\n        /* \"#utility.yul\":7869:7893   */\n      tag_280\n      jump\t// in\n    tag_409:\n        /* \"#utility.yul\":7864:7867   */\n      dup3\n        /* \"#utility.yul\":7857:7894   */\n      mstore\n        /* \"#utility.yul\":7782:7900   */\n      pop\n      pop\n      jump\t// out\n        /* \"#utility.yul\":7906:8128   */\n    tag_118:\n        /* \"#utility.yul\":7999:8003   */\n      0x00\n        /* \"#utility.yul\":8037:8039   */\n      0x20\n        /* \"#utility.yul\":8026:8035   */\n      dup3\n        /* \"#utility.yul\":8022:8040   */\n      add\n        /* \"#utility.yul\":8014:8040   */\n      swap1\n      pop\n        /* \"#utility.yul\":8050:8121   */\n      tag_411\n        /* \"#utility.yul\":8118:8119   */\n      0x00\n        /* \"#utility.yul\":8107:8116   */\n      dup4\n        /* \"#utility.yul\":8103:8120   */\n      add\n        /* \"#utility.yul\":8094:8100   */\n      dup5\n        /* \"#utility.yul\":8050:8121   */\n      tag_296\n      jump\t// in\n    tag_411:\n        /* \"#utility.yul\":7906:8128   */\n      swap3\n      swap2\n      pop\n      pop\n      jump\t// out\n        /* \"#utility.yul\":8134:8277   */\n    tag_297:\n        /* \"#utility.yul\":8191:8196   */\n      0x00\n        /* \"#utility.yul\":8222:8228   */\n      dup2\n        /* \"#utility.yul\":8216:8229   */\n      mload\n        /* \"#utility.yul\":8207:8229   */\n      swap1\n      pop\n        /* \"#utility.yul\":8238:8271   */\n      tag_413\n        /* \"#utility.yul\":8265:8270   */\n      dup2\n        /* \"#utility.yul\":8238:8271   */\n      tag_284\n      jump\t// in\n    tag_413:\n        /* \"#utility.yul\":8134:8277   */\n      swap3\n      swap2\n      pop\n      pop\n      jump\t// out\n        /* \"#utility.yul\":8283:8634   */\n    tag_122:\n        /* \"#utility.yul\":8353:8359   */\n      0x00\n        /* \"#utility.yul\":8402:8404   */\n      0x20\n        /* \"#utility.yul\":8390:8399   */\n      dup3\n        /* \"#utility.yul\":8381:8388   */\n      dup5\n        /* \"#utility.yul\":8377:8400   */\n      sub\n        /* \"#utility.yul\":8373:8405   */\n      slt\n        /* \"#utility.yul\":8370:8489   */\n      iszero\n      tag_415\n      jumpi\n        /* \"#utility.yul\":8408:8487   */\n      tag_416\n      tag_277\n      jump\t// in\n    tag_416:\n        /* \"#utility.yul\":8370:8489   */\n    tag_415:\n        /* \"#utility.yul\":8528:8529   */\n      0x00\n        /* \"#utility.yul\":8553:8617   */\n      tag_417\n        /* \"#utility.yul\":8609:8616   */\n      dup5\n        /* \"#utility.yul\":8600:8606   */\n      dup3\n        /* \"#utility.yul\":8589:8598   */\n      dup6\n        /* \"#utility.yul\":8585:8607   */\n      add\n        /* \"#utility.yul\":8553:8617   */\n      tag_297\n      jump\t// in\n    tag_417:\n        /* \"#utility.yul\":8543:8617   */\n      swap2\n      pop\n        /* \"#utility.yul\":8499:8627   */\n      pop\n        /* \"#utility.yul\":8283:8634   */\n      swap3\n      swap2\n      pop\n      pop\n      jump\t// out\n        /* \"#utility.yul\":8640:8820   */\n    tag_298:\n        /* \"#utility.yul\":8688:8765   */\n      0x4e487b7100000000000000000000000000000000000000000000000000000000\n        /* \"#utility.yul\":8685:8686   */\n      0x00\n        /* \"#utility.yul\":8678:8766   */\n      mstore\n        /* \"#utility.yul\":8785:8789   */\n      0x11\n        /* \"#utility.yul\":8782:8783   */\n      0x04\n        /* \"#utility.yul\":8775:8790   */\n      mstore\n        /* \"#utility.yul\":8809:8813   */\n      0x24\n        /* \"#utility.yul\":8806:8807   */\n      0x00\n        /* \"#utility.yul\":8799:8814   */\n      revert\n        /* \"#utility.yul\":8826:9174   */\n    tag_128:\n        /* \"#utility.yul\":8866:8873   */\n      0x00\n        /* \"#utility.yul\":8889:8909   */\n      tag_420\n        /* \"#utility.yul\":8907:8908   */\n      dup3\n        /* \"#utility.yul\":8889:8909   */\n      tag_283\n      jump\t// in\n    tag_420:\n        /* \"#utility.yul\":8884:8909   */\n      swap2\n      pop\n        /* \"#utility.yul\":8923:8943   */\n      tag_421\n        /* \"#utility.yul\":8941:8942   */\n      dup4\n        /* \"#utility.yul\":8923:8943   */\n      tag_283\n      jump\t// in\n    tag_421:\n        /* \"#utility.yul\":8918:8943   */\n      swap3\n      pop\n        /* \"#utility.yul\":9111:9112   */\n      dup2\n        /* \"#utility.yul\":9043:9109   */\n      0xffffffffffffffffffffffffffffffffffffffffffffffffffffffffffffffff\n        /* \"#utility.yul\":9039:9113   */\n      div\n        /* \"#utility.yul\":9036:9037   */\n      dup4\n        /* \"#utility.yul\":9033:9114   */\n      gt\n        /* \"#utility.yul\":9028:9029   */\n      dup3\n        /* \"#utility.yul\":9021:9030   */\n      iszero\n        /* \"#utility.yul\":9014:9031   */\n      iszero\n        /* \"#utility.yul\":9010:9115   */\n      and\n        /* \"#utility.yul\":9007:9138   */\n      iszero\n      tag_422\n      jumpi\n        /* \"#utility.yul\":9118:9136   */\n      tag_423\n      tag_298\n      jump\t// in\n    tag_423:\n        /* \"#utility.yul\":9007:9138   */\n    tag_422:\n        /* \"#utility.yul\":9166:9167   */\n      dup3\n        /* \"#utility.yul\":9163:9164   */\n      dup3\n        /* \"#utility.yul\":9159:9168   */\n      mul\n        /* \"#utility.yul\":9148:9168   */\n      swap1\n      pop\n        /* \"#utility.yul\":8826:9174   */\n      swap3\n      swap2\n      pop\n      pop\n      jump\t// out\n        /* \"#utility.yul\":9180:9360   */\n    tag_299:\n        /* \"#utility.yul\":9228:9305   */\n      0x4e487b7100000000000000000000000000000000000000000000000000000000\n        /* \"#utility.yul\":9225:9226   */\n      0x00\n        /* \"#utility.yul\":9218:9306   */\n      mstore\n        /* \"#utility.yul\":9325:9329   */\n      0x12\n        /* \"#utility.yul\":9322:9323   */\n      0x04\n        /* \"#utility.yul\":9315:9330   */\n      mstore\n        /* \"#utility.yul\":9349:9353   */\n      0x24\n        /* \"#utility.yul\":9346:9347   */\n      0x00\n        /* \"#utility.yul\":9339:9354   */\n      revert\n        /* \"#utility.yul\":9366:9551   */\n    tag_130:\n        /* \"#utility.yul\":9406:9407   */\n      0x00\n        /* \"#utility.yul\":9423:9443   */\n      tag_426\n        /* \"#utility.yul\":9441:9442   */\n      dup3\n        /* \"#utility.yul\":9423:9443   */\n      tag_283\n      jump\t// in\n    tag_426:\n        /* \"#utility.yul\":9418:9443   */\n      swap2\n      pop\n        /* \"#utility.yul\":9457:9477   */\n      tag_427\n        /* \"#utility.yul\":9475:9476   */\n      dup4\n        /* \"#utility.yul\":9457:9477   */\n      tag_283\n      jump\t// in\n    tag_427:\n        /* \"#utility.yul\":9452:9477   */\n      swap3\n      pop\n        /* \"#utility.yul\":9496:9497   */\n      dup3\n        /* \"#utility.yul\":9486:9521   */\n      tag_428\n      jumpi\n        /* \"#utility.yul\":9501:9519   */\n      tag_429\n      tag_299\n      jump\t// in\n    tag_429:\n        /* \"#utility.yul\":9486:9521   */\n    tag_428:\n        /* \"#utility.yul\":9543:9544   */\n      dup3\n        /* \"#utility.yul\":9540:9541   */\n      dup3\n        /* \"#utility.yul\":9536:9545   */\n      div\n        /* \"#utility.yul\":9531:9545   */\n      swap1\n      pop\n        /* \"#utility.yul\":9366:9551   */\n      swap3\n      swap2\n      pop\n      pop\n      jump\t// out\n        /* \"#utility.yul\":9557:9729   */\n    tag_300:\n        /* \"#utility.yul\":9697:9721   */\n      0x616d6f756e7430206f7220616d6f756e7431203d203000000000000000000000\n        /* \"#utility.yul\":9693:9694   */\n      0x00\n        /* \"#utility.yul\":9685:9691   */\n      dup3\n        /* \"#utility.yul\":9681:9695   */\n      add\n        /* \"#utility.yul\":9674:9722   */\n      mstore\n        /* \"#utility.yul\":9557:9729   */\n      pop\n      jump\t// out\n        /* \"#utility.yul\":9735:10101   */\n    tag_301:\n        /* \"#utility.yul\":9877:9880   */\n      0x00\n        /* \"#utility.yul\":9898:9965   */\n      tag_432\n        /* \"#utility.yul\":9962:9964   */\n      0x16\n        /* \"#utility.yul\":9957:9960   */\n      dup4\n        /* \"#utility.yul\":9898:9965   */\n      tag_272\n      jump\t// in\n    tag_432:\n        /* \"#utility.yul\":9891:9965   */\n      swap2\n      pop\n        /* \"#utility.yul\":9974:10067   */\n      tag_433\n        /* \"#utility.yul\":10063:10066   */\n      dup3\n        /* \"#utility.yul\":9974:10067   */\n      tag_300\n      jump\t// in\n    tag_433:\n        /* \"#utility.yul\":10092:10094   */\n      0x20\n        /* \"#utility.yul\":10087:10090   */\n      dup3\n        /* \"#utility.yul\":10083:10095   */\n      add\n        /* \"#utility.yul\":10076:10095   */\n      swap1\n      pop\n        /* \"#utility.yul\":9735:10101   */\n      swap2\n      swap1\n      pop\n      jump\t// out\n        /* \"#utility.yul\":10107:10526   */\n    tag_136:\n        /* \"#utility.yul\":10273:10277   */\n      0x00\n        /* \"#utility.yul\":10311:10313   */\n      0x20\n        /* \"#utility.yul\":10300:10309   */\n      dup3\n        /* \"#utility.yul\":10296:10314   */\n      add\n        /* \"#utility.yul\":10288:10314   */\n      swap1\n      pop\n        /* \"#utility.yul\":10360:10369   */\n      dup2\n        /* \"#utility.yul\":10354:10358   */\n      dup2\n        /* \"#utility.yul\":10350:10370   */\n      sub\n        /* \"#utility.yul\":10346:10347   */\n      0x00\n        /* \"#utility.yul\":10335:10344   */\n      dup4\n        /* \"#utility.yul\":10331:10348   */\n      add\n        /* \"#utility.yul\":10324:10371   */\n      mstore\n        /* \"#utility.yul\":10388:10519   */\n      tag_435\n        /* \"#utility.yul\":10514:10518   */\n      dup2\n        /* \"#utility.yul\":10388:10519   */\n      tag_301\n      jump\t// in\n    tag_435:\n        /* \"#utility.yul\":10380:10519   */\n      swap1\n      pop\n        /* \"#utility.yul\":10107:10526   */\n      swap2\n      swap1\n      pop\n      jump\t// out\n        /* \"#utility.yul\":10532:10723   */\n    tag_141:\n        /* \"#utility.yul\":10572:10576   */\n      0x00\n        /* \"#utility.yul\":10592:10612   */\n      tag_437\n        /* \"#utility.yul\":10610:10611   */\n      dup3\n        /* \"#utility.yul\":10592:10612   */\n      tag_283\n      jump\t// in\n    tag_437:\n        /* \"#utility.yul\":10587:10612   */\n      swap2\n      pop\n        /* \"#utility.yul\":10626:10646   */\n      tag_438\n        /* \"#utility.yul\":10644:10645   */\n      dup4\n        /* \"#utility.yul\":10626:10646   */\n      tag_283\n      jump\t// in\n    tag_438:\n        /* \"#utility.yul\":10621:10646   */\n      swap3\n      pop\n        /* \"#utility.yul\":10665:10666   */\n      dup3\n        /* \"#utility.yul\":10662:10663   */\n      dup3\n        /* \"#utility.yul\":10659:10667   */\n      lt\n        /* \"#utility.yul\":10656:10690   */\n      iszero\n      tag_439\n      jumpi\n        /* \"#utility.yul\":10670:10688   */\n      tag_440\n      tag_298\n      jump\t// in\n    tag_440:\n        /* \"#utility.yul\":10656:10690   */\n    tag_439:\n        /* \"#utility.yul\":10715:10716   */\n      dup3\n        /* \"#utility.yul\":10712:10713   */\n      dup3\n        /* \"#utility.yul\":10708:10717   */\n      sub\n        /* \"#utility.yul\":10700:10717   */\n      swap1\n      pop\n        /* \"#utility.yul\":10532:10723   */\n      swap3\n      swap2\n      pop\n      pop\n      jump\t// out\n        /* \"#utility.yul\":10729:11061   */\n    tag_145:\n        /* \"#utility.yul\":10850:10854   */\n      0x00\n        /* \"#utility.yul\":10888:10890   */\n      0x40\n        /* \"#utility.yul\":10877:10886   */\n      dup3\n        /* \"#utility.yul\":10873:10891   */\n      add\n        /* \"#utility.yul\":10865:10891   */\n      swap1\n      pop\n        /* \"#utility.yul\":10901:10972   */\n      tag_442\n        /* \"#utility.yul\":10969:10970   */\n      0x00\n        /* \"#utility.yul\":10958:10967   */\n      dup4\n        /* \"#utility.yul\":10954:10971   */\n      add\n        /* \"#utility.yul\":10945:10951   */\n      dup6\n        /* \"#utility.yul\":10901:10972   */\n      tag_296\n      jump\t// in\n    tag_442:\n        /* \"#utility.yul\":10982:11054   */\n      tag_443\n        /* \"#utility.yul\":11050:11052   */\n      0x20\n        /* \"#utility.yul\":11039:11048   */\n      dup4\n        /* \"#utility.yul\":11035:11053   */\n      add\n        /* \"#utility.yul\":11026:11032   */\n      dup5\n        /* \"#utility.yul\":10982:11054   */\n      tag_293\n      jump\t// in\n    tag_443:\n        /* \"#utility.yul\":10729:11061   */\n      swap4\n      swap3\n      pop\n      pop\n      pop\n      jump\t// out\n        /* \"#utility.yul\":11067:11183   */\n    tag_302:\n        /* \"#utility.yul\":11137:11158   */\n      tag_445\n        /* \"#utility.yul\":11152:11157   */\n      dup2\n        /* \"#utility.yul\":11137:11158   */\n      tag_286\n      jump\t// in\n    tag_445:\n        /* \"#utility.yul\":11130:11135   */\n      dup2\n        /* \"#utility.yul\":11127:11159   */\n      eq\n        /* \"#utility.yul\":11117:11177   */\n      tag_446\n      jumpi\n        /* \"#utility.yul\":11173:11174   */\n      0x00\n        /* \"#utility.yul\":11170:11171   */\n      dup1\n        /* \"#utility.yul\":11163:11175   */\n      revert\n        /* \"#utility.yul\":11117:11177   */\n    tag_446:\n        /* \"#utility.yul\":11067:11183   */\n      pop\n      jump\t// out\n        /* \"#utility.yul\":11189:11326   */\n    tag_303:\n        /* \"#utility.yul\":11243:11248   */\n      0x00\n        /* \"#utility.yul\":11274:11280   */\n      dup2\n        /* \"#utility.yul\":11268:11281   */\n      mload\n        /* \"#utility.yul\":11259:11281   */\n      swap1\n      pop\n        /* \"#utility.yul\":11290:11320   */\n      tag_448\n        /* \"#utility.yul\":11314:11319   */\n      dup2\n        /* \"#utility.yul\":11290:11320   */\n      tag_302\n      jump\t// in\n    tag_448:\n        /* \"#utility.yul\":11189:11326   */\n      swap3\n      swap2\n      pop\n      pop\n      jump\t// out\n        /* \"#utility.yul\":11332:11677   */\n    tag_149:\n        /* \"#utility.yul\":11399:11405   */\n      0x00\n        /* \"#utility.yul\":11448:11450   */\n      0x20\n        /* \"#utility.yul\":11436:11445   */\n      dup3\n        /* \"#utility.yul\":11427:11434   */\n      dup5\n        /* \"#utility.yul\":11423:11446   */\n      sub\n        /* \"#utility.yul\":11419:11451   */\n      slt\n        /* \"#utility.yul\":11416:11535   */\n      iszero\n      tag_450\n      jumpi\n        /* \"#utility.yul\":11454:11533   */\n      tag_451\n      tag_277\n      jump\t// in\n    tag_451:\n        /* \"#utility.yul\":11416:11535   */\n    tag_450:\n        /* \"#utility.yul\":11574:11575   */\n      0x00\n        /* \"#utility.yul\":11599:11660   */\n      tag_452\n        /* \"#utility.yul\":11652:11659   */\n      dup5\n        /* \"#utility.yul\":11643:11649   */\n      dup3\n        /* \"#utility.yul\":11632:11641   */\n      dup6\n        /* \"#utility.yul\":11628:11650   */\n      add\n        /* \"#utility.yul\":11599:11660   */\n      tag_303\n      jump\t// in\n    tag_452:\n        /* \"#utility.yul\":11589:11660   */\n      swap2\n      pop\n        /* \"#utility.yul\":11545:11670   */\n      pop\n        /* \"#utility.yul\":11332:11677   */\n      swap3\n      swap2\n      pop\n      pop\n      jump\t// out\n        /* \"#utility.yul\":11683:12125   */\n    tag_156:\n        /* \"#utility.yul\":11832:11836   */\n      0x00\n        /* \"#utility.yul\":11870:11872   */\n      0x60\n        /* \"#utility.yul\":11859:11868   */\n      dup3\n        /* \"#utility.yul\":11855:11873   */\n      add\n        /* \"#utility.yul\":11847:11873   */\n      swap1\n      pop\n        /* \"#utility.yul\":11883:11954   */\n      tag_454\n        /* \"#utility.yul\":11951:11952   */\n      0x00\n        /* \"#utility.yul\":11940:11949   */\n      dup4\n        /* \"#utility.yul\":11936:11953   */\n      add\n        /* \"#utility.yul\":11927:11933   */\n      dup7\n        /* \"#utility.yul\":11883:11954   */\n      tag_296\n      jump\t// in\n    tag_454:\n        /* \"#utility.yul\":11964:12036   */\n      tag_455\n        /* \"#utility.yul\":12032:12034   */\n      0x20\n        /* \"#utility.yul\":12021:12030   */\n      dup4\n        /* \"#utility.yul\":12017:12035   */\n      add\n        /* \"#utility.yul\":12008:12014   */\n      dup6\n        /* \"#utility.yul\":11964:12036   */\n      tag_296\n      jump\t// in\n    tag_455:\n        /* \"#utility.yul\":12046:12118   */\n      tag_456\n        /* \"#utility.yul\":12114:12116   */\n      0x40\n        /* \"#utility.yul\":12103:12112   */\n      dup4\n        /* \"#utility.yul\":12099:12117   */\n      add\n        /* \"#utility.yul\":12090:12096   */\n      dup5\n        /* \"#utility.yul\":12046:12118   */\n      tag_293\n      jump\t// in\n    tag_456:\n        /* \"#utility.yul\":11683:12125   */\n      swap5\n      swap4\n      pop\n      pop\n      pop\n      pop\n      jump\t// out\n        /* \"#utility.yul\":12131:12297   */\n    tag_304:\n        /* \"#utility.yul\":12271:12289   */\n      0x78202f207920213d206478202f20647900000000000000000000000000000000\n        /* \"#utility.yul\":12267:12268   */\n      0x00\n        /* \"#utility.yul\":12259:12265   */\n      dup3\n        /* \"#utility.yul\":12255:12269   */\n      add\n        /* \"#utility.yul\":12248:12290   */\n      mstore\n        /* \"#utility.yul\":12131:12297   */\n      pop\n      jump\t// out\n        /* \"#utility.yul\":12303:12669   */\n    tag_305:\n        /* \"#utility.yul\":12445:12448   */\n      0x00\n        /* \"#utility.yul\":12466:12533   */\n      tag_459\n        /* \"#utility.yul\":12530:12532   */\n      0x10\n        /* \"#utility.yul\":12525:12528   */\n      dup4\n        /* \"#utility.yul\":12466:12533   */\n      tag_272\n      jump\t// in\n    tag_459:\n        /* \"#utility.yul\":12459:12533   */\n      swap2\n      pop\n        /* \"#utility.yul\":12542:12635   */\n      tag_460\n        /* \"#utility.yul\":12631:12634   */\n      dup3\n        /* \"#utility.yul\":12542:12635   */\n      tag_304\n      jump\t// in\n    tag_460:\n        /* \"#utility.yul\":12660:12662   */\n      0x20\n        /* \"#utility.yul\":12655:12658   */\n      dup3\n        /* \"#utility.yul\":12651:12663   */\n      add\n        /* \"#utility.yul\":12644:12663   */\n      swap1\n      pop\n        /* \"#utility.yul\":12303:12669   */\n      swap2\n      swap1\n      pop\n      jump\t// out\n        /* \"#utility.yul\":12675:13094   */\n    tag_170:\n        /* \"#utility.yul\":12841:12845   */\n      0x00\n        /* \"#utility.yul\":12879:12881   */\n      0x20\n        /* \"#utility.yul\":12868:12877   */\n      dup3\n        /* \"#utility.yul\":12864:12882   */\n      add\n        /* \"#utility.yul\":12856:12882   */\n      swap1\n      pop\n        /* \"#utility.yul\":12928:12937   */\n      dup2\n        /* \"#utility.yul\":12922:12926   */\n      dup2\n        /* \"#utility.yul\":12918:12938   */\n      sub\n        /* \"#utility.yul\":12914:12915   */\n      0x00\n        /* \"#utility.yul\":12903:12912   */\n      dup4\n        /* \"#utility.yul\":12899:12916   */\n      add\n        /* \"#utility.yul\":12892:12939   */\n      mstore\n        /* \"#utility.yul\":12956:13087   */\n      tag_462\n        /* \"#utility.yul\":13082:13086   */\n      dup2\n        /* \"#utility.yul\":12956:13087   */\n      tag_305\n      jump\t// in\n    tag_462:\n        /* \"#utility.yul\":12948:13087   */\n      swap1\n      pop\n        /* \"#utility.yul\":12675:13094   */\n      swap2\n      swap1\n      pop\n      jump\t// out\n        /* \"#utility.yul\":13100:13260   */\n    tag_306:\n        /* \"#utility.yul\":13240:13252   */\n      0x736861726573203d203000000000000000000000000000000000000000000000\n        /* \"#utility.yul\":13236:13237   */\n      0x00\n        /* \"#utility.yul\":13228:13234   */\n      dup3\n        /* \"#utility.yul\":13224:13238   */\n      add\n        /* \"#utility.yul\":13217:13253   */\n      mstore\n        /* \"#utility.yul\":13100:13260   */\n      pop\n      jump\t// out\n        /* \"#utility.yul\":13266:13632   */\n    tag_307:\n        /* \"#utility.yul\":13408:13411   */\n      0x00\n        /* \"#utility.yul\":13429:13496   */\n      tag_465\n        /* \"#utility.yul\":13493:13495   */\n      0x0a\n        /* \"#utility.yul\":13488:13491   */\n      dup4\n        /* \"#utility.yul\":13429:13496   */\n      tag_272\n      jump\t// in\n    tag_465:\n        /* \"#utility.yul\":13422:13496   */\n      swap2\n      pop\n        /* \"#utility.yul\":13505:13598   */\n      tag_466\n        /* \"#utility.yul\":13594:13597   */\n      dup3\n        /* \"#utility.yul\":13505:13598   */\n      tag_306\n      jump\t// in\n    tag_466:\n        /* \"#utility.yul\":13623:13625   */\n      0x20\n        /* \"#utility.yul\":13618:13621   */\n      dup3\n        /* \"#utility.yul\":13614:13626   */\n      add\n        /* \"#utility.yul\":13607:13626   */\n      swap1\n      pop\n        /* \"#utility.yul\":13266:13632   */\n      swap2\n      swap1\n      pop\n      jump\t// out\n        /* \"#utility.yul\":13638:14057   */\n    tag_184:\n        /* \"#utility.yul\":13804:13808   */\n      0x00\n        /* \"#utility.yul\":13842:13844   */\n      0x20\n        /* \"#utility.yul\":13831:13840   */\n      dup3\n        /* \"#utility.yul\":13827:13845   */\n      add\n        /* \"#utility.yul\":13819:13845   */\n      swap1\n      pop\n        /* \"#utility.yul\":13891:13900   */\n      dup2\n        /* \"#utility.yul\":13885:13889   */\n      dup2\n        /* \"#utility.yul\":13881:13901   */\n      sub\n        /* \"#utility.yul\":13877:13878   */\n      0x00\n        /* \"#utility.yul\":13866:13875   */\n      dup4\n        /* \"#utility.yul\":13862:13879   */\n      add\n        /* \"#utility.yul\":13855:13902   */\n      mstore\n        /* \"#utility.yul\":13919:14050   */\n      tag_468\n        /* \"#utility.yul\":14045:14049   */\n      dup2\n        /* \"#utility.yul\":13919:14050   */\n      tag_307\n      jump\t// in\n    tag_468:\n        /* \"#utility.yul\":13911:14050   */\n      swap1\n      pop\n        /* \"#utility.yul\":13638:14057   */\n      swap2\n      swap1\n      pop\n      jump\t// out\n        /* \"#utility.yul\":14063:14226   */\n    tag_308:\n        /* \"#utility.yul\":14203:14218   */\n      0x696e76616c696420746f6b656e00000000000000000000000000000000000000\n        /* \"#utility.yul\":14199:14200   */\n      0x00\n        /* \"#utility.yul\":14191:14197   */\n      dup3\n        /* \"#utility.yul\":14187:14201   */\n      add\n        /* \"#utility.yul\":14180:14219   */\n      mstore\n        /* \"#utility.yul\":14063:14226   */\n      pop\n      jump\t// out\n        /* \"#utility.yul\":14232:14598   */\n    tag_309:\n        /* \"#utility.yul\":14374:14377   */\n      0x00\n        /* \"#utility.yul\":14395:14462   */\n      tag_471\n        /* \"#utility.yul\":14459:14461   */\n      0x0d\n        /* \"#utility.yul\":14454:14457   */\n      dup4\n        /* \"#utility.yul\":14395:14462   */\n      tag_272\n      jump\t// in\n    tag_471:\n        /* \"#utility.yul\":14388:14462   */\n      swap2\n      pop\n        /* \"#utility.yul\":14471:14564   */\n      tag_472\n        /* \"#utility.yul\":14560:14563   */\n      dup3\n        /* \"#utility.yul\":14471:14564   */\n      tag_308\n      jump\t// in\n    tag_472:\n        /* \"#utility.yul\":14589:14591   */\n      0x20\n        /* \"#utility.yul\":14584:14587   */\n      dup3\n        /* \"#utility.yul\":14580:14592   */\n      add\n        /* \"#utility.yul\":14573:14592   */\n      swap1\n      pop\n        /* \"#utility.yul\":14232:14598   */\n      swap2\n      swap1\n      pop\n      jump\t// out\n        /* \"#utility.yul\":14604:15023   */\n    tag_202:\n        /* \"#utility.yul\":14770:14774   */\n      0x00\n        /* \"#utility.yul\":14808:14810   */\n      0x20\n        /* \"#utility.yul\":14797:14806   */\n      dup3\n        /* \"#utility.yul\":14793:14811   */\n      add\n        /* \"#utility.yul\":14785:14811   */\n      swap1\n      pop\n        /* \"#utility.yul\":14857:14866   */\n      dup2\n        /* \"#utility.yul\":14851:14855   */\n      dup2\n        /* \"#utility.yul\":14847:14867   */\n      sub\n        /* \"#utility.yul\":14843:14844   */\n      0x00\n        /* \"#utility.yul\":14832:14841   */\n      dup4\n        /* \"#utility.yul\":14828:14845   */\n      add\n        /* \"#utility.yul\":14821:14868   */\n      mstore\n        /* \"#utility.yul\":14885:15016   */\n      tag_474\n        /* \"#utility.yul\":15011:15015   */\n      dup2\n        /* \"#utility.yul\":14885:15016   */\n      tag_309\n      jump\t// in\n    tag_474:\n        /* \"#utility.yul\":14877:15016   */\n      swap1\n      pop\n        /* \"#utility.yul\":14604:15023   */\n      swap2\n      swap1\n      pop\n      jump\t// out\n        /* \"#utility.yul\":15029:15192   */\n    tag_310:\n        /* \"#utility.yul\":15169:15184   */\n      0x616d6f756e7420696e203d203000000000000000000000000000000000000000\n        /* \"#utility.yul\":15165:15166   */\n      0x00\n        /* \"#utility.yul\":15157:15163   */\n      dup3\n        /* \"#utility.yul\":15153:15167   */\n      add\n        /* \"#utility.yul\":15146:15185   */\n      mstore\n        /* \"#utility.yul\":15029:15192   */\n      pop\n      jump\t// out\n        /* \"#utility.yul\":15198:15564   */\n    tag_311:\n        /* \"#utility.yul\":15340:15343   */\n      0x00\n        /* \"#utility.yul\":15361:15428   */\n      tag_477\n        /* \"#utility.yul\":15425:15427   */\n      0x0d\n        /* \"#utility.yul\":15420:15423   */\n      dup4\n        /* \"#utility.yul\":15361:15428   */\n      tag_272\n      jump\t// in\n    tag_477:\n        /* \"#utility.yul\":15354:15428   */\n      swap2\n      pop\n        /* \"#utility.yul\":15437:15530   */\n      tag_478\n        /* \"#utility.yul\":15526:15529   */\n      dup3\n        /* \"#utility.yul\":15437:15530   */\n      tag_310\n      jump\t// in\n    tag_478:\n        /* \"#utility.yul\":15555:15557   */\n      0x20\n        /* \"#utility.yul\":15550:15553   */\n      dup3\n        /* \"#utility.yul\":15546:15558   */\n      add\n        /* \"#utility.yul\":15539:15558   */\n      swap1\n      pop\n        /* \"#utility.yul\":15198:15564   */\n      swap2\n      swap1\n      pop\n      jump\t// out\n        /* \"#utility.yul\":15570:15989   */\n    tag_205:\n        /* \"#utility.yul\":15736:15740   */\n      0x00\n        /* \"#utility.yul\":15774:15776   */\n      0x20\n        /* \"#utility.yul\":15763:15772   */\n      dup3\n        /* \"#utility.yul\":15759:15777   */\n      add\n        /* \"#utility.yul\":15751:15777   */\n      swap1\n      pop\n        /* \"#utility.yul\":15823:15832   */\n      dup2\n        /* \"#utility.yul\":15817:15821   */\n      dup2\n        /* \"#utility.yul\":15813:15833   */\n      sub\n        /* \"#utility.yul\":15809:15810   */\n      0x00\n        /* \"#utility.yul\":15798:15807   */\n      dup4\n        /* \"#utility.yul\":15794:15811   */\n      add\n        /* \"#utility.yul\":15787:15834   */\n      mstore\n        /* \"#utility.yul\":15851:15982   */\n      tag_480\n        /* \"#utility.yul\":15977:15981   */\n      dup2\n        /* \"#utility.yul\":15851:15982   */\n      tag_311\n      jump\t// in\n    tag_480:\n        /* \"#utility.yul\":15843:15982   */\n      swap1\n      pop\n        /* \"#utility.yul\":15570:15989   */\n      swap2\n      swap1\n      pop\n      jump\t// out\n        /* \"#utility.yul\":15995:16300   */\n    tag_215:\n        /* \"#utility.yul\":16035:16038   */\n      0x00\n        /* \"#utility.yul\":16054:16074   */\n      tag_482\n        /* \"#utility.yul\":16072:16073   */\n      dup3\n        /* \"#utility.yul\":16054:16074   */\n      tag_283\n      jump\t// in\n    tag_482:\n        /* \"#utility.yul\":16049:16074   */\n      swap2\n      pop\n        /* \"#utility.yul\":16088:16108   */\n      tag_483\n        /* \"#utility.yul\":16106:16107   */\n      dup4\n        /* \"#utility.yul\":16088:16108   */\n      tag_283\n      jump\t// in\n    tag_483:\n        /* \"#utility.yul\":16083:16108   */\n      swap3\n      pop\n        /* \"#utility.yul\":16242:16243   */\n      dup3\n        /* \"#utility.yul\":16174:16240   */\n      0xffffffffffffffffffffffffffffffffffffffffffffffffffffffffffffffff\n        /* \"#utility.yul\":16170:16244   */\n      sub\n        /* \"#utility.yul\":16167:16168   */\n      dup3\n        /* \"#utility.yul\":16164:16245   */\n      gt\n        /* \"#utility.yul\":16161:16268   */\n      iszero\n      tag_484\n      jumpi\n        /* \"#utility.yul\":16248:16266   */\n      tag_485\n      tag_298\n      jump\t// in\n    tag_485:\n        /* \"#utility.yul\":16161:16268   */\n    tag_484:\n        /* \"#utility.yul\":16292:16293   */\n      dup3\n        /* \"#utility.yul\":16289:16290   */\n      dup3\n        /* \"#utility.yul\":16285:16294   */\n      add\n        /* \"#utility.yul\":16278:16294   */\n      swap1\n      pop\n        /* \"#utility.yul\":15995:16300   */\n      swap3\n      swap2\n      pop\n      pop\n      jump\t// out\n        /* \"#utility.yul\":16306:16477   */\n    tag_312:\n        /* \"#utility.yul\":16446:16469   */\n      0x64732d6d6174682d7375622d756e646572666c6f770000000000000000000000\n        /* \"#utility.yul\":16442:16443   */\n      0x00\n        /* \"#utility.yul\":16434:16440   */\n      dup3\n        /* \"#utility.yul\":16430:16444   */\n      add\n        /* \"#utility.yul\":16423:16470   */\n      mstore\n        /* \"#utility.yul\":16306:16477   */\n      pop\n      jump\t// out\n        /* \"#utility.yul\":16483:16849   */\n    tag_313:\n        /* \"#utility.yul\":16625:16628   */\n      0x00\n        /* \"#utility.yul\":16646:16713   */\n      tag_488\n        /* \"#utility.yul\":16710:16712   */\n      0x15\n        /* \"#utility.yul\":16705:16708   */\n      dup4\n        /* \"#utility.yul\":16646:16713   */\n      tag_272\n      jump\t// in\n    tag_488:\n        /* \"#utility.yul\":16639:16713   */\n      swap2\n      pop\n        /* \"#utility.yul\":16722:16815   */\n      tag_489\n        /* \"#utility.yul\":16811:16814   */\n      dup3\n        /* \"#utility.yul\":16722:16815   */\n      tag_312\n      jump\t// in\n    tag_489:\n        /* \"#utility.yul\":16840:16842   */\n      0x20\n        /* \"#utility.yul\":16835:16838   */\n      dup3\n        /* \"#utility.yul\":16831:16843   */\n      add\n        /* \"#utility.yul\":16824:16843   */\n      swap1\n      pop\n        /* \"#utility.yul\":16483:16849   */\n      swap2\n      swap1\n      pop\n      jump\t// out\n        /* \"#utility.yul\":16855:17274   */\n    tag_237:\n        /* \"#utility.yul\":17021:17025   */\n      0x00\n        /* \"#utility.yul\":17059:17061   */\n      0x20\n        /* \"#utility.yul\":17048:17057   */\n      dup3\n        /* \"#utility.yul\":17044:17062   */\n      add\n        /* \"#utility.yul\":17036:17062   */\n      swap1\n      pop\n        /* \"#utility.yul\":17108:17117   */\n      dup2\n        /* \"#utility.yul\":17102:17106   */\n      dup2\n        /* \"#utility.yul\":17098:17118   */\n      sub\n        /* \"#utility.yul\":17094:17095   */\n      0x00\n        /* \"#utility.yul\":17083:17092   */\n      dup4\n        /* \"#utility.yul\":17079:17096   */\n      add\n        /* \"#utility.yul\":17072:17119   */\n      mstore\n        /* \"#utility.yul\":17136:17267   */\n      tag_491\n        /* \"#utility.yul\":17262:17266   */\n      dup2\n        /* \"#utility.yul\":17136:17267   */\n      tag_313\n      jump\t// in\n    tag_491:\n        /* \"#utility.yul\":17128:17267   */\n      swap1\n      pop\n        /* \"#utility.yul\":16855:17274   */\n      swap2\n      swap1\n      pop\n      jump\t// out\n        /* \"#utility.yul\":17280:17450   */\n    tag_314:\n        /* \"#utility.yul\":17420:17442   */\n      0x64732d6d6174682d6164642d6f766572666c6f77000000000000000000000000\n        /* \"#utility.yul\":17416:17417   */\n      0x00\n        /* \"#utility.yul\":17408:17414   */\n      dup3\n        /* \"#utility.yul\":17404:17418   */\n      add\n        /* \"#utility.yul\":17397:17443   */\n      mstore\n        /* \"#utility.yul\":17280:17450   */\n      pop\n      jump\t// out\n        /* \"#utility.yul\":17456:17822   */\n    tag_315:\n        /* \"#utility.yul\":17598:17601   */\n      0x00\n        /* \"#utility.yul\":17619:17686   */\n      tag_494\n        /* \"#utility.yul\":17683:17685   */\n      0x14\n        /* \"#utility.yul\":17678:17681   */\n      dup4\n        /* \"#utility.yul\":17619:17686   */\n      tag_272\n      jump\t// in\n    tag_494:\n        /* \"#utility.yul\":17612:17686   */\n      swap2\n      pop\n        /* \"#utility.yul\":17695:17788   */\n      tag_495\n        /* \"#utility.yul\":17784:17787   */\n      dup3\n        /* \"#utility.yul\":17695:17788   */\n      tag_314\n      jump\t// in\n    tag_495:\n        /* \"#utility.yul\":17813:17815   */\n      0x20\n        /* \"#utility.yul\":17808:17811   */\n      dup3\n        /* \"#utility.yul\":17804:17816   */\n      add\n        /* \"#utility.yul\":17797:17816   */\n      swap1\n      pop\n        /* \"#utility.yul\":17456:17822   */\n      swap2\n      swap1\n      pop\n      jump\t// out\n        /* \"#utility.yul\":17828:18247   */\n    tag_270:\n        /* \"#utility.yul\":17994:17998   */\n      0x00\n        /* \"#utility.yul\":18032:18034   */\n      0x20\n        /* \"#utility.yul\":18021:18030   */\n      dup3\n        /* \"#utility.yul\":18017:18035   */\n      add\n        /* \"#utility.yul\":18009:18035   */\n      swap1\n      pop\n        /* \"#utility.yul\":18081:18090   */\n      dup2\n        /* \"#utility.yul\":18075:18079   */\n      dup2\n        /* \"#utility.yul\":18071:18091   */\n      sub\n        /* \"#utility.yul\":18067:18068   */\n      0x00\n        /* \"#utility.yul\":18056:18065   */\n      dup4\n        /* \"#utility.yul\":18052:18069   */\n      add\n        /* \"#utility.yul\":18045:18092   */\n      mstore\n        /* \"#utility.yul\":18109:18240   */\n      tag_497\n        /* \"#utility.yul\":18235:18239   */\n      dup2\n        /* \"#utility.yul\":18109:18240   */\n      tag_315\n      jump\t// in\n    tag_497:\n        /* \"#utility.yul\":18101:18240   */\n      swap1\n      pop\n        /* \"#utility.yul\":17828:18247   */\n      swap2\n      swap1\n      pop\n      jump\t// out\n\n    auxdata: 0xa26469706673582212203f6f640d6b3cfabacbcc98f98c438ecc18bc5f95a37af35de4c08c1a692ecfe064736f6c634300080e0033\n}\n",
				"bytecode": {
					"linkReferences": {},
					"object": "60c06040523480156200001157600080fd5b506040516200249838038062002498833981810160405281019062000037919062000111565b8173ffffffffffffffffffffffffffffffffffffffff1660808173ffffffffffffffffffffffffffffffffffffffff16815250508073ffffffffffffffffffffffffffffffffffffffff1660a08173ffffffffffffffffffffffffffffffffffffffff1681525050505062000158565b600080fd5b600073ffffffffffffffffffffffffffffffffffffffff82169050919050565b6000620000d982620000ac565b9050919050565b620000eb81620000cc565b8114620000f757600080fd5b50565b6000815190506200010b81620000e0565b92915050565b600080604083850312156200012b576200012a620000a7565b5b60006200013b85828601620000fa565b92505060206200014e85828601620000fa565b9150509250929050565b60805160a0516122a3620001f5600039600081816107900152818161097a01528181610ac301528181610d2801528181610e3b01528181610f6b01528181610fd9015281816111e9015261129401526000818161047e015281816106f2015281816108db01528181610a2201528181610c8e01528181610de601528181610f0f01528181610f8c01528181610fb8015261114f01526122a36000f3fe608060405234801561001057600080fd5b506004361061012c5760003560e01c806370a08231116100ad5780639cd441da116100715780639cd441da1461034e578063a9059cbb1461037e578063d004f0f7146103ae578063d21220a7146103de578063dd62ed3e146103fc5761012c565b806370a08231146102815780637464fc3d146102b15780637ecebe00146102cf57806395d89b41146102ff5780639c8f9f231461031d5761012c565b8063313ce567116100f4578063313ce567146101eb578063443cb4bc146102095780635909c0d5146102275780635a3d5493146102455780635a76f25e146102635761012c565b806306fdde0314610131578063095ea7b31461014f5780630dfe16811461017f57806318160ddd1461019d57806323b872dd146101bb575b600080fd5b61013961042c565b604051610146919061197f565b60405180910390f35b61016960048036038101906101649190611a3a565b610465565b6040516101769190611a95565b60405180910390f35b61018761047c565b6040516101949190611b0f565b60405180910390f35b6101a56104a0565b6040516101b29190611b39565b60405180910390f35b6101d560048036038101906101d09190611b54565b6104a6565b6040516101e29190611a95565b60405180910390f35b6101f361065f565b6040516102009190611bc3565b60405180910390f35b610211610664565b60405161021e9190611b39565b60405180910390f35b61022f61066a565b60405161023c9190611b39565b60405180910390f35b61024d610670565b60405161025a9190611b39565b60405180910390f35b61026b610676565b6040516102789190611b39565b60405180910390f35b61029b60048036038101906102969190611bde565b61067c565b6040516102a89190611b39565b60405180910390f35b6102b9610694565b6040516102c69190611b39565b60405180910390f35b6102e960048036038101906102e49190611bde565b61069a565b6040516102f69190611b39565b60405180910390f35b6103076106b2565b604051610314919061197f565b60405180910390f35b61033760048036038101906103329190611c0b565b6106eb565b604051610345929190611c38565b60405180910390f35b61036860048036038101906103639190611c61565b610a1e565b6040516103759190611b39565b60405180910390f35b61039860048036038101906103939190611a3a565b610dcb565b6040516103a59190611a95565b60405180910390f35b6103c860048036038101906103c39190611a3a565b610de2565b6040516103d59190611b39565b60405180910390f35b6103e6611292565b6040516103f39190611b0f565b60405180910390f35b61041660048036038101906104119190611ca1565b6112b6565b6040516104239190611b39565b60405180910390f35b6040518060400160405280600881526020017f58537761702d563100000000000000000000000000000000000000000000000081525081565b60006104723384846112db565b6001905092915050565b7f000000000000000000000000000000000000000000000000000000000000000081565b60005481565b60006dffffffffffffffffffffffffffff600260008673ffffffffffffffffffffffffffffffffffffffff1673ffffffffffffffffffffffffffffffffffffffff16815260200190815260200160002060003373ffffffffffffffffffffffffffffffffffffffff1673ffffffffffffffffffffffffffffffffffffffff1681526020019081526020016000205414610649576105c882600260008773ffffffffffffffffffffffffffffffffffffffff1673ffffffffffffffffffffffffffffffffffffffff16815260200190815260200160002060003373ffffffffffffffffffffffffffffffffffffffff1673ffffffffffffffffffffffffffffffffffffffff168152602001908152602001600020546113c690919063ffffffff16565b600260008673ffffffffffffffffffffffffffffffffffffffff1673ffffffffffffffffffffffffffffffffffffffff16815260200190815260200160002060003373ffffffffffffffffffffffffffffffffffffffff1673ffffffffffffffffffffffffffffffffffffffff168152602001908152602001600020819055505b61065484848461141f565b600190509392505050565b601281565b60045481565b60065481565b60075481565b60055481565b60016020528060005260406000206000915090505481565b60085481565b60036020528060005260406000206000915090505481565b6040518060400160405280600581526020017f58532d563100000000000000000000000000000000000000000000000000000081525081565b60008060007f000000000000000000000000000000000000000000000000000000000000000073ffffffffffffffffffffffffffffffffffffffff166370a08231306040518263ffffffff1660e01b81526004016107499190611cf0565b602060405180830381865afa158015610766573d6000803e3d6000fd5b505050506040513d601f19601f8201168201806040525081019061078a9190611d20565b905060007f000000000000000000000000000000000000000000000000000000000000000073ffffffffffffffffffffffffffffffffffffffff166370a08231306040518263ffffffff1660e01b81526004016107e79190611cf0565b602060405180830381865afa158015610804573d6000803e3d6000fd5b505050506040513d601f19601f820116820180604052508101906108289190611d20565b905060005482866108399190611d7c565b6108439190611e05565b935060005481866108549190611d7c565b61085e9190611e05565b92506000841180156108705750600083115b6108af576040517f08c379a00000000000000000000000000000000000000000000000000000000081526004016108a690611e82565b60405180910390fd5b6108b933866115b3565b6108d984836108c89190611ea2565b84836108d49190611ea2565b6116cd565b7f000000000000000000000000000000000000000000000000000000000000000073ffffffffffffffffffffffffffffffffffffffff1663a9059cbb33866040518363ffffffff1660e01b8152600401610934929190611ed6565b6020604051808303816000875af1158015610953573d6000803e3d6000fd5b505050506040513d601f19601f820116820180604052508101906109779190611f2b565b507f000000000000000000000000000000000000000000000000000000000000000073ffffffffffffffffffffffffffffffffffffffff1663a9059cbb33856040518363ffffffff1660e01b81526004016109d3929190611ed6565b6020604051808303816000875af11580156109f2573d6000803e3d6000fd5b505050506040513d601f19601f82011682018060405250810190610a169190611f2b565b505050915091565b60007f000000000000000000000000000000000000000000000000000000000000000073ffffffffffffffffffffffffffffffffffffffff166323b872dd3330866040518463ffffffff1660e01b8152600401610a7d93929190611f58565b6020604051808303816000875af1158015610a9c573d6000803e3d6000fd5b505050506040513d601f19601f82011682018060405250810190610ac09190611f2b565b507f000000000000000000000000000000000000000000000000000000000000000073ffffffffffffffffffffffffffffffffffffffff166323b872dd3330856040518463ffffffff1660e01b8152600401610b1e93929190611f58565b6020604051808303816000875af1158015610b3d573d6000803e3d6000fd5b505050506040513d601f19601f82011682018060405250810190610b619190611f2b565b5060006004541180610b7557506000600554115b15610bd75782600554610b889190611d7c565b82600454610b969190611d7c565b14610bd6576040517f08c379a0000000000000000000000000000000000000000000000000000000008152600401610bcd90611fdb565b60405180910390fd5b5b6000805403610bfb57610bf48284610bef9190611d7c565b6116df565b9050610c3c565b610c3960045460005485610c0f9190611d7c565b610c199190611e05565b60055460005485610c2a9190611d7c565b610c349190611e05565b611759565b90505b60008111610c7f576040517f08c379a0000000000000000000000000000000000000000000000000000000008152600401610c7690612047565b60405180910390fd5b610c893382611773565b610dc57f000000000000000000000000000000000000000000000000000000000000000073ffffffffffffffffffffffffffffffffffffffff166370a08231306040518263ffffffff1660e01b8152600401610ce59190611cf0565b602060405180830381865afa158015610d02573d6000803e3d6000fd5b505050506040513d601f19601f82011682018060405250810190610d269190611d20565b7f000000000000000000000000000000000000000000000000000000000000000073ffffffffffffffffffffffffffffffffffffffff166370a08231306040518263ffffffff1660e01b8152600401610d7f9190611cf0565b602060405180830381865afa158015610d9c573d6000803e3d6000fd5b505050506040513d601f19601f82011682018060405250810190610dc09190611d20565b6116cd565b92915050565b6000610dd833848461141f565b6001905092915050565b60007f000000000000000000000000000000000000000000000000000000000000000073ffffffffffffffffffffffffffffffffffffffff168373ffffffffffffffffffffffffffffffffffffffff161480610e8957507f000000000000000000000000000000000000000000000000000000000000000073ffffffffffffffffffffffffffffffffffffffff168373ffffffffffffffffffffffffffffffffffffffff16145b610ec8576040517f08c379a0000000000000000000000000000000000000000000000000000000008152600401610ebf906120b3565b60405180910390fd5b60008211610f0b576040517f08c379a0000000000000000000000000000000000000000000000000000000008152600401610f029061211f565b60405180910390fd5b60007f000000000000000000000000000000000000000000000000000000000000000073ffffffffffffffffffffffffffffffffffffffff168473ffffffffffffffffffffffffffffffffffffffff1614905060008060008084610fb6577f00000000000000000000000000000000000000000000000000000000000000007f0000000000000000000000000000000000000000000000000000000000000000600554600454610fff565b7f00000000000000000000000000000000000000000000000000000000000000007f00000000000000000000000000000000000000000000000000000000000000006004546005545b93509350935093508373ffffffffffffffffffffffffffffffffffffffff166323b872dd33308a6040518463ffffffff1660e01b815260040161104493929190611f58565b6020604051808303816000875af1158015611063573d6000803e3d6000fd5b505050506040513d601f19601f820116820180604052508101906110879190611f2b565b5060006103e86103e58961109b9190611d7c565b6110a59190611e05565b905080836110b3919061213f565b81836110bf9190611d7c565b6110c99190611e05565b96508373ffffffffffffffffffffffffffffffffffffffff1663a9059cbb33896040518363ffffffff1660e01b8152600401611106929190611ed6565b6020604051808303816000875af1158015611125573d6000803e3d6000fd5b505050506040513d601f19601f820116820180604052508101906111499190611f2b565b506112867f000000000000000000000000000000000000000000000000000000000000000073ffffffffffffffffffffffffffffffffffffffff166370a08231306040518263ffffffff1660e01b81526004016111a69190611cf0565b602060405180830381865afa1580156111c3573d6000803e3d6000fd5b505050506040513d601f19601f820116820180604052508101906111e79190611d20565b7f000000000000000000000000000000000000000000000000000000000000000073ffffffffffffffffffffffffffffffffffffffff166370a08231306040518263ffffffff1660e01b81526004016112409190611cf0565b602060405180830381865afa15801561125d573d6000803e3d6000fd5b505050506040513d601f19601f820116820180604052508101906112819190611d20565b6116cd565b50505050505092915050565b7f000000000000000000000000000000000000000000000000000000000000000081565b6002602052816000526040600020602052806000526040600020600091509150505481565b80600260008573ffffffffffffffffffffffffffffffffffffffff1673ffffffffffffffffffffffffffffffffffffffff16815260200190815260200160002060008473ffffffffffffffffffffffffffffffffffffffff1673ffffffffffffffffffffffffffffffffffffffff168152602001908152602001600020819055508173ffffffffffffffffffffffffffffffffffffffff168373ffffffffffffffffffffffffffffffffffffffff167f8c5be1e5ebec7d5bd14f71427d1e84f3dd0314c0f7b2291e5b200ac8c7c3b925836040516113b99190611b39565b60405180910390a3505050565b60008282846113d59190611ea2565b9150811115611419576040517f08c379a0000000000000000000000000000000000000000000000000000000008152600401611410906121e1565b60405180910390fd5b92915050565b61147181600160008673ffffffffffffffffffffffffffffffffffffffff1673ffffffffffffffffffffffffffffffffffffffff168152602001908152602001600020546113c690919063ffffffff16565b600160008573ffffffffffffffffffffffffffffffffffffffff1673ffffffffffffffffffffffffffffffffffffffff1681526020019081526020016000208190555061150681600160008573ffffffffffffffffffffffffffffffffffffffff1673ffffffffffffffffffffffffffffffffffffffff1681526020019081526020016000205461188d90919063ffffffff16565b600160008473ffffffffffffffffffffffffffffffffffffffff1673ffffffffffffffffffffffffffffffffffffffff168152602001908152602001600020819055508173ffffffffffffffffffffffffffffffffffffffff168373ffffffffffffffffffffffffffffffffffffffff167fddf252ad1be2c89b69c2b068fc378daa952ba7f163c4a11628f55a4df523b3ef836040516115a69190611b39565b60405180910390a3505050565b61160581600160008573ffffffffffffffffffffffffffffffffffffffff1673ffffffffffffffffffffffffffffffffffffffff168152602001908152602001600020546113c690919063ffffffff16565b600160008473ffffffffffffffffffffffffffffffffffffffff1673ffffffffffffffffffffffffffffffffffffffff1681526020019081526020016000208190555061165d816000546113c690919063ffffffff16565b600081905550600073ffffffffffffffffffffffffffffffffffffffff168273ffffffffffffffffffffffffffffffffffffffff167fddf252ad1be2c89b69c2b068fc378daa952ba7f163c4a11628f55a4df523b3ef836040516116c19190611b39565b60405180910390a35050565b81600481905550806005819055505050565b6000600382111561174657819050600060016002846116fe9190611e05565b611708919061213f565b90505b818110156117405780915060028182856117259190611e05565b61172f919061213f565b6117399190611e05565b905061170b565b50611754565b6000821461175357600190505b5b919050565b600081831115611769578161176b565b825b905092915050565b6117888160005461188d90919063ffffffff16565b6000819055506117e081600160008573ffffffffffffffffffffffffffffffffffffffff1673ffffffffffffffffffffffffffffffffffffffff1681526020019081526020016000205461188d90919063ffffffff16565b600160008473ffffffffffffffffffffffffffffffffffffffff1673ffffffffffffffffffffffffffffffffffffffff168152602001908152602001600020819055508173ffffffffffffffffffffffffffffffffffffffff16600073ffffffffffffffffffffffffffffffffffffffff167fddf252ad1be2c89b69c2b068fc378daa952ba7f163c4a11628f55a4df523b3ef836040516118819190611b39565b60405180910390a35050565b600082828461189c919061213f565b91508110156118e0576040517f08c379a00000000000000000000000000000000000000000000000000000000081526004016118d79061224d565b60405180910390fd5b92915050565b600081519050919050565b600082825260208201905092915050565b60005b83811015611920578082015181840152602081019050611905565b8381111561192f576000848401525b50505050565b6000601f19601f8301169050919050565b6000611951826118e6565b61195b81856118f1565b935061196b818560208601611902565b61197481611935565b840191505092915050565b600060208201905081810360008301526119998184611946565b905092915050565b600080fd5b600073ffffffffffffffffffffffffffffffffffffffff82169050919050565b60006119d1826119a6565b9050919050565b6119e1816119c6565b81146119ec57600080fd5b50565b6000813590506119fe816119d8565b92915050565b6000819050919050565b611a1781611a04565b8114611a2257600080fd5b50565b600081359050611a3481611a0e565b92915050565b60008060408385031215611a5157611a506119a1565b5b6000611a5f858286016119ef565b9250506020611a7085828601611a25565b9150509250929050565b60008115159050919050565b611a8f81611a7a565b82525050565b6000602082019050611aaa6000830184611a86565b92915050565b6000819050919050565b6000611ad5611ad0611acb846119a6565b611ab0565b6119a6565b9050919050565b6000611ae782611aba565b9050919050565b6000611af982611adc565b9050919050565b611b0981611aee565b82525050565b6000602082019050611b246000830184611b00565b92915050565b611b3381611a04565b82525050565b6000602082019050611b4e6000830184611b2a565b92915050565b600080600060608486031215611b6d57611b6c6119a1565b5b6000611b7b868287016119ef565b9350506020611b8c868287016119ef565b9250506040611b9d86828701611a25565b9150509250925092565b600060ff82169050919050565b611bbd81611ba7565b82525050565b6000602082019050611bd86000830184611bb4565b92915050565b600060208284031215611bf457611bf36119a1565b5b6000611c02848285016119ef565b91505092915050565b600060208284031215611c2157611c206119a1565b5b6000611c2f84828501611a25565b91505092915050565b6000604082019050611c4d6000830185611b2a565b611c5a6020830184611b2a565b9392505050565b60008060408385031215611c7857611c776119a1565b5b6000611c8685828601611a25565b9250506020611c9785828601611a25565b9150509250929050565b60008060408385031215611cb857611cb76119a1565b5b6000611cc6858286016119ef565b9250506020611cd7858286016119ef565b9150509250929050565b611cea816119c6565b82525050565b6000602082019050611d056000830184611ce1565b92915050565b600081519050611d1a81611a0e565b92915050565b600060208284031215611d3657611d356119a1565b5b6000611d4484828501611d0b565b91505092915050565b7f4e487b7100000000000000000000000000000000000000000000000000000000600052601160045260246000fd5b6000611d8782611a04565b9150611d9283611a04565b9250817fffffffffffffffffffffffffffffffffffffffffffffffffffffffffffffffff0483118215151615611dcb57611dca611d4d565b5b828202905092915050565b7f4e487b7100000000000000000000000000000000000000000000000000000000600052601260045260246000fd5b6000611e1082611a04565b9150611e1b83611a04565b925082611e2b57611e2a611dd6565b5b828204905092915050565b7f616d6f756e7430206f7220616d6f756e7431203d203000000000000000000000600082015250565b6000611e6c6016836118f1565b9150611e7782611e36565b602082019050919050565b60006020820190508181036000830152611e9b81611e5f565b9050919050565b6000611ead82611a04565b9150611eb883611a04565b925082821015611ecb57611eca611d4d565b5b828203905092915050565b6000604082019050611eeb6000830185611ce1565b611ef86020830184611b2a565b9392505050565b611f0881611a7a565b8114611f1357600080fd5b50565b600081519050611f2581611eff565b92915050565b600060208284031215611f4157611f406119a1565b5b6000611f4f84828501611f16565b91505092915050565b6000606082019050611f6d6000830186611ce1565b611f7a6020830185611ce1565b611f876040830184611b2a565b949350505050565b7f78202f207920213d206478202f20647900000000000000000000000000000000600082015250565b6000611fc56010836118f1565b9150611fd082611f8f565b602082019050919050565b60006020820190508181036000830152611ff481611fb8565b9050919050565b7f736861726573203d203000000000000000000000000000000000000000000000600082015250565b6000612031600a836118f1565b915061203c82611ffb565b602082019050919050565b6000602082019050818103600083015261206081612024565b9050919050565b7f696e76616c696420746f6b656e00000000000000000000000000000000000000600082015250565b600061209d600d836118f1565b91506120a882612067565b602082019050919050565b600060208201905081810360008301526120cc81612090565b9050919050565b7f616d6f756e7420696e203d203000000000000000000000000000000000000000600082015250565b6000612109600d836118f1565b9150612114826120d3565b602082019050919050565b60006020820190508181036000830152612138816120fc565b9050919050565b600061214a82611a04565b915061215583611a04565b9250827fffffffffffffffffffffffffffffffffffffffffffffffffffffffffffffffff0382111561218a57612189611d4d565b5b828201905092915050565b7f64732d6d6174682d7375622d756e646572666c6f770000000000000000000000600082015250565b60006121cb6015836118f1565b91506121d682612195565b602082019050919050565b600060208201905081810360008301526121fa816121be565b9050919050565b7f64732d6d6174682d6164642d6f766572666c6f77000000000000000000000000600082015250565b60006122376014836118f1565b915061224282612201565b602082019050919050565b600060208201905081810360008301526122668161222a565b905091905056fea26469706673582212203f6f640d6b3cfabacbcc98f98c438ecc18bc5f95a37af35de4c08c1a692ecfe064736f6c634300080e0033",
					"opcodes": "PUSH1 0xC0 PUSH1 0x40 MSTORE CALLVALUE DUP1 ISZERO PUSH3 0x11 JUMPI PUSH1 0x0 DUP1 REVERT JUMPDEST POP PUSH1 0x40 MLOAD PUSH3 0x2498 CODESIZE SUB DUP1 PUSH3 0x2498 DUP4 CODECOPY DUP2 DUP2 ADD PUSH1 0x40 MSTORE DUP2 ADD SWAP1 PUSH3 0x37 SWAP2 SWAP1 PUSH3 0x111 JUMP JUMPDEST DUP2 PUSH20 0xFFFFFFFFFFFFFFFFFFFFFFFFFFFFFFFFFFFFFFFF AND PUSH1 0x80 DUP2 PUSH20 0xFFFFFFFFFFFFFFFFFFFFFFFFFFFFFFFFFFFFFFFF AND DUP2 MSTORE POP POP DUP1 PUSH20 0xFFFFFFFFFFFFFFFFFFFFFFFFFFFFFFFFFFFFFFFF AND PUSH1 0xA0 DUP2 PUSH20 0xFFFFFFFFFFFFFFFFFFFFFFFFFFFFFFFFFFFFFFFF AND DUP2 MSTORE POP POP POP POP PUSH3 0x158 JUMP JUMPDEST PUSH1 0x0 DUP1 REVERT JUMPDEST PUSH1 0x0 PUSH20 0xFFFFFFFFFFFFFFFFFFFFFFFFFFFFFFFFFFFFFFFF DUP3 AND SWAP1 POP SWAP2 SWAP1 POP JUMP JUMPDEST PUSH1 0x0 PUSH3 0xD9 DUP3 PUSH3 0xAC JUMP JUMPDEST SWAP1 POP SWAP2 SWAP1 POP JUMP JUMPDEST PUSH3 0xEB DUP2 PUSH3 0xCC JUMP JUMPDEST DUP2 EQ PUSH3 0xF7 JUMPI PUSH1 0x0 DUP1 REVERT JUMPDEST POP JUMP JUMPDEST PUSH1 0x0 DUP2 MLOAD SWAP1 POP PUSH3 0x10B DUP2 PUSH3 0xE0 JUMP JUMPDEST SWAP3 SWAP2 POP POP JUMP JUMPDEST PUSH1 0x0 DUP1 PUSH1 0x40 DUP4 DUP6 SUB SLT ISZERO PUSH3 0x12B JUMPI PUSH3 0x12A PUSH3 0xA7 JUMP JUMPDEST JUMPDEST PUSH1 0x0 PUSH3 0x13B DUP6 DUP3 DUP7 ADD PUSH3 0xFA JUMP JUMPDEST SWAP3 POP POP PUSH1 0x20 PUSH3 0x14E DUP6 DUP3 DUP7 ADD PUSH3 0xFA JUMP JUMPDEST SWAP2 POP POP SWAP3 POP SWAP3 SWAP1 POP JUMP JUMPDEST PUSH1 0x80 MLOAD PUSH1 0xA0 MLOAD PUSH2 0x22A3 PUSH3 0x1F5 PUSH1 0x0 CODECOPY PUSH1 0x0 DUP2 DUP2 PUSH2 0x790 ADD MSTORE DUP2 DUP2 PUSH2 0x97A ADD MSTORE DUP2 DUP2 PUSH2 0xAC3 ADD MSTORE DUP2 DUP2 PUSH2 0xD28 ADD MSTORE DUP2 DUP2 PUSH2 0xE3B ADD MSTORE DUP2 DUP2 PUSH2 0xF6B ADD MSTORE DUP2 DUP2 PUSH2 0xFD9 ADD MSTORE DUP2 DUP2 PUSH2 0x11E9 ADD MSTORE PUSH2 0x1294 ADD MSTORE PUSH1 0x0 DUP2 DUP2 PUSH2 0x47E ADD MSTORE DUP2 DUP2 PUSH2 0x6F2 ADD MSTORE DUP2 DUP2 PUSH2 0x8DB ADD MSTORE DUP2 DUP2 PUSH2 0xA22 ADD MSTORE DUP2 DUP2 PUSH2 0xC8E ADD MSTORE DUP2 DUP2 PUSH2 0xDE6 ADD MSTORE DUP2 DUP2 PUSH2 0xF0F ADD MSTORE DUP2 DUP2 PUSH2 0xF8C ADD MSTORE DUP2 DUP2 PUSH2 0xFB8 ADD MSTORE PUSH2 0x114F ADD MSTORE PUSH2 0x22A3 PUSH1 0x0 RETURN INVALID PUSH1 0x80 PUSH1 0x40 MSTORE CALLVALUE DUP1 ISZERO PUSH2 0x10 JUMPI PUSH1 0x0 DUP1 REVERT JUMPDEST POP PUSH1 0x4 CALLDATASIZE LT PUSH2 0x12C JUMPI PUSH1 0x0 CALLDATALOAD PUSH1 0xE0 SHR DUP1 PUSH4 0x70A08231 GT PUSH2 0xAD JUMPI DUP1 PUSH4 0x9CD441DA GT PUSH2 0x71 JUMPI DUP1 PUSH4 0x9CD441DA EQ PUSH2 0x34E JUMPI DUP1 PUSH4 0xA9059CBB EQ PUSH2 0x37E JUMPI DUP1 PUSH4 0xD004F0F7 EQ PUSH2 0x3AE JUMPI DUP1 PUSH4 0xD21220A7 EQ PUSH2 0x3DE JUMPI DUP1 PUSH4 0xDD62ED3E EQ PUSH2 0x3FC JUMPI PUSH2 0x12C JUMP JUMPDEST DUP1 PUSH4 0x70A08231 EQ PUSH2 0x281 JUMPI DUP1 PUSH4 0x7464FC3D EQ PUSH2 0x2B1 JUMPI DUP1 PUSH4 0x7ECEBE00 EQ PUSH2 0x2CF JUMPI DUP1 PUSH4 0x95D89B41 EQ PUSH2 0x2FF JUMPI DUP1 PUSH4 0x9C8F9F23 EQ PUSH2 0x31D JUMPI PUSH2 0x12C JUMP JUMPDEST DUP1 PUSH4 0x313CE567 GT PUSH2 0xF4 JUMPI DUP1 PUSH4 0x313CE567 EQ PUSH2 0x1EB JUMPI DUP1 PUSH4 0x443CB4BC EQ PUSH2 0x209 JUMPI DUP1 PUSH4 0x5909C0D5 EQ PUSH2 0x227 JUMPI DUP1 PUSH4 0x5A3D5493 EQ PUSH2 0x245 JUMPI DUP1 PUSH4 0x5A76F25E EQ PUSH2 0x263 JUMPI PUSH2 0x12C JUMP JUMPDEST DUP1 PUSH4 0x6FDDE03 EQ PUSH2 0x131 JUMPI DUP1 PUSH4 0x95EA7B3 EQ PUSH2 0x14F JUMPI DUP1 PUSH4 0xDFE1681 EQ PUSH2 0x17F JUMPI DUP1 PUSH4 0x18160DDD EQ PUSH2 0x19D JUMPI DUP1 PUSH4 0x23B872DD EQ PUSH2 0x1BB JUMPI JUMPDEST PUSH1 0x0 DUP1 REVERT JUMPDEST PUSH2 0x139 PUSH2 0x42C JUMP JUMPDEST PUSH1 0x40 MLOAD PUSH2 0x146 SWAP2 SWAP1 PUSH2 0x197F JUMP JUMPDEST PUSH1 0x40 MLOAD DUP1 SWAP2 SUB SWAP1 RETURN JUMPDEST PUSH2 0x169 PUSH1 0x4 DUP1 CALLDATASIZE SUB DUP2 ADD SWAP1 PUSH2 0x164 SWAP2 SWAP1 PUSH2 0x1A3A JUMP JUMPDEST PUSH2 0x465 JUMP JUMPDEST PUSH1 0x40 MLOAD PUSH2 0x176 SWAP2 SWAP1 PUSH2 0x1A95 JUMP JUMPDEST PUSH1 0x40 MLOAD DUP1 SWAP2 SUB SWAP1 RETURN JUMPDEST PUSH2 0x187 PUSH2 0x47C JUMP JUMPDEST PUSH1 0x40 MLOAD PUSH2 0x194 SWAP2 SWAP1 PUSH2 0x1B0F JUMP JUMPDEST PUSH1 0x40 MLOAD DUP1 SWAP2 SUB SWAP1 RETURN JUMPDEST PUSH2 0x1A5 PUSH2 0x4A0 JUMP JUMPDEST PUSH1 0x40 MLOAD PUSH2 0x1B2 SWAP2 SWAP1 PUSH2 0x1B39 JUMP JUMPDEST PUSH1 0x40 MLOAD DUP1 SWAP2 SUB SWAP1 RETURN JUMPDEST PUSH2 0x1D5 PUSH1 0x4 DUP1 CALLDATASIZE SUB DUP2 ADD SWAP1 PUSH2 0x1D0 SWAP2 SWAP1 PUSH2 0x1B54 JUMP JUMPDEST PUSH2 0x4A6 JUMP JUMPDEST PUSH1 0x40 MLOAD PUSH2 0x1E2 SWAP2 SWAP1 PUSH2 0x1A95 JUMP JUMPDEST PUSH1 0x40 MLOAD DUP1 SWAP2 SUB SWAP1 RETURN JUMPDEST PUSH2 0x1F3 PUSH2 0x65F JUMP JUMPDEST PUSH1 0x40 MLOAD PUSH2 0x200 SWAP2 SWAP1 PUSH2 0x1BC3 JUMP JUMPDEST PUSH1 0x40 MLOAD DUP1 SWAP2 SUB SWAP1 RETURN JUMPDEST PUSH2 0x211 PUSH2 0x664 JUMP JUMPDEST PUSH1 0x40 MLOAD PUSH2 0x21E SWAP2 SWAP1 PUSH2 0x1B39 JUMP JUMPDEST PUSH1 0x40 MLOAD DUP1 SWAP2 SUB SWAP1 RETURN JUMPDEST PUSH2 0x22F PUSH2 0x66A JUMP JUMPDEST PUSH1 0x40 MLOAD PUSH2 0x23C SWAP2 SWAP1 PUSH2 0x1B39 JUMP JUMPDEST PUSH1 0x40 MLOAD DUP1 SWAP2 SUB SWAP1 RETURN JUMPDEST PUSH2 0x24D PUSH2 0x670 JUMP JUMPDEST PUSH1 0x40 MLOAD PUSH2 0x25A SWAP2 SWAP1 PUSH2 0x1B39 JUMP JUMPDEST PUSH1 0x40 MLOAD DUP1 SWAP2 SUB SWAP1 RETURN JUMPDEST PUSH2 0x26B PUSH2 0x676 JUMP JUMPDEST PUSH1 0x40 MLOAD PUSH2 0x278 SWAP2 SWAP1 PUSH2 0x1B39 JUMP JUMPDEST PUSH1 0x40 MLOAD DUP1 SWAP2 SUB SWAP1 RETURN JUMPDEST PUSH2 0x29B PUSH1 0x4 DUP1 CALLDATASIZE SUB DUP2 ADD SWAP1 PUSH2 0x296 SWAP2 SWAP1 PUSH2 0x1BDE JUMP JUMPDEST PUSH2 0x67C JUMP JUMPDEST PUSH1 0x40 MLOAD PUSH2 0x2A8 SWAP2 SWAP1 PUSH2 0x1B39 JUMP JUMPDEST PUSH1 0x40 MLOAD DUP1 SWAP2 SUB SWAP1 RETURN JUMPDEST PUSH2 0x2B9 PUSH2 0x694 JUMP JUMPDEST PUSH1 0x40 MLOAD PUSH2 0x2C6 SWAP2 SWAP1 PUSH2 0x1B39 JUMP JUMPDEST PUSH1 0x40 MLOAD DUP1 SWAP2 SUB SWAP1 RETURN JUMPDEST PUSH2 0x2E9 PUSH1 0x4 DUP1 CALLDATASIZE SUB DUP2 ADD SWAP1 PUSH2 0x2E4 SWAP2 SWAP1 PUSH2 0x1BDE JUMP JUMPDEST PUSH2 0x69A JUMP JUMPDEST PUSH1 0x40 MLOAD PUSH2 0x2F6 SWAP2 SWAP1 PUSH2 0x1B39 JUMP JUMPDEST PUSH1 0x40 MLOAD DUP1 SWAP2 SUB SWAP1 RETURN JUMPDEST PUSH2 0x307 PUSH2 0x6B2 JUMP JUMPDEST PUSH1 0x40 MLOAD PUSH2 0x314 SWAP2 SWAP1 PUSH2 0x197F JUMP JUMPDEST PUSH1 0x40 MLOAD DUP1 SWAP2 SUB SWAP1 RETURN JUMPDEST PUSH2 0x337 PUSH1 0x4 DUP1 CALLDATASIZE SUB DUP2 ADD SWAP1 PUSH2 0x332 SWAP2 SWAP1 PUSH2 0x1C0B JUMP JUMPDEST PUSH2 0x6EB JUMP JUMPDEST PUSH1 0x40 MLOAD PUSH2 0x345 SWAP3 SWAP2 SWAP1 PUSH2 0x1C38 JUMP JUMPDEST PUSH1 0x40 MLOAD DUP1 SWAP2 SUB SWAP1 RETURN JUMPDEST PUSH2 0x368 PUSH1 0x4 DUP1 CALLDATASIZE SUB DUP2 ADD SWAP1 PUSH2 0x363 SWAP2 SWAP1 PUSH2 0x1C61 JUMP JUMPDEST PUSH2 0xA1E JUMP JUMPDEST PUSH1 0x40 MLOAD PUSH2 0x375 SWAP2 SWAP1 PUSH2 0x1B39 JUMP JUMPDEST PUSH1 0x40 MLOAD DUP1 SWAP2 SUB SWAP1 RETURN JUMPDEST PUSH2 0x398 PUSH1 0x4 DUP1 CALLDATASIZE SUB DUP2 ADD SWAP1 PUSH2 0x393 SWAP2 SWAP1 PUSH2 0x1A3A JUMP JUMPDEST PUSH2 0xDCB JUMP JUMPDEST PUSH1 0x40 MLOAD PUSH2 0x3A5 SWAP2 SWAP1 PUSH2 0x1A95 JUMP JUMPDEST PUSH1 0x40 MLOAD DUP1 SWAP2 SUB SWAP1 RETURN JUMPDEST PUSH2 0x3C8 PUSH1 0x4 DUP1 CALLDATASIZE SUB DUP2 ADD SWAP1 PUSH2 0x3C3 SWAP2 SWAP1 PUSH2 0x1A3A JUMP JUMPDEST PUSH2 0xDE2 JUMP JUMPDEST PUSH1 0x40 MLOAD PUSH2 0x3D5 SWAP2 SWAP1 PUSH2 0x1B39 JUMP JUMPDEST PUSH1 0x40 MLOAD DUP1 SWAP2 SUB SWAP1 RETURN JUMPDEST PUSH2 0x3E6 PUSH2 0x1292 JUMP JUMPDEST PUSH1 0x40 MLOAD PUSH2 0x3F3 SWAP2 SWAP1 PUSH2 0x1B0F JUMP JUMPDEST PUSH1 0x40 MLOAD DUP1 SWAP2 SUB SWAP1 RETURN JUMPDEST PUSH2 0x416 PUSH1 0x4 DUP1 CALLDATASIZE SUB DUP2 ADD SWAP1 PUSH2 0x411 SWAP2 SWAP1 PUSH2 0x1CA1 JUMP JUMPDEST PUSH2 0x12B6 JUMP JUMPDEST PUSH1 0x40 MLOAD PUSH2 0x423 SWAP2 SWAP1 PUSH2 0x1B39 JUMP JUMPDEST PUSH1 0x40 MLOAD DUP1 SWAP2 SUB SWAP1 RETURN JUMPDEST PUSH1 0x40 MLOAD DUP1 PUSH1 0x40 ADD PUSH1 0x40 MSTORE DUP1 PUSH1 0x8 DUP2 MSTORE PUSH1 0x20 ADD PUSH32 0x58537761702D5631000000000000000000000000000000000000000000000000 DUP2 MSTORE POP DUP2 JUMP JUMPDEST PUSH1 0x0 PUSH2 0x472 CALLER DUP5 DUP5 PUSH2 0x12DB JUMP JUMPDEST PUSH1 0x1 SWAP1 POP SWAP3 SWAP2 POP POP JUMP JUMPDEST PUSH32 0x0 DUP2 JUMP JUMPDEST PUSH1 0x0 SLOAD DUP2 JUMP JUMPDEST PUSH1 0x0 PUSH14 0xFFFFFFFFFFFFFFFFFFFFFFFFFFFF PUSH1 0x2 PUSH1 0x0 DUP7 PUSH20 0xFFFFFFFFFFFFFFFFFFFFFFFFFFFFFFFFFFFFFFFF AND PUSH20 0xFFFFFFFFFFFFFFFFFFFFFFFFFFFFFFFFFFFFFFFF AND DUP2 MSTORE PUSH1 0x20 ADD SWAP1 DUP2 MSTORE PUSH1 0x20 ADD PUSH1 0x0 KECCAK256 PUSH1 0x0 CALLER PUSH20 0xFFFFFFFFFFFFFFFFFFFFFFFFFFFFFFFFFFFFFFFF AND PUSH20 0xFFFFFFFFFFFFFFFFFFFFFFFFFFFFFFFFFFFFFFFF AND DUP2 MSTORE PUSH1 0x20 ADD SWAP1 DUP2 MSTORE PUSH1 0x20 ADD PUSH1 0x0 KECCAK256 SLOAD EQ PUSH2 0x649 JUMPI PUSH2 0x5C8 DUP3 PUSH1 0x2 PUSH1 0x0 DUP8 PUSH20 0xFFFFFFFFFFFFFFFFFFFFFFFFFFFFFFFFFFFFFFFF AND PUSH20 0xFFFFFFFFFFFFFFFFFFFFFFFFFFFFFFFFFFFFFFFF AND DUP2 MSTORE PUSH1 0x20 ADD SWAP1 DUP2 MSTORE PUSH1 0x20 ADD PUSH1 0x0 KECCAK256 PUSH1 0x0 CALLER PUSH20 0xFFFFFFFFFFFFFFFFFFFFFFFFFFFFFFFFFFFFFFFF AND PUSH20 0xFFFFFFFFFFFFFFFFFFFFFFFFFFFFFFFFFFFFFFFF AND DUP2 MSTORE PUSH1 0x20 ADD SWAP1 DUP2 MSTORE PUSH1 0x20 ADD PUSH1 0x0 KECCAK256 SLOAD PUSH2 0x13C6 SWAP1 SWAP2 SWAP1 PUSH4 0xFFFFFFFF AND JUMP JUMPDEST PUSH1 0x2 PUSH1 0x0 DUP7 PUSH20 0xFFFFFFFFFFFFFFFFFFFFFFFFFFFFFFFFFFFFFFFF AND PUSH20 0xFFFFFFFFFFFFFFFFFFFFFFFFFFFFFFFFFFFFFFFF AND DUP2 MSTORE PUSH1 0x20 ADD SWAP1 DUP2 MSTORE PUSH1 0x20 ADD PUSH1 0x0 KECCAK256 PUSH1 0x0 CALLER PUSH20 0xFFFFFFFFFFFFFFFFFFFFFFFFFFFFFFFFFFFFFFFF AND PUSH20 0xFFFFFFFFFFFFFFFFFFFFFFFFFFFFFFFFFFFFFFFF AND DUP2 MSTORE PUSH1 0x20 ADD SWAP1 DUP2 MSTORE PUSH1 0x20 ADD PUSH1 0x0 KECCAK256 DUP2 SWAP1 SSTORE POP JUMPDEST PUSH2 0x654 DUP5 DUP5 DUP5 PUSH2 0x141F JUMP JUMPDEST PUSH1 0x1 SWAP1 POP SWAP4 SWAP3 POP POP POP JUMP JUMPDEST PUSH1 0x12 DUP2 JUMP JUMPDEST PUSH1 0x4 SLOAD DUP2 JUMP JUMPDEST PUSH1 0x6 SLOAD DUP2 JUMP JUMPDEST PUSH1 0x7 SLOAD DUP2 JUMP JUMPDEST PUSH1 0x5 SLOAD DUP2 JUMP JUMPDEST PUSH1 0x1 PUSH1 0x20 MSTORE DUP1 PUSH1 0x0 MSTORE PUSH1 0x40 PUSH1 0x0 KECCAK256 PUSH1 0x0 SWAP2 POP SWAP1 POP SLOAD DUP2 JUMP JUMPDEST PUSH1 0x8 SLOAD DUP2 JUMP JUMPDEST PUSH1 0x3 PUSH1 0x20 MSTORE DUP1 PUSH1 0x0 MSTORE PUSH1 0x40 PUSH1 0x0 KECCAK256 PUSH1 0x0 SWAP2 POP SWAP1 POP SLOAD DUP2 JUMP JUMPDEST PUSH1 0x40 MLOAD DUP1 PUSH1 0x40 ADD PUSH1 0x40 MSTORE DUP1 PUSH1 0x5 DUP2 MSTORE PUSH1 0x20 ADD PUSH32 0x58532D5631000000000000000000000000000000000000000000000000000000 DUP2 MSTORE POP DUP2 JUMP JUMPDEST PUSH1 0x0 DUP1 PUSH1 0x0 PUSH32 0x0 PUSH20 0xFFFFFFFFFFFFFFFFFFFFFFFFFFFFFFFFFFFFFFFF AND PUSH4 0x70A08231 ADDRESS PUSH1 0x40 MLOAD DUP3 PUSH4 0xFFFFFFFF AND PUSH1 0xE0 SHL DUP2 MSTORE PUSH1 0x4 ADD PUSH2 0x749 SWAP2 SWAP1 PUSH2 0x1CF0 JUMP JUMPDEST PUSH1 0x20 PUSH1 0x40 MLOAD DUP1 DUP4 SUB DUP2 DUP7 GAS STATICCALL ISZERO DUP1 ISZERO PUSH2 0x766 JUMPI RETURNDATASIZE PUSH1 0x0 DUP1 RETURNDATACOPY RETURNDATASIZE PUSH1 0x0 REVERT JUMPDEST POP POP POP POP PUSH1 0x40 MLOAD RETURNDATASIZE PUSH1 0x1F NOT PUSH1 0x1F DUP3 ADD AND DUP3 ADD DUP1 PUSH1 0x40 MSTORE POP DUP2 ADD SWAP1 PUSH2 0x78A SWAP2 SWAP1 PUSH2 0x1D20 JUMP JUMPDEST SWAP1 POP PUSH1 0x0 PUSH32 0x0 PUSH20 0xFFFFFFFFFFFFFFFFFFFFFFFFFFFFFFFFFFFFFFFF AND PUSH4 0x70A08231 ADDRESS PUSH1 0x40 MLOAD DUP3 PUSH4 0xFFFFFFFF AND PUSH1 0xE0 SHL DUP2 MSTORE PUSH1 0x4 ADD PUSH2 0x7E7 SWAP2 SWAP1 PUSH2 0x1CF0 JUMP JUMPDEST PUSH1 0x20 PUSH1 0x40 MLOAD DUP1 DUP4 SUB DUP2 DUP7 GAS STATICCALL ISZERO DUP1 ISZERO PUSH2 0x804 JUMPI RETURNDATASIZE PUSH1 0x0 DUP1 RETURNDATACOPY RETURNDATASIZE PUSH1 0x0 REVERT JUMPDEST POP POP POP POP PUSH1 0x40 MLOAD RETURNDATASIZE PUSH1 0x1F NOT PUSH1 0x1F DUP3 ADD AND DUP3 ADD DUP1 PUSH1 0x40 MSTORE POP DUP2 ADD SWAP1 PUSH2 0x828 SWAP2 SWAP1 PUSH2 0x1D20 JUMP JUMPDEST SWAP1 POP PUSH1 0x0 SLOAD DUP3 DUP7 PUSH2 0x839 SWAP2 SWAP1 PUSH2 0x1D7C JUMP JUMPDEST PUSH2 0x843 SWAP2 SWAP1 PUSH2 0x1E05 JUMP JUMPDEST SWAP4 POP PUSH1 0x0 SLOAD DUP2 DUP7 PUSH2 0x854 SWAP2 SWAP1 PUSH2 0x1D7C JUMP JUMPDEST PUSH2 0x85E SWAP2 SWAP1 PUSH2 0x1E05 JUMP JUMPDEST SWAP3 POP PUSH1 0x0 DUP5 GT DUP1 ISZERO PUSH2 0x870 JUMPI POP PUSH1 0x0 DUP4 GT JUMPDEST PUSH2 0x8AF JUMPI PUSH1 0x40 MLOAD PUSH32 0x8C379A000000000000000000000000000000000000000000000000000000000 DUP2 MSTORE PUSH1 0x4 ADD PUSH2 0x8A6 SWAP1 PUSH2 0x1E82 JUMP JUMPDEST PUSH1 0x40 MLOAD DUP1 SWAP2 SUB SWAP1 REVERT JUMPDEST PUSH2 0x8B9 CALLER DUP7 PUSH2 0x15B3 JUMP JUMPDEST PUSH2 0x8D9 DUP5 DUP4 PUSH2 0x8C8 SWAP2 SWAP1 PUSH2 0x1EA2 JUMP JUMPDEST DUP5 DUP4 PUSH2 0x8D4 SWAP2 SWAP1 PUSH2 0x1EA2 JUMP JUMPDEST PUSH2 0x16CD JUMP JUMPDEST PUSH32 0x0 PUSH20 0xFFFFFFFFFFFFFFFFFFFFFFFFFFFFFFFFFFFFFFFF AND PUSH4 0xA9059CBB CALLER DUP7 PUSH1 0x40 MLOAD DUP4 PUSH4 0xFFFFFFFF AND PUSH1 0xE0 SHL DUP2 MSTORE PUSH1 0x4 ADD PUSH2 0x934 SWAP3 SWAP2 SWAP1 PUSH2 0x1ED6 JUMP JUMPDEST PUSH1 0x20 PUSH1 0x40 MLOAD DUP1 DUP4 SUB DUP2 PUSH1 0x0 DUP8 GAS CALL ISZERO DUP1 ISZERO PUSH2 0x953 JUMPI RETURNDATASIZE PUSH1 0x0 DUP1 RETURNDATACOPY RETURNDATASIZE PUSH1 0x0 REVERT JUMPDEST POP POP POP POP PUSH1 0x40 MLOAD RETURNDATASIZE PUSH1 0x1F NOT PUSH1 0x1F DUP3 ADD AND DUP3 ADD DUP1 PUSH1 0x40 MSTORE POP DUP2 ADD SWAP1 PUSH2 0x977 SWAP2 SWAP1 PUSH2 0x1F2B JUMP JUMPDEST POP PUSH32 0x0 PUSH20 0xFFFFFFFFFFFFFFFFFFFFFFFFFFFFFFFFFFFFFFFF AND PUSH4 0xA9059CBB CALLER DUP6 PUSH1 0x40 MLOAD DUP4 PUSH4 0xFFFFFFFF AND PUSH1 0xE0 SHL DUP2 MSTORE PUSH1 0x4 ADD PUSH2 0x9D3 SWAP3 SWAP2 SWAP1 PUSH2 0x1ED6 JUMP JUMPDEST PUSH1 0x20 PUSH1 0x40 MLOAD DUP1 DUP4 SUB DUP2 PUSH1 0x0 DUP8 GAS CALL ISZERO DUP1 ISZERO PUSH2 0x9F2 JUMPI RETURNDATASIZE PUSH1 0x0 DUP1 RETURNDATACOPY RETURNDATASIZE PUSH1 0x0 REVERT JUMPDEST POP POP POP POP PUSH1 0x40 MLOAD RETURNDATASIZE PUSH1 0x1F NOT PUSH1 0x1F DUP3 ADD AND DUP3 ADD DUP1 PUSH1 0x40 MSTORE POP DUP2 ADD SWAP1 PUSH2 0xA16 SWAP2 SWAP1 PUSH2 0x1F2B JUMP JUMPDEST POP POP POP SWAP2 POP SWAP2 JUMP JUMPDEST PUSH1 0x0 PUSH32 0x0 PUSH20 0xFFFFFFFFFFFFFFFFFFFFFFFFFFFFFFFFFFFFFFFF AND PUSH4 0x23B872DD CALLER ADDRESS DUP7 PUSH1 0x40 MLOAD DUP5 PUSH4 0xFFFFFFFF AND PUSH1 0xE0 SHL DUP2 MSTORE PUSH1 0x4 ADD PUSH2 0xA7D SWAP4 SWAP3 SWAP2 SWAP1 PUSH2 0x1F58 JUMP JUMPDEST PUSH1 0x20 PUSH1 0x40 MLOAD DUP1 DUP4 SUB DUP2 PUSH1 0x0 DUP8 GAS CALL ISZERO DUP1 ISZERO PUSH2 0xA9C JUMPI RETURNDATASIZE PUSH1 0x0 DUP1 RETURNDATACOPY RETURNDATASIZE PUSH1 0x0 REVERT JUMPDEST POP POP POP POP PUSH1 0x40 MLOAD RETURNDATASIZE PUSH1 0x1F NOT PUSH1 0x1F DUP3 ADD AND DUP3 ADD DUP1 PUSH1 0x40 MSTORE POP DUP2 ADD SWAP1 PUSH2 0xAC0 SWAP2 SWAP1 PUSH2 0x1F2B JUMP JUMPDEST POP PUSH32 0x0 PUSH20 0xFFFFFFFFFFFFFFFFFFFFFFFFFFFFFFFFFFFFFFFF AND PUSH4 0x23B872DD CALLER ADDRESS DUP6 PUSH1 0x40 MLOAD DUP5 PUSH4 0xFFFFFFFF AND PUSH1 0xE0 SHL DUP2 MSTORE PUSH1 0x4 ADD PUSH2 0xB1E SWAP4 SWAP3 SWAP2 SWAP1 PUSH2 0x1F58 JUMP JUMPDEST PUSH1 0x20 PUSH1 0x40 MLOAD DUP1 DUP4 SUB DUP2 PUSH1 0x0 DUP8 GAS CALL ISZERO DUP1 ISZERO PUSH2 0xB3D JUMPI RETURNDATASIZE PUSH1 0x0 DUP1 RETURNDATACOPY RETURNDATASIZE PUSH1 0x0 REVERT JUMPDEST POP POP POP POP PUSH1 0x40 MLOAD RETURNDATASIZE PUSH1 0x1F NOT PUSH1 0x1F DUP3 ADD AND DUP3 ADD DUP1 PUSH1 0x40 MSTORE POP DUP2 ADD SWAP1 PUSH2 0xB61 SWAP2 SWAP1 PUSH2 0x1F2B JUMP JUMPDEST POP PUSH1 0x0 PUSH1 0x4 SLOAD GT DUP1 PUSH2 0xB75 JUMPI POP PUSH1 0x0 PUSH1 0x5 SLOAD GT JUMPDEST ISZERO PUSH2 0xBD7 JUMPI DUP3 PUSH1 0x5 SLOAD PUSH2 0xB88 SWAP2 SWAP1 PUSH2 0x1D7C JUMP JUMPDEST DUP3 PUSH1 0x4 SLOAD PUSH2 0xB96 SWAP2 SWAP1 PUSH2 0x1D7C JUMP JUMPDEST EQ PUSH2 0xBD6 JUMPI PUSH1 0x40 MLOAD PUSH32 0x8C379A000000000000000000000000000000000000000000000000000000000 DUP2 MSTORE PUSH1 0x4 ADD PUSH2 0xBCD SWAP1 PUSH2 0x1FDB JUMP JUMPDEST PUSH1 0x40 MLOAD DUP1 SWAP2 SUB SWAP1 REVERT JUMPDEST JUMPDEST PUSH1 0x0 DUP1 SLOAD SUB PUSH2 0xBFB JUMPI PUSH2 0xBF4 DUP3 DUP5 PUSH2 0xBEF SWAP2 SWAP1 PUSH2 0x1D7C JUMP JUMPDEST PUSH2 0x16DF JUMP JUMPDEST SWAP1 POP PUSH2 0xC3C JUMP JUMPDEST PUSH2 0xC39 PUSH1 0x4 SLOAD PUSH1 0x0 SLOAD DUP6 PUSH2 0xC0F SWAP2 SWAP1 PUSH2 0x1D7C JUMP JUMPDEST PUSH2 0xC19 SWAP2 SWAP1 PUSH2 0x1E05 JUMP JUMPDEST PUSH1 0x5 SLOAD PUSH1 0x0 SLOAD DUP6 PUSH2 0xC2A SWAP2 SWAP1 PUSH2 0x1D7C JUMP JUMPDEST PUSH2 0xC34 SWAP2 SWAP1 PUSH2 0x1E05 JUMP JUMPDEST PUSH2 0x1759 JUMP JUMPDEST SWAP1 POP JUMPDEST PUSH1 0x0 DUP2 GT PUSH2 0xC7F JUMPI PUSH1 0x40 MLOAD PUSH32 0x8C379A000000000000000000000000000000000000000000000000000000000 DUP2 MSTORE PUSH1 0x4 ADD PUSH2 0xC76 SWAP1 PUSH2 0x2047 JUMP JUMPDEST PUSH1 0x40 MLOAD DUP1 SWAP2 SUB SWAP1 REVERT JUMPDEST PUSH2 0xC89 CALLER DUP3 PUSH2 0x1773 JUMP JUMPDEST PUSH2 0xDC5 PUSH32 0x0 PUSH20 0xFFFFFFFFFFFFFFFFFFFFFFFFFFFFFFFFFFFFFFFF AND PUSH4 0x70A08231 ADDRESS PUSH1 0x40 MLOAD DUP3 PUSH4 0xFFFFFFFF AND PUSH1 0xE0 SHL DUP2 MSTORE PUSH1 0x4 ADD PUSH2 0xCE5 SWAP2 SWAP1 PUSH2 0x1CF0 JUMP JUMPDEST PUSH1 0x20 PUSH1 0x40 MLOAD DUP1 DUP4 SUB DUP2 DUP7 GAS STATICCALL ISZERO DUP1 ISZERO PUSH2 0xD02 JUMPI RETURNDATASIZE PUSH1 0x0 DUP1 RETURNDATACOPY RETURNDATASIZE PUSH1 0x0 REVERT JUMPDEST POP POP POP POP PUSH1 0x40 MLOAD RETURNDATASIZE PUSH1 0x1F NOT PUSH1 0x1F DUP3 ADD AND DUP3 ADD DUP1 PUSH1 0x40 MSTORE POP DUP2 ADD SWAP1 PUSH2 0xD26 SWAP2 SWAP1 PUSH2 0x1D20 JUMP JUMPDEST PUSH32 0x0 PUSH20 0xFFFFFFFFFFFFFFFFFFFFFFFFFFFFFFFFFFFFFFFF AND PUSH4 0x70A08231 ADDRESS PUSH1 0x40 MLOAD DUP3 PUSH4 0xFFFFFFFF AND PUSH1 0xE0 SHL DUP2 MSTORE PUSH1 0x4 ADD PUSH2 0xD7F SWAP2 SWAP1 PUSH2 0x1CF0 JUMP JUMPDEST PUSH1 0x20 PUSH1 0x40 MLOAD DUP1 DUP4 SUB DUP2 DUP7 GAS STATICCALL ISZERO DUP1 ISZERO PUSH2 0xD9C JUMPI RETURNDATASIZE PUSH1 0x0 DUP1 RETURNDATACOPY RETURNDATASIZE PUSH1 0x0 REVERT JUMPDEST POP POP POP POP PUSH1 0x40 MLOAD RETURNDATASIZE PUSH1 0x1F NOT PUSH1 0x1F DUP3 ADD AND DUP3 ADD DUP1 PUSH1 0x40 MSTORE POP DUP2 ADD SWAP1 PUSH2 0xDC0 SWAP2 SWAP1 PUSH2 0x1D20 JUMP JUMPDEST PUSH2 0x16CD JUMP JUMPDEST SWAP3 SWAP2 POP POP JUMP JUMPDEST PUSH1 0x0 PUSH2 0xDD8 CALLER DUP5 DUP5 PUSH2 0x141F JUMP JUMPDEST PUSH1 0x1 SWAP1 POP SWAP3 SWAP2 POP POP JUMP JUMPDEST PUSH1 0x0 PUSH32 0x0 PUSH20 0xFFFFFFFFFFFFFFFFFFFFFFFFFFFFFFFFFFFFFFFF AND DUP4 PUSH20 0xFFFFFFFFFFFFFFFFFFFFFFFFFFFFFFFFFFFFFFFF AND EQ DUP1 PUSH2 0xE89 JUMPI POP PUSH32 0x0 PUSH20 0xFFFFFFFFFFFFFFFFFFFFFFFFFFFFFFFFFFFFFFFF AND DUP4 PUSH20 0xFFFFFFFFFFFFFFFFFFFFFFFFFFFFFFFFFFFFFFFF AND EQ JUMPDEST PUSH2 0xEC8 JUMPI PUSH1 0x40 MLOAD PUSH32 0x8C379A000000000000000000000000000000000000000000000000000000000 DUP2 MSTORE PUSH1 0x4 ADD PUSH2 0xEBF SWAP1 PUSH2 0x20B3 JUMP JUMPDEST PUSH1 0x40 MLOAD DUP1 SWAP2 SUB SWAP1 REVERT JUMPDEST PUSH1 0x0 DUP3 GT PUSH2 0xF0B JUMPI PUSH1 0x40 MLOAD PUSH32 0x8C379A000000000000000000000000000000000000000000000000000000000 DUP2 MSTORE PUSH1 0x4 ADD PUSH2 0xF02 SWAP1 PUSH2 0x211F JUMP JUMPDEST PUSH1 0x40 MLOAD DUP1 SWAP2 SUB SWAP1 REVERT JUMPDEST PUSH1 0x0 PUSH32 0x0 PUSH20 0xFFFFFFFFFFFFFFFFFFFFFFFFFFFFFFFFFFFFFFFF AND DUP5 PUSH20 0xFFFFFFFFFFFFFFFFFFFFFFFFFFFFFFFFFFFFFFFF AND EQ SWAP1 POP PUSH1 0x0 DUP1 PUSH1 0x0 DUP1 DUP5 PUSH2 0xFB6 JUMPI PUSH32 0x0 PUSH32 0x0 PUSH1 0x5 SLOAD PUSH1 0x4 SLOAD PUSH2 0xFFF JUMP JUMPDEST PUSH32 0x0 PUSH32 0x0 PUSH1 0x4 SLOAD PUSH1 0x5 SLOAD JUMPDEST SWAP4 POP SWAP4 POP SWAP4 POP SWAP4 POP DUP4 PUSH20 0xFFFFFFFFFFFFFFFFFFFFFFFFFFFFFFFFFFFFFFFF AND PUSH4 0x23B872DD CALLER ADDRESS DUP11 PUSH1 0x40 MLOAD DUP5 PUSH4 0xFFFFFFFF AND PUSH1 0xE0 SHL DUP2 MSTORE PUSH1 0x4 ADD PUSH2 0x1044 SWAP4 SWAP3 SWAP2 SWAP1 PUSH2 0x1F58 JUMP JUMPDEST PUSH1 0x20 PUSH1 0x40 MLOAD DUP1 DUP4 SUB DUP2 PUSH1 0x0 DUP8 GAS CALL ISZERO DUP1 ISZERO PUSH2 0x1063 JUMPI RETURNDATASIZE PUSH1 0x0 DUP1 RETURNDATACOPY RETURNDATASIZE PUSH1 0x0 REVERT JUMPDEST POP POP POP POP PUSH1 0x40 MLOAD RETURNDATASIZE PUSH1 0x1F NOT PUSH1 0x1F DUP3 ADD AND DUP3 ADD DUP1 PUSH1 0x40 MSTORE POP DUP2 ADD SWAP1 PUSH2 0x1087 SWAP2 SWAP1 PUSH2 0x1F2B JUMP JUMPDEST POP PUSH1 0x0 PUSH2 0x3E8 PUSH2 0x3E5 DUP10 PUSH2 0x109B SWAP2 SWAP1 PUSH2 0x1D7C JUMP JUMPDEST PUSH2 0x10A5 SWAP2 SWAP1 PUSH2 0x1E05 JUMP JUMPDEST SWAP1 POP DUP1 DUP4 PUSH2 0x10B3 SWAP2 SWAP1 PUSH2 0x213F JUMP JUMPDEST DUP2 DUP4 PUSH2 0x10BF SWAP2 SWAP1 PUSH2 0x1D7C JUMP JUMPDEST PUSH2 0x10C9 SWAP2 SWAP1 PUSH2 0x1E05 JUMP JUMPDEST SWAP7 POP DUP4 PUSH20 0xFFFFFFFFFFFFFFFFFFFFFFFFFFFFFFFFFFFFFFFF AND PUSH4 0xA9059CBB CALLER DUP10 PUSH1 0x40 MLOAD DUP4 PUSH4 0xFFFFFFFF AND PUSH1 0xE0 SHL DUP2 MSTORE PUSH1 0x4 ADD PUSH2 0x1106 SWAP3 SWAP2 SWAP1 PUSH2 0x1ED6 JUMP JUMPDEST PUSH1 0x20 PUSH1 0x40 MLOAD DUP1 DUP4 SUB DUP2 PUSH1 0x0 DUP8 GAS CALL ISZERO DUP1 ISZERO PUSH2 0x1125 JUMPI RETURNDATASIZE PUSH1 0x0 DUP1 RETURNDATACOPY RETURNDATASIZE PUSH1 0x0 REVERT JUMPDEST POP POP POP POP PUSH1 0x40 MLOAD RETURNDATASIZE PUSH1 0x1F NOT PUSH1 0x1F DUP3 ADD AND DUP3 ADD DUP1 PUSH1 0x40 MSTORE POP DUP2 ADD SWAP1 PUSH2 0x1149 SWAP2 SWAP1 PUSH2 0x1F2B JUMP JUMPDEST POP PUSH2 0x1286 PUSH32 0x0 PUSH20 0xFFFFFFFFFFFFFFFFFFFFFFFFFFFFFFFFFFFFFFFF AND PUSH4 0x70A08231 ADDRESS PUSH1 0x40 MLOAD DUP3 PUSH4 0xFFFFFFFF AND PUSH1 0xE0 SHL DUP2 MSTORE PUSH1 0x4 ADD PUSH2 0x11A6 SWAP2 SWAP1 PUSH2 0x1CF0 JUMP JUMPDEST PUSH1 0x20 PUSH1 0x40 MLOAD DUP1 DUP4 SUB DUP2 DUP7 GAS STATICCALL ISZERO DUP1 ISZERO PUSH2 0x11C3 JUMPI RETURNDATASIZE PUSH1 0x0 DUP1 RETURNDATACOPY RETURNDATASIZE PUSH1 0x0 REVERT JUMPDEST POP POP POP POP PUSH1 0x40 MLOAD RETURNDATASIZE PUSH1 0x1F NOT PUSH1 0x1F DUP3 ADD AND DUP3 ADD DUP1 PUSH1 0x40 MSTORE POP DUP2 ADD SWAP1 PUSH2 0x11E7 SWAP2 SWAP1 PUSH2 0x1D20 JUMP JUMPDEST PUSH32 0x0 PUSH20 0xFFFFFFFFFFFFFFFFFFFFFFFFFFFFFFFFFFFFFFFF AND PUSH4 0x70A08231 ADDRESS PUSH1 0x40 MLOAD DUP3 PUSH4 0xFFFFFFFF AND PUSH1 0xE0 SHL DUP2 MSTORE PUSH1 0x4 ADD PUSH2 0x1240 SWAP2 SWAP1 PUSH2 0x1CF0 JUMP JUMPDEST PUSH1 0x20 PUSH1 0x40 MLOAD DUP1 DUP4 SUB DUP2 DUP7 GAS STATICCALL ISZERO DUP1 ISZERO PUSH2 0x125D JUMPI RETURNDATASIZE PUSH1 0x0 DUP1 RETURNDATACOPY RETURNDATASIZE PUSH1 0x0 REVERT JUMPDEST POP POP POP POP PUSH1 0x40 MLOAD RETURNDATASIZE PUSH1 0x1F NOT PUSH1 0x1F DUP3 ADD AND DUP3 ADD DUP1 PUSH1 0x40 MSTORE POP DUP2 ADD SWAP1 PUSH2 0x1281 SWAP2 SWAP1 PUSH2 0x1D20 JUMP JUMPDEST PUSH2 0x16CD JUMP JUMPDEST POP POP POP POP POP POP SWAP3 SWAP2 POP POP JUMP JUMPDEST PUSH32 0x0 DUP2 JUMP JUMPDEST PUSH1 0x2 PUSH1 0x20 MSTORE DUP2 PUSH1 0x0 MSTORE PUSH1 0x40 PUSH1 0x0 KECCAK256 PUSH1 0x20 MSTORE DUP1 PUSH1 0x0 MSTORE PUSH1 0x40 PUSH1 0x0 KECCAK256 PUSH1 0x0 SWAP2 POP SWAP2 POP POP SLOAD DUP2 JUMP JUMPDEST DUP1 PUSH1 0x2 PUSH1 0x0 DUP6 PUSH20 0xFFFFFFFFFFFFFFFFFFFFFFFFFFFFFFFFFFFFFFFF AND PUSH20 0xFFFFFFFFFFFFFFFFFFFFFFFFFFFFFFFFFFFFFFFF AND DUP2 MSTORE PUSH1 0x20 ADD SWAP1 DUP2 MSTORE PUSH1 0x20 ADD PUSH1 0x0 KECCAK256 PUSH1 0x0 DUP5 PUSH20 0xFFFFFFFFFFFFFFFFFFFFFFFFFFFFFFFFFFFFFFFF AND PUSH20 0xFFFFFFFFFFFFFFFFFFFFFFFFFFFFFFFFFFFFFFFF AND DUP2 MSTORE PUSH1 0x20 ADD SWAP1 DUP2 MSTORE PUSH1 0x20 ADD PUSH1 0x0 KECCAK256 DUP2 SWAP1 SSTORE POP DUP2 PUSH20 0xFFFFFFFFFFFFFFFFFFFFFFFFFFFFFFFFFFFFFFFF AND DUP4 PUSH20 0xFFFFFFFFFFFFFFFFFFFFFFFFFFFFFFFFFFFFFFFF AND PUSH32 0x8C5BE1E5EBEC7D5BD14F71427D1E84F3DD0314C0F7B2291E5B200AC8C7C3B925 DUP4 PUSH1 0x40 MLOAD PUSH2 0x13B9 SWAP2 SWAP1 PUSH2 0x1B39 JUMP JUMPDEST PUSH1 0x40 MLOAD DUP1 SWAP2 SUB SWAP1 LOG3 POP POP POP JUMP JUMPDEST PUSH1 0x0 DUP3 DUP3 DUP5 PUSH2 0x13D5 SWAP2 SWAP1 PUSH2 0x1EA2 JUMP JUMPDEST SWAP2 POP DUP2 GT ISZERO PUSH2 0x1419 JUMPI PUSH1 0x40 MLOAD PUSH32 0x8C379A000000000000000000000000000000000000000000000000000000000 DUP2 MSTORE PUSH1 0x4 ADD PUSH2 0x1410 SWAP1 PUSH2 0x21E1 JUMP JUMPDEST PUSH1 0x40 MLOAD DUP1 SWAP2 SUB SWAP1 REVERT JUMPDEST SWAP3 SWAP2 POP POP JUMP JUMPDEST PUSH2 0x1471 DUP2 PUSH1 0x1 PUSH1 0x0 DUP7 PUSH20 0xFFFFFFFFFFFFFFFFFFFFFFFFFFFFFFFFFFFFFFFF AND PUSH20 0xFFFFFFFFFFFFFFFFFFFFFFFFFFFFFFFFFFFFFFFF AND DUP2 MSTORE PUSH1 0x20 ADD SWAP1 DUP2 MSTORE PUSH1 0x20 ADD PUSH1 0x0 KECCAK256 SLOAD PUSH2 0x13C6 SWAP1 SWAP2 SWAP1 PUSH4 0xFFFFFFFF AND JUMP JUMPDEST PUSH1 0x1 PUSH1 0x0 DUP6 PUSH20 0xFFFFFFFFFFFFFFFFFFFFFFFFFFFFFFFFFFFFFFFF AND PUSH20 0xFFFFFFFFFFFFFFFFFFFFFFFFFFFFFFFFFFFFFFFF AND DUP2 MSTORE PUSH1 0x20 ADD SWAP1 DUP2 MSTORE PUSH1 0x20 ADD PUSH1 0x0 KECCAK256 DUP2 SWAP1 SSTORE POP PUSH2 0x1506 DUP2 PUSH1 0x1 PUSH1 0x0 DUP6 PUSH20 0xFFFFFFFFFFFFFFFFFFFFFFFFFFFFFFFFFFFFFFFF AND PUSH20 0xFFFFFFFFFFFFFFFFFFFFFFFFFFFFFFFFFFFFFFFF AND DUP2 MSTORE PUSH1 0x20 ADD SWAP1 DUP2 MSTORE PUSH1 0x20 ADD PUSH1 0x0 KECCAK256 SLOAD PUSH2 0x188D SWAP1 SWAP2 SWAP1 PUSH4 0xFFFFFFFF AND JUMP JUMPDEST PUSH1 0x1 PUSH1 0x0 DUP5 PUSH20 0xFFFFFFFFFFFFFFFFFFFFFFFFFFFFFFFFFFFFFFFF AND PUSH20 0xFFFFFFFFFFFFFFFFFFFFFFFFFFFFFFFFFFFFFFFF AND DUP2 MSTORE PUSH1 0x20 ADD SWAP1 DUP2 MSTORE PUSH1 0x20 ADD PUSH1 0x0 KECCAK256 DUP2 SWAP1 SSTORE POP DUP2 PUSH20 0xFFFFFFFFFFFFFFFFFFFFFFFFFFFFFFFFFFFFFFFF AND DUP4 PUSH20 0xFFFFFFFFFFFFFFFFFFFFFFFFFFFFFFFFFFFFFFFF AND PUSH32 0xDDF252AD1BE2C89B69C2B068FC378DAA952BA7F163C4A11628F55A4DF523B3EF DUP4 PUSH1 0x40 MLOAD PUSH2 0x15A6 SWAP2 SWAP1 PUSH2 0x1B39 JUMP JUMPDEST PUSH1 0x40 MLOAD DUP1 SWAP2 SUB SWAP1 LOG3 POP POP POP JUMP JUMPDEST PUSH2 0x1605 DUP2 PUSH1 0x1 PUSH1 0x0 DUP6 PUSH20 0xFFFFFFFFFFFFFFFFFFFFFFFFFFFFFFFFFFFFFFFF AND PUSH20 0xFFFFFFFFFFFFFFFFFFFFFFFFFFFFFFFFFFFFFFFF AND DUP2 MSTORE PUSH1 0x20 ADD SWAP1 DUP2 MSTORE PUSH1 0x20 ADD PUSH1 0x0 KECCAK256 SLOAD PUSH2 0x13C6 SWAP1 SWAP2 SWAP1 PUSH4 0xFFFFFFFF AND JUMP JUMPDEST PUSH1 0x1 PUSH1 0x0 DUP5 PUSH20 0xFFFFFFFFFFFFFFFFFFFFFFFFFFFFFFFFFFFFFFFF AND PUSH20 0xFFFFFFFFFFFFFFFFFFFFFFFFFFFFFFFFFFFFFFFF AND DUP2 MSTORE PUSH1 0x20 ADD SWAP1 DUP2 MSTORE PUSH1 0x20 ADD PUSH1 0x0 KECCAK256 DUP2 SWAP1 SSTORE POP PUSH2 0x165D DUP2 PUSH1 0x0 SLOAD PUSH2 0x13C6 SWAP1 SWAP2 SWAP1 PUSH4 0xFFFFFFFF AND JUMP JUMPDEST PUSH1 0x0 DUP2 SWAP1 SSTORE POP PUSH1 0x0 PUSH20 0xFFFFFFFFFFFFFFFFFFFFFFFFFFFFFFFFFFFFFFFF AND DUP3 PUSH20 0xFFFFFFFFFFFFFFFFFFFFFFFFFFFFFFFFFFFFFFFF AND PUSH32 0xDDF252AD1BE2C89B69C2B068FC378DAA952BA7F163C4A11628F55A4DF523B3EF DUP4 PUSH1 0x40 MLOAD PUSH2 0x16C1 SWAP2 SWAP1 PUSH2 0x1B39 JUMP JUMPDEST PUSH1 0x40 MLOAD DUP1 SWAP2 SUB SWAP1 LOG3 POP POP JUMP JUMPDEST DUP2 PUSH1 0x4 DUP2 SWAP1 SSTORE POP DUP1 PUSH1 0x5 DUP2 SWAP1 SSTORE POP POP POP JUMP JUMPDEST PUSH1 0x0 PUSH1 0x3 DUP3 GT ISZERO PUSH2 0x1746 JUMPI DUP2 SWAP1 POP PUSH1 0x0 PUSH1 0x1 PUSH1 0x2 DUP5 PUSH2 0x16FE SWAP2 SWAP1 PUSH2 0x1E05 JUMP JUMPDEST PUSH2 0x1708 SWAP2 SWAP1 PUSH2 0x213F JUMP JUMPDEST SWAP1 POP JUMPDEST DUP2 DUP2 LT ISZERO PUSH2 0x1740 JUMPI DUP1 SWAP2 POP PUSH1 0x2 DUP2 DUP3 DUP6 PUSH2 0x1725 SWAP2 SWAP1 PUSH2 0x1E05 JUMP JUMPDEST PUSH2 0x172F SWAP2 SWAP1 PUSH2 0x213F JUMP JUMPDEST PUSH2 0x1739 SWAP2 SWAP1 PUSH2 0x1E05 JUMP JUMPDEST SWAP1 POP PUSH2 0x170B JUMP JUMPDEST POP PUSH2 0x1754 JUMP JUMPDEST PUSH1 0x0 DUP3 EQ PUSH2 0x1753 JUMPI PUSH1 0x1 SWAP1 POP JUMPDEST JUMPDEST SWAP2 SWAP1 POP JUMP JUMPDEST PUSH1 0x0 DUP2 DUP4 GT ISZERO PUSH2 0x1769 JUMPI DUP2 PUSH2 0x176B JUMP JUMPDEST DUP3 JUMPDEST SWAP1 POP SWAP3 SWAP2 POP POP JUMP JUMPDEST PUSH2 0x1788 DUP2 PUSH1 0x0 SLOAD PUSH2 0x188D SWAP1 SWAP2 SWAP1 PUSH4 0xFFFFFFFF AND JUMP JUMPDEST PUSH1 0x0 DUP2 SWAP1 SSTORE POP PUSH2 0x17E0 DUP2 PUSH1 0x1 PUSH1 0x0 DUP6 PUSH20 0xFFFFFFFFFFFFFFFFFFFFFFFFFFFFFFFFFFFFFFFF AND PUSH20 0xFFFFFFFFFFFFFFFFFFFFFFFFFFFFFFFFFFFFFFFF AND DUP2 MSTORE PUSH1 0x20 ADD SWAP1 DUP2 MSTORE PUSH1 0x20 ADD PUSH1 0x0 KECCAK256 SLOAD PUSH2 0x188D SWAP1 SWAP2 SWAP1 PUSH4 0xFFFFFFFF AND JUMP JUMPDEST PUSH1 0x1 PUSH1 0x0 DUP5 PUSH20 0xFFFFFFFFFFFFFFFFFFFFFFFFFFFFFFFFFFFFFFFF AND PUSH20 0xFFFFFFFFFFFFFFFFFFFFFFFFFFFFFFFFFFFFFFFF AND DUP2 MSTORE PUSH1 0x20 ADD SWAP1 DUP2 MSTORE PUSH1 0x20 ADD PUSH1 0x0 KECCAK256 DUP2 SWAP1 SSTORE POP DUP2 PUSH20 0xFFFFFFFFFFFFFFFFFFFFFFFFFFFFFFFFFFFFFFFF AND PUSH1 0x0 PUSH20 0xFFFFFFFFFFFFFFFFFFFFFFFFFFFFFFFFFFFFFFFF AND PUSH32 0xDDF252AD1BE2C89B69C2B068FC378DAA952BA7F163C4A11628F55A4DF523B3EF DUP4 PUSH1 0x40 MLOAD PUSH2 0x1881 SWAP2 SWAP1 PUSH2 0x1B39 JUMP JUMPDEST PUSH1 0x40 MLOAD DUP1 SWAP2 SUB SWAP1 LOG3 POP POP JUMP JUMPDEST PUSH1 0x0 DUP3 DUP3 DUP5 PUSH2 0x189C SWAP2 SWAP1 PUSH2 0x213F JUMP JUMPDEST SWAP2 POP DUP2 LT ISZERO PUSH2 0x18E0 JUMPI PUSH1 0x40 MLOAD PUSH32 0x8C379A000000000000000000000000000000000000000000000000000000000 DUP2 MSTORE PUSH1 0x4 ADD PUSH2 0x18D7 SWAP1 PUSH2 0x224D JUMP JUMPDEST PUSH1 0x40 MLOAD DUP1 SWAP2 SUB SWAP1 REVERT JUMPDEST SWAP3 SWAP2 POP POP JUMP JUMPDEST PUSH1 0x0 DUP2 MLOAD SWAP1 POP SWAP2 SWAP1 POP JUMP JUMPDEST PUSH1 0x0 DUP3 DUP3 MSTORE PUSH1 0x20 DUP3 ADD SWAP1 POP SWAP3 SWAP2 POP POP JUMP JUMPDEST PUSH1 0x0 JUMPDEST DUP4 DUP2 LT ISZERO PUSH2 0x1920 JUMPI DUP1 DUP3 ADD MLOAD DUP2 DUP5 ADD MSTORE PUSH1 0x20 DUP2 ADD SWAP1 POP PUSH2 0x1905 JUMP JUMPDEST DUP4 DUP2 GT ISZERO PUSH2 0x192F JUMPI PUSH1 0x0 DUP5 DUP5 ADD MSTORE JUMPDEST POP POP POP POP JUMP JUMPDEST PUSH1 0x0 PUSH1 0x1F NOT PUSH1 0x1F DUP4 ADD AND SWAP1 POP SWAP2 SWAP1 POP JUMP JUMPDEST PUSH1 0x0 PUSH2 0x1951 DUP3 PUSH2 0x18E6 JUMP JUMPDEST PUSH2 0x195B DUP2 DUP6 PUSH2 0x18F1 JUMP JUMPDEST SWAP4 POP PUSH2 0x196B DUP2 DUP6 PUSH1 0x20 DUP7 ADD PUSH2 0x1902 JUMP JUMPDEST PUSH2 0x1974 DUP2 PUSH2 0x1935 JUMP JUMPDEST DUP5 ADD SWAP2 POP POP SWAP3 SWAP2 POP POP JUMP JUMPDEST PUSH1 0x0 PUSH1 0x20 DUP3 ADD SWAP1 POP DUP2 DUP2 SUB PUSH1 0x0 DUP4 ADD MSTORE PUSH2 0x1999 DUP2 DUP5 PUSH2 0x1946 JUMP JUMPDEST SWAP1 POP SWAP3 SWAP2 POP POP JUMP JUMPDEST PUSH1 0x0 DUP1 REVERT JUMPDEST PUSH1 0x0 PUSH20 0xFFFFFFFFFFFFFFFFFFFFFFFFFFFFFFFFFFFFFFFF DUP3 AND SWAP1 POP SWAP2 SWAP1 POP JUMP JUMPDEST PUSH1 0x0 PUSH2 0x19D1 DUP3 PUSH2 0x19A6 JUMP JUMPDEST SWAP1 POP SWAP2 SWAP1 POP JUMP JUMPDEST PUSH2 0x19E1 DUP2 PUSH2 0x19C6 JUMP JUMPDEST DUP2 EQ PUSH2 0x19EC JUMPI PUSH1 0x0 DUP1 REVERT JUMPDEST POP JUMP JUMPDEST PUSH1 0x0 DUP2 CALLDATALOAD SWAP1 POP PUSH2 0x19FE DUP2 PUSH2 0x19D8 JUMP JUMPDEST SWAP3 SWAP2 POP POP JUMP JUMPDEST PUSH1 0x0 DUP2 SWAP1 POP SWAP2 SWAP1 POP JUMP JUMPDEST PUSH2 0x1A17 DUP2 PUSH2 0x1A04 JUMP JUMPDEST DUP2 EQ PUSH2 0x1A22 JUMPI PUSH1 0x0 DUP1 REVERT JUMPDEST POP JUMP JUMPDEST PUSH1 0x0 DUP2 CALLDATALOAD SWAP1 POP PUSH2 0x1A34 DUP2 PUSH2 0x1A0E JUMP JUMPDEST SWAP3 SWAP2 POP POP JUMP JUMPDEST PUSH1 0x0 DUP1 PUSH1 0x40 DUP4 DUP6 SUB SLT ISZERO PUSH2 0x1A51 JUMPI PUSH2 0x1A50 PUSH2 0x19A1 JUMP JUMPDEST JUMPDEST PUSH1 0x0 PUSH2 0x1A5F DUP6 DUP3 DUP7 ADD PUSH2 0x19EF JUMP JUMPDEST SWAP3 POP POP PUSH1 0x20 PUSH2 0x1A70 DUP6 DUP3 DUP7 ADD PUSH2 0x1A25 JUMP JUMPDEST SWAP2 POP POP SWAP3 POP SWAP3 SWAP1 POP JUMP JUMPDEST PUSH1 0x0 DUP2 ISZERO ISZERO SWAP1 POP SWAP2 SWAP1 POP JUMP JUMPDEST PUSH2 0x1A8F DUP2 PUSH2 0x1A7A JUMP JUMPDEST DUP3 MSTORE POP POP JUMP JUMPDEST PUSH1 0x0 PUSH1 0x20 DUP3 ADD SWAP1 POP PUSH2 0x1AAA PUSH1 0x0 DUP4 ADD DUP5 PUSH2 0x1A86 JUMP JUMPDEST SWAP3 SWAP2 POP POP JUMP JUMPDEST PUSH1 0x0 DUP2 SWAP1 POP SWAP2 SWAP1 POP JUMP JUMPDEST PUSH1 0x0 PUSH2 0x1AD5 PUSH2 0x1AD0 PUSH2 0x1ACB DUP5 PUSH2 0x19A6 JUMP JUMPDEST PUSH2 0x1AB0 JUMP JUMPDEST PUSH2 0x19A6 JUMP JUMPDEST SWAP1 POP SWAP2 SWAP1 POP JUMP JUMPDEST PUSH1 0x0 PUSH2 0x1AE7 DUP3 PUSH2 0x1ABA JUMP JUMPDEST SWAP1 POP SWAP2 SWAP1 POP JUMP JUMPDEST PUSH1 0x0 PUSH2 0x1AF9 DUP3 PUSH2 0x1ADC JUMP JUMPDEST SWAP1 POP SWAP2 SWAP1 POP JUMP JUMPDEST PUSH2 0x1B09 DUP2 PUSH2 0x1AEE JUMP JUMPDEST DUP3 MSTORE POP POP JUMP JUMPDEST PUSH1 0x0 PUSH1 0x20 DUP3 ADD SWAP1 POP PUSH2 0x1B24 PUSH1 0x0 DUP4 ADD DUP5 PUSH2 0x1B00 JUMP JUMPDEST SWAP3 SWAP2 POP POP JUMP JUMPDEST PUSH2 0x1B33 DUP2 PUSH2 0x1A04 JUMP JUMPDEST DUP3 MSTORE POP POP JUMP JUMPDEST PUSH1 0x0 PUSH1 0x20 DUP3 ADD SWAP1 POP PUSH2 0x1B4E PUSH1 0x0 DUP4 ADD DUP5 PUSH2 0x1B2A JUMP JUMPDEST SWAP3 SWAP2 POP POP JUMP JUMPDEST PUSH1 0x0 DUP1 PUSH1 0x0 PUSH1 0x60 DUP5 DUP7 SUB SLT ISZERO PUSH2 0x1B6D JUMPI PUSH2 0x1B6C PUSH2 0x19A1 JUMP JUMPDEST JUMPDEST PUSH1 0x0 PUSH2 0x1B7B DUP7 DUP3 DUP8 ADD PUSH2 0x19EF JUMP JUMPDEST SWAP4 POP POP PUSH1 0x20 PUSH2 0x1B8C DUP7 DUP3 DUP8 ADD PUSH2 0x19EF JUMP JUMPDEST SWAP3 POP POP PUSH1 0x40 PUSH2 0x1B9D DUP7 DUP3 DUP8 ADD PUSH2 0x1A25 JUMP JUMPDEST SWAP2 POP POP SWAP3 POP SWAP3 POP SWAP3 JUMP JUMPDEST PUSH1 0x0 PUSH1 0xFF DUP3 AND SWAP1 POP SWAP2 SWAP1 POP JUMP JUMPDEST PUSH2 0x1BBD DUP2 PUSH2 0x1BA7 JUMP JUMPDEST DUP3 MSTORE POP POP JUMP JUMPDEST PUSH1 0x0 PUSH1 0x20 DUP3 ADD SWAP1 POP PUSH2 0x1BD8 PUSH1 0x0 DUP4 ADD DUP5 PUSH2 0x1BB4 JUMP JUMPDEST SWAP3 SWAP2 POP POP JUMP JUMPDEST PUSH1 0x0 PUSH1 0x20 DUP3 DUP5 SUB SLT ISZERO PUSH2 0x1BF4 JUMPI PUSH2 0x1BF3 PUSH2 0x19A1 JUMP JUMPDEST JUMPDEST PUSH1 0x0 PUSH2 0x1C02 DUP5 DUP3 DUP6 ADD PUSH2 0x19EF JUMP JUMPDEST SWAP2 POP POP SWAP3 SWAP2 POP POP JUMP JUMPDEST PUSH1 0x0 PUSH1 0x20 DUP3 DUP5 SUB SLT ISZERO PUSH2 0x1C21 JUMPI PUSH2 0x1C20 PUSH2 0x19A1 JUMP JUMPDEST JUMPDEST PUSH1 0x0 PUSH2 0x1C2F DUP5 DUP3 DUP6 ADD PUSH2 0x1A25 JUMP JUMPDEST SWAP2 POP POP SWAP3 SWAP2 POP POP JUMP JUMPDEST PUSH1 0x0 PUSH1 0x40 DUP3 ADD SWAP1 POP PUSH2 0x1C4D PUSH1 0x0 DUP4 ADD DUP6 PUSH2 0x1B2A JUMP JUMPDEST PUSH2 0x1C5A PUSH1 0x20 DUP4 ADD DUP5 PUSH2 0x1B2A JUMP JUMPDEST SWAP4 SWAP3 POP POP POP JUMP JUMPDEST PUSH1 0x0 DUP1 PUSH1 0x40 DUP4 DUP6 SUB SLT ISZERO PUSH2 0x1C78 JUMPI PUSH2 0x1C77 PUSH2 0x19A1 JUMP JUMPDEST JUMPDEST PUSH1 0x0 PUSH2 0x1C86 DUP6 DUP3 DUP7 ADD PUSH2 0x1A25 JUMP JUMPDEST SWAP3 POP POP PUSH1 0x20 PUSH2 0x1C97 DUP6 DUP3 DUP7 ADD PUSH2 0x1A25 JUMP JUMPDEST SWAP2 POP POP SWAP3 POP SWAP3 SWAP1 POP JUMP JUMPDEST PUSH1 0x0 DUP1 PUSH1 0x40 DUP4 DUP6 SUB SLT ISZERO PUSH2 0x1CB8 JUMPI PUSH2 0x1CB7 PUSH2 0x19A1 JUMP JUMPDEST JUMPDEST PUSH1 0x0 PUSH2 0x1CC6 DUP6 DUP3 DUP7 ADD PUSH2 0x19EF JUMP JUMPDEST SWAP3 POP POP PUSH1 0x20 PUSH2 0x1CD7 DUP6 DUP3 DUP7 ADD PUSH2 0x19EF JUMP JUMPDEST SWAP2 POP POP SWAP3 POP SWAP3 SWAP1 POP JUMP JUMPDEST PUSH2 0x1CEA DUP2 PUSH2 0x19C6 JUMP JUMPDEST DUP3 MSTORE POP POP JUMP JUMPDEST PUSH1 0x0 PUSH1 0x20 DUP3 ADD SWAP1 POP PUSH2 0x1D05 PUSH1 0x0 DUP4 ADD DUP5 PUSH2 0x1CE1 JUMP JUMPDEST SWAP3 SWAP2 POP POP JUMP JUMPDEST PUSH1 0x0 DUP2 MLOAD SWAP1 POP PUSH2 0x1D1A DUP2 PUSH2 0x1A0E JUMP JUMPDEST SWAP3 SWAP2 POP POP JUMP JUMPDEST PUSH1 0x0 PUSH1 0x20 DUP3 DUP5 SUB SLT ISZERO PUSH2 0x1D36 JUMPI PUSH2 0x1D35 PUSH2 0x19A1 JUMP JUMPDEST JUMPDEST PUSH1 0x0 PUSH2 0x1D44 DUP5 DUP3 DUP6 ADD PUSH2 0x1D0B JUMP JUMPDEST SWAP2 POP POP SWAP3 SWAP2 POP POP JUMP JUMPDEST PUSH32 0x4E487B7100000000000000000000000000000000000000000000000000000000 PUSH1 0x0 MSTORE PUSH1 0x11 PUSH1 0x4 MSTORE PUSH1 0x24 PUSH1 0x0 REVERT JUMPDEST PUSH1 0x0 PUSH2 0x1D87 DUP3 PUSH2 0x1A04 JUMP JUMPDEST SWAP2 POP PUSH2 0x1D92 DUP4 PUSH2 0x1A04 JUMP JUMPDEST SWAP3 POP DUP2 PUSH32 0xFFFFFFFFFFFFFFFFFFFFFFFFFFFFFFFFFFFFFFFFFFFFFFFFFFFFFFFFFFFFFFFF DIV DUP4 GT DUP3 ISZERO ISZERO AND ISZERO PUSH2 0x1DCB JUMPI PUSH2 0x1DCA PUSH2 0x1D4D JUMP JUMPDEST JUMPDEST DUP3 DUP3 MUL SWAP1 POP SWAP3 SWAP2 POP POP JUMP JUMPDEST PUSH32 0x4E487B7100000000000000000000000000000000000000000000000000000000 PUSH1 0x0 MSTORE PUSH1 0x12 PUSH1 0x4 MSTORE PUSH1 0x24 PUSH1 0x0 REVERT JUMPDEST PUSH1 0x0 PUSH2 0x1E10 DUP3 PUSH2 0x1A04 JUMP JUMPDEST SWAP2 POP PUSH2 0x1E1B DUP4 PUSH2 0x1A04 JUMP JUMPDEST SWAP3 POP DUP3 PUSH2 0x1E2B JUMPI PUSH2 0x1E2A PUSH2 0x1DD6 JUMP JUMPDEST JUMPDEST DUP3 DUP3 DIV SWAP1 POP SWAP3 SWAP2 POP POP JUMP JUMPDEST PUSH32 0x616D6F756E7430206F7220616D6F756E7431203D203000000000000000000000 PUSH1 0x0 DUP3 ADD MSTORE POP JUMP JUMPDEST PUSH1 0x0 PUSH2 0x1E6C PUSH1 0x16 DUP4 PUSH2 0x18F1 JUMP JUMPDEST SWAP2 POP PUSH2 0x1E77 DUP3 PUSH2 0x1E36 JUMP JUMPDEST PUSH1 0x20 DUP3 ADD SWAP1 POP SWAP2 SWAP1 POP JUMP JUMPDEST PUSH1 0x0 PUSH1 0x20 DUP3 ADD SWAP1 POP DUP2 DUP2 SUB PUSH1 0x0 DUP4 ADD MSTORE PUSH2 0x1E9B DUP2 PUSH2 0x1E5F JUMP JUMPDEST SWAP1 POP SWAP2 SWAP1 POP JUMP JUMPDEST PUSH1 0x0 PUSH2 0x1EAD DUP3 PUSH2 0x1A04 JUMP JUMPDEST SWAP2 POP PUSH2 0x1EB8 DUP4 PUSH2 0x1A04 JUMP JUMPDEST SWAP3 POP DUP3 DUP3 LT ISZERO PUSH2 0x1ECB JUMPI PUSH2 0x1ECA PUSH2 0x1D4D JUMP JUMPDEST JUMPDEST DUP3 DUP3 SUB SWAP1 POP SWAP3 SWAP2 POP POP JUMP JUMPDEST PUSH1 0x0 PUSH1 0x40 DUP3 ADD SWAP1 POP PUSH2 0x1EEB PUSH1 0x0 DUP4 ADD DUP6 PUSH2 0x1CE1 JUMP JUMPDEST PUSH2 0x1EF8 PUSH1 0x20 DUP4 ADD DUP5 PUSH2 0x1B2A JUMP JUMPDEST SWAP4 SWAP3 POP POP POP JUMP JUMPDEST PUSH2 0x1F08 DUP2 PUSH2 0x1A7A JUMP JUMPDEST DUP2 EQ PUSH2 0x1F13 JUMPI PUSH1 0x0 DUP1 REVERT JUMPDEST POP JUMP JUMPDEST PUSH1 0x0 DUP2 MLOAD SWAP1 POP PUSH2 0x1F25 DUP2 PUSH2 0x1EFF JUMP JUMPDEST SWAP3 SWAP2 POP POP JUMP JUMPDEST PUSH1 0x0 PUSH1 0x20 DUP3 DUP5 SUB SLT ISZERO PUSH2 0x1F41 JUMPI PUSH2 0x1F40 PUSH2 0x19A1 JUMP JUMPDEST JUMPDEST PUSH1 0x0 PUSH2 0x1F4F DUP5 DUP3 DUP6 ADD PUSH2 0x1F16 JUMP JUMPDEST SWAP2 POP POP SWAP3 SWAP2 POP POP JUMP JUMPDEST PUSH1 0x0 PUSH1 0x60 DUP3 ADD SWAP1 POP PUSH2 0x1F6D PUSH1 0x0 DUP4 ADD DUP7 PUSH2 0x1CE1 JUMP JUMPDEST PUSH2 0x1F7A PUSH1 0x20 DUP4 ADD DUP6 PUSH2 0x1CE1 JUMP JUMPDEST PUSH2 0x1F87 PUSH1 0x40 DUP4 ADD DUP5 PUSH2 0x1B2A JUMP JUMPDEST SWAP5 SWAP4 POP POP POP POP JUMP JUMPDEST PUSH32 0x78202F207920213D206478202F20647900000000000000000000000000000000 PUSH1 0x0 DUP3 ADD MSTORE POP JUMP JUMPDEST PUSH1 0x0 PUSH2 0x1FC5 PUSH1 0x10 DUP4 PUSH2 0x18F1 JUMP JUMPDEST SWAP2 POP PUSH2 0x1FD0 DUP3 PUSH2 0x1F8F JUMP JUMPDEST PUSH1 0x20 DUP3 ADD SWAP1 POP SWAP2 SWAP1 POP JUMP JUMPDEST PUSH1 0x0 PUSH1 0x20 DUP3 ADD SWAP1 POP DUP2 DUP2 SUB PUSH1 0x0 DUP4 ADD MSTORE PUSH2 0x1FF4 DUP2 PUSH2 0x1FB8 JUMP JUMPDEST SWAP1 POP SWAP2 SWAP1 POP JUMP JUMPDEST PUSH32 0x736861726573203D203000000000000000000000000000000000000000000000 PUSH1 0x0 DUP3 ADD MSTORE POP JUMP JUMPDEST PUSH1 0x0 PUSH2 0x2031 PUSH1 0xA DUP4 PUSH2 0x18F1 JUMP JUMPDEST SWAP2 POP PUSH2 0x203C DUP3 PUSH2 0x1FFB JUMP JUMPDEST PUSH1 0x20 DUP3 ADD SWAP1 POP SWAP2 SWAP1 POP JUMP JUMPDEST PUSH1 0x0 PUSH1 0x20 DUP3 ADD SWAP1 POP DUP2 DUP2 SUB PUSH1 0x0 DUP4 ADD MSTORE PUSH2 0x2060 DUP2 PUSH2 0x2024 JUMP JUMPDEST SWAP1 POP SWAP2 SWAP1 POP JUMP JUMPDEST PUSH32 0x696E76616C696420746F6B656E00000000000000000000000000000000000000 PUSH1 0x0 DUP3 ADD MSTORE POP JUMP JUMPDEST PUSH1 0x0 PUSH2 0x209D PUSH1 0xD DUP4 PUSH2 0x18F1 JUMP JUMPDEST SWAP2 POP PUSH2 0x20A8 DUP3 PUSH2 0x2067 JUMP JUMPDEST PUSH1 0x20 DUP3 ADD SWAP1 POP SWAP2 SWAP1 POP JUMP JUMPDEST PUSH1 0x0 PUSH1 0x20 DUP3 ADD SWAP1 POP DUP2 DUP2 SUB PUSH1 0x0 DUP4 ADD MSTORE PUSH2 0x20CC DUP2 PUSH2 0x2090 JUMP JUMPDEST SWAP1 POP SWAP2 SWAP1 POP JUMP JUMPDEST PUSH32 0x616D6F756E7420696E203D203000000000000000000000000000000000000000 PUSH1 0x0 DUP3 ADD MSTORE POP JUMP JUMPDEST PUSH1 0x0 PUSH2 0x2109 PUSH1 0xD DUP4 PUSH2 0x18F1 JUMP JUMPDEST SWAP2 POP PUSH2 0x2114 DUP3 PUSH2 0x20D3 JUMP JUMPDEST PUSH1 0x20 DUP3 ADD SWAP1 POP SWAP2 SWAP1 POP JUMP JUMPDEST PUSH1 0x0 PUSH1 0x20 DUP3 ADD SWAP1 POP DUP2 DUP2 SUB PUSH1 0x0 DUP4 ADD MSTORE PUSH2 0x2138 DUP2 PUSH2 0x20FC JUMP JUMPDEST SWAP1 POP SWAP2 SWAP1 POP JUMP JUMPDEST PUSH1 0x0 PUSH2 0x214A DUP3 PUSH2 0x1A04 JUMP JUMPDEST SWAP2 POP PUSH2 0x2155 DUP4 PUSH2 0x1A04 JUMP JUMPDEST SWAP3 POP DUP3 PUSH32 0xFFFFFFFFFFFFFFFFFFFFFFFFFFFFFFFFFFFFFFFFFFFFFFFFFFFFFFFFFFFFFFFF SUB DUP3 GT ISZERO PUSH2 0x218A JUMPI PUSH2 0x2189 PUSH2 0x1D4D JUMP JUMPDEST JUMPDEST DUP3 DUP3 ADD SWAP1 POP SWAP3 SWAP2 POP POP JUMP JUMPDEST PUSH32 0x64732D6D6174682D7375622D756E646572666C6F770000000000000000000000 PUSH1 0x0 DUP3 ADD MSTORE POP JUMP JUMPDEST PUSH1 0x0 PUSH2 0x21CB PUSH1 0x15 DUP4 PUSH2 0x18F1 JUMP JUMPDEST SWAP2 POP PUSH2 0x21D6 DUP3 PUSH2 0x2195 JUMP JUMPDEST PUSH1 0x20 DUP3 ADD SWAP1 POP SWAP2 SWAP1 POP JUMP JUMPDEST PUSH1 0x0 PUSH1 0x20 DUP3 ADD SWAP1 POP DUP2 DUP2 SUB PUSH1 0x0 DUP4 ADD MSTORE PUSH2 0x21FA DUP2 PUSH2 0x21BE JUMP JUMPDEST SWAP1 POP SWAP2 SWAP1 POP JUMP JUMPDEST PUSH32 0x64732D6D6174682D6164642D6F766572666C6F77000000000000000000000000 PUSH1 0x0 DUP3 ADD MSTORE POP JUMP JUMPDEST PUSH1 0x0 PUSH2 0x2237 PUSH1 0x14 DUP4 PUSH2 0x18F1 JUMP JUMPDEST SWAP2 POP PUSH2 0x2242 DUP3 PUSH2 0x2201 JUMP JUMPDEST PUSH1 0x20 DUP3 ADD SWAP1 POP SWAP2 SWAP1 POP JUMP JUMPDEST PUSH1 0x0 PUSH1 0x20 DUP3 ADD SWAP1 POP DUP2 DUP2 SUB PUSH1 0x0 DUP4 ADD MSTORE PUSH2 0x2266 DUP2 PUSH2 0x222A JUMP JUMPDEST SWAP1 POP SWAP2 SWAP1 POP JUMP INVALID LOG2 PUSH5 0x6970667358 0x22 SLT KECCAK256 EXTCODEHASH PUSH16 0x640D6B3CFABACBCC98F98C438ECC18BC 0x5F SWAP6 LOG3 PUSH27 0xF35DE4C08C1A692ECFE064736F6C634300080E0033000000000000 "
				},
				"gasEstimates": {
					"creation": {
						"codeDepositCost": "1773400",
						"executionCost": "infinite",
						"totalCost": "infinite"
					},
					"external": {
						"addLiquidity(uint256,uint256)": "infinite",
						"allowance(address,address)": "infinite",
						"approve(address,uint256)": "infinite",
						"balanceOf(address)": "2837",
						"decimals()": "358",
						"kLast()": "2474",
						"name()": "infinite",
						"nonces(address)": "2881",
						"price0CumulativeLast()": "2496",
						"price1CumulativeLast()": "2518",
						"removeLiquidity(uint256)": "infinite",
						"reserve0()": "2474",
						"reserve1()": "2540",
						"swap(address,uint256)": "infinite",
						"symbol()": "infinite",
						"token0()": "infinite",
						"token1()": "infinite",
						"totalSupply()": "2519",
						"transfer(address,uint256)": "infinite",
						"transferFrom(address,address,uint256)": "infinite"
					},
					"internal": {
						"_min(uint256,uint256)": "67",
						"_sqrt(uint256)": "infinite",
						"_update(uint256,uint256)": "44241"
					}
				},
				"methodIdentifiers": {
					"addLiquidity(uint256,uint256)": "9cd441da",
					"allowance(address,address)": "dd62ed3e",
					"approve(address,uint256)": "095ea7b3",
					"balanceOf(address)": "70a08231",
					"decimals()": "313ce567",
					"kLast()": "7464fc3d",
					"name()": "06fdde03",
					"nonces(address)": "7ecebe00",
					"price0CumulativeLast()": "5909c0d5",
					"price1CumulativeLast()": "5a3d5493",
					"removeLiquidity(uint256)": "9c8f9f23",
					"reserve0()": "443cb4bc",
					"reserve1()": "5a76f25e",
					"swap(address,uint256)": "d004f0f7",
					"symbol()": "95d89b41",
					"token0()": "0dfe1681",
					"token1()": "d21220a7",
					"totalSupply()": "18160ddd",
					"transfer(address,uint256)": "a9059cbb",
					"transferFrom(address,address,uint256)": "23b872dd"
				}
			},
			"storageLayout": {
				"storage": [
					{
						"astId": 16,
						"contract": "Core/XSwapPair2.sol:XSwapPair2",
						"label": "totalSupply",
						"offset": 0,
						"slot": "0",
						"type": "t_uint256"
					},
					{
						"astId": 20,
						"contract": "Core/XSwapPair2.sol:XSwapPair2",
						"label": "balanceOf",
						"offset": 0,
						"slot": "1",
						"type": "t_mapping(t_address,t_uint256)"
					},
					{
						"astId": 26,
						"contract": "Core/XSwapPair2.sol:XSwapPair2",
						"label": "allowance",
						"offset": 0,
						"slot": "2",
						"type": "t_mapping(t_address,t_mapping(t_address,t_uint256))"
					},
					{
						"astId": 30,
						"contract": "Core/XSwapPair2.sol:XSwapPair2",
						"label": "nonces",
						"offset": 0,
						"slot": "3",
						"type": "t_mapping(t_address,t_uint256)"
					},
					{
						"astId": 282,
						"contract": "Core/XSwapPair2.sol:XSwapPair2",
						"label": "reserve0",
						"offset": 0,
						"slot": "4",
						"type": "t_uint256"
					},
					{
						"astId": 284,
						"contract": "Core/XSwapPair2.sol:XSwapPair2",
						"label": "reserve1",
						"offset": 0,
						"slot": "5",
						"type": "t_uint256"
					},
					{
						"astId": 286,
						"contract": "Core/XSwapPair2.sol:XSwapPair2",
						"label": "price0CumulativeLast",
						"offset": 0,
						"slot": "6",
						"type": "t_uint256"
					},
					{
						"astId": 288,
						"contract": "Core/XSwapPair2.sol:XSwapPair2",
						"label": "price1CumulativeLast",
						"offset": 0,
						"slot": "7",
						"type": "t_uint256"
					},
					{
						"astId": 290,
						"contract": "Core/XSwapPair2.sol:XSwapPair2",
						"label": "kLast",
						"offset": 0,
						"slot": "8",
						"type": "t_uint256"
					}
				],
				"types": {
					"t_address": {
						"encoding": "inplace",
						"label": "address",
						"numberOfBytes": "20"
					},
					"t_mapping(t_address,t_mapping(t_address,t_uint256))": {
						"encoding": "mapping",
						"key": "t_address",
						"label": "mapping(address => mapping(address => uint256))",
						"numberOfBytes": "32",
						"value": "t_mapping(t_address,t_uint256)"
					},
					"t_mapping(t_address,t_uint256)": {
						"encoding": "mapping",
						"key": "t_address",
						"label": "mapping(address => uint256)",
						"numberOfBytes": "32",
						"value": "t_uint256"
					},
					"t_uint256": {
						"encoding": "inplace",
						"label": "uint256",
						"numberOfBytes": "32"
					}
				}
			},
			"userdoc": {
				"kind": "user",
				"methods": {},
				"version": 1
			}
		}
	}
}