{
  "_format": "hh-sol-artifact-1",
  "contractName": "AddressResolver",
  "sourceName": "contracts/AddressResolver.sol",
  "abi": [
    {
      "inputs": [],
      "stateMutability": "nonpayable",
      "type": "constructor"
    },
    {
      "anonymous": false,
      "inputs": [
        {
          "indexed": false,
          "internalType": "bytes32",
          "name": "name",
          "type": "bytes32"
        },
        {
          "indexed": false,
          "internalType": "address",
          "name": "destination",
          "type": "address"
        }
      ],
      "name": "CacheUpdated",
      "type": "event"
    },
    {
      "inputs": [],
      "name": "CONTRACT_NAME",
      "outputs": [
        {
          "internalType": "string",
          "name": "",
          "type": "string"
        }
      ],
      "stateMutability": "view",
      "type": "function"
    },
    {
      "inputs": [],
      "name": "_owner",
      "outputs": [
        {
          "internalType": "address",
          "name": "",
          "type": "address"
        }
      ],
      "stateMutability": "view",
      "type": "function"
    },
    {
      "inputs": [
        {
          "internalType": "bytes32",
          "name": "",
          "type": "bytes32"
        }
      ],
      "name": "addressCache",
      "outputs": [
        {
          "internalType": "address",
          "name": "",
          "type": "address"
        }
      ],
      "stateMutability": "view",
      "type": "function"
    },
    {
      "inputs": [
        {
          "internalType": "bytes32",
          "name": "_name",
          "type": "bytes32"
        }
      ],
      "name": "fetchAddress",
      "outputs": [
        {
          "internalType": "address",
          "name": "",
          "type": "address"
        }
      ],
      "stateMutability": "view",
      "type": "function"
    },
    {
      "inputs": [
        {
          "internalType": "bytes32",
          "name": "_name",
          "type": "bytes32"
        }
      ],
      "name": "requireAndGetAddress",
      "outputs": [
        {
          "internalType": "address",
          "name": "",
          "type": "address"
        }
      ],
      "stateMutability": "view",
      "type": "function"
    },
    {
      "inputs": [
        {
          "internalType": "bytes32",
          "name": "_name",
          "type": "bytes32"
        },
        {
          "internalType": "address",
          "name": "_destination",
          "type": "address"
        }
      ],
      "name": "updateCache",
      "outputs": [],
      "stateMutability": "nonpayable",
      "type": "function"
    }
  ],
  "bytecode": "0x608060405234801561001057600080fd5b50600180546001600160a01b03191633179055610337806100326000396000f3fe608060405234801561001057600080fd5b50600436106100625760003560e01c806346bcb49d14610067578063614d08f814610097578063b2bdfa7b146100d2578063c2e7df2114610067578063dc675a65146100e5578063f1efc5d91461010e575b600080fd5b61007a61007536600461025c565b610123565b6040516001600160a01b0390911681526020015b60405180910390f35b6100c56040518060400160405280600f81526020016e20b2323932b9b9a932b9b7b63b32b960891b81525081565b60405161008e91906102ae565b60015461007a906001600160a01b031681565b61007a6100f336600461025c565b6000602081905290815260409020546001600160a01b031681565b61012161011c366004610274565b6101a6565b005b60008181526020818152604080832054905170026b4b9b9b4b7339030b2323932b9b99d1607d1b92810192909252603182018490526001600160a01b031690811515906051016040516020818303038152906040529061019f5760405162461bcd60e51b815260040161019691906102ae565b60405180910390fd5b5092915050565b6001546001600160a01b031633146101f85760405162461bcd60e51b81526020600482015260156024820152746f6e6c79206f776e65722063616e2075706461746560581b6044820152606401610196565b6000828152602081815260409182902080546001600160a01b0319166001600160a01b0385169081179091558251858152918201527f88a93678a3692f6789d9546fc621bf7234b101ddb7d4fe479455112831b8aa68910160405180910390a15050565b60006020828403121561026d578081fd5b5035919050565b60008060408385031215610286578081fd5b8235915060208301356001600160a01b03811681146102a3578182fd5b809150509250929050565b6000602080835283518082850152825b818110156102da578581018301518582016040015282016102be565b818111156102eb5783604083870101525b50601f01601f191692909201604001939250505056fea2646970667358221220af6e380171b53280b5a93ebd8e8ac1195ea5fc7b37c6f38c85e65ca3595a0adf64736f6c63430008040033",
  "linkReferences": {},
  "deployedLinkReferences": {}
}