{
  "_format": "hh-sol-artifact-1",
  "contractName": "SyntheticAssets",
  "sourceName": "contracts/Assets/SyntheticAssets.sol",
  "abi": [
    {
      "inputs": [
        {
          "internalType": "string",
          "name": "_name",
          "type": "string"
        },
        {
          "internalType": "string",
          "name": "_symbol",
          "type": "string"
        },
        {
          "internalType": "address",
          "name": "_associatedContract",
          "type": "address"
        }
      ],
      "stateMutability": "nonpayable",
      "type": "constructor"
    },
    {
      "anonymous": false,
      "inputs": [
        {
          "indexed": true,
          "internalType": "address",
          "name": "owner",
          "type": "address"
        },
        {
          "indexed": true,
          "internalType": "address",
          "name": "spender",
          "type": "address"
        },
        {
          "indexed": false,
          "internalType": "uint256",
          "name": "value",
          "type": "uint256"
        }
      ],
      "name": "Approval",
      "type": "event"
    },
    {
      "anonymous": false,
      "inputs": [
        {
          "indexed": false,
          "internalType": "address",
          "name": "associatedContract",
          "type": "address"
        }
      ],
      "name": "AssociatedContractUpdated",
      "type": "event"
    },
    {
      "anonymous": false,
      "inputs": [
        {
          "indexed": false,
          "internalType": "address",
          "name": "oldOwner",
          "type": "address"
        },
        {
          "indexed": false,
          "internalType": "address",
          "name": "newOwner",
          "type": "address"
        }
      ],
      "name": "OwnerChanged",
      "type": "event"
    },
    {
      "anonymous": false,
      "inputs": [
        {
          "indexed": false,
          "internalType": "address",
          "name": "newOwner",
          "type": "address"
        }
      ],
      "name": "OwnerNominated",
      "type": "event"
    },
    {
      "anonymous": false,
      "inputs": [
        {
          "indexed": true,
          "internalType": "address",
          "name": "from",
          "type": "address"
        },
        {
          "indexed": true,
          "internalType": "address",
          "name": "to",
          "type": "address"
        },
        {
          "indexed": false,
          "internalType": "uint256",
          "name": "value",
          "type": "uint256"
        }
      ],
      "name": "Transfer",
      "type": "event"
    },
    {
      "inputs": [],
      "name": "acceptOwnership",
      "outputs": [],
      "stateMutability": "nonpayable",
      "type": "function"
    },
    {
      "inputs": [
        {
          "internalType": "address",
          "name": "owner",
          "type": "address"
        },
        {
          "internalType": "address",
          "name": "spender",
          "type": "address"
        }
      ],
      "name": "allowance",
      "outputs": [
        {
          "internalType": "uint256",
          "name": "",
          "type": "uint256"
        }
      ],
      "stateMutability": "view",
      "type": "function"
    },
    {
      "inputs": [
        {
          "internalType": "address",
          "name": "spender",
          "type": "address"
        },
        {
          "internalType": "uint256",
          "name": "amount",
          "type": "uint256"
        }
      ],
      "name": "approve",
      "outputs": [
        {
          "internalType": "bool",
          "name": "",
          "type": "bool"
        }
      ],
      "stateMutability": "nonpayable",
      "type": "function"
    },
    {
      "inputs": [],
      "name": "associatedContract",
      "outputs": [
        {
          "internalType": "address",
          "name": "",
          "type": "address"
        }
      ],
      "stateMutability": "view",
      "type": "function"
    },
    {
      "inputs": [
        {
          "internalType": "address",
          "name": "account",
          "type": "address"
        }
      ],
      "name": "balanceOf",
      "outputs": [
        {
          "internalType": "uint256",
          "name": "",
          "type": "uint256"
        }
      ],
      "stateMutability": "view",
      "type": "function"
    },
    {
      "inputs": [],
      "name": "decimals",
      "outputs": [
        {
          "internalType": "uint8",
          "name": "",
          "type": "uint8"
        }
      ],
      "stateMutability": "view",
      "type": "function"
    },
    {
      "inputs": [
        {
          "internalType": "address",
          "name": "spender",
          "type": "address"
        },
        {
          "internalType": "uint256",
          "name": "subtractedValue",
          "type": "uint256"
        }
      ],
      "name": "decreaseAllowance",
      "outputs": [
        {
          "internalType": "bool",
          "name": "",
          "type": "bool"
        }
      ],
      "stateMutability": "nonpayable",
      "type": "function"
    },
    {
      "inputs": [
        {
          "internalType": "address",
          "name": "spender",
          "type": "address"
        },
        {
          "internalType": "uint256",
          "name": "addedValue",
          "type": "uint256"
        }
      ],
      "name": "increaseAllowance",
      "outputs": [
        {
          "internalType": "bool",
          "name": "",
          "type": "bool"
        }
      ],
      "stateMutability": "nonpayable",
      "type": "function"
    },
    {
      "inputs": [
        {
          "internalType": "address",
          "name": "_caller",
          "type": "address"
        },
        {
          "internalType": "uint256",
          "name": "_amountToMint",
          "type": "uint256"
        }
      ],
      "name": "mint",
      "outputs": [
        {
          "internalType": "bool",
          "name": "",
          "type": "bool"
        }
      ],
      "stateMutability": "nonpayable",
      "type": "function"
    },
    {
      "inputs": [],
      "name": "name",
      "outputs": [
        {
          "internalType": "string",
          "name": "",
          "type": "string"
        }
      ],
      "stateMutability": "view",
      "type": "function"
    },
    {
      "inputs": [
        {
          "internalType": "address",
          "name": "_owner",
          "type": "address"
        }
      ],
      "name": "nominateNewOwner",
      "outputs": [],
      "stateMutability": "nonpayable",
      "type": "function"
    },
    {
      "inputs": [],
      "name": "nominatedOwner",
      "outputs": [
        {
          "internalType": "address",
          "name": "",
          "type": "address"
        }
      ],
      "stateMutability": "view",
      "type": "function"
    },
    {
      "inputs": [],
      "name": "owner",
      "outputs": [
        {
          "internalType": "address",
          "name": "",
          "type": "address"
        }
      ],
      "stateMutability": "view",
      "type": "function"
    },
    {
      "inputs": [
        {
          "internalType": "address",
          "name": "_associatedContract",
          "type": "address"
        }
      ],
      "name": "setAssociatedContract",
      "outputs": [],
      "stateMutability": "nonpayable",
      "type": "function"
    },
    {
      "inputs": [],
      "name": "symbol",
      "outputs": [
        {
          "internalType": "string",
          "name": "",
          "type": "string"
        }
      ],
      "stateMutability": "view",
      "type": "function"
    },
    {
      "inputs": [],
      "name": "totalSupply",
      "outputs": [
        {
          "internalType": "uint256",
          "name": "",
          "type": "uint256"
        }
      ],
      "stateMutability": "view",
      "type": "function"
    },
    {
      "inputs": [
        {
          "internalType": "address",
          "name": "to",
          "type": "address"
        },
        {
          "internalType": "uint256",
          "name": "amount",
          "type": "uint256"
        }
      ],
      "name": "transfer",
      "outputs": [
        {
          "internalType": "bool",
          "name": "",
          "type": "bool"
        }
      ],
      "stateMutability": "nonpayable",
      "type": "function"
    },
    {
      "inputs": [
        {
          "internalType": "address",
          "name": "from",
          "type": "address"
        },
        {
          "internalType": "address",
          "name": "to",
          "type": "address"
        },
        {
          "internalType": "uint256",
          "name": "amount",
          "type": "uint256"
        }
      ],
      "name": "transferFrom",
      "outputs": [
        {
          "internalType": "bool",
          "name": "",
          "type": "bool"
        }
      ],
      "stateMutability": "nonpayable",
      "type": "function"
    }
  ],
  "bytecode": "0x60806040523480156200001157600080fd5b50604051620010c0380380620010c0833981016040819052620000349162000321565b80808484816003908051906020019062000050929190620001c8565b50805162000066906004906020840190620001c8565b5050506001600160a01b038116620000c55760405162461bcd60e51b815260206004820152601960248201527f4f776e657220616464726573732063616e6e6f7420626520300000000000000060448201526064015b60405180910390fd5b600580546001600160a01b0319166001600160a01b038316908117909155604080516000815260208101929092527fb532073b38c83145e3e5135377a08bf9aab55bc0fd7c1179cd4fb995d2a5159c910160405180910390a1506005546001600160a01b03166200016d5760405162461bcd60e51b815260206004820152601160248201527013dddb995c881b5d5cdd081899481cd95d607a1b6044820152606401620000bc565b600780546001600160a01b0319166001600160a01b0383169081179091556040519081527f73f20cff579e8a4086fa607db83867595f1b6a798e718c0bfa0b94a404128e039060200160405180910390a150505050620003fd565b828054620001d690620003aa565b90600052602060002090601f016020900481019282620001fa576000855562000245565b82601f106200021557805160ff191683800117855562000245565b8280016001018555821562000245579182015b828111156200024557825182559160200191906001019062000228565b506200025392915062000257565b5090565b5b8082111562000253576000815560010162000258565b600082601f8301126200027f578081fd5b81516001600160401b03808211156200029c576200029c620003e7565b604051601f8301601f19908116603f01168101908282118183101715620002c757620002c7620003e7565b81604052838152602092508683858801011115620002e3578485fd5b8491505b83821015620003065785820183015181830184015290820190620002e7565b838211156200031757848385830101525b9695505050505050565b60008060006060848603121562000336578283fd5b83516001600160401b03808211156200034d578485fd5b6200035b878388016200026e565b9450602086015191508082111562000371578384fd5b5062000380868287016200026e565b604086015190935090506001600160a01b03811681146200039f578182fd5b809150509250925092565b600181811c90821680620003bf57607f821691505b60208210811415620003e157634e487b7160e01b600052602260045260246000fd5b50919050565b634e487b7160e01b600052604160045260246000fd5b610cb3806200040d6000396000f3fe608060405234801561001057600080fd5b50600436106101165760003560e01c806353a47bb7116100a257806395d89b411161007157806395d89b411461024d578063a457c2d714610255578063a9059cbb14610268578063aefc4ccb1461027b578063dd62ed3e1461028e57600080fd5b806353a47bb7146101de57806370a082311461020957806379ba5097146102325780638da5cb5b1461023a57600080fd5b806323b872dd116100e957806323b872dd14610183578063313ce5671461019657806339509351146101a557806340c10f19146101b857806352f445ca146101cb57600080fd5b806306fdde031461011b578063095ea7b3146101395780631627540c1461015c57806318160ddd14610171575b600080fd5b6101236102a1565b6040516101309190610bcb565b60405180910390f35b61014c610147366004610ba2565b610333565b6040519015158152602001610130565b61016f61016a366004610b14565b61034b565b005b6002545b604051908152602001610130565b61014c610191366004610b67565b6103a8565b60405160128152602001610130565b61014c6101b3366004610ba2565b6103cc565b61014c6101c6366004610ba2565b6103ee565b61016f6101d9366004610b14565b610480565b6006546101f1906001600160a01b031681565b6040516001600160a01b039091168152602001610130565b610175610217366004610b14565b6001600160a01b031660009081526020819052604090205490565b61016f6104d6565b6005546101f1906001600160a01b031681565b6101236105c0565b61014c610263366004610ba2565b6105cf565b61014c610276366004610ba2565b61064a565b6007546101f1906001600160a01b031681565b61017561029c366004610b35565b610658565b6060600380546102b090610c42565b80601f01602080910402602001604051908101604052809291908181526020018280546102dc90610c42565b80156103295780601f106102fe57610100808354040283529160200191610329565b820191906000526020600020905b81548152906001019060200180831161030c57829003601f168201915b5050505050905090565b600033610341818585610683565b5060019392505050565b6103536107a7565b600680546001600160a01b0319166001600160a01b0383169081179091556040519081527f906a1c6bd7e3091ea86693dd029a831c19049ce77f1dce2ce0bab1cacbabce22906020015b60405180910390a150565b6000336103b685828561081b565b6103c1858585610895565b506001949350505050565b6000336103418185856103df8383610658565b6103e99190610c1e565b610683565b6007546000906001600160a01b0316331461046d5760405162461bcd60e51b815260206004820152603460248201527f4f6e6c7920746865206173736f63696174656420636f6e74726163742063616e604482015273103832b93337b936903a3434b99030b1ba34b7b760611b60648201526084015b60405180910390fd5b6104778383610a39565b50600192915050565b6104886107a7565b600780546001600160a01b0319166001600160a01b0383169081179091556040519081527f73f20cff579e8a4086fa607db83867595f1b6a798e718c0bfa0b94a404128e039060200161039d565b6006546001600160a01b0316331461054e5760405162461bcd60e51b815260206004820152603560248201527f596f75206d757374206265206e6f6d696e61746564206265666f726520796f7560448201527402063616e20616363657074206f776e65727368697605c1b6064820152608401610464565b600554600654604080516001600160a01b0393841681529290911660208301527fb532073b38c83145e3e5135377a08bf9aab55bc0fd7c1179cd4fb995d2a5159c910160405180910390a160068054600580546001600160a01b03199081166001600160a01b03841617909155169055565b6060600480546102b090610c42565b600033816105dd8286610658565b90508381101561063d5760405162461bcd60e51b815260206004820152602560248201527f58524332303a2064656372656173656420616c6c6f77616e63652062656c6f77604482015264207a65726f60d81b6064820152608401610464565b6103c18286868403610683565b600033610341818585610895565b6001600160a01b03918216600090815260016020908152604080832093909416825291909152205490565b6001600160a01b0383166106e55760405162461bcd60e51b8152602060048201526024808201527f58524332303a20617070726f76652066726f6d20746865207a65726f206164646044820152637265737360e01b6064820152608401610464565b6001600160a01b0382166107465760405162461bcd60e51b815260206004820152602260248201527f58524332303a20617070726f766520746f20746865207a65726f206164647265604482015261737360f01b6064820152608401610464565b6001600160a01b0383811660008181526001602090815260408083209487168084529482529182902085905590518481527f8c5be1e5ebec7d5bd14f71427d1e84f3dd0314c0f7b2291e5b200ac8c7c3b925910160405180910390a3505050565b6005546001600160a01b031633146108195760405162461bcd60e51b815260206004820152602f60248201527f4f6e6c792074686520636f6e7472616374206f776e6572206d6179207065726660448201526e37b936903a3434b99030b1ba34b7b760891b6064820152608401610464565b565b60006108278484610658565b9050600019811461088f57818110156108825760405162461bcd60e51b815260206004820152601d60248201527f58524332303a20696e73756666696369656e7420616c6c6f77616e63650000006044820152606401610464565b61088f8484848403610683565b50505050565b6001600160a01b0383166108f95760405162461bcd60e51b815260206004820152602560248201527f58524332303a207472616e736665722066726f6d20746865207a65726f206164604482015264647265737360d81b6064820152608401610464565b6001600160a01b03821661095b5760405162461bcd60e51b815260206004820152602360248201527f58524332303a207472616e7366657220746f20746865207a65726f206164647260448201526265737360e81b6064820152608401610464565b6001600160a01b038316600090815260208190526040902054818110156109d35760405162461bcd60e51b815260206004820152602660248201527f58524332303a207472616e7366657220616d6f756e7420657863656564732062604482015265616c616e636560d01b6064820152608401610464565b6001600160a01b03848116600081815260208181526040808320878703905593871680835291849020805487019055925185815290927fddf252ad1be2c89b69c2b068fc378daa952ba7f163c4a11628f55a4df523b3ef910160405180910390a361088f565b6001600160a01b038216610a8f5760405162461bcd60e51b815260206004820152601f60248201527f58524332303a206d696e7420746f20746865207a65726f2061646472657373006044820152606401610464565b8060026000828254610aa19190610c1e565b90915550506001600160a01b038216600081815260208181526040808320805486019055518481527fddf252ad1be2c89b69c2b068fc378daa952ba7f163c4a11628f55a4df523b3ef910160405180910390a35050565b80356001600160a01b0381168114610b0f57600080fd5b919050565b600060208284031215610b25578081fd5b610b2e82610af8565b9392505050565b60008060408385031215610b47578081fd5b610b5083610af8565b9150610b5e60208401610af8565b90509250929050565b600080600060608486031215610b7b578081fd5b610b8484610af8565b9250610b9260208501610af8565b9150604084013590509250925092565b60008060408385031215610bb4578182fd5b610bbd83610af8565b946020939093013593505050565b6000602080835283518082850152825b81811015610bf757858101830151858201604001528201610bdb565b81811115610c085783604083870101525b50601f01601f1916929092016040019392505050565b60008219821115610c3d57634e487b7160e01b81526011600452602481fd5b500190565b600181811c90821680610c5657607f821691505b60208210811415610c7757634e487b7160e01b600052602260045260246000fd5b5091905056fea2646970667358221220a8ce17771244709d44f86725c00832bc4747e7f4fbd8c6614e6982cf3379a71164736f6c63430008040033",
  "linkReferences": {},
  "deployedLinkReferences": {}
}