{
  "_format": "hh-sol-artifact-1",
  "contractName": "XSynExchange",
  "sourceName": "contracts/XSynExchange.sol",
  "abi": [
    {
      "inputs": [],
      "stateMutability": "nonpayable",
      "type": "constructor"
    },
    {
      "anonymous": false,
      "inputs": [
        {
          "indexed": false,
          "internalType": "bytes32",
          "name": "name",
          "type": "bytes32"
        },
        {
          "indexed": false,
          "internalType": "address",
          "name": "destination",
          "type": "address"
        }
      ],
      "name": "CacheUpdated",
      "type": "event"
    },
    {
      "anonymous": false,
      "inputs": [
        {
          "indexed": false,
          "internalType": "uint256",
          "name": "amount",
          "type": "uint256"
        }
      ],
      "name": "MinimumDepositAmountUpdated",
      "type": "event"
    },
    {
      "anonymous": false,
      "inputs": [
        {
          "indexed": false,
          "internalType": "address",
          "name": "_user",
          "type": "address"
        },
        {
          "indexed": false,
          "internalType": "uint256",
          "name": "_xdusdAmt",
          "type": "uint256"
        },
        {
          "indexed": false,
          "internalType": "uint256",
          "name": "_synthsToMint",
          "type": "uint256"
        },
        {
          "indexed": false,
          "internalType": "string",
          "name": "_wprefixSynth",
          "type": "string"
        }
      ],
      "name": "updatedebt",
      "type": "event"
    },
    {
      "inputs": [],
      "name": "CONTRACTNAME",
      "outputs": [
        {
          "internalType": "string",
          "name": "",
          "type": "string"
        }
      ],
      "stateMutability": "view",
      "type": "function"
    },
    {
      "inputs": [],
      "name": "CONTRACT_NAME",
      "outputs": [
        {
          "internalType": "string",
          "name": "",
          "type": "string"
        }
      ],
      "stateMutability": "view",
      "type": "function"
    },
    {
      "inputs": [],
      "name": "_owner",
      "outputs": [
        {
          "internalType": "address",
          "name": "",
          "type": "address"
        }
      ],
      "stateMutability": "view",
      "type": "function"
    },
    {
      "inputs": [
        {
          "internalType": "bytes32",
          "name": "",
          "type": "bytes32"
        }
      ],
      "name": "addressCache",
      "outputs": [
        {
          "internalType": "address",
          "name": "",
          "type": "address"
        }
      ],
      "stateMutability": "view",
      "type": "function"
    },
    {
      "inputs": [
        {
          "internalType": "uint256",
          "name": "_units",
          "type": "uint256"
        },
        {
          "internalType": "string",
          "name": "_symbol",
          "type": "string"
        }
      ],
      "name": "calculateUnits",
      "outputs": [
        {
          "internalType": "uint256",
          "name": "",
          "type": "uint256"
        }
      ],
      "stateMutability": "view",
      "type": "function"
    },
    {
      "inputs": [],
      "name": "contractOwner",
      "outputs": [
        {
          "internalType": "address",
          "name": "",
          "type": "address"
        }
      ],
      "stateMutability": "view",
      "type": "function"
    },
    {
      "inputs": [
        {
          "internalType": "uint256",
          "name": "_amount",
          "type": "uint256"
        },
        {
          "internalType": "address",
          "name": "_preferredSynthAddress",
          "type": "address"
        },
        {
          "internalType": "string",
          "name": "_woprefixSynth",
          "type": "string"
        },
        {
          "internalType": "string",
          "name": "_wprefixSynth",
          "type": "string"
        }
      ],
      "name": "exchangeXDUSDForSynths",
      "outputs": [
        {
          "internalType": "uint256",
          "name": "",
          "type": "uint256"
        }
      ],
      "stateMutability": "nonpayable",
      "type": "function"
    },
    {
      "inputs": [
        {
          "internalType": "address",
          "name": "",
          "type": "address"
        },
        {
          "internalType": "string",
          "name": "",
          "type": "string"
        }
      ],
      "name": "exchanges",
      "outputs": [
        {
          "internalType": "address",
          "name": "user",
          "type": "address"
        },
        {
          "internalType": "uint256",
          "name": "xdUsdDeposit",
          "type": "uint256"
        },
        {
          "internalType": "uint256",
          "name": "synthsExchanged",
          "type": "uint256"
        },
        {
          "internalType": "address",
          "name": "currencyAddress",
          "type": "address"
        },
        {
          "internalType": "uint256",
          "name": "exchangedOn",
          "type": "uint256"
        }
      ],
      "stateMutability": "view",
      "type": "function"
    },
    {
      "inputs": [
        {
          "internalType": "bytes32",
          "name": "_name",
          "type": "bytes32"
        }
      ],
      "name": "fetchAddress",
      "outputs": [
        {
          "internalType": "address",
          "name": "",
          "type": "address"
        }
      ],
      "stateMutability": "view",
      "type": "function"
    },
    {
      "inputs": [],
      "name": "fetchPrices",
      "outputs": [
        {
          "components": [
            {
              "internalType": "uint256",
              "name": "_tokenId",
              "type": "uint256"
            },
            {
              "internalType": "string",
              "name": "Symbol",
              "type": "string"
            },
            {
              "internalType": "string",
              "name": "woPrefix",
              "type": "string"
            },
            {
              "internalType": "uint256",
              "name": "currentprice",
              "type": "uint256"
            },
            {
              "internalType": "address",
              "name": "TokenAddress",
              "type": "address"
            }
          ],
          "internalType": "struct XSynExchange.SupportTokens[]",
          "name": "",
          "type": "tuple[]"
        }
      ],
      "stateMutability": "view",
      "type": "function"
    },
    {
      "inputs": [],
      "name": "minimumXDUSDDepositAmount",
      "outputs": [
        {
          "internalType": "uint256",
          "name": "",
          "type": "uint256"
        }
      ],
      "stateMutability": "view",
      "type": "function"
    },
    {
      "inputs": [
        {
          "internalType": "address",
          "name": "",
          "type": "address"
        }
      ],
      "name": "mintr",
      "outputs": [
        {
          "internalType": "uint256",
          "name": "",
          "type": "uint256"
        }
      ],
      "stateMutability": "view",
      "type": "function"
    },
    {
      "inputs": [
        {
          "internalType": "bytes32",
          "name": "_name",
          "type": "bytes32"
        }
      ],
      "name": "requireAndGetAddress",
      "outputs": [
        {
          "internalType": "address",
          "name": "",
          "type": "address"
        }
      ],
      "stateMutability": "view",
      "type": "function"
    },
    {
      "inputs": [
        {
          "internalType": "uint256",
          "name": "_minDeposit",
          "type": "uint256"
        }
      ],
      "name": "setMinDepositForXDUSD",
      "outputs": [],
      "stateMutability": "nonpayable",
      "type": "function"
    },
    {
      "inputs": [
        {
          "internalType": "string",
          "name": "_symbol",
          "type": "string"
        }
      ],
      "name": "showBalances",
      "outputs": [
        {
          "internalType": "uint256",
          "name": "",
          "type": "uint256"
        }
      ],
      "stateMutability": "view",
      "type": "function"
    },
    {
      "inputs": [
        {
          "internalType": "string",
          "name": "",
          "type": "string"
        }
      ],
      "name": "supportedAddress",
      "outputs": [
        {
          "internalType": "address",
          "name": "",
          "type": "address"
        }
      ],
      "stateMutability": "view",
      "type": "function"
    },
    {
      "inputs": [
        {
          "internalType": "bytes32",
          "name": "_name",
          "type": "bytes32"
        },
        {
          "internalType": "address",
          "name": "_destination",
          "type": "address"
        }
      ],
      "name": "updateCache",
      "outputs": [],
      "stateMutability": "nonpayable",
      "type": "function"
    },
    {
      "inputs": [
        {
          "internalType": "string",
          "name": "_name",
          "type": "string"
        },
        {
          "internalType": "string",
          "name": "_woPrefix",
          "type": "string"
        },
        {
          "internalType": "address",
          "name": "_destination",
          "type": "address"
        }
      ],
      "name": "updateSupportedTokens",
      "outputs": [],
      "stateMutability": "nonpayable",
      "type": "function"
    }
  ],
  "bytecode": "0x6080604052670de0b6b3a764000060055534801561001c57600080fd5b5060018054336001600160a01b031991821681179092556004805490911690911790556100546002610059602090811b610c6117901c565b610062565b80546001019055565b611a2f806100716000396000f3fe608060405234801561001057600080fd5b50600436106101165760003560e01c8063b2bdfa7b116100a2578063ce606ee011610071578063ce606ee0146102f7578063d6ea7b3b1461030a578063dc675a651461032a578063f187574414610353578063f1efc5d91461037e57600080fd5b8063b2bdfa7b1461029b578063b7eeefd7146102ae578063c2e7df21146101e9578063c5460d84146102e257600080fd5b8063614d08f8116100e9578063614d08f814610214578063888e31131461024f57806388a842eb146102625780639671e28014610275578063aeb5ff371461028857600080fd5b80630307e5f31461011b57806326df0540146101375780632ebb547f1461014c57806346bcb49d146101e9575b600080fd5b61012460055481565b6040519081526020015b60405180910390f35b61014a61014536600461156e565b610391565b005b6101b261015a366004611484565b60086020908152600092835260409092208151808301840180519281529084019290930191909120915280546001820154600283015460038401546004909401546001600160a01b0393841694929391929091169085565b604080516001600160a01b03968716815260208101959095528401929092529092166060820152608081019190915260a00161012e565b6101fc6101f73660046114f0565b6104cf565b6040516001600160a01b03909116815260200161012e565b6102426040518060400160405280600f81526020016e20b2323932b9b9a932b9b7b63b32b960891b81525081565b60405161012e91906117c3565b61012461025d366004611533565b610549565b61014a6102703660046114f0565b6105d3565b6101246102833660046115f7565b610638565b610124610296366004611672565b6107bf565b6001546101fc906001600160a01b031681565b6101fc6102bc366004611533565b80516020818301810180516006825292820191909301209152546001600160a01b031681565b6102ea610863565b60405161012e9190611716565b6004546101fc906001600160a01b031681565b61012461031836600461146a565b60036020526000908152604090205481565b6101fc6103383660046114f0565b6000602081905290815260409020546001600160a01b031681565b6102426040518060400160405280600c81526020016b5853796e45786368616e676560a01b81525081565b61014a61038c366004611508565b610bab565b6004546001600160a01b031633146103c45760405162461bcd60e51b81526004016103bb9061187c565b60405180910390fd5b60006103cf60025490565b90506103df600280546001019055565b6040805160a08101825282815260208082018781528284018790526000606084018190526001600160a01b038716608085015285815260078352939093208251815592518051929392610438926001850192019061132e565b506040820151805161045491600284019160209091019061132e565b5060608201516003820155608090910151600490910180546001600160a01b0319166001600160a01b03909216919091179055604051829060069061049a9087906116cd565b90815260405190819003602001902080546001600160a01b03929092166001600160a01b031990921691909117905550505050565b60008181526020818152604080832054905170026b4b9b9b4b7339030b2323932b9b99d1607d1b92810192909252603182018490526001600160a01b03169081151590605101604051602081830303815290604052906105425760405162461bcd60e51b81526004016103bb91906117c3565b5092915050565b600061055482610c6a565b6040516370a0823160e01b81523360048201526001600160a01b0391909116906370a082319060240160206040518083038186803b15801561059557600080fd5b505afa1580156105a9573d6000803e3d6000fd5b505050506040513d601f19601f820116820180604052508101906105cd91906115df565b92915050565b6004546001600160a01b031633146105fd5760405162461bcd60e51b81526004016103bb9061187c565b60058190556040518181527fa39eacd162ee82c70b2b030a1bc8fe89adcccc61122fad4821a8772dbcc542679060200160405180910390a150565b60006005548510156106ab5760405162461bcd60e51b815260206004820152603660248201527f584455534420616d6f756e742053686f756c64206265206d696e696d756d58446044820152751554d111195c1bdcda5d105b5bdd5b9d081b1a5b5a5d60521b60648201526084016103bb565b6106fb3360066040518060400160405280600581526020016416111554d160da1b8152506040516106dc91906116cd565b908152604051908190036020019020546001600160a01b031687610c9b565b61074b3360066040518060400160405280600581526020016416111554d160da1b81525060405161072c91906116cd565b908152604051908190036020019020546001600160a01b031687610d7e565b600061075786856107bf565b90506107a88660066040518060400160405280600581526020016416111554d160da1b81525060405161078a91906116cd565b908152604051908190036020019020546001600160a01b0316610e5c565b6107b58187878688610ee2565b9695505050505050565b6000806107ca611109565b6001600160a01b031663a40b18c2846040518263ffffffff1660e01b81526004016107f591906117c3565b60206040518083038186803b15801561080d57600080fd5b505afa158015610821573d6000803e3d6000fd5b505050506040513d601f19601f8201168201806040525081019061084591906115df565b90506000610853858361115d565b905060006107b5826127106111a6565b6060600061087b600161087560025490565b90611225565b90506000808267ffffffffffffffff8111156108a757634e487b7160e01b600052604160045260246000fd5b60405190808252806020026020018201604052801561091357816020015b6109006040518060a001604052806000815260200160608152602001606081526020016000815260200160006001600160a01b031681525090565b8152602001906001900390816108c55790505b50905060005b83811015610ba357600061092e8260016118d9565b90506000600760008381526020019081526020016000209050806040518060a00160405290816000820154815260200160018201805461096d90611977565b80601f016020809104026020016040519081016040528092919081815260200182805461099990611977565b80156109e65780601f106109bb576101008083540402835291602001916109e6565b820191906000526020600020905b8154815290600101906020018083116109c957829003601f168201915b505050505081526020016002820180546109ff90611977565b80601f0160208091040260200160405190810160405280929190818152602001828054610a2b90611977565b8015610a785780601f10610a4d57610100808354040283529160200191610a78565b820191906000526020600020905b815481529060010190602001808311610a5b57829003601f168201915b5050509183525050600382015460208201526004909101546001600160a01b03166040909101528451859087908110610ac157634e487b7160e01b600052603260045260246000fd5b6020026020010181905250610ad4611109565b6001600160a01b031663a40b18c2826002016040518263ffffffff1660e01b8152600401610b0291906117d6565b60206040518083038186803b158015610b1a57600080fd5b505afa158015610b2e573d6000803e3d6000fd5b505050506040513d601f19601f82011682018060405250810190610b5291906115df565b848681518110610b7257634e487b7160e01b600052603260045260246000fd5b602090810291909101015160600152610b8c6001866118d9565b945050508080610b9b906119b2565b915050610919565b509392505050565b6001546001600160a01b03163314610bfd5760405162461bcd60e51b81526020600482015260156024820152746f6e6c79206f776e65722063616e2075706461746560581b60448201526064016103bb565b6000828152602081815260409182902080546001600160a01b0319166001600160a01b0385169081179091558251858152918201527f88a93678a3692f6789d9546fc621bf7234b101ddb7d4fe479455112831b8aa68910160405180910390a15050565b80546001019055565b6000600682604051610c7c91906116cd565b908152604051908190036020019020546001600160a01b031692915050565b6040516370a0823160e01b81526001600160a01b0384811660048301528291908416906370a082319060240160206040518083038186803b158015610cdf57600080fd5b505afa158015610cf3573d6000803e3d6000fd5b505050506040513d601f19601f82011682018060405250810190610d1791906115df565b1015610d795760405162461bcd60e51b815260206004820152602b60248201527f5852433230476174657761793a20696e73756666696369656e7420637572726560448201526a6e63792062616c616e636560a81b60648201526084016103bb565b505050565b604051636eb1769f60e11b81526001600160a01b03848116600483015230602483015282919084169063dd62ed3e9060440160206040518083038186803b158015610dc857600080fd5b505afa158015610ddc573d6000803e3d6000fd5b505050506040513d601f19601f82011682018060405250810190610e0091906115df565b1015610d795760405162461bcd60e51b815260206004820152602560248201527f5852433230476174657761793a20696e73756666696369656e7420616c6c6f7760448201526430b731b29760d91b60648201526084016103bb565b6040516323b872dd60e01b8152336004820152306024820152604481018390526001600160a01b038216906323b872dd90606401602060405180830381600087803b158015610eaa57600080fd5b505af1158015610ebe573d6000803e3d6000fd5b505050506040513d601f19601f82011682018060405250810190610d7991906114d0565b336000908152600860205260408082209051829190610f029086906116cd565b908152604080516020928190038301812060a08201835280546001600160a01b03908116835260018201549483018590526002820154938301939093526003810154909216606082015260049091015460808201529150600090610f669088611267565b90506000610f8189846040015161126790919063ffffffff16565b6040805160a0810182523380825260208083018790528284018590526001600160a01b038c166060840152426080840152600091825260089052829020915192935091610fcf9089906116cd565b9081526040805160209281900383019020835181546001600160a01b03199081166001600160a01b03928316178355938501516001830155918401516002820155606084015160038201805490941692169190911790915560809091015160049091015561103c86610c6a565b6040516340c10f1960e01b8152336004820152602481018b90526001600160a01b0391909116906340c10f1990604401602060405180830381600087803b15801561108657600080fd5b505af115801561109a573d6000803e3d6000fd5b505050506040513d601f19601f820116820180604052508101906110be91906114d0565b507f47100f00640ae8015934184e269ba71e299d3b1202b74f06cb441584803cbd6d33898b886040516110f494939291906116e9565b60405180910390a15096979650505050505050565b600060066040518060400160405280600c81526020016b45584348414e47455241544560a01b81525060405161113f91906116cd565b908152604051908190036020019020546001600160a01b0316919050565b600061119f83836040518060400160405280601a81526020017f536166654d6174683a206469766973696f6e206279207a65726f0000000000008152506112c6565b9392505050565b6000826111b5575060006105cd565b60006111c18385611911565b9050826111ce85836118f1565b1461119f5760405162461bcd60e51b815260206004820152602160248201527f536166654d6174683a206d756c7469706c69636174696f6e206f766572666c6f6044820152607760f81b60648201526084016103bb565b600061119f83836040518060400160405280601e81526020017f536166654d6174683a207375627472616374696f6e206f766572666c6f7700008152506112fd565b60008061127483856118d9565b90508381101561119f5760405162461bcd60e51b815260206004820152601b60248201527f536166654d6174683a206164646974696f6e206f766572666c6f77000000000060448201526064016103bb565b600081836112e75760405162461bcd60e51b81526004016103bb91906117c3565b5060006112f484866118f1565b95945050505050565b600081848411156113215760405162461bcd60e51b81526004016103bb91906117c3565b5060006112f48486611930565b82805461133a90611977565b90600052602060002090601f01602090048101928261135c57600085556113a2565b82601f1061137557805160ff19168380011785556113a2565b828001600101855582156113a2579182015b828111156113a2578251825591602001919060010190611387565b506113ae9291506113b2565b5090565b5b808211156113ae57600081556001016113b3565b80356001600160a01b03811681146113de57600080fd5b919050565b600082601f8301126113f3578081fd5b813567ffffffffffffffff8082111561140e5761140e6119e3565b604051601f8301601f19908116603f01168101908282118183101715611436576114366119e3565b8160405283815286602085880101111561144e578485fd5b8360208701602083013792830160200193909352509392505050565b60006020828403121561147b578081fd5b61119f826113c7565b60008060408385031215611496578081fd5b61149f836113c7565b9150602083013567ffffffffffffffff8111156114ba578182fd5b6114c6858286016113e3565b9150509250929050565b6000602082840312156114e1578081fd5b8151801515811461119f578182fd5b600060208284031215611501578081fd5b5035919050565b6000806040838503121561151a578182fd5b8235915061152a602084016113c7565b90509250929050565b600060208284031215611544578081fd5b813567ffffffffffffffff81111561155a578182fd5b611566848285016113e3565b949350505050565b600080600060608486031215611582578081fd5b833567ffffffffffffffff80821115611599578283fd5b6115a5878388016113e3565b945060208601359150808211156115ba578283fd5b506115c7868287016113e3565b9250506115d6604085016113c7565b90509250925092565b6000602082840312156115f0578081fd5b5051919050565b6000806000806080858703121561160c578081fd5b8435935061161c602086016113c7565b9250604085013567ffffffffffffffff80821115611638578283fd5b611644888389016113e3565b93506060870135915080821115611659578283fd5b50611666878288016113e3565b91505092959194509250565b60008060408385031215611684578182fd5b82359150602083013567ffffffffffffffff8111156114ba578182fd5b600081518084526116b9816020860160208601611947565b601f01601f19169290920160200192915050565b600082516116df818460208701611947565b9190910192915050565b60018060a01b03851681528360208201528260408201526080606082015260006107b560808301846116a1565b60006020808301818452808551808352604092508286019150828160051b870101848801865b838110156117b557603f19898403018552815160a08151855288820151818a87015261176a828701826116a1565b915050878201518582038987015261178282826116a1565b606084810151908801526080938401516001600160a01b031693909601929092525050938601939086019060010161173c565b509098975050505050505050565b60208152600061119f60208301846116a1565b6000602080835281845483600182811c9150808316806117f757607f831692505b85831081141561181557634e487b7160e01b87526022600452602487fd5b87860183815260200181801561183257600181146118435761186d565b60ff1986168252878201965061186d565b60008b815260209020895b868110156118675781548482015290850190890161184e565b83019750505b50949998505050505050505050565b6020808252603e908201527f5853796e45786368616e67653a204f6e6c7920417574686f72697a656420576160408201527f6c6c65742063616e20706572666f722074686973206f7065726174696f6e0000606082015260800190565b600082198211156118ec576118ec6119cd565b500190565b60008261190c57634e487b7160e01b81526012600452602481fd5b500490565b600081600019048311821515161561192b5761192b6119cd565b500290565b600082821015611942576119426119cd565b500390565b60005b8381101561196257818101518382015260200161194a565b83811115611971576000848401525b50505050565b600181811c9082168061198b57607f821691505b602082108114156119ac57634e487b7160e01b600052602260045260246000fd5b50919050565b60006000198214156119c6576119c66119cd565b5060010190565b634e487b7160e01b600052601160045260246000fd5b634e487b7160e01b600052604160045260246000fdfea264697066735822122067dd95431876d92514a0808ded5733440271bcfc7ac9176d5c5ae570fad22c2864736f6c63430008040033",
  "linkReferences": {},
  "deployedLinkReferences": {}
}